{
  "_format": "hh-sol-artifact-1",
  "contractName": "YieldToken",
  "sourceName": "contracts/gmx/tokens/YieldToken.sol",
  "abi": [
    {
      "inputs": [
        {
          "internalType": "string",
          "name": "_name",
          "type": "string"
        },
        {
          "internalType": "string",
          "name": "_symbol",
          "type": "string"
        },
        {
          "internalType": "uint256",
          "name": "_initialSupply",
          "type": "uint256"
        }
      ],
      "stateMutability": "nonpayable",
      "type": "constructor"
    },
    {
      "anonymous": false,
      "inputs": [
        {
          "indexed": true,
          "internalType": "address",
          "name": "owner",
          "type": "address"
        },
        {
          "indexed": true,
          "internalType": "address",
          "name": "spender",
          "type": "address"
        },
        {
          "indexed": false,
          "internalType": "uint256",
          "name": "value",
          "type": "uint256"
        }
      ],
      "name": "Approval",
      "type": "event"
    },
    {
      "anonymous": false,
      "inputs": [
        {
          "indexed": true,
          "internalType": "address",
          "name": "from",
          "type": "address"
        },
        {
          "indexed": true,
          "internalType": "address",
          "name": "to",
          "type": "address"
        },
        {
          "indexed": false,
          "internalType": "uint256",
          "name": "value",
          "type": "uint256"
        }
      ],
      "name": "Transfer",
      "type": "event"
    },
    {
      "inputs": [
        {
          "internalType": "address",
          "name": "_account",
          "type": "address"
        }
      ],
      "name": "addAdmin",
      "outputs": [],
      "stateMutability": "nonpayable",
      "type": "function"
    },
    {
      "inputs": [
        {
          "internalType": "address",
          "name": "_account",
          "type": "address"
        }
      ],
      "name": "addNonStakingAccount",
      "outputs": [],
      "stateMutability": "nonpayable",
      "type": "function"
    },
    {
      "inputs": [
        {
          "internalType": "address",
          "name": "",
          "type": "address"
        }
      ],
      "name": "admins",
      "outputs": [
        {
          "internalType": "bool",
          "name": "",
          "type": "bool"
        }
      ],
      "stateMutability": "view",
      "type": "function"
    },
    {
      "inputs": [
        {
          "internalType": "address",
          "name": "_owner",
          "type": "address"
        },
        {
          "internalType": "address",
          "name": "_spender",
          "type": "address"
        }
      ],
      "name": "allowance",
      "outputs": [
        {
          "internalType": "uint256",
          "name": "",
          "type": "uint256"
        }
      ],
      "stateMutability": "view",
      "type": "function"
    },
    {
      "inputs": [
        {
          "internalType": "address",
          "name": "",
          "type": "address"
        },
        {
          "internalType": "address",
          "name": "",
          "type": "address"
        }
      ],
      "name": "allowances",
      "outputs": [
        {
          "internalType": "uint256",
          "name": "",
          "type": "uint256"
        }
      ],
      "stateMutability": "view",
      "type": "function"
    },
    {
      "inputs": [
        {
          "internalType": "address",
          "name": "_spender",
          "type": "address"
        },
        {
          "internalType": "uint256",
          "name": "_amount",
          "type": "uint256"
        }
      ],
      "name": "approve",
      "outputs": [
        {
          "internalType": "bool",
          "name": "",
          "type": "bool"
        }
      ],
      "stateMutability": "nonpayable",
      "type": "function"
    },
    {
      "inputs": [
        {
          "internalType": "address",
          "name": "_account",
          "type": "address"
        }
      ],
      "name": "balanceOf",
      "outputs": [
        {
          "internalType": "uint256",
          "name": "",
          "type": "uint256"
        }
      ],
      "stateMutability": "view",
      "type": "function"
    },
    {
      "inputs": [
        {
          "internalType": "address",
          "name": "",
          "type": "address"
        }
      ],
      "name": "balances",
      "outputs": [
        {
          "internalType": "uint256",
          "name": "",
          "type": "uint256"
        }
      ],
      "stateMutability": "view",
      "type": "function"
    },
    {
      "inputs": [
        {
          "internalType": "address",
          "name": "_receiver",
          "type": "address"
        }
      ],
      "name": "claim",
      "outputs": [],
      "stateMutability": "nonpayable",
      "type": "function"
    },
    {
      "inputs": [],
      "name": "decimals",
      "outputs": [
        {
          "internalType": "uint8",
          "name": "",
          "type": "uint8"
        }
      ],
      "stateMutability": "view",
      "type": "function"
    },
    {
      "inputs": [],
      "name": "gov",
      "outputs": [
        {
          "internalType": "address",
          "name": "",
          "type": "address"
        }
      ],
      "stateMutability": "view",
      "type": "function"
    },
    {
      "inputs": [],
      "name": "inWhitelistMode",
      "outputs": [
        {
          "internalType": "bool",
          "name": "",
          "type": "bool"
        }
      ],
      "stateMutability": "view",
      "type": "function"
    },
    {
      "inputs": [],
      "name": "name",
      "outputs": [
        {
          "internalType": "string",
          "name": "",
          "type": "string"
        }
      ],
      "stateMutability": "view",
      "type": "function"
    },
    {
      "inputs": [
        {
          "internalType": "address",
          "name": "",
          "type": "address"
        }
      ],
      "name": "nonStakingAccounts",
      "outputs": [
        {
          "internalType": "bool",
          "name": "",
          "type": "bool"
        }
      ],
      "stateMutability": "view",
      "type": "function"
    },
    {
      "inputs": [],
      "name": "nonStakingSupply",
      "outputs": [
        {
          "internalType": "uint256",
          "name": "",
          "type": "uint256"
        }
      ],
      "stateMutability": "view",
      "type": "function"
    },
    {
      "inputs": [
        {
          "internalType": "address",
          "name": "_account",
          "type": "address"
        },
        {
          "internalType": "address",
          "name": "_receiver",
          "type": "address"
        }
      ],
      "name": "recoverClaim",
      "outputs": [],
      "stateMutability": "nonpayable",
      "type": "function"
    },
    {
      "inputs": [
        {
          "internalType": "address",
          "name": "_account",
          "type": "address"
        }
      ],
      "name": "removeAdmin",
      "outputs": [],
      "stateMutability": "nonpayable",
      "type": "function"
    },
    {
      "inputs": [
        {
          "internalType": "address",
          "name": "_account",
          "type": "address"
        }
      ],
      "name": "removeNonStakingAccount",
      "outputs": [],
      "stateMutability": "nonpayable",
      "type": "function"
    },
    {
      "inputs": [
        {
          "internalType": "address",
          "name": "_gov",
          "type": "address"
        }
      ],
      "name": "setGov",
      "outputs": [],
      "stateMutability": "nonpayable",
      "type": "function"
    },
    {
      "inputs": [
        {
          "internalType": "bool",
          "name": "_inWhitelistMode",
          "type": "bool"
        }
      ],
      "name": "setInWhitelistMode",
      "outputs": [],
      "stateMutability": "nonpayable",
      "type": "function"
    },
    {
      "inputs": [
        {
          "internalType": "string",
          "name": "_name",
          "type": "string"
        },
        {
          "internalType": "string",
          "name": "_symbol",
          "type": "string"
        }
      ],
      "name": "setInfo",
      "outputs": [],
      "stateMutability": "nonpayable",
      "type": "function"
    },
    {
      "inputs": [
        {
          "internalType": "address",
          "name": "_handler",
          "type": "address"
        },
        {
          "internalType": "bool",
          "name": "_isWhitelisted",
          "type": "bool"
        }
      ],
      "name": "setWhitelistedHandler",
      "outputs": [],
      "stateMutability": "nonpayable",
      "type": "function"
    },
    {
      "inputs": [
        {
          "internalType": "address[]",
          "name": "_yieldTrackers",
          "type": "address[]"
        }
      ],
      "name": "setYieldTrackers",
      "outputs": [],
      "stateMutability": "nonpayable",
      "type": "function"
    },
    {
      "inputs": [
        {
          "internalType": "address",
          "name": "_account",
          "type": "address"
        }
      ],
      "name": "stakedBalance",
      "outputs": [
        {
          "internalType": "uint256",
          "name": "",
          "type": "uint256"
        }
      ],
      "stateMutability": "view",
      "type": "function"
    },
    {
      "inputs": [],
      "name": "symbol",
      "outputs": [
        {
          "internalType": "string",
          "name": "",
          "type": "string"
        }
      ],
      "stateMutability": "view",
      "type": "function"
    },
    {
      "inputs": [],
      "name": "totalStaked",
      "outputs": [
        {
          "internalType": "uint256",
          "name": "",
          "type": "uint256"
        }
      ],
      "stateMutability": "view",
      "type": "function"
    },
    {
      "inputs": [],
      "name": "totalSupply",
      "outputs": [
        {
          "internalType": "uint256",
          "name": "",
          "type": "uint256"
        }
      ],
      "stateMutability": "view",
      "type": "function"
    },
    {
      "inputs": [
        {
          "internalType": "address",
          "name": "_recipient",
          "type": "address"
        },
        {
          "internalType": "uint256",
          "name": "_amount",
          "type": "uint256"
        }
      ],
      "name": "transfer",
      "outputs": [
        {
          "internalType": "bool",
          "name": "",
          "type": "bool"
        }
      ],
      "stateMutability": "nonpayable",
      "type": "function"
    },
    {
      "inputs": [
        {
          "internalType": "address",
          "name": "_sender",
          "type": "address"
        },
        {
          "internalType": "address",
          "name": "_recipient",
          "type": "address"
        },
        {
          "internalType": "uint256",
          "name": "_amount",
          "type": "uint256"
        }
      ],
      "name": "transferFrom",
      "outputs": [
        {
          "internalType": "bool",
          "name": "",
          "type": "bool"
        }
      ],
      "stateMutability": "nonpayable",
      "type": "function"
    },
    {
      "inputs": [
        {
          "internalType": "address",
          "name": "",
          "type": "address"
        }
      ],
      "name": "whitelistedHandlers",
      "outputs": [
        {
          "internalType": "bool",
          "name": "",
          "type": "bool"
        }
      ],
      "stateMutability": "view",
      "type": "function"
    },
    {
      "inputs": [
        {
          "internalType": "address",
          "name": "_token",
          "type": "address"
        },
        {
          "internalType": "address",
          "name": "_account",
          "type": "address"
        },
        {
          "internalType": "uint256",
          "name": "_amount",
          "type": "uint256"
        }
      ],
      "name": "withdrawToken",
      "outputs": [],
      "stateMutability": "nonpayable",
      "type": "function"
    },
    {
      "inputs": [
        {
          "internalType": "uint256",
          "name": "",
          "type": "uint256"
        }
      ],
      "name": "yieldTrackers",
      "outputs": [
        {
          "internalType": "address",
          "name": "",
          "type": "address"
        }
      ],
      "stateMutability": "view",
      "type": "function"
    }
  ],
  "bytecode": "0x60806040523480156200001157600080fd5b506040516200390638038062003906833981810160405260608110156200003757600080fd5b81019080805160405193929190846401000000008211156200005857600080fd5b838201915060208201858111156200006f57600080fd5b82518660018202830111640100000000821117156200008d57600080fd5b8083526020830192505050908051906020019080838360005b83811015620000c3578082015181840152602081019050620000a6565b50505050905090810190601f168015620000f15780820380516001836020036101000a031916815260200191505b50604052602001805160405193929190846401000000008211156200011557600080fd5b838201915060208201858111156200012c57600080fd5b82518660018202830111640100000000821117156200014a57600080fd5b8083526020830192505050908051906020019080838360005b838110156200018057808201518184015260208101905062000163565b50505050905090810190601f168015620001ae5780820380516001836020036101000a031916815260200191505b50604052602001805190602001909291905050508260009080519060200190620001da9291906200064c565b508160019080519060200190620001f39291906200064c565b5033600460006101000a81548173ffffffffffffffffffffffffffffffffffffffff021916908373ffffffffffffffffffffffffffffffffffffffff1602179055506001600960003373ffffffffffffffffffffffffffffffffffffffff1673ffffffffffffffffffffffffffffffffffffffff16815260200190815260200160002060006101000a81548160ff0219169083151502179055506200029f3382620002a860201b60201c565b505050620006f2565b600073ffffffffffffffffffffffffffffffffffffffff168273ffffffffffffffffffffffffffffffffffffffff16141562000330576040517f08c379a0000000000000000000000000000000000000000000000000000000008152600401808060200182810382526024815260200180620038e26024913960400191505060405180910390fd5b6200034182620004df60201b60201c565b6200035d81600254620005c360201b620021bc1790919060201c565b600281905550620003bc81600560008573ffffffffffffffffffffffffffffffffffffffff1673ffffffffffffffffffffffffffffffffffffffff16815260200190815260200160002054620005c360201b620021bc1790919060201c565b600560008473ffffffffffffffffffffffffffffffffffffffff1673ffffffffffffffffffffffffffffffffffffffff16815260200190815260200160002081905550600860008373ffffffffffffffffffffffffffffffffffffffff1673ffffffffffffffffffffffffffffffffffffffff16815260200190815260200160002060009054906101000a900460ff161562000475576200046e81600354620005c360201b620021bc1790919060201c565b6003819055505b8173ffffffffffffffffffffffffffffffffffffffff16600073ffffffffffffffffffffffffffffffffffffffff167fddf252ad1be2c89b69c2b068fc378daa952ba7f163c4a11628f55a4df523b3ef836040518082815260200191505060405180910390a35050565b60005b600780549050811015620005bf576000600782815481106200050057fe5b9060005260206000200160009054906101000a900473ffffffffffffffffffffffffffffffffffffffff1690508073ffffffffffffffffffffffffffffffffffffffff16635fd61965846040518263ffffffff1660e01b8152600401808273ffffffffffffffffffffffffffffffffffffffff168152602001915050600060405180830381600087803b1580156200059757600080fd5b505af1158015620005ac573d6000803e3d6000fd5b50505050508080600101915050620004e2565b5050565b60008082840190508381101562000642576040517f08c379a000000000000000000000000000000000000000000000000000000000815260040180806020018281038252601b8152602001807f536166654d6174683a206164646974696f6e206f766572666c6f77000000000081525060200191505060405180910390fd5b8091505092915050565b828054600181600116156101000203166002900490600052602060002090601f016020900481019282601f106200068f57805160ff1916838001178555620006c0565b82800160010185558215620006c0579182015b82811115620006bf578251825591602001919060010190620006a2565b5b509050620006cf9190620006d3565b5090565b5b80821115620006ee576000816000905550600101620006d4565b5090565b6131e080620007026000396000f3fe608060405234801561001057600080fd5b50600436106101f05760003560e01c806355b6ed5c1161010f578063996f11ee116100a2578063cfad57a211610071578063cfad57a214610c18578063d92fc87e14610c5c578063dd62ed3e14610cac578063fb30d91614610d24576101f0565b8063996f11ee146109e0578063a9059cbb14610a44578063a923fc4014610aa8578063c93be63614610bfa576101f0565b806370a08231116100de57806370a082311461088d578063817b1cd2146108e55780639554381a1461090357806395d89b411461095d576101f0565b806355b6ed5c1461073557806360217267146107ad57806362289077146108055780637048027514610849576101f0565b8063276eab4e11610187578063363000511161015657806336300051146105f9578063429b62e5146106535780634cb5bbe3146106ad57806352cd38d9146106dd576101f0565b8063276eab4e146104a857806327e235e314610560578063293d6987146105b8578063313ce567146105d8576101f0565b80631785f53c116101c35780631785f53c1461037e57806318160ddd146103c25780631e83409a146103e057806323b872dd14610424576101f0565b806301e33667146101f557806306fdde0314610263578063095ea7b3146102e657806312d43a511461034a575b600080fd5b6102616004803603606081101561020b57600080fd5b81019080803573ffffffffffffffffffffffffffffffffffffffff169060200190929190803573ffffffffffffffffffffffffffffffffffffffff16906020019092919080359060200190929190505050610d68565b005b61026b610e5b565b6040518080602001828103825283818151815260200191508051906020019080838360005b838110156102ab578082015181840152602081019050610290565b50505050905090810190601f1680156102d85780820380516001836020036101000a031916815260200191505b509250505060405180910390f35b610332600480360360408110156102fc57600080fd5b81019080803573ffffffffffffffffffffffffffffffffffffffff16906020019092919080359060200190929190505050610ef9565b60405180821515815260200191505060405180910390f35b610352610f10565b604051808273ffffffffffffffffffffffffffffffffffffffff16815260200191505060405180910390f35b6103c06004803603602081101561039457600080fd5b81019080803573ffffffffffffffffffffffffffffffffffffffff169060200190929190505050610f36565b005b6103ca611054565b6040518082815260200191505060405180910390f35b610422600480360360208110156103f657600080fd5b81019080803573ffffffffffffffffffffffffffffffffffffffff16906020019092919050505061105a565b005b6104906004803603606081101561043a57600080fd5b81019080803573ffffffffffffffffffffffffffffffffffffffff169060200190929190803573ffffffffffffffffffffffffffffffffffffffff1690602001909291908035906020019092919050505061117b565b60405180821515815260200191505060405180910390f35b61055e600480360360208110156104be57600080fd5b81019080803590602001906401000000008111156104db57600080fd5b8201836020820111156104ed57600080fd5b8035906020019184602083028401116401000000008311171561050f57600080fd5b919080806020026020016040519081016040528093929190818152602001838360200280828437600081840152601f19601f82011690508083019250505050505050919291929050505061124b565b005b6105a26004803603602081101561057657600080fd5b81019080803573ffffffffffffffffffffffffffffffffffffffff169060200190929190505050611328565b6040518082815260200191505060405180910390f35b6105c0611340565b60405180821515815260200191505060405180910390f35b6105e0611353565b604051808260ff16815260200191505060405180910390f35b61063b6004803603602081101561060f57600080fd5b81019080803573ffffffffffffffffffffffffffffffffffffffff169060200190929190505050611358565b60405180821515815260200191505060405180910390f35b6106956004803603602081101561066957600080fd5b81019080803573ffffffffffffffffffffffffffffffffffffffff169060200190929190505050611378565b60405180821515815260200191505060405180910390f35b6106db600480360360208110156106c357600080fd5b81019080803515159060200190929190505050611398565b005b610709600480360360208110156106f357600080fd5b8101908080359060200190929190505050611478565b604051808273ffffffffffffffffffffffffffffffffffffffff16815260200191505060405180910390f35b6107976004803603604081101561074b57600080fd5b81019080803573ffffffffffffffffffffffffffffffffffffffff169060200190929190803573ffffffffffffffffffffffffffffffffffffffff1690602001909291905050506114b4565b6040518082815260200191505060405180910390f35b6107ef600480360360208110156107c357600080fd5b81019080803573ffffffffffffffffffffffffffffffffffffffff1690602001909291905050506114d9565b6040518082815260200191505060405180910390f35b6108476004803603602081101561081b57600080fd5b81019080803573ffffffffffffffffffffffffffffffffffffffff16906020019092919050505061157e565b005b61088b6004803603602081101561085f57600080fd5b81019080803573ffffffffffffffffffffffffffffffffffffffff16906020019092919050505061179e565b005b6108cf600480360360208110156108a357600080fd5b81019080803573ffffffffffffffffffffffffffffffffffffffff1690602001909291905050506118bc565b6040518082815260200191505060405180910390f35b6108ed611905565b6040518082815260200191505060405180910390f35b6109456004803603602081101561091957600080fd5b81019080803573ffffffffffffffffffffffffffffffffffffffff169060200190929190505050611923565b60405180821515815260200191505060405180910390f35b610965611943565b6040518080602001828103825283818151815260200191508051906020019080838360005b838110156109a557808201518184015260208101905061098a565b50505050905090810190601f1680156109d25780820380516001836020036101000a031916815260200191505b509250505060405180910390f35b610a42600480360360408110156109f657600080fd5b81019080803573ffffffffffffffffffffffffffffffffffffffff169060200190929190803573ffffffffffffffffffffffffffffffffffffffff1690602001909291905050506119e1565b005b610a9060048036036040811015610a5a57600080fd5b81019080803573ffffffffffffffffffffffffffffffffffffffff16906020019092919080359060200190929190505050611bc2565b60405180821515815260200191505060405180910390f35b610bf860048036036040811015610abe57600080fd5b8101908080359060200190640100000000811115610adb57600080fd5b820183602082011115610aed57600080fd5b80359060200191846001830284011164010000000083111715610b0f57600080fd5b91908080601f016020809104026020016040519081016040528093929190818152602001838380828437600081840152601f19601f82011690508083019250505050505050919291929080359060200190640100000000811115610b7257600080fd5b820183602082011115610b8457600080fd5b80359060200191846001830284011164010000000083111715610ba657600080fd5b91908080601f016020809104026020016040519081016040528093929190818152602001838380828437600081840152601f19601f820116905080830192505050505050509192919290505050611bd9565b005b610c02611cce565b6040518082815260200191505060405180910390f35b610c5a60048036036020811015610c2e57600080fd5b81019080803573ffffffffffffffffffffffffffffffffffffffff169060200190929190505050611cd4565b005b610caa60048036036040811015610c7257600080fd5b81019080803573ffffffffffffffffffffffffffffffffffffffff169060200190929190803515159060200190929190505050611ddb565b005b610d0e60048036036040811015610cc257600080fd5b81019080803573ffffffffffffffffffffffffffffffffffffffff169060200190929190803573ffffffffffffffffffffffffffffffffffffffff169060200190929190505050611ef9565b6040518082815260200191505060405180910390f35b610d6660048036036020811015610d3a57600080fd5b81019080803573ffffffffffffffffffffffffffffffffffffffff169060200190929190505050611f80565b005b600460009054906101000a900473ffffffffffffffffffffffffffffffffffffffff1673ffffffffffffffffffffffffffffffffffffffff163373ffffffffffffffffffffffffffffffffffffffff1614610e2b576040517f08c379a00000000000000000000000000000000000000000000000000000000081526004018080602001828103825260158152602001807f5969656c64546f6b656e3a20666f7262696464656e000000000000000000000081525060200191505060405180910390fd5b610e5682828573ffffffffffffffffffffffffffffffffffffffff166122449092919063ffffffff16565b505050565b60008054600181600116156101000203166002900480601f016020809104026020016040519081016040528092919081815260200182805460018160011615610100020316600290048015610ef15780601f10610ec657610100808354040283529160200191610ef1565b820191906000526020600020905b815481529060010190602001808311610ed457829003601f168201915b505050505081565b6000610f063384846122e6565b6001905092915050565b600460009054906101000a900473ffffffffffffffffffffffffffffffffffffffff1681565b600460009054906101000a900473ffffffffffffffffffffffffffffffffffffffff1673ffffffffffffffffffffffffffffffffffffffff163373ffffffffffffffffffffffffffffffffffffffff1614610ff9576040517f08c379a00000000000000000000000000000000000000000000000000000000081526004018080602001828103825260158152602001807f5969656c64546f6b656e3a20666f7262696464656e000000000000000000000081525060200191505060405180910390fd5b6000600960008373ffffffffffffffffffffffffffffffffffffffff1673ffffffffffffffffffffffffffffffffffffffff16815260200190815260200160002060006101000a81548160ff02191690831515021790555050565b60025481565b60005b6007805490508110156111775760006007828154811061107957fe5b9060005260206000200160009054906101000a900473ffffffffffffffffffffffffffffffffffffffff1690508073ffffffffffffffffffffffffffffffffffffffff166321c0b34233856040518363ffffffff1660e01b8152600401808373ffffffffffffffffffffffffffffffffffffffff1681526020018273ffffffffffffffffffffffffffffffffffffffff16815260200192505050602060405180830381600087803b15801561112d57600080fd5b505af1158015611141573d6000803e3d6000fd5b505050506040513d602081101561115757600080fd5b81019080805190602001909291905050505050808060010191505061105d565b5050565b600080611227836040518060600160405280602d815260200161312d602d9139600660008973ffffffffffffffffffffffffffffffffffffffff1673ffffffffffffffffffffffffffffffffffffffff16815260200190815260200160002060003373ffffffffffffffffffffffffffffffffffffffff1673ffffffffffffffffffffffffffffffffffffffff168152602001908152602001600020546124dd9092919063ffffffff16565b90506112348533836122e6565b61123f85858561259d565b60019150509392505050565b600460009054906101000a900473ffffffffffffffffffffffffffffffffffffffff1673ffffffffffffffffffffffffffffffffffffffff163373ffffffffffffffffffffffffffffffffffffffff161461130e576040517f08c379a00000000000000000000000000000000000000000000000000000000081526004018080602001828103825260158152602001807f5969656c64546f6b656e3a20666f7262696464656e000000000000000000000081525060200191505060405180910390fd5b8060079080519060200190611324929190612eb5565b5050565b60056020528060005260406000206000915090505481565b600a60009054906101000a900460ff1681565b601281565b600b6020528060005260406000206000915054906101000a900460ff1681565b60096020528060005260406000206000915054906101000a900460ff1681565b600460009054906101000a900473ffffffffffffffffffffffffffffffffffffffff1673ffffffffffffffffffffffffffffffffffffffff163373ffffffffffffffffffffffffffffffffffffffff161461145b576040517f08c379a00000000000000000000000000000000000000000000000000000000081526004018080602001828103825260158152602001807f5969656c64546f6b656e3a20666f7262696464656e000000000000000000000081525060200191505060405180910390fd5b80600a60006101000a81548160ff02191690831515021790555050565b6007818154811061148557fe5b906000526020600020016000915054906101000a900473ffffffffffffffffffffffffffffffffffffffff1681565b6006602052816000526040600020602052806000526040600020600091509150505481565b6000600860008373ffffffffffffffffffffffffffffffffffffffff1673ffffffffffffffffffffffffffffffffffffffff16815260200190815260200160002060009054906101000a900460ff16156115365760009050611579565b600560008373ffffffffffffffffffffffffffffffffffffffff1673ffffffffffffffffffffffffffffffffffffffff1681526020019081526020016000205490505b919050565b600960003373ffffffffffffffffffffffffffffffffffffffff1673ffffffffffffffffffffffffffffffffffffffff16815260200190815260200160002060009054906101000a900460ff1661163d576040517f08c379a00000000000000000000000000000000000000000000000000000000081526004018080602001828103825260158152602001807f5969656c64546f6b656e3a20666f7262696464656e000000000000000000000081525060200191505060405180910390fd5b600860008273ffffffffffffffffffffffffffffffffffffffff1673ffffffffffffffffffffffffffffffffffffffff16815260200190815260200160002060009054906101000a900460ff16156116e0576040517f08c379a00000000000000000000000000000000000000000000000000000000081526004018080602001828103825260238152602001806130186023913960400191505060405180910390fd5b6116e9816129fd565b6001600860008373ffffffffffffffffffffffffffffffffffffffff1673ffffffffffffffffffffffffffffffffffffffff16815260200190815260200160002060006101000a81548160ff021916908315150217905550611795600560008373ffffffffffffffffffffffffffffffffffffffff1673ffffffffffffffffffffffffffffffffffffffff168152602001908152602001600020546003546121bc90919063ffffffff16565b60038190555050565b600460009054906101000a900473ffffffffffffffffffffffffffffffffffffffff1673ffffffffffffffffffffffffffffffffffffffff163373ffffffffffffffffffffffffffffffffffffffff1614611861576040517f08c379a00000000000000000000000000000000000000000000000000000000081526004018080602001828103825260158152602001807f5969656c64546f6b656e3a20666f7262696464656e000000000000000000000081525060200191505060405180910390fd5b6001600960008373ffffffffffffffffffffffffffffffffffffffff1673ffffffffffffffffffffffffffffffffffffffff16815260200190815260200160002060006101000a81548160ff02191690831515021790555050565b6000600560008373ffffffffffffffffffffffffffffffffffffffff1673ffffffffffffffffffffffffffffffffffffffff168152602001908152602001600020549050919050565b600061191e600354600254612adc90919063ffffffff16565b905090565b60086020528060005260406000206000915054906101000a900460ff1681565b60018054600181600116156101000203166002900480601f0160208091040260200160405190810160405280929190818152602001828054600181600116156101000203166002900480156119d95780601f106119ae576101008083540402835291602001916119d9565b820191906000526020600020905b8154815290600101906020018083116119bc57829003601f168201915b505050505081565b600960003373ffffffffffffffffffffffffffffffffffffffff1673ffffffffffffffffffffffffffffffffffffffff16815260200190815260200160002060009054906101000a900460ff16611aa0576040517f08c379a00000000000000000000000000000000000000000000000000000000081526004018080602001828103825260158152602001807f5969656c64546f6b656e3a20666f7262696464656e000000000000000000000081525060200191505060405180910390fd5b60005b600780549050811015611bbd57600060078281548110611abf57fe5b9060005260206000200160009054906101000a900473ffffffffffffffffffffffffffffffffffffffff1690508073ffffffffffffffffffffffffffffffffffffffff166321c0b34285856040518363ffffffff1660e01b8152600401808373ffffffffffffffffffffffffffffffffffffffff1681526020018273ffffffffffffffffffffffffffffffffffffffff16815260200192505050602060405180830381600087803b158015611b7357600080fd5b505af1158015611b87573d6000803e3d6000fd5b505050506040513d6020811015611b9d57600080fd5b810190808051906020019092919050505050508080600101915050611aa3565b505050565b6000611bcf33848461259d565b6001905092915050565b600460009054906101000a900473ffffffffffffffffffffffffffffffffffffffff1673ffffffffffffffffffffffffffffffffffffffff163373ffffffffffffffffffffffffffffffffffffffff1614611c9c576040517f08c379a00000000000000000000000000000000000000000000000000000000081526004018080602001828103825260158152602001807f5969656c64546f6b656e3a20666f7262696464656e000000000000000000000081525060200191505060405180910390fd5b8160009080519060200190611cb2929190612f3f565b508060019080519060200190611cc9929190612f3f565b505050565b60035481565b600460009054906101000a900473ffffffffffffffffffffffffffffffffffffffff1673ffffffffffffffffffffffffffffffffffffffff163373ffffffffffffffffffffffffffffffffffffffff1614611d97576040517f08c379a00000000000000000000000000000000000000000000000000000000081526004018080602001828103825260158152602001807f5969656c64546f6b656e3a20666f7262696464656e000000000000000000000081525060200191505060405180910390fd5b80600460006101000a81548173ffffffffffffffffffffffffffffffffffffffff021916908373ffffffffffffffffffffffffffffffffffffffff16021790555050565b600460009054906101000a900473ffffffffffffffffffffffffffffffffffffffff1673ffffffffffffffffffffffffffffffffffffffff163373ffffffffffffffffffffffffffffffffffffffff1614611e9e576040517f08c379a00000000000000000000000000000000000000000000000000000000081526004018080602001828103825260158152602001807f5969656c64546f6b656e3a20666f7262696464656e000000000000000000000081525060200191505060405180910390fd5b80600b60008473ffffffffffffffffffffffffffffffffffffffff1673ffffffffffffffffffffffffffffffffffffffff16815260200190815260200160002060006101000a81548160ff0219169083151502179055505050565b6000600660008473ffffffffffffffffffffffffffffffffffffffff1673ffffffffffffffffffffffffffffffffffffffff16815260200190815260200160002060008373ffffffffffffffffffffffffffffffffffffffff1673ffffffffffffffffffffffffffffffffffffffff16815260200190815260200160002054905092915050565b600960003373ffffffffffffffffffffffffffffffffffffffff1673ffffffffffffffffffffffffffffffffffffffff16815260200190815260200160002060009054906101000a900460ff1661203f576040517f08c379a00000000000000000000000000000000000000000000000000000000081526004018080602001828103825260158152602001807f5969656c64546f6b656e3a20666f7262696464656e000000000000000000000081525060200191505060405180910390fd5b600860008273ffffffffffffffffffffffffffffffffffffffff1673ffffffffffffffffffffffffffffffffffffffff16815260200190815260200160002060009054906101000a900460ff166120fe576040517f08c379a000000000000000000000000000000000000000000000000000000000815260040180806020018281038252601f8152602001807f5969656c64546f6b656e3a205f6163636f756e74206e6f74206d61726b65640081525060200191505060405180910390fd5b612107816129fd565b6000600860008373ffffffffffffffffffffffffffffffffffffffff1673ffffffffffffffffffffffffffffffffffffffff16815260200190815260200160002060006101000a81548160ff0219169083151502179055506121b3600560008373ffffffffffffffffffffffffffffffffffffffff1673ffffffffffffffffffffffffffffffffffffffff16815260200190815260200160002054600354612adc90919063ffffffff16565b60038190555050565b60008082840190508381101561223a576040517f08c379a000000000000000000000000000000000000000000000000000000000815260040180806020018281038252601b8152602001807f536166654d6174683a206164646974696f6e206f766572666c6f77000000000081525060200191505060405180910390fd5b8091505092915050565b6122e18363a9059cbb60e01b8484604051602401808373ffffffffffffffffffffffffffffffffffffffff16815260200182815260200192505050604051602081830303815290604052907bffffffffffffffffffffffffffffffffffffffffffffffffffffffff19166020820180517bffffffffffffffffffffffffffffffffffffffffffffffffffffffff8381831617835250505050612b26565b505050565b600073ffffffffffffffffffffffffffffffffffffffff168373ffffffffffffffffffffffffffffffffffffffff16141561236c576040517f08c379a00000000000000000000000000000000000000000000000000000000081526004018080602001828103825260298152602001806131046029913960400191505060405180910390fd5b600073ffffffffffffffffffffffffffffffffffffffff168273ffffffffffffffffffffffffffffffffffffffff1614156123f2576040517f08c379a00000000000000000000000000000000000000000000000000000000081526004018080602001828103825260278152602001806130b36027913960400191505060405180910390fd5b80600660008573ffffffffffffffffffffffffffffffffffffffff1673ffffffffffffffffffffffffffffffffffffffff16815260200190815260200160002060008473ffffffffffffffffffffffffffffffffffffffff1673ffffffffffffffffffffffffffffffffffffffff168152602001908152602001600020819055508173ffffffffffffffffffffffffffffffffffffffff168373ffffffffffffffffffffffffffffffffffffffff167f8c5be1e5ebec7d5bd14f71427d1e84f3dd0314c0f7b2291e5b200ac8c7c3b925836040518082815260200191505060405180910390a3505050565b600083831115829061258a576040517f08c379a00000000000000000000000000000000000000000000000000000000081526004018080602001828103825283818151815260200191508051906020019080838360005b8381101561254f578082015181840152602081019050612534565b50505050905090810190601f16801561257c5780820380516001836020036101000a031916815260200191505b509250505060405180910390fd5b5060008385039050809150509392505050565b600073ffffffffffffffffffffffffffffffffffffffff168373ffffffffffffffffffffffffffffffffffffffff161415612623576040517f08c379a000000000000000000000000000000000000000000000000000000000815260040180806020018281038252602a815260200180613063602a913960400191505060405180910390fd5b600073ffffffffffffffffffffffffffffffffffffffff168273ffffffffffffffffffffffffffffffffffffffff1614156126a9576040517f08c379a000000000000000000000000000000000000000000000000000000000815260040180806020018281038252602881526020018061303b6028913960400191505060405180910390fd5b600a60009054906101000a900460ff161561276157600b60003373ffffffffffffffffffffffffffffffffffffffff1673ffffffffffffffffffffffffffffffffffffffff16815260200190815260200160002060009054906101000a900460ff16612760576040517f08c379a000000000000000000000000000000000000000000000000000000000815260040180806020018281038252602681526020018061315a6026913960400191505060405180910390fd5b5b61276a836129fd565b612773826129fd565b6127df816040518060600160405280602b8152602001613180602b9139600560008773ffffffffffffffffffffffffffffffffffffffff1673ffffffffffffffffffffffffffffffffffffffff168152602001908152602001600020546124dd9092919063ffffffff16565b600560008573ffffffffffffffffffffffffffffffffffffffff1673ffffffffffffffffffffffffffffffffffffffff1681526020019081526020016000208190555061287481600560008573ffffffffffffffffffffffffffffffffffffffff1673ffffffffffffffffffffffffffffffffffffffff168152602001908152602001600020546121bc90919063ffffffff16565b600560008473ffffffffffffffffffffffffffffffffffffffff1673ffffffffffffffffffffffffffffffffffffffff16815260200190815260200160002081905550600860008473ffffffffffffffffffffffffffffffffffffffff1673ffffffffffffffffffffffffffffffffffffffff16815260200190815260200160002060009054906101000a900460ff16156129255761291e81600354612adc90919063ffffffff16565b6003819055505b600860008373ffffffffffffffffffffffffffffffffffffffff1673ffffffffffffffffffffffffffffffffffffffff16815260200190815260200160002060009054906101000a900460ff16156129935761298c816003546121bc90919063ffffffff16565b6003819055505b8173ffffffffffffffffffffffffffffffffffffffff168373ffffffffffffffffffffffffffffffffffffffff167fddf252ad1be2c89b69c2b068fc378daa952ba7f163c4a11628f55a4df523b3ef836040518082815260200191505060405180910390a3505050565b60005b600780549050811015612ad857600060078281548110612a1c57fe5b9060005260206000200160009054906101000a900473ffffffffffffffffffffffffffffffffffffffff1690508073ffffffffffffffffffffffffffffffffffffffff16635fd61965846040518263ffffffff1660e01b8152600401808273ffffffffffffffffffffffffffffffffffffffff168152602001915050600060405180830381600087803b158015612ab257600080fd5b505af1158015612ac6573d6000803e3d6000fd5b50505050508080600101915050612a00565b5050565b6000612b1e83836040518060400160405280601e81526020017f536166654d6174683a207375627472616374696f6e206f766572666c6f7700008152506124dd565b905092915050565b6060612b88826040518060400160405280602081526020017f5361666545524332303a206c6f772d6c6576656c2063616c6c206661696c65648152508573ffffffffffffffffffffffffffffffffffffffff16612c159092919063ffffffff16565b9050600081511115612c1057808060200190516020811015612ba957600080fd5b8101908080519060200190929190505050612c0f576040517f08c379a000000000000000000000000000000000000000000000000000000000815260040180806020018281038252602a8152602001806130da602a913960400191505060405180910390fd5b5b505050565b6060612c248484600085612c2d565b90509392505050565b606082471015612c88576040517f08c379a000000000000000000000000000000000000000000000000000000000815260040180806020018281038252602681526020018061308d6026913960400191505060405180910390fd5b612c9185612dd6565b612d03576040517f08c379a000000000000000000000000000000000000000000000000000000000815260040180806020018281038252601d8152602001807f416464726573733a2063616c6c20746f206e6f6e2d636f6e747261637400000081525060200191505060405180910390fd5b600060608673ffffffffffffffffffffffffffffffffffffffff1685876040518082805190602001908083835b60208310612d535780518252602082019150602081019050602083039250612d30565b6001836020036101000a03801982511681845116808217855250505050505090500191505060006040518083038185875af1925050503d8060008114612db5576040519150601f19603f3d011682016040523d82523d6000602084013e612dba565b606091505b5091509150612dca828286612de9565b92505050949350505050565b600080823b905060008111915050919050565b60608315612df957829050612eae565b600083511115612e0c5782518084602001fd5b816040517f08c379a00000000000000000000000000000000000000000000000000000000081526004018080602001828103825283818151815260200191508051906020019080838360005b83811015612e73578082015181840152602081019050612e58565b50505050905090810190601f168015612ea05780820380516001836020036101000a031916815260200191505b509250505060405180910390fd5b9392505050565b828054828255906000526020600020908101928215612f2e579160200282015b82811115612f2d5782518260006101000a81548173ffffffffffffffffffffffffffffffffffffffff021916908373ffffffffffffffffffffffffffffffffffffffff16021790555091602001919060010190612ed5565b5b509050612f3b9190612fbf565b5090565b828054600181600116156101000203166002900490600052602060002090601f016020900481019282601f10612f8057805160ff1916838001178555612fae565b82800160010185558215612fae579182015b82811115612fad578251825591602001919060010190612f92565b5b509050612fbb9190612ffa565b5090565b5b80821115612ff657600081816101000a81549073ffffffffffffffffffffffffffffffffffffffff021916905550600101612fc0565b5090565b5b80821115613013576000816000905550600101612ffb565b509056fe5969656c64546f6b656e3a205f6163636f756e7420616c7265616479206d61726b65645969656c64546f6b656e3a207472616e7366657220746f20746865207a65726f20616464726573735969656c64546f6b656e3a207472616e736665722066726f6d20746865207a65726f2061646472657373416464726573733a20696e73756666696369656e742062616c616e636520666f722063616c6c5969656c64546f6b656e3a20617070726f766520746f20746865207a65726f20616464726573735361666545524332303a204552433230206f7065726174696f6e20646964206e6f7420737563636565645969656c64546f6b656e3a20617070726f76652066726f6d20746865207a65726f20616464726573735969656c64546f6b656e3a207472616e7366657220616d6f756e74206578636565647320616c6c6f77616e63655969656c64546f6b656e3a206d73672e73656e646572206e6f742077686974656c69737465645969656c64546f6b656e3a207472616e7366657220616d6f756e7420657863656564732062616c616e6365a264697066735822122062c1595e3c6cd90e8e471660c70066d4e78db5f567b0550795b5d0d4461afe4864736f6c634300060c00335969656c64546f6b656e3a206d696e7420746f20746865207a65726f2061646472657373",
  "linkReferences": {},
  "deployedLinkReferences": {}
}