{
  "_format": "hh-sol-artifact-1",
  "contractName": "ShortsTrackerTest",
  "sourceName": "contracts/gmx/core/test/ShortsTrackerTest.sol",
  "abi": [
    {
      "inputs": [
        {
          "internalType": "address",
          "name": "_vault",
          "type": "address"
        }
      ],
      "stateMutability": "nonpayable",
      "type": "constructor"
    },
    {
      "anonymous": false,
      "inputs": [
        {
          "indexed": true,
          "internalType": "address",
          "name": "token",
          "type": "address"
        },
        {
          "indexed": false,
          "internalType": "uint256",
          "name": "globalShortSize",
          "type": "uint256"
        },
        {
          "indexed": false,
          "internalType": "uint256",
          "name": "globalShortAveragePrice",
          "type": "uint256"
        }
      ],
      "name": "GlobalShortDataUpdated",
      "type": "event"
    },
    {
      "inputs": [],
      "name": "MAX_INT256",
      "outputs": [
        {
          "internalType": "uint256",
          "name": "",
          "type": "uint256"
        }
      ],
      "stateMutability": "view",
      "type": "function"
    },
    {
      "inputs": [
        {
          "internalType": "uint256",
          "name": "_averagePrice",
          "type": "uint256"
        },
        {
          "internalType": "uint256",
          "name": "_nextPrice",
          "type": "uint256"
        },
        {
          "internalType": "uint256",
          "name": "_nextSize",
          "type": "uint256"
        },
        {
          "internalType": "uint256",
          "name": "_delta",
          "type": "uint256"
        },
        {
          "internalType": "int256",
          "name": "_realisedPnl",
          "type": "int256"
        }
      ],
      "name": "_getNextGlobalAveragePrice",
      "outputs": [
        {
          "internalType": "uint256",
          "name": "",
          "type": "uint256"
        }
      ],
      "stateMutability": "pure",
      "type": "function"
    },
    {
      "inputs": [
        {
          "internalType": "bytes32",
          "name": "",
          "type": "bytes32"
        }
      ],
      "name": "data",
      "outputs": [
        {
          "internalType": "bytes32",
          "name": "",
          "type": "bytes32"
        }
      ],
      "stateMutability": "view",
      "type": "function"
    },
    {
      "inputs": [
        {
          "internalType": "address",
          "name": "_token",
          "type": "address"
        }
      ],
      "name": "getGlobalShortDelta",
      "outputs": [
        {
          "internalType": "bool",
          "name": "",
          "type": "bool"
        },
        {
          "internalType": "uint256",
          "name": "",
          "type": "uint256"
        }
      ],
      "stateMutability": "view",
      "type": "function"
    },
    {
      "inputs": [
        {
          "internalType": "address",
          "name": "_account",
          "type": "address"
        },
        {
          "internalType": "address",
          "name": "_collateralToken",
          "type": "address"
        },
        {
          "internalType": "address",
          "name": "_indexToken",
          "type": "address"
        },
        {
          "internalType": "uint256",
          "name": "_nextPrice",
          "type": "uint256"
        },
        {
          "internalType": "uint256",
          "name": "_sizeDelta",
          "type": "uint256"
        },
        {
          "internalType": "bool",
          "name": "_isIncrease",
          "type": "bool"
        }
      ],
      "name": "getNextGlobalShortData",
      "outputs": [
        {
          "internalType": "uint256",
          "name": "",
          "type": "uint256"
        },
        {
          "internalType": "uint256",
          "name": "",
          "type": "uint256"
        }
      ],
      "stateMutability": "view",
      "type": "function"
    },
    {
      "inputs": [
        {
          "internalType": "address",
          "name": "_indexToken",
          "type": "address"
        },
        {
          "internalType": "uint256",
          "name": "_nextPrice",
          "type": "uint256"
        },
        {
          "internalType": "uint256",
          "name": "_sizeDelta",
          "type": "uint256"
        },
        {
          "internalType": "int256",
          "name": "_realisedPnl",
          "type": "int256"
        },
        {
          "internalType": "bool",
          "name": "_isIncrease",
          "type": "bool"
        }
      ],
      "name": "getNextGlobalShortDataWithRealisedPnl",
      "outputs": [
        {
          "internalType": "uint256",
          "name": "",
          "type": "uint256"
        },
        {
          "internalType": "uint256",
          "name": "",
          "type": "uint256"
        }
      ],
      "stateMutability": "view",
      "type": "function"
    },
    {
      "inputs": [
        {
          "internalType": "address",
          "name": "_account",
          "type": "address"
        },
        {
          "internalType": "address",
          "name": "_collateralToken",
          "type": "address"
        },
        {
          "internalType": "address",
          "name": "_indexToken",
          "type": "address"
        },
        {
          "internalType": "uint256",
          "name": "_sizeDelta",
          "type": "uint256"
        },
        {
          "internalType": "bool",
          "name": "_isIncrease",
          "type": "bool"
        }
      ],
      "name": "getRealisedPnl",
      "outputs": [
        {
          "internalType": "int256",
          "name": "",
          "type": "int256"
        }
      ],
      "stateMutability": "view",
      "type": "function"
    },
    {
      "inputs": [
        {
          "internalType": "address",
          "name": "",
          "type": "address"
        }
      ],
      "name": "globalShortAveragePrices",
      "outputs": [
        {
          "internalType": "uint256",
          "name": "",
          "type": "uint256"
        }
      ],
      "stateMutability": "view",
      "type": "function"
    },
    {
      "inputs": [],
      "name": "gov",
      "outputs": [
        {
          "internalType": "address",
          "name": "",
          "type": "address"
        }
      ],
      "stateMutability": "view",
      "type": "function"
    },
    {
      "inputs": [],
      "name": "isGlobalShortDataReady",
      "outputs": [
        {
          "internalType": "bool",
          "name": "",
          "type": "bool"
        }
      ],
      "stateMutability": "view",
      "type": "function"
    },
    {
      "inputs": [
        {
          "internalType": "address",
          "name": "",
          "type": "address"
        }
      ],
      "name": "isHandler",
      "outputs": [
        {
          "internalType": "bool",
          "name": "",
          "type": "bool"
        }
      ],
      "stateMutability": "view",
      "type": "function"
    },
    {
      "inputs": [
        {
          "internalType": "address",
          "name": "_token",
          "type": "address"
        },
        {
          "internalType": "uint256",
          "name": "_averagePrice",
          "type": "uint256"
        }
      ],
      "name": "setGlobalShortAveragePrice",
      "outputs": [],
      "stateMutability": "nonpayable",
      "type": "function"
    },
    {
      "inputs": [
        {
          "internalType": "address",
          "name": "_gov",
          "type": "address"
        }
      ],
      "name": "setGov",
      "outputs": [],
      "stateMutability": "nonpayable",
      "type": "function"
    },
    {
      "inputs": [
        {
          "internalType": "address",
          "name": "_handler",
          "type": "address"
        },
        {
          "internalType": "bool",
          "name": "_isActive",
          "type": "bool"
        }
      ],
      "name": "setHandler",
      "outputs": [],
      "stateMutability": "nonpayable",
      "type": "function"
    },
    {
      "inputs": [
        {
          "internalType": "address[]",
          "name": "_tokens",
          "type": "address[]"
        },
        {
          "internalType": "uint256[]",
          "name": "_averagePrices",
          "type": "uint256[]"
        }
      ],
      "name": "setInitData",
      "outputs": [],
      "stateMutability": "nonpayable",
      "type": "function"
    },
    {
      "inputs": [
        {
          "internalType": "bool",
          "name": "value",
          "type": "bool"
        }
      ],
      "name": "setIsGlobalShortDataReady",
      "outputs": [],
      "stateMutability": "nonpayable",
      "type": "function"
    },
    {
      "inputs": [
        {
          "internalType": "address",
          "name": "_account",
          "type": "address"
        },
        {
          "internalType": "address",
          "name": "_collateralToken",
          "type": "address"
        },
        {
          "internalType": "address",
          "name": "_indexToken",
          "type": "address"
        },
        {
          "internalType": "bool",
          "name": "_isLong",
          "type": "bool"
        },
        {
          "internalType": "uint256",
          "name": "_sizeDelta",
          "type": "uint256"
        },
        {
          "internalType": "uint256",
          "name": "_markPrice",
          "type": "uint256"
        },
        {
          "internalType": "bool",
          "name": "_isIncrease",
          "type": "bool"
        }
      ],
      "name": "updateGlobalShortData",
      "outputs": [],
      "stateMutability": "nonpayable",
      "type": "function"
    },
    {
      "inputs": [],
      "name": "vault",
      "outputs": [
        {
          "internalType": "contract IVault",
          "name": "",
          "type": "address"
        }
      ],
      "stateMutability": "view",
      "type": "function"
    }
  ],
  "bytecode": "0x608060405234801561001057600080fd5b50604051611fe9380380611fe98339818101604052602081101561003357600080fd5b810190808051906020019092919050505080336000806101000a81548173ffffffffffffffffffffffffffffffffffffffff021916908373ffffffffffffffffffffffffffffffffffffffff16021790555080600160006101000a81548173ffffffffffffffffffffffffffffffffffffffff021916908373ffffffffffffffffffffffffffffffffffffffff1602179055505050611f12806100d76000396000f3fe608060405234801561001057600080fd5b50600436106101165760003560e01c80639a11178f116100a2578063b364accb11610071578063b364accb146105af578063bbd9718714610610578063cfad57a2146106de578063f3238cec14610722578063fbfa77cf146107d257610116565b80639a11178f146103d25780639cb7de4b146103f25780639cdeb59314610442578063a83b75fd1461050157610116565b806346ea87af116100e957806346ea87af146101df5780635886b7111461023957806362749803146102a3578063776edefc146102fb57806383d7048d1461034957610116565b80630147fb0c1461011b578063122e7b071461015d57806312d43a511461017b5780633d30cabf146101af575b600080fd5b6101476004803603602081101561013157600080fd5b8101908080359060200190929190505050610806565b6040518082815260200191505060405180910390f35b61016561081e565b6040518082815260200191505060405180910390f35b610183610842565b604051808273ffffffffffffffffffffffffffffffffffffffff16815260200191505060405180910390f35b6101dd600480360360208110156101c557600080fd5b81019080803515159060200190929190505050610866565b005b610221600480360360208110156101f557600080fd5b81019080803573ffffffffffffffffffffffffffffffffffffffff169060200190929190505050610944565b60405180821515815260200191505060405180910390f35b61028d600480360360a081101561024f57600080fd5b810190808035906020019092919080359060200190929190803590602001909291908035906020019092919080359060200190929190505050610964565b6040518082815260200191505060405180910390f35b6102e5600480360360208110156102b957600080fd5b81019080803573ffffffffffffffffffffffffffffffffffffffff1690602001909291905050506109e1565b6040518082815260200191505060405180910390f35b6103476004803603604081101561031157600080fd5b81019080803573ffffffffffffffffffffffffffffffffffffffff169060200190929190803590602001909291905050506109f9565b005b6103b5600480360360a081101561035f57600080fd5b81019080803573ffffffffffffffffffffffffffffffffffffffff169060200190929190803590602001909291908035906020019092919080359060200190929190803515159060200190929190505050610a41565b604051808381526020018281526020019250505060405180910390f35b6103da610c3f565b60405180821515815260200191505060405180910390f35b6104406004803603604081101561040857600080fd5b81019080803573ffffffffffffffffffffffffffffffffffffffff169060200190929190803515159060200190929190505050610c52565b005b6104e4600480360360c081101561045857600080fd5b81019080803573ffffffffffffffffffffffffffffffffffffffff169060200190929190803573ffffffffffffffffffffffffffffffffffffffff169060200190929190803573ffffffffffffffffffffffffffffffffffffffff1690602001909291908035906020019092919080359060200190929190803515159060200190929190505050610e11565b604051808381526020018281526020019250505060405180910390f35b610599600480360360a081101561051757600080fd5b81019080803573ffffffffffffffffffffffffffffffffffffffff169060200190929190803573ffffffffffffffffffffffffffffffffffffffff169060200190929190803573ffffffffffffffffffffffffffffffffffffffff16906020019092919080359060200190929190803515159060200190929190505050611024565b6040518082815260200191505060405180910390f35b6105f1600480360360208110156105c557600080fd5b81019080803573ffffffffffffffffffffffffffffffffffffffff169060200190929190505050611353565b6040518083151581526020018281526020019250505060405180910390f35b6106dc6004803603604081101561062657600080fd5b810190808035906020019064010000000081111561064357600080fd5b82018360208201111561065557600080fd5b8035906020019184602083028401116401000000008311171561067757600080fd5b90919293919293908035906020019064010000000081111561069857600080fd5b8201836020820111156106aa57600080fd5b803590602001918460208302840111640100000000831117156106cc57600080fd5b90919293919293905050506115ba565b005b610720600480360360208110156106f457600080fd5b81019080803573ffffffffffffffffffffffffffffffffffffffff1690602001909291905050506117b9565b005b6107d0600480360360e081101561073857600080fd5b81019080803573ffffffffffffffffffffffffffffffffffffffff169060200190929190803573ffffffffffffffffffffffffffffffffffffffff169060200190929190803573ffffffffffffffffffffffffffffffffffffffff16906020019092919080351515906020019092919080359060200190929190803590602001909291908035151590602001909291905050506118bd565b005b6107da611a2c565b604051808273ffffffffffffffffffffffffffffffffffffffff16815260200191505060405180910390f35b60036020528060005260406000206000915090505481565b7f7fffffffffffffffffffffffffffffffffffffffffffffffffffffffffffffff81565b60008054906101000a900473ffffffffffffffffffffffffffffffffffffffff1681565b60008054906101000a900473ffffffffffffffffffffffffffffffffffffffff1673ffffffffffffffffffffffffffffffffffffffff163373ffffffffffffffffffffffffffffffffffffffff1614610927576040517f08c379a00000000000000000000000000000000000000000000000000000000081526004018080602001828103825260158152602001807f476f7665726e61626c653a20666f7262696464656e000000000000000000000081525060200191505060405180910390fd5b80600560006101000a81548160ff02191690831515021790555050565b60026020528060005260406000206000915054906101000a900460ff1681565b600080600061097585898987611a52565b9150915060006109d08361099b576109968389611b4b90919063ffffffff16565b6109af565b6109ae8389611bd390919063ffffffff16565b5b6109c2898b611c1d90919063ffffffff16565b611ca390919063ffffffff16565b905080935050505095945050505050565b60046020528060005260406000206000915090505481565b80600460008473ffffffffffffffffffffffffffffffffffffffff1673ffffffffffffffffffffffffffffffffffffffff168152602001908152602001600020819055505050565b6000806000600460008973ffffffffffffffffffffffffffffffffffffffff1673ffffffffffffffffffffffffffffffffffffffff1681526020019081526020016000205490506000878211610aa957610aa48289611bd390919063ffffffff16565b610abd565b610abc8883611bd390919063ffffffff16565b5b90506000806000600160009054906101000a900473ffffffffffffffffffffffffffffffffffffffff1673ffffffffffffffffffffffffffffffffffffffff16638a78daa88d6040518263ffffffff1660e01b8152600401808273ffffffffffffffffffffffffffffffffffffffff16815260200191505060206040518083038186803b158015610b4d57600080fd5b505afa158015610b61573d6000803e3d6000fd5b505050506040513d6020811015610b7757600080fd5b8101908080519060200190929190505050905087610ba757610ba28a82611bd390919063ffffffff16565b610bbb565b610bba8a82611b4b90919063ffffffff16565b5b92506000831415610bd757600080965096505050505050610c35565b6000851415610bf057828b965096505050505050610c35565b610c1585610c078684611c1d90919063ffffffff16565b611ca390919063ffffffff16565b9150506000610c27858c85858d610964565b905082819650965050505050505b9550959350505050565b600560009054906101000a900460ff1681565b60008054906101000a900473ffffffffffffffffffffffffffffffffffffffff1673ffffffffffffffffffffffffffffffffffffffff163373ffffffffffffffffffffffffffffffffffffffff1614610d13576040517f08c379a00000000000000000000000000000000000000000000000000000000081526004018080602001828103825260158152602001807f476f7665726e61626c653a20666f7262696464656e000000000000000000000081525060200191505060405180910390fd5b600073ffffffffffffffffffffffffffffffffffffffff168273ffffffffffffffffffffffffffffffffffffffff161415610db6576040517f08c379a000000000000000000000000000000000000000000000000000000000815260040180806020018281038252601f8152602001807f53686f727473547261636b65723a20696e76616c6964205f68616e646c65720081525060200191505060405180910390fd5b80600260008473ffffffffffffffffffffffffffffffffffffffff1673ffffffffffffffffffffffffffffffffffffffff16815260200190815260200160002060006101000a81548160ff0219169083151502179055505050565b6000806000610e238989898888611024565b90506000600460008973ffffffffffffffffffffffffffffffffffffffff1673ffffffffffffffffffffffffffffffffffffffff1681526020019081526020016000205490506000878211610e8a57610e858289611bd390919063ffffffff16565b610e9e565b610e9d8883611bd390919063ffffffff16565b5b90506000806000600160009054906101000a900473ffffffffffffffffffffffffffffffffffffffff1673ffffffffffffffffffffffffffffffffffffffff16638a78daa88d6040518263ffffffff1660e01b8152600401808273ffffffffffffffffffffffffffffffffffffffff16815260200191505060206040518083038186803b158015610f2e57600080fd5b505afa158015610f42573d6000803e3d6000fd5b505050506040513d6020811015610f5857600080fd5b8101908080519060200190929190505050905088610f8857610f838a82611bd390919063ffffffff16565b610f9c565b610f9b8a82611b4b90919063ffffffff16565b5b92506000831415610fb95760008097509750505050505050611019565b6000851415610fd357828b97509750505050505050611019565b610ff885610fea8684611c1d90919063ffffffff16565b611ca390919063ffffffff16565b915050600061100a858c85858a610964565b90508281975097505050505050505b965096945050505050565b60008115611035576000905061134a565b6000600160009054906101000a900473ffffffffffffffffffffffffffffffffffffffff16905060008060008373ffffffffffffffffffffffffffffffffffffffff16634a3f088d8b8b8b60006040518563ffffffff1660e01b8152600401808573ffffffffffffffffffffffffffffffffffffffff1681526020018473ffffffffffffffffffffffffffffffffffffffff1681526020018373ffffffffffffffffffffffffffffffffffffffff16815260200182151581526020019450505050506101006040518083038186803b15801561111057600080fd5b505afa158015611124573d6000803e3d6000fd5b505050506040513d61010081101561113b57600080fd5b81019080805190602001909291908051906020019092919080519060200190929190805190602001909291908051906020019092919080519060200190929190805190602001909291908051906020019092919050505097505050505093505092506000808573ffffffffffffffffffffffffffffffffffffffff16635c07eaab8b87876000886040518663ffffffff1660e01b8152600401808673ffffffffffffffffffffffffffffffffffffffff168152602001858152602001848152602001831515815260200182815260200195505050505050604080518083038186803b15801561122957600080fd5b505afa15801561123d573d6000803e3d6000fd5b505050506040513d604081101561125357600080fd5b8101908080519060200190929190805190602001909291905050509150915060006112998661128b848d611c1d90919063ffffffff16565b611ca390919063ffffffff16565b90507f7fffffffffffffffffffffffffffffffffffffffffffffffffffffffffffffff8110611330576040517f08c379a00000000000000000000000000000000000000000000000000000000081526004018080602001828103825260178152602001807f53686f727473547261636b65723a206f766572666c6f7700000000000000000081525060200191505060405180910390fd5b8261133e5780600003611340565b805b9750505050505050505b95945050505050565b6000806000600160009054906101000a900473ffffffffffffffffffffffffffffffffffffffff1673ffffffffffffffffffffffffffffffffffffffff16638a78daa8856040518263ffffffff1660e01b8152600401808273ffffffffffffffffffffffffffffffffffffffff16815260200191505060206040518083038186803b1580156113e157600080fd5b505afa1580156113f5573d6000803e3d6000fd5b505050506040513d602081101561140b57600080fd5b810190808051906020019092919050505090506000600460008673ffffffffffffffffffffffffffffffffffffffff1673ffffffffffffffffffffffffffffffffffffffff1681526020019081526020016000205490506000821415611479576000809350935050506115b5565b6000600160009054906101000a900473ffffffffffffffffffffffffffffffffffffffff1673ffffffffffffffffffffffffffffffffffffffff1663e124e6d2876040518263ffffffff1660e01b8152600401808273ffffffffffffffffffffffffffffffffffffffff16815260200191505060206040518083038186803b15801561150457600080fd5b505afa158015611518573d6000803e3d6000fd5b505050506040513d602081101561152e57600080fd5b8101908080519060200190929190505050905060008183116115625761155d8383611bd390919063ffffffff16565b611576565b6115758284611bd390919063ffffffff16565b5b9050600061159f846115918488611c1d90919063ffffffff16565b611ca390919063ffffffff16565b9050600083851190508082975097505050505050505b915091565b60008054906101000a900473ffffffffffffffffffffffffffffffffffffffff1673ffffffffffffffffffffffffffffffffffffffff163373ffffffffffffffffffffffffffffffffffffffff161461167b576040517f08c379a00000000000000000000000000000000000000000000000000000000081526004018080602001828103825260158152602001807f476f7665726e61626c653a20666f7262696464656e000000000000000000000081525060200191505060405180910390fd5b600560009054906101000a900460ff16156116fe576040517f08c379a000000000000000000000000000000000000000000000000000000000815260040180806020018281038252601f8152602001807f53686f727473547261636b65723a20616c7265616479206d696772617465640081525060200191505060405180910390fd5b60005b848490508110156117975782828281811061171857fe5b905060200201356004600087878581811061172f57fe5b9050602002013573ffffffffffffffffffffffffffffffffffffffff1673ffffffffffffffffffffffffffffffffffffffff1673ffffffffffffffffffffffffffffffffffffffff168152602001908152602001600020819055508080600101915050611701565b506001600560006101000a81548160ff02191690831515021790555050505050565b60008054906101000a900473ffffffffffffffffffffffffffffffffffffffff1673ffffffffffffffffffffffffffffffffffffffff163373ffffffffffffffffffffffffffffffffffffffff161461187a576040517f08c379a00000000000000000000000000000000000000000000000000000000081526004018080602001828103825260158152602001807f476f7665726e61626c653a20666f7262696464656e000000000000000000000081525060200191505060405180910390fd5b806000806101000a81548173ffffffffffffffffffffffffffffffffffffffff021916908373ffffffffffffffffffffffffffffffffffffffff16021790555050565b600260003373ffffffffffffffffffffffffffffffffffffffff1673ffffffffffffffffffffffffffffffffffffffff16815260200190815260200160002060009054906101000a900460ff1661197c576040517f08c379a00000000000000000000000000000000000000000000000000000000081526004018080602001828103825260188152602001807f53686f727473547261636b65723a20666f7262696464656e000000000000000081525060200191505060405180910390fd5b83806119885750600083145b1561199257611a23565b600560009054906101000a900460ff166119ab57611a23565b6000806119bc898989878988610e11565b915091506119ca8782611ced565b8673ffffffffffffffffffffffffffffffffffffffff167fd6137be44db128ffcf1ea1821dbe8f889f67f949be7656c2d8acba2a4a891a028383604051808381526020018281526020019250505060405180910390a250505b50505050505050565b600160009054906101000a900473ffffffffffffffffffffffffffffffffffffffff1681565b600080600084861190508015611ad1576000841315611aac5786841115611a9157611a868785611bd390919063ffffffff16565b965060009050611aa7565b611aa48488611bd390919063ffffffff16565b96505b611ac5565b611ac28460000388611b4b90919063ffffffff16565b96505b80879250925050611b42565b6000841315611af457611aed8488611b4b90919063ffffffff16565b9650611b3a565b86846000031115611b2057611b158785600003611bd390919063ffffffff16565b965060019050611b39565b611b368460000388611bd390919063ffffffff16565b96505b5b808792509250505b94509492505050565b600080828401905083811015611bc9576040517f08c379a000000000000000000000000000000000000000000000000000000000815260040180806020018281038252601b8152602001807f536166654d6174683a206164646974696f6e206f766572666c6f77000000000081525060200191505060405180910390fd5b8091505092915050565b6000611c1583836040518060400160405280601e81526020017f536166654d6174683a207375627472616374696f6e206f766572666c6f770000815250611d35565b905092915050565b600080831415611c305760009050611c9d565b6000828402905082848281611c4157fe5b0414611c98576040517f08c379a0000000000000000000000000000000000000000000000000000000008152600401808060200182810382526021815260200180611ebc6021913960400191505060405180910390fd5b809150505b92915050565b6000611ce583836040518060400160405280601a81526020017f536166654d6174683a206469766973696f6e206279207a65726f000000000000815250611df5565b905092915050565b80600460008473ffffffffffffffffffffffffffffffffffffffff1673ffffffffffffffffffffffffffffffffffffffff168152602001908152602001600020819055505050565b6000838311158290611de2576040517f08c379a00000000000000000000000000000000000000000000000000000000081526004018080602001828103825283818151815260200191508051906020019080838360005b83811015611da7578082015181840152602081019050611d8c565b50505050905090810190601f168015611dd45780820380516001836020036101000a031916815260200191505b509250505060405180910390fd5b5060008385039050809150509392505050565b60008083118290611ea1576040517f08c379a00000000000000000000000000000000000000000000000000000000081526004018080602001828103825283818151815260200191508051906020019080838360005b83811015611e66578082015181840152602081019050611e4b565b50505050905090810190601f168015611e935780820380516001836020036101000a031916815260200191505b509250505060405180910390fd5b506000838581611ead57fe5b04905080915050939250505056fe536166654d6174683a206d756c7469706c69636174696f6e206f766572666c6f77a2646970667358221220ac940abd21e4a6211eebb89454cfda728da03efce7263491f560d13c2f9e338064736f6c634300060c0033",
  "linkReferences": {},
  "deployedLinkReferences": {}
}