{
  "_format": "hh-sol-artifact-1",
  "contractName": "Reader",
  "sourceName": "contracts/gmx/peripherals/Reader.sol",
  "abi": [
    {
      "inputs": [],
      "name": "BASIS_POINTS_DIVISOR",
      "outputs": [
        {
          "internalType": "uint256",
          "name": "",
          "type": "uint256"
        }
      ],
      "stateMutability": "view",
      "type": "function"
    },
    {
      "inputs": [],
      "name": "POSITION_PROPS_LENGTH",
      "outputs": [
        {
          "internalType": "uint256",
          "name": "",
          "type": "uint256"
        }
      ],
      "stateMutability": "view",
      "type": "function"
    },
    {
      "inputs": [],
      "name": "PRICE_PRECISION",
      "outputs": [
        {
          "internalType": "uint256",
          "name": "",
          "type": "uint256"
        }
      ],
      "stateMutability": "view",
      "type": "function"
    },
    {
      "inputs": [],
      "name": "USDG_DECIMALS",
      "outputs": [
        {
          "internalType": "uint256",
          "name": "",
          "type": "uint256"
        }
      ],
      "stateMutability": "view",
      "type": "function"
    },
    {
      "inputs": [
        {
          "internalType": "contract IVault",
          "name": "_vault",
          "type": "address"
        },
        {
          "internalType": "address",
          "name": "_tokenIn",
          "type": "address"
        },
        {
          "internalType": "address",
          "name": "_tokenOut",
          "type": "address"
        },
        {
          "internalType": "uint256",
          "name": "_amountIn",
          "type": "uint256"
        }
      ],
      "name": "getAmountOut",
      "outputs": [
        {
          "internalType": "uint256",
          "name": "",
          "type": "uint256"
        },
        {
          "internalType": "uint256",
          "name": "",
          "type": "uint256"
        }
      ],
      "stateMutability": "view",
      "type": "function"
    },
    {
      "inputs": [
        {
          "internalType": "contract IVault",
          "name": "_vault",
          "type": "address"
        },
        {
          "internalType": "address",
          "name": "_tokenIn",
          "type": "address"
        },
        {
          "internalType": "address",
          "name": "_tokenOut",
          "type": "address"
        },
        {
          "internalType": "uint256",
          "name": "_amountIn",
          "type": "uint256"
        }
      ],
      "name": "getFeeBasisPoints",
      "outputs": [
        {
          "internalType": "uint256",
          "name": "",
          "type": "uint256"
        },
        {
          "internalType": "uint256",
          "name": "",
          "type": "uint256"
        },
        {
          "internalType": "uint256",
          "name": "",
          "type": "uint256"
        }
      ],
      "stateMutability": "view",
      "type": "function"
    },
    {
      "inputs": [
        {
          "internalType": "address",
          "name": "_vault",
          "type": "address"
        },
        {
          "internalType": "address[]",
          "name": "_tokens",
          "type": "address[]"
        }
      ],
      "name": "getFees",
      "outputs": [
        {
          "internalType": "uint256[]",
          "name": "",
          "type": "uint256[]"
        }
      ],
      "stateMutability": "view",
      "type": "function"
    },
    {
      "inputs": [
        {
          "internalType": "address",
          "name": "_vault",
          "type": "address"
        },
        {
          "internalType": "address",
          "name": "_weth",
          "type": "address"
        },
        {
          "internalType": "uint256",
          "name": "_usdgAmount",
          "type": "uint256"
        },
        {
          "internalType": "address[]",
          "name": "_tokens",
          "type": "address[]"
        }
      ],
      "name": "getFullVaultTokenInfo",
      "outputs": [
        {
          "internalType": "uint256[]",
          "name": "",
          "type": "uint256[]"
        }
      ],
      "stateMutability": "view",
      "type": "function"
    },
    {
      "inputs": [
        {
          "internalType": "address",
          "name": "_vault",
          "type": "address"
        },
        {
          "internalType": "address",
          "name": "_weth",
          "type": "address"
        },
        {
          "internalType": "address[]",
          "name": "_tokens",
          "type": "address[]"
        }
      ],
      "name": "getFundingRates",
      "outputs": [
        {
          "internalType": "uint256[]",
          "name": "",
          "type": "uint256[]"
        }
      ],
      "stateMutability": "view",
      "type": "function"
    },
    {
      "inputs": [
        {
          "internalType": "contract IVault",
          "name": "_vault",
          "type": "address"
        },
        {
          "internalType": "address",
          "name": "_tokenIn",
          "type": "address"
        },
        {
          "internalType": "address",
          "name": "_tokenOut",
          "type": "address"
        }
      ],
      "name": "getMaxAmountIn",
      "outputs": [
        {
          "internalType": "uint256",
          "name": "",
          "type": "uint256"
        }
      ],
      "stateMutability": "view",
      "type": "function"
    },
    {
      "inputs": [
        {
          "internalType": "address",
          "name": "_factory",
          "type": "address"
        },
        {
          "internalType": "address[]",
          "name": "_tokens",
          "type": "address[]"
        }
      ],
      "name": "getPairInfo",
      "outputs": [
        {
          "internalType": "uint256[]",
          "name": "",
          "type": "uint256[]"
        }
      ],
      "stateMutability": "view",
      "type": "function"
    },
    {
      "inputs": [
        {
          "internalType": "address",
          "name": "_vault",
          "type": "address"
        },
        {
          "internalType": "address",
          "name": "_account",
          "type": "address"
        },
        {
          "internalType": "address[]",
          "name": "_collateralTokens",
          "type": "address[]"
        },
        {
          "internalType": "address[]",
          "name": "_indexTokens",
          "type": "address[]"
        },
        {
          "internalType": "bool[]",
          "name": "_isLong",
          "type": "bool[]"
        }
      ],
      "name": "getPositions",
      "outputs": [
        {
          "internalType": "uint256[]",
          "name": "",
          "type": "uint256[]"
        }
      ],
      "stateMutability": "view",
      "type": "function"
    },
    {
      "inputs": [
        {
          "internalType": "contract IVaultPriceFeed",
          "name": "_priceFeed",
          "type": "address"
        },
        {
          "internalType": "address[]",
          "name": "_tokens",
          "type": "address[]"
        }
      ],
      "name": "getPrices",
      "outputs": [
        {
          "internalType": "uint256[]",
          "name": "",
          "type": "uint256[]"
        }
      ],
      "stateMutability": "view",
      "type": "function"
    },
    {
      "inputs": [
        {
          "internalType": "address",
          "name": "_account",
          "type": "address"
        },
        {
          "internalType": "address[]",
          "name": "_yieldTrackers",
          "type": "address[]"
        }
      ],
      "name": "getStakingInfo",
      "outputs": [
        {
          "internalType": "uint256[]",
          "name": "",
          "type": "uint256[]"
        }
      ],
      "stateMutability": "view",
      "type": "function"
    },
    {
      "inputs": [
        {
          "internalType": "address",
          "name": "_account",
          "type": "address"
        },
        {
          "internalType": "address[]",
          "name": "_tokens",
          "type": "address[]"
        }
      ],
      "name": "getTokenBalances",
      "outputs": [
        {
          "internalType": "uint256[]",
          "name": "",
          "type": "uint256[]"
        }
      ],
      "stateMutability": "view",
      "type": "function"
    },
    {
      "inputs": [
        {
          "internalType": "address",
          "name": "_account",
          "type": "address"
        },
        {
          "internalType": "address[]",
          "name": "_tokens",
          "type": "address[]"
        }
      ],
      "name": "getTokenBalancesWithSupplies",
      "outputs": [
        {
          "internalType": "uint256[]",
          "name": "",
          "type": "uint256[]"
        }
      ],
      "stateMutability": "view",
      "type": "function"
    },
    {
      "inputs": [
        {
          "internalType": "contract IERC20",
          "name": "_token",
          "type": "address"
        },
        {
          "internalType": "address[]",
          "name": "_excludedAccounts",
          "type": "address[]"
        }
      ],
      "name": "getTokenSupply",
      "outputs": [
        {
          "internalType": "uint256",
          "name": "",
          "type": "uint256"
        }
      ],
      "stateMutability": "view",
      "type": "function"
    },
    {
      "inputs": [
        {
          "internalType": "contract IERC20",
          "name": "_token",
          "type": "address"
        },
        {
          "internalType": "address[]",
          "name": "_accounts",
          "type": "address[]"
        }
      ],
      "name": "getTotalBalance",
      "outputs": [
        {
          "internalType": "uint256",
          "name": "",
          "type": "uint256"
        }
      ],
      "stateMutability": "view",
      "type": "function"
    },
    {
      "inputs": [
        {
          "internalType": "address[]",
          "name": "_yieldTokens",
          "type": "address[]"
        }
      ],
      "name": "getTotalStaked",
      "outputs": [
        {
          "internalType": "uint256[]",
          "name": "",
          "type": "uint256[]"
        }
      ],
      "stateMutability": "view",
      "type": "function"
    },
    {
      "inputs": [
        {
          "internalType": "address",
          "name": "_vault",
          "type": "address"
        },
        {
          "internalType": "address",
          "name": "_weth",
          "type": "address"
        },
        {
          "internalType": "uint256",
          "name": "_usdgAmount",
          "type": "uint256"
        },
        {
          "internalType": "address[]",
          "name": "_tokens",
          "type": "address[]"
        }
      ],
      "name": "getVaultTokenInfo",
      "outputs": [
        {
          "internalType": "uint256[]",
          "name": "",
          "type": "uint256[]"
        }
      ],
      "stateMutability": "view",
      "type": "function"
    },
    {
      "inputs": [
        {
          "internalType": "address",
          "name": "_vault",
          "type": "address"
        },
        {
          "internalType": "address",
          "name": "_weth",
          "type": "address"
        },
        {
          "internalType": "uint256",
          "name": "_usdgAmount",
          "type": "uint256"
        },
        {
          "internalType": "address[]",
          "name": "_tokens",
          "type": "address[]"
        }
      ],
      "name": "getVaultTokenInfoV2",
      "outputs": [
        {
          "internalType": "uint256[]",
          "name": "",
          "type": "uint256[]"
        }
      ],
      "stateMutability": "view",
      "type": "function"
    },
    {
      "inputs": [
        {
          "internalType": "address",
          "name": "_account",
          "type": "address"
        },
        {
          "internalType": "address[]",
          "name": "_vesters",
          "type": "address[]"
        }
      ],
      "name": "getVestingInfo",
      "outputs": [
        {
          "internalType": "uint256[]",
          "name": "",
          "type": "uint256[]"
        }
      ],
      "stateMutability": "view",
      "type": "function"
    },
    {
      "inputs": [],
      "name": "gov",
      "outputs": [
        {
          "internalType": "address",
          "name": "",
          "type": "address"
        }
      ],
      "stateMutability": "view",
      "type": "function"
    },
    {
      "inputs": [],
      "name": "hasMaxGlobalShortSizes",
      "outputs": [
        {
          "internalType": "bool",
          "name": "",
          "type": "bool"
        }
      ],
      "stateMutability": "view",
      "type": "function"
    },
    {
      "inputs": [
        {
          "internalType": "bool",
          "name": "_hasMaxGlobalShortSizes",
          "type": "bool"
        }
      ],
      "name": "setConfig",
      "outputs": [],
      "stateMutability": "nonpayable",
      "type": "function"
    },
    {
      "inputs": [
        {
          "internalType": "address",
          "name": "_gov",
          "type": "address"
        }
      ],
      "name": "setGov",
      "outputs": [],
      "stateMutability": "nonpayable",
      "type": "function"
    }
  ],
  "bytecode": "0x608060405234801561001057600080fd5b50336000806101000a81548173ffffffffffffffffffffffffffffffffffffffff021916908373ffffffffffffffffffffffffffffffffffffffff16021790555061788a80620000616000396000f3fe608060405234801561001057600080fd5b506004361061018e5760003560e01c8063937a0be8116100de578063c6f1d67611610097578063d802178e11610071578063d802178e14611285578063dc383cab146113b2578063f3535e6c14611627578063fbdb05ca146116bf5761018e565b8063c6f1d67614611178578063cfad57a214611198578063d7176ca9146111dc5761018e565b8063937a0be814610d6557806395082d2514610e9257806395a7535a14610eb05780639b0183c314610ffd578063a4543ead1461102d578063ad7e54971461115a5761018e565b80633613d5271161014b5780637b906e93116101255780637b906e931461096c57806386d4d0f514610ac3578063870d917c14610bf05780638e83ca3214610c0e5761018e565b80633613d52714610662578063440f018c1461078f578063482119341461083f5761018e565b8063126082cf1461019357806312d43a51146101b157806320542568146101e55780632413c8c11461033c5780632ac0184c146104495780632e3e334214610535575b600080fd5b61019b6117ab565b6040518082815260200191505060405180910390f35b6101b96117b1565b604051808273ffffffffffffffffffffffffffffffffffffffff16815260200191505060405180910390f35b6102e5600480360360808110156101fb57600080fd5b81019080803573ffffffffffffffffffffffffffffffffffffffff169060200190929190803573ffffffffffffffffffffffffffffffffffffffff169060200190929190803590602001909291908035906020019064010000000081111561026257600080fd5b82018360208201111561027457600080fd5b8035906020019184602083028401116401000000008311171561029657600080fd5b919080806020026020016040519081016040528093929190818152602001838360200280828437600081840152601f19601f8201169050808301925050505050505091929192905050506117d5565b6040518080602001828103825283818151815260200191508051906020019060200280838360005b8381101561032857808201518184015260208101905061030d565b505050509050019250505060405180910390f35b6103f26004803603602081101561035257600080fd5b810190808035906020019064010000000081111561036f57600080fd5b82018360208201111561038157600080fd5b803590602001918460208302840111640100000000831117156103a357600080fd5b919080806020026020016040519081016040528093929190818152602001838360200280828437600081840152601f19601f8201169050808301925050505050505091929192905050506120c1565b6040518080602001828103825283818151815260200191508051906020019060200280838360005b8381101561043557808201518184015260208101905061041a565b505050509050019250505060405180910390f35b61051f6004803603604081101561045f57600080fd5b81019080803573ffffffffffffffffffffffffffffffffffffffff1690602001909291908035906020019064010000000081111561049c57600080fd5b8201836020820111156104ae57600080fd5b803590602001918460208302840111640100000000831117156104d057600080fd5b919080806020026020016040519081016040528093929190818152602001838360200280828437600081840152601f19601f8201169050808301925050505050505091929192905050506121e3565b6040518082815260200191505060405180910390f35b61060b6004803603604081101561054b57600080fd5b81019080803573ffffffffffffffffffffffffffffffffffffffff1690602001909291908035906020019064010000000081111561058857600080fd5b82018360208201111561059a57600080fd5b803590602001918460208302840111640100000000831117156105bc57600080fd5b919080806020026020016040519081016040528093929190818152602001838360200280828437600081840152601f19601f820116905080830192505050505050509192919290505050612362565b6040518080602001828103825283818151815260200191508051906020019060200280838360005b8381101561064e578082015181840152602081019050610633565b505050509050019250505060405180910390f35b6107386004803603604081101561067857600080fd5b81019080803573ffffffffffffffffffffffffffffffffffffffff169060200190929190803590602001906401000000008111156106b557600080fd5b8201836020820111156106c757600080fd5b803590602001918460208302840111640100000000831117156106e957600080fd5b919080806020026020016040519081016040528093929190818152602001838360200280828437600081840152601f19601f8201169050808301925050505050505091929192905050506125dd565b6040518080602001828103825283818151815260200191508051906020019060200280838360005b8381101561077b578082015181840152602081019050610760565b505050509050019250505060405180910390f35b61081b600480360360808110156107a557600080fd5b81019080803573ffffffffffffffffffffffffffffffffffffffff169060200190929190803573ffffffffffffffffffffffffffffffffffffffff169060200190929190803573ffffffffffffffffffffffffffffffffffffffff16906020019092919080359060200190929190505050612b50565b60405180848152602001838152602001828152602001935050505060405180910390f35b6109156004803603604081101561085557600080fd5b81019080803573ffffffffffffffffffffffffffffffffffffffff1690602001909291908035906020019064010000000081111561089257600080fd5b8201836020820111156108a457600080fd5b803590602001918460208302840111640100000000831117156108c657600080fd5b919080806020026020016040519081016040528093929190818152602001838360200280828437600081840152601f19601f820116905080830192505050505050509192919290505050613237565b6040518080602001828103825283818151815260200191508051906020019060200280838360005b8381101561095857808201518184015260208101905061093d565b505050509050019250505060405180910390f35b610a6c6004803603608081101561098257600080fd5b81019080803573ffffffffffffffffffffffffffffffffffffffff169060200190929190803573ffffffffffffffffffffffffffffffffffffffff16906020019092919080359060200190929190803590602001906401000000008111156109e957600080fd5b8201836020820111156109fb57600080fd5b80359060200191846020830284011164010000000083111715610a1d57600080fd5b919080806020026020016040519081016040528093929190818152602001838360200280828437600081840152601f19601f820116905080830192505050505050509192919290505050613814565b6040518080602001828103825283818151815260200191508051906020019060200280838360005b83811015610aaf578082015181840152602081019050610a94565b505050509050019250505060405180910390f35b610b9960048036036040811015610ad957600080fd5b81019080803573ffffffffffffffffffffffffffffffffffffffff16906020019092919080359060200190640100000000811115610b1657600080fd5b820183602082011115610b2857600080fd5b80359060200191846020830284011164010000000083111715610b4a57600080fd5b919080806020026020016040519081016040528093929190818152602001838360200280828437600081840152601f19601f82011690508083019250505050505050919291929050505061427e565b6040518080602001828103825283818151815260200191508051906020019060200280838360005b83811015610bdc578082015181840152602081019050610bc1565b505050509050019250505060405180910390f35b610bf86143bc565b6040518082815260200191505060405180910390f35b610d0e60048036036080811015610c2457600080fd5b81019080803573ffffffffffffffffffffffffffffffffffffffff169060200190929190803573ffffffffffffffffffffffffffffffffffffffff1690602001909291908035906020019092919080359060200190640100000000811115610c8b57600080fd5b820183602082011115610c9d57600080fd5b80359060200191846020830284011164010000000083111715610cbf57600080fd5b919080806020026020016040519081016040528093929190818152602001838360200280828437600081840152601f19601f8201169050808301925050505050505091929192905050506143c1565b6040518080602001828103825283818151815260200191508051906020019060200280838360005b83811015610d51578082015181840152602081019050610d36565b505050509050019250505060405180910390f35b610e3b60048036036040811015610d7b57600080fd5b81019080803573ffffffffffffffffffffffffffffffffffffffff16906020019092919080359060200190640100000000811115610db857600080fd5b820183602082011115610dca57600080fd5b80359060200191846020830284011164010000000083111715610dec57600080fd5b919080806020026020016040519081016040528093929190818152602001838360200280828437600081840152601f19601f820116905080830192505050505050509192919290505050614fca565b6040518080602001828103825283818151815260200191508051906020019060200280838360005b83811015610e7e578082015181840152602081019050610e63565b505050509050019250505060405180910390f35b610e9a6151b8565b6040518082815260200191505060405180910390f35b610fa660048036036060811015610ec657600080fd5b81019080803573ffffffffffffffffffffffffffffffffffffffff169060200190929190803573ffffffffffffffffffffffffffffffffffffffff16906020019092919080359060200190640100000000811115610f2357600080fd5b820183602082011115610f3557600080fd5b80359060200191846020830284011164010000000083111715610f5757600080fd5b919080806020026020016040519081016040528093929190818152602001838360200280828437600081840152601f19601f8201169050808301925050505050505091929192905050506151c9565b6040518080602001828103825283818151815260200191508051906020019060200280838360005b83811015610fe9578082015181840152602081019050610fce565b505050509050019250505060405180910390f35b61102b6004803603602081101561101357600080fd5b81019080803515159060200190929190505050615810565b005b6111036004803603604081101561104357600080fd5b81019080803573ffffffffffffffffffffffffffffffffffffffff1690602001909291908035906020019064010000000081111561108057600080fd5b82018360208201111561109257600080fd5b803590602001918460208302840111640100000000831117156110b457600080fd5b919080806020026020016040519081016040528093929190818152602001838360200280828437600081840152601f19601f8201169050808301925050505050505091929192905050506158ee565b6040518080602001828103825283818151815260200191508051906020019060200280838360005b8381101561114657808201518184015260208101905061112b565b505050509050019250505060405180910390f35b611162615bfb565b6040518082815260200191505060405180910390f35b611180615c00565b60405180821515815260200191505060405180910390f35b6111da600480360360208110156111ae57600080fd5b81019080803573ffffffffffffffffffffffffffffffffffffffff169060200190929190505050615c13565b005b611268600480360360808110156111f257600080fd5b81019080803573ffffffffffffffffffffffffffffffffffffffff169060200190929190803573ffffffffffffffffffffffffffffffffffffffff169060200190929190803573ffffffffffffffffffffffffffffffffffffffff16906020019092919080359060200190929190505050615d17565b604051808381526020018281526020019250505060405180910390f35b61135b6004803603604081101561129b57600080fd5b81019080803573ffffffffffffffffffffffffffffffffffffffff169060200190929190803590602001906401000000008111156112d857600080fd5b8201836020820111156112ea57600080fd5b8035906020019184602083028401116401000000008311171561130c57600080fd5b919080806020026020016040519081016040528093929190818152602001838360200280828437600081840152601f19601f8201169050808301925050505050505091929192905050506165f5565b6040518080602001828103825283818151815260200191508051906020019060200280838360005b8381101561139e578082015181840152602081019050611383565b505050509050019250505060405180910390f35b6115d0600480360360a08110156113c857600080fd5b81019080803573ffffffffffffffffffffffffffffffffffffffff169060200190929190803573ffffffffffffffffffffffffffffffffffffffff1690602001909291908035906020019064010000000081111561142557600080fd5b82018360208201111561143757600080fd5b8035906020019184602083028401116401000000008311171561145957600080fd5b919080806020026020016040519081016040528093929190818152602001838360200280828437600081840152601f19601f820116905080830192505050505050509192919290803590602001906401000000008111156114b957600080fd5b8201836020820111156114cb57600080fd5b803590602001918460208302840111640100000000831117156114ed57600080fd5b919080806020026020016040519081016040528093929190818152602001838360200280828437600081840152601f19601f8201169050808301925050505050505091929192908035906020019064010000000081111561154d57600080fd5b82018360208201111561155f57600080fd5b8035906020019184602083028401116401000000008311171561158157600080fd5b919080806020026020016040519081016040528093929190818152602001838360200280828437600081840152601f19601f8201169050808301925050505050505091929192905050506167a5565b6040518080602001828103825283818151815260200191508051906020019060200280838360005b838110156116135780820151818401526020810190506115f8565b505050509050019250505060405180910390f35b6116a96004803603606081101561163d57600080fd5b81019080803573ffffffffffffffffffffffffffffffffffffffff169060200190929190803573ffffffffffffffffffffffffffffffffffffffff169060200190929190803573ffffffffffffffffffffffffffffffffffffffff169060200190929190505050616c3c565b6040518082815260200191505060405180910390f35b611795600480360360408110156116d557600080fd5b81019080803573ffffffffffffffffffffffffffffffffffffffff1690602001909291908035906020019064010000000081111561171257600080fd5b82018360208201111561172457600080fd5b8035906020019184602083028401116401000000008311171561174657600080fd5b919080806020026020016040519081016040528093929190818152602001838360200280828437600081840152601f19601f82011690508083019250505050505050919291929050505061740b565b6040518082815260200191505060405180910390f35b61271081565b60008054906101000a900473ffffffffffffffffffffffffffffffffffffffff1681565b60606000600a9050600086905060008173ffffffffffffffffffffffffffffffffffffffff1663741bef1a6040518163ffffffff1660e01b815260040160206040518083038186803b15801561182a57600080fd5b505afa15801561183e573d6000803e3d6000fd5b505050506040513d602081101561185457600080fd5b8101908080519060200190929190505050905060608386510267ffffffffffffffff8111801561188357600080fd5b506040519080825280602002602001820160405280156118b25781602001602082028036833780820191505090505b50905060005b86518110156120b15760008782815181106118cf57fe5b60200260200101519050600073ffffffffffffffffffffffffffffffffffffffff168173ffffffffffffffffffffffffffffffffffffffff161415611912578990505b8473ffffffffffffffffffffffffffffffffffffffff166352f55eed826040518263ffffffff1660e01b8152600401808273ffffffffffffffffffffffffffffffffffffffff16815260200191505060206040518083038186803b15801561197957600080fd5b505afa15801561198d573d6000803e3d6000fd5b505050506040513d60208110156119a357600080fd5b810190808051906020019092919050505083878402815181106119c257fe5b6020026020010181815250508473ffffffffffffffffffffffffffffffffffffffff1663c3c7b9e9826040518263ffffffff1660e01b8152600401808273ffffffffffffffffffffffffffffffffffffffff16815260200191505060206040518083038186803b158015611a3557600080fd5b505afa158015611a49573d6000803e3d6000fd5b505050506040513d6020811015611a5f57600080fd5b81019080805190602001909291905050508360018885020181518110611a8157fe5b6020026020010181815250508473ffffffffffffffffffffffffffffffffffffffff16631aa4ace5826040518263ffffffff1660e01b8152600401808273ffffffffffffffffffffffffffffffffffffffff16815260200191505060206040518083038186803b158015611af457600080fd5b505afa158015611b08573d6000803e3d6000fd5b505050506040513d6020811015611b1e57600080fd5b81019080805190602001909291905050508360028885020181518110611b4057fe5b6020026020010181815250508473ffffffffffffffffffffffffffffffffffffffff16632c668ec1828b6040518363ffffffff1660e01b8152600401808373ffffffffffffffffffffffffffffffffffffffff1681526020018281526020019250505060206040518083038186803b158015611bbb57600080fd5b505afa158015611bcf573d6000803e3d6000fd5b505050506040513d6020811015611be557600080fd5b81019080805190602001909291905050508360038885020181518110611c0757fe5b6020026020010181815250508473ffffffffffffffffffffffffffffffffffffffff1663ab2f3ad4826040518263ffffffff1660e01b8152600401808273ffffffffffffffffffffffffffffffffffffffff16815260200191505060206040518083038186803b158015611c7a57600080fd5b505afa158015611c8e573d6000803e3d6000fd5b505050506040513d6020811015611ca457600080fd5b81019080805190602001909291905050508360048885020181518110611cc657fe5b6020026020010181815250508473ffffffffffffffffffffffffffffffffffffffff166381a612d6826040518263ffffffff1660e01b8152600401808273ffffffffffffffffffffffffffffffffffffffff16815260200191505060206040518083038186803b158015611d3957600080fd5b505afa158015611d4d573d6000803e3d6000fd5b505050506040513d6020811015611d6357600080fd5b81019080805190602001909291905050508360058885020181518110611d8557fe5b6020026020010181815250508473ffffffffffffffffffffffffffffffffffffffff1663e124e6d2826040518263ffffffff1660e01b8152600401808273ffffffffffffffffffffffffffffffffffffffff16815260200191505060206040518083038186803b158015611df857600080fd5b505afa158015611e0c573d6000803e3d6000fd5b505050506040513d6020811015611e2257600080fd5b81019080805190602001909291905050508360068885020181518110611e4457fe5b6020026020010181815250508473ffffffffffffffffffffffffffffffffffffffff1663f07456ce826040518263ffffffff1660e01b8152600401808273ffffffffffffffffffffffffffffffffffffffff16815260200191505060206040518083038186803b158015611eb757600080fd5b505afa158015611ecb573d6000803e3d6000fd5b505050506040513d6020811015611ee157600080fd5b81019080805190602001909291905050508360078885020181518110611f0357fe5b6020026020010181815250508373ffffffffffffffffffffffffffffffffffffffff166356c8c2c18260006040518363ffffffff1660e01b8152600401808373ffffffffffffffffffffffffffffffffffffffff16815260200182151581526020019250505060206040518083038186803b158015611f8157600080fd5b505afa158015611f95573d6000803e3d6000fd5b505050506040513d6020811015611fab57600080fd5b81019080805190602001909291905050508360088885020181518110611fcd57fe5b6020026020010181815250508373ffffffffffffffffffffffffffffffffffffffff166356c8c2c18260016040518363ffffffff1660e01b8152600401808373ffffffffffffffffffffffffffffffffffffffff16815260200182151581526020019250505060206040518083038186803b15801561204b57600080fd5b505afa15801561205f573d6000803e3d6000fd5b505050506040513d602081101561207557600080fd5b8101908080519060200190929190505050836009888502018151811061209757fe5b6020026020010181815250505080806001019150506118b8565b5080945050505050949350505050565b606080825167ffffffffffffffff811180156120dc57600080fd5b5060405190808252806020026020018201604052801561210b5781602001602082028036833780820191505090505b50905060005b83518110156121d957600084828151811061212857fe5b602002602001015190508073ffffffffffffffffffffffffffffffffffffffff1663817b1cd26040518163ffffffff1660e01b815260040160206040518083038186803b15801561217857600080fd5b505afa15801561218c573d6000803e3d6000fd5b505050506040513d60208110156121a257600080fd5b81019080805190602001909291905050508383815181106121bf57fe5b602002602001018181525050508080600101915050612111565b5080915050919050565b6000808373ffffffffffffffffffffffffffffffffffffffff166318160ddd6040518163ffffffff1660e01b815260040160206040518083038186803b15801561222c57600080fd5b505afa158015612240573d6000803e3d6000fd5b505050506040513d602081101561225657600080fd5b8101908080519060200190929190505050905060005b835181101561235757600084828151811061228357fe5b6020026020010151905060008673ffffffffffffffffffffffffffffffffffffffff166370a08231836040518263ffffffff1660e01b8152600401808273ffffffffffffffffffffffffffffffffffffffff16815260200191505060206040518083038186803b1580156122f657600080fd5b505afa15801561230a573d6000803e3d6000fd5b505050506040513d602081101561232057600080fd5b81019080805190602001909291905050509050612346818561750b90919063ffffffff16565b93505050808060010191505061226c565b508091505092915050565b606060006002905060608184510267ffffffffffffffff8111801561238657600080fd5b506040519080825280602002602001820160405280156123b55781602001602082028036833780820191505090505b50905060005b84518110156125d15760008582815181106123d257fe5b60200260200101519050600073ffffffffffffffffffffffffffffffffffffffff168173ffffffffffffffffffffffffffffffffffffffff161415612468578673ffffffffffffffffffffffffffffffffffffffff1631838584028151811061243757fe5b6020026020010181815250506000836001868502018151811061245657fe5b602002602001018181525050506125c4565b8073ffffffffffffffffffffffffffffffffffffffff166370a08231886040518263ffffffff1660e01b8152600401808273ffffffffffffffffffffffffffffffffffffffff16815260200191505060206040518083038186803b1580156124cf57600080fd5b505afa1580156124e3573d6000803e3d6000fd5b505050506040513d60208110156124f957600080fd5b8101908080519060200190929190505050838584028151811061251857fe5b6020026020010181815250508073ffffffffffffffffffffffffffffffffffffffff166318160ddd6040518163ffffffff1660e01b815260040160206040518083038186803b15801561256a57600080fd5b505afa15801561257e573d6000803e3d6000fd5b505050506040513d602081101561259457600080fd5b810190808051906020019092919050505083600186850201815181106125b657fe5b602002602001018181525050505b80806001019150506123bb565b50809250505092915050565b606060006006905060608184510267ffffffffffffffff8111801561260157600080fd5b506040519080825280602002602001820160405280156126305781602001602082028036833780820191505090505b50905060005b8451811015612b4457600085828151811061264d57fe5b602002602001015190508673ffffffffffffffffffffffffffffffffffffffff16632fc3a70a8260018060006040518563ffffffff1660e01b8152600401808573ffffffffffffffffffffffffffffffffffffffff16815260200184151581526020018315158152602001821515815260200194505050505060206040518083038186803b1580156126de57600080fd5b505afa1580156126f2573d6000803e3d6000fd5b505050506040513d602081101561270857600080fd5b8101908080519060200190929190505050838584028151811061272757fe5b6020026020010181815250508673ffffffffffffffffffffffffffffffffffffffff16632fc3a70a826000600160006040518563ffffffff1660e01b8152600401808573ffffffffffffffffffffffffffffffffffffffff16815260200184151581526020018315158152602001821515815260200194505050505060206040518083038186803b1580156127bb57600080fd5b505afa1580156127cf573d6000803e3d6000fd5b505050506040513d60208110156127e557600080fd5b8101908080519060200190929190505050836001868502018151811061280757fe5b6020026020010181815250508673ffffffffffffffffffffffffffffffffffffffff166356c8c2c18260016040518363ffffffff1660e01b8152600401808373ffffffffffffffffffffffffffffffffffffffff16815260200182151581526020019250505060206040518083038186803b15801561288557600080fd5b505afa158015612899573d6000803e3d6000fd5b505050506040513d60208110156128af57600080fd5b810190808051906020019092919050505083600286850201815181106128d157fe5b6020026020010181815250508673ffffffffffffffffffffffffffffffffffffffff166356c8c2c18260006040518363ffffffff1660e01b8152600401808373ffffffffffffffffffffffffffffffffffffffff16815260200182151581526020019250505060206040518083038186803b15801561294f57600080fd5b505afa158015612963573d6000803e3d6000fd5b505050506040513d602081101561297957600080fd5b8101908080519060200190929190505050836003868502018151811061299b57fe5b6020026020010181815250508673ffffffffffffffffffffffffffffffffffffffff16636ce8a44b826040518263ffffffff1660e01b8152600401808273ffffffffffffffffffffffffffffffffffffffff16815260200191505060206040518083038186803b158015612a0e57600080fd5b505afa158015612a22573d6000803e3d6000fd5b505050506040513d6020811015612a3857600080fd5b8101908080519060200190929190505050612a54576000612a57565b60015b60ff168360048685020181518110612a6b57fe5b6020026020010181815250508673ffffffffffffffffffffffffffffffffffffffff166348cac277826040518263ffffffff1660e01b8152600401808273ffffffffffffffffffffffffffffffffffffffff16815260200191505060206040518083038186803b158015612ade57600080fd5b505afa158015612af2573d6000803e3d6000fd5b505050506040513d6020811015612b0857600080fd5b81019080805190602001909291905050508360058685020181518110612b2a57fe5b602002602001018181525050508080600101915050612636565b50809250505092915050565b6000806000808773ffffffffffffffffffffffffffffffffffffffff166381a612d6886040518263ffffffff1660e01b8152600401808273ffffffffffffffffffffffffffffffffffffffff16815260200191505060206040518083038186803b158015612bbd57600080fd5b505afa158015612bd1573d6000803e3d6000fd5b505050506040513d6020811015612be757600080fd5b8101908080519060200190929190505050905060008873ffffffffffffffffffffffffffffffffffffffff16638ee573ac896040518263ffffffff1660e01b8152600401808273ffffffffffffffffffffffffffffffffffffffff16815260200191505060206040518083038186803b158015612c6357600080fd5b505afa158015612c77573d6000803e3d6000fd5b505050506040513d6020811015612c8d57600080fd5b810190808051906020019092919050505090506000612cd46c0c9f2c9cd04674edea40000000612cc6858a61755590919063ffffffff16565b6175db90919063ffffffff16565b9050612d0282600a0a612cf46012600a0a8461755590919063ffffffff16565b6175db90919063ffffffff16565b905060008a73ffffffffffffffffffffffffffffffffffffffff166342b60b038b6040518263ffffffff1660e01b8152600401808273ffffffffffffffffffffffffffffffffffffffff16815260200191505060206040518083038186803b158015612d6d57600080fd5b505afa158015612d81573d6000803e3d6000fd5b505050506040513d6020811015612d9757600080fd5b81019080805190602001909291905050508015612e5257508a73ffffffffffffffffffffffffffffffffffffffff166342b60b038a6040518263ffffffff1660e01b8152600401808273ffffffffffffffffffffffffffffffffffffffff16815260200191505060206040518083038186803b158015612e1657600080fd5b505afa158015612e2a573d6000803e3d6000fd5b505050506040513d6020811015612e4057600080fd5b81019080805190602001909291905050505b9050600081612ee1578b73ffffffffffffffffffffffffffffffffffffffff1663a22f23926040518163ffffffff1660e01b815260040160206040518083038186803b158015612ea157600080fd5b505afa158015612eb5573d6000803e3d6000fd5b505050506040513d6020811015612ecb57600080fd5b8101908080519060200190929190505050612f63565b8b73ffffffffffffffffffffffffffffffffffffffff1663df73a2676040518163ffffffff1660e01b815260040160206040518083038186803b158015612f2757600080fd5b505afa158015612f3b573d6000803e3d6000fd5b505050506040513d6020811015612f5157600080fd5b81019080805190602001909291905050505b9050600082612ff2578c73ffffffffffffffffffffffffffffffffffffffff16637a210a2b6040518163ffffffff1660e01b815260040160206040518083038186803b158015612fb257600080fd5b505afa158015612fc6573d6000803e3d6000fd5b505050506040513d6020811015612fdc57600080fd5b8101908080519060200190929190505050613074565b8c73ffffffffffffffffffffffffffffffffffffffff166310eb56c26040518163ffffffff1660e01b815260040160206040518083038186803b15801561303857600080fd5b505afa15801561304c573d6000803e3d6000fd5b505050506040513d602081101561306257600080fd5b81019080805190602001909291905050505b905060008d73ffffffffffffffffffffffffffffffffffffffff1663c7e074c38e87868660016040518663ffffffff1660e01b8152600401808673ffffffffffffffffffffffffffffffffffffffff16815260200185815260200184815260200183815260200182151581526020019550505050505060206040518083038186803b15801561310257600080fd5b505afa158015613116573d6000803e3d6000fd5b505050506040513d602081101561312c57600080fd5b8101908080519060200190929190505050905060008e73ffffffffffffffffffffffffffffffffffffffff1663c7e074c38e88878760006040518663ffffffff1660e01b8152600401808673ffffffffffffffffffffffffffffffffffffffff16815260200185815260200184815260200183815260200182151581526020019550505050505060206040518083038186803b1580156131cb57600080fd5b505afa1580156131df573d6000803e3d6000fd5b505050506040513d60208110156131f557600080fd5b8101908080519060200190929190505050905060008183116132175781613219565b825b90508083839b509b509b505050505050505050509450945094915050565b606060006007905060608184510267ffffffffffffffff8111801561325b57600080fd5b5060405190808252806020026020018201604052801561328a5781602001602082028036833780820191505090505b50905060005b84518110156138085760008582815181106132a757fe5b602002602001015190508073ffffffffffffffffffffffffffffffffffffffff16635d50e729886040518263ffffffff1660e01b8152600401808273ffffffffffffffffffffffffffffffffffffffff16815260200191505060206040518083038186803b15801561331857600080fd5b505afa15801561332c573d6000803e3d6000fd5b505050506040513d602081101561334257600080fd5b8101908080519060200190929190505050838584028151811061336157fe5b6020026020010181815250508073ffffffffffffffffffffffffffffffffffffffff1663d5a73fdd886040518263ffffffff1660e01b8152600401808273ffffffffffffffffffffffffffffffffffffffff16815260200191505060206040518083038186803b1580156133d457600080fd5b505afa1580156133e8573d6000803e3d6000fd5b505050506040513d60208110156133fe57600080fd5b8101908080519060200190929190505050836001868502018151811061342057fe5b60200260200101818152505085828151811061343857fe5b602002602001015173ffffffffffffffffffffffffffffffffffffffff166370a08231886040518263ffffffff1660e01b8152600401808273ffffffffffffffffffffffffffffffffffffffff16815260200191505060206040518083038186803b1580156134a657600080fd5b505afa1580156134ba573d6000803e3d6000fd5b505050506040513d60208110156134d057600080fd5b810190808051906020019092919050505083600286850201815181106134f257fe5b6020026020010181815250508073ffffffffffffffffffffffffffffffffffffffff166371417b32886040518263ffffffff1660e01b8152600401808273ffffffffffffffffffffffffffffffffffffffff16815260200191505060206040518083038186803b15801561356557600080fd5b505afa158015613579573d6000803e3d6000fd5b505050506040513d602081101561358f57600080fd5b810190808051906020019092919050505083600386850201815181106135b157fe5b6020026020010181815250508073ffffffffffffffffffffffffffffffffffffffff1663402914f5886040518263ffffffff1660e01b8152600401808273ffffffffffffffffffffffffffffffffffffffff16815260200191505060206040518083038186803b15801561362457600080fd5b505afa158015613638573d6000803e3d6000fd5b505050506040513d602081101561364e57600080fd5b8101908080519060200190929190505050836004868502018151811061367057fe5b6020026020010181815250508073ffffffffffffffffffffffffffffffffffffffff166308f26c76886040518263ffffffff1660e01b8152600401808273ffffffffffffffffffffffffffffffffffffffff16815260200191505060206040518083038186803b1580156136e357600080fd5b505afa1580156136f7573d6000803e3d6000fd5b505050506040513d602081101561370d57600080fd5b8101908080519060200190929190505050836005868502018151811061372f57fe5b6020026020010181815250508073ffffffffffffffffffffffffffffffffffffffff166345f01ee6886040518263ffffffff1660e01b8152600401808273ffffffffffffffffffffffffffffffffffffffff16815260200191505060206040518083038186803b1580156137a257600080fd5b505afa1580156137b6573d6000803e3d6000fd5b505050506040513d60208110156137cc57600080fd5b810190808051906020019092919050505083600686850201815181106137ee57fe5b602002602001018181525050508080600101915050613290565b50809250505092915050565b60606000600c9050600086905060008173ffffffffffffffffffffffffffffffffffffffff1663741bef1a6040518163ffffffff1660e01b815260040160206040518083038186803b15801561386957600080fd5b505afa15801561387d573d6000803e3d6000fd5b505050506040513d602081101561389357600080fd5b8101908080519060200190929190505050905060608386510267ffffffffffffffff811180156138c257600080fd5b506040519080825280602002602001820160405280156138f15781602001602082028036833780820191505090505b50905060005b865181101561426e57600087828151811061390e57fe5b60200260200101519050600073ffffffffffffffffffffffffffffffffffffffff168173ffffffffffffffffffffffffffffffffffffffff161415613951578990505b8473ffffffffffffffffffffffffffffffffffffffff166352f55eed826040518263ffffffff1660e01b8152600401808273ffffffffffffffffffffffffffffffffffffffff16815260200191505060206040518083038186803b1580156139b857600080fd5b505afa1580156139cc573d6000803e3d6000fd5b505050506040513d60208110156139e257600080fd5b81019080805190602001909291905050508387840281518110613a0157fe5b6020026020010181815250508473ffffffffffffffffffffffffffffffffffffffff1663c3c7b9e9826040518263ffffffff1660e01b8152600401808273ffffffffffffffffffffffffffffffffffffffff16815260200191505060206040518083038186803b158015613a7457600080fd5b505afa158015613a88573d6000803e3d6000fd5b505050506040513d6020811015613a9e57600080fd5b81019080805190602001909291905050508360018885020181518110613ac057fe5b6020026020010181815250508473ffffffffffffffffffffffffffffffffffffffff16631aa4ace5826040518263ffffffff1660e01b8152600401808273ffffffffffffffffffffffffffffffffffffffff16815260200191505060206040518083038186803b158015613b3357600080fd5b505afa158015613b47573d6000803e3d6000fd5b505050506040513d6020811015613b5d57600080fd5b81019080805190602001909291905050508360028885020181518110613b7f57fe5b6020026020010181815250508473ffffffffffffffffffffffffffffffffffffffff16632c668ec1828b6040518363ffffffff1660e01b8152600401808373ffffffffffffffffffffffffffffffffffffffff1681526020018281526020019250505060206040518083038186803b158015613bfa57600080fd5b505afa158015613c0e573d6000803e3d6000fd5b505050506040513d6020811015613c2457600080fd5b81019080805190602001909291905050508360038885020181518110613c4657fe5b6020026020010181815250508473ffffffffffffffffffffffffffffffffffffffff1663ab2f3ad4826040518263ffffffff1660e01b8152600401808273ffffffffffffffffffffffffffffffffffffffff16815260200191505060206040518083038186803b158015613cb957600080fd5b505afa158015613ccd573d6000803e3d6000fd5b505050506040513d6020811015613ce357600080fd5b81019080805190602001909291905050508360048885020181518110613d0557fe5b6020026020010181815250508473ffffffffffffffffffffffffffffffffffffffff16634a993ee9826040518263ffffffff1660e01b8152600401808273ffffffffffffffffffffffffffffffffffffffff16815260200191505060206040518083038186803b158015613d7857600080fd5b505afa158015613d8c573d6000803e3d6000fd5b505050506040513d6020811015613da257600080fd5b81019080805190602001909291905050508360058885020181518110613dc457fe5b6020026020010181815250508473ffffffffffffffffffffffffffffffffffffffff1663ad1e4f8d826040518263ffffffff1660e01b8152600401808273ffffffffffffffffffffffffffffffffffffffff16815260200191505060206040518083038186803b158015613e3757600080fd5b505afa158015613e4b573d6000803e3d6000fd5b505050506040513d6020811015613e6157600080fd5b81019080805190602001909291905050508360068885020181518110613e8357fe5b6020026020010181815250508473ffffffffffffffffffffffffffffffffffffffff166381a612d6826040518263ffffffff1660e01b8152600401808273ffffffffffffffffffffffffffffffffffffffff16815260200191505060206040518083038186803b158015613ef657600080fd5b505afa158015613f0a573d6000803e3d6000fd5b505050506040513d6020811015613f2057600080fd5b81019080805190602001909291905050508360078885020181518110613f4257fe5b6020026020010181815250508473ffffffffffffffffffffffffffffffffffffffff1663e124e6d2826040518263ffffffff1660e01b8152600401808273ffffffffffffffffffffffffffffffffffffffff16815260200191505060206040518083038186803b158015613fb557600080fd5b505afa158015613fc9573d6000803e3d6000fd5b505050506040513d6020811015613fdf57600080fd5b8101908080519060200190929190505050836008888502018151811061400157fe5b6020026020010181815250508473ffffffffffffffffffffffffffffffffffffffff1663f07456ce826040518263ffffffff1660e01b8152600401808273ffffffffffffffffffffffffffffffffffffffff16815260200191505060206040518083038186803b15801561407457600080fd5b505afa158015614088573d6000803e3d6000fd5b505050506040513d602081101561409e57600080fd5b810190808051906020019092919050505083600988850201815181106140c057fe5b6020026020010181815250508373ffffffffffffffffffffffffffffffffffffffff166356c8c2c18260006040518363ffffffff1660e01b8152600401808373ffffffffffffffffffffffffffffffffffffffff16815260200182151581526020019250505060206040518083038186803b15801561413e57600080fd5b505afa158015614152573d6000803e3d6000fd5b505050506040513d602081101561416857600080fd5b810190808051906020019092919050505083600a888502018151811061418a57fe5b6020026020010181815250508373ffffffffffffffffffffffffffffffffffffffff166356c8c2c18260016040518363ffffffff1660e01b8152600401808373ffffffffffffffffffffffffffffffffffffffff16815260200182151581526020019250505060206040518083038186803b15801561420857600080fd5b505afa15801561421c573d6000803e3d6000fd5b505050506040513d602081101561423257600080fd5b810190808051906020019092919050505083600b888502018151811061425457fe5b6020026020010181815250505080806001019150506138f7565b5080945050505050949350505050565b606080825167ffffffffffffffff8111801561429957600080fd5b506040519080825280602002602001820160405280156142c85781602001602082028036833780820191505090505b50905060005b83518110156143b1578473ffffffffffffffffffffffffffffffffffffffff16631ce9cb8f8583815181106142ff57fe5b60200260200101516040518263ffffffff1660e01b8152600401808273ffffffffffffffffffffffffffffffffffffffff16815260200191505060206040518083038186803b15801561435157600080fd5b505afa158015614365573d6000803e3d6000fd5b505050506040513d602081101561437b57600080fd5b810190808051906020019092919050505082828151811061439857fe5b60200260200101818152505080806001019150506142ce565b508091505092915050565b601281565b60606000600e9050600086905060008173ffffffffffffffffffffffffffffffffffffffff1663741bef1a6040518163ffffffff1660e01b815260040160206040518083038186803b15801561441657600080fd5b505afa15801561442a573d6000803e3d6000fd5b505050506040513d602081101561444057600080fd5b8101908080519060200190929190505050905060608386510267ffffffffffffffff8111801561446f57600080fd5b5060405190808252806020026020018201604052801561449e5781602001602082028036833780820191505090505b50905060005b8651811015614fba5760008782815181106144bb57fe5b60200260200101519050600073ffffffffffffffffffffffffffffffffffffffff168173ffffffffffffffffffffffffffffffffffffffff1614156144fe578990505b60008060149054906101000a900460ff1661451a5760006145bd565b8573ffffffffffffffffffffffffffffffffffffffff16639698d25a836040518263ffffffff1660e01b8152600401808273ffffffffffffffffffffffffffffffffffffffff16815260200191505060206040518083038186803b15801561458157600080fd5b505afa158015614595573d6000803e3d6000fd5b505050506040513d60208110156145ab57600080fd5b81019080805190602001909291905050505b90508573ffffffffffffffffffffffffffffffffffffffff166352f55eed836040518263ffffffff1660e01b8152600401808273ffffffffffffffffffffffffffffffffffffffff16815260200191505060206040518083038186803b15801561462657600080fd5b505afa15801561463a573d6000803e3d6000fd5b505050506040513d602081101561465057600080fd5b8101908080519060200190929190505050848885028151811061466f57fe5b6020026020010181815250508573ffffffffffffffffffffffffffffffffffffffff1663c3c7b9e9836040518263ffffffff1660e01b8152600401808273ffffffffffffffffffffffffffffffffffffffff16815260200191505060206040518083038186803b1580156146e257600080fd5b505afa1580156146f6573d6000803e3d6000fd5b505050506040513d602081101561470c57600080fd5b8101908080519060200190929190505050846001898602018151811061472e57fe5b6020026020010181815250508573ffffffffffffffffffffffffffffffffffffffff16631aa4ace5836040518263ffffffff1660e01b8152600401808273ffffffffffffffffffffffffffffffffffffffff16815260200191505060206040518083038186803b1580156147a157600080fd5b505afa1580156147b5573d6000803e3d6000fd5b505050506040513d60208110156147cb57600080fd5b810190808051906020019092919050505084600289860201815181106147ed57fe5b6020026020010181815250508573ffffffffffffffffffffffffffffffffffffffff16632c668ec1838c6040518363ffffffff1660e01b8152600401808373ffffffffffffffffffffffffffffffffffffffff1681526020018281526020019250505060206040518083038186803b15801561486857600080fd5b505afa15801561487c573d6000803e3d6000fd5b505050506040513d602081101561489257600080fd5b810190808051906020019092919050505084600389860201815181106148b457fe5b6020026020010181815250508573ffffffffffffffffffffffffffffffffffffffff1663ab2f3ad4836040518263ffffffff1660e01b8152600401808273ffffffffffffffffffffffffffffffffffffffff16815260200191505060206040518083038186803b15801561492757600080fd5b505afa15801561493b573d6000803e3d6000fd5b505050506040513d602081101561495157600080fd5b8101908080519060200190929190505050846004898602018151811061497357fe5b6020026020010181815250508573ffffffffffffffffffffffffffffffffffffffff16634a993ee9836040518263ffffffff1660e01b8152600401808273ffffffffffffffffffffffffffffffffffffffff16815260200191505060206040518083038186803b1580156149e657600080fd5b505afa1580156149fa573d6000803e3d6000fd5b505050506040513d6020811015614a1057600080fd5b81019080805190602001909291905050508460058986020181518110614a3257fe5b6020026020010181815250508573ffffffffffffffffffffffffffffffffffffffff1663ad1e4f8d836040518263ffffffff1660e01b8152600401808273ffffffffffffffffffffffffffffffffffffffff16815260200191505060206040518083038186803b158015614aa557600080fd5b505afa158015614ab9573d6000803e3d6000fd5b505050506040513d6020811015614acf57600080fd5b81019080805190602001909291905050508460068986020181518110614af157fe5b6020026020010181815250508573ffffffffffffffffffffffffffffffffffffffff16638a78daa8836040518263ffffffff1660e01b8152600401808273ffffffffffffffffffffffffffffffffffffffff16815260200191505060206040518083038186803b158015614b6457600080fd5b505afa158015614b78573d6000803e3d6000fd5b505050506040513d6020811015614b8e57600080fd5b81019080805190602001909291905050508460078986020181518110614bb057fe5b602002602001018181525050808460088986020181518110614bce57fe5b6020026020010181815250508573ffffffffffffffffffffffffffffffffffffffff166381a612d6836040518263ffffffff1660e01b8152600401808273ffffffffffffffffffffffffffffffffffffffff16815260200191505060206040518083038186803b158015614c4157600080fd5b505afa158015614c55573d6000803e3d6000fd5b505050506040513d6020811015614c6b57600080fd5b81019080805190602001909291905050508460098986020181518110614c8d57fe5b6020026020010181815250508573ffffffffffffffffffffffffffffffffffffffff1663e124e6d2836040518263ffffffff1660e01b8152600401808273ffffffffffffffffffffffffffffffffffffffff16815260200191505060206040518083038186803b158015614d0057600080fd5b505afa158015614d14573d6000803e3d6000fd5b505050506040513d6020811015614d2a57600080fd5b810190808051906020019092919050505084600a8986020181518110614d4c57fe5b6020026020010181815250508573ffffffffffffffffffffffffffffffffffffffff1663f07456ce836040518263ffffffff1660e01b8152600401808273ffffffffffffffffffffffffffffffffffffffff16815260200191505060206040518083038186803b158015614dbf57600080fd5b505afa158015614dd3573d6000803e3d6000fd5b505050506040513d6020811015614de957600080fd5b810190808051906020019092919050505084600b8986020181518110614e0b57fe5b6020026020010181815250508473ffffffffffffffffffffffffffffffffffffffff166356c8c2c18360006040518363ffffffff1660e01b8152600401808373ffffffffffffffffffffffffffffffffffffffff16815260200182151581526020019250505060206040518083038186803b158015614e8957600080fd5b505afa158015614e9d573d6000803e3d6000fd5b505050506040513d6020811015614eb357600080fd5b810190808051906020019092919050505084600c8986020181518110614ed557fe5b6020026020010181815250508473ffffffffffffffffffffffffffffffffffffffff166356c8c2c18360016040518363ffffffff1660e01b8152600401808373ffffffffffffffffffffffffffffffffffffffff16815260200182151581526020019250505060206040518083038186803b158015614f5357600080fd5b505afa158015614f67573d6000803e3d6000fd5b505050506040513d6020811015614f7d57600080fd5b810190808051906020019092919050505084600d8986020181518110614f9f57fe5b602002602001018181525050505080806001019150506144a4565b5080945050505050949350505050565b606060006002905060608184510267ffffffffffffffff81118015614fee57600080fd5b5060405190808252806020026020018201604052801561501d5781602001602082028036833780820191505090505b50905060005b84518110156151ac57600085828151811061503a57fe5b602002602001015190508073ffffffffffffffffffffffffffffffffffffffff1663402914f5886040518263ffffffff1660e01b8152600401808273ffffffffffffffffffffffffffffffffffffffff16815260200191505060206040518083038186803b1580156150ab57600080fd5b505afa1580156150bf573d6000803e3d6000fd5b505050506040513d60208110156150d557600080fd5b810190808051906020019092919050505083858402815181106150f457fe5b6020026020010181815250508073ffffffffffffffffffffffffffffffffffffffff16632459f51d6040518163ffffffff1660e01b815260040160206040518083038186803b15801561514657600080fd5b505afa15801561515a573d6000803e3d6000fd5b505050506040513d602081101561517057600080fd5b8101908080519060200190929190505050836001868502018151811061519257fe5b602002602001018181525050508080600101915050615023565b50809250505092915050565b6c0c9f2c9cd04674edea4000000081565b606060006002905060608184510267ffffffffffffffff811180156151ed57600080fd5b5060405190808252806020026020018201604052801561521c5781602001602082028036833780820191505090505b509050600086905060005b855181101561580257600086828151811061523e57fe5b60200260200101519050600073ffffffffffffffffffffffffffffffffffffffff168173ffffffffffffffffffffffffffffffffffffffff161415615281578790505b60008373ffffffffffffffffffffffffffffffffffffffff166342b60b03836040518263ffffffff1660e01b8152600401808273ffffffffffffffffffffffffffffffffffffffff16815260200191505060206040518083038186803b1580156152ea57600080fd5b505afa1580156152fe573d6000803e3d6000fd5b505050506040513d602081101561531457600080fd5b81019080805190602001909291905050506153af578373ffffffffffffffffffffffffffffffffffffffff1663c4f718bf6040518163ffffffff1660e01b815260040160206040518083038186803b15801561536f57600080fd5b505afa158015615383573d6000803e3d6000fd5b505050506040513d602081101561539957600080fd5b8101908080519060200190929190505050615431565b8373ffffffffffffffffffffffffffffffffffffffff1663134ca63b6040518163ffffffff1660e01b815260040160206040518083038186803b1580156153f557600080fd5b505afa158015615409573d6000803e3d6000fd5b505050506040513d602081101561541f57600080fd5b81019080805190602001909291905050505b905060008473ffffffffffffffffffffffffffffffffffffffff1663c3c7b9e9846040518263ffffffff1660e01b8152600401808273ffffffffffffffffffffffffffffffffffffffff16815260200191505060206040518083038186803b15801561549c57600080fd5b505afa1580156154b0573d6000803e3d6000fd5b505050506040513d60208110156154c657600080fd5b8101908080519060200190929190505050905060008573ffffffffffffffffffffffffffffffffffffffff166352f55eed856040518263ffffffff1660e01b8152600401808273ffffffffffffffffffffffffffffffffffffffff16815260200191505060206040518083038186803b15801561554257600080fd5b505afa158015615556573d6000803e3d6000fd5b505050506040513d602081101561556c57600080fd5b8101908080519060200190929190505050905060008111156155c8576155ad8161559f848661755590919063ffffffff16565b6175db90919063ffffffff16565b87898702815181106155bb57fe5b6020026020010181815250505b60008673ffffffffffffffffffffffffffffffffffffffff1663c65bc7b1866040518263ffffffff1660e01b8152600401808273ffffffffffffffffffffffffffffffffffffffff16815260200191505060206040518083038186803b15801561563157600080fd5b505afa158015615645573d6000803e3d6000fd5b505050506040513d602081101561565b57600080fd5b810190808051906020019092919050505011156157f15760008673ffffffffffffffffffffffffffffffffffffffff1663a93acac2866040518263ffffffff1660e01b8152600401808273ffffffffffffffffffffffffffffffffffffffff16815260200191505060206040518083038186803b1580156156db57600080fd5b505afa1580156156ef573d6000803e3d6000fd5b505050506040513d602081101561570557600080fd5b8101908080519060200190929190505050905060008773ffffffffffffffffffffffffffffffffffffffff1663c65bc7b1876040518263ffffffff1660e01b8152600401808273ffffffffffffffffffffffffffffffffffffffff16815260200191505060206040518083038186803b15801561578157600080fd5b505afa158015615795573d6000803e3d6000fd5b505050506040513d60208110156157ab57600080fd5b810190808051906020019092919050505090506157d1828261762590919063ffffffff16565b8960018c8a0201815181106157e257fe5b60200260200101818152505050505b505050508080600101915050615227565b508193505050509392505050565b60008054906101000a900473ffffffffffffffffffffffffffffffffffffffff1673ffffffffffffffffffffffffffffffffffffffff163373ffffffffffffffffffffffffffffffffffffffff16146158d1576040517f08c379a00000000000000000000000000000000000000000000000000000000081526004018080602001828103825260158152602001807f476f7665726e61626c653a20666f7262696464656e000000000000000000000081525060200191505060405180910390fd5b80600060146101000a81548160ff02191690831515021790555050565b60606000600290506000600290506060818386518161590957fe5b040267ffffffffffffffff8111801561592157600080fd5b506040519080825280602002602001820160405280156159505781602001602082028036833780820191505090505b50905060005b8386518161596057fe5b04811015615bee576000868583028151811061597857fe5b602002602001015190506000876001878502018151811061599557fe5b6020026020010151905060008973ffffffffffffffffffffffffffffffffffffffff1663e6a4390584846040518363ffffffff1660e01b8152600401808373ffffffffffffffffffffffffffffffffffffffff1681526020018273ffffffffffffffffffffffffffffffffffffffff1681526020019250505060206040518083038186803b158015615a2657600080fd5b505afa158015615a3a573d6000803e3d6000fd5b505050506040513d6020811015615a5057600080fd5b810190808051906020019092919050505090508273ffffffffffffffffffffffffffffffffffffffff166370a08231826040518263ffffffff1660e01b8152600401808273ffffffffffffffffffffffffffffffffffffffff16815260200191505060206040518083038186803b158015615aca57600080fd5b505afa158015615ade573d6000803e3d6000fd5b505050506040513d6020811015615af457600080fd5b81019080805190602001909291905050508587860281518110615b1357fe5b6020026020010181815250508173ffffffffffffffffffffffffffffffffffffffff166370a08231826040518263ffffffff1660e01b8152600401808273ffffffffffffffffffffffffffffffffffffffff16815260200191505060206040518083038186803b158015615b8657600080fd5b505afa158015615b9a573d6000803e3d6000fd5b505050506040513d6020811015615bb057600080fd5b81019080805190602001909291905050508560018887020181518110615bd257fe5b6020026020010181815250505050508080600101915050615956565b5080935050505092915050565b600981565b600060149054906101000a900460ff1681565b60008054906101000a900473ffffffffffffffffffffffffffffffffffffffff1673ffffffffffffffffffffffffffffffffffffffff163373ffffffffffffffffffffffffffffffffffffffff1614615cd4576040517f08c379a00000000000000000000000000000000000000000000000000000000081526004018080602001828103825260158152602001807f476f7665726e61626c653a20666f7262696464656e000000000000000000000081525060200191505060405180910390fd5b806000806101000a81548173ffffffffffffffffffffffffffffffffffffffff021916908373ffffffffffffffffffffffffffffffffffffffff16021790555050565b60008060008673ffffffffffffffffffffffffffffffffffffffff166381a612d6876040518263ffffffff1660e01b8152600401808273ffffffffffffffffffffffffffffffffffffffff16815260200191505060206040518083038186803b158015615d8357600080fd5b505afa158015615d97573d6000803e3d6000fd5b505050506040513d6020811015615dad57600080fd5b8101908080519060200190929190505050905060008773ffffffffffffffffffffffffffffffffffffffff16638ee573ac886040518263ffffffff1660e01b8152600401808273ffffffffffffffffffffffffffffffffffffffff16815260200191505060206040518083038186803b158015615e2957600080fd5b505afa158015615e3d573d6000803e3d6000fd5b505050506040513d6020811015615e5357600080fd5b8101908080519060200190929190505050905060008873ffffffffffffffffffffffffffffffffffffffff16638ee573ac886040518263ffffffff1660e01b8152600401808273ffffffffffffffffffffffffffffffffffffffff16815260200191505060206040518083038186803b158015615ecf57600080fd5b505afa158015615ee3573d6000803e3d6000fd5b505050506040513d6020811015615ef957600080fd5b81019080805190602001909291905050509050600080615f416c0c9f2c9cd04674edea40000000615f33878b61755590919063ffffffff16565b6175db90919063ffffffff16565b9050615f6f84600a0a615f616012600a0a8461755590919063ffffffff16565b6175db90919063ffffffff16565b905060008b73ffffffffffffffffffffffffffffffffffffffff166342b60b038c6040518263ffffffff1660e01b8152600401808273ffffffffffffffffffffffffffffffffffffffff16815260200191505060206040518083038186803b158015615fda57600080fd5b505afa158015615fee573d6000803e3d6000fd5b505050506040513d602081101561600457600080fd5b810190808051906020019092919050505080156160bf57508b73ffffffffffffffffffffffffffffffffffffffff166342b60b038b6040518263ffffffff1660e01b8152600401808273ffffffffffffffffffffffffffffffffffffffff16815260200191505060206040518083038186803b15801561608357600080fd5b505afa158015616097573d6000803e3d6000fd5b505050506040513d60208110156160ad57600080fd5b81019080805190602001909291905050505b905060008161614e578c73ffffffffffffffffffffffffffffffffffffffff1663a22f23926040518163ffffffff1660e01b815260040160206040518083038186803b15801561610e57600080fd5b505afa158015616122573d6000803e3d6000fd5b505050506040513d602081101561613857600080fd5b81019080805190602001909291905050506161d0565b8c73ffffffffffffffffffffffffffffffffffffffff1663df73a2676040518163ffffffff1660e01b815260040160206040518083038186803b15801561619457600080fd5b505afa1580156161a8573d6000803e3d6000fd5b505050506040513d60208110156161be57600080fd5b81019080805190602001909291905050505b905060008261625f578d73ffffffffffffffffffffffffffffffffffffffff16637a210a2b6040518163ffffffff1660e01b815260040160206040518083038186803b15801561621f57600080fd5b505afa158015616233573d6000803e3d6000fd5b505050506040513d602081101561624957600080fd5b81019080805190602001909291905050506162e1565b8d73ffffffffffffffffffffffffffffffffffffffff166310eb56c26040518163ffffffff1660e01b815260040160206040518083038186803b1580156162a557600080fd5b505afa1580156162b9573d6000803e3d6000fd5b505050506040513d60208110156162cf57600080fd5b81019080805190602001909291905050505b905060008e73ffffffffffffffffffffffffffffffffffffffff1663c7e074c38f87868660016040518663ffffffff1660e01b8152600401808673ffffffffffffffffffffffffffffffffffffffff16815260200185815260200184815260200183815260200182151581526020019550505050505060206040518083038186803b15801561636f57600080fd5b505afa158015616383573d6000803e3d6000fd5b505050506040513d602081101561639957600080fd5b8101908080519060200190929190505050905060008f73ffffffffffffffffffffffffffffffffffffffff1663c7e074c38f88878760006040518663ffffffff1660e01b8152600401808673ffffffffffffffffffffffffffffffffffffffff16815260200185815260200184815260200183815260200182151581526020019550505050505060206040518083038186803b15801561643857600080fd5b505afa15801561644c573d6000803e3d6000fd5b505050506040513d602081101561646257600080fd5b810190808051906020019092919050505090508082116164825780616484565b815b965050505050505060008a73ffffffffffffffffffffffffffffffffffffffff1663e124e6d28a6040518263ffffffff1660e01b8152600401808273ffffffffffffffffffffffffffffffffffffffff16815260200191505060206040518083038186803b1580156164f557600080fd5b505afa158015616509573d6000803e3d6000fd5b505050506040513d602081101561651f57600080fd5b8101908080519060200190929190505050905060006165598261654b888c61755590919063ffffffff16565b6175db90919063ffffffff16565b905061658685600a0a61657886600a0a8461755590919063ffffffff16565b6175db90919063ffffffff16565b905060006165c56127106165b76165a88761271061750b90919063ffffffff16565b8561755590919063ffffffff16565b6175db90919063ffffffff16565b905060006165dc828461750b90919063ffffffff16565b9050818199509950505050505050505094509492505050565b606080825167ffffffffffffffff8111801561661057600080fd5b5060405190808252806020026020018201604052801561663f5781602001602082028036833780820191505090505b50905060005b835181101561679a57600084828151811061665c57fe5b60200260200101519050600073ffffffffffffffffffffffffffffffffffffffff168173ffffffffffffffffffffffffffffffffffffffff1614156166d1578573ffffffffffffffffffffffffffffffffffffffff16318383815181106166bf57fe5b6020026020010181815250505061678d565b8073ffffffffffffffffffffffffffffffffffffffff166370a08231876040518263ffffffff1660e01b8152600401808273ffffffffffffffffffffffffffffffffffffffff16815260200191505060206040518083038186803b15801561673857600080fd5b505afa15801561674c573d6000803e3d6000fd5b505050506040513d602081101561676257600080fd5b810190808051906020019092919050505083838151811061677f57fe5b602002602001018181525050505b8080600101915050616645565b508091505092915050565b606080600985510267ffffffffffffffff811180156167c357600080fd5b506040519080825280602002602001820160405280156167f25781602001602082028036833780820191505090505b50905060005b8551811015616c2e5760008060008060008060008e73ffffffffffffffffffffffffffffffffffffffff16634a3f088d8f8f8b8151811061683557fe5b60200260200101518f8c8151811061684957fe5b60200260200101518f8d8151811061685d57fe5b60200260200101516040518563ffffffff1660e01b8152600401808573ffffffffffffffffffffffffffffffffffffffff1681526020018473ffffffffffffffffffffffffffffffffffffffff1681526020018373ffffffffffffffffffffffffffffffffffffffff16815260200182151581526020019450505050506101006040518083038186803b1580156168f357600080fd5b505afa158015616907573d6000803e3d6000fd5b505050506040513d61010081101561691e57600080fd5b810190808051906020019092919080519060200190929190805190602001909291908051906020019092919080519060200190929190805190602001909291908051906020019092919080519060200190929190505050975097509750509650965096509650868960098a028151811061699457fe5b6020026020010181815250508589600160098b0201815181106169b357fe5b6020026020010181815250508489600260098b0201815181106169d257fe5b6020026020010181815250508389600360098b0201815181106169f157fe5b60200260200101818152505081616a09576000616a0c565b60015b60ff1689600460098b020181518110616a2157fe5b6020026020010181815250508289600560098b020181518110616a4057fe5b6020026020010181815250508089600660098b020181518110616a5f57fe5b602002602001018181525050505050505050506000826009830281518110616a8357fe5b602002602001015190506000836002600985020181518110616aa157fe5b602002602001015190506000846006600986020181518110616abf57fe5b602002602001015190506000821115616c1e576000808c73ffffffffffffffffffffffffffffffffffffffff16635c07eaab8b8881518110616afd57fe5b602002602001015187878d8b81518110616b1357fe5b6020026020010151886040518663ffffffff1660e01b8152600401808673ffffffffffffffffffffffffffffffffffffffff168152602001858152602001848152602001831515815260200182815260200195505050505050604080518083038186803b158015616b8357600080fd5b505afa158015616b97573d6000803e3d6000fd5b505050506040513d6040811015616bad57600080fd5b8101908080519060200190929190805190602001909291905050509150915081616bd8576000616bdb565b60015b60ff16876007600989020181518110616bf057fe5b60200260200101818152505080876008600989020181518110616c0f57fe5b60200260200101818152505050505b50505080806001019150506167f8565b508091505095945050505050565b6000808473ffffffffffffffffffffffffffffffffffffffff166381a612d6856040518263ffffffff1660e01b8152600401808273ffffffffffffffffffffffffffffffffffffffff16815260200191505060206040518083038186803b158015616ca657600080fd5b505afa158015616cba573d6000803e3d6000fd5b505050506040513d6020811015616cd057600080fd5b8101908080519060200190929190505050905060008573ffffffffffffffffffffffffffffffffffffffff1663e124e6d2856040518263ffffffff1660e01b8152600401808273ffffffffffffffffffffffffffffffffffffffff16815260200191505060206040518083038186803b158015616d4c57600080fd5b505afa158015616d60573d6000803e3d6000fd5b505050506040513d6020811015616d7657600080fd5b8101908080519060200190929190505050905060008673ffffffffffffffffffffffffffffffffffffffff16638ee573ac876040518263ffffffff1660e01b8152600401808273ffffffffffffffffffffffffffffffffffffffff16815260200191505060206040518083038186803b158015616df257600080fd5b505afa158015616e06573d6000803e3d6000fd5b505050506040513d6020811015616e1c57600080fd5b8101908080519060200190929190505050905060008773ffffffffffffffffffffffffffffffffffffffff16638ee573ac876040518263ffffffff1660e01b8152600401808273ffffffffffffffffffffffffffffffffffffffff16815260200191505060206040518083038186803b158015616e9857600080fd5b505afa158015616eac573d6000803e3d6000fd5b505050506040513d6020811015616ec257600080fd5b810190808051906020019092919050505090506000808973ffffffffffffffffffffffffffffffffffffffff166352f55eed896040518263ffffffff1660e01b8152600401808273ffffffffffffffffffffffffffffffffffffffff16815260200191505060206040518083038186803b158015616f3f57600080fd5b505afa158015616f53573d6000803e3d6000fd5b505050506040513d6020811015616f6957600080fd5b8101908080519060200190929190505050905060008a73ffffffffffffffffffffffffffffffffffffffff1663c3c7b9e98a6040518263ffffffff1660e01b8152600401808273ffffffffffffffffffffffffffffffffffffffff16815260200191505060206040518083038186803b158015616fe557600080fd5b505afa158015616ff9573d6000803e3d6000fd5b505050506040513d602081101561700f57600080fd5b8101908080519060200190929190505050905060008b73ffffffffffffffffffffffffffffffffffffffff16634a993ee98b6040518263ffffffff1660e01b8152600401808273ffffffffffffffffffffffffffffffffffffffff16815260200191505060206040518083038186803b15801561708b57600080fd5b505afa15801561709f573d6000803e3d6000fd5b505050506040513d60208110156170b557600080fd5b8101908080519060200190929190505050905060008183116170d757816170d9565b825b90508381106170f45760009950505050505050505050617404565b6000617109828661750b90919063ffffffff16565b905061715a87600a0a61714c8a600a0a61713e8e6171308f8861755590919063ffffffff16565b6175db90919063ffffffff16565b61755590919063ffffffff16565b6175db90919063ffffffff16565b9550505050505060008973ffffffffffffffffffffffffffffffffffffffff1663ad1e4f8d8a6040518263ffffffff1660e01b8152600401808273ffffffffffffffffffffffffffffffffffffffff16815260200191505060206040518083038186803b1580156171ca57600080fd5b505afa1580156171de573d6000803e3d6000fd5b505050506040513d60208110156171f457600080fd5b81019080805190602001909291905050509050600081146173fa578973ffffffffffffffffffffffffffffffffffffffff16631aa4ace58a6040518263ffffffff1660e01b8152600401808273ffffffffffffffffffffffffffffffffffffffff16815260200191505060206040518083038186803b15801561727657600080fd5b505afa15801561728a573d6000803e3d6000fd5b505050506040513d60208110156172a057600080fd5b81019080805190602001909291905050508110156172c75760009650505050505050617404565b600061737d8b73ffffffffffffffffffffffffffffffffffffffff16631aa4ace58c6040518263ffffffff1660e01b8152600401808273ffffffffffffffffffffffffffffffffffffffff16815260200191505060206040518083038186803b15801561733357600080fd5b505afa158015617347573d6000803e3d6000fd5b505050506040513d602081101561735d57600080fd5b81019080805190602001909291905050508361750b90919063ffffffff16565b90506173ab6012600a0a61739d87600a0a8461755590919063ffffffff16565b6175db90919063ffffffff16565b90506173df876173d16c0c9f2c9cd04674edea400000008461755590919063ffffffff16565b6175db90919063ffffffff16565b9050808311156173f85780975050505050505050617404565b505b8196505050505050505b9392505050565b6000806000905060005b835181101561750057600084828151811061742c57fe5b6020026020010151905060008673ffffffffffffffffffffffffffffffffffffffff166370a08231836040518263ffffffff1660e01b8152600401808273ffffffffffffffffffffffffffffffffffffffff16815260200191505060206040518083038186803b15801561749f57600080fd5b505afa1580156174b3573d6000803e3d6000fd5b505050506040513d60208110156174c957600080fd5b810190808051906020019092919050505090506174ef818561762590919063ffffffff16565b935050508080600101915050617415565b508091505092915050565b600061754d83836040518060400160405280601e81526020017f536166654d6174683a207375627472616374696f6e206f766572666c6f7700008152506176ad565b905092915050565b60008083141561756857600090506175d5565b600082840290508284828161757957fe5b04146175d0576040517f08c379a00000000000000000000000000000000000000000000000000000000081526004018080602001828103825260218152602001806178346021913960400191505060405180910390fd5b809150505b92915050565b600061761d83836040518060400160405280601a81526020017f536166654d6174683a206469766973696f6e206279207a65726f00000000000081525061776d565b905092915050565b6000808284019050838110156176a3576040517f08c379a000000000000000000000000000000000000000000000000000000000815260040180806020018281038252601b8152602001807f536166654d6174683a206164646974696f6e206f766572666c6f77000000000081525060200191505060405180910390fd5b8091505092915050565b600083831115829061775a576040517f08c379a00000000000000000000000000000000000000000000000000000000081526004018080602001828103825283818151815260200191508051906020019080838360005b8381101561771f578082015181840152602081019050617704565b50505050905090810190601f16801561774c5780820380516001836020036101000a031916815260200191505b509250505060405180910390fd5b5060008385039050809150509392505050565b60008083118290617819576040517f08c379a00000000000000000000000000000000000000000000000000000000081526004018080602001828103825283818151815260200191508051906020019080838360005b838110156177de5780820151818401526020810190506177c3565b50505050905090810190601f16801561780b5780820380516001836020036101000a031916815260200191505b509250505060405180910390fd5b50600083858161782557fe5b04905080915050939250505056fe536166654d6174683a206d756c7469706c69636174696f6e206f766572666c6f77a2646970667358221220a721457ffaa3dd4da1cda0b8741ea8801608d89fe91a7d7e6f8f0f56762fb9f864736f6c634300060c0033",
  "linkReferences": {},
  "deployedLinkReferences": {}
}