{
  "_format": "hh-sol-artifact-1",
  "contractName": "RewardTracker",
  "sourceName": "contracts/gmx/staking/RewardTracker.sol",
  "abi": [
    {
      "inputs": [
        {
          "internalType": "string",
          "name": "_name",
          "type": "string"
        },
        {
          "internalType": "string",
          "name": "_symbol",
          "type": "string"
        }
      ],
      "stateMutability": "nonpayable",
      "type": "constructor"
    },
    {
      "anonymous": false,
      "inputs": [
        {
          "indexed": true,
          "internalType": "address",
          "name": "owner",
          "type": "address"
        },
        {
          "indexed": true,
          "internalType": "address",
          "name": "spender",
          "type": "address"
        },
        {
          "indexed": false,
          "internalType": "uint256",
          "name": "value",
          "type": "uint256"
        }
      ],
      "name": "Approval",
      "type": "event"
    },
    {
      "anonymous": false,
      "inputs": [
        {
          "indexed": false,
          "internalType": "address",
          "name": "receiver",
          "type": "address"
        },
        {
          "indexed": false,
          "internalType": "uint256",
          "name": "amount",
          "type": "uint256"
        }
      ],
      "name": "Claim",
      "type": "event"
    },
    {
      "anonymous": false,
      "inputs": [
        {
          "indexed": true,
          "internalType": "address",
          "name": "from",
          "type": "address"
        },
        {
          "indexed": true,
          "internalType": "address",
          "name": "to",
          "type": "address"
        },
        {
          "indexed": false,
          "internalType": "uint256",
          "name": "value",
          "type": "uint256"
        }
      ],
      "name": "Transfer",
      "type": "event"
    },
    {
      "inputs": [],
      "name": "BASIS_POINTS_DIVISOR",
      "outputs": [
        {
          "internalType": "uint256",
          "name": "",
          "type": "uint256"
        }
      ],
      "stateMutability": "view",
      "type": "function"
    },
    {
      "inputs": [],
      "name": "PRECISION",
      "outputs": [
        {
          "internalType": "uint256",
          "name": "",
          "type": "uint256"
        }
      ],
      "stateMutability": "view",
      "type": "function"
    },
    {
      "inputs": [
        {
          "internalType": "address",
          "name": "_owner",
          "type": "address"
        },
        {
          "internalType": "address",
          "name": "_spender",
          "type": "address"
        }
      ],
      "name": "allowance",
      "outputs": [
        {
          "internalType": "uint256",
          "name": "",
          "type": "uint256"
        }
      ],
      "stateMutability": "view",
      "type": "function"
    },
    {
      "inputs": [
        {
          "internalType": "address",
          "name": "",
          "type": "address"
        },
        {
          "internalType": "address",
          "name": "",
          "type": "address"
        }
      ],
      "name": "allowances",
      "outputs": [
        {
          "internalType": "uint256",
          "name": "",
          "type": "uint256"
        }
      ],
      "stateMutability": "view",
      "type": "function"
    },
    {
      "inputs": [
        {
          "internalType": "address",
          "name": "_spender",
          "type": "address"
        },
        {
          "internalType": "uint256",
          "name": "_amount",
          "type": "uint256"
        }
      ],
      "name": "approve",
      "outputs": [
        {
          "internalType": "bool",
          "name": "",
          "type": "bool"
        }
      ],
      "stateMutability": "nonpayable",
      "type": "function"
    },
    {
      "inputs": [
        {
          "internalType": "address",
          "name": "",
          "type": "address"
        }
      ],
      "name": "averageStakedAmounts",
      "outputs": [
        {
          "internalType": "uint256",
          "name": "",
          "type": "uint256"
        }
      ],
      "stateMutability": "view",
      "type": "function"
    },
    {
      "inputs": [
        {
          "internalType": "address",
          "name": "_account",
          "type": "address"
        }
      ],
      "name": "balanceOf",
      "outputs": [
        {
          "internalType": "uint256",
          "name": "",
          "type": "uint256"
        }
      ],
      "stateMutability": "view",
      "type": "function"
    },
    {
      "inputs": [
        {
          "internalType": "address",
          "name": "",
          "type": "address"
        }
      ],
      "name": "balances",
      "outputs": [
        {
          "internalType": "uint256",
          "name": "",
          "type": "uint256"
        }
      ],
      "stateMutability": "view",
      "type": "function"
    },
    {
      "inputs": [
        {
          "internalType": "address",
          "name": "_receiver",
          "type": "address"
        }
      ],
      "name": "claim",
      "outputs": [
        {
          "internalType": "uint256",
          "name": "",
          "type": "uint256"
        }
      ],
      "stateMutability": "nonpayable",
      "type": "function"
    },
    {
      "inputs": [
        {
          "internalType": "address",
          "name": "_account",
          "type": "address"
        },
        {
          "internalType": "address",
          "name": "_receiver",
          "type": "address"
        }
      ],
      "name": "claimForAccount",
      "outputs": [
        {
          "internalType": "uint256",
          "name": "",
          "type": "uint256"
        }
      ],
      "stateMutability": "nonpayable",
      "type": "function"
    },
    {
      "inputs": [
        {
          "internalType": "address",
          "name": "_account",
          "type": "address"
        }
      ],
      "name": "claimable",
      "outputs": [
        {
          "internalType": "uint256",
          "name": "",
          "type": "uint256"
        }
      ],
      "stateMutability": "view",
      "type": "function"
    },
    {
      "inputs": [
        {
          "internalType": "address",
          "name": "",
          "type": "address"
        }
      ],
      "name": "claimableReward",
      "outputs": [
        {
          "internalType": "uint256",
          "name": "",
          "type": "uint256"
        }
      ],
      "stateMutability": "view",
      "type": "function"
    },
    {
      "inputs": [],
      "name": "cumulativeRewardPerToken",
      "outputs": [
        {
          "internalType": "uint256",
          "name": "",
          "type": "uint256"
        }
      ],
      "stateMutability": "view",
      "type": "function"
    },
    {
      "inputs": [
        {
          "internalType": "address",
          "name": "",
          "type": "address"
        }
      ],
      "name": "cumulativeRewards",
      "outputs": [
        {
          "internalType": "uint256",
          "name": "",
          "type": "uint256"
        }
      ],
      "stateMutability": "view",
      "type": "function"
    },
    {
      "inputs": [],
      "name": "decimals",
      "outputs": [
        {
          "internalType": "uint8",
          "name": "",
          "type": "uint8"
        }
      ],
      "stateMutability": "view",
      "type": "function"
    },
    {
      "inputs": [
        {
          "internalType": "address",
          "name": "",
          "type": "address"
        },
        {
          "internalType": "address",
          "name": "",
          "type": "address"
        }
      ],
      "name": "depositBalances",
      "outputs": [
        {
          "internalType": "uint256",
          "name": "",
          "type": "uint256"
        }
      ],
      "stateMutability": "view",
      "type": "function"
    },
    {
      "inputs": [],
      "name": "distributor",
      "outputs": [
        {
          "internalType": "address",
          "name": "",
          "type": "address"
        }
      ],
      "stateMutability": "view",
      "type": "function"
    },
    {
      "inputs": [],
      "name": "gov",
      "outputs": [
        {
          "internalType": "address",
          "name": "",
          "type": "address"
        }
      ],
      "stateMutability": "view",
      "type": "function"
    },
    {
      "inputs": [],
      "name": "inPrivateClaimingMode",
      "outputs": [
        {
          "internalType": "bool",
          "name": "",
          "type": "bool"
        }
      ],
      "stateMutability": "view",
      "type": "function"
    },
    {
      "inputs": [],
      "name": "inPrivateStakingMode",
      "outputs": [
        {
          "internalType": "bool",
          "name": "",
          "type": "bool"
        }
      ],
      "stateMutability": "view",
      "type": "function"
    },
    {
      "inputs": [],
      "name": "inPrivateTransferMode",
      "outputs": [
        {
          "internalType": "bool",
          "name": "",
          "type": "bool"
        }
      ],
      "stateMutability": "view",
      "type": "function"
    },
    {
      "inputs": [
        {
          "internalType": "address[]",
          "name": "_depositTokens",
          "type": "address[]"
        },
        {
          "internalType": "address",
          "name": "_distributor",
          "type": "address"
        }
      ],
      "name": "initialize",
      "outputs": [],
      "stateMutability": "nonpayable",
      "type": "function"
    },
    {
      "inputs": [
        {
          "internalType": "address",
          "name": "",
          "type": "address"
        }
      ],
      "name": "isDepositToken",
      "outputs": [
        {
          "internalType": "bool",
          "name": "",
          "type": "bool"
        }
      ],
      "stateMutability": "view",
      "type": "function"
    },
    {
      "inputs": [
        {
          "internalType": "address",
          "name": "",
          "type": "address"
        }
      ],
      "name": "isHandler",
      "outputs": [
        {
          "internalType": "bool",
          "name": "",
          "type": "bool"
        }
      ],
      "stateMutability": "view",
      "type": "function"
    },
    {
      "inputs": [],
      "name": "isInitialized",
      "outputs": [
        {
          "internalType": "bool",
          "name": "",
          "type": "bool"
        }
      ],
      "stateMutability": "view",
      "type": "function"
    },
    {
      "inputs": [],
      "name": "name",
      "outputs": [
        {
          "internalType": "string",
          "name": "",
          "type": "string"
        }
      ],
      "stateMutability": "view",
      "type": "function"
    },
    {
      "inputs": [
        {
          "internalType": "address",
          "name": "",
          "type": "address"
        }
      ],
      "name": "previousCumulatedRewardPerToken",
      "outputs": [
        {
          "internalType": "uint256",
          "name": "",
          "type": "uint256"
        }
      ],
      "stateMutability": "view",
      "type": "function"
    },
    {
      "inputs": [],
      "name": "rewardToken",
      "outputs": [
        {
          "internalType": "address",
          "name": "",
          "type": "address"
        }
      ],
      "stateMutability": "view",
      "type": "function"
    },
    {
      "inputs": [
        {
          "internalType": "address",
          "name": "_depositToken",
          "type": "address"
        },
        {
          "internalType": "bool",
          "name": "_isDepositToken",
          "type": "bool"
        }
      ],
      "name": "setDepositToken",
      "outputs": [],
      "stateMutability": "nonpayable",
      "type": "function"
    },
    {
      "inputs": [
        {
          "internalType": "address",
          "name": "_gov",
          "type": "address"
        }
      ],
      "name": "setGov",
      "outputs": [],
      "stateMutability": "nonpayable",
      "type": "function"
    },
    {
      "inputs": [
        {
          "internalType": "address",
          "name": "_handler",
          "type": "address"
        },
        {
          "internalType": "bool",
          "name": "_isActive",
          "type": "bool"
        }
      ],
      "name": "setHandler",
      "outputs": [],
      "stateMutability": "nonpayable",
      "type": "function"
    },
    {
      "inputs": [
        {
          "internalType": "bool",
          "name": "_inPrivateClaimingMode",
          "type": "bool"
        }
      ],
      "name": "setInPrivateClaimingMode",
      "outputs": [],
      "stateMutability": "nonpayable",
      "type": "function"
    },
    {
      "inputs": [
        {
          "internalType": "bool",
          "name": "_inPrivateStakingMode",
          "type": "bool"
        }
      ],
      "name": "setInPrivateStakingMode",
      "outputs": [],
      "stateMutability": "nonpayable",
      "type": "function"
    },
    {
      "inputs": [
        {
          "internalType": "bool",
          "name": "_inPrivateTransferMode",
          "type": "bool"
        }
      ],
      "name": "setInPrivateTransferMode",
      "outputs": [],
      "stateMutability": "nonpayable",
      "type": "function"
    },
    {
      "inputs": [
        {
          "internalType": "address",
          "name": "_depositToken",
          "type": "address"
        },
        {
          "internalType": "uint256",
          "name": "_amount",
          "type": "uint256"
        }
      ],
      "name": "stake",
      "outputs": [],
      "stateMutability": "nonpayable",
      "type": "function"
    },
    {
      "inputs": [
        {
          "internalType": "address",
          "name": "_fundingAccount",
          "type": "address"
        },
        {
          "internalType": "address",
          "name": "_account",
          "type": "address"
        },
        {
          "internalType": "address",
          "name": "_depositToken",
          "type": "address"
        },
        {
          "internalType": "uint256",
          "name": "_amount",
          "type": "uint256"
        }
      ],
      "name": "stakeForAccount",
      "outputs": [],
      "stateMutability": "nonpayable",
      "type": "function"
    },
    {
      "inputs": [
        {
          "internalType": "address",
          "name": "",
          "type": "address"
        }
      ],
      "name": "stakedAmounts",
      "outputs": [
        {
          "internalType": "uint256",
          "name": "",
          "type": "uint256"
        }
      ],
      "stateMutability": "view",
      "type": "function"
    },
    {
      "inputs": [],
      "name": "symbol",
      "outputs": [
        {
          "internalType": "string",
          "name": "",
          "type": "string"
        }
      ],
      "stateMutability": "view",
      "type": "function"
    },
    {
      "inputs": [],
      "name": "tokensPerInterval",
      "outputs": [
        {
          "internalType": "uint256",
          "name": "",
          "type": "uint256"
        }
      ],
      "stateMutability": "view",
      "type": "function"
    },
    {
      "inputs": [
        {
          "internalType": "address",
          "name": "",
          "type": "address"
        }
      ],
      "name": "totalDepositSupply",
      "outputs": [
        {
          "internalType": "uint256",
          "name": "",
          "type": "uint256"
        }
      ],
      "stateMutability": "view",
      "type": "function"
    },
    {
      "inputs": [],
      "name": "totalSupply",
      "outputs": [
        {
          "internalType": "uint256",
          "name": "",
          "type": "uint256"
        }
      ],
      "stateMutability": "view",
      "type": "function"
    },
    {
      "inputs": [
        {
          "internalType": "address",
          "name": "_recipient",
          "type": "address"
        },
        {
          "internalType": "uint256",
          "name": "_amount",
          "type": "uint256"
        }
      ],
      "name": "transfer",
      "outputs": [
        {
          "internalType": "bool",
          "name": "",
          "type": "bool"
        }
      ],
      "stateMutability": "nonpayable",
      "type": "function"
    },
    {
      "inputs": [
        {
          "internalType": "address",
          "name": "_sender",
          "type": "address"
        },
        {
          "internalType": "address",
          "name": "_recipient",
          "type": "address"
        },
        {
          "internalType": "uint256",
          "name": "_amount",
          "type": "uint256"
        }
      ],
      "name": "transferFrom",
      "outputs": [
        {
          "internalType": "bool",
          "name": "",
          "type": "bool"
        }
      ],
      "stateMutability": "nonpayable",
      "type": "function"
    },
    {
      "inputs": [
        {
          "internalType": "address",
          "name": "_depositToken",
          "type": "address"
        },
        {
          "internalType": "uint256",
          "name": "_amount",
          "type": "uint256"
        }
      ],
      "name": "unstake",
      "outputs": [],
      "stateMutability": "nonpayable",
      "type": "function"
    },
    {
      "inputs": [
        {
          "internalType": "address",
          "name": "_account",
          "type": "address"
        },
        {
          "internalType": "address",
          "name": "_depositToken",
          "type": "address"
        },
        {
          "internalType": "uint256",
          "name": "_amount",
          "type": "uint256"
        },
        {
          "internalType": "address",
          "name": "_receiver",
          "type": "address"
        }
      ],
      "name": "unstakeForAccount",
      "outputs": [],
      "stateMutability": "nonpayable",
      "type": "function"
    },
    {
      "inputs": [],
      "name": "updateRewards",
      "outputs": [],
      "stateMutability": "nonpayable",
      "type": "function"
    },
    {
      "inputs": [
        {
          "internalType": "address",
          "name": "_token",
          "type": "address"
        },
        {
          "internalType": "address",
          "name": "_account",
          "type": "address"
        },
        {
          "internalType": "uint256",
          "name": "_amount",
          "type": "uint256"
        }
      ],
      "name": "withdrawToken",
      "outputs": [],
      "stateMutability": "nonpayable",
      "type": "function"
    }
  ],
  "bytecode": "0x60806040523480156200001157600080fd5b5060405162004e2338038062004e23833981810160405260408110156200003757600080fd5b81019080805160405193929190846401000000008211156200005857600080fd5b838201915060208201858111156200006f57600080fd5b82518660018202830111640100000000821117156200008d57600080fd5b8083526020830192505050908051906020019080838360005b83811015620000c3578082015181840152602081019050620000a6565b50505050905090810190601f168015620000f15780820380516001836020036101000a031916815260200191505b50604052602001805160405193929190846401000000008211156200011557600080fd5b838201915060208201858111156200012c57600080fd5b82518660018202830111640100000000821117156200014a57600080fd5b8083526020830192505050908051906020019080838360005b838110156200018057808201518184015260208101905062000163565b50505050905090810190601f168015620001ae5780820380516001836020036101000a031916815260200191505b50604052505050600160008190555033600160006101000a81548173ffffffffffffffffffffffffffffffffffffffff021916908373ffffffffffffffffffffffffffffffffffffffff16021790555081600290805190602001906200021692919062000238565b5080600390805190602001906200022f92919062000238565b505050620002de565b828054600181600116156101000203166002900490600052602060002090601f016020900481019282601f106200027b57805160ff1916838001178555620002ac565b82800160010185558215620002ac579182015b82811115620002ab5782518255916020019190600101906200028e565b5b509050620002bb9190620002bf565b5090565b5b80821115620002da576000816000905550600101620002c0565b5090565b614b3580620002ee6000396000f3fe608060405234801561001057600080fd5b50600436106102955760003560e01c806355b6ed5c11610167578063bfe10928116100ce578063e44b755811610087578063e44b755814610fad578063e950342514610ffd578063f5d9d63e14611055578063f5fc5076146110cd578063f76033d3146110eb578063f7c618c11461110b57610295565b8063bfe1092814610e2f578063c2a672e014610e63578063c5fa273014610eb1578063cfad57a214610ed1578063dd62ed3e14610f15578063dfbaefb114610f8d57610295565b8063a318021711610120578063a318021714610c8f578063a8d9362714610ce7578063a9059cbb14610d05578063aaf5eb6814610d69578063adc9772e14610d87578063b89e45b314610dd557610295565b806355b6ed5c14610a2e5780635a47a1a714610aa657806370a0823114610ad6578063790b5a6c14610b2e57806395d89b4114610bbc5780639cb7de4b14610c3f57610295565b806323b872dd1161020b5780633e158b0c116101c45780633e158b0c146107ea578063402914f5146107f457806344a084111461084c578063462d0b2e146108a457806346ea87af1461097c578063552ce1dc146109d657610295565b806323b872dd1461064557806327e235e3146106c9578063313ce567146107215780633792def314610742578063392e53cd1461079a5780633cd7f700146107ba57610295565b8063126082cf1161025d578063126082cf146104d557806312d43a51146104f357806313e82e7a1461052757806318160ddd1461059f5780631d30d5bc146105bd5780631e83409a146105ed57610295565b806301e336671461029a57806306fdde0314610308578063095ea7b31461038b578063098bf59d146103ef57806310c1c1031461047d575b600080fd5b610306600480360360608110156102b057600080fd5b81019080803573ffffffffffffffffffffffffffffffffffffffff169060200190929190803573ffffffffffffffffffffffffffffffffffffffff1690602001909291908035906020019092919050505061113f565b005b610310611232565b6040518080602001828103825283818151815260200191508051906020019080838360005b83811015610350578082015181840152602081019050610335565b50505050905090810190601f16801561037d5780820380516001836020036101000a031916815260200191505b509250505060405180910390f35b6103d7600480360360408110156103a157600080fd5b81019080803573ffffffffffffffffffffffffffffffffffffffff169060200190929190803590602001909291905050506112d0565b60405180821515815260200191505060405180910390f35b61047b6004803603608081101561040557600080fd5b81019080803573ffffffffffffffffffffffffffffffffffffffff169060200190929190803573ffffffffffffffffffffffffffffffffffffffff16906020019092919080359060200190929190803573ffffffffffffffffffffffffffffffffffffffff1690602001909291905050506112e7565b005b6104bf6004803603602081101561049357600080fd5b81019080803573ffffffffffffffffffffffffffffffffffffffff16906020019092919050505061138a565b6040518082815260200191505060405180910390f35b6104dd6113a2565b6040518082815260200191505060405180910390f35b6104fb6113a8565b604051808273ffffffffffffffffffffffffffffffffffffffff16815260200191505060405180910390f35b6105896004803603604081101561053d57600080fd5b81019080803573ffffffffffffffffffffffffffffffffffffffff169060200190929190803573ffffffffffffffffffffffffffffffffffffffff1690602001909291905050506113ce565b6040518082815260200191505060405180910390f35b6105a7611473565b6040518082815260200191505060405180910390f35b6105eb600480360360208110156105d357600080fd5b81019080803515159060200190929190505050611479565b005b61062f6004803603602081101561060357600080fd5b81019080803573ffffffffffffffffffffffffffffffffffffffff169060200190929190505050611559565b6040518082815260200191505060405180910390f35b6106b16004803603606081101561065b57600080fd5b81019080803573ffffffffffffffffffffffffffffffffffffffff169060200190929190803573ffffffffffffffffffffffffffffffffffffffff1690602001909291908035906020019092919050505061165b565b60405180821515815260200191505060405180910390f35b61070b600480360360208110156106df57600080fd5b81019080803573ffffffffffffffffffffffffffffffffffffffff169060200190929190505050611793565b6040518082815260200191505060405180910390f35b6107296117ab565b604051808260ff16815260200191505060405180910390f35b6107846004803603602081101561075857600080fd5b81019080803573ffffffffffffffffffffffffffffffffffffffff1690602001909291905050506117b0565b6040518082815260200191505060405180910390f35b6107a26117c8565b60405180821515815260200191505060405180910390f35b6107e8600480360360208110156107d057600080fd5b810190808035151590602001909291905050506117db565b005b6107f26118bb565b005b6108366004803603602081101561080a57600080fd5b81019080803573ffffffffffffffffffffffffffffffffffffffff169060200190929190505050611950565b6040518082815260200191505060405180910390f35b61088e6004803603602081101561086257600080fd5b81019080803573ffffffffffffffffffffffffffffffffffffffff169060200190929190505050611bbe565b6040518082815260200191505060405180910390f35b61097a600480360360408110156108ba57600080fd5b81019080803590602001906401000000008111156108d757600080fd5b8201836020820111156108e957600080fd5b8035906020019184602083028401116401000000008311171561090b57600080fd5b919080806020026020016040519081016040528093929190818152602001838360200280828437600081840152601f19601f820116905080830192505050505050509192919290803573ffffffffffffffffffffffffffffffffffffffff169060200190929190505050611bd6565b005b6109be6004803603602081101561099257600080fd5b81019080803573ffffffffffffffffffffffffffffffffffffffff169060200190929190505050611de9565b60405180821515815260200191505060405180910390f35b610a18600480360360208110156109ec57600080fd5b81019080803573ffffffffffffffffffffffffffffffffffffffff169060200190929190505050611e09565b6040518082815260200191505060405180910390f35b610a9060048036036040811015610a4457600080fd5b81019080803573ffffffffffffffffffffffffffffffffffffffff169060200190929190803573ffffffffffffffffffffffffffffffffffffffff169060200190929190505050611e21565b6040518082815260200191505060405180910390f35b610ad460048036036020811015610abc57600080fd5b81019080803515159060200190929190505050611e46565b005b610b1860048036036020811015610aec57600080fd5b81019080803573ffffffffffffffffffffffffffffffffffffffff169060200190929190505050611f26565b6040518082815260200191505060405180910390f35b610bba60048036036080811015610b4457600080fd5b81019080803573ffffffffffffffffffffffffffffffffffffffff169060200190929190803573ffffffffffffffffffffffffffffffffffffffff169060200190929190803573ffffffffffffffffffffffffffffffffffffffff16906020019092919080359060200190929190505050611f6f565b005b610bc4612012565b6040518080602001828103825283818151815260200191508051906020019080838360005b83811015610c04578082015181840152602081019050610be9565b50505050905090810190601f168015610c315780820380516001836020036101000a031916815260200191505b509250505060405180910390f35b610c8d60048036036040811015610c5557600080fd5b81019080803573ffffffffffffffffffffffffffffffffffffffff1690602001909291908035151590602001909291905050506120b0565b005b610cd160048036036020811015610ca557600080fd5b81019080803573ffffffffffffffffffffffffffffffffffffffff1690602001909291905050506121ce565b6040518082815260200191505060405180910390f35b610cef6121e6565b6040518082815260200191505060405180910390f35b610d5160048036036040811015610d1b57600080fd5b81019080803573ffffffffffffffffffffffffffffffffffffffff16906020019092919080359060200190929190505050612290565b60405180821515815260200191505060405180910390f35b610d716122a7565b6040518082815260200191505060405180910390f35b610dd360048036036040811015610d9d57600080fd5b81019080803573ffffffffffffffffffffffffffffffffffffffff169060200190929190803590602001909291905050506122b8565b005b610e1760048036036020811015610deb57600080fd5b81019080803573ffffffffffffffffffffffffffffffffffffffff1690602001909291905050506123b7565b60405180821515815260200191505060405180910390f35b610e376123d7565b604051808273ffffffffffffffffffffffffffffffffffffffff16815260200191505060405180910390f35b610eaf60048036036040811015610e7957600080fd5b81019080803573ffffffffffffffffffffffffffffffffffffffff169060200190929190803590602001909291905050506123fd565b005b610eb96124fc565b60405180821515815260200191505060405180910390f35b610f1360048036036020811015610ee757600080fd5b81019080803573ffffffffffffffffffffffffffffffffffffffff16906020019092919050505061250f565b005b610f7760048036036040811015610f2b57600080fd5b81019080803573ffffffffffffffffffffffffffffffffffffffff169060200190929190803573ffffffffffffffffffffffffffffffffffffffff169060200190929190505050612616565b6040518082815260200191505060405180910390f35b610f9561269d565b60405180821515815260200191505060405180910390f35b610ffb60048036036040811015610fc357600080fd5b81019080803573ffffffffffffffffffffffffffffffffffffffff1690602001909291908035151590602001909291905050506126b0565b005b61103f6004803603602081101561101357600080fd5b81019080803573ffffffffffffffffffffffffffffffffffffffff1690602001909291905050506127ce565b6040518082815260200191505060405180910390f35b6110b76004803603604081101561106b57600080fd5b81019080803573ffffffffffffffffffffffffffffffffffffffff169060200190929190803573ffffffffffffffffffffffffffffffffffffffff1690602001909291905050506127e6565b6040518082815260200191505060405180910390f35b6110d561280b565b6040518082815260200191505060405180910390f35b6110f3612811565b60405180821515815260200191505060405180910390f35b611113612824565b604051808273ffffffffffffffffffffffffffffffffffffffff16815260200191505060405180910390f35b600160009054906101000a900473ffffffffffffffffffffffffffffffffffffffff1673ffffffffffffffffffffffffffffffffffffffff163373ffffffffffffffffffffffffffffffffffffffff1614611202576040517f08c379a00000000000000000000000000000000000000000000000000000000081526004018080602001828103825260158152602001807f476f7665726e61626c653a20666f7262696464656e000000000000000000000081525060200191505060405180910390fd5b61122d82828573ffffffffffffffffffffffffffffffffffffffff166128ce9092919063ffffffff16565b505050565b60028054600181600116156101000203166002900480601f0160208091040260200160405190810160405280929190818152602001828054600181600116156101000203166002900480156112c85780601f1061129d576101008083540402835291602001916112c8565b820191906000526020600020905b8154815290600101906020018083116112ab57829003601f168201915b505050505081565b60006112dd338484612970565b6001905092915050565b60026000541415611360576040517f08c379a000000000000000000000000000000000000000000000000000000000815260040180806020018281038252601f8152602001807f5265656e7472616e637947756172643a207265656e7472616e742063616c6c0081525060200191505060405180910390fd5b6002600081905550611370612b67565b61137c84848484612c28565b600160008190555050505050565b600c6020528060005260406000206000915090505481565b61271081565b600160009054906101000a900473ffffffffffffffffffffffffffffffffffffffff1681565b600060026000541415611449576040517f08c379a000000000000000000000000000000000000000000000000000000000815260040180806020018281038252601f8152602001807f5265656e7472616e637947756172643a207265656e7472616e742063616c6c0081525060200191505060405180910390fd5b6002600081905550611459612b67565b61146383836130ba565b9050600160008190555092915050565b60085481565b600160009054906101000a900473ffffffffffffffffffffffffffffffffffffffff1673ffffffffffffffffffffffffffffffffffffffff163373ffffffffffffffffffffffffffffffffffffffff161461153c576040517f08c379a00000000000000000000000000000000000000000000000000000000081526004018080602001828103825260158152602001807f476f7665726e61626c653a20666f7262696464656e000000000000000000000081525060200191505060405180910390fd5b80601160016101000a81548160ff02191690831515021790555050565b6000600260005414156115d4576040517f08c379a000000000000000000000000000000000000000000000000000000000815260040180806020018281038252601f8152602001807f5265656e7472616e637947756172643a207265656e7472616e742063616c6c0081525060200191505060405180910390fd5b6002600081905550601160029054906101000a900460ff1615611642576040517f08c379a0000000000000000000000000000000000000000000000000000000008152600401808060200182810382526021815260200180614a846021913960400191505060405180910390fd5b61164c33836130ba565b90506001600081905550919050565b6000601260003373ffffffffffffffffffffffffffffffffffffffff1673ffffffffffffffffffffffffffffffffffffffff16815260200190815260200160002060009054906101000a900460ff16156116c3576116ba8484846131e9565b6001905061178c565b600061176e83604051806060016040528060308152602001614a2a60309139600a60008973ffffffffffffffffffffffffffffffffffffffff1673ffffffffffffffffffffffffffffffffffffffff16815260200190815260200160002060003373ffffffffffffffffffffffffffffffffffffffff1673ffffffffffffffffffffffffffffffffffffffff168152602001908152602001600020546134c19092919063ffffffff16565b905061177b853383612970565b6117868585856131e9565b60019150505b9392505050565b60096020528060005260406000206000915090505481565b601281565b600f6020528060005260406000206000915090505481565b600160149054906101000a900460ff1681565b600160009054906101000a900473ffffffffffffffffffffffffffffffffffffffff1673ffffffffffffffffffffffffffffffffffffffff163373ffffffffffffffffffffffffffffffffffffffff161461189e576040517f08c379a00000000000000000000000000000000000000000000000000000000081526004018080602001828103825260158152602001807f476f7665726e61626c653a20666f7262696464656e000000000000000000000081525060200191505060405180910390fd5b80601160026101000a81548160ff02191690831515021790555050565b60026000541415611934576040517f08c379a000000000000000000000000000000000000000000000000000000000815260040180806020018281038252601f8152602001807f5265656e7472616e637947756172643a207265656e7472616e742063616c6c0081525060200191505060405180910390fd5b60026000819055506119466000613581565b6001600081905550565b600080600c60008473ffffffffffffffffffffffffffffffffffffffff1673ffffffffffffffffffffffffffffffffffffffff16815260200190815260200160002054905060008114156119e657600d60008473ffffffffffffffffffffffffffffffffffffffff1673ffffffffffffffffffffffffffffffffffffffff16815260200190815260200160002054915050611bb9565b600060085490506000611ab16c0c9f2c9cd04674edea40000000600460009054906101000a900473ffffffffffffffffffffffffffffffffffffffff1673ffffffffffffffffffffffffffffffffffffffff1663eded3fda6040518163ffffffff1660e01b815260040160206040518083038186803b158015611a6857600080fd5b505afa158015611a7c573d6000803e3d6000fd5b505050506040513d6020811015611a9257600080fd5b8101908080519060200190929190505050613aa090919063ffffffff16565b90506000611adc611acb8484613b2690919063ffffffff16565b600b54613b7090919063ffffffff16565b9050611bb2611b646c0c9f2c9cd04674edea40000000611b56611b47600e60008c73ffffffffffffffffffffffffffffffffffffffff1673ffffffffffffffffffffffffffffffffffffffff1681526020019081526020016000205486613bf890919063ffffffff16565b88613aa090919063ffffffff16565b613b2690919063ffffffff16565b600d60008973ffffffffffffffffffffffffffffffffffffffff1673ffffffffffffffffffffffffffffffffffffffff16815260200190815260200160002054613b7090919063ffffffff16565b9450505050505b919050565b600e6020528060005260406000206000915090505481565b600160009054906101000a900473ffffffffffffffffffffffffffffffffffffffff1673ffffffffffffffffffffffffffffffffffffffff163373ffffffffffffffffffffffffffffffffffffffff1614611c99576040517f08c379a00000000000000000000000000000000000000000000000000000000081526004018080602001828103825260158152602001807f476f7665726e61626c653a20666f7262696464656e000000000000000000000081525060200191505060405180910390fd5b600160149054906101000a900460ff1615611cff576040517f08c379a00000000000000000000000000000000000000000000000000000000081526004018080602001828103825260228152602001806149b46022913960400191505060405180910390fd5b60018060146101000a81548160ff02191690831515021790555060005b8251811015611da3576000838281518110611d3357fe5b602002602001015190506001600560008373ffffffffffffffffffffffffffffffffffffffff1673ffffffffffffffffffffffffffffffffffffffff16815260200190815260200160002060006101000a81548160ff021916908315150217905550508080600101915050611d1c565b5080600460006101000a81548173ffffffffffffffffffffffffffffffffffffffff021916908373ffffffffffffffffffffffffffffffffffffffff1602179055505050565b60126020528060005260406000206000915054906101000a900460ff1681565b60076020528060005260406000206000915090505481565b600a602052816000526040600020602052806000526040600020600091509150505481565b600160009054906101000a900473ffffffffffffffffffffffffffffffffffffffff1673ffffffffffffffffffffffffffffffffffffffff163373ffffffffffffffffffffffffffffffffffffffff1614611f09576040517f08c379a00000000000000000000000000000000000000000000000000000000081526004018080602001828103825260158152602001807f476f7665726e61626c653a20666f7262696464656e000000000000000000000081525060200191505060405180910390fd5b80601160006101000a81548160ff02191690831515021790555050565b6000600960008373ffffffffffffffffffffffffffffffffffffffff1673ffffffffffffffffffffffffffffffffffffffff168152602001908152602001600020549050919050565b60026000541415611fe8576040517f08c379a000000000000000000000000000000000000000000000000000000000815260040180806020018281038252601f8152602001807f5265656e7472616e637947756172643a207265656e7472616e742063616c6c0081525060200191505060405180910390fd5b6002600081905550611ff8612b67565b61200484848484613c42565b600160008190555050505050565b60038054600181600116156101000203166002900480601f0160208091040260200160405190810160405280929190818152602001828054600181600116156101000203166002900480156120a85780601f1061207d576101008083540402835291602001916120a8565b820191906000526020600020905b81548152906001019060200180831161208b57829003601f168201915b505050505081565b600160009054906101000a900473ffffffffffffffffffffffffffffffffffffffff1673ffffffffffffffffffffffffffffffffffffffff163373ffffffffffffffffffffffffffffffffffffffff1614612173576040517f08c379a00000000000000000000000000000000000000000000000000000000081526004018080602001828103825260158152602001807f476f7665726e61626c653a20666f7262696464656e000000000000000000000081525060200191505060405180910390fd5b80601260008473ffffffffffffffffffffffffffffffffffffffff1673ffffffffffffffffffffffffffffffffffffffff16815260200190815260200160002060006101000a81548160ff0219169083151502179055505050565b60106020528060005260406000206000915090505481565b6000600460009054906101000a900473ffffffffffffffffffffffffffffffffffffffff1673ffffffffffffffffffffffffffffffffffffffff1663a8d936276040518163ffffffff1660e01b815260040160206040518083038186803b15801561225057600080fd5b505afa158015612264573d6000803e3d6000fd5b505050506040513d602081101561227a57600080fd5b8101908080519060200190929190505050905090565b600061229d3384846131e9565b6001905092915050565b6c0c9f2c9cd04674edea4000000081565b60026000541415612331576040517f08c379a000000000000000000000000000000000000000000000000000000000815260040180806020018281038252601f8152602001807f5265656e7472616e637947756172643a207265656e7472616e742063616c6c0081525060200191505060405180910390fd5b6002600081905550601160019054906101000a900460ff161561239f576040517f08c379a0000000000000000000000000000000000000000000000000000000008152600401808060200182810382526021815260200180614a846021913960400191505060405180910390fd5b6123ab33338484613c42565b60016000819055505050565b60056020528060005260406000206000915054906101000a900460ff1681565b600460009054906101000a900473ffffffffffffffffffffffffffffffffffffffff1681565b60026000541415612476576040517f08c379a000000000000000000000000000000000000000000000000000000000815260040180806020018281038252601f8152602001807f5265656e7472616e637947756172643a207265656e7472616e742063616c6c0081525060200191505060405180910390fd5b6002600081905550601160019054906101000a900460ff16156124e4576040517f08c379a0000000000000000000000000000000000000000000000000000000008152600401808060200182810382526021815260200180614a846021913960400191505060405180910390fd5b6124f033838333612c28565b60016000819055505050565b601160019054906101000a900460ff1681565b600160009054906101000a900473ffffffffffffffffffffffffffffffffffffffff1673ffffffffffffffffffffffffffffffffffffffff163373ffffffffffffffffffffffffffffffffffffffff16146125d2576040517f08c379a00000000000000000000000000000000000000000000000000000000081526004018080602001828103825260158152602001807f476f7665726e61626c653a20666f7262696464656e000000000000000000000081525060200191505060405180910390fd5b80600160006101000a81548173ffffffffffffffffffffffffffffffffffffffff021916908373ffffffffffffffffffffffffffffffffffffffff16021790555050565b6000600a60008473ffffffffffffffffffffffffffffffffffffffff1673ffffffffffffffffffffffffffffffffffffffff16815260200190815260200160002060008373ffffffffffffffffffffffffffffffffffffffff1673ffffffffffffffffffffffffffffffffffffffff16815260200190815260200160002054905092915050565b601160009054906101000a900460ff1681565b600160009054906101000a900473ffffffffffffffffffffffffffffffffffffffff1673ffffffffffffffffffffffffffffffffffffffff163373ffffffffffffffffffffffffffffffffffffffff1614612773576040517f08c379a00000000000000000000000000000000000000000000000000000000081526004018080602001828103825260158152602001807f476f7665726e61626c653a20666f7262696464656e000000000000000000000081525060200191505060405180910390fd5b80600560008473ffffffffffffffffffffffffffffffffffffffff1673ffffffffffffffffffffffffffffffffffffffff16815260200190815260200160002060006101000a81548160ff0219169083151502179055505050565b600d6020528060005260406000206000915090505481565b6006602052816000526040600020602052806000526040600020600091509150505481565b600b5481565b601160029054906101000a900460ff1681565b6000600460009054906101000a900473ffffffffffffffffffffffffffffffffffffffff1673ffffffffffffffffffffffffffffffffffffffff1663f7c618c16040518163ffffffff1660e01b815260040160206040518083038186803b15801561288e57600080fd5b505afa1580156128a2573d6000803e3d6000fd5b505050506040513d60208110156128b857600080fd5b8101908080519060200190929190505050905090565b61296b8363a9059cbb60e01b8484604051602401808373ffffffffffffffffffffffffffffffffffffffff16815260200182815260200192505050604051602081830303815290604052907bffffffffffffffffffffffffffffffffffffffffffffffffffffffff19166020820180517bffffffffffffffffffffffffffffffffffffffffffffffffffffffff8381831617835250505050613fd9565b505050565b600073ffffffffffffffffffffffffffffffffffffffff168373ffffffffffffffffffffffffffffffffffffffff1614156129f6576040517f08c379a000000000000000000000000000000000000000000000000000000000815260040180806020018281038252602c81526020018061489f602c913960400191505060405180910390fd5b600073ffffffffffffffffffffffffffffffffffffffff168273ffffffffffffffffffffffffffffffffffffffff161415612a7c576040517f08c379a000000000000000000000000000000000000000000000000000000000815260040180806020018281038252602a815260200180614969602a913960400191505060405180910390fd5b80600a60008573ffffffffffffffffffffffffffffffffffffffff1673ffffffffffffffffffffffffffffffffffffffff16815260200190815260200160002060008473ffffffffffffffffffffffffffffffffffffffff1673ffffffffffffffffffffffffffffffffffffffff168152602001908152602001600020819055508173ffffffffffffffffffffffffffffffffffffffff168373ffffffffffffffffffffffffffffffffffffffff167f8c5be1e5ebec7d5bd14f71427d1e84f3dd0314c0f7b2291e5b200ac8c7c3b925836040518082815260200191505060405180910390a3505050565b601260003373ffffffffffffffffffffffffffffffffffffffff1673ffffffffffffffffffffffffffffffffffffffff16815260200190815260200160002060009054906101000a900460ff16612c26576040517f08c379a00000000000000000000000000000000000000000000000000000000081526004018080602001828103825260188152602001807f526577617264547261636b65723a20666f7262696464656e000000000000000081525060200191505060405180910390fd5b565b60008211612c9e576040517f08c379a000000000000000000000000000000000000000000000000000000000815260040180806020018281038252601e8152602001807f526577617264547261636b65723a20696e76616c6964205f616d6f756e74000081525060200191505060405180910390fd5b600560008473ffffffffffffffffffffffffffffffffffffffff1673ffffffffffffffffffffffffffffffffffffffff16815260200190815260200160002060009054906101000a900460ff16612d40576040517f08c379a00000000000000000000000000000000000000000000000000000000081526004018080602001828103825260248152602001806149456024913960400191505060405180910390fd5b612d4984613581565b6000600c60008673ffffffffffffffffffffffffffffffffffffffff1673ffffffffffffffffffffffffffffffffffffffff16815260200190815260200160002054905082600c60008773ffffffffffffffffffffffffffffffffffffffff1673ffffffffffffffffffffffffffffffffffffffff168152602001908152602001600020541015612e25576040517f08c379a000000000000000000000000000000000000000000000000000000000815260040180806020018281038252602b815260200180614874602b913960400191505060405180910390fd5b612e388382613bf890919063ffffffff16565b600c60008773ffffffffffffffffffffffffffffffffffffffff1673ffffffffffffffffffffffffffffffffffffffff168152602001908152602001600020819055506000600660008773ffffffffffffffffffffffffffffffffffffffff1673ffffffffffffffffffffffffffffffffffffffff16815260200190815260200160002060008673ffffffffffffffffffffffffffffffffffffffff1673ffffffffffffffffffffffffffffffffffffffff16815260200190815260200160002054905083811015612f55576040517f08c379a000000000000000000000000000000000000000000000000000000000815260040180806020018281038252602d815260200180614aa5602d913960400191505060405180910390fd5b612f688482613bf890919063ffffffff16565b600660008873ffffffffffffffffffffffffffffffffffffffff1673ffffffffffffffffffffffffffffffffffffffff16815260200190815260200160002060008773ffffffffffffffffffffffffffffffffffffffff1673ffffffffffffffffffffffffffffffffffffffff1681526020019081526020016000208190555061303a84600760008873ffffffffffffffffffffffffffffffffffffffff1673ffffffffffffffffffffffffffffffffffffffff16815260200190815260200160002054613bf890919063ffffffff16565b600760008773ffffffffffffffffffffffffffffffffffffffff1673ffffffffffffffffffffffffffffffffffffffff1681526020019081526020016000208190555061308786856140c8565b6130b283858773ffffffffffffffffffffffffffffffffffffffff166128ce9092919063ffffffff16565b505050505050565b60006130c583613581565b6000600d60008573ffffffffffffffffffffffffffffffffffffffff1673ffffffffffffffffffffffffffffffffffffffff1681526020019081526020016000205490506000600d60008673ffffffffffffffffffffffffffffffffffffffff1673ffffffffffffffffffffffffffffffffffffffff1681526020019081526020016000208190555060008111156131df576131898382613164612824565b73ffffffffffffffffffffffffffffffffffffffff166128ce9092919063ffffffff16565b7f47cee97cb7acd717b3c0aa1435d004cd5b3c8c57d70dbceb4e4458bbd60e39d48482604051808373ffffffffffffffffffffffffffffffffffffffff1681526020018281526020019250505060405180910390a15b8091505092915050565b600073ffffffffffffffffffffffffffffffffffffffff168373ffffffffffffffffffffffffffffffffffffffff16141561326f576040517f08c379a000000000000000000000000000000000000000000000000000000000815260040180806020018281038252602d8152602001806149d6602d913960400191505060405180910390fd5b600073ffffffffffffffffffffffffffffffffffffffff168273ffffffffffffffffffffffffffffffffffffffff1614156132f5576040517f08c379a000000000000000000000000000000000000000000000000000000000815260040180806020018281038252602b8152602001806148f4602b913960400191505060405180910390fd5b601160009054906101000a900460ff161561331357613312612b67565b5b61337f816040518060600160405280602e8152602001614ad2602e9139600960008773ffffffffffffffffffffffffffffffffffffffff1673ffffffffffffffffffffffffffffffffffffffff168152602001908152602001600020546134c19092919063ffffffff16565b600960008573ffffffffffffffffffffffffffffffffffffffff1673ffffffffffffffffffffffffffffffffffffffff1681526020019081526020016000208190555061341481600960008573ffffffffffffffffffffffffffffffffffffffff1673ffffffffffffffffffffffffffffffffffffffff16815260200190815260200160002054613b7090919063ffffffff16565b600960008473ffffffffffffffffffffffffffffffffffffffff1673ffffffffffffffffffffffffffffffffffffffff168152602001908152602001600020819055508173ffffffffffffffffffffffffffffffffffffffff168373ffffffffffffffffffffffffffffffffffffffff167fddf252ad1be2c89b69c2b068fc378daa952ba7f163c4a11628f55a4df523b3ef836040518082815260200191505060405180910390a3505050565b600083831115829061356e576040517f08c379a00000000000000000000000000000000000000000000000000000000081526004018080602001828103825283818151815260200191508051906020019080838360005b83811015613533578082015181840152602081019050613518565b50505050905090810190601f1680156135605780820380516001836020036101000a031916815260200191505b509250505060405180910390fd5b5060008385039050809150509392505050565b6000600460009054906101000a900473ffffffffffffffffffffffffffffffffffffffff1673ffffffffffffffffffffffffffffffffffffffff1663e4fc6b6d6040518163ffffffff1660e01b8152600401602060405180830381600087803b1580156135ed57600080fd5b505af1158015613601573d6000803e3d6000fd5b505050506040513d602081101561361757600080fd5b81019080805190602001909291905050509050600060085490506000600b5490506000821180156136485750600083115b1561369b57613691613682836136746c0c9f2c9cd04674edea4000000087613aa090919063ffffffff16565b613b2690919063ffffffff16565b82613b7090919063ffffffff16565b905080600b819055505b60008114156136ac57505050613a9d565b600073ffffffffffffffffffffffffffffffffffffffff168473ffffffffffffffffffffffffffffffffffffffff1614613a99576000600c60008673ffffffffffffffffffffffffffffffffffffffff1673ffffffffffffffffffffffffffffffffffffffff16815260200190815260200160002054905060006137a96c0c9f2c9cd04674edea4000000061379b61378c600e60008b73ffffffffffffffffffffffffffffffffffffffff1673ffffffffffffffffffffffffffffffffffffffff1681526020019081526020016000205487613bf890919063ffffffff16565b85613aa090919063ffffffff16565b613b2690919063ffffffff16565b905060006137ff82600d60008a73ffffffffffffffffffffffffffffffffffffffff1673ffffffffffffffffffffffffffffffffffffffff16815260200190815260200160002054613b7090919063ffffffff16565b905080600d60008973ffffffffffffffffffffffffffffffffffffffff1673ffffffffffffffffffffffffffffffffffffffff1681526020019081526020016000208190555083600e60008973ffffffffffffffffffffffffffffffffffffffff1673ffffffffffffffffffffffffffffffffffffffff168152602001908152602001600020819055506000811180156138d857506000600c60008973ffffffffffffffffffffffffffffffffffffffff1673ffffffffffffffffffffffffffffffffffffffff16815260200190815260200160002054115b15613a9557600061393183600f60008b73ffffffffffffffffffffffffffffffffffffffff1673ffffffffffffffffffffffffffffffffffffffff16815260200190815260200160002054613b7090919063ffffffff16565b9050613a0c61395b8261394d8688613aa090919063ffffffff16565b613b2690919063ffffffff16565b6139fe836139f0600f60008e73ffffffffffffffffffffffffffffffffffffffff1673ffffffffffffffffffffffffffffffffffffffff16815260200190815260200160002054601060008f73ffffffffffffffffffffffffffffffffffffffff1673ffffffffffffffffffffffffffffffffffffffff16815260200190815260200160002054613aa090919063ffffffff16565b613b2690919063ffffffff16565b613b7090919063ffffffff16565b601060008a73ffffffffffffffffffffffffffffffffffffffff1673ffffffffffffffffffffffffffffffffffffffff1681526020019081526020016000208190555080600f60008a73ffffffffffffffffffffffffffffffffffffffff1673ffffffffffffffffffffffffffffffffffffffff16815260200190815260200160002081905550505b5050505b5050505b50565b600080831415613ab35760009050613b20565b6000828402905082848281613ac457fe5b0414613b1b576040517f08c379a00000000000000000000000000000000000000000000000000000000081526004018080602001828103825260218152602001806149936021913960400191505060405180910390fd5b809150505b92915050565b6000613b6883836040518060400160405280601a81526020017f536166654d6174683a206469766973696f6e206279207a65726f000000000000815250614282565b905092915050565b600080828401905083811015613bee576040517f08c379a000000000000000000000000000000000000000000000000000000000815260040180806020018281038252601b8152602001807f536166654d6174683a206164646974696f6e206f766572666c6f77000000000081525060200191505060405180910390fd5b8091505092915050565b6000613c3a83836040518060400160405280601e81526020017f536166654d6174683a207375627472616374696f6e206f766572666c6f7700008152506134c1565b905092915050565b60008111613cb8576040517f08c379a000000000000000000000000000000000000000000000000000000000815260040180806020018281038252601e8152602001807f526577617264547261636b65723a20696e76616c6964205f616d6f756e74000081525060200191505060405180910390fd5b600560008373ffffffffffffffffffffffffffffffffffffffff1673ffffffffffffffffffffffffffffffffffffffff16815260200190815260200160002060009054906101000a900460ff16613d5a576040517f08c379a00000000000000000000000000000000000000000000000000000000081526004018080602001828103825260248152602001806149456024913960400191505060405180910390fd5b613d878430838573ffffffffffffffffffffffffffffffffffffffff16614348909392919063ffffffff16565b613d9083613581565b613de281600c60008673ffffffffffffffffffffffffffffffffffffffff1673ffffffffffffffffffffffffffffffffffffffff16815260200190815260200160002054613b7090919063ffffffff16565b600c60008573ffffffffffffffffffffffffffffffffffffffff1673ffffffffffffffffffffffffffffffffffffffff16815260200190815260200160002081905550613eb481600660008673ffffffffffffffffffffffffffffffffffffffff1673ffffffffffffffffffffffffffffffffffffffff16815260200190815260200160002060008573ffffffffffffffffffffffffffffffffffffffff1673ffffffffffffffffffffffffffffffffffffffff16815260200190815260200160002054613b7090919063ffffffff16565b600660008573ffffffffffffffffffffffffffffffffffffffff1673ffffffffffffffffffffffffffffffffffffffff16815260200190815260200160002060008473ffffffffffffffffffffffffffffffffffffffff1673ffffffffffffffffffffffffffffffffffffffff16815260200190815260200160002081905550613f8681600760008573ffffffffffffffffffffffffffffffffffffffff1673ffffffffffffffffffffffffffffffffffffffff16815260200190815260200160002054613b7090919063ffffffff16565b600760008473ffffffffffffffffffffffffffffffffffffffff1673ffffffffffffffffffffffffffffffffffffffff16815260200190815260200160002081905550613fd38382614409565b50505050565b606061403b826040518060400160405280602081526020017f5361666545524332303a206c6f772d6c6576656c2063616c6c206661696c65648152508573ffffffffffffffffffffffffffffffffffffffff166145a99092919063ffffffff16565b90506000815111156140c35780806020019051602081101561405c57600080fd5b81019080805190602001909291905050506140c2576040517f08c379a000000000000000000000000000000000000000000000000000000000815260040180806020018281038252602a815260200180614a5a602a913960400191505060405180910390fd5b5b505050565b600073ffffffffffffffffffffffffffffffffffffffff168273ffffffffffffffffffffffffffffffffffffffff16141561414e576040517f08c379a00000000000000000000000000000000000000000000000000000000081526004018080602001828103825260298152602001806148cb6029913960400191505060405180910390fd5b6141ba816040518060600160405280602a815260200161484a602a9139600960008673ffffffffffffffffffffffffffffffffffffffff1673ffffffffffffffffffffffffffffffffffffffff168152602001908152602001600020546134c19092919063ffffffff16565b600960008473ffffffffffffffffffffffffffffffffffffffff1673ffffffffffffffffffffffffffffffffffffffff1681526020019081526020016000208190555061421281600854613bf890919063ffffffff16565b600881905550600073ffffffffffffffffffffffffffffffffffffffff168273ffffffffffffffffffffffffffffffffffffffff167fddf252ad1be2c89b69c2b068fc378daa952ba7f163c4a11628f55a4df523b3ef836040518082815260200191505060405180910390a35050565b6000808311829061432e576040517f08c379a00000000000000000000000000000000000000000000000000000000081526004018080602001828103825283818151815260200191508051906020019080838360005b838110156142f35780820151818401526020810190506142d8565b50505050905090810190601f1680156143205780820380516001836020036101000a031916815260200191505b509250505060405180910390fd5b50600083858161433a57fe5b049050809150509392505050565b614403846323b872dd60e01b858585604051602401808473ffffffffffffffffffffffffffffffffffffffff1681526020018373ffffffffffffffffffffffffffffffffffffffff1681526020018281526020019350505050604051602081830303815290604052907bffffffffffffffffffffffffffffffffffffffffffffffffffffffff19166020820180517bffffffffffffffffffffffffffffffffffffffffffffffffffffffff8381831617835250505050613fd9565b50505050565b600073ffffffffffffffffffffffffffffffffffffffff168273ffffffffffffffffffffffffffffffffffffffff16141561448f576040517f08c379a0000000000000000000000000000000000000000000000000000000008152600401808060200182810382526027815260200180614a036027913960400191505060405180910390fd5b6144a481600854613b7090919063ffffffff16565b6008819055506144fc81600960008573ffffffffffffffffffffffffffffffffffffffff1673ffffffffffffffffffffffffffffffffffffffff16815260200190815260200160002054613b7090919063ffffffff16565b600960008473ffffffffffffffffffffffffffffffffffffffff1673ffffffffffffffffffffffffffffffffffffffff168152602001908152602001600020819055508173ffffffffffffffffffffffffffffffffffffffff16600073ffffffffffffffffffffffffffffffffffffffff167fddf252ad1be2c89b69c2b068fc378daa952ba7f163c4a11628f55a4df523b3ef836040518082815260200191505060405180910390a35050565b60606145b884846000856145c1565b90509392505050565b60608247101561461c576040517f08c379a000000000000000000000000000000000000000000000000000000000815260040180806020018281038252602681526020018061491f6026913960400191505060405180910390fd5b6146258561476a565b614697576040517f08c379a000000000000000000000000000000000000000000000000000000000815260040180806020018281038252601d8152602001807f416464726573733a2063616c6c20746f206e6f6e2d636f6e747261637400000081525060200191505060405180910390fd5b600060608673ffffffffffffffffffffffffffffffffffffffff1685876040518082805190602001908083835b602083106146e757805182526020820191506020810190506020830392506146c4565b6001836020036101000a03801982511681845116808217855250505050505090500191505060006040518083038185875af1925050503d8060008114614749576040519150601f19603f3d011682016040523d82523d6000602084013e61474e565b606091505b509150915061475e82828661477d565b92505050949350505050565b600080823b905060008111915050919050565b6060831561478d57829050614842565b6000835111156147a05782518084602001fd5b816040517f08c379a00000000000000000000000000000000000000000000000000000000081526004018080602001828103825283818151815260200191508051906020019080838360005b838110156148075780820151818401526020810190506147ec565b50505050905090810190601f1680156148345780820380516001836020036101000a031916815260200191505b509250505060405180910390fd5b939250505056fe526577617264547261636b65723a206275726e20616d6f756e7420657863656564732062616c616e6365526577617264547261636b65723a205f616d6f756e742065786365656473207374616b6564416d6f756e74526577617264547261636b65723a20617070726f76652066726f6d20746865207a65726f2061646472657373526577617264547261636b65723a206275726e2066726f6d20746865207a65726f2061646472657373526577617264547261636b65723a207472616e7366657220746f20746865207a65726f2061646472657373416464726573733a20696e73756666696369656e742062616c616e636520666f722063616c6c526577617264547261636b65723a20696e76616c6964205f6465706f736974546f6b656e526577617264547261636b65723a20617070726f766520746f20746865207a65726f2061646472657373536166654d6174683a206d756c7469706c69636174696f6e206f766572666c6f77526577617264547261636b65723a20616c726561647920696e697469616c697a6564526577617264547261636b65723a207472616e736665722066726f6d20746865207a65726f2061646472657373526577617264547261636b65723a206d696e7420746f20746865207a65726f2061646472657373526577617264547261636b65723a207472616e7366657220616d6f756e74206578636565647320616c6c6f77616e63655361666545524332303a204552433230206f7065726174696f6e20646964206e6f742073756363656564526577617264547261636b65723a20616374696f6e206e6f7420656e61626c6564526577617264547261636b65723a205f616d6f756e742065786365656473206465706f73697442616c616e6365526577617264547261636b65723a207472616e7366657220616d6f756e7420657863656564732062616c616e6365a26469706673582212206e3dc2611de363253b7c58398a29ec4c42153ede5382b4c3264eff2507bb253264736f6c634300060c0033",
  "linkReferences": {},
  "deployedLinkReferences": {}
}