{
  "_format": "hh-sol-artifact-1",
  "contractName": "ReferralReader",
  "sourceName": "contracts/gmx/referrals/ReferralReader.sol",
  "abi": [
    {
      "inputs": [
        {
          "internalType": "contract IReferralStorage",
          "name": "_referralStorage",
          "type": "address"
        },
        {
          "internalType": "bytes32[]",
          "name": "_codes",
          "type": "bytes32[]"
        }
      ],
      "name": "getCodeOwners",
      "outputs": [
        {
          "internalType": "address[]",
          "name": "",
          "type": "address[]"
        }
      ],
      "stateMutability": "view",
      "type": "function"
    }
  ],
  "bytecode": "0x608060405234801561001057600080fd5b506102ef806100206000396000f3fe608060405234801561001057600080fd5b506004361061002b5760003560e01c80630f6803c014610030575b600080fd5b6101066004803603604081101561004657600080fd5b81019080803573ffffffffffffffffffffffffffffffffffffffff1690602001909291908035906020019064010000000081111561008357600080fd5b82018360208201111561009557600080fd5b803590602001918460208302840111640100000000831117156100b757600080fd5b919080806020026020016040519081016040528093929190818152602001838360200280828437600081840152601f19601f82011690508083019250505050505050919291929050505061015d565b6040518080602001828103825283818151815260200191508051906020019060200280838360005b8381101561014957808201518184015260208101905061012e565b505050509050019250505060405180910390f35b606080825167ffffffffffffffff8111801561017857600080fd5b506040519080825280602002602001820160405280156101a75781602001602082028036833780820191505090505b50905060005b83518110156102ae5760008482815181106101c457fe5b602002602001015190508573ffffffffffffffffffffffffffffffffffffffff1663c8b3c460826040518263ffffffff1660e01b81526004018082815260200191505060206040518083038186803b15801561021f57600080fd5b505afa158015610233573d6000803e3d6000fd5b505050506040513d602081101561024957600080fd5b810190808051906020019092919050505083838151811061026657fe5b602002602001019073ffffffffffffffffffffffffffffffffffffffff16908173ffffffffffffffffffffffffffffffffffffffff16815250505080806001019150506101ad565b50809150509291505056fea2646970667358221220390b6e3566802fb7b092c312ae8bac3da50dc65e3f42e7a0c42e644cf7caddc964736f6c634300060c0033",
  "linkReferences": {},
  "deployedLinkReferences": {}
}