{
  "_format": "hh-sol-artifact-1",
  "contractName": "LendingContract",
  "sourceName": "contracts/LendingContract.sol",
  "abi": [
    {
      "inputs": [
        {
          "internalType": "address",
          "name": "_usdcAddress",
          "type": "address"
        }
      ],
      "stateMutability": "nonpayable",
      "type": "constructor"
    },
    {
      "inputs": [],
      "name": "BORROW_RATE_PRECISION",
      "outputs": [
        {
          "internalType": "uint256",
          "name": "",
          "type": "uint256"
        }
      ],
      "stateMutability": "view",
      "type": "function"
    },
    {
      "inputs": [],
      "name": "LTV",
      "outputs": [
        {
          "internalType": "uint256",
          "name": "",
          "type": "uint256"
        }
      ],
      "stateMutability": "view",
      "type": "function"
    },
    {
      "inputs": [],
      "name": "PRICE_PRECISION",
      "outputs": [
        {
          "internalType": "uint256",
          "name": "",
          "type": "uint256"
        }
      ],
      "stateMutability": "view",
      "type": "function"
    },
    {
      "inputs": [],
      "name": "USDC_DECIMALS_DIVISOR",
      "outputs": [
        {
          "internalType": "uint256",
          "name": "",
          "type": "uint256"
        }
      ],
      "stateMutability": "view",
      "type": "function"
    },
    {
      "inputs": [
        {
          "internalType": "address",
          "name": "",
          "type": "address"
        }
      ],
      "name": "amountLoanedByUser",
      "outputs": [
        {
          "internalType": "uint256",
          "name": "",
          "type": "uint256"
        }
      ],
      "stateMutability": "view",
      "type": "function"
    },
    {
      "inputs": [],
      "name": "borrowInterval",
      "outputs": [
        {
          "internalType": "uint256",
          "name": "",
          "type": "uint256"
        }
      ],
      "stateMutability": "view",
      "type": "function"
    },
    {
      "inputs": [],
      "name": "borrowRateFactor",
      "outputs": [
        {
          "internalType": "uint256",
          "name": "",
          "type": "uint256"
        }
      ],
      "stateMutability": "view",
      "type": "function"
    },
    {
      "inputs": [],
      "name": "cumulativeBorrowRate",
      "outputs": [
        {
          "internalType": "uint256",
          "name": "",
          "type": "uint256"
        }
      ],
      "stateMutability": "view",
      "type": "function"
    },
    {
      "inputs": [
        {
          "internalType": "address",
          "name": "",
          "type": "address"
        }
      ],
      "name": "entryBorrowRate",
      "outputs": [
        {
          "internalType": "uint256",
          "name": "",
          "type": "uint256"
        }
      ],
      "stateMutability": "view",
      "type": "function"
    },
    {
      "inputs": [
        {
          "internalType": "address",
          "name": "_account",
          "type": "address"
        }
      ],
      "name": "existingLoanOnPortfolio",
      "outputs": [
        {
          "internalType": "uint256",
          "name": "",
          "type": "uint256"
        }
      ],
      "stateMutability": "view",
      "type": "function"
    },
    {
      "inputs": [],
      "name": "factoryContractAddress",
      "outputs": [
        {
          "internalType": "address",
          "name": "",
          "type": "address"
        }
      ],
      "stateMutability": "view",
      "type": "function"
    },
    {
      "inputs": [],
      "name": "getNextBorrowRate",
      "outputs": [
        {
          "internalType": "uint256",
          "name": "",
          "type": "uint256"
        }
      ],
      "stateMutability": "view",
      "type": "function"
    },
    {
      "inputs": [],
      "name": "getReserve",
      "outputs": [
        {
          "internalType": "uint256",
          "name": "",
          "type": "uint256"
        }
      ],
      "stateMutability": "view",
      "type": "function"
    },
    {
      "inputs": [],
      "name": "gov",
      "outputs": [
        {
          "internalType": "address",
          "name": "",
          "type": "address"
        }
      ],
      "stateMutability": "view",
      "type": "function"
    },
    {
      "inputs": [
        {
          "internalType": "address",
          "name": "_account",
          "type": "address"
        }
      ],
      "name": "interestToCollect",
      "outputs": [
        {
          "internalType": "uint256",
          "name": "",
          "type": "uint256"
        }
      ],
      "stateMutability": "view",
      "type": "function"
    },
    {
      "inputs": [],
      "name": "klpManagerAddress",
      "outputs": [
        {
          "internalType": "address",
          "name": "",
          "type": "address"
        }
      ],
      "stateMutability": "view",
      "type": "function"
    },
    {
      "inputs": [],
      "name": "lastBorrowTimes",
      "outputs": [
        {
          "internalType": "uint256",
          "name": "",
          "type": "uint256"
        }
      ],
      "stateMutability": "view",
      "type": "function"
    },
    {
      "inputs": [
        {
          "internalType": "uint256",
          "name": "_repayLoanAmount",
          "type": "uint256"
        }
      ],
      "name": "paybackLoan",
      "outputs": [],
      "stateMutability": "nonpayable",
      "type": "function"
    },
    {
      "inputs": [
        {
          "internalType": "address",
          "name": "_account",
          "type": "address"
        },
        {
          "internalType": "uint256",
          "name": "_amount",
          "type": "uint256"
        }
      ],
      "name": "sendUsdcToLp",
      "outputs": [],
      "stateMutability": "nonpayable",
      "type": "function"
    },
    {
      "inputs": [
        {
          "internalType": "address",
          "name": "newAddress",
          "type": "address"
        }
      ],
      "name": "setFactoryaContractAddress",
      "outputs": [],
      "stateMutability": "nonpayable",
      "type": "function"
    },
    {
      "inputs": [
        {
          "internalType": "address",
          "name": "newAddress",
          "type": "address"
        }
      ],
      "name": "setKlpManagerAddress",
      "outputs": [],
      "stateMutability": "nonpayable",
      "type": "function"
    },
    {
      "inputs": [
        {
          "internalType": "uint256",
          "name": "_loanAmount",
          "type": "uint256"
        }
      ],
      "name": "takeLoanOnPosition",
      "outputs": [],
      "stateMutability": "nonpayable",
      "type": "function"
    },
    {
      "inputs": [],
      "name": "totalLiquidityProvided",
      "outputs": [
        {
          "internalType": "uint256",
          "name": "",
          "type": "uint256"
        }
      ],
      "stateMutability": "view",
      "type": "function"
    },
    {
      "inputs": [],
      "name": "totalLoanedAmount",
      "outputs": [
        {
          "internalType": "uint256",
          "name": "",
          "type": "uint256"
        }
      ],
      "stateMutability": "view",
      "type": "function"
    },
    {
      "inputs": [],
      "name": "updateCumulativeBorrowRate",
      "outputs": [],
      "stateMutability": "nonpayable",
      "type": "function"
    },
    {
      "inputs": [],
      "name": "usdcAddress",
      "outputs": [
        {
          "internalType": "address",
          "name": "",
          "type": "address"
        }
      ],
      "stateMutability": "view",
      "type": "function"
    }
  ],
  "bytecode": "0x60806040526000600655610e1060075560646008553480156200002157600080fd5b5060405162001fa438038062001fa4833981810160405281019062000047919062000139565b336000806101000a81548173ffffffffffffffffffffffffffffffffffffffff021916908373ffffffffffffffffffffffffffffffffffffffff16021790555080600360006101000a81548173ffffffffffffffffffffffffffffffffffffffff021916908373ffffffffffffffffffffffffffffffffffffffff160217905550506200016b565b600080fd5b600073ffffffffffffffffffffffffffffffffffffffff82169050919050565b60006200010182620000d4565b9050919050565b6200011381620000f4565b81146200011f57600080fd5b50565b600081519050620001338162000108565b92915050565b600060208284031215620001525762000151620000cf565b5b6000620001628482850162000122565b91505092915050565b611e29806200017b6000396000f3fe608060405234801561001057600080fd5b506004361061018e5760003560e01c80637b3820ce116100de578063b62b751d11610097578063d16ef22a11610071578063d16ef22a1461042f578063db1e4ff81461044b578063dfed13481461047b578063e10eb58c146104995761018e565b8063b62b751d146103d9578063ca0cd00a146103e3578063d04f246b146103ff5761018e565b80637b3820ce146103295780637c2bfdfb14610347578063819bd33c1461036357806395082d25146103815780639d0d42c71461039f578063ad993f97146103bd5761018e565b806359bf5d391161014b578063645bc7ee11610125578063645bc7ee1461029f578063732e0a1d146102bd57806377f01edd146102db578063794ef3e4146102f95761018e565b806359bf5d39146102455780635e04b9f81461026357806362965d8e146102815761018e565b806302d45457146101935780630fef75c3146101b157806312d43a51146101cd5780631a02d430146101eb578063261c1c521461020957806336bda88314610227575b600080fd5b61019b6104c9565b6040516101a891906115ed565b60405180910390f35b6101cb60048036038101906101c69190611639565b6104ef565b005b6101d561053b565b6040516101e291906115ed565b60405180910390f35b6101f361055f565b604051610200919061167f565b60405180910390f35b610211610565565b60405161021e919061167f565b60405180910390f35b61022f61056b565b60405161023c919061167f565b60405180910390f35b61024d610579565b60405161025a919061167f565b60405180910390f35b61026b610638565b604051610278919061167f565b60405180910390f35b6102896106f0565b604051610296919061167f565b60405180910390f35b6102a76106f5565b6040516102b4919061167f565b60405180910390f35b6102c56106fb565b6040516102d291906115ed565b60405180910390f35b6102e3610721565b6040516102f0919061167f565b60405180910390f35b610313600480360381019061030e9190611639565b610728565b604051610320919061167f565b60405180910390f35b610331610740565b60405161033e919061167f565b60405180910390f35b610361600480360381019061035c91906116c6565b610746565b005b61036b61087b565b604051610378919061167f565b60405180910390f35b610389610881565b604051610396919061167f565b60405180910390f35b6103a7610892565b6040516103b491906115ed565b60405180910390f35b6103d760048036038101906103d29190611639565b6108b8565b005b6103e1610904565b005b6103fd60048036038101906103f89190611706565b61098a565b005b61041960048036038101906104149190611639565b610de4565b604051610426919061167f565b60405180910390f35b61044960048036038101906104449190611706565b610e2d565b005b61046560048036038101906104609190611639565b611060565b604051610472919061167f565b60405180910390f35b6104836111f9565b604051610490919061167f565b60405180910390f35b6104b360048036038101906104ae9190611639565b6112d1565b6040516104c0919061167f565b60405180910390f35b600360009054906101000a900473ffffffffffffffffffffffffffffffffffffffff1681565b6104f76112e9565b80600160006101000a81548173ffffffffffffffffffffffffffffffffffffffff021916908373ffffffffffffffffffffffffffffffffffffffff16021790555050565b60008054906101000a900473ffffffffffffffffffffffffffffffffffffffff1681565b60085481565b60075481565b69d3c21bcecceda100000081565b600061063369d3c21bcecceda1000000600360009054906101000a900473ffffffffffffffffffffffffffffffffffffffff1673ffffffffffffffffffffffffffffffffffffffff166370a08231306040518263ffffffff1660e01b81526004016105e491906115ed565b602060405180830381865afa158015610601573d6000803e3d6000fd5b505050506040513d601f19601f820116820180604052508101906106259190611748565b61137990919063ffffffff16565b905090565b600042610652600754600a546113f390919063ffffffff16565b111561066157600090506106ed565b600061068c60075461067e600a544261145190919063ffffffff16565b61149b90919063ffffffff16565b905060006106986111f9565b9050600081036106ad576000925050506106ed565b6106e8816106da846106cc60065460085461137990919063ffffffff16565b61137990919063ffffffff16565b61149b90919063ffffffff16565b925050505b90565b603c81565b600a5481565b600160009054906101000a900473ffffffffffffffffffffffffffffffffffffffff1681565b620f424081565b60056020528060005260406000206000915090505481565b60095481565b600260009054906101000a900473ffffffffffffffffffffffffffffffffffffffff1673ffffffffffffffffffffffffffffffffffffffff163373ffffffffffffffffffffffffffffffffffffffff16146107d6576040517f08c379a00000000000000000000000000000000000000000000000000000000081526004016107cd906117f8565b60405180910390fd5b600360009054906101000a900473ffffffffffffffffffffffffffffffffffffffff1673ffffffffffffffffffffffffffffffffffffffff1663a9059cbb83836040518363ffffffff1660e01b8152600401610833929190611818565b6020604051808303816000875af1158015610852573d6000803e3d6000fd5b505050506040513d601f19601f820116820180604052508101906108769190611879565b505050565b60065481565b6c0c9f2c9cd04674edea4000000081565b600260009054906101000a900473ffffffffffffffffffffffffffffffffffffffff1681565b6108c06112e9565b80600260006101000a81548173ffffffffffffffffffffffffffffffffffffffff021916908373ffffffffffffffffffffffffffffffffffffffff16021790555050565b6000600a5403610942576109376007546109296007544261149b90919063ffffffff16565b61137990919063ffffffff16565b600a81905550610988565b4261095a600754600a546113f390919063ffffffff16565b11610988576000610969610638565b9050610980816009546113f390919063ffffffff16565b600981905550505b565b6000600160009054906101000a900473ffffffffffffffffffffffffffffffffffffffff16905060008173ffffffffffffffffffffffffffffffffffffffff16633704d21b336040518263ffffffff1660e01b81526004016109ec91906115ed565b602060405180830381865afa158015610a09573d6000803e3d6000fd5b505050506040513d601f19601f82011682018060405250810190610a2d91906118bb565b9050600081905060008173ffffffffffffffffffffffffffffffffffffffff1663bb0498de6040518163ffffffff1660e01b8152600401602060405180830381865afa158015610a81573d6000803e3d6000fd5b505050506040513d601f19601f82011682018060405250810190610aa59190611748565b9050610ace6064610ac0603c8461137990919063ffffffff16565b61149b90919063ffffffff16565b600560003373ffffffffffffffffffffffffffffffffffffffff1673ffffffffffffffffffffffffffffffffffffffff1681526020019081526020016000205410610b4e576040517f08c379a0000000000000000000000000000000000000000000000000000000008152600401610b459061195a565b60405180910390fd5b610b756064610b67603c8461137990919063ffffffff16565b61149b90919063ffffffff16565b610bc786600560003373ffffffffffffffffffffffffffffffffffffffff1673ffffffffffffffffffffffffffffffffffffffff168152602001908152602001600020546113f390919063ffffffff16565b10610c07576040517f08c379a0000000000000000000000000000000000000000000000000000000008152600401610bfe906119c6565b60405180910390fd5b6000610c1233611060565b9050610c6686600560003373ffffffffffffffffffffffffffffffffffffffff1673ffffffffffffffffffffffffffffffffffffffff168152602001908152602001600020546113f390919063ffffffff16565b600560003373ffffffffffffffffffffffffffffffffffffffff1673ffffffffffffffffffffffffffffffffffffffff16815260200190815260200160002081905550610cbe866006546113f390919063ffffffff16565b600681905550610cd7818761145190919063ffffffff16565b9550600954600460003373ffffffffffffffffffffffffffffffffffffffff1673ffffffffffffffffffffffffffffffffffffffff16815260200190815260200160002081905550600360009054906101000a900473ffffffffffffffffffffffffffffffffffffffff1673ffffffffffffffffffffffffffffffffffffffff1663a9059cbb33610d7b69d3c21bcecceda10000008a61149b90919063ffffffff16565b6040518363ffffffff1660e01b8152600401610d98929190611818565b6020604051808303816000875af1158015610db7573d6000803e3d6000fd5b505050506040513d601f19601f82011682018060405250810190610ddb9190611879565b50505050505050565b6000600560008373ffffffffffffffffffffffffffffffffffffffff1673ffffffffffffffffffffffffffffffffffffffff168152602001908152602001600020549050919050565b6000610e3833611060565b90506000610e8e82600560003373ffffffffffffffffffffffffffffffffffffffff1673ffffffffffffffffffffffffffffffffffffffff168152602001908152602001600020546113f390919063ffffffff16565b905082811015610ed3576040517f08c379a0000000000000000000000000000000000000000000000000000000008152600401610eca90611a58565b60405180910390fd5b610ee6838261145190919063ffffffff16565b600560003373ffffffffffffffffffffffffffffffffffffffff1673ffffffffffffffffffffffffffffffffffffffff16815260200190815260200160002081905550610f50610f3f838561145190919063ffffffff16565b60065461145190919063ffffffff16565b600681905550600954600460003373ffffffffffffffffffffffffffffffffffffffff1673ffffffffffffffffffffffffffffffffffffffff16815260200190815260200160002081905550600360009054906101000a900473ffffffffffffffffffffffffffffffffffffffff1673ffffffffffffffffffffffffffffffffffffffff166323b872dd3330610ff969d3c21bcecceda10000008861149b90919063ffffffff16565b6040518463ffffffff1660e01b815260040161101793929190611a78565b6020604051808303816000875af1158015611036573d6000803e3d6000fd5b505050506040513d601f19601f8201168201806040525081019061105a9190611879565b50505050565b600080600560008473ffffffffffffffffffffffffffffffffffffffff1673ffffffffffffffffffffffffffffffffffffffff16815260200190815260200160002054036110b157600090506111f4565b600061111c620f424061110e600854600560008873ffffffffffffffffffffffffffffffffffffffff1673ffffffffffffffffffffffffffffffffffffffff1681526020019081526020016000205461137990919063ffffffff16565b61149b90919063ffffffff16565b905060006111da620f42406111cc61117e600460008973ffffffffffffffffffffffffffffffffffffffff1673ffffffffffffffffffffffffffffffffffffffff1681526020019081526020016000205460095461145190919063ffffffff16565b600560008973ffffffffffffffffffffffffffffffffffffffff1673ffffffffffffffffffffffffffffffffffffffff1681526020019081526020016000205461137990919063ffffffff16565b61149b90919063ffffffff16565b90506111ef82826113f390919063ffffffff16565b925050505b919050565b600080600360009054906101000a900473ffffffffffffffffffffffffffffffffffffffff1673ffffffffffffffffffffffffffffffffffffffff166370a08231306040518263ffffffff1660e01b815260040161125791906115ed565b602060405180830381865afa158015611274573d6000803e3d6000fd5b505050506040513d601f19601f820116820180604052508101906112989190611748565b90506112cb6006546112bd69d3c21bcecceda10000008461137990919063ffffffff16565b6113f390919063ffffffff16565b91505090565b60046020528060005260406000206000915090505481565b60008054906101000a900473ffffffffffffffffffffffffffffffffffffffff1673ffffffffffffffffffffffffffffffffffffffff163373ffffffffffffffffffffffffffffffffffffffff1614611377576040517f08c379a000000000000000000000000000000000000000000000000000000000815260040161136e90611afb565b60405180910390fd5b565b600080830361138b57600090506113ed565b600082846113999190611b4a565b90508284826113a89190611bbb565b146113e8576040517f08c379a00000000000000000000000000000000000000000000000000000000081526004016113df90611c5e565b60405180910390fd5b809150505b92915050565b60008082846114029190611c7e565b905083811015611447576040517f08c379a000000000000000000000000000000000000000000000000000000000815260040161143e90611cfe565b60405180910390fd5b8091505092915050565b600061149383836040518060400160405280601e81526020017f536166654d6174683a207375627472616374696f6e206f766572666c6f7700008152506114e5565b905092915050565b60006114dd83836040518060400160405280601a81526020017f536166654d6174683a206469766973696f6e206279207a65726f000000000000815250611549565b905092915050565b600083831115829061152d576040517f08c379a00000000000000000000000000000000000000000000000000000000081526004016115249190611d9d565b60405180910390fd5b506000838561153c9190611dbf565b9050809150509392505050565b60008083118290611590576040517f08c379a00000000000000000000000000000000000000000000000000000000081526004016115879190611d9d565b60405180910390fd5b506000838561159f9190611bbb565b9050809150509392505050565b600073ffffffffffffffffffffffffffffffffffffffff82169050919050565b60006115d7826115ac565b9050919050565b6115e7816115cc565b82525050565b600060208201905061160260008301846115de565b92915050565b600080fd5b611616816115cc565b811461162157600080fd5b50565b6000813590506116338161160d565b92915050565b60006020828403121561164f5761164e611608565b5b600061165d84828501611624565b91505092915050565b6000819050919050565b61167981611666565b82525050565b60006020820190506116946000830184611670565b92915050565b6116a381611666565b81146116ae57600080fd5b50565b6000813590506116c08161169a565b92915050565b600080604083850312156116dd576116dc611608565b5b60006116eb85828601611624565b92505060206116fc858286016116b1565b9150509250929050565b60006020828403121561171c5761171b611608565b5b600061172a848285016116b1565b91505092915050565b6000815190506117428161169a565b92915050565b60006020828403121561175e5761175d611608565b5b600061176c84828501611733565b91505092915050565b600082825260208201905092915050565b7f6f6e6c7920746865206b6c70206d616e616765722063616e2063616c6c20746860008201527f69732066756e6374696f6e000000000000000000000000000000000000000000602082015250565b60006117e2602b83611775565b91506117ed82611786565b604082019050919050565b60006020820190508181036000830152611811816117d5565b9050919050565b600060408201905061182d60008301856115de565b61183a6020830184611670565b9392505050565b60008115159050919050565b61185681611841565b811461186157600080fd5b50565b6000815190506118738161184d565b92915050565b60006020828403121561188f5761188e611608565b5b600061189d84828501611864565b91505092915050565b6000815190506118b58161160d565b92915050565b6000602082840312156118d1576118d0611608565b5b60006118df848285016118a6565b91505092915050565b7f6578697374696e67206c6f616e20616d6f756e7420657863656564696e67204c60008201527f5456000000000000000000000000000000000000000000000000000000000000602082015250565b6000611944602283611775565b915061194f826118e8565b604082019050919050565b6000602082019050818103600083015261197381611937565b9050919050565b7f4c545620646f6573206e6f7420737570706f7274206c6f616e20616d6f756e74600082015250565b60006119b0602083611775565b91506119bb8261197a565b602082019050919050565b600060208201905081810360008301526119df816119a3565b9050919050565b7f6c6f616e2074616b656e206c6573736572207468616e20706179696e6720616d60008201527f6f756e7400000000000000000000000000000000000000000000000000000000602082015250565b6000611a42602483611775565b9150611a4d826119e6565b604082019050919050565b60006020820190508181036000830152611a7181611a35565b9050919050565b6000606082019050611a8d60008301866115de565b611a9a60208301856115de565b611aa76040830184611670565b949350505050565b7f6f6e6c7920676f762063616e2063616c6c20746869732066756e6374696f6e00600082015250565b6000611ae5601f83611775565b9150611af082611aaf565b602082019050919050565b60006020820190508181036000830152611b1481611ad8565b9050919050565b7f4e487b7100000000000000000000000000000000000000000000000000000000600052601160045260246000fd5b6000611b5582611666565b9150611b6083611666565b9250828202611b6e81611666565b91508282048414831517611b8557611b84611b1b565b5b5092915050565b7f4e487b7100000000000000000000000000000000000000000000000000000000600052601260045260246000fd5b6000611bc682611666565b9150611bd183611666565b925082611be157611be0611b8c565b5b828204905092915050565b7f536166654d6174683a206d756c7469706c69636174696f6e206f766572666c6f60008201527f7700000000000000000000000000000000000000000000000000000000000000602082015250565b6000611c48602183611775565b9150611c5382611bec565b604082019050919050565b60006020820190508181036000830152611c7781611c3b565b9050919050565b6000611c8982611666565b9150611c9483611666565b9250828201905080821115611cac57611cab611b1b565b5b92915050565b7f536166654d6174683a206164646974696f6e206f766572666c6f770000000000600082015250565b6000611ce8601b83611775565b9150611cf382611cb2565b602082019050919050565b60006020820190508181036000830152611d1781611cdb565b9050919050565b600081519050919050565b60005b83811015611d47578082015181840152602081019050611d2c565b60008484015250505050565b6000601f19601f8301169050919050565b6000611d6f82611d1e565b611d798185611775565b9350611d89818560208601611d29565b611d9281611d53565b840191505092915050565b60006020820190508181036000830152611db78184611d64565b905092915050565b6000611dca82611666565b9150611dd583611666565b9250828203905081811115611ded57611dec611b1b565b5b9291505056fea2646970667358221220ac12a7ec5b1ea2dbf793ade3db5bf06adcd14e908de6ef0668ca46e0f623600164736f6c63430008110033",
  "linkReferences": {},
  "deployedLinkReferences": {}
}