{
  "_format": "hh-sol-artifact-1",
  "contractName": "LendingContract",
  "sourceName": "contracts/LendingContract.sol",
  "abi": [
    {
      "inputs": [
        {
          "internalType": "address",
          "name": "_usdcAddress",
          "type": "address"
        }
      ],
      "stateMutability": "nonpayable",
      "type": "constructor"
    },
    {
      "inputs": [],
      "name": "BORROW_RATE_PRECISION",
      "outputs": [
        {
          "internalType": "uint256",
          "name": "",
          "type": "uint256"
        }
      ],
      "stateMutability": "view",
      "type": "function"
    },
    {
      "inputs": [],
      "name": "LTV",
      "outputs": [
        {
          "internalType": "uint256",
          "name": "",
          "type": "uint256"
        }
      ],
      "stateMutability": "view",
      "type": "function"
    },
    {
      "inputs": [],
      "name": "PRICE_PRECISION",
      "outputs": [
        {
          "internalType": "uint256",
          "name": "",
          "type": "uint256"
        }
      ],
      "stateMutability": "view",
      "type": "function"
    },
    {
      "inputs": [],
      "name": "USDC_DECIMALS_DIVISOR",
      "outputs": [
        {
          "internalType": "uint256",
          "name": "",
          "type": "uint256"
        }
      ],
      "stateMutability": "view",
      "type": "function"
    },
    {
      "inputs": [
        {
          "internalType": "address",
          "name": "",
          "type": "address"
        }
      ],
      "name": "amountLoanedByUser",
      "outputs": [
        {
          "internalType": "uint256",
          "name": "",
          "type": "uint256"
        }
      ],
      "stateMutability": "view",
      "type": "function"
    },
    {
      "inputs": [],
      "name": "borrowInterval",
      "outputs": [
        {
          "internalType": "uint256",
          "name": "",
          "type": "uint256"
        }
      ],
      "stateMutability": "view",
      "type": "function"
    },
    {
      "inputs": [],
      "name": "borrowRateFactor",
      "outputs": [
        {
          "internalType": "uint256",
          "name": "",
          "type": "uint256"
        }
      ],
      "stateMutability": "view",
      "type": "function"
    },
    {
      "inputs": [],
      "name": "cumulativeBorrowRate",
      "outputs": [
        {
          "internalType": "uint256",
          "name": "",
          "type": "uint256"
        }
      ],
      "stateMutability": "view",
      "type": "function"
    },
    {
      "inputs": [
        {
          "internalType": "address",
          "name": "",
          "type": "address"
        }
      ],
      "name": "entryBorrowRate",
      "outputs": [
        {
          "internalType": "uint256",
          "name": "",
          "type": "uint256"
        }
      ],
      "stateMutability": "view",
      "type": "function"
    },
    {
      "inputs": [
        {
          "internalType": "address",
          "name": "_account",
          "type": "address"
        }
      ],
      "name": "existingLoanOnPortfolio",
      "outputs": [
        {
          "internalType": "uint256",
          "name": "",
          "type": "uint256"
        }
      ],
      "stateMutability": "view",
      "type": "function"
    },
    {
      "inputs": [],
      "name": "factoryContractAddress",
      "outputs": [
        {
          "internalType": "address",
          "name": "",
          "type": "address"
        }
      ],
      "stateMutability": "view",
      "type": "function"
    },
    {
      "inputs": [],
      "name": "getNextBorrowRate",
      "outputs": [
        {
          "internalType": "uint256",
          "name": "",
          "type": "uint256"
        }
      ],
      "stateMutability": "view",
      "type": "function"
    },
    {
      "inputs": [],
      "name": "getReserve",
      "outputs": [
        {
          "internalType": "uint256",
          "name": "",
          "type": "uint256"
        }
      ],
      "stateMutability": "view",
      "type": "function"
    },
    {
      "inputs": [],
      "name": "gov",
      "outputs": [
        {
          "internalType": "address",
          "name": "",
          "type": "address"
        }
      ],
      "stateMutability": "view",
      "type": "function"
    },
    {
      "inputs": [
        {
          "internalType": "address",
          "name": "_account",
          "type": "address"
        }
      ],
      "name": "interestToCollect",
      "outputs": [
        {
          "internalType": "uint256",
          "name": "",
          "type": "uint256"
        }
      ],
      "stateMutability": "view",
      "type": "function"
    },
    {
      "inputs": [],
      "name": "klpManagerAddress",
      "outputs": [
        {
          "internalType": "address",
          "name": "",
          "type": "address"
        }
      ],
      "stateMutability": "view",
      "type": "function"
    },
    {
      "inputs": [],
      "name": "lastBorrowTimes",
      "outputs": [
        {
          "internalType": "uint256",
          "name": "",
          "type": "uint256"
        }
      ],
      "stateMutability": "view",
      "type": "function"
    },
    {
      "inputs": [
        {
          "internalType": "uint256",
          "name": "_repayLoanAmount",
          "type": "uint256"
        }
      ],
      "name": "paybackLoan",
      "outputs": [],
      "stateMutability": "nonpayable",
      "type": "function"
    },
    {
      "inputs": [
        {
          "internalType": "address",
          "name": "_account",
          "type": "address"
        },
        {
          "internalType": "uint256",
          "name": "_amount",
          "type": "uint256"
        }
      ],
      "name": "sendUsdcToLp",
      "outputs": [],
      "stateMutability": "nonpayable",
      "type": "function"
    },
    {
      "inputs": [
        {
          "internalType": "address",
          "name": "newAddress",
          "type": "address"
        }
      ],
      "name": "setFactoryaContractAddress",
      "outputs": [],
      "stateMutability": "nonpayable",
      "type": "function"
    },
    {
      "inputs": [
        {
          "internalType": "address",
          "name": "newAddress",
          "type": "address"
        }
      ],
      "name": "setKlpManagerAddress",
      "outputs": [],
      "stateMutability": "nonpayable",
      "type": "function"
    },
    {
      "inputs": [
        {
          "internalType": "address",
          "name": "newAddress",
          "type": "address"
        }
      ],
      "name": "setUsdcAddress",
      "outputs": [],
      "stateMutability": "nonpayable",
      "type": "function"
    },
    {
      "inputs": [
        {
          "internalType": "uint256",
          "name": "_loanAmount",
          "type": "uint256"
        }
      ],
      "name": "takeLoanOnPosition",
      "outputs": [],
      "stateMutability": "nonpayable",
      "type": "function"
    },
    {
      "inputs": [],
      "name": "totalLiquidityProvided",
      "outputs": [
        {
          "internalType": "uint256",
          "name": "",
          "type": "uint256"
        }
      ],
      "stateMutability": "view",
      "type": "function"
    },
    {
      "inputs": [],
      "name": "totalLoanedAmount",
      "outputs": [
        {
          "internalType": "uint256",
          "name": "",
          "type": "uint256"
        }
      ],
      "stateMutability": "view",
      "type": "function"
    },
    {
      "inputs": [],
      "name": "updateCumulativeBorrowRate",
      "outputs": [],
      "stateMutability": "nonpayable",
      "type": "function"
    },
    {
      "inputs": [],
      "name": "usdcAddress",
      "outputs": [
        {
          "internalType": "address",
          "name": "",
          "type": "address"
        }
      ],
      "stateMutability": "view",
      "type": "function"
    }
  ],
  "bytecode": "0x60806040526000600655610e1060075560646008553480156200002157600080fd5b50604051620022e9380380620022e9833981810160405281019062000047919062000139565b336000806101000a81548173ffffffffffffffffffffffffffffffffffffffff021916908373ffffffffffffffffffffffffffffffffffffffff16021790555080600360006101000a81548173ffffffffffffffffffffffffffffffffffffffff021916908373ffffffffffffffffffffffffffffffffffffffff160217905550506200016b565b600080fd5b600073ffffffffffffffffffffffffffffffffffffffff82169050919050565b60006200010182620000d4565b9050919050565b6200011381620000f4565b81146200011f57600080fd5b50565b600081519050620001338162000108565b92915050565b600060208284031215620001525762000151620000cf565b5b6000620001628482850162000122565b91505092915050565b61216e806200017b6000396000f3fe608060405234801561001057600080fd5b50600436106101a95760003560e01c80637b3820ce116100f9578063ca0cd00a11610097578063d38bcdee11610071578063d38bcdee14610466578063db1e4ff814610482578063dfed1348146104b2578063e10eb58c146104d0576101a9565b8063ca0cd00a146103fe578063d04f246b1461041a578063d16ef22a1461044a576101a9565b806395082d25116100d357806395082d251461039c5780639d0d42c7146103ba578063ad993f97146103d8578063b62b751d146103f4576101a9565b80637b3820ce146103445780637c2bfdfb14610362578063819bd33c1461037e576101a9565b806359bf5d3911610166578063645bc7ee11610140578063645bc7ee146102ba578063732e0a1d146102d857806377f01edd146102f6578063794ef3e414610314576101a9565b806359bf5d39146102605780635e04b9f81461027e57806362965d8e1461029c576101a9565b806302d45457146101ae5780630fef75c3146101cc57806312d43a51146101e85780631a02d43014610206578063261c1c521461022457806336bda88314610242575b600080fd5b6101b6610500565b6040516101c391906117c8565b60405180910390f35b6101e660048036038101906101e19190611814565b610526565b005b6101f0610572565b6040516101fd91906117c8565b60405180910390f35b61020e610596565b60405161021b919061185a565b60405180910390f35b61022c61059c565b604051610239919061185a565b60405180910390f35b61024a6105a2565b604051610257919061185a565b60405180910390f35b6102686105b0565b604051610275919061185a565b60405180910390f35b61028661066f565b604051610293919061185a565b60405180910390f35b6102a4610727565b6040516102b1919061185a565b60405180910390f35b6102c261072c565b6040516102cf919061185a565b60405180910390f35b6102e0610732565b6040516102ed91906117c8565b60405180910390f35b6102fe610758565b60405161030b919061185a565b60405180910390f35b61032e60048036038101906103299190611814565b61075f565b60405161033b919061185a565b60405180910390f35b61034c610777565b604051610359919061185a565b60405180910390f35b61037c600480360381019061037791906118a1565b61077d565b005b6103866108f0565b604051610393919061185a565b60405180910390f35b6103a46108f6565b6040516103b1919061185a565b60405180910390f35b6103c2610907565b6040516103cf91906117c8565b60405180910390f35b6103f260048036038101906103ed9190611814565b61092d565b005b6103fc610979565b005b610418600480360381019061041391906118e1565b610a2e565b005b610434600480360381019061042f9190611814565b610f35565b604051610441919061185a565b60405180910390f35b610464600480360381019061045f91906118e1565b610f7e565b005b610480600480360381019061047b9190611814565b6111ef565b005b61049c60048036038101906104979190611814565b61123b565b6040516104a9919061185a565b60405180910390f35b6104ba6113d4565b6040516104c7919061185a565b60405180910390f35b6104ea60048036038101906104e59190611814565b6114ac565b6040516104f7919061185a565b60405180910390f35b600360009054906101000a900473ffffffffffffffffffffffffffffffffffffffff1681565b61052e6114c4565b80600160006101000a81548173ffffffffffffffffffffffffffffffffffffffff021916908373ffffffffffffffffffffffffffffffffffffffff16021790555050565b60008054906101000a900473ffffffffffffffffffffffffffffffffffffffff1681565b60085481565b60075481565b69d3c21bcecceda100000081565b600061066a69d3c21bcecceda1000000600360009054906101000a900473ffffffffffffffffffffffffffffffffffffffff1673ffffffffffffffffffffffffffffffffffffffff166370a08231306040518263ffffffff1660e01b815260040161061b91906117c8565b602060405180830381865afa158015610638573d6000803e3d6000fd5b505050506040513d601f19601f8201168201806040525081019061065c9190611923565b61155490919063ffffffff16565b905090565b600042610689600754600a546115ce90919063ffffffff16565b11156106985760009050610724565b60006106c36007546106b5600a544261162c90919063ffffffff16565b61167690919063ffffffff16565b905060006106cf6113d4565b9050600081036106e457600092505050610724565b61071f816107118461070360065460085461155490919063ffffffff16565b61155490919063ffffffff16565b61167690919063ffffffff16565b925050505b90565b603c81565b600a5481565b600160009054906101000a900473ffffffffffffffffffffffffffffffffffffffff1681565b620f424081565b60056020528060005260406000206000915090505481565b60095481565b600260009054906101000a900473ffffffffffffffffffffffffffffffffffffffff1673ffffffffffffffffffffffffffffffffffffffff163373ffffffffffffffffffffffffffffffffffffffff161461080d576040517f08c379a0000000000000000000000000000000000000000000000000000000008152600401610804906119d3565b60405180910390fd5b600360009054906101000a900473ffffffffffffffffffffffffffffffffffffffff1673ffffffffffffffffffffffffffffffffffffffff1663a9059cbb83836040518363ffffffff1660e01b815260040161086a9291906119f3565b6020604051808303816000875af1158015610889573d6000803e3d6000fd5b505050506040513d601f19601f820116820180604052508101906108ad9190611a54565b6108ec576040517f08c379a00000000000000000000000000000000000000000000000000000000081526004016108e390611acd565b60405180910390fd5b5050565b60065481565b6c0c9f2c9cd04674edea4000000081565b600260009054906101000a900473ffffffffffffffffffffffffffffffffffffffff1681565b6109356114c4565b80600260006101000a81548173ffffffffffffffffffffffffffffffffffffffff021916908373ffffffffffffffffffffffffffffffffffffffff16021790555050565b6000600a54036109b7576109ac60075461099e6007544261167690919063ffffffff16565b61155490919063ffffffff16565b600a81905550610a2c565b426109cf600754600a546115ce90919063ffffffff16565b11610a2c5760006109de61066f565b90506109f5816009546115ce90919063ffffffff16565b600981905550610a24600754610a166007544261167690919063ffffffff16565b61155490919063ffffffff16565b600a81905550505b565b6000600160009054906101000a900473ffffffffffffffffffffffffffffffffffffffff16905060008173ffffffffffffffffffffffffffffffffffffffff16633704d21b336040518263ffffffff1660e01b8152600401610a9091906117c8565b602060405180830381865afa158015610aad573d6000803e3d6000fd5b505050506040513d601f19601f82011682018060405250810190610ad19190611b02565b9050600073ffffffffffffffffffffffffffffffffffffffff168173ffffffffffffffffffffffffffffffffffffffff1603610b42576040517f08c379a0000000000000000000000000000000000000000000000000000000008152600401610b3990611ba1565b60405180910390fd5b600081905060008173ffffffffffffffffffffffffffffffffffffffff1663bb0498de6040518163ffffffff1660e01b8152600401602060405180830381865afa158015610b94573d6000803e3d6000fd5b505050506040513d601f19601f82011682018060405250810190610bb89190611923565b9050610be16064610bd3603c8461155490919063ffffffff16565b61167690919063ffffffff16565b600560003373ffffffffffffffffffffffffffffffffffffffff1673ffffffffffffffffffffffffffffffffffffffff1681526020019081526020016000205410610c61576040517f08c379a0000000000000000000000000000000000000000000000000000000008152600401610c5890611c33565b60405180910390fd5b610c886064610c7a603c8461155490919063ffffffff16565b61167690919063ffffffff16565b610cda86600560003373ffffffffffffffffffffffffffffffffffffffff1673ffffffffffffffffffffffffffffffffffffffff168152602001908152602001600020546115ce90919063ffffffff16565b10610d1a576040517f08c379a0000000000000000000000000000000000000000000000000000000008152600401610d1190611c9f565b60405180910390fd5b6000610d253361123b565b9050610d7986600560003373ffffffffffffffffffffffffffffffffffffffff1673ffffffffffffffffffffffffffffffffffffffff168152602001908152602001600020546115ce90919063ffffffff16565b600560003373ffffffffffffffffffffffffffffffffffffffff1673ffffffffffffffffffffffffffffffffffffffff16815260200190815260200160002081905550610dd1866006546115ce90919063ffffffff16565b600681905550610dea818761162c90919063ffffffff16565b9550600954600460003373ffffffffffffffffffffffffffffffffffffffff1673ffffffffffffffffffffffffffffffffffffffff16815260200190815260200160002081905550600360009054906101000a900473ffffffffffffffffffffffffffffffffffffffff1673ffffffffffffffffffffffffffffffffffffffff1663a9059cbb33610e8e69d3c21bcecceda10000008a61167690919063ffffffff16565b6040518363ffffffff1660e01b8152600401610eab9291906119f3565b6020604051808303816000875af1158015610eca573d6000803e3d6000fd5b505050506040513d601f19601f82011682018060405250810190610eee9190611a54565b610f2d576040517f08c379a0000000000000000000000000000000000000000000000000000000008152600401610f2490611acd565b60405180910390fd5b505050505050565b6000600560008373ffffffffffffffffffffffffffffffffffffffff1673ffffffffffffffffffffffffffffffffffffffff168152602001908152602001600020549050919050565b6000610f893361123b565b90506000610fdf82600560003373ffffffffffffffffffffffffffffffffffffffff1673ffffffffffffffffffffffffffffffffffffffff168152602001908152602001600020546115ce90919063ffffffff16565b905082811015611024576040517f08c379a000000000000000000000000000000000000000000000000000000000815260040161101b90611d31565b60405180910390fd5b611037838261162c90919063ffffffff16565b600560003373ffffffffffffffffffffffffffffffffffffffff1673ffffffffffffffffffffffffffffffffffffffff168152602001908152602001600020819055506110a1611090838561162c90919063ffffffff16565b60065461162c90919063ffffffff16565b600681905550600954600460003373ffffffffffffffffffffffffffffffffffffffff1673ffffffffffffffffffffffffffffffffffffffff16815260200190815260200160002081905550600360009054906101000a900473ffffffffffffffffffffffffffffffffffffffff1673ffffffffffffffffffffffffffffffffffffffff166323b872dd333061114a69d3c21bcecceda10000008861167690919063ffffffff16565b6040518463ffffffff1660e01b815260040161116893929190611d51565b6020604051808303816000875af1158015611187573d6000803e3d6000fd5b505050506040513d601f19601f820116820180604052508101906111ab9190611a54565b6111ea576040517f08c379a00000000000000000000000000000000000000000000000000000000081526004016111e190611dd4565b60405180910390fd5b505050565b6111f76114c4565b80600360006101000a81548173ffffffffffffffffffffffffffffffffffffffff021916908373ffffffffffffffffffffffffffffffffffffffff16021790555050565b600080600560008473ffffffffffffffffffffffffffffffffffffffff1673ffffffffffffffffffffffffffffffffffffffff168152602001908152602001600020540361128c57600090506113cf565b60006112f7620f42406112e9600854600560008873ffffffffffffffffffffffffffffffffffffffff1673ffffffffffffffffffffffffffffffffffffffff1681526020019081526020016000205461155490919063ffffffff16565b61167690919063ffffffff16565b905060006113b5620f42406113a7611359600460008973ffffffffffffffffffffffffffffffffffffffff1673ffffffffffffffffffffffffffffffffffffffff1681526020019081526020016000205460095461162c90919063ffffffff16565b600560008973ffffffffffffffffffffffffffffffffffffffff1673ffffffffffffffffffffffffffffffffffffffff1681526020019081526020016000205461155490919063ffffffff16565b61167690919063ffffffff16565b90506113ca82826115ce90919063ffffffff16565b925050505b919050565b600080600360009054906101000a900473ffffffffffffffffffffffffffffffffffffffff1673ffffffffffffffffffffffffffffffffffffffff166370a08231306040518263ffffffff1660e01b815260040161143291906117c8565b602060405180830381865afa15801561144f573d6000803e3d6000fd5b505050506040513d601f19601f820116820180604052508101906114739190611923565b90506114a660065461149869d3c21bcecceda10000008461155490919063ffffffff16565b6115ce90919063ffffffff16565b91505090565b60046020528060005260406000206000915090505481565b60008054906101000a900473ffffffffffffffffffffffffffffffffffffffff1673ffffffffffffffffffffffffffffffffffffffff163373ffffffffffffffffffffffffffffffffffffffff1614611552576040517f08c379a000000000000000000000000000000000000000000000000000000000815260040161154990611e40565b60405180910390fd5b565b600080830361156657600090506115c8565b600082846115749190611e8f565b90508284826115839190611f00565b146115c3576040517f08c379a00000000000000000000000000000000000000000000000000000000081526004016115ba90611fa3565b60405180910390fd5b809150505b92915050565b60008082846115dd9190611fc3565b905083811015611622576040517f08c379a000000000000000000000000000000000000000000000000000000000815260040161161990612043565b60405180910390fd5b8091505092915050565b600061166e83836040518060400160405280601e81526020017f536166654d6174683a207375627472616374696f6e206f766572666c6f7700008152506116c0565b905092915050565b60006116b883836040518060400160405280601a81526020017f536166654d6174683a206469766973696f6e206279207a65726f000000000000815250611724565b905092915050565b6000838311158290611708576040517f08c379a00000000000000000000000000000000000000000000000000000000081526004016116ff91906120e2565b60405180910390fd5b50600083856117179190612104565b9050809150509392505050565b6000808311829061176b576040517f08c379a000000000000000000000000000000000000000000000000000000000815260040161176291906120e2565b60405180910390fd5b506000838561177a9190611f00565b9050809150509392505050565b600073ffffffffffffffffffffffffffffffffffffffff82169050919050565b60006117b282611787565b9050919050565b6117c2816117a7565b82525050565b60006020820190506117dd60008301846117b9565b92915050565b600080fd5b6117f1816117a7565b81146117fc57600080fd5b50565b60008135905061180e816117e8565b92915050565b60006020828403121561182a576118296117e3565b5b6000611838848285016117ff565b91505092915050565b6000819050919050565b61185481611841565b82525050565b600060208201905061186f600083018461184b565b92915050565b61187e81611841565b811461188957600080fd5b50565b60008135905061189b81611875565b92915050565b600080604083850312156118b8576118b76117e3565b5b60006118c6858286016117ff565b92505060206118d78582860161188c565b9150509250929050565b6000602082840312156118f7576118f66117e3565b5b60006119058482850161188c565b91505092915050565b60008151905061191d81611875565b92915050565b600060208284031215611939576119386117e3565b5b60006119478482850161190e565b91505092915050565b600082825260208201905092915050565b7f6f6e6c7920746865206b6c70206d616e616765722063616e2063616c6c20746860008201527f69732066756e6374696f6e000000000000000000000000000000000000000000602082015250565b60006119bd602b83611950565b91506119c882611961565b604082019050919050565b600060208201905081810360008301526119ec816119b0565b9050919050565b6000604082019050611a0860008301856117b9565b611a15602083018461184b565b9392505050565b60008115159050919050565b611a3181611a1c565b8114611a3c57600080fd5b50565b600081519050611a4e81611a28565b92915050565b600060208284031215611a6a57611a696117e3565b5b6000611a7884828501611a3f565b91505092915050565b7f6661696c656420746f207472616e73666572206f757400000000000000000000600082015250565b6000611ab7601683611950565b9150611ac282611a81565b602082019050919050565b60006020820190508181036000830152611ae681611aaa565b9050919050565b600081519050611afc816117e8565b92915050565b600060208284031215611b1857611b176117e3565b5b6000611b2684828501611aed565b91505092915050565b7f61636f756e7420646f6573206e6f74206861766520616273747261637420636f60008201527f6e74726163740000000000000000000000000000000000000000000000000000602082015250565b6000611b8b602683611950565b9150611b9682611b2f565b604082019050919050565b60006020820190508181036000830152611bba81611b7e565b9050919050565b7f6578697374696e67206c6f616e20616d6f756e7420657863656564696e67204c60008201527f5456000000000000000000000000000000000000000000000000000000000000602082015250565b6000611c1d602283611950565b9150611c2882611bc1565b604082019050919050565b60006020820190508181036000830152611c4c81611c10565b9050919050565b7f4c545620646f6573206e6f7420737570706f7274206c6f616e20616d6f756e74600082015250565b6000611c89602083611950565b9150611c9482611c53565b602082019050919050565b60006020820190508181036000830152611cb881611c7c565b9050919050565b7f6c6f616e2074616b656e206c6573736572207468616e20706179696e6720616d60008201527f6f756e7400000000000000000000000000000000000000000000000000000000602082015250565b6000611d1b602483611950565b9150611d2682611cbf565b604082019050919050565b60006020820190508181036000830152611d4a81611d0e565b9050919050565b6000606082019050611d6660008301866117b9565b611d7360208301856117b9565b611d80604083018461184b565b949350505050565b7f6661696c656420746f207472616e7366657220696e0000000000000000000000600082015250565b6000611dbe601583611950565b9150611dc982611d88565b602082019050919050565b60006020820190508181036000830152611ded81611db1565b9050919050565b7f6f6e6c7920676f762063616e2063616c6c20746869732066756e6374696f6e00600082015250565b6000611e2a601f83611950565b9150611e3582611df4565b602082019050919050565b60006020820190508181036000830152611e5981611e1d565b9050919050565b7f4e487b7100000000000000000000000000000000000000000000000000000000600052601160045260246000fd5b6000611e9a82611841565b9150611ea583611841565b9250828202611eb381611841565b91508282048414831517611eca57611ec9611e60565b5b5092915050565b7f4e487b7100000000000000000000000000000000000000000000000000000000600052601260045260246000fd5b6000611f0b82611841565b9150611f1683611841565b925082611f2657611f25611ed1565b5b828204905092915050565b7f536166654d6174683a206d756c7469706c69636174696f6e206f766572666c6f60008201527f7700000000000000000000000000000000000000000000000000000000000000602082015250565b6000611f8d602183611950565b9150611f9882611f31565b604082019050919050565b60006020820190508181036000830152611fbc81611f80565b9050919050565b6000611fce82611841565b9150611fd983611841565b9250828201905080821115611ff157611ff0611e60565b5b92915050565b7f536166654d6174683a206164646974696f6e206f766572666c6f770000000000600082015250565b600061202d601b83611950565b915061203882611ff7565b602082019050919050565b6000602082019050818103600083015261205c81612020565b9050919050565b600081519050919050565b60005b8381101561208c578082015181840152602081019050612071565b60008484015250505050565b6000601f19601f8301169050919050565b60006120b482612063565b6120be8185611950565b93506120ce81856020860161206e565b6120d781612098565b840191505092915050565b600060208201905081810360008301526120fc81846120a9565b905092915050565b600061210f82611841565b915061211a83611841565b925082820390508181111561213257612131611e60565b5b9291505056fea2646970667358221220cdbd4fe4b9e3b7db0a1e65be982ed2e7d1a8af90f6fa1cd9e71c90a06ebb784f64736f6c63430008110033",
  "linkReferences": {},
  "deployedLinkReferences": {}
}