{
  "_format": "hh-sol-artifact-1",
  "contractName": "AbstractPosition",
  "sourceName": "contracts/AbstractPosition.sol",
  "abi": [
    {
      "inputs": [
        {
          "internalType": "address",
          "name": "_gov",
          "type": "address"
        },
        {
          "internalType": "address",
          "name": "_wethAddress",
          "type": "address"
        },
        {
          "internalType": "address",
          "name": "_lendingContractAddress",
          "type": "address"
        },
        {
          "internalType": "address",
          "name": "_ownerAddress",
          "type": "address"
        },
        {
          "internalType": "address",
          "name": "_positionRouterAddress",
          "type": "address"
        },
        {
          "internalType": "address",
          "name": "_routerAddress",
          "type": "address"
        },
        {
          "internalType": "address",
          "name": "_orderBookAddress",
          "type": "address"
        },
        {
          "internalType": "address",
          "name": "_vaultContractAddress",
          "type": "address"
        }
      ],
      "stateMutability": "nonpayable",
      "type": "constructor"
    },
    {
      "inputs": [],
      "name": "BASIS_POINTS_DIVISOR",
      "outputs": [
        {
          "internalType": "uint256",
          "name": "",
          "type": "uint256"
        }
      ],
      "stateMutability": "view",
      "type": "function"
    },
    {
      "inputs": [],
      "name": "L1",
      "outputs": [
        {
          "internalType": "uint256",
          "name": "",
          "type": "uint256"
        }
      ],
      "stateMutability": "view",
      "type": "function"
    },
    {
      "inputs": [],
      "name": "L2",
      "outputs": [
        {
          "internalType": "uint256",
          "name": "",
          "type": "uint256"
        }
      ],
      "stateMutability": "view",
      "type": "function"
    },
    {
      "inputs": [],
      "name": "MIN_DECREASE_HEALTH_FACTOR",
      "outputs": [
        {
          "internalType": "uint256",
          "name": "",
          "type": "uint256"
        }
      ],
      "stateMutability": "view",
      "type": "function"
    },
    {
      "inputs": [],
      "name": "MIN_HEALTH_FACTOR",
      "outputs": [
        {
          "internalType": "uint256",
          "name": "",
          "type": "uint256"
        }
      ],
      "stateMutability": "view",
      "type": "function"
    },
    {
      "inputs": [
        {
          "internalType": "address[]",
          "name": "_path",
          "type": "address[]"
        },
        {
          "internalType": "address",
          "name": "_indexToken",
          "type": "address"
        },
        {
          "internalType": "uint256",
          "name": "_collateralDelta",
          "type": "uint256"
        },
        {
          "internalType": "uint256",
          "name": "_sizeDelta",
          "type": "uint256"
        },
        {
          "internalType": "bool",
          "name": "_isLong",
          "type": "bool"
        },
        {
          "internalType": "address",
          "name": "_receiver",
          "type": "address"
        },
        {
          "internalType": "uint256",
          "name": "_acceptablePrice",
          "type": "uint256"
        },
        {
          "internalType": "uint256",
          "name": "_minOut",
          "type": "uint256"
        },
        {
          "internalType": "uint256",
          "name": "_executionFee",
          "type": "uint256"
        },
        {
          "internalType": "bool",
          "name": "_withdrawETH",
          "type": "bool"
        },
        {
          "internalType": "address",
          "name": "_callbackTarget",
          "type": "address"
        }
      ],
      "name": "callCreateDecreasePosition",
      "outputs": [
        {
          "internalType": "bool",
          "name": "",
          "type": "bool"
        }
      ],
      "stateMutability": "payable",
      "type": "function"
    },
    {
      "inputs": [
        {
          "internalType": "address[]",
          "name": "_path",
          "type": "address[]"
        },
        {
          "internalType": "address",
          "name": "_indexToken",
          "type": "address"
        },
        {
          "internalType": "uint256",
          "name": "_amountIn",
          "type": "uint256"
        },
        {
          "internalType": "uint256",
          "name": "_minOut",
          "type": "uint256"
        },
        {
          "internalType": "uint256",
          "name": "_sizeDelta",
          "type": "uint256"
        },
        {
          "internalType": "bool",
          "name": "_isLong",
          "type": "bool"
        },
        {
          "internalType": "uint256",
          "name": "_acceptablePrice",
          "type": "uint256"
        },
        {
          "internalType": "uint256",
          "name": "_executionFee",
          "type": "uint256"
        },
        {
          "internalType": "bytes32",
          "name": "_referralCode",
          "type": "bytes32"
        },
        {
          "internalType": "address",
          "name": "_callbackTarget",
          "type": "address"
        }
      ],
      "name": "callCreateIncreasePosition",
      "outputs": [
        {
          "internalType": "bytes32",
          "name": "",
          "type": "bytes32"
        }
      ],
      "stateMutability": "payable",
      "type": "function"
    },
    {
      "inputs": [
        {
          "internalType": "address[]",
          "name": "_path",
          "type": "address[]"
        },
        {
          "internalType": "address",
          "name": "_indexToken",
          "type": "address"
        },
        {
          "internalType": "uint256",
          "name": "_minOut",
          "type": "uint256"
        },
        {
          "internalType": "uint256",
          "name": "_sizeDelta",
          "type": "uint256"
        },
        {
          "internalType": "bool",
          "name": "_isLong",
          "type": "bool"
        },
        {
          "internalType": "uint256",
          "name": "_acceptablePrice",
          "type": "uint256"
        },
        {
          "internalType": "uint256",
          "name": "_executionFee",
          "type": "uint256"
        },
        {
          "internalType": "bytes32",
          "name": "_referralCode",
          "type": "bytes32"
        },
        {
          "internalType": "address",
          "name": "_callbackTarget",
          "type": "address"
        }
      ],
      "name": "callCreateIncreasePositionETH",
      "outputs": [
        {
          "internalType": "bytes32",
          "name": "",
          "type": "bytes32"
        }
      ],
      "stateMutability": "payable",
      "type": "function"
    },
    {
      "inputs": [],
      "name": "deposit",
      "outputs": [],
      "stateMutability": "payable",
      "type": "function"
    },
    {
      "inputs": [],
      "name": "executeDecreasePosition",
      "outputs": [
        {
          "internalType": "bool",
          "name": "",
          "type": "bool"
        }
      ],
      "stateMutability": "nonpayable",
      "type": "function"
    },
    {
      "inputs": [
        {
          "internalType": "uint256",
          "name": "",
          "type": "uint256"
        }
      ],
      "name": "existingPositionsData",
      "outputs": [
        {
          "internalType": "address",
          "name": "indexToken",
          "type": "address"
        },
        {
          "internalType": "address",
          "name": "collateralToken",
          "type": "address"
        },
        {
          "internalType": "bool",
          "name": "isLong",
          "type": "bool"
        }
      ],
      "stateMutability": "view",
      "type": "function"
    },
    {
      "inputs": [
        {
          "internalType": "address",
          "name": "_indexToken",
          "type": "address"
        },
        {
          "internalType": "uint256",
          "name": "_size",
          "type": "uint256"
        },
        {
          "internalType": "uint256",
          "name": "_averagePrice",
          "type": "uint256"
        },
        {
          "internalType": "bool",
          "name": "_isLong",
          "type": "bool"
        }
      ],
      "name": "getDeltaWithMargin",
      "outputs": [
        {
          "internalType": "bool",
          "name": "",
          "type": "bool"
        },
        {
          "internalType": "uint256",
          "name": "",
          "type": "uint256"
        }
      ],
      "stateMutability": "view",
      "type": "function"
    },
    {
      "inputs": [],
      "name": "getPortfolioValue",
      "outputs": [
        {
          "internalType": "uint256",
          "name": "",
          "type": "uint256"
        }
      ],
      "stateMutability": "view",
      "type": "function"
    },
    {
      "inputs": [],
      "name": "getPortfolioValueWithMargin",
      "outputs": [
        {
          "internalType": "uint256",
          "name": "",
          "type": "uint256"
        }
      ],
      "stateMutability": "view",
      "type": "function"
    },
    {
      "inputs": [
        {
          "internalType": "address",
          "name": "_indexToken",
          "type": "address"
        },
        {
          "internalType": "address",
          "name": "_collateralToken",
          "type": "address"
        },
        {
          "internalType": "bool",
          "name": "_isLong",
          "type": "bool"
        }
      ],
      "name": "getPositioKey",
      "outputs": [
        {
          "internalType": "bytes32",
          "name": "",
          "type": "bytes32"
        }
      ],
      "stateMutability": "pure",
      "type": "function"
    },
    {
      "inputs": [
        {
          "internalType": "address",
          "name": "_indexToken",
          "type": "address"
        },
        {
          "internalType": "address",
          "name": "_collateralToken",
          "type": "address"
        },
        {
          "internalType": "bool",
          "name": "_isLong",
          "type": "bool"
        }
      ],
      "name": "getPosition",
      "outputs": [
        {
          "internalType": "uint256",
          "name": "",
          "type": "uint256"
        },
        {
          "internalType": "uint256",
          "name": "",
          "type": "uint256"
        },
        {
          "internalType": "uint256",
          "name": "",
          "type": "uint256"
        },
        {
          "internalType": "uint256",
          "name": "",
          "type": "uint256"
        },
        {
          "internalType": "uint256",
          "name": "",
          "type": "uint256"
        }
      ],
      "stateMutability": "view",
      "type": "function"
    },
    {
      "inputs": [
        {
          "internalType": "address",
          "name": "_indexToken",
          "type": "address"
        },
        {
          "internalType": "bool",
          "name": "_isLong",
          "type": "bool"
        },
        {
          "internalType": "uint256",
          "name": "_positionCollateral",
          "type": "uint256"
        },
        {
          "internalType": "uint256",
          "name": "_positionSize",
          "type": "uint256"
        },
        {
          "internalType": "uint256",
          "name": "_positionAveragePrice",
          "type": "uint256"
        },
        {
          "internalType": "uint256",
          "name": "_positionLastIncreasedTime",
          "type": "uint256"
        }
      ],
      "name": "getPositionValue",
      "outputs": [
        {
          "internalType": "uint256",
          "name": "",
          "type": "uint256"
        }
      ],
      "stateMutability": "view",
      "type": "function"
    },
    {
      "inputs": [
        {
          "internalType": "address",
          "name": "_indexToken",
          "type": "address"
        },
        {
          "internalType": "address",
          "name": "_collateralToken",
          "type": "address"
        },
        {
          "internalType": "bool",
          "name": "_isLong",
          "type": "bool"
        },
        {
          "internalType": "uint256",
          "name": "_positionCollateral",
          "type": "uint256"
        },
        {
          "internalType": "uint256",
          "name": "_positionSize",
          "type": "uint256"
        },
        {
          "internalType": "uint256",
          "name": "_positionAveragePrice",
          "type": "uint256"
        },
        {
          "internalType": "uint256",
          "name": "_positionEntryFundingRate",
          "type": "uint256"
        }
      ],
      "name": "getPositionValueWithMargin",
      "outputs": [
        {
          "internalType": "uint256",
          "name": "",
          "type": "uint256"
        }
      ],
      "stateMutability": "view",
      "type": "function"
    },
    {
      "inputs": [],
      "name": "getPositions",
      "outputs": [
        {
          "components": [
            {
              "internalType": "address",
              "name": "indexToken",
              "type": "address"
            },
            {
              "internalType": "address",
              "name": "collateralToken",
              "type": "address"
            },
            {
              "internalType": "bool",
              "name": "isLong",
              "type": "bool"
            }
          ],
          "internalType": "struct AbstractPosition.PositionData[]",
          "name": "",
          "type": "tuple[]"
        }
      ],
      "stateMutability": "view",
      "type": "function"
    },
    {
      "inputs": [
        {
          "internalType": "address",
          "name": "_account",
          "type": "address"
        },
        {
          "internalType": "uint256",
          "name": "_index",
          "type": "uint256"
        }
      ],
      "name": "getRequestKey",
      "outputs": [
        {
          "internalType": "bytes32",
          "name": "",
          "type": "bytes32"
        }
      ],
      "stateMutability": "pure",
      "type": "function"
    },
    {
      "inputs": [],
      "name": "gov",
      "outputs": [
        {
          "internalType": "address",
          "name": "",
          "type": "address"
        }
      ],
      "stateMutability": "view",
      "type": "function"
    },
    {
      "inputs": [],
      "name": "lendingContractAddress",
      "outputs": [
        {
          "internalType": "address",
          "name": "",
          "type": "address"
        }
      ],
      "stateMutability": "view",
      "type": "function"
    },
    {
      "inputs": [],
      "name": "liquidatePortfolio",
      "outputs": [],
      "stateMutability": "nonpayable",
      "type": "function"
    },
    {
      "inputs": [],
      "name": "minExecutionFee",
      "outputs": [
        {
          "internalType": "uint256",
          "name": "",
          "type": "uint256"
        }
      ],
      "stateMutability": "view",
      "type": "function"
    },
    {
      "inputs": [],
      "name": "orderBookAddress",
      "outputs": [
        {
          "internalType": "address",
          "name": "",
          "type": "address"
        }
      ],
      "stateMutability": "view",
      "type": "function"
    },
    {
      "inputs": [],
      "name": "ownerAddress",
      "outputs": [
        {
          "internalType": "address",
          "name": "",
          "type": "address"
        }
      ],
      "stateMutability": "view",
      "type": "function"
    },
    {
      "inputs": [],
      "name": "portfolioHealthFactor",
      "outputs": [
        {
          "internalType": "uint256",
          "name": "",
          "type": "uint256"
        }
      ],
      "stateMutability": "view",
      "type": "function"
    },
    {
      "inputs": [],
      "name": "positionRouterAddress",
      "outputs": [
        {
          "internalType": "address",
          "name": "",
          "type": "address"
        }
      ],
      "stateMutability": "view",
      "type": "function"
    },
    {
      "inputs": [],
      "name": "routerAddress",
      "outputs": [
        {
          "internalType": "address",
          "name": "",
          "type": "address"
        }
      ],
      "stateMutability": "view",
      "type": "function"
    },
    {
      "inputs": [
        {
          "internalType": "address",
          "name": "_lendingContractAddress",
          "type": "address"
        }
      ],
      "name": "setLendingContractAddress",
      "outputs": [],
      "stateMutability": "nonpayable",
      "type": "function"
    },
    {
      "inputs": [
        {
          "internalType": "uint256",
          "name": "_minExecutionFee",
          "type": "uint256"
        }
      ],
      "name": "setMinExecutionFee",
      "outputs": [],
      "stateMutability": "nonpayable",
      "type": "function"
    },
    {
      "inputs": [
        {
          "internalType": "address",
          "name": "newAddress",
          "type": "address"
        }
      ],
      "name": "setPositionRouterAddress",
      "outputs": [],
      "stateMutability": "nonpayable",
      "type": "function"
    },
    {
      "inputs": [
        {
          "internalType": "address",
          "name": "newAddress",
          "type": "address"
        }
      ],
      "name": "setRouterAddress",
      "outputs": [],
      "stateMutability": "nonpayable",
      "type": "function"
    },
    {
      "inputs": [
        {
          "internalType": "uint256",
          "name": "_minExecutionFee",
          "type": "uint256"
        }
      ],
      "name": "setVaultContractAddress",
      "outputs": [],
      "stateMutability": "nonpayable",
      "type": "function"
    },
    {
      "inputs": [
        {
          "internalType": "address",
          "name": "_wethAddress",
          "type": "address"
        }
      ],
      "name": "setWethAddress",
      "outputs": [],
      "stateMutability": "nonpayable",
      "type": "function"
    },
    {
      "inputs": [
        {
          "internalType": "address",
          "name": "_indexToken",
          "type": "address"
        },
        {
          "internalType": "address[]",
          "name": "_path",
          "type": "address[]"
        },
        {
          "internalType": "bool",
          "name": "_isLong",
          "type": "bool"
        }
      ],
      "name": "validateDecreasePosition",
      "outputs": [
        {
          "internalType": "bool",
          "name": "",
          "type": "bool"
        }
      ],
      "stateMutability": "view",
      "type": "function"
    },
    {
      "inputs": [],
      "name": "vaultContractAddress",
      "outputs": [
        {
          "internalType": "address",
          "name": "",
          "type": "address"
        }
      ],
      "stateMutability": "view",
      "type": "function"
    },
    {
      "inputs": [],
      "name": "wethAddress",
      "outputs": [
        {
          "internalType": "address",
          "name": "",
          "type": "address"
        }
      ],
      "stateMutability": "view",
      "type": "function"
    }
  ],
  "bytecode": "0x60806040526000600b553480156200001657600080fd5b5060405162004a4b38038062004a4b83398181016040528101906200003c919062000352565b876000806101000a81548173ffffffffffffffffffffffffffffffffffffffff021916908373ffffffffffffffffffffffffffffffffffffffff16021790555084600760006101000a81548173ffffffffffffffffffffffffffffffffffffffff021916908373ffffffffffffffffffffffffffffffffffffffff16021790555086600160006101000a81548173ffffffffffffffffffffffffffffffffffffffff021916908373ffffffffffffffffffffffffffffffffffffffff16021790555085600260006101000a81548173ffffffffffffffffffffffffffffffffffffffff021916908373ffffffffffffffffffffffffffffffffffffffff16021790555083600360006101000a81548173ffffffffffffffffffffffffffffffffffffffff021916908373ffffffffffffffffffffffffffffffffffffffff16021790555082600460006101000a81548173ffffffffffffffffffffffffffffffffffffffff021916908373ffffffffffffffffffffffffffffffffffffffff16021790555081600560006101000a81548173ffffffffffffffffffffffffffffffffffffffff021916908373ffffffffffffffffffffffffffffffffffffffff16021790555080600660006101000a81548173ffffffffffffffffffffffffffffffffffffffff021916908373ffffffffffffffffffffffffffffffffffffffff16021790555060008390508073ffffffffffffffffffffffffffffffffffffffff166338c74dd9600360009054906101000a900473ffffffffffffffffffffffffffffffffffffffff166040518263ffffffff1660e01b8152600401620002a591906200042c565b600060405180830381600087803b158015620002c057600080fd5b505af1158015620002d5573d6000803e3d6000fd5b5050505050505050505050505062000449565b600080fd5b600073ffffffffffffffffffffffffffffffffffffffff82169050919050565b60006200031a82620002ed565b9050919050565b6200032c816200030d565b81146200033857600080fd5b50565b6000815190506200034c8162000321565b92915050565b600080600080600080600080610100898b031215620003765762000375620002e8565b5b6000620003868b828c016200033b565b9850506020620003998b828c016200033b565b9750506040620003ac8b828c016200033b565b9650506060620003bf8b828c016200033b565b9550506080620003d28b828c016200033b565b94505060a0620003e58b828c016200033b565b93505060c0620003f88b828c016200033b565b92505060e06200040b8b828c016200033b565b9150509295985092959890939650565b62000426816200030d565b82525050565b60006020820190506200044360008301846200041b565b92915050565b6145f280620004596000396000f3fe6080604052600436106102255760003560e01c80638f84aa0911610123578063bcb81c3d116100ab578063d422b00f1161006f578063d422b00f146107f6578063e9f4454d14610821578063f838822514610860578063fc2cee621461089d578063ffb991b0146108c657610225565b8063bcb81c3d1461070b578063c019bf5e14610734578063ca2fc17c14610771578063d0e30db0146107af578063d3ec0be9146107b957610225565b8063a92ea0e0116100f2578063a92ea0e014610631578063a96e24231461065c578063af3ed34714610685578063b5627e42146106b5578063bb0498de146106e057610225565b80638f84aa0914610582578063937a0e4e146105ad5780639409d870146105dd578063a0f140341461060857610225565b8063584edf10116101b1578063725ba05211610175578063725ba052146104955780637379dbe6146104c05780637809baaf146104eb57806380275860146105165780638c1395f81461054157610225565b8063584edf10146103a957806362f8a3fe146103c057806363ae2103146103fd578063694c1cbc146104285780636e3990fc1461046557610225565b806313f2d128116101f857806313f2d128146102d65780633268cc56146102ff5780633ba32df41461032a57806341cb87fc146103555780634f0e0ef31461037e57610225565b8063052143e81461022a578063081752bb14610255578063126082cf1461028057806312d43a51146102ab575b600080fd5b34801561023657600080fd5b5061023f6108f1565b60405161024c9190612d58565b60405180910390f35b34801561026157600080fd5b5061026a6109a8565b6040516102779190612d8c565b60405180910390f35b34801561028c57600080fd5b506102956109ad565b6040516102a29190612d8c565b60405180910390f35b3480156102b757600080fd5b506102c06109b3565b6040516102cd9190612de8565b60405180910390f35b3480156102e257600080fd5b506102fd60048036038101906102f89190612e43565b6109d7565b005b34801561030b57600080fd5b50610314610a23565b6040516103219190612de8565b60405180910390f35b34801561033657600080fd5b5061033f610a49565b60405161034c9190612d8c565b60405180910390f35b34801561036157600080fd5b5061037c60048036038101906103779190612e43565b610d58565b005b34801561038a57600080fd5b50610393610da4565b6040516103a09190612de8565b60405180910390f35b3480156103b557600080fd5b506103be610dca565b005b3480156103cc57600080fd5b506103e760048036038101906103e29190612e9c565b6111f7565b6040516103f49190612ef5565b60405180910390f35b34801561040957600080fd5b5061041261122a565b60405161041f9190612d8c565b60405180910390f35b34801561043457600080fd5b5061044f600480360381019061044a9190612f3c565b611230565b60405161045c9190612d8c565b60405180910390f35b61047f600480360381019061047a919061314e565b611330565b60405161048c9190612ef5565b60405180910390f35b3480156104a157600080fd5b506104aa611491565b6040516104b79190612d8c565b60405180910390f35b3480156104cc57600080fd5b506104d5611497565b6040516104e29190612de8565b60405180910390f35b3480156104f757600080fd5b506105006114bd565b60405161050d9190612d8c565b60405180910390f35b34801561052257600080fd5b5061052b6114c2565b6040516105389190613343565b60405180910390f35b34801561054d57600080fd5b5061056860048036038101906105639190613365565b6115e8565b6040516105799594939291906133b8565b60405180910390f35b34801561058e57600080fd5b50610597611700565b6040516105a49190612de8565b60405180910390f35b6105c760048036038101906105c2919061340b565b611726565b6040516105d49190612d58565b60405180910390f35b3480156105e957600080fd5b506105f26118e5565b6040516105ff9190612de8565b60405180910390f35b34801561061457600080fd5b5061062f600480360381019061062a9190612e43565b61190b565b005b34801561063d57600080fd5b50610646611957565b6040516106539190612de8565b60405180910390f35b34801561066857600080fd5b50610683600480360381019061067e9190612e43565b61197d565b005b61069f600480360381019061069a919061351b565b6119c9565b6040516106ac9190612ef5565b60405180910390f35b3480156106c157600080fd5b506106ca611c85565b6040516106d79190612d8c565b60405180910390f35b3480156106ec57600080fd5b506106f5611c8b565b6040516107029190612d8c565b60405180910390f35b34801561071757600080fd5b50610732600480360381019061072d9190613616565b611e33565b005b34801561074057600080fd5b5061075b60048036038101906107569190613643565b611e45565b6040516107689190612d8c565b60405180910390f35b34801561077d57600080fd5b50610798600480360381019061079391906136e5565b612012565b6040516107a692919061374c565b60405180910390f35b6107b76122a0565b005b3480156107c557600080fd5b506107e060048036038101906107db9190613365565b6122a2565b6040516107ed9190612ef5565b60405180910390f35b34801561080257600080fd5b5061080b6122d8565b6040516108189190612de8565b60405180910390f35b34801561082d57600080fd5b5061084860048036038101906108439190613616565b6122fe565b60405161085793929190613775565b60405180910390f35b34801561086c57600080fd5b50610887600480360381019061088291906137ac565b612385565b6040516108949190612d58565b60405180910390f35b3480156108a957600080fd5b506108c460048036038101906108bf9190613616565b61252c565b005b3480156108d257600080fd5b506108db61253e565b6040516108e89190612d8c565b60405180910390f35b60008061090030600b546111f7565b9050600360009054906101000a900473ffffffffffffffffffffffffffffffffffffffff1673ffffffffffffffffffffffffffffffffffffffff16630d4d003d82306040518363ffffffff1660e01b815260040161095f92919061381b565b6020604051808303816000875af115801561097e573d6000803e3d6000fd5b505050506040513d601f19601f820116820180604052508101906109a29190613859565b91505090565b606481565b61271081565b60008054906101000a900473ffffffffffffffffffffffffffffffffffffffff1681565b6109df61264f565b80600260006101000a81548173ffffffffffffffffffffffffffffffffffffffff021916908373ffffffffffffffffffffffffffffffffffffffff16021790555050565b600460009054906101000a900473ffffffffffffffffffffffffffffffffffffffff1681565b600080600090506000805b600a80549050811015610c3e57600080600080610b2e600a8681548110610a7e57610a7d613886565b5b906000526020600020906002020160000160009054906101000a900473ffffffffffffffffffffffffffffffffffffffff16600a8781548110610ac457610ac3613886565b5b906000526020600020906002020160010160009054906101000a900473ffffffffffffffffffffffffffffffffffffffff16600a8881548110610b0a57610b09613886565b5b906000526020600020906002020160010160149054906101000a900460ff166115e8565b5093509350935093506000831115610c2757610c0b600a8681548110610b5757610b56613886565b5b906000526020600020906002020160000160009054906101000a900473ffffffffffffffffffffffffffffffffffffffff16600a8781548110610b9d57610b9c613886565b5b906000526020600020906002020160010160009054906101000a900473ffffffffffffffffffffffffffffffffffffffff16600a8881548110610be357610be2613886565b5b906000526020600020906002020160010160149054906101000a900460ff1686888787611e45565b87610c1691906138e4565b96508386610c2491906138e4565b95505b505050508080610c3690613918565b915050610a54565b506000600260009054906101000a900473ffffffffffffffffffffffffffffffffffffffff1673ffffffffffffffffffffffffffffffffffffffff1663db1e4ff8600760009054906101000a900473ffffffffffffffffffffffffffffffffffffffff166040518263ffffffff1660e01b8152600401610cbe9190612de8565b602060405180830381865afa158015610cdb573d6000803e3d6000fd5b505050506040513d601f19601f82011682018060405250810190610cff9190613975565b9050610d4d81610d3f610d30612710610d226064886126df90919063ffffffff16565b61275990919063ffffffff16565b866127a390919063ffffffff16565b6127a390919063ffffffff16565b925082935050505090565b610d6061264f565b80600460006101000a81548173ffffffffffffffffffffffffffffffffffffffff021916908373ffffffffffffffffffffffffffffffffffffffff16021790555050565b600160009054906101000a900473ffffffffffffffffffffffffffffffffffffffff1681565b6000610dd461253e565b90506127108110610e1a576040517f08c379a0000000000000000000000000000000000000000000000000000000008152600401610e11906139ff565b60405180910390fd5b60005b600a805490508110156111f357600080600080610ef7600a8681548110610e4757610e46613886565b5b906000526020600020906002020160000160009054906101000a900473ffffffffffffffffffffffffffffffffffffffff16600a8781548110610e8d57610e8c613886565b5b906000526020600020906002020160010160009054906101000a900473ffffffffffffffffffffffffffffffffffffffff16600a8881548110610ed357610ed2613886565b5b906000526020600020906002020160010160149054906101000a900460ff166115e8565b50935093509350935060008311156111dc576000610fd6600a8781548110610f2257610f21613886565b5b906000526020600020906002020160000160009054906101000a900473ffffffffffffffffffffffffffffffffffffffff16600a8881548110610f6857610f67613886565b5b906000526020600020906002020160010160009054906101000a900473ffffffffffffffffffffffffffffffffffffffff16600a8981548110610fae57610fad613886565b5b906000526020600020906002020160010160149054906101000a900460ff1687898888611e45565b90506000600a8781548110610fee57610fed613886565b5b906000526020600020906002020160010160149054906101000a900460ff1661110a576111056002600660009054906101000a900473ffffffffffffffffffffffffffffffffffffffff1673ffffffffffffffffffffffffffffffffffffffff1663e124e6d2600a8b8154811061106857611067613886565b5b906000526020600020906002020160000160009054906101000a900473ffffffffffffffffffffffffffffffffffffffff166040518263ffffffff1660e01b81526004016110b69190612de8565b602060405180830381865afa1580156110d3573d6000803e3d6000fd5b505050506040513d601f19601f820116820180604052508101906110f79190613975565b6126df90919063ffffffff16565b61110d565b60005b90506111d9600a888154811061112657611125613886565b5b906000526020600020906002020160000160009054906101000a900473ffffffffffffffffffffffffffffffffffffffff16600a898154811061116c5761116b613886565b5b906000526020600020906002020160010160009054906101000a900473ffffffffffffffffffffffffffffffffffffffff16600a8a815481106111b2576111b1613886565b5b906000526020600020906002020160010160149054906101000a900460ff168986866127ed565b50505b5050505080806111eb90613918565b915050610e1d565b5050565b6000828260405160200161120c929190613a88565b60405160208183030381529060405280519060200120905092915050565b60085481565b60008085036112425760009050611326565b600080600660009054906101000a900473ffffffffffffffffffffffffffffffffffffffff1673ffffffffffffffffffffffffffffffffffffffff16635c07eaab8a88888c896040518663ffffffff1660e01b81526004016112a8959493929190613ab4565b6040805180830381865afa1580156112c4573d6000803e3d6000fd5b505050506040513d601f19601f820116820180604052508101906112e89190613b07565b91509150811561130e57611305818861283f90919063ffffffff16565b92505050611326565b61132181886127a390919063ffffffff16565b925050505b9695505050505050565b6000600760009054906101000a900473ffffffffffffffffffffffffffffffffffffffff1673ffffffffffffffffffffffffffffffffffffffff163373ffffffffffffffffffffffffffffffffffffffff16146113c2576040517f08c379a00000000000000000000000000000000000000000000000000000000081526004016113b990613bb9565b60405180910390fd5b6113cd8a8a8861289d565b6000600360009054906101000a900473ffffffffffffffffffffffffffffffffffffffff1690508073ffffffffffffffffffffffffffffffffffffffff16635b88e8c6348d8d8d8d8d8d8d8d8d6040518b63ffffffff1660e01b815260040161143e99989796959493929190613c88565b60206040518083038185885af115801561145c573d6000803e3d6000fd5b50505050506040513d601f19601f820116820180604052508101906114819190613d31565b9150509998505050505050505050565b612af881565b600260009054906101000a900473ffffffffffffffffffffffffffffffffffffffff1681565b606481565b6060600a805480602002602001604051908101604052809291908181526020016000905b828210156115df57838290600052602060002090600202016040518060600160405290816000820160009054906101000a900473ffffffffffffffffffffffffffffffffffffffff1673ffffffffffffffffffffffffffffffffffffffff1673ffffffffffffffffffffffffffffffffffffffff1681526020016001820160009054906101000a900473ffffffffffffffffffffffffffffffffffffffff1673ffffffffffffffffffffffffffffffffffffffff1673ffffffffffffffffffffffffffffffffffffffff1681526020016001820160149054906101000a900460ff161515151581525050815260200190600101906114e6565b50505050905090565b60008060008060006115f8612cf8565b600660009054906101000a900473ffffffffffffffffffffffffffffffffffffffff1673ffffffffffffffffffffffffffffffffffffffff16634a3f088d308a8c8b6040518563ffffffff1660e01b81526004016116599493929190613d5e565b61010060405180830381865afa158015611677573d6000803e3d6000fd5b505050506040513d601f19601f8201168201806040525081019061169b9190613da3565b909192509091509050856000018660200187604001886060018960c0018581525085815250858152508581525085815250505050505080600001518160200151826040015183606001518460c001519550955095509550955050939792965093509350565b600760009054906101000a900473ffffffffffffffffffffffffffffffffffffffff1681565b6000600760009054906101000a900473ffffffffffffffffffffffffffffffffffffffff1673ffffffffffffffffffffffffffffffffffffffff163373ffffffffffffffffffffffffffffffffffffffff1614806117d15750600260009054906101000a900473ffffffffffffffffffffffffffffffffffffffff1673ffffffffffffffffffffffffffffffffffffffff163373ffffffffffffffffffffffffffffffffffffffff16145b611810576040517f08c379a000000000000000000000000000000000000000000000000000000000815260040161180790613ecb565b60405180910390fd5b833414611852576040517f08c379a000000000000000000000000000000000000000000000000000000000815260040161184990613f37565b60405180910390fd5b61185d8b8d8a612385565b61189c576040517f08c379a000000000000000000000000000000000000000000000000000000000815260040161189390613fc9565b60405180910390fd5b6118b26001600b5461283f90919063ffffffff16565b600b819055506118cb8c8c8c8c8c8c8c8c8c8c8c612a60565b506118d46108f1565b90509b9a5050505050505050505050565b600560009054906101000a900473ffffffffffffffffffffffffffffffffffffffff1681565b61191361264f565b80600360006101000a81548173ffffffffffffffffffffffffffffffffffffffff021916908373ffffffffffffffffffffffffffffffffffffffff16021790555050565b600660009054906101000a900473ffffffffffffffffffffffffffffffffffffffff1681565b61198561264f565b80600160006101000a81548173ffffffffffffffffffffffffffffffffffffffff021916908373ffffffffffffffffffffffffffffffffffffffff16021790555050565b6000600760009054906101000a900473ffffffffffffffffffffffffffffffffffffffff1673ffffffffffffffffffffffffffffffffffffffff163373ffffffffffffffffffffffffffffffffffffffff1614611a5b576040517f08c379a0000000000000000000000000000000000000000000000000000000008152600401611a5290613bb9565b60405180910390fd5b611a668b8b8861289d565b8a600081518110611a7a57611a79613886565b5b602002602001015173ffffffffffffffffffffffffffffffffffffffff166323b872dd33308c6040518463ffffffff1660e01b8152600401611abe93929190613fe9565b6020604051808303816000875af1158015611add573d6000803e3d6000fd5b505050506040513d601f19601f82011682018060405250810190611b019190613859565b508a600081518110611b1657611b15613886565b5b602002602001015173ffffffffffffffffffffffffffffffffffffffff1663095ea7b3600460009054906101000a900473ffffffffffffffffffffffffffffffffffffffff168b6040518363ffffffff1660e01b8152600401611b7a929190614020565b6020604051808303816000875af1158015611b99573d6000803e3d6000fd5b505050506040513d601f19601f82011682018060405250810190611bbd9190613859565b506000600360009054906101000a900473ffffffffffffffffffffffffffffffffffffffff1690508073ffffffffffffffffffffffffffffffffffffffff1663f2ae372f348e8e8e8e8e8e8e8e8e8e6040518c63ffffffff1660e01b8152600401611c319a99989796959493929190614049565b60206040518083038185885af1158015611c4f573d6000803e3d6000fd5b50505050506040513d601f19601f82011682018060405250810190611c749190613d31565b9150509a9950505050505050505050565b61271081565b6000806000905060005b600a80549050811015611e2b57600080600080611d6f600a8681548110611cbf57611cbe613886565b5b906000526020600020906002020160000160009054906101000a900473ffffffffffffffffffffffffffffffffffffffff16600a8781548110611d0557611d04613886565b5b906000526020600020906002020160010160009054906101000a900473ffffffffffffffffffffffffffffffffffffffff16600a8881548110611d4b57611d4a613886565b5b906000526020600020906002020160010160149054906101000a900460ff166115e8565b9450509350935093506000831115611e1457611e06600a8681548110611d9857611d97613886565b5b906000526020600020906002020160000160009054906101000a900473ffffffffffffffffffffffffffffffffffffffff16600a8781548110611dde57611ddd613886565b5b906000526020600020906002020160010160149054906101000a900460ff1685878686611230565b86611e1191906138e4565b95505b505050508080611e2390613918565b915050611c95565b508091505090565b611e3b61264f565b8060088190555050565b6000806000611e568a87878b612012565b915091506000600660009054906101000a900473ffffffffffffffffffffffffffffffffffffffff1673ffffffffffffffffffffffffffffffffffffffff1663cc5b81448b89886040518463ffffffff1660e01b8152600401611ebb939291906140ec565b602060405180830381865afa158015611ed8573d6000803e3d6000fd5b505050506040513d601f19601f82011682018060405250810190611efc9190613975565b9050600660009054906101000a900473ffffffffffffffffffffffffffffffffffffffff1673ffffffffffffffffffffffffffffffffffffffff166317bbf25c886040518263ffffffff1660e01b8152600401611f599190612d8c565b602060405180830381865afa158015611f76573d6000803e3d6000fd5b505050506040513d601f19601f82011682018060405250810190611f9a9190613975565b81611fa591906138e4565b90508215611fdc57611fd281611fc4848b61283f90919063ffffffff16565b6127a390919063ffffffff16565b9350505050612007565b61200181611ff3848b6127a390919063ffffffff16565b6127a390919063ffffffff16565b93505050505b979650505050505050565b60008060008411612058576040517f08c379a000000000000000000000000000000000000000000000000000000000815260040161204f90614195565b60405180910390fd5b60008361213b5761213661271061212861207e606461271061283f90919063ffffffff16565b600660009054906101000a900473ffffffffffffffffffffffffffffffffffffffff1673ffffffffffffffffffffffffffffffffffffffff1663e124e6d28c6040518263ffffffff1660e01b81526004016120d99190612de8565b602060405180830381865afa1580156120f6573d6000803e3d6000fd5b505050506040513d601f19601f8201168201806040525081019061211a9190613975565b6126df90919063ffffffff16565b61275990919063ffffffff16565b612213565b61221261271061220461215a60646127106127a390919063ffffffff16565b600660009054906101000a900473ffffffffffffffffffffffffffffffffffffffff1673ffffffffffffffffffffffffffffffffffffffff166381a612d68c6040518263ffffffff1660e01b81526004016121b59190612de8565b602060405180830381865afa1580156121d2573d6000803e3d6000fd5b505050506040513d601f19601f820116820180604052508101906121f69190613975565b6126df90919063ffffffff16565b61275990919063ffffffff16565b5b905060008186116122365761223186836127a390919063ffffffff16565b61224a565b61224982876127a390919063ffffffff16565b5b9050600061227387612265848b6126df90919063ffffffff16565b61275990919063ffffffff16565b90506000861561228757878411905061228d565b83881190505b8082955095505050505094509492505050565b565b60008383836040516020016122b9939291906141fd565b6040516020818303038152906040528051906020012090509392505050565b600360009054906101000a900473ffffffffffffffffffffffffffffffffffffffff1681565b600a818154811061230e57600080fd5b90600052602060002090600202016000915090508060000160009054906101000a900473ffffffffffffffffffffffffffffffffffffffff16908060010160009054906101000a900473ffffffffffffffffffffffffffffffffffffffff16908060010160149054906101000a900460ff16905083565b600080600260009054906101000a900473ffffffffffffffffffffffffffffffffffffffff1673ffffffffffffffffffffffffffffffffffffffff1663d04f246b600760009054906101000a900473ffffffffffffffffffffffffffffffffffffffff166040518263ffffffff1660e01b81526004016124059190612de8565b602060405180830381865afa158015612422573d6000803e3d6000fd5b505050506040513d601f19601f820116820180604052508101906124469190613975565b90506000810361245a576001915050612525565b600080600080612499898961247a60018c516127a390919063ffffffff16565b8151811061248b5761248a613886565b5b6020026020010151896115e8565b94505093509350935060006124ac610a49565b905060006124be8b8a87898888611230565b9050808210156124d8576000975050505050505050612525565b6000612513886125056127106124f786886127a390919063ffffffff16565b6126df90919063ffffffff16565b61275990919063ffffffff16565b9050612af88111985050505050505050505b9392505050565b61253461264f565b8060088190555050565b600080600260009054906101000a900473ffffffffffffffffffffffffffffffffffffffff1673ffffffffffffffffffffffffffffffffffffffff1663d04f246b600760009054906101000a900473ffffffffffffffffffffffffffffffffffffffff166040518263ffffffff1660e01b81526004016125be9190612de8565b602060405180830381865afa1580156125db573d6000803e3d6000fd5b505050506040513d601f19601f820116820180604052508101906125ff9190613975565b9050600061260b610a49565b9050600082036126205760009250505061264c565b61264782612639612710846126df90919063ffffffff16565b61275990919063ffffffff16565b925050505b90565b60008054906101000a900473ffffffffffffffffffffffffffffffffffffffff1673ffffffffffffffffffffffffffffffffffffffff163373ffffffffffffffffffffffffffffffffffffffff16146126dd576040517f08c379a00000000000000000000000000000000000000000000000000000000081526004016126d490614286565b60405180910390fd5b565b60008083036126f15760009050612753565b600082846126ff91906142a6565b905082848261270e9190614317565b1461274e576040517f08c379a0000000000000000000000000000000000000000000000000000000008152600401612745906143ba565b60405180910390fd5b809150505b92915050565b600061279b83836040518060400160405280601a81526020017f536166654d6174683a206469766973696f6e206279207a65726f000000000000815250612b2f565b905092915050565b60006127e583836040518060400160405280601e81526020017f536166654d6174683a207375627472616374696f6e206f766572666c6f770000815250612b92565b905092915050565b6128366127f986612bf6565b87848688600260009054906101000a900473ffffffffffffffffffffffffffffffffffffffff1687600060085461282f8f612c9e565b6000612a60565b50505050505050565b600080828461284e91906138e4565b905083811015612893576040517f08c379a000000000000000000000000000000000000000000000000000000000815260040161288a90614426565b60405180910390fd5b8091505092915050565b6000836128b5600186516127a390919063ffffffff16565b815181106128c6576128c5613886565b5b60200260200101519050600960006128df8584866122a2565b815260200190815260200160002060009054906101000a900460ff16612a5a57600a60405180606001604052808573ffffffffffffffffffffffffffffffffffffffff1681526020018373ffffffffffffffffffffffffffffffffffffffff168152602001841515815250908060018154018082558091505060019003906000526020600020906002020160009091909190915060008201518160000160006101000a81548173ffffffffffffffffffffffffffffffffffffffff021916908373ffffffffffffffffffffffffffffffffffffffff16021790555060208201518160010160006101000a81548173ffffffffffffffffffffffffffffffffffffffff021916908373ffffffffffffffffffffffffffffffffffffffff16021790555060408201518160010160146101000a81548160ff0219169083151502179055505050600160096000612a348685876122a2565b815260200190815260200160002060006101000a81548160ff0219169083151502179055505b50505050565b6000600360009054906101000a900473ffffffffffffffffffffffffffffffffffffffff1673ffffffffffffffffffffffffffffffffffffffff16637be7d141348e8e8e8e8e8e8e8e8e8e8e6040518d63ffffffff1660e01b8152600401612ad29b9a99989796959493929190614446565b60206040518083038185885af1158015612af0573d6000803e3d6000fd5b50505050506040513d601f19601f82011682018060405250810190612b159190613d31565b50612b1e6108f1565b90509b9a5050505050505050505050565b60008083118290612b76576040517f08c379a0000000000000000000000000000000000000000000000000000000008152600401612b6d9190614566565b60405180910390fd5b5060008385612b859190614317565b9050809150509392505050565b6000838311158290612bda576040517f08c379a0000000000000000000000000000000000000000000000000000000008152600401612bd19190614566565b60405180910390fd5b5060008385612be99190614588565b9050809150509392505050565b60606000600167ffffffffffffffff811115612c1557612c14612fdf565b5b604051908082528060200260200182016040528015612c435781602001602082028036833780820191505090505b5090508281600081518110612c5b57612c5a613886565b5b602002602001019073ffffffffffffffffffffffffffffffffffffffff16908173ffffffffffffffffffffffffffffffffffffffff168152505080915050919050565b6000600160009054906101000a900473ffffffffffffffffffffffffffffffffffffffff1673ffffffffffffffffffffffffffffffffffffffff168273ffffffffffffffffffffffffffffffffffffffff16149050919050565b60405180610100016040528060008152602001600081526020016000815260200160008152602001600081526020016000815260200160008152602001600081525090565b60008115159050919050565b612d5281612d3d565b82525050565b6000602082019050612d6d6000830184612d49565b92915050565b6000819050919050565b612d8681612d73565b82525050565b6000602082019050612da16000830184612d7d565b92915050565b600073ffffffffffffffffffffffffffffffffffffffff82169050919050565b6000612dd282612da7565b9050919050565b612de281612dc7565b82525050565b6000602082019050612dfd6000830184612dd9565b92915050565b6000604051905090565b600080fd5b600080fd5b612e2081612dc7565b8114612e2b57600080fd5b50565b600081359050612e3d81612e17565b92915050565b600060208284031215612e5957612e58612e0d565b5b6000612e6784828501612e2e565b91505092915050565b612e7981612d73565b8114612e8457600080fd5b50565b600081359050612e9681612e70565b92915050565b60008060408385031215612eb357612eb2612e0d565b5b6000612ec185828601612e2e565b9250506020612ed285828601612e87565b9150509250929050565b6000819050919050565b612eef81612edc565b82525050565b6000602082019050612f0a6000830184612ee6565b92915050565b612f1981612d3d565b8114612f2457600080fd5b50565b600081359050612f3681612f10565b92915050565b60008060008060008060c08789031215612f5957612f58612e0d565b5b6000612f6789828a01612e2e565b9650506020612f7889828a01612f27565b9550506040612f8989828a01612e87565b9450506060612f9a89828a01612e87565b9350506080612fab89828a01612e87565b92505060a0612fbc89828a01612e87565b9150509295509295509295565b600080fd5b6000601f19601f8301169050919050565b7f4e487b7100000000000000000000000000000000000000000000000000000000600052604160045260246000fd5b61301782612fce565b810181811067ffffffffffffffff8211171561303657613035612fdf565b5b80604052505050565b6000613049612e03565b9050613055828261300e565b919050565b600067ffffffffffffffff82111561307557613074612fdf565b5b602082029050602081019050919050565b600080fd5b600061309e6130998461305a565b61303f565b905080838252602082019050602084028301858111156130c1576130c0613086565b5b835b818110156130ea57806130d68882612e2e565b8452602084019350506020810190506130c3565b5050509392505050565b600082601f83011261310957613108612fc9565b5b813561311984826020860161308b565b91505092915050565b61312b81612edc565b811461313657600080fd5b50565b60008135905061314881613122565b92915050565b60008060008060008060008060006101208a8c03121561317157613170612e0d565b5b60008a013567ffffffffffffffff81111561318f5761318e612e12565b5b61319b8c828d016130f4565b99505060206131ac8c828d01612e2e565b98505060406131bd8c828d01612e87565b97505060606131ce8c828d01612e87565b96505060806131df8c828d01612f27565b95505060a06131f08c828d01612e87565b94505060c06132018c828d01612e87565b93505060e06132128c828d01613139565b9250506101006132248c828d01612e2e565b9150509295985092959850929598565b600081519050919050565b600082825260208201905092915050565b6000819050602082019050919050565b61326981612dc7565b82525050565b61327881612d3d565b82525050565b6060820160008201516132946000850182613260565b5060208201516132a76020850182613260565b5060408201516132ba604085018261326f565b50505050565b60006132cc838361327e565b60608301905092915050565b6000602082019050919050565b60006132f082613234565b6132fa818561323f565b935061330583613250565b8060005b8381101561333657815161331d88826132c0565b9750613328836132d8565b925050600181019050613309565b5085935050505092915050565b6000602082019050818103600083015261335d81846132e5565b905092915050565b60008060006060848603121561337e5761337d612e0d565b5b600061338c86828701612e2e565b935050602061339d86828701612e2e565b92505060406133ae86828701612f27565b9150509250925092565b600060a0820190506133cd6000830188612d7d565b6133da6020830187612d7d565b6133e76040830186612d7d565b6133f46060830185612d7d565b6134016080830184612d7d565b9695505050505050565b60008060008060008060008060008060006101608c8e03121561343157613430612e0d565b5b60008c013567ffffffffffffffff81111561344f5761344e612e12565b5b61345b8e828f016130f4565b9b5050602061346c8e828f01612e2e565b9a5050604061347d8e828f01612e87565b995050606061348e8e828f01612e87565b985050608061349f8e828f01612f27565b97505060a06134b08e828f01612e2e565b96505060c06134c18e828f01612e87565b95505060e06134d28e828f01612e87565b9450506101006134e48e828f01612e87565b9350506101206134f68e828f01612f27565b9250506101406135088e828f01612e2e565b9150509295989b509295989b9093969950565b6000806000806000806000806000806101408b8d03121561353f5761353e612e0d565b5b60008b013567ffffffffffffffff81111561355d5761355c612e12565b5b6135698d828e016130f4565b9a5050602061357a8d828e01612e2e565b995050604061358b8d828e01612e87565b985050606061359c8d828e01612e87565b97505060806135ad8d828e01612e87565b96505060a06135be8d828e01612f27565b95505060c06135cf8d828e01612e87565b94505060e06135e08d828e01612e87565b9350506101006135f28d828e01613139565b9250506101206136048d828e01612e2e565b9150509295989b9194979a5092959850565b60006020828403121561362c5761362b612e0d565b5b600061363a84828501612e87565b91505092915050565b600080600080600080600060e0888a03121561366257613661612e0d565b5b60006136708a828b01612e2e565b97505060206136818a828b01612e2e565b96505060406136928a828b01612f27565b95505060606136a38a828b01612e87565b94505060806136b48a828b01612e87565b93505060a06136c58a828b01612e87565b92505060c06136d68a828b01612e87565b91505092959891949750929550565b600080600080608085870312156136ff576136fe612e0d565b5b600061370d87828801612e2e565b945050602061371e87828801612e87565b935050604061372f87828801612e87565b925050606061374087828801612f27565b91505092959194509250565b60006040820190506137616000830185612d49565b61376e6020830184612d7d565b9392505050565b600060608201905061378a6000830186612dd9565b6137976020830185612dd9565b6137a46040830184612d49565b949350505050565b6000806000606084860312156137c5576137c4612e0d565b5b60006137d386828701612e2e565b935050602084013567ffffffffffffffff8111156137f4576137f3612e12565b5b613800868287016130f4565b925050604061381186828701612f27565b9150509250925092565b60006040820190506138306000830185612ee6565b61383d6020830184612dd9565b9392505050565b60008151905061385381612f10565b92915050565b60006020828403121561386f5761386e612e0d565b5b600061387d84828501613844565b91505092915050565b7f4e487b7100000000000000000000000000000000000000000000000000000000600052603260045260246000fd5b7f4e487b7100000000000000000000000000000000000000000000000000000000600052601160045260246000fd5b60006138ef82612d73565b91506138fa83612d73565b9250828201905080821115613912576139116138b5565b5b92915050565b600061392382612d73565b91507fffffffffffffffffffffffffffffffffffffffffffffffffffffffffffffffff8203613955576139546138b5565b5b600182019050919050565b60008151905061396f81612e70565b92915050565b60006020828403121561398b5761398a612e0d565b5b600061399984828501613960565b91505092915050565b600082825260208201905092915050565b7f6865616c746820666163746f7200000000000000000000000000000000000000600082015250565b60006139e9600d836139a2565b91506139f4826139b3565b602082019050919050565b60006020820190508181036000830152613a18816139dc565b9050919050565b60008160601b9050919050565b6000613a3782613a1f565b9050919050565b6000613a4982613a2c565b9050919050565b613a61613a5c82612dc7565b613a3e565b82525050565b6000819050919050565b613a82613a7d82612d73565b613a67565b82525050565b6000613a948285613a50565b601482019150613aa48284613a71565b6020820191508190509392505050565b600060a082019050613ac96000830188612dd9565b613ad66020830187612d7d565b613ae36040830186612d7d565b613af06060830185612d49565b613afd6080830184612d7d565b9695505050505050565b60008060408385031215613b1e57613b1d612e0d565b5b6000613b2c85828601613844565b9250506020613b3d85828601613960565b9150509250929050565b7f6f6e6c7920746865206f776e65722063616e2063616c6c20746869732066756e60008201527f6374696f6e000000000000000000000000000000000000000000000000000000602082015250565b6000613ba36025836139a2565b9150613bae82613b47565b604082019050919050565b60006020820190508181036000830152613bd281613b96565b9050919050565b600081519050919050565b600082825260208201905092915050565b6000819050602082019050919050565b6000613c118383613260565b60208301905092915050565b6000602082019050919050565b6000613c3582613bd9565b613c3f8185613be4565b9350613c4a83613bf5565b8060005b83811015613c7b578151613c628882613c05565b9750613c6d83613c1d565b925050600181019050613c4e565b5085935050505092915050565b6000610120820190508181036000830152613ca3818c613c2a565b9050613cb2602083018b612dd9565b613cbf604083018a612d7d565b613ccc6060830189612d7d565b613cd96080830188612d49565b613ce660a0830187612d7d565b613cf360c0830186612d7d565b613d0060e0830185612ee6565b613d0e610100830184612dd9565b9a9950505050505050505050565b600081519050613d2b81613122565b92915050565b600060208284031215613d4757613d46612e0d565b5b6000613d5584828501613d1c565b91505092915050565b6000608082019050613d736000830187612dd9565b613d806020830186612dd9565b613d8d6040830185612dd9565b613d9a6060830184612d49565b95945050505050565b600080600080600080600080610100898b031215613dc457613dc3612e0d565b5b6000613dd28b828c01613960565b9850506020613de38b828c01613960565b9750506040613df48b828c01613960565b9650506060613e058b828c01613960565b9550506080613e168b828c01613960565b94505060a0613e278b828c01613960565b93505060c0613e388b828c01613844565b92505060e0613e498b828c01613960565b9150509295985092959890939650565b7f6f6e6c7920746865206f776e6572206f7220676f762063616e2063616c6c207460008201527f6869732066756e6374696f6e0000000000000000000000000000000000000000602082015250565b6000613eb5602c836139a2565b9150613ec082613e59565b604082019050919050565b60006020820190508181036000830152613ee481613ea8565b9050919050565b7f6665650000000000000000000000000000000000000000000000000000000000600082015250565b6000613f216003836139a2565b9150613f2c82613eeb565b602082019050919050565b60006020820190508181036000830152613f5081613f14565b9050919050565b7f6c6f616e20616d6f756e7420646f6573206e6f74207065726d6974206c69717560008201527f69646174696f6e00000000000000000000000000000000000000000000000000602082015250565b6000613fb36027836139a2565b9150613fbe82613f57565b604082019050919050565b60006020820190508181036000830152613fe281613fa6565b9050919050565b6000606082019050613ffe6000830186612dd9565b61400b6020830185612dd9565b6140186040830184612d7d565b949350505050565b60006040820190506140356000830185612dd9565b6140426020830184612d7d565b9392505050565b6000610140820190508181036000830152614064818d613c2a565b9050614073602083018c612dd9565b614080604083018b612d7d565b61408d606083018a612d7d565b61409a6080830189612d7d565b6140a760a0830188612d49565b6140b460c0830187612d7d565b6140c160e0830186612d7d565b6140cf610100830185612ee6565b6140dd610120830184612dd9565b9b9a5050505050505050505050565b60006060820190506141016000830186612dd9565b61410e6020830185612d7d565b61411b6040830184612d7d565b949350505050565b7f617665726765207072696365206f6620706f736974696f6e2068617320746f2060008201527f62652067726561746572207468616e2030000000000000000000000000000000602082015250565b600061417f6031836139a2565b915061418a82614123565b604082019050919050565b600060208201905081810360008301526141ae81614172565b9050919050565b60008160f81b9050919050565b60006141cd826141b5565b9050919050565b60006141df826141c2565b9050919050565b6141f76141f282612d3d565b6141d4565b82525050565b60006142098286613a50565b6014820191506142198285613a50565b60148201915061422982846141e6565b600182019150819050949350505050565b7f6f6e6c7920676f762063616e2063616c6c20746869732066756e6374696f6e00600082015250565b6000614270601f836139a2565b915061427b8261423a565b602082019050919050565b6000602082019050818103600083015261429f81614263565b9050919050565b60006142b182612d73565b91506142bc83612d73565b92508282026142ca81612d73565b915082820484148315176142e1576142e06138b5565b5b5092915050565b7f4e487b7100000000000000000000000000000000000000000000000000000000600052601260045260246000fd5b600061432282612d73565b915061432d83612d73565b92508261433d5761433c6142e8565b5b828204905092915050565b7f536166654d6174683a206d756c7469706c69636174696f6e206f766572666c6f60008201527f7700000000000000000000000000000000000000000000000000000000000000602082015250565b60006143a46021836139a2565b91506143af82614348565b604082019050919050565b600060208201905081810360008301526143d381614397565b9050919050565b7f536166654d6174683a206164646974696f6e206f766572666c6f770000000000600082015250565b6000614410601b836139a2565b915061441b826143da565b602082019050919050565b6000602082019050818103600083015261443f81614403565b9050919050565b6000610160820190508181036000830152614461818e613c2a565b9050614470602083018d612dd9565b61447d604083018c612d7d565b61448a606083018b612d7d565b614497608083018a612d49565b6144a460a0830189612dd9565b6144b160c0830188612d7d565b6144be60e0830187612d7d565b6144cc610100830186612d7d565b6144da610120830185612d49565b6144e8610140830184612dd9565b9c9b505050505050505050505050565b600081519050919050565b60005b83811015614521578082015181840152602081019050614506565b60008484015250505050565b6000614538826144f8565b61454281856139a2565b9350614552818560208601614503565b61455b81612fce565b840191505092915050565b60006020820190508181036000830152614580818461452d565b905092915050565b600061459382612d73565b915061459e83612d73565b92508282039050818111156145b6576145b56138b5565b5b9291505056fea264697066735822122035c3658346c3595c9c248b0a94497446c0374ce19230b4fd39a2d8ff60e0b9ac64736f6c63430008110033",
  "linkReferences": {},
  "deployedLinkReferences": {}
}