{
  "_format": "hh-sol-artifact-1",
  "contractName": "AbstractPosition",
  "sourceName": "contracts/AbstractPosition.sol",
  "abi": [
    {
      "inputs": [
        {
          "internalType": "address",
          "name": "_gov",
          "type": "address"
        },
        {
          "internalType": "address",
          "name": "_lendingContractAddress",
          "type": "address"
        },
        {
          "internalType": "address",
          "name": "_ownerAddress",
          "type": "address"
        },
        {
          "internalType": "address",
          "name": "_positionRouterAddress",
          "type": "address"
        },
        {
          "internalType": "address",
          "name": "_routerAddress",
          "type": "address"
        },
        {
          "internalType": "address",
          "name": "_orderBookAddress",
          "type": "address"
        },
        {
          "internalType": "address",
          "name": "_vaultContractAddress",
          "type": "address"
        }
      ],
      "stateMutability": "nonpayable",
      "type": "constructor"
    },
    {
      "inputs": [],
      "name": "BASIS_POINTS_DIVISOR",
      "outputs": [
        {
          "internalType": "uint256",
          "name": "",
          "type": "uint256"
        }
      ],
      "stateMutability": "view",
      "type": "function"
    },
    {
      "inputs": [],
      "name": "L1",
      "outputs": [
        {
          "internalType": "uint256",
          "name": "",
          "type": "uint256"
        }
      ],
      "stateMutability": "view",
      "type": "function"
    },
    {
      "inputs": [],
      "name": "L2",
      "outputs": [
        {
          "internalType": "uint256",
          "name": "",
          "type": "uint256"
        }
      ],
      "stateMutability": "view",
      "type": "function"
    },
    {
      "inputs": [],
      "name": "MIN_HEALTH_FACTOR",
      "outputs": [
        {
          "internalType": "uint256",
          "name": "",
          "type": "uint256"
        }
      ],
      "stateMutability": "view",
      "type": "function"
    },
    {
      "inputs": [
        {
          "internalType": "address[]",
          "name": "_path",
          "type": "address[]"
        },
        {
          "internalType": "address",
          "name": "_indexToken",
          "type": "address"
        },
        {
          "internalType": "uint256",
          "name": "_collateralDelta",
          "type": "uint256"
        },
        {
          "internalType": "uint256",
          "name": "_sizeDelta",
          "type": "uint256"
        },
        {
          "internalType": "bool",
          "name": "_isLong",
          "type": "bool"
        },
        {
          "internalType": "address",
          "name": "_receiver",
          "type": "address"
        },
        {
          "internalType": "uint256",
          "name": "_acceptablePrice",
          "type": "uint256"
        },
        {
          "internalType": "uint256",
          "name": "_minOut",
          "type": "uint256"
        },
        {
          "internalType": "uint256",
          "name": "_executionFee",
          "type": "uint256"
        },
        {
          "internalType": "bool",
          "name": "_withdrawETH",
          "type": "bool"
        },
        {
          "internalType": "address",
          "name": "_callbackTarget",
          "type": "address"
        }
      ],
      "name": "callCreateDecreasePosition",
      "outputs": [
        {
          "internalType": "bytes32",
          "name": "",
          "type": "bytes32"
        }
      ],
      "stateMutability": "payable",
      "type": "function"
    },
    {
      "inputs": [
        {
          "internalType": "address[]",
          "name": "_path",
          "type": "address[]"
        },
        {
          "internalType": "address",
          "name": "_indexToken",
          "type": "address"
        },
        {
          "internalType": "uint256",
          "name": "_minOut",
          "type": "uint256"
        },
        {
          "internalType": "uint256",
          "name": "_sizeDelta",
          "type": "uint256"
        },
        {
          "internalType": "bool",
          "name": "_isLong",
          "type": "bool"
        },
        {
          "internalType": "uint256",
          "name": "_acceptablePrice",
          "type": "uint256"
        },
        {
          "internalType": "uint256",
          "name": "_executionFee",
          "type": "uint256"
        },
        {
          "internalType": "bytes32",
          "name": "_referralCode",
          "type": "bytes32"
        },
        {
          "internalType": "address",
          "name": "_callbackTarget",
          "type": "address"
        }
      ],
      "name": "callCreateIncreasePosition",
      "outputs": [
        {
          "internalType": "bytes32",
          "name": "",
          "type": "bytes32"
        }
      ],
      "stateMutability": "payable",
      "type": "function"
    },
    {
      "inputs": [],
      "name": "deposit",
      "outputs": [],
      "stateMutability": "payable",
      "type": "function"
    },
    {
      "inputs": [
        {
          "internalType": "uint256",
          "name": "",
          "type": "uint256"
        }
      ],
      "name": "existingPositions",
      "outputs": [
        {
          "internalType": "address",
          "name": "indexToken",
          "type": "address"
        },
        {
          "internalType": "bool",
          "name": "isLong",
          "type": "bool"
        }
      ],
      "stateMutability": "view",
      "type": "function"
    },
    {
      "inputs": [
        {
          "internalType": "address",
          "name": "_indexToken",
          "type": "address"
        },
        {
          "internalType": "uint256",
          "name": "_size",
          "type": "uint256"
        },
        {
          "internalType": "uint256",
          "name": "_averagePrice",
          "type": "uint256"
        },
        {
          "internalType": "bool",
          "name": "_isLong",
          "type": "bool"
        }
      ],
      "name": "getDeltaWithMargin",
      "outputs": [
        {
          "internalType": "bool",
          "name": "",
          "type": "bool"
        },
        {
          "internalType": "uint256",
          "name": "",
          "type": "uint256"
        }
      ],
      "stateMutability": "view",
      "type": "function"
    },
    {
      "inputs": [],
      "name": "getPortfolioValue",
      "outputs": [
        {
          "internalType": "uint256",
          "name": "",
          "type": "uint256"
        }
      ],
      "stateMutability": "view",
      "type": "function"
    },
    {
      "inputs": [],
      "name": "getPortfolioValueWithMargin",
      "outputs": [
        {
          "internalType": "uint256",
          "name": "",
          "type": "uint256"
        }
      ],
      "stateMutability": "view",
      "type": "function"
    },
    {
      "inputs": [
        {
          "internalType": "address",
          "name": "_indexToken",
          "type": "address"
        },
        {
          "internalType": "bool",
          "name": "_isLong",
          "type": "bool"
        }
      ],
      "name": "getPosition",
      "outputs": [
        {
          "internalType": "uint256",
          "name": "",
          "type": "uint256"
        },
        {
          "internalType": "uint256",
          "name": "",
          "type": "uint256"
        },
        {
          "internalType": "uint256",
          "name": "",
          "type": "uint256"
        },
        {
          "internalType": "uint256",
          "name": "",
          "type": "uint256"
        }
      ],
      "stateMutability": "view",
      "type": "function"
    },
    {
      "inputs": [
        {
          "internalType": "uint256",
          "name": "_positionCollateral",
          "type": "uint256"
        },
        {
          "internalType": "address",
          "name": "_indexToken",
          "type": "address"
        },
        {
          "internalType": "uint256",
          "name": "_positionSize",
          "type": "uint256"
        },
        {
          "internalType": "uint256",
          "name": "_positionAveragePrice",
          "type": "uint256"
        },
        {
          "internalType": "bool",
          "name": "_isLong",
          "type": "bool"
        },
        {
          "internalType": "uint256",
          "name": "_positionLastIncreasedTime",
          "type": "uint256"
        }
      ],
      "name": "getPositionValue",
      "outputs": [
        {
          "internalType": "uint256",
          "name": "",
          "type": "uint256"
        }
      ],
      "stateMutability": "view",
      "type": "function"
    },
    {
      "inputs": [
        {
          "internalType": "uint256",
          "name": "_positionCollateral",
          "type": "uint256"
        },
        {
          "internalType": "address",
          "name": "_indexToken",
          "type": "address"
        },
        {
          "internalType": "uint256",
          "name": "_positionSize",
          "type": "uint256"
        },
        {
          "internalType": "uint256",
          "name": "_positionAveragePrice",
          "type": "uint256"
        },
        {
          "internalType": "bool",
          "name": "_isLong",
          "type": "bool"
        }
      ],
      "name": "getPositionValueWithMargin",
      "outputs": [
        {
          "internalType": "uint256",
          "name": "",
          "type": "uint256"
        }
      ],
      "stateMutability": "view",
      "type": "function"
    },
    {
      "inputs": [],
      "name": "getPositios",
      "outputs": [
        {
          "components": [
            {
              "internalType": "address",
              "name": "indexToken",
              "type": "address"
            },
            {
              "internalType": "bool",
              "name": "isLong",
              "type": "bool"
            }
          ],
          "internalType": "struct AbstractPosition.PositionData[]",
          "name": "",
          "type": "tuple[]"
        }
      ],
      "stateMutability": "view",
      "type": "function"
    },
    {
      "inputs": [],
      "name": "gov",
      "outputs": [
        {
          "internalType": "address",
          "name": "",
          "type": "address"
        }
      ],
      "stateMutability": "view",
      "type": "function"
    },
    {
      "inputs": [],
      "name": "lendingContractAddress",
      "outputs": [
        {
          "internalType": "address",
          "name": "",
          "type": "address"
        }
      ],
      "stateMutability": "view",
      "type": "function"
    },
    {
      "inputs": [],
      "name": "minExecutionFee",
      "outputs": [
        {
          "internalType": "uint256",
          "name": "",
          "type": "uint256"
        }
      ],
      "stateMutability": "view",
      "type": "function"
    },
    {
      "inputs": [],
      "name": "orderBookAddress",
      "outputs": [
        {
          "internalType": "address",
          "name": "",
          "type": "address"
        }
      ],
      "stateMutability": "view",
      "type": "function"
    },
    {
      "inputs": [],
      "name": "ownerAddress",
      "outputs": [
        {
          "internalType": "address",
          "name": "",
          "type": "address"
        }
      ],
      "stateMutability": "view",
      "type": "function"
    },
    {
      "inputs": [],
      "name": "portfolioHealthFactor",
      "outputs": [
        {
          "internalType": "uint256",
          "name": "",
          "type": "uint256"
        }
      ],
      "stateMutability": "view",
      "type": "function"
    },
    {
      "inputs": [],
      "name": "positionRouterAddress",
      "outputs": [
        {
          "internalType": "address",
          "name": "",
          "type": "address"
        }
      ],
      "stateMutability": "view",
      "type": "function"
    },
    {
      "inputs": [],
      "name": "routerAddress",
      "outputs": [
        {
          "internalType": "address",
          "name": "",
          "type": "address"
        }
      ],
      "stateMutability": "view",
      "type": "function"
    },
    {
      "inputs": [
        {
          "internalType": "address",
          "name": "_lendingContractAddress",
          "type": "address"
        }
      ],
      "name": "setLendingContractAddress",
      "outputs": [],
      "stateMutability": "nonpayable",
      "type": "function"
    },
    {
      "inputs": [
        {
          "internalType": "uint256",
          "name": "_minExecutionFee",
          "type": "uint256"
        }
      ],
      "name": "setMinExecutionFee",
      "outputs": [],
      "stateMutability": "nonpayable",
      "type": "function"
    },
    {
      "inputs": [
        {
          "internalType": "address",
          "name": "newAddress",
          "type": "address"
        }
      ],
      "name": "setPositionRouterAddress",
      "outputs": [],
      "stateMutability": "nonpayable",
      "type": "function"
    },
    {
      "inputs": [
        {
          "internalType": "address",
          "name": "newAddress",
          "type": "address"
        }
      ],
      "name": "setRouterAddress",
      "outputs": [],
      "stateMutability": "nonpayable",
      "type": "function"
    },
    {
      "inputs": [
        {
          "internalType": "uint256",
          "name": "_minExecutionFee",
          "type": "uint256"
        }
      ],
      "name": "setVaultContractAddress",
      "outputs": [],
      "stateMutability": "nonpayable",
      "type": "function"
    },
    {
      "inputs": [],
      "name": "vaultContractAddress",
      "outputs": [
        {
          "internalType": "address",
          "name": "",
          "type": "address"
        }
      ],
      "stateMutability": "view",
      "type": "function"
    }
  ],
  "bytecode": "0x60806040523480156200001157600080fd5b50604051620032a2380380620032a283398181016040528101906200003791906200030b565b866000806101000a81548173ffffffffffffffffffffffffffffffffffffffff021916908373ffffffffffffffffffffffffffffffffffffffff16021790555084600660006101000a81548173ffffffffffffffffffffffffffffffffffffffff021916908373ffffffffffffffffffffffffffffffffffffffff16021790555085600160006101000a81548173ffffffffffffffffffffffffffffffffffffffff021916908373ffffffffffffffffffffffffffffffffffffffff16021790555083600260006101000a81548173ffffffffffffffffffffffffffffffffffffffff021916908373ffffffffffffffffffffffffffffffffffffffff16021790555082600360006101000a81548173ffffffffffffffffffffffffffffffffffffffff021916908373ffffffffffffffffffffffffffffffffffffffff16021790555081600460006101000a81548173ffffffffffffffffffffffffffffffffffffffff021916908373ffffffffffffffffffffffffffffffffffffffff16021790555080600560006101000a81548173ffffffffffffffffffffffffffffffffffffffff021916908373ffffffffffffffffffffffffffffffffffffffff16021790555060008390508073ffffffffffffffffffffffffffffffffffffffff166338c74dd9600260009054906101000a900473ffffffffffffffffffffffffffffffffffffffff166040518263ffffffff1660e01b81526004016200025f9190620003cf565b600060405180830381600087803b1580156200027a57600080fd5b505af11580156200028f573d6000803e3d6000fd5b505050505050505050505050620003ec565b600080fd5b600073ffffffffffffffffffffffffffffffffffffffff82169050919050565b6000620002d382620002a6565b9050919050565b620002e581620002c6565b8114620002f157600080fd5b50565b6000815190506200030581620002da565b92915050565b600080600080600080600060e0888a0312156200032d576200032c620002a1565b5b60006200033d8a828b01620002f4565b9750506020620003508a828b01620002f4565b9650506040620003638a828b01620002f4565b9550506060620003768a828b01620002f4565b9450506080620003898a828b01620002f4565b93505060a06200039c8a828b01620002f4565b92505060c0620003af8a828b01620002f4565b91505092959891949750929550565b620003c981620002c6565b82525050565b6000602082019050620003e66000830184620003be565b92915050565b612ea680620003fc6000396000f3fe6080604052600436106101c25760003560e01c80639409d870116100f7578063bcb81c3d11610095578063d0e30db011610064578063d0e30db01461065b578063d422b00f14610665578063fc2cee6214610690578063ffb991b0146106b9576101c2565b8063bcb81c3d14610589578063c968b70e146105b2578063ca2fc17c146105f2578063cf5ec73714610630576101c2565b8063b5627e42116100d1578063b5627e42146104b8578063b5ae3569146104e3578063bb0498de14610520578063bc3444441461054b576101c2565b80639409d87014610439578063a0f1403414610464578063a92ea0e01461048d576101c2565b806341cb87fc116101645780637379dbe61161013e5780637379dbe6146103885780637809baaf146103b35780638f84aa09146103de578063937a0e4e14610409576101c2565b806341cb87fc146102f757806363ae2103146103205780636a39ce901461034b576101c2565b806313f2d128116101a057806313f2d1281461024857806317a92e43146102715780633268cc56146102a15780633ba32df4146102cc576101c2565b8063081752bb146101c7578063126082cf146101f257806312d43a511461021d575b600080fd5b3480156101d357600080fd5b506101dc6106e4565b6040516101e99190611b4e565b60405180910390f35b3480156101fe57600080fd5b506102076106e9565b6040516102149190611b4e565b60405180910390f35b34801561022957600080fd5b506102326106ef565b60405161023f9190611baa565b60405180910390f35b34801561025457600080fd5b5061026f600480360381019061026a9190611c05565b610713565b005b61028b60048036038101906102869190611e25565b61075f565b6040516102989190611f1a565b60405180910390f35b3480156102ad57600080fd5b506102b6610972565b6040516102c39190611baa565b60405180910390f35b3480156102d857600080fd5b506102e1610998565b6040516102ee9190611b4e565b60405180910390f35b34801561030357600080fd5b5061031e60048036038101906103199190611c05565b610b27565b005b34801561032c57600080fd5b50610335610b73565b6040516103429190611b4e565b60405180910390f35b34801561035757600080fd5b50610372600480360381019061036d9190611f35565b610b79565b60405161037f9190611b4e565b60405180910390f35b34801561039457600080fd5b5061039d610c69565b6040516103aa9190611baa565b60405180910390f35b3480156103bf57600080fd5b506103c8610c8f565b6040516103d59190611b4e565b60405180910390f35b3480156103ea57600080fd5b506103f3610c94565b6040516104009190611baa565b60405180910390f35b610423600480360381019061041e9190611fc2565b610cba565b6040516104309190611f1a565b60405180910390f35b34801561044557600080fd5b5061044e610faa565b60405161045b9190611baa565b60405180910390f35b34801561047057600080fd5b5061048b60048036038101906104869190611c05565b610fd0565b005b34801561049957600080fd5b506104a261101c565b6040516104af9190611baa565b60405180910390f35b3480156104c457600080fd5b506104cd611042565b6040516104da9190611b4e565b60405180910390f35b3480156104ef57600080fd5b5061050a600480360381019061050591906120d2565b611048565b6040516105179190611b4e565b60405180910390f35b34801561052c57600080fd5b506105356110a0565b6040516105429190611b4e565b60405180910390f35b34801561055757600080fd5b50610572600480360381019061056d919061214d565b6111e7565b604051610580929190612189565b60405180910390f35b34801561059557600080fd5b506105b060048036038101906105ab919061214d565b611244565b005b3480156105be57600080fd5b506105d960048036038101906105d491906121b2565b611256565b6040516105e994939291906121f2565b60405180910390f35b3480156105fe57600080fd5b5061061960048036038101906106149190612237565b61135f565b60405161062792919061229e565b60405180910390f35b34801561063c57600080fd5b506106456115ed565b60405161065291906123c3565b60405180910390f35b6106636116b9565b005b34801561067157600080fd5b5061067a6116cf565b6040516106879190611baa565b60405180910390f35b34801561069c57600080fd5b506106b760048036038101906106b2919061214d565b6116f5565b005b3480156106c557600080fd5b506106ce611707565b6040516106db9190611b4e565b60405180910390f35b606481565b61271081565b60008054906101000a900473ffffffffffffffffffffffffffffffffffffffff1681565b61071b61182d565b80600160006101000a81548173ffffffffffffffffffffffffffffffffffffffff021916908373ffffffffffffffffffffffffffffffffffffffff16021790555050565b6000600660009054906101000a900473ffffffffffffffffffffffffffffffffffffffff1673ffffffffffffffffffffffffffffffffffffffff163373ffffffffffffffffffffffffffffffffffffffff16146107f1576040517f08c379a00000000000000000000000000000000000000000000000000000000081526004016107e890612468565b60405180910390fd5b600860405180604001604052808b73ffffffffffffffffffffffffffffffffffffffff1681526020018815158152509080600181540180825580915050600190039060005260206000200160009091909190915060008201518160000160006101000a81548173ffffffffffffffffffffffffffffffffffffffff021916908373ffffffffffffffffffffffffffffffffffffffff16021790555060208201518160000160146101000a81548160ff02191690831515021790555050506000600260009054906101000a900473ffffffffffffffffffffffffffffffffffffffff1690508073ffffffffffffffffffffffffffffffffffffffff16635b88e8c6348d8d8d8d8d8d8d8d8d6040518b63ffffffff1660e01b815260040161091f99989796959493929190612537565b60206040518083038185885af115801561093d573d6000803e3d6000fd5b50505050506040513d601f19601f8201168201806040525081019061096291906125e0565b9150509998505050505050505050565b600360009054906101000a900473ffffffffffffffffffffffffffffffffffffffff1681565b600080600090506000805b600880549050811015610ae2576000806000610a2e600885815481106109cc576109cb61260d565b5b9060005260206000200160000160009054906101000a900473ffffffffffffffffffffffffffffffffffffffff1660088681548110610a0e57610a0d61260d565b5b9060005260206000200160000160149054906101000a900460ff16611256565b50925092509250610ab18260088681548110610a4d57610a4c61260d565b5b9060005260206000200160000160009054906101000a900473ffffffffffffffffffffffffffffffffffffffff16858460088981548110610a9157610a9061260d565b5b9060005260206000200160000160149054906101000a900460ff16611048565b86610abc919061266b565b95508285610aca919061266b565b94505050508080610ada9061269f565b9150506109a3565b50610b1d610b0e612710610b006064856118bd90919063ffffffff16565b61193790919063ffffffff16565b8361198190919063ffffffff16565b9150819250505090565b610b2f61182d565b80600360006101000a81548173ffffffffffffffffffffffffffffffffffffffff021916908373ffffffffffffffffffffffffffffffffffffffff16021790555050565b60075481565b6000806000600560009054906101000a900473ffffffffffffffffffffffffffffffffffffffff1673ffffffffffffffffffffffffffffffffffffffff16635c07eaab89898989896040518663ffffffff1660e01b8152600401610be19594939291906126e7565b6040805180830381865afa158015610bfd573d6000803e3d6000fd5b505050506040513d601f19601f82011682018060405250810190610c219190612764565b915091508115610c4757610c3e818a6119cb90919063ffffffff16565b92505050610c5f565b610c5a818a61198190919063ffffffff16565b925050505b9695505050505050565b600160009054906101000a900473ffffffffffffffffffffffffffffffffffffffff1681565b606481565b600660009054906101000a900473ffffffffffffffffffffffffffffffffffffffff1681565b6000600660009054906101000a900473ffffffffffffffffffffffffffffffffffffffff1673ffffffffffffffffffffffffffffffffffffffff163373ffffffffffffffffffffffffffffffffffffffff161480610d655750600160009054906101000a900473ffffffffffffffffffffffffffffffffffffffff1673ffffffffffffffffffffffffffffffffffffffff163373ffffffffffffffffffffffffffffffffffffffff16145b610da4576040517f08c379a0000000000000000000000000000000000000000000000000000000008152600401610d9b90612816565b60405180910390fd5b833414610de6576040517f08c379a0000000000000000000000000000000000000000000000000000000008152600401610ddd90612882565b60405180910390fd5b6000600160009054906101000a900473ffffffffffffffffffffffffffffffffffffffff1673ffffffffffffffffffffffffffffffffffffffff1663d04f246b600660009054906101000a900473ffffffffffffffffffffffffffffffffffffffff166040518263ffffffff1660e01b8152600401610e659190611baa565b602060405180830381865afa158015610e82573d6000803e3d6000fd5b505050506040513d601f19601f82011682018060405250810190610ea691906128a2565b14610ee6576040517f08c379a0000000000000000000000000000000000000000000000000000000008152600401610edd90612941565b60405180910390fd5b600260009054906101000a900473ffffffffffffffffffffffffffffffffffffffff1673ffffffffffffffffffffffffffffffffffffffff16637be7d141348e8e8e8e8e8e8e8e8e8e8e6040518d63ffffffff1660e01b8152600401610f569b9a99989796959493929190612961565b60206040518083038185885af1158015610f74573d6000803e3d6000fd5b50505050506040513d601f19601f82011682018060405250810190610f9991906125e0565b90509b9a5050505050505050505050565b600460009054906101000a900473ffffffffffffffffffffffffffffffffffffffff1681565b610fd861182d565b80600260006101000a81548173ffffffffffffffffffffffffffffffffffffffff021916908373ffffffffffffffffffffffffffffffffffffffff16021790555050565b600560009054906101000a900473ffffffffffffffffffffffffffffffffffffffff1681565b61271081565b60008060006110598787878761135f565b91509150811561107f5761107681896119cb90919063ffffffff16565b92505050611097565b611092818961198190919063ffffffff16565b925050505b95945050505050565b6000806000905060005b6008805490508110156111df57600080600080611136600886815481106110d4576110d361260d565b5b9060005260206000200160000160009054906101000a900473ffffffffffffffffffffffffffffffffffffffff16600887815481106111165761111561260d565b5b9060005260206000200160000160149054906101000a900460ff16611256565b93509350935093506111bb83600887815481106111565761115561260d565b5b9060005260206000200160000160009054906101000a900473ffffffffffffffffffffffffffffffffffffffff16868560088a8154811061119a5761119961260d565b5b9060005260206000200160000160149054906101000a900460ff1686610b79565b866111c6919061266b565b95505050505080806111d79061269f565b9150506110aa565b508091505090565b600881815481106111f757600080fd5b906000526020600020016000915090508060000160009054906101000a900473ffffffffffffffffffffffffffffffffffffffff16908060000160149054906101000a900460ff16905082565b61124c61182d565b8060078190555050565b600080600080611264611af0565b600560009054906101000a900473ffffffffffffffffffffffffffffffffffffffff1673ffffffffffffffffffffffffffffffffffffffff16634a3f088d30898a8a6040518563ffffffff1660e01b81526004016112c59493929190612a13565b61010060405180830381865afa1580156112e3573d6000803e3d6000fd5b505050506040513d601f19601f820116820180604052508101906113079190612a58565b90919293509091925090915090508460000185602001866040018760c00184815250848152508481525084815250505050508060000151816020015182604001518360c0015194509450945094505092959194509250565b600080600084116113a5576040517f08c379a000000000000000000000000000000000000000000000000000000000815260040161139c90612b80565b60405180910390fd5b600083611488576114836127106114756113cb60646127106119cb90919063ffffffff16565b600560009054906101000a900473ffffffffffffffffffffffffffffffffffffffff1673ffffffffffffffffffffffffffffffffffffffff1663e124e6d28c6040518263ffffffff1660e01b81526004016114269190611baa565b602060405180830381865afa158015611443573d6000803e3d6000fd5b505050506040513d601f19601f8201168201806040525081019061146791906128a2565b6118bd90919063ffffffff16565b61193790919063ffffffff16565b611560565b61155f6127106115516114a7606461271061198190919063ffffffff16565b600560009054906101000a900473ffffffffffffffffffffffffffffffffffffffff1673ffffffffffffffffffffffffffffffffffffffff166381a612d68c6040518263ffffffff1660e01b81526004016115029190611baa565b602060405180830381865afa15801561151f573d6000803e3d6000fd5b505050506040513d601f19601f8201168201806040525081019061154391906128a2565b6118bd90919063ffffffff16565b61193790919063ffffffff16565b5b905060008186116115835761157e868361198190919063ffffffff16565b611597565b611596828761198190919063ffffffff16565b5b905060006115c0876115b2848b6118bd90919063ffffffff16565b61193790919063ffffffff16565b9050600086156115d45787841190506115da565b83881190505b8082955095505050505094509492505050565b60606008805480602002602001604051908101604052809291908181526020016000905b828210156116b0578382906000526020600020016040518060400160405290816000820160009054906101000a900473ffffffffffffffffffffffffffffffffffffffff1673ffffffffffffffffffffffffffffffffffffffff1673ffffffffffffffffffffffffffffffffffffffff1681526020016000820160149054906101000a900460ff16151515158152505081526020019060010190611611565b50505050905090565b670de0b6b3a764000034146116cd57600080fd5b565b600260009054906101000a900473ffffffffffffffffffffffffffffffffffffffff1681565b6116fd61182d565b8060078190555050565b600080600160009054906101000a900473ffffffffffffffffffffffffffffffffffffffff1673ffffffffffffffffffffffffffffffffffffffff1663d04f246b600660009054906101000a900473ffffffffffffffffffffffffffffffffffffffff166040518263ffffffff1660e01b81526004016117879190611baa565b602060405180830381865afa1580156117a4573d6000803e3d6000fd5b505050506040513d601f19601f820116820180604052508101906117c891906128a2565b905060006117d4610998565b90506117e9828261198190919063ffffffff16565b9050600082036117fe5760009250505061182a565b61182582611817612710846118bd90919063ffffffff16565b61193790919063ffffffff16565b925050505b90565b60008054906101000a900473ffffffffffffffffffffffffffffffffffffffff1673ffffffffffffffffffffffffffffffffffffffff163373ffffffffffffffffffffffffffffffffffffffff16146118bb576040517f08c379a00000000000000000000000000000000000000000000000000000000081526004016118b290612bec565b60405180910390fd5b565b60008083036118cf5760009050611931565b600082846118dd9190612c0c565b90508284826118ec9190612c7d565b1461192c576040517f08c379a000000000000000000000000000000000000000000000000000000000815260040161192390612d20565b60405180910390fd5b809150505b92915050565b600061197983836040518060400160405280601a81526020017f536166654d6174683a206469766973696f6e206279207a65726f000000000000815250611a29565b905092915050565b60006119c383836040518060400160405280601e81526020017f536166654d6174683a207375627472616374696f6e206f766572666c6f770000815250611a8c565b905092915050565b60008082846119da919061266b565b905083811015611a1f576040517f08c379a0000000000000000000000000000000000000000000000000000000008152600401611a1690612d8c565b60405180910390fd5b8091505092915050565b60008083118290611a70576040517f08c379a0000000000000000000000000000000000000000000000000000000008152600401611a679190612e1a565b60405180910390fd5b5060008385611a7f9190612c7d565b9050809150509392505050565b6000838311158290611ad4576040517f08c379a0000000000000000000000000000000000000000000000000000000008152600401611acb9190612e1a565b60405180910390fd5b5060008385611ae39190612e3c565b9050809150509392505050565b60405180610100016040528060008152602001600081526020016000815260200160008152602001600081526020016000815260200160008152602001600081525090565b6000819050919050565b611b4881611b35565b82525050565b6000602082019050611b636000830184611b3f565b92915050565b600073ffffffffffffffffffffffffffffffffffffffff82169050919050565b6000611b9482611b69565b9050919050565b611ba481611b89565b82525050565b6000602082019050611bbf6000830184611b9b565b92915050565b6000604051905090565b600080fd5b600080fd5b611be281611b89565b8114611bed57600080fd5b50565b600081359050611bff81611bd9565b92915050565b600060208284031215611c1b57611c1a611bcf565b5b6000611c2984828501611bf0565b91505092915050565b600080fd5b6000601f19601f8301169050919050565b7f4e487b7100000000000000000000000000000000000000000000000000000000600052604160045260246000fd5b611c8082611c37565b810181811067ffffffffffffffff82111715611c9f57611c9e611c48565b5b80604052505050565b6000611cb2611bc5565b9050611cbe8282611c77565b919050565b600067ffffffffffffffff821115611cde57611cdd611c48565b5b602082029050602081019050919050565b600080fd5b6000611d07611d0284611cc3565b611ca8565b90508083825260208201905060208402830185811115611d2a57611d29611cef565b5b835b81811015611d535780611d3f8882611bf0565b845260208401935050602081019050611d2c565b5050509392505050565b600082601f830112611d7257611d71611c32565b5b8135611d82848260208601611cf4565b91505092915050565b611d9481611b35565b8114611d9f57600080fd5b50565b600081359050611db181611d8b565b92915050565b60008115159050919050565b611dcc81611db7565b8114611dd757600080fd5b50565b600081359050611de981611dc3565b92915050565b6000819050919050565b611e0281611def565b8114611e0d57600080fd5b50565b600081359050611e1f81611df9565b92915050565b60008060008060008060008060006101208a8c031215611e4857611e47611bcf565b5b60008a013567ffffffffffffffff811115611e6657611e65611bd4565b5b611e728c828d01611d5d565b9950506020611e838c828d01611bf0565b9850506040611e948c828d01611da2565b9750506060611ea58c828d01611da2565b9650506080611eb68c828d01611dda565b95505060a0611ec78c828d01611da2565b94505060c0611ed88c828d01611da2565b93505060e0611ee98c828d01611e10565b925050610100611efb8c828d01611bf0565b9150509295985092959850929598565b611f1481611def565b82525050565b6000602082019050611f2f6000830184611f0b565b92915050565b60008060008060008060c08789031215611f5257611f51611bcf565b5b6000611f6089828a01611da2565b9650506020611f7189828a01611bf0565b9550506040611f8289828a01611da2565b9450506060611f9389828a01611da2565b9350506080611fa489828a01611dda565b92505060a0611fb589828a01611da2565b9150509295509295509295565b60008060008060008060008060008060006101608c8e031215611fe857611fe7611bcf565b5b60008c013567ffffffffffffffff81111561200657612005611bd4565b5b6120128e828f01611d5d565b9b505060206120238e828f01611bf0565b9a505060406120348e828f01611da2565b99505060606120458e828f01611da2565b98505060806120568e828f01611dda565b97505060a06120678e828f01611bf0565b96505060c06120788e828f01611da2565b95505060e06120898e828f01611da2565b94505061010061209b8e828f01611da2565b9350506101206120ad8e828f01611dda565b9250506101406120bf8e828f01611bf0565b9150509295989b509295989b9093969950565b600080600080600060a086880312156120ee576120ed611bcf565b5b60006120fc88828901611da2565b955050602061210d88828901611bf0565b945050604061211e88828901611da2565b935050606061212f88828901611da2565b925050608061214088828901611dda565b9150509295509295909350565b60006020828403121561216357612162611bcf565b5b600061217184828501611da2565b91505092915050565b61218381611db7565b82525050565b600060408201905061219e6000830185611b9b565b6121ab602083018461217a565b9392505050565b600080604083850312156121c9576121c8611bcf565b5b60006121d785828601611bf0565b92505060206121e885828601611dda565b9150509250929050565b60006080820190506122076000830187611b3f565b6122146020830186611b3f565b6122216040830185611b3f565b61222e6060830184611b3f565b95945050505050565b6000806000806080858703121561225157612250611bcf565b5b600061225f87828801611bf0565b945050602061227087828801611da2565b935050604061228187828801611da2565b925050606061229287828801611dda565b91505092959194509250565b60006040820190506122b3600083018561217a565b6122c06020830184611b3f565b9392505050565b600081519050919050565b600082825260208201905092915050565b6000819050602082019050919050565b6122fc81611b89565b82525050565b61230b81611db7565b82525050565b60408201600082015161232760008501826122f3565b50602082015161233a6020850182612302565b50505050565b600061234c8383612311565b60408301905092915050565b6000602082019050919050565b6000612370826122c7565b61237a81856122d2565b9350612385836122e3565b8060005b838110156123b657815161239d8882612340565b97506123a883612358565b925050600181019050612389565b5085935050505092915050565b600060208201905081810360008301526123dd8184612365565b905092915050565b600082825260208201905092915050565b7f6f6e6c7920746865206f776e65722063616e2063616c6c20746869732066756e60008201527f6374696f6e000000000000000000000000000000000000000000000000000000602082015250565b60006124526025836123e5565b915061245d826123f6565b604082019050919050565b6000602082019050818103600083015261248181612445565b9050919050565b600081519050919050565b600082825260208201905092915050565b6000819050602082019050919050565b60006124c083836122f3565b60208301905092915050565b6000602082019050919050565b60006124e482612488565b6124ee8185612493565b93506124f9836124a4565b8060005b8381101561252a57815161251188826124b4565b975061251c836124cc565b9250506001810190506124fd565b5085935050505092915050565b6000610120820190508181036000830152612552818c6124d9565b9050612561602083018b611b9b565b61256e604083018a611b3f565b61257b6060830189611b3f565b612588608083018861217a565b61259560a0830187611b3f565b6125a260c0830186611b3f565b6125af60e0830185611f0b565b6125bd610100830184611b9b565b9a9950505050505050505050565b6000815190506125da81611df9565b92915050565b6000602082840312156125f6576125f5611bcf565b5b6000612604848285016125cb565b91505092915050565b7f4e487b7100000000000000000000000000000000000000000000000000000000600052603260045260246000fd5b7f4e487b7100000000000000000000000000000000000000000000000000000000600052601160045260246000fd5b600061267682611b35565b915061268183611b35565b92508282019050808211156126995761269861263c565b5b92915050565b60006126aa82611b35565b91507fffffffffffffffffffffffffffffffffffffffffffffffffffffffffffffffff82036126dc576126db61263c565b5b600182019050919050565b600060a0820190506126fc6000830188611b9b565b6127096020830187611b3f565b6127166040830186611b3f565b612723606083018561217a565b6127306080830184611b3f565b9695505050505050565b60008151905061274981611dc3565b92915050565b60008151905061275e81611d8b565b92915050565b6000806040838503121561277b5761277a611bcf565b5b60006127898582860161273a565b925050602061279a8582860161274f565b9150509250929050565b7f6f6e6c7920746865206f776e6572206f7220676f762063616e2063616c6c207460008201527f6869732066756e6374696f6e0000000000000000000000000000000000000000602082015250565b6000612800602c836123e5565b915061280b826127a4565b604082019050919050565b6000602082019050818103600083015261282f816127f3565b9050919050565b7f6665650000000000000000000000000000000000000000000000000000000000600082015250565b600061286c6003836123e5565b915061287782612836565b602082019050919050565b6000602082019050818103600083015261289b8161285f565b9050919050565b6000602082840312156128b8576128b7611bcf565b5b60006128c68482850161274f565b91505092915050565b7f63616e2774206c6971756964617465706f736974696f6e20617320746865726560008201527f20697320616e206578697374696e67206c6f616e000000000000000000000000602082015250565b600061292b6034836123e5565b9150612936826128cf565b604082019050919050565b6000602082019050818103600083015261295a8161291e565b9050919050565b600061016082019050818103600083015261297c818e6124d9565b905061298b602083018d611b9b565b612998604083018c611b3f565b6129a5606083018b611b3f565b6129b2608083018a61217a565b6129bf60a0830189611b9b565b6129cc60c0830188611b3f565b6129d960e0830187611b3f565b6129e7610100830186611b3f565b6129f561012083018561217a565b612a03610140830184611b9b565b9c9b505050505050505050505050565b6000608082019050612a286000830187611b9b565b612a356020830186611b9b565b612a426040830185611b9b565b612a4f606083018461217a565b95945050505050565b600080600080600080600080610100898b031215612a7957612a78611bcf565b5b6000612a878b828c0161274f565b9850506020612a988b828c0161274f565b9750506040612aa98b828c0161274f565b9650506060612aba8b828c0161274f565b9550506080612acb8b828c0161274f565b94505060a0612adc8b828c0161274f565b93505060c0612aed8b828c0161273a565b92505060e0612afe8b828c0161274f565b9150509295985092959890939650565b7f617665726765207072696365206f6620706f736974696f6e2068617320746f2060008201527f62652067726561746572207468616e2030000000000000000000000000000000602082015250565b6000612b6a6031836123e5565b9150612b7582612b0e565b604082019050919050565b60006020820190508181036000830152612b9981612b5d565b9050919050565b7f6f6e6c7920676f762063616e2063616c6c20746869732066756e6374696f6e00600082015250565b6000612bd6601f836123e5565b9150612be182612ba0565b602082019050919050565b60006020820190508181036000830152612c0581612bc9565b9050919050565b6000612c1782611b35565b9150612c2283611b35565b9250828202612c3081611b35565b91508282048414831517612c4757612c4661263c565b5b5092915050565b7f4e487b7100000000000000000000000000000000000000000000000000000000600052601260045260246000fd5b6000612c8882611b35565b9150612c9383611b35565b925082612ca357612ca2612c4e565b5b828204905092915050565b7f536166654d6174683a206d756c7469706c69636174696f6e206f766572666c6f60008201527f7700000000000000000000000000000000000000000000000000000000000000602082015250565b6000612d0a6021836123e5565b9150612d1582612cae565b604082019050919050565b60006020820190508181036000830152612d3981612cfd565b9050919050565b7f536166654d6174683a206164646974696f6e206f766572666c6f770000000000600082015250565b6000612d76601b836123e5565b9150612d8182612d40565b602082019050919050565b60006020820190508181036000830152612da581612d69565b9050919050565b600081519050919050565b60005b83811015612dd5578082015181840152602081019050612dba565b60008484015250505050565b6000612dec82612dac565b612df681856123e5565b9350612e06818560208601612db7565b612e0f81611c37565b840191505092915050565b60006020820190508181036000830152612e348184612de1565b905092915050565b6000612e4782611b35565b9150612e5283611b35565b9250828203905081811115612e6a57612e6961263c565b5b9291505056fea2646970667358221220c4c8cc6ab45ca7e75836e125302d00970a88b303b1e14e4dac4fe58530f5065964736f6c63430008110033",
  "linkReferences": {},
  "deployedLinkReferences": {}
}