{
  "_format": "hh-sol-artifact-1",
  "contractName": "AbstractPosition",
  "sourceName": "contracts/AbstractPosition.sol",
  "abi": [
    {
      "inputs": [
        {
          "internalType": "address",
          "name": "_gov",
          "type": "address"
        },
        {
          "internalType": "address",
          "name": "_wethAddress",
          "type": "address"
        },
        {
          "internalType": "address",
          "name": "_lendingContractAddress",
          "type": "address"
        },
        {
          "internalType": "address",
          "name": "_ownerAddress",
          "type": "address"
        },
        {
          "internalType": "address",
          "name": "_positionRouterAddress",
          "type": "address"
        },
        {
          "internalType": "address",
          "name": "_routerAddress",
          "type": "address"
        },
        {
          "internalType": "address",
          "name": "_orderBookAddress",
          "type": "address"
        },
        {
          "internalType": "address",
          "name": "_vaultContractAddress",
          "type": "address"
        }
      ],
      "stateMutability": "nonpayable",
      "type": "constructor"
    },
    {
      "inputs": [],
      "name": "BASIS_POINTS_DIVISOR",
      "outputs": [
        {
          "internalType": "uint256",
          "name": "",
          "type": "uint256"
        }
      ],
      "stateMutability": "view",
      "type": "function"
    },
    {
      "inputs": [],
      "name": "L1",
      "outputs": [
        {
          "internalType": "uint256",
          "name": "",
          "type": "uint256"
        }
      ],
      "stateMutability": "view",
      "type": "function"
    },
    {
      "inputs": [],
      "name": "L2",
      "outputs": [
        {
          "internalType": "uint256",
          "name": "",
          "type": "uint256"
        }
      ],
      "stateMutability": "view",
      "type": "function"
    },
    {
      "inputs": [],
      "name": "MIN_DECREASE_HEALTH_FACTOR",
      "outputs": [
        {
          "internalType": "uint256",
          "name": "",
          "type": "uint256"
        }
      ],
      "stateMutability": "view",
      "type": "function"
    },
    {
      "inputs": [],
      "name": "MIN_HEALTH_FACTOR",
      "outputs": [
        {
          "internalType": "uint256",
          "name": "",
          "type": "uint256"
        }
      ],
      "stateMutability": "view",
      "type": "function"
    },
    {
      "inputs": [
        {
          "internalType": "address[]",
          "name": "_path",
          "type": "address[]"
        },
        {
          "internalType": "address",
          "name": "_indexToken",
          "type": "address"
        },
        {
          "internalType": "uint256",
          "name": "_collateralDelta",
          "type": "uint256"
        },
        {
          "internalType": "uint256",
          "name": "_sizeDelta",
          "type": "uint256"
        },
        {
          "internalType": "bool",
          "name": "_isLong",
          "type": "bool"
        },
        {
          "internalType": "address",
          "name": "_receiver",
          "type": "address"
        },
        {
          "internalType": "uint256",
          "name": "_acceptablePrice",
          "type": "uint256"
        },
        {
          "internalType": "uint256",
          "name": "_minOut",
          "type": "uint256"
        },
        {
          "internalType": "uint256",
          "name": "_executionFee",
          "type": "uint256"
        },
        {
          "internalType": "bool",
          "name": "_withdrawETH",
          "type": "bool"
        },
        {
          "internalType": "address",
          "name": "_callbackTarget",
          "type": "address"
        }
      ],
      "name": "callCreateDecreasePosition",
      "outputs": [
        {
          "internalType": "bool",
          "name": "",
          "type": "bool"
        }
      ],
      "stateMutability": "payable",
      "type": "function"
    },
    {
      "inputs": [
        {
          "internalType": "address[]",
          "name": "_path",
          "type": "address[]"
        },
        {
          "internalType": "address",
          "name": "_indexToken",
          "type": "address"
        },
        {
          "internalType": "uint256",
          "name": "_amountIn",
          "type": "uint256"
        },
        {
          "internalType": "uint256",
          "name": "_minOut",
          "type": "uint256"
        },
        {
          "internalType": "uint256",
          "name": "_sizeDelta",
          "type": "uint256"
        },
        {
          "internalType": "bool",
          "name": "_isLong",
          "type": "bool"
        },
        {
          "internalType": "uint256",
          "name": "_acceptablePrice",
          "type": "uint256"
        },
        {
          "internalType": "uint256",
          "name": "_executionFee",
          "type": "uint256"
        },
        {
          "internalType": "bytes32",
          "name": "_referralCode",
          "type": "bytes32"
        },
        {
          "internalType": "address",
          "name": "_callbackTarget",
          "type": "address"
        }
      ],
      "name": "callCreateIncreasePosition",
      "outputs": [
        {
          "internalType": "bytes32",
          "name": "",
          "type": "bytes32"
        }
      ],
      "stateMutability": "payable",
      "type": "function"
    },
    {
      "inputs": [
        {
          "internalType": "address[]",
          "name": "_path",
          "type": "address[]"
        },
        {
          "internalType": "address",
          "name": "_indexToken",
          "type": "address"
        },
        {
          "internalType": "uint256",
          "name": "_minOut",
          "type": "uint256"
        },
        {
          "internalType": "uint256",
          "name": "_sizeDelta",
          "type": "uint256"
        },
        {
          "internalType": "bool",
          "name": "_isLong",
          "type": "bool"
        },
        {
          "internalType": "uint256",
          "name": "_acceptablePrice",
          "type": "uint256"
        },
        {
          "internalType": "uint256",
          "name": "_executionFee",
          "type": "uint256"
        },
        {
          "internalType": "bytes32",
          "name": "_referralCode",
          "type": "bytes32"
        },
        {
          "internalType": "address",
          "name": "_callbackTarget",
          "type": "address"
        }
      ],
      "name": "callCreateIncreasePositionETH",
      "outputs": [
        {
          "internalType": "bytes32",
          "name": "",
          "type": "bytes32"
        }
      ],
      "stateMutability": "payable",
      "type": "function"
    },
    {
      "inputs": [],
      "name": "deposit",
      "outputs": [],
      "stateMutability": "payable",
      "type": "function"
    },
    {
      "inputs": [],
      "name": "executeDecreasePosition",
      "outputs": [
        {
          "internalType": "bool",
          "name": "",
          "type": "bool"
        }
      ],
      "stateMutability": "nonpayable",
      "type": "function"
    },
    {
      "inputs": [
        {
          "internalType": "uint256",
          "name": "",
          "type": "uint256"
        }
      ],
      "name": "existingPositionsData",
      "outputs": [
        {
          "internalType": "address",
          "name": "indexToken",
          "type": "address"
        },
        {
          "internalType": "address",
          "name": "collateralToken",
          "type": "address"
        },
        {
          "internalType": "bool",
          "name": "isLong",
          "type": "bool"
        }
      ],
      "stateMutability": "view",
      "type": "function"
    },
    {
      "inputs": [
        {
          "internalType": "address",
          "name": "_indexToken",
          "type": "address"
        },
        {
          "internalType": "uint256",
          "name": "_size",
          "type": "uint256"
        },
        {
          "internalType": "uint256",
          "name": "_averagePrice",
          "type": "uint256"
        },
        {
          "internalType": "bool",
          "name": "_isLong",
          "type": "bool"
        }
      ],
      "name": "getDeltaWithMargin",
      "outputs": [
        {
          "internalType": "bool",
          "name": "",
          "type": "bool"
        },
        {
          "internalType": "uint256",
          "name": "",
          "type": "uint256"
        }
      ],
      "stateMutability": "view",
      "type": "function"
    },
    {
      "inputs": [],
      "name": "getPortfolioValue",
      "outputs": [
        {
          "internalType": "uint256",
          "name": "",
          "type": "uint256"
        }
      ],
      "stateMutability": "view",
      "type": "function"
    },
    {
      "inputs": [],
      "name": "getPortfolioValueWithMargin",
      "outputs": [
        {
          "internalType": "uint256",
          "name": "",
          "type": "uint256"
        }
      ],
      "stateMutability": "view",
      "type": "function"
    },
    {
      "inputs": [
        {
          "internalType": "address",
          "name": "_indexToken",
          "type": "address"
        },
        {
          "internalType": "address",
          "name": "_collateralToken",
          "type": "address"
        },
        {
          "internalType": "bool",
          "name": "_isLong",
          "type": "bool"
        }
      ],
      "name": "getPositioKey",
      "outputs": [
        {
          "internalType": "bytes32",
          "name": "",
          "type": "bytes32"
        }
      ],
      "stateMutability": "pure",
      "type": "function"
    },
    {
      "inputs": [
        {
          "internalType": "address",
          "name": "_indexToken",
          "type": "address"
        },
        {
          "internalType": "address",
          "name": "_collateralToken",
          "type": "address"
        },
        {
          "internalType": "bool",
          "name": "_isLong",
          "type": "bool"
        }
      ],
      "name": "getPosition",
      "outputs": [
        {
          "internalType": "uint256",
          "name": "",
          "type": "uint256"
        },
        {
          "internalType": "uint256",
          "name": "",
          "type": "uint256"
        },
        {
          "internalType": "uint256",
          "name": "",
          "type": "uint256"
        },
        {
          "internalType": "uint256",
          "name": "",
          "type": "uint256"
        },
        {
          "internalType": "uint256",
          "name": "",
          "type": "uint256"
        }
      ],
      "stateMutability": "view",
      "type": "function"
    },
    {
      "inputs": [
        {
          "internalType": "address",
          "name": "_indexToken",
          "type": "address"
        },
        {
          "internalType": "bool",
          "name": "_isLong",
          "type": "bool"
        },
        {
          "internalType": "uint256",
          "name": "_positionCollateral",
          "type": "uint256"
        },
        {
          "internalType": "uint256",
          "name": "_positionSize",
          "type": "uint256"
        },
        {
          "internalType": "uint256",
          "name": "_positionAveragePrice",
          "type": "uint256"
        },
        {
          "internalType": "uint256",
          "name": "_positionLastIncreasedTime",
          "type": "uint256"
        }
      ],
      "name": "getPositionValue",
      "outputs": [
        {
          "internalType": "uint256",
          "name": "",
          "type": "uint256"
        }
      ],
      "stateMutability": "view",
      "type": "function"
    },
    {
      "inputs": [
        {
          "internalType": "address",
          "name": "_indexToken",
          "type": "address"
        },
        {
          "internalType": "address",
          "name": "_collateralToken",
          "type": "address"
        },
        {
          "internalType": "bool",
          "name": "_isLong",
          "type": "bool"
        },
        {
          "internalType": "uint256",
          "name": "_positionCollateral",
          "type": "uint256"
        },
        {
          "internalType": "uint256",
          "name": "_positionSize",
          "type": "uint256"
        },
        {
          "internalType": "uint256",
          "name": "_positionAveragePrice",
          "type": "uint256"
        },
        {
          "internalType": "uint256",
          "name": "_positionEntryFundingRate",
          "type": "uint256"
        }
      ],
      "name": "getPositionValueWithMargin",
      "outputs": [
        {
          "internalType": "uint256",
          "name": "",
          "type": "uint256"
        }
      ],
      "stateMutability": "view",
      "type": "function"
    },
    {
      "inputs": [],
      "name": "getPositions",
      "outputs": [
        {
          "components": [
            {
              "internalType": "address",
              "name": "indexToken",
              "type": "address"
            },
            {
              "internalType": "address",
              "name": "collateralToken",
              "type": "address"
            },
            {
              "internalType": "bool",
              "name": "isLong",
              "type": "bool"
            }
          ],
          "internalType": "struct AbstractPosition.PositionData[]",
          "name": "",
          "type": "tuple[]"
        }
      ],
      "stateMutability": "view",
      "type": "function"
    },
    {
      "inputs": [
        {
          "internalType": "address",
          "name": "_account",
          "type": "address"
        },
        {
          "internalType": "uint256",
          "name": "_index",
          "type": "uint256"
        }
      ],
      "name": "getRequestKey",
      "outputs": [
        {
          "internalType": "bytes32",
          "name": "",
          "type": "bytes32"
        }
      ],
      "stateMutability": "pure",
      "type": "function"
    },
    {
      "inputs": [],
      "name": "gov",
      "outputs": [
        {
          "internalType": "address",
          "name": "",
          "type": "address"
        }
      ],
      "stateMutability": "view",
      "type": "function"
    },
    {
      "inputs": [],
      "name": "lendingContractAddress",
      "outputs": [
        {
          "internalType": "address",
          "name": "",
          "type": "address"
        }
      ],
      "stateMutability": "view",
      "type": "function"
    },
    {
      "inputs": [],
      "name": "liquidatePortfolio",
      "outputs": [],
      "stateMutability": "nonpayable",
      "type": "function"
    },
    {
      "inputs": [],
      "name": "minExecutionFee",
      "outputs": [
        {
          "internalType": "uint256",
          "name": "",
          "type": "uint256"
        }
      ],
      "stateMutability": "view",
      "type": "function"
    },
    {
      "inputs": [],
      "name": "orderBookAddress",
      "outputs": [
        {
          "internalType": "address",
          "name": "",
          "type": "address"
        }
      ],
      "stateMutability": "view",
      "type": "function"
    },
    {
      "inputs": [],
      "name": "ownerAddress",
      "outputs": [
        {
          "internalType": "address",
          "name": "",
          "type": "address"
        }
      ],
      "stateMutability": "view",
      "type": "function"
    },
    {
      "inputs": [],
      "name": "portfolioHealthFactor",
      "outputs": [
        {
          "internalType": "uint256",
          "name": "",
          "type": "uint256"
        }
      ],
      "stateMutability": "view",
      "type": "function"
    },
    {
      "inputs": [],
      "name": "positionRouterAddress",
      "outputs": [
        {
          "internalType": "address",
          "name": "",
          "type": "address"
        }
      ],
      "stateMutability": "view",
      "type": "function"
    },
    {
      "inputs": [],
      "name": "routerAddress",
      "outputs": [
        {
          "internalType": "address",
          "name": "",
          "type": "address"
        }
      ],
      "stateMutability": "view",
      "type": "function"
    },
    {
      "inputs": [
        {
          "internalType": "address",
          "name": "_lendingContractAddress",
          "type": "address"
        }
      ],
      "name": "setLendingContractAddress",
      "outputs": [],
      "stateMutability": "nonpayable",
      "type": "function"
    },
    {
      "inputs": [
        {
          "internalType": "uint256",
          "name": "_minExecutionFee",
          "type": "uint256"
        }
      ],
      "name": "setMinExecutionFee",
      "outputs": [],
      "stateMutability": "nonpayable",
      "type": "function"
    },
    {
      "inputs": [
        {
          "internalType": "address",
          "name": "newAddress",
          "type": "address"
        }
      ],
      "name": "setPositionRouterAddress",
      "outputs": [],
      "stateMutability": "nonpayable",
      "type": "function"
    },
    {
      "inputs": [
        {
          "internalType": "address",
          "name": "newAddress",
          "type": "address"
        }
      ],
      "name": "setRouterAddress",
      "outputs": [],
      "stateMutability": "nonpayable",
      "type": "function"
    },
    {
      "inputs": [
        {
          "internalType": "address",
          "name": "_vaultContractAddress",
          "type": "address"
        }
      ],
      "name": "setVaultContractAddress",
      "outputs": [],
      "stateMutability": "nonpayable",
      "type": "function"
    },
    {
      "inputs": [
        {
          "internalType": "address",
          "name": "_wethAddress",
          "type": "address"
        }
      ],
      "name": "setWethAddress",
      "outputs": [],
      "stateMutability": "nonpayable",
      "type": "function"
    },
    {
      "inputs": [
        {
          "internalType": "address",
          "name": "_indexToken",
          "type": "address"
        },
        {
          "internalType": "address[]",
          "name": "_path",
          "type": "address[]"
        },
        {
          "internalType": "bool",
          "name": "_isLong",
          "type": "bool"
        }
      ],
      "name": "validateDecreasePosition",
      "outputs": [
        {
          "internalType": "bool",
          "name": "",
          "type": "bool"
        }
      ],
      "stateMutability": "view",
      "type": "function"
    },
    {
      "inputs": [],
      "name": "vaultContractAddress",
      "outputs": [
        {
          "internalType": "address",
          "name": "",
          "type": "address"
        }
      ],
      "stateMutability": "view",
      "type": "function"
    },
    {
      "inputs": [],
      "name": "wethAddress",
      "outputs": [
        {
          "internalType": "address",
          "name": "",
          "type": "address"
        }
      ],
      "stateMutability": "view",
      "type": "function"
    }
  ],
  "bytecode": "0x60806040526000600b553480156200001657600080fd5b5060405162004a8538038062004a8583398181016040528101906200003c919062000352565b876000806101000a81548173ffffffffffffffffffffffffffffffffffffffff021916908373ffffffffffffffffffffffffffffffffffffffff16021790555084600760006101000a81548173ffffffffffffffffffffffffffffffffffffffff021916908373ffffffffffffffffffffffffffffffffffffffff16021790555086600160006101000a81548173ffffffffffffffffffffffffffffffffffffffff021916908373ffffffffffffffffffffffffffffffffffffffff16021790555085600260006101000a81548173ffffffffffffffffffffffffffffffffffffffff021916908373ffffffffffffffffffffffffffffffffffffffff16021790555083600360006101000a81548173ffffffffffffffffffffffffffffffffffffffff021916908373ffffffffffffffffffffffffffffffffffffffff16021790555082600460006101000a81548173ffffffffffffffffffffffffffffffffffffffff021916908373ffffffffffffffffffffffffffffffffffffffff16021790555081600560006101000a81548173ffffffffffffffffffffffffffffffffffffffff021916908373ffffffffffffffffffffffffffffffffffffffff16021790555080600660006101000a81548173ffffffffffffffffffffffffffffffffffffffff021916908373ffffffffffffffffffffffffffffffffffffffff16021790555060008390508073ffffffffffffffffffffffffffffffffffffffff166338c74dd9600360009054906101000a900473ffffffffffffffffffffffffffffffffffffffff166040518263ffffffff1660e01b8152600401620002a591906200042c565b600060405180830381600087803b158015620002c057600080fd5b505af1158015620002d5573d6000803e3d6000fd5b5050505050505050505050505062000449565b600080fd5b600073ffffffffffffffffffffffffffffffffffffffff82169050919050565b60006200031a82620002ed565b9050919050565b6200032c816200030d565b81146200033857600080fd5b50565b6000815190506200034c8162000321565b92915050565b600080600080600080600080610100898b031215620003765762000375620002e8565b5b6000620003868b828c016200033b565b9850506020620003998b828c016200033b565b9750506040620003ac8b828c016200033b565b9650506060620003bf8b828c016200033b565b9550506080620003d28b828c016200033b565b94505060a0620003e58b828c016200033b565b93505060c0620003f88b828c016200033b565b92505060e06200040b8b828c016200033b565b9150509295985092959890939650565b62000426816200030d565b82525050565b60006020820190506200044360008301846200041b565b92915050565b61462c80620004596000396000f3fe6080604052600436106102255760003560e01c80638c1395f811610123578063bb0498de116100ab578063d422b00f1161006f578063d422b00f146107f6578063e9f4454d14610821578063f838822514610860578063fc2cee621461089d578063ffb991b0146108c657610225565b8063bb0498de14610709578063c019bf5e14610734578063ca2fc17c14610771578063d0e30db0146107af578063d3ec0be9146107b957610225565b8063a0f14034116100f2578063a0f1403414610631578063a92ea0e01461065a578063a96e242314610685578063af3ed347146106ae578063b5627e42146106de57610225565b80638c1395f81461056a5780638f84aa09146105ab578063937a0e4e146105d65780639409d8701461060657610225565b8063584edf10116101b1578063725ba05211610175578063725ba052146104955780637379dbe6146104c05780637809baaf146104eb5780638027586014610516578063871105cc1461054157610225565b8063584edf10146103a957806362f8a3fe146103c057806363ae2103146103fd578063694c1cbc146104285780636e3990fc1461046557610225565b806313f2d128116101f857806313f2d128146102d65780633268cc56146102ff5780633ba32df41461032a57806341cb87fc146103555780634f0e0ef31461037e57610225565b8063052143e81461022a578063081752bb14610255578063126082cf1461028057806312d43a51146102ab575b600080fd5b34801561023657600080fd5b5061023f6108f1565b60405161024c9190612d92565b60405180910390f35b34801561026157600080fd5b5061026a6109a8565b6040516102779190612dc6565b60405180910390f35b34801561028c57600080fd5b506102956109ad565b6040516102a29190612dc6565b60405180910390f35b3480156102b757600080fd5b506102c06109b3565b6040516102cd9190612e22565b60405180910390f35b3480156102e257600080fd5b506102fd60048036038101906102f89190612e7d565b6109d7565b005b34801561030b57600080fd5b50610314610a23565b6040516103219190612e22565b60405180910390f35b34801561033657600080fd5b5061033f610a49565b60405161034c9190612dc6565b60405180910390f35b34801561036157600080fd5b5061037c60048036038101906103779190612e7d565b610d58565b005b34801561038a57600080fd5b50610393610da4565b6040516103a09190612e22565b60405180910390f35b3480156103b557600080fd5b506103be610dca565b005b3480156103cc57600080fd5b506103e760048036038101906103e29190612ed6565b6111f7565b6040516103f49190612f2f565b60405180910390f35b34801561040957600080fd5b5061041261122a565b60405161041f9190612dc6565b60405180910390f35b34801561043457600080fd5b5061044f600480360381019061044a9190612f76565b611230565b60405161045c9190612dc6565b60405180910390f35b61047f600480360381019061047a9190613188565b611330565b60405161048c9190612f2f565b60405180910390f35b3480156104a157600080fd5b506104aa611491565b6040516104b79190612dc6565b60405180910390f35b3480156104cc57600080fd5b506104d5611497565b6040516104e29190612e22565b60405180910390f35b3480156104f757600080fd5b506105006114bd565b60405161050d9190612dc6565b60405180910390f35b34801561052257600080fd5b5061052b6114c2565b604051610538919061337d565b60405180910390f35b34801561054d57600080fd5b5061056860048036038101906105639190612e7d565b6115e8565b005b34801561057657600080fd5b50610591600480360381019061058c919061339f565b611634565b6040516105a29594939291906133f2565b60405180910390f35b3480156105b757600080fd5b506105c061174c565b6040516105cd9190612e22565b60405180910390f35b6105f060048036038101906105eb9190613445565b611772565b6040516105fd9190612d92565b60405180910390f35b34801561061257600080fd5b5061061b611931565b6040516106289190612e22565b60405180910390f35b34801561063d57600080fd5b5061065860048036038101906106539190612e7d565b611957565b005b34801561066657600080fd5b5061066f6119a3565b60405161067c9190612e22565b60405180910390f35b34801561069157600080fd5b506106ac60048036038101906106a79190612e7d565b6119c9565b005b6106c860048036038101906106c39190613555565b611a15565b6040516106d59190612f2f565b60405180910390f35b3480156106ea57600080fd5b506106f3611cd1565b6040516107009190612dc6565b60405180910390f35b34801561071557600080fd5b5061071e611cd7565b60405161072b9190612dc6565b60405180910390f35b34801561074057600080fd5b5061075b60048036038101906107569190613650565b611e7f565b6040516107689190612dc6565b60405180910390f35b34801561077d57600080fd5b50610798600480360381019061079391906136f2565b61204c565b6040516107a6929190613759565b60405180910390f35b6107b76122da565b005b3480156107c557600080fd5b506107e060048036038101906107db919061339f565b6122dc565b6040516107ed9190612f2f565b60405180910390f35b34801561080257600080fd5b5061080b612312565b6040516108189190612e22565b60405180910390f35b34801561082d57600080fd5b5061084860048036038101906108439190613782565b612338565b604051610857939291906137af565b60405180910390f35b34801561086c57600080fd5b50610887600480360381019061088291906137e6565b6123bf565b6040516108949190612d92565b60405180910390f35b3480156108a957600080fd5b506108c460048036038101906108bf9190613782565b612566565b005b3480156108d257600080fd5b506108db612578565b6040516108e89190612dc6565b60405180910390f35b60008061090030600b546111f7565b9050600360009054906101000a900473ffffffffffffffffffffffffffffffffffffffff1673ffffffffffffffffffffffffffffffffffffffff16630d4d003d82306040518363ffffffff1660e01b815260040161095f929190613855565b6020604051808303816000875af115801561097e573d6000803e3d6000fd5b505050506040513d601f19601f820116820180604052508101906109a29190613893565b91505090565b606481565b61271081565b60008054906101000a900473ffffffffffffffffffffffffffffffffffffffff1681565b6109df612689565b80600260006101000a81548173ffffffffffffffffffffffffffffffffffffffff021916908373ffffffffffffffffffffffffffffffffffffffff16021790555050565b600460009054906101000a900473ffffffffffffffffffffffffffffffffffffffff1681565b600080600090506000805b600a80549050811015610c3e57600080600080610b2e600a8681548110610a7e57610a7d6138c0565b5b906000526020600020906002020160000160009054906101000a900473ffffffffffffffffffffffffffffffffffffffff16600a8781548110610ac457610ac36138c0565b5b906000526020600020906002020160010160009054906101000a900473ffffffffffffffffffffffffffffffffffffffff16600a8881548110610b0a57610b096138c0565b5b906000526020600020906002020160010160149054906101000a900460ff16611634565b5093509350935093506000831115610c2757610c0b600a8681548110610b5757610b566138c0565b5b906000526020600020906002020160000160009054906101000a900473ffffffffffffffffffffffffffffffffffffffff16600a8781548110610b9d57610b9c6138c0565b5b906000526020600020906002020160010160009054906101000a900473ffffffffffffffffffffffffffffffffffffffff16600a8881548110610be357610be26138c0565b5b906000526020600020906002020160010160149054906101000a900460ff1686888787611e7f565b87610c16919061391e565b96508386610c24919061391e565b95505b505050508080610c3690613952565b915050610a54565b506000600260009054906101000a900473ffffffffffffffffffffffffffffffffffffffff1673ffffffffffffffffffffffffffffffffffffffff1663db1e4ff8600760009054906101000a900473ffffffffffffffffffffffffffffffffffffffff166040518263ffffffff1660e01b8152600401610cbe9190612e22565b602060405180830381865afa158015610cdb573d6000803e3d6000fd5b505050506040513d601f19601f82011682018060405250810190610cff91906139af565b9050610d4d81610d3f610d30612710610d2260648861271990919063ffffffff16565b61279390919063ffffffff16565b866127dd90919063ffffffff16565b6127dd90919063ffffffff16565b925082935050505090565b610d60612689565b80600460006101000a81548173ffffffffffffffffffffffffffffffffffffffff021916908373ffffffffffffffffffffffffffffffffffffffff16021790555050565b600160009054906101000a900473ffffffffffffffffffffffffffffffffffffffff1681565b6000610dd4612578565b90506127108110610e1a576040517f08c379a0000000000000000000000000000000000000000000000000000000008152600401610e1190613a39565b60405180910390fd5b60005b600a805490508110156111f357600080600080610ef7600a8681548110610e4757610e466138c0565b5b906000526020600020906002020160000160009054906101000a900473ffffffffffffffffffffffffffffffffffffffff16600a8781548110610e8d57610e8c6138c0565b5b906000526020600020906002020160010160009054906101000a900473ffffffffffffffffffffffffffffffffffffffff16600a8881548110610ed357610ed26138c0565b5b906000526020600020906002020160010160149054906101000a900460ff16611634565b50935093509350935060008311156111dc576000610fd6600a8781548110610f2257610f216138c0565b5b906000526020600020906002020160000160009054906101000a900473ffffffffffffffffffffffffffffffffffffffff16600a8881548110610f6857610f676138c0565b5b906000526020600020906002020160010160009054906101000a900473ffffffffffffffffffffffffffffffffffffffff16600a8981548110610fae57610fad6138c0565b5b906000526020600020906002020160010160149054906101000a900460ff1687898888611e7f565b90506000600a8781548110610fee57610fed6138c0565b5b906000526020600020906002020160010160149054906101000a900460ff1661110a576111056002600660009054906101000a900473ffffffffffffffffffffffffffffffffffffffff1673ffffffffffffffffffffffffffffffffffffffff1663e124e6d2600a8b81548110611068576110676138c0565b5b906000526020600020906002020160000160009054906101000a900473ffffffffffffffffffffffffffffffffffffffff166040518263ffffffff1660e01b81526004016110b69190612e22565b602060405180830381865afa1580156110d3573d6000803e3d6000fd5b505050506040513d601f19601f820116820180604052508101906110f791906139af565b61271990919063ffffffff16565b61110d565b60005b90506111d9600a8881548110611126576111256138c0565b5b906000526020600020906002020160000160009054906101000a900473ffffffffffffffffffffffffffffffffffffffff16600a898154811061116c5761116b6138c0565b5b906000526020600020906002020160010160009054906101000a900473ffffffffffffffffffffffffffffffffffffffff16600a8a815481106111b2576111b16138c0565b5b906000526020600020906002020160010160149054906101000a900460ff16898686612827565b50505b5050505080806111eb90613952565b915050610e1d565b5050565b6000828260405160200161120c929190613ac2565b60405160208183030381529060405280519060200120905092915050565b60085481565b60008085036112425760009050611326565b600080600660009054906101000a900473ffffffffffffffffffffffffffffffffffffffff1673ffffffffffffffffffffffffffffffffffffffff16635c07eaab8a88888c896040518663ffffffff1660e01b81526004016112a8959493929190613aee565b6040805180830381865afa1580156112c4573d6000803e3d6000fd5b505050506040513d601f19601f820116820180604052508101906112e89190613b41565b91509150811561130e57611305818861287990919063ffffffff16565b92505050611326565b61132181886127dd90919063ffffffff16565b925050505b9695505050505050565b6000600760009054906101000a900473ffffffffffffffffffffffffffffffffffffffff1673ffffffffffffffffffffffffffffffffffffffff163373ffffffffffffffffffffffffffffffffffffffff16146113c2576040517f08c379a00000000000000000000000000000000000000000000000000000000081526004016113b990613bf3565b60405180910390fd5b6113cd8a8a886128d7565b6000600360009054906101000a900473ffffffffffffffffffffffffffffffffffffffff1690508073ffffffffffffffffffffffffffffffffffffffff16635b88e8c6348d8d8d8d8d8d8d8d8d6040518b63ffffffff1660e01b815260040161143e99989796959493929190613cc2565b60206040518083038185885af115801561145c573d6000803e3d6000fd5b50505050506040513d601f19601f820116820180604052508101906114819190613d6b565b9150509998505050505050505050565b612af881565b600260009054906101000a900473ffffffffffffffffffffffffffffffffffffffff1681565b606481565b6060600a805480602002602001604051908101604052809291908181526020016000905b828210156115df57838290600052602060002090600202016040518060600160405290816000820160009054906101000a900473ffffffffffffffffffffffffffffffffffffffff1673ffffffffffffffffffffffffffffffffffffffff1673ffffffffffffffffffffffffffffffffffffffff1681526020016001820160009054906101000a900473ffffffffffffffffffffffffffffffffffffffff1673ffffffffffffffffffffffffffffffffffffffff1673ffffffffffffffffffffffffffffffffffffffff1681526020016001820160149054906101000a900460ff161515151581525050815260200190600101906114e6565b50505050905090565b6115f0612689565b80600660006101000a81548173ffffffffffffffffffffffffffffffffffffffff021916908373ffffffffffffffffffffffffffffffffffffffff16021790555050565b6000806000806000611644612d32565b600660009054906101000a900473ffffffffffffffffffffffffffffffffffffffff1673ffffffffffffffffffffffffffffffffffffffff16634a3f088d308a8c8b6040518563ffffffff1660e01b81526004016116a59493929190613d98565b61010060405180830381865afa1580156116c3573d6000803e3d6000fd5b505050506040513d601f19601f820116820180604052508101906116e79190613ddd565b909192509091509050856000018660200187604001886060018960c0018581525085815250858152508581525085815250505050505080600001518160200151826040015183606001518460c001519550955095509550955050939792965093509350565b600760009054906101000a900473ffffffffffffffffffffffffffffffffffffffff1681565b6000600760009054906101000a900473ffffffffffffffffffffffffffffffffffffffff1673ffffffffffffffffffffffffffffffffffffffff163373ffffffffffffffffffffffffffffffffffffffff16148061181d5750600260009054906101000a900473ffffffffffffffffffffffffffffffffffffffff1673ffffffffffffffffffffffffffffffffffffffff163373ffffffffffffffffffffffffffffffffffffffff16145b61185c576040517f08c379a000000000000000000000000000000000000000000000000000000000815260040161185390613f05565b60405180910390fd5b83341461189e576040517f08c379a000000000000000000000000000000000000000000000000000000000815260040161189590613f71565b60405180910390fd5b6118a98b8d8a6123bf565b6118e8576040517f08c379a00000000000000000000000000000000000000000000000000000000081526004016118df90614003565b60405180910390fd5b6118fe6001600b5461287990919063ffffffff16565b600b819055506119178c8c8c8c8c8c8c8c8c8c8c612a9a565b506119206108f1565b90509b9a5050505050505050505050565b600560009054906101000a900473ffffffffffffffffffffffffffffffffffffffff1681565b61195f612689565b80600360006101000a81548173ffffffffffffffffffffffffffffffffffffffff021916908373ffffffffffffffffffffffffffffffffffffffff16021790555050565b600660009054906101000a900473ffffffffffffffffffffffffffffffffffffffff1681565b6119d1612689565b80600160006101000a81548173ffffffffffffffffffffffffffffffffffffffff021916908373ffffffffffffffffffffffffffffffffffffffff16021790555050565b6000600760009054906101000a900473ffffffffffffffffffffffffffffffffffffffff1673ffffffffffffffffffffffffffffffffffffffff163373ffffffffffffffffffffffffffffffffffffffff1614611aa7576040517f08c379a0000000000000000000000000000000000000000000000000000000008152600401611a9e90613bf3565b60405180910390fd5b611ab28b8b886128d7565b8a600081518110611ac657611ac56138c0565b5b602002602001015173ffffffffffffffffffffffffffffffffffffffff166323b872dd33308c6040518463ffffffff1660e01b8152600401611b0a93929190614023565b6020604051808303816000875af1158015611b29573d6000803e3d6000fd5b505050506040513d601f19601f82011682018060405250810190611b4d9190613893565b508a600081518110611b6257611b616138c0565b5b602002602001015173ffffffffffffffffffffffffffffffffffffffff1663095ea7b3600460009054906101000a900473ffffffffffffffffffffffffffffffffffffffff168b6040518363ffffffff1660e01b8152600401611bc692919061405a565b6020604051808303816000875af1158015611be5573d6000803e3d6000fd5b505050506040513d601f19601f82011682018060405250810190611c099190613893565b506000600360009054906101000a900473ffffffffffffffffffffffffffffffffffffffff1690508073ffffffffffffffffffffffffffffffffffffffff1663f2ae372f348e8e8e8e8e8e8e8e8e8e6040518c63ffffffff1660e01b8152600401611c7d9a99989796959493929190614083565b60206040518083038185885af1158015611c9b573d6000803e3d6000fd5b50505050506040513d601f19601f82011682018060405250810190611cc09190613d6b565b9150509a9950505050505050505050565b61271081565b6000806000905060005b600a80549050811015611e7757600080600080611dbb600a8681548110611d0b57611d0a6138c0565b5b906000526020600020906002020160000160009054906101000a900473ffffffffffffffffffffffffffffffffffffffff16600a8781548110611d5157611d506138c0565b5b906000526020600020906002020160010160009054906101000a900473ffffffffffffffffffffffffffffffffffffffff16600a8881548110611d9757611d966138c0565b5b906000526020600020906002020160010160149054906101000a900460ff16611634565b9450509350935093506000831115611e6057611e52600a8681548110611de457611de36138c0565b5b906000526020600020906002020160000160009054906101000a900473ffffffffffffffffffffffffffffffffffffffff16600a8781548110611e2a57611e296138c0565b5b906000526020600020906002020160010160149054906101000a900460ff1685878686611230565b86611e5d919061391e565b95505b505050508080611e6f90613952565b915050611ce1565b508091505090565b6000806000611e908a87878b61204c565b915091506000600660009054906101000a900473ffffffffffffffffffffffffffffffffffffffff1673ffffffffffffffffffffffffffffffffffffffff1663cc5b81448b89886040518463ffffffff1660e01b8152600401611ef593929190614126565b602060405180830381865afa158015611f12573d6000803e3d6000fd5b505050506040513d601f19601f82011682018060405250810190611f3691906139af565b9050600660009054906101000a900473ffffffffffffffffffffffffffffffffffffffff1673ffffffffffffffffffffffffffffffffffffffff166317bbf25c886040518263ffffffff1660e01b8152600401611f939190612dc6565b602060405180830381865afa158015611fb0573d6000803e3d6000fd5b505050506040513d601f19601f82011682018060405250810190611fd491906139af565b81611fdf919061391e565b905082156120165761200c81611ffe848b61287990919063ffffffff16565b6127dd90919063ffffffff16565b9350505050612041565b61203b8161202d848b6127dd90919063ffffffff16565b6127dd90919063ffffffff16565b93505050505b979650505050505050565b60008060008411612092576040517f08c379a0000000000000000000000000000000000000000000000000000000008152600401612089906141cf565b60405180910390fd5b600083612175576121706127106121626120b8606461271061287990919063ffffffff16565b600660009054906101000a900473ffffffffffffffffffffffffffffffffffffffff1673ffffffffffffffffffffffffffffffffffffffff1663e124e6d28c6040518263ffffffff1660e01b81526004016121139190612e22565b602060405180830381865afa158015612130573d6000803e3d6000fd5b505050506040513d601f19601f8201168201806040525081019061215491906139af565b61271990919063ffffffff16565b61279390919063ffffffff16565b61224d565b61224c61271061223e61219460646127106127dd90919063ffffffff16565b600660009054906101000a900473ffffffffffffffffffffffffffffffffffffffff1673ffffffffffffffffffffffffffffffffffffffff166381a612d68c6040518263ffffffff1660e01b81526004016121ef9190612e22565b602060405180830381865afa15801561220c573d6000803e3d6000fd5b505050506040513d601f19601f8201168201806040525081019061223091906139af565b61271990919063ffffffff16565b61279390919063ffffffff16565b5b905060008186116122705761226b86836127dd90919063ffffffff16565b612284565b61228382876127dd90919063ffffffff16565b5b905060006122ad8761229f848b61271990919063ffffffff16565b61279390919063ffffffff16565b9050600086156122c15787841190506122c7565b83881190505b8082955095505050505094509492505050565b565b60008383836040516020016122f393929190614237565b6040516020818303038152906040528051906020012090509392505050565b600360009054906101000a900473ffffffffffffffffffffffffffffffffffffffff1681565b600a818154811061234857600080fd5b90600052602060002090600202016000915090508060000160009054906101000a900473ffffffffffffffffffffffffffffffffffffffff16908060010160009054906101000a900473ffffffffffffffffffffffffffffffffffffffff16908060010160149054906101000a900460ff16905083565b600080600260009054906101000a900473ffffffffffffffffffffffffffffffffffffffff1673ffffffffffffffffffffffffffffffffffffffff1663d04f246b600760009054906101000a900473ffffffffffffffffffffffffffffffffffffffff166040518263ffffffff1660e01b815260040161243f9190612e22565b602060405180830381865afa15801561245c573d6000803e3d6000fd5b505050506040513d601f19601f8201168201806040525081019061248091906139af565b90506000810361249457600191505061255f565b6000806000806124d389896124b460018c516127dd90919063ffffffff16565b815181106124c5576124c46138c0565b5b602002602001015189611634565b94505093509350935060006124e6610a49565b905060006124f88b8a87898888611230565b90508082101561251257600097505050505050505061255f565b600061254d8861253f61271061253186886127dd90919063ffffffff16565b61271990919063ffffffff16565b61279390919063ffffffff16565b9050612af88111985050505050505050505b9392505050565b61256e612689565b8060088190555050565b600080600260009054906101000a900473ffffffffffffffffffffffffffffffffffffffff1673ffffffffffffffffffffffffffffffffffffffff1663d04f246b600760009054906101000a900473ffffffffffffffffffffffffffffffffffffffff166040518263ffffffff1660e01b81526004016125f89190612e22565b602060405180830381865afa158015612615573d6000803e3d6000fd5b505050506040513d601f19601f8201168201806040525081019061263991906139af565b90506000612645610a49565b90506000820361265a57600092505050612686565b612681826126736127108461271990919063ffffffff16565b61279390919063ffffffff16565b925050505b90565b60008054906101000a900473ffffffffffffffffffffffffffffffffffffffff1673ffffffffffffffffffffffffffffffffffffffff163373ffffffffffffffffffffffffffffffffffffffff1614612717576040517f08c379a000000000000000000000000000000000000000000000000000000000815260040161270e906142c0565b60405180910390fd5b565b600080830361272b576000905061278d565b6000828461273991906142e0565b90508284826127489190614351565b14612788576040517f08c379a000000000000000000000000000000000000000000000000000000000815260040161277f906143f4565b60405180910390fd5b809150505b92915050565b60006127d583836040518060400160405280601a81526020017f536166654d6174683a206469766973696f6e206279207a65726f000000000000815250612b69565b905092915050565b600061281f83836040518060400160405280601e81526020017f536166654d6174683a207375627472616374696f6e206f766572666c6f770000815250612bcc565b905092915050565b61287061283386612c30565b87848688600260009054906101000a900473ffffffffffffffffffffffffffffffffffffffff168760006008546128698f612cd8565b6000612a9a565b50505050505050565b6000808284612888919061391e565b9050838110156128cd576040517f08c379a00000000000000000000000000000000000000000000000000000000081526004016128c490614460565b60405180910390fd5b8091505092915050565b6000836128ef600186516127dd90919063ffffffff16565b81518110612900576128ff6138c0565b5b60200260200101519050600960006129198584866122dc565b815260200190815260200160002060009054906101000a900460ff16612a9457600a60405180606001604052808573ffffffffffffffffffffffffffffffffffffffff1681526020018373ffffffffffffffffffffffffffffffffffffffff168152602001841515815250908060018154018082558091505060019003906000526020600020906002020160009091909190915060008201518160000160006101000a81548173ffffffffffffffffffffffffffffffffffffffff021916908373ffffffffffffffffffffffffffffffffffffffff16021790555060208201518160010160006101000a81548173ffffffffffffffffffffffffffffffffffffffff021916908373ffffffffffffffffffffffffffffffffffffffff16021790555060408201518160010160146101000a81548160ff0219169083151502179055505050600160096000612a6e8685876122dc565b815260200190815260200160002060006101000a81548160ff0219169083151502179055505b50505050565b6000600360009054906101000a900473ffffffffffffffffffffffffffffffffffffffff1673ffffffffffffffffffffffffffffffffffffffff16637be7d141348e8e8e8e8e8e8e8e8e8e8e6040518d63ffffffff1660e01b8152600401612b0c9b9a99989796959493929190614480565b60206040518083038185885af1158015612b2a573d6000803e3d6000fd5b50505050506040513d601f19601f82011682018060405250810190612b4f9190613d6b565b50612b586108f1565b90509b9a5050505050505050505050565b60008083118290612bb0576040517f08c379a0000000000000000000000000000000000000000000000000000000008152600401612ba791906145a0565b60405180910390fd5b5060008385612bbf9190614351565b9050809150509392505050565b6000838311158290612c14576040517f08c379a0000000000000000000000000000000000000000000000000000000008152600401612c0b91906145a0565b60405180910390fd5b5060008385612c2391906145c2565b9050809150509392505050565b60606000600167ffffffffffffffff811115612c4f57612c4e613019565b5b604051908082528060200260200182016040528015612c7d5781602001602082028036833780820191505090505b5090508281600081518110612c9557612c946138c0565b5b602002602001019073ffffffffffffffffffffffffffffffffffffffff16908173ffffffffffffffffffffffffffffffffffffffff168152505080915050919050565b6000600160009054906101000a900473ffffffffffffffffffffffffffffffffffffffff1673ffffffffffffffffffffffffffffffffffffffff168273ffffffffffffffffffffffffffffffffffffffff16149050919050565b60405180610100016040528060008152602001600081526020016000815260200160008152602001600081526020016000815260200160008152602001600081525090565b60008115159050919050565b612d8c81612d77565b82525050565b6000602082019050612da76000830184612d83565b92915050565b6000819050919050565b612dc081612dad565b82525050565b6000602082019050612ddb6000830184612db7565b92915050565b600073ffffffffffffffffffffffffffffffffffffffff82169050919050565b6000612e0c82612de1565b9050919050565b612e1c81612e01565b82525050565b6000602082019050612e376000830184612e13565b92915050565b6000604051905090565b600080fd5b600080fd5b612e5a81612e01565b8114612e6557600080fd5b50565b600081359050612e7781612e51565b92915050565b600060208284031215612e9357612e92612e47565b5b6000612ea184828501612e68565b91505092915050565b612eb381612dad565b8114612ebe57600080fd5b50565b600081359050612ed081612eaa565b92915050565b60008060408385031215612eed57612eec612e47565b5b6000612efb85828601612e68565b9250506020612f0c85828601612ec1565b9150509250929050565b6000819050919050565b612f2981612f16565b82525050565b6000602082019050612f446000830184612f20565b92915050565b612f5381612d77565b8114612f5e57600080fd5b50565b600081359050612f7081612f4a565b92915050565b60008060008060008060c08789031215612f9357612f92612e47565b5b6000612fa189828a01612e68565b9650506020612fb289828a01612f61565b9550506040612fc389828a01612ec1565b9450506060612fd489828a01612ec1565b9350506080612fe589828a01612ec1565b92505060a0612ff689828a01612ec1565b9150509295509295509295565b600080fd5b6000601f19601f8301169050919050565b7f4e487b7100000000000000000000000000000000000000000000000000000000600052604160045260246000fd5b61305182613008565b810181811067ffffffffffffffff821117156130705761306f613019565b5b80604052505050565b6000613083612e3d565b905061308f8282613048565b919050565b600067ffffffffffffffff8211156130af576130ae613019565b5b602082029050602081019050919050565b600080fd5b60006130d86130d384613094565b613079565b905080838252602082019050602084028301858111156130fb576130fa6130c0565b5b835b8181101561312457806131108882612e68565b8452602084019350506020810190506130fd565b5050509392505050565b600082601f83011261314357613142613003565b5b81356131538482602086016130c5565b91505092915050565b61316581612f16565b811461317057600080fd5b50565b6000813590506131828161315c565b92915050565b60008060008060008060008060006101208a8c0312156131ab576131aa612e47565b5b60008a013567ffffffffffffffff8111156131c9576131c8612e4c565b5b6131d58c828d0161312e565b99505060206131e68c828d01612e68565b98505060406131f78c828d01612ec1565b97505060606132088c828d01612ec1565b96505060806132198c828d01612f61565b95505060a061322a8c828d01612ec1565b94505060c061323b8c828d01612ec1565b93505060e061324c8c828d01613173565b92505061010061325e8c828d01612e68565b9150509295985092959850929598565b600081519050919050565b600082825260208201905092915050565b6000819050602082019050919050565b6132a381612e01565b82525050565b6132b281612d77565b82525050565b6060820160008201516132ce600085018261329a565b5060208201516132e1602085018261329a565b5060408201516132f460408501826132a9565b50505050565b600061330683836132b8565b60608301905092915050565b6000602082019050919050565b600061332a8261326e565b6133348185613279565b935061333f8361328a565b8060005b8381101561337057815161335788826132fa565b975061336283613312565b925050600181019050613343565b5085935050505092915050565b60006020820190508181036000830152613397818461331f565b905092915050565b6000806000606084860312156133b8576133b7612e47565b5b60006133c686828701612e68565b93505060206133d786828701612e68565b92505060406133e886828701612f61565b9150509250925092565b600060a0820190506134076000830188612db7565b6134146020830187612db7565b6134216040830186612db7565b61342e6060830185612db7565b61343b6080830184612db7565b9695505050505050565b60008060008060008060008060008060006101608c8e03121561346b5761346a612e47565b5b60008c013567ffffffffffffffff81111561348957613488612e4c565b5b6134958e828f0161312e565b9b505060206134a68e828f01612e68565b9a505060406134b78e828f01612ec1565b99505060606134c88e828f01612ec1565b98505060806134d98e828f01612f61565b97505060a06134ea8e828f01612e68565b96505060c06134fb8e828f01612ec1565b95505060e061350c8e828f01612ec1565b94505061010061351e8e828f01612ec1565b9350506101206135308e828f01612f61565b9250506101406135428e828f01612e68565b9150509295989b509295989b9093969950565b6000806000806000806000806000806101408b8d03121561357957613578612e47565b5b60008b013567ffffffffffffffff81111561359757613596612e4c565b5b6135a38d828e0161312e565b9a505060206135b48d828e01612e68565b99505060406135c58d828e01612ec1565b98505060606135d68d828e01612ec1565b97505060806135e78d828e01612ec1565b96505060a06135f88d828e01612f61565b95505060c06136098d828e01612ec1565b94505060e061361a8d828e01612ec1565b93505061010061362c8d828e01613173565b92505061012061363e8d828e01612e68565b9150509295989b9194979a5092959850565b600080600080600080600060e0888a03121561366f5761366e612e47565b5b600061367d8a828b01612e68565b975050602061368e8a828b01612e68565b965050604061369f8a828b01612f61565b95505060606136b08a828b01612ec1565b94505060806136c18a828b01612ec1565b93505060a06136d28a828b01612ec1565b92505060c06136e38a828b01612ec1565b91505092959891949750929550565b6000806000806080858703121561370c5761370b612e47565b5b600061371a87828801612e68565b945050602061372b87828801612ec1565b935050604061373c87828801612ec1565b925050606061374d87828801612f61565b91505092959194509250565b600060408201905061376e6000830185612d83565b61377b6020830184612db7565b9392505050565b60006020828403121561379857613797612e47565b5b60006137a684828501612ec1565b91505092915050565b60006060820190506137c46000830186612e13565b6137d16020830185612e13565b6137de6040830184612d83565b949350505050565b6000806000606084860312156137ff576137fe612e47565b5b600061380d86828701612e68565b935050602084013567ffffffffffffffff81111561382e5761382d612e4c565b5b61383a8682870161312e565b925050604061384b86828701612f61565b9150509250925092565b600060408201905061386a6000830185612f20565b6138776020830184612e13565b9392505050565b60008151905061388d81612f4a565b92915050565b6000602082840312156138a9576138a8612e47565b5b60006138b78482850161387e565b91505092915050565b7f4e487b7100000000000000000000000000000000000000000000000000000000600052603260045260246000fd5b7f4e487b7100000000000000000000000000000000000000000000000000000000600052601160045260246000fd5b600061392982612dad565b915061393483612dad565b925082820190508082111561394c5761394b6138ef565b5b92915050565b600061395d82612dad565b91507fffffffffffffffffffffffffffffffffffffffffffffffffffffffffffffffff820361398f5761398e6138ef565b5b600182019050919050565b6000815190506139a981612eaa565b92915050565b6000602082840312156139c5576139c4612e47565b5b60006139d38482850161399a565b91505092915050565b600082825260208201905092915050565b7f6865616c746820666163746f7200000000000000000000000000000000000000600082015250565b6000613a23600d836139dc565b9150613a2e826139ed565b602082019050919050565b60006020820190508181036000830152613a5281613a16565b9050919050565b60008160601b9050919050565b6000613a7182613a59565b9050919050565b6000613a8382613a66565b9050919050565b613a9b613a9682612e01565b613a78565b82525050565b6000819050919050565b613abc613ab782612dad565b613aa1565b82525050565b6000613ace8285613a8a565b601482019150613ade8284613aab565b6020820191508190509392505050565b600060a082019050613b036000830188612e13565b613b106020830187612db7565b613b1d6040830186612db7565b613b2a6060830185612d83565b613b376080830184612db7565b9695505050505050565b60008060408385031215613b5857613b57612e47565b5b6000613b668582860161387e565b9250506020613b778582860161399a565b9150509250929050565b7f6f6e6c7920746865206f776e65722063616e2063616c6c20746869732066756e60008201527f6374696f6e000000000000000000000000000000000000000000000000000000602082015250565b6000613bdd6025836139dc565b9150613be882613b81565b604082019050919050565b60006020820190508181036000830152613c0c81613bd0565b9050919050565b600081519050919050565b600082825260208201905092915050565b6000819050602082019050919050565b6000613c4b838361329a565b60208301905092915050565b6000602082019050919050565b6000613c6f82613c13565b613c798185613c1e565b9350613c8483613c2f565b8060005b83811015613cb5578151613c9c8882613c3f565b9750613ca783613c57565b925050600181019050613c88565b5085935050505092915050565b6000610120820190508181036000830152613cdd818c613c64565b9050613cec602083018b612e13565b613cf9604083018a612db7565b613d066060830189612db7565b613d136080830188612d83565b613d2060a0830187612db7565b613d2d60c0830186612db7565b613d3a60e0830185612f20565b613d48610100830184612e13565b9a9950505050505050505050565b600081519050613d658161315c565b92915050565b600060208284031215613d8157613d80612e47565b5b6000613d8f84828501613d56565b91505092915050565b6000608082019050613dad6000830187612e13565b613dba6020830186612e13565b613dc76040830185612e13565b613dd46060830184612d83565b95945050505050565b600080600080600080600080610100898b031215613dfe57613dfd612e47565b5b6000613e0c8b828c0161399a565b9850506020613e1d8b828c0161399a565b9750506040613e2e8b828c0161399a565b9650506060613e3f8b828c0161399a565b9550506080613e508b828c0161399a565b94505060a0613e618b828c0161399a565b93505060c0613e728b828c0161387e565b92505060e0613e838b828c0161399a565b9150509295985092959890939650565b7f6f6e6c7920746865206f776e6572206f7220676f762063616e2063616c6c207460008201527f6869732066756e6374696f6e0000000000000000000000000000000000000000602082015250565b6000613eef602c836139dc565b9150613efa82613e93565b604082019050919050565b60006020820190508181036000830152613f1e81613ee2565b9050919050565b7f6665650000000000000000000000000000000000000000000000000000000000600082015250565b6000613f5b6003836139dc565b9150613f6682613f25565b602082019050919050565b60006020820190508181036000830152613f8a81613f4e565b9050919050565b7f6c6f616e20616d6f756e7420646f6573206e6f74207065726d6974206c69717560008201527f69646174696f6e00000000000000000000000000000000000000000000000000602082015250565b6000613fed6027836139dc565b9150613ff882613f91565b604082019050919050565b6000602082019050818103600083015261401c81613fe0565b9050919050565b60006060820190506140386000830186612e13565b6140456020830185612e13565b6140526040830184612db7565b949350505050565b600060408201905061406f6000830185612e13565b61407c6020830184612db7565b9392505050565b600061014082019050818103600083015261409e818d613c64565b90506140ad602083018c612e13565b6140ba604083018b612db7565b6140c7606083018a612db7565b6140d46080830189612db7565b6140e160a0830188612d83565b6140ee60c0830187612db7565b6140fb60e0830186612db7565b614109610100830185612f20565b614117610120830184612e13565b9b9a5050505050505050505050565b600060608201905061413b6000830186612e13565b6141486020830185612db7565b6141556040830184612db7565b949350505050565b7f617665726765207072696365206f6620706f736974696f6e2068617320746f2060008201527f62652067726561746572207468616e2030000000000000000000000000000000602082015250565b60006141b96031836139dc565b91506141c48261415d565b604082019050919050565b600060208201905081810360008301526141e8816141ac565b9050919050565b60008160f81b9050919050565b6000614207826141ef565b9050919050565b6000614219826141fc565b9050919050565b61423161422c82612d77565b61420e565b82525050565b60006142438286613a8a565b6014820191506142538285613a8a565b6014820191506142638284614220565b600182019150819050949350505050565b7f6f6e6c7920676f762063616e2063616c6c20746869732066756e6374696f6e00600082015250565b60006142aa601f836139dc565b91506142b582614274565b602082019050919050565b600060208201905081810360008301526142d98161429d565b9050919050565b60006142eb82612dad565b91506142f683612dad565b925082820261430481612dad565b9150828204841483151761431b5761431a6138ef565b5b5092915050565b7f4e487b7100000000000000000000000000000000000000000000000000000000600052601260045260246000fd5b600061435c82612dad565b915061436783612dad565b92508261437757614376614322565b5b828204905092915050565b7f536166654d6174683a206d756c7469706c69636174696f6e206f766572666c6f60008201527f7700000000000000000000000000000000000000000000000000000000000000602082015250565b60006143de6021836139dc565b91506143e982614382565b604082019050919050565b6000602082019050818103600083015261440d816143d1565b9050919050565b7f536166654d6174683a206164646974696f6e206f766572666c6f770000000000600082015250565b600061444a601b836139dc565b915061445582614414565b602082019050919050565b600060208201905081810360008301526144798161443d565b9050919050565b600061016082019050818103600083015261449b818e613c64565b90506144aa602083018d612e13565b6144b7604083018c612db7565b6144c4606083018b612db7565b6144d1608083018a612d83565b6144de60a0830189612e13565b6144eb60c0830188612db7565b6144f860e0830187612db7565b614506610100830186612db7565b614514610120830185612d83565b614522610140830184612e13565b9c9b505050505050505050505050565b600081519050919050565b60005b8381101561455b578082015181840152602081019050614540565b60008484015250505050565b600061457282614532565b61457c81856139dc565b935061458c81856020860161453d565b61459581613008565b840191505092915050565b600060208201905081810360008301526145ba8184614567565b905092915050565b60006145cd82612dad565b91506145d883612dad565b92508282039050818111156145f0576145ef6138ef565b5b9291505056fea2646970667358221220365661bf477252006348e8d1ed3d4ca0cfcd997bf29c81d06ace5c72eaf90bcb64736f6c63430008110033",
  "linkReferences": {},
  "deployedLinkReferences": {}
}