{
  "_format": "hh-sol-artifact-1",
  "contractName": "AbstractPosition",
  "sourceName": "contracts/AbstractPosition.sol",
  "abi": [
    {
      "inputs": [
        {
          "internalType": "address",
          "name": "_gov",
          "type": "address"
        },
        {
          "internalType": "address",
          "name": "_wethAddress",
          "type": "address"
        },
        {
          "internalType": "address",
          "name": "_lendingContractAddress",
          "type": "address"
        },
        {
          "internalType": "address",
          "name": "_ownerAddress",
          "type": "address"
        },
        {
          "internalType": "address",
          "name": "_orderManagerAddress",
          "type": "address"
        },
        {
          "internalType": "address",
          "name": "_poolAddress",
          "type": "address"
        },
        {
          "internalType": "address",
          "name": "_levelOracleAddress",
          "type": "address"
        }
      ],
      "stateMutability": "nonpayable",
      "type": "constructor"
    },
    {
      "inputs": [],
      "name": "BASIS_POINTS_DIVISOR",
      "outputs": [
        {
          "internalType": "uint256",
          "name": "",
          "type": "uint256"
        }
      ],
      "stateMutability": "view",
      "type": "function"
    },
    {
      "inputs": [],
      "name": "L1",
      "outputs": [
        {
          "internalType": "uint256",
          "name": "",
          "type": "uint256"
        }
      ],
      "stateMutability": "view",
      "type": "function"
    },
    {
      "inputs": [],
      "name": "L2",
      "outputs": [
        {
          "internalType": "uint256",
          "name": "",
          "type": "uint256"
        }
      ],
      "stateMutability": "view",
      "type": "function"
    },
    {
      "inputs": [],
      "name": "MIN_DECREASE_HEALTH_FACTOR",
      "outputs": [
        {
          "internalType": "uint256",
          "name": "",
          "type": "uint256"
        }
      ],
      "stateMutability": "view",
      "type": "function"
    },
    {
      "inputs": [],
      "name": "MIN_HEALTH_FACTOR",
      "outputs": [
        {
          "internalType": "uint256",
          "name": "",
          "type": "uint256"
        }
      ],
      "stateMutability": "view",
      "type": "function"
    },
    {
      "inputs": [
        {
          "components": [
            {
              "internalType": "uint256",
              "name": "size",
              "type": "uint256"
            },
            {
              "internalType": "uint256",
              "name": "collateralValue",
              "type": "uint256"
            },
            {
              "internalType": "uint256",
              "name": "reserveAmount",
              "type": "uint256"
            },
            {
              "internalType": "uint256",
              "name": "entryPrice",
              "type": "uint256"
            },
            {
              "internalType": "uint256",
              "name": "borrowIndex",
              "type": "uint256"
            }
          ],
          "internalType": "struct BnbPosition",
          "name": "_position",
          "type": "tuple"
        },
        {
          "internalType": "address",
          "name": "_indexToken",
          "type": "address"
        },
        {
          "internalType": "uint256",
          "name": "_sizeChanged",
          "type": "uint256"
        }
      ],
      "name": "_getPositionFee",
      "outputs": [
        {
          "internalType": "uint256",
          "name": "_feeValue",
          "type": "uint256"
        }
      ],
      "stateMutability": "view",
      "type": "function"
    },
    {
      "inputs": [
        {
          "internalType": "address",
          "name": "_owner",
          "type": "address"
        },
        {
          "internalType": "address",
          "name": "_indexToken",
          "type": "address"
        },
        {
          "internalType": "address",
          "name": "_collateralToken",
          "type": "address"
        },
        {
          "internalType": "enum Side",
          "name": "_side",
          "type": "uint8"
        }
      ],
      "name": "_getPositionKey",
      "outputs": [
        {
          "internalType": "bytes32",
          "name": "",
          "type": "bytes32"
        }
      ],
      "stateMutability": "pure",
      "type": "function"
    },
    {
      "inputs": [
        {
          "internalType": "enum Side",
          "name": "_side",
          "type": "uint8"
        },
        {
          "internalType": "address",
          "name": "_indexToken",
          "type": "address"
        },
        {
          "internalType": "address",
          "name": "_collateralToken",
          "type": "address"
        },
        {
          "internalType": "uint256",
          "name": "price",
          "type": "uint256"
        },
        {
          "internalType": "address",
          "name": "payToken",
          "type": "address"
        },
        {
          "internalType": "uint256",
          "name": "sizeChange",
          "type": "uint256"
        },
        {
          "internalType": "uint256",
          "name": "_collateral",
          "type": "uint256"
        }
      ],
      "name": "callDecreasePlaceOrder",
      "outputs": [],
      "stateMutability": "payable",
      "type": "function"
    },
    {
      "inputs": [
        {
          "internalType": "enum Side",
          "name": "_side",
          "type": "uint8"
        },
        {
          "internalType": "address",
          "name": "_indexToken",
          "type": "address"
        },
        {
          "internalType": "address",
          "name": "_collateralToken",
          "type": "address"
        },
        {
          "internalType": "uint256",
          "name": "price",
          "type": "uint256"
        },
        {
          "internalType": "address",
          "name": "payToken",
          "type": "address"
        },
        {
          "internalType": "uint256",
          "name": "purchaseAmount",
          "type": "uint256"
        },
        {
          "internalType": "uint256",
          "name": "sizeChange",
          "type": "uint256"
        },
        {
          "internalType": "uint256",
          "name": "_collateral",
          "type": "uint256"
        }
      ],
      "name": "callIncreasePlaceOrder",
      "outputs": [],
      "stateMutability": "payable",
      "type": "function"
    },
    {
      "inputs": [],
      "name": "deposit",
      "outputs": [],
      "stateMutability": "payable",
      "type": "function"
    },
    {
      "inputs": [
        {
          "internalType": "uint256",
          "name": "",
          "type": "uint256"
        }
      ],
      "name": "existingPositionsData",
      "outputs": [
        {
          "internalType": "address",
          "name": "indexToken",
          "type": "address"
        },
        {
          "internalType": "address",
          "name": "collateralToken",
          "type": "address"
        },
        {
          "internalType": "enum Side",
          "name": "side",
          "type": "uint8"
        }
      ],
      "stateMutability": "view",
      "type": "function"
    },
    {
      "inputs": [],
      "name": "gellatoAutomateAddress",
      "outputs": [
        {
          "internalType": "address",
          "name": "",
          "type": "address"
        }
      ],
      "stateMutability": "view",
      "type": "function"
    },
    {
      "inputs": [
        {
          "internalType": "address",
          "name": "_indexToken",
          "type": "address"
        },
        {
          "internalType": "enum Side",
          "name": "_side",
          "type": "uint8"
        },
        {
          "internalType": "uint256",
          "name": "_size",
          "type": "uint256"
        },
        {
          "internalType": "uint256",
          "name": "_averagePrice",
          "type": "uint256"
        }
      ],
      "name": "getDeltaWithMargin",
      "outputs": [
        {
          "internalType": "uint256",
          "name": "delta",
          "type": "uint256"
        },
        {
          "internalType": "bool",
          "name": "hasProfit",
          "type": "bool"
        }
      ],
      "stateMutability": "view",
      "type": "function"
    },
    {
      "inputs": [],
      "name": "getPortfolioValue",
      "outputs": [
        {
          "internalType": "uint256",
          "name": "",
          "type": "uint256"
        }
      ],
      "stateMutability": "view",
      "type": "function"
    },
    {
      "inputs": [],
      "name": "getPortfolioValueWithMargin",
      "outputs": [
        {
          "internalType": "uint256",
          "name": "",
          "type": "uint256"
        }
      ],
      "stateMutability": "view",
      "type": "function"
    },
    {
      "inputs": [
        {
          "internalType": "address",
          "name": "_indexToken",
          "type": "address"
        },
        {
          "internalType": "address",
          "name": "_collateralToken",
          "type": "address"
        },
        {
          "internalType": "enum Side",
          "name": "_side",
          "type": "uint8"
        }
      ],
      "name": "getPosition",
      "outputs": [
        {
          "components": [
            {
              "internalType": "uint256",
              "name": "size",
              "type": "uint256"
            },
            {
              "internalType": "uint256",
              "name": "collateralValue",
              "type": "uint256"
            },
            {
              "internalType": "uint256",
              "name": "reserveAmount",
              "type": "uint256"
            },
            {
              "internalType": "uint256",
              "name": "entryPrice",
              "type": "uint256"
            },
            {
              "internalType": "uint256",
              "name": "borrowIndex",
              "type": "uint256"
            }
          ],
          "internalType": "struct BnbPosition",
          "name": "",
          "type": "tuple"
        }
      ],
      "stateMutability": "view",
      "type": "function"
    },
    {
      "inputs": [
        {
          "internalType": "address",
          "name": "_indexToken",
          "type": "address"
        },
        {
          "internalType": "address",
          "name": "_collateralToken",
          "type": "address"
        },
        {
          "internalType": "bool",
          "name": "_isLong",
          "type": "bool"
        }
      ],
      "name": "getPositionKey",
      "outputs": [
        {
          "internalType": "bytes32",
          "name": "",
          "type": "bytes32"
        }
      ],
      "stateMutability": "pure",
      "type": "function"
    },
    {
      "inputs": [
        {
          "internalType": "address",
          "name": "_indexToken",
          "type": "address"
        },
        {
          "internalType": "address",
          "name": "_collateralToken",
          "type": "address"
        },
        {
          "internalType": "enum Side",
          "name": "_side",
          "type": "uint8"
        }
      ],
      "name": "getPositionValue",
      "outputs": [
        {
          "internalType": "uint256",
          "name": "_positionValue",
          "type": "uint256"
        }
      ],
      "stateMutability": "view",
      "type": "function"
    },
    {
      "inputs": [
        {
          "internalType": "address",
          "name": "_indexToken",
          "type": "address"
        },
        {
          "internalType": "address",
          "name": "_collateralToken",
          "type": "address"
        },
        {
          "internalType": "enum Side",
          "name": "_side",
          "type": "uint8"
        }
      ],
      "name": "getPositionValueWithMargin",
      "outputs": [
        {
          "internalType": "uint256",
          "name": "_positionValue",
          "type": "uint256"
        }
      ],
      "stateMutability": "view",
      "type": "function"
    },
    {
      "inputs": [],
      "name": "getPositions",
      "outputs": [
        {
          "components": [
            {
              "internalType": "address",
              "name": "indexToken",
              "type": "address"
            },
            {
              "internalType": "address",
              "name": "collateralToken",
              "type": "address"
            },
            {
              "internalType": "enum Side",
              "name": "side",
              "type": "uint8"
            }
          ],
          "internalType": "struct BnbPositionData[]",
          "name": "",
          "type": "tuple[]"
        }
      ],
      "stateMutability": "view",
      "type": "function"
    },
    {
      "inputs": [],
      "name": "gov",
      "outputs": [
        {
          "internalType": "address",
          "name": "",
          "type": "address"
        }
      ],
      "stateMutability": "view",
      "type": "function"
    },
    {
      "inputs": [],
      "name": "lendingContractAddress",
      "outputs": [
        {
          "internalType": "address",
          "name": "",
          "type": "address"
        }
      ],
      "stateMutability": "view",
      "type": "function"
    },
    {
      "inputs": [],
      "name": "levelOracleAddress",
      "outputs": [
        {
          "internalType": "address",
          "name": "",
          "type": "address"
        }
      ],
      "stateMutability": "view",
      "type": "function"
    },
    {
      "inputs": [],
      "name": "liquidatePortfolio",
      "outputs": [],
      "stateMutability": "nonpayable",
      "type": "function"
    },
    {
      "inputs": [],
      "name": "minExecutionFee",
      "outputs": [
        {
          "internalType": "uint256",
          "name": "",
          "type": "uint256"
        }
      ],
      "stateMutability": "view",
      "type": "function"
    },
    {
      "inputs": [],
      "name": "orderManagerAddress",
      "outputs": [
        {
          "internalType": "address",
          "name": "",
          "type": "address"
        }
      ],
      "stateMutability": "view",
      "type": "function"
    },
    {
      "inputs": [],
      "name": "ownerAddress",
      "outputs": [
        {
          "internalType": "address",
          "name": "",
          "type": "address"
        }
      ],
      "stateMutability": "view",
      "type": "function"
    },
    {
      "inputs": [],
      "name": "poolAddress",
      "outputs": [
        {
          "internalType": "address",
          "name": "",
          "type": "address"
        }
      ],
      "stateMutability": "view",
      "type": "function"
    },
    {
      "inputs": [],
      "name": "portfolioHealthFactor",
      "outputs": [
        {
          "internalType": "uint256",
          "name": "",
          "type": "uint256"
        }
      ],
      "stateMutability": "view",
      "type": "function"
    },
    {
      "inputs": [
        {
          "internalType": "address",
          "name": "_lendingContractAddress",
          "type": "address"
        }
      ],
      "name": "setLendingContractAddress",
      "outputs": [],
      "stateMutability": "nonpayable",
      "type": "function"
    },
    {
      "inputs": [
        {
          "internalType": "address",
          "name": "_levelOracleAddress",
          "type": "address"
        }
      ],
      "name": "setLevelOracleAddress",
      "outputs": [],
      "stateMutability": "nonpayable",
      "type": "function"
    },
    {
      "inputs": [
        {
          "internalType": "address",
          "name": "_poolAddress",
          "type": "address"
        }
      ],
      "name": "setLevelPoolAddress",
      "outputs": [],
      "stateMutability": "nonpayable",
      "type": "function"
    },
    {
      "inputs": [
        {
          "internalType": "address",
          "name": "_orderManagerAddress",
          "type": "address"
        }
      ],
      "name": "setOrderManagerAddress",
      "outputs": [],
      "stateMutability": "nonpayable",
      "type": "function"
    },
    {
      "inputs": [
        {
          "internalType": "address",
          "name": "_indexToken",
          "type": "address"
        },
        {
          "internalType": "address",
          "name": "_collateralToken",
          "type": "address"
        },
        {
          "internalType": "enum Side",
          "name": "_side",
          "type": "uint8"
        }
      ],
      "name": "validateDecreasePosition",
      "outputs": [
        {
          "internalType": "bool",
          "name": "",
          "type": "bool"
        }
      ],
      "stateMutability": "view",
      "type": "function"
    },
    {
      "inputs": [],
      "name": "wethAddress",
      "outputs": [
        {
          "internalType": "address",
          "name": "",
          "type": "address"
        }
      ],
      "stateMutability": "view",
      "type": "function"
    }
  ],
  "bytecode": "0x608060405273b3f5503f93d5ef84b06993a1975b9d21b962892f6000806101000a81548173ffffffffffffffffffffffffffffffffffffffff021916908373ffffffffffffffffffffffffffffffffffffffff16021790555073f584a17df21afd9de84f47842eceaf6042b1bb5b600460006101000a81548173ffffffffffffffffffffffffffffffffffffffff021916908373ffffffffffffffffffffffffffffffffffffffff16021790555073a5abfb56a78d2bd4689b25b8a77fd49bb0675874600560006101000a81548173ffffffffffffffffffffffffffffffffffffffff021916908373ffffffffffffffffffffffffffffffffffffffff1602179055507304db83667f5d59ff61fa6bbbd894824b233b3693600660006101000a81548173ffffffffffffffffffffffffffffffffffffffff021916908373ffffffffffffffffffffffffffffffffffffffff1602179055503480156200016457600080fd5b50604051620044f2380380620044f283398181016040528101906200018a9190620003c8565b86600160006101000a81548173ffffffffffffffffffffffffffffffffffffffff021916908373ffffffffffffffffffffffffffffffffffffffff16021790555083600760006101000a81548173ffffffffffffffffffffffffffffffffffffffff021916908373ffffffffffffffffffffffffffffffffffffffff16021790555085600260006101000a81548173ffffffffffffffffffffffffffffffffffffffff021916908373ffffffffffffffffffffffffffffffffffffffff16021790555084600360006101000a81548173ffffffffffffffffffffffffffffffffffffffff021916908373ffffffffffffffffffffffffffffffffffffffff16021790555082600460006101000a81548173ffffffffffffffffffffffffffffffffffffffff021916908373ffffffffffffffffffffffffffffffffffffffff16021790555081600560006101000a81548173ffffffffffffffffffffffffffffffffffffffff021916908373ffffffffffffffffffffffffffffffffffffffff16021790555080600660006101000a81548173ffffffffffffffffffffffffffffffffffffffff021916908373ffffffffffffffffffffffffffffffffffffffff160217905550505050505050506200047b565b600080fd5b600073ffffffffffffffffffffffffffffffffffffffff82169050919050565b6000620003908262000363565b9050919050565b620003a28162000383565b8114620003ae57600080fd5b50565b600081519050620003c28162000397565b92915050565b600080600080600080600060e0888a031215620003ea57620003e96200035e565b5b6000620003fa8a828b01620003b1565b97505060206200040d8a828b01620003b1565b9650506040620004208a828b01620003b1565b9550506060620004338a828b01620003b1565b9450506080620004468a828b01620003b1565b93505060a0620004598a828b01620003b1565b92505060c06200046c8a828b01620003b1565b91505092959891949750929550565b614067806200048b6000396000f3fe6080604052600436106102045760003560e01c80636d76bca411610118578063bdaf8824116100a0578063d571e21c1161006f578063d571e21c14610739578063e6876f6e14610764578063e9f4454d1461078d578063fd5e2ef5146107cc578063ffb991b01461080957610204565b8063bdaf88241461068c578063cbe71500146106b5578063cd466db9146106f2578063d0e30db01461072f57610204565b806380275860116100e757806380275860146105a25780638a088740146105cd5780638f84aa091461060b578063b5627e4214610636578063bb0498de1461066157610204565b80636d76bca4146104f6578063725ba052146105215780637379dbe61461054c5780637809baaf1461057757610204565b8063238e270a1161019b5780633fae6af61161016a5780633fae6af6146104215780634f0e0ef31461045e578063584edf10146104895780635da13df7146104a057806363ae2103146104cb57610204565b8063238e270a1461033f5780632cec198e1461037c57806339cf8916146103b95780633ba32df4146103f657610204565b806313f2d128116101d757806313f2d128146102a6578063157103f4146102cf5780631755ff21146102eb578063212f5f631461031657610204565b8063081752bb146102095780631154dbc214610234578063126082cf1461025057806312d43a511461027b575b600080fd5b34801561021557600080fd5b5061021e610834565b60405161022b9190612a4a565b60405180910390f35b61024e60048036038101906102499190612b23565b610839565b005b34801561025c57600080fd5b50610265610b9f565b6040516102729190612a4a565b60405180910390f35b34801561028757600080fd5b50610290610ba5565b60405161029d9190612be8565b60405180910390f35b3480156102b257600080fd5b506102cd60048036038101906102c89190612c03565b610bcb565b005b6102e960048036038101906102e49190612c30565b610c17565b005b3480156102f757600080fd5b50610300610d42565b60405161030d9190612be8565b60405180910390f35b34801561032257600080fd5b5061033d60048036038101906103389190612c03565b610d68565b005b34801561034b57600080fd5b5061036660048036038101906103619190612d0a565b610db4565b6040516103739190612d76565b60405180910390f35b34801561038857600080fd5b506103a3600480360381019061039e9190612d91565b610dea565b6040516103b09190612a4a565b60405180910390f35b3480156103c557600080fd5b506103e060048036038101906103db9190612f01565b610ec8565b6040516103ed9190612a4a565b60405180910390f35b34801561040257600080fd5b5061040b611095565b6040516104189190612a4a565b60405180910390f35b34801561042d57600080fd5b5061044860048036038101906104439190612d91565b6113a0565b6040516104559190612f63565b60405180910390f35b34801561046a57600080fd5b506104736114f4565b6040516104809190612be8565b60405180910390f35b34801561049557600080fd5b5061049e61151a565b005b3480156104ac57600080fd5b506104b5611922565b6040516104c29190612be8565b60405180910390f35b3480156104d757600080fd5b506104e0611948565b6040516104ed9190612a4a565b60405180910390f35b34801561050257600080fd5b5061050b61194e565b6040516105189190612be8565b60405180910390f35b34801561052d57600080fd5b50610536611974565b6040516105439190612a4a565b60405180910390f35b34801561055857600080fd5b5061056161197a565b60405161056e9190612be8565b60405180910390f35b34801561058357600080fd5b5061058c6119a0565b6040516105999190612a4a565b60405180910390f35b3480156105ae57600080fd5b506105b76119a5565b6040516105c491906130f5565b60405180910390f35b3480156105d957600080fd5b506105f460048036038101906105ef9190613117565b611aeb565b60405161060292919061317e565b60405180910390f35b34801561061757600080fd5b50610620611dbd565b60405161062d9190612be8565b60405180910390f35b34801561064257600080fd5b5061064b611de3565b6040516106589190612a4a565b60405180910390f35b34801561066d57600080fd5b50610676611de9565b6040516106839190612a4a565b60405180910390f35b34801561069857600080fd5b506106b360048036038101906106ae9190612c03565b611efc565b005b3480156106c157600080fd5b506106dc60048036038101906106d79190612d91565b611f48565b6040516106e99190612a4a565b60405180910390f35b3480156106fe57600080fd5b50610719600480360381019061071491906131a7565b611fe0565b6040516107269190612d76565b60405180910390f35b610737612019565b005b34801561074557600080fd5b5061074e61201b565b60405161075b9190612be8565b60405180910390f35b34801561077057600080fd5b5061078b60048036038101906107869190612c03565b61203f565b005b34801561079957600080fd5b506107b460048036038101906107af919061320e565b61208b565b6040516107c39392919061324a565b60405180910390f35b3480156107d857600080fd5b506107f360048036038101906107ee9190612d91565b612112565b60405161080091906132f8565b60405180910390f35b34801561081557600080fd5b5061081e612201565b60405161082b9190612a4a565b60405180910390f35b606481565b600760009054906101000a900473ffffffffffffffffffffffffffffffffffffffff1673ffffffffffffffffffffffffffffffffffffffff163373ffffffffffffffffffffffffffffffffffffffff16146108c9576040517f08c379a00000000000000000000000000000000000000000000000000000000081526004016108c090613396565b60405180910390fd5b6000806108d7888a8c612311565b73eeeeeeeeeeeeeeeeeeeeeeeeeeeeeeeeeeeeeeee73ffffffffffffffffffffffffffffffffffffffff168673ffffffffffffffffffffffffffffffffffffffff1614610abd578573ffffffffffffffffffffffffffffffffffffffff166323b872dd3330886040518463ffffffff1660e01b815260040161095b939291906133b6565b6020604051808303816000875af115801561097a573d6000803e3d6000fd5b505050506040513d601f19601f8201168201806040525081019061099e9190613402565b6109dd576040517f08c379a00000000000000000000000000000000000000000000000000000000081526004016109d49061347b565b60405180910390fd5b8573ffffffffffffffffffffffffffffffffffffffff1663095ea7b3600460009054906101000a900473ffffffffffffffffffffffffffffffffffffffff16876040518363ffffffff1660e01b8152600401610a3a92919061349b565b6020604051808303816000875af1158015610a59573d6000803e3d6000fd5b505050506040513d601f19601f82011682018060405250810190610a7d9190613402565b610abc576040517f08c379a0000000000000000000000000000000000000000000000000000000008152600401610ab390613536565b60405180910390fd5b5b6000878787878760405180602001604052806000815250604051602001610ae9969594939291906135d5565b6040516020818303038152906040529050600460009054906101000a900473ffffffffffffffffffffffffffffffffffffffff1673ffffffffffffffffffffffffffffffffffffffff16632f25f18334858e8e8e88886040518863ffffffff1660e01b8152600401610b60969594939291906136cd565b6000604051808303818588803b158015610b7957600080fd5b505af1158015610b8d573d6000803e3d6000fd5b50505050505050505050505050505050565b61271081565b600160009054906101000a900473ffffffffffffffffffffffffffffffffffffffff1681565b610bd361250e565b80600360006101000a81548173ffffffffffffffffffffffffffffffffffffffff021916908373ffffffffffffffffffffffffffffffffffffffff16021790555050565b600760009054906101000a900473ffffffffffffffffffffffffffffffffffffffff1673ffffffffffffffffffffffffffffffffffffffff163373ffffffffffffffffffffffffffffffffffffffff1614610ca7576040517f08c379a0000000000000000000000000000000000000000000000000000000008152600401610c9e90613396565b60405180910390fd5b610cb28686896113a0565b610cf1576040517f08c379a0000000000000000000000000000000000000000000000000000000008152600401610ce8906137a7565b60405180910390fd5b60008484848460405180602001604052806000815250604051602001610d1b9594939291906137c7565b6040516020818303038152906040529050610d38888888846125a0565b5050505050505050565b600560009054906101000a900473ffffffffffffffffffffffffffffffffffffffff1681565b610d7061250e565b80600560006101000a81548173ffffffffffffffffffffffffffffffffffffffff021916908373ffffffffffffffffffffffffffffffffffffffff16021790555050565b6000838383604051602001610dcb939291906138b1565b6040516020818303038152906040528051906020012090509392505050565b600080610df8858585612112565b90506000610e0b82878460000151610ec8565b9050600080610e24888786600001518760600151611aeb565b9150915080158015610e4b57508360200151610e49848461263f90919063ffffffff16565b115b15610e5d576000945050505050610ec1565b80610e9057610e8b83610e7d84876020015161269d90919063ffffffff16565b61269d90919063ffffffff16565b610eba565b610eb983610eab84876020015161263f90919063ffffffff16565b61269d90919063ffffffff16565b5b9450505050505b9392505050565b600080600560009054906101000a900473ffffffffffffffffffffffffffffffffffffffff1673ffffffffffffffffffffffffffffffffffffffff1663ddca3f436040518163ffffffff1660e01b815260040160e060405180830381865afa158015610f38573d6000803e3d6000fd5b505050506040513d601f19601f82011682018060405250810190610f5c91906139b7565b90506000600560009054906101000a900473ffffffffffffffffffffffffffffffffffffffff1673ffffffffffffffffffffffffffffffffffffffff1663a9126169866040518263ffffffff1660e01b8152600401610fbb9190612be8565b60a060405180830381865afa158015610fd8573d6000803e3d6000fd5b505050506040513d601f19601f82011682018060405250810190610ffc9190613a70565b60600151905060006110486402540be40061103a896000015161102c8b608001518761269d90919063ffffffff16565b6126e790919063ffffffff16565b61276190919063ffffffff16565b9050600061107a6402540be40061106c8660000151896126e790919063ffffffff16565b61276190919063ffffffff16565b905080826110889190613acc565b9450505050509392505050565b600080600090506000805b600a80549050811015611286576000611176600a83815481106110c6576110c5613b00565b5b906000526020600020906002020160000160009054906101000a900473ffffffffffffffffffffffffffffffffffffffff16600a848154811061110c5761110b613b00565b5b906000526020600020906002020160010160009054906101000a900473ffffffffffffffffffffffffffffffffffffffff16600a858154811061115257611151613b00565b5b906000526020600020906002020160010160149054906101000a900460ff16611f48565b905061118b818561263f90919063ffffffff16565b93506000611256600a84815481106111a6576111a5613b00565b5b906000526020600020906002020160000160009054906101000a900473ffffffffffffffffffffffffffffffffffffffff16600a85815481106111ec576111eb613b00565b5b906000526020600020906002020160010160009054906101000a900473ffffffffffffffffffffffffffffffffffffffff16600a868154811061123257611231613b00565b5b906000526020600020906002020160010160149054906101000a900460ff16612112565b905061126f81600001518561263f90919063ffffffff16565b93505050808061127e90613b2f565b9150506110a0565b506000600360009054906101000a900473ffffffffffffffffffffffffffffffffffffffff1673ffffffffffffffffffffffffffffffffffffffff1663db1e4ff8600760009054906101000a900473ffffffffffffffffffffffffffffffffffffffff166040518263ffffffff1660e01b81526004016113069190612be8565b602060405180830381865afa158015611323573d6000803e3d6000fd5b505050506040513d601f19601f820116820180604052508101906113479190613b77565b90506113958161138761137861271061136a6064886126e790919063ffffffff16565b61276190919063ffffffff16565b8661269d90919063ffffffff16565b61269d90919063ffffffff16565b925082935050505090565b600080600360009054906101000a900473ffffffffffffffffffffffffffffffffffffffff1673ffffffffffffffffffffffffffffffffffffffff1663d04f246b600760009054906101000a900473ffffffffffffffffffffffffffffffffffffffff166040518263ffffffff1660e01b81526004016114209190612be8565b602060405180830381865afa15801561143d573d6000803e3d6000fd5b505050506040513d601f19601f820116820180604052508101906114619190613b77565b9050600081036114755760019150506114ed565b600061147f611095565b9050600061148e878787611f48565b9050808210156114a457600093505050506114ed565b60006114df846114d16127106114c3868861269d90919063ffffffff16565b6126e790919063ffffffff16565b61276190919063ffffffff16565b9050612af881119450505050505b9392505050565b600260009054906101000a900473ffffffffffffffffffffffffffffffffffffffff1681565b6000611524612201565b905061271081108015611538575060008114155b611577576040517f08c379a000000000000000000000000000000000000000000000000000000000815260040161156e90613bf0565b60405180910390fd5b60005b600a8054905081101561191e576000611650600a83815481106115a05761159f613b00565b5b906000526020600020906002020160000160009054906101000a900473ffffffffffffffffffffffffffffffffffffffff16600a84815481106115e6576115e5613b00565b5b906000526020600020906002020160010160009054906101000a900473ffffffffffffffffffffffffffffffffffffffff16600a858154811061162c5761162b613b00565b5b906000526020600020906002020160010160149054906101000a900460ff16612112565b90506000600660009054906101000a900473ffffffffffffffffffffffffffffffffffffffff1673ffffffffffffffffffffffffffffffffffffffff166376d69760600a85815481106116a6576116a5613b00565b5b906000526020600020906002020160000160009054906101000a900473ffffffffffffffffffffffffffffffffffffffff1660016040518363ffffffff1660e01b81526004016116f7929190613c10565b602060405180830381865afa158015611714573d6000803e3d6000fd5b505050506040513d601f19601f820116820180604052508101906117389190613b77565b9050600080600181111561174f5761174e612fb9565b5b600a858154811061176357611762613b00565b5b906000526020600020906002020160010160149054906101000a900460ff16600181111561179457611793612fb9565b5b146117b2576117ad6002836126e790919063ffffffff16565b6117b5565b60005b9050600081600a86815481106117ce576117cd613b00565b5b906000526020600020906002020160010160009054906101000a900473ffffffffffffffffffffffffffffffffffffffff16856000015186602001516040518060200160405280600081525060405160200161182e9594939291906137c7565b6040516020818303038152906040529050611907600a868154811061185657611855613b00565b5b906000526020600020906002020160010160149054906101000a900460ff16600a878154811061188957611888613b00565b5b906000526020600020906002020160000160009054906101000a900473ffffffffffffffffffffffffffffffffffffffff16600a88815481106118cf576118ce613b00565b5b906000526020600020906002020160010160009054906101000a900473ffffffffffffffffffffffffffffffffffffffff16846125a0565b50505050808061191690613b2f565b91505061157a565b5050565b600460009054906101000a900473ffffffffffffffffffffffffffffffffffffffff1681565b60085481565b600660009054906101000a900473ffffffffffffffffffffffffffffffffffffffff1681565b612af881565b600360009054906101000a900473ffffffffffffffffffffffffffffffffffffffff1681565b606481565b6060600a805480602002602001604051908101604052809291908181526020016000905b82821015611ae257838290600052602060002090600202016040518060600160405290816000820160009054906101000a900473ffffffffffffffffffffffffffffffffffffffff1673ffffffffffffffffffffffffffffffffffffffff1673ffffffffffffffffffffffffffffffffffffffff1681526020016001820160009054906101000a900473ffffffffffffffffffffffffffffffffffffffff1673ffffffffffffffffffffffffffffffffffffffff1673ffffffffffffffffffffffffffffffffffffffff1681526020016001820160149054906101000a900460ff166001811115611abd57611abc612fb9565b5b6001811115611acf57611ace612fb9565b5b81525050815260200190600101906119c9565b50505050905090565b60008060008311611b31576040517f08c379a0000000000000000000000000000000000000000000000000000000008152600401611b2890613cab565b60405180910390fd5b6000806001811115611b4657611b45612fb9565b5b866001811115611b5957611b58612fb9565b5b14611c3d57611c38612710611c2a611b7d606461271061263f90919063ffffffff16565b600660009054906101000a900473ffffffffffffffffffffffffffffffffffffffff1673ffffffffffffffffffffffffffffffffffffffff166376d697608c60016040518363ffffffff1660e01b8152600401611bdb929190613c10565b602060405180830381865afa158015611bf8573d6000803e3d6000fd5b505050506040513d601f19601f82011682018060405250810190611c1c9190613b77565b6126e790919063ffffffff16565b61276190919063ffffffff16565b611d18565b611d17612710611d09611c5c606461271061269d90919063ffffffff16565b600660009054906101000a900473ffffffffffffffffffffffffffffffffffffffff1673ffffffffffffffffffffffffffffffffffffffff166376d697608c60006040518363ffffffff1660e01b8152600401611cba929190613c10565b602060405180830381865afa158015611cd7573d6000803e3d6000fd5b505050506040513d601f19601f82011682018060405250810190611cfb9190613b77565b6126e790919063ffffffff16565b61276190919063ffffffff16565b5b90506000818511611d3b57611d36858361269d90919063ffffffff16565b611d4f565b611d4e828661269d90919063ffffffff16565b5b9050611d7685611d6883896126e790919063ffffffff16565b61276190919063ffffffff16565b935060006001811115611d8c57611d8b612fb9565b5b876001811115611d9f57611d9e612fb9565b5b14611dac57818511611db0565b8482115b9250505094509492505050565b600760009054906101000a900473ffffffffffffffffffffffffffffffffffffffff1681565b61271081565b6000806000905060005b600a80549050811015611ef4576000611ec9600a8381548110611e1957611e18613b00565b5b906000526020600020906002020160000160009054906101000a900473ffffffffffffffffffffffffffffffffffffffff16600a8481548110611e5f57611e5e613b00565b5b906000526020600020906002020160010160009054906101000a900473ffffffffffffffffffffffffffffffffffffffff16600a8581548110611ea557611ea4613b00565b5b906000526020600020906002020160010160149054906101000a900460ff16610dea565b9050611ede818461263f90919063ffffffff16565b9250508080611eec90613b2f565b915050611df3565b508091505090565b611f0461250e565b80600660006101000a81548173ffffffffffffffffffffffffffffffffffffffff021916908373ffffffffffffffffffffffffffffffffffffffff16021790555050565b600080611f56858585612112565b9050600080611f6f8786856000015186606001516127ab565b9150915080158015611f845750826020015182115b15611f955760009350505050611fd9565b80611fb957611fb182846020015161269d90919063ffffffff16565b935083611fd4565b611fd082846020015161263f90919063ffffffff16565b9350835b505050505b9392505050565b600084848484604051602001611ff99493929190613ccb565b604051602081830303815290604052805190602001209050949350505050565b565b60008054906101000a900473ffffffffffffffffffffffffffffffffffffffff1681565b61204761250e565b80600460006101000a81548173ffffffffffffffffffffffffffffffffffffffff021916908373ffffffffffffffffffffffffffffffffffffffff16021790555050565b600a818154811061209b57600080fd5b90600052602060002090600202016000915090508060000160009054906101000a900473ffffffffffffffffffffffffffffffffffffffff16908060010160009054906101000a900473ffffffffffffffffffffffffffffffffffffffff16908060010160149054906101000a900460ff16905083565b61211a612a02565b612122612a02565b600560009054906101000a900473ffffffffffffffffffffffffffffffffffffffff1673ffffffffffffffffffffffffffffffffffffffff1663514ea4bf61216c30888888611fe0565b6040518263ffffffff1660e01b81526004016121889190612d76565b60a060405180830381865afa1580156121a5573d6000803e3d6000fd5b505050506040513d601f19601f820116820180604052508101906121c99190613d10565b856000018660200187604001886060018960800185815250858152508581525085815250858152505050505050809150509392505050565b600080600360009054906101000a900473ffffffffffffffffffffffffffffffffffffffff1673ffffffffffffffffffffffffffffffffffffffff1663d04f246b600760009054906101000a900473ffffffffffffffffffffffffffffffffffffffff166040518263ffffffff1660e01b81526004016122819190612be8565b602060405180830381865afa15801561229e573d6000803e3d6000fd5b505050506040513d601f19601f820116820180604052508101906122c29190613b77565b9050600081036122d657600091505061230e565b60006122e0611095565b9050612309826122fb612710846126e790919063ffffffff16565b61276190919063ffffffff16565b925050505b90565b6009600061234784866000600181111561232e5761232d612fb9565b5b86600181111561234157612340612fb9565b5b14610db4565b815260200190815260200160002060009054906101000a900460ff1661250957600a60405180606001604052808473ffffffffffffffffffffffffffffffffffffffff1681526020018573ffffffffffffffffffffffffffffffffffffffff1681526020018360018111156123bf576123be612fb9565b5b815250908060018154018082558091505060019003906000526020600020906002020160009091909190915060008201518160000160006101000a81548173ffffffffffffffffffffffffffffffffffffffff021916908373ffffffffffffffffffffffffffffffffffffffff16021790555060208201518160010160006101000a81548173ffffffffffffffffffffffffffffffffffffffff021916908373ffffffffffffffffffffffffffffffffffffffff16021790555060408201518160010160146101000a81548160ff021916908360018111156124a4576124a3612fb9565b5b021790555050506001600960006124e38587600060018111156124ca576124c9612fb9565b5b8760018111156124dd576124dc612fb9565b5b14610db4565b815260200190815260200160002060006101000a81548160ff0219169083151502179055505b505050565b600160009054906101000a900473ffffffffffffffffffffffffffffffffffffffff1673ffffffffffffffffffffffffffffffffffffffff163373ffffffffffffffffffffffffffffffffffffffff161461259e576040517f08c379a000000000000000000000000000000000000000000000000000000000815260040161259590613dd7565b60405180910390fd5b565b600460009054906101000a900473ffffffffffffffffffffffffffffffffffffffff1673ffffffffffffffffffffffffffffffffffffffff16632f25f18360018686866000876040518763ffffffff1660e01b8152600401612607969594939291906136cd565b600060405180830381600087803b15801561262157600080fd5b505af1158015612635573d6000803e3d6000fd5b5050505050505050565b600080828461264e9190613acc565b905083811015612693576040517f08c379a000000000000000000000000000000000000000000000000000000000815260040161268a90613e43565b60405180910390fd5b8091505092915050565b60006126df83836040518060400160405280601e81526020017f536166654d6174683a207375627472616374696f6e206f766572666c6f77000081525061293b565b905092915050565b60008083036126f9576000905061275b565b600082846127079190613e63565b90508284826127169190613ed4565b14612756576040517f08c379a000000000000000000000000000000000000000000000000000000000815260040161274d90613f77565b60405180910390fd5b809150505b92915050565b60006127a383836040518060400160405280601a81526020017f536166654d6174683a206469766973696f6e206279207a65726f00000000000081525061299f565b905092915050565b60008060008414806127bd5750600083145b156127ce5760008091509150612932565b6000600660009054906101000a900473ffffffffffffffffffffffffffffffffffffffff1673ffffffffffffffffffffffffffffffffffffffff166376d69760886000600181111561282357612822612fb9565b5b89600181111561283657612835612fb9565b5b146040518363ffffffff1660e01b8152600401612854929190613c10565b602060405180830381865afa158015612871573d6000803e3d6000fd5b505050506040513d601f19601f820116820180604052508101906128959190613b77565b905060008185116128b8576128b3858361269d90919063ffffffff16565b6128cc565b6128cb828661269d90919063ffffffff16565b5b90506128f3856128e583896126e790919063ffffffff16565b61276190919063ffffffff16565b93506000600181111561290957612908612fb9565b5b87600181111561291c5761291b612fb9565b5b146129295781851161292d565b8482115b925050505b94509492505050565b6000838311158290612983576040517f08c379a000000000000000000000000000000000000000000000000000000000815260040161297a9190613fdb565b60405180910390fd5b50600083856129929190613ffd565b9050809150509392505050565b600080831182906129e6576040517f08c379a00000000000000000000000000000000000000000000000000000000081526004016129dd9190613fdb565b60405180910390fd5b50600083856129f59190613ed4565b9050809150509392505050565b6040518060a0016040528060008152602001600081526020016000815260200160008152602001600081525090565b6000819050919050565b612a4481612a31565b82525050565b6000602082019050612a5f6000830184612a3b565b92915050565b6000604051905090565b600080fd5b60028110612a8157600080fd5b50565b600081359050612a9381612a74565b92915050565b600073ffffffffffffffffffffffffffffffffffffffff82169050919050565b6000612ac482612a99565b9050919050565b612ad481612ab9565b8114612adf57600080fd5b50565b600081359050612af181612acb565b92915050565b612b0081612a31565b8114612b0b57600080fd5b50565b600081359050612b1d81612af7565b92915050565b600080600080600080600080610100898b031215612b4457612b43612a6f565b5b6000612b528b828c01612a84565b9850506020612b638b828c01612ae2565b9750506040612b748b828c01612ae2565b9650506060612b858b828c01612b0e565b9550506080612b968b828c01612ae2565b94505060a0612ba78b828c01612b0e565b93505060c0612bb88b828c01612b0e565b92505060e0612bc98b828c01612b0e565b9150509295985092959890939650565b612be281612ab9565b82525050565b6000602082019050612bfd6000830184612bd9565b92915050565b600060208284031215612c1957612c18612a6f565b5b6000612c2784828501612ae2565b91505092915050565b600080600080600080600060e0888a031215612c4f57612c4e612a6f565b5b6000612c5d8a828b01612a84565b9750506020612c6e8a828b01612ae2565b9650506040612c7f8a828b01612ae2565b9550506060612c908a828b01612b0e565b9450506080612ca18a828b01612ae2565b93505060a0612cb28a828b01612b0e565b92505060c0612cc38a828b01612b0e565b91505092959891949750929550565b60008115159050919050565b612ce781612cd2565b8114612cf257600080fd5b50565b600081359050612d0481612cde565b92915050565b600080600060608486031215612d2357612d22612a6f565b5b6000612d3186828701612ae2565b9350506020612d4286828701612ae2565b9250506040612d5386828701612cf5565b9150509250925092565b6000819050919050565b612d7081612d5d565b82525050565b6000602082019050612d8b6000830184612d67565b92915050565b600080600060608486031215612daa57612da9612a6f565b5b6000612db886828701612ae2565b9350506020612dc986828701612ae2565b9250506040612dda86828701612a84565b9150509250925092565b600080fd5b6000601f19601f8301169050919050565b7f4e487b7100000000000000000000000000000000000000000000000000000000600052604160045260246000fd5b612e3282612de9565b810181811067ffffffffffffffff82111715612e5157612e50612dfa565b5b80604052505050565b6000612e64612a65565b9050612e708282612e29565b919050565b600060a08284031215612e8b57612e8a612de4565b5b612e9560a0612e5a565b90506000612ea584828501612b0e565b6000830152506020612eb984828501612b0e565b6020830152506040612ecd84828501612b0e565b6040830152506060612ee184828501612b0e565b6060830152506080612ef584828501612b0e565b60808301525092915050565b600080600060e08486031215612f1a57612f19612a6f565b5b6000612f2886828701612e75565b93505060a0612f3986828701612ae2565b92505060c0612f4a86828701612b0e565b9150509250925092565b612f5d81612cd2565b82525050565b6000602082019050612f786000830184612f54565b92915050565b600081519050919050565b600082825260208201905092915050565b6000819050602082019050919050565b612fb381612ab9565b82525050565b7f4e487b7100000000000000000000000000000000000000000000000000000000600052602160045260246000fd5b60028110612ff957612ff8612fb9565b5b50565b600081905061300a82612fe8565b919050565b600061301a82612ffc565b9050919050565b61302a8161300f565b82525050565b6060820160008201516130466000850182612faa565b5060208201516130596020850182612faa565b50604082015161306c6040850182613021565b50505050565b600061307e8383613030565b60608301905092915050565b6000602082019050919050565b60006130a282612f7e565b6130ac8185612f89565b93506130b783612f9a565b8060005b838110156130e85781516130cf8882613072565b97506130da8361308a565b9250506001810190506130bb565b5085935050505092915050565b6000602082019050818103600083015261310f8184613097565b905092915050565b6000806000806080858703121561313157613130612a6f565b5b600061313f87828801612ae2565b945050602061315087828801612a84565b935050604061316187828801612b0e565b925050606061317287828801612b0e565b91505092959194509250565b60006040820190506131936000830185612a3b565b6131a06020830184612f54565b9392505050565b600080600080608085870312156131c1576131c0612a6f565b5b60006131cf87828801612ae2565b94505060206131e087828801612ae2565b93505060406131f187828801612ae2565b925050606061320287828801612a84565b91505092959194509250565b60006020828403121561322457613223612a6f565b5b600061323284828501612b0e565b91505092915050565b6132448161300f565b82525050565b600060608201905061325f6000830186612bd9565b61326c6020830185612bd9565b613279604083018461323b565b949350505050565b61328a81612a31565b82525050565b60a0820160008201516132a66000850182613281565b5060208201516132b96020850182613281565b5060408201516132cc6040850182613281565b5060608201516132df6060850182613281565b5060808201516132f26080850182613281565b50505050565b600060a08201905061330d6000830184613290565b92915050565b600082825260208201905092915050565b7f6f6e6c7920746865206f776e65722063616e2063616c6c20746869732066756e60008201527f6374696f6e000000000000000000000000000000000000000000000000000000602082015250565b6000613380602583613313565b915061338b82613324565b604082019050919050565b600060208201905081810360008301526133af81613373565b9050919050565b60006060820190506133cb6000830186612bd9565b6133d86020830185612bd9565b6133e56040830184612a3b565b949350505050565b6000815190506133fc81612cde565b92915050565b60006020828403121561341857613417612a6f565b5b6000613426848285016133ed565b91505092915050565b7f6661696c656420746f207472616e7366657220696e20636f6c6c61746572616c600082015250565b6000613465602083613313565b91506134708261342f565b602082019050919050565b6000602082019050818103600083015261349481613458565b9050919050565b60006040820190506134b06000830185612bd9565b6134bd6020830184612a3b565b9392505050565b7f6661696c656420746f20617070726f766520636f6c6c61746572616c2074726160008201527f6e73666572000000000000000000000000000000000000000000000000000000602082015250565b6000613520602583613313565b915061352b826134c4565b604082019050919050565b6000602082019050818103600083015261354f81613513565b9050919050565b600081519050919050565b600082825260208201905092915050565b60005b83811015613590578082015181840152602081019050613575565b60008484015250505050565b60006135a782613556565b6135b18185613561565b93506135c1818560208601613572565b6135ca81612de9565b840191505092915050565b600060c0820190506135ea6000830189612a3b565b6135f76020830188612bd9565b6136046040830187612a3b565b6136116060830186612a3b565b61361e6080830185612a3b565b81810360a0830152613630818461359c565b9050979650505050505050565b6002811061364e5761364d612fb9565b5b50565b600081905061365f8261363d565b919050565b600061366f82613651565b9050919050565b61367f81613664565b82525050565b6002811061369657613695612fb9565b5b50565b60008190506136a782613685565b919050565b60006136b782613699565b9050919050565b6136c7816136ac565b82525050565b600060c0820190506136e26000830189613676565b6136ef602083018861323b565b6136fc6040830187612bd9565b6137096060830186612bd9565b61371660808301856136be565b81810360a0830152613728818461359c565b9050979650505050505050565b7f6c6f616e20616d6f756e7420646f6573206e6f74207065726d6974206c69717560008201527f69646174696f6e00000000000000000000000000000000000000000000000000602082015250565b6000613791602783613313565b915061379c82613735565b604082019050919050565b600060208201905081810360008301526137c081613784565b9050919050565b600060a0820190506137dc6000830188612a3b565b6137e96020830187612bd9565b6137f66040830186612a3b565b6138036060830185612a3b565b8181036080830152613815818461359c565b90509695505050505050565b60008160601b9050919050565b600061383982613821565b9050919050565b600061384b8261382e565b9050919050565b61386361385e82612ab9565b613840565b82525050565b60008160f81b9050919050565b600061388182613869565b9050919050565b600061389382613876565b9050919050565b6138ab6138a682612cd2565b613888565b82525050565b60006138bd8286613852565b6014820191506138cd8285613852565b6014820191506138dd828461389a565b600182019150819050949350505050565b6000815190506138fd81612af7565b92915050565b600060e0828403121561391957613918612de4565b5b61392360e0612e5a565b90506000613933848285016138ee565b6000830152506020613947848285016138ee565b602083015250604061395b848285016138ee565b604083015250606061396f848285016138ee565b6060830152506080613983848285016138ee565b60808301525060a0613997848285016138ee565b60a08301525060c06139ab848285016138ee565b60c08301525092915050565b600060e082840312156139cd576139cc612a6f565b5b60006139db84828501613903565b91505092915050565b600060a082840312156139fa576139f9612de4565b5b613a0460a0612e5a565b90506000613a14848285016138ee565b6000830152506020613a28848285016138ee565b6020830152506040613a3c848285016138ee565b6040830152506060613a50848285016138ee565b6060830152506080613a64848285016138ee565b60808301525092915050565b600060a08284031215613a8657613a85612a6f565b5b6000613a94848285016139e4565b91505092915050565b7f4e487b7100000000000000000000000000000000000000000000000000000000600052601160045260246000fd5b6000613ad782612a31565b9150613ae283612a31565b9250828201905080821115613afa57613af9613a9d565b5b92915050565b7f4e487b7100000000000000000000000000000000000000000000000000000000600052603260045260246000fd5b6000613b3a82612a31565b91507fffffffffffffffffffffffffffffffffffffffffffffffffffffffffffffffff8203613b6c57613b6b613a9d565b5b600182019050919050565b600060208284031215613b8d57613b8c612a6f565b5b6000613b9b848285016138ee565b91505092915050565b7f6865616c746820666163746f7200000000000000000000000000000000000000600082015250565b6000613bda600d83613313565b9150613be582613ba4565b602082019050919050565b60006020820190508181036000830152613c0981613bcd565b9050919050565b6000604082019050613c256000830185612bd9565b613c326020830184612f54565b9392505050565b7f617665726765207072696365206f6620706f736974696f6e2068617320746f2060008201527f62652067726561746572207468616e2030000000000000000000000000000000602082015250565b6000613c95603183613313565b9150613ca082613c39565b604082019050919050565b60006020820190508181036000830152613cc481613c88565b9050919050565b6000608082019050613ce06000830187612bd9565b613ced6020830186612bd9565b613cfa6040830185612bd9565b613d07606083018461323b565b95945050505050565b600080600080600060a08688031215613d2c57613d2b612a6f565b5b6000613d3a888289016138ee565b9550506020613d4b888289016138ee565b9450506040613d5c888289016138ee565b9350506060613d6d888289016138ee565b9250506080613d7e888289016138ee565b9150509295509295909350565b7f6f6e6c7920676f762063616e2063616c6c20746869732066756e6374696f6e00600082015250565b6000613dc1601f83613313565b9150613dcc82613d8b565b602082019050919050565b60006020820190508181036000830152613df081613db4565b9050919050565b7f536166654d6174683a206164646974696f6e206f766572666c6f770000000000600082015250565b6000613e2d601b83613313565b9150613e3882613df7565b602082019050919050565b60006020820190508181036000830152613e5c81613e20565b9050919050565b6000613e6e82612a31565b9150613e7983612a31565b9250828202613e8781612a31565b91508282048414831517613e9e57613e9d613a9d565b5b5092915050565b7f4e487b7100000000000000000000000000000000000000000000000000000000600052601260045260246000fd5b6000613edf82612a31565b9150613eea83612a31565b925082613efa57613ef9613ea5565b5b828204905092915050565b7f536166654d6174683a206d756c7469706c69636174696f6e206f766572666c6f60008201527f7700000000000000000000000000000000000000000000000000000000000000602082015250565b6000613f61602183613313565b9150613f6c82613f05565b604082019050919050565b60006020820190508181036000830152613f9081613f54565b9050919050565b600081519050919050565b6000613fad82613f97565b613fb78185613313565b9350613fc7818560208601613572565b613fd081612de9565b840191505092915050565b60006020820190508181036000830152613ff58184613fa2565b905092915050565b600061400882612a31565b915061401383612a31565b925082820390508181111561402b5761402a613a9d565b5b9291505056fea26469706673582212205e277e20b7f94f790602dae273151aae3c0d69a0a454083bf26ba17196012f8964736f6c63430008110033",
  "linkReferences": {},
  "deployedLinkReferences": {}
}