{
  "_format": "hh-sol-artifact-1",
  "contractName": "RewardDistributor",
  "sourceName": "contracts/gmx/staking/RewardDistributor.sol",
  "abi": [
    {
      "inputs": [
        {
          "internalType": "address",
          "name": "_rewardToken",
          "type": "address"
        },
        {
          "internalType": "address",
          "name": "_rewardTracker",
          "type": "address"
        }
      ],
      "stateMutability": "nonpayable",
      "type": "constructor"
    },
    {
      "anonymous": false,
      "inputs": [
        {
          "indexed": false,
          "internalType": "uint256",
          "name": "amount",
          "type": "uint256"
        }
      ],
      "name": "Distribute",
      "type": "event"
    },
    {
      "anonymous": false,
      "inputs": [
        {
          "indexed": false,
          "internalType": "uint256",
          "name": "amount",
          "type": "uint256"
        }
      ],
      "name": "TokensPerIntervalChange",
      "type": "event"
    },
    {
      "inputs": [],
      "name": "admin",
      "outputs": [
        {
          "internalType": "address",
          "name": "",
          "type": "address"
        }
      ],
      "stateMutability": "view",
      "type": "function"
    },
    {
      "inputs": [],
      "name": "distribute",
      "outputs": [
        {
          "internalType": "uint256",
          "name": "",
          "type": "uint256"
        }
      ],
      "stateMutability": "nonpayable",
      "type": "function"
    },
    {
      "inputs": [],
      "name": "gov",
      "outputs": [
        {
          "internalType": "address",
          "name": "",
          "type": "address"
        }
      ],
      "stateMutability": "view",
      "type": "function"
    },
    {
      "inputs": [],
      "name": "lastDistributionTime",
      "outputs": [
        {
          "internalType": "uint256",
          "name": "",
          "type": "uint256"
        }
      ],
      "stateMutability": "view",
      "type": "function"
    },
    {
      "inputs": [],
      "name": "pendingRewards",
      "outputs": [
        {
          "internalType": "uint256",
          "name": "",
          "type": "uint256"
        }
      ],
      "stateMutability": "view",
      "type": "function"
    },
    {
      "inputs": [],
      "name": "rewardToken",
      "outputs": [
        {
          "internalType": "address",
          "name": "",
          "type": "address"
        }
      ],
      "stateMutability": "view",
      "type": "function"
    },
    {
      "inputs": [],
      "name": "rewardTracker",
      "outputs": [
        {
          "internalType": "address",
          "name": "",
          "type": "address"
        }
      ],
      "stateMutability": "view",
      "type": "function"
    },
    {
      "inputs": [
        {
          "internalType": "address",
          "name": "_admin",
          "type": "address"
        }
      ],
      "name": "setAdmin",
      "outputs": [],
      "stateMutability": "nonpayable",
      "type": "function"
    },
    {
      "inputs": [
        {
          "internalType": "address",
          "name": "_gov",
          "type": "address"
        }
      ],
      "name": "setGov",
      "outputs": [],
      "stateMutability": "nonpayable",
      "type": "function"
    },
    {
      "inputs": [
        {
          "internalType": "uint256",
          "name": "_amount",
          "type": "uint256"
        }
      ],
      "name": "setTokensPerInterval",
      "outputs": [],
      "stateMutability": "nonpayable",
      "type": "function"
    },
    {
      "inputs": [],
      "name": "tokensPerInterval",
      "outputs": [
        {
          "internalType": "uint256",
          "name": "",
          "type": "uint256"
        }
      ],
      "stateMutability": "view",
      "type": "function"
    },
    {
      "inputs": [],
      "name": "updateLastDistributionTime",
      "outputs": [],
      "stateMutability": "nonpayable",
      "type": "function"
    },
    {
      "inputs": [
        {
          "internalType": "address",
          "name": "_token",
          "type": "address"
        },
        {
          "internalType": "address",
          "name": "_account",
          "type": "address"
        },
        {
          "internalType": "uint256",
          "name": "_amount",
          "type": "uint256"
        }
      ],
      "name": "withdrawToken",
      "outputs": [],
      "stateMutability": "nonpayable",
      "type": "function"
    }
  ],
  "bytecode": "0x608060405234801561001057600080fd5b5060405161143d38038061143d8339818101604052604081101561003357600080fd5b810190808051906020019092919080519060200190929190505050600160008190555033600160006101000a81548173ffffffffffffffffffffffffffffffffffffffff021916908373ffffffffffffffffffffffffffffffffffffffff16021790555081600260006101000a81548173ffffffffffffffffffffffffffffffffffffffff021916908373ffffffffffffffffffffffffffffffffffffffff16021790555080600560006101000a81548173ffffffffffffffffffffffffffffffffffffffff021916908373ffffffffffffffffffffffffffffffffffffffff16021790555033600660006101000a81548173ffffffffffffffffffffffffffffffffffffffff021916908373ffffffffffffffffffffffffffffffffffffffff16021790555050506112d28061016b6000396000f3fe608060405234801561001057600080fd5b50600436106100cf5760003560e01c806375b173501161008c578063e4fc6b6d11610066578063e4fc6b6d146102a6578063eded3fda146102c4578063f7c618c1146102e2578063f851a44014610316576100cf565b806375b1735014610226578063a8d9362714610244578063cfad57a214610262576100cf565b806301e33667146100d457806312d43a511461014257806318e20a03146101765780633ae6d6eb146101a45780636bcb411a146101ae578063704b6c02146101e2575b600080fd5b610140600480360360608110156100ea57600080fd5b81019080803573ffffffffffffffffffffffffffffffffffffffff169060200190929190803573ffffffffffffffffffffffffffffffffffffffff1690602001909291908035906020019092919050505061034a565b005b61014a61043d565b604051808273ffffffffffffffffffffffffffffffffffffffff16815260200191505060405180910390f35b6101a26004803603602081101561018c57600080fd5b8101908080359060200190929190505050610463565b005b6101ac610645565b005b6101b6610711565b604051808273ffffffffffffffffffffffffffffffffffffffff16815260200191505060405180910390f35b610224600480360360208110156101f857600080fd5b81019080803573ffffffffffffffffffffffffffffffffffffffff169060200190929190505050610737565b005b61022e61083e565b6040518082815260200191505060405180910390f35b61024c610844565b6040518082815260200191505060405180910390f35b6102a46004803603602081101561027857600080fd5b81019080803573ffffffffffffffffffffffffffffffffffffffff16906020019092919050505061084a565b005b6102ae610951565b6040518082815260200191505060405180910390f35b6102cc610b80565b6040518082815260200191505060405180910390f35b6102ea610bca565b604051808273ffffffffffffffffffffffffffffffffffffffff16815260200191505060405180910390f35b61031e610bf0565b604051808273ffffffffffffffffffffffffffffffffffffffff16815260200191505060405180910390f35b600160009054906101000a900473ffffffffffffffffffffffffffffffffffffffff1673ffffffffffffffffffffffffffffffffffffffff163373ffffffffffffffffffffffffffffffffffffffff161461040d576040517f08c379a00000000000000000000000000000000000000000000000000000000081526004018080602001828103825260158152602001807f476f7665726e61626c653a20666f7262696464656e000000000000000000000081525060200191505060405180910390fd5b61043882828573ffffffffffffffffffffffffffffffffffffffff16610c169092919063ffffffff16565b505050565b600160009054906101000a900473ffffffffffffffffffffffffffffffffffffffff1681565b600660009054906101000a900473ffffffffffffffffffffffffffffffffffffffff1673ffffffffffffffffffffffffffffffffffffffff163373ffffffffffffffffffffffffffffffffffffffff1614610526576040517f08c379a000000000000000000000000000000000000000000000000000000000815260040180806020018281038252601c8152602001807f5265776172644469737472696275746f723a20666f7262696464656e0000000081525060200191505060405180910390fd5b60006004541415610582576040517f08c379a000000000000000000000000000000000000000000000000000000000815260040180806020018281038252602f815260200180611244602f913960400191505060405180910390fd5b600560009054906101000a900473ffffffffffffffffffffffffffffffffffffffff1673ffffffffffffffffffffffffffffffffffffffff16633e158b0c6040518163ffffffff1660e01b8152600401600060405180830381600087803b1580156105ec57600080fd5b505af1158015610600573d6000803e3d6000fd5b50505050806003819055507f98dc76c39aa5a5dcb749f8750a65db3dfa1e14bcc1591a9c16a7420e5da748f8816040518082815260200191505060405180910390a150565b600660009054906101000a900473ffffffffffffffffffffffffffffffffffffffff1673ffffffffffffffffffffffffffffffffffffffff163373ffffffffffffffffffffffffffffffffffffffff1614610708576040517f08c379a000000000000000000000000000000000000000000000000000000000815260040180806020018281038252601c8152602001807f5265776172644469737472696275746f723a20666f7262696464656e0000000081525060200191505060405180910390fd5b42600481905550565b600560009054906101000a900473ffffffffffffffffffffffffffffffffffffffff1681565b600160009054906101000a900473ffffffffffffffffffffffffffffffffffffffff1673ffffffffffffffffffffffffffffffffffffffff163373ffffffffffffffffffffffffffffffffffffffff16146107fa576040517f08c379a00000000000000000000000000000000000000000000000000000000081526004018080602001828103825260158152602001807f476f7665726e61626c653a20666f7262696464656e000000000000000000000081525060200191505060405180910390fd5b80600660006101000a81548173ffffffffffffffffffffffffffffffffffffffff021916908373ffffffffffffffffffffffffffffffffffffffff16021790555050565b60045481565b60035481565b600160009054906101000a900473ffffffffffffffffffffffffffffffffffffffff1673ffffffffffffffffffffffffffffffffffffffff163373ffffffffffffffffffffffffffffffffffffffff161461090d576040517f08c379a00000000000000000000000000000000000000000000000000000000081526004018080602001828103825260158152602001807f476f7665726e61626c653a20666f7262696464656e000000000000000000000081525060200191505060405180910390fd5b80600160006101000a81548173ffffffffffffffffffffffffffffffffffffffff021916908373ffffffffffffffffffffffffffffffffffffffff16021790555050565b6000600560009054906101000a900473ffffffffffffffffffffffffffffffffffffffff1673ffffffffffffffffffffffffffffffffffffffff163373ffffffffffffffffffffffffffffffffffffffff16146109f9576040517f08c379a00000000000000000000000000000000000000000000000000000000081526004018080602001828103825260258152602001806111d86025913960400191505060405180910390fd5b6000610a03610b80565b90506000811415610a18576000915050610b7d565b426004819055506000600260009054906101000a900473ffffffffffffffffffffffffffffffffffffffff1673ffffffffffffffffffffffffffffffffffffffff166370a08231306040518263ffffffff1660e01b8152600401808273ffffffffffffffffffffffffffffffffffffffff16815260200191505060206040518083038186803b158015610aaa57600080fd5b505afa158015610abe573d6000803e3d6000fd5b505050506040513d6020811015610ad457600080fd5b8101908080519060200190929190505050905080821115610af3578091505b610b403383600260009054906101000a900473ffffffffffffffffffffffffffffffffffffffff1673ffffffffffffffffffffffffffffffffffffffff16610c169092919063ffffffff16565b7f4def474aca53bf221d07d9ab0f675b3f6d8d2494b8427271bcf43c018ef1eead826040518082815260200191505060405180910390a181925050505b90565b6000600454421415610b955760009050610bc7565b6000610bac60045442610cb890919063ffffffff16565b9050610bc381600354610d0290919063ffffffff16565b9150505b90565b600260009054906101000a900473ffffffffffffffffffffffffffffffffffffffff1681565b600660009054906101000a900473ffffffffffffffffffffffffffffffffffffffff1681565b610cb38363a9059cbb60e01b8484604051602401808373ffffffffffffffffffffffffffffffffffffffff16815260200182815260200192505050604051602081830303815290604052907bffffffffffffffffffffffffffffffffffffffffffffffffffffffff19166020820180517bffffffffffffffffffffffffffffffffffffffffffffffffffffffff8381831617835250505050610d88565b505050565b6000610cfa83836040518060400160405280601e81526020017f536166654d6174683a207375627472616374696f6e206f766572666c6f770000815250610e77565b905092915050565b600080831415610d155760009050610d82565b6000828402905082848281610d2657fe5b0414610d7d576040517f08c379a00000000000000000000000000000000000000000000000000000000081526004018080602001828103825260218152602001806112236021913960400191505060405180910390fd5b809150505b92915050565b6060610dea826040518060400160405280602081526020017f5361666545524332303a206c6f772d6c6576656c2063616c6c206661696c65648152508573ffffffffffffffffffffffffffffffffffffffff16610f379092919063ffffffff16565b9050600081511115610e7257808060200190516020811015610e0b57600080fd5b8101908080519060200190929190505050610e71576040517f08c379a000000000000000000000000000000000000000000000000000000000815260040180806020018281038252602a815260200180611273602a913960400191505060405180910390fd5b5b505050565b6000838311158290610f24576040517f08c379a00000000000000000000000000000000000000000000000000000000081526004018080602001828103825283818151815260200191508051906020019080838360005b83811015610ee9578082015181840152602081019050610ece565b50505050905090810190601f168015610f165780820380516001836020036101000a031916815260200191505b509250505060405180910390fd5b5060008385039050809150509392505050565b6060610f468484600085610f4f565b90509392505050565b606082471015610faa576040517f08c379a00000000000000000000000000000000000000000000000000000000081526004018080602001828103825260268152602001806111fd6026913960400191505060405180910390fd5b610fb3856110f8565b611025576040517f08c379a000000000000000000000000000000000000000000000000000000000815260040180806020018281038252601d8152602001807f416464726573733a2063616c6c20746f206e6f6e2d636f6e747261637400000081525060200191505060405180910390fd5b600060608673ffffffffffffffffffffffffffffffffffffffff1685876040518082805190602001908083835b602083106110755780518252602082019150602081019050602083039250611052565b6001836020036101000a03801982511681845116808217855250505050505090500191505060006040518083038185875af1925050503d80600081146110d7576040519150601f19603f3d011682016040523d82523d6000602084013e6110dc565b606091505b50915091506110ec82828661110b565b92505050949350505050565b600080823b905060008111915050919050565b6060831561111b578290506111d0565b60008351111561112e5782518084602001fd5b816040517f08c379a00000000000000000000000000000000000000000000000000000000081526004018080602001828103825283818151815260200191508051906020019080838360005b8381101561119557808201518184015260208101905061117a565b50505050905090810190601f1680156111c25780820380516001836020036101000a031916815260200191505b509250505060405180910390fd5b939250505056fe5265776172644469737472696275746f723a20696e76616c6964206d73672e73656e646572416464726573733a20696e73756666696369656e742062616c616e636520666f722063616c6c536166654d6174683a206d756c7469706c69636174696f6e206f766572666c6f775265776172644469737472696275746f723a20696e76616c6964206c617374446973747269627574696f6e54696d655361666545524332303a204552433230206f7065726174696f6e20646964206e6f742073756363656564a2646970667358221220b848bc5f897fbbfdc4671f1fce217a9c138a75f3dff92b9f50206458f59952f764736f6c634300060c0033",
  "linkReferences": {},
  "deployedLinkReferences": {}
}