{
  "_format": "hh-sol-artifact-1",
  "contractName": "OrderBook",
  "sourceName": "contracts/gmx/core/OrderBook.sol",
  "abi": [
    {
      "inputs": [],
      "stateMutability": "nonpayable",
      "type": "constructor"
    },
    {
      "anonymous": false,
      "inputs": [
        {
          "indexed": true,
          "internalType": "address",
          "name": "account",
          "type": "address"
        },
        {
          "indexed": false,
          "internalType": "uint256",
          "name": "orderIndex",
          "type": "uint256"
        },
        {
          "indexed": false,
          "internalType": "address",
          "name": "collateralToken",
          "type": "address"
        },
        {
          "indexed": false,
          "internalType": "uint256",
          "name": "collateralDelta",
          "type": "uint256"
        },
        {
          "indexed": false,
          "internalType": "address",
          "name": "indexToken",
          "type": "address"
        },
        {
          "indexed": false,
          "internalType": "uint256",
          "name": "sizeDelta",
          "type": "uint256"
        },
        {
          "indexed": false,
          "internalType": "bool",
          "name": "isLong",
          "type": "bool"
        },
        {
          "indexed": false,
          "internalType": "uint256",
          "name": "triggerPrice",
          "type": "uint256"
        },
        {
          "indexed": false,
          "internalType": "bool",
          "name": "triggerAboveThreshold",
          "type": "bool"
        },
        {
          "indexed": false,
          "internalType": "uint256",
          "name": "executionFee",
          "type": "uint256"
        }
      ],
      "name": "CancelDecreaseOrder",
      "type": "event"
    },
    {
      "anonymous": false,
      "inputs": [
        {
          "indexed": true,
          "internalType": "address",
          "name": "account",
          "type": "address"
        },
        {
          "indexed": false,
          "internalType": "uint256",
          "name": "orderIndex",
          "type": "uint256"
        },
        {
          "indexed": false,
          "internalType": "address",
          "name": "purchaseToken",
          "type": "address"
        },
        {
          "indexed": false,
          "internalType": "uint256",
          "name": "purchaseTokenAmount",
          "type": "uint256"
        },
        {
          "indexed": false,
          "internalType": "address",
          "name": "collateralToken",
          "type": "address"
        },
        {
          "indexed": false,
          "internalType": "address",
          "name": "indexToken",
          "type": "address"
        },
        {
          "indexed": false,
          "internalType": "uint256",
          "name": "sizeDelta",
          "type": "uint256"
        },
        {
          "indexed": false,
          "internalType": "bool",
          "name": "isLong",
          "type": "bool"
        },
        {
          "indexed": false,
          "internalType": "uint256",
          "name": "triggerPrice",
          "type": "uint256"
        },
        {
          "indexed": false,
          "internalType": "bool",
          "name": "triggerAboveThreshold",
          "type": "bool"
        },
        {
          "indexed": false,
          "internalType": "uint256",
          "name": "executionFee",
          "type": "uint256"
        }
      ],
      "name": "CancelIncreaseOrder",
      "type": "event"
    },
    {
      "anonymous": false,
      "inputs": [
        {
          "indexed": true,
          "internalType": "address",
          "name": "account",
          "type": "address"
        },
        {
          "indexed": false,
          "internalType": "uint256",
          "name": "orderIndex",
          "type": "uint256"
        },
        {
          "indexed": false,
          "internalType": "address[]",
          "name": "path",
          "type": "address[]"
        },
        {
          "indexed": false,
          "internalType": "uint256",
          "name": "amountIn",
          "type": "uint256"
        },
        {
          "indexed": false,
          "internalType": "uint256",
          "name": "minOut",
          "type": "uint256"
        },
        {
          "indexed": false,
          "internalType": "uint256",
          "name": "triggerRatio",
          "type": "uint256"
        },
        {
          "indexed": false,
          "internalType": "bool",
          "name": "triggerAboveThreshold",
          "type": "bool"
        },
        {
          "indexed": false,
          "internalType": "bool",
          "name": "shouldUnwrap",
          "type": "bool"
        },
        {
          "indexed": false,
          "internalType": "uint256",
          "name": "executionFee",
          "type": "uint256"
        }
      ],
      "name": "CancelSwapOrder",
      "type": "event"
    },
    {
      "anonymous": false,
      "inputs": [
        {
          "indexed": true,
          "internalType": "address",
          "name": "account",
          "type": "address"
        },
        {
          "indexed": false,
          "internalType": "uint256",
          "name": "orderIndex",
          "type": "uint256"
        },
        {
          "indexed": false,
          "internalType": "address",
          "name": "collateralToken",
          "type": "address"
        },
        {
          "indexed": false,
          "internalType": "uint256",
          "name": "collateralDelta",
          "type": "uint256"
        },
        {
          "indexed": false,
          "internalType": "address",
          "name": "indexToken",
          "type": "address"
        },
        {
          "indexed": false,
          "internalType": "uint256",
          "name": "sizeDelta",
          "type": "uint256"
        },
        {
          "indexed": false,
          "internalType": "bool",
          "name": "isLong",
          "type": "bool"
        },
        {
          "indexed": false,
          "internalType": "uint256",
          "name": "triggerPrice",
          "type": "uint256"
        },
        {
          "indexed": false,
          "internalType": "bool",
          "name": "triggerAboveThreshold",
          "type": "bool"
        },
        {
          "indexed": false,
          "internalType": "uint256",
          "name": "executionFee",
          "type": "uint256"
        }
      ],
      "name": "CreateDecreaseOrder",
      "type": "event"
    },
    {
      "anonymous": false,
      "inputs": [
        {
          "indexed": true,
          "internalType": "address",
          "name": "account",
          "type": "address"
        },
        {
          "indexed": false,
          "internalType": "uint256",
          "name": "orderIndex",
          "type": "uint256"
        },
        {
          "indexed": false,
          "internalType": "address",
          "name": "purchaseToken",
          "type": "address"
        },
        {
          "indexed": false,
          "internalType": "uint256",
          "name": "purchaseTokenAmount",
          "type": "uint256"
        },
        {
          "indexed": false,
          "internalType": "address",
          "name": "collateralToken",
          "type": "address"
        },
        {
          "indexed": false,
          "internalType": "address",
          "name": "indexToken",
          "type": "address"
        },
        {
          "indexed": false,
          "internalType": "uint256",
          "name": "sizeDelta",
          "type": "uint256"
        },
        {
          "indexed": false,
          "internalType": "bool",
          "name": "isLong",
          "type": "bool"
        },
        {
          "indexed": false,
          "internalType": "uint256",
          "name": "triggerPrice",
          "type": "uint256"
        },
        {
          "indexed": false,
          "internalType": "bool",
          "name": "triggerAboveThreshold",
          "type": "bool"
        },
        {
          "indexed": false,
          "internalType": "uint256",
          "name": "executionFee",
          "type": "uint256"
        }
      ],
      "name": "CreateIncreaseOrder",
      "type": "event"
    },
    {
      "anonymous": false,
      "inputs": [
        {
          "indexed": true,
          "internalType": "address",
          "name": "account",
          "type": "address"
        },
        {
          "indexed": false,
          "internalType": "uint256",
          "name": "orderIndex",
          "type": "uint256"
        },
        {
          "indexed": false,
          "internalType": "address[]",
          "name": "path",
          "type": "address[]"
        },
        {
          "indexed": false,
          "internalType": "uint256",
          "name": "amountIn",
          "type": "uint256"
        },
        {
          "indexed": false,
          "internalType": "uint256",
          "name": "minOut",
          "type": "uint256"
        },
        {
          "indexed": false,
          "internalType": "uint256",
          "name": "triggerRatio",
          "type": "uint256"
        },
        {
          "indexed": false,
          "internalType": "bool",
          "name": "triggerAboveThreshold",
          "type": "bool"
        },
        {
          "indexed": false,
          "internalType": "bool",
          "name": "shouldUnwrap",
          "type": "bool"
        },
        {
          "indexed": false,
          "internalType": "uint256",
          "name": "executionFee",
          "type": "uint256"
        }
      ],
      "name": "CreateSwapOrder",
      "type": "event"
    },
    {
      "anonymous": false,
      "inputs": [
        {
          "indexed": true,
          "internalType": "address",
          "name": "account",
          "type": "address"
        },
        {
          "indexed": false,
          "internalType": "uint256",
          "name": "orderIndex",
          "type": "uint256"
        },
        {
          "indexed": false,
          "internalType": "address",
          "name": "collateralToken",
          "type": "address"
        },
        {
          "indexed": false,
          "internalType": "uint256",
          "name": "collateralDelta",
          "type": "uint256"
        },
        {
          "indexed": false,
          "internalType": "address",
          "name": "indexToken",
          "type": "address"
        },
        {
          "indexed": false,
          "internalType": "uint256",
          "name": "sizeDelta",
          "type": "uint256"
        },
        {
          "indexed": false,
          "internalType": "bool",
          "name": "isLong",
          "type": "bool"
        },
        {
          "indexed": false,
          "internalType": "uint256",
          "name": "triggerPrice",
          "type": "uint256"
        },
        {
          "indexed": false,
          "internalType": "bool",
          "name": "triggerAboveThreshold",
          "type": "bool"
        },
        {
          "indexed": false,
          "internalType": "uint256",
          "name": "executionFee",
          "type": "uint256"
        },
        {
          "indexed": false,
          "internalType": "uint256",
          "name": "executionPrice",
          "type": "uint256"
        }
      ],
      "name": "ExecuteDecreaseOrder",
      "type": "event"
    },
    {
      "anonymous": false,
      "inputs": [
        {
          "indexed": true,
          "internalType": "address",
          "name": "account",
          "type": "address"
        },
        {
          "indexed": false,
          "internalType": "uint256",
          "name": "orderIndex",
          "type": "uint256"
        },
        {
          "indexed": false,
          "internalType": "address",
          "name": "purchaseToken",
          "type": "address"
        },
        {
          "indexed": false,
          "internalType": "uint256",
          "name": "purchaseTokenAmount",
          "type": "uint256"
        },
        {
          "indexed": false,
          "internalType": "address",
          "name": "collateralToken",
          "type": "address"
        },
        {
          "indexed": false,
          "internalType": "address",
          "name": "indexToken",
          "type": "address"
        },
        {
          "indexed": false,
          "internalType": "uint256",
          "name": "sizeDelta",
          "type": "uint256"
        },
        {
          "indexed": false,
          "internalType": "bool",
          "name": "isLong",
          "type": "bool"
        },
        {
          "indexed": false,
          "internalType": "uint256",
          "name": "triggerPrice",
          "type": "uint256"
        },
        {
          "indexed": false,
          "internalType": "bool",
          "name": "triggerAboveThreshold",
          "type": "bool"
        },
        {
          "indexed": false,
          "internalType": "uint256",
          "name": "executionFee",
          "type": "uint256"
        },
        {
          "indexed": false,
          "internalType": "uint256",
          "name": "executionPrice",
          "type": "uint256"
        }
      ],
      "name": "ExecuteIncreaseOrder",
      "type": "event"
    },
    {
      "anonymous": false,
      "inputs": [
        {
          "indexed": true,
          "internalType": "address",
          "name": "account",
          "type": "address"
        },
        {
          "indexed": false,
          "internalType": "uint256",
          "name": "orderIndex",
          "type": "uint256"
        },
        {
          "indexed": false,
          "internalType": "address[]",
          "name": "path",
          "type": "address[]"
        },
        {
          "indexed": false,
          "internalType": "uint256",
          "name": "amountIn",
          "type": "uint256"
        },
        {
          "indexed": false,
          "internalType": "uint256",
          "name": "minOut",
          "type": "uint256"
        },
        {
          "indexed": false,
          "internalType": "uint256",
          "name": "amountOut",
          "type": "uint256"
        },
        {
          "indexed": false,
          "internalType": "uint256",
          "name": "triggerRatio",
          "type": "uint256"
        },
        {
          "indexed": false,
          "internalType": "bool",
          "name": "triggerAboveThreshold",
          "type": "bool"
        },
        {
          "indexed": false,
          "internalType": "bool",
          "name": "shouldUnwrap",
          "type": "bool"
        },
        {
          "indexed": false,
          "internalType": "uint256",
          "name": "executionFee",
          "type": "uint256"
        }
      ],
      "name": "ExecuteSwapOrder",
      "type": "event"
    },
    {
      "anonymous": false,
      "inputs": [
        {
          "indexed": false,
          "internalType": "address",
          "name": "router",
          "type": "address"
        },
        {
          "indexed": false,
          "internalType": "address",
          "name": "vault",
          "type": "address"
        },
        {
          "indexed": false,
          "internalType": "address",
          "name": "weth",
          "type": "address"
        },
        {
          "indexed": false,
          "internalType": "address",
          "name": "usdg",
          "type": "address"
        },
        {
          "indexed": false,
          "internalType": "uint256",
          "name": "minExecutionFee",
          "type": "uint256"
        },
        {
          "indexed": false,
          "internalType": "uint256",
          "name": "minPurchaseTokenAmountUsd",
          "type": "uint256"
        }
      ],
      "name": "Initialize",
      "type": "event"
    },
    {
      "anonymous": false,
      "inputs": [
        {
          "indexed": true,
          "internalType": "address",
          "name": "account",
          "type": "address"
        },
        {
          "indexed": false,
          "internalType": "uint256",
          "name": "orderIndex",
          "type": "uint256"
        },
        {
          "indexed": false,
          "internalType": "address",
          "name": "collateralToken",
          "type": "address"
        },
        {
          "indexed": false,
          "internalType": "uint256",
          "name": "collateralDelta",
          "type": "uint256"
        },
        {
          "indexed": false,
          "internalType": "address",
          "name": "indexToken",
          "type": "address"
        },
        {
          "indexed": false,
          "internalType": "uint256",
          "name": "sizeDelta",
          "type": "uint256"
        },
        {
          "indexed": false,
          "internalType": "bool",
          "name": "isLong",
          "type": "bool"
        },
        {
          "indexed": false,
          "internalType": "uint256",
          "name": "triggerPrice",
          "type": "uint256"
        },
        {
          "indexed": false,
          "internalType": "bool",
          "name": "triggerAboveThreshold",
          "type": "bool"
        }
      ],
      "name": "UpdateDecreaseOrder",
      "type": "event"
    },
    {
      "anonymous": false,
      "inputs": [
        {
          "indexed": false,
          "internalType": "address",
          "name": "gov",
          "type": "address"
        }
      ],
      "name": "UpdateGov",
      "type": "event"
    },
    {
      "anonymous": false,
      "inputs": [
        {
          "indexed": true,
          "internalType": "address",
          "name": "account",
          "type": "address"
        },
        {
          "indexed": false,
          "internalType": "uint256",
          "name": "orderIndex",
          "type": "uint256"
        },
        {
          "indexed": false,
          "internalType": "address",
          "name": "collateralToken",
          "type": "address"
        },
        {
          "indexed": false,
          "internalType": "address",
          "name": "indexToken",
          "type": "address"
        },
        {
          "indexed": false,
          "internalType": "bool",
          "name": "isLong",
          "type": "bool"
        },
        {
          "indexed": false,
          "internalType": "uint256",
          "name": "sizeDelta",
          "type": "uint256"
        },
        {
          "indexed": false,
          "internalType": "uint256",
          "name": "triggerPrice",
          "type": "uint256"
        },
        {
          "indexed": false,
          "internalType": "bool",
          "name": "triggerAboveThreshold",
          "type": "bool"
        }
      ],
      "name": "UpdateIncreaseOrder",
      "type": "event"
    },
    {
      "anonymous": false,
      "inputs": [
        {
          "indexed": false,
          "internalType": "uint256",
          "name": "minExecutionFee",
          "type": "uint256"
        }
      ],
      "name": "UpdateMinExecutionFee",
      "type": "event"
    },
    {
      "anonymous": false,
      "inputs": [
        {
          "indexed": false,
          "internalType": "uint256",
          "name": "minPurchaseTokenAmountUsd",
          "type": "uint256"
        }
      ],
      "name": "UpdateMinPurchaseTokenAmountUsd",
      "type": "event"
    },
    {
      "anonymous": false,
      "inputs": [
        {
          "indexed": true,
          "internalType": "address",
          "name": "account",
          "type": "address"
        },
        {
          "indexed": false,
          "internalType": "uint256",
          "name": "ordexIndex",
          "type": "uint256"
        },
        {
          "indexed": false,
          "internalType": "address[]",
          "name": "path",
          "type": "address[]"
        },
        {
          "indexed": false,
          "internalType": "uint256",
          "name": "amountIn",
          "type": "uint256"
        },
        {
          "indexed": false,
          "internalType": "uint256",
          "name": "minOut",
          "type": "uint256"
        },
        {
          "indexed": false,
          "internalType": "uint256",
          "name": "triggerRatio",
          "type": "uint256"
        },
        {
          "indexed": false,
          "internalType": "bool",
          "name": "triggerAboveThreshold",
          "type": "bool"
        },
        {
          "indexed": false,
          "internalType": "bool",
          "name": "shouldUnwrap",
          "type": "bool"
        },
        {
          "indexed": false,
          "internalType": "uint256",
          "name": "executionFee",
          "type": "uint256"
        }
      ],
      "name": "UpdateSwapOrder",
      "type": "event"
    },
    {
      "inputs": [],
      "name": "PRICE_PRECISION",
      "outputs": [
        {
          "internalType": "uint256",
          "name": "",
          "type": "uint256"
        }
      ],
      "stateMutability": "view",
      "type": "function"
    },
    {
      "inputs": [],
      "name": "USDG_PRECISION",
      "outputs": [
        {
          "internalType": "uint256",
          "name": "",
          "type": "uint256"
        }
      ],
      "stateMutability": "view",
      "type": "function"
    },
    {
      "inputs": [
        {
          "internalType": "uint256",
          "name": "_orderIndex",
          "type": "uint256"
        }
      ],
      "name": "cancelDecreaseOrder",
      "outputs": [],
      "stateMutability": "nonpayable",
      "type": "function"
    },
    {
      "inputs": [
        {
          "internalType": "uint256",
          "name": "_orderIndex",
          "type": "uint256"
        }
      ],
      "name": "cancelIncreaseOrder",
      "outputs": [],
      "stateMutability": "nonpayable",
      "type": "function"
    },
    {
      "inputs": [
        {
          "internalType": "uint256[]",
          "name": "_swapOrderIndexes",
          "type": "uint256[]"
        },
        {
          "internalType": "uint256[]",
          "name": "_increaseOrderIndexes",
          "type": "uint256[]"
        },
        {
          "internalType": "uint256[]",
          "name": "_decreaseOrderIndexes",
          "type": "uint256[]"
        }
      ],
      "name": "cancelMultiple",
      "outputs": [],
      "stateMutability": "nonpayable",
      "type": "function"
    },
    {
      "inputs": [
        {
          "internalType": "uint256",
          "name": "_orderIndex",
          "type": "uint256"
        }
      ],
      "name": "cancelSwapOrder",
      "outputs": [],
      "stateMutability": "nonpayable",
      "type": "function"
    },
    {
      "inputs": [
        {
          "internalType": "address",
          "name": "_indexToken",
          "type": "address"
        },
        {
          "internalType": "uint256",
          "name": "_sizeDelta",
          "type": "uint256"
        },
        {
          "internalType": "address",
          "name": "_collateralToken",
          "type": "address"
        },
        {
          "internalType": "uint256",
          "name": "_collateralDelta",
          "type": "uint256"
        },
        {
          "internalType": "bool",
          "name": "_isLong",
          "type": "bool"
        },
        {
          "internalType": "uint256",
          "name": "_triggerPrice",
          "type": "uint256"
        },
        {
          "internalType": "bool",
          "name": "_triggerAboveThreshold",
          "type": "bool"
        }
      ],
      "name": "createDecreaseOrder",
      "outputs": [],
      "stateMutability": "payable",
      "type": "function"
    },
    {
      "inputs": [
        {
          "internalType": "address[]",
          "name": "_path",
          "type": "address[]"
        },
        {
          "internalType": "uint256",
          "name": "_amountIn",
          "type": "uint256"
        },
        {
          "internalType": "address",
          "name": "_indexToken",
          "type": "address"
        },
        {
          "internalType": "uint256",
          "name": "_minOut",
          "type": "uint256"
        },
        {
          "internalType": "uint256",
          "name": "_sizeDelta",
          "type": "uint256"
        },
        {
          "internalType": "address",
          "name": "_collateralToken",
          "type": "address"
        },
        {
          "internalType": "bool",
          "name": "_isLong",
          "type": "bool"
        },
        {
          "internalType": "uint256",
          "name": "_triggerPrice",
          "type": "uint256"
        },
        {
          "internalType": "bool",
          "name": "_triggerAboveThreshold",
          "type": "bool"
        },
        {
          "internalType": "uint256",
          "name": "_executionFee",
          "type": "uint256"
        },
        {
          "internalType": "bool",
          "name": "_shouldWrap",
          "type": "bool"
        }
      ],
      "name": "createIncreaseOrder",
      "outputs": [],
      "stateMutability": "payable",
      "type": "function"
    },
    {
      "inputs": [
        {
          "internalType": "address[]",
          "name": "_path",
          "type": "address[]"
        },
        {
          "internalType": "uint256",
          "name": "_amountIn",
          "type": "uint256"
        },
        {
          "internalType": "uint256",
          "name": "_minOut",
          "type": "uint256"
        },
        {
          "internalType": "uint256",
          "name": "_triggerRatio",
          "type": "uint256"
        },
        {
          "internalType": "bool",
          "name": "_triggerAboveThreshold",
          "type": "bool"
        },
        {
          "internalType": "uint256",
          "name": "_executionFee",
          "type": "uint256"
        },
        {
          "internalType": "bool",
          "name": "_shouldWrap",
          "type": "bool"
        },
        {
          "internalType": "bool",
          "name": "_shouldUnwrap",
          "type": "bool"
        }
      ],
      "name": "createSwapOrder",
      "outputs": [],
      "stateMutability": "payable",
      "type": "function"
    },
    {
      "inputs": [
        {
          "internalType": "address",
          "name": "",
          "type": "address"
        },
        {
          "internalType": "uint256",
          "name": "",
          "type": "uint256"
        }
      ],
      "name": "decreaseOrders",
      "outputs": [
        {
          "internalType": "address",
          "name": "account",
          "type": "address"
        },
        {
          "internalType": "address",
          "name": "collateralToken",
          "type": "address"
        },
        {
          "internalType": "uint256",
          "name": "collateralDelta",
          "type": "uint256"
        },
        {
          "internalType": "address",
          "name": "indexToken",
          "type": "address"
        },
        {
          "internalType": "uint256",
          "name": "sizeDelta",
          "type": "uint256"
        },
        {
          "internalType": "bool",
          "name": "isLong",
          "type": "bool"
        },
        {
          "internalType": "uint256",
          "name": "triggerPrice",
          "type": "uint256"
        },
        {
          "internalType": "bool",
          "name": "triggerAboveThreshold",
          "type": "bool"
        },
        {
          "internalType": "uint256",
          "name": "executionFee",
          "type": "uint256"
        }
      ],
      "stateMutability": "view",
      "type": "function"
    },
    {
      "inputs": [
        {
          "internalType": "address",
          "name": "",
          "type": "address"
        }
      ],
      "name": "decreaseOrdersIndex",
      "outputs": [
        {
          "internalType": "uint256",
          "name": "",
          "type": "uint256"
        }
      ],
      "stateMutability": "view",
      "type": "function"
    },
    {
      "inputs": [
        {
          "internalType": "address",
          "name": "_address",
          "type": "address"
        },
        {
          "internalType": "uint256",
          "name": "_orderIndex",
          "type": "uint256"
        },
        {
          "internalType": "address payable",
          "name": "_feeReceiver",
          "type": "address"
        }
      ],
      "name": "executeDecreaseOrder",
      "outputs": [],
      "stateMutability": "nonpayable",
      "type": "function"
    },
    {
      "inputs": [
        {
          "internalType": "address",
          "name": "_address",
          "type": "address"
        },
        {
          "internalType": "uint256",
          "name": "_orderIndex",
          "type": "uint256"
        },
        {
          "internalType": "address payable",
          "name": "_feeReceiver",
          "type": "address"
        }
      ],
      "name": "executeIncreaseOrder",
      "outputs": [],
      "stateMutability": "nonpayable",
      "type": "function"
    },
    {
      "inputs": [
        {
          "internalType": "address",
          "name": "_account",
          "type": "address"
        },
        {
          "internalType": "uint256",
          "name": "_orderIndex",
          "type": "uint256"
        },
        {
          "internalType": "address payable",
          "name": "_feeReceiver",
          "type": "address"
        }
      ],
      "name": "executeSwapOrder",
      "outputs": [],
      "stateMutability": "nonpayable",
      "type": "function"
    },
    {
      "inputs": [
        {
          "internalType": "address",
          "name": "_account",
          "type": "address"
        },
        {
          "internalType": "uint256",
          "name": "_orderIndex",
          "type": "uint256"
        }
      ],
      "name": "getDecreaseOrder",
      "outputs": [
        {
          "internalType": "address",
          "name": "collateralToken",
          "type": "address"
        },
        {
          "internalType": "uint256",
          "name": "collateralDelta",
          "type": "uint256"
        },
        {
          "internalType": "address",
          "name": "indexToken",
          "type": "address"
        },
        {
          "internalType": "uint256",
          "name": "sizeDelta",
          "type": "uint256"
        },
        {
          "internalType": "bool",
          "name": "isLong",
          "type": "bool"
        },
        {
          "internalType": "uint256",
          "name": "triggerPrice",
          "type": "uint256"
        },
        {
          "internalType": "bool",
          "name": "triggerAboveThreshold",
          "type": "bool"
        },
        {
          "internalType": "uint256",
          "name": "executionFee",
          "type": "uint256"
        }
      ],
      "stateMutability": "view",
      "type": "function"
    },
    {
      "inputs": [
        {
          "internalType": "address",
          "name": "_account",
          "type": "address"
        },
        {
          "internalType": "uint256",
          "name": "_orderIndex",
          "type": "uint256"
        }
      ],
      "name": "getIncreaseOrder",
      "outputs": [
        {
          "internalType": "address",
          "name": "purchaseToken",
          "type": "address"
        },
        {
          "internalType": "uint256",
          "name": "purchaseTokenAmount",
          "type": "uint256"
        },
        {
          "internalType": "address",
          "name": "collateralToken",
          "type": "address"
        },
        {
          "internalType": "address",
          "name": "indexToken",
          "type": "address"
        },
        {
          "internalType": "uint256",
          "name": "sizeDelta",
          "type": "uint256"
        },
        {
          "internalType": "bool",
          "name": "isLong",
          "type": "bool"
        },
        {
          "internalType": "uint256",
          "name": "triggerPrice",
          "type": "uint256"
        },
        {
          "internalType": "bool",
          "name": "triggerAboveThreshold",
          "type": "bool"
        },
        {
          "internalType": "uint256",
          "name": "executionFee",
          "type": "uint256"
        }
      ],
      "stateMutability": "view",
      "type": "function"
    },
    {
      "inputs": [
        {
          "internalType": "address",
          "name": "_account",
          "type": "address"
        },
        {
          "internalType": "uint256",
          "name": "_orderIndex",
          "type": "uint256"
        }
      ],
      "name": "getSwapOrder",
      "outputs": [
        {
          "internalType": "address",
          "name": "path0",
          "type": "address"
        },
        {
          "internalType": "address",
          "name": "path1",
          "type": "address"
        },
        {
          "internalType": "address",
          "name": "path2",
          "type": "address"
        },
        {
          "internalType": "uint256",
          "name": "amountIn",
          "type": "uint256"
        },
        {
          "internalType": "uint256",
          "name": "minOut",
          "type": "uint256"
        },
        {
          "internalType": "uint256",
          "name": "triggerRatio",
          "type": "uint256"
        },
        {
          "internalType": "bool",
          "name": "triggerAboveThreshold",
          "type": "bool"
        },
        {
          "internalType": "bool",
          "name": "shouldUnwrap",
          "type": "bool"
        },
        {
          "internalType": "uint256",
          "name": "executionFee",
          "type": "uint256"
        }
      ],
      "stateMutability": "view",
      "type": "function"
    },
    {
      "inputs": [
        {
          "internalType": "address",
          "name": "_otherToken",
          "type": "address"
        }
      ],
      "name": "getUsdgMinPrice",
      "outputs": [
        {
          "internalType": "uint256",
          "name": "",
          "type": "uint256"
        }
      ],
      "stateMutability": "view",
      "type": "function"
    },
    {
      "inputs": [],
      "name": "gov",
      "outputs": [
        {
          "internalType": "address",
          "name": "",
          "type": "address"
        }
      ],
      "stateMutability": "view",
      "type": "function"
    },
    {
      "inputs": [
        {
          "internalType": "address",
          "name": "",
          "type": "address"
        },
        {
          "internalType": "uint256",
          "name": "",
          "type": "uint256"
        }
      ],
      "name": "increaseOrders",
      "outputs": [
        {
          "internalType": "address",
          "name": "account",
          "type": "address"
        },
        {
          "internalType": "address",
          "name": "purchaseToken",
          "type": "address"
        },
        {
          "internalType": "uint256",
          "name": "purchaseTokenAmount",
          "type": "uint256"
        },
        {
          "internalType": "address",
          "name": "collateralToken",
          "type": "address"
        },
        {
          "internalType": "address",
          "name": "indexToken",
          "type": "address"
        },
        {
          "internalType": "uint256",
          "name": "sizeDelta",
          "type": "uint256"
        },
        {
          "internalType": "bool",
          "name": "isLong",
          "type": "bool"
        },
        {
          "internalType": "uint256",
          "name": "triggerPrice",
          "type": "uint256"
        },
        {
          "internalType": "bool",
          "name": "triggerAboveThreshold",
          "type": "bool"
        },
        {
          "internalType": "uint256",
          "name": "executionFee",
          "type": "uint256"
        }
      ],
      "stateMutability": "view",
      "type": "function"
    },
    {
      "inputs": [
        {
          "internalType": "address",
          "name": "",
          "type": "address"
        }
      ],
      "name": "increaseOrdersIndex",
      "outputs": [
        {
          "internalType": "uint256",
          "name": "",
          "type": "uint256"
        }
      ],
      "stateMutability": "view",
      "type": "function"
    },
    {
      "inputs": [
        {
          "internalType": "address",
          "name": "_router",
          "type": "address"
        },
        {
          "internalType": "address",
          "name": "_vault",
          "type": "address"
        },
        {
          "internalType": "address",
          "name": "_weth",
          "type": "address"
        },
        {
          "internalType": "address",
          "name": "_usdg",
          "type": "address"
        },
        {
          "internalType": "uint256",
          "name": "_minExecutionFee",
          "type": "uint256"
        },
        {
          "internalType": "uint256",
          "name": "_minPurchaseTokenAmountUsd",
          "type": "uint256"
        }
      ],
      "name": "initialize",
      "outputs": [],
      "stateMutability": "nonpayable",
      "type": "function"
    },
    {
      "inputs": [],
      "name": "isInitialized",
      "outputs": [
        {
          "internalType": "bool",
          "name": "",
          "type": "bool"
        }
      ],
      "stateMutability": "view",
      "type": "function"
    },
    {
      "inputs": [],
      "name": "minExecutionFee",
      "outputs": [
        {
          "internalType": "uint256",
          "name": "",
          "type": "uint256"
        }
      ],
      "stateMutability": "view",
      "type": "function"
    },
    {
      "inputs": [],
      "name": "minPurchaseTokenAmountUsd",
      "outputs": [
        {
          "internalType": "uint256",
          "name": "",
          "type": "uint256"
        }
      ],
      "stateMutability": "view",
      "type": "function"
    },
    {
      "inputs": [],
      "name": "router",
      "outputs": [
        {
          "internalType": "address",
          "name": "",
          "type": "address"
        }
      ],
      "stateMutability": "view",
      "type": "function"
    },
    {
      "inputs": [
        {
          "internalType": "address",
          "name": "_gov",
          "type": "address"
        }
      ],
      "name": "setGov",
      "outputs": [],
      "stateMutability": "nonpayable",
      "type": "function"
    },
    {
      "inputs": [
        {
          "internalType": "uint256",
          "name": "_minExecutionFee",
          "type": "uint256"
        }
      ],
      "name": "setMinExecutionFee",
      "outputs": [],
      "stateMutability": "nonpayable",
      "type": "function"
    },
    {
      "inputs": [
        {
          "internalType": "uint256",
          "name": "_minPurchaseTokenAmountUsd",
          "type": "uint256"
        }
      ],
      "name": "setMinPurchaseTokenAmountUsd",
      "outputs": [],
      "stateMutability": "nonpayable",
      "type": "function"
    },
    {
      "inputs": [
        {
          "internalType": "address",
          "name": "",
          "type": "address"
        },
        {
          "internalType": "uint256",
          "name": "",
          "type": "uint256"
        }
      ],
      "name": "swapOrders",
      "outputs": [
        {
          "internalType": "address",
          "name": "account",
          "type": "address"
        },
        {
          "internalType": "uint256",
          "name": "amountIn",
          "type": "uint256"
        },
        {
          "internalType": "uint256",
          "name": "minOut",
          "type": "uint256"
        },
        {
          "internalType": "uint256",
          "name": "triggerRatio",
          "type": "uint256"
        },
        {
          "internalType": "bool",
          "name": "triggerAboveThreshold",
          "type": "bool"
        },
        {
          "internalType": "bool",
          "name": "shouldUnwrap",
          "type": "bool"
        },
        {
          "internalType": "uint256",
          "name": "executionFee",
          "type": "uint256"
        }
      ],
      "stateMutability": "view",
      "type": "function"
    },
    {
      "inputs": [
        {
          "internalType": "address",
          "name": "",
          "type": "address"
        }
      ],
      "name": "swapOrdersIndex",
      "outputs": [
        {
          "internalType": "uint256",
          "name": "",
          "type": "uint256"
        }
      ],
      "stateMutability": "view",
      "type": "function"
    },
    {
      "inputs": [
        {
          "internalType": "uint256",
          "name": "_orderIndex",
          "type": "uint256"
        },
        {
          "internalType": "uint256",
          "name": "_collateralDelta",
          "type": "uint256"
        },
        {
          "internalType": "uint256",
          "name": "_sizeDelta",
          "type": "uint256"
        },
        {
          "internalType": "uint256",
          "name": "_triggerPrice",
          "type": "uint256"
        },
        {
          "internalType": "bool",
          "name": "_triggerAboveThreshold",
          "type": "bool"
        }
      ],
      "name": "updateDecreaseOrder",
      "outputs": [],
      "stateMutability": "nonpayable",
      "type": "function"
    },
    {
      "inputs": [
        {
          "internalType": "uint256",
          "name": "_orderIndex",
          "type": "uint256"
        },
        {
          "internalType": "uint256",
          "name": "_sizeDelta",
          "type": "uint256"
        },
        {
          "internalType": "uint256",
          "name": "_triggerPrice",
          "type": "uint256"
        },
        {
          "internalType": "bool",
          "name": "_triggerAboveThreshold",
          "type": "bool"
        }
      ],
      "name": "updateIncreaseOrder",
      "outputs": [],
      "stateMutability": "nonpayable",
      "type": "function"
    },
    {
      "inputs": [
        {
          "internalType": "uint256",
          "name": "_orderIndex",
          "type": "uint256"
        },
        {
          "internalType": "uint256",
          "name": "_minOut",
          "type": "uint256"
        },
        {
          "internalType": "uint256",
          "name": "_triggerRatio",
          "type": "uint256"
        },
        {
          "internalType": "bool",
          "name": "_triggerAboveThreshold",
          "type": "bool"
        }
      ],
      "name": "updateSwapOrder",
      "outputs": [],
      "stateMutability": "nonpayable",
      "type": "function"
    },
    {
      "inputs": [],
      "name": "usdg",
      "outputs": [
        {
          "internalType": "address",
          "name": "",
          "type": "address"
        }
      ],
      "stateMutability": "view",
      "type": "function"
    },
    {
      "inputs": [
        {
          "internalType": "bool",
          "name": "_triggerAboveThreshold",
          "type": "bool"
        },
        {
          "internalType": "uint256",
          "name": "_triggerPrice",
          "type": "uint256"
        },
        {
          "internalType": "address",
          "name": "_indexToken",
          "type": "address"
        },
        {
          "internalType": "bool",
          "name": "_maximizePrice",
          "type": "bool"
        },
        {
          "internalType": "bool",
          "name": "_raise",
          "type": "bool"
        }
      ],
      "name": "validatePositionOrderPrice",
      "outputs": [
        {
          "internalType": "uint256",
          "name": "",
          "type": "uint256"
        },
        {
          "internalType": "bool",
          "name": "",
          "type": "bool"
        }
      ],
      "stateMutability": "view",
      "type": "function"
    },
    {
      "inputs": [
        {
          "internalType": "address[]",
          "name": "_path",
          "type": "address[]"
        },
        {
          "internalType": "uint256",
          "name": "_triggerRatio",
          "type": "uint256"
        }
      ],
      "name": "validateSwapOrderPriceWithTriggerAboveThreshold",
      "outputs": [
        {
          "internalType": "bool",
          "name": "",
          "type": "bool"
        }
      ],
      "stateMutability": "view",
      "type": "function"
    },
    {
      "inputs": [],
      "name": "vault",
      "outputs": [
        {
          "internalType": "address",
          "name": "",
          "type": "address"
        }
      ],
      "stateMutability": "view",
      "type": "function"
    },
    {
      "inputs": [],
      "name": "weth",
      "outputs": [
        {
          "internalType": "address",
          "name": "",
          "type": "address"
        }
      ],
      "stateMutability": "view",
      "type": "function"
    },
    {
      "stateMutability": "payable",
      "type": "receive"
    }
  ],
  "bytecode": "0x60806040526000600e60006101000a81548160ff0219169083151502179055503480156200002c57600080fd5b50600160008190555033600760006101000a81548173ffffffffffffffffffffffffffffffffffffffff021916908373ffffffffffffffffffffffffffffffffffffffff160217905550618ac180620000866000396000f3fe6080604052600436106102335760003560e01c80639e23de5c1161012e578063d38ab519116100ab578063f5b91b7b1161006f578063f5b91b7b146115f4578063f882ac0714611635578063f887ea4014611670578063fbfa77cf146116b1578063fc2cee62146116f2576102fd565b8063d38ab51914611275578063d3bab1d1146112f0578063d566d0ca146113dd578063d7c41c7914611442578063f2d2e01b14611507576102fd565b8063c16cde8a116100f2578063c16cde8a14610f5d578063c4a1821b14610ff7578063c86b0f7d146110dc578063cfad57a214611137578063d0d40cd614611188576102fd565b80639e23de5c14610ca45780639e71b0f014610d09578063a397ea5414610d44578063aec2245514610da9578063b142a4b014610e0e576102fd565b80633fc8cef3116101bc57806379221fa21161018057806379221fa214610953578063807c560014610a065780638de10c2e14610bf357806395082d2514610c1e5780639983ee1b14610c49576102fd565b80633fc8cef3146107e557806347e0bbd0146108265780634a686d67146108615780634c54f0b01461088c57806363ae210314610928576102fd565b806311d9444a1161020357806311d9444a146104ed57806312d43a5114610568578063269ae6c2146105a95780632b7d6290146106ae578063392e53cd146107b8576102fd565b8062cf066b14610302578063026032ee1461036757806307c7edc3146104375780630d5cc938146104b2576102fd565b366102fd57600860009054906101000a900473ffffffffffffffffffffffffffffffffffffffff1673ffffffffffffffffffffffffffffffffffffffff163373ffffffffffffffffffffffffffffffffffffffff16146102fb576040517f08c379a00000000000000000000000000000000000000000000000000000000081526004018080602001828103825260198152602001807f4f72646572426f6f6b3a20696e76616c69642073656e6465720000000000000081525060200191505060405180910390fd5b005b600080fd5b34801561030e57600080fd5b506103516004803603602081101561032557600080fd5b81019080803573ffffffffffffffffffffffffffffffffffffffff16906020019092919050505061172d565b6040518082815260200191505060405180910390f35b34801561037357600080fd5b506103c06004803603604081101561038a57600080fd5b81019080803573ffffffffffffffffffffffffffffffffffffffff16906020019092919080359060200190929190505050611745565b604051808973ffffffffffffffffffffffffffffffffffffffff1681526020018881526020018773ffffffffffffffffffffffffffffffffffffffff168152602001868152602001851515815260200184815260200183151581526020018281526020019850505050505050505060405180910390f35b34801561044357600080fd5b506104b06004803603606081101561045a57600080fd5b81019080803573ffffffffffffffffffffffffffffffffffffffff16906020019092919080359060200190929190803573ffffffffffffffffffffffffffffffffffffffff16906020019092919050505061195e565b005b3480156104be57600080fd5b506104eb600480360360208110156104d557600080fd5b8101908080359060200190929190505050611fad565b005b3480156104f957600080fd5b506105666004803603606081101561051057600080fd5b81019080803573ffffffffffffffffffffffffffffffffffffffff16906020019092919080359060200190929190803573ffffffffffffffffffffffffffffffffffffffff1690602001909291905050506120b1565b005b34801561057457600080fd5b5061057d6127d4565b604051808273ffffffffffffffffffffffffffffffffffffffff16815260200191505060405180910390f35b6106ac60048036036101008110156105c057600080fd5b81019080803590602001906401000000008111156105dd57600080fd5b8201836020820111156105ef57600080fd5b8035906020019184602083028401116401000000008311171561061157600080fd5b919080806020026020016040519081016040528093929190818152602001838360200280828437600081840152601f19601f820116905080830192505050505050509192919290803590602001909291908035906020019092919080359060200190929190803515159060200190929190803590602001909291908035151590602001909291908035151590602001909291905050506127fa565b005b3480156106ba57600080fd5b50610707600480360360408110156106d157600080fd5b81019080803573ffffffffffffffffffffffffffffffffffffffff16906020019092919080359060200190929190505050612d49565b604051808b73ffffffffffffffffffffffffffffffffffffffff1681526020018a73ffffffffffffffffffffffffffffffffffffffff1681526020018981526020018873ffffffffffffffffffffffffffffffffffffffff1681526020018773ffffffffffffffffffffffffffffffffffffffff168152602001868152602001851515815260200184815260200183151581526020018281526020019a505050505050505050505060405180910390f35b3480156107c457600080fd5b506107cd612e44565b60405180821515815260200191505060405180910390f35b3480156107f157600080fd5b506107fa612e57565b604051808273ffffffffffffffffffffffffffffffffffffffff16815260200191505060405180910390f35b34801561083257600080fd5b5061085f6004803603602081101561084957600080fd5b8101908080359060200190929190505050612e7d565b005b34801561086d57600080fd5b506108766134d1565b6040518082815260200191505060405180910390f35b34801561089857600080fd5b50610909600480360360a08110156108af57600080fd5b8101908080351515906020019092919080359060200190929190803573ffffffffffffffffffffffffffffffffffffffff1690602001909291908035151590602001909291908035151590602001909291905050506134dd565b6040518083815260200182151581526020019250505060405180910390f35b34801561093457600080fd5b5061093d6136fb565b6040518082815260200191505060405180910390f35b34801561095f57600080fd5b506109ac6004803603604081101561097657600080fd5b81019080803573ffffffffffffffffffffffffffffffffffffffff16906020019092919080359060200190929190505050613701565b604051808873ffffffffffffffffffffffffffffffffffffffff1681526020018781526020018681526020018581526020018415158152602001831515815260200182815260200197505050505050505060405180910390f35b348015610a1257600080fd5b50610bf160048036036060811015610a2957600080fd5b8101908080359060200190640100000000811115610a4657600080fd5b820183602082011115610a5857600080fd5b80359060200191846020830284011164010000000083111715610a7a57600080fd5b919080806020026020016040519081016040528093929190818152602001838360200280828437600081840152601f19601f82011690508083019250505050505050919291929080359060200190640100000000811115610ada57600080fd5b820183602082011115610aec57600080fd5b80359060200191846020830284011164010000000083111715610b0e57600080fd5b919080806020026020016040519081016040528093929190818152602001838360200280828437600081840152601f19601f82011690508083019250505050505050919291929080359060200190640100000000811115610b6e57600080fd5b820183602082011115610b8057600080fd5b80359060200191846020830284011164010000000083111715610ba257600080fd5b919080806020026020016040519081016040528093929190818152602001838360200280828437600081840152601f19601f82011690508083019250505050505050919291929050505061378a565b005b348015610bff57600080fd5b50610c08613831565b6040518082815260200191505060405180910390f35b348015610c2a57600080fd5b50610c33613837565b6040518082815260200191505060405180910390f35b348015610c5557600080fd5b50610ca260048036036080811015610c6c57600080fd5b81019080803590602001909291908035906020019092919080359060200190929190803515159060200190929190505050613848565b005b348015610cb057600080fd5b50610cf360048036036020811015610cc757600080fd5b81019080803573ffffffffffffffffffffffffffffffffffffffff169060200190929190505050613b28565b6040518082815260200191505060405180910390f35b348015610d1557600080fd5b50610d4260048036036020811015610d2c57600080fd5b8101908080359060200190929190505050613dc3565b005b348015610d5057600080fd5b50610da7600480360360a0811015610d6757600080fd5b81019080803590602001909291908035906020019092919080359060200190929190803590602001909291908035151590602001909291905050506142bf565b005b348015610db557600080fd5b50610df860048036036020811015610dcc57600080fd5b81019080803573ffffffffffffffffffffffffffffffffffffffff1690602001909291905050506145b1565b6040518082815260200191505060405180910390f35b610f5b6004803603610160811015610e2557600080fd5b8101908080359060200190640100000000811115610e4257600080fd5b820183602082011115610e5457600080fd5b80359060200191846020830284011164010000000083111715610e7657600080fd5b919080806020026020016040519081016040528093929190818152602001838360200280828437600081840152601f19601f82011690508083019250505050505050919291929080359060200190929190803573ffffffffffffffffffffffffffffffffffffffff1690602001909291908035906020019092919080359060200190929190803573ffffffffffffffffffffffffffffffffffffffff16906020019092919080351515906020019092919080359060200190929190803515159060200190929190803590602001909291908035151590602001909291905050506145c9565b005b610ff5600480360360e0811015610f7357600080fd5b81019080803573ffffffffffffffffffffffffffffffffffffffff16906020019092919080359060200190929190803573ffffffffffffffffffffffffffffffffffffffff1690602001909291908035906020019092919080351515906020019092919080359060200190929190803515159060200190929190505050614bda565b005b34801561100357600080fd5b506110c46004803603604081101561101a57600080fd5b810190808035906020019064010000000081111561103757600080fd5b82018360208201111561104957600080fd5b8035906020019184602083028401116401000000008311171561106b57600080fd5b919080806020026020016040519081016040528093929190818152602001838360200280828437600081840152601f19601f82011690508083019250505050505050919291929080359060200190929190505050614cde565b60405180821515815260200191505060405180910390f35b3480156110e857600080fd5b50611135600480360360808110156110ff57600080fd5b8101908080359060200190929190803590602001909291908035906020019092919080351515906020019092919050505061505a565b005b34801561114357600080fd5b506111866004803603602081101561115a57600080fd5b81019080803573ffffffffffffffffffffffffffffffffffffffff16906020019092919050505061534d565b005b34801561119457600080fd5b506111e1600480360360408110156111ab57600080fd5b81019080803573ffffffffffffffffffffffffffffffffffffffff169060200190929190803590602001909291905050506154a1565b604051808a73ffffffffffffffffffffffffffffffffffffffff1681526020018973ffffffffffffffffffffffffffffffffffffffff1681526020018873ffffffffffffffffffffffffffffffffffffffff16815260200187815260200186815260200185815260200184151581526020018315158152602001828152602001995050505050505050505060405180910390f35b34801561128157600080fd5b506112ee6004803603606081101561129857600080fd5b81019080803573ffffffffffffffffffffffffffffffffffffffff16906020019092919080359060200190929190803573ffffffffffffffffffffffffffffffffffffffff16906020019092919050505061571f565b005b3480156112fc57600080fd5b506113496004803603604081101561131357600080fd5b81019080803573ffffffffffffffffffffffffffffffffffffffff16906020019092919080359060200190929190505050615fc7565b604051808a73ffffffffffffffffffffffffffffffffffffffff1681526020018981526020018873ffffffffffffffffffffffffffffffffffffffff1681526020018773ffffffffffffffffffffffffffffffffffffffff16815260200186815260200185151581526020018481526020018315158152602001828152602001995050505050505050505060405180910390f35b3480156113e957600080fd5b5061142c6004803603602081101561140057600080fd5b81019080803573ffffffffffffffffffffffffffffffffffffffff169060200190929190505050616240565b6040518082815260200191505060405180910390f35b34801561144e57600080fd5b50611505600480360360c081101561146557600080fd5b81019080803573ffffffffffffffffffffffffffffffffffffffff169060200190929190803573ffffffffffffffffffffffffffffffffffffffff169060200190929190803573ffffffffffffffffffffffffffffffffffffffff169060200190929190803573ffffffffffffffffffffffffffffffffffffffff1690602001909291908035906020019092919080359060200190929190505050616258565b005b34801561151357600080fd5b506115606004803603604081101561152a57600080fd5b81019080803573ffffffffffffffffffffffffffffffffffffffff1690602001909291908035906020019092919050505061658a565b604051808a73ffffffffffffffffffffffffffffffffffffffff1681526020018973ffffffffffffffffffffffffffffffffffffffff1681526020018881526020018773ffffffffffffffffffffffffffffffffffffffff16815260200186815260200185151581526020018481526020018315158152602001828152602001995050505050505050505060405180910390f35b34801561160057600080fd5b5061160961665f565b604051808273ffffffffffffffffffffffffffffffffffffffff16815260200191505060405180910390f35b34801561164157600080fd5b5061166e6004803603602081101561165857600080fd5b8101908080359060200190929190505050616685565b005b34801561167c57600080fd5b50611685616c07565b604051808273ffffffffffffffffffffffffffffffffffffffff16815260200191505060405180910390f35b3480156116bd57600080fd5b506116c6616c2d565b604051808273ffffffffffffffffffffffffffffffffffffffff16815260200191505060405180910390f35b3480156116fe57600080fd5b5061172b6004803603602081101561171557600080fd5b8101908080359060200190929190505050616c53565b005b60066020528060005260406000206000915090505481565b600080600080600080600080611759618636565b600360008c73ffffffffffffffffffffffffffffffffffffffff1673ffffffffffffffffffffffffffffffffffffffff16815260200190815260200160002060008b8152602001908152602001600020604051806101200160405290816000820160009054906101000a900473ffffffffffffffffffffffffffffffffffffffff1673ffffffffffffffffffffffffffffffffffffffff1673ffffffffffffffffffffffffffffffffffffffff1681526020016001820160009054906101000a900473ffffffffffffffffffffffffffffffffffffffff1673ffffffffffffffffffffffffffffffffffffffff1673ffffffffffffffffffffffffffffffffffffffff168152602001600282015481526020016003820160009054906101000a900473ffffffffffffffffffffffffffffffffffffffff1673ffffffffffffffffffffffffffffffffffffffff1673ffffffffffffffffffffffffffffffffffffffff168152602001600482015481526020016005820160009054906101000a900460ff16151515158152602001600682015481526020016007820160009054906101000a900460ff16151515158152602001600882015481525050905080602001518160400151826060015183608001518460a001518560c001518660e0015187610100015198509850985098509850985098509850509295985092959890939650565b600260005414156119d7576040517f08c379a000000000000000000000000000000000000000000000000000000000815260040180806020018281038252601f8152602001807f5265656e7472616e637947756172643a207265656e7472616e742063616c6c0081525060200191505060405180910390fd5b60026000819055506119e76186c8565b600560008573ffffffffffffffffffffffffffffffffffffffff1673ffffffffffffffffffffffffffffffffffffffff1681526020019081526020016000206000848152602001908152602001600020604051806101000160405290816000820160009054906101000a900473ffffffffffffffffffffffffffffffffffffffff1673ffffffffffffffffffffffffffffffffffffffff1673ffffffffffffffffffffffffffffffffffffffff16815260200160018201805480602002602001604051908101604052809291908181526020018280548015611b1e57602002820191906000526020600020905b8160009054906101000a900473ffffffffffffffffffffffffffffffffffffffff1673ffffffffffffffffffffffffffffffffffffffff1681526020019060010190808311611ad4575b505050505081526020016002820154815260200160038201548152602001600482015481526020016005820160009054906101000a900460ff161515151581526020016005820160019054906101000a900460ff161515151581526020016006820154815250509050600073ffffffffffffffffffffffffffffffffffffffff16816000015173ffffffffffffffffffffffffffffffffffffffff161415611c2e576040517f08c379a000000000000000000000000000000000000000000000000000000000815260040180806020018281038252601d8152602001807f4f72646572426f6f6b3a206e6f6e2d6578697374656e74206f7264657200000081525060200191505060405180910390fd5b8060a0015115611ca057611c4a81602001518260800151614cde565b611c9f576040517f08c379a0000000000000000000000000000000000000000000000000000000008152600401808060200182810382526026815260200180618a0e6026913960400191505060405180910390fd5b5b600560008573ffffffffffffffffffffffffffffffffffffffff1673ffffffffffffffffffffffffffffffffffffffff1681526020019081526020016000206000848152602001908152602001600020600080820160006101000a81549073ffffffffffffffffffffffffffffffffffffffff0219169055600182016000611d289190618727565b6002820160009055600382016000905560048201600090556005820160006101000a81549060ff02191690556005820160016101000a81549060ff021916905560068201600090555050611ddb600b60009054906101000a900473ffffffffffffffffffffffffffffffffffffffff1682604001518360200151600081518110611dae57fe5b602002602001015173ffffffffffffffffffffffffffffffffffffffff16616d579092919063ffffffff16565b6000600860009054906101000a900473ffffffffffffffffffffffffffffffffffffffff1673ffffffffffffffffffffffffffffffffffffffff16826020015160018460200151510381518110611e2e57fe5b602002602001015173ffffffffffffffffffffffffffffffffffffffff16148015611e5a57508160c001515b15611e8757611e728260200151836060015130616df9565b9050611e82818360000151616f95565b611ea1565b611e9e826020015183606001518460000151616df9565b90505b611eaf8260e0015184616f95565b8473ffffffffffffffffffffffffffffffffffffffff167f7e1fe496989eea92b738a562dbf9c0ae6aa6fcf3f1ef09e95ee4f7603721706b858460200151856040015186606001518688608001518960a001518a60c001518b60e00151604051808a8152602001806020018981526020018881526020018781526020018681526020018515158152602001841515815260200183815260200182810382528a818151815260200191508051906020019060200280838360005b83811015611f83578082015181840152602081019050611f68565b505050509050019a505050505050505050505060405180910390a250506001600081905550505050565b600760009054906101000a900473ffffffffffffffffffffffffffffffffffffffff1673ffffffffffffffffffffffffffffffffffffffff163373ffffffffffffffffffffffffffffffffffffffff1614612070576040517f08c379a00000000000000000000000000000000000000000000000000000000081526004018080602001828103825260148152602001807f4f72646572426f6f6b3a20666f7262696464656e00000000000000000000000081525060200191505060405180910390fd5b80600d819055507fe46d9daf6d25f7615efa1d0183b90ac6759d85014b598e409aadf0fd918d59a6816040518082815260200191505060405180910390a150565b6002600054141561212a576040517f08c379a000000000000000000000000000000000000000000000000000000000815260040180806020018281038252601f8152602001807f5265656e7472616e637947756172643a207265656e7472616e742063616c6c0081525060200191505060405180910390fd5b600260008190555061213a618636565b600360008573ffffffffffffffffffffffffffffffffffffffff1673ffffffffffffffffffffffffffffffffffffffff1681526020019081526020016000206000848152602001908152602001600020604051806101200160405290816000820160009054906101000a900473ffffffffffffffffffffffffffffffffffffffff1673ffffffffffffffffffffffffffffffffffffffff1673ffffffffffffffffffffffffffffffffffffffff1681526020016001820160009054906101000a900473ffffffffffffffffffffffffffffffffffffffff1673ffffffffffffffffffffffffffffffffffffffff1673ffffffffffffffffffffffffffffffffffffffff168152602001600282015481526020016003820160009054906101000a900473ffffffffffffffffffffffffffffffffffffffff1673ffffffffffffffffffffffffffffffffffffffff1673ffffffffffffffffffffffffffffffffffffffff168152602001600482015481526020016005820160009054906101000a900460ff16151515158152602001600682015481526020016007820160009054906101000a900460ff161515151581526020016008820154815250509050600073ffffffffffffffffffffffffffffffffffffffff16816000015173ffffffffffffffffffffffffffffffffffffffff16141561239f576040517f08c379a000000000000000000000000000000000000000000000000000000000815260040180806020018281038252601d8152602001807f4f72646572426f6f6b3a206e6f6e2d6578697374656e74206f7264657200000081525060200191505060405180910390fd5b60006123c08260e001518360c0015184606001518560a001511560016134dd565b509050600360008673ffffffffffffffffffffffffffffffffffffffff1673ffffffffffffffffffffffffffffffffffffffff1681526020019081526020016000206000858152602001908152602001600020600080820160006101000a81549073ffffffffffffffffffffffffffffffffffffffff02191690556001820160006101000a81549073ffffffffffffffffffffffffffffffffffffffff021916905560028201600090556003820160006101000a81549073ffffffffffffffffffffffffffffffffffffffff021916905560048201600090556005820160006101000a81549060ff021916905560068201600090556007820160006101000a81549060ff0219169055600882016000905550506000600a60009054906101000a900473ffffffffffffffffffffffffffffffffffffffff1673ffffffffffffffffffffffffffffffffffffffff16632662166b846000015185602001518660600151876040015188608001518960a00151306040518863ffffffff1660e01b8152600401808873ffffffffffffffffffffffffffffffffffffffff1681526020018773ffffffffffffffffffffffffffffffffffffffff1681526020018673ffffffffffffffffffffffffffffffffffffffff16815260200185815260200184815260200183151581526020018273ffffffffffffffffffffffffffffffffffffffff168152602001975050505050505050602060405180830381600087803b1580156125ec57600080fd5b505af1158015612600573d6000803e3d6000fd5b505050506040513d602081101561261657600080fd5b81019080805190602001909291905050509050600860009054906101000a900473ffffffffffffffffffffffffffffffffffffffff1673ffffffffffffffffffffffffffffffffffffffff16836020015173ffffffffffffffffffffffffffffffffffffffff16141561269657612691818460000151616f95565b6126ca565b6126c9836000015182856020015173ffffffffffffffffffffffffffffffffffffffff16616d579092919063ffffffff16565b5b6126d983610100015185616f95565b826000015173ffffffffffffffffffffffffffffffffffffffff167f9a382661d6573da86db000471303be6f0b2b1bb66089b08e3c16a85d7b6e94f88685602001518660400151876060015188608001518960a001518a60c001518b60e001518c61010001518c604051808b81526020018a73ffffffffffffffffffffffffffffffffffffffff1681526020018981526020018873ffffffffffffffffffffffffffffffffffffffff168152602001878152602001861515815260200185815260200184151581526020018381526020018281526020019a505050505050505050505060405180910390a25050506001600081905550505050565b600760009054906101000a900473ffffffffffffffffffffffffffffffffffffffff1681565b60026000541415612873576040517f08c379a000000000000000000000000000000000000000000000000000000000815260040180806020018281038252601f8152602001807f5265656e7472616e637947756172643a207265656e7472616e742063616c6c0081525060200191505060405180910390fd5b600260008190555060028851148061288c575060038851145b6128fe576040517f08c379a000000000000000000000000000000000000000000000000000000000815260040180806020018281038252601f8152602001807f4f72646572426f6f6b3a20696e76616c6964205f706174682e6c656e6774680081525060200191505060405180910390fd5b8760018951038151811061290e57fe5b602002602001015173ffffffffffffffffffffffffffffffffffffffff168860008151811061293957fe5b602002602001015173ffffffffffffffffffffffffffffffffffffffff1614156129cb576040517f08c379a00000000000000000000000000000000000000000000000000000000081526004018080602001828103825260188152602001807f4f72646572426f6f6b3a20696e76616c6964205f70617468000000000000000081525060200191505060405180910390fd5b60008711612a41576040517f08c379a000000000000000000000000000000000000000000000000000000000815260040180806020018281038252601c8152602001807f4f72646572426f6f6b3a20696e76616c6964205f616d6f756e74496e0000000081525060200191505060405180910390fd5b600c54831015612a9c576040517f08c379a00000000000000000000000000000000000000000000000000000000081526004018080602001828103825260258152602001806189a26025913960400191505060405180910390fd5b612aa461704f565b8115612bd357600860009054906101000a900473ffffffffffffffffffffffffffffffffffffffff1673ffffffffffffffffffffffffffffffffffffffff1688600081518110612af057fe5b602002602001015173ffffffffffffffffffffffffffffffffffffffff1614612b64576040517f08c379a000000000000000000000000000000000000000000000000000000000815260040180806020018281038252602581526020018061897d6025913960400191505060405180910390fd5b612b7787846170dd90919063ffffffff16565b3414612bce576040517f08c379a00000000000000000000000000000000000000000000000000000000081526004018080602001828103825260268152602001806189e86026913960400191505060405180910390fd5b612d27565b823414612c2b576040517f08c379a000000000000000000000000000000000000000000000000000000000815260040180806020018281038252602e815260200180618a5e602e913960400191505060405180910390fd5b600a60009054906101000a900473ffffffffffffffffffffffffffffffffffffffff1673ffffffffffffffffffffffffffffffffffffffff16631b82787889600081518110612c7657fe5b602002602001015133308b6040518563ffffffff1660e01b8152600401808573ffffffffffffffffffffffffffffffffffffffff1681526020018473ffffffffffffffffffffffffffffffffffffffff1681526020018373ffffffffffffffffffffffffffffffffffffffff168152602001828152602001945050505050600060405180830381600087803b158015612d0e57600080fd5b505af1158015612d22573d6000803e3d6000fd5b505050505b612d37338989898989878a617165565b60016000819055505050505050505050565b6001602052816000526040600020602052806000526040600020600091509150508060000160009054906101000a900473ffffffffffffffffffffffffffffffffffffffff16908060010160009054906101000a900473ffffffffffffffffffffffffffffffffffffffff16908060020154908060030160009054906101000a900473ffffffffffffffffffffffffffffffffffffffff16908060040160009054906101000a900473ffffffffffffffffffffffffffffffffffffffff16908060050154908060060160009054906101000a900460ff16908060070154908060080160009054906101000a900460ff1690806009015490508a565b600e60009054906101000a900460ff1681565b600860009054906101000a900473ffffffffffffffffffffffffffffffffffffffff1681565b60026000541415612ef6576040517f08c379a000000000000000000000000000000000000000000000000000000000815260040180806020018281038252601f8152602001807f5265656e7472616e637947756172643a207265656e7472616e742063616c6c0081525060200191505060405180910390fd5b6002600081905550612f06618748565b600160003373ffffffffffffffffffffffffffffffffffffffff1673ffffffffffffffffffffffffffffffffffffffff1681526020019081526020016000206000838152602001908152602001600020604051806101400160405290816000820160009054906101000a900473ffffffffffffffffffffffffffffffffffffffff1673ffffffffffffffffffffffffffffffffffffffff1673ffffffffffffffffffffffffffffffffffffffff1681526020016001820160009054906101000a900473ffffffffffffffffffffffffffffffffffffffff1673ffffffffffffffffffffffffffffffffffffffff1673ffffffffffffffffffffffffffffffffffffffff168152602001600282015481526020016003820160009054906101000a900473ffffffffffffffffffffffffffffffffffffffff1673ffffffffffffffffffffffffffffffffffffffff1673ffffffffffffffffffffffffffffffffffffffff1681526020016004820160009054906101000a900473ffffffffffffffffffffffffffffffffffffffff1673ffffffffffffffffffffffffffffffffffffffff1673ffffffffffffffffffffffffffffffffffffffff168152602001600582015481526020016006820160009054906101000a900460ff16151515158152602001600782015481526020016008820160009054906101000a900460ff161515151581526020016009820154815250509050600073ffffffffffffffffffffffffffffffffffffffff16816000015173ffffffffffffffffffffffffffffffffffffffff1614156131c1576040517f08c379a000000000000000000000000000000000000000000000000000000000815260040180806020018281038252601d8152602001807f4f72646572426f6f6b3a206e6f6e2d6578697374656e74206f7264657200000081525060200191505060405180910390fd5b600160003373ffffffffffffffffffffffffffffffffffffffff1673ffffffffffffffffffffffffffffffffffffffff1681526020019081526020016000206000838152602001908152602001600020600080820160006101000a81549073ffffffffffffffffffffffffffffffffffffffff02191690556001820160006101000a81549073ffffffffffffffffffffffffffffffffffffffff021916905560028201600090556003820160006101000a81549073ffffffffffffffffffffffffffffffffffffffff02191690556004820160006101000a81549073ffffffffffffffffffffffffffffffffffffffff021916905560058201600090556006820160006101000a81549060ff021916905560078201600090556008820160006101000a81549060ff021916905560098201600090555050600860009054906101000a900473ffffffffffffffffffffffffffffffffffffffff1673ffffffffffffffffffffffffffffffffffffffff16816020015173ffffffffffffffffffffffffffffffffffffffff16141561337c5761337761337182604001518361012001516170dd90919063ffffffff16565b33616f95565b6133bf565b6133af338260400151836020015173ffffffffffffffffffffffffffffffffffffffff16616d579092919063ffffffff16565b6133be81610120015133616f95565b5b806000015173ffffffffffffffffffffffffffffffffffffffff167fd500f34e0ec655b7614ae42e1d9c666d5e4dde909a1297829f8c5ecf00805d328383602001518460400151856060015186608001518760a001518860c001518960e001518a61010001518b6101200151604051808b81526020018a73ffffffffffffffffffffffffffffffffffffffff1681526020018981526020018873ffffffffffffffffffffffffffffffffffffffff1681526020018773ffffffffffffffffffffffffffffffffffffffff168152602001868152602001851515815260200184815260200183151581526020018281526020019a505050505050505050505060405180910390a250600160008190555050565b670de0b6b3a764000081565b6000806000846135b057600b60009054906101000a900473ffffffffffffffffffffffffffffffffffffffff1673ffffffffffffffffffffffffffffffffffffffff166381a612d6876040518263ffffffff1660e01b8152600401808273ffffffffffffffffffffffffffffffffffffffff16815260200191505060206040518083038186803b15801561357057600080fd5b505afa158015613584573d6000803e3d6000fd5b505050506040513d602081101561359a57600080fd5b8101908080519060200190929190505050613675565b600b60009054906101000a900473ffffffffffffffffffffffffffffffffffffffff1673ffffffffffffffffffffffffffffffffffffffff1663e124e6d2876040518263ffffffff1660e01b8152600401808273ffffffffffffffffffffffffffffffffffffffff16815260200191505060206040518083038186803b15801561363957600080fd5b505afa15801561364d573d6000803e3d6000fd5b505050506040513d602081101561366357600080fd5b81019080805190602001909291905050505b90506000886136865787821061368a565b8782115b905084156136e957806136e8576040517f08c379a0000000000000000000000000000000000000000000000000000000008152600401808060200182810382526026815260200180618a0e6026913960400191505060405180910390fd5b5b81819350935050509550959350505050565b600c5481565b6005602052816000526040600020602052806000526040600020600091509150508060000160009054906101000a900473ffffffffffffffffffffffffffffffffffffffff16908060020154908060030154908060040154908060050160009054906101000a900460ff16908060050160019054906101000a900460ff16908060060154905087565b60005b83518110156137bf576137b28482815181106137a557fe5b6020026020010151616685565b808060010191505061378d565b5060005b82518110156137f5576137e88382815181106137db57fe5b6020026020010151612e7d565b80806001019150506137c3565b5060005b815181101561382b5761381e82828151811061381157fe5b6020026020010151613dc3565b80806001019150506137f9565b50505050565b600d5481565b6c0c9f2c9cd04674edea4000000081565b600260005414156138c1576040517f08c379a000000000000000000000000000000000000000000000000000000000815260040180806020018281038252601f8152602001807f5265656e7472616e637947756172643a207265656e7472616e742063616c6c0081525060200191505060405180910390fd5b60026000819055506000600160003373ffffffffffffffffffffffffffffffffffffffff1673ffffffffffffffffffffffffffffffffffffffff16815260200190815260200160002060008681526020019081526020016000209050600073ffffffffffffffffffffffffffffffffffffffff168160000160009054906101000a900473ffffffffffffffffffffffffffffffffffffffff1673ffffffffffffffffffffffffffffffffffffffff1614156139e4576040517f08c379a000000000000000000000000000000000000000000000000000000000815260040180806020018281038252601d8152602001807f4f72646572426f6f6b3a206e6f6e2d6578697374656e74206f7264657200000081525060200191505060405180910390fd5b828160070181905550818160080160006101000a81548160ff0219169083151502179055508381600501819055503373ffffffffffffffffffffffffffffffffffffffff167f0a0360dd5c354235bbf8d386ba3b24ef8134088e0785677de1504df219d9149a868360030160009054906101000a900473ffffffffffffffffffffffffffffffffffffffff168460040160009054906101000a900473ffffffffffffffffffffffffffffffffffffffff168560060160009054906101000a900460ff16898989604051808881526020018773ffffffffffffffffffffffffffffffffffffffff1681526020018673ffffffffffffffffffffffffffffffffffffffff1681526020018515158152602001848152602001838152602001821515815260200197505050505050505060405180910390a250600160008190555050505050565b600080600b60009054906101000a900473ffffffffffffffffffffffffffffffffffffffff1673ffffffffffffffffffffffffffffffffffffffff16632c668ec184670de0b6b3a76400006040518363ffffffff1660e01b8152600401808373ffffffffffffffffffffffffffffffffffffffff1681526020018281526020019250505060206040518083038186803b158015613bc457600080fd5b505afa158015613bd8573d6000803e3d6000fd5b505050506040513d6020811015613bee57600080fd5b810190808051906020019092919050505090506000600b60009054906101000a900473ffffffffffffffffffffffffffffffffffffffff1673ffffffffffffffffffffffffffffffffffffffff166381a612d6856040518263ffffffff1660e01b8152600401808273ffffffffffffffffffffffffffffffffffffffff16815260200191505060206040518083038186803b158015613c8c57600080fd5b505afa158015613ca0573d6000803e3d6000fd5b505050506040513d6020811015613cb657600080fd5b810190808051906020019092919050505090506000600b60009054906101000a900473ffffffffffffffffffffffffffffffffffffffff1673ffffffffffffffffffffffffffffffffffffffff16638ee573ac866040518263ffffffff1660e01b8152600401808273ffffffffffffffffffffffffffffffffffffffff16815260200191505060206040518083038186803b158015613d5457600080fd5b505afa158015613d68573d6000803e3d6000fd5b505050506040513d6020811015613d7e57600080fd5b81019080805190602001909291905050509050613db981600a0a613dab848661745590919063ffffffff16565b6174db90919063ffffffff16565b9350505050919050565b60026000541415613e3c576040517f08c379a000000000000000000000000000000000000000000000000000000000815260040180806020018281038252601f8152602001807f5265656e7472616e637947756172643a207265656e7472616e742063616c6c0081525060200191505060405180910390fd5b6002600081905550613e4c618636565b600360003373ffffffffffffffffffffffffffffffffffffffff1673ffffffffffffffffffffffffffffffffffffffff1681526020019081526020016000206000838152602001908152602001600020604051806101200160405290816000820160009054906101000a900473ffffffffffffffffffffffffffffffffffffffff1673ffffffffffffffffffffffffffffffffffffffff1673ffffffffffffffffffffffffffffffffffffffff1681526020016001820160009054906101000a900473ffffffffffffffffffffffffffffffffffffffff1673ffffffffffffffffffffffffffffffffffffffff1673ffffffffffffffffffffffffffffffffffffffff168152602001600282015481526020016003820160009054906101000a900473ffffffffffffffffffffffffffffffffffffffff1673ffffffffffffffffffffffffffffffffffffffff1673ffffffffffffffffffffffffffffffffffffffff168152602001600482015481526020016005820160009054906101000a900460ff16151515158152602001600682015481526020016007820160009054906101000a900460ff161515151581526020016008820154815250509050600073ffffffffffffffffffffffffffffffffffffffff16816000015173ffffffffffffffffffffffffffffffffffffffff1614156140b1576040517f08c379a000000000000000000000000000000000000000000000000000000000815260040180806020018281038252601d8152602001807f4f72646572426f6f6b3a206e6f6e2d6578697374656e74206f7264657200000081525060200191505060405180910390fd5b600360003373ffffffffffffffffffffffffffffffffffffffff1673ffffffffffffffffffffffffffffffffffffffff1681526020019081526020016000206000838152602001908152602001600020600080820160006101000a81549073ffffffffffffffffffffffffffffffffffffffff02191690556001820160006101000a81549073ffffffffffffffffffffffffffffffffffffffff021916905560028201600090556003820160006101000a81549073ffffffffffffffffffffffffffffffffffffffff021916905560048201600090556005820160006101000a81549060ff021916905560068201600090556007820160006101000a81549060ff0219169055600882016000905550506141d081610100015133616f95565b806000015173ffffffffffffffffffffffffffffffffffffffff167f1154174c82984656b028c8021671988f60a346497e56fe02554761184f82a0758383602001518460400151856060015186608001518760a001518860c001518960e001518a6101000151604051808a81526020018973ffffffffffffffffffffffffffffffffffffffff1681526020018881526020018773ffffffffffffffffffffffffffffffffffffffff16815260200186815260200185151581526020018481526020018315158152602001828152602001995050505050505050505060405180910390a250600160008190555050565b60026000541415614338576040517f08c379a000000000000000000000000000000000000000000000000000000000815260040180806020018281038252601f8152602001807f5265656e7472616e637947756172643a207265656e7472616e742063616c6c0081525060200191505060405180910390fd5b60026000819055506000600360003373ffffffffffffffffffffffffffffffffffffffff1673ffffffffffffffffffffffffffffffffffffffff16815260200190815260200160002060008781526020019081526020016000209050600073ffffffffffffffffffffffffffffffffffffffff168160000160009054906101000a900473ffffffffffffffffffffffffffffffffffffffff1673ffffffffffffffffffffffffffffffffffffffff16141561445b576040517f08c379a000000000000000000000000000000000000000000000000000000000815260040180806020018281038252601d8152602001807f4f72646572426f6f6b3a206e6f6e2d6578697374656e74206f7264657200000081525060200191505060405180910390fd5b828160060181905550818160070160006101000a81548160ff0219169083151502179055508381600401819055508481600201819055503373ffffffffffffffffffffffffffffffffffffffff167f75781255bc71c83f89f29e5a2599f2c174a562d2cd8f2e818a47f132e7280498878360010160009054906101000a900473ffffffffffffffffffffffffffffffffffffffff16888560030160009054906101000a900473ffffffffffffffffffffffffffffffffffffffff16898760050160009054906101000a900460ff168a8a604051808981526020018873ffffffffffffffffffffffffffffffffffffffff1681526020018781526020018673ffffffffffffffffffffffffffffffffffffffff168152602001858152602001841515815260200183815260200182151581526020019850505050505050505060405180910390a25060016000819055505050505050565b60026020528060005260406000206000915090505481565b60026000541415614642576040517f08c379a000000000000000000000000000000000000000000000000000000000815260040180806020018281038252601f8152602001807f5265656e7472616e637947756172643a207265656e7472616e742063616c6c0081525060200191505060405180910390fd5b600260008190555061465261704f565b600c548210156146ad576040517f08c379a00000000000000000000000000000000000000000000000000000000081526004018080602001828103825260258152602001806189a26025913960400191505060405180910390fd5b80156147dc57600860009054906101000a900473ffffffffffffffffffffffffffffffffffffffff1673ffffffffffffffffffffffffffffffffffffffff168b6000815181106146f957fe5b602002602001015173ffffffffffffffffffffffffffffffffffffffff161461476d576040517f08c379a000000000000000000000000000000000000000000000000000000000815260040180806020018281038252602581526020018061897d6025913960400191505060405180910390fd5b6147808a836170dd90919063ffffffff16565b34146147d7576040517f08c379a00000000000000000000000000000000000000000000000000000000081526004018080602001828103825260268152602001806189e86026913960400191505060405180910390fd5b614930565b813414614834576040517f08c379a000000000000000000000000000000000000000000000000000000000815260040180806020018281038252602e815260200180618a5e602e913960400191505060405180910390fd5b600a60009054906101000a900473ffffffffffffffffffffffffffffffffffffffff1673ffffffffffffffffffffffffffffffffffffffff16631b8278788c60008151811061487f57fe5b602002602001015133308e6040518563ffffffff1660e01b8152600401808573ffffffffffffffffffffffffffffffffffffffff1681526020018473ffffffffffffffffffffffffffffffffffffffff1681526020018373ffffffffffffffffffffffffffffffffffffffff168152602001828152602001945050505050600060405180830381600087803b15801561491757600080fd5b505af115801561492b573d6000803e3d6000fd5b505050505b60008b60018d51038151811061494257fe5b60200260200101519050600060018d511115614a81578173ffffffffffffffffffffffffffffffffffffffff168d60008151811061497c57fe5b602002602001015173ffffffffffffffffffffffffffffffffffffffff161415614a0e576040517f08c379a00000000000000000000000000000000000000000000000000000000081526004018080602001828103825260188152602001807f4f72646572426f6f6b3a20696e76616c6964205f70617468000000000000000081525060200191505060405180910390fd5b614a6f600b60009054906101000a900473ffffffffffffffffffffffffffffffffffffffff168d8f600081518110614a4257fe5b602002602001015173ffffffffffffffffffffffffffffffffffffffff16616d579092919063ffffffff16565b614a7a8d8b30616df9565b9050614a85565b8b90505b6000600b60009054906101000a900473ffffffffffffffffffffffffffffffffffffffff1673ffffffffffffffffffffffffffffffffffffffff16630a48d5a984846040518363ffffffff1660e01b8152600401808373ffffffffffffffffffffffffffffffffffffffff1681526020018281526020019250505060206040518083038186803b158015614b1857600080fd5b505afa158015614b2c573d6000803e3d6000fd5b505050506040513d6020811015614b4257600080fd5b81019080805190602001909291905050509050600d54811015614bb0576040517f08c379a00000000000000000000000000000000000000000000000000000000081526004018080602001828103825260228152602001806188da6022913960400191505060405180910390fd5b50614bc33383838b8f8e8d8d8d8d617525565b505060016000819055505050505050505050505050565b60026000541415614c53576040517f08c379a000000000000000000000000000000000000000000000000000000000815260040180806020018281038252601f8152602001807f5265656e7472616e637947756172643a207265656e7472616e742063616c6c0081525060200191505060405180910390fd5b6002600081905550614c6361704f565b600c543411614cbd576040517f08c379a00000000000000000000000000000000000000000000000000000000081526004018080602001828103825260258152602001806189a26025913960400191505060405180910390fd5b614ccd3386868a8a888888617930565b600160008190555050505050505050565b6000600283511480614cf1575060038351145b614d63576040517f08c379a000000000000000000000000000000000000000000000000000000000815260040180806020018281038252601f8152602001807f4f72646572426f6f6b3a20696e76616c6964205f706174682e6c656e6774680081525060200191505060405180910390fd5b600083600081518110614d7257fe5b60200260200101519050600084600186510381518110614d8e57fe5b60200260200101519050600080600960009054906101000a900473ffffffffffffffffffffffffffffffffffffffff1673ffffffffffffffffffffffffffffffffffffffff168473ffffffffffffffffffffffffffffffffffffffff161415614e1557614e0e87600181518110614e0157fe5b6020026020010151613b28565b9150614edc565b600b60009054906101000a900473ffffffffffffffffffffffffffffffffffffffff1673ffffffffffffffffffffffffffffffffffffffff166381a612d6856040518263ffffffff1660e01b8152600401808273ffffffffffffffffffffffffffffffffffffffff16815260200191505060206040518083038186803b158015614e9e57600080fd5b505afa158015614eb2573d6000803e3d6000fd5b505050506040513d6020811015614ec857600080fd5b810190808051906020019092919050505091505b600960009054906101000a900473ffffffffffffffffffffffffffffffffffffffff1673ffffffffffffffffffffffffffffffffffffffff168373ffffffffffffffffffffffffffffffffffffffff161415614f47576c0c9f2c9cd04674edea40000000905061500e565b600b60009054906101000a900473ffffffffffffffffffffffffffffffffffffffff1673ffffffffffffffffffffffffffffffffffffffff1663e124e6d2846040518263ffffffff1660e01b8152600401808273ffffffffffffffffffffffffffffffffffffffff16815260200191505060206040518083038186803b158015614fd057600080fd5b505afa158015614fe4573d6000803e3d6000fd5b505050506040513d6020811015614ffa57600080fd5b810190808051906020019092919050505090505b6000615042836150346c0c9f2c9cd04674edea400000008561745590919063ffffffff16565b6174db90919063ffffffff16565b90506000878211905080965050505050505092915050565b600260005414156150d3576040517f08c379a000000000000000000000000000000000000000000000000000000000815260040180806020018281038252601f8152602001807f5265656e7472616e637947756172643a207265656e7472616e742063616c6c0081525060200191505060405180910390fd5b60026000819055506000600560003373ffffffffffffffffffffffffffffffffffffffff1673ffffffffffffffffffffffffffffffffffffffff16815260200190815260200160002060008681526020019081526020016000209050600073ffffffffffffffffffffffffffffffffffffffff168160000160009054906101000a900473ffffffffffffffffffffffffffffffffffffffff1673ffffffffffffffffffffffffffffffffffffffff1614156151f6576040517f08c379a000000000000000000000000000000000000000000000000000000000815260040180806020018281038252601d8152602001807f4f72646572426f6f6b3a206e6f6e2d6578697374656e74206f7264657200000081525060200191505060405180910390fd5b838160030181905550828160040181905550818160050160006101000a81548160ff0219169083151502179055503373ffffffffffffffffffffffffffffffffffffffff167fa7f9f4a25eb76f5ec01b1a429d95d6a00833f0f137c88827c58799a1c1ff0dfe868360010184600201548888888860050160019054906101000a900460ff168960060154604051808981526020018060200188815260200187815260200186815260200185151581526020018415158152602001838152602001828103825289818154815260200191508054801561532957602002820191906000526020600020905b8160009054906101000a900473ffffffffffffffffffffffffffffffffffffffff1673ffffffffffffffffffffffffffffffffffffffff16815260200190600101908083116152df575b5050995050505050505050505060405180910390a250600160008190555050505050565b600760009054906101000a900473ffffffffffffffffffffffffffffffffffffffff1673ffffffffffffffffffffffffffffffffffffffff163373ffffffffffffffffffffffffffffffffffffffff1614615410576040517f08c379a00000000000000000000000000000000000000000000000000000000081526004018080602001828103825260148152602001807f4f72646572426f6f6b3a20666f7262696464656e00000000000000000000000081525060200191505060405180910390fd5b80600760006101000a81548173ffffffffffffffffffffffffffffffffffffffff021916908373ffffffffffffffffffffffffffffffffffffffff1602179055507fe24c39186e9137521953beaa8446e71f55b8f12296984f9d4273ceb1af728d9081604051808273ffffffffffffffffffffffffffffffffffffffff16815260200191505060405180910390a150565b60008060008060008060008060006154b76186c8565b600560008d73ffffffffffffffffffffffffffffffffffffffff1673ffffffffffffffffffffffffffffffffffffffff16815260200190815260200160002060008c8152602001908152602001600020604051806101000160405290816000820160009054906101000a900473ffffffffffffffffffffffffffffffffffffffff1673ffffffffffffffffffffffffffffffffffffffff1673ffffffffffffffffffffffffffffffffffffffff168152602001600182018054806020026020016040519081016040528092919081815260200182805480156155ee57602002820191906000526020600020905b8160009054906101000a900473ffffffffffffffffffffffffffffffffffffffff1673ffffffffffffffffffffffffffffffffffffffff16815260200190600101908083116155a4575b505050505081526020016002820154815260200160038201548152602001600482015481526020016005820160009054906101000a900460ff161515151581526020016005820160019054906101000a900460ff16151515158152602001600682015481525050905060008160200151511161566b576000615685565b806020015160008151811061567c57fe5b60200260200101515b6001826020015151116156995760006156b3565b81602001516001815181106156aa57fe5b60200260200101515b6002836020015151116156c75760006156e1565b82602001516002815181106156d857fe5b60200260200101515b8360400151846060015185608001518660a001518760c001518860e00151995099509950995099509950995099509950509295985092959850929598565b60026000541415615798576040517f08c379a000000000000000000000000000000000000000000000000000000000815260040180806020018281038252601f8152602001807f5265656e7472616e637947756172643a207265656e7472616e742063616c6c0081525060200191505060405180910390fd5b60026000819055506157a8618748565b600160008573ffffffffffffffffffffffffffffffffffffffff1673ffffffffffffffffffffffffffffffffffffffff1681526020019081526020016000206000848152602001908152602001600020604051806101400160405290816000820160009054906101000a900473ffffffffffffffffffffffffffffffffffffffff1673ffffffffffffffffffffffffffffffffffffffff1673ffffffffffffffffffffffffffffffffffffffff1681526020016001820160009054906101000a900473ffffffffffffffffffffffffffffffffffffffff1673ffffffffffffffffffffffffffffffffffffffff1673ffffffffffffffffffffffffffffffffffffffff168152602001600282015481526020016003820160009054906101000a900473ffffffffffffffffffffffffffffffffffffffff1673ffffffffffffffffffffffffffffffffffffffff1673ffffffffffffffffffffffffffffffffffffffff1681526020016004820160009054906101000a900473ffffffffffffffffffffffffffffffffffffffff1673ffffffffffffffffffffffffffffffffffffffff1673ffffffffffffffffffffffffffffffffffffffff168152602001600582015481526020016006820160009054906101000a900460ff16151515158152602001600782015481526020016008820160009054906101000a900460ff161515151581526020016009820154815250509050600073ffffffffffffffffffffffffffffffffffffffff16816000015173ffffffffffffffffffffffffffffffffffffffff161415615a63576040517f08c379a000000000000000000000000000000000000000000000000000000000815260040180806020018281038252601d8152602001807f4f72646572426f6f6b3a206e6f6e2d6578697374656e74206f7264657200000081525060200191505060405180910390fd5b6000615a848261010001518360e0015184608001518560c0015160016134dd565b509050600160008673ffffffffffffffffffffffffffffffffffffffff1673ffffffffffffffffffffffffffffffffffffffff1681526020019081526020016000206000858152602001908152602001600020600080820160006101000a81549073ffffffffffffffffffffffffffffffffffffffff02191690556001820160006101000a81549073ffffffffffffffffffffffffffffffffffffffff021916905560028201600090556003820160006101000a81549073ffffffffffffffffffffffffffffffffffffffff02191690556004820160006101000a81549073ffffffffffffffffffffffffffffffffffffffff021916905560058201600090556006820160006101000a81549060ff021916905560078201600090556008820160006101000a81549060ff021916905560098201600090555050615c13600b60009054906101000a900473ffffffffffffffffffffffffffffffffffffffff168360400151846020015173ffffffffffffffffffffffffffffffffffffffff16616d579092919063ffffffff16565b816060015173ffffffffffffffffffffffffffffffffffffffff16826020015173ffffffffffffffffffffffffffffffffffffffff1614615d96576060600267ffffffffffffffff81118015615c6857600080fd5b50604051908082528060200260200182016040528015615c975781602001602082028036833780820191505090505b509050826020015181600081518110615cac57fe5b602002602001019073ffffffffffffffffffffffffffffffffffffffff16908173ffffffffffffffffffffffffffffffffffffffff1681525050826060015181600181518110615cf857fe5b602002602001019073ffffffffffffffffffffffffffffffffffffffff16908173ffffffffffffffffffffffffffffffffffffffff16815250506000615d4082600030616df9565b9050615d93600b60009054906101000a900473ffffffffffffffffffffffffffffffffffffffff1682866060015173ffffffffffffffffffffffffffffffffffffffff16616d579092919063ffffffff16565b50505b600a60009054906101000a900473ffffffffffffffffffffffffffffffffffffffff1673ffffffffffffffffffffffffffffffffffffffff16631f1dd1768360000151846060015185608001518660a001518760c001516040518663ffffffff1660e01b8152600401808673ffffffffffffffffffffffffffffffffffffffff1681526020018573ffffffffffffffffffffffffffffffffffffffff1681526020018473ffffffffffffffffffffffffffffffffffffffff168152602001838152602001821515815260200195505050505050600060405180830381600087803b158015615e8357600080fd5b505af1158015615e97573d6000803e3d6000fd5b50505050615eaa82610120015184616f95565b816000015173ffffffffffffffffffffffffffffffffffffffff167f7fb1c74d1ea6aa1c9c585e17ce8274c8ff98745e85e7459b73f87d784494f58e8584602001518560400151866060015187608001518860a001518960c001518a60e001518b61010001518c61012001518c604051808c81526020018b73ffffffffffffffffffffffffffffffffffffffff1681526020018a81526020018973ffffffffffffffffffffffffffffffffffffffff1681526020018873ffffffffffffffffffffffffffffffffffffffff168152602001878152602001861515815260200185815260200184151581526020018381526020018281526020019b50505050505050505050505060405180910390a250506001600081905550505050565b6000806000806000806000806000615fdd618748565b600160008d73ffffffffffffffffffffffffffffffffffffffff1673ffffffffffffffffffffffffffffffffffffffff16815260200190815260200160002060008c8152602001908152602001600020604051806101400160405290816000820160009054906101000a900473ffffffffffffffffffffffffffffffffffffffff1673ffffffffffffffffffffffffffffffffffffffff1673ffffffffffffffffffffffffffffffffffffffff1681526020016001820160009054906101000a900473ffffffffffffffffffffffffffffffffffffffff1673ffffffffffffffffffffffffffffffffffffffff1673ffffffffffffffffffffffffffffffffffffffff168152602001600282015481526020016003820160009054906101000a900473ffffffffffffffffffffffffffffffffffffffff1673ffffffffffffffffffffffffffffffffffffffff1673ffffffffffffffffffffffffffffffffffffffff1681526020016004820160009054906101000a900473ffffffffffffffffffffffffffffffffffffffff1673ffffffffffffffffffffffffffffffffffffffff1673ffffffffffffffffffffffffffffffffffffffff168152602001600582015481526020016006820160009054906101000a900460ff16151515158152602001600782015481526020016008820160009054906101000a900460ff16151515158152602001600982015481525050905080602001518160400151826060015183608001518460a001518560c001518660e00151876101000151886101200151995099509950995099509950995099509950509295985092959850929598565b60046020528060005260406000206000915090505481565b600760009054906101000a900473ffffffffffffffffffffffffffffffffffffffff1673ffffffffffffffffffffffffffffffffffffffff163373ffffffffffffffffffffffffffffffffffffffff161461631b576040517f08c379a00000000000000000000000000000000000000000000000000000000081526004018080602001828103825260148152602001807f4f72646572426f6f6b3a20666f7262696464656e00000000000000000000000081525060200191505060405180910390fd5b600e60009054906101000a900460ff161561639e576040517f08c379a000000000000000000000000000000000000000000000000000000000815260040180806020018281038252601e8152602001807f4f72646572426f6f6b3a20616c726561647920696e697469616c697a6564000081525060200191505060405180910390fd5b6001600e60006101000a81548160ff02191690831515021790555085600a60006101000a81548173ffffffffffffffffffffffffffffffffffffffff021916908373ffffffffffffffffffffffffffffffffffffffff16021790555084600b60006101000a81548173ffffffffffffffffffffffffffffffffffffffff021916908373ffffffffffffffffffffffffffffffffffffffff16021790555083600860006101000a81548173ffffffffffffffffffffffffffffffffffffffff021916908373ffffffffffffffffffffffffffffffffffffffff16021790555082600960006101000a81548173ffffffffffffffffffffffffffffffffffffffff021916908373ffffffffffffffffffffffffffffffffffffffff16021790555081600c8190555080600d819055507fcfb7ef8749fafc8da2af1ba3d025479ffc4e58f7dc420113e112512a3bda5963868686868686604051808773ffffffffffffffffffffffffffffffffffffffff1681526020018673ffffffffffffffffffffffffffffffffffffffff1681526020018573ffffffffffffffffffffffffffffffffffffffff1681526020018473ffffffffffffffffffffffffffffffffffffffff168152602001838152602001828152602001965050505050505060405180910390a1505050505050565b6003602052816000526040600020602052806000526040600020600091509150508060000160009054906101000a900473ffffffffffffffffffffffffffffffffffffffff16908060010160009054906101000a900473ffffffffffffffffffffffffffffffffffffffff16908060020154908060030160009054906101000a900473ffffffffffffffffffffffffffffffffffffffff16908060040154908060050160009054906101000a900460ff16908060060154908060070160009054906101000a900460ff16908060080154905089565b600960009054906101000a900473ffffffffffffffffffffffffffffffffffffffff1681565b600260005414156166fe576040517f08c379a000000000000000000000000000000000000000000000000000000000815260040180806020018281038252601f8152602001807f5265656e7472616e637947756172643a207265656e7472616e742063616c6c0081525060200191505060405180910390fd5b600260008190555061670e6186c8565b600560003373ffffffffffffffffffffffffffffffffffffffff1673ffffffffffffffffffffffffffffffffffffffff1681526020019081526020016000206000838152602001908152602001600020604051806101000160405290816000820160009054906101000a900473ffffffffffffffffffffffffffffffffffffffff1673ffffffffffffffffffffffffffffffffffffffff1673ffffffffffffffffffffffffffffffffffffffff1681526020016001820180548060200260200160405190810160405280929190818152602001828054801561684557602002820191906000526020600020905b8160009054906101000a900473ffffffffffffffffffffffffffffffffffffffff1673ffffffffffffffffffffffffffffffffffffffff16815260200190600101908083116167fb575b505050505081526020016002820154815260200160038201548152602001600482015481526020016005820160009054906101000a900460ff161515151581526020016005820160019054906101000a900460ff161515151581526020016006820154815250509050600073ffffffffffffffffffffffffffffffffffffffff16816000015173ffffffffffffffffffffffffffffffffffffffff161415616955576040517f08c379a000000000000000000000000000000000000000000000000000000000815260040180806020018281038252601d8152602001807f4f72646572426f6f6b3a206e6f6e2d6578697374656e74206f7264657200000081525060200191505060405180910390fd5b600560003373ffffffffffffffffffffffffffffffffffffffff1673ffffffffffffffffffffffffffffffffffffffff1681526020019081526020016000206000838152602001908152602001600020600080820160006101000a81549073ffffffffffffffffffffffffffffffffffffffff02191690556001820160006169dd9190618727565b6002820160009055600382016000905560048201600090556005820160006101000a81549060ff02191690556005820160016101000a81549060ff021916905560068201600090555050600860009054906101000a900473ffffffffffffffffffffffffffffffffffffffff1673ffffffffffffffffffffffffffffffffffffffff168160200151600081518110616a7157fe5b602002602001015173ffffffffffffffffffffffffffffffffffffffff161415616abe57616ab9616ab382604001518360e001516170dd90919063ffffffff16565b33616f95565b616b14565b616b053382604001518360200151600081518110616ad857fe5b602002602001015173ffffffffffffffffffffffffffffffffffffffff16616d579092919063ffffffff16565b616b138160e0015133616f95565b5b3373ffffffffffffffffffffffffffffffffffffffff167fefd66d4f9c2f880c70aedeb5b26a44fb474cea07e5d6c533f2d27c303d5d94538383602001518460400151856060015186608001518760a001518860c001518960e00151604051808981526020018060200188815260200187815260200186815260200185151581526020018415158152602001838152602001828103825289818151815260200191508051906020019060200280838360005b83811015616be1578082015181840152602081019050616bc6565b50505050905001995050505050505050505060405180910390a250600160008190555050565b600a60009054906101000a900473ffffffffffffffffffffffffffffffffffffffff1681565b600b60009054906101000a900473ffffffffffffffffffffffffffffffffffffffff1681565b600760009054906101000a900473ffffffffffffffffffffffffffffffffffffffff1673ffffffffffffffffffffffffffffffffffffffff163373ffffffffffffffffffffffffffffffffffffffff1614616d16576040517f08c379a00000000000000000000000000000000000000000000000000000000081526004018080602001828103825260148152602001807f4f72646572426f6f6b3a20666f7262696464656e00000000000000000000000081525060200191505060405180910390fd5b80600c819055507fbde5eafdc37b81830d70124cddccaaa6d034e71dda3c8fc18a959ca76a7cbcfc816040518082815260200191505060405180910390a150565b616df48363a9059cbb60e01b8484604051602401808373ffffffffffffffffffffffffffffffffffffffff16815260200182815260200192505050604051602081830303815290604052907bffffffffffffffffffffffffffffffffffffffffffffffffffffffff19166020820180517bffffffffffffffffffffffffffffffffffffffffffffffffffffffff8381831617835250505050617cb7565b505050565b6000600284511415616e4057616e3984600081518110616e1557fe5b602002602001015185600181518110616e2a57fe5b60200260200101518585617da6565b9050616f8e565b600384511415616f20576000616e8185600081518110616e5c57fe5b602002602001015186600181518110616e7157fe5b6020026020010151600030617da6565b9050616ee4600b60009054906101000a900473ffffffffffffffffffffffffffffffffffffffff168287600181518110616eb757fe5b602002602001015173ffffffffffffffffffffffffffffffffffffffff16616d579092919063ffffffff16565b616f1885600181518110616ef457fe5b602002602001015186600281518110616f0957fe5b60200260200101518686617da6565b915050616f8e565b6040517f08c379a000000000000000000000000000000000000000000000000000000000815260040180806020018281038252601f8152602001807f4f72646572426f6f6b3a20696e76616c6964205f706174682e6c656e6774680081525060200191505060405180910390fd5b9392505050565b600860009054906101000a900473ffffffffffffffffffffffffffffffffffffffff1673ffffffffffffffffffffffffffffffffffffffff16632e1a7d4d836040518263ffffffff1660e01b815260040180828152602001915050600060405180830381600087803b15801561700a57600080fd5b505af115801561701e573d6000803e3d6000fd5b5050505061704b828273ffffffffffffffffffffffffffffffffffffffff1661819690919063ffffffff16565b5050565b600034146170db57600860009054906101000a900473ffffffffffffffffffffffffffffffffffffffff1673ffffffffffffffffffffffffffffffffffffffff1663d0e30db0346040518263ffffffff1660e01b81526004016000604051808303818588803b1580156170c157600080fd5b505af11580156170d5573d6000803e3d6000fd5b50505050505b565b60008082840190508381101561715b576040517f08c379a000000000000000000000000000000000000000000000000000000000815260040180806020018281038252601b8152602001807f536166654d6174683a206164646974696f6e206f766572666c6f77000000000081525060200191505060405180910390fd5b8091505092915050565b6000600660008a73ffffffffffffffffffffffffffffffffffffffff1673ffffffffffffffffffffffffffffffffffffffff1681526020019081526020016000205490506171b16186c8565b6040518061010001604052808b73ffffffffffffffffffffffffffffffffffffffff1681526020018a81526020018981526020018881526020018781526020018615158152602001851515815260200184815250905061721b6001836170dd90919063ffffffff16565b600660008c73ffffffffffffffffffffffffffffffffffffffff1673ffffffffffffffffffffffffffffffffffffffff1681526020019081526020016000208190555080600560008c73ffffffffffffffffffffffffffffffffffffffff1673ffffffffffffffffffffffffffffffffffffffff168152602001908152602001600020600084815260200190815260200160002060008201518160000160006101000a81548173ffffffffffffffffffffffffffffffffffffffff021916908373ffffffffffffffffffffffffffffffffffffffff16021790555060208201518160010190805190602001906173129291906187f7565b5060408201518160020155606082015181600301556080820151816004015560a08201518160050160006101000a81548160ff02191690831515021790555060c08201518160050160016101000a81548160ff02191690831515021790555060e082015181600601559050508973ffffffffffffffffffffffffffffffffffffffff167fdf06bb56ffc4029dc0b62b68bb5bbadea93a38b530cefc9b81afb742a6555d88838b8b8b8b8b8b8b604051808981526020018060200188815260200187815260200186815260200185151581526020018415158152602001838152602001828103825289818151815260200191508051906020019060200280838360005b8381101561742f578082015181840152602081019050617414565b50505050905001995050505050505050505060405180910390a250505050505050505050565b60008083141561746857600090506174d5565b600082840290508284828161747957fe5b04146174d0576040517f08c379a00000000000000000000000000000000000000000000000000000000081526004018080602001828103825260218152602001806189c76021913960400191505060405180910390fd5b809150505b92915050565b600061751d83836040518060400160405280601a81526020017f536166654d6174683a206469766973696f6e206279207a65726f0000000000008152506182d0565b905092915050565b6000600260003373ffffffffffffffffffffffffffffffffffffffff1673ffffffffffffffffffffffffffffffffffffffff168152602001908152602001600020549050617571618748565b6040518061014001604052808d73ffffffffffffffffffffffffffffffffffffffff1681526020018c73ffffffffffffffffffffffffffffffffffffffff1681526020018b81526020018a73ffffffffffffffffffffffffffffffffffffffff1681526020018973ffffffffffffffffffffffffffffffffffffffff168152602001888152602001871515815260200186815260200185151581526020018481525090506176296001836170dd90919063ffffffff16565b600260008e73ffffffffffffffffffffffffffffffffffffffff1673ffffffffffffffffffffffffffffffffffffffff1681526020019081526020016000208190555080600160008e73ffffffffffffffffffffffffffffffffffffffff1673ffffffffffffffffffffffffffffffffffffffff168152602001908152602001600020600084815260200190815260200160002060008201518160000160006101000a81548173ffffffffffffffffffffffffffffffffffffffff021916908373ffffffffffffffffffffffffffffffffffffffff16021790555060208201518160010160006101000a81548173ffffffffffffffffffffffffffffffffffffffff021916908373ffffffffffffffffffffffffffffffffffffffff1602179055506040820151816002015560608201518160030160006101000a81548173ffffffffffffffffffffffffffffffffffffffff021916908373ffffffffffffffffffffffffffffffffffffffff16021790555060808201518160040160006101000a81548173ffffffffffffffffffffffffffffffffffffffff021916908373ffffffffffffffffffffffffffffffffffffffff16021790555060a0820151816005015560c08201518160060160006101000a81548160ff02191690831515021790555060e082015181600701556101008201518160080160006101000a81548160ff02191690831515021790555061012082015181600901559050508b73ffffffffffffffffffffffffffffffffffffffff167fb27b9afe3043b93788c40cfc3cc73f5d928a2e40f3ba01820b246426de8fa1b9838d8d8d8d8d8d8d8d8d604051808b81526020018a73ffffffffffffffffffffffffffffffffffffffff1681526020018981526020018873ffffffffffffffffffffffffffffffffffffffff1681526020018773ffffffffffffffffffffffffffffffffffffffff168152602001868152602001851515815260200184815260200183151581526020018281526020019a505050505050505050505060405180910390a2505050505050505050505050565b6000600460008a73ffffffffffffffffffffffffffffffffffffffff1673ffffffffffffffffffffffffffffffffffffffff16815260200190815260200160002054905061797c618636565b6040518061012001604052808b73ffffffffffffffffffffffffffffffffffffffff1681526020018a73ffffffffffffffffffffffffffffffffffffffff1681526020018981526020018873ffffffffffffffffffffffffffffffffffffffff16815260200187815260200186151581526020018581526020018415158152602001348152509050617a186001836170dd90919063ffffffff16565b600460008c73ffffffffffffffffffffffffffffffffffffffff1673ffffffffffffffffffffffffffffffffffffffff1681526020019081526020016000208190555080600360008c73ffffffffffffffffffffffffffffffffffffffff1673ffffffffffffffffffffffffffffffffffffffff168152602001908152602001600020600084815260200190815260200160002060008201518160000160006101000a81548173ffffffffffffffffffffffffffffffffffffffff021916908373ffffffffffffffffffffffffffffffffffffffff16021790555060208201518160010160006101000a81548173ffffffffffffffffffffffffffffffffffffffff021916908373ffffffffffffffffffffffffffffffffffffffff1602179055506040820151816002015560608201518160030160006101000a81548173ffffffffffffffffffffffffffffffffffffffff021916908373ffffffffffffffffffffffffffffffffffffffff1602179055506080820151816004015560a08201518160050160006101000a81548160ff02191690831515021790555060c0820151816006015560e08201518160070160006101000a81548160ff02191690831515021790555061010082015181600801559050508973ffffffffffffffffffffffffffffffffffffffff167f48ee333d2a65cc45fdb83bc012920d89181c3377390cd239d2b63f2bef67a02d838b8b8b8b8b8b8b34604051808a81526020018973ffffffffffffffffffffffffffffffffffffffff1681526020018881526020018773ffffffffffffffffffffffffffffffffffffffff16815260200186815260200185151581526020018481526020018315158152602001828152602001995050505050505050505060405180910390a250505050505050505050565b6060617d19826040518060400160405280602081526020017f5361666545524332303a206c6f772d6c6576656c2063616c6c206661696c65648152508573ffffffffffffffffffffffffffffffffffffffff166183969092919063ffffffff16565b9050600081511115617da157808060200190516020811015617d3a57600080fd5b8101908080519060200190929190505050617da0576040517f08c379a000000000000000000000000000000000000000000000000000000000815260040180806020018281038252602a815260200180618a34602a913960400191505060405180910390fd5b5b505050565b600080600960009054906101000a900473ffffffffffffffffffffffffffffffffffffffff1673ffffffffffffffffffffffffffffffffffffffff168573ffffffffffffffffffffffffffffffffffffffff161415617eea57600b60009054906101000a900473ffffffffffffffffffffffffffffffffffffffff1673ffffffffffffffffffffffffffffffffffffffff1663817bb85787856040518363ffffffff1660e01b8152600401808373ffffffffffffffffffffffffffffffffffffffff1681526020018273ffffffffffffffffffffffffffffffffffffffff16815260200192505050602060405180830381600087803b158015617ea857600080fd5b505af1158015617ebc573d6000803e3d6000fd5b505050506040513d6020811015617ed257600080fd5b81019080805190602001909291905050509050618131565b600960009054906101000a900473ffffffffffffffffffffffffffffffffffffffff1673ffffffffffffffffffffffffffffffffffffffff168673ffffffffffffffffffffffffffffffffffffffff16141561802b57600b60009054906101000a900473ffffffffffffffffffffffffffffffffffffffff1673ffffffffffffffffffffffffffffffffffffffff1663711e619086856040518363ffffffff1660e01b8152600401808373ffffffffffffffffffffffffffffffffffffffff1681526020018273ffffffffffffffffffffffffffffffffffffffff16815260200192505050602060405180830381600087803b158015617fe957600080fd5b505af1158015617ffd573d6000803e3d6000fd5b505050506040513d602081101561801357600080fd5b81019080805190602001909291905050509050618130565b600b60009054906101000a900473ffffffffffffffffffffffffffffffffffffffff1673ffffffffffffffffffffffffffffffffffffffff1663933162128787866040518463ffffffff1660e01b8152600401808473ffffffffffffffffffffffffffffffffffffffff1681526020018373ffffffffffffffffffffffffffffffffffffffff1681526020018273ffffffffffffffffffffffffffffffffffffffff1681526020019350505050602060405180830381600087803b1580156180f257600080fd5b505af1158015618106573d6000803e3d6000fd5b505050506040513d602081101561811c57600080fd5b810190808051906020019092919050505090505b5b8381101561818a576040517f08c379a000000000000000000000000000000000000000000000000000000000815260040180806020018281038252602181526020018061895c6021913960400191505060405180910390fd5b80915050949350505050565b8047101561820c576040517f08c379a000000000000000000000000000000000000000000000000000000000815260040180806020018281038252601d8152602001807f416464726573733a20696e73756666696369656e742062616c616e636500000081525060200191505060405180910390fd5b60008273ffffffffffffffffffffffffffffffffffffffff168260405180600001905060006040518083038185875af1925050503d806000811461826c576040519150601f19603f3d011682016040523d82523d6000602084013e618271565b606091505b50509050806182cb576040517f08c379a000000000000000000000000000000000000000000000000000000000815260040180806020018281038252603a8152602001806188fc603a913960400191505060405180910390fd5b505050565b6000808311829061837c576040517f08c379a00000000000000000000000000000000000000000000000000000000081526004018080602001828103825283818151815260200191508051906020019080838360005b83811015618341578082015181840152602081019050618326565b50505050905090810190601f16801561836e5780820380516001836020036101000a031916815260200191505b509250505060405180910390fd5b50600083858161838857fe5b049050809150509392505050565b60606183a584846000856183ae565b90509392505050565b606082471015618409576040517f08c379a00000000000000000000000000000000000000000000000000000000081526004018080602001828103825260268152602001806189366026913960400191505060405180910390fd5b61841285618557565b618484576040517f08c379a000000000000000000000000000000000000000000000000000000000815260040180806020018281038252601d8152602001807f416464726573733a2063616c6c20746f206e6f6e2d636f6e747261637400000081525060200191505060405180910390fd5b600060608673ffffffffffffffffffffffffffffffffffffffff1685876040518082805190602001908083835b602083106184d457805182526020820191506020810190506020830392506184b1565b6001836020036101000a03801982511681845116808217855250505050505090500191505060006040518083038185875af1925050503d8060008114618536576040519150601f19603f3d011682016040523d82523d6000602084013e61853b565b606091505b509150915061854b82828661856a565b92505050949350505050565b600080823b905060008111915050919050565b6060831561857a5782905061862f565b60008351111561858d5782518084602001fd5b816040517f08c379a00000000000000000000000000000000000000000000000000000000081526004018080602001828103825283818151815260200191508051906020019080838360005b838110156185f45780820151818401526020810190506185d9565b50505050905090810190601f1680156186215780820380516001836020036101000a031916815260200191505b509250505060405180910390fd5b9392505050565b604051806101200160405280600073ffffffffffffffffffffffffffffffffffffffff168152602001600073ffffffffffffffffffffffffffffffffffffffff16815260200160008152602001600073ffffffffffffffffffffffffffffffffffffffff1681526020016000815260200160001515815260200160008152602001600015158152602001600081525090565b604051806101000160405280600073ffffffffffffffffffffffffffffffffffffffff16815260200160608152602001600081526020016000815260200160008152602001600015158152602001600015158152602001600081525090565b50805460008255906000526020600020908101906187459190618881565b50565b604051806101400160405280600073ffffffffffffffffffffffffffffffffffffffff168152602001600073ffffffffffffffffffffffffffffffffffffffff16815260200160008152602001600073ffffffffffffffffffffffffffffffffffffffff168152602001600073ffffffffffffffffffffffffffffffffffffffff1681526020016000815260200160001515815260200160008152602001600015158152602001600081525090565b828054828255906000526020600020908101928215618870579160200282015b8281111561886f5782518260006101000a81548173ffffffffffffffffffffffffffffffffffffffff021916908373ffffffffffffffffffffffffffffffffffffffff16021790555091602001919060010190618817565b5b50905061887d919061889e565b5090565b5b8082111561889a576000816000905550600101618882565b5090565b5b808211156188d557600081816101000a81549073ffffffffffffffffffffffffffffffffffffffff02191690555060010161889f565b509056fe4f72646572426f6f6b3a20696e73756666696369656e7420636f6c6c61746572616c416464726573733a20756e61626c6520746f2073656e642076616c75652c20726563697069656e74206d61792068617665207265766572746564416464726573733a20696e73756666696369656e742062616c616e636520666f722063616c6c4f72646572426f6f6b3a20696e73756666696369656e7420616d6f756e744f75744f72646572426f6f6b3a206f6e6c79207765746820636f756c6420626520777261707065644f72646572426f6f6b3a20696e73756666696369656e7420657865637574696f6e20666565536166654d6174683a206d756c7469706c69636174696f6e206f766572666c6f774f72646572426f6f6b3a20696e636f72726563742076616c7565207472616e736665727265644f72646572426f6f6b3a20696e76616c696420707269636520666f7220657865637574696f6e5361666545524332303a204552433230206f7065726174696f6e20646964206e6f7420737563636565644f72646572426f6f6b3a20696e636f727265637420657865637574696f6e20666565207472616e73666572726564a26469706673582212200dd6771dc99f555ffe82d93a1ca87bd219286c07b84ce0396d5cb4e6ae770e1a64736f6c634300060c0033",
  "linkReferences": {},
  "deployedLinkReferences": {}
}