{"contracts/AbstractPosition.sol":{"AbstractPosition":{"abi":[{"inputs":[{"internalType":"address","name":"_gov","type":"address"},{"internalType":"address","name":"_wethAddress","type":"address"},{"internalType":"address","name":"_lendingContractAddress","type":"address"},{"internalType":"address","name":"_ownerAddress","type":"address"},{"internalType":"address","name":"_positionRouterAddress","type":"address"},{"internalType":"address","name":"_routerAddress","type":"address"},{"internalType":"address","name":"_orderBookAddress","type":"address"},{"internalType":"address","name":"_vaultContractAddress","type":"address"}],"stateMutability":"nonpayable","type":"constructor"},{"inputs":[],"name":"BASIS_POINTS_DIVISOR","outputs":[{"internalType":"uint256","name":"","type":"uint256"}],"stateMutability":"view","type":"function"},{"inputs":[],"name":"L1","outputs":[{"internalType":"uint256","name":"","type":"uint256"}],"stateMutability":"view","type":"function"},{"inputs":[],"name":"L2","outputs":[{"internalType":"uint256","name":"","type":"uint256"}],"stateMutability":"view","type":"function"},{"inputs":[],"name":"MIN_DECREASE_HEALTH_FACTOR","outputs":[{"internalType":"uint256","name":"","type":"uint256"}],"stateMutability":"view","type":"function"},{"inputs":[],"name":"MIN_HEALTH_FACTOR","outputs":[{"internalType":"uint256","name":"","type":"uint256"}],"stateMutability":"view","type":"function"},{"inputs":[{"internalType":"address","name":"_owner","type":"address"},{"internalType":"address","name":"_indexToken","type":"address"},{"internalType":"address","name":"_collateralToken","type":"address"},{"internalType":"enum Side","name":"_side","type":"uint8"}],"name":"_getBnbPositionKey","outputs":[{"internalType":"bytes32","name":"","type":"bytes32"}],"stateMutability":"pure","type":"function"},{"inputs":[{"components":[{"internalType":"uint256","name":"size","type":"uint256"},{"internalType":"uint256","name":"collateralValue","type":"uint256"},{"internalType":"uint256","name":"reserveAmount","type":"uint256"},{"internalType":"uint256","name":"entryPrice","type":"uint256"},{"internalType":"uint256","name":"borrowIndex","type":"uint256"}],"internalType":"struct BnbPosition","name":"_position","type":"tuple"},{"internalType":"address","name":"_indexToken","type":"address"},{"internalType":"uint256","name":"_sizeChanged","type":"uint256"}],"name":"_getPositionFee","outputs":[{"internalType":"uint256","name":"_feeValue","type":"uint256"}],"stateMutability":"view","type":"function"},{"inputs":[],"name":"bnbLevelOracleAddress","outputs":[{"internalType":"address","name":"","type":"address"}],"stateMutability":"view","type":"function"},{"inputs":[],"name":"bnbOrderManagerAddress","outputs":[{"internalType":"address","name":"","type":"address"}],"stateMutability":"view","type":"function"},{"inputs":[],"name":"bnbPoolAddress","outputs":[{"internalType":"address","name":"","type":"address"}],"stateMutability":"view","type":"function"},{"inputs":[],"name":"bnbPortfolioHealthFactor","outputs":[{"internalType":"uint256","name":"","type":"uint256"}],"stateMutability":"view","type":"function"},{"inputs":[{"internalType":"enum Side","name":"_side","type":"uint8"},{"internalType":"address","name":"_indexToken","type":"address"},{"internalType":"address","name":"_collateralToken","type":"address"},{"internalType":"uint256","name":"price","type":"uint256"},{"internalType":"address","name":"payToken","type":"address"},{"internalType":"uint256","name":"sizeChange","type":"uint256"},{"internalType":"uint256","name":"_collateral","type":"uint256"}],"name":"callDecreasePlaceOrder","outputs":[],"stateMutability":"payable","type":"function"},{"inputs":[{"internalType":"enum Side","name":"_side","type":"uint8"},{"internalType":"address","name":"_indexToken","type":"address"},{"internalType":"address","name":"_collateralToken","type":"address"},{"internalType":"uint256","name":"price","type":"uint256"},{"internalType":"address","name":"payToken","type":"address"},{"internalType":"uint256","name":"purchaseAmount","type":"uint256"},{"internalType":"uint256","name":"sizeChange","type":"uint256"},{"internalType":"uint256","name":"_collateral","type":"uint256"}],"name":"callIncreasePlaceOrder","outputs":[],"stateMutability":"payable","type":"function"},{"inputs":[],"name":"deposit","outputs":[],"stateMutability":"payable","type":"function"},{"inputs":[{"internalType":"uint256","name":"","type":"uint256"}],"name":"existingBnbPositionsData","outputs":[{"internalType":"address","name":"indexToken","type":"address"},{"internalType":"address","name":"collateralToken","type":"address"},{"internalType":"enum Side","name":"side","type":"uint8"}],"stateMutability":"view","type":"function"},{"inputs":[{"internalType":"uint256","name":"","type":"uint256"}],"name":"existingPositionsData","outputs":[{"internalType":"address","name":"indexToken","type":"address"},{"internalType":"address","name":"collateralToken","type":"address"},{"internalType":"bool","name":"isLong","type":"bool"}],"stateMutability":"view","type":"function"},{"inputs":[],"name":"gellatoAutomateAddress","outputs":[{"internalType":"address","name":"","type":"address"}],"stateMutability":"view","type":"function"},{"inputs":[{"internalType":"address","name":"_indexToken","type":"address"},{"internalType":"enum Side","name":"_side","type":"uint8"},{"internalType":"uint256","name":"_size","type":"uint256"},{"internalType":"uint256","name":"_averagePrice","type":"uint256"}],"name":"getBnbDeltaWithMargin","outputs":[{"internalType":"uint256","name":"delta","type":"uint256"},{"internalType":"bool","name":"hasProfit","type":"bool"}],"stateMutability":"view","type":"function"},{"inputs":[],"name":"getBnbPortfolioValue","outputs":[{"internalType":"uint256","name":"","type":"uint256"}],"stateMutability":"view","type":"function"},{"inputs":[],"name":"getBnbPortfolioValueWithMargin","outputs":[{"internalType":"uint256","name":"","type":"uint256"}],"stateMutability":"view","type":"function"},{"inputs":[{"internalType":"address","name":"_indexToken","type":"address"},{"internalType":"address","name":"_collateralToken","type":"address"},{"internalType":"enum Side","name":"_side","type":"uint8"}],"name":"getBnbPosition","outputs":[{"components":[{"internalType":"uint256","name":"size","type":"uint256"},{"internalType":"uint256","name":"collateralValue","type":"uint256"},{"internalType":"uint256","name":"reserveAmount","type":"uint256"},{"internalType":"uint256","name":"entryPrice","type":"uint256"},{"internalType":"uint256","name":"borrowIndex","type":"uint256"}],"internalType":"struct BnbPosition","name":"","type":"tuple"}],"stateMutability":"view","type":"function"},{"inputs":[{"internalType":"address","name":"_indexToken","type":"address"},{"internalType":"address","name":"_collateralToken","type":"address"},{"internalType":"enum Side","name":"_side","type":"uint8"}],"name":"getBnbPositionValue","outputs":[{"internalType":"uint256","name":"_positionValue","type":"uint256"}],"stateMutability":"view","type":"function"},{"inputs":[{"internalType":"address","name":"_indexToken","type":"address"},{"internalType":"address","name":"_collateralToken","type":"address"},{"internalType":"enum Side","name":"_side","type":"uint8"}],"name":"getBnbPositionValueWithMargin","outputs":[{"internalType":"uint256","name":"_positionValue","type":"uint256"}],"stateMutability":"view","type":"function"},{"inputs":[{"internalType":"address","name":"_indexToken","type":"address"},{"internalType":"address","name":"_collateralToken","type":"address"},{"internalType":"bool","name":"_isLong","type":"bool"}],"name":"getPositionKey","outputs":[{"internalType":"bytes32","name":"","type":"bytes32"}],"stateMutability":"pure","type":"function"},{"inputs":[],"name":"gov","outputs":[{"internalType":"address","name":"","type":"address"}],"stateMutability":"view","type":"function"},{"inputs":[],"name":"lendingContractAddress","outputs":[{"internalType":"address","name":"","type":"address"}],"stateMutability":"view","type":"function"},{"inputs":[],"name":"minExecutionFee","outputs":[{"internalType":"uint256","name":"","type":"uint256"}],"stateMutability":"view","type":"function"},{"inputs":[],"name":"orderBookAddress","outputs":[{"internalType":"address","name":"","type":"address"}],"stateMutability":"view","type":"function"},{"inputs":[],"name":"ownerAddress","outputs":[{"internalType":"address","name":"","type":"address"}],"stateMutability":"view","type":"function"},{"inputs":[],"name":"positionRouterAddress","outputs":[{"internalType":"address","name":"","type":"address"}],"stateMutability":"view","type":"function"},{"inputs":[],"name":"routerAddress","outputs":[{"internalType":"address","name":"","type":"address"}],"stateMutability":"view","type":"function"},{"inputs":[{"internalType":"address","name":"_indexToken","type":"address"},{"internalType":"address","name":"_collateralToken","type":"address"},{"internalType":"enum Side","name":"_side","type":"uint8"}],"name":"validateBnbDecreasePosition","outputs":[{"internalType":"bool","name":"","type":"bool"}],"stateMutability":"view","type":"function"},{"inputs":[],"name":"vaultContractAddress","outputs":[{"internalType":"address","name":"","type":"address"}],"stateMutability":"view","type":"function"},{"inputs":[],"name":"wethAddress","outputs":[{"internalType":"address","name":"","type":"address"}],"stateMutability":"view","type":"function"}],"evm":{"bytecode":{"linkReferences":{},"object":"608060405273b3f5503f93d5ef84b06993a1975b9d21b962892f6000806101000a81548173ffffffffffffffffffffffffffffffffffffffff021916908373ffffffffffffffffffffffffffffffffffffffff16021790555073f584a17df21afd9de84f47842eceaf6042b1bb5b600860006101000a81548173ffffffffffffffffffffffffffffffffffffffff021916908373ffffffffffffffffffffffffffffffffffffffff16021790555073a5abfb56a78d2bd4689b25b8a77fd49bb0675874600960006101000a81548173ffffffffffffffffffffffffffffffffffffffff021916908373ffffffffffffffffffffffffffffffffffffffff1602179055507304db83667f5d59ff61fa6bbbd894824b233b3693600a60006101000a81548173ffffffffffffffffffffffffffffffffffffffff021916908373ffffffffffffffffffffffffffffffffffffffff1602179055503480156200016457600080fd5b5060405162003d4538038062003d4583398181016040528101906200018a91906200040a565b87600160006101000a81548173ffffffffffffffffffffffffffffffffffffffff021916908373ffffffffffffffffffffffffffffffffffffffff16021790555084600b60006101000a81548173ffffffffffffffffffffffffffffffffffffffff021916908373ffffffffffffffffffffffffffffffffffffffff16021790555086600260006101000a81548173ffffffffffffffffffffffffffffffffffffffff021916908373ffffffffffffffffffffffffffffffffffffffff16021790555085600360006101000a81548173ffffffffffffffffffffffffffffffffffffffff021916908373ffffffffffffffffffffffffffffffffffffffff16021790555083600460006101000a81548173ffffffffffffffffffffffffffffffffffffffff021916908373ffffffffffffffffffffffffffffffffffffffff16021790555082600560006101000a81548173ffffffffffffffffffffffffffffffffffffffff021916908373ffffffffffffffffffffffffffffffffffffffff16021790555081600660006101000a81548173ffffffffffffffffffffffffffffffffffffffff021916908373ffffffffffffffffffffffffffffffffffffffff16021790555080600760006101000a81548173ffffffffffffffffffffffffffffffffffffffff021916908373ffffffffffffffffffffffffffffffffffffffff1602179055505050505050505050620004d3565b600080fd5b600073ffffffffffffffffffffffffffffffffffffffff82169050919050565b6000620003d282620003a5565b9050919050565b620003e481620003c5565b8114620003f057600080fd5b50565b6000815190506200040481620003d9565b92915050565b600080600080600080600080610100898b0312156200042e576200042d620003a0565b5b60006200043e8b828c01620003f3565b9850506020620004518b828c01620003f3565b9750506040620004648b828c01620003f3565b9650506060620004778b828c01620003f3565b95505060806200048a8b828c01620003f3565b94505060a06200049d8b828c01620003f3565b93505060c0620004b08b828c01620003f3565b92505060e0620004c38b828c01620003f3565b9150509295985092959890939650565b61386280620004e36000396000f3fe6080604052600436106101f95760003560e01c806363ae21031161010d5780639409d870116100a0578063d0e30db01161006f578063d0e30db014610764578063d3827eee1461076e578063d422b00f14610799578063d571e21c146107c4578063e9f4454d146107ef576101f9565b80639409d870146106b8578063a92ea0e0146106e3578063b5627e421461070e578063cefcbd9d14610739576101f9565b80637809baaf116100dc5780637809baaf146105fa57806381be2320146106255780638812f374146106625780638f84aa091461068d576101f9565b806363ae21031461053c578063725ba052146105675780637379dbe61461059257806375f134b4146105bd576101f9565b80631b8b361b1161019057806333c445d51161015f57806333c445d51461042c57806339cf89161461046b5780634f0e0ef3146104a85780635b9fb547146104d357806362a3b0e114610511576101f9565b80631b8b361b1461036e578063238e270a1461039957806332315a62146103d65780633268cc5614610401576101f9565b8063126082cf116101cc578063126082cf146102bf57806312d43a51146102ea57806315109f6414610315578063157103f414610352576101f9565b8063027f1388146101fe578063081752bb1461023b5780630dd78f19146102665780631154dbc2146102a3575b600080fd5b34801561020a57600080fd5b50610225600480360381019061022091906124bd565b61082e565b6040516102329190612591565b60405180910390f35b34801561024757600080fd5b5061025061091d565b60405161025d91906125bb565b60405180910390f35b34801561027257600080fd5b5061028d600480360381019061028891906125d6565b610922565b60405161029a9190612656565b60405180910390f35b6102bd60048036038101906102b8919061269d565b61095b565b005b3480156102cb57600080fd5b506102d4610cc1565b6040516102e191906125bb565b60405180910390f35b3480156102f657600080fd5b506102ff610cc7565b60405161030c9190612762565b60405180910390f35b34801561032157600080fd5b5061033c600480360381019061033791906124bd565b610ced565b60405161034991906125bb565b60405180910390f35b61036c6004803603810190610367919061277d565b610dcb565b005b34801561037a57600080fd5b50610383610f86565b6040516103909190612762565b60405180910390f35b3480156103a557600080fd5b506103c060048036038101906103bb9190612857565b610fac565b6040516103cd9190612656565b60405180910390f35b3480156103e257600080fd5b506103eb610fe2565b6040516103f891906125bb565b60405180910390f35b34801561040d57600080fd5b506104166110f2565b6040516104239190612762565b60405180910390f35b34801561043857600080fd5b50610453600480360381019061044e91906128aa565b611118565b6040516104629392919061294e565b60405180910390f35b34801561047757600080fd5b50610492600480360381019061048d9190612aa2565b61119f565b60405161049f91906125bb565b60405180910390f35b3480156104b457600080fd5b506104bd61136c565b6040516104ca9190612762565b60405180910390f35b3480156104df57600080fd5b506104fa60048036038101906104f59190612af5565b611392565b604051610508929190612b6b565b60405180910390f35b34801561051d57600080fd5b50610526611664565b6040516105339190612762565b60405180910390f35b34801561054857600080fd5b5061055161168a565b60405161055e91906125bb565b60405180910390f35b34801561057357600080fd5b5061057c611690565b60405161058991906125bb565b60405180910390f35b34801561059e57600080fd5b506105a7611696565b6040516105b49190612762565b60405180910390f35b3480156105c957600080fd5b506105e460048036038101906105df91906124bd565b6116bc565b6040516105f191906125bb565b60405180910390f35b34801561060657600080fd5b5061060f611754565b60405161061c91906125bb565b60405180910390f35b34801561063157600080fd5b5061064c600480360381019061064791906124bd565b611759565b6040516106599190612b94565b60405180910390f35b34801561066e57600080fd5b506106776118ad565b6040516106849190612762565b60405180910390f35b34801561069957600080fd5b506106a26118d3565b6040516106af9190612762565b60405180910390f35b3480156106c457600080fd5b506106cd6118f9565b6040516106da9190612762565b60405180910390f35b3480156106ef57600080fd5b506106f861191f565b6040516107059190612762565b60405180910390f35b34801561071a57600080fd5b50610723611945565b60405161073091906125bb565b60405180910390f35b34801561074557600080fd5b5061074e61194b565b60405161075b91906125bb565b60405180910390f35b61076c611c56565b005b34801561077a57600080fd5b50610783611c58565b60405161079091906125bb565b60405180910390f35b3480156107a557600080fd5b506107ae611d6b565b6040516107bb9190612762565b60405180910390f35b3480156107d057600080fd5b506107d9611d91565b6040516107e69190612762565b60405180910390f35b3480156107fb57600080fd5b50610816600480360381019061081191906128aa565b611db5565b60405161082593929190612baf565b60405180910390f35b6108366123fc565b61083e6123fc565b600960009054906101000a900473ffffffffffffffffffffffffffffffffffffffff1673ffffffffffffffffffffffffffffffffffffffff1663514ea4bf61088830888888610922565b6040518263ffffffff1660e01b81526004016108a49190612656565b60a060405180830381865afa1580156108c1573d6000803e3d6000fd5b505050506040513d601f19601f820116820180604052508101906108e59190612bfb565b856000018660200187604001886060018960800185815250858152508581525085815250858152505050505050809150509392505050565b606481565b60008484848460405160200161093b9493929190612c76565b604051602081830303815290604052805190602001209050949350505050565b600b60009054906101000a900473ffffffffffffffffffffffffffffffffffffffff1673ffffffffffffffffffffffffffffffffffffffff163373ffffffffffffffffffffffffffffffffffffffff16146109eb576040517f08c379a00000000000000000000000000000000000000000000000000000000081526004016109e290612d3e565b60405180910390fd5b6000806109f9888a8c611e3c565b73eeeeeeeeeeeeeeeeeeeeeeeeeeeeeeeeeeeeeeee73ffffffffffffffffffffffffffffffffffffffff168673ffffffffffffffffffffffffffffffffffffffff1614610bdf578573ffffffffffffffffffffffffffffffffffffffff166323b872dd3330886040518463ffffffff1660e01b8152600401610a7d93929190612d5e565b6020604051808303816000875af1158015610a9c573d6000803e3d6000fd5b505050506040513d601f19601f82011682018060405250810190610ac09190612daa565b610aff576040517f08c379a0000000000000000000000000000000000000000000000000000000008152600401610af690612e23565b60405180910390fd5b8573ffffffffffffffffffffffffffffffffffffffff1663095ea7b3600860009054906101000a900473ffffffffffffffffffffffffffffffffffffffff16876040518363ffffffff1660e01b8152600401610b5c929190612e43565b6020604051808303816000875af1158015610b7b573d6000803e3d6000fd5b505050506040513d601f19601f82011682018060405250810190610b9f9190612daa565b610bde576040517f08c379a0000000000000000000000000000000000000000000000000000000008152600401610bd590612ede565b60405180910390fd5b5b6000878787878760405180602001604052806000815250604051602001610c0b96959493929190612f7d565b6040516020818303038152906040529050600860009054906101000a900473ffffffffffffffffffffffffffffffffffffffff1673ffffffffffffffffffffffffffffffffffffffff16632f25f18334858e8e8e88886040518863ffffffff1660e01b8152600401610c8296959493929190613075565b6000604051808303818588803b158015610c9b57600080fd5b505af1158015610caf573d6000803e3d6000fd5b50505050505050505050505050505050565b61271081565b600160009054906101000a900473ffffffffffffffffffffffffffffffffffffffff1681565b600080610cfb85858561082e565b90506000610d0e8287846000015161119f565b9050600080610d27888786600001518760600151611392565b9150915080158015610d4e57508360200151610d4c848461203990919063ffffffff16565b115b15610d60576000945050505050610dc4565b80610d9357610d8e83610d8084876020015161209790919063ffffffff16565b61209790919063ffffffff16565b610dbd565b610dbc83610dae84876020015161203990919063ffffffff16565b61209790919063ffffffff16565b5b9450505050505b9392505050565b600b60009054906101000a900473ffffffffffffffffffffffffffffffffffffffff1673ffffffffffffffffffffffffffffffffffffffff163373ffffffffffffffffffffffffffffffffffffffff1614610e5b576040517f08c379a0000000000000000000000000000000000000000000000000000000008152600401610e5290612d3e565b60405180910390fd5b610e66868689611759565b610ea5576040517f08c379a0000000000000000000000000000000000000000000000000000000008152600401610e9c9061314f565b60405180910390fd5b60008060008686868660405180602001604052806000815250604051602001610ed295949392919061316f565b6040516020818303038152906040529050600860009054906101000a900473ffffffffffffffffffffffffffffffffffffffff1673ffffffffffffffffffffffffffffffffffffffff16632f25f183848c8c8c87876040518763ffffffff1660e01b8152600401610f4896959493929190613075565b600060405180830381600087803b158015610f6257600080fd5b505af1158015610f76573d6000803e3d6000fd5b5050505050505050505050505050565b600a60009054906101000a900473ffffffffffffffffffffffffffffffffffffffff1681565b6000838383604051602001610fc393929190613259565b6040516020818303038152906040528051906020012090509392505050565b600080600360009054906101000a900473ffffffffffffffffffffffffffffffffffffffff1673ffffffffffffffffffffffffffffffffffffffff1663d04f246b600b60009054906101000a900473ffffffffffffffffffffffffffffffffffffffff166040518263ffffffff1660e01b81526004016110629190612762565b602060405180830381865afa15801561107f573d6000803e3d6000fd5b505050506040513d601f19601f820116820180604052508101906110a39190613296565b9050600081036110b75760009150506110ef565b60006110c161194b565b90506110ea826110dc612710846120e190919063ffffffff16565b61215b90919063ffffffff16565b925050505b90565b600560009054906101000a900473ffffffffffffffffffffffffffffffffffffffff1681565b6010818154811061112857600080fd5b90600052602060002090600202016000915090508060000160009054906101000a900473ffffffffffffffffffffffffffffffffffffffff16908060010160009054906101000a900473ffffffffffffffffffffffffffffffffffffffff16908060010160149054906101000a900460ff16905083565b600080600960009054906101000a900473ffffffffffffffffffffffffffffffffffffffff1673ffffffffffffffffffffffffffffffffffffffff1663ddca3f436040518163ffffffff1660e01b815260040160e060405180830381865afa15801561120f573d6000803e3d6000fd5b505050506040513d601f19601f820116820180604052508101906112339190613377565b90506000600960009054906101000a900473ffffffffffffffffffffffffffffffffffffffff1673ffffffffffffffffffffffffffffffffffffffff1663a9126169866040518263ffffffff1660e01b81526004016112929190612762565b60a060405180830381865afa1580156112af573d6000803e3d6000fd5b505050506040513d601f19601f820116820180604052508101906112d39190613430565b606001519050600061131f6402540be40061131189600001516113038b608001518761209790919063ffffffff16565b6120e190919063ffffffff16565b61215b90919063ffffffff16565b905060006113516402540be4006113438660000151896120e190919063ffffffff16565b61215b90919063ffffffff16565b9050808261135f919061348c565b9450505050509392505050565b600260009054906101000a900473ffffffffffffffffffffffffffffffffffffffff1681565b600080600083116113d8576040517f08c379a00000000000000000000000000000000000000000000000000000000081526004016113cf90613532565b60405180910390fd5b60008060018111156113ed576113ec6128d7565b5b866001811115611400576113ff6128d7565b5b146114e4576114df6127106114d1611424606461271061203990919063ffffffff16565b600a60009054906101000a900473ffffffffffffffffffffffffffffffffffffffff1673ffffffffffffffffffffffffffffffffffffffff166376d697608c60016040518363ffffffff1660e01b8152600401611482929190613552565b602060405180830381865afa15801561149f573d6000803e3d6000fd5b505050506040513d601f19601f820116820180604052508101906114c39190613296565b6120e190919063ffffffff16565b61215b90919063ffffffff16565b6115bf565b6115be6127106115b0611503606461271061209790919063ffffffff16565b600a60009054906101000a900473ffffffffffffffffffffffffffffffffffffffff1673ffffffffffffffffffffffffffffffffffffffff166376d697608c60006040518363ffffffff1660e01b8152600401611561929190613552565b602060405180830381865afa15801561157e573d6000803e3d6000fd5b505050506040513d601f19601f820116820180604052508101906115a29190613296565b6120e190919063ffffffff16565b61215b90919063ffffffff16565b5b905060008185116115e2576115dd858361209790919063ffffffff16565b6115f6565b6115f5828661209790919063ffffffff16565b5b905061161d8561160f83896120e190919063ffffffff16565b61215b90919063ffffffff16565b935060006001811115611633576116326128d7565b5b876001811115611646576116456128d7565b5b1461165357818511611657565b8482115b9250505094509492505050565b600860009054906101000a900473ffffffffffffffffffffffffffffffffffffffff1681565b600c5481565b612af881565b600360009054906101000a900473ffffffffffffffffffffffffffffffffffffffff1681565b6000806116ca85858561082e565b90506000806116e38786856000015186606001516121a5565b91509150801580156116f85750826020015182115b15611709576000935050505061174d565b8061172d5761172582846020015161209790919063ffffffff16565b935083611748565b61174482846020015161203990919063ffffffff16565b9350835b505050505b9392505050565b606481565b600080600360009054906101000a900473ffffffffffffffffffffffffffffffffffffffff1673ffffffffffffffffffffffffffffffffffffffff1663d04f246b600b60009054906101000a900473ffffffffffffffffffffffffffffffffffffffff166040518263ffffffff1660e01b81526004016117d99190612762565b602060405180830381865afa1580156117f6573d6000803e3d6000fd5b505050506040513d601f19601f8201168201806040525081019061181a9190613296565b90506000810361182e5760019150506118a6565b600061183861194b565b905060006118478787876116bc565b90508082101561185d57600093505050506118a6565b60006118988461188a61271061187c868861209790919063ffffffff16565b6120e190919063ffffffff16565b61215b90919063ffffffff16565b9050612af881119450505050505b9392505050565b600960009054906101000a900473ffffffffffffffffffffffffffffffffffffffff1681565b600b60009054906101000a900473ffffffffffffffffffffffffffffffffffffffff1681565b600660009054906101000a900473ffffffffffffffffffffffffffffffffffffffff1681565b600760009054906101000a900473ffffffffffffffffffffffffffffffffffffffff1681565b61271081565b600080600090506000805b600e80549050811015611b3c576000611a2c6010838154811061197c5761197b61357b565b5b906000526020600020906002020160000160009054906101000a900473ffffffffffffffffffffffffffffffffffffffff16601084815481106119c2576119c161357b565b5b906000526020600020906002020160010160009054906101000a900473ffffffffffffffffffffffffffffffffffffffff1660108581548110611a0857611a0761357b565b5b906000526020600020906002020160010160149054906101000a900460ff166116bc565b9050611a41818561203990919063ffffffff16565b93506000611b0c60108481548110611a5c57611a5b61357b565b5b906000526020600020906002020160000160009054906101000a900473ffffffffffffffffffffffffffffffffffffffff1660108581548110611aa257611aa161357b565b5b906000526020600020906002020160010160009054906101000a900473ffffffffffffffffffffffffffffffffffffffff1660108681548110611ae857611ae761357b565b5b906000526020600020906002020160010160149054906101000a900460ff1661082e565b9050611b2581600001518561203990919063ffffffff16565b935050508080611b34906135aa565b915050611956565b506000600360009054906101000a900473ffffffffffffffffffffffffffffffffffffffff1673ffffffffffffffffffffffffffffffffffffffff1663db1e4ff8600b60009054906101000a900473ffffffffffffffffffffffffffffffffffffffff166040518263ffffffff1660e01b8152600401611bbc9190612762565b602060405180830381865afa158015611bd9573d6000803e3d6000fd5b505050506040513d601f19601f82011682018060405250810190611bfd9190613296565b9050611c4b81611c3d611c2e612710611c206064886120e190919063ffffffff16565b61215b90919063ffffffff16565b8661209790919063ffffffff16565b61209790919063ffffffff16565b925082935050505090565b565b6000806000905060005b601080549050811015611d63576000611d3860108381548110611c8857611c8761357b565b5b906000526020600020906002020160000160009054906101000a900473ffffffffffffffffffffffffffffffffffffffff1660108481548110611cce57611ccd61357b565b5b906000526020600020906002020160010160009054906101000a900473ffffffffffffffffffffffffffffffffffffffff1660108581548110611d1457611d1361357b565b5b906000526020600020906002020160010160149054906101000a900460ff16610ced565b9050611d4d818461203990919063ffffffff16565b9250508080611d5b906135aa565b915050611c62565b508091505090565b600460009054906101000a900473ffffffffffffffffffffffffffffffffffffffff1681565b60008054906101000a900473ffffffffffffffffffffffffffffffffffffffff1681565b600e8181548110611dc557600080fd5b90600052602060002090600202016000915090508060000160009054906101000a900473ffffffffffffffffffffffffffffffffffffffff16908060010160009054906101000a900473ffffffffffffffffffffffffffffffffffffffff16908060010160149054906101000a900460ff16905083565b600f6000611e72848660006001811115611e5957611e586128d7565b5b866001811115611e6c57611e6b6128d7565b5b14610fac565b815260200190815260200160002060009054906101000a900460ff1661203457601060405180606001604052808473ffffffffffffffffffffffffffffffffffffffff1681526020018573ffffffffffffffffffffffffffffffffffffffff168152602001836001811115611eea57611ee96128d7565b5b815250908060018154018082558091505060019003906000526020600020906002020160009091909190915060008201518160000160006101000a81548173ffffffffffffffffffffffffffffffffffffffff021916908373ffffffffffffffffffffffffffffffffffffffff16021790555060208201518160010160006101000a81548173ffffffffffffffffffffffffffffffffffffffff021916908373ffffffffffffffffffffffffffffffffffffffff16021790555060408201518160010160146101000a81548160ff02191690836001811115611fcf57611fce6128d7565b5b021790555050506001600f600061200e858760006001811115611ff557611ff46128d7565b5b876001811115612008576120076128d7565b5b14610fac565b815260200190815260200160002060006101000a81548160ff0219169083151502179055505b505050565b6000808284612048919061348c565b90508381101561208d576040517f08c379a00000000000000000000000000000000000000000000000000000000081526004016120849061363e565b60405180910390fd5b8091505092915050565b60006120d983836040518060400160405280601e81526020017f536166654d6174683a207375627472616374696f6e206f766572666c6f770000815250612335565b905092915050565b60008083036120f35760009050612155565b60008284612101919061365e565b905082848261211091906136cf565b14612150576040517f08c379a000000000000000000000000000000000000000000000000000000000815260040161214790613772565b60405180910390fd5b809150505b92915050565b600061219d83836040518060400160405280601a81526020017f536166654d6174683a206469766973696f6e206279207a65726f000000000000815250612399565b905092915050565b60008060008414806121b75750600083145b156121c8576000809150915061232c565b6000600a60009054906101000a900473ffffffffffffffffffffffffffffffffffffffff1673ffffffffffffffffffffffffffffffffffffffff166376d69760886000600181111561221d5761221c6128d7565b5b8960018111156122305761222f6128d7565b5b146040518363ffffffff1660e01b815260040161224e929190613552565b602060405180830381865afa15801561226b573d6000803e3d6000fd5b505050506040513d601f19601f8201168201806040525081019061228f9190613296565b905060008185116122b2576122ad858361209790919063ffffffff16565b6122c6565b6122c5828661209790919063ffffffff16565b5b90506122ed856122df83896120e190919063ffffffff16565b61215b90919063ffffffff16565b935060006001811115612303576123026128d7565b5b876001811115612316576123156128d7565b5b1461232357818511612327565b8482115b925050505b94509492505050565b600083831115829061237d576040517f08c379a000000000000000000000000000000000000000000000000000000000815260040161237491906137d6565b60405180910390fd5b506000838561238c91906137f8565b9050809150509392505050565b600080831182906123e0576040517f08c379a00000000000000000000000000000000000000000000000000000000081526004016123d791906137d6565b60405180910390fd5b50600083856123ef91906136cf565b9050809150509392505050565b6040518060a0016040528060008152602001600081526020016000815260200160008152602001600081525090565b6000604051905090565b600080fd5b600073ffffffffffffffffffffffffffffffffffffffff82169050919050565b60006124658261243a565b9050919050565b6124758161245a565b811461248057600080fd5b50565b6000813590506124928161246c565b92915050565b600281106124a557600080fd5b50565b6000813590506124b781612498565b92915050565b6000806000606084860312156124d6576124d5612435565b5b60006124e486828701612483565b93505060206124f586828701612483565b9250506040612506868287016124a8565b9150509250925092565b6000819050919050565b61252381612510565b82525050565b60a08201600082015161253f600085018261251a565b506020820151612552602085018261251a565b506040820151612565604085018261251a565b506060820151612578606085018261251a565b50608082015161258b608085018261251a565b50505050565b600060a0820190506125a66000830184612529565b92915050565b6125b581612510565b82525050565b60006020820190506125d060008301846125ac565b92915050565b600080600080608085870312156125f0576125ef612435565b5b60006125fe87828801612483565b945050602061260f87828801612483565b935050604061262087828801612483565b9250506060612631878288016124a8565b91505092959194509250565b6000819050919050565b6126508161263d565b82525050565b600060208201905061266b6000830184612647565b92915050565b61267a81612510565b811461268557600080fd5b50565b60008135905061269781612671565b92915050565b600080600080600080600080610100898b0312156126be576126bd612435565b5b60006126cc8b828c016124a8565b98505060206126dd8b828c01612483565b97505060406126ee8b828c01612483565b96505060606126ff8b828c01612688565b95505060806127108b828c01612483565b94505060a06127218b828c01612688565b93505060c06127328b828c01612688565b92505060e06127438b828c01612688565b9150509295985092959890939650565b61275c8161245a565b82525050565b60006020820190506127776000830184612753565b92915050565b600080600080600080600060e0888a03121561279c5761279b612435565b5b60006127aa8a828b016124a8565b97505060206127bb8a828b01612483565b96505060406127cc8a828b01612483565b95505060606127dd8a828b01612688565b94505060806127ee8a828b01612483565b93505060a06127ff8a828b01612688565b92505060c06128108a828b01612688565b91505092959891949750929550565b60008115159050919050565b6128348161281f565b811461283f57600080fd5b50565b6000813590506128518161282b565b92915050565b6000806000606084860312156128705761286f612435565b5b600061287e86828701612483565b935050602061288f86828701612483565b92505060406128a086828701612842565b9150509250925092565b6000602082840312156128c0576128bf612435565b5b60006128ce84828501612688565b91505092915050565b7f4e487b7100000000000000000000000000000000000000000000000000000000600052602160045260246000fd5b60028110612917576129166128d7565b5b50565b600081905061292882612906565b919050565b60006129388261291a565b9050919050565b6129488161292d565b82525050565b60006060820190506129636000830186612753565b6129706020830185612753565b61297d604083018461293f565b949350505050565b600080fd5b6000601f19601f8301169050919050565b7f4e487b7100000000000000000000000000000000000000000000000000000000600052604160045260246000fd5b6129d38261298a565b810181811067ffffffffffffffff821117156129f2576129f161299b565b5b80604052505050565b6000612a0561242b565b9050612a1182826129ca565b919050565b600060a08284031215612a2c57612a2b612985565b5b612a3660a06129fb565b90506000612a4684828501612688565b6000830152506020612a5a84828501612688565b6020830152506040612a6e84828501612688565b6040830152506060612a8284828501612688565b6060830152506080612a9684828501612688565b60808301525092915050565b600080600060e08486031215612abb57612aba612435565b5b6000612ac986828701612a16565b93505060a0612ada86828701612483565b92505060c0612aeb86828701612688565b9150509250925092565b60008060008060808587031215612b0f57612b0e612435565b5b6000612b1d87828801612483565b9450506020612b2e878288016124a8565b9350506040612b3f87828801612688565b9250506060612b5087828801612688565b91505092959194509250565b612b658161281f565b82525050565b6000604082019050612b8060008301856125ac565b612b8d6020830184612b5c565b9392505050565b6000602082019050612ba96000830184612b5c565b92915050565b6000606082019050612bc46000830186612753565b612bd16020830185612753565b612bde6040830184612b5c565b949350505050565b600081519050612bf581612671565b92915050565b600080600080600060a08688031215612c1757612c16612435565b5b6000612c2588828901612be6565b9550506020612c3688828901612be6565b9450506040612c4788828901612be6565b9350506060612c5888828901612be6565b9250506080612c6988828901612be6565b9150509295509295909350565b6000608082019050612c8b6000830187612753565b612c986020830186612753565b612ca56040830185612753565b612cb2606083018461293f565b95945050505050565b600082825260208201905092915050565b7f6f6e6c7920746865206f776e65722063616e2063616c6c20746869732066756e60008201527f6374696f6e000000000000000000000000000000000000000000000000000000602082015250565b6000612d28602583612cbb565b9150612d3382612ccc565b604082019050919050565b60006020820190508181036000830152612d5781612d1b565b9050919050565b6000606082019050612d736000830186612753565b612d806020830185612753565b612d8d60408301846125ac565b949350505050565b600081519050612da48161282b565b92915050565b600060208284031215612dc057612dbf612435565b5b6000612dce84828501612d95565b91505092915050565b7f6661696c656420746f207472616e7366657220696e20636f6c6c61746572616c600082015250565b6000612e0d602083612cbb565b9150612e1882612dd7565b602082019050919050565b60006020820190508181036000830152612e3c81612e00565b9050919050565b6000604082019050612e586000830185612753565b612e6560208301846125ac565b9392505050565b7f6661696c656420746f20617070726f766520636f6c6c61746572616c2074726160008201527f6e73666572000000000000000000000000000000000000000000000000000000602082015250565b6000612ec8602583612cbb565b9150612ed382612e6c565b604082019050919050565b60006020820190508181036000830152612ef781612ebb565b9050919050565b600081519050919050565b600082825260208201905092915050565b60005b83811015612f38578082015181840152602081019050612f1d565b60008484015250505050565b6000612f4f82612efe565b612f598185612f09565b9350612f69818560208601612f1a565b612f728161298a565b840191505092915050565b600060c082019050612f9260008301896125ac565b612f9f6020830188612753565b612fac60408301876125ac565b612fb960608301866125ac565b612fc660808301856125ac565b81810360a0830152612fd88184612f44565b9050979650505050505050565b60028110612ff657612ff56128d7565b5b50565b600081905061300782612fe5565b919050565b600061301782612ff9565b9050919050565b6130278161300c565b82525050565b6002811061303e5761303d6128d7565b5b50565b600081905061304f8261302d565b919050565b600061305f82613041565b9050919050565b61306f81613054565b82525050565b600060c08201905061308a600083018961301e565b613097602083018861293f565b6130a46040830187612753565b6130b16060830186612753565b6130be6080830185613066565b81810360a08301526130d08184612f44565b9050979650505050505050565b7f6c6f616e20616d6f756e7420646f6573206e6f74207065726d6974206c69717560008201527f69646174696f6e00000000000000000000000000000000000000000000000000602082015250565b6000613139602783612cbb565b9150613144826130dd565b604082019050919050565b600060208201905081810360008301526131688161312c565b9050919050565b600060a08201905061318460008301886125ac565b6131916020830187612753565b61319e60408301866125ac565b6131ab60608301856125ac565b81810360808301526131bd8184612f44565b90509695505050505050565b60008160601b9050919050565b60006131e1826131c9565b9050919050565b60006131f3826131d6565b9050919050565b61320b6132068261245a565b6131e8565b82525050565b60008160f81b9050919050565b600061322982613211565b9050919050565b600061323b8261321e565b9050919050565b61325361324e8261281f565b613230565b82525050565b600061326582866131fa565b60148201915061327582856131fa565b6014820191506132858284613242565b600182019150819050949350505050565b6000602082840312156132ac576132ab612435565b5b60006132ba84828501612be6565b91505092915050565b600060e082840312156132d9576132d8612985565b5b6132e360e06129fb565b905060006132f384828501612be6565b600083015250602061330784828501612be6565b602083015250604061331b84828501612be6565b604083015250606061332f84828501612be6565b606083015250608061334384828501612be6565b60808301525060a061335784828501612be6565b60a08301525060c061336b84828501612be6565b60c08301525092915050565b600060e0828403121561338d5761338c612435565b5b600061339b848285016132c3565b91505092915050565b600060a082840312156133ba576133b9612985565b5b6133c460a06129fb565b905060006133d484828501612be6565b60008301525060206133e884828501612be6565b60208301525060406133fc84828501612be6565b604083015250606061341084828501612be6565b606083015250608061342484828501612be6565b60808301525092915050565b600060a0828403121561344657613445612435565b5b6000613454848285016133a4565b91505092915050565b7f4e487b7100000000000000000000000000000000000000000000000000000000600052601160045260246000fd5b600061349782612510565b91506134a283612510565b92508282019050808211156134ba576134b961345d565b5b92915050565b7f617665726765207072696365206f6620706f736974696f6e2068617320746f2060008201527f62652067726561746572207468616e2030000000000000000000000000000000602082015250565b600061351c603183612cbb565b9150613527826134c0565b604082019050919050565b6000602082019050818103600083015261354b8161350f565b9050919050565b60006040820190506135676000830185612753565b6135746020830184612b5c565b9392505050565b7f4e487b7100000000000000000000000000000000000000000000000000000000600052603260045260246000fd5b60006135b582612510565b91507fffffffffffffffffffffffffffffffffffffffffffffffffffffffffffffffff82036135e7576135e661345d565b5b600182019050919050565b7f536166654d6174683a206164646974696f6e206f766572666c6f770000000000600082015250565b6000613628601b83612cbb565b9150613633826135f2565b602082019050919050565b600060208201905081810360008301526136578161361b565b9050919050565b600061366982612510565b915061367483612510565b925082820261368281612510565b915082820484148315176136995761369861345d565b5b5092915050565b7f4e487b7100000000000000000000000000000000000000000000000000000000600052601260045260246000fd5b60006136da82612510565b91506136e583612510565b9250826136f5576136f46136a0565b5b828204905092915050565b7f536166654d6174683a206d756c7469706c69636174696f6e206f766572666c6f60008201527f7700000000000000000000000000000000000000000000000000000000000000602082015250565b600061375c602183612cbb565b915061376782613700565b604082019050919050565b6000602082019050818103600083015261378b8161374f565b9050919050565b600081519050919050565b60006137a882613792565b6137b28185612cbb565b93506137c2818560208601612f1a565b6137cb8161298a565b840191505092915050565b600060208201905081810360008301526137f0818461379d565b905092915050565b600061380382612510565b915061380e83612510565b92508282039050818111156138265761382561345d565b5b9291505056fea264697066735822122061a3a74116e8658268d322250d6fd7f723d8cc59548d548f0d0e2c54aaf11e3964736f6c63430008110033","opcodes":"PUSH1 0x80 PUSH1 0x40 MSTORE PUSH20 0xB3F5503F93D5EF84B06993A1975B9D21B962892F PUSH1 0x0 DUP1 PUSH2 0x100 EXP DUP2 SLOAD DUP2 PUSH20 0xFFFFFFFFFFFFFFFFFFFFFFFFFFFFFFFFFFFFFFFF MUL NOT AND SWAP1 DUP4 PUSH20 0xFFFFFFFFFFFFFFFFFFFFFFFFFFFFFFFFFFFFFFFF AND MUL OR SWAP1 SSTORE POP PUSH20 0xF584A17DF21AFD9DE84F47842ECEAF6042B1BB5B PUSH1 0x8 PUSH1 0x0 PUSH2 0x100 EXP DUP2 SLOAD DUP2 PUSH20 0xFFFFFFFFFFFFFFFFFFFFFFFFFFFFFFFFFFFFFFFF MUL NOT AND SWAP1 DUP4 PUSH20 0xFFFFFFFFFFFFFFFFFFFFFFFFFFFFFFFFFFFFFFFF AND MUL OR SWAP1 SSTORE POP PUSH20 0xA5ABFB56A78D2BD4689B25B8A77FD49BB0675874 PUSH1 0x9 PUSH1 0x0 PUSH2 0x100 EXP DUP2 SLOAD DUP2 PUSH20 0xFFFFFFFFFFFFFFFFFFFFFFFFFFFFFFFFFFFFFFFF MUL NOT AND SWAP1 DUP4 PUSH20 0xFFFFFFFFFFFFFFFFFFFFFFFFFFFFFFFFFFFFFFFF AND MUL OR SWAP1 SSTORE POP PUSH20 0x4DB83667F5D59FF61FA6BBBD894824B233B3693 PUSH1 0xA PUSH1 0x0 PUSH2 0x100 EXP DUP2 SLOAD DUP2 PUSH20 0xFFFFFFFFFFFFFFFFFFFFFFFFFFFFFFFFFFFFFFFF MUL NOT AND SWAP1 DUP4 PUSH20 0xFFFFFFFFFFFFFFFFFFFFFFFFFFFFFFFFFFFFFFFF AND MUL OR SWAP1 SSTORE POP CALLVALUE DUP1 ISZERO PUSH3 0x164 JUMPI PUSH1 0x0 DUP1 REVERT JUMPDEST POP PUSH1 0x40 MLOAD PUSH3 0x3D45 CODESIZE SUB DUP1 PUSH3 0x3D45 DUP4 CODECOPY DUP2 DUP2 ADD PUSH1 0x40 MSTORE DUP2 ADD SWAP1 PUSH3 0x18A SWAP2 SWAP1 PUSH3 0x40A JUMP JUMPDEST DUP8 PUSH1 0x1 PUSH1 0x0 PUSH2 0x100 EXP DUP2 SLOAD DUP2 PUSH20 0xFFFFFFFFFFFFFFFFFFFFFFFFFFFFFFFFFFFFFFFF MUL NOT AND SWAP1 DUP4 PUSH20 0xFFFFFFFFFFFFFFFFFFFFFFFFFFFFFFFFFFFFFFFF AND MUL OR SWAP1 SSTORE POP DUP5 PUSH1 0xB PUSH1 0x0 PUSH2 0x100 EXP DUP2 SLOAD DUP2 PUSH20 0xFFFFFFFFFFFFFFFFFFFFFFFFFFFFFFFFFFFFFFFF MUL NOT AND SWAP1 DUP4 PUSH20 0xFFFFFFFFFFFFFFFFFFFFFFFFFFFFFFFFFFFFFFFF AND MUL OR SWAP1 SSTORE POP DUP7 PUSH1 0x2 PUSH1 0x0 PUSH2 0x100 EXP DUP2 SLOAD DUP2 PUSH20 0xFFFFFFFFFFFFFFFFFFFFFFFFFFFFFFFFFFFFFFFF MUL NOT AND SWAP1 DUP4 PUSH20 0xFFFFFFFFFFFFFFFFFFFFFFFFFFFFFFFFFFFFFFFF AND MUL OR SWAP1 SSTORE POP DUP6 PUSH1 0x3 PUSH1 0x0 PUSH2 0x100 EXP DUP2 SLOAD DUP2 PUSH20 0xFFFFFFFFFFFFFFFFFFFFFFFFFFFFFFFFFFFFFFFF MUL NOT AND SWAP1 DUP4 PUSH20 0xFFFFFFFFFFFFFFFFFFFFFFFFFFFFFFFFFFFFFFFF AND MUL OR SWAP1 SSTORE POP DUP4 PUSH1 0x4 PUSH1 0x0 PUSH2 0x100 EXP DUP2 SLOAD DUP2 PUSH20 0xFFFFFFFFFFFFFFFFFFFFFFFFFFFFFFFFFFFFFFFF MUL NOT AND SWAP1 DUP4 PUSH20 0xFFFFFFFFFFFFFFFFFFFFFFFFFFFFFFFFFFFFFFFF AND MUL OR SWAP1 SSTORE POP DUP3 PUSH1 0x5 PUSH1 0x0 PUSH2 0x100 EXP DUP2 SLOAD DUP2 PUSH20 0xFFFFFFFFFFFFFFFFFFFFFFFFFFFFFFFFFFFFFFFF MUL NOT AND SWAP1 DUP4 PUSH20 0xFFFFFFFFFFFFFFFFFFFFFFFFFFFFFFFFFFFFFFFF AND MUL OR SWAP1 SSTORE POP DUP2 PUSH1 0x6 PUSH1 0x0 PUSH2 0x100 EXP DUP2 SLOAD DUP2 PUSH20 0xFFFFFFFFFFFFFFFFFFFFFFFFFFFFFFFFFFFFFFFF MUL NOT AND SWAP1 DUP4 PUSH20 0xFFFFFFFFFFFFFFFFFFFFFFFFFFFFFFFFFFFFFFFF AND MUL OR SWAP1 SSTORE POP DUP1 PUSH1 0x7 PUSH1 0x0 PUSH2 0x100 EXP DUP2 SLOAD DUP2 PUSH20 0xFFFFFFFFFFFFFFFFFFFFFFFFFFFFFFFFFFFFFFFF MUL NOT AND SWAP1 DUP4 PUSH20 0xFFFFFFFFFFFFFFFFFFFFFFFFFFFFFFFFFFFFFFFF AND MUL OR SWAP1 SSTORE POP POP POP POP POP POP POP POP POP PUSH3 0x4D3 JUMP JUMPDEST PUSH1 0x0 DUP1 REVERT JUMPDEST PUSH1 0x0 PUSH20 0xFFFFFFFFFFFFFFFFFFFFFFFFFFFFFFFFFFFFFFFF DUP3 AND SWAP1 POP SWAP2 SWAP1 POP JUMP JUMPDEST PUSH1 0x0 PUSH3 0x3D2 DUP3 PUSH3 0x3A5 JUMP JUMPDEST SWAP1 POP SWAP2 SWAP1 POP JUMP JUMPDEST PUSH3 0x3E4 DUP2 PUSH3 0x3C5 JUMP JUMPDEST DUP2 EQ PUSH3 0x3F0 JUMPI PUSH1 0x0 DUP1 REVERT JUMPDEST POP JUMP JUMPDEST PUSH1 0x0 DUP2 MLOAD SWAP1 POP PUSH3 0x404 DUP2 PUSH3 0x3D9 JUMP JUMPDEST SWAP3 SWAP2 POP POP JUMP JUMPDEST PUSH1 0x0 DUP1 PUSH1 0x0 DUP1 PUSH1 0x0 DUP1 PUSH1 0x0 DUP1 PUSH2 0x100 DUP10 DUP12 SUB SLT ISZERO PUSH3 0x42E JUMPI PUSH3 0x42D PUSH3 0x3A0 JUMP JUMPDEST JUMPDEST PUSH1 0x0 PUSH3 0x43E DUP12 DUP3 DUP13 ADD PUSH3 0x3F3 JUMP JUMPDEST SWAP9 POP POP PUSH1 0x20 PUSH3 0x451 DUP12 DUP3 DUP13 ADD PUSH3 0x3F3 JUMP JUMPDEST SWAP8 POP POP PUSH1 0x40 PUSH3 0x464 DUP12 DUP3 DUP13 ADD PUSH3 0x3F3 JUMP JUMPDEST SWAP7 POP POP PUSH1 0x60 PUSH3 0x477 DUP12 DUP3 DUP13 ADD PUSH3 0x3F3 JUMP JUMPDEST SWAP6 POP POP PUSH1 0x80 PUSH3 0x48A DUP12 DUP3 DUP13 ADD PUSH3 0x3F3 JUMP JUMPDEST SWAP5 POP POP PUSH1 0xA0 PUSH3 0x49D DUP12 DUP3 DUP13 ADD PUSH3 0x3F3 JUMP JUMPDEST SWAP4 POP POP PUSH1 0xC0 PUSH3 0x4B0 DUP12 DUP3 DUP13 ADD PUSH3 0x3F3 JUMP JUMPDEST SWAP3 POP POP PUSH1 0xE0 PUSH3 0x4C3 DUP12 DUP3 DUP13 ADD PUSH3 0x3F3 JUMP JUMPDEST SWAP2 POP POP SWAP3 SWAP6 SWAP9 POP SWAP3 SWAP6 SWAP9 SWAP1 SWAP4 SWAP7 POP JUMP JUMPDEST PUSH2 0x3862 DUP1 PUSH3 0x4E3 PUSH1 0x0 CODECOPY PUSH1 0x0 RETURN INVALID PUSH1 0x80 PUSH1 0x40 MSTORE PUSH1 0x4 CALLDATASIZE LT PUSH2 0x1F9 JUMPI PUSH1 0x0 CALLDATALOAD PUSH1 0xE0 SHR DUP1 PUSH4 0x63AE2103 GT PUSH2 0x10D JUMPI DUP1 PUSH4 0x9409D870 GT PUSH2 0xA0 JUMPI DUP1 PUSH4 0xD0E30DB0 GT PUSH2 0x6F JUMPI DUP1 PUSH4 0xD0E30DB0 EQ PUSH2 0x764 JUMPI DUP1 PUSH4 0xD3827EEE EQ PUSH2 0x76E JUMPI DUP1 PUSH4 0xD422B00F EQ PUSH2 0x799 JUMPI DUP1 PUSH4 0xD571E21C EQ PUSH2 0x7C4 JUMPI DUP1 PUSH4 0xE9F4454D EQ PUSH2 0x7EF JUMPI PUSH2 0x1F9 JUMP JUMPDEST DUP1 PUSH4 0x9409D870 EQ PUSH2 0x6B8 JUMPI DUP1 PUSH4 0xA92EA0E0 EQ PUSH2 0x6E3 JUMPI DUP1 PUSH4 0xB5627E42 EQ PUSH2 0x70E JUMPI DUP1 PUSH4 0xCEFCBD9D EQ PUSH2 0x739 JUMPI PUSH2 0x1F9 JUMP JUMPDEST DUP1 PUSH4 0x7809BAAF GT PUSH2 0xDC JUMPI DUP1 PUSH4 0x7809BAAF EQ PUSH2 0x5FA JUMPI DUP1 PUSH4 0x81BE2320 EQ PUSH2 0x625 JUMPI DUP1 PUSH4 0x8812F374 EQ PUSH2 0x662 JUMPI DUP1 PUSH4 0x8F84AA09 EQ PUSH2 0x68D JUMPI PUSH2 0x1F9 JUMP JUMPDEST DUP1 PUSH4 0x63AE2103 EQ PUSH2 0x53C JUMPI DUP1 PUSH4 0x725BA052 EQ PUSH2 0x567 JUMPI DUP1 PUSH4 0x7379DBE6 EQ PUSH2 0x592 JUMPI DUP1 PUSH4 0x75F134B4 EQ PUSH2 0x5BD JUMPI PUSH2 0x1F9 JUMP JUMPDEST DUP1 PUSH4 0x1B8B361B GT PUSH2 0x190 JUMPI DUP1 PUSH4 0x33C445D5 GT PUSH2 0x15F JUMPI DUP1 PUSH4 0x33C445D5 EQ PUSH2 0x42C JUMPI DUP1 PUSH4 0x39CF8916 EQ PUSH2 0x46B JUMPI DUP1 PUSH4 0x4F0E0EF3 EQ PUSH2 0x4A8 JUMPI DUP1 PUSH4 0x5B9FB547 EQ PUSH2 0x4D3 JUMPI DUP1 PUSH4 0x62A3B0E1 EQ PUSH2 0x511 JUMPI PUSH2 0x1F9 JUMP JUMPDEST DUP1 PUSH4 0x1B8B361B EQ PUSH2 0x36E JUMPI DUP1 PUSH4 0x238E270A EQ PUSH2 0x399 JUMPI DUP1 PUSH4 0x32315A62 EQ PUSH2 0x3D6 JUMPI DUP1 PUSH4 0x3268CC56 EQ PUSH2 0x401 JUMPI PUSH2 0x1F9 JUMP JUMPDEST DUP1 PUSH4 0x126082CF GT PUSH2 0x1CC JUMPI DUP1 PUSH4 0x126082CF EQ PUSH2 0x2BF JUMPI DUP1 PUSH4 0x12D43A51 EQ PUSH2 0x2EA JUMPI DUP1 PUSH4 0x15109F64 EQ PUSH2 0x315 JUMPI DUP1 PUSH4 0x157103F4 EQ PUSH2 0x352 JUMPI PUSH2 0x1F9 JUMP JUMPDEST DUP1 PUSH4 0x27F1388 EQ PUSH2 0x1FE JUMPI DUP1 PUSH4 0x81752BB EQ PUSH2 0x23B JUMPI DUP1 PUSH4 0xDD78F19 EQ PUSH2 0x266 JUMPI DUP1 PUSH4 0x1154DBC2 EQ PUSH2 0x2A3 JUMPI JUMPDEST PUSH1 0x0 DUP1 REVERT JUMPDEST CALLVALUE DUP1 ISZERO PUSH2 0x20A JUMPI PUSH1 0x0 DUP1 REVERT JUMPDEST POP PUSH2 0x225 PUSH1 0x4 DUP1 CALLDATASIZE SUB DUP2 ADD SWAP1 PUSH2 0x220 SWAP2 SWAP1 PUSH2 0x24BD JUMP JUMPDEST PUSH2 0x82E JUMP JUMPDEST PUSH1 0x40 MLOAD PUSH2 0x232 SWAP2 SWAP1 PUSH2 0x2591 JUMP JUMPDEST PUSH1 0x40 MLOAD DUP1 SWAP2 SUB SWAP1 RETURN JUMPDEST CALLVALUE DUP1 ISZERO PUSH2 0x247 JUMPI PUSH1 0x0 DUP1 REVERT JUMPDEST POP PUSH2 0x250 PUSH2 0x91D JUMP JUMPDEST PUSH1 0x40 MLOAD PUSH2 0x25D SWAP2 SWAP1 PUSH2 0x25BB JUMP JUMPDEST PUSH1 0x40 MLOAD DUP1 SWAP2 SUB SWAP1 RETURN JUMPDEST CALLVALUE DUP1 ISZERO PUSH2 0x272 JUMPI PUSH1 0x0 DUP1 REVERT JUMPDEST POP PUSH2 0x28D PUSH1 0x4 DUP1 CALLDATASIZE SUB DUP2 ADD SWAP1 PUSH2 0x288 SWAP2 SWAP1 PUSH2 0x25D6 JUMP JUMPDEST PUSH2 0x922 JUMP JUMPDEST PUSH1 0x40 MLOAD PUSH2 0x29A SWAP2 SWAP1 PUSH2 0x2656 JUMP JUMPDEST PUSH1 0x40 MLOAD DUP1 SWAP2 SUB SWAP1 RETURN JUMPDEST PUSH2 0x2BD PUSH1 0x4 DUP1 CALLDATASIZE SUB DUP2 ADD SWAP1 PUSH2 0x2B8 SWAP2 SWAP1 PUSH2 0x269D JUMP JUMPDEST PUSH2 0x95B JUMP JUMPDEST STOP JUMPDEST CALLVALUE DUP1 ISZERO PUSH2 0x2CB JUMPI PUSH1 0x0 DUP1 REVERT JUMPDEST POP PUSH2 0x2D4 PUSH2 0xCC1 JUMP JUMPDEST PUSH1 0x40 MLOAD PUSH2 0x2E1 SWAP2 SWAP1 PUSH2 0x25BB JUMP JUMPDEST PUSH1 0x40 MLOAD DUP1 SWAP2 SUB SWAP1 RETURN JUMPDEST CALLVALUE DUP1 ISZERO PUSH2 0x2F6 JUMPI PUSH1 0x0 DUP1 REVERT JUMPDEST POP PUSH2 0x2FF PUSH2 0xCC7 JUMP JUMPDEST PUSH1 0x40 MLOAD PUSH2 0x30C SWAP2 SWAP1 PUSH2 0x2762 JUMP JUMPDEST PUSH1 0x40 MLOAD DUP1 SWAP2 SUB SWAP1 RETURN JUMPDEST CALLVALUE DUP1 ISZERO PUSH2 0x321 JUMPI PUSH1 0x0 DUP1 REVERT JUMPDEST POP PUSH2 0x33C PUSH1 0x4 DUP1 CALLDATASIZE SUB DUP2 ADD SWAP1 PUSH2 0x337 SWAP2 SWAP1 PUSH2 0x24BD JUMP JUMPDEST PUSH2 0xCED JUMP JUMPDEST PUSH1 0x40 MLOAD PUSH2 0x349 SWAP2 SWAP1 PUSH2 0x25BB JUMP JUMPDEST PUSH1 0x40 MLOAD DUP1 SWAP2 SUB SWAP1 RETURN JUMPDEST PUSH2 0x36C PUSH1 0x4 DUP1 CALLDATASIZE SUB DUP2 ADD SWAP1 PUSH2 0x367 SWAP2 SWAP1 PUSH2 0x277D JUMP JUMPDEST PUSH2 0xDCB JUMP JUMPDEST STOP JUMPDEST CALLVALUE DUP1 ISZERO PUSH2 0x37A JUMPI PUSH1 0x0 DUP1 REVERT JUMPDEST POP PUSH2 0x383 PUSH2 0xF86 JUMP JUMPDEST PUSH1 0x40 MLOAD PUSH2 0x390 SWAP2 SWAP1 PUSH2 0x2762 JUMP JUMPDEST PUSH1 0x40 MLOAD DUP1 SWAP2 SUB SWAP1 RETURN JUMPDEST CALLVALUE DUP1 ISZERO PUSH2 0x3A5 JUMPI PUSH1 0x0 DUP1 REVERT JUMPDEST POP PUSH2 0x3C0 PUSH1 0x4 DUP1 CALLDATASIZE SUB DUP2 ADD SWAP1 PUSH2 0x3BB SWAP2 SWAP1 PUSH2 0x2857 JUMP JUMPDEST PUSH2 0xFAC JUMP JUMPDEST PUSH1 0x40 MLOAD PUSH2 0x3CD SWAP2 SWAP1 PUSH2 0x2656 JUMP JUMPDEST PUSH1 0x40 MLOAD DUP1 SWAP2 SUB SWAP1 RETURN JUMPDEST CALLVALUE DUP1 ISZERO PUSH2 0x3E2 JUMPI PUSH1 0x0 DUP1 REVERT JUMPDEST POP PUSH2 0x3EB PUSH2 0xFE2 JUMP JUMPDEST PUSH1 0x40 MLOAD PUSH2 0x3F8 SWAP2 SWAP1 PUSH2 0x25BB JUMP JUMPDEST PUSH1 0x40 MLOAD DUP1 SWAP2 SUB SWAP1 RETURN JUMPDEST CALLVALUE DUP1 ISZERO PUSH2 0x40D JUMPI PUSH1 0x0 DUP1 REVERT JUMPDEST POP PUSH2 0x416 PUSH2 0x10F2 JUMP JUMPDEST PUSH1 0x40 MLOAD PUSH2 0x423 SWAP2 SWAP1 PUSH2 0x2762 JUMP JUMPDEST PUSH1 0x40 MLOAD DUP1 SWAP2 SUB SWAP1 RETURN JUMPDEST CALLVALUE DUP1 ISZERO PUSH2 0x438 JUMPI PUSH1 0x0 DUP1 REVERT JUMPDEST POP PUSH2 0x453 PUSH1 0x4 DUP1 CALLDATASIZE SUB DUP2 ADD SWAP1 PUSH2 0x44E SWAP2 SWAP1 PUSH2 0x28AA JUMP JUMPDEST PUSH2 0x1118 JUMP JUMPDEST PUSH1 0x40 MLOAD PUSH2 0x462 SWAP4 SWAP3 SWAP2 SWAP1 PUSH2 0x294E JUMP JUMPDEST PUSH1 0x40 MLOAD DUP1 SWAP2 SUB SWAP1 RETURN JUMPDEST CALLVALUE DUP1 ISZERO PUSH2 0x477 JUMPI PUSH1 0x0 DUP1 REVERT JUMPDEST POP PUSH2 0x492 PUSH1 0x4 DUP1 CALLDATASIZE SUB DUP2 ADD SWAP1 PUSH2 0x48D SWAP2 SWAP1 PUSH2 0x2AA2 JUMP JUMPDEST PUSH2 0x119F JUMP JUMPDEST PUSH1 0x40 MLOAD PUSH2 0x49F SWAP2 SWAP1 PUSH2 0x25BB JUMP JUMPDEST PUSH1 0x40 MLOAD DUP1 SWAP2 SUB SWAP1 RETURN JUMPDEST CALLVALUE DUP1 ISZERO PUSH2 0x4B4 JUMPI PUSH1 0x0 DUP1 REVERT JUMPDEST POP PUSH2 0x4BD PUSH2 0x136C JUMP JUMPDEST PUSH1 0x40 MLOAD PUSH2 0x4CA SWAP2 SWAP1 PUSH2 0x2762 JUMP JUMPDEST PUSH1 0x40 MLOAD DUP1 SWAP2 SUB SWAP1 RETURN JUMPDEST CALLVALUE DUP1 ISZERO PUSH2 0x4DF JUMPI PUSH1 0x0 DUP1 REVERT JUMPDEST POP PUSH2 0x4FA PUSH1 0x4 DUP1 CALLDATASIZE SUB DUP2 ADD SWAP1 PUSH2 0x4F5 SWAP2 SWAP1 PUSH2 0x2AF5 JUMP JUMPDEST PUSH2 0x1392 JUMP JUMPDEST PUSH1 0x40 MLOAD PUSH2 0x508 SWAP3 SWAP2 SWAP1 PUSH2 0x2B6B JUMP JUMPDEST PUSH1 0x40 MLOAD DUP1 SWAP2 SUB SWAP1 RETURN JUMPDEST CALLVALUE DUP1 ISZERO PUSH2 0x51D JUMPI PUSH1 0x0 DUP1 REVERT JUMPDEST POP PUSH2 0x526 PUSH2 0x1664 JUMP JUMPDEST PUSH1 0x40 MLOAD PUSH2 0x533 SWAP2 SWAP1 PUSH2 0x2762 JUMP JUMPDEST PUSH1 0x40 MLOAD DUP1 SWAP2 SUB SWAP1 RETURN JUMPDEST CALLVALUE DUP1 ISZERO PUSH2 0x548 JUMPI PUSH1 0x0 DUP1 REVERT JUMPDEST POP PUSH2 0x551 PUSH2 0x168A JUMP JUMPDEST PUSH1 0x40 MLOAD PUSH2 0x55E SWAP2 SWAP1 PUSH2 0x25BB JUMP JUMPDEST PUSH1 0x40 MLOAD DUP1 SWAP2 SUB SWAP1 RETURN JUMPDEST CALLVALUE DUP1 ISZERO PUSH2 0x573 JUMPI PUSH1 0x0 DUP1 REVERT JUMPDEST POP PUSH2 0x57C PUSH2 0x1690 JUMP JUMPDEST PUSH1 0x40 MLOAD PUSH2 0x589 SWAP2 SWAP1 PUSH2 0x25BB JUMP JUMPDEST PUSH1 0x40 MLOAD DUP1 SWAP2 SUB SWAP1 RETURN JUMPDEST CALLVALUE DUP1 ISZERO PUSH2 0x59E JUMPI PUSH1 0x0 DUP1 REVERT JUMPDEST POP PUSH2 0x5A7 PUSH2 0x1696 JUMP JUMPDEST PUSH1 0x40 MLOAD PUSH2 0x5B4 SWAP2 SWAP1 PUSH2 0x2762 JUMP JUMPDEST PUSH1 0x40 MLOAD DUP1 SWAP2 SUB SWAP1 RETURN JUMPDEST CALLVALUE DUP1 ISZERO PUSH2 0x5C9 JUMPI PUSH1 0x0 DUP1 REVERT JUMPDEST POP PUSH2 0x5E4 PUSH1 0x4 DUP1 CALLDATASIZE SUB DUP2 ADD SWAP1 PUSH2 0x5DF SWAP2 SWAP1 PUSH2 0x24BD JUMP JUMPDEST PUSH2 0x16BC JUMP JUMPDEST PUSH1 0x40 MLOAD PUSH2 0x5F1 SWAP2 SWAP1 PUSH2 0x25BB JUMP JUMPDEST PUSH1 0x40 MLOAD DUP1 SWAP2 SUB SWAP1 RETURN JUMPDEST CALLVALUE DUP1 ISZERO PUSH2 0x606 JUMPI PUSH1 0x0 DUP1 REVERT JUMPDEST POP PUSH2 0x60F PUSH2 0x1754 JUMP JUMPDEST PUSH1 0x40 MLOAD PUSH2 0x61C SWAP2 SWAP1 PUSH2 0x25BB JUMP JUMPDEST PUSH1 0x40 MLOAD DUP1 SWAP2 SUB SWAP1 RETURN JUMPDEST CALLVALUE DUP1 ISZERO PUSH2 0x631 JUMPI PUSH1 0x0 DUP1 REVERT JUMPDEST POP PUSH2 0x64C PUSH1 0x4 DUP1 CALLDATASIZE SUB DUP2 ADD SWAP1 PUSH2 0x647 SWAP2 SWAP1 PUSH2 0x24BD JUMP JUMPDEST PUSH2 0x1759 JUMP JUMPDEST PUSH1 0x40 MLOAD PUSH2 0x659 SWAP2 SWAP1 PUSH2 0x2B94 JUMP JUMPDEST PUSH1 0x40 MLOAD DUP1 SWAP2 SUB SWAP1 RETURN JUMPDEST CALLVALUE DUP1 ISZERO PUSH2 0x66E JUMPI PUSH1 0x0 DUP1 REVERT JUMPDEST POP PUSH2 0x677 PUSH2 0x18AD JUMP JUMPDEST PUSH1 0x40 MLOAD PUSH2 0x684 SWAP2 SWAP1 PUSH2 0x2762 JUMP JUMPDEST PUSH1 0x40 MLOAD DUP1 SWAP2 SUB SWAP1 RETURN JUMPDEST CALLVALUE DUP1 ISZERO PUSH2 0x699 JUMPI PUSH1 0x0 DUP1 REVERT JUMPDEST POP PUSH2 0x6A2 PUSH2 0x18D3 JUMP JUMPDEST PUSH1 0x40 MLOAD PUSH2 0x6AF SWAP2 SWAP1 PUSH2 0x2762 JUMP JUMPDEST PUSH1 0x40 MLOAD DUP1 SWAP2 SUB SWAP1 RETURN JUMPDEST CALLVALUE DUP1 ISZERO PUSH2 0x6C4 JUMPI PUSH1 0x0 DUP1 REVERT JUMPDEST POP PUSH2 0x6CD PUSH2 0x18F9 JUMP JUMPDEST PUSH1 0x40 MLOAD PUSH2 0x6DA SWAP2 SWAP1 PUSH2 0x2762 JUMP JUMPDEST PUSH1 0x40 MLOAD DUP1 SWAP2 SUB SWAP1 RETURN JUMPDEST CALLVALUE DUP1 ISZERO PUSH2 0x6EF JUMPI PUSH1 0x0 DUP1 REVERT JUMPDEST POP PUSH2 0x6F8 PUSH2 0x191F JUMP JUMPDEST PUSH1 0x40 MLOAD PUSH2 0x705 SWAP2 SWAP1 PUSH2 0x2762 JUMP JUMPDEST PUSH1 0x40 MLOAD DUP1 SWAP2 SUB SWAP1 RETURN JUMPDEST CALLVALUE DUP1 ISZERO PUSH2 0x71A JUMPI PUSH1 0x0 DUP1 REVERT JUMPDEST POP PUSH2 0x723 PUSH2 0x1945 JUMP JUMPDEST PUSH1 0x40 MLOAD PUSH2 0x730 SWAP2 SWAP1 PUSH2 0x25BB JUMP JUMPDEST PUSH1 0x40 MLOAD DUP1 SWAP2 SUB SWAP1 RETURN JUMPDEST CALLVALUE DUP1 ISZERO PUSH2 0x745 JUMPI PUSH1 0x0 DUP1 REVERT JUMPDEST POP PUSH2 0x74E PUSH2 0x194B JUMP JUMPDEST PUSH1 0x40 MLOAD PUSH2 0x75B SWAP2 SWAP1 PUSH2 0x25BB JUMP JUMPDEST PUSH1 0x40 MLOAD DUP1 SWAP2 SUB SWAP1 RETURN JUMPDEST PUSH2 0x76C PUSH2 0x1C56 JUMP JUMPDEST STOP JUMPDEST CALLVALUE DUP1 ISZERO PUSH2 0x77A JUMPI PUSH1 0x0 DUP1 REVERT JUMPDEST POP PUSH2 0x783 PUSH2 0x1C58 JUMP JUMPDEST PUSH1 0x40 MLOAD PUSH2 0x790 SWAP2 SWAP1 PUSH2 0x25BB JUMP JUMPDEST PUSH1 0x40 MLOAD DUP1 SWAP2 SUB SWAP1 RETURN JUMPDEST CALLVALUE DUP1 ISZERO PUSH2 0x7A5 JUMPI PUSH1 0x0 DUP1 REVERT JUMPDEST POP PUSH2 0x7AE PUSH2 0x1D6B JUMP JUMPDEST PUSH1 0x40 MLOAD PUSH2 0x7BB SWAP2 SWAP1 PUSH2 0x2762 JUMP JUMPDEST PUSH1 0x40 MLOAD DUP1 SWAP2 SUB SWAP1 RETURN JUMPDEST CALLVALUE DUP1 ISZERO PUSH2 0x7D0 JUMPI PUSH1 0x0 DUP1 REVERT JUMPDEST POP PUSH2 0x7D9 PUSH2 0x1D91 JUMP JUMPDEST PUSH1 0x40 MLOAD PUSH2 0x7E6 SWAP2 SWAP1 PUSH2 0x2762 JUMP JUMPDEST PUSH1 0x40 MLOAD DUP1 SWAP2 SUB SWAP1 RETURN JUMPDEST CALLVALUE DUP1 ISZERO PUSH2 0x7FB JUMPI PUSH1 0x0 DUP1 REVERT JUMPDEST POP PUSH2 0x816 PUSH1 0x4 DUP1 CALLDATASIZE SUB DUP2 ADD SWAP1 PUSH2 0x811 SWAP2 SWAP1 PUSH2 0x28AA JUMP JUMPDEST PUSH2 0x1DB5 JUMP JUMPDEST PUSH1 0x40 MLOAD PUSH2 0x825 SWAP4 SWAP3 SWAP2 SWAP1 PUSH2 0x2BAF JUMP JUMPDEST PUSH1 0x40 MLOAD DUP1 SWAP2 SUB SWAP1 RETURN JUMPDEST PUSH2 0x836 PUSH2 0x23FC JUMP JUMPDEST PUSH2 0x83E PUSH2 0x23FC JUMP JUMPDEST PUSH1 0x9 PUSH1 0x0 SWAP1 SLOAD SWAP1 PUSH2 0x100 EXP SWAP1 DIV PUSH20 0xFFFFFFFFFFFFFFFFFFFFFFFFFFFFFFFFFFFFFFFF AND PUSH20 0xFFFFFFFFFFFFFFFFFFFFFFFFFFFFFFFFFFFFFFFF AND PUSH4 0x514EA4BF PUSH2 0x888 ADDRESS DUP9 DUP9 DUP9 PUSH2 0x922 JUMP JUMPDEST PUSH1 0x40 MLOAD DUP3 PUSH4 0xFFFFFFFF AND PUSH1 0xE0 SHL DUP2 MSTORE PUSH1 0x4 ADD PUSH2 0x8A4 SWAP2 SWAP1 PUSH2 0x2656 JUMP JUMPDEST PUSH1 0xA0 PUSH1 0x40 MLOAD DUP1 DUP4 SUB DUP2 DUP7 GAS STATICCALL ISZERO DUP1 ISZERO PUSH2 0x8C1 JUMPI RETURNDATASIZE PUSH1 0x0 DUP1 RETURNDATACOPY RETURNDATASIZE PUSH1 0x0 REVERT JUMPDEST POP POP POP POP PUSH1 0x40 MLOAD RETURNDATASIZE PUSH1 0x1F NOT PUSH1 0x1F DUP3 ADD AND DUP3 ADD DUP1 PUSH1 0x40 MSTORE POP DUP2 ADD SWAP1 PUSH2 0x8E5 SWAP2 SWAP1 PUSH2 0x2BFB JUMP JUMPDEST DUP6 PUSH1 0x0 ADD DUP7 PUSH1 0x20 ADD DUP8 PUSH1 0x40 ADD DUP9 PUSH1 0x60 ADD DUP10 PUSH1 0x80 ADD DUP6 DUP2 MSTORE POP DUP6 DUP2 MSTORE POP DUP6 DUP2 MSTORE POP DUP6 DUP2 MSTORE POP DUP6 DUP2 MSTORE POP POP POP POP POP POP DUP1 SWAP2 POP POP SWAP4 SWAP3 POP POP POP JUMP JUMPDEST PUSH1 0x64 DUP2 JUMP JUMPDEST PUSH1 0x0 DUP5 DUP5 DUP5 DUP5 PUSH1 0x40 MLOAD PUSH1 0x20 ADD PUSH2 0x93B SWAP5 SWAP4 SWAP3 SWAP2 SWAP1 PUSH2 0x2C76 JUMP JUMPDEST PUSH1 0x40 MLOAD PUSH1 0x20 DUP2 DUP4 SUB SUB DUP2 MSTORE SWAP1 PUSH1 0x40 MSTORE DUP1 MLOAD SWAP1 PUSH1 0x20 ADD KECCAK256 SWAP1 POP SWAP5 SWAP4 POP POP POP POP JUMP JUMPDEST PUSH1 0xB PUSH1 0x0 SWAP1 SLOAD SWAP1 PUSH2 0x100 EXP SWAP1 DIV PUSH20 0xFFFFFFFFFFFFFFFFFFFFFFFFFFFFFFFFFFFFFFFF AND PUSH20 0xFFFFFFFFFFFFFFFFFFFFFFFFFFFFFFFFFFFFFFFF AND CALLER PUSH20 0xFFFFFFFFFFFFFFFFFFFFFFFFFFFFFFFFFFFFFFFF AND EQ PUSH2 0x9EB JUMPI PUSH1 0x40 MLOAD PUSH32 0x8C379A000000000000000000000000000000000000000000000000000000000 DUP2 MSTORE PUSH1 0x4 ADD PUSH2 0x9E2 SWAP1 PUSH2 0x2D3E JUMP JUMPDEST PUSH1 0x40 MLOAD DUP1 SWAP2 SUB SWAP1 REVERT JUMPDEST PUSH1 0x0 DUP1 PUSH2 0x9F9 DUP9 DUP11 DUP13 PUSH2 0x1E3C JUMP JUMPDEST PUSH20 0xEEEEEEEEEEEEEEEEEEEEEEEEEEEEEEEEEEEEEEEE PUSH20 0xFFFFFFFFFFFFFFFFFFFFFFFFFFFFFFFFFFFFFFFF AND DUP7 PUSH20 0xFFFFFFFFFFFFFFFFFFFFFFFFFFFFFFFFFFFFFFFF AND EQ PUSH2 0xBDF JUMPI DUP6 PUSH20 0xFFFFFFFFFFFFFFFFFFFFFFFFFFFFFFFFFFFFFFFF AND PUSH4 0x23B872DD CALLER ADDRESS DUP9 PUSH1 0x40 MLOAD DUP5 PUSH4 0xFFFFFFFF AND PUSH1 0xE0 SHL DUP2 MSTORE PUSH1 0x4 ADD PUSH2 0xA7D SWAP4 SWAP3 SWAP2 SWAP1 PUSH2 0x2D5E JUMP JUMPDEST PUSH1 0x20 PUSH1 0x40 MLOAD DUP1 DUP4 SUB DUP2 PUSH1 0x0 DUP8 GAS CALL ISZERO DUP1 ISZERO PUSH2 0xA9C JUMPI RETURNDATASIZE PUSH1 0x0 DUP1 RETURNDATACOPY RETURNDATASIZE PUSH1 0x0 REVERT JUMPDEST POP POP POP POP PUSH1 0x40 MLOAD RETURNDATASIZE PUSH1 0x1F NOT PUSH1 0x1F DUP3 ADD AND DUP3 ADD DUP1 PUSH1 0x40 MSTORE POP DUP2 ADD SWAP1 PUSH2 0xAC0 SWAP2 SWAP1 PUSH2 0x2DAA JUMP JUMPDEST PUSH2 0xAFF JUMPI PUSH1 0x40 MLOAD PUSH32 0x8C379A000000000000000000000000000000000000000000000000000000000 DUP2 MSTORE PUSH1 0x4 ADD PUSH2 0xAF6 SWAP1 PUSH2 0x2E23 JUMP JUMPDEST PUSH1 0x40 MLOAD DUP1 SWAP2 SUB SWAP1 REVERT JUMPDEST DUP6 PUSH20 0xFFFFFFFFFFFFFFFFFFFFFFFFFFFFFFFFFFFFFFFF AND PUSH4 0x95EA7B3 PUSH1 0x8 PUSH1 0x0 SWAP1 SLOAD SWAP1 PUSH2 0x100 EXP SWAP1 DIV PUSH20 0xFFFFFFFFFFFFFFFFFFFFFFFFFFFFFFFFFFFFFFFF AND DUP8 PUSH1 0x40 MLOAD DUP4 PUSH4 0xFFFFFFFF AND PUSH1 0xE0 SHL DUP2 MSTORE PUSH1 0x4 ADD PUSH2 0xB5C SWAP3 SWAP2 SWAP1 PUSH2 0x2E43 JUMP JUMPDEST PUSH1 0x20 PUSH1 0x40 MLOAD DUP1 DUP4 SUB DUP2 PUSH1 0x0 DUP8 GAS CALL ISZERO DUP1 ISZERO PUSH2 0xB7B JUMPI RETURNDATASIZE PUSH1 0x0 DUP1 RETURNDATACOPY RETURNDATASIZE PUSH1 0x0 REVERT JUMPDEST POP POP POP POP PUSH1 0x40 MLOAD RETURNDATASIZE PUSH1 0x1F NOT PUSH1 0x1F DUP3 ADD AND DUP3 ADD DUP1 PUSH1 0x40 MSTORE POP DUP2 ADD SWAP1 PUSH2 0xB9F SWAP2 SWAP1 PUSH2 0x2DAA JUMP JUMPDEST PUSH2 0xBDE JUMPI PUSH1 0x40 MLOAD PUSH32 0x8C379A000000000000000000000000000000000000000000000000000000000 DUP2 MSTORE PUSH1 0x4 ADD PUSH2 0xBD5 SWAP1 PUSH2 0x2EDE JUMP JUMPDEST PUSH1 0x40 MLOAD DUP1 SWAP2 SUB SWAP1 REVERT JUMPDEST JUMPDEST PUSH1 0x0 DUP8 DUP8 DUP8 DUP8 DUP8 PUSH1 0x40 MLOAD DUP1 PUSH1 0x20 ADD PUSH1 0x40 MSTORE DUP1 PUSH1 0x0 DUP2 MSTORE POP PUSH1 0x40 MLOAD PUSH1 0x20 ADD PUSH2 0xC0B SWAP7 SWAP6 SWAP5 SWAP4 SWAP3 SWAP2 SWAP1 PUSH2 0x2F7D JUMP JUMPDEST PUSH1 0x40 MLOAD PUSH1 0x20 DUP2 DUP4 SUB SUB DUP2 MSTORE SWAP1 PUSH1 0x40 MSTORE SWAP1 POP PUSH1 0x8 PUSH1 0x0 SWAP1 SLOAD SWAP1 PUSH2 0x100 EXP SWAP1 DIV PUSH20 0xFFFFFFFFFFFFFFFFFFFFFFFFFFFFFFFFFFFFFFFF AND PUSH20 0xFFFFFFFFFFFFFFFFFFFFFFFFFFFFFFFFFFFFFFFF AND PUSH4 0x2F25F183 CALLVALUE DUP6 DUP15 DUP15 DUP15 DUP9 DUP9 PUSH1 0x40 MLOAD DUP9 PUSH4 0xFFFFFFFF AND PUSH1 0xE0 SHL DUP2 MSTORE PUSH1 0x4 ADD PUSH2 0xC82 SWAP7 SWAP6 SWAP5 SWAP4 SWAP3 SWAP2 SWAP1 PUSH2 0x3075 JUMP JUMPDEST PUSH1 0x0 PUSH1 0x40 MLOAD DUP1 DUP4 SUB DUP2 DUP6 DUP9 DUP1 EXTCODESIZE ISZERO DUP1 ISZERO PUSH2 0xC9B JUMPI PUSH1 0x0 DUP1 REVERT JUMPDEST POP GAS CALL ISZERO DUP1 ISZERO PUSH2 0xCAF JUMPI RETURNDATASIZE PUSH1 0x0 DUP1 RETURNDATACOPY RETURNDATASIZE PUSH1 0x0 REVERT JUMPDEST POP POP POP POP POP POP POP POP POP POP POP POP POP POP POP POP JUMP JUMPDEST PUSH2 0x2710 DUP2 JUMP JUMPDEST PUSH1 0x1 PUSH1 0x0 SWAP1 SLOAD SWAP1 PUSH2 0x100 EXP SWAP1 DIV PUSH20 0xFFFFFFFFFFFFFFFFFFFFFFFFFFFFFFFFFFFFFFFF AND DUP2 JUMP JUMPDEST PUSH1 0x0 DUP1 PUSH2 0xCFB DUP6 DUP6 DUP6 PUSH2 0x82E JUMP JUMPDEST SWAP1 POP PUSH1 0x0 PUSH2 0xD0E DUP3 DUP8 DUP5 PUSH1 0x0 ADD MLOAD PUSH2 0x119F JUMP JUMPDEST SWAP1 POP PUSH1 0x0 DUP1 PUSH2 0xD27 DUP9 DUP8 DUP7 PUSH1 0x0 ADD MLOAD DUP8 PUSH1 0x60 ADD MLOAD PUSH2 0x1392 JUMP JUMPDEST SWAP2 POP SWAP2 POP DUP1 ISZERO DUP1 ISZERO PUSH2 0xD4E JUMPI POP DUP4 PUSH1 0x20 ADD MLOAD PUSH2 0xD4C DUP5 DUP5 PUSH2 0x2039 SWAP1 SWAP2 SWAP1 PUSH4 0xFFFFFFFF AND JUMP JUMPDEST GT JUMPDEST ISZERO PUSH2 0xD60 JUMPI PUSH1 0x0 SWAP5 POP POP POP POP POP PUSH2 0xDC4 JUMP JUMPDEST DUP1 PUSH2 0xD93 JUMPI PUSH2 0xD8E DUP4 PUSH2 0xD80 DUP5 DUP8 PUSH1 0x20 ADD MLOAD PUSH2 0x2097 SWAP1 SWAP2 SWAP1 PUSH4 0xFFFFFFFF AND JUMP JUMPDEST PUSH2 0x2097 SWAP1 SWAP2 SWAP1 PUSH4 0xFFFFFFFF AND JUMP JUMPDEST PUSH2 0xDBD JUMP JUMPDEST PUSH2 0xDBC DUP4 PUSH2 0xDAE DUP5 DUP8 PUSH1 0x20 ADD MLOAD PUSH2 0x2039 SWAP1 SWAP2 SWAP1 PUSH4 0xFFFFFFFF AND JUMP JUMPDEST PUSH2 0x2097 SWAP1 SWAP2 SWAP1 PUSH4 0xFFFFFFFF AND JUMP JUMPDEST JUMPDEST SWAP5 POP POP POP POP POP JUMPDEST SWAP4 SWAP3 POP POP POP JUMP JUMPDEST PUSH1 0xB PUSH1 0x0 SWAP1 SLOAD SWAP1 PUSH2 0x100 EXP SWAP1 DIV PUSH20 0xFFFFFFFFFFFFFFFFFFFFFFFFFFFFFFFFFFFFFFFF AND PUSH20 0xFFFFFFFFFFFFFFFFFFFFFFFFFFFFFFFFFFFFFFFF AND CALLER PUSH20 0xFFFFFFFFFFFFFFFFFFFFFFFFFFFFFFFFFFFFFFFF AND EQ PUSH2 0xE5B JUMPI PUSH1 0x40 MLOAD PUSH32 0x8C379A000000000000000000000000000000000000000000000000000000000 DUP2 MSTORE PUSH1 0x4 ADD PUSH2 0xE52 SWAP1 PUSH2 0x2D3E JUMP JUMPDEST PUSH1 0x40 MLOAD DUP1 SWAP2 SUB SWAP1 REVERT JUMPDEST PUSH2 0xE66 DUP7 DUP7 DUP10 PUSH2 0x1759 JUMP JUMPDEST PUSH2 0xEA5 JUMPI PUSH1 0x40 MLOAD PUSH32 0x8C379A000000000000000000000000000000000000000000000000000000000 DUP2 MSTORE PUSH1 0x4 ADD PUSH2 0xE9C SWAP1 PUSH2 0x314F JUMP JUMPDEST PUSH1 0x40 MLOAD DUP1 SWAP2 SUB SWAP1 REVERT JUMPDEST PUSH1 0x0 DUP1 PUSH1 0x0 DUP7 DUP7 DUP7 DUP7 PUSH1 0x40 MLOAD DUP1 PUSH1 0x20 ADD PUSH1 0x40 MSTORE DUP1 PUSH1 0x0 DUP2 MSTORE POP PUSH1 0x40 MLOAD PUSH1 0x20 ADD PUSH2 0xED2 SWAP6 SWAP5 SWAP4 SWAP3 SWAP2 SWAP1 PUSH2 0x316F JUMP JUMPDEST PUSH1 0x40 MLOAD PUSH1 0x20 DUP2 DUP4 SUB SUB DUP2 MSTORE SWAP1 PUSH1 0x40 MSTORE SWAP1 POP PUSH1 0x8 PUSH1 0x0 SWAP1 SLOAD SWAP1 PUSH2 0x100 EXP SWAP1 DIV PUSH20 0xFFFFFFFFFFFFFFFFFFFFFFFFFFFFFFFFFFFFFFFF AND PUSH20 0xFFFFFFFFFFFFFFFFFFFFFFFFFFFFFFFFFFFFFFFF AND PUSH4 0x2F25F183 DUP5 DUP13 DUP13 DUP13 DUP8 DUP8 PUSH1 0x40 MLOAD DUP8 PUSH4 0xFFFFFFFF AND PUSH1 0xE0 SHL DUP2 MSTORE PUSH1 0x4 ADD PUSH2 0xF48 SWAP7 SWAP6 SWAP5 SWAP4 SWAP3 SWAP2 SWAP1 PUSH2 0x3075 JUMP JUMPDEST PUSH1 0x0 PUSH1 0x40 MLOAD DUP1 DUP4 SUB DUP2 PUSH1 0x0 DUP8 DUP1 EXTCODESIZE ISZERO DUP1 ISZERO PUSH2 0xF62 JUMPI PUSH1 0x0 DUP1 REVERT JUMPDEST POP GAS CALL ISZERO DUP1 ISZERO PUSH2 0xF76 JUMPI RETURNDATASIZE PUSH1 0x0 DUP1 RETURNDATACOPY RETURNDATASIZE PUSH1 0x0 REVERT JUMPDEST POP POP POP POP POP POP POP POP POP POP POP POP POP POP JUMP JUMPDEST PUSH1 0xA PUSH1 0x0 SWAP1 SLOAD SWAP1 PUSH2 0x100 EXP SWAP1 DIV PUSH20 0xFFFFFFFFFFFFFFFFFFFFFFFFFFFFFFFFFFFFFFFF AND DUP2 JUMP JUMPDEST PUSH1 0x0 DUP4 DUP4 DUP4 PUSH1 0x40 MLOAD PUSH1 0x20 ADD PUSH2 0xFC3 SWAP4 SWAP3 SWAP2 SWAP1 PUSH2 0x3259 JUMP JUMPDEST PUSH1 0x40 MLOAD PUSH1 0x20 DUP2 DUP4 SUB SUB DUP2 MSTORE SWAP1 PUSH1 0x40 MSTORE DUP1 MLOAD SWAP1 PUSH1 0x20 ADD KECCAK256 SWAP1 POP SWAP4 SWAP3 POP POP POP JUMP JUMPDEST PUSH1 0x0 DUP1 PUSH1 0x3 PUSH1 0x0 SWAP1 SLOAD SWAP1 PUSH2 0x100 EXP SWAP1 DIV PUSH20 0xFFFFFFFFFFFFFFFFFFFFFFFFFFFFFFFFFFFFFFFF AND PUSH20 0xFFFFFFFFFFFFFFFFFFFFFFFFFFFFFFFFFFFFFFFF AND PUSH4 0xD04F246B PUSH1 0xB PUSH1 0x0 SWAP1 SLOAD SWAP1 PUSH2 0x100 EXP SWAP1 DIV PUSH20 0xFFFFFFFFFFFFFFFFFFFFFFFFFFFFFFFFFFFFFFFF AND PUSH1 0x40 MLOAD DUP3 PUSH4 0xFFFFFFFF AND PUSH1 0xE0 SHL DUP2 MSTORE PUSH1 0x4 ADD PUSH2 0x1062 SWAP2 SWAP1 PUSH2 0x2762 JUMP JUMPDEST PUSH1 0x20 PUSH1 0x40 MLOAD DUP1 DUP4 SUB DUP2 DUP7 GAS STATICCALL ISZERO DUP1 ISZERO PUSH2 0x107F JUMPI RETURNDATASIZE PUSH1 0x0 DUP1 RETURNDATACOPY RETURNDATASIZE PUSH1 0x0 REVERT JUMPDEST POP POP POP POP PUSH1 0x40 MLOAD RETURNDATASIZE PUSH1 0x1F NOT PUSH1 0x1F DUP3 ADD AND DUP3 ADD DUP1 PUSH1 0x40 MSTORE POP DUP2 ADD SWAP1 PUSH2 0x10A3 SWAP2 SWAP1 PUSH2 0x3296 JUMP JUMPDEST SWAP1 POP PUSH1 0x0 DUP2 SUB PUSH2 0x10B7 JUMPI PUSH1 0x0 SWAP2 POP POP PUSH2 0x10EF JUMP JUMPDEST PUSH1 0x0 PUSH2 0x10C1 PUSH2 0x194B JUMP JUMPDEST SWAP1 POP PUSH2 0x10EA DUP3 PUSH2 0x10DC PUSH2 0x2710 DUP5 PUSH2 0x20E1 SWAP1 SWAP2 SWAP1 PUSH4 0xFFFFFFFF AND JUMP JUMPDEST PUSH2 0x215B SWAP1 SWAP2 SWAP1 PUSH4 0xFFFFFFFF AND JUMP JUMPDEST SWAP3 POP POP POP JUMPDEST SWAP1 JUMP JUMPDEST PUSH1 0x5 PUSH1 0x0 SWAP1 SLOAD SWAP1 PUSH2 0x100 EXP SWAP1 DIV PUSH20 0xFFFFFFFFFFFFFFFFFFFFFFFFFFFFFFFFFFFFFFFF AND DUP2 JUMP JUMPDEST PUSH1 0x10 DUP2 DUP2 SLOAD DUP2 LT PUSH2 0x1128 JUMPI PUSH1 0x0 DUP1 REVERT JUMPDEST SWAP1 PUSH1 0x0 MSTORE PUSH1 0x20 PUSH1 0x0 KECCAK256 SWAP1 PUSH1 0x2 MUL ADD PUSH1 0x0 SWAP2 POP SWAP1 POP DUP1 PUSH1 0x0 ADD PUSH1 0x0 SWAP1 SLOAD SWAP1 PUSH2 0x100 EXP SWAP1 DIV PUSH20 0xFFFFFFFFFFFFFFFFFFFFFFFFFFFFFFFFFFFFFFFF AND SWAP1 DUP1 PUSH1 0x1 ADD PUSH1 0x0 SWAP1 SLOAD SWAP1 PUSH2 0x100 EXP SWAP1 DIV PUSH20 0xFFFFFFFFFFFFFFFFFFFFFFFFFFFFFFFFFFFFFFFF AND SWAP1 DUP1 PUSH1 0x1 ADD PUSH1 0x14 SWAP1 SLOAD SWAP1 PUSH2 0x100 EXP SWAP1 DIV PUSH1 0xFF AND SWAP1 POP DUP4 JUMP JUMPDEST PUSH1 0x0 DUP1 PUSH1 0x9 PUSH1 0x0 SWAP1 SLOAD SWAP1 PUSH2 0x100 EXP SWAP1 DIV PUSH20 0xFFFFFFFFFFFFFFFFFFFFFFFFFFFFFFFFFFFFFFFF AND PUSH20 0xFFFFFFFFFFFFFFFFFFFFFFFFFFFFFFFFFFFFFFFF AND PUSH4 0xDDCA3F43 PUSH1 0x40 MLOAD DUP2 PUSH4 0xFFFFFFFF AND PUSH1 0xE0 SHL DUP2 MSTORE PUSH1 0x4 ADD PUSH1 0xE0 PUSH1 0x40 MLOAD DUP1 DUP4 SUB DUP2 DUP7 GAS STATICCALL ISZERO DUP1 ISZERO PUSH2 0x120F JUMPI RETURNDATASIZE PUSH1 0x0 DUP1 RETURNDATACOPY RETURNDATASIZE PUSH1 0x0 REVERT JUMPDEST POP POP POP POP PUSH1 0x40 MLOAD RETURNDATASIZE PUSH1 0x1F NOT PUSH1 0x1F DUP3 ADD AND DUP3 ADD DUP1 PUSH1 0x40 MSTORE POP DUP2 ADD SWAP1 PUSH2 0x1233 SWAP2 SWAP1 PUSH2 0x3377 JUMP JUMPDEST SWAP1 POP PUSH1 0x0 PUSH1 0x9 PUSH1 0x0 SWAP1 SLOAD SWAP1 PUSH2 0x100 EXP SWAP1 DIV PUSH20 0xFFFFFFFFFFFFFFFFFFFFFFFFFFFFFFFFFFFFFFFF AND PUSH20 0xFFFFFFFFFFFFFFFFFFFFFFFFFFFFFFFFFFFFFFFF AND PUSH4 0xA9126169 DUP7 PUSH1 0x40 MLOAD DUP3 PUSH4 0xFFFFFFFF AND PUSH1 0xE0 SHL DUP2 MSTORE PUSH1 0x4 ADD PUSH2 0x1292 SWAP2 SWAP1 PUSH2 0x2762 JUMP JUMPDEST PUSH1 0xA0 PUSH1 0x40 MLOAD DUP1 DUP4 SUB DUP2 DUP7 GAS STATICCALL ISZERO DUP1 ISZERO PUSH2 0x12AF JUMPI RETURNDATASIZE PUSH1 0x0 DUP1 RETURNDATACOPY RETURNDATASIZE PUSH1 0x0 REVERT JUMPDEST POP POP POP POP PUSH1 0x40 MLOAD RETURNDATASIZE PUSH1 0x1F NOT PUSH1 0x1F DUP3 ADD AND DUP3 ADD DUP1 PUSH1 0x40 MSTORE POP DUP2 ADD SWAP1 PUSH2 0x12D3 SWAP2 SWAP1 PUSH2 0x3430 JUMP JUMPDEST PUSH1 0x60 ADD MLOAD SWAP1 POP PUSH1 0x0 PUSH2 0x131F PUSH5 0x2540BE400 PUSH2 0x1311 DUP10 PUSH1 0x0 ADD MLOAD PUSH2 0x1303 DUP12 PUSH1 0x80 ADD MLOAD DUP8 PUSH2 0x2097 SWAP1 SWAP2 SWAP1 PUSH4 0xFFFFFFFF AND JUMP JUMPDEST PUSH2 0x20E1 SWAP1 SWAP2 SWAP1 PUSH4 0xFFFFFFFF AND JUMP JUMPDEST PUSH2 0x215B SWAP1 SWAP2 SWAP1 PUSH4 0xFFFFFFFF AND JUMP JUMPDEST SWAP1 POP PUSH1 0x0 PUSH2 0x1351 PUSH5 0x2540BE400 PUSH2 0x1343 DUP7 PUSH1 0x0 ADD MLOAD DUP10 PUSH2 0x20E1 SWAP1 SWAP2 SWAP1 PUSH4 0xFFFFFFFF AND JUMP JUMPDEST PUSH2 0x215B SWAP1 SWAP2 SWAP1 PUSH4 0xFFFFFFFF AND JUMP JUMPDEST SWAP1 POP DUP1 DUP3 PUSH2 0x135F SWAP2 SWAP1 PUSH2 0x348C JUMP JUMPDEST SWAP5 POP POP POP POP POP SWAP4 SWAP3 POP POP POP JUMP JUMPDEST PUSH1 0x2 PUSH1 0x0 SWAP1 SLOAD SWAP1 PUSH2 0x100 EXP SWAP1 DIV PUSH20 0xFFFFFFFFFFFFFFFFFFFFFFFFFFFFFFFFFFFFFFFF AND DUP2 JUMP JUMPDEST PUSH1 0x0 DUP1 PUSH1 0x0 DUP4 GT PUSH2 0x13D8 JUMPI PUSH1 0x40 MLOAD PUSH32 0x8C379A000000000000000000000000000000000000000000000000000000000 DUP2 MSTORE PUSH1 0x4 ADD PUSH2 0x13CF SWAP1 PUSH2 0x3532 JUMP JUMPDEST PUSH1 0x40 MLOAD DUP1 SWAP2 SUB SWAP1 REVERT JUMPDEST PUSH1 0x0 DUP1 PUSH1 0x1 DUP2 GT ISZERO PUSH2 0x13ED JUMPI PUSH2 0x13EC PUSH2 0x28D7 JUMP JUMPDEST JUMPDEST DUP7 PUSH1 0x1 DUP2 GT ISZERO PUSH2 0x1400 JUMPI PUSH2 0x13FF PUSH2 0x28D7 JUMP JUMPDEST JUMPDEST EQ PUSH2 0x14E4 JUMPI PUSH2 0x14DF PUSH2 0x2710 PUSH2 0x14D1 PUSH2 0x1424 PUSH1 0x64 PUSH2 0x2710 PUSH2 0x2039 SWAP1 SWAP2 SWAP1 PUSH4 0xFFFFFFFF AND JUMP JUMPDEST PUSH1 0xA PUSH1 0x0 SWAP1 SLOAD SWAP1 PUSH2 0x100 EXP SWAP1 DIV PUSH20 0xFFFFFFFFFFFFFFFFFFFFFFFFFFFFFFFFFFFFFFFF AND PUSH20 0xFFFFFFFFFFFFFFFFFFFFFFFFFFFFFFFFFFFFFFFF AND PUSH4 0x76D69760 DUP13 PUSH1 0x1 PUSH1 0x40 MLOAD DUP4 PUSH4 0xFFFFFFFF AND PUSH1 0xE0 SHL DUP2 MSTORE PUSH1 0x4 ADD PUSH2 0x1482 SWAP3 SWAP2 SWAP1 PUSH2 0x3552 JUMP JUMPDEST PUSH1 0x20 PUSH1 0x40 MLOAD DUP1 DUP4 SUB DUP2 DUP7 GAS STATICCALL ISZERO DUP1 ISZERO PUSH2 0x149F JUMPI RETURNDATASIZE PUSH1 0x0 DUP1 RETURNDATACOPY RETURNDATASIZE PUSH1 0x0 REVERT JUMPDEST POP POP POP POP PUSH1 0x40 MLOAD RETURNDATASIZE PUSH1 0x1F NOT PUSH1 0x1F DUP3 ADD AND DUP3 ADD DUP1 PUSH1 0x40 MSTORE POP DUP2 ADD SWAP1 PUSH2 0x14C3 SWAP2 SWAP1 PUSH2 0x3296 JUMP JUMPDEST PUSH2 0x20E1 SWAP1 SWAP2 SWAP1 PUSH4 0xFFFFFFFF AND JUMP JUMPDEST PUSH2 0x215B SWAP1 SWAP2 SWAP1 PUSH4 0xFFFFFFFF AND JUMP JUMPDEST PUSH2 0x15BF JUMP JUMPDEST PUSH2 0x15BE PUSH2 0x2710 PUSH2 0x15B0 PUSH2 0x1503 PUSH1 0x64 PUSH2 0x2710 PUSH2 0x2097 SWAP1 SWAP2 SWAP1 PUSH4 0xFFFFFFFF AND JUMP JUMPDEST PUSH1 0xA PUSH1 0x0 SWAP1 SLOAD SWAP1 PUSH2 0x100 EXP SWAP1 DIV PUSH20 0xFFFFFFFFFFFFFFFFFFFFFFFFFFFFFFFFFFFFFFFF AND PUSH20 0xFFFFFFFFFFFFFFFFFFFFFFFFFFFFFFFFFFFFFFFF AND PUSH4 0x76D69760 DUP13 PUSH1 0x0 PUSH1 0x40 MLOAD DUP4 PUSH4 0xFFFFFFFF AND PUSH1 0xE0 SHL DUP2 MSTORE PUSH1 0x4 ADD PUSH2 0x1561 SWAP3 SWAP2 SWAP1 PUSH2 0x3552 JUMP JUMPDEST PUSH1 0x20 PUSH1 0x40 MLOAD DUP1 DUP4 SUB DUP2 DUP7 GAS STATICCALL ISZERO DUP1 ISZERO PUSH2 0x157E JUMPI RETURNDATASIZE PUSH1 0x0 DUP1 RETURNDATACOPY RETURNDATASIZE PUSH1 0x0 REVERT JUMPDEST POP POP POP POP PUSH1 0x40 MLOAD RETURNDATASIZE PUSH1 0x1F NOT PUSH1 0x1F DUP3 ADD AND DUP3 ADD DUP1 PUSH1 0x40 MSTORE POP DUP2 ADD SWAP1 PUSH2 0x15A2 SWAP2 SWAP1 PUSH2 0x3296 JUMP JUMPDEST PUSH2 0x20E1 SWAP1 SWAP2 SWAP1 PUSH4 0xFFFFFFFF AND JUMP JUMPDEST PUSH2 0x215B SWAP1 SWAP2 SWAP1 PUSH4 0xFFFFFFFF AND JUMP JUMPDEST JUMPDEST SWAP1 POP PUSH1 0x0 DUP2 DUP6 GT PUSH2 0x15E2 JUMPI PUSH2 0x15DD DUP6 DUP4 PUSH2 0x2097 SWAP1 SWAP2 SWAP1 PUSH4 0xFFFFFFFF AND JUMP JUMPDEST PUSH2 0x15F6 JUMP JUMPDEST PUSH2 0x15F5 DUP3 DUP7 PUSH2 0x2097 SWAP1 SWAP2 SWAP1 PUSH4 0xFFFFFFFF AND JUMP JUMPDEST JUMPDEST SWAP1 POP PUSH2 0x161D DUP6 PUSH2 0x160F DUP4 DUP10 PUSH2 0x20E1 SWAP1 SWAP2 SWAP1 PUSH4 0xFFFFFFFF AND JUMP JUMPDEST PUSH2 0x215B SWAP1 SWAP2 SWAP1 PUSH4 0xFFFFFFFF AND JUMP JUMPDEST SWAP4 POP PUSH1 0x0 PUSH1 0x1 DUP2 GT ISZERO PUSH2 0x1633 JUMPI PUSH2 0x1632 PUSH2 0x28D7 JUMP JUMPDEST JUMPDEST DUP8 PUSH1 0x1 DUP2 GT ISZERO PUSH2 0x1646 JUMPI PUSH2 0x1645 PUSH2 0x28D7 JUMP JUMPDEST JUMPDEST EQ PUSH2 0x1653 JUMPI DUP2 DUP6 GT PUSH2 0x1657 JUMP JUMPDEST DUP5 DUP3 GT JUMPDEST SWAP3 POP POP POP SWAP5 POP SWAP5 SWAP3 POP POP POP JUMP JUMPDEST PUSH1 0x8 PUSH1 0x0 SWAP1 SLOAD SWAP1 PUSH2 0x100 EXP SWAP1 DIV PUSH20 0xFFFFFFFFFFFFFFFFFFFFFFFFFFFFFFFFFFFFFFFF AND DUP2 JUMP JUMPDEST PUSH1 0xC SLOAD DUP2 JUMP JUMPDEST PUSH2 0x2AF8 DUP2 JUMP JUMPDEST PUSH1 0x3 PUSH1 0x0 SWAP1 SLOAD SWAP1 PUSH2 0x100 EXP SWAP1 DIV PUSH20 0xFFFFFFFFFFFFFFFFFFFFFFFFFFFFFFFFFFFFFFFF AND DUP2 JUMP JUMPDEST PUSH1 0x0 DUP1 PUSH2 0x16CA DUP6 DUP6 DUP6 PUSH2 0x82E JUMP JUMPDEST SWAP1 POP PUSH1 0x0 DUP1 PUSH2 0x16E3 DUP8 DUP7 DUP6 PUSH1 0x0 ADD MLOAD DUP7 PUSH1 0x60 ADD MLOAD PUSH2 0x21A5 JUMP JUMPDEST SWAP2 POP SWAP2 POP DUP1 ISZERO DUP1 ISZERO PUSH2 0x16F8 JUMPI POP DUP3 PUSH1 0x20 ADD MLOAD DUP3 GT JUMPDEST ISZERO PUSH2 0x1709 JUMPI PUSH1 0x0 SWAP4 POP POP POP POP PUSH2 0x174D JUMP JUMPDEST DUP1 PUSH2 0x172D JUMPI PUSH2 0x1725 DUP3 DUP5 PUSH1 0x20 ADD MLOAD PUSH2 0x2097 SWAP1 SWAP2 SWAP1 PUSH4 0xFFFFFFFF AND JUMP JUMPDEST SWAP4 POP DUP4 PUSH2 0x1748 JUMP JUMPDEST PUSH2 0x1744 DUP3 DUP5 PUSH1 0x20 ADD MLOAD PUSH2 0x2039 SWAP1 SWAP2 SWAP1 PUSH4 0xFFFFFFFF AND JUMP JUMPDEST SWAP4 POP DUP4 JUMPDEST POP POP POP POP JUMPDEST SWAP4 SWAP3 POP POP POP JUMP JUMPDEST PUSH1 0x64 DUP2 JUMP JUMPDEST PUSH1 0x0 DUP1 PUSH1 0x3 PUSH1 0x0 SWAP1 SLOAD SWAP1 PUSH2 0x100 EXP SWAP1 DIV PUSH20 0xFFFFFFFFFFFFFFFFFFFFFFFFFFFFFFFFFFFFFFFF AND PUSH20 0xFFFFFFFFFFFFFFFFFFFFFFFFFFFFFFFFFFFFFFFF AND PUSH4 0xD04F246B PUSH1 0xB PUSH1 0x0 SWAP1 SLOAD SWAP1 PUSH2 0x100 EXP SWAP1 DIV PUSH20 0xFFFFFFFFFFFFFFFFFFFFFFFFFFFFFFFFFFFFFFFF AND PUSH1 0x40 MLOAD DUP3 PUSH4 0xFFFFFFFF AND PUSH1 0xE0 SHL DUP2 MSTORE PUSH1 0x4 ADD PUSH2 0x17D9 SWAP2 SWAP1 PUSH2 0x2762 JUMP JUMPDEST PUSH1 0x20 PUSH1 0x40 MLOAD DUP1 DUP4 SUB DUP2 DUP7 GAS STATICCALL ISZERO DUP1 ISZERO PUSH2 0x17F6 JUMPI RETURNDATASIZE PUSH1 0x0 DUP1 RETURNDATACOPY RETURNDATASIZE PUSH1 0x0 REVERT JUMPDEST POP POP POP POP PUSH1 0x40 MLOAD RETURNDATASIZE PUSH1 0x1F NOT PUSH1 0x1F DUP3 ADD AND DUP3 ADD DUP1 PUSH1 0x40 MSTORE POP DUP2 ADD SWAP1 PUSH2 0x181A SWAP2 SWAP1 PUSH2 0x3296 JUMP JUMPDEST SWAP1 POP PUSH1 0x0 DUP2 SUB PUSH2 0x182E JUMPI PUSH1 0x1 SWAP2 POP POP PUSH2 0x18A6 JUMP JUMPDEST PUSH1 0x0 PUSH2 0x1838 PUSH2 0x194B JUMP JUMPDEST SWAP1 POP PUSH1 0x0 PUSH2 0x1847 DUP8 DUP8 DUP8 PUSH2 0x16BC JUMP JUMPDEST SWAP1 POP DUP1 DUP3 LT ISZERO PUSH2 0x185D JUMPI PUSH1 0x0 SWAP4 POP POP POP POP PUSH2 0x18A6 JUMP JUMPDEST PUSH1 0x0 PUSH2 0x1898 DUP5 PUSH2 0x188A PUSH2 0x2710 PUSH2 0x187C DUP7 DUP9 PUSH2 0x2097 SWAP1 SWAP2 SWAP1 PUSH4 0xFFFFFFFF AND JUMP JUMPDEST PUSH2 0x20E1 SWAP1 SWAP2 SWAP1 PUSH4 0xFFFFFFFF AND JUMP JUMPDEST PUSH2 0x215B SWAP1 SWAP2 SWAP1 PUSH4 0xFFFFFFFF AND JUMP JUMPDEST SWAP1 POP PUSH2 0x2AF8 DUP2 GT SWAP5 POP POP POP POP POP JUMPDEST SWAP4 SWAP3 POP POP POP JUMP JUMPDEST PUSH1 0x9 PUSH1 0x0 SWAP1 SLOAD SWAP1 PUSH2 0x100 EXP SWAP1 DIV PUSH20 0xFFFFFFFFFFFFFFFFFFFFFFFFFFFFFFFFFFFFFFFF AND DUP2 JUMP JUMPDEST PUSH1 0xB PUSH1 0x0 SWAP1 SLOAD SWAP1 PUSH2 0x100 EXP SWAP1 DIV PUSH20 0xFFFFFFFFFFFFFFFFFFFFFFFFFFFFFFFFFFFFFFFF AND DUP2 JUMP JUMPDEST PUSH1 0x6 PUSH1 0x0 SWAP1 SLOAD SWAP1 PUSH2 0x100 EXP SWAP1 DIV PUSH20 0xFFFFFFFFFFFFFFFFFFFFFFFFFFFFFFFFFFFFFFFF AND DUP2 JUMP JUMPDEST PUSH1 0x7 PUSH1 0x0 SWAP1 SLOAD SWAP1 PUSH2 0x100 EXP SWAP1 DIV PUSH20 0xFFFFFFFFFFFFFFFFFFFFFFFFFFFFFFFFFFFFFFFF AND DUP2 JUMP JUMPDEST PUSH2 0x2710 DUP2 JUMP JUMPDEST PUSH1 0x0 DUP1 PUSH1 0x0 SWAP1 POP PUSH1 0x0 DUP1 JUMPDEST PUSH1 0xE DUP1 SLOAD SWAP1 POP DUP2 LT ISZERO PUSH2 0x1B3C JUMPI PUSH1 0x0 PUSH2 0x1A2C PUSH1 0x10 DUP4 DUP2 SLOAD DUP2 LT PUSH2 0x197C JUMPI PUSH2 0x197B PUSH2 0x357B JUMP JUMPDEST JUMPDEST SWAP1 PUSH1 0x0 MSTORE PUSH1 0x20 PUSH1 0x0 KECCAK256 SWAP1 PUSH1 0x2 MUL ADD PUSH1 0x0 ADD PUSH1 0x0 SWAP1 SLOAD SWAP1 PUSH2 0x100 EXP SWAP1 DIV PUSH20 0xFFFFFFFFFFFFFFFFFFFFFFFFFFFFFFFFFFFFFFFF AND PUSH1 0x10 DUP5 DUP2 SLOAD DUP2 LT PUSH2 0x19C2 JUMPI PUSH2 0x19C1 PUSH2 0x357B JUMP JUMPDEST JUMPDEST SWAP1 PUSH1 0x0 MSTORE PUSH1 0x20 PUSH1 0x0 KECCAK256 SWAP1 PUSH1 0x2 MUL ADD PUSH1 0x1 ADD PUSH1 0x0 SWAP1 SLOAD SWAP1 PUSH2 0x100 EXP SWAP1 DIV PUSH20 0xFFFFFFFFFFFFFFFFFFFFFFFFFFFFFFFFFFFFFFFF AND PUSH1 0x10 DUP6 DUP2 SLOAD DUP2 LT PUSH2 0x1A08 JUMPI PUSH2 0x1A07 PUSH2 0x357B JUMP JUMPDEST JUMPDEST SWAP1 PUSH1 0x0 MSTORE PUSH1 0x20 PUSH1 0x0 KECCAK256 SWAP1 PUSH1 0x2 MUL ADD PUSH1 0x1 ADD PUSH1 0x14 SWAP1 SLOAD SWAP1 PUSH2 0x100 EXP SWAP1 DIV PUSH1 0xFF AND PUSH2 0x16BC JUMP JUMPDEST SWAP1 POP PUSH2 0x1A41 DUP2 DUP6 PUSH2 0x2039 SWAP1 SWAP2 SWAP1 PUSH4 0xFFFFFFFF AND JUMP JUMPDEST SWAP4 POP PUSH1 0x0 PUSH2 0x1B0C PUSH1 0x10 DUP5 DUP2 SLOAD DUP2 LT PUSH2 0x1A5C JUMPI PUSH2 0x1A5B PUSH2 0x357B JUMP JUMPDEST JUMPDEST SWAP1 PUSH1 0x0 MSTORE PUSH1 0x20 PUSH1 0x0 KECCAK256 SWAP1 PUSH1 0x2 MUL ADD PUSH1 0x0 ADD PUSH1 0x0 SWAP1 SLOAD SWAP1 PUSH2 0x100 EXP SWAP1 DIV PUSH20 0xFFFFFFFFFFFFFFFFFFFFFFFFFFFFFFFFFFFFFFFF AND PUSH1 0x10 DUP6 DUP2 SLOAD DUP2 LT PUSH2 0x1AA2 JUMPI PUSH2 0x1AA1 PUSH2 0x357B JUMP JUMPDEST JUMPDEST SWAP1 PUSH1 0x0 MSTORE PUSH1 0x20 PUSH1 0x0 KECCAK256 SWAP1 PUSH1 0x2 MUL ADD PUSH1 0x1 ADD PUSH1 0x0 SWAP1 SLOAD SWAP1 PUSH2 0x100 EXP SWAP1 DIV PUSH20 0xFFFFFFFFFFFFFFFFFFFFFFFFFFFFFFFFFFFFFFFF AND PUSH1 0x10 DUP7 DUP2 SLOAD DUP2 LT PUSH2 0x1AE8 JUMPI PUSH2 0x1AE7 PUSH2 0x357B JUMP JUMPDEST JUMPDEST SWAP1 PUSH1 0x0 MSTORE PUSH1 0x20 PUSH1 0x0 KECCAK256 SWAP1 PUSH1 0x2 MUL ADD PUSH1 0x1 ADD PUSH1 0x14 SWAP1 SLOAD SWAP1 PUSH2 0x100 EXP SWAP1 DIV PUSH1 0xFF AND PUSH2 0x82E JUMP JUMPDEST SWAP1 POP PUSH2 0x1B25 DUP2 PUSH1 0x0 ADD MLOAD DUP6 PUSH2 0x2039 SWAP1 SWAP2 SWAP1 PUSH4 0xFFFFFFFF AND JUMP JUMPDEST SWAP4 POP POP POP DUP1 DUP1 PUSH2 0x1B34 SWAP1 PUSH2 0x35AA JUMP JUMPDEST SWAP2 POP POP PUSH2 0x1956 JUMP JUMPDEST POP PUSH1 0x0 PUSH1 0x3 PUSH1 0x0 SWAP1 SLOAD SWAP1 PUSH2 0x100 EXP SWAP1 DIV PUSH20 0xFFFFFFFFFFFFFFFFFFFFFFFFFFFFFFFFFFFFFFFF AND PUSH20 0xFFFFFFFFFFFFFFFFFFFFFFFFFFFFFFFFFFFFFFFF AND PUSH4 0xDB1E4FF8 PUSH1 0xB PUSH1 0x0 SWAP1 SLOAD SWAP1 PUSH2 0x100 EXP SWAP1 DIV PUSH20 0xFFFFFFFFFFFFFFFFFFFFFFFFFFFFFFFFFFFFFFFF AND PUSH1 0x40 MLOAD DUP3 PUSH4 0xFFFFFFFF AND PUSH1 0xE0 SHL DUP2 MSTORE PUSH1 0x4 ADD PUSH2 0x1BBC SWAP2 SWAP1 PUSH2 0x2762 JUMP JUMPDEST PUSH1 0x20 PUSH1 0x40 MLOAD DUP1 DUP4 SUB DUP2 DUP7 GAS STATICCALL ISZERO DUP1 ISZERO PUSH2 0x1BD9 JUMPI RETURNDATASIZE PUSH1 0x0 DUP1 RETURNDATACOPY RETURNDATASIZE PUSH1 0x0 REVERT JUMPDEST POP POP POP POP PUSH1 0x40 MLOAD RETURNDATASIZE PUSH1 0x1F NOT PUSH1 0x1F DUP3 ADD AND DUP3 ADD DUP1 PUSH1 0x40 MSTORE POP DUP2 ADD SWAP1 PUSH2 0x1BFD SWAP2 SWAP1 PUSH2 0x3296 JUMP JUMPDEST SWAP1 POP PUSH2 0x1C4B DUP2 PUSH2 0x1C3D PUSH2 0x1C2E PUSH2 0x2710 PUSH2 0x1C20 PUSH1 0x64 DUP9 PUSH2 0x20E1 SWAP1 SWAP2 SWAP1 PUSH4 0xFFFFFFFF AND JUMP JUMPDEST PUSH2 0x215B SWAP1 SWAP2 SWAP1 PUSH4 0xFFFFFFFF AND JUMP JUMPDEST DUP7 PUSH2 0x2097 SWAP1 SWAP2 SWAP1 PUSH4 0xFFFFFFFF AND JUMP JUMPDEST PUSH2 0x2097 SWAP1 SWAP2 SWAP1 PUSH4 0xFFFFFFFF AND JUMP JUMPDEST SWAP3 POP DUP3 SWAP4 POP POP POP POP SWAP1 JUMP JUMPDEST JUMP JUMPDEST PUSH1 0x0 DUP1 PUSH1 0x0 SWAP1 POP PUSH1 0x0 JUMPDEST PUSH1 0x10 DUP1 SLOAD SWAP1 POP DUP2 LT ISZERO PUSH2 0x1D63 JUMPI PUSH1 0x0 PUSH2 0x1D38 PUSH1 0x10 DUP4 DUP2 SLOAD DUP2 LT PUSH2 0x1C88 JUMPI PUSH2 0x1C87 PUSH2 0x357B JUMP JUMPDEST JUMPDEST SWAP1 PUSH1 0x0 MSTORE PUSH1 0x20 PUSH1 0x0 KECCAK256 SWAP1 PUSH1 0x2 MUL ADD PUSH1 0x0 ADD PUSH1 0x0 SWAP1 SLOAD SWAP1 PUSH2 0x100 EXP SWAP1 DIV PUSH20 0xFFFFFFFFFFFFFFFFFFFFFFFFFFFFFFFFFFFFFFFF AND PUSH1 0x10 DUP5 DUP2 SLOAD DUP2 LT PUSH2 0x1CCE JUMPI PUSH2 0x1CCD PUSH2 0x357B JUMP JUMPDEST JUMPDEST SWAP1 PUSH1 0x0 MSTORE PUSH1 0x20 PUSH1 0x0 KECCAK256 SWAP1 PUSH1 0x2 MUL ADD PUSH1 0x1 ADD PUSH1 0x0 SWAP1 SLOAD SWAP1 PUSH2 0x100 EXP SWAP1 DIV PUSH20 0xFFFFFFFFFFFFFFFFFFFFFFFFFFFFFFFFFFFFFFFF AND PUSH1 0x10 DUP6 DUP2 SLOAD DUP2 LT PUSH2 0x1D14 JUMPI PUSH2 0x1D13 PUSH2 0x357B JUMP JUMPDEST JUMPDEST SWAP1 PUSH1 0x0 MSTORE PUSH1 0x20 PUSH1 0x0 KECCAK256 SWAP1 PUSH1 0x2 MUL ADD PUSH1 0x1 ADD PUSH1 0x14 SWAP1 SLOAD SWAP1 PUSH2 0x100 EXP SWAP1 DIV PUSH1 0xFF AND PUSH2 0xCED JUMP JUMPDEST SWAP1 POP PUSH2 0x1D4D DUP2 DUP5 PUSH2 0x2039 SWAP1 SWAP2 SWAP1 PUSH4 0xFFFFFFFF AND JUMP JUMPDEST SWAP3 POP POP DUP1 DUP1 PUSH2 0x1D5B SWAP1 PUSH2 0x35AA JUMP JUMPDEST SWAP2 POP POP PUSH2 0x1C62 JUMP JUMPDEST POP DUP1 SWAP2 POP POP SWAP1 JUMP JUMPDEST PUSH1 0x4 PUSH1 0x0 SWAP1 SLOAD SWAP1 PUSH2 0x100 EXP SWAP1 DIV PUSH20 0xFFFFFFFFFFFFFFFFFFFFFFFFFFFFFFFFFFFFFFFF AND DUP2 JUMP JUMPDEST PUSH1 0x0 DUP1 SLOAD SWAP1 PUSH2 0x100 EXP SWAP1 DIV PUSH20 0xFFFFFFFFFFFFFFFFFFFFFFFFFFFFFFFFFFFFFFFF AND DUP2 JUMP JUMPDEST PUSH1 0xE DUP2 DUP2 SLOAD DUP2 LT PUSH2 0x1DC5 JUMPI PUSH1 0x0 DUP1 REVERT JUMPDEST SWAP1 PUSH1 0x0 MSTORE PUSH1 0x20 PUSH1 0x0 KECCAK256 SWAP1 PUSH1 0x2 MUL ADD PUSH1 0x0 SWAP2 POP SWAP1 POP DUP1 PUSH1 0x0 ADD PUSH1 0x0 SWAP1 SLOAD SWAP1 PUSH2 0x100 EXP SWAP1 DIV PUSH20 0xFFFFFFFFFFFFFFFFFFFFFFFFFFFFFFFFFFFFFFFF AND SWAP1 DUP1 PUSH1 0x1 ADD PUSH1 0x0 SWAP1 SLOAD SWAP1 PUSH2 0x100 EXP SWAP1 DIV PUSH20 0xFFFFFFFFFFFFFFFFFFFFFFFFFFFFFFFFFFFFFFFF AND SWAP1 DUP1 PUSH1 0x1 ADD PUSH1 0x14 SWAP1 SLOAD SWAP1 PUSH2 0x100 EXP SWAP1 DIV PUSH1 0xFF AND SWAP1 POP DUP4 JUMP JUMPDEST PUSH1 0xF PUSH1 0x0 PUSH2 0x1E72 DUP5 DUP7 PUSH1 0x0 PUSH1 0x1 DUP2 GT ISZERO PUSH2 0x1E59 JUMPI PUSH2 0x1E58 PUSH2 0x28D7 JUMP JUMPDEST JUMPDEST DUP7 PUSH1 0x1 DUP2 GT ISZERO PUSH2 0x1E6C JUMPI PUSH2 0x1E6B PUSH2 0x28D7 JUMP JUMPDEST JUMPDEST EQ PUSH2 0xFAC JUMP JUMPDEST DUP2 MSTORE PUSH1 0x20 ADD SWAP1 DUP2 MSTORE PUSH1 0x20 ADD PUSH1 0x0 KECCAK256 PUSH1 0x0 SWAP1 SLOAD SWAP1 PUSH2 0x100 EXP SWAP1 DIV PUSH1 0xFF AND PUSH2 0x2034 JUMPI PUSH1 0x10 PUSH1 0x40 MLOAD DUP1 PUSH1 0x60 ADD PUSH1 0x40 MSTORE DUP1 DUP5 PUSH20 0xFFFFFFFFFFFFFFFFFFFFFFFFFFFFFFFFFFFFFFFF AND DUP2 MSTORE PUSH1 0x20 ADD DUP6 PUSH20 0xFFFFFFFFFFFFFFFFFFFFFFFFFFFFFFFFFFFFFFFF AND DUP2 MSTORE PUSH1 0x20 ADD DUP4 PUSH1 0x1 DUP2 GT ISZERO PUSH2 0x1EEA JUMPI PUSH2 0x1EE9 PUSH2 0x28D7 JUMP JUMPDEST JUMPDEST DUP2 MSTORE POP SWAP1 DUP1 PUSH1 0x1 DUP2 SLOAD ADD DUP1 DUP3 SSTORE DUP1 SWAP2 POP POP PUSH1 0x1 SWAP1 SUB SWAP1 PUSH1 0x0 MSTORE PUSH1 0x20 PUSH1 0x0 KECCAK256 SWAP1 PUSH1 0x2 MUL ADD PUSH1 0x0 SWAP1 SWAP2 SWAP1 SWAP2 SWAP1 SWAP2 POP PUSH1 0x0 DUP3 ADD MLOAD DUP2 PUSH1 0x0 ADD PUSH1 0x0 PUSH2 0x100 EXP DUP2 SLOAD DUP2 PUSH20 0xFFFFFFFFFFFFFFFFFFFFFFFFFFFFFFFFFFFFFFFF MUL NOT AND SWAP1 DUP4 PUSH20 0xFFFFFFFFFFFFFFFFFFFFFFFFFFFFFFFFFFFFFFFF AND MUL OR SWAP1 SSTORE POP PUSH1 0x20 DUP3 ADD MLOAD DUP2 PUSH1 0x1 ADD PUSH1 0x0 PUSH2 0x100 EXP DUP2 SLOAD DUP2 PUSH20 0xFFFFFFFFFFFFFFFFFFFFFFFFFFFFFFFFFFFFFFFF MUL NOT AND SWAP1 DUP4 PUSH20 0xFFFFFFFFFFFFFFFFFFFFFFFFFFFFFFFFFFFFFFFF AND MUL OR SWAP1 SSTORE POP PUSH1 0x40 DUP3 ADD MLOAD DUP2 PUSH1 0x1 ADD PUSH1 0x14 PUSH2 0x100 EXP DUP2 SLOAD DUP2 PUSH1 0xFF MUL NOT AND SWAP1 DUP4 PUSH1 0x1 DUP2 GT ISZERO PUSH2 0x1FCF JUMPI PUSH2 0x1FCE PUSH2 0x28D7 JUMP JUMPDEST JUMPDEST MUL OR SWAP1 SSTORE POP POP POP PUSH1 0x1 PUSH1 0xF PUSH1 0x0 PUSH2 0x200E DUP6 DUP8 PUSH1 0x0 PUSH1 0x1 DUP2 GT ISZERO PUSH2 0x1FF5 JUMPI PUSH2 0x1FF4 PUSH2 0x28D7 JUMP JUMPDEST JUMPDEST DUP8 PUSH1 0x1 DUP2 GT ISZERO PUSH2 0x2008 JUMPI PUSH2 0x2007 PUSH2 0x28D7 JUMP JUMPDEST JUMPDEST EQ PUSH2 0xFAC JUMP JUMPDEST DUP2 MSTORE PUSH1 0x20 ADD SWAP1 DUP2 MSTORE PUSH1 0x20 ADD PUSH1 0x0 KECCAK256 PUSH1 0x0 PUSH2 0x100 EXP DUP2 SLOAD DUP2 PUSH1 0xFF MUL NOT AND SWAP1 DUP4 ISZERO ISZERO MUL OR SWAP1 SSTORE POP JUMPDEST POP POP POP JUMP JUMPDEST PUSH1 0x0 DUP1 DUP3 DUP5 PUSH2 0x2048 SWAP2 SWAP1 PUSH2 0x348C JUMP JUMPDEST SWAP1 POP DUP4 DUP2 LT ISZERO PUSH2 0x208D JUMPI PUSH1 0x40 MLOAD PUSH32 0x8C379A000000000000000000000000000000000000000000000000000000000 DUP2 MSTORE PUSH1 0x4 ADD PUSH2 0x2084 SWAP1 PUSH2 0x363E JUMP JUMPDEST PUSH1 0x40 MLOAD DUP1 SWAP2 SUB SWAP1 REVERT JUMPDEST DUP1 SWAP2 POP POP SWAP3 SWAP2 POP POP JUMP JUMPDEST PUSH1 0x0 PUSH2 0x20D9 DUP4 DUP4 PUSH1 0x40 MLOAD DUP1 PUSH1 0x40 ADD PUSH1 0x40 MSTORE DUP1 PUSH1 0x1E DUP2 MSTORE PUSH1 0x20 ADD PUSH32 0x536166654D6174683A207375627472616374696F6E206F766572666C6F770000 DUP2 MSTORE POP PUSH2 0x2335 JUMP JUMPDEST SWAP1 POP SWAP3 SWAP2 POP POP JUMP JUMPDEST PUSH1 0x0 DUP1 DUP4 SUB PUSH2 0x20F3 JUMPI PUSH1 0x0 SWAP1 POP PUSH2 0x2155 JUMP JUMPDEST PUSH1 0x0 DUP3 DUP5 PUSH2 0x2101 SWAP2 SWAP1 PUSH2 0x365E JUMP JUMPDEST SWAP1 POP DUP3 DUP5 DUP3 PUSH2 0x2110 SWAP2 SWAP1 PUSH2 0x36CF JUMP JUMPDEST EQ PUSH2 0x2150 JUMPI PUSH1 0x40 MLOAD PUSH32 0x8C379A000000000000000000000000000000000000000000000000000000000 DUP2 MSTORE PUSH1 0x4 ADD PUSH2 0x2147 SWAP1 PUSH2 0x3772 JUMP JUMPDEST PUSH1 0x40 MLOAD DUP1 SWAP2 SUB SWAP1 REVERT JUMPDEST DUP1 SWAP2 POP POP JUMPDEST SWAP3 SWAP2 POP POP JUMP JUMPDEST PUSH1 0x0 PUSH2 0x219D DUP4 DUP4 PUSH1 0x40 MLOAD DUP1 PUSH1 0x40 ADD PUSH1 0x40 MSTORE DUP1 PUSH1 0x1A DUP2 MSTORE PUSH1 0x20 ADD PUSH32 0x536166654D6174683A206469766973696F6E206279207A65726F000000000000 DUP2 MSTORE POP PUSH2 0x2399 JUMP JUMPDEST SWAP1 POP SWAP3 SWAP2 POP POP JUMP JUMPDEST PUSH1 0x0 DUP1 PUSH1 0x0 DUP5 EQ DUP1 PUSH2 0x21B7 JUMPI POP PUSH1 0x0 DUP4 EQ JUMPDEST ISZERO PUSH2 0x21C8 JUMPI PUSH1 0x0 DUP1 SWAP2 POP SWAP2 POP PUSH2 0x232C JUMP JUMPDEST PUSH1 0x0 PUSH1 0xA PUSH1 0x0 SWAP1 SLOAD SWAP1 PUSH2 0x100 EXP SWAP1 DIV PUSH20 0xFFFFFFFFFFFFFFFFFFFFFFFFFFFFFFFFFFFFFFFF AND PUSH20 0xFFFFFFFFFFFFFFFFFFFFFFFFFFFFFFFFFFFFFFFF AND PUSH4 0x76D69760 DUP9 PUSH1 0x0 PUSH1 0x1 DUP2 GT ISZERO PUSH2 0x221D JUMPI PUSH2 0x221C PUSH2 0x28D7 JUMP JUMPDEST JUMPDEST DUP10 PUSH1 0x1 DUP2 GT ISZERO PUSH2 0x2230 JUMPI PUSH2 0x222F PUSH2 0x28D7 JUMP JUMPDEST JUMPDEST EQ PUSH1 0x40 MLOAD DUP4 PUSH4 0xFFFFFFFF AND PUSH1 0xE0 SHL DUP2 MSTORE PUSH1 0x4 ADD PUSH2 0x224E SWAP3 SWAP2 SWAP1 PUSH2 0x3552 JUMP JUMPDEST PUSH1 0x20 PUSH1 0x40 MLOAD DUP1 DUP4 SUB DUP2 DUP7 GAS STATICCALL ISZERO DUP1 ISZERO PUSH2 0x226B JUMPI RETURNDATASIZE PUSH1 0x0 DUP1 RETURNDATACOPY RETURNDATASIZE PUSH1 0x0 REVERT JUMPDEST POP POP POP POP PUSH1 0x40 MLOAD RETURNDATASIZE PUSH1 0x1F NOT PUSH1 0x1F DUP3 ADD AND DUP3 ADD DUP1 PUSH1 0x40 MSTORE POP DUP2 ADD SWAP1 PUSH2 0x228F SWAP2 SWAP1 PUSH2 0x3296 JUMP JUMPDEST SWAP1 POP PUSH1 0x0 DUP2 DUP6 GT PUSH2 0x22B2 JUMPI PUSH2 0x22AD DUP6 DUP4 PUSH2 0x2097 SWAP1 SWAP2 SWAP1 PUSH4 0xFFFFFFFF AND JUMP JUMPDEST PUSH2 0x22C6 JUMP JUMPDEST PUSH2 0x22C5 DUP3 DUP7 PUSH2 0x2097 SWAP1 SWAP2 SWAP1 PUSH4 0xFFFFFFFF AND JUMP JUMPDEST JUMPDEST SWAP1 POP PUSH2 0x22ED DUP6 PUSH2 0x22DF DUP4 DUP10 PUSH2 0x20E1 SWAP1 SWAP2 SWAP1 PUSH4 0xFFFFFFFF AND JUMP JUMPDEST PUSH2 0x215B SWAP1 SWAP2 SWAP1 PUSH4 0xFFFFFFFF AND JUMP JUMPDEST SWAP4 POP PUSH1 0x0 PUSH1 0x1 DUP2 GT ISZERO PUSH2 0x2303 JUMPI PUSH2 0x2302 PUSH2 0x28D7 JUMP JUMPDEST JUMPDEST DUP8 PUSH1 0x1 DUP2 GT ISZERO PUSH2 0x2316 JUMPI PUSH2 0x2315 PUSH2 0x28D7 JUMP JUMPDEST JUMPDEST EQ PUSH2 0x2323 JUMPI DUP2 DUP6 GT PUSH2 0x2327 JUMP JUMPDEST DUP5 DUP3 GT JUMPDEST SWAP3 POP POP POP JUMPDEST SWAP5 POP SWAP5 SWAP3 POP POP POP JUMP JUMPDEST PUSH1 0x0 DUP4 DUP4 GT ISZERO DUP3 SWAP1 PUSH2 0x237D JUMPI PUSH1 0x40 MLOAD PUSH32 0x8C379A000000000000000000000000000000000000000000000000000000000 DUP2 MSTORE PUSH1 0x4 ADD PUSH2 0x2374 SWAP2 SWAP1 PUSH2 0x37D6 JUMP JUMPDEST PUSH1 0x40 MLOAD DUP1 SWAP2 SUB SWAP1 REVERT JUMPDEST POP PUSH1 0x0 DUP4 DUP6 PUSH2 0x238C SWAP2 SWAP1 PUSH2 0x37F8 JUMP JUMPDEST SWAP1 POP DUP1 SWAP2 POP POP SWAP4 SWAP3 POP POP POP JUMP JUMPDEST PUSH1 0x0 DUP1 DUP4 GT DUP3 SWAP1 PUSH2 0x23E0 JUMPI PUSH1 0x40 MLOAD PUSH32 0x8C379A000000000000000000000000000000000000000000000000000000000 DUP2 MSTORE PUSH1 0x4 ADD PUSH2 0x23D7 SWAP2 SWAP1 PUSH2 0x37D6 JUMP JUMPDEST PUSH1 0x40 MLOAD DUP1 SWAP2 SUB SWAP1 REVERT JUMPDEST POP PUSH1 0x0 DUP4 DUP6 PUSH2 0x23EF SWAP2 SWAP1 PUSH2 0x36CF JUMP JUMPDEST SWAP1 POP DUP1 SWAP2 POP POP SWAP4 SWAP3 POP POP POP JUMP JUMPDEST PUSH1 0x40 MLOAD DUP1 PUSH1 0xA0 ADD PUSH1 0x40 MSTORE DUP1 PUSH1 0x0 DUP2 MSTORE PUSH1 0x20 ADD PUSH1 0x0 DUP2 MSTORE PUSH1 0x20 ADD PUSH1 0x0 DUP2 MSTORE PUSH1 0x20 ADD PUSH1 0x0 DUP2 MSTORE PUSH1 0x20 ADD PUSH1 0x0 DUP2 MSTORE POP SWAP1 JUMP JUMPDEST PUSH1 0x0 PUSH1 0x40 MLOAD SWAP1 POP SWAP1 JUMP JUMPDEST PUSH1 0x0 DUP1 REVERT JUMPDEST PUSH1 0x0 PUSH20 0xFFFFFFFFFFFFFFFFFFFFFFFFFFFFFFFFFFFFFFFF DUP3 AND SWAP1 POP SWAP2 SWAP1 POP JUMP JUMPDEST PUSH1 0x0 PUSH2 0x2465 DUP3 PUSH2 0x243A JUMP JUMPDEST SWAP1 POP SWAP2 SWAP1 POP JUMP JUMPDEST PUSH2 0x2475 DUP2 PUSH2 0x245A JUMP JUMPDEST DUP2 EQ PUSH2 0x2480 JUMPI PUSH1 0x0 DUP1 REVERT JUMPDEST POP JUMP JUMPDEST PUSH1 0x0 DUP2 CALLDATALOAD SWAP1 POP PUSH2 0x2492 DUP2 PUSH2 0x246C JUMP JUMPDEST SWAP3 SWAP2 POP POP JUMP JUMPDEST PUSH1 0x2 DUP2 LT PUSH2 0x24A5 JUMPI PUSH1 0x0 DUP1 REVERT JUMPDEST POP JUMP JUMPDEST PUSH1 0x0 DUP2 CALLDATALOAD SWAP1 POP PUSH2 0x24B7 DUP2 PUSH2 0x2498 JUMP JUMPDEST SWAP3 SWAP2 POP POP JUMP JUMPDEST PUSH1 0x0 DUP1 PUSH1 0x0 PUSH1 0x60 DUP5 DUP7 SUB SLT ISZERO PUSH2 0x24D6 JUMPI PUSH2 0x24D5 PUSH2 0x2435 JUMP JUMPDEST JUMPDEST PUSH1 0x0 PUSH2 0x24E4 DUP7 DUP3 DUP8 ADD PUSH2 0x2483 JUMP JUMPDEST SWAP4 POP POP PUSH1 0x20 PUSH2 0x24F5 DUP7 DUP3 DUP8 ADD PUSH2 0x2483 JUMP JUMPDEST SWAP3 POP POP PUSH1 0x40 PUSH2 0x2506 DUP7 DUP3 DUP8 ADD PUSH2 0x24A8 JUMP JUMPDEST SWAP2 POP POP SWAP3 POP SWAP3 POP SWAP3 JUMP JUMPDEST PUSH1 0x0 DUP2 SWAP1 POP SWAP2 SWAP1 POP JUMP JUMPDEST PUSH2 0x2523 DUP2 PUSH2 0x2510 JUMP JUMPDEST DUP3 MSTORE POP POP JUMP JUMPDEST PUSH1 0xA0 DUP3 ADD PUSH1 0x0 DUP3 ADD MLOAD PUSH2 0x253F PUSH1 0x0 DUP6 ADD DUP3 PUSH2 0x251A JUMP JUMPDEST POP PUSH1 0x20 DUP3 ADD MLOAD PUSH2 0x2552 PUSH1 0x20 DUP6 ADD DUP3 PUSH2 0x251A JUMP JUMPDEST POP PUSH1 0x40 DUP3 ADD MLOAD PUSH2 0x2565 PUSH1 0x40 DUP6 ADD DUP3 PUSH2 0x251A JUMP JUMPDEST POP PUSH1 0x60 DUP3 ADD MLOAD PUSH2 0x2578 PUSH1 0x60 DUP6 ADD DUP3 PUSH2 0x251A JUMP JUMPDEST POP PUSH1 0x80 DUP3 ADD MLOAD PUSH2 0x258B PUSH1 0x80 DUP6 ADD DUP3 PUSH2 0x251A JUMP JUMPDEST POP POP POP POP JUMP JUMPDEST PUSH1 0x0 PUSH1 0xA0 DUP3 ADD SWAP1 POP PUSH2 0x25A6 PUSH1 0x0 DUP4 ADD DUP5 PUSH2 0x2529 JUMP JUMPDEST SWAP3 SWAP2 POP POP JUMP JUMPDEST PUSH2 0x25B5 DUP2 PUSH2 0x2510 JUMP JUMPDEST DUP3 MSTORE POP POP JUMP JUMPDEST PUSH1 0x0 PUSH1 0x20 DUP3 ADD SWAP1 POP PUSH2 0x25D0 PUSH1 0x0 DUP4 ADD DUP5 PUSH2 0x25AC JUMP JUMPDEST SWAP3 SWAP2 POP POP JUMP JUMPDEST PUSH1 0x0 DUP1 PUSH1 0x0 DUP1 PUSH1 0x80 DUP6 DUP8 SUB SLT ISZERO PUSH2 0x25F0 JUMPI PUSH2 0x25EF PUSH2 0x2435 JUMP JUMPDEST JUMPDEST PUSH1 0x0 PUSH2 0x25FE DUP8 DUP3 DUP9 ADD PUSH2 0x2483 JUMP JUMPDEST SWAP5 POP POP PUSH1 0x20 PUSH2 0x260F DUP8 DUP3 DUP9 ADD PUSH2 0x2483 JUMP JUMPDEST SWAP4 POP POP PUSH1 0x40 PUSH2 0x2620 DUP8 DUP3 DUP9 ADD PUSH2 0x2483 JUMP JUMPDEST SWAP3 POP POP PUSH1 0x60 PUSH2 0x2631 DUP8 DUP3 DUP9 ADD PUSH2 0x24A8 JUMP JUMPDEST SWAP2 POP POP SWAP3 SWAP6 SWAP2 SWAP5 POP SWAP3 POP JUMP JUMPDEST PUSH1 0x0 DUP2 SWAP1 POP SWAP2 SWAP1 POP JUMP JUMPDEST PUSH2 0x2650 DUP2 PUSH2 0x263D JUMP JUMPDEST DUP3 MSTORE POP POP JUMP JUMPDEST PUSH1 0x0 PUSH1 0x20 DUP3 ADD SWAP1 POP PUSH2 0x266B PUSH1 0x0 DUP4 ADD DUP5 PUSH2 0x2647 JUMP JUMPDEST SWAP3 SWAP2 POP POP JUMP JUMPDEST PUSH2 0x267A DUP2 PUSH2 0x2510 JUMP JUMPDEST DUP2 EQ PUSH2 0x2685 JUMPI PUSH1 0x0 DUP1 REVERT JUMPDEST POP JUMP JUMPDEST PUSH1 0x0 DUP2 CALLDATALOAD SWAP1 POP PUSH2 0x2697 DUP2 PUSH2 0x2671 JUMP JUMPDEST SWAP3 SWAP2 POP POP JUMP JUMPDEST PUSH1 0x0 DUP1 PUSH1 0x0 DUP1 PUSH1 0x0 DUP1 PUSH1 0x0 DUP1 PUSH2 0x100 DUP10 DUP12 SUB SLT ISZERO PUSH2 0x26BE JUMPI PUSH2 0x26BD PUSH2 0x2435 JUMP JUMPDEST JUMPDEST PUSH1 0x0 PUSH2 0x26CC DUP12 DUP3 DUP13 ADD PUSH2 0x24A8 JUMP JUMPDEST SWAP9 POP POP PUSH1 0x20 PUSH2 0x26DD DUP12 DUP3 DUP13 ADD PUSH2 0x2483 JUMP JUMPDEST SWAP8 POP POP PUSH1 0x40 PUSH2 0x26EE DUP12 DUP3 DUP13 ADD PUSH2 0x2483 JUMP JUMPDEST SWAP7 POP POP PUSH1 0x60 PUSH2 0x26FF DUP12 DUP3 DUP13 ADD PUSH2 0x2688 JUMP JUMPDEST SWAP6 POP POP PUSH1 0x80 PUSH2 0x2710 DUP12 DUP3 DUP13 ADD PUSH2 0x2483 JUMP JUMPDEST SWAP5 POP POP PUSH1 0xA0 PUSH2 0x2721 DUP12 DUP3 DUP13 ADD PUSH2 0x2688 JUMP JUMPDEST SWAP4 POP POP PUSH1 0xC0 PUSH2 0x2732 DUP12 DUP3 DUP13 ADD PUSH2 0x2688 JUMP JUMPDEST SWAP3 POP POP PUSH1 0xE0 PUSH2 0x2743 DUP12 DUP3 DUP13 ADD PUSH2 0x2688 JUMP JUMPDEST SWAP2 POP POP SWAP3 SWAP6 SWAP9 POP SWAP3 SWAP6 SWAP9 SWAP1 SWAP4 SWAP7 POP JUMP JUMPDEST PUSH2 0x275C DUP2 PUSH2 0x245A JUMP JUMPDEST DUP3 MSTORE POP POP JUMP JUMPDEST PUSH1 0x0 PUSH1 0x20 DUP3 ADD SWAP1 POP PUSH2 0x2777 PUSH1 0x0 DUP4 ADD DUP5 PUSH2 0x2753 JUMP JUMPDEST SWAP3 SWAP2 POP POP JUMP JUMPDEST PUSH1 0x0 DUP1 PUSH1 0x0 DUP1 PUSH1 0x0 DUP1 PUSH1 0x0 PUSH1 0xE0 DUP9 DUP11 SUB SLT ISZERO PUSH2 0x279C JUMPI PUSH2 0x279B PUSH2 0x2435 JUMP JUMPDEST JUMPDEST PUSH1 0x0 PUSH2 0x27AA DUP11 DUP3 DUP12 ADD PUSH2 0x24A8 JUMP JUMPDEST SWAP8 POP POP PUSH1 0x20 PUSH2 0x27BB DUP11 DUP3 DUP12 ADD PUSH2 0x2483 JUMP JUMPDEST SWAP7 POP POP PUSH1 0x40 PUSH2 0x27CC DUP11 DUP3 DUP12 ADD PUSH2 0x2483 JUMP JUMPDEST SWAP6 POP POP PUSH1 0x60 PUSH2 0x27DD DUP11 DUP3 DUP12 ADD PUSH2 0x2688 JUMP JUMPDEST SWAP5 POP POP PUSH1 0x80 PUSH2 0x27EE DUP11 DUP3 DUP12 ADD PUSH2 0x2483 JUMP JUMPDEST SWAP4 POP POP PUSH1 0xA0 PUSH2 0x27FF DUP11 DUP3 DUP12 ADD PUSH2 0x2688 JUMP JUMPDEST SWAP3 POP POP PUSH1 0xC0 PUSH2 0x2810 DUP11 DUP3 DUP12 ADD PUSH2 0x2688 JUMP JUMPDEST SWAP2 POP POP SWAP3 SWAP6 SWAP9 SWAP2 SWAP5 SWAP8 POP SWAP3 SWAP6 POP JUMP JUMPDEST PUSH1 0x0 DUP2 ISZERO ISZERO SWAP1 POP SWAP2 SWAP1 POP JUMP JUMPDEST PUSH2 0x2834 DUP2 PUSH2 0x281F JUMP JUMPDEST DUP2 EQ PUSH2 0x283F JUMPI PUSH1 0x0 DUP1 REVERT JUMPDEST POP JUMP JUMPDEST PUSH1 0x0 DUP2 CALLDATALOAD SWAP1 POP PUSH2 0x2851 DUP2 PUSH2 0x282B JUMP JUMPDEST SWAP3 SWAP2 POP POP JUMP JUMPDEST PUSH1 0x0 DUP1 PUSH1 0x0 PUSH1 0x60 DUP5 DUP7 SUB SLT ISZERO PUSH2 0x2870 JUMPI PUSH2 0x286F PUSH2 0x2435 JUMP JUMPDEST JUMPDEST PUSH1 0x0 PUSH2 0x287E DUP7 DUP3 DUP8 ADD PUSH2 0x2483 JUMP JUMPDEST SWAP4 POP POP PUSH1 0x20 PUSH2 0x288F DUP7 DUP3 DUP8 ADD PUSH2 0x2483 JUMP JUMPDEST SWAP3 POP POP PUSH1 0x40 PUSH2 0x28A0 DUP7 DUP3 DUP8 ADD PUSH2 0x2842 JUMP JUMPDEST SWAP2 POP POP SWAP3 POP SWAP3 POP SWAP3 JUMP JUMPDEST PUSH1 0x0 PUSH1 0x20 DUP3 DUP5 SUB SLT ISZERO PUSH2 0x28C0 JUMPI PUSH2 0x28BF PUSH2 0x2435 JUMP JUMPDEST JUMPDEST PUSH1 0x0 PUSH2 0x28CE DUP5 DUP3 DUP6 ADD PUSH2 0x2688 JUMP JUMPDEST SWAP2 POP POP SWAP3 SWAP2 POP POP JUMP JUMPDEST PUSH32 0x4E487B7100000000000000000000000000000000000000000000000000000000 PUSH1 0x0 MSTORE PUSH1 0x21 PUSH1 0x4 MSTORE PUSH1 0x24 PUSH1 0x0 REVERT JUMPDEST PUSH1 0x2 DUP2 LT PUSH2 0x2917 JUMPI PUSH2 0x2916 PUSH2 0x28D7 JUMP JUMPDEST JUMPDEST POP JUMP JUMPDEST PUSH1 0x0 DUP2 SWAP1 POP PUSH2 0x2928 DUP3 PUSH2 0x2906 JUMP JUMPDEST SWAP2 SWAP1 POP JUMP JUMPDEST PUSH1 0x0 PUSH2 0x2938 DUP3 PUSH2 0x291A JUMP JUMPDEST SWAP1 POP SWAP2 SWAP1 POP JUMP JUMPDEST PUSH2 0x2948 DUP2 PUSH2 0x292D JUMP JUMPDEST DUP3 MSTORE POP POP JUMP JUMPDEST PUSH1 0x0 PUSH1 0x60 DUP3 ADD SWAP1 POP PUSH2 0x2963 PUSH1 0x0 DUP4 ADD DUP7 PUSH2 0x2753 JUMP JUMPDEST PUSH2 0x2970 PUSH1 0x20 DUP4 ADD DUP6 PUSH2 0x2753 JUMP JUMPDEST PUSH2 0x297D PUSH1 0x40 DUP4 ADD DUP5 PUSH2 0x293F JUMP JUMPDEST SWAP5 SWAP4 POP POP POP POP JUMP JUMPDEST PUSH1 0x0 DUP1 REVERT JUMPDEST PUSH1 0x0 PUSH1 0x1F NOT PUSH1 0x1F DUP4 ADD AND SWAP1 POP SWAP2 SWAP1 POP JUMP JUMPDEST PUSH32 0x4E487B7100000000000000000000000000000000000000000000000000000000 PUSH1 0x0 MSTORE PUSH1 0x41 PUSH1 0x4 MSTORE PUSH1 0x24 PUSH1 0x0 REVERT JUMPDEST PUSH2 0x29D3 DUP3 PUSH2 0x298A JUMP JUMPDEST DUP2 ADD DUP2 DUP2 LT PUSH8 0xFFFFFFFFFFFFFFFF DUP3 GT OR ISZERO PUSH2 0x29F2 JUMPI PUSH2 0x29F1 PUSH2 0x299B JUMP JUMPDEST JUMPDEST DUP1 PUSH1 0x40 MSTORE POP POP POP JUMP JUMPDEST PUSH1 0x0 PUSH2 0x2A05 PUSH2 0x242B JUMP JUMPDEST SWAP1 POP PUSH2 0x2A11 DUP3 DUP3 PUSH2 0x29CA JUMP JUMPDEST SWAP2 SWAP1 POP JUMP JUMPDEST PUSH1 0x0 PUSH1 0xA0 DUP3 DUP5 SUB SLT ISZERO PUSH2 0x2A2C JUMPI PUSH2 0x2A2B PUSH2 0x2985 JUMP JUMPDEST JUMPDEST PUSH2 0x2A36 PUSH1 0xA0 PUSH2 0x29FB JUMP JUMPDEST SWAP1 POP PUSH1 0x0 PUSH2 0x2A46 DUP5 DUP3 DUP6 ADD PUSH2 0x2688 JUMP JUMPDEST PUSH1 0x0 DUP4 ADD MSTORE POP PUSH1 0x20 PUSH2 0x2A5A DUP5 DUP3 DUP6 ADD PUSH2 0x2688 JUMP JUMPDEST PUSH1 0x20 DUP4 ADD MSTORE POP PUSH1 0x40 PUSH2 0x2A6E DUP5 DUP3 DUP6 ADD PUSH2 0x2688 JUMP JUMPDEST PUSH1 0x40 DUP4 ADD MSTORE POP PUSH1 0x60 PUSH2 0x2A82 DUP5 DUP3 DUP6 ADD PUSH2 0x2688 JUMP JUMPDEST PUSH1 0x60 DUP4 ADD MSTORE POP PUSH1 0x80 PUSH2 0x2A96 DUP5 DUP3 DUP6 ADD PUSH2 0x2688 JUMP JUMPDEST PUSH1 0x80 DUP4 ADD MSTORE POP SWAP3 SWAP2 POP POP JUMP JUMPDEST PUSH1 0x0 DUP1 PUSH1 0x0 PUSH1 0xE0 DUP5 DUP7 SUB SLT ISZERO PUSH2 0x2ABB JUMPI PUSH2 0x2ABA PUSH2 0x2435 JUMP JUMPDEST JUMPDEST PUSH1 0x0 PUSH2 0x2AC9 DUP7 DUP3 DUP8 ADD PUSH2 0x2A16 JUMP JUMPDEST SWAP4 POP POP PUSH1 0xA0 PUSH2 0x2ADA DUP7 DUP3 DUP8 ADD PUSH2 0x2483 JUMP JUMPDEST SWAP3 POP POP PUSH1 0xC0 PUSH2 0x2AEB DUP7 DUP3 DUP8 ADD PUSH2 0x2688 JUMP JUMPDEST SWAP2 POP POP SWAP3 POP SWAP3 POP SWAP3 JUMP JUMPDEST PUSH1 0x0 DUP1 PUSH1 0x0 DUP1 PUSH1 0x80 DUP6 DUP8 SUB SLT ISZERO PUSH2 0x2B0F JUMPI PUSH2 0x2B0E PUSH2 0x2435 JUMP JUMPDEST JUMPDEST PUSH1 0x0 PUSH2 0x2B1D DUP8 DUP3 DUP9 ADD PUSH2 0x2483 JUMP JUMPDEST SWAP5 POP POP PUSH1 0x20 PUSH2 0x2B2E DUP8 DUP3 DUP9 ADD PUSH2 0x24A8 JUMP JUMPDEST SWAP4 POP POP PUSH1 0x40 PUSH2 0x2B3F DUP8 DUP3 DUP9 ADD PUSH2 0x2688 JUMP JUMPDEST SWAP3 POP POP PUSH1 0x60 PUSH2 0x2B50 DUP8 DUP3 DUP9 ADD PUSH2 0x2688 JUMP JUMPDEST SWAP2 POP POP SWAP3 SWAP6 SWAP2 SWAP5 POP SWAP3 POP JUMP JUMPDEST PUSH2 0x2B65 DUP2 PUSH2 0x281F JUMP JUMPDEST DUP3 MSTORE POP POP JUMP JUMPDEST PUSH1 0x0 PUSH1 0x40 DUP3 ADD SWAP1 POP PUSH2 0x2B80 PUSH1 0x0 DUP4 ADD DUP6 PUSH2 0x25AC JUMP JUMPDEST PUSH2 0x2B8D PUSH1 0x20 DUP4 ADD DUP5 PUSH2 0x2B5C JUMP JUMPDEST SWAP4 SWAP3 POP POP POP JUMP JUMPDEST PUSH1 0x0 PUSH1 0x20 DUP3 ADD SWAP1 POP PUSH2 0x2BA9 PUSH1 0x0 DUP4 ADD DUP5 PUSH2 0x2B5C JUMP JUMPDEST SWAP3 SWAP2 POP POP JUMP JUMPDEST PUSH1 0x0 PUSH1 0x60 DUP3 ADD SWAP1 POP PUSH2 0x2BC4 PUSH1 0x0 DUP4 ADD DUP7 PUSH2 0x2753 JUMP JUMPDEST PUSH2 0x2BD1 PUSH1 0x20 DUP4 ADD DUP6 PUSH2 0x2753 JUMP JUMPDEST PUSH2 0x2BDE PUSH1 0x40 DUP4 ADD DUP5 PUSH2 0x2B5C JUMP JUMPDEST SWAP5 SWAP4 POP POP POP POP JUMP JUMPDEST PUSH1 0x0 DUP2 MLOAD SWAP1 POP PUSH2 0x2BF5 DUP2 PUSH2 0x2671 JUMP JUMPDEST SWAP3 SWAP2 POP POP JUMP JUMPDEST PUSH1 0x0 DUP1 PUSH1 0x0 DUP1 PUSH1 0x0 PUSH1 0xA0 DUP7 DUP9 SUB SLT ISZERO PUSH2 0x2C17 JUMPI PUSH2 0x2C16 PUSH2 0x2435 JUMP JUMPDEST JUMPDEST PUSH1 0x0 PUSH2 0x2C25 DUP9 DUP3 DUP10 ADD PUSH2 0x2BE6 JUMP JUMPDEST SWAP6 POP POP PUSH1 0x20 PUSH2 0x2C36 DUP9 DUP3 DUP10 ADD PUSH2 0x2BE6 JUMP JUMPDEST SWAP5 POP POP PUSH1 0x40 PUSH2 0x2C47 DUP9 DUP3 DUP10 ADD PUSH2 0x2BE6 JUMP JUMPDEST SWAP4 POP POP PUSH1 0x60 PUSH2 0x2C58 DUP9 DUP3 DUP10 ADD PUSH2 0x2BE6 JUMP JUMPDEST SWAP3 POP POP PUSH1 0x80 PUSH2 0x2C69 DUP9 DUP3 DUP10 ADD PUSH2 0x2BE6 JUMP JUMPDEST SWAP2 POP POP SWAP3 SWAP6 POP SWAP3 SWAP6 SWAP1 SWAP4 POP JUMP JUMPDEST PUSH1 0x0 PUSH1 0x80 DUP3 ADD SWAP1 POP PUSH2 0x2C8B PUSH1 0x0 DUP4 ADD DUP8 PUSH2 0x2753 JUMP JUMPDEST PUSH2 0x2C98 PUSH1 0x20 DUP4 ADD DUP7 PUSH2 0x2753 JUMP JUMPDEST PUSH2 0x2CA5 PUSH1 0x40 DUP4 ADD DUP6 PUSH2 0x2753 JUMP JUMPDEST PUSH2 0x2CB2 PUSH1 0x60 DUP4 ADD DUP5 PUSH2 0x293F JUMP JUMPDEST SWAP6 SWAP5 POP POP POP POP POP JUMP JUMPDEST PUSH1 0x0 DUP3 DUP3 MSTORE PUSH1 0x20 DUP3 ADD SWAP1 POP SWAP3 SWAP2 POP POP JUMP JUMPDEST PUSH32 0x6F6E6C7920746865206F776E65722063616E2063616C6C20746869732066756E PUSH1 0x0 DUP3 ADD MSTORE PUSH32 0x6374696F6E000000000000000000000000000000000000000000000000000000 PUSH1 0x20 DUP3 ADD MSTORE POP JUMP JUMPDEST PUSH1 0x0 PUSH2 0x2D28 PUSH1 0x25 DUP4 PUSH2 0x2CBB JUMP JUMPDEST SWAP2 POP PUSH2 0x2D33 DUP3 PUSH2 0x2CCC JUMP JUMPDEST PUSH1 0x40 DUP3 ADD SWAP1 POP SWAP2 SWAP1 POP JUMP JUMPDEST PUSH1 0x0 PUSH1 0x20 DUP3 ADD SWAP1 POP DUP2 DUP2 SUB PUSH1 0x0 DUP4 ADD MSTORE PUSH2 0x2D57 DUP2 PUSH2 0x2D1B JUMP JUMPDEST SWAP1 POP SWAP2 SWAP1 POP JUMP JUMPDEST PUSH1 0x0 PUSH1 0x60 DUP3 ADD SWAP1 POP PUSH2 0x2D73 PUSH1 0x0 DUP4 ADD DUP7 PUSH2 0x2753 JUMP JUMPDEST PUSH2 0x2D80 PUSH1 0x20 DUP4 ADD DUP6 PUSH2 0x2753 JUMP JUMPDEST PUSH2 0x2D8D PUSH1 0x40 DUP4 ADD DUP5 PUSH2 0x25AC JUMP JUMPDEST SWAP5 SWAP4 POP POP POP POP JUMP JUMPDEST PUSH1 0x0 DUP2 MLOAD SWAP1 POP PUSH2 0x2DA4 DUP2 PUSH2 0x282B JUMP JUMPDEST SWAP3 SWAP2 POP POP JUMP JUMPDEST PUSH1 0x0 PUSH1 0x20 DUP3 DUP5 SUB SLT ISZERO PUSH2 0x2DC0 JUMPI PUSH2 0x2DBF PUSH2 0x2435 JUMP JUMPDEST JUMPDEST PUSH1 0x0 PUSH2 0x2DCE DUP5 DUP3 DUP6 ADD PUSH2 0x2D95 JUMP JUMPDEST SWAP2 POP POP SWAP3 SWAP2 POP POP JUMP JUMPDEST PUSH32 0x6661696C656420746F207472616E7366657220696E20636F6C6C61746572616C PUSH1 0x0 DUP3 ADD MSTORE POP JUMP JUMPDEST PUSH1 0x0 PUSH2 0x2E0D PUSH1 0x20 DUP4 PUSH2 0x2CBB JUMP JUMPDEST SWAP2 POP PUSH2 0x2E18 DUP3 PUSH2 0x2DD7 JUMP JUMPDEST PUSH1 0x20 DUP3 ADD SWAP1 POP SWAP2 SWAP1 POP JUMP JUMPDEST PUSH1 0x0 PUSH1 0x20 DUP3 ADD SWAP1 POP DUP2 DUP2 SUB PUSH1 0x0 DUP4 ADD MSTORE PUSH2 0x2E3C DUP2 PUSH2 0x2E00 JUMP JUMPDEST SWAP1 POP SWAP2 SWAP1 POP JUMP JUMPDEST PUSH1 0x0 PUSH1 0x40 DUP3 ADD SWAP1 POP PUSH2 0x2E58 PUSH1 0x0 DUP4 ADD DUP6 PUSH2 0x2753 JUMP JUMPDEST PUSH2 0x2E65 PUSH1 0x20 DUP4 ADD DUP5 PUSH2 0x25AC JUMP JUMPDEST SWAP4 SWAP3 POP POP POP JUMP JUMPDEST PUSH32 0x6661696C656420746F20617070726F766520636F6C6C61746572616C20747261 PUSH1 0x0 DUP3 ADD MSTORE PUSH32 0x6E73666572000000000000000000000000000000000000000000000000000000 PUSH1 0x20 DUP3 ADD MSTORE POP JUMP JUMPDEST PUSH1 0x0 PUSH2 0x2EC8 PUSH1 0x25 DUP4 PUSH2 0x2CBB JUMP JUMPDEST SWAP2 POP PUSH2 0x2ED3 DUP3 PUSH2 0x2E6C JUMP JUMPDEST PUSH1 0x40 DUP3 ADD SWAP1 POP SWAP2 SWAP1 POP JUMP JUMPDEST PUSH1 0x0 PUSH1 0x20 DUP3 ADD SWAP1 POP DUP2 DUP2 SUB PUSH1 0x0 DUP4 ADD MSTORE PUSH2 0x2EF7 DUP2 PUSH2 0x2EBB JUMP JUMPDEST SWAP1 POP SWAP2 SWAP1 POP JUMP JUMPDEST PUSH1 0x0 DUP2 MLOAD SWAP1 POP SWAP2 SWAP1 POP JUMP JUMPDEST PUSH1 0x0 DUP3 DUP3 MSTORE PUSH1 0x20 DUP3 ADD SWAP1 POP SWAP3 SWAP2 POP POP JUMP JUMPDEST PUSH1 0x0 JUMPDEST DUP4 DUP2 LT ISZERO PUSH2 0x2F38 JUMPI DUP1 DUP3 ADD MLOAD DUP2 DUP5 ADD MSTORE PUSH1 0x20 DUP2 ADD SWAP1 POP PUSH2 0x2F1D JUMP JUMPDEST PUSH1 0x0 DUP5 DUP5 ADD MSTORE POP POP POP POP JUMP JUMPDEST PUSH1 0x0 PUSH2 0x2F4F DUP3 PUSH2 0x2EFE JUMP JUMPDEST PUSH2 0x2F59 DUP2 DUP6 PUSH2 0x2F09 JUMP JUMPDEST SWAP4 POP PUSH2 0x2F69 DUP2 DUP6 PUSH1 0x20 DUP7 ADD PUSH2 0x2F1A JUMP JUMPDEST PUSH2 0x2F72 DUP2 PUSH2 0x298A JUMP JUMPDEST DUP5 ADD SWAP2 POP POP SWAP3 SWAP2 POP POP JUMP JUMPDEST PUSH1 0x0 PUSH1 0xC0 DUP3 ADD SWAP1 POP PUSH2 0x2F92 PUSH1 0x0 DUP4 ADD DUP10 PUSH2 0x25AC JUMP JUMPDEST PUSH2 0x2F9F PUSH1 0x20 DUP4 ADD DUP9 PUSH2 0x2753 JUMP JUMPDEST PUSH2 0x2FAC PUSH1 0x40 DUP4 ADD DUP8 PUSH2 0x25AC JUMP JUMPDEST PUSH2 0x2FB9 PUSH1 0x60 DUP4 ADD DUP7 PUSH2 0x25AC JUMP JUMPDEST PUSH2 0x2FC6 PUSH1 0x80 DUP4 ADD DUP6 PUSH2 0x25AC JUMP JUMPDEST DUP2 DUP2 SUB PUSH1 0xA0 DUP4 ADD MSTORE PUSH2 0x2FD8 DUP2 DUP5 PUSH2 0x2F44 JUMP JUMPDEST SWAP1 POP SWAP8 SWAP7 POP POP POP POP POP POP POP JUMP JUMPDEST PUSH1 0x2 DUP2 LT PUSH2 0x2FF6 JUMPI PUSH2 0x2FF5 PUSH2 0x28D7 JUMP JUMPDEST JUMPDEST POP JUMP JUMPDEST PUSH1 0x0 DUP2 SWAP1 POP PUSH2 0x3007 DUP3 PUSH2 0x2FE5 JUMP JUMPDEST SWAP2 SWAP1 POP JUMP JUMPDEST PUSH1 0x0 PUSH2 0x3017 DUP3 PUSH2 0x2FF9 JUMP JUMPDEST SWAP1 POP SWAP2 SWAP1 POP JUMP JUMPDEST PUSH2 0x3027 DUP2 PUSH2 0x300C JUMP JUMPDEST DUP3 MSTORE POP POP JUMP JUMPDEST PUSH1 0x2 DUP2 LT PUSH2 0x303E JUMPI PUSH2 0x303D PUSH2 0x28D7 JUMP JUMPDEST JUMPDEST POP JUMP JUMPDEST PUSH1 0x0 DUP2 SWAP1 POP PUSH2 0x304F DUP3 PUSH2 0x302D JUMP JUMPDEST SWAP2 SWAP1 POP JUMP JUMPDEST PUSH1 0x0 PUSH2 0x305F DUP3 PUSH2 0x3041 JUMP JUMPDEST SWAP1 POP SWAP2 SWAP1 POP JUMP JUMPDEST PUSH2 0x306F DUP2 PUSH2 0x3054 JUMP JUMPDEST DUP3 MSTORE POP POP JUMP JUMPDEST PUSH1 0x0 PUSH1 0xC0 DUP3 ADD SWAP1 POP PUSH2 0x308A PUSH1 0x0 DUP4 ADD DUP10 PUSH2 0x301E JUMP JUMPDEST PUSH2 0x3097 PUSH1 0x20 DUP4 ADD DUP9 PUSH2 0x293F JUMP JUMPDEST PUSH2 0x30A4 PUSH1 0x40 DUP4 ADD DUP8 PUSH2 0x2753 JUMP JUMPDEST PUSH2 0x30B1 PUSH1 0x60 DUP4 ADD DUP7 PUSH2 0x2753 JUMP JUMPDEST PUSH2 0x30BE PUSH1 0x80 DUP4 ADD DUP6 PUSH2 0x3066 JUMP JUMPDEST DUP2 DUP2 SUB PUSH1 0xA0 DUP4 ADD MSTORE PUSH2 0x30D0 DUP2 DUP5 PUSH2 0x2F44 JUMP JUMPDEST SWAP1 POP SWAP8 SWAP7 POP POP POP POP POP POP POP JUMP JUMPDEST PUSH32 0x6C6F616E20616D6F756E7420646F6573206E6F74207065726D6974206C697175 PUSH1 0x0 DUP3 ADD MSTORE PUSH32 0x69646174696F6E00000000000000000000000000000000000000000000000000 PUSH1 0x20 DUP3 ADD MSTORE POP JUMP JUMPDEST PUSH1 0x0 PUSH2 0x3139 PUSH1 0x27 DUP4 PUSH2 0x2CBB JUMP JUMPDEST SWAP2 POP PUSH2 0x3144 DUP3 PUSH2 0x30DD JUMP JUMPDEST PUSH1 0x40 DUP3 ADD SWAP1 POP SWAP2 SWAP1 POP JUMP JUMPDEST PUSH1 0x0 PUSH1 0x20 DUP3 ADD SWAP1 POP DUP2 DUP2 SUB PUSH1 0x0 DUP4 ADD MSTORE PUSH2 0x3168 DUP2 PUSH2 0x312C JUMP JUMPDEST SWAP1 POP SWAP2 SWAP1 POP JUMP JUMPDEST PUSH1 0x0 PUSH1 0xA0 DUP3 ADD SWAP1 POP PUSH2 0x3184 PUSH1 0x0 DUP4 ADD DUP9 PUSH2 0x25AC JUMP JUMPDEST PUSH2 0x3191 PUSH1 0x20 DUP4 ADD DUP8 PUSH2 0x2753 JUMP JUMPDEST PUSH2 0x319E PUSH1 0x40 DUP4 ADD DUP7 PUSH2 0x25AC JUMP JUMPDEST PUSH2 0x31AB PUSH1 0x60 DUP4 ADD DUP6 PUSH2 0x25AC JUMP JUMPDEST DUP2 DUP2 SUB PUSH1 0x80 DUP4 ADD MSTORE PUSH2 0x31BD DUP2 DUP5 PUSH2 0x2F44 JUMP JUMPDEST SWAP1 POP SWAP7 SWAP6 POP POP POP POP POP POP JUMP JUMPDEST PUSH1 0x0 DUP2 PUSH1 0x60 SHL SWAP1 POP SWAP2 SWAP1 POP JUMP JUMPDEST PUSH1 0x0 PUSH2 0x31E1 DUP3 PUSH2 0x31C9 JUMP JUMPDEST SWAP1 POP SWAP2 SWAP1 POP JUMP JUMPDEST PUSH1 0x0 PUSH2 0x31F3 DUP3 PUSH2 0x31D6 JUMP JUMPDEST SWAP1 POP SWAP2 SWAP1 POP JUMP JUMPDEST PUSH2 0x320B PUSH2 0x3206 DUP3 PUSH2 0x245A JUMP JUMPDEST PUSH2 0x31E8 JUMP JUMPDEST DUP3 MSTORE POP POP JUMP JUMPDEST PUSH1 0x0 DUP2 PUSH1 0xF8 SHL SWAP1 POP SWAP2 SWAP1 POP JUMP JUMPDEST PUSH1 0x0 PUSH2 0x3229 DUP3 PUSH2 0x3211 JUMP JUMPDEST SWAP1 POP SWAP2 SWAP1 POP JUMP JUMPDEST PUSH1 0x0 PUSH2 0x323B DUP3 PUSH2 0x321E JUMP JUMPDEST SWAP1 POP SWAP2 SWAP1 POP JUMP JUMPDEST PUSH2 0x3253 PUSH2 0x324E DUP3 PUSH2 0x281F JUMP JUMPDEST PUSH2 0x3230 JUMP JUMPDEST DUP3 MSTORE POP POP JUMP JUMPDEST PUSH1 0x0 PUSH2 0x3265 DUP3 DUP7 PUSH2 0x31FA JUMP JUMPDEST PUSH1 0x14 DUP3 ADD SWAP2 POP PUSH2 0x3275 DUP3 DUP6 PUSH2 0x31FA JUMP JUMPDEST PUSH1 0x14 DUP3 ADD SWAP2 POP PUSH2 0x3285 DUP3 DUP5 PUSH2 0x3242 JUMP JUMPDEST PUSH1 0x1 DUP3 ADD SWAP2 POP DUP2 SWAP1 POP SWAP5 SWAP4 POP POP POP POP JUMP JUMPDEST PUSH1 0x0 PUSH1 0x20 DUP3 DUP5 SUB SLT ISZERO PUSH2 0x32AC JUMPI PUSH2 0x32AB PUSH2 0x2435 JUMP JUMPDEST JUMPDEST PUSH1 0x0 PUSH2 0x32BA DUP5 DUP3 DUP6 ADD PUSH2 0x2BE6 JUMP JUMPDEST SWAP2 POP POP SWAP3 SWAP2 POP POP JUMP JUMPDEST PUSH1 0x0 PUSH1 0xE0 DUP3 DUP5 SUB SLT ISZERO PUSH2 0x32D9 JUMPI PUSH2 0x32D8 PUSH2 0x2985 JUMP JUMPDEST JUMPDEST PUSH2 0x32E3 PUSH1 0xE0 PUSH2 0x29FB JUMP JUMPDEST SWAP1 POP PUSH1 0x0 PUSH2 0x32F3 DUP5 DUP3 DUP6 ADD PUSH2 0x2BE6 JUMP JUMPDEST PUSH1 0x0 DUP4 ADD MSTORE POP PUSH1 0x20 PUSH2 0x3307 DUP5 DUP3 DUP6 ADD PUSH2 0x2BE6 JUMP JUMPDEST PUSH1 0x20 DUP4 ADD MSTORE POP PUSH1 0x40 PUSH2 0x331B DUP5 DUP3 DUP6 ADD PUSH2 0x2BE6 JUMP JUMPDEST PUSH1 0x40 DUP4 ADD MSTORE POP PUSH1 0x60 PUSH2 0x332F DUP5 DUP3 DUP6 ADD PUSH2 0x2BE6 JUMP JUMPDEST PUSH1 0x60 DUP4 ADD MSTORE POP PUSH1 0x80 PUSH2 0x3343 DUP5 DUP3 DUP6 ADD PUSH2 0x2BE6 JUMP JUMPDEST PUSH1 0x80 DUP4 ADD MSTORE POP PUSH1 0xA0 PUSH2 0x3357 DUP5 DUP3 DUP6 ADD PUSH2 0x2BE6 JUMP JUMPDEST PUSH1 0xA0 DUP4 ADD MSTORE POP PUSH1 0xC0 PUSH2 0x336B DUP5 DUP3 DUP6 ADD PUSH2 0x2BE6 JUMP JUMPDEST PUSH1 0xC0 DUP4 ADD MSTORE POP SWAP3 SWAP2 POP POP JUMP JUMPDEST PUSH1 0x0 PUSH1 0xE0 DUP3 DUP5 SUB SLT ISZERO PUSH2 0x338D JUMPI PUSH2 0x338C PUSH2 0x2435 JUMP JUMPDEST JUMPDEST PUSH1 0x0 PUSH2 0x339B DUP5 DUP3 DUP6 ADD PUSH2 0x32C3 JUMP JUMPDEST SWAP2 POP POP SWAP3 SWAP2 POP POP JUMP JUMPDEST PUSH1 0x0 PUSH1 0xA0 DUP3 DUP5 SUB SLT ISZERO PUSH2 0x33BA JUMPI PUSH2 0x33B9 PUSH2 0x2985 JUMP JUMPDEST JUMPDEST PUSH2 0x33C4 PUSH1 0xA0 PUSH2 0x29FB JUMP JUMPDEST SWAP1 POP PUSH1 0x0 PUSH2 0x33D4 DUP5 DUP3 DUP6 ADD PUSH2 0x2BE6 JUMP JUMPDEST PUSH1 0x0 DUP4 ADD MSTORE POP PUSH1 0x20 PUSH2 0x33E8 DUP5 DUP3 DUP6 ADD PUSH2 0x2BE6 JUMP JUMPDEST PUSH1 0x20 DUP4 ADD MSTORE POP PUSH1 0x40 PUSH2 0x33FC DUP5 DUP3 DUP6 ADD PUSH2 0x2BE6 JUMP JUMPDEST PUSH1 0x40 DUP4 ADD MSTORE POP PUSH1 0x60 PUSH2 0x3410 DUP5 DUP3 DUP6 ADD PUSH2 0x2BE6 JUMP JUMPDEST PUSH1 0x60 DUP4 ADD MSTORE POP PUSH1 0x80 PUSH2 0x3424 DUP5 DUP3 DUP6 ADD PUSH2 0x2BE6 JUMP JUMPDEST PUSH1 0x80 DUP4 ADD MSTORE POP SWAP3 SWAP2 POP POP JUMP JUMPDEST PUSH1 0x0 PUSH1 0xA0 DUP3 DUP5 SUB SLT ISZERO PUSH2 0x3446 JUMPI PUSH2 0x3445 PUSH2 0x2435 JUMP JUMPDEST JUMPDEST PUSH1 0x0 PUSH2 0x3454 DUP5 DUP3 DUP6 ADD PUSH2 0x33A4 JUMP JUMPDEST SWAP2 POP POP SWAP3 SWAP2 POP POP JUMP JUMPDEST PUSH32 0x4E487B7100000000000000000000000000000000000000000000000000000000 PUSH1 0x0 MSTORE PUSH1 0x11 PUSH1 0x4 MSTORE PUSH1 0x24 PUSH1 0x0 REVERT JUMPDEST PUSH1 0x0 PUSH2 0x3497 DUP3 PUSH2 0x2510 JUMP JUMPDEST SWAP2 POP PUSH2 0x34A2 DUP4 PUSH2 0x2510 JUMP JUMPDEST SWAP3 POP DUP3 DUP3 ADD SWAP1 POP DUP1 DUP3 GT ISZERO PUSH2 0x34BA JUMPI PUSH2 0x34B9 PUSH2 0x345D JUMP JUMPDEST JUMPDEST SWAP3 SWAP2 POP POP JUMP JUMPDEST PUSH32 0x617665726765207072696365206F6620706F736974696F6E2068617320746F20 PUSH1 0x0 DUP3 ADD MSTORE PUSH32 0x62652067726561746572207468616E2030000000000000000000000000000000 PUSH1 0x20 DUP3 ADD MSTORE POP JUMP JUMPDEST PUSH1 0x0 PUSH2 0x351C PUSH1 0x31 DUP4 PUSH2 0x2CBB JUMP JUMPDEST SWAP2 POP PUSH2 0x3527 DUP3 PUSH2 0x34C0 JUMP JUMPDEST PUSH1 0x40 DUP3 ADD SWAP1 POP SWAP2 SWAP1 POP JUMP JUMPDEST PUSH1 0x0 PUSH1 0x20 DUP3 ADD SWAP1 POP DUP2 DUP2 SUB PUSH1 0x0 DUP4 ADD MSTORE PUSH2 0x354B DUP2 PUSH2 0x350F JUMP JUMPDEST SWAP1 POP SWAP2 SWAP1 POP JUMP JUMPDEST PUSH1 0x0 PUSH1 0x40 DUP3 ADD SWAP1 POP PUSH2 0x3567 PUSH1 0x0 DUP4 ADD DUP6 PUSH2 0x2753 JUMP JUMPDEST PUSH2 0x3574 PUSH1 0x20 DUP4 ADD DUP5 PUSH2 0x2B5C JUMP JUMPDEST SWAP4 SWAP3 POP POP POP JUMP JUMPDEST PUSH32 0x4E487B7100000000000000000000000000000000000000000000000000000000 PUSH1 0x0 MSTORE PUSH1 0x32 PUSH1 0x4 MSTORE PUSH1 0x24 PUSH1 0x0 REVERT JUMPDEST PUSH1 0x0 PUSH2 0x35B5 DUP3 PUSH2 0x2510 JUMP JUMPDEST SWAP2 POP PUSH32 0xFFFFFFFFFFFFFFFFFFFFFFFFFFFFFFFFFFFFFFFFFFFFFFFFFFFFFFFFFFFFFFFF DUP3 SUB PUSH2 0x35E7 JUMPI PUSH2 0x35E6 PUSH2 0x345D JUMP JUMPDEST JUMPDEST PUSH1 0x1 DUP3 ADD SWAP1 POP SWAP2 SWAP1 POP JUMP JUMPDEST PUSH32 0x536166654D6174683A206164646974696F6E206F766572666C6F770000000000 PUSH1 0x0 DUP3 ADD MSTORE POP JUMP JUMPDEST PUSH1 0x0 PUSH2 0x3628 PUSH1 0x1B DUP4 PUSH2 0x2CBB JUMP JUMPDEST SWAP2 POP PUSH2 0x3633 DUP3 PUSH2 0x35F2 JUMP JUMPDEST PUSH1 0x20 DUP3 ADD SWAP1 POP SWAP2 SWAP1 POP JUMP JUMPDEST PUSH1 0x0 PUSH1 0x20 DUP3 ADD SWAP1 POP DUP2 DUP2 SUB PUSH1 0x0 DUP4 ADD MSTORE PUSH2 0x3657 DUP2 PUSH2 0x361B JUMP JUMPDEST SWAP1 POP SWAP2 SWAP1 POP JUMP JUMPDEST PUSH1 0x0 PUSH2 0x3669 DUP3 PUSH2 0x2510 JUMP JUMPDEST SWAP2 POP PUSH2 0x3674 DUP4 PUSH2 0x2510 JUMP JUMPDEST SWAP3 POP DUP3 DUP3 MUL PUSH2 0x3682 DUP2 PUSH2 0x2510 JUMP JUMPDEST SWAP2 POP DUP3 DUP3 DIV DUP5 EQ DUP4 ISZERO OR PUSH2 0x3699 JUMPI PUSH2 0x3698 PUSH2 0x345D JUMP JUMPDEST JUMPDEST POP SWAP3 SWAP2 POP POP JUMP JUMPDEST PUSH32 0x4E487B7100000000000000000000000000000000000000000000000000000000 PUSH1 0x0 MSTORE PUSH1 0x12 PUSH1 0x4 MSTORE PUSH1 0x24 PUSH1 0x0 REVERT JUMPDEST PUSH1 0x0 PUSH2 0x36DA DUP3 PUSH2 0x2510 JUMP JUMPDEST SWAP2 POP PUSH2 0x36E5 DUP4 PUSH2 0x2510 JUMP JUMPDEST SWAP3 POP DUP3 PUSH2 0x36F5 JUMPI PUSH2 0x36F4 PUSH2 0x36A0 JUMP JUMPDEST JUMPDEST DUP3 DUP3 DIV SWAP1 POP SWAP3 SWAP2 POP POP JUMP JUMPDEST PUSH32 0x536166654D6174683A206D756C7469706C69636174696F6E206F766572666C6F PUSH1 0x0 DUP3 ADD MSTORE PUSH32 0x7700000000000000000000000000000000000000000000000000000000000000 PUSH1 0x20 DUP3 ADD MSTORE POP JUMP JUMPDEST PUSH1 0x0 PUSH2 0x375C PUSH1 0x21 DUP4 PUSH2 0x2CBB JUMP JUMPDEST SWAP2 POP PUSH2 0x3767 DUP3 PUSH2 0x3700 JUMP JUMPDEST PUSH1 0x40 DUP3 ADD SWAP1 POP SWAP2 SWAP1 POP JUMP JUMPDEST PUSH1 0x0 PUSH1 0x20 DUP3 ADD SWAP1 POP DUP2 DUP2 SUB PUSH1 0x0 DUP4 ADD MSTORE PUSH2 0x378B DUP2 PUSH2 0x374F JUMP JUMPDEST SWAP1 POP SWAP2 SWAP1 POP JUMP JUMPDEST PUSH1 0x0 DUP2 MLOAD SWAP1 POP SWAP2 SWAP1 POP JUMP JUMPDEST PUSH1 0x0 PUSH2 0x37A8 DUP3 PUSH2 0x3792 JUMP JUMPDEST PUSH2 0x37B2 DUP2 DUP6 PUSH2 0x2CBB JUMP JUMPDEST SWAP4 POP PUSH2 0x37C2 DUP2 DUP6 PUSH1 0x20 DUP7 ADD PUSH2 0x2F1A JUMP JUMPDEST PUSH2 0x37CB DUP2 PUSH2 0x298A JUMP JUMPDEST DUP5 ADD SWAP2 POP POP SWAP3 SWAP2 POP POP JUMP JUMPDEST PUSH1 0x0 PUSH1 0x20 DUP3 ADD SWAP1 POP DUP2 DUP2 SUB PUSH1 0x0 DUP4 ADD MSTORE PUSH2 0x37F0 DUP2 DUP5 PUSH2 0x379D JUMP JUMPDEST SWAP1 POP SWAP3 SWAP2 POP POP JUMP JUMPDEST PUSH1 0x0 PUSH2 0x3803 DUP3 PUSH2 0x2510 JUMP JUMPDEST SWAP2 POP PUSH2 0x380E DUP4 PUSH2 0x2510 JUMP JUMPDEST SWAP3 POP DUP3 DUP3 SUB SWAP1 POP DUP2 DUP2 GT ISZERO PUSH2 0x3826 JUMPI PUSH2 0x3825 PUSH2 0x345D JUMP JUMPDEST JUMPDEST SWAP3 SWAP2 POP POP JUMP INVALID LOG2 PUSH5 0x6970667358 0x22 SLT KECCAK256 PUSH2 0xA3A7 COINBASE AND 0xE8 PUSH6 0x8268D322250D PUSH16 0xD7F723D8CC59548D548F0D0E2C54AAF1 0x1E CODECOPY PUSH5 0x736F6C6343 STOP ADDMOD GT STOP CALLER "},"methodIdentifiers":{"BASIS_POINTS_DIVISOR()":"126082cf","L1()":"7809baaf","L2()":"081752bb","MIN_DECREASE_HEALTH_FACTOR()":"725ba052","MIN_HEALTH_FACTOR()":"b5627e42","_getBnbPositionKey(address,address,address,uint8)":"0dd78f19","_getPositionFee((uint256,uint256,uint256,uint256,uint256),address,uint256)":"39cf8916","bnbLevelOracleAddress()":"1b8b361b","bnbOrderManagerAddress()":"62a3b0e1","bnbPoolAddress()":"8812f374","bnbPortfolioHealthFactor()":"32315a62","callDecreasePlaceOrder(uint8,address,address,uint256,address,uint256,uint256)":"157103f4","callIncreasePlaceOrder(uint8,address,address,uint256,address,uint256,uint256,uint256)":"1154dbc2","deposit()":"d0e30db0","existingBnbPositionsData(uint256)":"33c445d5","existingPositionsData(uint256)":"e9f4454d","gellatoAutomateAddress()":"d571e21c","getBnbDeltaWithMargin(address,uint8,uint256,uint256)":"5b9fb547","getBnbPortfolioValue()":"d3827eee","getBnbPortfolioValueWithMargin()":"cefcbd9d","getBnbPosition(address,address,uint8)":"027f1388","getBnbPositionValue(address,address,uint8)":"75f134b4","getBnbPositionValueWithMargin(address,address,uint8)":"15109f64","getPositionKey(address,address,bool)":"238e270a","gov()":"12d43a51","lendingContractAddress()":"7379dbe6","minExecutionFee()":"63ae2103","orderBookAddress()":"9409d870","ownerAddress()":"8f84aa09","positionRouterAddress()":"d422b00f","routerAddress()":"3268cc56","validateBnbDecreasePosition(address,address,uint8)":"81be2320","vaultContractAddress()":"a92ea0e0","wethAddress()":"4f0e0ef3"}}}}}