{"contracts/tokens/KLP.sol":{"KLP":{"abi":[{"inputs":[],"stateMutability":"nonpayable","type":"constructor"},{"anonymous":false,"inputs":[{"indexed":true,"internalType":"address","name":"owner","type":"address"},{"indexed":true,"internalType":"address","name":"spender","type":"address"},{"indexed":false,"internalType":"uint256","name":"value","type":"uint256"}],"name":"Approval","type":"event"},{"anonymous":false,"inputs":[{"indexed":true,"internalType":"address","name":"from","type":"address"},{"indexed":true,"internalType":"address","name":"to","type":"address"},{"indexed":false,"internalType":"uint256","name":"value","type":"uint256"}],"name":"Transfer","type":"event"},{"inputs":[{"internalType":"address","name":"_account","type":"address"}],"name":"addAdmin","outputs":[],"stateMutability":"nonpayable","type":"function"},{"inputs":[{"internalType":"address","name":"","type":"address"}],"name":"admins","outputs":[{"internalType":"bool","name":"","type":"bool"}],"stateMutability":"view","type":"function"},{"inputs":[{"internalType":"address","name":"_owner","type":"address"},{"internalType":"address","name":"_spender","type":"address"}],"name":"allowance","outputs":[{"internalType":"uint256","name":"","type":"uint256"}],"stateMutability":"view","type":"function"},{"inputs":[{"internalType":"address","name":"","type":"address"},{"internalType":"address","name":"","type":"address"}],"name":"allowances","outputs":[{"internalType":"uint256","name":"","type":"uint256"}],"stateMutability":"view","type":"function"},{"inputs":[{"internalType":"address","name":"_spender","type":"address"},{"internalType":"uint256","name":"_amount","type":"uint256"}],"name":"approve","outputs":[{"internalType":"bool","name":"","type":"bool"}],"stateMutability":"nonpayable","type":"function"},{"inputs":[{"internalType":"address","name":"_account","type":"address"}],"name":"balanceOf","outputs":[{"internalType":"uint256","name":"","type":"uint256"}],"stateMutability":"view","type":"function"},{"inputs":[{"internalType":"address","name":"","type":"address"}],"name":"balances","outputs":[{"internalType":"uint256","name":"","type":"uint256"}],"stateMutability":"view","type":"function"},{"inputs":[{"internalType":"address","name":"_account","type":"address"},{"internalType":"uint256","name":"_amount","type":"uint256"}],"name":"burn","outputs":[],"stateMutability":"nonpayable","type":"function"},{"inputs":[],"name":"decimals","outputs":[{"internalType":"uint8","name":"","type":"uint8"}],"stateMutability":"view","type":"function"},{"inputs":[],"name":"gov","outputs":[{"internalType":"address","name":"","type":"address"}],"stateMutability":"view","type":"function"},{"inputs":[],"name":"id","outputs":[{"internalType":"string","name":"_name","type":"string"}],"stateMutability":"pure","type":"function"},{"inputs":[],"name":"inPrivateTransferMode","outputs":[{"internalType":"bool","name":"","type":"bool"}],"stateMutability":"view","type":"function"},{"inputs":[{"internalType":"address","name":"","type":"address"}],"name":"isHandler","outputs":[{"internalType":"bool","name":"","type":"bool"}],"stateMutability":"view","type":"function"},{"inputs":[{"internalType":"address","name":"","type":"address"}],"name":"isMinter","outputs":[{"internalType":"bool","name":"","type":"bool"}],"stateMutability":"view","type":"function"},{"inputs":[{"internalType":"address","name":"_account","type":"address"},{"internalType":"uint256","name":"_amount","type":"uint256"}],"name":"mint","outputs":[],"stateMutability":"nonpayable","type":"function"},{"inputs":[],"name":"name","outputs":[{"internalType":"string","name":"","type":"string"}],"stateMutability":"view","type":"function"},{"inputs":[{"internalType":"address","name":"_account","type":"address"}],"name":"removeAdmin","outputs":[],"stateMutability":"nonpayable","type":"function"},{"inputs":[{"internalType":"address","name":"_gov","type":"address"}],"name":"setGov","outputs":[],"stateMutability":"nonpayable","type":"function"},{"inputs":[{"internalType":"address","name":"_handler","type":"address"},{"internalType":"bool","name":"_isActive","type":"bool"}],"name":"setHandler","outputs":[],"stateMutability":"nonpayable","type":"function"},{"inputs":[{"internalType":"bool","name":"_inPrivateTransferMode","type":"bool"}],"name":"setInPrivateTransferMode","outputs":[],"stateMutability":"nonpayable","type":"function"},{"inputs":[{"internalType":"string","name":"_name","type":"string"},{"internalType":"string","name":"_symbol","type":"string"}],"name":"setInfo","outputs":[],"stateMutability":"nonpayable","type":"function"},{"inputs":[{"internalType":"address","name":"_minter","type":"address"},{"internalType":"bool","name":"_isActive","type":"bool"}],"name":"setMinter","outputs":[],"stateMutability":"nonpayable","type":"function"},{"inputs":[],"name":"symbol","outputs":[{"internalType":"string","name":"","type":"string"}],"stateMutability":"view","type":"function"},{"inputs":[],"name":"totalSupply","outputs":[{"internalType":"uint256","name":"","type":"uint256"}],"stateMutability":"view","type":"function"},{"inputs":[{"internalType":"address","name":"_recipient","type":"address"},{"internalType":"uint256","name":"_amount","type":"uint256"}],"name":"transfer","outputs":[{"internalType":"bool","name":"","type":"bool"}],"stateMutability":"nonpayable","type":"function"},{"inputs":[{"internalType":"address","name":"_sender","type":"address"},{"internalType":"address","name":"_recipient","type":"address"},{"internalType":"uint256","name":"_amount","type":"uint256"}],"name":"transferFrom","outputs":[{"internalType":"bool","name":"","type":"bool"}],"stateMutability":"nonpayable","type":"function"},{"inputs":[{"internalType":"address","name":"_token","type":"address"},{"internalType":"address","name":"_account","type":"address"},{"internalType":"uint256","name":"_amount","type":"uint256"}],"name":"withdrawToken","outputs":[],"stateMutability":"nonpayable","type":"function"}],"evm":{"bytecode":{"linkReferences":{},"object":"60806040523480156200001157600080fd5b506040518060400160405280600781526020017f4b757275204c50000000000000000000000000000000000000000000000000008152506040518060400160405280600381526020017f4b4c500000000000000000000000000000000000000000000000000000000000815250600082828282600090816200009491906200057f565b508160019081620000a691906200057f565b5033600360006101000a81548173ffffffffffffffffffffffffffffffffffffffff021916908373ffffffffffffffffffffffffffffffffffffffff160217905550620000fa33826200010660201b60201c565b50505050505062000819565b600073ffffffffffffffffffffffffffffffffffffffff168273ffffffffffffffffffffffffffffffffffffffff160362000178576040517f08c379a00000000000000000000000000000000000000000000000000000000081526004016200016f90620006ed565b60405180910390fd5b6200019481600254620002a260201b620011bd1790919060201c565b600281905550620001f381600460008573ffffffffffffffffffffffffffffffffffffffff1673ffffffffffffffffffffffffffffffffffffffff16815260200190815260200160002054620002a260201b620011bd1790919060201c565b600460008473ffffffffffffffffffffffffffffffffffffffff1673ffffffffffffffffffffffffffffffffffffffff168152602001908152602001600020819055508173ffffffffffffffffffffffffffffffffffffffff16600073ffffffffffffffffffffffffffffffffffffffff167fddf252ad1be2c89b69c2b068fc378daa952ba7f163c4a11628f55a4df523b3ef8360405162000296919062000720565b60405180910390a35050565b6000808284620002b391906200076c565b905083811015620002fb576040517f08c379a0000000000000000000000000000000000000000000000000000000008152600401620002f290620007f7565b60405180910390fd5b8091505092915050565b600081519050919050565b7f4e487b7100000000000000000000000000000000000000000000000000000000600052604160045260246000fd5b7f4e487b7100000000000000000000000000000000000000000000000000000000600052602260045260246000fd5b600060028204905060018216806200038757607f821691505b6020821081036200039d576200039c6200033f565b5b50919050565b60008190508160005260206000209050919050565b60006020601f8301049050919050565b600082821b905092915050565b600060088302620004077fffffffffffffffffffffffffffffffffffffffffffffffffffffffffffffffff82620003c8565b620004138683620003c8565b95508019841693508086168417925050509392505050565b6000819050919050565b6000819050919050565b6000620004606200045a62000454846200042b565b62000435565b6200042b565b9050919050565b6000819050919050565b6200047c836200043f565b620004946200048b8262000467565b848454620003d5565b825550505050565b600090565b620004ab6200049c565b620004b881848462000471565b505050565b5b81811015620004e057620004d4600082620004a1565b600181019050620004be565b5050565b601f8211156200052f57620004f981620003a3565b6200050484620003b8565b8101602085101562000514578190505b6200052c6200052385620003b8565b830182620004bd565b50505b505050565b600082821c905092915050565b6000620005546000198460080262000534565b1980831691505092915050565b60006200056f838362000541565b9150826002028217905092915050565b6200058a8262000305565b67ffffffffffffffff811115620005a657620005a562000310565b5b620005b282546200036e565b620005bf828285620004e4565b600060209050601f831160018114620005f75760008415620005e2578287015190505b620005ee858262000561565b8655506200065e565b601f1984166200060786620003a3565b60005b8281101562000631578489015182556001820191506020850194506020810190506200060a565b868310156200065157848901516200064d601f89168262000541565b8355505b6001600288020188555050505b505050505050565b600082825260208201905092915050565b7f42617365546f6b656e3a206d696e7420746f20746865207a65726f206164647260008201527f6573730000000000000000000000000000000000000000000000000000000000602082015250565b6000620006d560238362000666565b9150620006e28262000677565b604082019050919050565b600060208201905081810360008301526200070881620006c6565b9050919050565b6200071a816200042b565b82525050565b60006020820190506200073760008301846200070f565b92915050565b7f4e487b7100000000000000000000000000000000000000000000000000000000600052601160045260246000fd5b600062000779826200042b565b915062000786836200042b565b9250828201905080821115620007a157620007a06200073d565b5b92915050565b7f536166654d6174683a206164646974696f6e206f766572666c6f770000000000600082015250565b6000620007df601b8362000666565b9150620007ec82620007a7565b602082019050919050565b600060208201905081810360008301526200081281620007d0565b9050919050565b612f0280620008296000396000f3fe608060405234801561001057600080fd5b50600436106101a95760003560e01c80635a47a1a7116100f9578063a923fc4011610097578063cf456ae711610071578063cf456ae7146104f2578063cfad57a21461050e578063dd62ed3e1461052a578063dfbaefb11461055a576101a9565b8063a923fc4014610488578063aa271e1a146104a4578063af640d0f146104d4576101a9565b806395d89b41116100d357806395d89b41146104025780639cb7de4b146104205780639dc29fac1461043c578063a9059cbb14610458576101a9565b80635a47a1a71461039a57806370480275146103b657806370a08231146103d2576101a9565b806323b872dd1161016657806340c10f191161014057806340c10f19146102ee578063429b62e51461030a57806346ea87af1461033a57806355b6ed5c1461036a576101a9565b806323b872dd1461027057806327e235e3146102a0578063313ce567146102d0576101a9565b806301e33667146101ae57806306fdde03146101ca578063095ea7b3146101e857806312d43a51146102185780631785f53c1461023657806318160ddd14610252575b600080fd5b6101c860048036038101906101c39190611e87565b610578565b005b6101d2610638565b6040516101df9190611f6a565b60405180910390f35b61020260048036038101906101fd9190611f8c565b6106c6565b60405161020f9190611fe7565b60405180910390f35b6102206106dd565b60405161022d9190612011565b60405180910390f35b610250600480360381019061024b919061202c565b610703565b005b61025a6107ee565b6040516102679190612068565b60405180910390f35b61028a60048036038101906102859190611e87565b6107f4565b6040516102979190611fe7565b60405180910390f35b6102ba60048036038101906102b5919061202c565b61092c565b6040516102c79190612068565b60405180910390f35b6102d8610944565b6040516102e5919061209f565b60405180910390f35b61030860048036038101906103039190611f8c565b610949565b005b610324600480360381019061031f919061202c565b6109e3565b6040516103319190611fe7565b60405180910390f35b610354600480360381019061034f919061202c565b610a03565b6040516103619190611fe7565b60405180910390f35b610384600480360381019061037f91906120ba565b610a23565b6040516103919190612068565b60405180910390f35b6103b460048036038101906103af9190612126565b610a48565b005b6103d060048036038101906103cb919061202c565b610af5565b005b6103ec60048036038101906103e7919061202c565b610be0565b6040516103f99190612068565b60405180910390f35b61040a610c29565b6040516104179190611f6a565b60405180910390f35b61043a60048036038101906104359190612153565b610cb7565b005b61045660048036038101906104519190611f8c565b610da2565b005b610472600480360381019061046d9190611f8c565b610e3c565b60405161047f9190611fe7565b60405180910390f35b6104a2600480360381019061049d91906122c8565b610e53565b005b6104be60048036038101906104b9919061202c565b610f07565b6040516104cb9190611fe7565b60405180910390f35b6104dc610f27565b6040516104e99190611f6a565b60405180910390f35b61050c60048036038101906105079190612153565b610f64565b005b6105286004803603810190610523919061202c565b61104f565b005b610544600480360381019061053f91906120ba565b611123565b6040516105519190612068565b60405180910390f35b6105626111aa565b60405161056f9190611fe7565b60405180910390f35b600360009054906101000a900473ffffffffffffffffffffffffffffffffffffffff1673ffffffffffffffffffffffffffffffffffffffff163373ffffffffffffffffffffffffffffffffffffffff1614610608576040517f08c379a00000000000000000000000000000000000000000000000000000000081526004016105ff9061238c565b60405180910390fd5b61063382828573ffffffffffffffffffffffffffffffffffffffff1661121b9092919063ffffffff16565b505050565b60008054610645906123db565b80601f0160208091040260200160405190810160405280929190818152602001828054610671906123db565b80156106be5780601f10610693576101008083540402835291602001916106be565b820191906000526020600020905b8154815290600101906020018083116106a157829003601f168201915b505050505081565b60006106d33384846112a1565b6001905092915050565b600360009054906101000a900473ffffffffffffffffffffffffffffffffffffffff1681565b600360009054906101000a900473ffffffffffffffffffffffffffffffffffffffff1673ffffffffffffffffffffffffffffffffffffffff163373ffffffffffffffffffffffffffffffffffffffff1614610793576040517f08c379a000000000000000000000000000000000000000000000000000000000815260040161078a9061238c565b60405180910390fd5b6000600660008373ffffffffffffffffffffffffffffffffffffffff1673ffffffffffffffffffffffffffffffffffffffff16815260200190815260200160002060006101000a81548160ff02191690831515021790555050565b60025481565b6000600860003373ffffffffffffffffffffffffffffffffffffffff1673ffffffffffffffffffffffffffffffffffffffff16815260200190815260200160002060009054906101000a900460ff161561085c5761085384848461146a565b60019050610925565b6000610907836040518060600160405280602c8152602001612e51602c9139600560008973ffffffffffffffffffffffffffffffffffffffff1673ffffffffffffffffffffffffffffffffffffffff16815260200190815260200160002060003373ffffffffffffffffffffffffffffffffffffffff1673ffffffffffffffffffffffffffffffffffffffff168152602001908152602001600020546117989092919063ffffffff16565b90506109148533836112a1565b61091f85858561146a565b60019150505b9392505050565b60046020528060005260406000206000915090505481565b601281565b600960003373ffffffffffffffffffffffffffffffffffffffff1673ffffffffffffffffffffffffffffffffffffffff16815260200190815260200160002060009054906101000a900460ff166109d5576040517f08c379a00000000000000000000000000000000000000000000000000000000081526004016109cc90612458565b60405180910390fd5b6109df82826117fc565b5050565b60066020528060005260406000206000915054906101000a900460ff1681565b60086020528060005260406000206000915054906101000a900460ff1681565b6005602052816000526040600020602052806000526040600020600091509150505481565b600360009054906101000a900473ffffffffffffffffffffffffffffffffffffffff1673ffffffffffffffffffffffffffffffffffffffff163373ffffffffffffffffffffffffffffffffffffffff1614610ad8576040517f08c379a0000000000000000000000000000000000000000000000000000000008152600401610acf9061238c565b60405180910390fd5b80600760006101000a81548160ff02191690831515021790555050565b600360009054906101000a900473ffffffffffffffffffffffffffffffffffffffff1673ffffffffffffffffffffffffffffffffffffffff163373ffffffffffffffffffffffffffffffffffffffff1614610b85576040517f08c379a0000000000000000000000000000000000000000000000000000000008152600401610b7c9061238c565b60405180910390fd5b6001600660008373ffffffffffffffffffffffffffffffffffffffff1673ffffffffffffffffffffffffffffffffffffffff16815260200190815260200160002060006101000a81548160ff02191690831515021790555050565b6000600460008373ffffffffffffffffffffffffffffffffffffffff1673ffffffffffffffffffffffffffffffffffffffff168152602001908152602001600020549050919050565b60018054610c36906123db565b80601f0160208091040260200160405190810160405280929190818152602001828054610c62906123db565b8015610caf5780601f10610c8457610100808354040283529160200191610caf565b820191906000526020600020905b815481529060010190602001808311610c9257829003601f168201915b505050505081565b600360009054906101000a900473ffffffffffffffffffffffffffffffffffffffff1673ffffffffffffffffffffffffffffffffffffffff163373ffffffffffffffffffffffffffffffffffffffff1614610d47576040517f08c379a0000000000000000000000000000000000000000000000000000000008152600401610d3e9061238c565b60405180910390fd5b80600860008473ffffffffffffffffffffffffffffffffffffffff1673ffffffffffffffffffffffffffffffffffffffff16815260200190815260200160002060006101000a81548160ff0219169083151502179055505050565b600960003373ffffffffffffffffffffffffffffffffffffffff1673ffffffffffffffffffffffffffffffffffffffff16815260200190815260200160002060009054906101000a900460ff16610e2e576040517f08c379a0000000000000000000000000000000000000000000000000000000008152600401610e2590612458565b60405180910390fd5b610e388282611985565b5050565b6000610e4933848461146a565b6001905092915050565b600360009054906101000a900473ffffffffffffffffffffffffffffffffffffffff1673ffffffffffffffffffffffffffffffffffffffff163373ffffffffffffffffffffffffffffffffffffffff1614610ee3576040517f08c379a0000000000000000000000000000000000000000000000000000000008152600401610eda9061238c565b60405180910390fd5b8160009081610ef29190612624565b508060019081610f029190612624565b505050565b60096020528060005260406000206000915054906101000a900460ff1681565b60606040518060400160405280600381526020017f4b4c500000000000000000000000000000000000000000000000000000000000815250905090565b600360009054906101000a900473ffffffffffffffffffffffffffffffffffffffff1673ffffffffffffffffffffffffffffffffffffffff163373ffffffffffffffffffffffffffffffffffffffff1614610ff4576040517f08c379a0000000000000000000000000000000000000000000000000000000008152600401610feb9061238c565b60405180910390fd5b80600960008473ffffffffffffffffffffffffffffffffffffffff1673ffffffffffffffffffffffffffffffffffffffff16815260200190815260200160002060006101000a81548160ff0219169083151502179055505050565b600360009054906101000a900473ffffffffffffffffffffffffffffffffffffffff1673ffffffffffffffffffffffffffffffffffffffff163373ffffffffffffffffffffffffffffffffffffffff16146110df576040517f08c379a00000000000000000000000000000000000000000000000000000000081526004016110d69061238c565b60405180910390fd5b80600360006101000a81548173ffffffffffffffffffffffffffffffffffffffff021916908373ffffffffffffffffffffffffffffffffffffffff16021790555050565b6000600560008473ffffffffffffffffffffffffffffffffffffffff1673ffffffffffffffffffffffffffffffffffffffff16815260200190815260200160002060008373ffffffffffffffffffffffffffffffffffffffff1673ffffffffffffffffffffffffffffffffffffffff16815260200190815260200160002054905092915050565b600760009054906101000a900460ff1681565b60008082846111cc9190612725565b905083811015611211576040517f08c379a0000000000000000000000000000000000000000000000000000000008152600401611208906127a5565b60405180910390fd5b8091505092915050565b61129c8363a9059cbb60e01b848460405160240161123a9291906127c5565b604051602081830303815290604052907bffffffffffffffffffffffffffffffffffffffffffffffffffffffff19166020820180517bffffffffffffffffffffffffffffffffffffffffffffffffffffffff8381831617835250505050611b28565b505050565b600073ffffffffffffffffffffffffffffffffffffffff168373ffffffffffffffffffffffffffffffffffffffff1603611310576040517f08c379a000000000000000000000000000000000000000000000000000000000815260040161130790612860565b60405180910390fd5b600073ffffffffffffffffffffffffffffffffffffffff168273ffffffffffffffffffffffffffffffffffffffff160361137f576040517f08c379a0000000000000000000000000000000000000000000000000000000008152600401611376906128f2565b60405180910390fd5b80600560008573ffffffffffffffffffffffffffffffffffffffff1673ffffffffffffffffffffffffffffffffffffffff16815260200190815260200160002060008473ffffffffffffffffffffffffffffffffffffffff1673ffffffffffffffffffffffffffffffffffffffff168152602001908152602001600020819055508173ffffffffffffffffffffffffffffffffffffffff168373ffffffffffffffffffffffffffffffffffffffff167f8c5be1e5ebec7d5bd14f71427d1e84f3dd0314c0f7b2291e5b200ac8c7c3b9258360405161145d9190612068565b60405180910390a3505050565b600073ffffffffffffffffffffffffffffffffffffffff168373ffffffffffffffffffffffffffffffffffffffff16036114d9576040517f08c379a00000000000000000000000000000000000000000000000000000000081526004016114d090612984565b60405180910390fd5b600073ffffffffffffffffffffffffffffffffffffffff168273ffffffffffffffffffffffffffffffffffffffff1603611548576040517f08c379a000000000000000000000000000000000000000000000000000000000815260040161153f90612a16565b60405180910390fd5b600760009054906101000a900460ff16156115ea57600860003373ffffffffffffffffffffffffffffffffffffffff1673ffffffffffffffffffffffffffffffffffffffff16815260200190815260200160002060009054906101000a900460ff166115e9576040517f08c379a00000000000000000000000000000000000000000000000000000000081526004016115e090612aa8565b60405180910390fd5b5b611656816040518060600160405280602a8152602001612e7d602a9139600460008773ffffffffffffffffffffffffffffffffffffffff1673ffffffffffffffffffffffffffffffffffffffff168152602001908152602001600020546117989092919063ffffffff16565b600460008573ffffffffffffffffffffffffffffffffffffffff1673ffffffffffffffffffffffffffffffffffffffff168152602001908152602001600020819055506116eb81600460008573ffffffffffffffffffffffffffffffffffffffff1673ffffffffffffffffffffffffffffffffffffffff168152602001908152602001600020546111bd90919063ffffffff16565b600460008473ffffffffffffffffffffffffffffffffffffffff1673ffffffffffffffffffffffffffffffffffffffff168152602001908152602001600020819055508173ffffffffffffffffffffffffffffffffffffffff168373ffffffffffffffffffffffffffffffffffffffff167fddf252ad1be2c89b69c2b068fc378daa952ba7f163c4a11628f55a4df523b3ef8360405161178b9190612068565b60405180910390a3505050565b60008383111582906117e0576040517f08c379a00000000000000000000000000000000000000000000000000000000081526004016117d79190611f6a565b60405180910390fd5b50600083856117ef9190612ac8565b9050809150509392505050565b600073ffffffffffffffffffffffffffffffffffffffff168273ffffffffffffffffffffffffffffffffffffffff160361186b576040517f08c379a000000000000000000000000000000000000000000000000000000000815260040161186290612b6e565b60405180910390fd5b611880816002546111bd90919063ffffffff16565b6002819055506118d881600460008573ffffffffffffffffffffffffffffffffffffffff1673ffffffffffffffffffffffffffffffffffffffff168152602001908152602001600020546111bd90919063ffffffff16565b600460008473ffffffffffffffffffffffffffffffffffffffff1673ffffffffffffffffffffffffffffffffffffffff168152602001908152602001600020819055508173ffffffffffffffffffffffffffffffffffffffff16600073ffffffffffffffffffffffffffffffffffffffff167fddf252ad1be2c89b69c2b068fc378daa952ba7f163c4a11628f55a4df523b3ef836040516119799190612068565b60405180910390a35050565b600073ffffffffffffffffffffffffffffffffffffffff168273ffffffffffffffffffffffffffffffffffffffff16036119f4576040517f08c379a00000000000000000000000000000000000000000000000000000000081526004016119eb90612c00565b60405180910390fd5b611a6081604051806060016040528060268152602001612ea760269139600460008673ffffffffffffffffffffffffffffffffffffffff1673ffffffffffffffffffffffffffffffffffffffff168152602001908152602001600020546117989092919063ffffffff16565b600460008473ffffffffffffffffffffffffffffffffffffffff1673ffffffffffffffffffffffffffffffffffffffff16815260200190815260200160002081905550611ab881600254611bef90919063ffffffff16565b600281905550600073ffffffffffffffffffffffffffffffffffffffff168273ffffffffffffffffffffffffffffffffffffffff167fddf252ad1be2c89b69c2b068fc378daa952ba7f163c4a11628f55a4df523b3ef83604051611b1c9190612068565b60405180910390a35050565b6000611b8a826040518060400160405280602081526020017f5361666545524332303a206c6f772d6c6576656c2063616c6c206661696c65648152508573ffffffffffffffffffffffffffffffffffffffff16611c399092919063ffffffff16565b9050600081511115611bea5780806020019051810190611baa9190612c35565b611be9576040517f08c379a0000000000000000000000000000000000000000000000000000000008152600401611be090612cd4565b60405180910390fd5b5b505050565b6000611c3183836040518060400160405280601e81526020017f536166654d6174683a207375627472616374696f6e206f766572666c6f770000815250611798565b905092915050565b6060611c488484600085611c51565b90509392505050565b606082471015611c96576040517f08c379a0000000000000000000000000000000000000000000000000000000008152600401611c8d90612d66565b60405180910390fd5b611c9f85611d65565b611cde576040517f08c379a0000000000000000000000000000000000000000000000000000000008152600401611cd590612dd2565b60405180910390fd5b6000808673ffffffffffffffffffffffffffffffffffffffff168587604051611d079190612e39565b60006040518083038185875af1925050503d8060008114611d44576040519150601f19603f3d011682016040523d82523d6000602084013e611d49565b606091505b5091509150611d59828286611d78565b92505050949350505050565b600080823b905060008111915050919050565b60608315611d8857829050611dd8565b600083511115611d9b5782518084602001fd5b816040517f08c379a0000000000000000000000000000000000000000000000000000000008152600401611dcf9190611f6a565b60405180910390fd5b9392505050565b6000604051905090565b600080fd5b600080fd5b600073ffffffffffffffffffffffffffffffffffffffff82169050919050565b6000611e1e82611df3565b9050919050565b611e2e81611e13565b8114611e3957600080fd5b50565b600081359050611e4b81611e25565b92915050565b6000819050919050565b611e6481611e51565b8114611e6f57600080fd5b50565b600081359050611e8181611e5b565b92915050565b600080600060608486031215611ea057611e9f611de9565b5b6000611eae86828701611e3c565b9350506020611ebf86828701611e3c565b9250506040611ed086828701611e72565b9150509250925092565b600081519050919050565b600082825260208201905092915050565b60005b83811015611f14578082015181840152602081019050611ef9565b60008484015250505050565b6000601f19601f8301169050919050565b6000611f3c82611eda565b611f468185611ee5565b9350611f56818560208601611ef6565b611f5f81611f20565b840191505092915050565b60006020820190508181036000830152611f848184611f31565b905092915050565b60008060408385031215611fa357611fa2611de9565b5b6000611fb185828601611e3c565b9250506020611fc285828601611e72565b9150509250929050565b60008115159050919050565b611fe181611fcc565b82525050565b6000602082019050611ffc6000830184611fd8565b92915050565b61200b81611e13565b82525050565b60006020820190506120266000830184612002565b92915050565b60006020828403121561204257612041611de9565b5b600061205084828501611e3c565b91505092915050565b61206281611e51565b82525050565b600060208201905061207d6000830184612059565b92915050565b600060ff82169050919050565b61209981612083565b82525050565b60006020820190506120b46000830184612090565b92915050565b600080604083850312156120d1576120d0611de9565b5b60006120df85828601611e3c565b92505060206120f085828601611e3c565b9150509250929050565b61210381611fcc565b811461210e57600080fd5b50565b600081359050612120816120fa565b92915050565b60006020828403121561213c5761213b611de9565b5b600061214a84828501612111565b91505092915050565b6000806040838503121561216a57612169611de9565b5b600061217885828601611e3c565b925050602061218985828601612111565b9150509250929050565b600080fd5b600080fd5b7f4e487b7100000000000000000000000000000000000000000000000000000000600052604160045260246000fd5b6121d582611f20565b810181811067ffffffffffffffff821117156121f4576121f361219d565b5b80604052505050565b6000612207611ddf565b905061221382826121cc565b919050565b600067ffffffffffffffff8211156122335761223261219d565b5b61223c82611f20565b9050602081019050919050565b82818337600083830152505050565b600061226b61226684612218565b6121fd565b90508281526020810184848401111561228757612286612198565b5b612292848285612249565b509392505050565b600082601f8301126122af576122ae612193565b5b81356122bf848260208601612258565b91505092915050565b600080604083850312156122df576122de611de9565b5b600083013567ffffffffffffffff8111156122fd576122fc611dee565b5b6123098582860161229a565b925050602083013567ffffffffffffffff81111561232a57612329611dee565b5b6123368582860161229a565b9150509250929050565b7f42617365546f6b656e3a20666f7262696464656e000000000000000000000000600082015250565b6000612376601483611ee5565b915061238182612340565b602082019050919050565b600060208201905081810360008301526123a581612369565b9050919050565b7f4e487b7100000000000000000000000000000000000000000000000000000000600052602260045260246000fd5b600060028204905060018216806123f357607f821691505b602082108103612406576124056123ac565b5b50919050565b7f4d696e7461626c6542617365546f6b656e3a20666f7262696464656e00000000600082015250565b6000612442601c83611ee5565b915061244d8261240c565b602082019050919050565b6000602082019050818103600083015261247181612435565b9050919050565b60008190508160005260206000209050919050565b60006020601f8301049050919050565b600082821b905092915050565b6000600883026124da7fffffffffffffffffffffffffffffffffffffffffffffffffffffffffffffffff8261249d565b6124e4868361249d565b95508019841693508086168417925050509392505050565b6000819050919050565b600061252161251c61251784611e51565b6124fc565b611e51565b9050919050565b6000819050919050565b61253b83612506565b61254f61254782612528565b8484546124aa565b825550505050565b600090565b612564612557565b61256f818484612532565b505050565b5b818110156125935761258860008261255c565b600181019050612575565b5050565b601f8211156125d8576125a981612478565b6125b28461248d565b810160208510156125c1578190505b6125d56125cd8561248d565b830182612574565b50505b505050565b600082821c905092915050565b60006125fb600019846008026125dd565b1980831691505092915050565b600061261483836125ea565b9150826002028217905092915050565b61262d82611eda565b67ffffffffffffffff8111156126465761264561219d565b5b61265082546123db565b61265b828285612597565b600060209050601f83116001811461268e576000841561267c578287015190505b6126868582612608565b8655506126ee565b601f19841661269c86612478565b60005b828110156126c45784890151825560018201915060208501945060208101905061269f565b868310156126e157848901516126dd601f8916826125ea565b8355505b6001600288020188555050505b505050505050565b7f4e487b7100000000000000000000000000000000000000000000000000000000600052601160045260246000fd5b600061273082611e51565b915061273b83611e51565b9250828201905080821115612753576127526126f6565b5b92915050565b7f536166654d6174683a206164646974696f6e206f766572666c6f770000000000600082015250565b600061278f601b83611ee5565b915061279a82612759565b602082019050919050565b600060208201905081810360008301526127be81612782565b9050919050565b60006040820190506127da6000830185612002565b6127e76020830184612059565b9392505050565b7f42617365546f6b656e3a20617070726f76652066726f6d20746865207a65726f60008201527f2061646472657373000000000000000000000000000000000000000000000000602082015250565b600061284a602883611ee5565b9150612855826127ee565b604082019050919050565b600060208201905081810360008301526128798161283d565b9050919050565b7f42617365546f6b656e3a20617070726f766520746f20746865207a65726f206160008201527f6464726573730000000000000000000000000000000000000000000000000000602082015250565b60006128dc602683611ee5565b91506128e782612880565b604082019050919050565b6000602082019050818103600083015261290b816128cf565b9050919050565b7f42617365546f6b656e3a207472616e736665722066726f6d20746865207a657260008201527f6f20616464726573730000000000000000000000000000000000000000000000602082015250565b600061296e602983611ee5565b915061297982612912565b604082019050919050565b6000602082019050818103600083015261299d81612961565b9050919050565b7f42617365546f6b656e3a207472616e7366657220746f20746865207a65726f2060008201527f6164647265737300000000000000000000000000000000000000000000000000602082015250565b6000612a00602783611ee5565b9150612a0b826129a4565b604082019050919050565b60006020820190508181036000830152612a2f816129f3565b9050919050565b7f42617365546f6b656e3a206d73672e73656e646572206e6f742077686974656c60008201527f6973746564000000000000000000000000000000000000000000000000000000602082015250565b6000612a92602583611ee5565b9150612a9d82612a36565b604082019050919050565b60006020820190508181036000830152612ac181612a85565b9050919050565b6000612ad382611e51565b9150612ade83611e51565b9250828203905081811115612af657612af56126f6565b5b92915050565b7f42617365546f6b656e3a206d696e7420746f20746865207a65726f206164647260008201527f6573730000000000000000000000000000000000000000000000000000000000602082015250565b6000612b58602383611ee5565b9150612b6382612afc565b604082019050919050565b60006020820190508181036000830152612b8781612b4b565b9050919050565b7f42617365546f6b656e3a206275726e2066726f6d20746865207a65726f20616460008201527f6472657373000000000000000000000000000000000000000000000000000000602082015250565b6000612bea602583611ee5565b9150612bf582612b8e565b604082019050919050565b60006020820190508181036000830152612c1981612bdd565b9050919050565b600081519050612c2f816120fa565b92915050565b600060208284031215612c4b57612c4a611de9565b5b6000612c5984828501612c20565b91505092915050565b7f5361666545524332303a204552433230206f7065726174696f6e20646964206e60008201527f6f74207375636365656400000000000000000000000000000000000000000000602082015250565b6000612cbe602a83611ee5565b9150612cc982612c62565b604082019050919050565b60006020820190508181036000830152612ced81612cb1565b9050919050565b7f416464726573733a20696e73756666696369656e742062616c616e636520666f60008201527f722063616c6c0000000000000000000000000000000000000000000000000000602082015250565b6000612d50602683611ee5565b9150612d5b82612cf4565b604082019050919050565b60006020820190508181036000830152612d7f81612d43565b9050919050565b7f416464726573733a2063616c6c20746f206e6f6e2d636f6e7472616374000000600082015250565b6000612dbc601d83611ee5565b9150612dc782612d86565b602082019050919050565b60006020820190508181036000830152612deb81612daf565b9050919050565b600081519050919050565b600081905092915050565b6000612e1382612df2565b612e1d8185612dfd565b9350612e2d818560208601611ef6565b80840191505092915050565b6000612e458284612e08565b91508190509291505056fe42617365546f6b656e3a207472616e7366657220616d6f756e74206578636565647320616c6c6f77616e636542617365546f6b656e3a207472616e7366657220616d6f756e7420657863656564732062616c616e636542617365546f6b656e3a206275726e20616d6f756e7420657863656564732062616c616e6365a2646970667358221220152f0d3352e69a8b50b387620982d9666393e1d513ea2fcaff83bf9c303a2a5264736f6c63430008110033","opcodes":"PUSH1 0x80 PUSH1 0x40 MSTORE CALLVALUE DUP1 ISZERO PUSH3 0x11 JUMPI PUSH1 0x0 DUP1 REVERT JUMPDEST POP PUSH1 0x40 MLOAD DUP1 PUSH1 0x40 ADD PUSH1 0x40 MSTORE DUP1 PUSH1 0x7 DUP2 MSTORE PUSH1 0x20 ADD PUSH32 0x4B757275204C5000000000000000000000000000000000000000000000000000 DUP2 MSTORE POP PUSH1 0x40 MLOAD DUP1 PUSH1 0x40 ADD PUSH1 0x40 MSTORE DUP1 PUSH1 0x3 DUP2 MSTORE PUSH1 0x20 ADD PUSH32 0x4B4C500000000000000000000000000000000000000000000000000000000000 DUP2 MSTORE POP PUSH1 0x0 DUP3 DUP3 DUP3 DUP3 PUSH1 0x0 SWAP1 DUP2 PUSH3 0x94 SWAP2 SWAP1 PUSH3 0x57F JUMP JUMPDEST POP DUP2 PUSH1 0x1 SWAP1 DUP2 PUSH3 0xA6 SWAP2 SWAP1 PUSH3 0x57F JUMP JUMPDEST POP CALLER PUSH1 0x3 PUSH1 0x0 PUSH2 0x100 EXP DUP2 SLOAD DUP2 PUSH20 0xFFFFFFFFFFFFFFFFFFFFFFFFFFFFFFFFFFFFFFFF MUL NOT AND SWAP1 DUP4 PUSH20 0xFFFFFFFFFFFFFFFFFFFFFFFFFFFFFFFFFFFFFFFF AND MUL OR SWAP1 SSTORE POP PUSH3 0xFA CALLER DUP3 PUSH3 0x106 PUSH1 0x20 SHL PUSH1 0x20 SHR JUMP JUMPDEST POP POP POP POP POP POP PUSH3 0x819 JUMP JUMPDEST PUSH1 0x0 PUSH20 0xFFFFFFFFFFFFFFFFFFFFFFFFFFFFFFFFFFFFFFFF AND DUP3 PUSH20 0xFFFFFFFFFFFFFFFFFFFFFFFFFFFFFFFFFFFFFFFF AND SUB PUSH3 0x178 JUMPI PUSH1 0x40 MLOAD PUSH32 0x8C379A000000000000000000000000000000000000000000000000000000000 DUP2 MSTORE PUSH1 0x4 ADD PUSH3 0x16F SWAP1 PUSH3 0x6ED JUMP JUMPDEST PUSH1 0x40 MLOAD DUP1 SWAP2 SUB SWAP1 REVERT JUMPDEST PUSH3 0x194 DUP2 PUSH1 0x2 SLOAD PUSH3 0x2A2 PUSH1 0x20 SHL PUSH3 0x11BD OR SWAP1 SWAP2 SWAP1 PUSH1 0x20 SHR JUMP JUMPDEST PUSH1 0x2 DUP2 SWAP1 SSTORE POP PUSH3 0x1F3 DUP2 PUSH1 0x4 PUSH1 0x0 DUP6 PUSH20 0xFFFFFFFFFFFFFFFFFFFFFFFFFFFFFFFFFFFFFFFF AND PUSH20 0xFFFFFFFFFFFFFFFFFFFFFFFFFFFFFFFFFFFFFFFF AND DUP2 MSTORE PUSH1 0x20 ADD SWAP1 DUP2 MSTORE PUSH1 0x20 ADD PUSH1 0x0 KECCAK256 SLOAD PUSH3 0x2A2 PUSH1 0x20 SHL PUSH3 0x11BD OR SWAP1 SWAP2 SWAP1 PUSH1 0x20 SHR JUMP JUMPDEST PUSH1 0x4 PUSH1 0x0 DUP5 PUSH20 0xFFFFFFFFFFFFFFFFFFFFFFFFFFFFFFFFFFFFFFFF AND PUSH20 0xFFFFFFFFFFFFFFFFFFFFFFFFFFFFFFFFFFFFFFFF AND DUP2 MSTORE PUSH1 0x20 ADD SWAP1 DUP2 MSTORE PUSH1 0x20 ADD PUSH1 0x0 KECCAK256 DUP2 SWAP1 SSTORE POP DUP2 PUSH20 0xFFFFFFFFFFFFFFFFFFFFFFFFFFFFFFFFFFFFFFFF AND PUSH1 0x0 PUSH20 0xFFFFFFFFFFFFFFFFFFFFFFFFFFFFFFFFFFFFFFFF AND PUSH32 0xDDF252AD1BE2C89B69C2B068FC378DAA952BA7F163C4A11628F55A4DF523B3EF DUP4 PUSH1 0x40 MLOAD PUSH3 0x296 SWAP2 SWAP1 PUSH3 0x720 JUMP JUMPDEST PUSH1 0x40 MLOAD DUP1 SWAP2 SUB SWAP1 LOG3 POP POP JUMP JUMPDEST PUSH1 0x0 DUP1 DUP3 DUP5 PUSH3 0x2B3 SWAP2 SWAP1 PUSH3 0x76C JUMP JUMPDEST SWAP1 POP DUP4 DUP2 LT ISZERO PUSH3 0x2FB JUMPI PUSH1 0x40 MLOAD PUSH32 0x8C379A000000000000000000000000000000000000000000000000000000000 DUP2 MSTORE PUSH1 0x4 ADD PUSH3 0x2F2 SWAP1 PUSH3 0x7F7 JUMP JUMPDEST PUSH1 0x40 MLOAD DUP1 SWAP2 SUB SWAP1 REVERT JUMPDEST DUP1 SWAP2 POP POP SWAP3 SWAP2 POP POP JUMP JUMPDEST PUSH1 0x0 DUP2 MLOAD SWAP1 POP SWAP2 SWAP1 POP JUMP JUMPDEST PUSH32 0x4E487B7100000000000000000000000000000000000000000000000000000000 PUSH1 0x0 MSTORE PUSH1 0x41 PUSH1 0x4 MSTORE PUSH1 0x24 PUSH1 0x0 REVERT JUMPDEST PUSH32 0x4E487B7100000000000000000000000000000000000000000000000000000000 PUSH1 0x0 MSTORE PUSH1 0x22 PUSH1 0x4 MSTORE PUSH1 0x24 PUSH1 0x0 REVERT JUMPDEST PUSH1 0x0 PUSH1 0x2 DUP3 DIV SWAP1 POP PUSH1 0x1 DUP3 AND DUP1 PUSH3 0x387 JUMPI PUSH1 0x7F DUP3 AND SWAP2 POP JUMPDEST PUSH1 0x20 DUP3 LT DUP2 SUB PUSH3 0x39D JUMPI PUSH3 0x39C PUSH3 0x33F JUMP JUMPDEST JUMPDEST POP SWAP2 SWAP1 POP JUMP JUMPDEST PUSH1 0x0 DUP2 SWAP1 POP DUP2 PUSH1 0x0 MSTORE PUSH1 0x20 PUSH1 0x0 KECCAK256 SWAP1 POP SWAP2 SWAP1 POP JUMP JUMPDEST PUSH1 0x0 PUSH1 0x20 PUSH1 0x1F DUP4 ADD DIV SWAP1 POP SWAP2 SWAP1 POP JUMP JUMPDEST PUSH1 0x0 DUP3 DUP3 SHL SWAP1 POP SWAP3 SWAP2 POP POP JUMP JUMPDEST PUSH1 0x0 PUSH1 0x8 DUP4 MUL PUSH3 0x407 PUSH32 0xFFFFFFFFFFFFFFFFFFFFFFFFFFFFFFFFFFFFFFFFFFFFFFFFFFFFFFFFFFFFFFFF DUP3 PUSH3 0x3C8 JUMP JUMPDEST PUSH3 0x413 DUP7 DUP4 PUSH3 0x3C8 JUMP JUMPDEST SWAP6 POP DUP1 NOT DUP5 AND SWAP4 POP DUP1 DUP7 AND DUP5 OR SWAP3 POP POP POP SWAP4 SWAP3 POP POP POP JUMP JUMPDEST PUSH1 0x0 DUP2 SWAP1 POP SWAP2 SWAP1 POP JUMP JUMPDEST PUSH1 0x0 DUP2 SWAP1 POP SWAP2 SWAP1 POP JUMP JUMPDEST PUSH1 0x0 PUSH3 0x460 PUSH3 0x45A PUSH3 0x454 DUP5 PUSH3 0x42B JUMP JUMPDEST PUSH3 0x435 JUMP JUMPDEST PUSH3 0x42B JUMP JUMPDEST SWAP1 POP SWAP2 SWAP1 POP JUMP JUMPDEST PUSH1 0x0 DUP2 SWAP1 POP SWAP2 SWAP1 POP JUMP JUMPDEST PUSH3 0x47C DUP4 PUSH3 0x43F JUMP JUMPDEST PUSH3 0x494 PUSH3 0x48B DUP3 PUSH3 0x467 JUMP JUMPDEST DUP5 DUP5 SLOAD PUSH3 0x3D5 JUMP JUMPDEST DUP3 SSTORE POP POP POP POP JUMP JUMPDEST PUSH1 0x0 SWAP1 JUMP JUMPDEST PUSH3 0x4AB PUSH3 0x49C JUMP JUMPDEST PUSH3 0x4B8 DUP2 DUP5 DUP5 PUSH3 0x471 JUMP JUMPDEST POP POP POP JUMP JUMPDEST JUMPDEST DUP2 DUP2 LT ISZERO PUSH3 0x4E0 JUMPI PUSH3 0x4D4 PUSH1 0x0 DUP3 PUSH3 0x4A1 JUMP JUMPDEST PUSH1 0x1 DUP2 ADD SWAP1 POP PUSH3 0x4BE JUMP JUMPDEST POP POP JUMP JUMPDEST PUSH1 0x1F DUP3 GT ISZERO PUSH3 0x52F JUMPI PUSH3 0x4F9 DUP2 PUSH3 0x3A3 JUMP JUMPDEST PUSH3 0x504 DUP5 PUSH3 0x3B8 JUMP JUMPDEST DUP2 ADD PUSH1 0x20 DUP6 LT ISZERO PUSH3 0x514 JUMPI DUP2 SWAP1 POP JUMPDEST PUSH3 0x52C PUSH3 0x523 DUP6 PUSH3 0x3B8 JUMP JUMPDEST DUP4 ADD DUP3 PUSH3 0x4BD JUMP JUMPDEST POP POP JUMPDEST POP POP POP JUMP JUMPDEST PUSH1 0x0 DUP3 DUP3 SHR SWAP1 POP SWAP3 SWAP2 POP POP JUMP JUMPDEST PUSH1 0x0 PUSH3 0x554 PUSH1 0x0 NOT DUP5 PUSH1 0x8 MUL PUSH3 0x534 JUMP JUMPDEST NOT DUP1 DUP4 AND SWAP2 POP POP SWAP3 SWAP2 POP POP JUMP JUMPDEST PUSH1 0x0 PUSH3 0x56F DUP4 DUP4 PUSH3 0x541 JUMP JUMPDEST SWAP2 POP DUP3 PUSH1 0x2 MUL DUP3 OR SWAP1 POP SWAP3 SWAP2 POP POP JUMP JUMPDEST PUSH3 0x58A DUP3 PUSH3 0x305 JUMP JUMPDEST PUSH8 0xFFFFFFFFFFFFFFFF DUP2 GT ISZERO PUSH3 0x5A6 JUMPI PUSH3 0x5A5 PUSH3 0x310 JUMP JUMPDEST JUMPDEST PUSH3 0x5B2 DUP3 SLOAD PUSH3 0x36E JUMP JUMPDEST PUSH3 0x5BF DUP3 DUP3 DUP6 PUSH3 0x4E4 JUMP JUMPDEST PUSH1 0x0 PUSH1 0x20 SWAP1 POP PUSH1 0x1F DUP4 GT PUSH1 0x1 DUP2 EQ PUSH3 0x5F7 JUMPI PUSH1 0x0 DUP5 ISZERO PUSH3 0x5E2 JUMPI DUP3 DUP8 ADD MLOAD SWAP1 POP JUMPDEST PUSH3 0x5EE DUP6 DUP3 PUSH3 0x561 JUMP JUMPDEST DUP7 SSTORE POP PUSH3 0x65E JUMP JUMPDEST PUSH1 0x1F NOT DUP5 AND PUSH3 0x607 DUP7 PUSH3 0x3A3 JUMP JUMPDEST PUSH1 0x0 JUMPDEST DUP3 DUP2 LT ISZERO PUSH3 0x631 JUMPI DUP5 DUP10 ADD MLOAD DUP3 SSTORE PUSH1 0x1 DUP3 ADD SWAP2 POP PUSH1 0x20 DUP6 ADD SWAP5 POP PUSH1 0x20 DUP2 ADD SWAP1 POP PUSH3 0x60A JUMP JUMPDEST DUP7 DUP4 LT ISZERO PUSH3 0x651 JUMPI DUP5 DUP10 ADD MLOAD PUSH3 0x64D PUSH1 0x1F DUP10 AND DUP3 PUSH3 0x541 JUMP JUMPDEST DUP4 SSTORE POP JUMPDEST PUSH1 0x1 PUSH1 0x2 DUP9 MUL ADD DUP9 SSTORE POP POP POP JUMPDEST POP POP POP POP POP POP JUMP JUMPDEST PUSH1 0x0 DUP3 DUP3 MSTORE PUSH1 0x20 DUP3 ADD SWAP1 POP SWAP3 SWAP2 POP POP JUMP JUMPDEST PUSH32 0x42617365546F6B656E3A206D696E7420746F20746865207A65726F2061646472 PUSH1 0x0 DUP3 ADD MSTORE PUSH32 0x6573730000000000000000000000000000000000000000000000000000000000 PUSH1 0x20 DUP3 ADD MSTORE POP JUMP JUMPDEST PUSH1 0x0 PUSH3 0x6D5 PUSH1 0x23 DUP4 PUSH3 0x666 JUMP JUMPDEST SWAP2 POP PUSH3 0x6E2 DUP3 PUSH3 0x677 JUMP JUMPDEST PUSH1 0x40 DUP3 ADD SWAP1 POP SWAP2 SWAP1 POP JUMP JUMPDEST PUSH1 0x0 PUSH1 0x20 DUP3 ADD SWAP1 POP DUP2 DUP2 SUB PUSH1 0x0 DUP4 ADD MSTORE PUSH3 0x708 DUP2 PUSH3 0x6C6 JUMP JUMPDEST SWAP1 POP SWAP2 SWAP1 POP JUMP JUMPDEST PUSH3 0x71A DUP2 PUSH3 0x42B JUMP JUMPDEST DUP3 MSTORE POP POP JUMP JUMPDEST PUSH1 0x0 PUSH1 0x20 DUP3 ADD SWAP1 POP PUSH3 0x737 PUSH1 0x0 DUP4 ADD DUP5 PUSH3 0x70F JUMP JUMPDEST SWAP3 SWAP2 POP POP JUMP JUMPDEST PUSH32 0x4E487B7100000000000000000000000000000000000000000000000000000000 PUSH1 0x0 MSTORE PUSH1 0x11 PUSH1 0x4 MSTORE PUSH1 0x24 PUSH1 0x0 REVERT JUMPDEST PUSH1 0x0 PUSH3 0x779 DUP3 PUSH3 0x42B JUMP JUMPDEST SWAP2 POP PUSH3 0x786 DUP4 PUSH3 0x42B JUMP JUMPDEST SWAP3 POP DUP3 DUP3 ADD SWAP1 POP DUP1 DUP3 GT ISZERO PUSH3 0x7A1 JUMPI PUSH3 0x7A0 PUSH3 0x73D JUMP JUMPDEST JUMPDEST SWAP3 SWAP2 POP POP JUMP JUMPDEST PUSH32 0x536166654D6174683A206164646974696F6E206F766572666C6F770000000000 PUSH1 0x0 DUP3 ADD MSTORE POP JUMP JUMPDEST PUSH1 0x0 PUSH3 0x7DF PUSH1 0x1B DUP4 PUSH3 0x666 JUMP JUMPDEST SWAP2 POP PUSH3 0x7EC DUP3 PUSH3 0x7A7 JUMP JUMPDEST PUSH1 0x20 DUP3 ADD SWAP1 POP SWAP2 SWAP1 POP JUMP JUMPDEST PUSH1 0x0 PUSH1 0x20 DUP3 ADD SWAP1 POP DUP2 DUP2 SUB PUSH1 0x0 DUP4 ADD MSTORE PUSH3 0x812 DUP2 PUSH3 0x7D0 JUMP JUMPDEST SWAP1 POP SWAP2 SWAP1 POP JUMP JUMPDEST PUSH2 0x2F02 DUP1 PUSH3 0x829 PUSH1 0x0 CODECOPY PUSH1 0x0 RETURN INVALID PUSH1 0x80 PUSH1 0x40 MSTORE CALLVALUE DUP1 ISZERO PUSH2 0x10 JUMPI PUSH1 0x0 DUP1 REVERT JUMPDEST POP PUSH1 0x4 CALLDATASIZE LT PUSH2 0x1A9 JUMPI PUSH1 0x0 CALLDATALOAD PUSH1 0xE0 SHR DUP1 PUSH4 0x5A47A1A7 GT PUSH2 0xF9 JUMPI DUP1 PUSH4 0xA923FC40 GT PUSH2 0x97 JUMPI DUP1 PUSH4 0xCF456AE7 GT PUSH2 0x71 JUMPI DUP1 PUSH4 0xCF456AE7 EQ PUSH2 0x4F2 JUMPI DUP1 PUSH4 0xCFAD57A2 EQ PUSH2 0x50E JUMPI DUP1 PUSH4 0xDD62ED3E EQ PUSH2 0x52A JUMPI DUP1 PUSH4 0xDFBAEFB1 EQ PUSH2 0x55A JUMPI PUSH2 0x1A9 JUMP JUMPDEST DUP1 PUSH4 0xA923FC40 EQ PUSH2 0x488 JUMPI DUP1 PUSH4 0xAA271E1A EQ PUSH2 0x4A4 JUMPI DUP1 PUSH4 0xAF640D0F EQ PUSH2 0x4D4 JUMPI PUSH2 0x1A9 JUMP JUMPDEST DUP1 PUSH4 0x95D89B41 GT PUSH2 0xD3 JUMPI DUP1 PUSH4 0x95D89B41 EQ PUSH2 0x402 JUMPI DUP1 PUSH4 0x9CB7DE4B EQ PUSH2 0x420 JUMPI DUP1 PUSH4 0x9DC29FAC EQ PUSH2 0x43C JUMPI DUP1 PUSH4 0xA9059CBB EQ PUSH2 0x458 JUMPI PUSH2 0x1A9 JUMP JUMPDEST DUP1 PUSH4 0x5A47A1A7 EQ PUSH2 0x39A JUMPI DUP1 PUSH4 0x70480275 EQ PUSH2 0x3B6 JUMPI DUP1 PUSH4 0x70A08231 EQ PUSH2 0x3D2 JUMPI PUSH2 0x1A9 JUMP JUMPDEST DUP1 PUSH4 0x23B872DD GT PUSH2 0x166 JUMPI DUP1 PUSH4 0x40C10F19 GT PUSH2 0x140 JUMPI DUP1 PUSH4 0x40C10F19 EQ PUSH2 0x2EE JUMPI DUP1 PUSH4 0x429B62E5 EQ PUSH2 0x30A JUMPI DUP1 PUSH4 0x46EA87AF EQ PUSH2 0x33A JUMPI DUP1 PUSH4 0x55B6ED5C EQ PUSH2 0x36A JUMPI PUSH2 0x1A9 JUMP JUMPDEST DUP1 PUSH4 0x23B872DD EQ PUSH2 0x270 JUMPI DUP1 PUSH4 0x27E235E3 EQ PUSH2 0x2A0 JUMPI DUP1 PUSH4 0x313CE567 EQ PUSH2 0x2D0 JUMPI PUSH2 0x1A9 JUMP JUMPDEST DUP1 PUSH4 0x1E33667 EQ PUSH2 0x1AE JUMPI DUP1 PUSH4 0x6FDDE03 EQ PUSH2 0x1CA JUMPI DUP1 PUSH4 0x95EA7B3 EQ PUSH2 0x1E8 JUMPI DUP1 PUSH4 0x12D43A51 EQ PUSH2 0x218 JUMPI DUP1 PUSH4 0x1785F53C EQ PUSH2 0x236 JUMPI DUP1 PUSH4 0x18160DDD EQ PUSH2 0x252 JUMPI JUMPDEST PUSH1 0x0 DUP1 REVERT JUMPDEST PUSH2 0x1C8 PUSH1 0x4 DUP1 CALLDATASIZE SUB DUP2 ADD SWAP1 PUSH2 0x1C3 SWAP2 SWAP1 PUSH2 0x1E87 JUMP JUMPDEST PUSH2 0x578 JUMP JUMPDEST STOP JUMPDEST PUSH2 0x1D2 PUSH2 0x638 JUMP JUMPDEST PUSH1 0x40 MLOAD PUSH2 0x1DF SWAP2 SWAP1 PUSH2 0x1F6A JUMP JUMPDEST PUSH1 0x40 MLOAD DUP1 SWAP2 SUB SWAP1 RETURN JUMPDEST PUSH2 0x202 PUSH1 0x4 DUP1 CALLDATASIZE SUB DUP2 ADD SWAP1 PUSH2 0x1FD SWAP2 SWAP1 PUSH2 0x1F8C JUMP JUMPDEST PUSH2 0x6C6 JUMP JUMPDEST PUSH1 0x40 MLOAD PUSH2 0x20F SWAP2 SWAP1 PUSH2 0x1FE7 JUMP JUMPDEST PUSH1 0x40 MLOAD DUP1 SWAP2 SUB SWAP1 RETURN JUMPDEST PUSH2 0x220 PUSH2 0x6DD JUMP JUMPDEST PUSH1 0x40 MLOAD PUSH2 0x22D SWAP2 SWAP1 PUSH2 0x2011 JUMP JUMPDEST PUSH1 0x40 MLOAD DUP1 SWAP2 SUB SWAP1 RETURN JUMPDEST PUSH2 0x250 PUSH1 0x4 DUP1 CALLDATASIZE SUB DUP2 ADD SWAP1 PUSH2 0x24B SWAP2 SWAP1 PUSH2 0x202C JUMP JUMPDEST PUSH2 0x703 JUMP JUMPDEST STOP JUMPDEST PUSH2 0x25A PUSH2 0x7EE JUMP JUMPDEST PUSH1 0x40 MLOAD PUSH2 0x267 SWAP2 SWAP1 PUSH2 0x2068 JUMP JUMPDEST PUSH1 0x40 MLOAD DUP1 SWAP2 SUB SWAP1 RETURN JUMPDEST PUSH2 0x28A PUSH1 0x4 DUP1 CALLDATASIZE SUB DUP2 ADD SWAP1 PUSH2 0x285 SWAP2 SWAP1 PUSH2 0x1E87 JUMP JUMPDEST PUSH2 0x7F4 JUMP JUMPDEST PUSH1 0x40 MLOAD PUSH2 0x297 SWAP2 SWAP1 PUSH2 0x1FE7 JUMP JUMPDEST PUSH1 0x40 MLOAD DUP1 SWAP2 SUB SWAP1 RETURN JUMPDEST PUSH2 0x2BA PUSH1 0x4 DUP1 CALLDATASIZE SUB DUP2 ADD SWAP1 PUSH2 0x2B5 SWAP2 SWAP1 PUSH2 0x202C JUMP JUMPDEST PUSH2 0x92C JUMP JUMPDEST PUSH1 0x40 MLOAD PUSH2 0x2C7 SWAP2 SWAP1 PUSH2 0x2068 JUMP JUMPDEST PUSH1 0x40 MLOAD DUP1 SWAP2 SUB SWAP1 RETURN JUMPDEST PUSH2 0x2D8 PUSH2 0x944 JUMP JUMPDEST PUSH1 0x40 MLOAD PUSH2 0x2E5 SWAP2 SWAP1 PUSH2 0x209F JUMP JUMPDEST PUSH1 0x40 MLOAD DUP1 SWAP2 SUB SWAP1 RETURN JUMPDEST PUSH2 0x308 PUSH1 0x4 DUP1 CALLDATASIZE SUB DUP2 ADD SWAP1 PUSH2 0x303 SWAP2 SWAP1 PUSH2 0x1F8C JUMP JUMPDEST PUSH2 0x949 JUMP JUMPDEST STOP JUMPDEST PUSH2 0x324 PUSH1 0x4 DUP1 CALLDATASIZE SUB DUP2 ADD SWAP1 PUSH2 0x31F SWAP2 SWAP1 PUSH2 0x202C JUMP JUMPDEST PUSH2 0x9E3 JUMP JUMPDEST PUSH1 0x40 MLOAD PUSH2 0x331 SWAP2 SWAP1 PUSH2 0x1FE7 JUMP JUMPDEST PUSH1 0x40 MLOAD DUP1 SWAP2 SUB SWAP1 RETURN JUMPDEST PUSH2 0x354 PUSH1 0x4 DUP1 CALLDATASIZE SUB DUP2 ADD SWAP1 PUSH2 0x34F SWAP2 SWAP1 PUSH2 0x202C JUMP JUMPDEST PUSH2 0xA03 JUMP JUMPDEST PUSH1 0x40 MLOAD PUSH2 0x361 SWAP2 SWAP1 PUSH2 0x1FE7 JUMP JUMPDEST PUSH1 0x40 MLOAD DUP1 SWAP2 SUB SWAP1 RETURN JUMPDEST PUSH2 0x384 PUSH1 0x4 DUP1 CALLDATASIZE SUB DUP2 ADD SWAP1 PUSH2 0x37F SWAP2 SWAP1 PUSH2 0x20BA JUMP JUMPDEST PUSH2 0xA23 JUMP JUMPDEST PUSH1 0x40 MLOAD PUSH2 0x391 SWAP2 SWAP1 PUSH2 0x2068 JUMP JUMPDEST PUSH1 0x40 MLOAD DUP1 SWAP2 SUB SWAP1 RETURN JUMPDEST PUSH2 0x3B4 PUSH1 0x4 DUP1 CALLDATASIZE SUB DUP2 ADD SWAP1 PUSH2 0x3AF SWAP2 SWAP1 PUSH2 0x2126 JUMP JUMPDEST PUSH2 0xA48 JUMP JUMPDEST STOP JUMPDEST PUSH2 0x3D0 PUSH1 0x4 DUP1 CALLDATASIZE SUB DUP2 ADD SWAP1 PUSH2 0x3CB SWAP2 SWAP1 PUSH2 0x202C JUMP JUMPDEST PUSH2 0xAF5 JUMP JUMPDEST STOP JUMPDEST PUSH2 0x3EC PUSH1 0x4 DUP1 CALLDATASIZE SUB DUP2 ADD SWAP1 PUSH2 0x3E7 SWAP2 SWAP1 PUSH2 0x202C JUMP JUMPDEST PUSH2 0xBE0 JUMP JUMPDEST PUSH1 0x40 MLOAD PUSH2 0x3F9 SWAP2 SWAP1 PUSH2 0x2068 JUMP JUMPDEST PUSH1 0x40 MLOAD DUP1 SWAP2 SUB SWAP1 RETURN JUMPDEST PUSH2 0x40A PUSH2 0xC29 JUMP JUMPDEST PUSH1 0x40 MLOAD PUSH2 0x417 SWAP2 SWAP1 PUSH2 0x1F6A JUMP JUMPDEST PUSH1 0x40 MLOAD DUP1 SWAP2 SUB SWAP1 RETURN JUMPDEST PUSH2 0x43A PUSH1 0x4 DUP1 CALLDATASIZE SUB DUP2 ADD SWAP1 PUSH2 0x435 SWAP2 SWAP1 PUSH2 0x2153 JUMP JUMPDEST PUSH2 0xCB7 JUMP JUMPDEST STOP JUMPDEST PUSH2 0x456 PUSH1 0x4 DUP1 CALLDATASIZE SUB DUP2 ADD SWAP1 PUSH2 0x451 SWAP2 SWAP1 PUSH2 0x1F8C JUMP JUMPDEST PUSH2 0xDA2 JUMP JUMPDEST STOP JUMPDEST PUSH2 0x472 PUSH1 0x4 DUP1 CALLDATASIZE SUB DUP2 ADD SWAP1 PUSH2 0x46D SWAP2 SWAP1 PUSH2 0x1F8C JUMP JUMPDEST PUSH2 0xE3C JUMP JUMPDEST PUSH1 0x40 MLOAD PUSH2 0x47F SWAP2 SWAP1 PUSH2 0x1FE7 JUMP JUMPDEST PUSH1 0x40 MLOAD DUP1 SWAP2 SUB SWAP1 RETURN JUMPDEST PUSH2 0x4A2 PUSH1 0x4 DUP1 CALLDATASIZE SUB DUP2 ADD SWAP1 PUSH2 0x49D SWAP2 SWAP1 PUSH2 0x22C8 JUMP JUMPDEST PUSH2 0xE53 JUMP JUMPDEST STOP JUMPDEST PUSH2 0x4BE PUSH1 0x4 DUP1 CALLDATASIZE SUB DUP2 ADD SWAP1 PUSH2 0x4B9 SWAP2 SWAP1 PUSH2 0x202C JUMP JUMPDEST PUSH2 0xF07 JUMP JUMPDEST PUSH1 0x40 MLOAD PUSH2 0x4CB SWAP2 SWAP1 PUSH2 0x1FE7 JUMP JUMPDEST PUSH1 0x40 MLOAD DUP1 SWAP2 SUB SWAP1 RETURN JUMPDEST PUSH2 0x4DC PUSH2 0xF27 JUMP JUMPDEST PUSH1 0x40 MLOAD PUSH2 0x4E9 SWAP2 SWAP1 PUSH2 0x1F6A JUMP JUMPDEST PUSH1 0x40 MLOAD DUP1 SWAP2 SUB SWAP1 RETURN JUMPDEST PUSH2 0x50C PUSH1 0x4 DUP1 CALLDATASIZE SUB DUP2 ADD SWAP1 PUSH2 0x507 SWAP2 SWAP1 PUSH2 0x2153 JUMP JUMPDEST PUSH2 0xF64 JUMP JUMPDEST STOP JUMPDEST PUSH2 0x528 PUSH1 0x4 DUP1 CALLDATASIZE SUB DUP2 ADD SWAP1 PUSH2 0x523 SWAP2 SWAP1 PUSH2 0x202C JUMP JUMPDEST PUSH2 0x104F JUMP JUMPDEST STOP JUMPDEST PUSH2 0x544 PUSH1 0x4 DUP1 CALLDATASIZE SUB DUP2 ADD SWAP1 PUSH2 0x53F SWAP2 SWAP1 PUSH2 0x20BA JUMP JUMPDEST PUSH2 0x1123 JUMP JUMPDEST PUSH1 0x40 MLOAD PUSH2 0x551 SWAP2 SWAP1 PUSH2 0x2068 JUMP JUMPDEST PUSH1 0x40 MLOAD DUP1 SWAP2 SUB SWAP1 RETURN JUMPDEST PUSH2 0x562 PUSH2 0x11AA JUMP JUMPDEST PUSH1 0x40 MLOAD PUSH2 0x56F SWAP2 SWAP1 PUSH2 0x1FE7 JUMP JUMPDEST PUSH1 0x40 MLOAD DUP1 SWAP2 SUB SWAP1 RETURN JUMPDEST PUSH1 0x3 PUSH1 0x0 SWAP1 SLOAD SWAP1 PUSH2 0x100 EXP SWAP1 DIV PUSH20 0xFFFFFFFFFFFFFFFFFFFFFFFFFFFFFFFFFFFFFFFF AND PUSH20 0xFFFFFFFFFFFFFFFFFFFFFFFFFFFFFFFFFFFFFFFF AND CALLER PUSH20 0xFFFFFFFFFFFFFFFFFFFFFFFFFFFFFFFFFFFFFFFF AND EQ PUSH2 0x608 JUMPI PUSH1 0x40 MLOAD PUSH32 0x8C379A000000000000000000000000000000000000000000000000000000000 DUP2 MSTORE PUSH1 0x4 ADD PUSH2 0x5FF SWAP1 PUSH2 0x238C JUMP JUMPDEST PUSH1 0x40 MLOAD DUP1 SWAP2 SUB SWAP1 REVERT JUMPDEST PUSH2 0x633 DUP3 DUP3 DUP6 PUSH20 0xFFFFFFFFFFFFFFFFFFFFFFFFFFFFFFFFFFFFFFFF AND PUSH2 0x121B SWAP1 SWAP3 SWAP2 SWAP1 PUSH4 0xFFFFFFFF AND JUMP JUMPDEST POP POP POP JUMP JUMPDEST PUSH1 0x0 DUP1 SLOAD PUSH2 0x645 SWAP1 PUSH2 0x23DB JUMP JUMPDEST DUP1 PUSH1 0x1F ADD PUSH1 0x20 DUP1 SWAP2 DIV MUL PUSH1 0x20 ADD PUSH1 0x40 MLOAD SWAP1 DUP2 ADD PUSH1 0x40 MSTORE DUP1 SWAP3 SWAP2 SWAP1 DUP2 DUP2 MSTORE PUSH1 0x20 ADD DUP3 DUP1 SLOAD PUSH2 0x671 SWAP1 PUSH2 0x23DB JUMP JUMPDEST DUP1 ISZERO PUSH2 0x6BE JUMPI DUP1 PUSH1 0x1F LT PUSH2 0x693 JUMPI PUSH2 0x100 DUP1 DUP4 SLOAD DIV MUL DUP4 MSTORE SWAP2 PUSH1 0x20 ADD SWAP2 PUSH2 0x6BE JUMP JUMPDEST DUP3 ADD SWAP2 SWAP1 PUSH1 0x0 MSTORE PUSH1 0x20 PUSH1 0x0 KECCAK256 SWAP1 JUMPDEST DUP2 SLOAD DUP2 MSTORE SWAP1 PUSH1 0x1 ADD SWAP1 PUSH1 0x20 ADD DUP1 DUP4 GT PUSH2 0x6A1 JUMPI DUP3 SWAP1 SUB PUSH1 0x1F AND DUP3 ADD SWAP2 JUMPDEST POP POP POP POP POP DUP2 JUMP JUMPDEST PUSH1 0x0 PUSH2 0x6D3 CALLER DUP5 DUP5 PUSH2 0x12A1 JUMP JUMPDEST PUSH1 0x1 SWAP1 POP SWAP3 SWAP2 POP POP JUMP JUMPDEST PUSH1 0x3 PUSH1 0x0 SWAP1 SLOAD SWAP1 PUSH2 0x100 EXP SWAP1 DIV PUSH20 0xFFFFFFFFFFFFFFFFFFFFFFFFFFFFFFFFFFFFFFFF AND DUP2 JUMP JUMPDEST PUSH1 0x3 PUSH1 0x0 SWAP1 SLOAD SWAP1 PUSH2 0x100 EXP SWAP1 DIV PUSH20 0xFFFFFFFFFFFFFFFFFFFFFFFFFFFFFFFFFFFFFFFF AND PUSH20 0xFFFFFFFFFFFFFFFFFFFFFFFFFFFFFFFFFFFFFFFF AND CALLER PUSH20 0xFFFFFFFFFFFFFFFFFFFFFFFFFFFFFFFFFFFFFFFF AND EQ PUSH2 0x793 JUMPI PUSH1 0x40 MLOAD PUSH32 0x8C379A000000000000000000000000000000000000000000000000000000000 DUP2 MSTORE PUSH1 0x4 ADD PUSH2 0x78A SWAP1 PUSH2 0x238C JUMP JUMPDEST PUSH1 0x40 MLOAD DUP1 SWAP2 SUB SWAP1 REVERT JUMPDEST PUSH1 0x0 PUSH1 0x6 PUSH1 0x0 DUP4 PUSH20 0xFFFFFFFFFFFFFFFFFFFFFFFFFFFFFFFFFFFFFFFF AND PUSH20 0xFFFFFFFFFFFFFFFFFFFFFFFFFFFFFFFFFFFFFFFF AND DUP2 MSTORE PUSH1 0x20 ADD SWAP1 DUP2 MSTORE PUSH1 0x20 ADD PUSH1 0x0 KECCAK256 PUSH1 0x0 PUSH2 0x100 EXP DUP2 SLOAD DUP2 PUSH1 0xFF MUL NOT AND SWAP1 DUP4 ISZERO ISZERO MUL OR SWAP1 SSTORE POP POP JUMP JUMPDEST PUSH1 0x2 SLOAD DUP2 JUMP JUMPDEST PUSH1 0x0 PUSH1 0x8 PUSH1 0x0 CALLER PUSH20 0xFFFFFFFFFFFFFFFFFFFFFFFFFFFFFFFFFFFFFFFF AND PUSH20 0xFFFFFFFFFFFFFFFFFFFFFFFFFFFFFFFFFFFFFFFF AND DUP2 MSTORE PUSH1 0x20 ADD SWAP1 DUP2 MSTORE PUSH1 0x20 ADD PUSH1 0x0 KECCAK256 PUSH1 0x0 SWAP1 SLOAD SWAP1 PUSH2 0x100 EXP SWAP1 DIV PUSH1 0xFF AND ISZERO PUSH2 0x85C JUMPI PUSH2 0x853 DUP5 DUP5 DUP5 PUSH2 0x146A JUMP JUMPDEST PUSH1 0x1 SWAP1 POP PUSH2 0x925 JUMP JUMPDEST PUSH1 0x0 PUSH2 0x907 DUP4 PUSH1 0x40 MLOAD DUP1 PUSH1 0x60 ADD PUSH1 0x40 MSTORE DUP1 PUSH1 0x2C DUP2 MSTORE PUSH1 0x20 ADD PUSH2 0x2E51 PUSH1 0x2C SWAP2 CODECOPY PUSH1 0x5 PUSH1 0x0 DUP10 PUSH20 0xFFFFFFFFFFFFFFFFFFFFFFFFFFFFFFFFFFFFFFFF AND PUSH20 0xFFFFFFFFFFFFFFFFFFFFFFFFFFFFFFFFFFFFFFFF AND DUP2 MSTORE PUSH1 0x20 ADD SWAP1 DUP2 MSTORE PUSH1 0x20 ADD PUSH1 0x0 KECCAK256 PUSH1 0x0 CALLER PUSH20 0xFFFFFFFFFFFFFFFFFFFFFFFFFFFFFFFFFFFFFFFF AND PUSH20 0xFFFFFFFFFFFFFFFFFFFFFFFFFFFFFFFFFFFFFFFF AND DUP2 MSTORE PUSH1 0x20 ADD SWAP1 DUP2 MSTORE PUSH1 0x20 ADD PUSH1 0x0 KECCAK256 SLOAD PUSH2 0x1798 SWAP1 SWAP3 SWAP2 SWAP1 PUSH4 0xFFFFFFFF AND JUMP JUMPDEST SWAP1 POP PUSH2 0x914 DUP6 CALLER DUP4 PUSH2 0x12A1 JUMP JUMPDEST PUSH2 0x91F DUP6 DUP6 DUP6 PUSH2 0x146A JUMP JUMPDEST PUSH1 0x1 SWAP2 POP POP JUMPDEST SWAP4 SWAP3 POP POP POP JUMP JUMPDEST PUSH1 0x4 PUSH1 0x20 MSTORE DUP1 PUSH1 0x0 MSTORE PUSH1 0x40 PUSH1 0x0 KECCAK256 PUSH1 0x0 SWAP2 POP SWAP1 POP SLOAD DUP2 JUMP JUMPDEST PUSH1 0x12 DUP2 JUMP JUMPDEST PUSH1 0x9 PUSH1 0x0 CALLER PUSH20 0xFFFFFFFFFFFFFFFFFFFFFFFFFFFFFFFFFFFFFFFF AND PUSH20 0xFFFFFFFFFFFFFFFFFFFFFFFFFFFFFFFFFFFFFFFF AND DUP2 MSTORE PUSH1 0x20 ADD SWAP1 DUP2 MSTORE PUSH1 0x20 ADD PUSH1 0x0 KECCAK256 PUSH1 0x0 SWAP1 SLOAD SWAP1 PUSH2 0x100 EXP SWAP1 DIV PUSH1 0xFF AND PUSH2 0x9D5 JUMPI PUSH1 0x40 MLOAD PUSH32 0x8C379A000000000000000000000000000000000000000000000000000000000 DUP2 MSTORE PUSH1 0x4 ADD PUSH2 0x9CC SWAP1 PUSH2 0x2458 JUMP JUMPDEST PUSH1 0x40 MLOAD DUP1 SWAP2 SUB SWAP1 REVERT JUMPDEST PUSH2 0x9DF DUP3 DUP3 PUSH2 0x17FC JUMP JUMPDEST POP POP JUMP JUMPDEST PUSH1 0x6 PUSH1 0x20 MSTORE DUP1 PUSH1 0x0 MSTORE PUSH1 0x40 PUSH1 0x0 KECCAK256 PUSH1 0x0 SWAP2 POP SLOAD SWAP1 PUSH2 0x100 EXP SWAP1 DIV PUSH1 0xFF AND DUP2 JUMP JUMPDEST PUSH1 0x8 PUSH1 0x20 MSTORE DUP1 PUSH1 0x0 MSTORE PUSH1 0x40 PUSH1 0x0 KECCAK256 PUSH1 0x0 SWAP2 POP SLOAD SWAP1 PUSH2 0x100 EXP SWAP1 DIV PUSH1 0xFF AND DUP2 JUMP JUMPDEST PUSH1 0x5 PUSH1 0x20 MSTORE DUP2 PUSH1 0x0 MSTORE PUSH1 0x40 PUSH1 0x0 KECCAK256 PUSH1 0x20 MSTORE DUP1 PUSH1 0x0 MSTORE PUSH1 0x40 PUSH1 0x0 KECCAK256 PUSH1 0x0 SWAP2 POP SWAP2 POP POP SLOAD DUP2 JUMP JUMPDEST PUSH1 0x3 PUSH1 0x0 SWAP1 SLOAD SWAP1 PUSH2 0x100 EXP SWAP1 DIV PUSH20 0xFFFFFFFFFFFFFFFFFFFFFFFFFFFFFFFFFFFFFFFF AND PUSH20 0xFFFFFFFFFFFFFFFFFFFFFFFFFFFFFFFFFFFFFFFF AND CALLER PUSH20 0xFFFFFFFFFFFFFFFFFFFFFFFFFFFFFFFFFFFFFFFF AND EQ PUSH2 0xAD8 JUMPI PUSH1 0x40 MLOAD PUSH32 0x8C379A000000000000000000000000000000000000000000000000000000000 DUP2 MSTORE PUSH1 0x4 ADD PUSH2 0xACF SWAP1 PUSH2 0x238C JUMP JUMPDEST PUSH1 0x40 MLOAD DUP1 SWAP2 SUB SWAP1 REVERT JUMPDEST DUP1 PUSH1 0x7 PUSH1 0x0 PUSH2 0x100 EXP DUP2 SLOAD DUP2 PUSH1 0xFF MUL NOT AND SWAP1 DUP4 ISZERO ISZERO MUL OR SWAP1 SSTORE POP POP JUMP JUMPDEST PUSH1 0x3 PUSH1 0x0 SWAP1 SLOAD SWAP1 PUSH2 0x100 EXP SWAP1 DIV PUSH20 0xFFFFFFFFFFFFFFFFFFFFFFFFFFFFFFFFFFFFFFFF AND PUSH20 0xFFFFFFFFFFFFFFFFFFFFFFFFFFFFFFFFFFFFFFFF AND CALLER PUSH20 0xFFFFFFFFFFFFFFFFFFFFFFFFFFFFFFFFFFFFFFFF AND EQ PUSH2 0xB85 JUMPI PUSH1 0x40 MLOAD PUSH32 0x8C379A000000000000000000000000000000000000000000000000000000000 DUP2 MSTORE PUSH1 0x4 ADD PUSH2 0xB7C SWAP1 PUSH2 0x238C JUMP JUMPDEST PUSH1 0x40 MLOAD DUP1 SWAP2 SUB SWAP1 REVERT JUMPDEST PUSH1 0x1 PUSH1 0x6 PUSH1 0x0 DUP4 PUSH20 0xFFFFFFFFFFFFFFFFFFFFFFFFFFFFFFFFFFFFFFFF AND PUSH20 0xFFFFFFFFFFFFFFFFFFFFFFFFFFFFFFFFFFFFFFFF AND DUP2 MSTORE PUSH1 0x20 ADD SWAP1 DUP2 MSTORE PUSH1 0x20 ADD PUSH1 0x0 KECCAK256 PUSH1 0x0 PUSH2 0x100 EXP DUP2 SLOAD DUP2 PUSH1 0xFF MUL NOT AND SWAP1 DUP4 ISZERO ISZERO MUL OR SWAP1 SSTORE POP POP JUMP JUMPDEST PUSH1 0x0 PUSH1 0x4 PUSH1 0x0 DUP4 PUSH20 0xFFFFFFFFFFFFFFFFFFFFFFFFFFFFFFFFFFFFFFFF AND PUSH20 0xFFFFFFFFFFFFFFFFFFFFFFFFFFFFFFFFFFFFFFFF AND DUP2 MSTORE PUSH1 0x20 ADD SWAP1 DUP2 MSTORE PUSH1 0x20 ADD PUSH1 0x0 KECCAK256 SLOAD SWAP1 POP SWAP2 SWAP1 POP JUMP JUMPDEST PUSH1 0x1 DUP1 SLOAD PUSH2 0xC36 SWAP1 PUSH2 0x23DB JUMP JUMPDEST DUP1 PUSH1 0x1F ADD PUSH1 0x20 DUP1 SWAP2 DIV MUL PUSH1 0x20 ADD PUSH1 0x40 MLOAD SWAP1 DUP2 ADD PUSH1 0x40 MSTORE DUP1 SWAP3 SWAP2 SWAP1 DUP2 DUP2 MSTORE PUSH1 0x20 ADD DUP3 DUP1 SLOAD PUSH2 0xC62 SWAP1 PUSH2 0x23DB JUMP JUMPDEST DUP1 ISZERO PUSH2 0xCAF JUMPI DUP1 PUSH1 0x1F LT PUSH2 0xC84 JUMPI PUSH2 0x100 DUP1 DUP4 SLOAD DIV MUL DUP4 MSTORE SWAP2 PUSH1 0x20 ADD SWAP2 PUSH2 0xCAF JUMP JUMPDEST DUP3 ADD SWAP2 SWAP1 PUSH1 0x0 MSTORE PUSH1 0x20 PUSH1 0x0 KECCAK256 SWAP1 JUMPDEST DUP2 SLOAD DUP2 MSTORE SWAP1 PUSH1 0x1 ADD SWAP1 PUSH1 0x20 ADD DUP1 DUP4 GT PUSH2 0xC92 JUMPI DUP3 SWAP1 SUB PUSH1 0x1F AND DUP3 ADD SWAP2 JUMPDEST POP POP POP POP POP DUP2 JUMP JUMPDEST PUSH1 0x3 PUSH1 0x0 SWAP1 SLOAD SWAP1 PUSH2 0x100 EXP SWAP1 DIV PUSH20 0xFFFFFFFFFFFFFFFFFFFFFFFFFFFFFFFFFFFFFFFF AND PUSH20 0xFFFFFFFFFFFFFFFFFFFFFFFFFFFFFFFFFFFFFFFF AND CALLER PUSH20 0xFFFFFFFFFFFFFFFFFFFFFFFFFFFFFFFFFFFFFFFF AND EQ PUSH2 0xD47 JUMPI PUSH1 0x40 MLOAD PUSH32 0x8C379A000000000000000000000000000000000000000000000000000000000 DUP2 MSTORE PUSH1 0x4 ADD PUSH2 0xD3E SWAP1 PUSH2 0x238C JUMP JUMPDEST PUSH1 0x40 MLOAD DUP1 SWAP2 SUB SWAP1 REVERT JUMPDEST DUP1 PUSH1 0x8 PUSH1 0x0 DUP5 PUSH20 0xFFFFFFFFFFFFFFFFFFFFFFFFFFFFFFFFFFFFFFFF AND PUSH20 0xFFFFFFFFFFFFFFFFFFFFFFFFFFFFFFFFFFFFFFFF AND DUP2 MSTORE PUSH1 0x20 ADD SWAP1 DUP2 MSTORE PUSH1 0x20 ADD PUSH1 0x0 KECCAK256 PUSH1 0x0 PUSH2 0x100 EXP DUP2 SLOAD DUP2 PUSH1 0xFF MUL NOT AND SWAP1 DUP4 ISZERO ISZERO MUL OR SWAP1 SSTORE POP POP POP JUMP JUMPDEST PUSH1 0x9 PUSH1 0x0 CALLER PUSH20 0xFFFFFFFFFFFFFFFFFFFFFFFFFFFFFFFFFFFFFFFF AND PUSH20 0xFFFFFFFFFFFFFFFFFFFFFFFFFFFFFFFFFFFFFFFF AND DUP2 MSTORE PUSH1 0x20 ADD SWAP1 DUP2 MSTORE PUSH1 0x20 ADD PUSH1 0x0 KECCAK256 PUSH1 0x0 SWAP1 SLOAD SWAP1 PUSH2 0x100 EXP SWAP1 DIV PUSH1 0xFF AND PUSH2 0xE2E JUMPI PUSH1 0x40 MLOAD PUSH32 0x8C379A000000000000000000000000000000000000000000000000000000000 DUP2 MSTORE PUSH1 0x4 ADD PUSH2 0xE25 SWAP1 PUSH2 0x2458 JUMP JUMPDEST PUSH1 0x40 MLOAD DUP1 SWAP2 SUB SWAP1 REVERT JUMPDEST PUSH2 0xE38 DUP3 DUP3 PUSH2 0x1985 JUMP JUMPDEST POP POP JUMP JUMPDEST PUSH1 0x0 PUSH2 0xE49 CALLER DUP5 DUP5 PUSH2 0x146A JUMP JUMPDEST PUSH1 0x1 SWAP1 POP SWAP3 SWAP2 POP POP JUMP JUMPDEST PUSH1 0x3 PUSH1 0x0 SWAP1 SLOAD SWAP1 PUSH2 0x100 EXP SWAP1 DIV PUSH20 0xFFFFFFFFFFFFFFFFFFFFFFFFFFFFFFFFFFFFFFFF AND PUSH20 0xFFFFFFFFFFFFFFFFFFFFFFFFFFFFFFFFFFFFFFFF AND CALLER PUSH20 0xFFFFFFFFFFFFFFFFFFFFFFFFFFFFFFFFFFFFFFFF AND EQ PUSH2 0xEE3 JUMPI PUSH1 0x40 MLOAD PUSH32 0x8C379A000000000000000000000000000000000000000000000000000000000 DUP2 MSTORE PUSH1 0x4 ADD PUSH2 0xEDA SWAP1 PUSH2 0x238C JUMP JUMPDEST PUSH1 0x40 MLOAD DUP1 SWAP2 SUB SWAP1 REVERT JUMPDEST DUP2 PUSH1 0x0 SWAP1 DUP2 PUSH2 0xEF2 SWAP2 SWAP1 PUSH2 0x2624 JUMP JUMPDEST POP DUP1 PUSH1 0x1 SWAP1 DUP2 PUSH2 0xF02 SWAP2 SWAP1 PUSH2 0x2624 JUMP JUMPDEST POP POP POP JUMP JUMPDEST PUSH1 0x9 PUSH1 0x20 MSTORE DUP1 PUSH1 0x0 MSTORE PUSH1 0x40 PUSH1 0x0 KECCAK256 PUSH1 0x0 SWAP2 POP SLOAD SWAP1 PUSH2 0x100 EXP SWAP1 DIV PUSH1 0xFF AND DUP2 JUMP JUMPDEST PUSH1 0x60 PUSH1 0x40 MLOAD DUP1 PUSH1 0x40 ADD PUSH1 0x40 MSTORE DUP1 PUSH1 0x3 DUP2 MSTORE PUSH1 0x20 ADD PUSH32 0x4B4C500000000000000000000000000000000000000000000000000000000000 DUP2 MSTORE POP SWAP1 POP SWAP1 JUMP JUMPDEST PUSH1 0x3 PUSH1 0x0 SWAP1 SLOAD SWAP1 PUSH2 0x100 EXP SWAP1 DIV PUSH20 0xFFFFFFFFFFFFFFFFFFFFFFFFFFFFFFFFFFFFFFFF AND PUSH20 0xFFFFFFFFFFFFFFFFFFFFFFFFFFFFFFFFFFFFFFFF AND CALLER PUSH20 0xFFFFFFFFFFFFFFFFFFFFFFFFFFFFFFFFFFFFFFFF AND EQ PUSH2 0xFF4 JUMPI PUSH1 0x40 MLOAD PUSH32 0x8C379A000000000000000000000000000000000000000000000000000000000 DUP2 MSTORE PUSH1 0x4 ADD PUSH2 0xFEB SWAP1 PUSH2 0x238C JUMP JUMPDEST PUSH1 0x40 MLOAD DUP1 SWAP2 SUB SWAP1 REVERT JUMPDEST DUP1 PUSH1 0x9 PUSH1 0x0 DUP5 PUSH20 0xFFFFFFFFFFFFFFFFFFFFFFFFFFFFFFFFFFFFFFFF AND PUSH20 0xFFFFFFFFFFFFFFFFFFFFFFFFFFFFFFFFFFFFFFFF AND DUP2 MSTORE PUSH1 0x20 ADD SWAP1 DUP2 MSTORE PUSH1 0x20 ADD PUSH1 0x0 KECCAK256 PUSH1 0x0 PUSH2 0x100 EXP DUP2 SLOAD DUP2 PUSH1 0xFF MUL NOT AND SWAP1 DUP4 ISZERO ISZERO MUL OR SWAP1 SSTORE POP POP POP JUMP JUMPDEST PUSH1 0x3 PUSH1 0x0 SWAP1 SLOAD SWAP1 PUSH2 0x100 EXP SWAP1 DIV PUSH20 0xFFFFFFFFFFFFFFFFFFFFFFFFFFFFFFFFFFFFFFFF AND PUSH20 0xFFFFFFFFFFFFFFFFFFFFFFFFFFFFFFFFFFFFFFFF AND CALLER PUSH20 0xFFFFFFFFFFFFFFFFFFFFFFFFFFFFFFFFFFFFFFFF AND EQ PUSH2 0x10DF JUMPI PUSH1 0x40 MLOAD PUSH32 0x8C379A000000000000000000000000000000000000000000000000000000000 DUP2 MSTORE PUSH1 0x4 ADD PUSH2 0x10D6 SWAP1 PUSH2 0x238C JUMP JUMPDEST PUSH1 0x40 MLOAD DUP1 SWAP2 SUB SWAP1 REVERT JUMPDEST DUP1 PUSH1 0x3 PUSH1 0x0 PUSH2 0x100 EXP DUP2 SLOAD DUP2 PUSH20 0xFFFFFFFFFFFFFFFFFFFFFFFFFFFFFFFFFFFFFFFF MUL NOT AND SWAP1 DUP4 PUSH20 0xFFFFFFFFFFFFFFFFFFFFFFFFFFFFFFFFFFFFFFFF AND MUL OR SWAP1 SSTORE POP POP JUMP JUMPDEST PUSH1 0x0 PUSH1 0x5 PUSH1 0x0 DUP5 PUSH20 0xFFFFFFFFFFFFFFFFFFFFFFFFFFFFFFFFFFFFFFFF AND PUSH20 0xFFFFFFFFFFFFFFFFFFFFFFFFFFFFFFFFFFFFFFFF AND DUP2 MSTORE PUSH1 0x20 ADD SWAP1 DUP2 MSTORE PUSH1 0x20 ADD PUSH1 0x0 KECCAK256 PUSH1 0x0 DUP4 PUSH20 0xFFFFFFFFFFFFFFFFFFFFFFFFFFFFFFFFFFFFFFFF AND PUSH20 0xFFFFFFFFFFFFFFFFFFFFFFFFFFFFFFFFFFFFFFFF AND DUP2 MSTORE PUSH1 0x20 ADD SWAP1 DUP2 MSTORE PUSH1 0x20 ADD PUSH1 0x0 KECCAK256 SLOAD SWAP1 POP SWAP3 SWAP2 POP POP JUMP JUMPDEST PUSH1 0x7 PUSH1 0x0 SWAP1 SLOAD SWAP1 PUSH2 0x100 EXP SWAP1 DIV PUSH1 0xFF AND DUP2 JUMP JUMPDEST PUSH1 0x0 DUP1 DUP3 DUP5 PUSH2 0x11CC SWAP2 SWAP1 PUSH2 0x2725 JUMP JUMPDEST SWAP1 POP DUP4 DUP2 LT ISZERO PUSH2 0x1211 JUMPI PUSH1 0x40 MLOAD PUSH32 0x8C379A000000000000000000000000000000000000000000000000000000000 DUP2 MSTORE PUSH1 0x4 ADD PUSH2 0x1208 SWAP1 PUSH2 0x27A5 JUMP JUMPDEST PUSH1 0x40 MLOAD DUP1 SWAP2 SUB SWAP1 REVERT JUMPDEST DUP1 SWAP2 POP POP SWAP3 SWAP2 POP POP JUMP JUMPDEST PUSH2 0x129C DUP4 PUSH4 0xA9059CBB PUSH1 0xE0 SHL DUP5 DUP5 PUSH1 0x40 MLOAD PUSH1 0x24 ADD PUSH2 0x123A SWAP3 SWAP2 SWAP1 PUSH2 0x27C5 JUMP JUMPDEST PUSH1 0x40 MLOAD PUSH1 0x20 DUP2 DUP4 SUB SUB DUP2 MSTORE SWAP1 PUSH1 0x40 MSTORE SWAP1 PUSH28 0xFFFFFFFFFFFFFFFFFFFFFFFFFFFFFFFFFFFFFFFFFFFFFFFFFFFFFFFF NOT AND PUSH1 0x20 DUP3 ADD DUP1 MLOAD PUSH28 0xFFFFFFFFFFFFFFFFFFFFFFFFFFFFFFFFFFFFFFFFFFFFFFFFFFFFFFFF DUP4 DUP2 DUP4 AND OR DUP4 MSTORE POP POP POP POP PUSH2 0x1B28 JUMP JUMPDEST POP POP POP JUMP JUMPDEST PUSH1 0x0 PUSH20 0xFFFFFFFFFFFFFFFFFFFFFFFFFFFFFFFFFFFFFFFF AND DUP4 PUSH20 0xFFFFFFFFFFFFFFFFFFFFFFFFFFFFFFFFFFFFFFFF AND SUB PUSH2 0x1310 JUMPI PUSH1 0x40 MLOAD PUSH32 0x8C379A000000000000000000000000000000000000000000000000000000000 DUP2 MSTORE PUSH1 0x4 ADD PUSH2 0x1307 SWAP1 PUSH2 0x2860 JUMP JUMPDEST PUSH1 0x40 MLOAD DUP1 SWAP2 SUB SWAP1 REVERT JUMPDEST PUSH1 0x0 PUSH20 0xFFFFFFFFFFFFFFFFFFFFFFFFFFFFFFFFFFFFFFFF AND DUP3 PUSH20 0xFFFFFFFFFFFFFFFFFFFFFFFFFFFFFFFFFFFFFFFF AND SUB PUSH2 0x137F JUMPI PUSH1 0x40 MLOAD PUSH32 0x8C379A000000000000000000000000000000000000000000000000000000000 DUP2 MSTORE PUSH1 0x4 ADD PUSH2 0x1376 SWAP1 PUSH2 0x28F2 JUMP JUMPDEST PUSH1 0x40 MLOAD DUP1 SWAP2 SUB SWAP1 REVERT JUMPDEST DUP1 PUSH1 0x5 PUSH1 0x0 DUP6 PUSH20 0xFFFFFFFFFFFFFFFFFFFFFFFFFFFFFFFFFFFFFFFF AND PUSH20 0xFFFFFFFFFFFFFFFFFFFFFFFFFFFFFFFFFFFFFFFF AND DUP2 MSTORE PUSH1 0x20 ADD SWAP1 DUP2 MSTORE PUSH1 0x20 ADD PUSH1 0x0 KECCAK256 PUSH1 0x0 DUP5 PUSH20 0xFFFFFFFFFFFFFFFFFFFFFFFFFFFFFFFFFFFFFFFF AND PUSH20 0xFFFFFFFFFFFFFFFFFFFFFFFFFFFFFFFFFFFFFFFF AND DUP2 MSTORE PUSH1 0x20 ADD SWAP1 DUP2 MSTORE PUSH1 0x20 ADD PUSH1 0x0 KECCAK256 DUP2 SWAP1 SSTORE POP DUP2 PUSH20 0xFFFFFFFFFFFFFFFFFFFFFFFFFFFFFFFFFFFFFFFF AND DUP4 PUSH20 0xFFFFFFFFFFFFFFFFFFFFFFFFFFFFFFFFFFFFFFFF AND PUSH32 0x8C5BE1E5EBEC7D5BD14F71427D1E84F3DD0314C0F7B2291E5B200AC8C7C3B925 DUP4 PUSH1 0x40 MLOAD PUSH2 0x145D SWAP2 SWAP1 PUSH2 0x2068 JUMP JUMPDEST PUSH1 0x40 MLOAD DUP1 SWAP2 SUB SWAP1 LOG3 POP POP POP JUMP JUMPDEST PUSH1 0x0 PUSH20 0xFFFFFFFFFFFFFFFFFFFFFFFFFFFFFFFFFFFFFFFF AND DUP4 PUSH20 0xFFFFFFFFFFFFFFFFFFFFFFFFFFFFFFFFFFFFFFFF AND SUB PUSH2 0x14D9 JUMPI PUSH1 0x40 MLOAD PUSH32 0x8C379A000000000000000000000000000000000000000000000000000000000 DUP2 MSTORE PUSH1 0x4 ADD PUSH2 0x14D0 SWAP1 PUSH2 0x2984 JUMP JUMPDEST PUSH1 0x40 MLOAD DUP1 SWAP2 SUB SWAP1 REVERT JUMPDEST PUSH1 0x0 PUSH20 0xFFFFFFFFFFFFFFFFFFFFFFFFFFFFFFFFFFFFFFFF AND DUP3 PUSH20 0xFFFFFFFFFFFFFFFFFFFFFFFFFFFFFFFFFFFFFFFF AND SUB PUSH2 0x1548 JUMPI PUSH1 0x40 MLOAD PUSH32 0x8C379A000000000000000000000000000000000000000000000000000000000 DUP2 MSTORE PUSH1 0x4 ADD PUSH2 0x153F SWAP1 PUSH2 0x2A16 JUMP JUMPDEST PUSH1 0x40 MLOAD DUP1 SWAP2 SUB SWAP1 REVERT JUMPDEST PUSH1 0x7 PUSH1 0x0 SWAP1 SLOAD SWAP1 PUSH2 0x100 EXP SWAP1 DIV PUSH1 0xFF AND ISZERO PUSH2 0x15EA JUMPI PUSH1 0x8 PUSH1 0x0 CALLER PUSH20 0xFFFFFFFFFFFFFFFFFFFFFFFFFFFFFFFFFFFFFFFF AND PUSH20 0xFFFFFFFFFFFFFFFFFFFFFFFFFFFFFFFFFFFFFFFF AND DUP2 MSTORE PUSH1 0x20 ADD SWAP1 DUP2 MSTORE PUSH1 0x20 ADD PUSH1 0x0 KECCAK256 PUSH1 0x0 SWAP1 SLOAD SWAP1 PUSH2 0x100 EXP SWAP1 DIV PUSH1 0xFF AND PUSH2 0x15E9 JUMPI PUSH1 0x40 MLOAD PUSH32 0x8C379A000000000000000000000000000000000000000000000000000000000 DUP2 MSTORE PUSH1 0x4 ADD PUSH2 0x15E0 SWAP1 PUSH2 0x2AA8 JUMP JUMPDEST PUSH1 0x40 MLOAD DUP1 SWAP2 SUB SWAP1 REVERT JUMPDEST JUMPDEST PUSH2 0x1656 DUP2 PUSH1 0x40 MLOAD DUP1 PUSH1 0x60 ADD PUSH1 0x40 MSTORE DUP1 PUSH1 0x2A DUP2 MSTORE PUSH1 0x20 ADD PUSH2 0x2E7D PUSH1 0x2A SWAP2 CODECOPY PUSH1 0x4 PUSH1 0x0 DUP8 PUSH20 0xFFFFFFFFFFFFFFFFFFFFFFFFFFFFFFFFFFFFFFFF AND PUSH20 0xFFFFFFFFFFFFFFFFFFFFFFFFFFFFFFFFFFFFFFFF AND DUP2 MSTORE PUSH1 0x20 ADD SWAP1 DUP2 MSTORE PUSH1 0x20 ADD PUSH1 0x0 KECCAK256 SLOAD PUSH2 0x1798 SWAP1 SWAP3 SWAP2 SWAP1 PUSH4 0xFFFFFFFF AND JUMP JUMPDEST PUSH1 0x4 PUSH1 0x0 DUP6 PUSH20 0xFFFFFFFFFFFFFFFFFFFFFFFFFFFFFFFFFFFFFFFF AND PUSH20 0xFFFFFFFFFFFFFFFFFFFFFFFFFFFFFFFFFFFFFFFF AND DUP2 MSTORE PUSH1 0x20 ADD SWAP1 DUP2 MSTORE PUSH1 0x20 ADD PUSH1 0x0 KECCAK256 DUP2 SWAP1 SSTORE POP PUSH2 0x16EB DUP2 PUSH1 0x4 PUSH1 0x0 DUP6 PUSH20 0xFFFFFFFFFFFFFFFFFFFFFFFFFFFFFFFFFFFFFFFF AND PUSH20 0xFFFFFFFFFFFFFFFFFFFFFFFFFFFFFFFFFFFFFFFF AND DUP2 MSTORE PUSH1 0x20 ADD SWAP1 DUP2 MSTORE PUSH1 0x20 ADD PUSH1 0x0 KECCAK256 SLOAD PUSH2 0x11BD SWAP1 SWAP2 SWAP1 PUSH4 0xFFFFFFFF AND JUMP JUMPDEST PUSH1 0x4 PUSH1 0x0 DUP5 PUSH20 0xFFFFFFFFFFFFFFFFFFFFFFFFFFFFFFFFFFFFFFFF AND PUSH20 0xFFFFFFFFFFFFFFFFFFFFFFFFFFFFFFFFFFFFFFFF AND DUP2 MSTORE PUSH1 0x20 ADD SWAP1 DUP2 MSTORE PUSH1 0x20 ADD PUSH1 0x0 KECCAK256 DUP2 SWAP1 SSTORE POP DUP2 PUSH20 0xFFFFFFFFFFFFFFFFFFFFFFFFFFFFFFFFFFFFFFFF AND DUP4 PUSH20 0xFFFFFFFFFFFFFFFFFFFFFFFFFFFFFFFFFFFFFFFF AND PUSH32 0xDDF252AD1BE2C89B69C2B068FC378DAA952BA7F163C4A11628F55A4DF523B3EF DUP4 PUSH1 0x40 MLOAD PUSH2 0x178B SWAP2 SWAP1 PUSH2 0x2068 JUMP JUMPDEST PUSH1 0x40 MLOAD DUP1 SWAP2 SUB SWAP1 LOG3 POP POP POP JUMP JUMPDEST PUSH1 0x0 DUP4 DUP4 GT ISZERO DUP3 SWAP1 PUSH2 0x17E0 JUMPI PUSH1 0x40 MLOAD PUSH32 0x8C379A000000000000000000000000000000000000000000000000000000000 DUP2 MSTORE PUSH1 0x4 ADD PUSH2 0x17D7 SWAP2 SWAP1 PUSH2 0x1F6A JUMP JUMPDEST PUSH1 0x40 MLOAD DUP1 SWAP2 SUB SWAP1 REVERT JUMPDEST POP PUSH1 0x0 DUP4 DUP6 PUSH2 0x17EF SWAP2 SWAP1 PUSH2 0x2AC8 JUMP JUMPDEST SWAP1 POP DUP1 SWAP2 POP POP SWAP4 SWAP3 POP POP POP JUMP JUMPDEST PUSH1 0x0 PUSH20 0xFFFFFFFFFFFFFFFFFFFFFFFFFFFFFFFFFFFFFFFF AND DUP3 PUSH20 0xFFFFFFFFFFFFFFFFFFFFFFFFFFFFFFFFFFFFFFFF AND SUB PUSH2 0x186B JUMPI PUSH1 0x40 MLOAD PUSH32 0x8C379A000000000000000000000000000000000000000000000000000000000 DUP2 MSTORE PUSH1 0x4 ADD PUSH2 0x1862 SWAP1 PUSH2 0x2B6E JUMP JUMPDEST PUSH1 0x40 MLOAD DUP1 SWAP2 SUB SWAP1 REVERT JUMPDEST PUSH2 0x1880 DUP2 PUSH1 0x2 SLOAD PUSH2 0x11BD SWAP1 SWAP2 SWAP1 PUSH4 0xFFFFFFFF AND JUMP JUMPDEST PUSH1 0x2 DUP2 SWAP1 SSTORE POP PUSH2 0x18D8 DUP2 PUSH1 0x4 PUSH1 0x0 DUP6 PUSH20 0xFFFFFFFFFFFFFFFFFFFFFFFFFFFFFFFFFFFFFFFF AND PUSH20 0xFFFFFFFFFFFFFFFFFFFFFFFFFFFFFFFFFFFFFFFF AND DUP2 MSTORE PUSH1 0x20 ADD SWAP1 DUP2 MSTORE PUSH1 0x20 ADD PUSH1 0x0 KECCAK256 SLOAD PUSH2 0x11BD SWAP1 SWAP2 SWAP1 PUSH4 0xFFFFFFFF AND JUMP JUMPDEST PUSH1 0x4 PUSH1 0x0 DUP5 PUSH20 0xFFFFFFFFFFFFFFFFFFFFFFFFFFFFFFFFFFFFFFFF AND PUSH20 0xFFFFFFFFFFFFFFFFFFFFFFFFFFFFFFFFFFFFFFFF AND DUP2 MSTORE PUSH1 0x20 ADD SWAP1 DUP2 MSTORE PUSH1 0x20 ADD PUSH1 0x0 KECCAK256 DUP2 SWAP1 SSTORE POP DUP2 PUSH20 0xFFFFFFFFFFFFFFFFFFFFFFFFFFFFFFFFFFFFFFFF AND PUSH1 0x0 PUSH20 0xFFFFFFFFFFFFFFFFFFFFFFFFFFFFFFFFFFFFFFFF AND PUSH32 0xDDF252AD1BE2C89B69C2B068FC378DAA952BA7F163C4A11628F55A4DF523B3EF DUP4 PUSH1 0x40 MLOAD PUSH2 0x1979 SWAP2 SWAP1 PUSH2 0x2068 JUMP JUMPDEST PUSH1 0x40 MLOAD DUP1 SWAP2 SUB SWAP1 LOG3 POP POP JUMP JUMPDEST PUSH1 0x0 PUSH20 0xFFFFFFFFFFFFFFFFFFFFFFFFFFFFFFFFFFFFFFFF AND DUP3 PUSH20 0xFFFFFFFFFFFFFFFFFFFFFFFFFFFFFFFFFFFFFFFF AND SUB PUSH2 0x19F4 JUMPI PUSH1 0x40 MLOAD PUSH32 0x8C379A000000000000000000000000000000000000000000000000000000000 DUP2 MSTORE PUSH1 0x4 ADD PUSH2 0x19EB SWAP1 PUSH2 0x2C00 JUMP JUMPDEST PUSH1 0x40 MLOAD DUP1 SWAP2 SUB SWAP1 REVERT JUMPDEST PUSH2 0x1A60 DUP2 PUSH1 0x40 MLOAD DUP1 PUSH1 0x60 ADD PUSH1 0x40 MSTORE DUP1 PUSH1 0x26 DUP2 MSTORE PUSH1 0x20 ADD PUSH2 0x2EA7 PUSH1 0x26 SWAP2 CODECOPY PUSH1 0x4 PUSH1 0x0 DUP7 PUSH20 0xFFFFFFFFFFFFFFFFFFFFFFFFFFFFFFFFFFFFFFFF AND PUSH20 0xFFFFFFFFFFFFFFFFFFFFFFFFFFFFFFFFFFFFFFFF AND DUP2 MSTORE PUSH1 0x20 ADD SWAP1 DUP2 MSTORE PUSH1 0x20 ADD PUSH1 0x0 KECCAK256 SLOAD PUSH2 0x1798 SWAP1 SWAP3 SWAP2 SWAP1 PUSH4 0xFFFFFFFF AND JUMP JUMPDEST PUSH1 0x4 PUSH1 0x0 DUP5 PUSH20 0xFFFFFFFFFFFFFFFFFFFFFFFFFFFFFFFFFFFFFFFF AND PUSH20 0xFFFFFFFFFFFFFFFFFFFFFFFFFFFFFFFFFFFFFFFF AND DUP2 MSTORE PUSH1 0x20 ADD SWAP1 DUP2 MSTORE PUSH1 0x20 ADD PUSH1 0x0 KECCAK256 DUP2 SWAP1 SSTORE POP PUSH2 0x1AB8 DUP2 PUSH1 0x2 SLOAD PUSH2 0x1BEF SWAP1 SWAP2 SWAP1 PUSH4 0xFFFFFFFF AND JUMP JUMPDEST PUSH1 0x2 DUP2 SWAP1 SSTORE POP PUSH1 0x0 PUSH20 0xFFFFFFFFFFFFFFFFFFFFFFFFFFFFFFFFFFFFFFFF AND DUP3 PUSH20 0xFFFFFFFFFFFFFFFFFFFFFFFFFFFFFFFFFFFFFFFF AND PUSH32 0xDDF252AD1BE2C89B69C2B068FC378DAA952BA7F163C4A11628F55A4DF523B3EF DUP4 PUSH1 0x40 MLOAD PUSH2 0x1B1C SWAP2 SWAP1 PUSH2 0x2068 JUMP JUMPDEST PUSH1 0x40 MLOAD DUP1 SWAP2 SUB SWAP1 LOG3 POP POP JUMP JUMPDEST PUSH1 0x0 PUSH2 0x1B8A DUP3 PUSH1 0x40 MLOAD DUP1 PUSH1 0x40 ADD PUSH1 0x40 MSTORE DUP1 PUSH1 0x20 DUP2 MSTORE PUSH1 0x20 ADD PUSH32 0x5361666545524332303A206C6F772D6C6576656C2063616C6C206661696C6564 DUP2 MSTORE POP DUP6 PUSH20 0xFFFFFFFFFFFFFFFFFFFFFFFFFFFFFFFFFFFFFFFF AND PUSH2 0x1C39 SWAP1 SWAP3 SWAP2 SWAP1 PUSH4 0xFFFFFFFF AND JUMP JUMPDEST SWAP1 POP PUSH1 0x0 DUP2 MLOAD GT ISZERO PUSH2 0x1BEA JUMPI DUP1 DUP1 PUSH1 0x20 ADD SWAP1 MLOAD DUP2 ADD SWAP1 PUSH2 0x1BAA SWAP2 SWAP1 PUSH2 0x2C35 JUMP JUMPDEST PUSH2 0x1BE9 JUMPI PUSH1 0x40 MLOAD PUSH32 0x8C379A000000000000000000000000000000000000000000000000000000000 DUP2 MSTORE PUSH1 0x4 ADD PUSH2 0x1BE0 SWAP1 PUSH2 0x2CD4 JUMP JUMPDEST PUSH1 0x40 MLOAD DUP1 SWAP2 SUB SWAP1 REVERT JUMPDEST JUMPDEST POP POP POP JUMP JUMPDEST PUSH1 0x0 PUSH2 0x1C31 DUP4 DUP4 PUSH1 0x40 MLOAD DUP1 PUSH1 0x40 ADD PUSH1 0x40 MSTORE DUP1 PUSH1 0x1E DUP2 MSTORE PUSH1 0x20 ADD PUSH32 0x536166654D6174683A207375627472616374696F6E206F766572666C6F770000 DUP2 MSTORE POP PUSH2 0x1798 JUMP JUMPDEST SWAP1 POP SWAP3 SWAP2 POP POP JUMP JUMPDEST PUSH1 0x60 PUSH2 0x1C48 DUP5 DUP5 PUSH1 0x0 DUP6 PUSH2 0x1C51 JUMP JUMPDEST SWAP1 POP SWAP4 SWAP3 POP POP POP JUMP JUMPDEST PUSH1 0x60 DUP3 SELFBALANCE LT ISZERO PUSH2 0x1C96 JUMPI PUSH1 0x40 MLOAD PUSH32 0x8C379A000000000000000000000000000000000000000000000000000000000 DUP2 MSTORE PUSH1 0x4 ADD PUSH2 0x1C8D SWAP1 PUSH2 0x2D66 JUMP JUMPDEST PUSH1 0x40 MLOAD DUP1 SWAP2 SUB SWAP1 REVERT JUMPDEST PUSH2 0x1C9F DUP6 PUSH2 0x1D65 JUMP JUMPDEST PUSH2 0x1CDE JUMPI PUSH1 0x40 MLOAD PUSH32 0x8C379A000000000000000000000000000000000000000000000000000000000 DUP2 MSTORE PUSH1 0x4 ADD PUSH2 0x1CD5 SWAP1 PUSH2 0x2DD2 JUMP JUMPDEST PUSH1 0x40 MLOAD DUP1 SWAP2 SUB SWAP1 REVERT JUMPDEST PUSH1 0x0 DUP1 DUP7 PUSH20 0xFFFFFFFFFFFFFFFFFFFFFFFFFFFFFFFFFFFFFFFF AND DUP6 DUP8 PUSH1 0x40 MLOAD PUSH2 0x1D07 SWAP2 SWAP1 PUSH2 0x2E39 JUMP JUMPDEST PUSH1 0x0 PUSH1 0x40 MLOAD DUP1 DUP4 SUB DUP2 DUP6 DUP8 GAS CALL SWAP3 POP POP POP RETURNDATASIZE DUP1 PUSH1 0x0 DUP2 EQ PUSH2 0x1D44 JUMPI PUSH1 0x40 MLOAD SWAP2 POP PUSH1 0x1F NOT PUSH1 0x3F RETURNDATASIZE ADD AND DUP3 ADD PUSH1 0x40 MSTORE RETURNDATASIZE DUP3 MSTORE RETURNDATASIZE PUSH1 0x0 PUSH1 0x20 DUP5 ADD RETURNDATACOPY PUSH2 0x1D49 JUMP JUMPDEST PUSH1 0x60 SWAP2 POP JUMPDEST POP SWAP2 POP SWAP2 POP PUSH2 0x1D59 DUP3 DUP3 DUP7 PUSH2 0x1D78 JUMP JUMPDEST SWAP3 POP POP POP SWAP5 SWAP4 POP POP POP POP JUMP JUMPDEST PUSH1 0x0 DUP1 DUP3 EXTCODESIZE SWAP1 POP PUSH1 0x0 DUP2 GT SWAP2 POP POP SWAP2 SWAP1 POP JUMP JUMPDEST PUSH1 0x60 DUP4 ISZERO PUSH2 0x1D88 JUMPI DUP3 SWAP1 POP PUSH2 0x1DD8 JUMP JUMPDEST PUSH1 0x0 DUP4 MLOAD GT ISZERO PUSH2 0x1D9B JUMPI DUP3 MLOAD DUP1 DUP5 PUSH1 0x20 ADD REVERT JUMPDEST DUP2 PUSH1 0x40 MLOAD PUSH32 0x8C379A000000000000000000000000000000000000000000000000000000000 DUP2 MSTORE PUSH1 0x4 ADD PUSH2 0x1DCF SWAP2 SWAP1 PUSH2 0x1F6A JUMP JUMPDEST PUSH1 0x40 MLOAD DUP1 SWAP2 SUB SWAP1 REVERT JUMPDEST SWAP4 SWAP3 POP POP POP JUMP JUMPDEST PUSH1 0x0 PUSH1 0x40 MLOAD SWAP1 POP SWAP1 JUMP JUMPDEST PUSH1 0x0 DUP1 REVERT JUMPDEST PUSH1 0x0 DUP1 REVERT JUMPDEST PUSH1 0x0 PUSH20 0xFFFFFFFFFFFFFFFFFFFFFFFFFFFFFFFFFFFFFFFF DUP3 AND SWAP1 POP SWAP2 SWAP1 POP JUMP JUMPDEST PUSH1 0x0 PUSH2 0x1E1E DUP3 PUSH2 0x1DF3 JUMP JUMPDEST SWAP1 POP SWAP2 SWAP1 POP JUMP JUMPDEST PUSH2 0x1E2E DUP2 PUSH2 0x1E13 JUMP JUMPDEST DUP2 EQ PUSH2 0x1E39 JUMPI PUSH1 0x0 DUP1 REVERT JUMPDEST POP JUMP JUMPDEST PUSH1 0x0 DUP2 CALLDATALOAD SWAP1 POP PUSH2 0x1E4B DUP2 PUSH2 0x1E25 JUMP JUMPDEST SWAP3 SWAP2 POP POP JUMP JUMPDEST PUSH1 0x0 DUP2 SWAP1 POP SWAP2 SWAP1 POP JUMP JUMPDEST PUSH2 0x1E64 DUP2 PUSH2 0x1E51 JUMP JUMPDEST DUP2 EQ PUSH2 0x1E6F JUMPI PUSH1 0x0 DUP1 REVERT JUMPDEST POP JUMP JUMPDEST PUSH1 0x0 DUP2 CALLDATALOAD SWAP1 POP PUSH2 0x1E81 DUP2 PUSH2 0x1E5B JUMP JUMPDEST SWAP3 SWAP2 POP POP JUMP JUMPDEST PUSH1 0x0 DUP1 PUSH1 0x0 PUSH1 0x60 DUP5 DUP7 SUB SLT ISZERO PUSH2 0x1EA0 JUMPI PUSH2 0x1E9F PUSH2 0x1DE9 JUMP JUMPDEST JUMPDEST PUSH1 0x0 PUSH2 0x1EAE DUP7 DUP3 DUP8 ADD PUSH2 0x1E3C JUMP JUMPDEST SWAP4 POP POP PUSH1 0x20 PUSH2 0x1EBF DUP7 DUP3 DUP8 ADD PUSH2 0x1E3C JUMP JUMPDEST SWAP3 POP POP PUSH1 0x40 PUSH2 0x1ED0 DUP7 DUP3 DUP8 ADD PUSH2 0x1E72 JUMP JUMPDEST SWAP2 POP POP SWAP3 POP SWAP3 POP SWAP3 JUMP JUMPDEST PUSH1 0x0 DUP2 MLOAD SWAP1 POP SWAP2 SWAP1 POP JUMP JUMPDEST PUSH1 0x0 DUP3 DUP3 MSTORE PUSH1 0x20 DUP3 ADD SWAP1 POP SWAP3 SWAP2 POP POP JUMP JUMPDEST PUSH1 0x0 JUMPDEST DUP4 DUP2 LT ISZERO PUSH2 0x1F14 JUMPI DUP1 DUP3 ADD MLOAD DUP2 DUP5 ADD MSTORE PUSH1 0x20 DUP2 ADD SWAP1 POP PUSH2 0x1EF9 JUMP JUMPDEST PUSH1 0x0 DUP5 DUP5 ADD MSTORE POP POP POP POP JUMP JUMPDEST PUSH1 0x0 PUSH1 0x1F NOT PUSH1 0x1F DUP4 ADD AND SWAP1 POP SWAP2 SWAP1 POP JUMP JUMPDEST PUSH1 0x0 PUSH2 0x1F3C DUP3 PUSH2 0x1EDA JUMP JUMPDEST PUSH2 0x1F46 DUP2 DUP6 PUSH2 0x1EE5 JUMP JUMPDEST SWAP4 POP PUSH2 0x1F56 DUP2 DUP6 PUSH1 0x20 DUP7 ADD PUSH2 0x1EF6 JUMP JUMPDEST PUSH2 0x1F5F DUP2 PUSH2 0x1F20 JUMP JUMPDEST DUP5 ADD SWAP2 POP POP SWAP3 SWAP2 POP POP JUMP JUMPDEST PUSH1 0x0 PUSH1 0x20 DUP3 ADD SWAP1 POP DUP2 DUP2 SUB PUSH1 0x0 DUP4 ADD MSTORE PUSH2 0x1F84 DUP2 DUP5 PUSH2 0x1F31 JUMP JUMPDEST SWAP1 POP SWAP3 SWAP2 POP POP JUMP JUMPDEST PUSH1 0x0 DUP1 PUSH1 0x40 DUP4 DUP6 SUB SLT ISZERO PUSH2 0x1FA3 JUMPI PUSH2 0x1FA2 PUSH2 0x1DE9 JUMP JUMPDEST JUMPDEST PUSH1 0x0 PUSH2 0x1FB1 DUP6 DUP3 DUP7 ADD PUSH2 0x1E3C JUMP JUMPDEST SWAP3 POP POP PUSH1 0x20 PUSH2 0x1FC2 DUP6 DUP3 DUP7 ADD PUSH2 0x1E72 JUMP JUMPDEST SWAP2 POP POP SWAP3 POP SWAP3 SWAP1 POP JUMP JUMPDEST PUSH1 0x0 DUP2 ISZERO ISZERO SWAP1 POP SWAP2 SWAP1 POP JUMP JUMPDEST PUSH2 0x1FE1 DUP2 PUSH2 0x1FCC JUMP JUMPDEST DUP3 MSTORE POP POP JUMP JUMPDEST PUSH1 0x0 PUSH1 0x20 DUP3 ADD SWAP1 POP PUSH2 0x1FFC PUSH1 0x0 DUP4 ADD DUP5 PUSH2 0x1FD8 JUMP JUMPDEST SWAP3 SWAP2 POP POP JUMP JUMPDEST PUSH2 0x200B DUP2 PUSH2 0x1E13 JUMP JUMPDEST DUP3 MSTORE POP POP JUMP JUMPDEST PUSH1 0x0 PUSH1 0x20 DUP3 ADD SWAP1 POP PUSH2 0x2026 PUSH1 0x0 DUP4 ADD DUP5 PUSH2 0x2002 JUMP JUMPDEST SWAP3 SWAP2 POP POP JUMP JUMPDEST PUSH1 0x0 PUSH1 0x20 DUP3 DUP5 SUB SLT ISZERO PUSH2 0x2042 JUMPI PUSH2 0x2041 PUSH2 0x1DE9 JUMP JUMPDEST JUMPDEST PUSH1 0x0 PUSH2 0x2050 DUP5 DUP3 DUP6 ADD PUSH2 0x1E3C JUMP JUMPDEST SWAP2 POP POP SWAP3 SWAP2 POP POP JUMP JUMPDEST PUSH2 0x2062 DUP2 PUSH2 0x1E51 JUMP JUMPDEST DUP3 MSTORE POP POP JUMP JUMPDEST PUSH1 0x0 PUSH1 0x20 DUP3 ADD SWAP1 POP PUSH2 0x207D PUSH1 0x0 DUP4 ADD DUP5 PUSH2 0x2059 JUMP JUMPDEST SWAP3 SWAP2 POP POP JUMP JUMPDEST PUSH1 0x0 PUSH1 0xFF DUP3 AND SWAP1 POP SWAP2 SWAP1 POP JUMP JUMPDEST PUSH2 0x2099 DUP2 PUSH2 0x2083 JUMP JUMPDEST DUP3 MSTORE POP POP JUMP JUMPDEST PUSH1 0x0 PUSH1 0x20 DUP3 ADD SWAP1 POP PUSH2 0x20B4 PUSH1 0x0 DUP4 ADD DUP5 PUSH2 0x2090 JUMP JUMPDEST SWAP3 SWAP2 POP POP JUMP JUMPDEST PUSH1 0x0 DUP1 PUSH1 0x40 DUP4 DUP6 SUB SLT ISZERO PUSH2 0x20D1 JUMPI PUSH2 0x20D0 PUSH2 0x1DE9 JUMP JUMPDEST JUMPDEST PUSH1 0x0 PUSH2 0x20DF DUP6 DUP3 DUP7 ADD PUSH2 0x1E3C JUMP JUMPDEST SWAP3 POP POP PUSH1 0x20 PUSH2 0x20F0 DUP6 DUP3 DUP7 ADD PUSH2 0x1E3C JUMP JUMPDEST SWAP2 POP POP SWAP3 POP SWAP3 SWAP1 POP JUMP JUMPDEST PUSH2 0x2103 DUP2 PUSH2 0x1FCC JUMP JUMPDEST DUP2 EQ PUSH2 0x210E JUMPI PUSH1 0x0 DUP1 REVERT JUMPDEST POP JUMP JUMPDEST PUSH1 0x0 DUP2 CALLDATALOAD SWAP1 POP PUSH2 0x2120 DUP2 PUSH2 0x20FA JUMP JUMPDEST SWAP3 SWAP2 POP POP JUMP JUMPDEST PUSH1 0x0 PUSH1 0x20 DUP3 DUP5 SUB SLT ISZERO PUSH2 0x213C JUMPI PUSH2 0x213B PUSH2 0x1DE9 JUMP JUMPDEST JUMPDEST PUSH1 0x0 PUSH2 0x214A DUP5 DUP3 DUP6 ADD PUSH2 0x2111 JUMP JUMPDEST SWAP2 POP POP SWAP3 SWAP2 POP POP JUMP JUMPDEST PUSH1 0x0 DUP1 PUSH1 0x40 DUP4 DUP6 SUB SLT ISZERO PUSH2 0x216A JUMPI PUSH2 0x2169 PUSH2 0x1DE9 JUMP JUMPDEST JUMPDEST PUSH1 0x0 PUSH2 0x2178 DUP6 DUP3 DUP7 ADD PUSH2 0x1E3C JUMP JUMPDEST SWAP3 POP POP PUSH1 0x20 PUSH2 0x2189 DUP6 DUP3 DUP7 ADD PUSH2 0x2111 JUMP JUMPDEST SWAP2 POP POP SWAP3 POP SWAP3 SWAP1 POP JUMP JUMPDEST PUSH1 0x0 DUP1 REVERT JUMPDEST PUSH1 0x0 DUP1 REVERT JUMPDEST PUSH32 0x4E487B7100000000000000000000000000000000000000000000000000000000 PUSH1 0x0 MSTORE PUSH1 0x41 PUSH1 0x4 MSTORE PUSH1 0x24 PUSH1 0x0 REVERT JUMPDEST PUSH2 0x21D5 DUP3 PUSH2 0x1F20 JUMP JUMPDEST DUP2 ADD DUP2 DUP2 LT PUSH8 0xFFFFFFFFFFFFFFFF DUP3 GT OR ISZERO PUSH2 0x21F4 JUMPI PUSH2 0x21F3 PUSH2 0x219D JUMP JUMPDEST JUMPDEST DUP1 PUSH1 0x40 MSTORE POP POP POP JUMP JUMPDEST PUSH1 0x0 PUSH2 0x2207 PUSH2 0x1DDF JUMP JUMPDEST SWAP1 POP PUSH2 0x2213 DUP3 DUP3 PUSH2 0x21CC JUMP JUMPDEST SWAP2 SWAP1 POP JUMP JUMPDEST PUSH1 0x0 PUSH8 0xFFFFFFFFFFFFFFFF DUP3 GT ISZERO PUSH2 0x2233 JUMPI PUSH2 0x2232 PUSH2 0x219D JUMP JUMPDEST JUMPDEST PUSH2 0x223C DUP3 PUSH2 0x1F20 JUMP JUMPDEST SWAP1 POP PUSH1 0x20 DUP2 ADD SWAP1 POP SWAP2 SWAP1 POP JUMP JUMPDEST DUP3 DUP2 DUP4 CALLDATACOPY PUSH1 0x0 DUP4 DUP4 ADD MSTORE POP POP POP JUMP JUMPDEST PUSH1 0x0 PUSH2 0x226B PUSH2 0x2266 DUP5 PUSH2 0x2218 JUMP JUMPDEST PUSH2 0x21FD JUMP JUMPDEST SWAP1 POP DUP3 DUP2 MSTORE PUSH1 0x20 DUP2 ADD DUP5 DUP5 DUP5 ADD GT ISZERO PUSH2 0x2287 JUMPI PUSH2 0x2286 PUSH2 0x2198 JUMP JUMPDEST JUMPDEST PUSH2 0x2292 DUP5 DUP3 DUP6 PUSH2 0x2249 JUMP JUMPDEST POP SWAP4 SWAP3 POP POP POP JUMP JUMPDEST PUSH1 0x0 DUP3 PUSH1 0x1F DUP4 ADD SLT PUSH2 0x22AF JUMPI PUSH2 0x22AE PUSH2 0x2193 JUMP JUMPDEST JUMPDEST DUP2 CALLDATALOAD PUSH2 0x22BF DUP5 DUP3 PUSH1 0x20 DUP7 ADD PUSH2 0x2258 JUMP JUMPDEST SWAP2 POP POP SWAP3 SWAP2 POP POP JUMP JUMPDEST PUSH1 0x0 DUP1 PUSH1 0x40 DUP4 DUP6 SUB SLT ISZERO PUSH2 0x22DF JUMPI PUSH2 0x22DE PUSH2 0x1DE9 JUMP JUMPDEST JUMPDEST PUSH1 0x0 DUP4 ADD CALLDATALOAD PUSH8 0xFFFFFFFFFFFFFFFF DUP2 GT ISZERO PUSH2 0x22FD JUMPI PUSH2 0x22FC PUSH2 0x1DEE JUMP JUMPDEST JUMPDEST PUSH2 0x2309 DUP6 DUP3 DUP7 ADD PUSH2 0x229A JUMP JUMPDEST SWAP3 POP POP PUSH1 0x20 DUP4 ADD CALLDATALOAD PUSH8 0xFFFFFFFFFFFFFFFF DUP2 GT ISZERO PUSH2 0x232A JUMPI PUSH2 0x2329 PUSH2 0x1DEE JUMP JUMPDEST JUMPDEST PUSH2 0x2336 DUP6 DUP3 DUP7 ADD PUSH2 0x229A JUMP JUMPDEST SWAP2 POP POP SWAP3 POP SWAP3 SWAP1 POP JUMP JUMPDEST PUSH32 0x42617365546F6B656E3A20666F7262696464656E000000000000000000000000 PUSH1 0x0 DUP3 ADD MSTORE POP JUMP JUMPDEST PUSH1 0x0 PUSH2 0x2376 PUSH1 0x14 DUP4 PUSH2 0x1EE5 JUMP JUMPDEST SWAP2 POP PUSH2 0x2381 DUP3 PUSH2 0x2340 JUMP JUMPDEST PUSH1 0x20 DUP3 ADD SWAP1 POP SWAP2 SWAP1 POP JUMP JUMPDEST PUSH1 0x0 PUSH1 0x20 DUP3 ADD SWAP1 POP DUP2 DUP2 SUB PUSH1 0x0 DUP4 ADD MSTORE PUSH2 0x23A5 DUP2 PUSH2 0x2369 JUMP JUMPDEST SWAP1 POP SWAP2 SWAP1 POP JUMP JUMPDEST PUSH32 0x4E487B7100000000000000000000000000000000000000000000000000000000 PUSH1 0x0 MSTORE PUSH1 0x22 PUSH1 0x4 MSTORE PUSH1 0x24 PUSH1 0x0 REVERT JUMPDEST PUSH1 0x0 PUSH1 0x2 DUP3 DIV SWAP1 POP PUSH1 0x1 DUP3 AND DUP1 PUSH2 0x23F3 JUMPI PUSH1 0x7F DUP3 AND SWAP2 POP JUMPDEST PUSH1 0x20 DUP3 LT DUP2 SUB PUSH2 0x2406 JUMPI PUSH2 0x2405 PUSH2 0x23AC JUMP JUMPDEST JUMPDEST POP SWAP2 SWAP1 POP JUMP JUMPDEST PUSH32 0x4D696E7461626C6542617365546F6B656E3A20666F7262696464656E00000000 PUSH1 0x0 DUP3 ADD MSTORE POP JUMP JUMPDEST PUSH1 0x0 PUSH2 0x2442 PUSH1 0x1C DUP4 PUSH2 0x1EE5 JUMP JUMPDEST SWAP2 POP PUSH2 0x244D DUP3 PUSH2 0x240C JUMP JUMPDEST PUSH1 0x20 DUP3 ADD SWAP1 POP SWAP2 SWAP1 POP JUMP JUMPDEST PUSH1 0x0 PUSH1 0x20 DUP3 ADD SWAP1 POP DUP2 DUP2 SUB PUSH1 0x0 DUP4 ADD MSTORE PUSH2 0x2471 DUP2 PUSH2 0x2435 JUMP JUMPDEST SWAP1 POP SWAP2 SWAP1 POP JUMP JUMPDEST PUSH1 0x0 DUP2 SWAP1 POP DUP2 PUSH1 0x0 MSTORE PUSH1 0x20 PUSH1 0x0 KECCAK256 SWAP1 POP SWAP2 SWAP1 POP JUMP JUMPDEST PUSH1 0x0 PUSH1 0x20 PUSH1 0x1F DUP4 ADD DIV SWAP1 POP SWAP2 SWAP1 POP JUMP JUMPDEST PUSH1 0x0 DUP3 DUP3 SHL SWAP1 POP SWAP3 SWAP2 POP POP JUMP JUMPDEST PUSH1 0x0 PUSH1 0x8 DUP4 MUL PUSH2 0x24DA PUSH32 0xFFFFFFFFFFFFFFFFFFFFFFFFFFFFFFFFFFFFFFFFFFFFFFFFFFFFFFFFFFFFFFFF DUP3 PUSH2 0x249D JUMP JUMPDEST PUSH2 0x24E4 DUP7 DUP4 PUSH2 0x249D JUMP JUMPDEST SWAP6 POP DUP1 NOT DUP5 AND SWAP4 POP DUP1 DUP7 AND DUP5 OR SWAP3 POP POP POP SWAP4 SWAP3 POP POP POP JUMP JUMPDEST PUSH1 0x0 DUP2 SWAP1 POP SWAP2 SWAP1 POP JUMP JUMPDEST PUSH1 0x0 PUSH2 0x2521 PUSH2 0x251C PUSH2 0x2517 DUP5 PUSH2 0x1E51 JUMP JUMPDEST PUSH2 0x24FC JUMP JUMPDEST PUSH2 0x1E51 JUMP JUMPDEST SWAP1 POP SWAP2 SWAP1 POP JUMP JUMPDEST PUSH1 0x0 DUP2 SWAP1 POP SWAP2 SWAP1 POP JUMP JUMPDEST PUSH2 0x253B DUP4 PUSH2 0x2506 JUMP JUMPDEST PUSH2 0x254F PUSH2 0x2547 DUP3 PUSH2 0x2528 JUMP JUMPDEST DUP5 DUP5 SLOAD PUSH2 0x24AA JUMP JUMPDEST DUP3 SSTORE POP POP POP POP JUMP JUMPDEST PUSH1 0x0 SWAP1 JUMP JUMPDEST PUSH2 0x2564 PUSH2 0x2557 JUMP JUMPDEST PUSH2 0x256F DUP2 DUP5 DUP5 PUSH2 0x2532 JUMP JUMPDEST POP POP POP JUMP JUMPDEST JUMPDEST DUP2 DUP2 LT ISZERO PUSH2 0x2593 JUMPI PUSH2 0x2588 PUSH1 0x0 DUP3 PUSH2 0x255C JUMP JUMPDEST PUSH1 0x1 DUP2 ADD SWAP1 POP PUSH2 0x2575 JUMP JUMPDEST POP POP JUMP JUMPDEST PUSH1 0x1F DUP3 GT ISZERO PUSH2 0x25D8 JUMPI PUSH2 0x25A9 DUP2 PUSH2 0x2478 JUMP JUMPDEST PUSH2 0x25B2 DUP5 PUSH2 0x248D JUMP JUMPDEST DUP2 ADD PUSH1 0x20 DUP6 LT ISZERO PUSH2 0x25C1 JUMPI DUP2 SWAP1 POP JUMPDEST PUSH2 0x25D5 PUSH2 0x25CD DUP6 PUSH2 0x248D JUMP JUMPDEST DUP4 ADD DUP3 PUSH2 0x2574 JUMP JUMPDEST POP POP JUMPDEST POP POP POP JUMP JUMPDEST PUSH1 0x0 DUP3 DUP3 SHR SWAP1 POP SWAP3 SWAP2 POP POP JUMP JUMPDEST PUSH1 0x0 PUSH2 0x25FB PUSH1 0x0 NOT DUP5 PUSH1 0x8 MUL PUSH2 0x25DD JUMP JUMPDEST NOT DUP1 DUP4 AND SWAP2 POP POP SWAP3 SWAP2 POP POP JUMP JUMPDEST PUSH1 0x0 PUSH2 0x2614 DUP4 DUP4 PUSH2 0x25EA JUMP JUMPDEST SWAP2 POP DUP3 PUSH1 0x2 MUL DUP3 OR SWAP1 POP SWAP3 SWAP2 POP POP JUMP JUMPDEST PUSH2 0x262D DUP3 PUSH2 0x1EDA JUMP JUMPDEST PUSH8 0xFFFFFFFFFFFFFFFF DUP2 GT ISZERO PUSH2 0x2646 JUMPI PUSH2 0x2645 PUSH2 0x219D JUMP JUMPDEST JUMPDEST PUSH2 0x2650 DUP3 SLOAD PUSH2 0x23DB JUMP JUMPDEST PUSH2 0x265B DUP3 DUP3 DUP6 PUSH2 0x2597 JUMP JUMPDEST PUSH1 0x0 PUSH1 0x20 SWAP1 POP PUSH1 0x1F DUP4 GT PUSH1 0x1 DUP2 EQ PUSH2 0x268E JUMPI PUSH1 0x0 DUP5 ISZERO PUSH2 0x267C JUMPI DUP3 DUP8 ADD MLOAD SWAP1 POP JUMPDEST PUSH2 0x2686 DUP6 DUP3 PUSH2 0x2608 JUMP JUMPDEST DUP7 SSTORE POP PUSH2 0x26EE JUMP JUMPDEST PUSH1 0x1F NOT DUP5 AND PUSH2 0x269C DUP7 PUSH2 0x2478 JUMP JUMPDEST PUSH1 0x0 JUMPDEST DUP3 DUP2 LT ISZERO PUSH2 0x26C4 JUMPI DUP5 DUP10 ADD MLOAD DUP3 SSTORE PUSH1 0x1 DUP3 ADD SWAP2 POP PUSH1 0x20 DUP6 ADD SWAP5 POP PUSH1 0x20 DUP2 ADD SWAP1 POP PUSH2 0x269F JUMP JUMPDEST DUP7 DUP4 LT ISZERO PUSH2 0x26E1 JUMPI DUP5 DUP10 ADD MLOAD PUSH2 0x26DD PUSH1 0x1F DUP10 AND DUP3 PUSH2 0x25EA JUMP JUMPDEST DUP4 SSTORE POP JUMPDEST PUSH1 0x1 PUSH1 0x2 DUP9 MUL ADD DUP9 SSTORE POP POP POP JUMPDEST POP POP POP POP POP POP JUMP JUMPDEST PUSH32 0x4E487B7100000000000000000000000000000000000000000000000000000000 PUSH1 0x0 MSTORE PUSH1 0x11 PUSH1 0x4 MSTORE PUSH1 0x24 PUSH1 0x0 REVERT JUMPDEST PUSH1 0x0 PUSH2 0x2730 DUP3 PUSH2 0x1E51 JUMP JUMPDEST SWAP2 POP PUSH2 0x273B DUP4 PUSH2 0x1E51 JUMP JUMPDEST SWAP3 POP DUP3 DUP3 ADD SWAP1 POP DUP1 DUP3 GT ISZERO PUSH2 0x2753 JUMPI PUSH2 0x2752 PUSH2 0x26F6 JUMP JUMPDEST JUMPDEST SWAP3 SWAP2 POP POP JUMP JUMPDEST PUSH32 0x536166654D6174683A206164646974696F6E206F766572666C6F770000000000 PUSH1 0x0 DUP3 ADD MSTORE POP JUMP JUMPDEST PUSH1 0x0 PUSH2 0x278F PUSH1 0x1B DUP4 PUSH2 0x1EE5 JUMP JUMPDEST SWAP2 POP PUSH2 0x279A DUP3 PUSH2 0x2759 JUMP JUMPDEST PUSH1 0x20 DUP3 ADD SWAP1 POP SWAP2 SWAP1 POP JUMP JUMPDEST PUSH1 0x0 PUSH1 0x20 DUP3 ADD SWAP1 POP DUP2 DUP2 SUB PUSH1 0x0 DUP4 ADD MSTORE PUSH2 0x27BE DUP2 PUSH2 0x2782 JUMP JUMPDEST SWAP1 POP SWAP2 SWAP1 POP JUMP JUMPDEST PUSH1 0x0 PUSH1 0x40 DUP3 ADD SWAP1 POP PUSH2 0x27DA PUSH1 0x0 DUP4 ADD DUP6 PUSH2 0x2002 JUMP JUMPDEST PUSH2 0x27E7 PUSH1 0x20 DUP4 ADD DUP5 PUSH2 0x2059 JUMP JUMPDEST SWAP4 SWAP3 POP POP POP JUMP JUMPDEST PUSH32 0x42617365546F6B656E3A20617070726F76652066726F6D20746865207A65726F PUSH1 0x0 DUP3 ADD MSTORE PUSH32 0x2061646472657373000000000000000000000000000000000000000000000000 PUSH1 0x20 DUP3 ADD MSTORE POP JUMP JUMPDEST PUSH1 0x0 PUSH2 0x284A PUSH1 0x28 DUP4 PUSH2 0x1EE5 JUMP JUMPDEST SWAP2 POP PUSH2 0x2855 DUP3 PUSH2 0x27EE JUMP JUMPDEST PUSH1 0x40 DUP3 ADD SWAP1 POP SWAP2 SWAP1 POP JUMP JUMPDEST PUSH1 0x0 PUSH1 0x20 DUP3 ADD SWAP1 POP DUP2 DUP2 SUB PUSH1 0x0 DUP4 ADD MSTORE PUSH2 0x2879 DUP2 PUSH2 0x283D JUMP JUMPDEST SWAP1 POP SWAP2 SWAP1 POP JUMP JUMPDEST PUSH32 0x42617365546F6B656E3A20617070726F766520746F20746865207A65726F2061 PUSH1 0x0 DUP3 ADD MSTORE PUSH32 0x6464726573730000000000000000000000000000000000000000000000000000 PUSH1 0x20 DUP3 ADD MSTORE POP JUMP JUMPDEST PUSH1 0x0 PUSH2 0x28DC PUSH1 0x26 DUP4 PUSH2 0x1EE5 JUMP JUMPDEST SWAP2 POP PUSH2 0x28E7 DUP3 PUSH2 0x2880 JUMP JUMPDEST PUSH1 0x40 DUP3 ADD SWAP1 POP SWAP2 SWAP1 POP JUMP JUMPDEST PUSH1 0x0 PUSH1 0x20 DUP3 ADD SWAP1 POP DUP2 DUP2 SUB PUSH1 0x0 DUP4 ADD MSTORE PUSH2 0x290B DUP2 PUSH2 0x28CF JUMP JUMPDEST SWAP1 POP SWAP2 SWAP1 POP JUMP JUMPDEST PUSH32 0x42617365546F6B656E3A207472616E736665722066726F6D20746865207A6572 PUSH1 0x0 DUP3 ADD MSTORE PUSH32 0x6F20616464726573730000000000000000000000000000000000000000000000 PUSH1 0x20 DUP3 ADD MSTORE POP JUMP JUMPDEST PUSH1 0x0 PUSH2 0x296E PUSH1 0x29 DUP4 PUSH2 0x1EE5 JUMP JUMPDEST SWAP2 POP PUSH2 0x2979 DUP3 PUSH2 0x2912 JUMP JUMPDEST PUSH1 0x40 DUP3 ADD SWAP1 POP SWAP2 SWAP1 POP JUMP JUMPDEST PUSH1 0x0 PUSH1 0x20 DUP3 ADD SWAP1 POP DUP2 DUP2 SUB PUSH1 0x0 DUP4 ADD MSTORE PUSH2 0x299D DUP2 PUSH2 0x2961 JUMP JUMPDEST SWAP1 POP SWAP2 SWAP1 POP JUMP JUMPDEST PUSH32 0x42617365546F6B656E3A207472616E7366657220746F20746865207A65726F20 PUSH1 0x0 DUP3 ADD MSTORE PUSH32 0x6164647265737300000000000000000000000000000000000000000000000000 PUSH1 0x20 DUP3 ADD MSTORE POP JUMP JUMPDEST PUSH1 0x0 PUSH2 0x2A00 PUSH1 0x27 DUP4 PUSH2 0x1EE5 JUMP JUMPDEST SWAP2 POP PUSH2 0x2A0B DUP3 PUSH2 0x29A4 JUMP JUMPDEST PUSH1 0x40 DUP3 ADD SWAP1 POP SWAP2 SWAP1 POP JUMP JUMPDEST PUSH1 0x0 PUSH1 0x20 DUP3 ADD SWAP1 POP DUP2 DUP2 SUB PUSH1 0x0 DUP4 ADD MSTORE PUSH2 0x2A2F DUP2 PUSH2 0x29F3 JUMP JUMPDEST SWAP1 POP SWAP2 SWAP1 POP JUMP JUMPDEST PUSH32 0x42617365546F6B656E3A206D73672E73656E646572206E6F742077686974656C PUSH1 0x0 DUP3 ADD MSTORE PUSH32 0x6973746564000000000000000000000000000000000000000000000000000000 PUSH1 0x20 DUP3 ADD MSTORE POP JUMP JUMPDEST PUSH1 0x0 PUSH2 0x2A92 PUSH1 0x25 DUP4 PUSH2 0x1EE5 JUMP JUMPDEST SWAP2 POP PUSH2 0x2A9D DUP3 PUSH2 0x2A36 JUMP JUMPDEST PUSH1 0x40 DUP3 ADD SWAP1 POP SWAP2 SWAP1 POP JUMP JUMPDEST PUSH1 0x0 PUSH1 0x20 DUP3 ADD SWAP1 POP DUP2 DUP2 SUB PUSH1 0x0 DUP4 ADD MSTORE PUSH2 0x2AC1 DUP2 PUSH2 0x2A85 JUMP JUMPDEST SWAP1 POP SWAP2 SWAP1 POP JUMP JUMPDEST PUSH1 0x0 PUSH2 0x2AD3 DUP3 PUSH2 0x1E51 JUMP JUMPDEST SWAP2 POP PUSH2 0x2ADE DUP4 PUSH2 0x1E51 JUMP JUMPDEST SWAP3 POP DUP3 DUP3 SUB SWAP1 POP DUP2 DUP2 GT ISZERO PUSH2 0x2AF6 JUMPI PUSH2 0x2AF5 PUSH2 0x26F6 JUMP JUMPDEST JUMPDEST SWAP3 SWAP2 POP POP JUMP JUMPDEST PUSH32 0x42617365546F6B656E3A206D696E7420746F20746865207A65726F2061646472 PUSH1 0x0 DUP3 ADD MSTORE PUSH32 0x6573730000000000000000000000000000000000000000000000000000000000 PUSH1 0x20 DUP3 ADD MSTORE POP JUMP JUMPDEST PUSH1 0x0 PUSH2 0x2B58 PUSH1 0x23 DUP4 PUSH2 0x1EE5 JUMP JUMPDEST SWAP2 POP PUSH2 0x2B63 DUP3 PUSH2 0x2AFC JUMP JUMPDEST PUSH1 0x40 DUP3 ADD SWAP1 POP SWAP2 SWAP1 POP JUMP JUMPDEST PUSH1 0x0 PUSH1 0x20 DUP3 ADD SWAP1 POP DUP2 DUP2 SUB PUSH1 0x0 DUP4 ADD MSTORE PUSH2 0x2B87 DUP2 PUSH2 0x2B4B JUMP JUMPDEST SWAP1 POP SWAP2 SWAP1 POP JUMP JUMPDEST PUSH32 0x42617365546F6B656E3A206275726E2066726F6D20746865207A65726F206164 PUSH1 0x0 DUP3 ADD MSTORE PUSH32 0x6472657373000000000000000000000000000000000000000000000000000000 PUSH1 0x20 DUP3 ADD MSTORE POP JUMP JUMPDEST PUSH1 0x0 PUSH2 0x2BEA PUSH1 0x25 DUP4 PUSH2 0x1EE5 JUMP JUMPDEST SWAP2 POP PUSH2 0x2BF5 DUP3 PUSH2 0x2B8E JUMP JUMPDEST PUSH1 0x40 DUP3 ADD SWAP1 POP SWAP2 SWAP1 POP JUMP JUMPDEST PUSH1 0x0 PUSH1 0x20 DUP3 ADD SWAP1 POP DUP2 DUP2 SUB PUSH1 0x0 DUP4 ADD MSTORE PUSH2 0x2C19 DUP2 PUSH2 0x2BDD JUMP JUMPDEST SWAP1 POP SWAP2 SWAP1 POP JUMP JUMPDEST PUSH1 0x0 DUP2 MLOAD SWAP1 POP PUSH2 0x2C2F DUP2 PUSH2 0x20FA JUMP JUMPDEST SWAP3 SWAP2 POP POP JUMP JUMPDEST PUSH1 0x0 PUSH1 0x20 DUP3 DUP5 SUB SLT ISZERO PUSH2 0x2C4B JUMPI PUSH2 0x2C4A PUSH2 0x1DE9 JUMP JUMPDEST JUMPDEST PUSH1 0x0 PUSH2 0x2C59 DUP5 DUP3 DUP6 ADD PUSH2 0x2C20 JUMP JUMPDEST SWAP2 POP POP SWAP3 SWAP2 POP POP JUMP JUMPDEST PUSH32 0x5361666545524332303A204552433230206F7065726174696F6E20646964206E PUSH1 0x0 DUP3 ADD MSTORE PUSH32 0x6F74207375636365656400000000000000000000000000000000000000000000 PUSH1 0x20 DUP3 ADD MSTORE POP JUMP JUMPDEST PUSH1 0x0 PUSH2 0x2CBE PUSH1 0x2A DUP4 PUSH2 0x1EE5 JUMP JUMPDEST SWAP2 POP PUSH2 0x2CC9 DUP3 PUSH2 0x2C62 JUMP JUMPDEST PUSH1 0x40 DUP3 ADD SWAP1 POP SWAP2 SWAP1 POP JUMP JUMPDEST PUSH1 0x0 PUSH1 0x20 DUP3 ADD SWAP1 POP DUP2 DUP2 SUB PUSH1 0x0 DUP4 ADD MSTORE PUSH2 0x2CED DUP2 PUSH2 0x2CB1 JUMP JUMPDEST SWAP1 POP SWAP2 SWAP1 POP JUMP JUMPDEST PUSH32 0x416464726573733A20696E73756666696369656E742062616C616E636520666F PUSH1 0x0 DUP3 ADD MSTORE PUSH32 0x722063616C6C0000000000000000000000000000000000000000000000000000 PUSH1 0x20 DUP3 ADD MSTORE POP JUMP JUMPDEST PUSH1 0x0 PUSH2 0x2D50 PUSH1 0x26 DUP4 PUSH2 0x1EE5 JUMP JUMPDEST SWAP2 POP PUSH2 0x2D5B DUP3 PUSH2 0x2CF4 JUMP JUMPDEST PUSH1 0x40 DUP3 ADD SWAP1 POP SWAP2 SWAP1 POP JUMP JUMPDEST PUSH1 0x0 PUSH1 0x20 DUP3 ADD SWAP1 POP DUP2 DUP2 SUB PUSH1 0x0 DUP4 ADD MSTORE PUSH2 0x2D7F DUP2 PUSH2 0x2D43 JUMP JUMPDEST SWAP1 POP SWAP2 SWAP1 POP JUMP JUMPDEST PUSH32 0x416464726573733A2063616C6C20746F206E6F6E2D636F6E7472616374000000 PUSH1 0x0 DUP3 ADD MSTORE POP JUMP JUMPDEST PUSH1 0x0 PUSH2 0x2DBC PUSH1 0x1D DUP4 PUSH2 0x1EE5 JUMP JUMPDEST SWAP2 POP PUSH2 0x2DC7 DUP3 PUSH2 0x2D86 JUMP JUMPDEST PUSH1 0x20 DUP3 ADD SWAP1 POP SWAP2 SWAP1 POP JUMP JUMPDEST PUSH1 0x0 PUSH1 0x20 DUP3 ADD SWAP1 POP DUP2 DUP2 SUB PUSH1 0x0 DUP4 ADD MSTORE PUSH2 0x2DEB DUP2 PUSH2 0x2DAF JUMP JUMPDEST SWAP1 POP SWAP2 SWAP1 POP JUMP JUMPDEST PUSH1 0x0 DUP2 MLOAD SWAP1 POP SWAP2 SWAP1 POP JUMP JUMPDEST PUSH1 0x0 DUP2 SWAP1 POP SWAP3 SWAP2 POP POP JUMP JUMPDEST PUSH1 0x0 PUSH2 0x2E13 DUP3 PUSH2 0x2DF2 JUMP JUMPDEST PUSH2 0x2E1D DUP2 DUP6 PUSH2 0x2DFD JUMP JUMPDEST SWAP4 POP PUSH2 0x2E2D DUP2 DUP6 PUSH1 0x20 DUP7 ADD PUSH2 0x1EF6 JUMP JUMPDEST DUP1 DUP5 ADD SWAP2 POP POP SWAP3 SWAP2 POP POP JUMP JUMPDEST PUSH1 0x0 PUSH2 0x2E45 DUP3 DUP5 PUSH2 0x2E08 JUMP JUMPDEST SWAP2 POP DUP2 SWAP1 POP SWAP3 SWAP2 POP POP JUMP INVALID TIMESTAMP PUSH2 0x7365 SLOAD PUSH16 0x6B656E3A207472616E7366657220616D PUSH16 0x756E74206578636565647320616C6C6F PUSH24 0x616E636542617365546F6B656E3A207472616E7366657220 PUSH2 0x6D6F PUSH22 0x6E7420657863656564732062616C616E636542617365 SLOAD PUSH16 0x6B656E3A206275726E20616D6F756E74 KECCAK256 PUSH6 0x786365656473 KECCAK256 PUSH3 0x616C61 PUSH15 0x6365A2646970667358221220152F0D CALLER MSTORE 0xE6 SWAP11 DUP12 POP 0xB3 DUP8 PUSH3 0x982D9 PUSH7 0x6393E1D513EA2F 0xCA SELFDESTRUCT DUP4 0xBF SWAP13 ADDRESS GASPRICE 0x2A MSTORE PUSH5 0x736F6C6343 STOP ADDMOD GT STOP CALLER "},"methodIdentifiers":{"addAdmin(address)":"70480275","admins(address)":"429b62e5","allowance(address,address)":"dd62ed3e","allowances(address,address)":"55b6ed5c","approve(address,uint256)":"095ea7b3","balanceOf(address)":"70a08231","balances(address)":"27e235e3","burn(address,uint256)":"9dc29fac","decimals()":"313ce567","gov()":"12d43a51","id()":"af640d0f","inPrivateTransferMode()":"dfbaefb1","isHandler(address)":"46ea87af","isMinter(address)":"aa271e1a","mint(address,uint256)":"40c10f19","name()":"06fdde03","removeAdmin(address)":"1785f53c","setGov(address)":"cfad57a2","setHandler(address,bool)":"9cb7de4b","setInPrivateTransferMode(bool)":"5a47a1a7","setInfo(string,string)":"a923fc40","setMinter(address,bool)":"cf456ae7","symbol()":"95d89b41","totalSupply()":"18160ddd","transfer(address,uint256)":"a9059cbb","transferFrom(address,address,uint256)":"23b872dd","withdrawToken(address,address,uint256)":"01e33667"}}}}}