{"contracts/LendingContract.sol":{"LendingContract":{"abi":[{"inputs":[{"internalType":"address","name":"_usdcAddress","type":"address"}],"stateMutability":"nonpayable","type":"constructor"},{"inputs":[],"name":"LTV","outputs":[{"internalType":"uint256","name":"","type":"uint256"}],"stateMutability":"view","type":"function"},{"inputs":[],"name":"PRICE_PRECISION","outputs":[{"internalType":"uint256","name":"","type":"uint256"}],"stateMutability":"view","type":"function"},{"inputs":[],"name":"USDC_DECIMALS_DIVISOR","outputs":[{"internalType":"uint256","name":"","type":"uint256"}],"stateMutability":"view","type":"function"},{"inputs":[{"internalType":"address","name":"","type":"address"}],"name":"amountLoanedByUser","outputs":[{"internalType":"uint256","name":"","type":"uint256"}],"stateMutability":"view","type":"function"},{"inputs":[{"internalType":"address","name":"_account","type":"address"}],"name":"existingLoanOnPortfolio","outputs":[{"internalType":"uint256","name":"","type":"uint256"}],"stateMutability":"view","type":"function"},{"inputs":[],"name":"factoryContractAddress","outputs":[{"internalType":"address","name":"","type":"address"}],"stateMutability":"view","type":"function"},{"inputs":[],"name":"getReserve","outputs":[{"internalType":"uint256","name":"","type":"uint256"}],"stateMutability":"view","type":"function"},{"inputs":[],"name":"gov","outputs":[{"internalType":"address","name":"","type":"address"}],"stateMutability":"view","type":"function"},{"inputs":[],"name":"klpManagerAddress","outputs":[{"internalType":"address","name":"","type":"address"}],"stateMutability":"view","type":"function"},{"inputs":[{"internalType":"uint256","name":"_repayLoanAmount","type":"uint256"}],"name":"paybackLoan","outputs":[],"stateMutability":"nonpayable","type":"function"},{"inputs":[{"internalType":"address","name":"_account","type":"address"},{"internalType":"uint256","name":"_amount","type":"uint256"}],"name":"sendUsdcToLp","outputs":[],"stateMutability":"nonpayable","type":"function"},{"inputs":[{"internalType":"address","name":"newAddress","type":"address"}],"name":"setFactoryaContractAddress","outputs":[],"stateMutability":"nonpayable","type":"function"},{"inputs":[{"internalType":"address","name":"newAddress","type":"address"}],"name":"setKlpManagerAddress","outputs":[],"stateMutability":"nonpayable","type":"function"},{"inputs":[{"internalType":"uint256","name":"_loanAmount","type":"uint256"}],"name":"takeLoanOnPosition","outputs":[],"stateMutability":"nonpayable","type":"function"},{"inputs":[],"name":"totalLoanedAmount","outputs":[{"internalType":"uint256","name":"","type":"uint256"}],"stateMutability":"view","type":"function"},{"inputs":[],"name":"usdcAddress","outputs":[{"internalType":"address","name":"","type":"address"}],"stateMutability":"view","type":"function"}],"evm":{"bytecode":{"linkReferences":{},"object":"608060405260006005553480156200001657600080fd5b50604051620017403803806200174083398181016040528101906200003c91906200012e565b336000806101000a81548173ffffffffffffffffffffffffffffffffffffffff021916908373ffffffffffffffffffffffffffffffffffffffff16021790555080600360006101000a81548173ffffffffffffffffffffffffffffffffffffffff021916908373ffffffffffffffffffffffffffffffffffffffff1602179055505062000160565b600080fd5b600073ffffffffffffffffffffffffffffffffffffffff82169050919050565b6000620000f682620000c9565b9050919050565b6200010881620000e9565b81146200011457600080fd5b50565b6000815190506200012881620000fd565b92915050565b600060208284031215620001475762000146620000c4565b5b6000620001578482850162000117565b91505092915050565b6115d080620001706000396000f3fe608060405234801561001057600080fd5b50600436106101005760003560e01c80637c2bfdfb11610097578063ad993f9711610066578063ad993f971461027b578063ca0cd00a14610297578063d04f246b146102b3578063d16ef22a146102e357610100565b80637c2bfdfb14610205578063819bd33c1461022157806395082d251461023f5780639d0d42c71461025d57610100565b806359bf5d39116100d357806359bf5d391461017b57806362965d8e14610199578063732e0a1d146101b7578063794ef3e4146101d557610100565b806302d45457146101055780630fef75c31461012357806312d43a511461013f57806336bda8831461015d575b600080fd5b61010d6102ff565b60405161011a9190610e00565b60405180910390f35b61013d60048036038101906101389190610e4c565b610325565b005b610147610371565b6040516101549190610e00565b60405180910390f35b610165610395565b6040516101729190610e92565b60405180910390f35b6101836103a3565b6040516101909190610e92565b60405180910390f35b6101a1610462565b6040516101ae9190610e92565b60405180910390f35b6101bf610467565b6040516101cc9190610e00565b60405180910390f35b6101ef60048036038101906101ea9190610e4c565b61048d565b6040516101fc9190610e92565b60405180910390f35b61021f600480360381019061021a9190610ed9565b6104a5565b005b6102296105da565b6040516102369190610e92565b60405180910390f35b6102476105e0565b6040516102549190610e92565b60405180910390f35b6102656105f1565b6040516102729190610e00565b60405180910390f35b61029560048036038101906102909190610e4c565b610617565b005b6102b160048036038101906102ac9190610f19565b610663565b005b6102cd60048036038101906102c89190610e4c565b610a0c565b6040516102da9190610e92565b60405180910390f35b6102fd60048036038101906102f89190610f19565b610a55565b005b600360009054906101000a900473ffffffffffffffffffffffffffffffffffffffff1681565b61032d610c08565b80600160006101000a81548173ffffffffffffffffffffffffffffffffffffffff021916908373ffffffffffffffffffffffffffffffffffffffff16021790555050565b60008054906101000a900473ffffffffffffffffffffffffffffffffffffffff1681565b69d3c21bcecceda100000081565b600061045d69d3c21bcecceda1000000600360009054906101000a900473ffffffffffffffffffffffffffffffffffffffff1673ffffffffffffffffffffffffffffffffffffffff166370a08231306040518263ffffffff1660e01b815260040161040e9190610e00565b602060405180830381865afa15801561042b573d6000803e3d6000fd5b505050506040513d601f19601f8201168201806040525081019061044f9190610f5b565b610c9890919063ffffffff16565b905090565b603c81565b600160009054906101000a900473ffffffffffffffffffffffffffffffffffffffff1681565b60046020528060005260406000206000915090505481565b600260009054906101000a900473ffffffffffffffffffffffffffffffffffffffff1673ffffffffffffffffffffffffffffffffffffffff163373ffffffffffffffffffffffffffffffffffffffff1614610535576040517f08c379a000000000000000000000000000000000000000000000000000000000815260040161052c9061100b565b60405180910390fd5b600360009054906101000a900473ffffffffffffffffffffffffffffffffffffffff1673ffffffffffffffffffffffffffffffffffffffff1663a9059cbb83836040518363ffffffff1660e01b815260040161059292919061102b565b6020604051808303816000875af11580156105b1573d6000803e3d6000fd5b505050506040513d601f19601f820116820180604052508101906105d5919061108c565b505050565b60055481565b6c0c9f2c9cd04674edea4000000081565b600260009054906101000a900473ffffffffffffffffffffffffffffffffffffffff1681565b61061f610c08565b80600260006101000a81548173ffffffffffffffffffffffffffffffffffffffff021916908373ffffffffffffffffffffffffffffffffffffffff16021790555050565b6000600160009054906101000a900473ffffffffffffffffffffffffffffffffffffffff16905060008173ffffffffffffffffffffffffffffffffffffffff16633704d21b336040518263ffffffff1660e01b81526004016106c59190610e00565b602060405180830381865afa1580156106e2573d6000803e3d6000fd5b505050506040513d601f19601f8201168201806040525081019061070691906110ce565b9050600081905060008173ffffffffffffffffffffffffffffffffffffffff1663bb0498de6040518163ffffffff1660e01b8152600401602060405180830381865afa15801561075a573d6000803e3d6000fd5b505050506040513d601f19601f8201168201806040525081019061077e9190610f5b565b90506107a76064610799603c84610c9890919063ffffffff16565b610d1290919063ffffffff16565b600460003373ffffffffffffffffffffffffffffffffffffffff1673ffffffffffffffffffffffffffffffffffffffff1681526020019081526020016000205410610827576040517f08c379a000000000000000000000000000000000000000000000000000000000815260040161081e9061116d565b60405180910390fd5b61084e6064610840603c84610c9890919063ffffffff16565b610d1290919063ffffffff16565b85600460003373ffffffffffffffffffffffffffffffffffffffff1673ffffffffffffffffffffffffffffffffffffffff1681526020019081526020016000205461089991906111bc565b106108d9576040517f08c379a00000000000000000000000000000000000000000000000000000000081526004016108d09061123c565b60405180910390fd5b84600460003373ffffffffffffffffffffffffffffffffffffffff1673ffffffffffffffffffffffffffffffffffffffff168152602001908152602001600020600082825461092891906111bc565b92505081905550846005600082825461094191906111bc565b92505081905550600360009054906101000a900473ffffffffffffffffffffffffffffffffffffffff1673ffffffffffffffffffffffffffffffffffffffff1663a9059cbb336109a469d3c21bcecceda100000089610d1290919063ffffffff16565b6040518363ffffffff1660e01b81526004016109c192919061102b565b6020604051808303816000875af11580156109e0573d6000803e3d6000fd5b505050506040513d601f19601f82011682018060405250810190610a04919061108c565b505050505050565b6000600460008373ffffffffffffffffffffffffffffffffffffffff1673ffffffffffffffffffffffffffffffffffffffff168152602001908152602001600020549050919050565b80600460003373ffffffffffffffffffffffffffffffffffffffff1673ffffffffffffffffffffffffffffffffffffffff168152602001908152602001600020541015610ad7576040517f08c379a0000000000000000000000000000000000000000000000000000000008152600401610ace906112ce565b60405180910390fd5b80600460003373ffffffffffffffffffffffffffffffffffffffff1673ffffffffffffffffffffffffffffffffffffffff1681526020019081526020016000206000828254610b2691906112ee565b925050819055508060056000828254610b3f91906112ee565b92505081905550600360009054906101000a900473ffffffffffffffffffffffffffffffffffffffff1673ffffffffffffffffffffffffffffffffffffffff166323b872dd3330610ba369d3c21bcecceda100000086610d1290919063ffffffff16565b6040518463ffffffff1660e01b8152600401610bc193929190611322565b6020604051808303816000875af1158015610be0573d6000803e3d6000fd5b505050506040513d601f19601f82011682018060405250810190610c04919061108c565b5050565b60008054906101000a900473ffffffffffffffffffffffffffffffffffffffff1673ffffffffffffffffffffffffffffffffffffffff163373ffffffffffffffffffffffffffffffffffffffff1614610c96576040517f08c379a0000000000000000000000000000000000000000000000000000000008152600401610c8d906113a5565b60405180910390fd5b565b6000808303610caa5760009050610d0c565b60008284610cb891906113c5565b9050828482610cc79190611436565b14610d07576040517f08c379a0000000000000000000000000000000000000000000000000000000008152600401610cfe906114d9565b60405180910390fd5b809150505b92915050565b6000610d5483836040518060400160405280601a81526020017f536166654d6174683a206469766973696f6e206279207a65726f000000000000815250610d5c565b905092915050565b60008083118290610da3576040517f08c379a0000000000000000000000000000000000000000000000000000000008152600401610d9a9190611578565b60405180910390fd5b5060008385610db29190611436565b9050809150509392505050565b600073ffffffffffffffffffffffffffffffffffffffff82169050919050565b6000610dea82610dbf565b9050919050565b610dfa81610ddf565b82525050565b6000602082019050610e156000830184610df1565b92915050565b600080fd5b610e2981610ddf565b8114610e3457600080fd5b50565b600081359050610e4681610e20565b92915050565b600060208284031215610e6257610e61610e1b565b5b6000610e7084828501610e37565b91505092915050565b6000819050919050565b610e8c81610e79565b82525050565b6000602082019050610ea76000830184610e83565b92915050565b610eb681610e79565b8114610ec157600080fd5b50565b600081359050610ed381610ead565b92915050565b60008060408385031215610ef057610eef610e1b565b5b6000610efe85828601610e37565b9250506020610f0f85828601610ec4565b9150509250929050565b600060208284031215610f2f57610f2e610e1b565b5b6000610f3d84828501610ec4565b91505092915050565b600081519050610f5581610ead565b92915050565b600060208284031215610f7157610f70610e1b565b5b6000610f7f84828501610f46565b91505092915050565b600082825260208201905092915050565b7f6f6e6c7920746865206b6c70206d616e616765722063616e2063616c6c20746860008201527f69732066756e6374696f6e000000000000000000000000000000000000000000602082015250565b6000610ff5602b83610f88565b915061100082610f99565b604082019050919050565b6000602082019050818103600083015261102481610fe8565b9050919050565b60006040820190506110406000830185610df1565b61104d6020830184610e83565b9392505050565b60008115159050919050565b61106981611054565b811461107457600080fd5b50565b60008151905061108681611060565b92915050565b6000602082840312156110a2576110a1610e1b565b5b60006110b084828501611077565b91505092915050565b6000815190506110c881610e20565b92915050565b6000602082840312156110e4576110e3610e1b565b5b60006110f2848285016110b9565b91505092915050565b7f6578697374696e67206c6f616e20616d6f756e7420657863656564696e67204c60008201527f5456000000000000000000000000000000000000000000000000000000000000602082015250565b6000611157602283610f88565b9150611162826110fb565b604082019050919050565b600060208201905081810360008301526111868161114a565b9050919050565b7f4e487b7100000000000000000000000000000000000000000000000000000000600052601160045260246000fd5b60006111c782610e79565b91506111d283610e79565b92508282019050808211156111ea576111e961118d565b5b92915050565b7f4c545620646f6573206e6f7420737570706f7274206c6f616e20616d6f756e74600082015250565b6000611226602083610f88565b9150611231826111f0565b602082019050919050565b6000602082019050818103600083015261125581611219565b9050919050565b7f6c6f616e2074616b656e206c6573736572207468616e20706179696e6720616d60008201527f6f756e7400000000000000000000000000000000000000000000000000000000602082015250565b60006112b8602483610f88565b91506112c38261125c565b604082019050919050565b600060208201905081810360008301526112e7816112ab565b9050919050565b60006112f982610e79565b915061130483610e79565b925082820390508181111561131c5761131b61118d565b5b92915050565b60006060820190506113376000830186610df1565b6113446020830185610df1565b6113516040830184610e83565b949350505050565b7f6f6e6c7920676f762063616e2063616c6c20746869732066756e6374696f6e00600082015250565b600061138f601f83610f88565b915061139a82611359565b602082019050919050565b600060208201905081810360008301526113be81611382565b9050919050565b60006113d082610e79565b91506113db83610e79565b92508282026113e981610e79565b91508282048414831517611400576113ff61118d565b5b5092915050565b7f4e487b7100000000000000000000000000000000000000000000000000000000600052601260045260246000fd5b600061144182610e79565b915061144c83610e79565b92508261145c5761145b611407565b5b828204905092915050565b7f536166654d6174683a206d756c7469706c69636174696f6e206f766572666c6f60008201527f7700000000000000000000000000000000000000000000000000000000000000602082015250565b60006114c3602183610f88565b91506114ce82611467565b604082019050919050565b600060208201905081810360008301526114f2816114b6565b9050919050565b600081519050919050565b60005b83811015611522578082015181840152602081019050611507565b60008484015250505050565b6000601f19601f8301169050919050565b600061154a826114f9565b6115548185610f88565b9350611564818560208601611504565b61156d8161152e565b840191505092915050565b60006020820190508181036000830152611592818461153f565b90509291505056fea26469706673582212208640e6dc7938f1d7c71ee14d3d7c22b48b20e08f9ecbb3dd6e8f282c7ed0fa0d64736f6c63430008110033","opcodes":"PUSH1 0x80 PUSH1 0x40 MSTORE PUSH1 0x0 PUSH1 0x5 SSTORE CALLVALUE DUP1 ISZERO PUSH3 0x16 JUMPI PUSH1 0x0 DUP1 REVERT JUMPDEST POP PUSH1 0x40 MLOAD PUSH3 0x1740 CODESIZE SUB DUP1 PUSH3 0x1740 DUP4 CODECOPY DUP2 DUP2 ADD PUSH1 0x40 MSTORE DUP2 ADD SWAP1 PUSH3 0x3C SWAP2 SWAP1 PUSH3 0x12E JUMP JUMPDEST CALLER PUSH1 0x0 DUP1 PUSH2 0x100 EXP DUP2 SLOAD DUP2 PUSH20 0xFFFFFFFFFFFFFFFFFFFFFFFFFFFFFFFFFFFFFFFF MUL NOT AND SWAP1 DUP4 PUSH20 0xFFFFFFFFFFFFFFFFFFFFFFFFFFFFFFFFFFFFFFFF AND MUL OR SWAP1 SSTORE POP DUP1 PUSH1 0x3 PUSH1 0x0 PUSH2 0x100 EXP DUP2 SLOAD DUP2 PUSH20 0xFFFFFFFFFFFFFFFFFFFFFFFFFFFFFFFFFFFFFFFF MUL NOT AND SWAP1 DUP4 PUSH20 0xFFFFFFFFFFFFFFFFFFFFFFFFFFFFFFFFFFFFFFFF AND MUL OR SWAP1 SSTORE POP POP PUSH3 0x160 JUMP JUMPDEST PUSH1 0x0 DUP1 REVERT JUMPDEST PUSH1 0x0 PUSH20 0xFFFFFFFFFFFFFFFFFFFFFFFFFFFFFFFFFFFFFFFF DUP3 AND SWAP1 POP SWAP2 SWAP1 POP JUMP JUMPDEST PUSH1 0x0 PUSH3 0xF6 DUP3 PUSH3 0xC9 JUMP JUMPDEST SWAP1 POP SWAP2 SWAP1 POP JUMP JUMPDEST PUSH3 0x108 DUP2 PUSH3 0xE9 JUMP JUMPDEST DUP2 EQ PUSH3 0x114 JUMPI PUSH1 0x0 DUP1 REVERT JUMPDEST POP JUMP JUMPDEST PUSH1 0x0 DUP2 MLOAD SWAP1 POP PUSH3 0x128 DUP2 PUSH3 0xFD JUMP JUMPDEST SWAP3 SWAP2 POP POP JUMP JUMPDEST PUSH1 0x0 PUSH1 0x20 DUP3 DUP5 SUB SLT ISZERO PUSH3 0x147 JUMPI PUSH3 0x146 PUSH3 0xC4 JUMP JUMPDEST JUMPDEST PUSH1 0x0 PUSH3 0x157 DUP5 DUP3 DUP6 ADD PUSH3 0x117 JUMP JUMPDEST SWAP2 POP POP SWAP3 SWAP2 POP POP JUMP JUMPDEST PUSH2 0x15D0 DUP1 PUSH3 0x170 PUSH1 0x0 CODECOPY PUSH1 0x0 RETURN INVALID PUSH1 0x80 PUSH1 0x40 MSTORE CALLVALUE DUP1 ISZERO PUSH2 0x10 JUMPI PUSH1 0x0 DUP1 REVERT JUMPDEST POP PUSH1 0x4 CALLDATASIZE LT PUSH2 0x100 JUMPI PUSH1 0x0 CALLDATALOAD PUSH1 0xE0 SHR DUP1 PUSH4 0x7C2BFDFB GT PUSH2 0x97 JUMPI DUP1 PUSH4 0xAD993F97 GT PUSH2 0x66 JUMPI DUP1 PUSH4 0xAD993F97 EQ PUSH2 0x27B JUMPI DUP1 PUSH4 0xCA0CD00A EQ PUSH2 0x297 JUMPI DUP1 PUSH4 0xD04F246B EQ PUSH2 0x2B3 JUMPI DUP1 PUSH4 0xD16EF22A EQ PUSH2 0x2E3 JUMPI PUSH2 0x100 JUMP JUMPDEST DUP1 PUSH4 0x7C2BFDFB EQ PUSH2 0x205 JUMPI DUP1 PUSH4 0x819BD33C EQ PUSH2 0x221 JUMPI DUP1 PUSH4 0x95082D25 EQ PUSH2 0x23F JUMPI DUP1 PUSH4 0x9D0D42C7 EQ PUSH2 0x25D JUMPI PUSH2 0x100 JUMP JUMPDEST DUP1 PUSH4 0x59BF5D39 GT PUSH2 0xD3 JUMPI DUP1 PUSH4 0x59BF5D39 EQ PUSH2 0x17B JUMPI DUP1 PUSH4 0x62965D8E EQ PUSH2 0x199 JUMPI DUP1 PUSH4 0x732E0A1D EQ PUSH2 0x1B7 JUMPI DUP1 PUSH4 0x794EF3E4 EQ PUSH2 0x1D5 JUMPI PUSH2 0x100 JUMP JUMPDEST DUP1 PUSH4 0x2D45457 EQ PUSH2 0x105 JUMPI DUP1 PUSH4 0xFEF75C3 EQ PUSH2 0x123 JUMPI DUP1 PUSH4 0x12D43A51 EQ PUSH2 0x13F JUMPI DUP1 PUSH4 0x36BDA883 EQ PUSH2 0x15D JUMPI JUMPDEST PUSH1 0x0 DUP1 REVERT JUMPDEST PUSH2 0x10D PUSH2 0x2FF JUMP JUMPDEST PUSH1 0x40 MLOAD PUSH2 0x11A SWAP2 SWAP1 PUSH2 0xE00 JUMP JUMPDEST PUSH1 0x40 MLOAD DUP1 SWAP2 SUB SWAP1 RETURN JUMPDEST PUSH2 0x13D PUSH1 0x4 DUP1 CALLDATASIZE SUB DUP2 ADD SWAP1 PUSH2 0x138 SWAP2 SWAP1 PUSH2 0xE4C JUMP JUMPDEST PUSH2 0x325 JUMP JUMPDEST STOP JUMPDEST PUSH2 0x147 PUSH2 0x371 JUMP JUMPDEST PUSH1 0x40 MLOAD PUSH2 0x154 SWAP2 SWAP1 PUSH2 0xE00 JUMP JUMPDEST PUSH1 0x40 MLOAD DUP1 SWAP2 SUB SWAP1 RETURN JUMPDEST PUSH2 0x165 PUSH2 0x395 JUMP JUMPDEST PUSH1 0x40 MLOAD PUSH2 0x172 SWAP2 SWAP1 PUSH2 0xE92 JUMP JUMPDEST PUSH1 0x40 MLOAD DUP1 SWAP2 SUB SWAP1 RETURN JUMPDEST PUSH2 0x183 PUSH2 0x3A3 JUMP JUMPDEST PUSH1 0x40 MLOAD PUSH2 0x190 SWAP2 SWAP1 PUSH2 0xE92 JUMP JUMPDEST PUSH1 0x40 MLOAD DUP1 SWAP2 SUB SWAP1 RETURN JUMPDEST PUSH2 0x1A1 PUSH2 0x462 JUMP JUMPDEST PUSH1 0x40 MLOAD PUSH2 0x1AE SWAP2 SWAP1 PUSH2 0xE92 JUMP JUMPDEST PUSH1 0x40 MLOAD DUP1 SWAP2 SUB SWAP1 RETURN JUMPDEST PUSH2 0x1BF PUSH2 0x467 JUMP JUMPDEST PUSH1 0x40 MLOAD PUSH2 0x1CC SWAP2 SWAP1 PUSH2 0xE00 JUMP JUMPDEST PUSH1 0x40 MLOAD DUP1 SWAP2 SUB SWAP1 RETURN JUMPDEST PUSH2 0x1EF PUSH1 0x4 DUP1 CALLDATASIZE SUB DUP2 ADD SWAP1 PUSH2 0x1EA SWAP2 SWAP1 PUSH2 0xE4C JUMP JUMPDEST PUSH2 0x48D JUMP JUMPDEST PUSH1 0x40 MLOAD PUSH2 0x1FC SWAP2 SWAP1 PUSH2 0xE92 JUMP JUMPDEST PUSH1 0x40 MLOAD DUP1 SWAP2 SUB SWAP1 RETURN JUMPDEST PUSH2 0x21F PUSH1 0x4 DUP1 CALLDATASIZE SUB DUP2 ADD SWAP1 PUSH2 0x21A SWAP2 SWAP1 PUSH2 0xED9 JUMP JUMPDEST PUSH2 0x4A5 JUMP JUMPDEST STOP JUMPDEST PUSH2 0x229 PUSH2 0x5DA JUMP JUMPDEST PUSH1 0x40 MLOAD PUSH2 0x236 SWAP2 SWAP1 PUSH2 0xE92 JUMP JUMPDEST PUSH1 0x40 MLOAD DUP1 SWAP2 SUB SWAP1 RETURN JUMPDEST PUSH2 0x247 PUSH2 0x5E0 JUMP JUMPDEST PUSH1 0x40 MLOAD PUSH2 0x254 SWAP2 SWAP1 PUSH2 0xE92 JUMP JUMPDEST PUSH1 0x40 MLOAD DUP1 SWAP2 SUB SWAP1 RETURN JUMPDEST PUSH2 0x265 PUSH2 0x5F1 JUMP JUMPDEST PUSH1 0x40 MLOAD PUSH2 0x272 SWAP2 SWAP1 PUSH2 0xE00 JUMP JUMPDEST PUSH1 0x40 MLOAD DUP1 SWAP2 SUB SWAP1 RETURN JUMPDEST PUSH2 0x295 PUSH1 0x4 DUP1 CALLDATASIZE SUB DUP2 ADD SWAP1 PUSH2 0x290 SWAP2 SWAP1 PUSH2 0xE4C JUMP JUMPDEST PUSH2 0x617 JUMP JUMPDEST STOP JUMPDEST PUSH2 0x2B1 PUSH1 0x4 DUP1 CALLDATASIZE SUB DUP2 ADD SWAP1 PUSH2 0x2AC SWAP2 SWAP1 PUSH2 0xF19 JUMP JUMPDEST PUSH2 0x663 JUMP JUMPDEST STOP JUMPDEST PUSH2 0x2CD PUSH1 0x4 DUP1 CALLDATASIZE SUB DUP2 ADD SWAP1 PUSH2 0x2C8 SWAP2 SWAP1 PUSH2 0xE4C JUMP JUMPDEST PUSH2 0xA0C JUMP JUMPDEST PUSH1 0x40 MLOAD PUSH2 0x2DA SWAP2 SWAP1 PUSH2 0xE92 JUMP JUMPDEST PUSH1 0x40 MLOAD DUP1 SWAP2 SUB SWAP1 RETURN JUMPDEST PUSH2 0x2FD PUSH1 0x4 DUP1 CALLDATASIZE SUB DUP2 ADD SWAP1 PUSH2 0x2F8 SWAP2 SWAP1 PUSH2 0xF19 JUMP JUMPDEST PUSH2 0xA55 JUMP JUMPDEST STOP JUMPDEST PUSH1 0x3 PUSH1 0x0 SWAP1 SLOAD SWAP1 PUSH2 0x100 EXP SWAP1 DIV PUSH20 0xFFFFFFFFFFFFFFFFFFFFFFFFFFFFFFFFFFFFFFFF AND DUP2 JUMP JUMPDEST PUSH2 0x32D PUSH2 0xC08 JUMP JUMPDEST DUP1 PUSH1 0x1 PUSH1 0x0 PUSH2 0x100 EXP DUP2 SLOAD DUP2 PUSH20 0xFFFFFFFFFFFFFFFFFFFFFFFFFFFFFFFFFFFFFFFF MUL NOT AND SWAP1 DUP4 PUSH20 0xFFFFFFFFFFFFFFFFFFFFFFFFFFFFFFFFFFFFFFFF AND MUL OR SWAP1 SSTORE POP POP JUMP JUMPDEST PUSH1 0x0 DUP1 SLOAD SWAP1 PUSH2 0x100 EXP SWAP1 DIV PUSH20 0xFFFFFFFFFFFFFFFFFFFFFFFFFFFFFFFFFFFFFFFF AND DUP2 JUMP JUMPDEST PUSH10 0xD3C21BCECCEDA1000000 DUP2 JUMP JUMPDEST PUSH1 0x0 PUSH2 0x45D PUSH10 0xD3C21BCECCEDA1000000 PUSH1 0x3 PUSH1 0x0 SWAP1 SLOAD SWAP1 PUSH2 0x100 EXP SWAP1 DIV PUSH20 0xFFFFFFFFFFFFFFFFFFFFFFFFFFFFFFFFFFFFFFFF AND PUSH20 0xFFFFFFFFFFFFFFFFFFFFFFFFFFFFFFFFFFFFFFFF AND PUSH4 0x70A08231 ADDRESS PUSH1 0x40 MLOAD DUP3 PUSH4 0xFFFFFFFF AND PUSH1 0xE0 SHL DUP2 MSTORE PUSH1 0x4 ADD PUSH2 0x40E SWAP2 SWAP1 PUSH2 0xE00 JUMP JUMPDEST PUSH1 0x20 PUSH1 0x40 MLOAD DUP1 DUP4 SUB DUP2 DUP7 GAS STATICCALL ISZERO DUP1 ISZERO PUSH2 0x42B JUMPI RETURNDATASIZE PUSH1 0x0 DUP1 RETURNDATACOPY RETURNDATASIZE PUSH1 0x0 REVERT JUMPDEST POP POP POP POP PUSH1 0x40 MLOAD RETURNDATASIZE PUSH1 0x1F NOT PUSH1 0x1F DUP3 ADD AND DUP3 ADD DUP1 PUSH1 0x40 MSTORE POP DUP2 ADD SWAP1 PUSH2 0x44F SWAP2 SWAP1 PUSH2 0xF5B JUMP JUMPDEST PUSH2 0xC98 SWAP1 SWAP2 SWAP1 PUSH4 0xFFFFFFFF AND JUMP JUMPDEST SWAP1 POP SWAP1 JUMP JUMPDEST PUSH1 0x3C DUP2 JUMP JUMPDEST PUSH1 0x1 PUSH1 0x0 SWAP1 SLOAD SWAP1 PUSH2 0x100 EXP SWAP1 DIV PUSH20 0xFFFFFFFFFFFFFFFFFFFFFFFFFFFFFFFFFFFFFFFF AND DUP2 JUMP JUMPDEST PUSH1 0x4 PUSH1 0x20 MSTORE DUP1 PUSH1 0x0 MSTORE PUSH1 0x40 PUSH1 0x0 KECCAK256 PUSH1 0x0 SWAP2 POP SWAP1 POP SLOAD DUP2 JUMP JUMPDEST PUSH1 0x2 PUSH1 0x0 SWAP1 SLOAD SWAP1 PUSH2 0x100 EXP SWAP1 DIV PUSH20 0xFFFFFFFFFFFFFFFFFFFFFFFFFFFFFFFFFFFFFFFF AND PUSH20 0xFFFFFFFFFFFFFFFFFFFFFFFFFFFFFFFFFFFFFFFF AND CALLER PUSH20 0xFFFFFFFFFFFFFFFFFFFFFFFFFFFFFFFFFFFFFFFF AND EQ PUSH2 0x535 JUMPI PUSH1 0x40 MLOAD PUSH32 0x8C379A000000000000000000000000000000000000000000000000000000000 DUP2 MSTORE PUSH1 0x4 ADD PUSH2 0x52C SWAP1 PUSH2 0x100B JUMP JUMPDEST PUSH1 0x40 MLOAD DUP1 SWAP2 SUB SWAP1 REVERT JUMPDEST PUSH1 0x3 PUSH1 0x0 SWAP1 SLOAD SWAP1 PUSH2 0x100 EXP SWAP1 DIV PUSH20 0xFFFFFFFFFFFFFFFFFFFFFFFFFFFFFFFFFFFFFFFF AND PUSH20 0xFFFFFFFFFFFFFFFFFFFFFFFFFFFFFFFFFFFFFFFF AND PUSH4 0xA9059CBB DUP4 DUP4 PUSH1 0x40 MLOAD DUP4 PUSH4 0xFFFFFFFF AND PUSH1 0xE0 SHL DUP2 MSTORE PUSH1 0x4 ADD PUSH2 0x592 SWAP3 SWAP2 SWAP1 PUSH2 0x102B JUMP JUMPDEST PUSH1 0x20 PUSH1 0x40 MLOAD DUP1 DUP4 SUB DUP2 PUSH1 0x0 DUP8 GAS CALL ISZERO DUP1 ISZERO PUSH2 0x5B1 JUMPI RETURNDATASIZE PUSH1 0x0 DUP1 RETURNDATACOPY RETURNDATASIZE PUSH1 0x0 REVERT JUMPDEST POP POP POP POP PUSH1 0x40 MLOAD RETURNDATASIZE PUSH1 0x1F NOT PUSH1 0x1F DUP3 ADD AND DUP3 ADD DUP1 PUSH1 0x40 MSTORE POP DUP2 ADD SWAP1 PUSH2 0x5D5 SWAP2 SWAP1 PUSH2 0x108C JUMP JUMPDEST POP POP POP JUMP JUMPDEST PUSH1 0x5 SLOAD DUP2 JUMP JUMPDEST PUSH13 0xC9F2C9CD04674EDEA40000000 DUP2 JUMP JUMPDEST PUSH1 0x2 PUSH1 0x0 SWAP1 SLOAD SWAP1 PUSH2 0x100 EXP SWAP1 DIV PUSH20 0xFFFFFFFFFFFFFFFFFFFFFFFFFFFFFFFFFFFFFFFF AND DUP2 JUMP JUMPDEST PUSH2 0x61F PUSH2 0xC08 JUMP JUMPDEST DUP1 PUSH1 0x2 PUSH1 0x0 PUSH2 0x100 EXP DUP2 SLOAD DUP2 PUSH20 0xFFFFFFFFFFFFFFFFFFFFFFFFFFFFFFFFFFFFFFFF MUL NOT AND SWAP1 DUP4 PUSH20 0xFFFFFFFFFFFFFFFFFFFFFFFFFFFFFFFFFFFFFFFF AND MUL OR SWAP1 SSTORE POP POP JUMP JUMPDEST PUSH1 0x0 PUSH1 0x1 PUSH1 0x0 SWAP1 SLOAD SWAP1 PUSH2 0x100 EXP SWAP1 DIV PUSH20 0xFFFFFFFFFFFFFFFFFFFFFFFFFFFFFFFFFFFFFFFF AND SWAP1 POP PUSH1 0x0 DUP2 PUSH20 0xFFFFFFFFFFFFFFFFFFFFFFFFFFFFFFFFFFFFFFFF AND PUSH4 0x3704D21B CALLER PUSH1 0x40 MLOAD DUP3 PUSH4 0xFFFFFFFF AND PUSH1 0xE0 SHL DUP2 MSTORE PUSH1 0x4 ADD PUSH2 0x6C5 SWAP2 SWAP1 PUSH2 0xE00 JUMP JUMPDEST PUSH1 0x20 PUSH1 0x40 MLOAD DUP1 DUP4 SUB DUP2 DUP7 GAS STATICCALL ISZERO DUP1 ISZERO PUSH2 0x6E2 JUMPI RETURNDATASIZE PUSH1 0x0 DUP1 RETURNDATACOPY RETURNDATASIZE PUSH1 0x0 REVERT JUMPDEST POP POP POP POP PUSH1 0x40 MLOAD RETURNDATASIZE PUSH1 0x1F NOT PUSH1 0x1F DUP3 ADD AND DUP3 ADD DUP1 PUSH1 0x40 MSTORE POP DUP2 ADD SWAP1 PUSH2 0x706 SWAP2 SWAP1 PUSH2 0x10CE JUMP JUMPDEST SWAP1 POP PUSH1 0x0 DUP2 SWAP1 POP PUSH1 0x0 DUP2 PUSH20 0xFFFFFFFFFFFFFFFFFFFFFFFFFFFFFFFFFFFFFFFF AND PUSH4 0xBB0498DE PUSH1 0x40 MLOAD DUP2 PUSH4 0xFFFFFFFF AND PUSH1 0xE0 SHL DUP2 MSTORE PUSH1 0x4 ADD PUSH1 0x20 PUSH1 0x40 MLOAD DUP1 DUP4 SUB DUP2 DUP7 GAS STATICCALL ISZERO DUP1 ISZERO PUSH2 0x75A JUMPI RETURNDATASIZE PUSH1 0x0 DUP1 RETURNDATACOPY RETURNDATASIZE PUSH1 0x0 REVERT JUMPDEST POP POP POP POP PUSH1 0x40 MLOAD RETURNDATASIZE PUSH1 0x1F NOT PUSH1 0x1F DUP3 ADD AND DUP3 ADD DUP1 PUSH1 0x40 MSTORE POP DUP2 ADD SWAP1 PUSH2 0x77E SWAP2 SWAP1 PUSH2 0xF5B JUMP JUMPDEST SWAP1 POP PUSH2 0x7A7 PUSH1 0x64 PUSH2 0x799 PUSH1 0x3C DUP5 PUSH2 0xC98 SWAP1 SWAP2 SWAP1 PUSH4 0xFFFFFFFF AND JUMP JUMPDEST PUSH2 0xD12 SWAP1 SWAP2 SWAP1 PUSH4 0xFFFFFFFF AND JUMP JUMPDEST PUSH1 0x4 PUSH1 0x0 CALLER PUSH20 0xFFFFFFFFFFFFFFFFFFFFFFFFFFFFFFFFFFFFFFFF AND PUSH20 0xFFFFFFFFFFFFFFFFFFFFFFFFFFFFFFFFFFFFFFFF AND DUP2 MSTORE PUSH1 0x20 ADD SWAP1 DUP2 MSTORE PUSH1 0x20 ADD PUSH1 0x0 KECCAK256 SLOAD LT PUSH2 0x827 JUMPI PUSH1 0x40 MLOAD PUSH32 0x8C379A000000000000000000000000000000000000000000000000000000000 DUP2 MSTORE PUSH1 0x4 ADD PUSH2 0x81E SWAP1 PUSH2 0x116D JUMP JUMPDEST PUSH1 0x40 MLOAD DUP1 SWAP2 SUB SWAP1 REVERT JUMPDEST PUSH2 0x84E PUSH1 0x64 PUSH2 0x840 PUSH1 0x3C DUP5 PUSH2 0xC98 SWAP1 SWAP2 SWAP1 PUSH4 0xFFFFFFFF AND JUMP JUMPDEST PUSH2 0xD12 SWAP1 SWAP2 SWAP1 PUSH4 0xFFFFFFFF AND JUMP JUMPDEST DUP6 PUSH1 0x4 PUSH1 0x0 CALLER PUSH20 0xFFFFFFFFFFFFFFFFFFFFFFFFFFFFFFFFFFFFFFFF AND PUSH20 0xFFFFFFFFFFFFFFFFFFFFFFFFFFFFFFFFFFFFFFFF AND DUP2 MSTORE PUSH1 0x20 ADD SWAP1 DUP2 MSTORE PUSH1 0x20 ADD PUSH1 0x0 KECCAK256 SLOAD PUSH2 0x899 SWAP2 SWAP1 PUSH2 0x11BC JUMP JUMPDEST LT PUSH2 0x8D9 JUMPI PUSH1 0x40 MLOAD PUSH32 0x8C379A000000000000000000000000000000000000000000000000000000000 DUP2 MSTORE PUSH1 0x4 ADD PUSH2 0x8D0 SWAP1 PUSH2 0x123C JUMP JUMPDEST PUSH1 0x40 MLOAD DUP1 SWAP2 SUB SWAP1 REVERT JUMPDEST DUP5 PUSH1 0x4 PUSH1 0x0 CALLER PUSH20 0xFFFFFFFFFFFFFFFFFFFFFFFFFFFFFFFFFFFFFFFF AND PUSH20 0xFFFFFFFFFFFFFFFFFFFFFFFFFFFFFFFFFFFFFFFF AND DUP2 MSTORE PUSH1 0x20 ADD SWAP1 DUP2 MSTORE PUSH1 0x20 ADD PUSH1 0x0 KECCAK256 PUSH1 0x0 DUP3 DUP3 SLOAD PUSH2 0x928 SWAP2 SWAP1 PUSH2 0x11BC JUMP JUMPDEST SWAP3 POP POP DUP2 SWAP1 SSTORE POP DUP5 PUSH1 0x5 PUSH1 0x0 DUP3 DUP3 SLOAD PUSH2 0x941 SWAP2 SWAP1 PUSH2 0x11BC JUMP JUMPDEST SWAP3 POP POP DUP2 SWAP1 SSTORE POP PUSH1 0x3 PUSH1 0x0 SWAP1 SLOAD SWAP1 PUSH2 0x100 EXP SWAP1 DIV PUSH20 0xFFFFFFFFFFFFFFFFFFFFFFFFFFFFFFFFFFFFFFFF AND PUSH20 0xFFFFFFFFFFFFFFFFFFFFFFFFFFFFFFFFFFFFFFFF AND PUSH4 0xA9059CBB CALLER PUSH2 0x9A4 PUSH10 0xD3C21BCECCEDA1000000 DUP10 PUSH2 0xD12 SWAP1 SWAP2 SWAP1 PUSH4 0xFFFFFFFF AND JUMP JUMPDEST PUSH1 0x40 MLOAD DUP4 PUSH4 0xFFFFFFFF AND PUSH1 0xE0 SHL DUP2 MSTORE PUSH1 0x4 ADD PUSH2 0x9C1 SWAP3 SWAP2 SWAP1 PUSH2 0x102B JUMP JUMPDEST PUSH1 0x20 PUSH1 0x40 MLOAD DUP1 DUP4 SUB DUP2 PUSH1 0x0 DUP8 GAS CALL ISZERO DUP1 ISZERO PUSH2 0x9E0 JUMPI RETURNDATASIZE PUSH1 0x0 DUP1 RETURNDATACOPY RETURNDATASIZE PUSH1 0x0 REVERT JUMPDEST POP POP POP POP PUSH1 0x40 MLOAD RETURNDATASIZE PUSH1 0x1F NOT PUSH1 0x1F DUP3 ADD AND DUP3 ADD DUP1 PUSH1 0x40 MSTORE POP DUP2 ADD SWAP1 PUSH2 0xA04 SWAP2 SWAP1 PUSH2 0x108C JUMP JUMPDEST POP POP POP POP POP POP JUMP JUMPDEST PUSH1 0x0 PUSH1 0x4 PUSH1 0x0 DUP4 PUSH20 0xFFFFFFFFFFFFFFFFFFFFFFFFFFFFFFFFFFFFFFFF AND PUSH20 0xFFFFFFFFFFFFFFFFFFFFFFFFFFFFFFFFFFFFFFFF AND DUP2 MSTORE PUSH1 0x20 ADD SWAP1 DUP2 MSTORE PUSH1 0x20 ADD PUSH1 0x0 KECCAK256 SLOAD SWAP1 POP SWAP2 SWAP1 POP JUMP JUMPDEST DUP1 PUSH1 0x4 PUSH1 0x0 CALLER PUSH20 0xFFFFFFFFFFFFFFFFFFFFFFFFFFFFFFFFFFFFFFFF AND PUSH20 0xFFFFFFFFFFFFFFFFFFFFFFFFFFFFFFFFFFFFFFFF AND DUP2 MSTORE PUSH1 0x20 ADD SWAP1 DUP2 MSTORE PUSH1 0x20 ADD PUSH1 0x0 KECCAK256 SLOAD LT ISZERO PUSH2 0xAD7 JUMPI PUSH1 0x40 MLOAD PUSH32 0x8C379A000000000000000000000000000000000000000000000000000000000 DUP2 MSTORE PUSH1 0x4 ADD PUSH2 0xACE SWAP1 PUSH2 0x12CE JUMP JUMPDEST PUSH1 0x40 MLOAD DUP1 SWAP2 SUB SWAP1 REVERT JUMPDEST DUP1 PUSH1 0x4 PUSH1 0x0 CALLER PUSH20 0xFFFFFFFFFFFFFFFFFFFFFFFFFFFFFFFFFFFFFFFF AND PUSH20 0xFFFFFFFFFFFFFFFFFFFFFFFFFFFFFFFFFFFFFFFF AND DUP2 MSTORE PUSH1 0x20 ADD SWAP1 DUP2 MSTORE PUSH1 0x20 ADD PUSH1 0x0 KECCAK256 PUSH1 0x0 DUP3 DUP3 SLOAD PUSH2 0xB26 SWAP2 SWAP1 PUSH2 0x12EE JUMP JUMPDEST SWAP3 POP POP DUP2 SWAP1 SSTORE POP DUP1 PUSH1 0x5 PUSH1 0x0 DUP3 DUP3 SLOAD PUSH2 0xB3F SWAP2 SWAP1 PUSH2 0x12EE JUMP JUMPDEST SWAP3 POP POP DUP2 SWAP1 SSTORE POP PUSH1 0x3 PUSH1 0x0 SWAP1 SLOAD SWAP1 PUSH2 0x100 EXP SWAP1 DIV PUSH20 0xFFFFFFFFFFFFFFFFFFFFFFFFFFFFFFFFFFFFFFFF AND PUSH20 0xFFFFFFFFFFFFFFFFFFFFFFFFFFFFFFFFFFFFFFFF AND PUSH4 0x23B872DD CALLER ADDRESS PUSH2 0xBA3 PUSH10 0xD3C21BCECCEDA1000000 DUP7 PUSH2 0xD12 SWAP1 SWAP2 SWAP1 PUSH4 0xFFFFFFFF AND JUMP JUMPDEST PUSH1 0x40 MLOAD DUP5 PUSH4 0xFFFFFFFF AND PUSH1 0xE0 SHL DUP2 MSTORE PUSH1 0x4 ADD PUSH2 0xBC1 SWAP4 SWAP3 SWAP2 SWAP1 PUSH2 0x1322 JUMP JUMPDEST PUSH1 0x20 PUSH1 0x40 MLOAD DUP1 DUP4 SUB DUP2 PUSH1 0x0 DUP8 GAS CALL ISZERO DUP1 ISZERO PUSH2 0xBE0 JUMPI RETURNDATASIZE PUSH1 0x0 DUP1 RETURNDATACOPY RETURNDATASIZE PUSH1 0x0 REVERT JUMPDEST POP POP POP POP PUSH1 0x40 MLOAD RETURNDATASIZE PUSH1 0x1F NOT PUSH1 0x1F DUP3 ADD AND DUP3 ADD DUP1 PUSH1 0x40 MSTORE POP DUP2 ADD SWAP1 PUSH2 0xC04 SWAP2 SWAP1 PUSH2 0x108C JUMP JUMPDEST POP POP JUMP JUMPDEST PUSH1 0x0 DUP1 SLOAD SWAP1 PUSH2 0x100 EXP SWAP1 DIV PUSH20 0xFFFFFFFFFFFFFFFFFFFFFFFFFFFFFFFFFFFFFFFF AND PUSH20 0xFFFFFFFFFFFFFFFFFFFFFFFFFFFFFFFFFFFFFFFF AND CALLER PUSH20 0xFFFFFFFFFFFFFFFFFFFFFFFFFFFFFFFFFFFFFFFF AND EQ PUSH2 0xC96 JUMPI PUSH1 0x40 MLOAD PUSH32 0x8C379A000000000000000000000000000000000000000000000000000000000 DUP2 MSTORE PUSH1 0x4 ADD PUSH2 0xC8D SWAP1 PUSH2 0x13A5 JUMP JUMPDEST PUSH1 0x40 MLOAD DUP1 SWAP2 SUB SWAP1 REVERT JUMPDEST JUMP JUMPDEST PUSH1 0x0 DUP1 DUP4 SUB PUSH2 0xCAA JUMPI PUSH1 0x0 SWAP1 POP PUSH2 0xD0C JUMP JUMPDEST PUSH1 0x0 DUP3 DUP5 PUSH2 0xCB8 SWAP2 SWAP1 PUSH2 0x13C5 JUMP JUMPDEST SWAP1 POP DUP3 DUP5 DUP3 PUSH2 0xCC7 SWAP2 SWAP1 PUSH2 0x1436 JUMP JUMPDEST EQ PUSH2 0xD07 JUMPI PUSH1 0x40 MLOAD PUSH32 0x8C379A000000000000000000000000000000000000000000000000000000000 DUP2 MSTORE PUSH1 0x4 ADD PUSH2 0xCFE SWAP1 PUSH2 0x14D9 JUMP JUMPDEST PUSH1 0x40 MLOAD DUP1 SWAP2 SUB SWAP1 REVERT JUMPDEST DUP1 SWAP2 POP POP JUMPDEST SWAP3 SWAP2 POP POP JUMP JUMPDEST PUSH1 0x0 PUSH2 0xD54 DUP4 DUP4 PUSH1 0x40 MLOAD DUP1 PUSH1 0x40 ADD PUSH1 0x40 MSTORE DUP1 PUSH1 0x1A DUP2 MSTORE PUSH1 0x20 ADD PUSH32 0x536166654D6174683A206469766973696F6E206279207A65726F000000000000 DUP2 MSTORE POP PUSH2 0xD5C JUMP JUMPDEST SWAP1 POP SWAP3 SWAP2 POP POP JUMP JUMPDEST PUSH1 0x0 DUP1 DUP4 GT DUP3 SWAP1 PUSH2 0xDA3 JUMPI PUSH1 0x40 MLOAD PUSH32 0x8C379A000000000000000000000000000000000000000000000000000000000 DUP2 MSTORE PUSH1 0x4 ADD PUSH2 0xD9A SWAP2 SWAP1 PUSH2 0x1578 JUMP JUMPDEST PUSH1 0x40 MLOAD DUP1 SWAP2 SUB SWAP1 REVERT JUMPDEST POP PUSH1 0x0 DUP4 DUP6 PUSH2 0xDB2 SWAP2 SWAP1 PUSH2 0x1436 JUMP JUMPDEST SWAP1 POP DUP1 SWAP2 POP POP SWAP4 SWAP3 POP POP POP JUMP JUMPDEST PUSH1 0x0 PUSH20 0xFFFFFFFFFFFFFFFFFFFFFFFFFFFFFFFFFFFFFFFF DUP3 AND SWAP1 POP SWAP2 SWAP1 POP JUMP JUMPDEST PUSH1 0x0 PUSH2 0xDEA DUP3 PUSH2 0xDBF JUMP JUMPDEST SWAP1 POP SWAP2 SWAP1 POP JUMP JUMPDEST PUSH2 0xDFA DUP2 PUSH2 0xDDF JUMP JUMPDEST DUP3 MSTORE POP POP JUMP JUMPDEST PUSH1 0x0 PUSH1 0x20 DUP3 ADD SWAP1 POP PUSH2 0xE15 PUSH1 0x0 DUP4 ADD DUP5 PUSH2 0xDF1 JUMP JUMPDEST SWAP3 SWAP2 POP POP JUMP JUMPDEST PUSH1 0x0 DUP1 REVERT JUMPDEST PUSH2 0xE29 DUP2 PUSH2 0xDDF JUMP JUMPDEST DUP2 EQ PUSH2 0xE34 JUMPI PUSH1 0x0 DUP1 REVERT JUMPDEST POP JUMP JUMPDEST PUSH1 0x0 DUP2 CALLDATALOAD SWAP1 POP PUSH2 0xE46 DUP2 PUSH2 0xE20 JUMP JUMPDEST SWAP3 SWAP2 POP POP JUMP JUMPDEST PUSH1 0x0 PUSH1 0x20 DUP3 DUP5 SUB SLT ISZERO PUSH2 0xE62 JUMPI PUSH2 0xE61 PUSH2 0xE1B JUMP JUMPDEST JUMPDEST PUSH1 0x0 PUSH2 0xE70 DUP5 DUP3 DUP6 ADD PUSH2 0xE37 JUMP JUMPDEST SWAP2 POP POP SWAP3 SWAP2 POP POP JUMP JUMPDEST PUSH1 0x0 DUP2 SWAP1 POP SWAP2 SWAP1 POP JUMP JUMPDEST PUSH2 0xE8C DUP2 PUSH2 0xE79 JUMP JUMPDEST DUP3 MSTORE POP POP JUMP JUMPDEST PUSH1 0x0 PUSH1 0x20 DUP3 ADD SWAP1 POP PUSH2 0xEA7 PUSH1 0x0 DUP4 ADD DUP5 PUSH2 0xE83 JUMP JUMPDEST SWAP3 SWAP2 POP POP JUMP JUMPDEST PUSH2 0xEB6 DUP2 PUSH2 0xE79 JUMP JUMPDEST DUP2 EQ PUSH2 0xEC1 JUMPI PUSH1 0x0 DUP1 REVERT JUMPDEST POP JUMP JUMPDEST PUSH1 0x0 DUP2 CALLDATALOAD SWAP1 POP PUSH2 0xED3 DUP2 PUSH2 0xEAD JUMP JUMPDEST SWAP3 SWAP2 POP POP JUMP JUMPDEST PUSH1 0x0 DUP1 PUSH1 0x40 DUP4 DUP6 SUB SLT ISZERO PUSH2 0xEF0 JUMPI PUSH2 0xEEF PUSH2 0xE1B JUMP JUMPDEST JUMPDEST PUSH1 0x0 PUSH2 0xEFE DUP6 DUP3 DUP7 ADD PUSH2 0xE37 JUMP JUMPDEST SWAP3 POP POP PUSH1 0x20 PUSH2 0xF0F DUP6 DUP3 DUP7 ADD PUSH2 0xEC4 JUMP JUMPDEST SWAP2 POP POP SWAP3 POP SWAP3 SWAP1 POP JUMP JUMPDEST PUSH1 0x0 PUSH1 0x20 DUP3 DUP5 SUB SLT ISZERO PUSH2 0xF2F JUMPI PUSH2 0xF2E PUSH2 0xE1B JUMP JUMPDEST JUMPDEST PUSH1 0x0 PUSH2 0xF3D DUP5 DUP3 DUP6 ADD PUSH2 0xEC4 JUMP JUMPDEST SWAP2 POP POP SWAP3 SWAP2 POP POP JUMP JUMPDEST PUSH1 0x0 DUP2 MLOAD SWAP1 POP PUSH2 0xF55 DUP2 PUSH2 0xEAD JUMP JUMPDEST SWAP3 SWAP2 POP POP JUMP JUMPDEST PUSH1 0x0 PUSH1 0x20 DUP3 DUP5 SUB SLT ISZERO PUSH2 0xF71 JUMPI PUSH2 0xF70 PUSH2 0xE1B JUMP JUMPDEST JUMPDEST PUSH1 0x0 PUSH2 0xF7F DUP5 DUP3 DUP6 ADD PUSH2 0xF46 JUMP JUMPDEST SWAP2 POP POP SWAP3 SWAP2 POP POP JUMP JUMPDEST PUSH1 0x0 DUP3 DUP3 MSTORE PUSH1 0x20 DUP3 ADD SWAP1 POP SWAP3 SWAP2 POP POP JUMP JUMPDEST PUSH32 0x6F6E6C7920746865206B6C70206D616E616765722063616E2063616C6C207468 PUSH1 0x0 DUP3 ADD MSTORE PUSH32 0x69732066756E6374696F6E000000000000000000000000000000000000000000 PUSH1 0x20 DUP3 ADD MSTORE POP JUMP JUMPDEST PUSH1 0x0 PUSH2 0xFF5 PUSH1 0x2B DUP4 PUSH2 0xF88 JUMP JUMPDEST SWAP2 POP PUSH2 0x1000 DUP3 PUSH2 0xF99 JUMP JUMPDEST PUSH1 0x40 DUP3 ADD SWAP1 POP SWAP2 SWAP1 POP JUMP JUMPDEST PUSH1 0x0 PUSH1 0x20 DUP3 ADD SWAP1 POP DUP2 DUP2 SUB PUSH1 0x0 DUP4 ADD MSTORE PUSH2 0x1024 DUP2 PUSH2 0xFE8 JUMP JUMPDEST SWAP1 POP SWAP2 SWAP1 POP JUMP JUMPDEST PUSH1 0x0 PUSH1 0x40 DUP3 ADD SWAP1 POP PUSH2 0x1040 PUSH1 0x0 DUP4 ADD DUP6 PUSH2 0xDF1 JUMP JUMPDEST PUSH2 0x104D PUSH1 0x20 DUP4 ADD DUP5 PUSH2 0xE83 JUMP JUMPDEST SWAP4 SWAP3 POP POP POP JUMP JUMPDEST PUSH1 0x0 DUP2 ISZERO ISZERO SWAP1 POP SWAP2 SWAP1 POP JUMP JUMPDEST PUSH2 0x1069 DUP2 PUSH2 0x1054 JUMP JUMPDEST DUP2 EQ PUSH2 0x1074 JUMPI PUSH1 0x0 DUP1 REVERT JUMPDEST POP JUMP JUMPDEST PUSH1 0x0 DUP2 MLOAD SWAP1 POP PUSH2 0x1086 DUP2 PUSH2 0x1060 JUMP JUMPDEST SWAP3 SWAP2 POP POP JUMP JUMPDEST PUSH1 0x0 PUSH1 0x20 DUP3 DUP5 SUB SLT ISZERO PUSH2 0x10A2 JUMPI PUSH2 0x10A1 PUSH2 0xE1B JUMP JUMPDEST JUMPDEST PUSH1 0x0 PUSH2 0x10B0 DUP5 DUP3 DUP6 ADD PUSH2 0x1077 JUMP JUMPDEST SWAP2 POP POP SWAP3 SWAP2 POP POP JUMP JUMPDEST PUSH1 0x0 DUP2 MLOAD SWAP1 POP PUSH2 0x10C8 DUP2 PUSH2 0xE20 JUMP JUMPDEST SWAP3 SWAP2 POP POP JUMP JUMPDEST PUSH1 0x0 PUSH1 0x20 DUP3 DUP5 SUB SLT ISZERO PUSH2 0x10E4 JUMPI PUSH2 0x10E3 PUSH2 0xE1B JUMP JUMPDEST JUMPDEST PUSH1 0x0 PUSH2 0x10F2 DUP5 DUP3 DUP6 ADD PUSH2 0x10B9 JUMP JUMPDEST SWAP2 POP POP SWAP3 SWAP2 POP POP JUMP JUMPDEST PUSH32 0x6578697374696E67206C6F616E20616D6F756E7420657863656564696E67204C PUSH1 0x0 DUP3 ADD MSTORE PUSH32 0x5456000000000000000000000000000000000000000000000000000000000000 PUSH1 0x20 DUP3 ADD MSTORE POP JUMP JUMPDEST PUSH1 0x0 PUSH2 0x1157 PUSH1 0x22 DUP4 PUSH2 0xF88 JUMP JUMPDEST SWAP2 POP PUSH2 0x1162 DUP3 PUSH2 0x10FB JUMP JUMPDEST PUSH1 0x40 DUP3 ADD SWAP1 POP SWAP2 SWAP1 POP JUMP JUMPDEST PUSH1 0x0 PUSH1 0x20 DUP3 ADD SWAP1 POP DUP2 DUP2 SUB PUSH1 0x0 DUP4 ADD MSTORE PUSH2 0x1186 DUP2 PUSH2 0x114A JUMP JUMPDEST SWAP1 POP SWAP2 SWAP1 POP JUMP JUMPDEST PUSH32 0x4E487B7100000000000000000000000000000000000000000000000000000000 PUSH1 0x0 MSTORE PUSH1 0x11 PUSH1 0x4 MSTORE PUSH1 0x24 PUSH1 0x0 REVERT JUMPDEST PUSH1 0x0 PUSH2 0x11C7 DUP3 PUSH2 0xE79 JUMP JUMPDEST SWAP2 POP PUSH2 0x11D2 DUP4 PUSH2 0xE79 JUMP JUMPDEST SWAP3 POP DUP3 DUP3 ADD SWAP1 POP DUP1 DUP3 GT ISZERO PUSH2 0x11EA JUMPI PUSH2 0x11E9 PUSH2 0x118D JUMP JUMPDEST JUMPDEST SWAP3 SWAP2 POP POP JUMP JUMPDEST PUSH32 0x4C545620646F6573206E6F7420737570706F7274206C6F616E20616D6F756E74 PUSH1 0x0 DUP3 ADD MSTORE POP JUMP JUMPDEST PUSH1 0x0 PUSH2 0x1226 PUSH1 0x20 DUP4 PUSH2 0xF88 JUMP JUMPDEST SWAP2 POP PUSH2 0x1231 DUP3 PUSH2 0x11F0 JUMP JUMPDEST PUSH1 0x20 DUP3 ADD SWAP1 POP SWAP2 SWAP1 POP JUMP JUMPDEST PUSH1 0x0 PUSH1 0x20 DUP3 ADD SWAP1 POP DUP2 DUP2 SUB PUSH1 0x0 DUP4 ADD MSTORE PUSH2 0x1255 DUP2 PUSH2 0x1219 JUMP JUMPDEST SWAP1 POP SWAP2 SWAP1 POP JUMP JUMPDEST PUSH32 0x6C6F616E2074616B656E206C6573736572207468616E20706179696E6720616D PUSH1 0x0 DUP3 ADD MSTORE PUSH32 0x6F756E7400000000000000000000000000000000000000000000000000000000 PUSH1 0x20 DUP3 ADD MSTORE POP JUMP JUMPDEST PUSH1 0x0 PUSH2 0x12B8 PUSH1 0x24 DUP4 PUSH2 0xF88 JUMP JUMPDEST SWAP2 POP PUSH2 0x12C3 DUP3 PUSH2 0x125C JUMP JUMPDEST PUSH1 0x40 DUP3 ADD SWAP1 POP SWAP2 SWAP1 POP JUMP JUMPDEST PUSH1 0x0 PUSH1 0x20 DUP3 ADD SWAP1 POP DUP2 DUP2 SUB PUSH1 0x0 DUP4 ADD MSTORE PUSH2 0x12E7 DUP2 PUSH2 0x12AB JUMP JUMPDEST SWAP1 POP SWAP2 SWAP1 POP JUMP JUMPDEST PUSH1 0x0 PUSH2 0x12F9 DUP3 PUSH2 0xE79 JUMP JUMPDEST SWAP2 POP PUSH2 0x1304 DUP4 PUSH2 0xE79 JUMP JUMPDEST SWAP3 POP DUP3 DUP3 SUB SWAP1 POP DUP2 DUP2 GT ISZERO PUSH2 0x131C JUMPI PUSH2 0x131B PUSH2 0x118D JUMP JUMPDEST JUMPDEST SWAP3 SWAP2 POP POP JUMP JUMPDEST PUSH1 0x0 PUSH1 0x60 DUP3 ADD SWAP1 POP PUSH2 0x1337 PUSH1 0x0 DUP4 ADD DUP7 PUSH2 0xDF1 JUMP JUMPDEST PUSH2 0x1344 PUSH1 0x20 DUP4 ADD DUP6 PUSH2 0xDF1 JUMP JUMPDEST PUSH2 0x1351 PUSH1 0x40 DUP4 ADD DUP5 PUSH2 0xE83 JUMP JUMPDEST SWAP5 SWAP4 POP POP POP POP JUMP JUMPDEST PUSH32 0x6F6E6C7920676F762063616E2063616C6C20746869732066756E6374696F6E00 PUSH1 0x0 DUP3 ADD MSTORE POP JUMP JUMPDEST PUSH1 0x0 PUSH2 0x138F PUSH1 0x1F DUP4 PUSH2 0xF88 JUMP JUMPDEST SWAP2 POP PUSH2 0x139A DUP3 PUSH2 0x1359 JUMP JUMPDEST PUSH1 0x20 DUP3 ADD SWAP1 POP SWAP2 SWAP1 POP JUMP JUMPDEST PUSH1 0x0 PUSH1 0x20 DUP3 ADD SWAP1 POP DUP2 DUP2 SUB PUSH1 0x0 DUP4 ADD MSTORE PUSH2 0x13BE DUP2 PUSH2 0x1382 JUMP JUMPDEST SWAP1 POP SWAP2 SWAP1 POP JUMP JUMPDEST PUSH1 0x0 PUSH2 0x13D0 DUP3 PUSH2 0xE79 JUMP JUMPDEST SWAP2 POP PUSH2 0x13DB DUP4 PUSH2 0xE79 JUMP JUMPDEST SWAP3 POP DUP3 DUP3 MUL PUSH2 0x13E9 DUP2 PUSH2 0xE79 JUMP JUMPDEST SWAP2 POP DUP3 DUP3 DIV DUP5 EQ DUP4 ISZERO OR PUSH2 0x1400 JUMPI PUSH2 0x13FF PUSH2 0x118D JUMP JUMPDEST JUMPDEST POP SWAP3 SWAP2 POP POP JUMP JUMPDEST PUSH32 0x4E487B7100000000000000000000000000000000000000000000000000000000 PUSH1 0x0 MSTORE PUSH1 0x12 PUSH1 0x4 MSTORE PUSH1 0x24 PUSH1 0x0 REVERT JUMPDEST PUSH1 0x0 PUSH2 0x1441 DUP3 PUSH2 0xE79 JUMP JUMPDEST SWAP2 POP PUSH2 0x144C DUP4 PUSH2 0xE79 JUMP JUMPDEST SWAP3 POP DUP3 PUSH2 0x145C JUMPI PUSH2 0x145B PUSH2 0x1407 JUMP JUMPDEST JUMPDEST DUP3 DUP3 DIV SWAP1 POP SWAP3 SWAP2 POP POP JUMP JUMPDEST PUSH32 0x536166654D6174683A206D756C7469706C69636174696F6E206F766572666C6F PUSH1 0x0 DUP3 ADD MSTORE PUSH32 0x7700000000000000000000000000000000000000000000000000000000000000 PUSH1 0x20 DUP3 ADD MSTORE POP JUMP JUMPDEST PUSH1 0x0 PUSH2 0x14C3 PUSH1 0x21 DUP4 PUSH2 0xF88 JUMP JUMPDEST SWAP2 POP PUSH2 0x14CE DUP3 PUSH2 0x1467 JUMP JUMPDEST PUSH1 0x40 DUP3 ADD SWAP1 POP SWAP2 SWAP1 POP JUMP JUMPDEST PUSH1 0x0 PUSH1 0x20 DUP3 ADD SWAP1 POP DUP2 DUP2 SUB PUSH1 0x0 DUP4 ADD MSTORE PUSH2 0x14F2 DUP2 PUSH2 0x14B6 JUMP JUMPDEST SWAP1 POP SWAP2 SWAP1 POP JUMP JUMPDEST PUSH1 0x0 DUP2 MLOAD SWAP1 POP SWAP2 SWAP1 POP JUMP JUMPDEST PUSH1 0x0 JUMPDEST DUP4 DUP2 LT ISZERO PUSH2 0x1522 JUMPI DUP1 DUP3 ADD MLOAD DUP2 DUP5 ADD MSTORE PUSH1 0x20 DUP2 ADD SWAP1 POP PUSH2 0x1507 JUMP JUMPDEST PUSH1 0x0 DUP5 DUP5 ADD MSTORE POP POP POP POP JUMP JUMPDEST PUSH1 0x0 PUSH1 0x1F NOT PUSH1 0x1F DUP4 ADD AND SWAP1 POP SWAP2 SWAP1 POP JUMP JUMPDEST PUSH1 0x0 PUSH2 0x154A DUP3 PUSH2 0x14F9 JUMP JUMPDEST PUSH2 0x1554 DUP2 DUP6 PUSH2 0xF88 JUMP JUMPDEST SWAP4 POP PUSH2 0x1564 DUP2 DUP6 PUSH1 0x20 DUP7 ADD PUSH2 0x1504 JUMP JUMPDEST PUSH2 0x156D DUP2 PUSH2 0x152E JUMP JUMPDEST DUP5 ADD SWAP2 POP POP SWAP3 SWAP2 POP POP JUMP JUMPDEST PUSH1 0x0 PUSH1 0x20 DUP3 ADD SWAP1 POP DUP2 DUP2 SUB PUSH1 0x0 DUP4 ADD MSTORE PUSH2 0x1592 DUP2 DUP5 PUSH2 0x153F JUMP JUMPDEST SWAP1 POP SWAP3 SWAP2 POP POP JUMP INVALID LOG2 PUSH5 0x6970667358 0x22 SLT KECCAK256 DUP7 BLOCKHASH 0xE6 0xDC PUSH26 0x38F1D7C71EE14D3D7C22B48B20E08F9ECBB3DD6E8F282C7ED0FA 0xD PUSH5 0x736F6C6343 STOP ADDMOD GT STOP CALLER "},"methodIdentifiers":{"LTV()":"62965d8e","PRICE_PRECISION()":"95082d25","USDC_DECIMALS_DIVISOR()":"36bda883","amountLoanedByUser(address)":"794ef3e4","existingLoanOnPortfolio(address)":"d04f246b","factoryContractAddress()":"732e0a1d","getReserve()":"59bf5d39","gov()":"12d43a51","klpManagerAddress()":"9d0d42c7","paybackLoan(uint256)":"d16ef22a","sendUsdcToLp(address,uint256)":"7c2bfdfb","setFactoryaContractAddress(address)":"0fef75c3","setKlpManagerAddress(address)":"ad993f97","takeLoanOnPosition(uint256)":"ca0cd00a","totalLoanedAmount()":"819bd33c","usdcAddress()":"02d45457"}}}}}