{"contracts/LendingContract.sol":{"LendingContract":{"abi":[{"inputs":[{"internalType":"address","name":"_usdcAddress","type":"address"}],"stateMutability":"nonpayable","type":"constructor"},{"inputs":[],"name":"BORROW_RATE_PRECISION","outputs":[{"internalType":"uint256","name":"","type":"uint256"}],"stateMutability":"view","type":"function"},{"inputs":[],"name":"LTV","outputs":[{"internalType":"uint256","name":"","type":"uint256"}],"stateMutability":"view","type":"function"},{"inputs":[],"name":"PRICE_PRECISION","outputs":[{"internalType":"uint256","name":"","type":"uint256"}],"stateMutability":"view","type":"function"},{"inputs":[],"name":"USDC_DECIMALS_DIVISOR","outputs":[{"internalType":"uint256","name":"","type":"uint256"}],"stateMutability":"view","type":"function"},{"inputs":[{"internalType":"address","name":"","type":"address"}],"name":"amountLoanedByUser","outputs":[{"internalType":"uint256","name":"","type":"uint256"}],"stateMutability":"view","type":"function"},{"inputs":[],"name":"borrowInterval","outputs":[{"internalType":"uint256","name":"","type":"uint256"}],"stateMutability":"view","type":"function"},{"inputs":[],"name":"borrowRateFactor","outputs":[{"internalType":"uint256","name":"","type":"uint256"}],"stateMutability":"view","type":"function"},{"inputs":[],"name":"cumulativeBorrowRate","outputs":[{"internalType":"uint256","name":"","type":"uint256"}],"stateMutability":"view","type":"function"},{"inputs":[{"internalType":"address","name":"","type":"address"}],"name":"entryBorrowRate","outputs":[{"internalType":"uint256","name":"","type":"uint256"}],"stateMutability":"view","type":"function"},{"inputs":[{"internalType":"address","name":"_account","type":"address"}],"name":"existingLoanOnPortfolio","outputs":[{"internalType":"uint256","name":"","type":"uint256"}],"stateMutability":"view","type":"function"},{"inputs":[],"name":"factoryContractAddress","outputs":[{"internalType":"address","name":"","type":"address"}],"stateMutability":"view","type":"function"},{"inputs":[],"name":"getNextBorrowRate","outputs":[{"internalType":"uint256","name":"","type":"uint256"}],"stateMutability":"view","type":"function"},{"inputs":[],"name":"getReserve","outputs":[{"internalType":"uint256","name":"","type":"uint256"}],"stateMutability":"view","type":"function"},{"inputs":[],"name":"gov","outputs":[{"internalType":"address","name":"","type":"address"}],"stateMutability":"view","type":"function"},{"inputs":[{"internalType":"address","name":"_account","type":"address"}],"name":"interestToCollect","outputs":[{"internalType":"uint256","name":"","type":"uint256"}],"stateMutability":"view","type":"function"},{"inputs":[],"name":"klpManagerAddress","outputs":[{"internalType":"address","name":"","type":"address"}],"stateMutability":"view","type":"function"},{"inputs":[],"name":"lastBorrowTimes","outputs":[{"internalType":"uint256","name":"","type":"uint256"}],"stateMutability":"view","type":"function"},{"inputs":[{"internalType":"uint256","name":"_repayLoanAmount","type":"uint256"}],"name":"paybackLoan","outputs":[],"stateMutability":"nonpayable","type":"function"},{"inputs":[{"internalType":"address","name":"_account","type":"address"},{"internalType":"uint256","name":"_amount","type":"uint256"}],"name":"sendUsdcToLp","outputs":[],"stateMutability":"nonpayable","type":"function"},{"inputs":[{"internalType":"address","name":"newAddress","type":"address"}],"name":"setFactoryaContractAddress","outputs":[],"stateMutability":"nonpayable","type":"function"},{"inputs":[{"internalType":"address","name":"newAddress","type":"address"}],"name":"setKlpManagerAddress","outputs":[],"stateMutability":"nonpayable","type":"function"},{"inputs":[{"internalType":"address","name":"newAddress","type":"address"}],"name":"setUsdcAddress","outputs":[],"stateMutability":"nonpayable","type":"function"},{"inputs":[{"internalType":"uint256","name":"_loanAmount","type":"uint256"}],"name":"takeLoanOnPosition","outputs":[],"stateMutability":"nonpayable","type":"function"},{"inputs":[],"name":"totalLiquidityProvided","outputs":[{"internalType":"uint256","name":"","type":"uint256"}],"stateMutability":"view","type":"function"},{"inputs":[],"name":"totalLoanedAmount","outputs":[{"internalType":"uint256","name":"","type":"uint256"}],"stateMutability":"view","type":"function"},{"inputs":[],"name":"updateCumulativeBorrowRate","outputs":[],"stateMutability":"nonpayable","type":"function"},{"inputs":[],"name":"usdcAddress","outputs":[{"internalType":"address","name":"","type":"address"}],"stateMutability":"view","type":"function"}],"evm":{"bytecode":{"linkReferences":{},"object":"60806040526000600655610e1060075560646008553480156200002157600080fd5b50604051620022e9380380620022e9833981810160405281019062000047919062000139565b336000806101000a81548173ffffffffffffffffffffffffffffffffffffffff021916908373ffffffffffffffffffffffffffffffffffffffff16021790555080600360006101000a81548173ffffffffffffffffffffffffffffffffffffffff021916908373ffffffffffffffffffffffffffffffffffffffff160217905550506200016b565b600080fd5b600073ffffffffffffffffffffffffffffffffffffffff82169050919050565b60006200010182620000d4565b9050919050565b6200011381620000f4565b81146200011f57600080fd5b50565b600081519050620001338162000108565b92915050565b600060208284031215620001525762000151620000cf565b5b6000620001628482850162000122565b91505092915050565b61216e806200017b6000396000f3fe608060405234801561001057600080fd5b50600436106101a95760003560e01c80637b3820ce116100f9578063ca0cd00a11610097578063d38bcdee11610071578063d38bcdee14610466578063db1e4ff814610482578063dfed1348146104b2578063e10eb58c146104d0576101a9565b8063ca0cd00a146103fe578063d04f246b1461041a578063d16ef22a1461044a576101a9565b806395082d25116100d357806395082d251461039c5780639d0d42c7146103ba578063ad993f97146103d8578063b62b751d146103f4576101a9565b80637b3820ce146103445780637c2bfdfb14610362578063819bd33c1461037e576101a9565b806359bf5d3911610166578063645bc7ee11610140578063645bc7ee146102ba578063732e0a1d146102d857806377f01edd146102f6578063794ef3e414610314576101a9565b806359bf5d39146102605780635e04b9f81461027e57806362965d8e1461029c576101a9565b806302d45457146101ae5780630fef75c3146101cc57806312d43a51146101e85780631a02d43014610206578063261c1c521461022457806336bda88314610242575b600080fd5b6101b6610500565b6040516101c391906117c8565b60405180910390f35b6101e660048036038101906101e19190611814565b610526565b005b6101f0610572565b6040516101fd91906117c8565b60405180910390f35b61020e610596565b60405161021b919061185a565b60405180910390f35b61022c61059c565b604051610239919061185a565b60405180910390f35b61024a6105a2565b604051610257919061185a565b60405180910390f35b6102686105b0565b604051610275919061185a565b60405180910390f35b61028661066f565b604051610293919061185a565b60405180910390f35b6102a4610727565b6040516102b1919061185a565b60405180910390f35b6102c261072c565b6040516102cf919061185a565b60405180910390f35b6102e0610732565b6040516102ed91906117c8565b60405180910390f35b6102fe610758565b60405161030b919061185a565b60405180910390f35b61032e60048036038101906103299190611814565b61075f565b60405161033b919061185a565b60405180910390f35b61034c610777565b604051610359919061185a565b60405180910390f35b61037c600480360381019061037791906118a1565b61077d565b005b6103866108f0565b604051610393919061185a565b60405180910390f35b6103a46108f6565b6040516103b1919061185a565b60405180910390f35b6103c2610907565b6040516103cf91906117c8565b60405180910390f35b6103f260048036038101906103ed9190611814565b61092d565b005b6103fc610979565b005b610418600480360381019061041391906118e1565b610a2e565b005b610434600480360381019061042f9190611814565b610f35565b604051610441919061185a565b60405180910390f35b610464600480360381019061045f91906118e1565b610f7e565b005b610480600480360381019061047b9190611814565b6111ef565b005b61049c60048036038101906104979190611814565b61123b565b6040516104a9919061185a565b60405180910390f35b6104ba6113d4565b6040516104c7919061185a565b60405180910390f35b6104ea60048036038101906104e59190611814565b6114ac565b6040516104f7919061185a565b60405180910390f35b600360009054906101000a900473ffffffffffffffffffffffffffffffffffffffff1681565b61052e6114c4565b80600160006101000a81548173ffffffffffffffffffffffffffffffffffffffff021916908373ffffffffffffffffffffffffffffffffffffffff16021790555050565b60008054906101000a900473ffffffffffffffffffffffffffffffffffffffff1681565b60085481565b60075481565b69d3c21bcecceda100000081565b600061066a69d3c21bcecceda1000000600360009054906101000a900473ffffffffffffffffffffffffffffffffffffffff1673ffffffffffffffffffffffffffffffffffffffff166370a08231306040518263ffffffff1660e01b815260040161061b91906117c8565b602060405180830381865afa158015610638573d6000803e3d6000fd5b505050506040513d601f19601f8201168201806040525081019061065c9190611923565b61155490919063ffffffff16565b905090565b600042610689600754600a546115ce90919063ffffffff16565b11156106985760009050610724565b60006106c36007546106b5600a544261162c90919063ffffffff16565b61167690919063ffffffff16565b905060006106cf6113d4565b9050600081036106e457600092505050610724565b61071f816107118461070360065460085461155490919063ffffffff16565b61155490919063ffffffff16565b61167690919063ffffffff16565b925050505b90565b603c81565b600a5481565b600160009054906101000a900473ffffffffffffffffffffffffffffffffffffffff1681565b620f424081565b60056020528060005260406000206000915090505481565b60095481565b600260009054906101000a900473ffffffffffffffffffffffffffffffffffffffff1673ffffffffffffffffffffffffffffffffffffffff163373ffffffffffffffffffffffffffffffffffffffff161461080d576040517f08c379a0000000000000000000000000000000000000000000000000000000008152600401610804906119d3565b60405180910390fd5b600360009054906101000a900473ffffffffffffffffffffffffffffffffffffffff1673ffffffffffffffffffffffffffffffffffffffff1663a9059cbb83836040518363ffffffff1660e01b815260040161086a9291906119f3565b6020604051808303816000875af1158015610889573d6000803e3d6000fd5b505050506040513d601f19601f820116820180604052508101906108ad9190611a54565b6108ec576040517f08c379a00000000000000000000000000000000000000000000000000000000081526004016108e390611acd565b60405180910390fd5b5050565b60065481565b6c0c9f2c9cd04674edea4000000081565b600260009054906101000a900473ffffffffffffffffffffffffffffffffffffffff1681565b6109356114c4565b80600260006101000a81548173ffffffffffffffffffffffffffffffffffffffff021916908373ffffffffffffffffffffffffffffffffffffffff16021790555050565b6000600a54036109b7576109ac60075461099e6007544261167690919063ffffffff16565b61155490919063ffffffff16565b600a81905550610a2c565b426109cf600754600a546115ce90919063ffffffff16565b11610a2c5760006109de61066f565b90506109f5816009546115ce90919063ffffffff16565b600981905550610a24600754610a166007544261167690919063ffffffff16565b61155490919063ffffffff16565b600a81905550505b565b6000600160009054906101000a900473ffffffffffffffffffffffffffffffffffffffff16905060008173ffffffffffffffffffffffffffffffffffffffff16633704d21b336040518263ffffffff1660e01b8152600401610a9091906117c8565b602060405180830381865afa158015610aad573d6000803e3d6000fd5b505050506040513d601f19601f82011682018060405250810190610ad19190611b02565b9050600073ffffffffffffffffffffffffffffffffffffffff168173ffffffffffffffffffffffffffffffffffffffff1603610b42576040517f08c379a0000000000000000000000000000000000000000000000000000000008152600401610b3990611ba1565b60405180910390fd5b600081905060008173ffffffffffffffffffffffffffffffffffffffff1663bb0498de6040518163ffffffff1660e01b8152600401602060405180830381865afa158015610b94573d6000803e3d6000fd5b505050506040513d601f19601f82011682018060405250810190610bb89190611923565b9050610be16064610bd3603c8461155490919063ffffffff16565b61167690919063ffffffff16565b600560003373ffffffffffffffffffffffffffffffffffffffff1673ffffffffffffffffffffffffffffffffffffffff1681526020019081526020016000205410610c61576040517f08c379a0000000000000000000000000000000000000000000000000000000008152600401610c5890611c33565b60405180910390fd5b610c886064610c7a603c8461155490919063ffffffff16565b61167690919063ffffffff16565b610cda86600560003373ffffffffffffffffffffffffffffffffffffffff1673ffffffffffffffffffffffffffffffffffffffff168152602001908152602001600020546115ce90919063ffffffff16565b10610d1a576040517f08c379a0000000000000000000000000000000000000000000000000000000008152600401610d1190611c9f565b60405180910390fd5b6000610d253361123b565b9050610d7986600560003373ffffffffffffffffffffffffffffffffffffffff1673ffffffffffffffffffffffffffffffffffffffff168152602001908152602001600020546115ce90919063ffffffff16565b600560003373ffffffffffffffffffffffffffffffffffffffff1673ffffffffffffffffffffffffffffffffffffffff16815260200190815260200160002081905550610dd1866006546115ce90919063ffffffff16565b600681905550610dea818761162c90919063ffffffff16565b9550600954600460003373ffffffffffffffffffffffffffffffffffffffff1673ffffffffffffffffffffffffffffffffffffffff16815260200190815260200160002081905550600360009054906101000a900473ffffffffffffffffffffffffffffffffffffffff1673ffffffffffffffffffffffffffffffffffffffff1663a9059cbb33610e8e69d3c21bcecceda10000008a61167690919063ffffffff16565b6040518363ffffffff1660e01b8152600401610eab9291906119f3565b6020604051808303816000875af1158015610eca573d6000803e3d6000fd5b505050506040513d601f19601f82011682018060405250810190610eee9190611a54565b610f2d576040517f08c379a0000000000000000000000000000000000000000000000000000000008152600401610f2490611acd565b60405180910390fd5b505050505050565b6000600560008373ffffffffffffffffffffffffffffffffffffffff1673ffffffffffffffffffffffffffffffffffffffff168152602001908152602001600020549050919050565b6000610f893361123b565b90506000610fdf82600560003373ffffffffffffffffffffffffffffffffffffffff1673ffffffffffffffffffffffffffffffffffffffff168152602001908152602001600020546115ce90919063ffffffff16565b905082811015611024576040517f08c379a000000000000000000000000000000000000000000000000000000000815260040161101b90611d31565b60405180910390fd5b611037838261162c90919063ffffffff16565b600560003373ffffffffffffffffffffffffffffffffffffffff1673ffffffffffffffffffffffffffffffffffffffff168152602001908152602001600020819055506110a1611090838561162c90919063ffffffff16565b60065461162c90919063ffffffff16565b600681905550600954600460003373ffffffffffffffffffffffffffffffffffffffff1673ffffffffffffffffffffffffffffffffffffffff16815260200190815260200160002081905550600360009054906101000a900473ffffffffffffffffffffffffffffffffffffffff1673ffffffffffffffffffffffffffffffffffffffff166323b872dd333061114a69d3c21bcecceda10000008861167690919063ffffffff16565b6040518463ffffffff1660e01b815260040161116893929190611d51565b6020604051808303816000875af1158015611187573d6000803e3d6000fd5b505050506040513d601f19601f820116820180604052508101906111ab9190611a54565b6111ea576040517f08c379a00000000000000000000000000000000000000000000000000000000081526004016111e190611dd4565b60405180910390fd5b505050565b6111f76114c4565b80600360006101000a81548173ffffffffffffffffffffffffffffffffffffffff021916908373ffffffffffffffffffffffffffffffffffffffff16021790555050565b600080600560008473ffffffffffffffffffffffffffffffffffffffff1673ffffffffffffffffffffffffffffffffffffffff168152602001908152602001600020540361128c57600090506113cf565b60006112f7620f42406112e9600854600560008873ffffffffffffffffffffffffffffffffffffffff1673ffffffffffffffffffffffffffffffffffffffff1681526020019081526020016000205461155490919063ffffffff16565b61167690919063ffffffff16565b905060006113b5620f42406113a7611359600460008973ffffffffffffffffffffffffffffffffffffffff1673ffffffffffffffffffffffffffffffffffffffff1681526020019081526020016000205460095461162c90919063ffffffff16565b600560008973ffffffffffffffffffffffffffffffffffffffff1673ffffffffffffffffffffffffffffffffffffffff1681526020019081526020016000205461155490919063ffffffff16565b61167690919063ffffffff16565b90506113ca82826115ce90919063ffffffff16565b925050505b919050565b600080600360009054906101000a900473ffffffffffffffffffffffffffffffffffffffff1673ffffffffffffffffffffffffffffffffffffffff166370a08231306040518263ffffffff1660e01b815260040161143291906117c8565b602060405180830381865afa15801561144f573d6000803e3d6000fd5b505050506040513d601f19601f820116820180604052508101906114739190611923565b90506114a660065461149869d3c21bcecceda10000008461155490919063ffffffff16565b6115ce90919063ffffffff16565b91505090565b60046020528060005260406000206000915090505481565b60008054906101000a900473ffffffffffffffffffffffffffffffffffffffff1673ffffffffffffffffffffffffffffffffffffffff163373ffffffffffffffffffffffffffffffffffffffff1614611552576040517f08c379a000000000000000000000000000000000000000000000000000000000815260040161154990611e40565b60405180910390fd5b565b600080830361156657600090506115c8565b600082846115749190611e8f565b90508284826115839190611f00565b146115c3576040517f08c379a00000000000000000000000000000000000000000000000000000000081526004016115ba90611fa3565b60405180910390fd5b809150505b92915050565b60008082846115dd9190611fc3565b905083811015611622576040517f08c379a000000000000000000000000000000000000000000000000000000000815260040161161990612043565b60405180910390fd5b8091505092915050565b600061166e83836040518060400160405280601e81526020017f536166654d6174683a207375627472616374696f6e206f766572666c6f7700008152506116c0565b905092915050565b60006116b883836040518060400160405280601a81526020017f536166654d6174683a206469766973696f6e206279207a65726f000000000000815250611724565b905092915050565b6000838311158290611708576040517f08c379a00000000000000000000000000000000000000000000000000000000081526004016116ff91906120e2565b60405180910390fd5b50600083856117179190612104565b9050809150509392505050565b6000808311829061176b576040517f08c379a000000000000000000000000000000000000000000000000000000000815260040161176291906120e2565b60405180910390fd5b506000838561177a9190611f00565b9050809150509392505050565b600073ffffffffffffffffffffffffffffffffffffffff82169050919050565b60006117b282611787565b9050919050565b6117c2816117a7565b82525050565b60006020820190506117dd60008301846117b9565b92915050565b600080fd5b6117f1816117a7565b81146117fc57600080fd5b50565b60008135905061180e816117e8565b92915050565b60006020828403121561182a576118296117e3565b5b6000611838848285016117ff565b91505092915050565b6000819050919050565b61185481611841565b82525050565b600060208201905061186f600083018461184b565b92915050565b61187e81611841565b811461188957600080fd5b50565b60008135905061189b81611875565b92915050565b600080604083850312156118b8576118b76117e3565b5b60006118c6858286016117ff565b92505060206118d78582860161188c565b9150509250929050565b6000602082840312156118f7576118f66117e3565b5b60006119058482850161188c565b91505092915050565b60008151905061191d81611875565b92915050565b600060208284031215611939576119386117e3565b5b60006119478482850161190e565b91505092915050565b600082825260208201905092915050565b7f6f6e6c7920746865206b6c70206d616e616765722063616e2063616c6c20746860008201527f69732066756e6374696f6e000000000000000000000000000000000000000000602082015250565b60006119bd602b83611950565b91506119c882611961565b604082019050919050565b600060208201905081810360008301526119ec816119b0565b9050919050565b6000604082019050611a0860008301856117b9565b611a15602083018461184b565b9392505050565b60008115159050919050565b611a3181611a1c565b8114611a3c57600080fd5b50565b600081519050611a4e81611a28565b92915050565b600060208284031215611a6a57611a696117e3565b5b6000611a7884828501611a3f565b91505092915050565b7f6661696c656420746f207472616e73666572206f757400000000000000000000600082015250565b6000611ab7601683611950565b9150611ac282611a81565b602082019050919050565b60006020820190508181036000830152611ae681611aaa565b9050919050565b600081519050611afc816117e8565b92915050565b600060208284031215611b1857611b176117e3565b5b6000611b2684828501611aed565b91505092915050565b7f61636f756e7420646f6573206e6f74206861766520616273747261637420636f60008201527f6e74726163740000000000000000000000000000000000000000000000000000602082015250565b6000611b8b602683611950565b9150611b9682611b2f565b604082019050919050565b60006020820190508181036000830152611bba81611b7e565b9050919050565b7f6578697374696e67206c6f616e20616d6f756e7420657863656564696e67204c60008201527f5456000000000000000000000000000000000000000000000000000000000000602082015250565b6000611c1d602283611950565b9150611c2882611bc1565b604082019050919050565b60006020820190508181036000830152611c4c81611c10565b9050919050565b7f4c545620646f6573206e6f7420737570706f7274206c6f616e20616d6f756e74600082015250565b6000611c89602083611950565b9150611c9482611c53565b602082019050919050565b60006020820190508181036000830152611cb881611c7c565b9050919050565b7f6c6f616e2074616b656e206c6573736572207468616e20706179696e6720616d60008201527f6f756e7400000000000000000000000000000000000000000000000000000000602082015250565b6000611d1b602483611950565b9150611d2682611cbf565b604082019050919050565b60006020820190508181036000830152611d4a81611d0e565b9050919050565b6000606082019050611d6660008301866117b9565b611d7360208301856117b9565b611d80604083018461184b565b949350505050565b7f6661696c656420746f207472616e7366657220696e0000000000000000000000600082015250565b6000611dbe601583611950565b9150611dc982611d88565b602082019050919050565b60006020820190508181036000830152611ded81611db1565b9050919050565b7f6f6e6c7920676f762063616e2063616c6c20746869732066756e6374696f6e00600082015250565b6000611e2a601f83611950565b9150611e3582611df4565b602082019050919050565b60006020820190508181036000830152611e5981611e1d565b9050919050565b7f4e487b7100000000000000000000000000000000000000000000000000000000600052601160045260246000fd5b6000611e9a82611841565b9150611ea583611841565b9250828202611eb381611841565b91508282048414831517611eca57611ec9611e60565b5b5092915050565b7f4e487b7100000000000000000000000000000000000000000000000000000000600052601260045260246000fd5b6000611f0b82611841565b9150611f1683611841565b925082611f2657611f25611ed1565b5b828204905092915050565b7f536166654d6174683a206d756c7469706c69636174696f6e206f766572666c6f60008201527f7700000000000000000000000000000000000000000000000000000000000000602082015250565b6000611f8d602183611950565b9150611f9882611f31565b604082019050919050565b60006020820190508181036000830152611fbc81611f80565b9050919050565b6000611fce82611841565b9150611fd983611841565b9250828201905080821115611ff157611ff0611e60565b5b92915050565b7f536166654d6174683a206164646974696f6e206f766572666c6f770000000000600082015250565b600061202d601b83611950565b915061203882611ff7565b602082019050919050565b6000602082019050818103600083015261205c81612020565b9050919050565b600081519050919050565b60005b8381101561208c578082015181840152602081019050612071565b60008484015250505050565b6000601f19601f8301169050919050565b60006120b482612063565b6120be8185611950565b93506120ce81856020860161206e565b6120d781612098565b840191505092915050565b600060208201905081810360008301526120fc81846120a9565b905092915050565b600061210f82611841565b915061211a83611841565b925082820390508181111561213257612131611e60565b5b9291505056fea2646970667358221220cdbd4fe4b9e3b7db0a1e65be982ed2e7d1a8af90f6fa1cd9e71c90a06ebb784f64736f6c63430008110033","opcodes":"PUSH1 0x80 PUSH1 0x40 MSTORE PUSH1 0x0 PUSH1 0x6 SSTORE PUSH2 0xE10 PUSH1 0x7 SSTORE PUSH1 0x64 PUSH1 0x8 SSTORE CALLVALUE DUP1 ISZERO PUSH3 0x21 JUMPI PUSH1 0x0 DUP1 REVERT JUMPDEST POP PUSH1 0x40 MLOAD PUSH3 0x22E9 CODESIZE SUB DUP1 PUSH3 0x22E9 DUP4 CODECOPY DUP2 DUP2 ADD PUSH1 0x40 MSTORE DUP2 ADD SWAP1 PUSH3 0x47 SWAP2 SWAP1 PUSH3 0x139 JUMP JUMPDEST CALLER PUSH1 0x0 DUP1 PUSH2 0x100 EXP DUP2 SLOAD DUP2 PUSH20 0xFFFFFFFFFFFFFFFFFFFFFFFFFFFFFFFFFFFFFFFF MUL NOT AND SWAP1 DUP4 PUSH20 0xFFFFFFFFFFFFFFFFFFFFFFFFFFFFFFFFFFFFFFFF AND MUL OR SWAP1 SSTORE POP DUP1 PUSH1 0x3 PUSH1 0x0 PUSH2 0x100 EXP DUP2 SLOAD DUP2 PUSH20 0xFFFFFFFFFFFFFFFFFFFFFFFFFFFFFFFFFFFFFFFF MUL NOT AND SWAP1 DUP4 PUSH20 0xFFFFFFFFFFFFFFFFFFFFFFFFFFFFFFFFFFFFFFFF AND MUL OR SWAP1 SSTORE POP POP PUSH3 0x16B JUMP JUMPDEST PUSH1 0x0 DUP1 REVERT JUMPDEST PUSH1 0x0 PUSH20 0xFFFFFFFFFFFFFFFFFFFFFFFFFFFFFFFFFFFFFFFF DUP3 AND SWAP1 POP SWAP2 SWAP1 POP JUMP JUMPDEST PUSH1 0x0 PUSH3 0x101 DUP3 PUSH3 0xD4 JUMP JUMPDEST SWAP1 POP SWAP2 SWAP1 POP JUMP JUMPDEST PUSH3 0x113 DUP2 PUSH3 0xF4 JUMP JUMPDEST DUP2 EQ PUSH3 0x11F JUMPI PUSH1 0x0 DUP1 REVERT JUMPDEST POP JUMP JUMPDEST PUSH1 0x0 DUP2 MLOAD SWAP1 POP PUSH3 0x133 DUP2 PUSH3 0x108 JUMP JUMPDEST SWAP3 SWAP2 POP POP JUMP JUMPDEST PUSH1 0x0 PUSH1 0x20 DUP3 DUP5 SUB SLT ISZERO PUSH3 0x152 JUMPI PUSH3 0x151 PUSH3 0xCF JUMP JUMPDEST JUMPDEST PUSH1 0x0 PUSH3 0x162 DUP5 DUP3 DUP6 ADD PUSH3 0x122 JUMP JUMPDEST SWAP2 POP POP SWAP3 SWAP2 POP POP JUMP JUMPDEST PUSH2 0x216E DUP1 PUSH3 0x17B PUSH1 0x0 CODECOPY PUSH1 0x0 RETURN INVALID PUSH1 0x80 PUSH1 0x40 MSTORE CALLVALUE DUP1 ISZERO PUSH2 0x10 JUMPI PUSH1 0x0 DUP1 REVERT JUMPDEST POP PUSH1 0x4 CALLDATASIZE LT PUSH2 0x1A9 JUMPI PUSH1 0x0 CALLDATALOAD PUSH1 0xE0 SHR DUP1 PUSH4 0x7B3820CE GT PUSH2 0xF9 JUMPI DUP1 PUSH4 0xCA0CD00A GT PUSH2 0x97 JUMPI DUP1 PUSH4 0xD38BCDEE GT PUSH2 0x71 JUMPI DUP1 PUSH4 0xD38BCDEE EQ PUSH2 0x466 JUMPI DUP1 PUSH4 0xDB1E4FF8 EQ PUSH2 0x482 JUMPI DUP1 PUSH4 0xDFED1348 EQ PUSH2 0x4B2 JUMPI DUP1 PUSH4 0xE10EB58C EQ PUSH2 0x4D0 JUMPI PUSH2 0x1A9 JUMP JUMPDEST DUP1 PUSH4 0xCA0CD00A EQ PUSH2 0x3FE JUMPI DUP1 PUSH4 0xD04F246B EQ PUSH2 0x41A JUMPI DUP1 PUSH4 0xD16EF22A EQ PUSH2 0x44A JUMPI PUSH2 0x1A9 JUMP JUMPDEST DUP1 PUSH4 0x95082D25 GT PUSH2 0xD3 JUMPI DUP1 PUSH4 0x95082D25 EQ PUSH2 0x39C JUMPI DUP1 PUSH4 0x9D0D42C7 EQ PUSH2 0x3BA JUMPI DUP1 PUSH4 0xAD993F97 EQ PUSH2 0x3D8 JUMPI DUP1 PUSH4 0xB62B751D EQ PUSH2 0x3F4 JUMPI PUSH2 0x1A9 JUMP JUMPDEST DUP1 PUSH4 0x7B3820CE EQ PUSH2 0x344 JUMPI DUP1 PUSH4 0x7C2BFDFB EQ PUSH2 0x362 JUMPI DUP1 PUSH4 0x819BD33C EQ PUSH2 0x37E JUMPI PUSH2 0x1A9 JUMP JUMPDEST DUP1 PUSH4 0x59BF5D39 GT PUSH2 0x166 JUMPI DUP1 PUSH4 0x645BC7EE GT PUSH2 0x140 JUMPI DUP1 PUSH4 0x645BC7EE EQ PUSH2 0x2BA JUMPI DUP1 PUSH4 0x732E0A1D EQ PUSH2 0x2D8 JUMPI DUP1 PUSH4 0x77F01EDD EQ PUSH2 0x2F6 JUMPI DUP1 PUSH4 0x794EF3E4 EQ PUSH2 0x314 JUMPI PUSH2 0x1A9 JUMP JUMPDEST DUP1 PUSH4 0x59BF5D39 EQ PUSH2 0x260 JUMPI DUP1 PUSH4 0x5E04B9F8 EQ PUSH2 0x27E JUMPI DUP1 PUSH4 0x62965D8E EQ PUSH2 0x29C JUMPI PUSH2 0x1A9 JUMP JUMPDEST DUP1 PUSH4 0x2D45457 EQ PUSH2 0x1AE JUMPI DUP1 PUSH4 0xFEF75C3 EQ PUSH2 0x1CC JUMPI DUP1 PUSH4 0x12D43A51 EQ PUSH2 0x1E8 JUMPI DUP1 PUSH4 0x1A02D430 EQ PUSH2 0x206 JUMPI DUP1 PUSH4 0x261C1C52 EQ PUSH2 0x224 JUMPI DUP1 PUSH4 0x36BDA883 EQ PUSH2 0x242 JUMPI JUMPDEST PUSH1 0x0 DUP1 REVERT JUMPDEST PUSH2 0x1B6 PUSH2 0x500 JUMP JUMPDEST PUSH1 0x40 MLOAD PUSH2 0x1C3 SWAP2 SWAP1 PUSH2 0x17C8 JUMP JUMPDEST PUSH1 0x40 MLOAD DUP1 SWAP2 SUB SWAP1 RETURN JUMPDEST PUSH2 0x1E6 PUSH1 0x4 DUP1 CALLDATASIZE SUB DUP2 ADD SWAP1 PUSH2 0x1E1 SWAP2 SWAP1 PUSH2 0x1814 JUMP JUMPDEST PUSH2 0x526 JUMP JUMPDEST STOP JUMPDEST PUSH2 0x1F0 PUSH2 0x572 JUMP JUMPDEST PUSH1 0x40 MLOAD PUSH2 0x1FD SWAP2 SWAP1 PUSH2 0x17C8 JUMP JUMPDEST PUSH1 0x40 MLOAD DUP1 SWAP2 SUB SWAP1 RETURN JUMPDEST PUSH2 0x20E PUSH2 0x596 JUMP JUMPDEST PUSH1 0x40 MLOAD PUSH2 0x21B SWAP2 SWAP1 PUSH2 0x185A JUMP JUMPDEST PUSH1 0x40 MLOAD DUP1 SWAP2 SUB SWAP1 RETURN JUMPDEST PUSH2 0x22C PUSH2 0x59C JUMP JUMPDEST PUSH1 0x40 MLOAD PUSH2 0x239 SWAP2 SWAP1 PUSH2 0x185A JUMP JUMPDEST PUSH1 0x40 MLOAD DUP1 SWAP2 SUB SWAP1 RETURN JUMPDEST PUSH2 0x24A PUSH2 0x5A2 JUMP JUMPDEST PUSH1 0x40 MLOAD PUSH2 0x257 SWAP2 SWAP1 PUSH2 0x185A JUMP JUMPDEST PUSH1 0x40 MLOAD DUP1 SWAP2 SUB SWAP1 RETURN JUMPDEST PUSH2 0x268 PUSH2 0x5B0 JUMP JUMPDEST PUSH1 0x40 MLOAD PUSH2 0x275 SWAP2 SWAP1 PUSH2 0x185A JUMP JUMPDEST PUSH1 0x40 MLOAD DUP1 SWAP2 SUB SWAP1 RETURN JUMPDEST PUSH2 0x286 PUSH2 0x66F JUMP JUMPDEST PUSH1 0x40 MLOAD PUSH2 0x293 SWAP2 SWAP1 PUSH2 0x185A JUMP JUMPDEST PUSH1 0x40 MLOAD DUP1 SWAP2 SUB SWAP1 RETURN JUMPDEST PUSH2 0x2A4 PUSH2 0x727 JUMP JUMPDEST PUSH1 0x40 MLOAD PUSH2 0x2B1 SWAP2 SWAP1 PUSH2 0x185A JUMP JUMPDEST PUSH1 0x40 MLOAD DUP1 SWAP2 SUB SWAP1 RETURN JUMPDEST PUSH2 0x2C2 PUSH2 0x72C JUMP JUMPDEST PUSH1 0x40 MLOAD PUSH2 0x2CF SWAP2 SWAP1 PUSH2 0x185A JUMP JUMPDEST PUSH1 0x40 MLOAD DUP1 SWAP2 SUB SWAP1 RETURN JUMPDEST PUSH2 0x2E0 PUSH2 0x732 JUMP JUMPDEST PUSH1 0x40 MLOAD PUSH2 0x2ED SWAP2 SWAP1 PUSH2 0x17C8 JUMP JUMPDEST PUSH1 0x40 MLOAD DUP1 SWAP2 SUB SWAP1 RETURN JUMPDEST PUSH2 0x2FE PUSH2 0x758 JUMP JUMPDEST PUSH1 0x40 MLOAD PUSH2 0x30B SWAP2 SWAP1 PUSH2 0x185A JUMP JUMPDEST PUSH1 0x40 MLOAD DUP1 SWAP2 SUB SWAP1 RETURN JUMPDEST PUSH2 0x32E PUSH1 0x4 DUP1 CALLDATASIZE SUB DUP2 ADD SWAP1 PUSH2 0x329 SWAP2 SWAP1 PUSH2 0x1814 JUMP JUMPDEST PUSH2 0x75F JUMP JUMPDEST PUSH1 0x40 MLOAD PUSH2 0x33B SWAP2 SWAP1 PUSH2 0x185A JUMP JUMPDEST PUSH1 0x40 MLOAD DUP1 SWAP2 SUB SWAP1 RETURN JUMPDEST PUSH2 0x34C PUSH2 0x777 JUMP JUMPDEST PUSH1 0x40 MLOAD PUSH2 0x359 SWAP2 SWAP1 PUSH2 0x185A JUMP JUMPDEST PUSH1 0x40 MLOAD DUP1 SWAP2 SUB SWAP1 RETURN JUMPDEST PUSH2 0x37C PUSH1 0x4 DUP1 CALLDATASIZE SUB DUP2 ADD SWAP1 PUSH2 0x377 SWAP2 SWAP1 PUSH2 0x18A1 JUMP JUMPDEST PUSH2 0x77D JUMP JUMPDEST STOP JUMPDEST PUSH2 0x386 PUSH2 0x8F0 JUMP JUMPDEST PUSH1 0x40 MLOAD PUSH2 0x393 SWAP2 SWAP1 PUSH2 0x185A JUMP JUMPDEST PUSH1 0x40 MLOAD DUP1 SWAP2 SUB SWAP1 RETURN JUMPDEST PUSH2 0x3A4 PUSH2 0x8F6 JUMP JUMPDEST PUSH1 0x40 MLOAD PUSH2 0x3B1 SWAP2 SWAP1 PUSH2 0x185A JUMP JUMPDEST PUSH1 0x40 MLOAD DUP1 SWAP2 SUB SWAP1 RETURN JUMPDEST PUSH2 0x3C2 PUSH2 0x907 JUMP JUMPDEST PUSH1 0x40 MLOAD PUSH2 0x3CF SWAP2 SWAP1 PUSH2 0x17C8 JUMP JUMPDEST PUSH1 0x40 MLOAD DUP1 SWAP2 SUB SWAP1 RETURN JUMPDEST PUSH2 0x3F2 PUSH1 0x4 DUP1 CALLDATASIZE SUB DUP2 ADD SWAP1 PUSH2 0x3ED SWAP2 SWAP1 PUSH2 0x1814 JUMP JUMPDEST PUSH2 0x92D JUMP JUMPDEST STOP JUMPDEST PUSH2 0x3FC PUSH2 0x979 JUMP JUMPDEST STOP JUMPDEST PUSH2 0x418 PUSH1 0x4 DUP1 CALLDATASIZE SUB DUP2 ADD SWAP1 PUSH2 0x413 SWAP2 SWAP1 PUSH2 0x18E1 JUMP JUMPDEST PUSH2 0xA2E JUMP JUMPDEST STOP JUMPDEST PUSH2 0x434 PUSH1 0x4 DUP1 CALLDATASIZE SUB DUP2 ADD SWAP1 PUSH2 0x42F SWAP2 SWAP1 PUSH2 0x1814 JUMP JUMPDEST PUSH2 0xF35 JUMP JUMPDEST PUSH1 0x40 MLOAD PUSH2 0x441 SWAP2 SWAP1 PUSH2 0x185A JUMP JUMPDEST PUSH1 0x40 MLOAD DUP1 SWAP2 SUB SWAP1 RETURN JUMPDEST PUSH2 0x464 PUSH1 0x4 DUP1 CALLDATASIZE SUB DUP2 ADD SWAP1 PUSH2 0x45F SWAP2 SWAP1 PUSH2 0x18E1 JUMP JUMPDEST PUSH2 0xF7E JUMP JUMPDEST STOP JUMPDEST PUSH2 0x480 PUSH1 0x4 DUP1 CALLDATASIZE SUB DUP2 ADD SWAP1 PUSH2 0x47B SWAP2 SWAP1 PUSH2 0x1814 JUMP JUMPDEST PUSH2 0x11EF JUMP JUMPDEST STOP JUMPDEST PUSH2 0x49C PUSH1 0x4 DUP1 CALLDATASIZE SUB DUP2 ADD SWAP1 PUSH2 0x497 SWAP2 SWAP1 PUSH2 0x1814 JUMP JUMPDEST PUSH2 0x123B JUMP JUMPDEST PUSH1 0x40 MLOAD PUSH2 0x4A9 SWAP2 SWAP1 PUSH2 0x185A JUMP JUMPDEST PUSH1 0x40 MLOAD DUP1 SWAP2 SUB SWAP1 RETURN JUMPDEST PUSH2 0x4BA PUSH2 0x13D4 JUMP JUMPDEST PUSH1 0x40 MLOAD PUSH2 0x4C7 SWAP2 SWAP1 PUSH2 0x185A JUMP JUMPDEST PUSH1 0x40 MLOAD DUP1 SWAP2 SUB SWAP1 RETURN JUMPDEST PUSH2 0x4EA PUSH1 0x4 DUP1 CALLDATASIZE SUB DUP2 ADD SWAP1 PUSH2 0x4E5 SWAP2 SWAP1 PUSH2 0x1814 JUMP JUMPDEST PUSH2 0x14AC JUMP JUMPDEST PUSH1 0x40 MLOAD PUSH2 0x4F7 SWAP2 SWAP1 PUSH2 0x185A JUMP JUMPDEST PUSH1 0x40 MLOAD DUP1 SWAP2 SUB SWAP1 RETURN JUMPDEST PUSH1 0x3 PUSH1 0x0 SWAP1 SLOAD SWAP1 PUSH2 0x100 EXP SWAP1 DIV PUSH20 0xFFFFFFFFFFFFFFFFFFFFFFFFFFFFFFFFFFFFFFFF AND DUP2 JUMP JUMPDEST PUSH2 0x52E PUSH2 0x14C4 JUMP JUMPDEST DUP1 PUSH1 0x1 PUSH1 0x0 PUSH2 0x100 EXP DUP2 SLOAD DUP2 PUSH20 0xFFFFFFFFFFFFFFFFFFFFFFFFFFFFFFFFFFFFFFFF MUL NOT AND SWAP1 DUP4 PUSH20 0xFFFFFFFFFFFFFFFFFFFFFFFFFFFFFFFFFFFFFFFF AND MUL OR SWAP1 SSTORE POP POP JUMP JUMPDEST PUSH1 0x0 DUP1 SLOAD SWAP1 PUSH2 0x100 EXP SWAP1 DIV PUSH20 0xFFFFFFFFFFFFFFFFFFFFFFFFFFFFFFFFFFFFFFFF AND DUP2 JUMP JUMPDEST PUSH1 0x8 SLOAD DUP2 JUMP JUMPDEST PUSH1 0x7 SLOAD DUP2 JUMP JUMPDEST PUSH10 0xD3C21BCECCEDA1000000 DUP2 JUMP JUMPDEST PUSH1 0x0 PUSH2 0x66A PUSH10 0xD3C21BCECCEDA1000000 PUSH1 0x3 PUSH1 0x0 SWAP1 SLOAD SWAP1 PUSH2 0x100 EXP SWAP1 DIV PUSH20 0xFFFFFFFFFFFFFFFFFFFFFFFFFFFFFFFFFFFFFFFF AND PUSH20 0xFFFFFFFFFFFFFFFFFFFFFFFFFFFFFFFFFFFFFFFF AND PUSH4 0x70A08231 ADDRESS PUSH1 0x40 MLOAD DUP3 PUSH4 0xFFFFFFFF AND PUSH1 0xE0 SHL DUP2 MSTORE PUSH1 0x4 ADD PUSH2 0x61B SWAP2 SWAP1 PUSH2 0x17C8 JUMP JUMPDEST PUSH1 0x20 PUSH1 0x40 MLOAD DUP1 DUP4 SUB DUP2 DUP7 GAS STATICCALL ISZERO DUP1 ISZERO PUSH2 0x638 JUMPI RETURNDATASIZE PUSH1 0x0 DUP1 RETURNDATACOPY RETURNDATASIZE PUSH1 0x0 REVERT JUMPDEST POP POP POP POP PUSH1 0x40 MLOAD RETURNDATASIZE PUSH1 0x1F NOT PUSH1 0x1F DUP3 ADD AND DUP3 ADD DUP1 PUSH1 0x40 MSTORE POP DUP2 ADD SWAP1 PUSH2 0x65C SWAP2 SWAP1 PUSH2 0x1923 JUMP JUMPDEST PUSH2 0x1554 SWAP1 SWAP2 SWAP1 PUSH4 0xFFFFFFFF AND JUMP JUMPDEST SWAP1 POP SWAP1 JUMP JUMPDEST PUSH1 0x0 TIMESTAMP PUSH2 0x689 PUSH1 0x7 SLOAD PUSH1 0xA SLOAD PUSH2 0x15CE SWAP1 SWAP2 SWAP1 PUSH4 0xFFFFFFFF AND JUMP JUMPDEST GT ISZERO PUSH2 0x698 JUMPI PUSH1 0x0 SWAP1 POP PUSH2 0x724 JUMP JUMPDEST PUSH1 0x0 PUSH2 0x6C3 PUSH1 0x7 SLOAD PUSH2 0x6B5 PUSH1 0xA SLOAD TIMESTAMP PUSH2 0x162C SWAP1 SWAP2 SWAP1 PUSH4 0xFFFFFFFF AND JUMP JUMPDEST PUSH2 0x1676 SWAP1 SWAP2 SWAP1 PUSH4 0xFFFFFFFF AND JUMP JUMPDEST SWAP1 POP PUSH1 0x0 PUSH2 0x6CF PUSH2 0x13D4 JUMP JUMPDEST SWAP1 POP PUSH1 0x0 DUP2 SUB PUSH2 0x6E4 JUMPI PUSH1 0x0 SWAP3 POP POP POP PUSH2 0x724 JUMP JUMPDEST PUSH2 0x71F DUP2 PUSH2 0x711 DUP5 PUSH2 0x703 PUSH1 0x6 SLOAD PUSH1 0x8 SLOAD PUSH2 0x1554 SWAP1 SWAP2 SWAP1 PUSH4 0xFFFFFFFF AND JUMP JUMPDEST PUSH2 0x1554 SWAP1 SWAP2 SWAP1 PUSH4 0xFFFFFFFF AND JUMP JUMPDEST PUSH2 0x1676 SWAP1 SWAP2 SWAP1 PUSH4 0xFFFFFFFF AND JUMP JUMPDEST SWAP3 POP POP POP JUMPDEST SWAP1 JUMP JUMPDEST PUSH1 0x3C DUP2 JUMP JUMPDEST PUSH1 0xA SLOAD DUP2 JUMP JUMPDEST PUSH1 0x1 PUSH1 0x0 SWAP1 SLOAD SWAP1 PUSH2 0x100 EXP SWAP1 DIV PUSH20 0xFFFFFFFFFFFFFFFFFFFFFFFFFFFFFFFFFFFFFFFF AND DUP2 JUMP JUMPDEST PUSH3 0xF4240 DUP2 JUMP JUMPDEST PUSH1 0x5 PUSH1 0x20 MSTORE DUP1 PUSH1 0x0 MSTORE PUSH1 0x40 PUSH1 0x0 KECCAK256 PUSH1 0x0 SWAP2 POP SWAP1 POP SLOAD DUP2 JUMP JUMPDEST PUSH1 0x9 SLOAD DUP2 JUMP JUMPDEST PUSH1 0x2 PUSH1 0x0 SWAP1 SLOAD SWAP1 PUSH2 0x100 EXP SWAP1 DIV PUSH20 0xFFFFFFFFFFFFFFFFFFFFFFFFFFFFFFFFFFFFFFFF AND PUSH20 0xFFFFFFFFFFFFFFFFFFFFFFFFFFFFFFFFFFFFFFFF AND CALLER PUSH20 0xFFFFFFFFFFFFFFFFFFFFFFFFFFFFFFFFFFFFFFFF AND EQ PUSH2 0x80D JUMPI PUSH1 0x40 MLOAD PUSH32 0x8C379A000000000000000000000000000000000000000000000000000000000 DUP2 MSTORE PUSH1 0x4 ADD PUSH2 0x804 SWAP1 PUSH2 0x19D3 JUMP JUMPDEST PUSH1 0x40 MLOAD DUP1 SWAP2 SUB SWAP1 REVERT JUMPDEST PUSH1 0x3 PUSH1 0x0 SWAP1 SLOAD SWAP1 PUSH2 0x100 EXP SWAP1 DIV PUSH20 0xFFFFFFFFFFFFFFFFFFFFFFFFFFFFFFFFFFFFFFFF AND PUSH20 0xFFFFFFFFFFFFFFFFFFFFFFFFFFFFFFFFFFFFFFFF AND PUSH4 0xA9059CBB DUP4 DUP4 PUSH1 0x40 MLOAD DUP4 PUSH4 0xFFFFFFFF AND PUSH1 0xE0 SHL DUP2 MSTORE PUSH1 0x4 ADD PUSH2 0x86A SWAP3 SWAP2 SWAP1 PUSH2 0x19F3 JUMP JUMPDEST PUSH1 0x20 PUSH1 0x40 MLOAD DUP1 DUP4 SUB DUP2 PUSH1 0x0 DUP8 GAS CALL ISZERO DUP1 ISZERO PUSH2 0x889 JUMPI RETURNDATASIZE PUSH1 0x0 DUP1 RETURNDATACOPY RETURNDATASIZE PUSH1 0x0 REVERT JUMPDEST POP POP POP POP PUSH1 0x40 MLOAD RETURNDATASIZE PUSH1 0x1F NOT PUSH1 0x1F DUP3 ADD AND DUP3 ADD DUP1 PUSH1 0x40 MSTORE POP DUP2 ADD SWAP1 PUSH2 0x8AD SWAP2 SWAP1 PUSH2 0x1A54 JUMP JUMPDEST PUSH2 0x8EC JUMPI PUSH1 0x40 MLOAD PUSH32 0x8C379A000000000000000000000000000000000000000000000000000000000 DUP2 MSTORE PUSH1 0x4 ADD PUSH2 0x8E3 SWAP1 PUSH2 0x1ACD JUMP JUMPDEST PUSH1 0x40 MLOAD DUP1 SWAP2 SUB SWAP1 REVERT JUMPDEST POP POP JUMP JUMPDEST PUSH1 0x6 SLOAD DUP2 JUMP JUMPDEST PUSH13 0xC9F2C9CD04674EDEA40000000 DUP2 JUMP JUMPDEST PUSH1 0x2 PUSH1 0x0 SWAP1 SLOAD SWAP1 PUSH2 0x100 EXP SWAP1 DIV PUSH20 0xFFFFFFFFFFFFFFFFFFFFFFFFFFFFFFFFFFFFFFFF AND DUP2 JUMP JUMPDEST PUSH2 0x935 PUSH2 0x14C4 JUMP JUMPDEST DUP1 PUSH1 0x2 PUSH1 0x0 PUSH2 0x100 EXP DUP2 SLOAD DUP2 PUSH20 0xFFFFFFFFFFFFFFFFFFFFFFFFFFFFFFFFFFFFFFFF MUL NOT AND SWAP1 DUP4 PUSH20 0xFFFFFFFFFFFFFFFFFFFFFFFFFFFFFFFFFFFFFFFF AND MUL OR SWAP1 SSTORE POP POP JUMP JUMPDEST PUSH1 0x0 PUSH1 0xA SLOAD SUB PUSH2 0x9B7 JUMPI PUSH2 0x9AC PUSH1 0x7 SLOAD PUSH2 0x99E PUSH1 0x7 SLOAD TIMESTAMP PUSH2 0x1676 SWAP1 SWAP2 SWAP1 PUSH4 0xFFFFFFFF AND JUMP JUMPDEST PUSH2 0x1554 SWAP1 SWAP2 SWAP1 PUSH4 0xFFFFFFFF AND JUMP JUMPDEST PUSH1 0xA DUP2 SWAP1 SSTORE POP PUSH2 0xA2C JUMP JUMPDEST TIMESTAMP PUSH2 0x9CF PUSH1 0x7 SLOAD PUSH1 0xA SLOAD PUSH2 0x15CE SWAP1 SWAP2 SWAP1 PUSH4 0xFFFFFFFF AND JUMP JUMPDEST GT PUSH2 0xA2C JUMPI PUSH1 0x0 PUSH2 0x9DE PUSH2 0x66F JUMP JUMPDEST SWAP1 POP PUSH2 0x9F5 DUP2 PUSH1 0x9 SLOAD PUSH2 0x15CE SWAP1 SWAP2 SWAP1 PUSH4 0xFFFFFFFF AND JUMP JUMPDEST PUSH1 0x9 DUP2 SWAP1 SSTORE POP PUSH2 0xA24 PUSH1 0x7 SLOAD PUSH2 0xA16 PUSH1 0x7 SLOAD TIMESTAMP PUSH2 0x1676 SWAP1 SWAP2 SWAP1 PUSH4 0xFFFFFFFF AND JUMP JUMPDEST PUSH2 0x1554 SWAP1 SWAP2 SWAP1 PUSH4 0xFFFFFFFF AND JUMP JUMPDEST PUSH1 0xA DUP2 SWAP1 SSTORE POP POP JUMPDEST JUMP JUMPDEST PUSH1 0x0 PUSH1 0x1 PUSH1 0x0 SWAP1 SLOAD SWAP1 PUSH2 0x100 EXP SWAP1 DIV PUSH20 0xFFFFFFFFFFFFFFFFFFFFFFFFFFFFFFFFFFFFFFFF AND SWAP1 POP PUSH1 0x0 DUP2 PUSH20 0xFFFFFFFFFFFFFFFFFFFFFFFFFFFFFFFFFFFFFFFF AND PUSH4 0x3704D21B CALLER PUSH1 0x40 MLOAD DUP3 PUSH4 0xFFFFFFFF AND PUSH1 0xE0 SHL DUP2 MSTORE PUSH1 0x4 ADD PUSH2 0xA90 SWAP2 SWAP1 PUSH2 0x17C8 JUMP JUMPDEST PUSH1 0x20 PUSH1 0x40 MLOAD DUP1 DUP4 SUB DUP2 DUP7 GAS STATICCALL ISZERO DUP1 ISZERO PUSH2 0xAAD JUMPI RETURNDATASIZE PUSH1 0x0 DUP1 RETURNDATACOPY RETURNDATASIZE PUSH1 0x0 REVERT JUMPDEST POP POP POP POP PUSH1 0x40 MLOAD RETURNDATASIZE PUSH1 0x1F NOT PUSH1 0x1F DUP3 ADD AND DUP3 ADD DUP1 PUSH1 0x40 MSTORE POP DUP2 ADD SWAP1 PUSH2 0xAD1 SWAP2 SWAP1 PUSH2 0x1B02 JUMP JUMPDEST SWAP1 POP PUSH1 0x0 PUSH20 0xFFFFFFFFFFFFFFFFFFFFFFFFFFFFFFFFFFFFFFFF AND DUP2 PUSH20 0xFFFFFFFFFFFFFFFFFFFFFFFFFFFFFFFFFFFFFFFF AND SUB PUSH2 0xB42 JUMPI PUSH1 0x40 MLOAD PUSH32 0x8C379A000000000000000000000000000000000000000000000000000000000 DUP2 MSTORE PUSH1 0x4 ADD PUSH2 0xB39 SWAP1 PUSH2 0x1BA1 JUMP JUMPDEST PUSH1 0x40 MLOAD DUP1 SWAP2 SUB SWAP1 REVERT JUMPDEST PUSH1 0x0 DUP2 SWAP1 POP PUSH1 0x0 DUP2 PUSH20 0xFFFFFFFFFFFFFFFFFFFFFFFFFFFFFFFFFFFFFFFF AND PUSH4 0xBB0498DE PUSH1 0x40 MLOAD DUP2 PUSH4 0xFFFFFFFF AND PUSH1 0xE0 SHL DUP2 MSTORE PUSH1 0x4 ADD PUSH1 0x20 PUSH1 0x40 MLOAD DUP1 DUP4 SUB DUP2 DUP7 GAS STATICCALL ISZERO DUP1 ISZERO PUSH2 0xB94 JUMPI RETURNDATASIZE PUSH1 0x0 DUP1 RETURNDATACOPY RETURNDATASIZE PUSH1 0x0 REVERT JUMPDEST POP POP POP POP PUSH1 0x40 MLOAD RETURNDATASIZE PUSH1 0x1F NOT PUSH1 0x1F DUP3 ADD AND DUP3 ADD DUP1 PUSH1 0x40 MSTORE POP DUP2 ADD SWAP1 PUSH2 0xBB8 SWAP2 SWAP1 PUSH2 0x1923 JUMP JUMPDEST SWAP1 POP PUSH2 0xBE1 PUSH1 0x64 PUSH2 0xBD3 PUSH1 0x3C DUP5 PUSH2 0x1554 SWAP1 SWAP2 SWAP1 PUSH4 0xFFFFFFFF AND JUMP JUMPDEST PUSH2 0x1676 SWAP1 SWAP2 SWAP1 PUSH4 0xFFFFFFFF AND JUMP JUMPDEST PUSH1 0x5 PUSH1 0x0 CALLER PUSH20 0xFFFFFFFFFFFFFFFFFFFFFFFFFFFFFFFFFFFFFFFF AND PUSH20 0xFFFFFFFFFFFFFFFFFFFFFFFFFFFFFFFFFFFFFFFF AND DUP2 MSTORE PUSH1 0x20 ADD SWAP1 DUP2 MSTORE PUSH1 0x20 ADD PUSH1 0x0 KECCAK256 SLOAD LT PUSH2 0xC61 JUMPI PUSH1 0x40 MLOAD PUSH32 0x8C379A000000000000000000000000000000000000000000000000000000000 DUP2 MSTORE PUSH1 0x4 ADD PUSH2 0xC58 SWAP1 PUSH2 0x1C33 JUMP JUMPDEST PUSH1 0x40 MLOAD DUP1 SWAP2 SUB SWAP1 REVERT JUMPDEST PUSH2 0xC88 PUSH1 0x64 PUSH2 0xC7A PUSH1 0x3C DUP5 PUSH2 0x1554 SWAP1 SWAP2 SWAP1 PUSH4 0xFFFFFFFF AND JUMP JUMPDEST PUSH2 0x1676 SWAP1 SWAP2 SWAP1 PUSH4 0xFFFFFFFF AND JUMP JUMPDEST PUSH2 0xCDA DUP7 PUSH1 0x5 PUSH1 0x0 CALLER PUSH20 0xFFFFFFFFFFFFFFFFFFFFFFFFFFFFFFFFFFFFFFFF AND PUSH20 0xFFFFFFFFFFFFFFFFFFFFFFFFFFFFFFFFFFFFFFFF AND DUP2 MSTORE PUSH1 0x20 ADD SWAP1 DUP2 MSTORE PUSH1 0x20 ADD PUSH1 0x0 KECCAK256 SLOAD PUSH2 0x15CE SWAP1 SWAP2 SWAP1 PUSH4 0xFFFFFFFF AND JUMP JUMPDEST LT PUSH2 0xD1A JUMPI PUSH1 0x40 MLOAD PUSH32 0x8C379A000000000000000000000000000000000000000000000000000000000 DUP2 MSTORE PUSH1 0x4 ADD PUSH2 0xD11 SWAP1 PUSH2 0x1C9F JUMP JUMPDEST PUSH1 0x40 MLOAD DUP1 SWAP2 SUB SWAP1 REVERT JUMPDEST PUSH1 0x0 PUSH2 0xD25 CALLER PUSH2 0x123B JUMP JUMPDEST SWAP1 POP PUSH2 0xD79 DUP7 PUSH1 0x5 PUSH1 0x0 CALLER PUSH20 0xFFFFFFFFFFFFFFFFFFFFFFFFFFFFFFFFFFFFFFFF AND PUSH20 0xFFFFFFFFFFFFFFFFFFFFFFFFFFFFFFFFFFFFFFFF AND DUP2 MSTORE PUSH1 0x20 ADD SWAP1 DUP2 MSTORE PUSH1 0x20 ADD PUSH1 0x0 KECCAK256 SLOAD PUSH2 0x15CE SWAP1 SWAP2 SWAP1 PUSH4 0xFFFFFFFF AND JUMP JUMPDEST PUSH1 0x5 PUSH1 0x0 CALLER PUSH20 0xFFFFFFFFFFFFFFFFFFFFFFFFFFFFFFFFFFFFFFFF AND PUSH20 0xFFFFFFFFFFFFFFFFFFFFFFFFFFFFFFFFFFFFFFFF AND DUP2 MSTORE PUSH1 0x20 ADD SWAP1 DUP2 MSTORE PUSH1 0x20 ADD PUSH1 0x0 KECCAK256 DUP2 SWAP1 SSTORE POP PUSH2 0xDD1 DUP7 PUSH1 0x6 SLOAD PUSH2 0x15CE SWAP1 SWAP2 SWAP1 PUSH4 0xFFFFFFFF AND JUMP JUMPDEST PUSH1 0x6 DUP2 SWAP1 SSTORE POP PUSH2 0xDEA DUP2 DUP8 PUSH2 0x162C SWAP1 SWAP2 SWAP1 PUSH4 0xFFFFFFFF AND JUMP JUMPDEST SWAP6 POP PUSH1 0x9 SLOAD PUSH1 0x4 PUSH1 0x0 CALLER PUSH20 0xFFFFFFFFFFFFFFFFFFFFFFFFFFFFFFFFFFFFFFFF AND PUSH20 0xFFFFFFFFFFFFFFFFFFFFFFFFFFFFFFFFFFFFFFFF AND DUP2 MSTORE PUSH1 0x20 ADD SWAP1 DUP2 MSTORE PUSH1 0x20 ADD PUSH1 0x0 KECCAK256 DUP2 SWAP1 SSTORE POP PUSH1 0x3 PUSH1 0x0 SWAP1 SLOAD SWAP1 PUSH2 0x100 EXP SWAP1 DIV PUSH20 0xFFFFFFFFFFFFFFFFFFFFFFFFFFFFFFFFFFFFFFFF AND PUSH20 0xFFFFFFFFFFFFFFFFFFFFFFFFFFFFFFFFFFFFFFFF AND PUSH4 0xA9059CBB CALLER PUSH2 0xE8E PUSH10 0xD3C21BCECCEDA1000000 DUP11 PUSH2 0x1676 SWAP1 SWAP2 SWAP1 PUSH4 0xFFFFFFFF AND JUMP JUMPDEST PUSH1 0x40 MLOAD DUP4 PUSH4 0xFFFFFFFF AND PUSH1 0xE0 SHL DUP2 MSTORE PUSH1 0x4 ADD PUSH2 0xEAB SWAP3 SWAP2 SWAP1 PUSH2 0x19F3 JUMP JUMPDEST PUSH1 0x20 PUSH1 0x40 MLOAD DUP1 DUP4 SUB DUP2 PUSH1 0x0 DUP8 GAS CALL ISZERO DUP1 ISZERO PUSH2 0xECA JUMPI RETURNDATASIZE PUSH1 0x0 DUP1 RETURNDATACOPY RETURNDATASIZE PUSH1 0x0 REVERT JUMPDEST POP POP POP POP PUSH1 0x40 MLOAD RETURNDATASIZE PUSH1 0x1F NOT PUSH1 0x1F DUP3 ADD AND DUP3 ADD DUP1 PUSH1 0x40 MSTORE POP DUP2 ADD SWAP1 PUSH2 0xEEE SWAP2 SWAP1 PUSH2 0x1A54 JUMP JUMPDEST PUSH2 0xF2D JUMPI PUSH1 0x40 MLOAD PUSH32 0x8C379A000000000000000000000000000000000000000000000000000000000 DUP2 MSTORE PUSH1 0x4 ADD PUSH2 0xF24 SWAP1 PUSH2 0x1ACD JUMP JUMPDEST PUSH1 0x40 MLOAD DUP1 SWAP2 SUB SWAP1 REVERT JUMPDEST POP POP POP POP POP POP JUMP JUMPDEST PUSH1 0x0 PUSH1 0x5 PUSH1 0x0 DUP4 PUSH20 0xFFFFFFFFFFFFFFFFFFFFFFFFFFFFFFFFFFFFFFFF AND PUSH20 0xFFFFFFFFFFFFFFFFFFFFFFFFFFFFFFFFFFFFFFFF AND DUP2 MSTORE PUSH1 0x20 ADD SWAP1 DUP2 MSTORE PUSH1 0x20 ADD PUSH1 0x0 KECCAK256 SLOAD SWAP1 POP SWAP2 SWAP1 POP JUMP JUMPDEST PUSH1 0x0 PUSH2 0xF89 CALLER PUSH2 0x123B JUMP JUMPDEST SWAP1 POP PUSH1 0x0 PUSH2 0xFDF DUP3 PUSH1 0x5 PUSH1 0x0 CALLER PUSH20 0xFFFFFFFFFFFFFFFFFFFFFFFFFFFFFFFFFFFFFFFF AND PUSH20 0xFFFFFFFFFFFFFFFFFFFFFFFFFFFFFFFFFFFFFFFF AND DUP2 MSTORE PUSH1 0x20 ADD SWAP1 DUP2 MSTORE PUSH1 0x20 ADD PUSH1 0x0 KECCAK256 SLOAD PUSH2 0x15CE SWAP1 SWAP2 SWAP1 PUSH4 0xFFFFFFFF AND JUMP JUMPDEST SWAP1 POP DUP3 DUP2 LT ISZERO PUSH2 0x1024 JUMPI PUSH1 0x40 MLOAD PUSH32 0x8C379A000000000000000000000000000000000000000000000000000000000 DUP2 MSTORE PUSH1 0x4 ADD PUSH2 0x101B SWAP1 PUSH2 0x1D31 JUMP JUMPDEST PUSH1 0x40 MLOAD DUP1 SWAP2 SUB SWAP1 REVERT JUMPDEST PUSH2 0x1037 DUP4 DUP3 PUSH2 0x162C SWAP1 SWAP2 SWAP1 PUSH4 0xFFFFFFFF AND JUMP JUMPDEST PUSH1 0x5 PUSH1 0x0 CALLER PUSH20 0xFFFFFFFFFFFFFFFFFFFFFFFFFFFFFFFFFFFFFFFF AND PUSH20 0xFFFFFFFFFFFFFFFFFFFFFFFFFFFFFFFFFFFFFFFF AND DUP2 MSTORE PUSH1 0x20 ADD SWAP1 DUP2 MSTORE PUSH1 0x20 ADD PUSH1 0x0 KECCAK256 DUP2 SWAP1 SSTORE POP PUSH2 0x10A1 PUSH2 0x1090 DUP4 DUP6 PUSH2 0x162C SWAP1 SWAP2 SWAP1 PUSH4 0xFFFFFFFF AND JUMP JUMPDEST PUSH1 0x6 SLOAD PUSH2 0x162C SWAP1 SWAP2 SWAP1 PUSH4 0xFFFFFFFF AND JUMP JUMPDEST PUSH1 0x6 DUP2 SWAP1 SSTORE POP PUSH1 0x9 SLOAD PUSH1 0x4 PUSH1 0x0 CALLER PUSH20 0xFFFFFFFFFFFFFFFFFFFFFFFFFFFFFFFFFFFFFFFF AND PUSH20 0xFFFFFFFFFFFFFFFFFFFFFFFFFFFFFFFFFFFFFFFF AND DUP2 MSTORE PUSH1 0x20 ADD SWAP1 DUP2 MSTORE PUSH1 0x20 ADD PUSH1 0x0 KECCAK256 DUP2 SWAP1 SSTORE POP PUSH1 0x3 PUSH1 0x0 SWAP1 SLOAD SWAP1 PUSH2 0x100 EXP SWAP1 DIV PUSH20 0xFFFFFFFFFFFFFFFFFFFFFFFFFFFFFFFFFFFFFFFF AND PUSH20 0xFFFFFFFFFFFFFFFFFFFFFFFFFFFFFFFFFFFFFFFF AND PUSH4 0x23B872DD CALLER ADDRESS PUSH2 0x114A PUSH10 0xD3C21BCECCEDA1000000 DUP9 PUSH2 0x1676 SWAP1 SWAP2 SWAP1 PUSH4 0xFFFFFFFF AND JUMP JUMPDEST PUSH1 0x40 MLOAD DUP5 PUSH4 0xFFFFFFFF AND PUSH1 0xE0 SHL DUP2 MSTORE PUSH1 0x4 ADD PUSH2 0x1168 SWAP4 SWAP3 SWAP2 SWAP1 PUSH2 0x1D51 JUMP JUMPDEST PUSH1 0x20 PUSH1 0x40 MLOAD DUP1 DUP4 SUB DUP2 PUSH1 0x0 DUP8 GAS CALL ISZERO DUP1 ISZERO PUSH2 0x1187 JUMPI RETURNDATASIZE PUSH1 0x0 DUP1 RETURNDATACOPY RETURNDATASIZE PUSH1 0x0 REVERT JUMPDEST POP POP POP POP PUSH1 0x40 MLOAD RETURNDATASIZE PUSH1 0x1F NOT PUSH1 0x1F DUP3 ADD AND DUP3 ADD DUP1 PUSH1 0x40 MSTORE POP DUP2 ADD SWAP1 PUSH2 0x11AB SWAP2 SWAP1 PUSH2 0x1A54 JUMP JUMPDEST PUSH2 0x11EA JUMPI PUSH1 0x40 MLOAD PUSH32 0x8C379A000000000000000000000000000000000000000000000000000000000 DUP2 MSTORE PUSH1 0x4 ADD PUSH2 0x11E1 SWAP1 PUSH2 0x1DD4 JUMP JUMPDEST PUSH1 0x40 MLOAD DUP1 SWAP2 SUB SWAP1 REVERT JUMPDEST POP POP POP JUMP JUMPDEST PUSH2 0x11F7 PUSH2 0x14C4 JUMP JUMPDEST DUP1 PUSH1 0x3 PUSH1 0x0 PUSH2 0x100 EXP DUP2 SLOAD DUP2 PUSH20 0xFFFFFFFFFFFFFFFFFFFFFFFFFFFFFFFFFFFFFFFF MUL NOT AND SWAP1 DUP4 PUSH20 0xFFFFFFFFFFFFFFFFFFFFFFFFFFFFFFFFFFFFFFFF AND MUL OR SWAP1 SSTORE POP POP JUMP JUMPDEST PUSH1 0x0 DUP1 PUSH1 0x5 PUSH1 0x0 DUP5 PUSH20 0xFFFFFFFFFFFFFFFFFFFFFFFFFFFFFFFFFFFFFFFF AND PUSH20 0xFFFFFFFFFFFFFFFFFFFFFFFFFFFFFFFFFFFFFFFF AND DUP2 MSTORE PUSH1 0x20 ADD SWAP1 DUP2 MSTORE PUSH1 0x20 ADD PUSH1 0x0 KECCAK256 SLOAD SUB PUSH2 0x128C JUMPI PUSH1 0x0 SWAP1 POP PUSH2 0x13CF JUMP JUMPDEST PUSH1 0x0 PUSH2 0x12F7 PUSH3 0xF4240 PUSH2 0x12E9 PUSH1 0x8 SLOAD PUSH1 0x5 PUSH1 0x0 DUP9 PUSH20 0xFFFFFFFFFFFFFFFFFFFFFFFFFFFFFFFFFFFFFFFF AND PUSH20 0xFFFFFFFFFFFFFFFFFFFFFFFFFFFFFFFFFFFFFFFF AND DUP2 MSTORE PUSH1 0x20 ADD SWAP1 DUP2 MSTORE PUSH1 0x20 ADD PUSH1 0x0 KECCAK256 SLOAD PUSH2 0x1554 SWAP1 SWAP2 SWAP1 PUSH4 0xFFFFFFFF AND JUMP JUMPDEST PUSH2 0x1676 SWAP1 SWAP2 SWAP1 PUSH4 0xFFFFFFFF AND JUMP JUMPDEST SWAP1 POP PUSH1 0x0 PUSH2 0x13B5 PUSH3 0xF4240 PUSH2 0x13A7 PUSH2 0x1359 PUSH1 0x4 PUSH1 0x0 DUP10 PUSH20 0xFFFFFFFFFFFFFFFFFFFFFFFFFFFFFFFFFFFFFFFF AND PUSH20 0xFFFFFFFFFFFFFFFFFFFFFFFFFFFFFFFFFFFFFFFF AND DUP2 MSTORE PUSH1 0x20 ADD SWAP1 DUP2 MSTORE PUSH1 0x20 ADD PUSH1 0x0 KECCAK256 SLOAD PUSH1 0x9 SLOAD PUSH2 0x162C SWAP1 SWAP2 SWAP1 PUSH4 0xFFFFFFFF AND JUMP JUMPDEST PUSH1 0x5 PUSH1 0x0 DUP10 PUSH20 0xFFFFFFFFFFFFFFFFFFFFFFFFFFFFFFFFFFFFFFFF AND PUSH20 0xFFFFFFFFFFFFFFFFFFFFFFFFFFFFFFFFFFFFFFFF AND DUP2 MSTORE PUSH1 0x20 ADD SWAP1 DUP2 MSTORE PUSH1 0x20 ADD PUSH1 0x0 KECCAK256 SLOAD PUSH2 0x1554 SWAP1 SWAP2 SWAP1 PUSH4 0xFFFFFFFF AND JUMP JUMPDEST PUSH2 0x1676 SWAP1 SWAP2 SWAP1 PUSH4 0xFFFFFFFF AND JUMP JUMPDEST SWAP1 POP PUSH2 0x13CA DUP3 DUP3 PUSH2 0x15CE SWAP1 SWAP2 SWAP1 PUSH4 0xFFFFFFFF AND JUMP JUMPDEST SWAP3 POP POP POP JUMPDEST SWAP2 SWAP1 POP JUMP JUMPDEST PUSH1 0x0 DUP1 PUSH1 0x3 PUSH1 0x0 SWAP1 SLOAD SWAP1 PUSH2 0x100 EXP SWAP1 DIV PUSH20 0xFFFFFFFFFFFFFFFFFFFFFFFFFFFFFFFFFFFFFFFF AND PUSH20 0xFFFFFFFFFFFFFFFFFFFFFFFFFFFFFFFFFFFFFFFF AND PUSH4 0x70A08231 ADDRESS PUSH1 0x40 MLOAD DUP3 PUSH4 0xFFFFFFFF AND PUSH1 0xE0 SHL DUP2 MSTORE PUSH1 0x4 ADD PUSH2 0x1432 SWAP2 SWAP1 PUSH2 0x17C8 JUMP JUMPDEST PUSH1 0x20 PUSH1 0x40 MLOAD DUP1 DUP4 SUB DUP2 DUP7 GAS STATICCALL ISZERO DUP1 ISZERO PUSH2 0x144F JUMPI RETURNDATASIZE PUSH1 0x0 DUP1 RETURNDATACOPY RETURNDATASIZE PUSH1 0x0 REVERT JUMPDEST POP POP POP POP PUSH1 0x40 MLOAD RETURNDATASIZE PUSH1 0x1F NOT PUSH1 0x1F DUP3 ADD AND DUP3 ADD DUP1 PUSH1 0x40 MSTORE POP DUP2 ADD SWAP1 PUSH2 0x1473 SWAP2 SWAP1 PUSH2 0x1923 JUMP JUMPDEST SWAP1 POP PUSH2 0x14A6 PUSH1 0x6 SLOAD PUSH2 0x1498 PUSH10 0xD3C21BCECCEDA1000000 DUP5 PUSH2 0x1554 SWAP1 SWAP2 SWAP1 PUSH4 0xFFFFFFFF AND JUMP JUMPDEST PUSH2 0x15CE SWAP1 SWAP2 SWAP1 PUSH4 0xFFFFFFFF AND JUMP JUMPDEST SWAP2 POP POP SWAP1 JUMP JUMPDEST PUSH1 0x4 PUSH1 0x20 MSTORE DUP1 PUSH1 0x0 MSTORE PUSH1 0x40 PUSH1 0x0 KECCAK256 PUSH1 0x0 SWAP2 POP SWAP1 POP SLOAD DUP2 JUMP JUMPDEST PUSH1 0x0 DUP1 SLOAD SWAP1 PUSH2 0x100 EXP SWAP1 DIV PUSH20 0xFFFFFFFFFFFFFFFFFFFFFFFFFFFFFFFFFFFFFFFF AND PUSH20 0xFFFFFFFFFFFFFFFFFFFFFFFFFFFFFFFFFFFFFFFF AND CALLER PUSH20 0xFFFFFFFFFFFFFFFFFFFFFFFFFFFFFFFFFFFFFFFF AND EQ PUSH2 0x1552 JUMPI PUSH1 0x40 MLOAD PUSH32 0x8C379A000000000000000000000000000000000000000000000000000000000 DUP2 MSTORE PUSH1 0x4 ADD PUSH2 0x1549 SWAP1 PUSH2 0x1E40 JUMP JUMPDEST PUSH1 0x40 MLOAD DUP1 SWAP2 SUB SWAP1 REVERT JUMPDEST JUMP JUMPDEST PUSH1 0x0 DUP1 DUP4 SUB PUSH2 0x1566 JUMPI PUSH1 0x0 SWAP1 POP PUSH2 0x15C8 JUMP JUMPDEST PUSH1 0x0 DUP3 DUP5 PUSH2 0x1574 SWAP2 SWAP1 PUSH2 0x1E8F JUMP JUMPDEST SWAP1 POP DUP3 DUP5 DUP3 PUSH2 0x1583 SWAP2 SWAP1 PUSH2 0x1F00 JUMP JUMPDEST EQ PUSH2 0x15C3 JUMPI PUSH1 0x40 MLOAD PUSH32 0x8C379A000000000000000000000000000000000000000000000000000000000 DUP2 MSTORE PUSH1 0x4 ADD PUSH2 0x15BA SWAP1 PUSH2 0x1FA3 JUMP JUMPDEST PUSH1 0x40 MLOAD DUP1 SWAP2 SUB SWAP1 REVERT JUMPDEST DUP1 SWAP2 POP POP JUMPDEST SWAP3 SWAP2 POP POP JUMP JUMPDEST PUSH1 0x0 DUP1 DUP3 DUP5 PUSH2 0x15DD SWAP2 SWAP1 PUSH2 0x1FC3 JUMP JUMPDEST SWAP1 POP DUP4 DUP2 LT ISZERO PUSH2 0x1622 JUMPI PUSH1 0x40 MLOAD PUSH32 0x8C379A000000000000000000000000000000000000000000000000000000000 DUP2 MSTORE PUSH1 0x4 ADD PUSH2 0x1619 SWAP1 PUSH2 0x2043 JUMP JUMPDEST PUSH1 0x40 MLOAD DUP1 SWAP2 SUB SWAP1 REVERT JUMPDEST DUP1 SWAP2 POP POP SWAP3 SWAP2 POP POP JUMP JUMPDEST PUSH1 0x0 PUSH2 0x166E DUP4 DUP4 PUSH1 0x40 MLOAD DUP1 PUSH1 0x40 ADD PUSH1 0x40 MSTORE DUP1 PUSH1 0x1E DUP2 MSTORE PUSH1 0x20 ADD PUSH32 0x536166654D6174683A207375627472616374696F6E206F766572666C6F770000 DUP2 MSTORE POP PUSH2 0x16C0 JUMP JUMPDEST SWAP1 POP SWAP3 SWAP2 POP POP JUMP JUMPDEST PUSH1 0x0 PUSH2 0x16B8 DUP4 DUP4 PUSH1 0x40 MLOAD DUP1 PUSH1 0x40 ADD PUSH1 0x40 MSTORE DUP1 PUSH1 0x1A DUP2 MSTORE PUSH1 0x20 ADD PUSH32 0x536166654D6174683A206469766973696F6E206279207A65726F000000000000 DUP2 MSTORE POP PUSH2 0x1724 JUMP JUMPDEST SWAP1 POP SWAP3 SWAP2 POP POP JUMP JUMPDEST PUSH1 0x0 DUP4 DUP4 GT ISZERO DUP3 SWAP1 PUSH2 0x1708 JUMPI PUSH1 0x40 MLOAD PUSH32 0x8C379A000000000000000000000000000000000000000000000000000000000 DUP2 MSTORE PUSH1 0x4 ADD PUSH2 0x16FF SWAP2 SWAP1 PUSH2 0x20E2 JUMP JUMPDEST PUSH1 0x40 MLOAD DUP1 SWAP2 SUB SWAP1 REVERT JUMPDEST POP PUSH1 0x0 DUP4 DUP6 PUSH2 0x1717 SWAP2 SWAP1 PUSH2 0x2104 JUMP JUMPDEST SWAP1 POP DUP1 SWAP2 POP POP SWAP4 SWAP3 POP POP POP JUMP JUMPDEST PUSH1 0x0 DUP1 DUP4 GT DUP3 SWAP1 PUSH2 0x176B JUMPI PUSH1 0x40 MLOAD PUSH32 0x8C379A000000000000000000000000000000000000000000000000000000000 DUP2 MSTORE PUSH1 0x4 ADD PUSH2 0x1762 SWAP2 SWAP1 PUSH2 0x20E2 JUMP JUMPDEST PUSH1 0x40 MLOAD DUP1 SWAP2 SUB SWAP1 REVERT JUMPDEST POP PUSH1 0x0 DUP4 DUP6 PUSH2 0x177A SWAP2 SWAP1 PUSH2 0x1F00 JUMP JUMPDEST SWAP1 POP DUP1 SWAP2 POP POP SWAP4 SWAP3 POP POP POP JUMP JUMPDEST PUSH1 0x0 PUSH20 0xFFFFFFFFFFFFFFFFFFFFFFFFFFFFFFFFFFFFFFFF DUP3 AND SWAP1 POP SWAP2 SWAP1 POP JUMP JUMPDEST PUSH1 0x0 PUSH2 0x17B2 DUP3 PUSH2 0x1787 JUMP JUMPDEST SWAP1 POP SWAP2 SWAP1 POP JUMP JUMPDEST PUSH2 0x17C2 DUP2 PUSH2 0x17A7 JUMP JUMPDEST DUP3 MSTORE POP POP JUMP JUMPDEST PUSH1 0x0 PUSH1 0x20 DUP3 ADD SWAP1 POP PUSH2 0x17DD PUSH1 0x0 DUP4 ADD DUP5 PUSH2 0x17B9 JUMP JUMPDEST SWAP3 SWAP2 POP POP JUMP JUMPDEST PUSH1 0x0 DUP1 REVERT JUMPDEST PUSH2 0x17F1 DUP2 PUSH2 0x17A7 JUMP JUMPDEST DUP2 EQ PUSH2 0x17FC JUMPI PUSH1 0x0 DUP1 REVERT JUMPDEST POP JUMP JUMPDEST PUSH1 0x0 DUP2 CALLDATALOAD SWAP1 POP PUSH2 0x180E DUP2 PUSH2 0x17E8 JUMP JUMPDEST SWAP3 SWAP2 POP POP JUMP JUMPDEST PUSH1 0x0 PUSH1 0x20 DUP3 DUP5 SUB SLT ISZERO PUSH2 0x182A JUMPI PUSH2 0x1829 PUSH2 0x17E3 JUMP JUMPDEST JUMPDEST PUSH1 0x0 PUSH2 0x1838 DUP5 DUP3 DUP6 ADD PUSH2 0x17FF JUMP JUMPDEST SWAP2 POP POP SWAP3 SWAP2 POP POP JUMP JUMPDEST PUSH1 0x0 DUP2 SWAP1 POP SWAP2 SWAP1 POP JUMP JUMPDEST PUSH2 0x1854 DUP2 PUSH2 0x1841 JUMP JUMPDEST DUP3 MSTORE POP POP JUMP JUMPDEST PUSH1 0x0 PUSH1 0x20 DUP3 ADD SWAP1 POP PUSH2 0x186F PUSH1 0x0 DUP4 ADD DUP5 PUSH2 0x184B JUMP JUMPDEST SWAP3 SWAP2 POP POP JUMP JUMPDEST PUSH2 0x187E DUP2 PUSH2 0x1841 JUMP JUMPDEST DUP2 EQ PUSH2 0x1889 JUMPI PUSH1 0x0 DUP1 REVERT JUMPDEST POP JUMP JUMPDEST PUSH1 0x0 DUP2 CALLDATALOAD SWAP1 POP PUSH2 0x189B DUP2 PUSH2 0x1875 JUMP JUMPDEST SWAP3 SWAP2 POP POP JUMP JUMPDEST PUSH1 0x0 DUP1 PUSH1 0x40 DUP4 DUP6 SUB SLT ISZERO PUSH2 0x18B8 JUMPI PUSH2 0x18B7 PUSH2 0x17E3 JUMP JUMPDEST JUMPDEST PUSH1 0x0 PUSH2 0x18C6 DUP6 DUP3 DUP7 ADD PUSH2 0x17FF JUMP JUMPDEST SWAP3 POP POP PUSH1 0x20 PUSH2 0x18D7 DUP6 DUP3 DUP7 ADD PUSH2 0x188C JUMP JUMPDEST SWAP2 POP POP SWAP3 POP SWAP3 SWAP1 POP JUMP JUMPDEST PUSH1 0x0 PUSH1 0x20 DUP3 DUP5 SUB SLT ISZERO PUSH2 0x18F7 JUMPI PUSH2 0x18F6 PUSH2 0x17E3 JUMP JUMPDEST JUMPDEST PUSH1 0x0 PUSH2 0x1905 DUP5 DUP3 DUP6 ADD PUSH2 0x188C JUMP JUMPDEST SWAP2 POP POP SWAP3 SWAP2 POP POP JUMP JUMPDEST PUSH1 0x0 DUP2 MLOAD SWAP1 POP PUSH2 0x191D DUP2 PUSH2 0x1875 JUMP JUMPDEST SWAP3 SWAP2 POP POP JUMP JUMPDEST PUSH1 0x0 PUSH1 0x20 DUP3 DUP5 SUB SLT ISZERO PUSH2 0x1939 JUMPI PUSH2 0x1938 PUSH2 0x17E3 JUMP JUMPDEST JUMPDEST PUSH1 0x0 PUSH2 0x1947 DUP5 DUP3 DUP6 ADD PUSH2 0x190E JUMP JUMPDEST SWAP2 POP POP SWAP3 SWAP2 POP POP JUMP JUMPDEST PUSH1 0x0 DUP3 DUP3 MSTORE PUSH1 0x20 DUP3 ADD SWAP1 POP SWAP3 SWAP2 POP POP JUMP JUMPDEST PUSH32 0x6F6E6C7920746865206B6C70206D616E616765722063616E2063616C6C207468 PUSH1 0x0 DUP3 ADD MSTORE PUSH32 0x69732066756E6374696F6E000000000000000000000000000000000000000000 PUSH1 0x20 DUP3 ADD MSTORE POP JUMP JUMPDEST PUSH1 0x0 PUSH2 0x19BD PUSH1 0x2B DUP4 PUSH2 0x1950 JUMP JUMPDEST SWAP2 POP PUSH2 0x19C8 DUP3 PUSH2 0x1961 JUMP JUMPDEST PUSH1 0x40 DUP3 ADD SWAP1 POP SWAP2 SWAP1 POP JUMP JUMPDEST PUSH1 0x0 PUSH1 0x20 DUP3 ADD SWAP1 POP DUP2 DUP2 SUB PUSH1 0x0 DUP4 ADD MSTORE PUSH2 0x19EC DUP2 PUSH2 0x19B0 JUMP JUMPDEST SWAP1 POP SWAP2 SWAP1 POP JUMP JUMPDEST PUSH1 0x0 PUSH1 0x40 DUP3 ADD SWAP1 POP PUSH2 0x1A08 PUSH1 0x0 DUP4 ADD DUP6 PUSH2 0x17B9 JUMP JUMPDEST PUSH2 0x1A15 PUSH1 0x20 DUP4 ADD DUP5 PUSH2 0x184B JUMP JUMPDEST SWAP4 SWAP3 POP POP POP JUMP JUMPDEST PUSH1 0x0 DUP2 ISZERO ISZERO SWAP1 POP SWAP2 SWAP1 POP JUMP JUMPDEST PUSH2 0x1A31 DUP2 PUSH2 0x1A1C JUMP JUMPDEST DUP2 EQ PUSH2 0x1A3C JUMPI PUSH1 0x0 DUP1 REVERT JUMPDEST POP JUMP JUMPDEST PUSH1 0x0 DUP2 MLOAD SWAP1 POP PUSH2 0x1A4E DUP2 PUSH2 0x1A28 JUMP JUMPDEST SWAP3 SWAP2 POP POP JUMP JUMPDEST PUSH1 0x0 PUSH1 0x20 DUP3 DUP5 SUB SLT ISZERO PUSH2 0x1A6A JUMPI PUSH2 0x1A69 PUSH2 0x17E3 JUMP JUMPDEST JUMPDEST PUSH1 0x0 PUSH2 0x1A78 DUP5 DUP3 DUP6 ADD PUSH2 0x1A3F JUMP JUMPDEST SWAP2 POP POP SWAP3 SWAP2 POP POP JUMP JUMPDEST PUSH32 0x6661696C656420746F207472616E73666572206F757400000000000000000000 PUSH1 0x0 DUP3 ADD MSTORE POP JUMP JUMPDEST PUSH1 0x0 PUSH2 0x1AB7 PUSH1 0x16 DUP4 PUSH2 0x1950 JUMP JUMPDEST SWAP2 POP PUSH2 0x1AC2 DUP3 PUSH2 0x1A81 JUMP JUMPDEST PUSH1 0x20 DUP3 ADD SWAP1 POP SWAP2 SWAP1 POP JUMP JUMPDEST PUSH1 0x0 PUSH1 0x20 DUP3 ADD SWAP1 POP DUP2 DUP2 SUB PUSH1 0x0 DUP4 ADD MSTORE PUSH2 0x1AE6 DUP2 PUSH2 0x1AAA JUMP JUMPDEST SWAP1 POP SWAP2 SWAP1 POP JUMP JUMPDEST PUSH1 0x0 DUP2 MLOAD SWAP1 POP PUSH2 0x1AFC DUP2 PUSH2 0x17E8 JUMP JUMPDEST SWAP3 SWAP2 POP POP JUMP JUMPDEST PUSH1 0x0 PUSH1 0x20 DUP3 DUP5 SUB SLT ISZERO PUSH2 0x1B18 JUMPI PUSH2 0x1B17 PUSH2 0x17E3 JUMP JUMPDEST JUMPDEST PUSH1 0x0 PUSH2 0x1B26 DUP5 DUP3 DUP6 ADD PUSH2 0x1AED JUMP JUMPDEST SWAP2 POP POP SWAP3 SWAP2 POP POP JUMP JUMPDEST PUSH32 0x61636F756E7420646F6573206E6F74206861766520616273747261637420636F PUSH1 0x0 DUP3 ADD MSTORE PUSH32 0x6E74726163740000000000000000000000000000000000000000000000000000 PUSH1 0x20 DUP3 ADD MSTORE POP JUMP JUMPDEST PUSH1 0x0 PUSH2 0x1B8B PUSH1 0x26 DUP4 PUSH2 0x1950 JUMP JUMPDEST SWAP2 POP PUSH2 0x1B96 DUP3 PUSH2 0x1B2F JUMP JUMPDEST PUSH1 0x40 DUP3 ADD SWAP1 POP SWAP2 SWAP1 POP JUMP JUMPDEST PUSH1 0x0 PUSH1 0x20 DUP3 ADD SWAP1 POP DUP2 DUP2 SUB PUSH1 0x0 DUP4 ADD MSTORE PUSH2 0x1BBA DUP2 PUSH2 0x1B7E JUMP JUMPDEST SWAP1 POP SWAP2 SWAP1 POP JUMP JUMPDEST PUSH32 0x6578697374696E67206C6F616E20616D6F756E7420657863656564696E67204C PUSH1 0x0 DUP3 ADD MSTORE PUSH32 0x5456000000000000000000000000000000000000000000000000000000000000 PUSH1 0x20 DUP3 ADD MSTORE POP JUMP JUMPDEST PUSH1 0x0 PUSH2 0x1C1D PUSH1 0x22 DUP4 PUSH2 0x1950 JUMP JUMPDEST SWAP2 POP PUSH2 0x1C28 DUP3 PUSH2 0x1BC1 JUMP JUMPDEST PUSH1 0x40 DUP3 ADD SWAP1 POP SWAP2 SWAP1 POP JUMP JUMPDEST PUSH1 0x0 PUSH1 0x20 DUP3 ADD SWAP1 POP DUP2 DUP2 SUB PUSH1 0x0 DUP4 ADD MSTORE PUSH2 0x1C4C DUP2 PUSH2 0x1C10 JUMP JUMPDEST SWAP1 POP SWAP2 SWAP1 POP JUMP JUMPDEST PUSH32 0x4C545620646F6573206E6F7420737570706F7274206C6F616E20616D6F756E74 PUSH1 0x0 DUP3 ADD MSTORE POP JUMP JUMPDEST PUSH1 0x0 PUSH2 0x1C89 PUSH1 0x20 DUP4 PUSH2 0x1950 JUMP JUMPDEST SWAP2 POP PUSH2 0x1C94 DUP3 PUSH2 0x1C53 JUMP JUMPDEST PUSH1 0x20 DUP3 ADD SWAP1 POP SWAP2 SWAP1 POP JUMP JUMPDEST PUSH1 0x0 PUSH1 0x20 DUP3 ADD SWAP1 POP DUP2 DUP2 SUB PUSH1 0x0 DUP4 ADD MSTORE PUSH2 0x1CB8 DUP2 PUSH2 0x1C7C JUMP JUMPDEST SWAP1 POP SWAP2 SWAP1 POP JUMP JUMPDEST PUSH32 0x6C6F616E2074616B656E206C6573736572207468616E20706179696E6720616D PUSH1 0x0 DUP3 ADD MSTORE PUSH32 0x6F756E7400000000000000000000000000000000000000000000000000000000 PUSH1 0x20 DUP3 ADD MSTORE POP JUMP JUMPDEST PUSH1 0x0 PUSH2 0x1D1B PUSH1 0x24 DUP4 PUSH2 0x1950 JUMP JUMPDEST SWAP2 POP PUSH2 0x1D26 DUP3 PUSH2 0x1CBF JUMP JUMPDEST PUSH1 0x40 DUP3 ADD SWAP1 POP SWAP2 SWAP1 POP JUMP JUMPDEST PUSH1 0x0 PUSH1 0x20 DUP3 ADD SWAP1 POP DUP2 DUP2 SUB PUSH1 0x0 DUP4 ADD MSTORE PUSH2 0x1D4A DUP2 PUSH2 0x1D0E JUMP JUMPDEST SWAP1 POP SWAP2 SWAP1 POP JUMP JUMPDEST PUSH1 0x0 PUSH1 0x60 DUP3 ADD SWAP1 POP PUSH2 0x1D66 PUSH1 0x0 DUP4 ADD DUP7 PUSH2 0x17B9 JUMP JUMPDEST PUSH2 0x1D73 PUSH1 0x20 DUP4 ADD DUP6 PUSH2 0x17B9 JUMP JUMPDEST PUSH2 0x1D80 PUSH1 0x40 DUP4 ADD DUP5 PUSH2 0x184B JUMP JUMPDEST SWAP5 SWAP4 POP POP POP POP JUMP JUMPDEST PUSH32 0x6661696C656420746F207472616E7366657220696E0000000000000000000000 PUSH1 0x0 DUP3 ADD MSTORE POP JUMP JUMPDEST PUSH1 0x0 PUSH2 0x1DBE PUSH1 0x15 DUP4 PUSH2 0x1950 JUMP JUMPDEST SWAP2 POP PUSH2 0x1DC9 DUP3 PUSH2 0x1D88 JUMP JUMPDEST PUSH1 0x20 DUP3 ADD SWAP1 POP SWAP2 SWAP1 POP JUMP JUMPDEST PUSH1 0x0 PUSH1 0x20 DUP3 ADD SWAP1 POP DUP2 DUP2 SUB PUSH1 0x0 DUP4 ADD MSTORE PUSH2 0x1DED DUP2 PUSH2 0x1DB1 JUMP JUMPDEST SWAP1 POP SWAP2 SWAP1 POP JUMP JUMPDEST PUSH32 0x6F6E6C7920676F762063616E2063616C6C20746869732066756E6374696F6E00 PUSH1 0x0 DUP3 ADD MSTORE POP JUMP JUMPDEST PUSH1 0x0 PUSH2 0x1E2A PUSH1 0x1F DUP4 PUSH2 0x1950 JUMP JUMPDEST SWAP2 POP PUSH2 0x1E35 DUP3 PUSH2 0x1DF4 JUMP JUMPDEST PUSH1 0x20 DUP3 ADD SWAP1 POP SWAP2 SWAP1 POP JUMP JUMPDEST PUSH1 0x0 PUSH1 0x20 DUP3 ADD SWAP1 POP DUP2 DUP2 SUB PUSH1 0x0 DUP4 ADD MSTORE PUSH2 0x1E59 DUP2 PUSH2 0x1E1D JUMP JUMPDEST SWAP1 POP SWAP2 SWAP1 POP JUMP JUMPDEST PUSH32 0x4E487B7100000000000000000000000000000000000000000000000000000000 PUSH1 0x0 MSTORE PUSH1 0x11 PUSH1 0x4 MSTORE PUSH1 0x24 PUSH1 0x0 REVERT JUMPDEST PUSH1 0x0 PUSH2 0x1E9A DUP3 PUSH2 0x1841 JUMP JUMPDEST SWAP2 POP PUSH2 0x1EA5 DUP4 PUSH2 0x1841 JUMP JUMPDEST SWAP3 POP DUP3 DUP3 MUL PUSH2 0x1EB3 DUP2 PUSH2 0x1841 JUMP JUMPDEST SWAP2 POP DUP3 DUP3 DIV DUP5 EQ DUP4 ISZERO OR PUSH2 0x1ECA JUMPI PUSH2 0x1EC9 PUSH2 0x1E60 JUMP JUMPDEST JUMPDEST POP SWAP3 SWAP2 POP POP JUMP JUMPDEST PUSH32 0x4E487B7100000000000000000000000000000000000000000000000000000000 PUSH1 0x0 MSTORE PUSH1 0x12 PUSH1 0x4 MSTORE PUSH1 0x24 PUSH1 0x0 REVERT JUMPDEST PUSH1 0x0 PUSH2 0x1F0B DUP3 PUSH2 0x1841 JUMP JUMPDEST SWAP2 POP PUSH2 0x1F16 DUP4 PUSH2 0x1841 JUMP JUMPDEST SWAP3 POP DUP3 PUSH2 0x1F26 JUMPI PUSH2 0x1F25 PUSH2 0x1ED1 JUMP JUMPDEST JUMPDEST DUP3 DUP3 DIV SWAP1 POP SWAP3 SWAP2 POP POP JUMP JUMPDEST PUSH32 0x536166654D6174683A206D756C7469706C69636174696F6E206F766572666C6F PUSH1 0x0 DUP3 ADD MSTORE PUSH32 0x7700000000000000000000000000000000000000000000000000000000000000 PUSH1 0x20 DUP3 ADD MSTORE POP JUMP JUMPDEST PUSH1 0x0 PUSH2 0x1F8D PUSH1 0x21 DUP4 PUSH2 0x1950 JUMP JUMPDEST SWAP2 POP PUSH2 0x1F98 DUP3 PUSH2 0x1F31 JUMP JUMPDEST PUSH1 0x40 DUP3 ADD SWAP1 POP SWAP2 SWAP1 POP JUMP JUMPDEST PUSH1 0x0 PUSH1 0x20 DUP3 ADD SWAP1 POP DUP2 DUP2 SUB PUSH1 0x0 DUP4 ADD MSTORE PUSH2 0x1FBC DUP2 PUSH2 0x1F80 JUMP JUMPDEST SWAP1 POP SWAP2 SWAP1 POP JUMP JUMPDEST PUSH1 0x0 PUSH2 0x1FCE DUP3 PUSH2 0x1841 JUMP JUMPDEST SWAP2 POP PUSH2 0x1FD9 DUP4 PUSH2 0x1841 JUMP JUMPDEST SWAP3 POP DUP3 DUP3 ADD SWAP1 POP DUP1 DUP3 GT ISZERO PUSH2 0x1FF1 JUMPI PUSH2 0x1FF0 PUSH2 0x1E60 JUMP JUMPDEST JUMPDEST SWAP3 SWAP2 POP POP JUMP JUMPDEST PUSH32 0x536166654D6174683A206164646974696F6E206F766572666C6F770000000000 PUSH1 0x0 DUP3 ADD MSTORE POP JUMP JUMPDEST PUSH1 0x0 PUSH2 0x202D PUSH1 0x1B DUP4 PUSH2 0x1950 JUMP JUMPDEST SWAP2 POP PUSH2 0x2038 DUP3 PUSH2 0x1FF7 JUMP JUMPDEST PUSH1 0x20 DUP3 ADD SWAP1 POP SWAP2 SWAP1 POP JUMP JUMPDEST PUSH1 0x0 PUSH1 0x20 DUP3 ADD SWAP1 POP DUP2 DUP2 SUB PUSH1 0x0 DUP4 ADD MSTORE PUSH2 0x205C DUP2 PUSH2 0x2020 JUMP JUMPDEST SWAP1 POP SWAP2 SWAP1 POP JUMP JUMPDEST PUSH1 0x0 DUP2 MLOAD SWAP1 POP SWAP2 SWAP1 POP JUMP JUMPDEST PUSH1 0x0 JUMPDEST DUP4 DUP2 LT ISZERO PUSH2 0x208C JUMPI DUP1 DUP3 ADD MLOAD DUP2 DUP5 ADD MSTORE PUSH1 0x20 DUP2 ADD SWAP1 POP PUSH2 0x2071 JUMP JUMPDEST PUSH1 0x0 DUP5 DUP5 ADD MSTORE POP POP POP POP JUMP JUMPDEST PUSH1 0x0 PUSH1 0x1F NOT PUSH1 0x1F DUP4 ADD AND SWAP1 POP SWAP2 SWAP1 POP JUMP JUMPDEST PUSH1 0x0 PUSH2 0x20B4 DUP3 PUSH2 0x2063 JUMP JUMPDEST PUSH2 0x20BE DUP2 DUP6 PUSH2 0x1950 JUMP JUMPDEST SWAP4 POP PUSH2 0x20CE DUP2 DUP6 PUSH1 0x20 DUP7 ADD PUSH2 0x206E JUMP JUMPDEST PUSH2 0x20D7 DUP2 PUSH2 0x2098 JUMP JUMPDEST DUP5 ADD SWAP2 POP POP SWAP3 SWAP2 POP POP JUMP JUMPDEST PUSH1 0x0 PUSH1 0x20 DUP3 ADD SWAP1 POP DUP2 DUP2 SUB PUSH1 0x0 DUP4 ADD MSTORE PUSH2 0x20FC DUP2 DUP5 PUSH2 0x20A9 JUMP JUMPDEST SWAP1 POP SWAP3 SWAP2 POP POP JUMP JUMPDEST PUSH1 0x0 PUSH2 0x210F DUP3 PUSH2 0x1841 JUMP JUMPDEST SWAP2 POP PUSH2 0x211A DUP4 PUSH2 0x1841 JUMP JUMPDEST SWAP3 POP DUP3 DUP3 SUB SWAP1 POP DUP2 DUP2 GT ISZERO PUSH2 0x2132 JUMPI PUSH2 0x2131 PUSH2 0x1E60 JUMP JUMPDEST JUMPDEST SWAP3 SWAP2 POP POP JUMP INVALID LOG2 PUSH5 0x6970667358 0x22 SLT KECCAK256 0xCD 0xBD 0x4F 0xE4 0xB9 0xE3 0xB7 0xDB EXP 0x1E PUSH6 0xBE982ED2E7D1 0xA8 0xAF SWAP1 0xF6 STATICCALL SHR 0xD9 0xE7 SHR SWAP1 LOG0 PUSH15 0xBB784F64736F6C6343000811003300 "},"methodIdentifiers":{"BORROW_RATE_PRECISION()":"77f01edd","LTV()":"62965d8e","PRICE_PRECISION()":"95082d25","USDC_DECIMALS_DIVISOR()":"36bda883","amountLoanedByUser(address)":"794ef3e4","borrowInterval()":"261c1c52","borrowRateFactor()":"1a02d430","cumulativeBorrowRate()":"7b3820ce","entryBorrowRate(address)":"e10eb58c","existingLoanOnPortfolio(address)":"d04f246b","factoryContractAddress()":"732e0a1d","getNextBorrowRate()":"5e04b9f8","getReserve()":"59bf5d39","gov()":"12d43a51","interestToCollect(address)":"db1e4ff8","klpManagerAddress()":"9d0d42c7","lastBorrowTimes()":"645bc7ee","paybackLoan(uint256)":"d16ef22a","sendUsdcToLp(address,uint256)":"7c2bfdfb","setFactoryaContractAddress(address)":"0fef75c3","setKlpManagerAddress(address)":"ad993f97","setUsdcAddress(address)":"d38bcdee","takeLoanOnPosition(uint256)":"ca0cd00a","totalLiquidityProvided()":"dfed1348","totalLoanedAmount()":"819bd33c","updateCumulativeBorrowRate()":"b62b751d","usdcAddress()":"02d45457"}}}}}