{"contracts/AbstractPosition.sol":{"AbstractPosition":{"abi":[{"inputs":[{"internalType":"address","name":"_gov","type":"address"},{"internalType":"address","name":"_wethAddress","type":"address"},{"internalType":"address","name":"_lendingContractAddress","type":"address"},{"internalType":"address","name":"_ownerAddress","type":"address"},{"internalType":"address","name":"_positionRouterAddress","type":"address"},{"internalType":"address","name":"_routerAddress","type":"address"},{"internalType":"address","name":"_orderBookAddress","type":"address"},{"internalType":"address","name":"_vaultContractAddress","type":"address"}],"stateMutability":"nonpayable","type":"constructor"},{"inputs":[],"name":"BASIS_POINTS_DIVISOR","outputs":[{"internalType":"uint256","name":"","type":"uint256"}],"stateMutability":"view","type":"function"},{"inputs":[],"name":"L1","outputs":[{"internalType":"uint256","name":"","type":"uint256"}],"stateMutability":"view","type":"function"},{"inputs":[],"name":"L2","outputs":[{"internalType":"uint256","name":"","type":"uint256"}],"stateMutability":"view","type":"function"},{"inputs":[],"name":"MIN_DECREASE_HEALTH_FACTOR","outputs":[{"internalType":"uint256","name":"","type":"uint256"}],"stateMutability":"view","type":"function"},{"inputs":[],"name":"MIN_HEALTH_FACTOR","outputs":[{"internalType":"uint256","name":"","type":"uint256"}],"stateMutability":"view","type":"function"},{"inputs":[],"name":"automate","outputs":[{"internalType":"contract IAutomate","name":"","type":"address"}],"stateMutability":"view","type":"function"},{"inputs":[{"internalType":"address[]","name":"_path","type":"address[]"},{"internalType":"address","name":"_indexToken","type":"address"},{"internalType":"uint256","name":"_collateralDelta","type":"uint256"},{"internalType":"uint256","name":"_sizeDelta","type":"uint256"},{"internalType":"bool","name":"_isLong","type":"bool"},{"internalType":"address","name":"_receiver","type":"address"},{"internalType":"uint256","name":"_acceptablePrice","type":"uint256"},{"internalType":"uint256","name":"_minOut","type":"uint256"},{"internalType":"uint256","name":"_executionFee","type":"uint256"},{"internalType":"bool","name":"_withdrawETH","type":"bool"},{"internalType":"address","name":"_callbackTarget","type":"address"}],"name":"callCreateDecreasePosition","outputs":[{"internalType":"bool","name":"","type":"bool"}],"stateMutability":"payable","type":"function"},{"inputs":[{"internalType":"address[]","name":"_path","type":"address[]"},{"internalType":"address","name":"_indexToken","type":"address"},{"internalType":"uint256","name":"_amountIn","type":"uint256"},{"internalType":"uint256","name":"_minOut","type":"uint256"},{"internalType":"uint256","name":"_sizeDelta","type":"uint256"},{"internalType":"bool","name":"_isLong","type":"bool"},{"internalType":"uint256","name":"_acceptablePrice","type":"uint256"},{"internalType":"uint256","name":"_executionFee","type":"uint256"},{"internalType":"bytes32","name":"_referralCode","type":"bytes32"},{"internalType":"address","name":"_callbackTarget","type":"address"}],"name":"callCreateIncreasePosition","outputs":[{"internalType":"bytes32","name":"","type":"bytes32"}],"stateMutability":"payable","type":"function"},{"inputs":[{"internalType":"address[]","name":"_path","type":"address[]"},{"internalType":"address","name":"_indexToken","type":"address"},{"internalType":"uint256","name":"_minOut","type":"uint256"},{"internalType":"uint256","name":"_sizeDelta","type":"uint256"},{"internalType":"bool","name":"_isLong","type":"bool"},{"internalType":"uint256","name":"_acceptablePrice","type":"uint256"},{"internalType":"uint256","name":"_executionFee","type":"uint256"},{"internalType":"bytes32","name":"_referralCode","type":"bytes32"},{"internalType":"address","name":"_callbackTarget","type":"address"}],"name":"callCreateIncreasePositionETH","outputs":[{"internalType":"bytes32","name":"","type":"bytes32"}],"stateMutability":"payable","type":"function"},{"inputs":[],"name":"createTask","outputs":[],"stateMutability":"nonpayable","type":"function"},{"inputs":[],"name":"dedicatedMsgSender","outputs":[{"internalType":"address","name":"","type":"address"}],"stateMutability":"view","type":"function"},{"inputs":[],"name":"deposit","outputs":[],"stateMutability":"payable","type":"function"},{"inputs":[{"internalType":"bytes32","name":"_reqKey","type":"bytes32"}],"name":"executeDecreasePosition","outputs":[{"internalType":"bool","name":"","type":"bool"}],"stateMutability":"nonpayable","type":"function"},{"inputs":[{"internalType":"uint256","name":"","type":"uint256"}],"name":"existingPositionsData","outputs":[{"internalType":"address","name":"indexToken","type":"address"},{"internalType":"address","name":"collateralToken","type":"address"},{"internalType":"bool","name":"isLong","type":"bool"}],"stateMutability":"view","type":"function"},{"inputs":[],"name":"fundsOwner","outputs":[{"internalType":"address","name":"","type":"address"}],"stateMutability":"view","type":"function"},{"inputs":[],"name":"gellatoAutomateAddress","outputs":[{"internalType":"address","name":"","type":"address"}],"stateMutability":"view","type":"function"},{"inputs":[{"internalType":"address","name":"_indexToken","type":"address"},{"internalType":"uint256","name":"_size","type":"uint256"},{"internalType":"uint256","name":"_averagePrice","type":"uint256"},{"internalType":"bool","name":"_isLong","type":"bool"}],"name":"getDeltaWithMargin","outputs":[{"internalType":"bool","name":"","type":"bool"},{"internalType":"uint256","name":"","type":"uint256"}],"stateMutability":"view","type":"function"},{"inputs":[],"name":"getPortfolioValue","outputs":[{"internalType":"uint256","name":"","type":"uint256"}],"stateMutability":"view","type":"function"},{"inputs":[],"name":"getPortfolioValueWithMargin","outputs":[{"internalType":"uint256","name":"","type":"uint256"}],"stateMutability":"view","type":"function"},{"inputs":[{"internalType":"address","name":"_indexToken","type":"address"},{"internalType":"address","name":"_collateralToken","type":"address"},{"internalType":"bool","name":"_isLong","type":"bool"}],"name":"getPosition","outputs":[{"internalType":"uint256","name":"","type":"uint256"},{"internalType":"uint256","name":"","type":"uint256"},{"internalType":"uint256","name":"","type":"uint256"},{"internalType":"uint256","name":"","type":"uint256"},{"internalType":"uint256","name":"","type":"uint256"}],"stateMutability":"view","type":"function"},{"inputs":[{"internalType":"address","name":"_indexToken","type":"address"},{"internalType":"address","name":"_collateralToken","type":"address"},{"internalType":"bool","name":"_isLong","type":"bool"}],"name":"getPositionKey","outputs":[{"internalType":"bytes32","name":"","type":"bytes32"}],"stateMutability":"pure","type":"function"},{"inputs":[{"internalType":"address","name":"_indexToken","type":"address"},{"internalType":"bool","name":"_isLong","type":"bool"},{"internalType":"uint256","name":"_positionCollateral","type":"uint256"},{"internalType":"uint256","name":"_positionSize","type":"uint256"},{"internalType":"uint256","name":"_positionAveragePrice","type":"uint256"},{"internalType":"uint256","name":"_positionLastIncreasedTime","type":"uint256"}],"name":"getPositionValue","outputs":[{"internalType":"uint256","name":"","type":"uint256"}],"stateMutability":"view","type":"function"},{"inputs":[{"internalType":"address","name":"_indexToken","type":"address"},{"internalType":"address","name":"_collateralToken","type":"address"},{"internalType":"bool","name":"_isLong","type":"bool"},{"internalType":"uint256","name":"_positionCollateral","type":"uint256"},{"internalType":"uint256","name":"_positionSize","type":"uint256"},{"internalType":"uint256","name":"_positionAveragePrice","type":"uint256"},{"internalType":"uint256","name":"_positionEntryFundingRate","type":"uint256"}],"name":"getPositionValueWithMargin","outputs":[{"internalType":"uint256","name":"","type":"uint256"}],"stateMutability":"view","type":"function"},{"inputs":[],"name":"getPositions","outputs":[{"components":[{"internalType":"address","name":"indexToken","type":"address"},{"internalType":"address","name":"collateralToken","type":"address"},{"internalType":"bool","name":"isLong","type":"bool"}],"internalType":"struct AbstractPosition.PositionData[]","name":"","type":"tuple[]"}],"stateMutability":"view","type":"function"},{"inputs":[],"name":"gov","outputs":[{"internalType":"address","name":"","type":"address"}],"stateMutability":"view","type":"function"},{"inputs":[],"name":"lendingContractAddress","outputs":[{"internalType":"address","name":"","type":"address"}],"stateMutability":"view","type":"function"},{"inputs":[],"name":"liquidatePortfolio","outputs":[],"stateMutability":"nonpayable","type":"function"},{"inputs":[],"name":"minExecutionFee","outputs":[{"internalType":"uint256","name":"","type":"uint256"}],"stateMutability":"view","type":"function"},{"inputs":[],"name":"orderBookAddress","outputs":[{"internalType":"address","name":"","type":"address"}],"stateMutability":"view","type":"function"},{"inputs":[],"name":"ownerAddress","outputs":[{"internalType":"address","name":"","type":"address"}],"stateMutability":"view","type":"function"},{"inputs":[],"name":"portfolioHealthFactor","outputs":[{"internalType":"uint256","name":"","type":"uint256"}],"stateMutability":"view","type":"function"},{"inputs":[],"name":"positionRouterAddress","outputs":[{"internalType":"address","name":"","type":"address"}],"stateMutability":"view","type":"function"},{"inputs":[],"name":"routerAddress","outputs":[{"internalType":"address","name":"","type":"address"}],"stateMutability":"view","type":"function"},{"inputs":[{"internalType":"address","name":"_gellatoAutomateAddress","type":"address"}],"name":"setGellatoAutomateAddress","outputs":[],"stateMutability":"nonpayable","type":"function"},{"inputs":[{"internalType":"address","name":"_lendingContractAddress","type":"address"}],"name":"setLendingContractAddress","outputs":[],"stateMutability":"nonpayable","type":"function"},{"inputs":[{"internalType":"uint256","name":"_minExecutionFee","type":"uint256"}],"name":"setMinExecutionFee","outputs":[],"stateMutability":"nonpayable","type":"function"},{"inputs":[{"internalType":"address","name":"newAddress","type":"address"}],"name":"setPositionRouterAddress","outputs":[],"stateMutability":"nonpayable","type":"function"},{"inputs":[{"internalType":"address","name":"newAddress","type":"address"}],"name":"setRouterAddress","outputs":[],"stateMutability":"nonpayable","type":"function"},{"inputs":[{"internalType":"address","name":"_vaultContractAddress","type":"address"}],"name":"setVaultContractAddress","outputs":[],"stateMutability":"nonpayable","type":"function"},{"inputs":[{"internalType":"address","name":"_wethAddress","type":"address"}],"name":"setWethAddress","outputs":[],"stateMutability":"nonpayable","type":"function"},{"inputs":[],"name":"taskTreasury","outputs":[{"internalType":"contract ITaskTreasuryUpgradable","name":"","type":"address"}],"stateMutability":"view","type":"function"},{"inputs":[{"internalType":"address","name":"_indexToken","type":"address"},{"internalType":"address[]","name":"_path","type":"address[]"},{"internalType":"bool","name":"_isLong","type":"bool"}],"name":"validateDecreasePosition","outputs":[{"internalType":"bool","name":"","type":"bool"}],"stateMutability":"view","type":"function"},{"inputs":[],"name":"vaultContractAddress","outputs":[{"internalType":"address","name":"","type":"address"}],"stateMutability":"view","type":"function"},{"inputs":[],"name":"wethAddress","outputs":[{"internalType":"address","name":"","type":"address"}],"stateMutability":"view","type":"function"},{"inputs":[{"internalType":"uint256","name":"_amount","type":"uint256"},{"internalType":"address","name":"_token","type":"address"}],"name":"withdrawFunds","outputs":[],"stateMutability":"nonpayable","type":"function"}],"evm":{"bytecode":{"linkReferences":{},"object":"61012060405273b3f5503f93d5ef84b06993a1975b9d21b962892f6000806101000a81548173ffffffffffffffffffffffffffffffffffffffff021916908373ffffffffffffffffffffffffffffffffffffffff1602179055503480156200006657600080fd5b5060405162005c1338038062005c1383398181016040528101906200008c919062000647565b60008054906101000a900473ffffffffffffffffffffffffffffffffffffffff163081308173ffffffffffffffffffffffffffffffffffffffff1660808173ffffffffffffffffffffffffffffffffffffffff16815250508173ffffffffffffffffffffffffffffffffffffffff1663573ea5756040518163ffffffff1660e01b8152600401602060405180830381865afa15801562000130573d6000803e3d6000fd5b505050506040513d601f19601f8201168201806040525081019062000156919062000755565b73ffffffffffffffffffffffffffffffffffffffff1660c08173ffffffffffffffffffffffffffffffffffffffff168152505073b3f5503f93d5ef84b06993a1975b9d21b962892f73ffffffffffffffffffffffffffffffffffffffff1663ded89a7c826040518263ffffffff1660e01b8152600401620001d8919062000798565b6040805180830381865afa158015620001f5573d6000803e3d6000fd5b505050506040513d601f19601f820116820180604052508101906200021b9190620007f2565b508073ffffffffffffffffffffffffffffffffffffffff1660a09073ffffffffffffffffffffffffffffffffffffffff168152505050508073ffffffffffffffffffffffffffffffffffffffff1660e08173ffffffffffffffffffffffffffffffffffffffff168152505060805173ffffffffffffffffffffffffffffffffffffffff1663e60a32136040518163ffffffff1660e01b8152600401602060405180830381865afa158015620002d4573d6000803e3d6000fd5b505050506040513d601f19601f82011682018060405250810190620002fa91906200087e565b73ffffffffffffffffffffffffffffffffffffffff166101008173ffffffffffffffffffffffffffffffffffffffff1681525050505087600160006101000a81548173ffffffffffffffffffffffffffffffffffffffff021916908373ffffffffffffffffffffffffffffffffffffffff16021790555084600860006101000a81548173ffffffffffffffffffffffffffffffffffffffff021916908373ffffffffffffffffffffffffffffffffffffffff16021790555086600260006101000a81548173ffffffffffffffffffffffffffffffffffffffff021916908373ffffffffffffffffffffffffffffffffffffffff16021790555085600360006101000a81548173ffffffffffffffffffffffffffffffffffffffff021916908373ffffffffffffffffffffffffffffffffffffffff16021790555083600460006101000a81548173ffffffffffffffffffffffffffffffffffffffff021916908373ffffffffffffffffffffffffffffffffffffffff16021790555082600560006101000a81548173ffffffffffffffffffffffffffffffffffffffff021916908373ffffffffffffffffffffffffffffffffffffffff16021790555081600660006101000a81548173ffffffffffffffffffffffffffffffffffffffff021916908373ffffffffffffffffffffffffffffffffffffffff16021790555080600760006101000a81548173ffffffffffffffffffffffffffffffffffffffff021916908373ffffffffffffffffffffffffffffffffffffffff16021790555060008390508073ffffffffffffffffffffffffffffffffffffffff166338c74dd9600460009054906101000a900473ffffffffffffffffffffffffffffffffffffffff166040518263ffffffff1660e01b81526004016200059a919062000798565b600060405180830381600087803b158015620005b557600080fd5b505af1158015620005ca573d6000803e3d6000fd5b50505050505050505050505050620008b0565b600080fd5b600073ffffffffffffffffffffffffffffffffffffffff82169050919050565b60006200060f82620005e2565b9050919050565b620006218162000602565b81146200062d57600080fd5b50565b600081519050620006418162000616565b92915050565b600080600080600080600080610100898b0312156200066b576200066a620005dd565b5b60006200067b8b828c0162000630565b98505060206200068e8b828c0162000630565b9750506040620006a18b828c0162000630565b9650506060620006b48b828c0162000630565b9550506080620006c78b828c0162000630565b94505060a0620006da8b828c0162000630565b93505060c0620006ed8b828c0162000630565b92505060e0620007008b828c0162000630565b9150509295985092959890939650565b60006200071d82620005e2565b9050919050565b6200072f8162000710565b81146200073b57600080fd5b50565b6000815190506200074f8162000724565b92915050565b6000602082840312156200076e576200076d620005dd565b5b60006200077e848285016200073e565b91505092915050565b620007928162000602565b82525050565b6000602082019050620007af600083018462000787565b92915050565b60008115159050919050565b620007cc81620007b5565b8114620007d857600080fd5b50565b600081519050620007ec81620007c1565b92915050565b600080604083850312156200080c576200080b620005dd565b5b60006200081c8582860162000630565b92505060206200082f85828601620007db565b9150509250929050565b6000620008468262000602565b9050919050565b620008588162000839565b81146200086457600080fd5b50565b60008151905062000878816200084d565b92915050565b600060208284031215620008975762000896620005dd565b5b6000620008a78482850162000867565b91505092915050565b60805160a05160c05160e051610100516153056200090e600039600081816116b401526127cc015260008181610f1c0152818161162601526116f00152600050506000610b2c015260008181610a55015261313c01526153056000f3fe6080604052600436106102725760003560e01c8063871105cc1161014f578063bb0498de116100c1578063e60a32131161007a578063e60a32131461091b578063e9f4454d14610946578063ef630b3c14610985578063f8388225146109c2578063fc2cee62146109ff578063ffb991b014610a2857610272565b8063bb0498de14610815578063c019bf5e14610840578063ca2fc17c1461087d578063d0e30db0146108bb578063d422b00f146108c5578063d571e21c146108f057610272565b8063a0f1403411610113578063a0f1403414610726578063a74764931461074f578063a92ea0e014610766578063a96e242314610791578063af3ed347146107ba578063b5627e42146107ea57610272565b8063871105cc146106365780638c1395f81461065f5780638f84aa09146106a0578063937a0e4e146106cb5780639409d870146106fb57610272565b806346ee3c59116101e85780636e3990fc116101ac5780636e3990fc14610531578063725ba052146105615780637379dbe61461058c578063744bfe61146105b75780637809baaf146105e0578063802758601461060b57610272565b806346ee3c591461045c5780634f0e0ef314610487578063584edf10146104b257806363ae2103146104c9578063694c1cbc146104f457610272565b8063238e270a1161023a578063238e270a1461034c57806328f150eb146103895780633268cc56146103b457806337106770146103df5780633ba32df41461040857806341cb87fc1461043357610272565b8063049aacfe14610277578063081752bb146102a2578063126082cf146102cd57806312d43a51146102f857806313f2d12814610323575b600080fd5b34801561028357600080fd5b5061028c610a53565b6040516102999190613473565b60405180910390f35b3480156102ae57600080fd5b506102b7610a77565b6040516102c491906134a7565b60405180910390f35b3480156102d957600080fd5b506102e2610a7c565b6040516102ef91906134a7565b60405180910390f35b34801561030457600080fd5b5061030d610a82565b60405161031a91906134e3565b60405180910390f35b34801561032f57600080fd5b5061034a6004803603810190610345919061353e565b610aa8565b005b34801561035857600080fd5b50610373600480360381019061036e91906135a3565b610af4565b604051610380919061360f565b60405180910390f35b34801561039557600080fd5b5061039e610b2a565b6040516103ab91906134e3565b60405180910390f35b3480156103c057600080fd5b506103c9610b4e565b6040516103d691906134e3565b60405180910390f35b3480156103eb57600080fd5b506104066004803603810190610401919061353e565b610b74565b005b34801561041457600080fd5b5061041d610bbf565b60405161042a91906134a7565b60405180910390f35b34801561043f57600080fd5b5061045a6004803603810190610455919061353e565b610ece565b005b34801561046857600080fd5b50610471610f1a565b60405161047e91906134e3565b60405180910390f35b34801561049357600080fd5b5061049c610f3e565b6040516104a991906134e3565b60405180910390f35b3480156104be57600080fd5b506104c7610f64565b005b3480156104d557600080fd5b506104de611391565b6040516104eb91906134a7565b60405180910390f35b34801561050057600080fd5b5061051b60048036038101906105169190613656565b611397565b60405161052891906134a7565b60405180910390f35b61054b60048036038101906105469190613868565b611497565b604051610558919061360f565b60405180910390f35b34801561056d57600080fd5b506105766115f8565b60405161058391906134a7565b60405180910390f35b34801561059857600080fd5b506105a16115fe565b6040516105ae91906134e3565b60405180910390f35b3480156105c357600080fd5b506105de60048036038101906105d9919061394e565b611624565b005b3480156105ec57600080fd5b506105f5611765565b60405161060291906134a7565b60405180910390f35b34801561061757600080fd5b5061062061176a565b60405161062d9190613a9d565b60405180910390f35b34801561064257600080fd5b5061065d6004803603810190610658919061353e565b611890565b005b34801561066b57600080fd5b50610686600480360381019061068191906135a3565b6118dc565b604051610697959493929190613abf565b60405180910390f35b3480156106ac57600080fd5b506106b56119f4565b6040516106c291906134e3565b60405180910390f35b6106e560048036038101906106e09190613b12565b611a1a565b6040516106f29190613c31565b60405180910390f35b34801561070757600080fd5b50610710611bb4565b60405161071d91906134e3565b60405180910390f35b34801561073257600080fd5b5061074d6004803603810190610748919061353e565b611bda565b005b34801561075b57600080fd5b50610764611c26565b005b34801561077257600080fd5b5061077b611dcb565b60405161078891906134e3565b60405180910390f35b34801561079d57600080fd5b506107b860048036038101906107b3919061353e565b611df1565b005b6107d460048036038101906107cf9190613c4c565b611e3d565b6040516107e1919061360f565b60405180910390f35b3480156107f657600080fd5b506107ff612175565b60405161080c91906134a7565b60405180910390f35b34801561082157600080fd5b5061082a61217b565b60405161083791906134a7565b60405180910390f35b34801561084c57600080fd5b5061086760048036038101906108629190613d47565b612323565b60405161087491906134a7565b60405180910390f35b34801561088957600080fd5b506108a4600480360381019061089f9190613de9565b6124f0565b6040516108b2929190613e50565b60405180910390f35b6108c361277e565b005b3480156108d157600080fd5b506108da612780565b6040516108e791906134e3565b60405180910390f35b3480156108fc57600080fd5b506109056127a6565b60405161091291906134e3565b60405180910390f35b34801561092757600080fd5b506109306127ca565b60405161093d9190613e9a565b60405180910390f35b34801561095257600080fd5b5061096d60048036038101906109689190613eb5565b6127ee565b60405161097c93929190613ee2565b60405180910390f35b34801561099157600080fd5b506109ac60048036038101906109a79190613f19565b612875565b6040516109b99190613c31565b60405180910390f35b3480156109ce57600080fd5b506109e960048036038101906109e49190613f46565b61291e565b6040516109f69190613c31565b60405180910390f35b348015610a0b57600080fd5b50610a266004803603810190610a219190613eb5565b612ac5565b005b348015610a3457600080fd5b50610a3d612ad7565b604051610a4a91906134a7565b60405180910390f35b7f000000000000000000000000000000000000000000000000000000000000000081565b606481565b61271081565b600160009054906101000a900473ffffffffffffffffffffffffffffffffffffffff1681565b610ab0612be8565b80600360006101000a81548173ffffffffffffffffffffffffffffffffffffffff021916908373ffffffffffffffffffffffffffffffffffffffff16021790555050565b6000838383604051602001610b0b93929190614045565b6040516020818303038152906040528051906020012090509392505050565b7f000000000000000000000000000000000000000000000000000000000000000081565b600560009054906101000a900473ffffffffffffffffffffffffffffffffffffffff1681565b610b7c612be8565b806000806101000a81548173ffffffffffffffffffffffffffffffffffffffff021916908373ffffffffffffffffffffffffffffffffffffffff16021790555050565b600080600090506000805b600b80549050811015610db457600080600080610ca4600b8681548110610bf457610bf3614082565b5b906000526020600020906002020160000160009054906101000a900473ffffffffffffffffffffffffffffffffffffffff16600b8781548110610c3a57610c39614082565b5b906000526020600020906002020160010160009054906101000a900473ffffffffffffffffffffffffffffffffffffffff16600b8881548110610c8057610c7f614082565b5b906000526020600020906002020160010160149054906101000a900460ff166118dc565b5093509350935093506000831115610d9d57610d81600b8681548110610ccd57610ccc614082565b5b906000526020600020906002020160000160009054906101000a900473ffffffffffffffffffffffffffffffffffffffff16600b8781548110610d1357610d12614082565b5b906000526020600020906002020160010160009054906101000a900473ffffffffffffffffffffffffffffffffffffffff16600b8881548110610d5957610d58614082565b5b906000526020600020906002020160010160149054906101000a900460ff1686888787612323565b87610d8c91906140e0565b96508386610d9a91906140e0565b95505b505050508080610dac90614114565b915050610bca565b506000600360009054906101000a900473ffffffffffffffffffffffffffffffffffffffff1673ffffffffffffffffffffffffffffffffffffffff1663db1e4ff8600860009054906101000a900473ffffffffffffffffffffffffffffffffffffffff166040518263ffffffff1660e01b8152600401610e3491906134e3565b602060405180830381865afa158015610e51573d6000803e3d6000fd5b505050506040513d601f19601f82011682018060405250810190610e759190614171565b9050610ec381610eb5610ea6612710610e98606488612c7a90919063ffffffff16565b612cf490919063ffffffff16565b86612d3e90919063ffffffff16565b612d3e90919063ffffffff16565b925082935050505090565b610ed6612be8565b80600560006101000a81548173ffffffffffffffffffffffffffffffffffffffff021916908373ffffffffffffffffffffffffffffffffffffffff16021790555050565b7f000000000000000000000000000000000000000000000000000000000000000081565b600260009054906101000a900473ffffffffffffffffffffffffffffffffffffffff1681565b6000610f6e612ad7565b90506127108110610fb4576040517f08c379a0000000000000000000000000000000000000000000000000000000008152600401610fab906141fb565b60405180910390fd5b60005b600b8054905081101561138d57600080600080611091600b8681548110610fe157610fe0614082565b5b906000526020600020906002020160000160009054906101000a900473ffffffffffffffffffffffffffffffffffffffff16600b878154811061102757611026614082565b5b906000526020600020906002020160010160009054906101000a900473ffffffffffffffffffffffffffffffffffffffff16600b888154811061106d5761106c614082565b5b906000526020600020906002020160010160149054906101000a900460ff166118dc565b5093509350935093506000831115611376576000611170600b87815481106110bc576110bb614082565b5b906000526020600020906002020160000160009054906101000a900473ffffffffffffffffffffffffffffffffffffffff16600b888154811061110257611101614082565b5b906000526020600020906002020160010160009054906101000a900473ffffffffffffffffffffffffffffffffffffffff16600b898154811061114857611147614082565b5b906000526020600020906002020160010160149054906101000a900460ff1687898888612323565b90506000600b878154811061118857611187614082565b5b906000526020600020906002020160010160149054906101000a900460ff166112a45761129f6002600760009054906101000a900473ffffffffffffffffffffffffffffffffffffffff1673ffffffffffffffffffffffffffffffffffffffff1663e124e6d2600b8b8154811061120257611201614082565b5b906000526020600020906002020160000160009054906101000a900473ffffffffffffffffffffffffffffffffffffffff166040518263ffffffff1660e01b815260040161125091906134e3565b602060405180830381865afa15801561126d573d6000803e3d6000fd5b505050506040513d601f19601f820116820180604052508101906112919190614171565b612c7a90919063ffffffff16565b6112a7565b60005b9050611373600b88815481106112c0576112bf614082565b5b906000526020600020906002020160000160009054906101000a900473ffffffffffffffffffffffffffffffffffffffff16600b898154811061130657611305614082565b5b906000526020600020906002020160010160009054906101000a900473ffffffffffffffffffffffffffffffffffffffff16600b8a8154811061134c5761134b614082565b5b906000526020600020906002020160010160149054906101000a900460ff16898686612d88565b50505b50505050808061138590614114565b915050610fb7565b5050565b60095481565b60008085036113a9576000905061148d565b600080600760009054906101000a900473ffffffffffffffffffffffffffffffffffffffff1673ffffffffffffffffffffffffffffffffffffffff16635c07eaab8a88888c896040518663ffffffff1660e01b815260040161140f95949392919061421b565b6040805180830381865afa15801561142b573d6000803e3d6000fd5b505050506040513d601f19601f8201168201806040525081019061144f9190614283565b9150915081156114755761146c8188612e1890919063ffffffff16565b9250505061148d565b6114888188612d3e90919063ffffffff16565b925050505b9695505050505050565b6000600860009054906101000a900473ffffffffffffffffffffffffffffffffffffffff1673ffffffffffffffffffffffffffffffffffffffff163373ffffffffffffffffffffffffffffffffffffffff1614611529576040517f08c379a000000000000000000000000000000000000000000000000000000000815260040161152090614335565b60405180910390fd5b6115348a8a88612e76565b6000600460009054906101000a900473ffffffffffffffffffffffffffffffffffffffff1690508073ffffffffffffffffffffffffffffffffffffffff16635b88e8c6348d8d8d8d8d8d8d8d8d6040518b63ffffffff1660e01b81526004016115a599989796959493929190614404565b60206040518083038185885af11580156115c3573d6000803e3d6000fd5b50505050506040513d601f19601f820116820180604052508101906115e891906144ad565b9150509998505050505050505050565b612af881565b600360009054906101000a900473ffffffffffffffffffffffffffffffffffffffff1681565b7f000000000000000000000000000000000000000000000000000000000000000073ffffffffffffffffffffffffffffffffffffffff163373ffffffffffffffffffffffffffffffffffffffff16146116b2576040517f08c379a00000000000000000000000000000000000000000000000000000000081526004016116a99061454c565b60405180910390fd5b7f000000000000000000000000000000000000000000000000000000000000000073ffffffffffffffffffffffffffffffffffffffff16631c20fadd7f000000000000000000000000000000000000000000000000000000000000000083856040518463ffffffff1660e01b815260040161172f9392919061458d565b600060405180830381600087803b15801561174957600080fd5b505af115801561175d573d6000803e3d6000fd5b505050505050565b606481565b6060600b805480602002602001604051908101604052809291908181526020016000905b8282101561188757838290600052602060002090600202016040518060600160405290816000820160009054906101000a900473ffffffffffffffffffffffffffffffffffffffff1673ffffffffffffffffffffffffffffffffffffffff1673ffffffffffffffffffffffffffffffffffffffff1681526020016001820160009054906101000a900473ffffffffffffffffffffffffffffffffffffffff1673ffffffffffffffffffffffffffffffffffffffff1673ffffffffffffffffffffffffffffffffffffffff1681526020016001820160149054906101000a900460ff1615151515815250508152602001906001019061178e565b50505050905090565b611898612be8565b80600760006101000a81548173ffffffffffffffffffffffffffffffffffffffff021916908373ffffffffffffffffffffffffffffffffffffffff16021790555050565b60008060008060006118ec6133af565b600760009054906101000a900473ffffffffffffffffffffffffffffffffffffffff1673ffffffffffffffffffffffffffffffffffffffff16634a3f088d308a8c8b6040518563ffffffff1660e01b815260040161194d94939291906145c4565b61010060405180830381865afa15801561196b573d6000803e3d6000fd5b505050506040513d601f19601f8201168201806040525081019061198f9190614609565b909192509091509050856000018660200187604001886060018960c0018581525085815250858152508581525085815250505050505080600001518160200151826040015183606001518460c001519550955095509550955050939792965093509350565b600860009054906101000a900473ffffffffffffffffffffffffffffffffffffffff1681565b6000600860009054906101000a900473ffffffffffffffffffffffffffffffffffffffff1673ffffffffffffffffffffffffffffffffffffffff163373ffffffffffffffffffffffffffffffffffffffff161480611ac55750600360009054906101000a900473ffffffffffffffffffffffffffffffffffffffff1673ffffffffffffffffffffffffffffffffffffffff163373ffffffffffffffffffffffffffffffffffffffff16145b611b04576040517f08c379a0000000000000000000000000000000000000000000000000000000008152600401611afb90614731565b60405180910390fd5b833414611b46576040517f08c379a0000000000000000000000000000000000000000000000000000000008152600401611b3d9061479d565b60405180910390fd5b611b518b8d8a61291e565b611b90576040517f08c379a0000000000000000000000000000000000000000000000000000000008152600401611b879061482f565b60405180910390fd5b611ba38c8c8c8c8c8c8c8c8c8c8c613039565b90509b9a5050505050505050505050565b600660009054906101000a900473ffffffffffffffffffffffffffffffffffffffff1681565b611be2612be8565b80600460006101000a81548173ffffffffffffffffffffffffffffffffffffffff021916908373ffffffffffffffffffffffffffffffffffffffff16021790555050565b60003073ffffffffffffffffffffffffffffffffffffffff1663584edf10604051602401604051602081830303815290604052915060e01b6020820180517bffffffffffffffffffffffffffffffffffffffffffffffffffffffff8381831617835250505050905060006040518060400160405280600167ffffffffffffffff811115611cb657611cb56136f9565b5b604051908082528060200260200182016040528015611ce45781602001602082028036833780820191505090505b508152602001600167ffffffffffffffff811115611d0557611d046136f9565b5b604051908082528060200260200182016040528015611d3857816020015b6060815260200190600190039081611d235790505b50815250905060018160000151600081518110611d5857611d57614082565b5b60200260200101906003811115611d7257611d7161484f565b5b90816003811115611d8657611d8561484f565b5b81525050611d966000600161310c565b8160200151600081518110611dae57611dad614082565b5b6020026020010181905250611dc63083836000613138565b505050565b600760009054906101000a900473ffffffffffffffffffffffffffffffffffffffff1681565b611df9612be8565b80600260006101000a81548173ffffffffffffffffffffffffffffffffffffffff021916908373ffffffffffffffffffffffffffffffffffffffff16021790555050565b6000600860009054906101000a900473ffffffffffffffffffffffffffffffffffffffff1673ffffffffffffffffffffffffffffffffffffffff163373ffffffffffffffffffffffffffffffffffffffff1614611ecf576040517f08c379a0000000000000000000000000000000000000000000000000000000008152600401611ec690614335565b60405180910390fd5b611eda8b8b88612e76565b8a600081518110611eee57611eed614082565b5b602002602001015173ffffffffffffffffffffffffffffffffffffffff166323b872dd33308c6040518463ffffffff1660e01b8152600401611f329392919061487e565b6020604051808303816000875af1158015611f51573d6000803e3d6000fd5b505050506040513d601f19601f82011682018060405250810190611f7591906148b5565b611fb4576040517f08c379a0000000000000000000000000000000000000000000000000000000008152600401611fab9061492e565b60405180910390fd5b8a600081518110611fc857611fc7614082565b5b602002602001015173ffffffffffffffffffffffffffffffffffffffff1663095ea7b3600560009054906101000a900473ffffffffffffffffffffffffffffffffffffffff168b6040518363ffffffff1660e01b815260040161202c92919061494e565b6020604051808303816000875af115801561204b573d6000803e3d6000fd5b505050506040513d601f19601f8201168201806040525081019061206f91906148b5565b6120ae576040517f08c379a00000000000000000000000000000000000000000000000000000000081526004016120a5906149e9565b60405180910390fd5b6000600460009054906101000a900473ffffffffffffffffffffffffffffffffffffffff1690508073ffffffffffffffffffffffffffffffffffffffff1663f2ae372f348e8e8e8e8e8e8e8e8e8e6040518c63ffffffff1660e01b81526004016121219a99989796959493929190614a09565b60206040518083038185885af115801561213f573d6000803e3d6000fd5b50505050506040513d601f19601f8201168201806040525081019061216491906144ad565b9150509a9950505050505050505050565b61271081565b6000806000905060005b600b8054905081101561231b5760008060008061225f600b86815481106121af576121ae614082565b5b906000526020600020906002020160000160009054906101000a900473ffffffffffffffffffffffffffffffffffffffff16600b87815481106121f5576121f4614082565b5b906000526020600020906002020160010160009054906101000a900473ffffffffffffffffffffffffffffffffffffffff16600b888154811061223b5761223a614082565b5b906000526020600020906002020160010160149054906101000a900460ff166118dc565b9450509350935093506000831115612304576122f6600b868154811061228857612287614082565b5b906000526020600020906002020160000160009054906101000a900473ffffffffffffffffffffffffffffffffffffffff16600b87815481106122ce576122cd614082565b5b906000526020600020906002020160010160149054906101000a900460ff1685878686611397565b8661230191906140e0565b95505b50505050808061231390614114565b915050612185565b508091505090565b60008060006123348a87878b6124f0565b915091506000600760009054906101000a900473ffffffffffffffffffffffffffffffffffffffff1673ffffffffffffffffffffffffffffffffffffffff1663cc5b81448b89886040518463ffffffff1660e01b815260040161239993929190614aac565b602060405180830381865afa1580156123b6573d6000803e3d6000fd5b505050506040513d601f19601f820116820180604052508101906123da9190614171565b9050600760009054906101000a900473ffffffffffffffffffffffffffffffffffffffff1673ffffffffffffffffffffffffffffffffffffffff166317bbf25c886040518263ffffffff1660e01b815260040161243791906134a7565b602060405180830381865afa158015612454573d6000803e3d6000fd5b505050506040513d601f19601f820116820180604052508101906124789190614171565b8161248391906140e0565b905082156124ba576124b0816124a2848b612e1890919063ffffffff16565b612d3e90919063ffffffff16565b93505050506124e5565b6124df816124d1848b612d3e90919063ffffffff16565b612d3e90919063ffffffff16565b93505050505b979650505050505050565b60008060008411612536576040517f08c379a000000000000000000000000000000000000000000000000000000000815260040161252d90614b55565b60405180910390fd5b6000836126195761261461271061260661255c6064612710612e1890919063ffffffff16565b600760009054906101000a900473ffffffffffffffffffffffffffffffffffffffff1673ffffffffffffffffffffffffffffffffffffffff1663e124e6d28c6040518263ffffffff1660e01b81526004016125b791906134e3565b602060405180830381865afa1580156125d4573d6000803e3d6000fd5b505050506040513d601f19601f820116820180604052508101906125f89190614171565b612c7a90919063ffffffff16565b612cf490919063ffffffff16565b6126f1565b6126f06127106126e26126386064612710612d3e90919063ffffffff16565b600760009054906101000a900473ffffffffffffffffffffffffffffffffffffffff1673ffffffffffffffffffffffffffffffffffffffff166381a612d68c6040518263ffffffff1660e01b815260040161269391906134e3565b602060405180830381865afa1580156126b0573d6000803e3d6000fd5b505050506040513d601f19601f820116820180604052508101906126d49190614171565b612c7a90919063ffffffff16565b612cf490919063ffffffff16565b5b905060008186116127145761270f8683612d3e90919063ffffffff16565b612728565b6127278287612d3e90919063ffffffff16565b5b9050600061275187612743848b612c7a90919063ffffffff16565b612cf490919063ffffffff16565b90506000861561276557878411905061276b565b83881190505b8082955095505050505094509492505050565b565b600460009054906101000a900473ffffffffffffffffffffffffffffffffffffffff1681565b60008054906101000a900473ffffffffffffffffffffffffffffffffffffffff1681565b7f000000000000000000000000000000000000000000000000000000000000000081565b600b81815481106127fe57600080fd5b90600052602060002090600202016000915090508060000160009054906101000a900473ffffffffffffffffffffffffffffffffffffffff16908060010160009054906101000a900473ffffffffffffffffffffffffffffffffffffffff16908060010160149054906101000a900460ff16905083565b6000600460009054906101000a900473ffffffffffffffffffffffffffffffffffffffff1673ffffffffffffffffffffffffffffffffffffffff16630d4d003d83306040518363ffffffff1660e01b81526004016128d4929190614b75565b6020604051808303816000875af11580156128f3573d6000803e3d6000fd5b505050506040513d601f19601f8201168201806040525081019061291791906148b5565b9050919050565b600080600360009054906101000a900473ffffffffffffffffffffffffffffffffffffffff1673ffffffffffffffffffffffffffffffffffffffff1663d04f246b600860009054906101000a900473ffffffffffffffffffffffffffffffffffffffff166040518263ffffffff1660e01b815260040161299e91906134e3565b602060405180830381865afa1580156129bb573d6000803e3d6000fd5b505050506040513d601f19601f820116820180604052508101906129df9190614171565b9050600081036129f3576001915050612abe565b600080600080612a328989612a1360018c51612d3e90919063ffffffff16565b81518110612a2457612a23614082565b5b6020026020010151896118dc565b9450509350935093506000612a45610bbf565b90506000612a578b8a87898888611397565b905080821015612a71576000975050505050505050612abe565b6000612aac88612a9e612710612a908688612d3e90919063ffffffff16565b612c7a90919063ffffffff16565b612cf490919063ffffffff16565b9050612af88111985050505050505050505b9392505050565b612acd612be8565b8060098190555050565b600080600360009054906101000a900473ffffffffffffffffffffffffffffffffffffffff1673ffffffffffffffffffffffffffffffffffffffff1663d04f246b600860009054906101000a900473ffffffffffffffffffffffffffffffffffffffff166040518263ffffffff1660e01b8152600401612b5791906134e3565b602060405180830381865afa158015612b74573d6000803e3d6000fd5b505050506040513d601f19601f82011682018060405250810190612b989190614171565b90506000612ba4610bbf565b905060008203612bb957600092505050612be5565b612be082612bd261271084612c7a90919063ffffffff16565b612cf490919063ffffffff16565b925050505b90565b600160009054906101000a900473ffffffffffffffffffffffffffffffffffffffff1673ffffffffffffffffffffffffffffffffffffffff163373ffffffffffffffffffffffffffffffffffffffff1614612c78576040517f08c379a0000000000000000000000000000000000000000000000000000000008152600401612c6f90614bea565b60405180910390fd5b565b6000808303612c8c5760009050612cee565b60008284612c9a9190614c0a565b9050828482612ca99190614c7b565b14612ce9576040517f08c379a0000000000000000000000000000000000000000000000000000000008152600401612ce090614d1e565b60405180910390fd5b809150505b92915050565b6000612d3683836040518060400160405280601a81526020017f536166654d6174683a206469766973696f6e206279207a65726f0000000000008152506131e6565b905092915050565b6000612d8083836040518060400160405280601e81526020017f536166654d6174683a207375627472616374696f6e206f766572666c6f770000815250613249565b905092915050565b612dd1612d94866132ad565b87848688600360009054906101000a900473ffffffffffffffffffffffffffffffffffffffff16876000600954612dca8f613355565b6000613039565b612e10576040517f08c379a0000000000000000000000000000000000000000000000000000000008152600401612e0790614d8a565b60405180910390fd5b505050505050565b6000808284612e2791906140e0565b905083811015612e6c576040517f08c379a0000000000000000000000000000000000000000000000000000000008152600401612e6390614df6565b60405180910390fd5b8091505092915050565b600083612e8e60018651612d3e90919063ffffffff16565b81518110612e9f57612e9e614082565b5b60200260200101519050600a6000612eb8858486610af4565b815260200190815260200160002060009054906101000a900460ff1661303357600b60405180606001604052808573ffffffffffffffffffffffffffffffffffffffff1681526020018373ffffffffffffffffffffffffffffffffffffffff168152602001841515815250908060018154018082558091505060019003906000526020600020906002020160009091909190915060008201518160000160006101000a81548173ffffffffffffffffffffffffffffffffffffffff021916908373ffffffffffffffffffffffffffffffffffffffff16021790555060208201518160010160006101000a81548173ffffffffffffffffffffffffffffffffffffffff021916908373ffffffffffffffffffffffffffffffffffffffff16021790555060408201518160010160146101000a81548160ff02191690831515021790555050506001600a600061300d868587610af4565b815260200190815260200160002060006101000a81548160ff0219169083151502179055505b50505050565b600080600460009054906101000a900473ffffffffffffffffffffffffffffffffffffffff1673ffffffffffffffffffffffffffffffffffffffff16637be7d141348f8f8f8f8f8f8f8f8f8f8f6040518d63ffffffff1660e01b81526004016130ac9b9a99989796959493929190614e16565b60206040518083038185885af11580156130ca573d6000803e3d6000fd5b50505050506040513d601f19601f820116820180604052508101906130ef91906144ad565b90506130fa81612875565b9150509b9a5050505050505050505050565b60608282604051602001613121929190614ef3565b604051602081830303815290604052905092915050565b60007f000000000000000000000000000000000000000000000000000000000000000073ffffffffffffffffffffffffffffffffffffffff16633323b467868686866040518563ffffffff1660e01b815260040161319994939291906151e2565b6020604051808303816000875af11580156131b8573d6000803e3d6000fd5b505050506040513d601f19601f820116820180604052508101906131dc91906144ad565b9050949350505050565b6000808311829061322d576040517f08c379a00000000000000000000000000000000000000000000000000000000081526004016132249190615279565b60405180910390fd5b506000838561323c9190614c7b565b9050809150509392505050565b6000838311158290613291576040517f08c379a00000000000000000000000000000000000000000000000000000000081526004016132889190615279565b60405180910390fd5b50600083856132a0919061529b565b9050809150509392505050565b60606000600167ffffffffffffffff8111156132cc576132cb6136f9565b5b6040519080825280602002602001820160405280156132fa5781602001602082028036833780820191505090505b509050828160008151811061331257613311614082565b5b602002602001019073ffffffffffffffffffffffffffffffffffffffff16908173ffffffffffffffffffffffffffffffffffffffff168152505080915050919050565b6000600260009054906101000a900473ffffffffffffffffffffffffffffffffffffffff1673ffffffffffffffffffffffffffffffffffffffff168273ffffffffffffffffffffffffffffffffffffffff16149050919050565b60405180610100016040528060008152602001600081526020016000815260200160008152602001600081526020016000815260200160008152602001600081525090565b600073ffffffffffffffffffffffffffffffffffffffff82169050919050565b6000819050919050565b600061343961343461342f846133f4565b613414565b6133f4565b9050919050565b600061344b8261341e565b9050919050565b600061345d82613440565b9050919050565b61346d81613452565b82525050565b60006020820190506134886000830184613464565b92915050565b6000819050919050565b6134a18161348e565b82525050565b60006020820190506134bc6000830184613498565b92915050565b60006134cd826133f4565b9050919050565b6134dd816134c2565b82525050565b60006020820190506134f860008301846134d4565b92915050565b6000604051905090565b600080fd5b600080fd5b61351b816134c2565b811461352657600080fd5b50565b60008135905061353881613512565b92915050565b60006020828403121561355457613553613508565b5b600061356284828501613529565b91505092915050565b60008115159050919050565b6135808161356b565b811461358b57600080fd5b50565b60008135905061359d81613577565b92915050565b6000806000606084860312156135bc576135bb613508565b5b60006135ca86828701613529565b93505060206135db86828701613529565b92505060406135ec8682870161358e565b9150509250925092565b6000819050919050565b613609816135f6565b82525050565b60006020820190506136246000830184613600565b92915050565b6136338161348e565b811461363e57600080fd5b50565b6000813590506136508161362a565b92915050565b60008060008060008060c0878903121561367357613672613508565b5b600061368189828a01613529565b965050602061369289828a0161358e565b95505060406136a389828a01613641565b94505060606136b489828a01613641565b93505060806136c589828a01613641565b92505060a06136d689828a01613641565b9150509295509295509295565b600080fd5b6000601f19601f8301169050919050565b7f4e487b7100000000000000000000000000000000000000000000000000000000600052604160045260246000fd5b613731826136e8565b810181811067ffffffffffffffff821117156137505761374f6136f9565b5b80604052505050565b60006137636134fe565b905061376f8282613728565b919050565b600067ffffffffffffffff82111561378f5761378e6136f9565b5b602082029050602081019050919050565b600080fd5b60006137b86137b384613774565b613759565b905080838252602082019050602084028301858111156137db576137da6137a0565b5b835b8181101561380457806137f08882613529565b8452602084019350506020810190506137dd565b5050509392505050565b600082601f830112613823576138226136e3565b5b81356138338482602086016137a5565b91505092915050565b613845816135f6565b811461385057600080fd5b50565b6000813590506138628161383c565b92915050565b60008060008060008060008060006101208a8c03121561388b5761388a613508565b5b60008a013567ffffffffffffffff8111156138a9576138a861350d565b5b6138b58c828d0161380e565b99505060206138c68c828d01613529565b98505060406138d78c828d01613641565b97505060606138e88c828d01613641565b96505060806138f98c828d0161358e565b95505060a061390a8c828d01613641565b94505060c061391b8c828d01613641565b93505060e061392c8c828d01613853565b92505061010061393e8c828d01613529565b9150509295985092959850929598565b6000806040838503121561396557613964613508565b5b600061397385828601613641565b925050602061398485828601613529565b9150509250929050565b600081519050919050565b600082825260208201905092915050565b6000819050602082019050919050565b6139c3816134c2565b82525050565b6139d28161356b565b82525050565b6060820160008201516139ee60008501826139ba565b506020820151613a0160208501826139ba565b506040820151613a1460408501826139c9565b50505050565b6000613a2683836139d8565b60608301905092915050565b6000602082019050919050565b6000613a4a8261398e565b613a548185613999565b9350613a5f836139aa565b8060005b83811015613a90578151613a778882613a1a565b9750613a8283613a32565b925050600181019050613a63565b5085935050505092915050565b60006020820190508181036000830152613ab78184613a3f565b905092915050565b600060a082019050613ad46000830188613498565b613ae16020830187613498565b613aee6040830186613498565b613afb6060830185613498565b613b086080830184613498565b9695505050505050565b60008060008060008060008060008060006101608c8e031215613b3857613b37613508565b5b60008c013567ffffffffffffffff811115613b5657613b5561350d565b5b613b628e828f0161380e565b9b50506020613b738e828f01613529565b9a50506040613b848e828f01613641565b9950506060613b958e828f01613641565b9850506080613ba68e828f0161358e565b97505060a0613bb78e828f01613529565b96505060c0613bc88e828f01613641565b95505060e0613bd98e828f01613641565b945050610100613beb8e828f01613641565b935050610120613bfd8e828f0161358e565b925050610140613c0f8e828f01613529565b9150509295989b509295989b9093969950565b613c2b8161356b565b82525050565b6000602082019050613c466000830184613c22565b92915050565b6000806000806000806000806000806101408b8d031215613c7057613c6f613508565b5b60008b013567ffffffffffffffff811115613c8e57613c8d61350d565b5b613c9a8d828e0161380e565b9a50506020613cab8d828e01613529565b9950506040613cbc8d828e01613641565b9850506060613ccd8d828e01613641565b9750506080613cde8d828e01613641565b96505060a0613cef8d828e0161358e565b95505060c0613d008d828e01613641565b94505060e0613d118d828e01613641565b935050610100613d238d828e01613853565b925050610120613d358d828e01613529565b9150509295989b9194979a5092959850565b600080600080600080600060e0888a031215613d6657613d65613508565b5b6000613d748a828b01613529565b9750506020613d858a828b01613529565b9650506040613d968a828b0161358e565b9550506060613da78a828b01613641565b9450506080613db88a828b01613641565b93505060a0613dc98a828b01613641565b92505060c0613dda8a828b01613641565b91505092959891949750929550565b60008060008060808587031215613e0357613e02613508565b5b6000613e1187828801613529565b9450506020613e2287828801613641565b9350506040613e3387828801613641565b9250506060613e448782880161358e565b91505092959194509250565b6000604082019050613e656000830185613c22565b613e726020830184613498565b9392505050565b6000613e8482613440565b9050919050565b613e9481613e79565b82525050565b6000602082019050613eaf6000830184613e8b565b92915050565b600060208284031215613ecb57613eca613508565b5b6000613ed984828501613641565b91505092915050565b6000606082019050613ef760008301866134d4565b613f0460208301856134d4565b613f116040830184613c22565b949350505050565b600060208284031215613f2f57613f2e613508565b5b6000613f3d84828501613853565b91505092915050565b600080600060608486031215613f5f57613f5e613508565b5b6000613f6d86828701613529565b935050602084013567ffffffffffffffff811115613f8e57613f8d61350d565b5b613f9a8682870161380e565b9250506040613fab8682870161358e565b9150509250925092565b60008160601b9050919050565b6000613fcd82613fb5565b9050919050565b6000613fdf82613fc2565b9050919050565b613ff7613ff2826134c2565b613fd4565b82525050565b60008160f81b9050919050565b600061401582613ffd565b9050919050565b60006140278261400a565b9050919050565b61403f61403a8261356b565b61401c565b82525050565b60006140518286613fe6565b6014820191506140618285613fe6565b601482019150614071828461402e565b600182019150819050949350505050565b7f4e487b7100000000000000000000000000000000000000000000000000000000600052603260045260246000fd5b7f4e487b7100000000000000000000000000000000000000000000000000000000600052601160045260246000fd5b60006140eb8261348e565b91506140f68361348e565b925082820190508082111561410e5761410d6140b1565b5b92915050565b600061411f8261348e565b91507fffffffffffffffffffffffffffffffffffffffffffffffffffffffffffffffff8203614151576141506140b1565b5b600182019050919050565b60008151905061416b8161362a565b92915050565b60006020828403121561418757614186613508565b5b60006141958482850161415c565b91505092915050565b600082825260208201905092915050565b7f6865616c746820666163746f7200000000000000000000000000000000000000600082015250565b60006141e5600d8361419e565b91506141f0826141af565b602082019050919050565b60006020820190508181036000830152614214816141d8565b9050919050565b600060a08201905061423060008301886134d4565b61423d6020830187613498565b61424a6040830186613498565b6142576060830185613c22565b6142646080830184613498565b9695505050505050565b60008151905061427d81613577565b92915050565b6000806040838503121561429a57614299613508565b5b60006142a88582860161426e565b92505060206142b98582860161415c565b9150509250929050565b7f6f6e6c7920746865206f776e65722063616e2063616c6c20746869732066756e60008201527f6374696f6e000000000000000000000000000000000000000000000000000000602082015250565b600061431f60258361419e565b915061432a826142c3565b604082019050919050565b6000602082019050818103600083015261434e81614312565b9050919050565b600081519050919050565b600082825260208201905092915050565b6000819050602082019050919050565b600061438d83836139ba565b60208301905092915050565b6000602082019050919050565b60006143b182614355565b6143bb8185614360565b93506143c683614371565b8060005b838110156143f75781516143de8882614381565b97506143e983614399565b9250506001810190506143ca565b5085935050505092915050565b600061012082019050818103600083015261441f818c6143a6565b905061442e602083018b6134d4565b61443b604083018a613498565b6144486060830189613498565b6144556080830188613c22565b61446260a0830187613498565b61446f60c0830186613498565b61447c60e0830185613600565b61448a6101008301846134d4565b9a9950505050505050505050565b6000815190506144a78161383c565b92915050565b6000602082840312156144c3576144c2613508565b5b60006144d184828501614498565b91505092915050565b7f4f6e6c792066756e6473206f776e65722063616e20776974686472617720667560008201527f6e64730000000000000000000000000000000000000000000000000000000000602082015250565b600061453660238361419e565b9150614541826144da565b604082019050919050565b6000602082019050818103600083015261456581614529565b9050919050565b6000614577826133f4565b9050919050565b6145878161456c565b82525050565b60006060820190506145a2600083018661457e565b6145af60208301856134d4565b6145bc6040830184613498565b949350505050565b60006080820190506145d960008301876134d4565b6145e660208301866134d4565b6145f360408301856134d4565b6146006060830184613c22565b95945050505050565b600080600080600080600080610100898b03121561462a57614629613508565b5b60006146388b828c0161415c565b98505060206146498b828c0161415c565b975050604061465a8b828c0161415c565b965050606061466b8b828c0161415c565b955050608061467c8b828c0161415c565b94505060a061468d8b828c0161415c565b93505060c061469e8b828c0161426e565b92505060e06146af8b828c0161415c565b9150509295985092959890939650565b7f6f6e6c7920746865206f776e6572206f7220676f762063616e2063616c6c207460008201527f6869732066756e6374696f6e0000000000000000000000000000000000000000602082015250565b600061471b602c8361419e565b9150614726826146bf565b604082019050919050565b6000602082019050818103600083015261474a8161470e565b9050919050565b7f6665650000000000000000000000000000000000000000000000000000000000600082015250565b600061478760038361419e565b915061479282614751565b602082019050919050565b600060208201905081810360008301526147b68161477a565b9050919050565b7f6c6f616e20616d6f756e7420646f6573206e6f74207065726d6974206c69717560008201527f69646174696f6e00000000000000000000000000000000000000000000000000602082015250565b600061481960278361419e565b9150614824826147bd565b604082019050919050565b600060208201905081810360008301526148488161480c565b9050919050565b7f4e487b7100000000000000000000000000000000000000000000000000000000600052602160045260246000fd5b600060608201905061489360008301866134d4565b6148a060208301856134d4565b6148ad6040830184613498565b949350505050565b6000602082840312156148cb576148ca613508565b5b60006148d98482850161426e565b91505092915050565b7f6661696c656420746f207472616e7366657220696e20636f6c6c61746572616c600082015250565b600061491860208361419e565b9150614923826148e2565b602082019050919050565b600060208201905081810360008301526149478161490b565b9050919050565b600060408201905061496360008301856134d4565b6149706020830184613498565b9392505050565b7f6661696c656420746f20617070726f766520636f6c6c61746572616c2074726160008201527f6e73666572000000000000000000000000000000000000000000000000000000602082015250565b60006149d360258361419e565b91506149de82614977565b604082019050919050565b60006020820190508181036000830152614a02816149c6565b9050919050565b6000610140820190508181036000830152614a24818d6143a6565b9050614a33602083018c6134d4565b614a40604083018b613498565b614a4d606083018a613498565b614a5a6080830189613498565b614a6760a0830188613c22565b614a7460c0830187613498565b614a8160e0830186613498565b614a8f610100830185613600565b614a9d6101208301846134d4565b9b9a5050505050505050505050565b6000606082019050614ac160008301866134d4565b614ace6020830185613498565b614adb6040830184613498565b949350505050565b7f617665726765207072696365206f6620706f736974696f6e2068617320746f2060008201527f62652067726561746572207468616e2030000000000000000000000000000000602082015250565b6000614b3f60318361419e565b9150614b4a82614ae3565b604082019050919050565b60006020820190508181036000830152614b6e81614b32565b9050919050565b6000604082019050614b8a6000830185613600565b614b9760208301846134d4565b9392505050565b7f6f6e6c7920676f762063616e2063616c6c20746869732066756e6374696f6e00600082015250565b6000614bd4601f8361419e565b9150614bdf82614b9e565b602082019050919050565b60006020820190508181036000830152614c0381614bc7565b9050919050565b6000614c158261348e565b9150614c208361348e565b9250828202614c2e8161348e565b91508282048414831517614c4557614c446140b1565b5b5092915050565b7f4e487b7100000000000000000000000000000000000000000000000000000000600052601260045260246000fd5b6000614c868261348e565b9150614c918361348e565b925082614ca157614ca0614c4c565b5b828204905092915050565b7f536166654d6174683a206d756c7469706c69636174696f6e206f766572666c6f60008201527f7700000000000000000000000000000000000000000000000000000000000000602082015250565b6000614d0860218361419e565b9150614d1382614cac565b604082019050919050565b60006020820190508181036000830152614d3781614cfb565b9050919050565b7f6661696c656420746f206c697175696461746520706f736974696f6e00000000600082015250565b6000614d74601c8361419e565b9150614d7f82614d3e565b602082019050919050565b60006020820190508181036000830152614da381614d67565b9050919050565b7f536166654d6174683a206164646974696f6e206f766572666c6f770000000000600082015250565b6000614de0601b8361419e565b9150614deb82614daa565b602082019050919050565b60006020820190508181036000830152614e0f81614dd3565b9050919050565b6000610160820190508181036000830152614e31818e6143a6565b9050614e40602083018d6134d4565b614e4d604083018c613498565b614e5a606083018b613498565b614e67608083018a613c22565b614e7460a08301896134d4565b614e8160c0830188613498565b614e8e60e0830187613498565b614e9c610100830186613498565b614eaa610120830185613c22565b614eb86101408301846134d4565b9c9b505050505050505050505050565b60006fffffffffffffffffffffffffffffffff82169050919050565b614eed81614ec8565b82525050565b6000604082019050614f086000830185614ee4565b614f156020830184614ee4565b9392505050565b600081519050919050565b600082825260208201905092915050565b60005b83811015614f56578082015181840152602081019050614f3b565b60008484015250505050565b6000614f6d82614f1c565b614f778185614f27565b9350614f87818560208601614f38565b614f90816136e8565b840191505092915050565b600081519050919050565b600082825260208201905092915050565b6000819050602082019050919050565b60048110614fd857614fd761484f565b5b50565b6000819050614fe982614fc7565b919050565b6000614ff982614fdb565b9050919050565b61500981614fee565b82525050565b600061501b8383615000565b60208301905092915050565b6000602082019050919050565b600061503f82614f9b565b6150498185614fa6565b935061505483614fb7565b8060005b8381101561508557815161506c888261500f565b975061507783615027565b925050600181019050615058565b5085935050505092915050565b600081519050919050565b600082825260208201905092915050565b6000819050602082019050919050565b600082825260208201905092915050565b60006150da82614f1c565b6150e481856150be565b93506150f4818560208601614f38565b6150fd816136e8565b840191505092915050565b600061511483836150cf565b905092915050565b6000602082019050919050565b600061513482615092565b61513e818561509d565b935083602082028501615150856150ae565b8060005b8581101561518c578484038952815161516d8582615108565b94506151788361511c565b925060208a01995050600181019050615154565b50829750879550505050505092915050565b600060408301600083015184820360008601526151bb8282615034565b915050602083015184820360208601526151d58282615129565b9150508091505092915050565b60006080820190506151f760008301876134d4565b81810360208301526152098186614f62565b9050818103604083015261521d818561519e565b905061522c60608301846134d4565b95945050505050565b600081519050919050565b600061524b82615235565b615255818561419e565b9350615265818560208601614f38565b61526e816136e8565b840191505092915050565b600060208201905081810360008301526152938184615240565b905092915050565b60006152a68261348e565b91506152b18361348e565b92508282039050818111156152c9576152c86140b1565b5b9291505056fea2646970667358221220a9730dd90e4c6803e36a77dc4758d05557222d63a4a3756b249678015cf41dba64736f6c63430008110033","opcodes":"PUSH2 0x120 PUSH1 0x40 MSTORE PUSH20 0xB3F5503F93D5EF84B06993A1975B9D21B962892F PUSH1 0x0 DUP1 PUSH2 0x100 EXP DUP2 SLOAD DUP2 PUSH20 0xFFFFFFFFFFFFFFFFFFFFFFFFFFFFFFFFFFFFFFFF MUL NOT AND SWAP1 DUP4 PUSH20 0xFFFFFFFFFFFFFFFFFFFFFFFFFFFFFFFFFFFFFFFF AND MUL OR SWAP1 SSTORE POP CALLVALUE DUP1 ISZERO PUSH3 0x66 JUMPI PUSH1 0x0 DUP1 REVERT JUMPDEST POP PUSH1 0x40 MLOAD PUSH3 0x5C13 CODESIZE SUB DUP1 PUSH3 0x5C13 DUP4 CODECOPY DUP2 DUP2 ADD PUSH1 0x40 MSTORE DUP2 ADD SWAP1 PUSH3 0x8C SWAP2 SWAP1 PUSH3 0x647 JUMP JUMPDEST PUSH1 0x0 DUP1 SLOAD SWAP1 PUSH2 0x100 EXP SWAP1 DIV PUSH20 0xFFFFFFFFFFFFFFFFFFFFFFFFFFFFFFFFFFFFFFFF AND ADDRESS DUP2 ADDRESS DUP2 PUSH20 0xFFFFFFFFFFFFFFFFFFFFFFFFFFFFFFFFFFFFFFFF AND PUSH1 0x80 DUP2 PUSH20 0xFFFFFFFFFFFFFFFFFFFFFFFFFFFFFFFFFFFFFFFF AND DUP2 MSTORE POP POP DUP2 PUSH20 0xFFFFFFFFFFFFFFFFFFFFFFFFFFFFFFFFFFFFFFFF AND PUSH4 0x573EA575 PUSH1 0x40 MLOAD DUP2 PUSH4 0xFFFFFFFF AND PUSH1 0xE0 SHL DUP2 MSTORE PUSH1 0x4 ADD PUSH1 0x20 PUSH1 0x40 MLOAD DUP1 DUP4 SUB DUP2 DUP7 GAS STATICCALL ISZERO DUP1 ISZERO PUSH3 0x130 JUMPI RETURNDATASIZE PUSH1 0x0 DUP1 RETURNDATACOPY RETURNDATASIZE PUSH1 0x0 REVERT JUMPDEST POP POP POP POP PUSH1 0x40 MLOAD RETURNDATASIZE PUSH1 0x1F NOT PUSH1 0x1F DUP3 ADD AND DUP3 ADD DUP1 PUSH1 0x40 MSTORE POP DUP2 ADD SWAP1 PUSH3 0x156 SWAP2 SWAP1 PUSH3 0x755 JUMP JUMPDEST PUSH20 0xFFFFFFFFFFFFFFFFFFFFFFFFFFFFFFFFFFFFFFFF AND PUSH1 0xC0 DUP2 PUSH20 0xFFFFFFFFFFFFFFFFFFFFFFFFFFFFFFFFFFFFFFFF AND DUP2 MSTORE POP POP PUSH20 0xB3F5503F93D5EF84B06993A1975B9D21B962892F PUSH20 0xFFFFFFFFFFFFFFFFFFFFFFFFFFFFFFFFFFFFFFFF AND PUSH4 0xDED89A7C DUP3 PUSH1 0x40 MLOAD DUP3 PUSH4 0xFFFFFFFF AND PUSH1 0xE0 SHL DUP2 MSTORE PUSH1 0x4 ADD PUSH3 0x1D8 SWAP2 SWAP1 PUSH3 0x798 JUMP JUMPDEST PUSH1 0x40 DUP1 MLOAD DUP1 DUP4 SUB DUP2 DUP7 GAS STATICCALL ISZERO DUP1 ISZERO PUSH3 0x1F5 JUMPI RETURNDATASIZE PUSH1 0x0 DUP1 RETURNDATACOPY RETURNDATASIZE PUSH1 0x0 REVERT JUMPDEST POP POP POP POP PUSH1 0x40 MLOAD RETURNDATASIZE PUSH1 0x1F NOT PUSH1 0x1F DUP3 ADD AND DUP3 ADD DUP1 PUSH1 0x40 MSTORE POP DUP2 ADD SWAP1 PUSH3 0x21B SWAP2 SWAP1 PUSH3 0x7F2 JUMP JUMPDEST POP DUP1 PUSH20 0xFFFFFFFFFFFFFFFFFFFFFFFFFFFFFFFFFFFFFFFF AND PUSH1 0xA0 SWAP1 PUSH20 0xFFFFFFFFFFFFFFFFFFFFFFFFFFFFFFFFFFFFFFFF AND DUP2 MSTORE POP POP POP POP DUP1 PUSH20 0xFFFFFFFFFFFFFFFFFFFFFFFFFFFFFFFFFFFFFFFF AND PUSH1 0xE0 DUP2 PUSH20 0xFFFFFFFFFFFFFFFFFFFFFFFFFFFFFFFFFFFFFFFF AND DUP2 MSTORE POP POP PUSH1 0x80 MLOAD PUSH20 0xFFFFFFFFFFFFFFFFFFFFFFFFFFFFFFFFFFFFFFFF AND PUSH4 0xE60A3213 PUSH1 0x40 MLOAD DUP2 PUSH4 0xFFFFFFFF AND PUSH1 0xE0 SHL DUP2 MSTORE PUSH1 0x4 ADD PUSH1 0x20 PUSH1 0x40 MLOAD DUP1 DUP4 SUB DUP2 DUP7 GAS STATICCALL ISZERO DUP1 ISZERO PUSH3 0x2D4 JUMPI RETURNDATASIZE PUSH1 0x0 DUP1 RETURNDATACOPY RETURNDATASIZE PUSH1 0x0 REVERT JUMPDEST POP POP POP POP PUSH1 0x40 MLOAD RETURNDATASIZE PUSH1 0x1F NOT PUSH1 0x1F DUP3 ADD AND DUP3 ADD DUP1 PUSH1 0x40 MSTORE POP DUP2 ADD SWAP1 PUSH3 0x2FA SWAP2 SWAP1 PUSH3 0x87E JUMP JUMPDEST PUSH20 0xFFFFFFFFFFFFFFFFFFFFFFFFFFFFFFFFFFFFFFFF AND PUSH2 0x100 DUP2 PUSH20 0xFFFFFFFFFFFFFFFFFFFFFFFFFFFFFFFFFFFFFFFF AND DUP2 MSTORE POP POP POP POP DUP8 PUSH1 0x1 PUSH1 0x0 PUSH2 0x100 EXP DUP2 SLOAD DUP2 PUSH20 0xFFFFFFFFFFFFFFFFFFFFFFFFFFFFFFFFFFFFFFFF MUL NOT AND SWAP1 DUP4 PUSH20 0xFFFFFFFFFFFFFFFFFFFFFFFFFFFFFFFFFFFFFFFF AND MUL OR SWAP1 SSTORE POP DUP5 PUSH1 0x8 PUSH1 0x0 PUSH2 0x100 EXP DUP2 SLOAD DUP2 PUSH20 0xFFFFFFFFFFFFFFFFFFFFFFFFFFFFFFFFFFFFFFFF MUL NOT AND SWAP1 DUP4 PUSH20 0xFFFFFFFFFFFFFFFFFFFFFFFFFFFFFFFFFFFFFFFF AND MUL OR SWAP1 SSTORE POP DUP7 PUSH1 0x2 PUSH1 0x0 PUSH2 0x100 EXP DUP2 SLOAD DUP2 PUSH20 0xFFFFFFFFFFFFFFFFFFFFFFFFFFFFFFFFFFFFFFFF MUL NOT AND SWAP1 DUP4 PUSH20 0xFFFFFFFFFFFFFFFFFFFFFFFFFFFFFFFFFFFFFFFF AND MUL OR SWAP1 SSTORE POP DUP6 PUSH1 0x3 PUSH1 0x0 PUSH2 0x100 EXP DUP2 SLOAD DUP2 PUSH20 0xFFFFFFFFFFFFFFFFFFFFFFFFFFFFFFFFFFFFFFFF MUL NOT AND SWAP1 DUP4 PUSH20 0xFFFFFFFFFFFFFFFFFFFFFFFFFFFFFFFFFFFFFFFF AND MUL OR SWAP1 SSTORE POP DUP4 PUSH1 0x4 PUSH1 0x0 PUSH2 0x100 EXP DUP2 SLOAD DUP2 PUSH20 0xFFFFFFFFFFFFFFFFFFFFFFFFFFFFFFFFFFFFFFFF MUL NOT AND SWAP1 DUP4 PUSH20 0xFFFFFFFFFFFFFFFFFFFFFFFFFFFFFFFFFFFFFFFF AND MUL OR SWAP1 SSTORE POP DUP3 PUSH1 0x5 PUSH1 0x0 PUSH2 0x100 EXP DUP2 SLOAD DUP2 PUSH20 0xFFFFFFFFFFFFFFFFFFFFFFFFFFFFFFFFFFFFFFFF MUL NOT AND SWAP1 DUP4 PUSH20 0xFFFFFFFFFFFFFFFFFFFFFFFFFFFFFFFFFFFFFFFF AND MUL OR SWAP1 SSTORE POP DUP2 PUSH1 0x6 PUSH1 0x0 PUSH2 0x100 EXP DUP2 SLOAD DUP2 PUSH20 0xFFFFFFFFFFFFFFFFFFFFFFFFFFFFFFFFFFFFFFFF MUL NOT AND SWAP1 DUP4 PUSH20 0xFFFFFFFFFFFFFFFFFFFFFFFFFFFFFFFFFFFFFFFF AND MUL OR SWAP1 SSTORE POP DUP1 PUSH1 0x7 PUSH1 0x0 PUSH2 0x100 EXP DUP2 SLOAD DUP2 PUSH20 0xFFFFFFFFFFFFFFFFFFFFFFFFFFFFFFFFFFFFFFFF MUL NOT AND SWAP1 DUP4 PUSH20 0xFFFFFFFFFFFFFFFFFFFFFFFFFFFFFFFFFFFFFFFF AND MUL OR SWAP1 SSTORE POP PUSH1 0x0 DUP4 SWAP1 POP DUP1 PUSH20 0xFFFFFFFFFFFFFFFFFFFFFFFFFFFFFFFFFFFFFFFF AND PUSH4 0x38C74DD9 PUSH1 0x4 PUSH1 0x0 SWAP1 SLOAD SWAP1 PUSH2 0x100 EXP SWAP1 DIV PUSH20 0xFFFFFFFFFFFFFFFFFFFFFFFFFFFFFFFFFFFFFFFF AND PUSH1 0x40 MLOAD DUP3 PUSH4 0xFFFFFFFF AND PUSH1 0xE0 SHL DUP2 MSTORE PUSH1 0x4 ADD PUSH3 0x59A SWAP2 SWAP1 PUSH3 0x798 JUMP JUMPDEST PUSH1 0x0 PUSH1 0x40 MLOAD DUP1 DUP4 SUB DUP2 PUSH1 0x0 DUP8 DUP1 EXTCODESIZE ISZERO DUP1 ISZERO PUSH3 0x5B5 JUMPI PUSH1 0x0 DUP1 REVERT JUMPDEST POP GAS CALL ISZERO DUP1 ISZERO PUSH3 0x5CA JUMPI RETURNDATASIZE PUSH1 0x0 DUP1 RETURNDATACOPY RETURNDATASIZE PUSH1 0x0 REVERT JUMPDEST POP POP POP POP POP POP POP POP POP POP POP POP POP PUSH3 0x8B0 JUMP JUMPDEST PUSH1 0x0 DUP1 REVERT JUMPDEST PUSH1 0x0 PUSH20 0xFFFFFFFFFFFFFFFFFFFFFFFFFFFFFFFFFFFFFFFF DUP3 AND SWAP1 POP SWAP2 SWAP1 POP JUMP JUMPDEST PUSH1 0x0 PUSH3 0x60F DUP3 PUSH3 0x5E2 JUMP JUMPDEST SWAP1 POP SWAP2 SWAP1 POP JUMP JUMPDEST PUSH3 0x621 DUP2 PUSH3 0x602 JUMP JUMPDEST DUP2 EQ PUSH3 0x62D JUMPI PUSH1 0x0 DUP1 REVERT JUMPDEST POP JUMP JUMPDEST PUSH1 0x0 DUP2 MLOAD SWAP1 POP PUSH3 0x641 DUP2 PUSH3 0x616 JUMP JUMPDEST SWAP3 SWAP2 POP POP JUMP JUMPDEST PUSH1 0x0 DUP1 PUSH1 0x0 DUP1 PUSH1 0x0 DUP1 PUSH1 0x0 DUP1 PUSH2 0x100 DUP10 DUP12 SUB SLT ISZERO PUSH3 0x66B JUMPI PUSH3 0x66A PUSH3 0x5DD JUMP JUMPDEST JUMPDEST PUSH1 0x0 PUSH3 0x67B DUP12 DUP3 DUP13 ADD PUSH3 0x630 JUMP JUMPDEST SWAP9 POP POP PUSH1 0x20 PUSH3 0x68E DUP12 DUP3 DUP13 ADD PUSH3 0x630 JUMP JUMPDEST SWAP8 POP POP PUSH1 0x40 PUSH3 0x6A1 DUP12 DUP3 DUP13 ADD PUSH3 0x630 JUMP JUMPDEST SWAP7 POP POP PUSH1 0x60 PUSH3 0x6B4 DUP12 DUP3 DUP13 ADD PUSH3 0x630 JUMP JUMPDEST SWAP6 POP POP PUSH1 0x80 PUSH3 0x6C7 DUP12 DUP3 DUP13 ADD PUSH3 0x630 JUMP JUMPDEST SWAP5 POP POP PUSH1 0xA0 PUSH3 0x6DA DUP12 DUP3 DUP13 ADD PUSH3 0x630 JUMP JUMPDEST SWAP4 POP POP PUSH1 0xC0 PUSH3 0x6ED DUP12 DUP3 DUP13 ADD PUSH3 0x630 JUMP JUMPDEST SWAP3 POP POP PUSH1 0xE0 PUSH3 0x700 DUP12 DUP3 DUP13 ADD PUSH3 0x630 JUMP JUMPDEST SWAP2 POP POP SWAP3 SWAP6 SWAP9 POP SWAP3 SWAP6 SWAP9 SWAP1 SWAP4 SWAP7 POP JUMP JUMPDEST PUSH1 0x0 PUSH3 0x71D DUP3 PUSH3 0x5E2 JUMP JUMPDEST SWAP1 POP SWAP2 SWAP1 POP JUMP JUMPDEST PUSH3 0x72F DUP2 PUSH3 0x710 JUMP JUMPDEST DUP2 EQ PUSH3 0x73B JUMPI PUSH1 0x0 DUP1 REVERT JUMPDEST POP JUMP JUMPDEST PUSH1 0x0 DUP2 MLOAD SWAP1 POP PUSH3 0x74F DUP2 PUSH3 0x724 JUMP JUMPDEST SWAP3 SWAP2 POP POP JUMP JUMPDEST PUSH1 0x0 PUSH1 0x20 DUP3 DUP5 SUB SLT ISZERO PUSH3 0x76E JUMPI PUSH3 0x76D PUSH3 0x5DD JUMP JUMPDEST JUMPDEST PUSH1 0x0 PUSH3 0x77E DUP5 DUP3 DUP6 ADD PUSH3 0x73E JUMP JUMPDEST SWAP2 POP POP SWAP3 SWAP2 POP POP JUMP JUMPDEST PUSH3 0x792 DUP2 PUSH3 0x602 JUMP JUMPDEST DUP3 MSTORE POP POP JUMP JUMPDEST PUSH1 0x0 PUSH1 0x20 DUP3 ADD SWAP1 POP PUSH3 0x7AF PUSH1 0x0 DUP4 ADD DUP5 PUSH3 0x787 JUMP JUMPDEST SWAP3 SWAP2 POP POP JUMP JUMPDEST PUSH1 0x0 DUP2 ISZERO ISZERO SWAP1 POP SWAP2 SWAP1 POP JUMP JUMPDEST PUSH3 0x7CC DUP2 PUSH3 0x7B5 JUMP JUMPDEST DUP2 EQ PUSH3 0x7D8 JUMPI PUSH1 0x0 DUP1 REVERT JUMPDEST POP JUMP JUMPDEST PUSH1 0x0 DUP2 MLOAD SWAP1 POP PUSH3 0x7EC DUP2 PUSH3 0x7C1 JUMP JUMPDEST SWAP3 SWAP2 POP POP JUMP JUMPDEST PUSH1 0x0 DUP1 PUSH1 0x40 DUP4 DUP6 SUB SLT ISZERO PUSH3 0x80C JUMPI PUSH3 0x80B PUSH3 0x5DD JUMP JUMPDEST JUMPDEST PUSH1 0x0 PUSH3 0x81C DUP6 DUP3 DUP7 ADD PUSH3 0x630 JUMP JUMPDEST SWAP3 POP POP PUSH1 0x20 PUSH3 0x82F DUP6 DUP3 DUP7 ADD PUSH3 0x7DB JUMP JUMPDEST SWAP2 POP POP SWAP3 POP SWAP3 SWAP1 POP JUMP JUMPDEST PUSH1 0x0 PUSH3 0x846 DUP3 PUSH3 0x602 JUMP JUMPDEST SWAP1 POP SWAP2 SWAP1 POP JUMP JUMPDEST PUSH3 0x858 DUP2 PUSH3 0x839 JUMP JUMPDEST DUP2 EQ PUSH3 0x864 JUMPI PUSH1 0x0 DUP1 REVERT JUMPDEST POP JUMP JUMPDEST PUSH1 0x0 DUP2 MLOAD SWAP1 POP PUSH3 0x878 DUP2 PUSH3 0x84D JUMP JUMPDEST SWAP3 SWAP2 POP POP JUMP JUMPDEST PUSH1 0x0 PUSH1 0x20 DUP3 DUP5 SUB SLT ISZERO PUSH3 0x897 JUMPI PUSH3 0x896 PUSH3 0x5DD JUMP JUMPDEST JUMPDEST PUSH1 0x0 PUSH3 0x8A7 DUP5 DUP3 DUP6 ADD PUSH3 0x867 JUMP JUMPDEST SWAP2 POP POP SWAP3 SWAP2 POP POP JUMP JUMPDEST PUSH1 0x80 MLOAD PUSH1 0xA0 MLOAD PUSH1 0xC0 MLOAD PUSH1 0xE0 MLOAD PUSH2 0x100 MLOAD PUSH2 0x5305 PUSH3 0x90E PUSH1 0x0 CODECOPY PUSH1 0x0 DUP2 DUP2 PUSH2 0x16B4 ADD MSTORE PUSH2 0x27CC ADD MSTORE PUSH1 0x0 DUP2 DUP2 PUSH2 0xF1C ADD MSTORE DUP2 DUP2 PUSH2 0x1626 ADD MSTORE PUSH2 0x16F0 ADD MSTORE PUSH1 0x0 POP POP PUSH1 0x0 PUSH2 0xB2C ADD MSTORE PUSH1 0x0 DUP2 DUP2 PUSH2 0xA55 ADD MSTORE PUSH2 0x313C ADD MSTORE PUSH2 0x5305 PUSH1 0x0 RETURN INVALID PUSH1 0x80 PUSH1 0x40 MSTORE PUSH1 0x4 CALLDATASIZE LT PUSH2 0x272 JUMPI PUSH1 0x0 CALLDATALOAD PUSH1 0xE0 SHR DUP1 PUSH4 0x871105CC GT PUSH2 0x14F JUMPI DUP1 PUSH4 0xBB0498DE GT PUSH2 0xC1 JUMPI DUP1 PUSH4 0xE60A3213 GT PUSH2 0x7A JUMPI DUP1 PUSH4 0xE60A3213 EQ PUSH2 0x91B JUMPI DUP1 PUSH4 0xE9F4454D EQ PUSH2 0x946 JUMPI DUP1 PUSH4 0xEF630B3C EQ PUSH2 0x985 JUMPI DUP1 PUSH4 0xF8388225 EQ PUSH2 0x9C2 JUMPI DUP1 PUSH4 0xFC2CEE62 EQ PUSH2 0x9FF JUMPI DUP1 PUSH4 0xFFB991B0 EQ PUSH2 0xA28 JUMPI PUSH2 0x272 JUMP JUMPDEST DUP1 PUSH4 0xBB0498DE EQ PUSH2 0x815 JUMPI DUP1 PUSH4 0xC019BF5E EQ PUSH2 0x840 JUMPI DUP1 PUSH4 0xCA2FC17C EQ PUSH2 0x87D JUMPI DUP1 PUSH4 0xD0E30DB0 EQ PUSH2 0x8BB JUMPI DUP1 PUSH4 0xD422B00F EQ PUSH2 0x8C5 JUMPI DUP1 PUSH4 0xD571E21C EQ PUSH2 0x8F0 JUMPI PUSH2 0x272 JUMP JUMPDEST DUP1 PUSH4 0xA0F14034 GT PUSH2 0x113 JUMPI DUP1 PUSH4 0xA0F14034 EQ PUSH2 0x726 JUMPI DUP1 PUSH4 0xA7476493 EQ PUSH2 0x74F JUMPI DUP1 PUSH4 0xA92EA0E0 EQ PUSH2 0x766 JUMPI DUP1 PUSH4 0xA96E2423 EQ PUSH2 0x791 JUMPI DUP1 PUSH4 0xAF3ED347 EQ PUSH2 0x7BA JUMPI DUP1 PUSH4 0xB5627E42 EQ PUSH2 0x7EA JUMPI PUSH2 0x272 JUMP JUMPDEST DUP1 PUSH4 0x871105CC EQ PUSH2 0x636 JUMPI DUP1 PUSH4 0x8C1395F8 EQ PUSH2 0x65F JUMPI DUP1 PUSH4 0x8F84AA09 EQ PUSH2 0x6A0 JUMPI DUP1 PUSH4 0x937A0E4E EQ PUSH2 0x6CB JUMPI DUP1 PUSH4 0x9409D870 EQ PUSH2 0x6FB JUMPI PUSH2 0x272 JUMP JUMPDEST DUP1 PUSH4 0x46EE3C59 GT PUSH2 0x1E8 JUMPI DUP1 PUSH4 0x6E3990FC GT PUSH2 0x1AC JUMPI DUP1 PUSH4 0x6E3990FC EQ PUSH2 0x531 JUMPI DUP1 PUSH4 0x725BA052 EQ PUSH2 0x561 JUMPI DUP1 PUSH4 0x7379DBE6 EQ PUSH2 0x58C JUMPI DUP1 PUSH4 0x744BFE61 EQ PUSH2 0x5B7 JUMPI DUP1 PUSH4 0x7809BAAF EQ PUSH2 0x5E0 JUMPI DUP1 PUSH4 0x80275860 EQ PUSH2 0x60B JUMPI PUSH2 0x272 JUMP JUMPDEST DUP1 PUSH4 0x46EE3C59 EQ PUSH2 0x45C JUMPI DUP1 PUSH4 0x4F0E0EF3 EQ PUSH2 0x487 JUMPI DUP1 PUSH4 0x584EDF10 EQ PUSH2 0x4B2 JUMPI DUP1 PUSH4 0x63AE2103 EQ PUSH2 0x4C9 JUMPI DUP1 PUSH4 0x694C1CBC EQ PUSH2 0x4F4 JUMPI PUSH2 0x272 JUMP JUMPDEST DUP1 PUSH4 0x238E270A GT PUSH2 0x23A JUMPI DUP1 PUSH4 0x238E270A EQ PUSH2 0x34C JUMPI DUP1 PUSH4 0x28F150EB EQ PUSH2 0x389 JUMPI DUP1 PUSH4 0x3268CC56 EQ PUSH2 0x3B4 JUMPI DUP1 PUSH4 0x37106770 EQ PUSH2 0x3DF JUMPI DUP1 PUSH4 0x3BA32DF4 EQ PUSH2 0x408 JUMPI DUP1 PUSH4 0x41CB87FC EQ PUSH2 0x433 JUMPI PUSH2 0x272 JUMP JUMPDEST DUP1 PUSH4 0x49AACFE EQ PUSH2 0x277 JUMPI DUP1 PUSH4 0x81752BB EQ PUSH2 0x2A2 JUMPI DUP1 PUSH4 0x126082CF EQ PUSH2 0x2CD JUMPI DUP1 PUSH4 0x12D43A51 EQ PUSH2 0x2F8 JUMPI DUP1 PUSH4 0x13F2D128 EQ PUSH2 0x323 JUMPI JUMPDEST PUSH1 0x0 DUP1 REVERT JUMPDEST CALLVALUE DUP1 ISZERO PUSH2 0x283 JUMPI PUSH1 0x0 DUP1 REVERT JUMPDEST POP PUSH2 0x28C PUSH2 0xA53 JUMP JUMPDEST PUSH1 0x40 MLOAD PUSH2 0x299 SWAP2 SWAP1 PUSH2 0x3473 JUMP JUMPDEST PUSH1 0x40 MLOAD DUP1 SWAP2 SUB SWAP1 RETURN JUMPDEST CALLVALUE DUP1 ISZERO PUSH2 0x2AE JUMPI PUSH1 0x0 DUP1 REVERT JUMPDEST POP PUSH2 0x2B7 PUSH2 0xA77 JUMP JUMPDEST PUSH1 0x40 MLOAD PUSH2 0x2C4 SWAP2 SWAP1 PUSH2 0x34A7 JUMP JUMPDEST PUSH1 0x40 MLOAD DUP1 SWAP2 SUB SWAP1 RETURN JUMPDEST CALLVALUE DUP1 ISZERO PUSH2 0x2D9 JUMPI PUSH1 0x0 DUP1 REVERT JUMPDEST POP PUSH2 0x2E2 PUSH2 0xA7C JUMP JUMPDEST PUSH1 0x40 MLOAD PUSH2 0x2EF SWAP2 SWAP1 PUSH2 0x34A7 JUMP JUMPDEST PUSH1 0x40 MLOAD DUP1 SWAP2 SUB SWAP1 RETURN JUMPDEST CALLVALUE DUP1 ISZERO PUSH2 0x304 JUMPI PUSH1 0x0 DUP1 REVERT JUMPDEST POP PUSH2 0x30D PUSH2 0xA82 JUMP JUMPDEST PUSH1 0x40 MLOAD PUSH2 0x31A SWAP2 SWAP1 PUSH2 0x34E3 JUMP JUMPDEST PUSH1 0x40 MLOAD DUP1 SWAP2 SUB SWAP1 RETURN JUMPDEST CALLVALUE DUP1 ISZERO PUSH2 0x32F JUMPI PUSH1 0x0 DUP1 REVERT JUMPDEST POP PUSH2 0x34A PUSH1 0x4 DUP1 CALLDATASIZE SUB DUP2 ADD SWAP1 PUSH2 0x345 SWAP2 SWAP1 PUSH2 0x353E JUMP JUMPDEST PUSH2 0xAA8 JUMP JUMPDEST STOP JUMPDEST CALLVALUE DUP1 ISZERO PUSH2 0x358 JUMPI PUSH1 0x0 DUP1 REVERT JUMPDEST POP PUSH2 0x373 PUSH1 0x4 DUP1 CALLDATASIZE SUB DUP2 ADD SWAP1 PUSH2 0x36E SWAP2 SWAP1 PUSH2 0x35A3 JUMP JUMPDEST PUSH2 0xAF4 JUMP JUMPDEST PUSH1 0x40 MLOAD PUSH2 0x380 SWAP2 SWAP1 PUSH2 0x360F JUMP JUMPDEST PUSH1 0x40 MLOAD DUP1 SWAP2 SUB SWAP1 RETURN JUMPDEST CALLVALUE DUP1 ISZERO PUSH2 0x395 JUMPI PUSH1 0x0 DUP1 REVERT JUMPDEST POP PUSH2 0x39E PUSH2 0xB2A JUMP JUMPDEST PUSH1 0x40 MLOAD PUSH2 0x3AB SWAP2 SWAP1 PUSH2 0x34E3 JUMP JUMPDEST PUSH1 0x40 MLOAD DUP1 SWAP2 SUB SWAP1 RETURN JUMPDEST CALLVALUE DUP1 ISZERO PUSH2 0x3C0 JUMPI PUSH1 0x0 DUP1 REVERT JUMPDEST POP PUSH2 0x3C9 PUSH2 0xB4E JUMP JUMPDEST PUSH1 0x40 MLOAD PUSH2 0x3D6 SWAP2 SWAP1 PUSH2 0x34E3 JUMP JUMPDEST PUSH1 0x40 MLOAD DUP1 SWAP2 SUB SWAP1 RETURN JUMPDEST CALLVALUE DUP1 ISZERO PUSH2 0x3EB JUMPI PUSH1 0x0 DUP1 REVERT JUMPDEST POP PUSH2 0x406 PUSH1 0x4 DUP1 CALLDATASIZE SUB DUP2 ADD SWAP1 PUSH2 0x401 SWAP2 SWAP1 PUSH2 0x353E JUMP JUMPDEST PUSH2 0xB74 JUMP JUMPDEST STOP JUMPDEST CALLVALUE DUP1 ISZERO PUSH2 0x414 JUMPI PUSH1 0x0 DUP1 REVERT JUMPDEST POP PUSH2 0x41D PUSH2 0xBBF JUMP JUMPDEST PUSH1 0x40 MLOAD PUSH2 0x42A SWAP2 SWAP1 PUSH2 0x34A7 JUMP JUMPDEST PUSH1 0x40 MLOAD DUP1 SWAP2 SUB SWAP1 RETURN JUMPDEST CALLVALUE DUP1 ISZERO PUSH2 0x43F JUMPI PUSH1 0x0 DUP1 REVERT JUMPDEST POP PUSH2 0x45A PUSH1 0x4 DUP1 CALLDATASIZE SUB DUP2 ADD SWAP1 PUSH2 0x455 SWAP2 SWAP1 PUSH2 0x353E JUMP JUMPDEST PUSH2 0xECE JUMP JUMPDEST STOP JUMPDEST CALLVALUE DUP1 ISZERO PUSH2 0x468 JUMPI PUSH1 0x0 DUP1 REVERT JUMPDEST POP PUSH2 0x471 PUSH2 0xF1A JUMP JUMPDEST PUSH1 0x40 MLOAD PUSH2 0x47E SWAP2 SWAP1 PUSH2 0x34E3 JUMP JUMPDEST PUSH1 0x40 MLOAD DUP1 SWAP2 SUB SWAP1 RETURN JUMPDEST CALLVALUE DUP1 ISZERO PUSH2 0x493 JUMPI PUSH1 0x0 DUP1 REVERT JUMPDEST POP PUSH2 0x49C PUSH2 0xF3E JUMP JUMPDEST PUSH1 0x40 MLOAD PUSH2 0x4A9 SWAP2 SWAP1 PUSH2 0x34E3 JUMP JUMPDEST PUSH1 0x40 MLOAD DUP1 SWAP2 SUB SWAP1 RETURN JUMPDEST CALLVALUE DUP1 ISZERO PUSH2 0x4BE JUMPI PUSH1 0x0 DUP1 REVERT JUMPDEST POP PUSH2 0x4C7 PUSH2 0xF64 JUMP JUMPDEST STOP JUMPDEST CALLVALUE DUP1 ISZERO PUSH2 0x4D5 JUMPI PUSH1 0x0 DUP1 REVERT JUMPDEST POP PUSH2 0x4DE PUSH2 0x1391 JUMP JUMPDEST PUSH1 0x40 MLOAD PUSH2 0x4EB SWAP2 SWAP1 PUSH2 0x34A7 JUMP JUMPDEST PUSH1 0x40 MLOAD DUP1 SWAP2 SUB SWAP1 RETURN JUMPDEST CALLVALUE DUP1 ISZERO PUSH2 0x500 JUMPI PUSH1 0x0 DUP1 REVERT JUMPDEST POP PUSH2 0x51B PUSH1 0x4 DUP1 CALLDATASIZE SUB DUP2 ADD SWAP1 PUSH2 0x516 SWAP2 SWAP1 PUSH2 0x3656 JUMP JUMPDEST PUSH2 0x1397 JUMP JUMPDEST PUSH1 0x40 MLOAD PUSH2 0x528 SWAP2 SWAP1 PUSH2 0x34A7 JUMP JUMPDEST PUSH1 0x40 MLOAD DUP1 SWAP2 SUB SWAP1 RETURN JUMPDEST PUSH2 0x54B PUSH1 0x4 DUP1 CALLDATASIZE SUB DUP2 ADD SWAP1 PUSH2 0x546 SWAP2 SWAP1 PUSH2 0x3868 JUMP JUMPDEST PUSH2 0x1497 JUMP JUMPDEST PUSH1 0x40 MLOAD PUSH2 0x558 SWAP2 SWAP1 PUSH2 0x360F JUMP JUMPDEST PUSH1 0x40 MLOAD DUP1 SWAP2 SUB SWAP1 RETURN JUMPDEST CALLVALUE DUP1 ISZERO PUSH2 0x56D JUMPI PUSH1 0x0 DUP1 REVERT JUMPDEST POP PUSH2 0x576 PUSH2 0x15F8 JUMP JUMPDEST PUSH1 0x40 MLOAD PUSH2 0x583 SWAP2 SWAP1 PUSH2 0x34A7 JUMP JUMPDEST PUSH1 0x40 MLOAD DUP1 SWAP2 SUB SWAP1 RETURN JUMPDEST CALLVALUE DUP1 ISZERO PUSH2 0x598 JUMPI PUSH1 0x0 DUP1 REVERT JUMPDEST POP PUSH2 0x5A1 PUSH2 0x15FE JUMP JUMPDEST PUSH1 0x40 MLOAD PUSH2 0x5AE SWAP2 SWAP1 PUSH2 0x34E3 JUMP JUMPDEST PUSH1 0x40 MLOAD DUP1 SWAP2 SUB SWAP1 RETURN JUMPDEST CALLVALUE DUP1 ISZERO PUSH2 0x5C3 JUMPI PUSH1 0x0 DUP1 REVERT JUMPDEST POP PUSH2 0x5DE PUSH1 0x4 DUP1 CALLDATASIZE SUB DUP2 ADD SWAP1 PUSH2 0x5D9 SWAP2 SWAP1 PUSH2 0x394E JUMP JUMPDEST PUSH2 0x1624 JUMP JUMPDEST STOP JUMPDEST CALLVALUE DUP1 ISZERO PUSH2 0x5EC JUMPI PUSH1 0x0 DUP1 REVERT JUMPDEST POP PUSH2 0x5F5 PUSH2 0x1765 JUMP JUMPDEST PUSH1 0x40 MLOAD PUSH2 0x602 SWAP2 SWAP1 PUSH2 0x34A7 JUMP JUMPDEST PUSH1 0x40 MLOAD DUP1 SWAP2 SUB SWAP1 RETURN JUMPDEST CALLVALUE DUP1 ISZERO PUSH2 0x617 JUMPI PUSH1 0x0 DUP1 REVERT JUMPDEST POP PUSH2 0x620 PUSH2 0x176A JUMP JUMPDEST PUSH1 0x40 MLOAD PUSH2 0x62D SWAP2 SWAP1 PUSH2 0x3A9D JUMP JUMPDEST PUSH1 0x40 MLOAD DUP1 SWAP2 SUB SWAP1 RETURN JUMPDEST CALLVALUE DUP1 ISZERO PUSH2 0x642 JUMPI PUSH1 0x0 DUP1 REVERT JUMPDEST POP PUSH2 0x65D PUSH1 0x4 DUP1 CALLDATASIZE SUB DUP2 ADD SWAP1 PUSH2 0x658 SWAP2 SWAP1 PUSH2 0x353E JUMP JUMPDEST PUSH2 0x1890 JUMP JUMPDEST STOP JUMPDEST CALLVALUE DUP1 ISZERO PUSH2 0x66B JUMPI PUSH1 0x0 DUP1 REVERT JUMPDEST POP PUSH2 0x686 PUSH1 0x4 DUP1 CALLDATASIZE SUB DUP2 ADD SWAP1 PUSH2 0x681 SWAP2 SWAP1 PUSH2 0x35A3 JUMP JUMPDEST PUSH2 0x18DC JUMP JUMPDEST PUSH1 0x40 MLOAD PUSH2 0x697 SWAP6 SWAP5 SWAP4 SWAP3 SWAP2 SWAP1 PUSH2 0x3ABF JUMP JUMPDEST PUSH1 0x40 MLOAD DUP1 SWAP2 SUB SWAP1 RETURN JUMPDEST CALLVALUE DUP1 ISZERO PUSH2 0x6AC JUMPI PUSH1 0x0 DUP1 REVERT JUMPDEST POP PUSH2 0x6B5 PUSH2 0x19F4 JUMP JUMPDEST PUSH1 0x40 MLOAD PUSH2 0x6C2 SWAP2 SWAP1 PUSH2 0x34E3 JUMP JUMPDEST PUSH1 0x40 MLOAD DUP1 SWAP2 SUB SWAP1 RETURN JUMPDEST PUSH2 0x6E5 PUSH1 0x4 DUP1 CALLDATASIZE SUB DUP2 ADD SWAP1 PUSH2 0x6E0 SWAP2 SWAP1 PUSH2 0x3B12 JUMP JUMPDEST PUSH2 0x1A1A JUMP JUMPDEST PUSH1 0x40 MLOAD PUSH2 0x6F2 SWAP2 SWAP1 PUSH2 0x3C31 JUMP JUMPDEST PUSH1 0x40 MLOAD DUP1 SWAP2 SUB SWAP1 RETURN JUMPDEST CALLVALUE DUP1 ISZERO PUSH2 0x707 JUMPI PUSH1 0x0 DUP1 REVERT JUMPDEST POP PUSH2 0x710 PUSH2 0x1BB4 JUMP JUMPDEST PUSH1 0x40 MLOAD PUSH2 0x71D SWAP2 SWAP1 PUSH2 0x34E3 JUMP JUMPDEST PUSH1 0x40 MLOAD DUP1 SWAP2 SUB SWAP1 RETURN JUMPDEST CALLVALUE DUP1 ISZERO PUSH2 0x732 JUMPI PUSH1 0x0 DUP1 REVERT JUMPDEST POP PUSH2 0x74D PUSH1 0x4 DUP1 CALLDATASIZE SUB DUP2 ADD SWAP1 PUSH2 0x748 SWAP2 SWAP1 PUSH2 0x353E JUMP JUMPDEST PUSH2 0x1BDA JUMP JUMPDEST STOP JUMPDEST CALLVALUE DUP1 ISZERO PUSH2 0x75B JUMPI PUSH1 0x0 DUP1 REVERT JUMPDEST POP PUSH2 0x764 PUSH2 0x1C26 JUMP JUMPDEST STOP JUMPDEST CALLVALUE DUP1 ISZERO PUSH2 0x772 JUMPI PUSH1 0x0 DUP1 REVERT JUMPDEST POP PUSH2 0x77B PUSH2 0x1DCB JUMP JUMPDEST PUSH1 0x40 MLOAD PUSH2 0x788 SWAP2 SWAP1 PUSH2 0x34E3 JUMP JUMPDEST PUSH1 0x40 MLOAD DUP1 SWAP2 SUB SWAP1 RETURN JUMPDEST CALLVALUE DUP1 ISZERO PUSH2 0x79D JUMPI PUSH1 0x0 DUP1 REVERT JUMPDEST POP PUSH2 0x7B8 PUSH1 0x4 DUP1 CALLDATASIZE SUB DUP2 ADD SWAP1 PUSH2 0x7B3 SWAP2 SWAP1 PUSH2 0x353E JUMP JUMPDEST PUSH2 0x1DF1 JUMP JUMPDEST STOP JUMPDEST PUSH2 0x7D4 PUSH1 0x4 DUP1 CALLDATASIZE SUB DUP2 ADD SWAP1 PUSH2 0x7CF SWAP2 SWAP1 PUSH2 0x3C4C JUMP JUMPDEST PUSH2 0x1E3D JUMP JUMPDEST PUSH1 0x40 MLOAD PUSH2 0x7E1 SWAP2 SWAP1 PUSH2 0x360F JUMP JUMPDEST PUSH1 0x40 MLOAD DUP1 SWAP2 SUB SWAP1 RETURN JUMPDEST CALLVALUE DUP1 ISZERO PUSH2 0x7F6 JUMPI PUSH1 0x0 DUP1 REVERT JUMPDEST POP PUSH2 0x7FF PUSH2 0x2175 JUMP JUMPDEST PUSH1 0x40 MLOAD PUSH2 0x80C SWAP2 SWAP1 PUSH2 0x34A7 JUMP JUMPDEST PUSH1 0x40 MLOAD DUP1 SWAP2 SUB SWAP1 RETURN JUMPDEST CALLVALUE DUP1 ISZERO PUSH2 0x821 JUMPI PUSH1 0x0 DUP1 REVERT JUMPDEST POP PUSH2 0x82A PUSH2 0x217B JUMP JUMPDEST PUSH1 0x40 MLOAD PUSH2 0x837 SWAP2 SWAP1 PUSH2 0x34A7 JUMP JUMPDEST PUSH1 0x40 MLOAD DUP1 SWAP2 SUB SWAP1 RETURN JUMPDEST CALLVALUE DUP1 ISZERO PUSH2 0x84C JUMPI PUSH1 0x0 DUP1 REVERT JUMPDEST POP PUSH2 0x867 PUSH1 0x4 DUP1 CALLDATASIZE SUB DUP2 ADD SWAP1 PUSH2 0x862 SWAP2 SWAP1 PUSH2 0x3D47 JUMP JUMPDEST PUSH2 0x2323 JUMP JUMPDEST PUSH1 0x40 MLOAD PUSH2 0x874 SWAP2 SWAP1 PUSH2 0x34A7 JUMP JUMPDEST PUSH1 0x40 MLOAD DUP1 SWAP2 SUB SWAP1 RETURN JUMPDEST CALLVALUE DUP1 ISZERO PUSH2 0x889 JUMPI PUSH1 0x0 DUP1 REVERT JUMPDEST POP PUSH2 0x8A4 PUSH1 0x4 DUP1 CALLDATASIZE SUB DUP2 ADD SWAP1 PUSH2 0x89F SWAP2 SWAP1 PUSH2 0x3DE9 JUMP JUMPDEST PUSH2 0x24F0 JUMP JUMPDEST PUSH1 0x40 MLOAD PUSH2 0x8B2 SWAP3 SWAP2 SWAP1 PUSH2 0x3E50 JUMP JUMPDEST PUSH1 0x40 MLOAD DUP1 SWAP2 SUB SWAP1 RETURN JUMPDEST PUSH2 0x8C3 PUSH2 0x277E JUMP JUMPDEST STOP JUMPDEST CALLVALUE DUP1 ISZERO PUSH2 0x8D1 JUMPI PUSH1 0x0 DUP1 REVERT JUMPDEST POP PUSH2 0x8DA PUSH2 0x2780 JUMP JUMPDEST PUSH1 0x40 MLOAD PUSH2 0x8E7 SWAP2 SWAP1 PUSH2 0x34E3 JUMP JUMPDEST PUSH1 0x40 MLOAD DUP1 SWAP2 SUB SWAP1 RETURN JUMPDEST CALLVALUE DUP1 ISZERO PUSH2 0x8FC JUMPI PUSH1 0x0 DUP1 REVERT JUMPDEST POP PUSH2 0x905 PUSH2 0x27A6 JUMP JUMPDEST PUSH1 0x40 MLOAD PUSH2 0x912 SWAP2 SWAP1 PUSH2 0x34E3 JUMP JUMPDEST PUSH1 0x40 MLOAD DUP1 SWAP2 SUB SWAP1 RETURN JUMPDEST CALLVALUE DUP1 ISZERO PUSH2 0x927 JUMPI PUSH1 0x0 DUP1 REVERT JUMPDEST POP PUSH2 0x930 PUSH2 0x27CA JUMP JUMPDEST PUSH1 0x40 MLOAD PUSH2 0x93D SWAP2 SWAP1 PUSH2 0x3E9A JUMP JUMPDEST PUSH1 0x40 MLOAD DUP1 SWAP2 SUB SWAP1 RETURN JUMPDEST CALLVALUE DUP1 ISZERO PUSH2 0x952 JUMPI PUSH1 0x0 DUP1 REVERT JUMPDEST POP PUSH2 0x96D PUSH1 0x4 DUP1 CALLDATASIZE SUB DUP2 ADD SWAP1 PUSH2 0x968 SWAP2 SWAP1 PUSH2 0x3EB5 JUMP JUMPDEST PUSH2 0x27EE JUMP JUMPDEST PUSH1 0x40 MLOAD PUSH2 0x97C SWAP4 SWAP3 SWAP2 SWAP1 PUSH2 0x3EE2 JUMP JUMPDEST PUSH1 0x40 MLOAD DUP1 SWAP2 SUB SWAP1 RETURN JUMPDEST CALLVALUE DUP1 ISZERO PUSH2 0x991 JUMPI PUSH1 0x0 DUP1 REVERT JUMPDEST POP PUSH2 0x9AC PUSH1 0x4 DUP1 CALLDATASIZE SUB DUP2 ADD SWAP1 PUSH2 0x9A7 SWAP2 SWAP1 PUSH2 0x3F19 JUMP JUMPDEST PUSH2 0x2875 JUMP JUMPDEST PUSH1 0x40 MLOAD PUSH2 0x9B9 SWAP2 SWAP1 PUSH2 0x3C31 JUMP JUMPDEST PUSH1 0x40 MLOAD DUP1 SWAP2 SUB SWAP1 RETURN JUMPDEST CALLVALUE DUP1 ISZERO PUSH2 0x9CE JUMPI PUSH1 0x0 DUP1 REVERT JUMPDEST POP PUSH2 0x9E9 PUSH1 0x4 DUP1 CALLDATASIZE SUB DUP2 ADD SWAP1 PUSH2 0x9E4 SWAP2 SWAP1 PUSH2 0x3F46 JUMP JUMPDEST PUSH2 0x291E JUMP JUMPDEST PUSH1 0x40 MLOAD PUSH2 0x9F6 SWAP2 SWAP1 PUSH2 0x3C31 JUMP JUMPDEST PUSH1 0x40 MLOAD DUP1 SWAP2 SUB SWAP1 RETURN JUMPDEST CALLVALUE DUP1 ISZERO PUSH2 0xA0B JUMPI PUSH1 0x0 DUP1 REVERT JUMPDEST POP PUSH2 0xA26 PUSH1 0x4 DUP1 CALLDATASIZE SUB DUP2 ADD SWAP1 PUSH2 0xA21 SWAP2 SWAP1 PUSH2 0x3EB5 JUMP JUMPDEST PUSH2 0x2AC5 JUMP JUMPDEST STOP JUMPDEST CALLVALUE DUP1 ISZERO PUSH2 0xA34 JUMPI PUSH1 0x0 DUP1 REVERT JUMPDEST POP PUSH2 0xA3D PUSH2 0x2AD7 JUMP JUMPDEST PUSH1 0x40 MLOAD PUSH2 0xA4A SWAP2 SWAP1 PUSH2 0x34A7 JUMP JUMPDEST PUSH1 0x40 MLOAD DUP1 SWAP2 SUB SWAP1 RETURN JUMPDEST PUSH32 0x0 DUP2 JUMP JUMPDEST PUSH1 0x64 DUP2 JUMP JUMPDEST PUSH2 0x2710 DUP2 JUMP JUMPDEST PUSH1 0x1 PUSH1 0x0 SWAP1 SLOAD SWAP1 PUSH2 0x100 EXP SWAP1 DIV PUSH20 0xFFFFFFFFFFFFFFFFFFFFFFFFFFFFFFFFFFFFFFFF AND DUP2 JUMP JUMPDEST PUSH2 0xAB0 PUSH2 0x2BE8 JUMP JUMPDEST DUP1 PUSH1 0x3 PUSH1 0x0 PUSH2 0x100 EXP DUP2 SLOAD DUP2 PUSH20 0xFFFFFFFFFFFFFFFFFFFFFFFFFFFFFFFFFFFFFFFF MUL NOT AND SWAP1 DUP4 PUSH20 0xFFFFFFFFFFFFFFFFFFFFFFFFFFFFFFFFFFFFFFFF AND MUL OR SWAP1 SSTORE POP POP JUMP JUMPDEST PUSH1 0x0 DUP4 DUP4 DUP4 PUSH1 0x40 MLOAD PUSH1 0x20 ADD PUSH2 0xB0B SWAP4 SWAP3 SWAP2 SWAP1 PUSH2 0x4045 JUMP JUMPDEST PUSH1 0x40 MLOAD PUSH1 0x20 DUP2 DUP4 SUB SUB DUP2 MSTORE SWAP1 PUSH1 0x40 MSTORE DUP1 MLOAD SWAP1 PUSH1 0x20 ADD KECCAK256 SWAP1 POP SWAP4 SWAP3 POP POP POP JUMP JUMPDEST PUSH32 0x0 DUP2 JUMP JUMPDEST PUSH1 0x5 PUSH1 0x0 SWAP1 SLOAD SWAP1 PUSH2 0x100 EXP SWAP1 DIV PUSH20 0xFFFFFFFFFFFFFFFFFFFFFFFFFFFFFFFFFFFFFFFF AND DUP2 JUMP JUMPDEST PUSH2 0xB7C PUSH2 0x2BE8 JUMP JUMPDEST DUP1 PUSH1 0x0 DUP1 PUSH2 0x100 EXP DUP2 SLOAD DUP2 PUSH20 0xFFFFFFFFFFFFFFFFFFFFFFFFFFFFFFFFFFFFFFFF MUL NOT AND SWAP1 DUP4 PUSH20 0xFFFFFFFFFFFFFFFFFFFFFFFFFFFFFFFFFFFFFFFF AND MUL OR SWAP1 SSTORE POP POP JUMP JUMPDEST PUSH1 0x0 DUP1 PUSH1 0x0 SWAP1 POP PUSH1 0x0 DUP1 JUMPDEST PUSH1 0xB DUP1 SLOAD SWAP1 POP DUP2 LT ISZERO PUSH2 0xDB4 JUMPI PUSH1 0x0 DUP1 PUSH1 0x0 DUP1 PUSH2 0xCA4 PUSH1 0xB DUP7 DUP2 SLOAD DUP2 LT PUSH2 0xBF4 JUMPI PUSH2 0xBF3 PUSH2 0x4082 JUMP JUMPDEST JUMPDEST SWAP1 PUSH1 0x0 MSTORE PUSH1 0x20 PUSH1 0x0 KECCAK256 SWAP1 PUSH1 0x2 MUL ADD PUSH1 0x0 ADD PUSH1 0x0 SWAP1 SLOAD SWAP1 PUSH2 0x100 EXP SWAP1 DIV PUSH20 0xFFFFFFFFFFFFFFFFFFFFFFFFFFFFFFFFFFFFFFFF AND PUSH1 0xB DUP8 DUP2 SLOAD DUP2 LT PUSH2 0xC3A JUMPI PUSH2 0xC39 PUSH2 0x4082 JUMP JUMPDEST JUMPDEST SWAP1 PUSH1 0x0 MSTORE PUSH1 0x20 PUSH1 0x0 KECCAK256 SWAP1 PUSH1 0x2 MUL ADD PUSH1 0x1 ADD PUSH1 0x0 SWAP1 SLOAD SWAP1 PUSH2 0x100 EXP SWAP1 DIV PUSH20 0xFFFFFFFFFFFFFFFFFFFFFFFFFFFFFFFFFFFFFFFF AND PUSH1 0xB DUP9 DUP2 SLOAD DUP2 LT PUSH2 0xC80 JUMPI PUSH2 0xC7F PUSH2 0x4082 JUMP JUMPDEST JUMPDEST SWAP1 PUSH1 0x0 MSTORE PUSH1 0x20 PUSH1 0x0 KECCAK256 SWAP1 PUSH1 0x2 MUL ADD PUSH1 0x1 ADD PUSH1 0x14 SWAP1 SLOAD SWAP1 PUSH2 0x100 EXP SWAP1 DIV PUSH1 0xFF AND PUSH2 0x18DC JUMP JUMPDEST POP SWAP4 POP SWAP4 POP SWAP4 POP SWAP4 POP PUSH1 0x0 DUP4 GT ISZERO PUSH2 0xD9D JUMPI PUSH2 0xD81 PUSH1 0xB DUP7 DUP2 SLOAD DUP2 LT PUSH2 0xCCD JUMPI PUSH2 0xCCC PUSH2 0x4082 JUMP JUMPDEST JUMPDEST SWAP1 PUSH1 0x0 MSTORE PUSH1 0x20 PUSH1 0x0 KECCAK256 SWAP1 PUSH1 0x2 MUL ADD PUSH1 0x0 ADD PUSH1 0x0 SWAP1 SLOAD SWAP1 PUSH2 0x100 EXP SWAP1 DIV PUSH20 0xFFFFFFFFFFFFFFFFFFFFFFFFFFFFFFFFFFFFFFFF AND PUSH1 0xB DUP8 DUP2 SLOAD DUP2 LT PUSH2 0xD13 JUMPI PUSH2 0xD12 PUSH2 0x4082 JUMP JUMPDEST JUMPDEST SWAP1 PUSH1 0x0 MSTORE PUSH1 0x20 PUSH1 0x0 KECCAK256 SWAP1 PUSH1 0x2 MUL ADD PUSH1 0x1 ADD PUSH1 0x0 SWAP1 SLOAD SWAP1 PUSH2 0x100 EXP SWAP1 DIV PUSH20 0xFFFFFFFFFFFFFFFFFFFFFFFFFFFFFFFFFFFFFFFF AND PUSH1 0xB DUP9 DUP2 SLOAD DUP2 LT PUSH2 0xD59 JUMPI PUSH2 0xD58 PUSH2 0x4082 JUMP JUMPDEST JUMPDEST SWAP1 PUSH1 0x0 MSTORE PUSH1 0x20 PUSH1 0x0 KECCAK256 SWAP1 PUSH1 0x2 MUL ADD PUSH1 0x1 ADD PUSH1 0x14 SWAP1 SLOAD SWAP1 PUSH2 0x100 EXP SWAP1 DIV PUSH1 0xFF AND DUP7 DUP9 DUP8 DUP8 PUSH2 0x2323 JUMP JUMPDEST DUP8 PUSH2 0xD8C SWAP2 SWAP1 PUSH2 0x40E0 JUMP JUMPDEST SWAP7 POP DUP4 DUP7 PUSH2 0xD9A SWAP2 SWAP1 PUSH2 0x40E0 JUMP JUMPDEST SWAP6 POP JUMPDEST POP POP POP POP DUP1 DUP1 PUSH2 0xDAC SWAP1 PUSH2 0x4114 JUMP JUMPDEST SWAP2 POP POP PUSH2 0xBCA JUMP JUMPDEST POP PUSH1 0x0 PUSH1 0x3 PUSH1 0x0 SWAP1 SLOAD SWAP1 PUSH2 0x100 EXP SWAP1 DIV PUSH20 0xFFFFFFFFFFFFFFFFFFFFFFFFFFFFFFFFFFFFFFFF AND PUSH20 0xFFFFFFFFFFFFFFFFFFFFFFFFFFFFFFFFFFFFFFFF AND PUSH4 0xDB1E4FF8 PUSH1 0x8 PUSH1 0x0 SWAP1 SLOAD SWAP1 PUSH2 0x100 EXP SWAP1 DIV PUSH20 0xFFFFFFFFFFFFFFFFFFFFFFFFFFFFFFFFFFFFFFFF AND PUSH1 0x40 MLOAD DUP3 PUSH4 0xFFFFFFFF AND PUSH1 0xE0 SHL DUP2 MSTORE PUSH1 0x4 ADD PUSH2 0xE34 SWAP2 SWAP1 PUSH2 0x34E3 JUMP JUMPDEST PUSH1 0x20 PUSH1 0x40 MLOAD DUP1 DUP4 SUB DUP2 DUP7 GAS STATICCALL ISZERO DUP1 ISZERO PUSH2 0xE51 JUMPI RETURNDATASIZE PUSH1 0x0 DUP1 RETURNDATACOPY RETURNDATASIZE PUSH1 0x0 REVERT JUMPDEST POP POP POP POP PUSH1 0x40 MLOAD RETURNDATASIZE PUSH1 0x1F NOT PUSH1 0x1F DUP3 ADD AND DUP3 ADD DUP1 PUSH1 0x40 MSTORE POP DUP2 ADD SWAP1 PUSH2 0xE75 SWAP2 SWAP1 PUSH2 0x4171 JUMP JUMPDEST SWAP1 POP PUSH2 0xEC3 DUP2 PUSH2 0xEB5 PUSH2 0xEA6 PUSH2 0x2710 PUSH2 0xE98 PUSH1 0x64 DUP9 PUSH2 0x2C7A SWAP1 SWAP2 SWAP1 PUSH4 0xFFFFFFFF AND JUMP JUMPDEST PUSH2 0x2CF4 SWAP1 SWAP2 SWAP1 PUSH4 0xFFFFFFFF AND JUMP JUMPDEST DUP7 PUSH2 0x2D3E SWAP1 SWAP2 SWAP1 PUSH4 0xFFFFFFFF AND JUMP JUMPDEST PUSH2 0x2D3E SWAP1 SWAP2 SWAP1 PUSH4 0xFFFFFFFF AND JUMP JUMPDEST SWAP3 POP DUP3 SWAP4 POP POP POP POP SWAP1 JUMP JUMPDEST PUSH2 0xED6 PUSH2 0x2BE8 JUMP JUMPDEST DUP1 PUSH1 0x5 PUSH1 0x0 PUSH2 0x100 EXP DUP2 SLOAD DUP2 PUSH20 0xFFFFFFFFFFFFFFFFFFFFFFFFFFFFFFFFFFFFFFFF MUL NOT AND SWAP1 DUP4 PUSH20 0xFFFFFFFFFFFFFFFFFFFFFFFFFFFFFFFFFFFFFFFF AND MUL OR SWAP1 SSTORE POP POP JUMP JUMPDEST PUSH32 0x0 DUP2 JUMP JUMPDEST PUSH1 0x2 PUSH1 0x0 SWAP1 SLOAD SWAP1 PUSH2 0x100 EXP SWAP1 DIV PUSH20 0xFFFFFFFFFFFFFFFFFFFFFFFFFFFFFFFFFFFFFFFF AND DUP2 JUMP JUMPDEST PUSH1 0x0 PUSH2 0xF6E PUSH2 0x2AD7 JUMP JUMPDEST SWAP1 POP PUSH2 0x2710 DUP2 LT PUSH2 0xFB4 JUMPI PUSH1 0x40 MLOAD PUSH32 0x8C379A000000000000000000000000000000000000000000000000000000000 DUP2 MSTORE PUSH1 0x4 ADD PUSH2 0xFAB SWAP1 PUSH2 0x41FB JUMP JUMPDEST PUSH1 0x40 MLOAD DUP1 SWAP2 SUB SWAP1 REVERT JUMPDEST PUSH1 0x0 JUMPDEST PUSH1 0xB DUP1 SLOAD SWAP1 POP DUP2 LT ISZERO PUSH2 0x138D JUMPI PUSH1 0x0 DUP1 PUSH1 0x0 DUP1 PUSH2 0x1091 PUSH1 0xB DUP7 DUP2 SLOAD DUP2 LT PUSH2 0xFE1 JUMPI PUSH2 0xFE0 PUSH2 0x4082 JUMP JUMPDEST JUMPDEST SWAP1 PUSH1 0x0 MSTORE PUSH1 0x20 PUSH1 0x0 KECCAK256 SWAP1 PUSH1 0x2 MUL ADD PUSH1 0x0 ADD PUSH1 0x0 SWAP1 SLOAD SWAP1 PUSH2 0x100 EXP SWAP1 DIV PUSH20 0xFFFFFFFFFFFFFFFFFFFFFFFFFFFFFFFFFFFFFFFF AND PUSH1 0xB DUP8 DUP2 SLOAD DUP2 LT PUSH2 0x1027 JUMPI PUSH2 0x1026 PUSH2 0x4082 JUMP JUMPDEST JUMPDEST SWAP1 PUSH1 0x0 MSTORE PUSH1 0x20 PUSH1 0x0 KECCAK256 SWAP1 PUSH1 0x2 MUL ADD PUSH1 0x1 ADD PUSH1 0x0 SWAP1 SLOAD SWAP1 PUSH2 0x100 EXP SWAP1 DIV PUSH20 0xFFFFFFFFFFFFFFFFFFFFFFFFFFFFFFFFFFFFFFFF AND PUSH1 0xB DUP9 DUP2 SLOAD DUP2 LT PUSH2 0x106D JUMPI PUSH2 0x106C PUSH2 0x4082 JUMP JUMPDEST JUMPDEST SWAP1 PUSH1 0x0 MSTORE PUSH1 0x20 PUSH1 0x0 KECCAK256 SWAP1 PUSH1 0x2 MUL ADD PUSH1 0x1 ADD PUSH1 0x14 SWAP1 SLOAD SWAP1 PUSH2 0x100 EXP SWAP1 DIV PUSH1 0xFF AND PUSH2 0x18DC JUMP JUMPDEST POP SWAP4 POP SWAP4 POP SWAP4 POP SWAP4 POP PUSH1 0x0 DUP4 GT ISZERO PUSH2 0x1376 JUMPI PUSH1 0x0 PUSH2 0x1170 PUSH1 0xB DUP8 DUP2 SLOAD DUP2 LT PUSH2 0x10BC JUMPI PUSH2 0x10BB PUSH2 0x4082 JUMP JUMPDEST JUMPDEST SWAP1 PUSH1 0x0 MSTORE PUSH1 0x20 PUSH1 0x0 KECCAK256 SWAP1 PUSH1 0x2 MUL ADD PUSH1 0x0 ADD PUSH1 0x0 SWAP1 SLOAD SWAP1 PUSH2 0x100 EXP SWAP1 DIV PUSH20 0xFFFFFFFFFFFFFFFFFFFFFFFFFFFFFFFFFFFFFFFF AND PUSH1 0xB DUP9 DUP2 SLOAD DUP2 LT PUSH2 0x1102 JUMPI PUSH2 0x1101 PUSH2 0x4082 JUMP JUMPDEST JUMPDEST SWAP1 PUSH1 0x0 MSTORE PUSH1 0x20 PUSH1 0x0 KECCAK256 SWAP1 PUSH1 0x2 MUL ADD PUSH1 0x1 ADD PUSH1 0x0 SWAP1 SLOAD SWAP1 PUSH2 0x100 EXP SWAP1 DIV PUSH20 0xFFFFFFFFFFFFFFFFFFFFFFFFFFFFFFFFFFFFFFFF AND PUSH1 0xB DUP10 DUP2 SLOAD DUP2 LT PUSH2 0x1148 JUMPI PUSH2 0x1147 PUSH2 0x4082 JUMP JUMPDEST JUMPDEST SWAP1 PUSH1 0x0 MSTORE PUSH1 0x20 PUSH1 0x0 KECCAK256 SWAP1 PUSH1 0x2 MUL ADD PUSH1 0x1 ADD PUSH1 0x14 SWAP1 SLOAD SWAP1 PUSH2 0x100 EXP SWAP1 DIV PUSH1 0xFF AND DUP8 DUP10 DUP9 DUP9 PUSH2 0x2323 JUMP JUMPDEST SWAP1 POP PUSH1 0x0 PUSH1 0xB DUP8 DUP2 SLOAD DUP2 LT PUSH2 0x1188 JUMPI PUSH2 0x1187 PUSH2 0x4082 JUMP JUMPDEST JUMPDEST SWAP1 PUSH1 0x0 MSTORE PUSH1 0x20 PUSH1 0x0 KECCAK256 SWAP1 PUSH1 0x2 MUL ADD PUSH1 0x1 ADD PUSH1 0x14 SWAP1 SLOAD SWAP1 PUSH2 0x100 EXP SWAP1 DIV PUSH1 0xFF AND PUSH2 0x12A4 JUMPI PUSH2 0x129F PUSH1 0x2 PUSH1 0x7 PUSH1 0x0 SWAP1 SLOAD SWAP1 PUSH2 0x100 EXP SWAP1 DIV PUSH20 0xFFFFFFFFFFFFFFFFFFFFFFFFFFFFFFFFFFFFFFFF AND PUSH20 0xFFFFFFFFFFFFFFFFFFFFFFFFFFFFFFFFFFFFFFFF AND PUSH4 0xE124E6D2 PUSH1 0xB DUP12 DUP2 SLOAD DUP2 LT PUSH2 0x1202 JUMPI PUSH2 0x1201 PUSH2 0x4082 JUMP JUMPDEST JUMPDEST SWAP1 PUSH1 0x0 MSTORE PUSH1 0x20 PUSH1 0x0 KECCAK256 SWAP1 PUSH1 0x2 MUL ADD PUSH1 0x0 ADD PUSH1 0x0 SWAP1 SLOAD SWAP1 PUSH2 0x100 EXP SWAP1 DIV PUSH20 0xFFFFFFFFFFFFFFFFFFFFFFFFFFFFFFFFFFFFFFFF AND PUSH1 0x40 MLOAD DUP3 PUSH4 0xFFFFFFFF AND PUSH1 0xE0 SHL DUP2 MSTORE PUSH1 0x4 ADD PUSH2 0x1250 SWAP2 SWAP1 PUSH2 0x34E3 JUMP JUMPDEST PUSH1 0x20 PUSH1 0x40 MLOAD DUP1 DUP4 SUB DUP2 DUP7 GAS STATICCALL ISZERO DUP1 ISZERO PUSH2 0x126D JUMPI RETURNDATASIZE PUSH1 0x0 DUP1 RETURNDATACOPY RETURNDATASIZE PUSH1 0x0 REVERT JUMPDEST POP POP POP POP PUSH1 0x40 MLOAD RETURNDATASIZE PUSH1 0x1F NOT PUSH1 0x1F DUP3 ADD AND DUP3 ADD DUP1 PUSH1 0x40 MSTORE POP DUP2 ADD SWAP1 PUSH2 0x1291 SWAP2 SWAP1 PUSH2 0x4171 JUMP JUMPDEST PUSH2 0x2C7A SWAP1 SWAP2 SWAP1 PUSH4 0xFFFFFFFF AND JUMP JUMPDEST PUSH2 0x12A7 JUMP JUMPDEST PUSH1 0x0 JUMPDEST SWAP1 POP PUSH2 0x1373 PUSH1 0xB DUP9 DUP2 SLOAD DUP2 LT PUSH2 0x12C0 JUMPI PUSH2 0x12BF PUSH2 0x4082 JUMP JUMPDEST JUMPDEST SWAP1 PUSH1 0x0 MSTORE PUSH1 0x20 PUSH1 0x0 KECCAK256 SWAP1 PUSH1 0x2 MUL ADD PUSH1 0x0 ADD PUSH1 0x0 SWAP1 SLOAD SWAP1 PUSH2 0x100 EXP SWAP1 DIV PUSH20 0xFFFFFFFFFFFFFFFFFFFFFFFFFFFFFFFFFFFFFFFF AND PUSH1 0xB DUP10 DUP2 SLOAD DUP2 LT PUSH2 0x1306 JUMPI PUSH2 0x1305 PUSH2 0x4082 JUMP JUMPDEST JUMPDEST SWAP1 PUSH1 0x0 MSTORE PUSH1 0x20 PUSH1 0x0 KECCAK256 SWAP1 PUSH1 0x2 MUL ADD PUSH1 0x1 ADD PUSH1 0x0 SWAP1 SLOAD SWAP1 PUSH2 0x100 EXP SWAP1 DIV PUSH20 0xFFFFFFFFFFFFFFFFFFFFFFFFFFFFFFFFFFFFFFFF AND PUSH1 0xB DUP11 DUP2 SLOAD DUP2 LT PUSH2 0x134C JUMPI PUSH2 0x134B PUSH2 0x4082 JUMP JUMPDEST JUMPDEST SWAP1 PUSH1 0x0 MSTORE PUSH1 0x20 PUSH1 0x0 KECCAK256 SWAP1 PUSH1 0x2 MUL ADD PUSH1 0x1 ADD PUSH1 0x14 SWAP1 SLOAD SWAP1 PUSH2 0x100 EXP SWAP1 DIV PUSH1 0xFF AND DUP10 DUP7 DUP7 PUSH2 0x2D88 JUMP JUMPDEST POP POP JUMPDEST POP POP POP POP DUP1 DUP1 PUSH2 0x1385 SWAP1 PUSH2 0x4114 JUMP JUMPDEST SWAP2 POP POP PUSH2 0xFB7 JUMP JUMPDEST POP POP JUMP JUMPDEST PUSH1 0x9 SLOAD DUP2 JUMP JUMPDEST PUSH1 0x0 DUP1 DUP6 SUB PUSH2 0x13A9 JUMPI PUSH1 0x0 SWAP1 POP PUSH2 0x148D JUMP JUMPDEST PUSH1 0x0 DUP1 PUSH1 0x7 PUSH1 0x0 SWAP1 SLOAD SWAP1 PUSH2 0x100 EXP SWAP1 DIV PUSH20 0xFFFFFFFFFFFFFFFFFFFFFFFFFFFFFFFFFFFFFFFF AND PUSH20 0xFFFFFFFFFFFFFFFFFFFFFFFFFFFFFFFFFFFFFFFF AND PUSH4 0x5C07EAAB DUP11 DUP9 DUP9 DUP13 DUP10 PUSH1 0x40 MLOAD DUP7 PUSH4 0xFFFFFFFF AND PUSH1 0xE0 SHL DUP2 MSTORE PUSH1 0x4 ADD PUSH2 0x140F SWAP6 SWAP5 SWAP4 SWAP3 SWAP2 SWAP1 PUSH2 0x421B JUMP JUMPDEST PUSH1 0x40 DUP1 MLOAD DUP1 DUP4 SUB DUP2 DUP7 GAS STATICCALL ISZERO DUP1 ISZERO PUSH2 0x142B JUMPI RETURNDATASIZE PUSH1 0x0 DUP1 RETURNDATACOPY RETURNDATASIZE PUSH1 0x0 REVERT JUMPDEST POP POP POP POP PUSH1 0x40 MLOAD RETURNDATASIZE PUSH1 0x1F NOT PUSH1 0x1F DUP3 ADD AND DUP3 ADD DUP1 PUSH1 0x40 MSTORE POP DUP2 ADD SWAP1 PUSH2 0x144F SWAP2 SWAP1 PUSH2 0x4283 JUMP JUMPDEST SWAP2 POP SWAP2 POP DUP2 ISZERO PUSH2 0x1475 JUMPI PUSH2 0x146C DUP2 DUP9 PUSH2 0x2E18 SWAP1 SWAP2 SWAP1 PUSH4 0xFFFFFFFF AND JUMP JUMPDEST SWAP3 POP POP POP PUSH2 0x148D JUMP JUMPDEST PUSH2 0x1488 DUP2 DUP9 PUSH2 0x2D3E SWAP1 SWAP2 SWAP1 PUSH4 0xFFFFFFFF AND JUMP JUMPDEST SWAP3 POP POP POP JUMPDEST SWAP7 SWAP6 POP POP POP POP POP POP JUMP JUMPDEST PUSH1 0x0 PUSH1 0x8 PUSH1 0x0 SWAP1 SLOAD SWAP1 PUSH2 0x100 EXP SWAP1 DIV PUSH20 0xFFFFFFFFFFFFFFFFFFFFFFFFFFFFFFFFFFFFFFFF AND PUSH20 0xFFFFFFFFFFFFFFFFFFFFFFFFFFFFFFFFFFFFFFFF AND CALLER PUSH20 0xFFFFFFFFFFFFFFFFFFFFFFFFFFFFFFFFFFFFFFFF AND EQ PUSH2 0x1529 JUMPI PUSH1 0x40 MLOAD PUSH32 0x8C379A000000000000000000000000000000000000000000000000000000000 DUP2 MSTORE PUSH1 0x4 ADD PUSH2 0x1520 SWAP1 PUSH2 0x4335 JUMP JUMPDEST PUSH1 0x40 MLOAD DUP1 SWAP2 SUB SWAP1 REVERT JUMPDEST PUSH2 0x1534 DUP11 DUP11 DUP9 PUSH2 0x2E76 JUMP JUMPDEST PUSH1 0x0 PUSH1 0x4 PUSH1 0x0 SWAP1 SLOAD SWAP1 PUSH2 0x100 EXP SWAP1 DIV PUSH20 0xFFFFFFFFFFFFFFFFFFFFFFFFFFFFFFFFFFFFFFFF AND SWAP1 POP DUP1 PUSH20 0xFFFFFFFFFFFFFFFFFFFFFFFFFFFFFFFFFFFFFFFF AND PUSH4 0x5B88E8C6 CALLVALUE DUP14 DUP14 DUP14 DUP14 DUP14 DUP14 DUP14 DUP14 DUP14 PUSH1 0x40 MLOAD DUP12 PUSH4 0xFFFFFFFF AND PUSH1 0xE0 SHL DUP2 MSTORE PUSH1 0x4 ADD PUSH2 0x15A5 SWAP10 SWAP9 SWAP8 SWAP7 SWAP6 SWAP5 SWAP4 SWAP3 SWAP2 SWAP1 PUSH2 0x4404 JUMP JUMPDEST PUSH1 0x20 PUSH1 0x40 MLOAD DUP1 DUP4 SUB DUP2 DUP6 DUP9 GAS CALL ISZERO DUP1 ISZERO PUSH2 0x15C3 JUMPI RETURNDATASIZE PUSH1 0x0 DUP1 RETURNDATACOPY RETURNDATASIZE PUSH1 0x0 REVERT JUMPDEST POP POP POP POP POP PUSH1 0x40 MLOAD RETURNDATASIZE PUSH1 0x1F NOT PUSH1 0x1F DUP3 ADD AND DUP3 ADD DUP1 PUSH1 0x40 MSTORE POP DUP2 ADD SWAP1 PUSH2 0x15E8 SWAP2 SWAP1 PUSH2 0x44AD JUMP JUMPDEST SWAP2 POP POP SWAP10 SWAP9 POP POP POP POP POP POP POP POP POP JUMP JUMPDEST PUSH2 0x2AF8 DUP2 JUMP JUMPDEST PUSH1 0x3 PUSH1 0x0 SWAP1 SLOAD SWAP1 PUSH2 0x100 EXP SWAP1 DIV PUSH20 0xFFFFFFFFFFFFFFFFFFFFFFFFFFFFFFFFFFFFFFFF AND DUP2 JUMP JUMPDEST PUSH32 0x0 PUSH20 0xFFFFFFFFFFFFFFFFFFFFFFFFFFFFFFFFFFFFFFFF AND CALLER PUSH20 0xFFFFFFFFFFFFFFFFFFFFFFFFFFFFFFFFFFFFFFFF AND EQ PUSH2 0x16B2 JUMPI PUSH1 0x40 MLOAD PUSH32 0x8C379A000000000000000000000000000000000000000000000000000000000 DUP2 MSTORE PUSH1 0x4 ADD PUSH2 0x16A9 SWAP1 PUSH2 0x454C JUMP JUMPDEST PUSH1 0x40 MLOAD DUP1 SWAP2 SUB SWAP1 REVERT JUMPDEST PUSH32 0x0 PUSH20 0xFFFFFFFFFFFFFFFFFFFFFFFFFFFFFFFFFFFFFFFF AND PUSH4 0x1C20FADD PUSH32 0x0 DUP4 DUP6 PUSH1 0x40 MLOAD DUP5 PUSH4 0xFFFFFFFF AND PUSH1 0xE0 SHL DUP2 MSTORE PUSH1 0x4 ADD PUSH2 0x172F SWAP4 SWAP3 SWAP2 SWAP1 PUSH2 0x458D JUMP JUMPDEST PUSH1 0x0 PUSH1 0x40 MLOAD DUP1 DUP4 SUB DUP2 PUSH1 0x0 DUP8 DUP1 EXTCODESIZE ISZERO DUP1 ISZERO PUSH2 0x1749 JUMPI PUSH1 0x0 DUP1 REVERT JUMPDEST POP GAS CALL ISZERO DUP1 ISZERO PUSH2 0x175D JUMPI RETURNDATASIZE PUSH1 0x0 DUP1 RETURNDATACOPY RETURNDATASIZE PUSH1 0x0 REVERT JUMPDEST POP POP POP POP POP POP JUMP JUMPDEST PUSH1 0x64 DUP2 JUMP JUMPDEST PUSH1 0x60 PUSH1 0xB DUP1 SLOAD DUP1 PUSH1 0x20 MUL PUSH1 0x20 ADD PUSH1 0x40 MLOAD SWAP1 DUP2 ADD PUSH1 0x40 MSTORE DUP1 SWAP3 SWAP2 SWAP1 DUP2 DUP2 MSTORE PUSH1 0x20 ADD PUSH1 0x0 SWAP1 JUMPDEST DUP3 DUP3 LT ISZERO PUSH2 0x1887 JUMPI DUP4 DUP3 SWAP1 PUSH1 0x0 MSTORE PUSH1 0x20 PUSH1 0x0 KECCAK256 SWAP1 PUSH1 0x2 MUL ADD PUSH1 0x40 MLOAD DUP1 PUSH1 0x60 ADD PUSH1 0x40 MSTORE SWAP1 DUP2 PUSH1 0x0 DUP3 ADD PUSH1 0x0 SWAP1 SLOAD SWAP1 PUSH2 0x100 EXP SWAP1 DIV PUSH20 0xFFFFFFFFFFFFFFFFFFFFFFFFFFFFFFFFFFFFFFFF AND PUSH20 0xFFFFFFFFFFFFFFFFFFFFFFFFFFFFFFFFFFFFFFFF AND PUSH20 0xFFFFFFFFFFFFFFFFFFFFFFFFFFFFFFFFFFFFFFFF AND DUP2 MSTORE PUSH1 0x20 ADD PUSH1 0x1 DUP3 ADD PUSH1 0x0 SWAP1 SLOAD SWAP1 PUSH2 0x100 EXP SWAP1 DIV PUSH20 0xFFFFFFFFFFFFFFFFFFFFFFFFFFFFFFFFFFFFFFFF AND PUSH20 0xFFFFFFFFFFFFFFFFFFFFFFFFFFFFFFFFFFFFFFFF AND PUSH20 0xFFFFFFFFFFFFFFFFFFFFFFFFFFFFFFFFFFFFFFFF AND DUP2 MSTORE PUSH1 0x20 ADD PUSH1 0x1 DUP3 ADD PUSH1 0x14 SWAP1 SLOAD SWAP1 PUSH2 0x100 EXP SWAP1 DIV PUSH1 0xFF AND ISZERO ISZERO ISZERO ISZERO DUP2 MSTORE POP POP DUP2 MSTORE PUSH1 0x20 ADD SWAP1 PUSH1 0x1 ADD SWAP1 PUSH2 0x178E JUMP JUMPDEST POP POP POP POP SWAP1 POP SWAP1 JUMP JUMPDEST PUSH2 0x1898 PUSH2 0x2BE8 JUMP JUMPDEST DUP1 PUSH1 0x7 PUSH1 0x0 PUSH2 0x100 EXP DUP2 SLOAD DUP2 PUSH20 0xFFFFFFFFFFFFFFFFFFFFFFFFFFFFFFFFFFFFFFFF MUL NOT AND SWAP1 DUP4 PUSH20 0xFFFFFFFFFFFFFFFFFFFFFFFFFFFFFFFFFFFFFFFF AND MUL OR SWAP1 SSTORE POP POP JUMP JUMPDEST PUSH1 0x0 DUP1 PUSH1 0x0 DUP1 PUSH1 0x0 PUSH2 0x18EC PUSH2 0x33AF JUMP JUMPDEST PUSH1 0x7 PUSH1 0x0 SWAP1 SLOAD SWAP1 PUSH2 0x100 EXP SWAP1 DIV PUSH20 0xFFFFFFFFFFFFFFFFFFFFFFFFFFFFFFFFFFFFFFFF AND PUSH20 0xFFFFFFFFFFFFFFFFFFFFFFFFFFFFFFFFFFFFFFFF AND PUSH4 0x4A3F088D ADDRESS DUP11 DUP13 DUP12 PUSH1 0x40 MLOAD DUP6 PUSH4 0xFFFFFFFF AND PUSH1 0xE0 SHL DUP2 MSTORE PUSH1 0x4 ADD PUSH2 0x194D SWAP5 SWAP4 SWAP3 SWAP2 SWAP1 PUSH2 0x45C4 JUMP JUMPDEST PUSH2 0x100 PUSH1 0x40 MLOAD DUP1 DUP4 SUB DUP2 DUP7 GAS STATICCALL ISZERO DUP1 ISZERO PUSH2 0x196B JUMPI RETURNDATASIZE PUSH1 0x0 DUP1 RETURNDATACOPY RETURNDATASIZE PUSH1 0x0 REVERT JUMPDEST POP POP POP POP PUSH1 0x40 MLOAD RETURNDATASIZE PUSH1 0x1F NOT PUSH1 0x1F DUP3 ADD AND DUP3 ADD DUP1 PUSH1 0x40 MSTORE POP DUP2 ADD SWAP1 PUSH2 0x198F SWAP2 SWAP1 PUSH2 0x4609 JUMP JUMPDEST SWAP1 SWAP2 SWAP3 POP SWAP1 SWAP2 POP SWAP1 POP DUP6 PUSH1 0x0 ADD DUP7 PUSH1 0x20 ADD DUP8 PUSH1 0x40 ADD DUP9 PUSH1 0x60 ADD DUP10 PUSH1 0xC0 ADD DUP6 DUP2 MSTORE POP DUP6 DUP2 MSTORE POP DUP6 DUP2 MSTORE POP DUP6 DUP2 MSTORE POP DUP6 DUP2 MSTORE POP POP POP POP POP POP DUP1 PUSH1 0x0 ADD MLOAD DUP2 PUSH1 0x20 ADD MLOAD DUP3 PUSH1 0x40 ADD MLOAD DUP4 PUSH1 0x60 ADD MLOAD DUP5 PUSH1 0xC0 ADD MLOAD SWAP6 POP SWAP6 POP SWAP6 POP SWAP6 POP SWAP6 POP POP SWAP4 SWAP8 SWAP3 SWAP7 POP SWAP4 POP SWAP4 POP JUMP JUMPDEST PUSH1 0x8 PUSH1 0x0 SWAP1 SLOAD SWAP1 PUSH2 0x100 EXP SWAP1 DIV PUSH20 0xFFFFFFFFFFFFFFFFFFFFFFFFFFFFFFFFFFFFFFFF AND DUP2 JUMP JUMPDEST PUSH1 0x0 PUSH1 0x8 PUSH1 0x0 SWAP1 SLOAD SWAP1 PUSH2 0x100 EXP SWAP1 DIV PUSH20 0xFFFFFFFFFFFFFFFFFFFFFFFFFFFFFFFFFFFFFFFF AND PUSH20 0xFFFFFFFFFFFFFFFFFFFFFFFFFFFFFFFFFFFFFFFF AND CALLER PUSH20 0xFFFFFFFFFFFFFFFFFFFFFFFFFFFFFFFFFFFFFFFF AND EQ DUP1 PUSH2 0x1AC5 JUMPI POP PUSH1 0x3 PUSH1 0x0 SWAP1 SLOAD SWAP1 PUSH2 0x100 EXP SWAP1 DIV PUSH20 0xFFFFFFFFFFFFFFFFFFFFFFFFFFFFFFFFFFFFFFFF AND PUSH20 0xFFFFFFFFFFFFFFFFFFFFFFFFFFFFFFFFFFFFFFFF AND CALLER PUSH20 0xFFFFFFFFFFFFFFFFFFFFFFFFFFFFFFFFFFFFFFFF AND EQ JUMPDEST PUSH2 0x1B04 JUMPI PUSH1 0x40 MLOAD PUSH32 0x8C379A000000000000000000000000000000000000000000000000000000000 DUP2 MSTORE PUSH1 0x4 ADD PUSH2 0x1AFB SWAP1 PUSH2 0x4731 JUMP JUMPDEST PUSH1 0x40 MLOAD DUP1 SWAP2 SUB SWAP1 REVERT JUMPDEST DUP4 CALLVALUE EQ PUSH2 0x1B46 JUMPI PUSH1 0x40 MLOAD PUSH32 0x8C379A000000000000000000000000000000000000000000000000000000000 DUP2 MSTORE PUSH1 0x4 ADD PUSH2 0x1B3D SWAP1 PUSH2 0x479D JUMP JUMPDEST PUSH1 0x40 MLOAD DUP1 SWAP2 SUB SWAP1 REVERT JUMPDEST PUSH2 0x1B51 DUP12 DUP14 DUP11 PUSH2 0x291E JUMP JUMPDEST PUSH2 0x1B90 JUMPI PUSH1 0x40 MLOAD PUSH32 0x8C379A000000000000000000000000000000000000000000000000000000000 DUP2 MSTORE PUSH1 0x4 ADD PUSH2 0x1B87 SWAP1 PUSH2 0x482F JUMP JUMPDEST PUSH1 0x40 MLOAD DUP1 SWAP2 SUB SWAP1 REVERT JUMPDEST PUSH2 0x1BA3 DUP13 DUP13 DUP13 DUP13 DUP13 DUP13 DUP13 DUP13 DUP13 DUP13 DUP13 PUSH2 0x3039 JUMP JUMPDEST SWAP1 POP SWAP12 SWAP11 POP POP POP POP POP POP POP POP POP POP POP JUMP JUMPDEST PUSH1 0x6 PUSH1 0x0 SWAP1 SLOAD SWAP1 PUSH2 0x100 EXP SWAP1 DIV PUSH20 0xFFFFFFFFFFFFFFFFFFFFFFFFFFFFFFFFFFFFFFFF AND DUP2 JUMP JUMPDEST PUSH2 0x1BE2 PUSH2 0x2BE8 JUMP JUMPDEST DUP1 PUSH1 0x4 PUSH1 0x0 PUSH2 0x100 EXP DUP2 SLOAD DUP2 PUSH20 0xFFFFFFFFFFFFFFFFFFFFFFFFFFFFFFFFFFFFFFFF MUL NOT AND SWAP1 DUP4 PUSH20 0xFFFFFFFFFFFFFFFFFFFFFFFFFFFFFFFFFFFFFFFF AND MUL OR SWAP1 SSTORE POP POP JUMP JUMPDEST PUSH1 0x0 ADDRESS PUSH20 0xFFFFFFFFFFFFFFFFFFFFFFFFFFFFFFFFFFFFFFFF AND PUSH4 0x584EDF10 PUSH1 0x40 MLOAD PUSH1 0x24 ADD PUSH1 0x40 MLOAD PUSH1 0x20 DUP2 DUP4 SUB SUB DUP2 MSTORE SWAP1 PUSH1 0x40 MSTORE SWAP2 POP PUSH1 0xE0 SHL PUSH1 0x20 DUP3 ADD DUP1 MLOAD PUSH28 0xFFFFFFFFFFFFFFFFFFFFFFFFFFFFFFFFFFFFFFFFFFFFFFFFFFFFFFFF DUP4 DUP2 DUP4 AND OR DUP4 MSTORE POP POP POP POP SWAP1 POP PUSH1 0x0 PUSH1 0x40 MLOAD DUP1 PUSH1 0x40 ADD PUSH1 0x40 MSTORE DUP1 PUSH1 0x1 PUSH8 0xFFFFFFFFFFFFFFFF DUP2 GT ISZERO PUSH2 0x1CB6 JUMPI PUSH2 0x1CB5 PUSH2 0x36F9 JUMP JUMPDEST JUMPDEST PUSH1 0x40 MLOAD SWAP1 DUP1 DUP3 MSTORE DUP1 PUSH1 0x20 MUL PUSH1 0x20 ADD DUP3 ADD PUSH1 0x40 MSTORE DUP1 ISZERO PUSH2 0x1CE4 JUMPI DUP2 PUSH1 0x20 ADD PUSH1 0x20 DUP3 MUL DUP1 CALLDATASIZE DUP4 CALLDATACOPY DUP1 DUP3 ADD SWAP2 POP POP SWAP1 POP JUMPDEST POP DUP2 MSTORE PUSH1 0x20 ADD PUSH1 0x1 PUSH8 0xFFFFFFFFFFFFFFFF DUP2 GT ISZERO PUSH2 0x1D05 JUMPI PUSH2 0x1D04 PUSH2 0x36F9 JUMP JUMPDEST JUMPDEST PUSH1 0x40 MLOAD SWAP1 DUP1 DUP3 MSTORE DUP1 PUSH1 0x20 MUL PUSH1 0x20 ADD DUP3 ADD PUSH1 0x40 MSTORE DUP1 ISZERO PUSH2 0x1D38 JUMPI DUP2 PUSH1 0x20 ADD JUMPDEST PUSH1 0x60 DUP2 MSTORE PUSH1 0x20 ADD SWAP1 PUSH1 0x1 SWAP1 SUB SWAP1 DUP2 PUSH2 0x1D23 JUMPI SWAP1 POP JUMPDEST POP DUP2 MSTORE POP SWAP1 POP PUSH1 0x1 DUP2 PUSH1 0x0 ADD MLOAD PUSH1 0x0 DUP2 MLOAD DUP2 LT PUSH2 0x1D58 JUMPI PUSH2 0x1D57 PUSH2 0x4082 JUMP JUMPDEST JUMPDEST PUSH1 0x20 MUL PUSH1 0x20 ADD ADD SWAP1 PUSH1 0x3 DUP2 GT ISZERO PUSH2 0x1D72 JUMPI PUSH2 0x1D71 PUSH2 0x484F JUMP JUMPDEST JUMPDEST SWAP1 DUP2 PUSH1 0x3 DUP2 GT ISZERO PUSH2 0x1D86 JUMPI PUSH2 0x1D85 PUSH2 0x484F JUMP JUMPDEST JUMPDEST DUP2 MSTORE POP POP PUSH2 0x1D96 PUSH1 0x0 PUSH1 0x1 PUSH2 0x310C JUMP JUMPDEST DUP2 PUSH1 0x20 ADD MLOAD PUSH1 0x0 DUP2 MLOAD DUP2 LT PUSH2 0x1DAE JUMPI PUSH2 0x1DAD PUSH2 0x4082 JUMP JUMPDEST JUMPDEST PUSH1 0x20 MUL PUSH1 0x20 ADD ADD DUP2 SWAP1 MSTORE POP PUSH2 0x1DC6 ADDRESS DUP4 DUP4 PUSH1 0x0 PUSH2 0x3138 JUMP JUMPDEST POP POP POP JUMP JUMPDEST PUSH1 0x7 PUSH1 0x0 SWAP1 SLOAD SWAP1 PUSH2 0x100 EXP SWAP1 DIV PUSH20 0xFFFFFFFFFFFFFFFFFFFFFFFFFFFFFFFFFFFFFFFF AND DUP2 JUMP JUMPDEST PUSH2 0x1DF9 PUSH2 0x2BE8 JUMP JUMPDEST DUP1 PUSH1 0x2 PUSH1 0x0 PUSH2 0x100 EXP DUP2 SLOAD DUP2 PUSH20 0xFFFFFFFFFFFFFFFFFFFFFFFFFFFFFFFFFFFFFFFF MUL NOT AND SWAP1 DUP4 PUSH20 0xFFFFFFFFFFFFFFFFFFFFFFFFFFFFFFFFFFFFFFFF AND MUL OR SWAP1 SSTORE POP POP JUMP JUMPDEST PUSH1 0x0 PUSH1 0x8 PUSH1 0x0 SWAP1 SLOAD SWAP1 PUSH2 0x100 EXP SWAP1 DIV PUSH20 0xFFFFFFFFFFFFFFFFFFFFFFFFFFFFFFFFFFFFFFFF AND PUSH20 0xFFFFFFFFFFFFFFFFFFFFFFFFFFFFFFFFFFFFFFFF AND CALLER PUSH20 0xFFFFFFFFFFFFFFFFFFFFFFFFFFFFFFFFFFFFFFFF AND EQ PUSH2 0x1ECF JUMPI PUSH1 0x40 MLOAD PUSH32 0x8C379A000000000000000000000000000000000000000000000000000000000 DUP2 MSTORE PUSH1 0x4 ADD PUSH2 0x1EC6 SWAP1 PUSH2 0x4335 JUMP JUMPDEST PUSH1 0x40 MLOAD DUP1 SWAP2 SUB SWAP1 REVERT JUMPDEST PUSH2 0x1EDA DUP12 DUP12 DUP9 PUSH2 0x2E76 JUMP JUMPDEST DUP11 PUSH1 0x0 DUP2 MLOAD DUP2 LT PUSH2 0x1EEE JUMPI PUSH2 0x1EED PUSH2 0x4082 JUMP JUMPDEST JUMPDEST PUSH1 0x20 MUL PUSH1 0x20 ADD ADD MLOAD PUSH20 0xFFFFFFFFFFFFFFFFFFFFFFFFFFFFFFFFFFFFFFFF AND PUSH4 0x23B872DD CALLER ADDRESS DUP13 PUSH1 0x40 MLOAD DUP5 PUSH4 0xFFFFFFFF AND PUSH1 0xE0 SHL DUP2 MSTORE PUSH1 0x4 ADD PUSH2 0x1F32 SWAP4 SWAP3 SWAP2 SWAP1 PUSH2 0x487E JUMP JUMPDEST PUSH1 0x20 PUSH1 0x40 MLOAD DUP1 DUP4 SUB DUP2 PUSH1 0x0 DUP8 GAS CALL ISZERO DUP1 ISZERO PUSH2 0x1F51 JUMPI RETURNDATASIZE PUSH1 0x0 DUP1 RETURNDATACOPY RETURNDATASIZE PUSH1 0x0 REVERT JUMPDEST POP POP POP POP PUSH1 0x40 MLOAD RETURNDATASIZE PUSH1 0x1F NOT PUSH1 0x1F DUP3 ADD AND DUP3 ADD DUP1 PUSH1 0x40 MSTORE POP DUP2 ADD SWAP1 PUSH2 0x1F75 SWAP2 SWAP1 PUSH2 0x48B5 JUMP JUMPDEST PUSH2 0x1FB4 JUMPI PUSH1 0x40 MLOAD PUSH32 0x8C379A000000000000000000000000000000000000000000000000000000000 DUP2 MSTORE PUSH1 0x4 ADD PUSH2 0x1FAB SWAP1 PUSH2 0x492E JUMP JUMPDEST PUSH1 0x40 MLOAD DUP1 SWAP2 SUB SWAP1 REVERT JUMPDEST DUP11 PUSH1 0x0 DUP2 MLOAD DUP2 LT PUSH2 0x1FC8 JUMPI PUSH2 0x1FC7 PUSH2 0x4082 JUMP JUMPDEST JUMPDEST PUSH1 0x20 MUL PUSH1 0x20 ADD ADD MLOAD PUSH20 0xFFFFFFFFFFFFFFFFFFFFFFFFFFFFFFFFFFFFFFFF AND PUSH4 0x95EA7B3 PUSH1 0x5 PUSH1 0x0 SWAP1 SLOAD SWAP1 PUSH2 0x100 EXP SWAP1 DIV PUSH20 0xFFFFFFFFFFFFFFFFFFFFFFFFFFFFFFFFFFFFFFFF AND DUP12 PUSH1 0x40 MLOAD DUP4 PUSH4 0xFFFFFFFF AND PUSH1 0xE0 SHL DUP2 MSTORE PUSH1 0x4 ADD PUSH2 0x202C SWAP3 SWAP2 SWAP1 PUSH2 0x494E JUMP JUMPDEST PUSH1 0x20 PUSH1 0x40 MLOAD DUP1 DUP4 SUB DUP2 PUSH1 0x0 DUP8 GAS CALL ISZERO DUP1 ISZERO PUSH2 0x204B JUMPI RETURNDATASIZE PUSH1 0x0 DUP1 RETURNDATACOPY RETURNDATASIZE PUSH1 0x0 REVERT JUMPDEST POP POP POP POP PUSH1 0x40 MLOAD RETURNDATASIZE PUSH1 0x1F NOT PUSH1 0x1F DUP3 ADD AND DUP3 ADD DUP1 PUSH1 0x40 MSTORE POP DUP2 ADD SWAP1 PUSH2 0x206F SWAP2 SWAP1 PUSH2 0x48B5 JUMP JUMPDEST PUSH2 0x20AE JUMPI PUSH1 0x40 MLOAD PUSH32 0x8C379A000000000000000000000000000000000000000000000000000000000 DUP2 MSTORE PUSH1 0x4 ADD PUSH2 0x20A5 SWAP1 PUSH2 0x49E9 JUMP JUMPDEST PUSH1 0x40 MLOAD DUP1 SWAP2 SUB SWAP1 REVERT JUMPDEST PUSH1 0x0 PUSH1 0x4 PUSH1 0x0 SWAP1 SLOAD SWAP1 PUSH2 0x100 EXP SWAP1 DIV PUSH20 0xFFFFFFFFFFFFFFFFFFFFFFFFFFFFFFFFFFFFFFFF AND SWAP1 POP DUP1 PUSH20 0xFFFFFFFFFFFFFFFFFFFFFFFFFFFFFFFFFFFFFFFF AND PUSH4 0xF2AE372F CALLVALUE DUP15 DUP15 DUP15 DUP15 DUP15 DUP15 DUP15 DUP15 DUP15 DUP15 PUSH1 0x40 MLOAD DUP13 PUSH4 0xFFFFFFFF AND PUSH1 0xE0 SHL DUP2 MSTORE PUSH1 0x4 ADD PUSH2 0x2121 SWAP11 SWAP10 SWAP9 SWAP8 SWAP7 SWAP6 SWAP5 SWAP4 SWAP3 SWAP2 SWAP1 PUSH2 0x4A09 JUMP JUMPDEST PUSH1 0x20 PUSH1 0x40 MLOAD DUP1 DUP4 SUB DUP2 DUP6 DUP9 GAS CALL ISZERO DUP1 ISZERO PUSH2 0x213F JUMPI RETURNDATASIZE PUSH1 0x0 DUP1 RETURNDATACOPY RETURNDATASIZE PUSH1 0x0 REVERT JUMPDEST POP POP POP POP POP PUSH1 0x40 MLOAD RETURNDATASIZE PUSH1 0x1F NOT PUSH1 0x1F DUP3 ADD AND DUP3 ADD DUP1 PUSH1 0x40 MSTORE POP DUP2 ADD SWAP1 PUSH2 0x2164 SWAP2 SWAP1 PUSH2 0x44AD JUMP JUMPDEST SWAP2 POP POP SWAP11 SWAP10 POP POP POP POP POP POP POP POP POP POP JUMP JUMPDEST PUSH2 0x2710 DUP2 JUMP JUMPDEST PUSH1 0x0 DUP1 PUSH1 0x0 SWAP1 POP PUSH1 0x0 JUMPDEST PUSH1 0xB DUP1 SLOAD SWAP1 POP DUP2 LT ISZERO PUSH2 0x231B JUMPI PUSH1 0x0 DUP1 PUSH1 0x0 DUP1 PUSH2 0x225F PUSH1 0xB DUP7 DUP2 SLOAD DUP2 LT PUSH2 0x21AF JUMPI PUSH2 0x21AE PUSH2 0x4082 JUMP JUMPDEST JUMPDEST SWAP1 PUSH1 0x0 MSTORE PUSH1 0x20 PUSH1 0x0 KECCAK256 SWAP1 PUSH1 0x2 MUL ADD PUSH1 0x0 ADD PUSH1 0x0 SWAP1 SLOAD SWAP1 PUSH2 0x100 EXP SWAP1 DIV PUSH20 0xFFFFFFFFFFFFFFFFFFFFFFFFFFFFFFFFFFFFFFFF AND PUSH1 0xB DUP8 DUP2 SLOAD DUP2 LT PUSH2 0x21F5 JUMPI PUSH2 0x21F4 PUSH2 0x4082 JUMP JUMPDEST JUMPDEST SWAP1 PUSH1 0x0 MSTORE PUSH1 0x20 PUSH1 0x0 KECCAK256 SWAP1 PUSH1 0x2 MUL ADD PUSH1 0x1 ADD PUSH1 0x0 SWAP1 SLOAD SWAP1 PUSH2 0x100 EXP SWAP1 DIV PUSH20 0xFFFFFFFFFFFFFFFFFFFFFFFFFFFFFFFFFFFFFFFF AND PUSH1 0xB DUP9 DUP2 SLOAD DUP2 LT PUSH2 0x223B JUMPI PUSH2 0x223A PUSH2 0x4082 JUMP JUMPDEST JUMPDEST SWAP1 PUSH1 0x0 MSTORE PUSH1 0x20 PUSH1 0x0 KECCAK256 SWAP1 PUSH1 0x2 MUL ADD PUSH1 0x1 ADD PUSH1 0x14 SWAP1 SLOAD SWAP1 PUSH2 0x100 EXP SWAP1 DIV PUSH1 0xFF AND PUSH2 0x18DC JUMP JUMPDEST SWAP5 POP POP SWAP4 POP SWAP4 POP SWAP4 POP PUSH1 0x0 DUP4 GT ISZERO PUSH2 0x2304 JUMPI PUSH2 0x22F6 PUSH1 0xB DUP7 DUP2 SLOAD DUP2 LT PUSH2 0x2288 JUMPI PUSH2 0x2287 PUSH2 0x4082 JUMP JUMPDEST JUMPDEST SWAP1 PUSH1 0x0 MSTORE PUSH1 0x20 PUSH1 0x0 KECCAK256 SWAP1 PUSH1 0x2 MUL ADD PUSH1 0x0 ADD PUSH1 0x0 SWAP1 SLOAD SWAP1 PUSH2 0x100 EXP SWAP1 DIV PUSH20 0xFFFFFFFFFFFFFFFFFFFFFFFFFFFFFFFFFFFFFFFF AND PUSH1 0xB DUP8 DUP2 SLOAD DUP2 LT PUSH2 0x22CE JUMPI PUSH2 0x22CD PUSH2 0x4082 JUMP JUMPDEST JUMPDEST SWAP1 PUSH1 0x0 MSTORE PUSH1 0x20 PUSH1 0x0 KECCAK256 SWAP1 PUSH1 0x2 MUL ADD PUSH1 0x1 ADD PUSH1 0x14 SWAP1 SLOAD SWAP1 PUSH2 0x100 EXP SWAP1 DIV PUSH1 0xFF AND DUP6 DUP8 DUP7 DUP7 PUSH2 0x1397 JUMP JUMPDEST DUP7 PUSH2 0x2301 SWAP2 SWAP1 PUSH2 0x40E0 JUMP JUMPDEST SWAP6 POP JUMPDEST POP POP POP POP DUP1 DUP1 PUSH2 0x2313 SWAP1 PUSH2 0x4114 JUMP JUMPDEST SWAP2 POP POP PUSH2 0x2185 JUMP JUMPDEST POP DUP1 SWAP2 POP POP SWAP1 JUMP JUMPDEST PUSH1 0x0 DUP1 PUSH1 0x0 PUSH2 0x2334 DUP11 DUP8 DUP8 DUP12 PUSH2 0x24F0 JUMP JUMPDEST SWAP2 POP SWAP2 POP PUSH1 0x0 PUSH1 0x7 PUSH1 0x0 SWAP1 SLOAD SWAP1 PUSH2 0x100 EXP SWAP1 DIV PUSH20 0xFFFFFFFFFFFFFFFFFFFFFFFFFFFFFFFFFFFFFFFF AND PUSH20 0xFFFFFFFFFFFFFFFFFFFFFFFFFFFFFFFFFFFFFFFF AND PUSH4 0xCC5B8144 DUP12 DUP10 DUP9 PUSH1 0x40 MLOAD DUP5 PUSH4 0xFFFFFFFF AND PUSH1 0xE0 SHL DUP2 MSTORE PUSH1 0x4 ADD PUSH2 0x2399 SWAP4 SWAP3 SWAP2 SWAP1 PUSH2 0x4AAC JUMP JUMPDEST PUSH1 0x20 PUSH1 0x40 MLOAD DUP1 DUP4 SUB DUP2 DUP7 GAS STATICCALL ISZERO DUP1 ISZERO PUSH2 0x23B6 JUMPI RETURNDATASIZE PUSH1 0x0 DUP1 RETURNDATACOPY RETURNDATASIZE PUSH1 0x0 REVERT JUMPDEST POP POP POP POP PUSH1 0x40 MLOAD RETURNDATASIZE PUSH1 0x1F NOT PUSH1 0x1F DUP3 ADD AND DUP3 ADD DUP1 PUSH1 0x40 MSTORE POP DUP2 ADD SWAP1 PUSH2 0x23DA SWAP2 SWAP1 PUSH2 0x4171 JUMP JUMPDEST SWAP1 POP PUSH1 0x7 PUSH1 0x0 SWAP1 SLOAD SWAP1 PUSH2 0x100 EXP SWAP1 DIV PUSH20 0xFFFFFFFFFFFFFFFFFFFFFFFFFFFFFFFFFFFFFFFF AND PUSH20 0xFFFFFFFFFFFFFFFFFFFFFFFFFFFFFFFFFFFFFFFF AND PUSH4 0x17BBF25C DUP9 PUSH1 0x40 MLOAD DUP3 PUSH4 0xFFFFFFFF AND PUSH1 0xE0 SHL DUP2 MSTORE PUSH1 0x4 ADD PUSH2 0x2437 SWAP2 SWAP1 PUSH2 0x34A7 JUMP JUMPDEST PUSH1 0x20 PUSH1 0x40 MLOAD DUP1 DUP4 SUB DUP2 DUP7 GAS STATICCALL ISZERO DUP1 ISZERO PUSH2 0x2454 JUMPI RETURNDATASIZE PUSH1 0x0 DUP1 RETURNDATACOPY RETURNDATASIZE PUSH1 0x0 REVERT JUMPDEST POP POP POP POP PUSH1 0x40 MLOAD RETURNDATASIZE PUSH1 0x1F NOT PUSH1 0x1F DUP3 ADD AND DUP3 ADD DUP1 PUSH1 0x40 MSTORE POP DUP2 ADD SWAP1 PUSH2 0x2478 SWAP2 SWAP1 PUSH2 0x4171 JUMP JUMPDEST DUP2 PUSH2 0x2483 SWAP2 SWAP1 PUSH2 0x40E0 JUMP JUMPDEST SWAP1 POP DUP3 ISZERO PUSH2 0x24BA JUMPI PUSH2 0x24B0 DUP2 PUSH2 0x24A2 DUP5 DUP12 PUSH2 0x2E18 SWAP1 SWAP2 SWAP1 PUSH4 0xFFFFFFFF AND JUMP JUMPDEST PUSH2 0x2D3E SWAP1 SWAP2 SWAP1 PUSH4 0xFFFFFFFF AND JUMP JUMPDEST SWAP4 POP POP POP POP PUSH2 0x24E5 JUMP JUMPDEST PUSH2 0x24DF DUP2 PUSH2 0x24D1 DUP5 DUP12 PUSH2 0x2D3E SWAP1 SWAP2 SWAP1 PUSH4 0xFFFFFFFF AND JUMP JUMPDEST PUSH2 0x2D3E SWAP1 SWAP2 SWAP1 PUSH4 0xFFFFFFFF AND JUMP JUMPDEST SWAP4 POP POP POP POP JUMPDEST SWAP8 SWAP7 POP POP POP POP POP POP POP JUMP JUMPDEST PUSH1 0x0 DUP1 PUSH1 0x0 DUP5 GT PUSH2 0x2536 JUMPI PUSH1 0x40 MLOAD PUSH32 0x8C379A000000000000000000000000000000000000000000000000000000000 DUP2 MSTORE PUSH1 0x4 ADD PUSH2 0x252D SWAP1 PUSH2 0x4B55 JUMP JUMPDEST PUSH1 0x40 MLOAD DUP1 SWAP2 SUB SWAP1 REVERT JUMPDEST PUSH1 0x0 DUP4 PUSH2 0x2619 JUMPI PUSH2 0x2614 PUSH2 0x2710 PUSH2 0x2606 PUSH2 0x255C PUSH1 0x64 PUSH2 0x2710 PUSH2 0x2E18 SWAP1 SWAP2 SWAP1 PUSH4 0xFFFFFFFF AND JUMP JUMPDEST PUSH1 0x7 PUSH1 0x0 SWAP1 SLOAD SWAP1 PUSH2 0x100 EXP SWAP1 DIV PUSH20 0xFFFFFFFFFFFFFFFFFFFFFFFFFFFFFFFFFFFFFFFF AND PUSH20 0xFFFFFFFFFFFFFFFFFFFFFFFFFFFFFFFFFFFFFFFF AND PUSH4 0xE124E6D2 DUP13 PUSH1 0x40 MLOAD DUP3 PUSH4 0xFFFFFFFF AND PUSH1 0xE0 SHL DUP2 MSTORE PUSH1 0x4 ADD PUSH2 0x25B7 SWAP2 SWAP1 PUSH2 0x34E3 JUMP JUMPDEST PUSH1 0x20 PUSH1 0x40 MLOAD DUP1 DUP4 SUB DUP2 DUP7 GAS STATICCALL ISZERO DUP1 ISZERO PUSH2 0x25D4 JUMPI RETURNDATASIZE PUSH1 0x0 DUP1 RETURNDATACOPY RETURNDATASIZE PUSH1 0x0 REVERT JUMPDEST POP POP POP POP PUSH1 0x40 MLOAD RETURNDATASIZE PUSH1 0x1F NOT PUSH1 0x1F DUP3 ADD AND DUP3 ADD DUP1 PUSH1 0x40 MSTORE POP DUP2 ADD SWAP1 PUSH2 0x25F8 SWAP2 SWAP1 PUSH2 0x4171 JUMP JUMPDEST PUSH2 0x2C7A SWAP1 SWAP2 SWAP1 PUSH4 0xFFFFFFFF AND JUMP JUMPDEST PUSH2 0x2CF4 SWAP1 SWAP2 SWAP1 PUSH4 0xFFFFFFFF AND JUMP JUMPDEST PUSH2 0x26F1 JUMP JUMPDEST PUSH2 0x26F0 PUSH2 0x2710 PUSH2 0x26E2 PUSH2 0x2638 PUSH1 0x64 PUSH2 0x2710 PUSH2 0x2D3E SWAP1 SWAP2 SWAP1 PUSH4 0xFFFFFFFF AND JUMP JUMPDEST PUSH1 0x7 PUSH1 0x0 SWAP1 SLOAD SWAP1 PUSH2 0x100 EXP SWAP1 DIV PUSH20 0xFFFFFFFFFFFFFFFFFFFFFFFFFFFFFFFFFFFFFFFF AND PUSH20 0xFFFFFFFFFFFFFFFFFFFFFFFFFFFFFFFFFFFFFFFF AND PUSH4 0x81A612D6 DUP13 PUSH1 0x40 MLOAD DUP3 PUSH4 0xFFFFFFFF AND PUSH1 0xE0 SHL DUP2 MSTORE PUSH1 0x4 ADD PUSH2 0x2693 SWAP2 SWAP1 PUSH2 0x34E3 JUMP JUMPDEST PUSH1 0x20 PUSH1 0x40 MLOAD DUP1 DUP4 SUB DUP2 DUP7 GAS STATICCALL ISZERO DUP1 ISZERO PUSH2 0x26B0 JUMPI RETURNDATASIZE PUSH1 0x0 DUP1 RETURNDATACOPY RETURNDATASIZE PUSH1 0x0 REVERT JUMPDEST POP POP POP POP PUSH1 0x40 MLOAD RETURNDATASIZE PUSH1 0x1F NOT PUSH1 0x1F DUP3 ADD AND DUP3 ADD DUP1 PUSH1 0x40 MSTORE POP DUP2 ADD SWAP1 PUSH2 0x26D4 SWAP2 SWAP1 PUSH2 0x4171 JUMP JUMPDEST PUSH2 0x2C7A SWAP1 SWAP2 SWAP1 PUSH4 0xFFFFFFFF AND JUMP JUMPDEST PUSH2 0x2CF4 SWAP1 SWAP2 SWAP1 PUSH4 0xFFFFFFFF AND JUMP JUMPDEST JUMPDEST SWAP1 POP PUSH1 0x0 DUP2 DUP7 GT PUSH2 0x2714 JUMPI PUSH2 0x270F DUP7 DUP4 PUSH2 0x2D3E SWAP1 SWAP2 SWAP1 PUSH4 0xFFFFFFFF AND JUMP JUMPDEST PUSH2 0x2728 JUMP JUMPDEST PUSH2 0x2727 DUP3 DUP8 PUSH2 0x2D3E SWAP1 SWAP2 SWAP1 PUSH4 0xFFFFFFFF AND JUMP JUMPDEST JUMPDEST SWAP1 POP PUSH1 0x0 PUSH2 0x2751 DUP8 PUSH2 0x2743 DUP5 DUP12 PUSH2 0x2C7A SWAP1 SWAP2 SWAP1 PUSH4 0xFFFFFFFF AND JUMP JUMPDEST PUSH2 0x2CF4 SWAP1 SWAP2 SWAP1 PUSH4 0xFFFFFFFF AND JUMP JUMPDEST SWAP1 POP PUSH1 0x0 DUP7 ISZERO PUSH2 0x2765 JUMPI DUP8 DUP5 GT SWAP1 POP PUSH2 0x276B JUMP JUMPDEST DUP4 DUP9 GT SWAP1 POP JUMPDEST DUP1 DUP3 SWAP6 POP SWAP6 POP POP POP POP POP SWAP5 POP SWAP5 SWAP3 POP POP POP JUMP JUMPDEST JUMP JUMPDEST PUSH1 0x4 PUSH1 0x0 SWAP1 SLOAD SWAP1 PUSH2 0x100 EXP SWAP1 DIV PUSH20 0xFFFFFFFFFFFFFFFFFFFFFFFFFFFFFFFFFFFFFFFF AND DUP2 JUMP JUMPDEST PUSH1 0x0 DUP1 SLOAD SWAP1 PUSH2 0x100 EXP SWAP1 DIV PUSH20 0xFFFFFFFFFFFFFFFFFFFFFFFFFFFFFFFFFFFFFFFF AND DUP2 JUMP JUMPDEST PUSH32 0x0 DUP2 JUMP JUMPDEST PUSH1 0xB DUP2 DUP2 SLOAD DUP2 LT PUSH2 0x27FE JUMPI PUSH1 0x0 DUP1 REVERT JUMPDEST SWAP1 PUSH1 0x0 MSTORE PUSH1 0x20 PUSH1 0x0 KECCAK256 SWAP1 PUSH1 0x2 MUL ADD PUSH1 0x0 SWAP2 POP SWAP1 POP DUP1 PUSH1 0x0 ADD PUSH1 0x0 SWAP1 SLOAD SWAP1 PUSH2 0x100 EXP SWAP1 DIV PUSH20 0xFFFFFFFFFFFFFFFFFFFFFFFFFFFFFFFFFFFFFFFF AND SWAP1 DUP1 PUSH1 0x1 ADD PUSH1 0x0 SWAP1 SLOAD SWAP1 PUSH2 0x100 EXP SWAP1 DIV PUSH20 0xFFFFFFFFFFFFFFFFFFFFFFFFFFFFFFFFFFFFFFFF AND SWAP1 DUP1 PUSH1 0x1 ADD PUSH1 0x14 SWAP1 SLOAD SWAP1 PUSH2 0x100 EXP SWAP1 DIV PUSH1 0xFF AND SWAP1 POP DUP4 JUMP JUMPDEST PUSH1 0x0 PUSH1 0x4 PUSH1 0x0 SWAP1 SLOAD SWAP1 PUSH2 0x100 EXP SWAP1 DIV PUSH20 0xFFFFFFFFFFFFFFFFFFFFFFFFFFFFFFFFFFFFFFFF AND PUSH20 0xFFFFFFFFFFFFFFFFFFFFFFFFFFFFFFFFFFFFFFFF AND PUSH4 0xD4D003D DUP4 ADDRESS PUSH1 0x40 MLOAD DUP4 PUSH4 0xFFFFFFFF AND PUSH1 0xE0 SHL DUP2 MSTORE PUSH1 0x4 ADD PUSH2 0x28D4 SWAP3 SWAP2 SWAP1 PUSH2 0x4B75 JUMP JUMPDEST PUSH1 0x20 PUSH1 0x40 MLOAD DUP1 DUP4 SUB DUP2 PUSH1 0x0 DUP8 GAS CALL ISZERO DUP1 ISZERO PUSH2 0x28F3 JUMPI RETURNDATASIZE PUSH1 0x0 DUP1 RETURNDATACOPY RETURNDATASIZE PUSH1 0x0 REVERT JUMPDEST POP POP POP POP PUSH1 0x40 MLOAD RETURNDATASIZE PUSH1 0x1F NOT PUSH1 0x1F DUP3 ADD AND DUP3 ADD DUP1 PUSH1 0x40 MSTORE POP DUP2 ADD SWAP1 PUSH2 0x2917 SWAP2 SWAP1 PUSH2 0x48B5 JUMP JUMPDEST SWAP1 POP SWAP2 SWAP1 POP JUMP JUMPDEST PUSH1 0x0 DUP1 PUSH1 0x3 PUSH1 0x0 SWAP1 SLOAD SWAP1 PUSH2 0x100 EXP SWAP1 DIV PUSH20 0xFFFFFFFFFFFFFFFFFFFFFFFFFFFFFFFFFFFFFFFF AND PUSH20 0xFFFFFFFFFFFFFFFFFFFFFFFFFFFFFFFFFFFFFFFF AND PUSH4 0xD04F246B PUSH1 0x8 PUSH1 0x0 SWAP1 SLOAD SWAP1 PUSH2 0x100 EXP SWAP1 DIV PUSH20 0xFFFFFFFFFFFFFFFFFFFFFFFFFFFFFFFFFFFFFFFF AND PUSH1 0x40 MLOAD DUP3 PUSH4 0xFFFFFFFF AND PUSH1 0xE0 SHL DUP2 MSTORE PUSH1 0x4 ADD PUSH2 0x299E SWAP2 SWAP1 PUSH2 0x34E3 JUMP JUMPDEST PUSH1 0x20 PUSH1 0x40 MLOAD DUP1 DUP4 SUB DUP2 DUP7 GAS STATICCALL ISZERO DUP1 ISZERO PUSH2 0x29BB JUMPI RETURNDATASIZE PUSH1 0x0 DUP1 RETURNDATACOPY RETURNDATASIZE PUSH1 0x0 REVERT JUMPDEST POP POP POP POP PUSH1 0x40 MLOAD RETURNDATASIZE PUSH1 0x1F NOT PUSH1 0x1F DUP3 ADD AND DUP3 ADD DUP1 PUSH1 0x40 MSTORE POP DUP2 ADD SWAP1 PUSH2 0x29DF SWAP2 SWAP1 PUSH2 0x4171 JUMP JUMPDEST SWAP1 POP PUSH1 0x0 DUP2 SUB PUSH2 0x29F3 JUMPI PUSH1 0x1 SWAP2 POP POP PUSH2 0x2ABE JUMP JUMPDEST PUSH1 0x0 DUP1 PUSH1 0x0 DUP1 PUSH2 0x2A32 DUP10 DUP10 PUSH2 0x2A13 PUSH1 0x1 DUP13 MLOAD PUSH2 0x2D3E SWAP1 SWAP2 SWAP1 PUSH4 0xFFFFFFFF AND JUMP JUMPDEST DUP2 MLOAD DUP2 LT PUSH2 0x2A24 JUMPI PUSH2 0x2A23 PUSH2 0x4082 JUMP JUMPDEST JUMPDEST PUSH1 0x20 MUL PUSH1 0x20 ADD ADD MLOAD DUP10 PUSH2 0x18DC JUMP JUMPDEST SWAP5 POP POP SWAP4 POP SWAP4 POP SWAP4 POP PUSH1 0x0 PUSH2 0x2A45 PUSH2 0xBBF JUMP JUMPDEST SWAP1 POP PUSH1 0x0 PUSH2 0x2A57 DUP12 DUP11 DUP8 DUP10 DUP9 DUP9 PUSH2 0x1397 JUMP JUMPDEST SWAP1 POP DUP1 DUP3 LT ISZERO PUSH2 0x2A71 JUMPI PUSH1 0x0 SWAP8 POP POP POP POP POP POP POP POP PUSH2 0x2ABE JUMP JUMPDEST PUSH1 0x0 PUSH2 0x2AAC DUP9 PUSH2 0x2A9E PUSH2 0x2710 PUSH2 0x2A90 DUP7 DUP9 PUSH2 0x2D3E SWAP1 SWAP2 SWAP1 PUSH4 0xFFFFFFFF AND JUMP JUMPDEST PUSH2 0x2C7A SWAP1 SWAP2 SWAP1 PUSH4 0xFFFFFFFF AND JUMP JUMPDEST PUSH2 0x2CF4 SWAP1 SWAP2 SWAP1 PUSH4 0xFFFFFFFF AND JUMP JUMPDEST SWAP1 POP PUSH2 0x2AF8 DUP2 GT SWAP9 POP POP POP POP POP POP POP POP POP JUMPDEST SWAP4 SWAP3 POP POP POP JUMP JUMPDEST PUSH2 0x2ACD PUSH2 0x2BE8 JUMP JUMPDEST DUP1 PUSH1 0x9 DUP2 SWAP1 SSTORE POP POP JUMP JUMPDEST PUSH1 0x0 DUP1 PUSH1 0x3 PUSH1 0x0 SWAP1 SLOAD SWAP1 PUSH2 0x100 EXP SWAP1 DIV PUSH20 0xFFFFFFFFFFFFFFFFFFFFFFFFFFFFFFFFFFFFFFFF AND PUSH20 0xFFFFFFFFFFFFFFFFFFFFFFFFFFFFFFFFFFFFFFFF AND PUSH4 0xD04F246B PUSH1 0x8 PUSH1 0x0 SWAP1 SLOAD SWAP1 PUSH2 0x100 EXP SWAP1 DIV PUSH20 0xFFFFFFFFFFFFFFFFFFFFFFFFFFFFFFFFFFFFFFFF AND PUSH1 0x40 MLOAD DUP3 PUSH4 0xFFFFFFFF AND PUSH1 0xE0 SHL DUP2 MSTORE PUSH1 0x4 ADD PUSH2 0x2B57 SWAP2 SWAP1 PUSH2 0x34E3 JUMP JUMPDEST PUSH1 0x20 PUSH1 0x40 MLOAD DUP1 DUP4 SUB DUP2 DUP7 GAS STATICCALL ISZERO DUP1 ISZERO PUSH2 0x2B74 JUMPI RETURNDATASIZE PUSH1 0x0 DUP1 RETURNDATACOPY RETURNDATASIZE PUSH1 0x0 REVERT JUMPDEST POP POP POP POP PUSH1 0x40 MLOAD RETURNDATASIZE PUSH1 0x1F NOT PUSH1 0x1F DUP3 ADD AND DUP3 ADD DUP1 PUSH1 0x40 MSTORE POP DUP2 ADD SWAP1 PUSH2 0x2B98 SWAP2 SWAP1 PUSH2 0x4171 JUMP JUMPDEST SWAP1 POP PUSH1 0x0 PUSH2 0x2BA4 PUSH2 0xBBF JUMP JUMPDEST SWAP1 POP PUSH1 0x0 DUP3 SUB PUSH2 0x2BB9 JUMPI PUSH1 0x0 SWAP3 POP POP POP PUSH2 0x2BE5 JUMP JUMPDEST PUSH2 0x2BE0 DUP3 PUSH2 0x2BD2 PUSH2 0x2710 DUP5 PUSH2 0x2C7A SWAP1 SWAP2 SWAP1 PUSH4 0xFFFFFFFF AND JUMP JUMPDEST PUSH2 0x2CF4 SWAP1 SWAP2 SWAP1 PUSH4 0xFFFFFFFF AND JUMP JUMPDEST SWAP3 POP POP POP JUMPDEST SWAP1 JUMP JUMPDEST PUSH1 0x1 PUSH1 0x0 SWAP1 SLOAD SWAP1 PUSH2 0x100 EXP SWAP1 DIV PUSH20 0xFFFFFFFFFFFFFFFFFFFFFFFFFFFFFFFFFFFFFFFF AND PUSH20 0xFFFFFFFFFFFFFFFFFFFFFFFFFFFFFFFFFFFFFFFF AND CALLER PUSH20 0xFFFFFFFFFFFFFFFFFFFFFFFFFFFFFFFFFFFFFFFF AND EQ PUSH2 0x2C78 JUMPI PUSH1 0x40 MLOAD PUSH32 0x8C379A000000000000000000000000000000000000000000000000000000000 DUP2 MSTORE PUSH1 0x4 ADD PUSH2 0x2C6F SWAP1 PUSH2 0x4BEA JUMP JUMPDEST PUSH1 0x40 MLOAD DUP1 SWAP2 SUB SWAP1 REVERT JUMPDEST JUMP JUMPDEST PUSH1 0x0 DUP1 DUP4 SUB PUSH2 0x2C8C JUMPI PUSH1 0x0 SWAP1 POP PUSH2 0x2CEE JUMP JUMPDEST PUSH1 0x0 DUP3 DUP5 PUSH2 0x2C9A SWAP2 SWAP1 PUSH2 0x4C0A JUMP JUMPDEST SWAP1 POP DUP3 DUP5 DUP3 PUSH2 0x2CA9 SWAP2 SWAP1 PUSH2 0x4C7B JUMP JUMPDEST EQ PUSH2 0x2CE9 JUMPI PUSH1 0x40 MLOAD PUSH32 0x8C379A000000000000000000000000000000000000000000000000000000000 DUP2 MSTORE PUSH1 0x4 ADD PUSH2 0x2CE0 SWAP1 PUSH2 0x4D1E JUMP JUMPDEST PUSH1 0x40 MLOAD DUP1 SWAP2 SUB SWAP1 REVERT JUMPDEST DUP1 SWAP2 POP POP JUMPDEST SWAP3 SWAP2 POP POP JUMP JUMPDEST PUSH1 0x0 PUSH2 0x2D36 DUP4 DUP4 PUSH1 0x40 MLOAD DUP1 PUSH1 0x40 ADD PUSH1 0x40 MSTORE DUP1 PUSH1 0x1A DUP2 MSTORE PUSH1 0x20 ADD PUSH32 0x536166654D6174683A206469766973696F6E206279207A65726F000000000000 DUP2 MSTORE POP PUSH2 0x31E6 JUMP JUMPDEST SWAP1 POP SWAP3 SWAP2 POP POP JUMP JUMPDEST PUSH1 0x0 PUSH2 0x2D80 DUP4 DUP4 PUSH1 0x40 MLOAD DUP1 PUSH1 0x40 ADD PUSH1 0x40 MSTORE DUP1 PUSH1 0x1E DUP2 MSTORE PUSH1 0x20 ADD PUSH32 0x536166654D6174683A207375627472616374696F6E206F766572666C6F770000 DUP2 MSTORE POP PUSH2 0x3249 JUMP JUMPDEST SWAP1 POP SWAP3 SWAP2 POP POP JUMP JUMPDEST PUSH2 0x2DD1 PUSH2 0x2D94 DUP7 PUSH2 0x32AD JUMP JUMPDEST DUP8 DUP5 DUP7 DUP9 PUSH1 0x3 PUSH1 0x0 SWAP1 SLOAD SWAP1 PUSH2 0x100 EXP SWAP1 DIV PUSH20 0xFFFFFFFFFFFFFFFFFFFFFFFFFFFFFFFFFFFFFFFF AND DUP8 PUSH1 0x0 PUSH1 0x9 SLOAD PUSH2 0x2DCA DUP16 PUSH2 0x3355 JUMP JUMPDEST PUSH1 0x0 PUSH2 0x3039 JUMP JUMPDEST PUSH2 0x2E10 JUMPI PUSH1 0x40 MLOAD PUSH32 0x8C379A000000000000000000000000000000000000000000000000000000000 DUP2 MSTORE PUSH1 0x4 ADD PUSH2 0x2E07 SWAP1 PUSH2 0x4D8A JUMP JUMPDEST PUSH1 0x40 MLOAD DUP1 SWAP2 SUB SWAP1 REVERT JUMPDEST POP POP POP POP POP POP JUMP JUMPDEST PUSH1 0x0 DUP1 DUP3 DUP5 PUSH2 0x2E27 SWAP2 SWAP1 PUSH2 0x40E0 JUMP JUMPDEST SWAP1 POP DUP4 DUP2 LT ISZERO PUSH2 0x2E6C JUMPI PUSH1 0x40 MLOAD PUSH32 0x8C379A000000000000000000000000000000000000000000000000000000000 DUP2 MSTORE PUSH1 0x4 ADD PUSH2 0x2E63 SWAP1 PUSH2 0x4DF6 JUMP JUMPDEST PUSH1 0x40 MLOAD DUP1 SWAP2 SUB SWAP1 REVERT JUMPDEST DUP1 SWAP2 POP POP SWAP3 SWAP2 POP POP JUMP JUMPDEST PUSH1 0x0 DUP4 PUSH2 0x2E8E PUSH1 0x1 DUP7 MLOAD PUSH2 0x2D3E SWAP1 SWAP2 SWAP1 PUSH4 0xFFFFFFFF AND JUMP JUMPDEST DUP2 MLOAD DUP2 LT PUSH2 0x2E9F JUMPI PUSH2 0x2E9E PUSH2 0x4082 JUMP JUMPDEST JUMPDEST PUSH1 0x20 MUL PUSH1 0x20 ADD ADD MLOAD SWAP1 POP PUSH1 0xA PUSH1 0x0 PUSH2 0x2EB8 DUP6 DUP5 DUP7 PUSH2 0xAF4 JUMP JUMPDEST DUP2 MSTORE PUSH1 0x20 ADD SWAP1 DUP2 MSTORE PUSH1 0x20 ADD PUSH1 0x0 KECCAK256 PUSH1 0x0 SWAP1 SLOAD SWAP1 PUSH2 0x100 EXP SWAP1 DIV PUSH1 0xFF AND PUSH2 0x3033 JUMPI PUSH1 0xB PUSH1 0x40 MLOAD DUP1 PUSH1 0x60 ADD PUSH1 0x40 MSTORE DUP1 DUP6 PUSH20 0xFFFFFFFFFFFFFFFFFFFFFFFFFFFFFFFFFFFFFFFF AND DUP2 MSTORE PUSH1 0x20 ADD DUP4 PUSH20 0xFFFFFFFFFFFFFFFFFFFFFFFFFFFFFFFFFFFFFFFF AND DUP2 MSTORE PUSH1 0x20 ADD DUP5 ISZERO ISZERO DUP2 MSTORE POP SWAP1 DUP1 PUSH1 0x1 DUP2 SLOAD ADD DUP1 DUP3 SSTORE DUP1 SWAP2 POP POP PUSH1 0x1 SWAP1 SUB SWAP1 PUSH1 0x0 MSTORE PUSH1 0x20 PUSH1 0x0 KECCAK256 SWAP1 PUSH1 0x2 MUL ADD PUSH1 0x0 SWAP1 SWAP2 SWAP1 SWAP2 SWAP1 SWAP2 POP PUSH1 0x0 DUP3 ADD MLOAD DUP2 PUSH1 0x0 ADD PUSH1 0x0 PUSH2 0x100 EXP DUP2 SLOAD DUP2 PUSH20 0xFFFFFFFFFFFFFFFFFFFFFFFFFFFFFFFFFFFFFFFF MUL NOT AND SWAP1 DUP4 PUSH20 0xFFFFFFFFFFFFFFFFFFFFFFFFFFFFFFFFFFFFFFFF AND MUL OR SWAP1 SSTORE POP PUSH1 0x20 DUP3 ADD MLOAD DUP2 PUSH1 0x1 ADD PUSH1 0x0 PUSH2 0x100 EXP DUP2 SLOAD DUP2 PUSH20 0xFFFFFFFFFFFFFFFFFFFFFFFFFFFFFFFFFFFFFFFF MUL NOT AND SWAP1 DUP4 PUSH20 0xFFFFFFFFFFFFFFFFFFFFFFFFFFFFFFFFFFFFFFFF AND MUL OR SWAP1 SSTORE POP PUSH1 0x40 DUP3 ADD MLOAD DUP2 PUSH1 0x1 ADD PUSH1 0x14 PUSH2 0x100 EXP DUP2 SLOAD DUP2 PUSH1 0xFF MUL NOT AND SWAP1 DUP4 ISZERO ISZERO MUL OR SWAP1 SSTORE POP POP POP PUSH1 0x1 PUSH1 0xA PUSH1 0x0 PUSH2 0x300D DUP7 DUP6 DUP8 PUSH2 0xAF4 JUMP JUMPDEST DUP2 MSTORE PUSH1 0x20 ADD SWAP1 DUP2 MSTORE PUSH1 0x20 ADD PUSH1 0x0 KECCAK256 PUSH1 0x0 PUSH2 0x100 EXP DUP2 SLOAD DUP2 PUSH1 0xFF MUL NOT AND SWAP1 DUP4 ISZERO ISZERO MUL OR SWAP1 SSTORE POP JUMPDEST POP POP POP POP JUMP JUMPDEST PUSH1 0x0 DUP1 PUSH1 0x4 PUSH1 0x0 SWAP1 SLOAD SWAP1 PUSH2 0x100 EXP SWAP1 DIV PUSH20 0xFFFFFFFFFFFFFFFFFFFFFFFFFFFFFFFFFFFFFFFF AND PUSH20 0xFFFFFFFFFFFFFFFFFFFFFFFFFFFFFFFFFFFFFFFF AND PUSH4 0x7BE7D141 CALLVALUE DUP16 DUP16 DUP16 DUP16 DUP16 DUP16 DUP16 DUP16 DUP16 DUP16 DUP16 PUSH1 0x40 MLOAD DUP14 PUSH4 0xFFFFFFFF AND PUSH1 0xE0 SHL DUP2 MSTORE PUSH1 0x4 ADD PUSH2 0x30AC SWAP12 SWAP11 SWAP10 SWAP9 SWAP8 SWAP7 SWAP6 SWAP5 SWAP4 SWAP3 SWAP2 SWAP1 PUSH2 0x4E16 JUMP JUMPDEST PUSH1 0x20 PUSH1 0x40 MLOAD DUP1 DUP4 SUB DUP2 DUP6 DUP9 GAS CALL ISZERO DUP1 ISZERO PUSH2 0x30CA JUMPI RETURNDATASIZE PUSH1 0x0 DUP1 RETURNDATACOPY RETURNDATASIZE PUSH1 0x0 REVERT JUMPDEST POP POP POP POP POP PUSH1 0x40 MLOAD RETURNDATASIZE PUSH1 0x1F NOT PUSH1 0x1F DUP3 ADD AND DUP3 ADD DUP1 PUSH1 0x40 MSTORE POP DUP2 ADD SWAP1 PUSH2 0x30EF SWAP2 SWAP1 PUSH2 0x44AD JUMP JUMPDEST SWAP1 POP PUSH2 0x30FA DUP2 PUSH2 0x2875 JUMP JUMPDEST SWAP2 POP POP SWAP12 SWAP11 POP POP POP POP POP POP POP POP POP POP POP JUMP JUMPDEST PUSH1 0x60 DUP3 DUP3 PUSH1 0x40 MLOAD PUSH1 0x20 ADD PUSH2 0x3121 SWAP3 SWAP2 SWAP1 PUSH2 0x4EF3 JUMP JUMPDEST PUSH1 0x40 MLOAD PUSH1 0x20 DUP2 DUP4 SUB SUB DUP2 MSTORE SWAP1 PUSH1 0x40 MSTORE SWAP1 POP SWAP3 SWAP2 POP POP JUMP JUMPDEST PUSH1 0x0 PUSH32 0x0 PUSH20 0xFFFFFFFFFFFFFFFFFFFFFFFFFFFFFFFFFFFFFFFF AND PUSH4 0x3323B467 DUP7 DUP7 DUP7 DUP7 PUSH1 0x40 MLOAD DUP6 PUSH4 0xFFFFFFFF AND PUSH1 0xE0 SHL DUP2 MSTORE PUSH1 0x4 ADD PUSH2 0x3199 SWAP5 SWAP4 SWAP3 SWAP2 SWAP1 PUSH2 0x51E2 JUMP JUMPDEST PUSH1 0x20 PUSH1 0x40 MLOAD DUP1 DUP4 SUB DUP2 PUSH1 0x0 DUP8 GAS CALL ISZERO DUP1 ISZERO PUSH2 0x31B8 JUMPI RETURNDATASIZE PUSH1 0x0 DUP1 RETURNDATACOPY RETURNDATASIZE PUSH1 0x0 REVERT JUMPDEST POP POP POP POP PUSH1 0x40 MLOAD RETURNDATASIZE PUSH1 0x1F NOT PUSH1 0x1F DUP3 ADD AND DUP3 ADD DUP1 PUSH1 0x40 MSTORE POP DUP2 ADD SWAP1 PUSH2 0x31DC SWAP2 SWAP1 PUSH2 0x44AD JUMP JUMPDEST SWAP1 POP SWAP5 SWAP4 POP POP POP POP JUMP JUMPDEST PUSH1 0x0 DUP1 DUP4 GT DUP3 SWAP1 PUSH2 0x322D JUMPI PUSH1 0x40 MLOAD PUSH32 0x8C379A000000000000000000000000000000000000000000000000000000000 DUP2 MSTORE PUSH1 0x4 ADD PUSH2 0x3224 SWAP2 SWAP1 PUSH2 0x5279 JUMP JUMPDEST PUSH1 0x40 MLOAD DUP1 SWAP2 SUB SWAP1 REVERT JUMPDEST POP PUSH1 0x0 DUP4 DUP6 PUSH2 0x323C SWAP2 SWAP1 PUSH2 0x4C7B JUMP JUMPDEST SWAP1 POP DUP1 SWAP2 POP POP SWAP4 SWAP3 POP POP POP JUMP JUMPDEST PUSH1 0x0 DUP4 DUP4 GT ISZERO DUP3 SWAP1 PUSH2 0x3291 JUMPI PUSH1 0x40 MLOAD PUSH32 0x8C379A000000000000000000000000000000000000000000000000000000000 DUP2 MSTORE PUSH1 0x4 ADD PUSH2 0x3288 SWAP2 SWAP1 PUSH2 0x5279 JUMP JUMPDEST PUSH1 0x40 MLOAD DUP1 SWAP2 SUB SWAP1 REVERT JUMPDEST POP PUSH1 0x0 DUP4 DUP6 PUSH2 0x32A0 SWAP2 SWAP1 PUSH2 0x529B JUMP JUMPDEST SWAP1 POP DUP1 SWAP2 POP POP SWAP4 SWAP3 POP POP POP JUMP JUMPDEST PUSH1 0x60 PUSH1 0x0 PUSH1 0x1 PUSH8 0xFFFFFFFFFFFFFFFF DUP2 GT ISZERO PUSH2 0x32CC JUMPI PUSH2 0x32CB PUSH2 0x36F9 JUMP JUMPDEST JUMPDEST PUSH1 0x40 MLOAD SWAP1 DUP1 DUP3 MSTORE DUP1 PUSH1 0x20 MUL PUSH1 0x20 ADD DUP3 ADD PUSH1 0x40 MSTORE DUP1 ISZERO PUSH2 0x32FA JUMPI DUP2 PUSH1 0x20 ADD PUSH1 0x20 DUP3 MUL DUP1 CALLDATASIZE DUP4 CALLDATACOPY DUP1 DUP3 ADD SWAP2 POP POP SWAP1 POP JUMPDEST POP SWAP1 POP DUP3 DUP2 PUSH1 0x0 DUP2 MLOAD DUP2 LT PUSH2 0x3312 JUMPI PUSH2 0x3311 PUSH2 0x4082 JUMP JUMPDEST JUMPDEST PUSH1 0x20 MUL PUSH1 0x20 ADD ADD SWAP1 PUSH20 0xFFFFFFFFFFFFFFFFFFFFFFFFFFFFFFFFFFFFFFFF AND SWAP1 DUP2 PUSH20 0xFFFFFFFFFFFFFFFFFFFFFFFFFFFFFFFFFFFFFFFF AND DUP2 MSTORE POP POP DUP1 SWAP2 POP POP SWAP2 SWAP1 POP JUMP JUMPDEST PUSH1 0x0 PUSH1 0x2 PUSH1 0x0 SWAP1 SLOAD SWAP1 PUSH2 0x100 EXP SWAP1 DIV PUSH20 0xFFFFFFFFFFFFFFFFFFFFFFFFFFFFFFFFFFFFFFFF AND PUSH20 0xFFFFFFFFFFFFFFFFFFFFFFFFFFFFFFFFFFFFFFFF AND DUP3 PUSH20 0xFFFFFFFFFFFFFFFFFFFFFFFFFFFFFFFFFFFFFFFF AND EQ SWAP1 POP SWAP2 SWAP1 POP JUMP JUMPDEST PUSH1 0x40 MLOAD DUP1 PUSH2 0x100 ADD PUSH1 0x40 MSTORE DUP1 PUSH1 0x0 DUP2 MSTORE PUSH1 0x20 ADD PUSH1 0x0 DUP2 MSTORE PUSH1 0x20 ADD PUSH1 0x0 DUP2 MSTORE PUSH1 0x20 ADD PUSH1 0x0 DUP2 MSTORE PUSH1 0x20 ADD PUSH1 0x0 DUP2 MSTORE PUSH1 0x20 ADD PUSH1 0x0 DUP2 MSTORE PUSH1 0x20 ADD PUSH1 0x0 DUP2 MSTORE PUSH1 0x20 ADD PUSH1 0x0 DUP2 MSTORE POP SWAP1 JUMP JUMPDEST PUSH1 0x0 PUSH20 0xFFFFFFFFFFFFFFFFFFFFFFFFFFFFFFFFFFFFFFFF DUP3 AND SWAP1 POP SWAP2 SWAP1 POP JUMP JUMPDEST PUSH1 0x0 DUP2 SWAP1 POP SWAP2 SWAP1 POP JUMP JUMPDEST PUSH1 0x0 PUSH2 0x3439 PUSH2 0x3434 PUSH2 0x342F DUP5 PUSH2 0x33F4 JUMP JUMPDEST PUSH2 0x3414 JUMP JUMPDEST PUSH2 0x33F4 JUMP JUMPDEST SWAP1 POP SWAP2 SWAP1 POP JUMP JUMPDEST PUSH1 0x0 PUSH2 0x344B DUP3 PUSH2 0x341E JUMP JUMPDEST SWAP1 POP SWAP2 SWAP1 POP JUMP JUMPDEST PUSH1 0x0 PUSH2 0x345D DUP3 PUSH2 0x3440 JUMP JUMPDEST SWAP1 POP SWAP2 SWAP1 POP JUMP JUMPDEST PUSH2 0x346D DUP2 PUSH2 0x3452 JUMP JUMPDEST DUP3 MSTORE POP POP JUMP JUMPDEST PUSH1 0x0 PUSH1 0x20 DUP3 ADD SWAP1 POP PUSH2 0x3488 PUSH1 0x0 DUP4 ADD DUP5 PUSH2 0x3464 JUMP JUMPDEST SWAP3 SWAP2 POP POP JUMP JUMPDEST PUSH1 0x0 DUP2 SWAP1 POP SWAP2 SWAP1 POP JUMP JUMPDEST PUSH2 0x34A1 DUP2 PUSH2 0x348E JUMP JUMPDEST DUP3 MSTORE POP POP JUMP JUMPDEST PUSH1 0x0 PUSH1 0x20 DUP3 ADD SWAP1 POP PUSH2 0x34BC PUSH1 0x0 DUP4 ADD DUP5 PUSH2 0x3498 JUMP JUMPDEST SWAP3 SWAP2 POP POP JUMP JUMPDEST PUSH1 0x0 PUSH2 0x34CD DUP3 PUSH2 0x33F4 JUMP JUMPDEST SWAP1 POP SWAP2 SWAP1 POP JUMP JUMPDEST PUSH2 0x34DD DUP2 PUSH2 0x34C2 JUMP JUMPDEST DUP3 MSTORE POP POP JUMP JUMPDEST PUSH1 0x0 PUSH1 0x20 DUP3 ADD SWAP1 POP PUSH2 0x34F8 PUSH1 0x0 DUP4 ADD DUP5 PUSH2 0x34D4 JUMP JUMPDEST SWAP3 SWAP2 POP POP JUMP JUMPDEST PUSH1 0x0 PUSH1 0x40 MLOAD SWAP1 POP SWAP1 JUMP JUMPDEST PUSH1 0x0 DUP1 REVERT JUMPDEST PUSH1 0x0 DUP1 REVERT JUMPDEST PUSH2 0x351B DUP2 PUSH2 0x34C2 JUMP JUMPDEST DUP2 EQ PUSH2 0x3526 JUMPI PUSH1 0x0 DUP1 REVERT JUMPDEST POP JUMP JUMPDEST PUSH1 0x0 DUP2 CALLDATALOAD SWAP1 POP PUSH2 0x3538 DUP2 PUSH2 0x3512 JUMP JUMPDEST SWAP3 SWAP2 POP POP JUMP JUMPDEST PUSH1 0x0 PUSH1 0x20 DUP3 DUP5 SUB SLT ISZERO PUSH2 0x3554 JUMPI PUSH2 0x3553 PUSH2 0x3508 JUMP JUMPDEST JUMPDEST PUSH1 0x0 PUSH2 0x3562 DUP5 DUP3 DUP6 ADD PUSH2 0x3529 JUMP JUMPDEST SWAP2 POP POP SWAP3 SWAP2 POP POP JUMP JUMPDEST PUSH1 0x0 DUP2 ISZERO ISZERO SWAP1 POP SWAP2 SWAP1 POP JUMP JUMPDEST PUSH2 0x3580 DUP2 PUSH2 0x356B JUMP JUMPDEST DUP2 EQ PUSH2 0x358B JUMPI PUSH1 0x0 DUP1 REVERT JUMPDEST POP JUMP JUMPDEST PUSH1 0x0 DUP2 CALLDATALOAD SWAP1 POP PUSH2 0x359D DUP2 PUSH2 0x3577 JUMP JUMPDEST SWAP3 SWAP2 POP POP JUMP JUMPDEST PUSH1 0x0 DUP1 PUSH1 0x0 PUSH1 0x60 DUP5 DUP7 SUB SLT ISZERO PUSH2 0x35BC JUMPI PUSH2 0x35BB PUSH2 0x3508 JUMP JUMPDEST JUMPDEST PUSH1 0x0 PUSH2 0x35CA DUP7 DUP3 DUP8 ADD PUSH2 0x3529 JUMP JUMPDEST SWAP4 POP POP PUSH1 0x20 PUSH2 0x35DB DUP7 DUP3 DUP8 ADD PUSH2 0x3529 JUMP JUMPDEST SWAP3 POP POP PUSH1 0x40 PUSH2 0x35EC DUP7 DUP3 DUP8 ADD PUSH2 0x358E JUMP JUMPDEST SWAP2 POP POP SWAP3 POP SWAP3 POP SWAP3 JUMP JUMPDEST PUSH1 0x0 DUP2 SWAP1 POP SWAP2 SWAP1 POP JUMP JUMPDEST PUSH2 0x3609 DUP2 PUSH2 0x35F6 JUMP JUMPDEST DUP3 MSTORE POP POP JUMP JUMPDEST PUSH1 0x0 PUSH1 0x20 DUP3 ADD SWAP1 POP PUSH2 0x3624 PUSH1 0x0 DUP4 ADD DUP5 PUSH2 0x3600 JUMP JUMPDEST SWAP3 SWAP2 POP POP JUMP JUMPDEST PUSH2 0x3633 DUP2 PUSH2 0x348E JUMP JUMPDEST DUP2 EQ PUSH2 0x363E JUMPI PUSH1 0x0 DUP1 REVERT JUMPDEST POP JUMP JUMPDEST PUSH1 0x0 DUP2 CALLDATALOAD SWAP1 POP PUSH2 0x3650 DUP2 PUSH2 0x362A JUMP JUMPDEST SWAP3 SWAP2 POP POP JUMP JUMPDEST PUSH1 0x0 DUP1 PUSH1 0x0 DUP1 PUSH1 0x0 DUP1 PUSH1 0xC0 DUP8 DUP10 SUB SLT ISZERO PUSH2 0x3673 JUMPI PUSH2 0x3672 PUSH2 0x3508 JUMP JUMPDEST JUMPDEST PUSH1 0x0 PUSH2 0x3681 DUP10 DUP3 DUP11 ADD PUSH2 0x3529 JUMP JUMPDEST SWAP7 POP POP PUSH1 0x20 PUSH2 0x3692 DUP10 DUP3 DUP11 ADD PUSH2 0x358E JUMP JUMPDEST SWAP6 POP POP PUSH1 0x40 PUSH2 0x36A3 DUP10 DUP3 DUP11 ADD PUSH2 0x3641 JUMP JUMPDEST SWAP5 POP POP PUSH1 0x60 PUSH2 0x36B4 DUP10 DUP3 DUP11 ADD PUSH2 0x3641 JUMP JUMPDEST SWAP4 POP POP PUSH1 0x80 PUSH2 0x36C5 DUP10 DUP3 DUP11 ADD PUSH2 0x3641 JUMP JUMPDEST SWAP3 POP POP PUSH1 0xA0 PUSH2 0x36D6 DUP10 DUP3 DUP11 ADD PUSH2 0x3641 JUMP JUMPDEST SWAP2 POP POP SWAP3 SWAP6 POP SWAP3 SWAP6 POP SWAP3 SWAP6 JUMP JUMPDEST PUSH1 0x0 DUP1 REVERT JUMPDEST PUSH1 0x0 PUSH1 0x1F NOT PUSH1 0x1F DUP4 ADD AND SWAP1 POP SWAP2 SWAP1 POP JUMP JUMPDEST PUSH32 0x4E487B7100000000000000000000000000000000000000000000000000000000 PUSH1 0x0 MSTORE PUSH1 0x41 PUSH1 0x4 MSTORE PUSH1 0x24 PUSH1 0x0 REVERT JUMPDEST PUSH2 0x3731 DUP3 PUSH2 0x36E8 JUMP JUMPDEST DUP2 ADD DUP2 DUP2 LT PUSH8 0xFFFFFFFFFFFFFFFF DUP3 GT OR ISZERO PUSH2 0x3750 JUMPI PUSH2 0x374F PUSH2 0x36F9 JUMP JUMPDEST JUMPDEST DUP1 PUSH1 0x40 MSTORE POP POP POP JUMP JUMPDEST PUSH1 0x0 PUSH2 0x3763 PUSH2 0x34FE JUMP JUMPDEST SWAP1 POP PUSH2 0x376F DUP3 DUP3 PUSH2 0x3728 JUMP JUMPDEST SWAP2 SWAP1 POP JUMP JUMPDEST PUSH1 0x0 PUSH8 0xFFFFFFFFFFFFFFFF DUP3 GT ISZERO PUSH2 0x378F JUMPI PUSH2 0x378E PUSH2 0x36F9 JUMP JUMPDEST JUMPDEST PUSH1 0x20 DUP3 MUL SWAP1 POP PUSH1 0x20 DUP2 ADD SWAP1 POP SWAP2 SWAP1 POP JUMP JUMPDEST PUSH1 0x0 DUP1 REVERT JUMPDEST PUSH1 0x0 PUSH2 0x37B8 PUSH2 0x37B3 DUP5 PUSH2 0x3774 JUMP JUMPDEST PUSH2 0x3759 JUMP JUMPDEST SWAP1 POP DUP1 DUP4 DUP3 MSTORE PUSH1 0x20 DUP3 ADD SWAP1 POP PUSH1 0x20 DUP5 MUL DUP4 ADD DUP6 DUP2 GT ISZERO PUSH2 0x37DB JUMPI PUSH2 0x37DA PUSH2 0x37A0 JUMP JUMPDEST JUMPDEST DUP4 JUMPDEST DUP2 DUP2 LT ISZERO PUSH2 0x3804 JUMPI DUP1 PUSH2 0x37F0 DUP9 DUP3 PUSH2 0x3529 JUMP JUMPDEST DUP5 MSTORE PUSH1 0x20 DUP5 ADD SWAP4 POP POP PUSH1 0x20 DUP2 ADD SWAP1 POP PUSH2 0x37DD JUMP JUMPDEST POP POP POP SWAP4 SWAP3 POP POP POP JUMP JUMPDEST PUSH1 0x0 DUP3 PUSH1 0x1F DUP4 ADD SLT PUSH2 0x3823 JUMPI PUSH2 0x3822 PUSH2 0x36E3 JUMP JUMPDEST JUMPDEST DUP2 CALLDATALOAD PUSH2 0x3833 DUP5 DUP3 PUSH1 0x20 DUP7 ADD PUSH2 0x37A5 JUMP JUMPDEST SWAP2 POP POP SWAP3 SWAP2 POP POP JUMP JUMPDEST PUSH2 0x3845 DUP2 PUSH2 0x35F6 JUMP JUMPDEST DUP2 EQ PUSH2 0x3850 JUMPI PUSH1 0x0 DUP1 REVERT JUMPDEST POP JUMP JUMPDEST PUSH1 0x0 DUP2 CALLDATALOAD SWAP1 POP PUSH2 0x3862 DUP2 PUSH2 0x383C JUMP JUMPDEST SWAP3 SWAP2 POP POP JUMP JUMPDEST PUSH1 0x0 DUP1 PUSH1 0x0 DUP1 PUSH1 0x0 DUP1 PUSH1 0x0 DUP1 PUSH1 0x0 PUSH2 0x120 DUP11 DUP13 SUB SLT ISZERO PUSH2 0x388B JUMPI PUSH2 0x388A PUSH2 0x3508 JUMP JUMPDEST JUMPDEST PUSH1 0x0 DUP11 ADD CALLDATALOAD PUSH8 0xFFFFFFFFFFFFFFFF DUP2 GT ISZERO PUSH2 0x38A9 JUMPI PUSH2 0x38A8 PUSH2 0x350D JUMP JUMPDEST JUMPDEST PUSH2 0x38B5 DUP13 DUP3 DUP14 ADD PUSH2 0x380E JUMP JUMPDEST SWAP10 POP POP PUSH1 0x20 PUSH2 0x38C6 DUP13 DUP3 DUP14 ADD PUSH2 0x3529 JUMP JUMPDEST SWAP9 POP POP PUSH1 0x40 PUSH2 0x38D7 DUP13 DUP3 DUP14 ADD PUSH2 0x3641 JUMP JUMPDEST SWAP8 POP POP PUSH1 0x60 PUSH2 0x38E8 DUP13 DUP3 DUP14 ADD PUSH2 0x3641 JUMP JUMPDEST SWAP7 POP POP PUSH1 0x80 PUSH2 0x38F9 DUP13 DUP3 DUP14 ADD PUSH2 0x358E JUMP JUMPDEST SWAP6 POP POP PUSH1 0xA0 PUSH2 0x390A DUP13 DUP3 DUP14 ADD PUSH2 0x3641 JUMP JUMPDEST SWAP5 POP POP PUSH1 0xC0 PUSH2 0x391B DUP13 DUP3 DUP14 ADD PUSH2 0x3641 JUMP JUMPDEST SWAP4 POP POP PUSH1 0xE0 PUSH2 0x392C DUP13 DUP3 DUP14 ADD PUSH2 0x3853 JUMP JUMPDEST SWAP3 POP POP PUSH2 0x100 PUSH2 0x393E DUP13 DUP3 DUP14 ADD PUSH2 0x3529 JUMP JUMPDEST SWAP2 POP POP SWAP3 SWAP6 SWAP9 POP SWAP3 SWAP6 SWAP9 POP SWAP3 SWAP6 SWAP9 JUMP JUMPDEST PUSH1 0x0 DUP1 PUSH1 0x40 DUP4 DUP6 SUB SLT ISZERO PUSH2 0x3965 JUMPI PUSH2 0x3964 PUSH2 0x3508 JUMP JUMPDEST JUMPDEST PUSH1 0x0 PUSH2 0x3973 DUP6 DUP3 DUP7 ADD PUSH2 0x3641 JUMP JUMPDEST SWAP3 POP POP PUSH1 0x20 PUSH2 0x3984 DUP6 DUP3 DUP7 ADD PUSH2 0x3529 JUMP JUMPDEST SWAP2 POP POP SWAP3 POP SWAP3 SWAP1 POP JUMP JUMPDEST PUSH1 0x0 DUP2 MLOAD SWAP1 POP SWAP2 SWAP1 POP JUMP JUMPDEST PUSH1 0x0 DUP3 DUP3 MSTORE PUSH1 0x20 DUP3 ADD SWAP1 POP SWAP3 SWAP2 POP POP JUMP JUMPDEST PUSH1 0x0 DUP2 SWAP1 POP PUSH1 0x20 DUP3 ADD SWAP1 POP SWAP2 SWAP1 POP JUMP JUMPDEST PUSH2 0x39C3 DUP2 PUSH2 0x34C2 JUMP JUMPDEST DUP3 MSTORE POP POP JUMP JUMPDEST PUSH2 0x39D2 DUP2 PUSH2 0x356B JUMP JUMPDEST DUP3 MSTORE POP POP JUMP JUMPDEST PUSH1 0x60 DUP3 ADD PUSH1 0x0 DUP3 ADD MLOAD PUSH2 0x39EE PUSH1 0x0 DUP6 ADD DUP3 PUSH2 0x39BA JUMP JUMPDEST POP PUSH1 0x20 DUP3 ADD MLOAD PUSH2 0x3A01 PUSH1 0x20 DUP6 ADD DUP3 PUSH2 0x39BA JUMP JUMPDEST POP PUSH1 0x40 DUP3 ADD MLOAD PUSH2 0x3A14 PUSH1 0x40 DUP6 ADD DUP3 PUSH2 0x39C9 JUMP JUMPDEST POP POP POP POP JUMP JUMPDEST PUSH1 0x0 PUSH2 0x3A26 DUP4 DUP4 PUSH2 0x39D8 JUMP JUMPDEST PUSH1 0x60 DUP4 ADD SWAP1 POP SWAP3 SWAP2 POP POP JUMP JUMPDEST PUSH1 0x0 PUSH1 0x20 DUP3 ADD SWAP1 POP SWAP2 SWAP1 POP JUMP JUMPDEST PUSH1 0x0 PUSH2 0x3A4A DUP3 PUSH2 0x398E JUMP JUMPDEST PUSH2 0x3A54 DUP2 DUP6 PUSH2 0x3999 JUMP JUMPDEST SWAP4 POP PUSH2 0x3A5F DUP4 PUSH2 0x39AA JUMP JUMPDEST DUP1 PUSH1 0x0 JUMPDEST DUP4 DUP2 LT ISZERO PUSH2 0x3A90 JUMPI DUP2 MLOAD PUSH2 0x3A77 DUP9 DUP3 PUSH2 0x3A1A JUMP JUMPDEST SWAP8 POP PUSH2 0x3A82 DUP4 PUSH2 0x3A32 JUMP JUMPDEST SWAP3 POP POP PUSH1 0x1 DUP2 ADD SWAP1 POP PUSH2 0x3A63 JUMP JUMPDEST POP DUP6 SWAP4 POP POP POP POP SWAP3 SWAP2 POP POP JUMP JUMPDEST PUSH1 0x0 PUSH1 0x20 DUP3 ADD SWAP1 POP DUP2 DUP2 SUB PUSH1 0x0 DUP4 ADD MSTORE PUSH2 0x3AB7 DUP2 DUP5 PUSH2 0x3A3F JUMP JUMPDEST SWAP1 POP SWAP3 SWAP2 POP POP JUMP JUMPDEST PUSH1 0x0 PUSH1 0xA0 DUP3 ADD SWAP1 POP PUSH2 0x3AD4 PUSH1 0x0 DUP4 ADD DUP9 PUSH2 0x3498 JUMP JUMPDEST PUSH2 0x3AE1 PUSH1 0x20 DUP4 ADD DUP8 PUSH2 0x3498 JUMP JUMPDEST PUSH2 0x3AEE PUSH1 0x40 DUP4 ADD DUP7 PUSH2 0x3498 JUMP JUMPDEST PUSH2 0x3AFB PUSH1 0x60 DUP4 ADD DUP6 PUSH2 0x3498 JUMP JUMPDEST PUSH2 0x3B08 PUSH1 0x80 DUP4 ADD DUP5 PUSH2 0x3498 JUMP JUMPDEST SWAP7 SWAP6 POP POP POP POP POP POP JUMP JUMPDEST PUSH1 0x0 DUP1 PUSH1 0x0 DUP1 PUSH1 0x0 DUP1 PUSH1 0x0 DUP1 PUSH1 0x0 DUP1 PUSH1 0x0 PUSH2 0x160 DUP13 DUP15 SUB SLT ISZERO PUSH2 0x3B38 JUMPI PUSH2 0x3B37 PUSH2 0x3508 JUMP JUMPDEST JUMPDEST PUSH1 0x0 DUP13 ADD CALLDATALOAD PUSH8 0xFFFFFFFFFFFFFFFF DUP2 GT ISZERO PUSH2 0x3B56 JUMPI PUSH2 0x3B55 PUSH2 0x350D JUMP JUMPDEST JUMPDEST PUSH2 0x3B62 DUP15 DUP3 DUP16 ADD PUSH2 0x380E JUMP JUMPDEST SWAP12 POP POP PUSH1 0x20 PUSH2 0x3B73 DUP15 DUP3 DUP16 ADD PUSH2 0x3529 JUMP JUMPDEST SWAP11 POP POP PUSH1 0x40 PUSH2 0x3B84 DUP15 DUP3 DUP16 ADD PUSH2 0x3641 JUMP JUMPDEST SWAP10 POP POP PUSH1 0x60 PUSH2 0x3B95 DUP15 DUP3 DUP16 ADD PUSH2 0x3641 JUMP JUMPDEST SWAP9 POP POP PUSH1 0x80 PUSH2 0x3BA6 DUP15 DUP3 DUP16 ADD PUSH2 0x358E JUMP JUMPDEST SWAP8 POP POP PUSH1 0xA0 PUSH2 0x3BB7 DUP15 DUP3 DUP16 ADD PUSH2 0x3529 JUMP JUMPDEST SWAP7 POP POP PUSH1 0xC0 PUSH2 0x3BC8 DUP15 DUP3 DUP16 ADD PUSH2 0x3641 JUMP JUMPDEST SWAP6 POP POP PUSH1 0xE0 PUSH2 0x3BD9 DUP15 DUP3 DUP16 ADD PUSH2 0x3641 JUMP JUMPDEST SWAP5 POP POP PUSH2 0x100 PUSH2 0x3BEB DUP15 DUP3 DUP16 ADD PUSH2 0x3641 JUMP JUMPDEST SWAP4 POP POP PUSH2 0x120 PUSH2 0x3BFD DUP15 DUP3 DUP16 ADD PUSH2 0x358E JUMP JUMPDEST SWAP3 POP POP PUSH2 0x140 PUSH2 0x3C0F DUP15 DUP3 DUP16 ADD PUSH2 0x3529 JUMP JUMPDEST SWAP2 POP POP SWAP3 SWAP6 SWAP9 SWAP12 POP SWAP3 SWAP6 SWAP9 SWAP12 SWAP1 SWAP4 SWAP7 SWAP10 POP JUMP JUMPDEST PUSH2 0x3C2B DUP2 PUSH2 0x356B JUMP JUMPDEST DUP3 MSTORE POP POP JUMP JUMPDEST PUSH1 0x0 PUSH1 0x20 DUP3 ADD SWAP1 POP PUSH2 0x3C46 PUSH1 0x0 DUP4 ADD DUP5 PUSH2 0x3C22 JUMP JUMPDEST SWAP3 SWAP2 POP POP JUMP JUMPDEST PUSH1 0x0 DUP1 PUSH1 0x0 DUP1 PUSH1 0x0 DUP1 PUSH1 0x0 DUP1 PUSH1 0x0 DUP1 PUSH2 0x140 DUP12 DUP14 SUB SLT ISZERO PUSH2 0x3C70 JUMPI PUSH2 0x3C6F PUSH2 0x3508 JUMP JUMPDEST JUMPDEST PUSH1 0x0 DUP12 ADD CALLDATALOAD PUSH8 0xFFFFFFFFFFFFFFFF DUP2 GT ISZERO PUSH2 0x3C8E JUMPI PUSH2 0x3C8D PUSH2 0x350D JUMP JUMPDEST JUMPDEST PUSH2 0x3C9A DUP14 DUP3 DUP15 ADD PUSH2 0x380E JUMP JUMPDEST SWAP11 POP POP PUSH1 0x20 PUSH2 0x3CAB DUP14 DUP3 DUP15 ADD PUSH2 0x3529 JUMP JUMPDEST SWAP10 POP POP PUSH1 0x40 PUSH2 0x3CBC DUP14 DUP3 DUP15 ADD PUSH2 0x3641 JUMP JUMPDEST SWAP9 POP POP PUSH1 0x60 PUSH2 0x3CCD DUP14 DUP3 DUP15 ADD PUSH2 0x3641 JUMP JUMPDEST SWAP8 POP POP PUSH1 0x80 PUSH2 0x3CDE DUP14 DUP3 DUP15 ADD PUSH2 0x3641 JUMP JUMPDEST SWAP7 POP POP PUSH1 0xA0 PUSH2 0x3CEF DUP14 DUP3 DUP15 ADD PUSH2 0x358E JUMP JUMPDEST SWAP6 POP POP PUSH1 0xC0 PUSH2 0x3D00 DUP14 DUP3 DUP15 ADD PUSH2 0x3641 JUMP JUMPDEST SWAP5 POP POP PUSH1 0xE0 PUSH2 0x3D11 DUP14 DUP3 DUP15 ADD PUSH2 0x3641 JUMP JUMPDEST SWAP4 POP POP PUSH2 0x100 PUSH2 0x3D23 DUP14 DUP3 DUP15 ADD PUSH2 0x3853 JUMP JUMPDEST SWAP3 POP POP PUSH2 0x120 PUSH2 0x3D35 DUP14 DUP3 DUP15 ADD PUSH2 0x3529 JUMP JUMPDEST SWAP2 POP POP SWAP3 SWAP6 SWAP9 SWAP12 SWAP2 SWAP5 SWAP8 SWAP11 POP SWAP3 SWAP6 SWAP9 POP JUMP JUMPDEST PUSH1 0x0 DUP1 PUSH1 0x0 DUP1 PUSH1 0x0 DUP1 PUSH1 0x0 PUSH1 0xE0 DUP9 DUP11 SUB SLT ISZERO PUSH2 0x3D66 JUMPI PUSH2 0x3D65 PUSH2 0x3508 JUMP JUMPDEST JUMPDEST PUSH1 0x0 PUSH2 0x3D74 DUP11 DUP3 DUP12 ADD PUSH2 0x3529 JUMP JUMPDEST SWAP8 POP POP PUSH1 0x20 PUSH2 0x3D85 DUP11 DUP3 DUP12 ADD PUSH2 0x3529 JUMP JUMPDEST SWAP7 POP POP PUSH1 0x40 PUSH2 0x3D96 DUP11 DUP3 DUP12 ADD PUSH2 0x358E JUMP JUMPDEST SWAP6 POP POP PUSH1 0x60 PUSH2 0x3DA7 DUP11 DUP3 DUP12 ADD PUSH2 0x3641 JUMP JUMPDEST SWAP5 POP POP PUSH1 0x80 PUSH2 0x3DB8 DUP11 DUP3 DUP12 ADD PUSH2 0x3641 JUMP JUMPDEST SWAP4 POP POP PUSH1 0xA0 PUSH2 0x3DC9 DUP11 DUP3 DUP12 ADD PUSH2 0x3641 JUMP JUMPDEST SWAP3 POP POP PUSH1 0xC0 PUSH2 0x3DDA DUP11 DUP3 DUP12 ADD PUSH2 0x3641 JUMP JUMPDEST SWAP2 POP POP SWAP3 SWAP6 SWAP9 SWAP2 SWAP5 SWAP8 POP SWAP3 SWAP6 POP JUMP JUMPDEST PUSH1 0x0 DUP1 PUSH1 0x0 DUP1 PUSH1 0x80 DUP6 DUP8 SUB SLT ISZERO PUSH2 0x3E03 JUMPI PUSH2 0x3E02 PUSH2 0x3508 JUMP JUMPDEST JUMPDEST PUSH1 0x0 PUSH2 0x3E11 DUP8 DUP3 DUP9 ADD PUSH2 0x3529 JUMP JUMPDEST SWAP5 POP POP PUSH1 0x20 PUSH2 0x3E22 DUP8 DUP3 DUP9 ADD PUSH2 0x3641 JUMP JUMPDEST SWAP4 POP POP PUSH1 0x40 PUSH2 0x3E33 DUP8 DUP3 DUP9 ADD PUSH2 0x3641 JUMP JUMPDEST SWAP3 POP POP PUSH1 0x60 PUSH2 0x3E44 DUP8 DUP3 DUP9 ADD PUSH2 0x358E JUMP JUMPDEST SWAP2 POP POP SWAP3 SWAP6 SWAP2 SWAP5 POP SWAP3 POP JUMP JUMPDEST PUSH1 0x0 PUSH1 0x40 DUP3 ADD SWAP1 POP PUSH2 0x3E65 PUSH1 0x0 DUP4 ADD DUP6 PUSH2 0x3C22 JUMP JUMPDEST PUSH2 0x3E72 PUSH1 0x20 DUP4 ADD DUP5 PUSH2 0x3498 JUMP JUMPDEST SWAP4 SWAP3 POP POP POP JUMP JUMPDEST PUSH1 0x0 PUSH2 0x3E84 DUP3 PUSH2 0x3440 JUMP JUMPDEST SWAP1 POP SWAP2 SWAP1 POP JUMP JUMPDEST PUSH2 0x3E94 DUP2 PUSH2 0x3E79 JUMP JUMPDEST DUP3 MSTORE POP POP JUMP JUMPDEST PUSH1 0x0 PUSH1 0x20 DUP3 ADD SWAP1 POP PUSH2 0x3EAF PUSH1 0x0 DUP4 ADD DUP5 PUSH2 0x3E8B JUMP JUMPDEST SWAP3 SWAP2 POP POP JUMP JUMPDEST PUSH1 0x0 PUSH1 0x20 DUP3 DUP5 SUB SLT ISZERO PUSH2 0x3ECB JUMPI PUSH2 0x3ECA PUSH2 0x3508 JUMP JUMPDEST JUMPDEST PUSH1 0x0 PUSH2 0x3ED9 DUP5 DUP3 DUP6 ADD PUSH2 0x3641 JUMP JUMPDEST SWAP2 POP POP SWAP3 SWAP2 POP POP JUMP JUMPDEST PUSH1 0x0 PUSH1 0x60 DUP3 ADD SWAP1 POP PUSH2 0x3EF7 PUSH1 0x0 DUP4 ADD DUP7 PUSH2 0x34D4 JUMP JUMPDEST PUSH2 0x3F04 PUSH1 0x20 DUP4 ADD DUP6 PUSH2 0x34D4 JUMP JUMPDEST PUSH2 0x3F11 PUSH1 0x40 DUP4 ADD DUP5 PUSH2 0x3C22 JUMP JUMPDEST SWAP5 SWAP4 POP POP POP POP JUMP JUMPDEST PUSH1 0x0 PUSH1 0x20 DUP3 DUP5 SUB SLT ISZERO PUSH2 0x3F2F JUMPI PUSH2 0x3F2E PUSH2 0x3508 JUMP JUMPDEST JUMPDEST PUSH1 0x0 PUSH2 0x3F3D DUP5 DUP3 DUP6 ADD PUSH2 0x3853 JUMP JUMPDEST SWAP2 POP POP SWAP3 SWAP2 POP POP JUMP JUMPDEST PUSH1 0x0 DUP1 PUSH1 0x0 PUSH1 0x60 DUP5 DUP7 SUB SLT ISZERO PUSH2 0x3F5F JUMPI PUSH2 0x3F5E PUSH2 0x3508 JUMP JUMPDEST JUMPDEST PUSH1 0x0 PUSH2 0x3F6D DUP7 DUP3 DUP8 ADD PUSH2 0x3529 JUMP JUMPDEST SWAP4 POP POP PUSH1 0x20 DUP5 ADD CALLDATALOAD PUSH8 0xFFFFFFFFFFFFFFFF DUP2 GT ISZERO PUSH2 0x3F8E JUMPI PUSH2 0x3F8D PUSH2 0x350D JUMP JUMPDEST JUMPDEST PUSH2 0x3F9A DUP7 DUP3 DUP8 ADD PUSH2 0x380E JUMP JUMPDEST SWAP3 POP POP PUSH1 0x40 PUSH2 0x3FAB DUP7 DUP3 DUP8 ADD PUSH2 0x358E JUMP JUMPDEST SWAP2 POP POP SWAP3 POP SWAP3 POP SWAP3 JUMP JUMPDEST PUSH1 0x0 DUP2 PUSH1 0x60 SHL SWAP1 POP SWAP2 SWAP1 POP JUMP JUMPDEST PUSH1 0x0 PUSH2 0x3FCD DUP3 PUSH2 0x3FB5 JUMP JUMPDEST SWAP1 POP SWAP2 SWAP1 POP JUMP JUMPDEST PUSH1 0x0 PUSH2 0x3FDF DUP3 PUSH2 0x3FC2 JUMP JUMPDEST SWAP1 POP SWAP2 SWAP1 POP JUMP JUMPDEST PUSH2 0x3FF7 PUSH2 0x3FF2 DUP3 PUSH2 0x34C2 JUMP JUMPDEST PUSH2 0x3FD4 JUMP JUMPDEST DUP3 MSTORE POP POP JUMP JUMPDEST PUSH1 0x0 DUP2 PUSH1 0xF8 SHL SWAP1 POP SWAP2 SWAP1 POP JUMP JUMPDEST PUSH1 0x0 PUSH2 0x4015 DUP3 PUSH2 0x3FFD JUMP JUMPDEST SWAP1 POP SWAP2 SWAP1 POP JUMP JUMPDEST PUSH1 0x0 PUSH2 0x4027 DUP3 PUSH2 0x400A JUMP JUMPDEST SWAP1 POP SWAP2 SWAP1 POP JUMP JUMPDEST PUSH2 0x403F PUSH2 0x403A DUP3 PUSH2 0x356B JUMP JUMPDEST PUSH2 0x401C JUMP JUMPDEST DUP3 MSTORE POP POP JUMP JUMPDEST PUSH1 0x0 PUSH2 0x4051 DUP3 DUP7 PUSH2 0x3FE6 JUMP JUMPDEST PUSH1 0x14 DUP3 ADD SWAP2 POP PUSH2 0x4061 DUP3 DUP6 PUSH2 0x3FE6 JUMP JUMPDEST PUSH1 0x14 DUP3 ADD SWAP2 POP PUSH2 0x4071 DUP3 DUP5 PUSH2 0x402E JUMP JUMPDEST PUSH1 0x1 DUP3 ADD SWAP2 POP DUP2 SWAP1 POP SWAP5 SWAP4 POP POP POP POP JUMP JUMPDEST PUSH32 0x4E487B7100000000000000000000000000000000000000000000000000000000 PUSH1 0x0 MSTORE PUSH1 0x32 PUSH1 0x4 MSTORE PUSH1 0x24 PUSH1 0x0 REVERT JUMPDEST PUSH32 0x4E487B7100000000000000000000000000000000000000000000000000000000 PUSH1 0x0 MSTORE PUSH1 0x11 PUSH1 0x4 MSTORE PUSH1 0x24 PUSH1 0x0 REVERT JUMPDEST PUSH1 0x0 PUSH2 0x40EB DUP3 PUSH2 0x348E JUMP JUMPDEST SWAP2 POP PUSH2 0x40F6 DUP4 PUSH2 0x348E JUMP JUMPDEST SWAP3 POP DUP3 DUP3 ADD SWAP1 POP DUP1 DUP3 GT ISZERO PUSH2 0x410E JUMPI PUSH2 0x410D PUSH2 0x40B1 JUMP JUMPDEST JUMPDEST SWAP3 SWAP2 POP POP JUMP JUMPDEST PUSH1 0x0 PUSH2 0x411F DUP3 PUSH2 0x348E JUMP JUMPDEST SWAP2 POP PUSH32 0xFFFFFFFFFFFFFFFFFFFFFFFFFFFFFFFFFFFFFFFFFFFFFFFFFFFFFFFFFFFFFFFF DUP3 SUB PUSH2 0x4151 JUMPI PUSH2 0x4150 PUSH2 0x40B1 JUMP JUMPDEST JUMPDEST PUSH1 0x1 DUP3 ADD SWAP1 POP SWAP2 SWAP1 POP JUMP JUMPDEST PUSH1 0x0 DUP2 MLOAD SWAP1 POP PUSH2 0x416B DUP2 PUSH2 0x362A JUMP JUMPDEST SWAP3 SWAP2 POP POP JUMP JUMPDEST PUSH1 0x0 PUSH1 0x20 DUP3 DUP5 SUB SLT ISZERO PUSH2 0x4187 JUMPI PUSH2 0x4186 PUSH2 0x3508 JUMP JUMPDEST JUMPDEST PUSH1 0x0 PUSH2 0x4195 DUP5 DUP3 DUP6 ADD PUSH2 0x415C JUMP JUMPDEST SWAP2 POP POP SWAP3 SWAP2 POP POP JUMP JUMPDEST PUSH1 0x0 DUP3 DUP3 MSTORE PUSH1 0x20 DUP3 ADD SWAP1 POP SWAP3 SWAP2 POP POP JUMP JUMPDEST PUSH32 0x6865616C746820666163746F7200000000000000000000000000000000000000 PUSH1 0x0 DUP3 ADD MSTORE POP JUMP JUMPDEST PUSH1 0x0 PUSH2 0x41E5 PUSH1 0xD DUP4 PUSH2 0x419E JUMP JUMPDEST SWAP2 POP PUSH2 0x41F0 DUP3 PUSH2 0x41AF JUMP JUMPDEST PUSH1 0x20 DUP3 ADD SWAP1 POP SWAP2 SWAP1 POP JUMP JUMPDEST PUSH1 0x0 PUSH1 0x20 DUP3 ADD SWAP1 POP DUP2 DUP2 SUB PUSH1 0x0 DUP4 ADD MSTORE PUSH2 0x4214 DUP2 PUSH2 0x41D8 JUMP JUMPDEST SWAP1 POP SWAP2 SWAP1 POP JUMP JUMPDEST PUSH1 0x0 PUSH1 0xA0 DUP3 ADD SWAP1 POP PUSH2 0x4230 PUSH1 0x0 DUP4 ADD DUP9 PUSH2 0x34D4 JUMP JUMPDEST PUSH2 0x423D PUSH1 0x20 DUP4 ADD DUP8 PUSH2 0x3498 JUMP JUMPDEST PUSH2 0x424A PUSH1 0x40 DUP4 ADD DUP7 PUSH2 0x3498 JUMP JUMPDEST PUSH2 0x4257 PUSH1 0x60 DUP4 ADD DUP6 PUSH2 0x3C22 JUMP JUMPDEST PUSH2 0x4264 PUSH1 0x80 DUP4 ADD DUP5 PUSH2 0x3498 JUMP JUMPDEST SWAP7 SWAP6 POP POP POP POP POP POP JUMP JUMPDEST PUSH1 0x0 DUP2 MLOAD SWAP1 POP PUSH2 0x427D DUP2 PUSH2 0x3577 JUMP JUMPDEST SWAP3 SWAP2 POP POP JUMP JUMPDEST PUSH1 0x0 DUP1 PUSH1 0x40 DUP4 DUP6 SUB SLT ISZERO PUSH2 0x429A JUMPI PUSH2 0x4299 PUSH2 0x3508 JUMP JUMPDEST JUMPDEST PUSH1 0x0 PUSH2 0x42A8 DUP6 DUP3 DUP7 ADD PUSH2 0x426E JUMP JUMPDEST SWAP3 POP POP PUSH1 0x20 PUSH2 0x42B9 DUP6 DUP3 DUP7 ADD PUSH2 0x415C JUMP JUMPDEST SWAP2 POP POP SWAP3 POP SWAP3 SWAP1 POP JUMP JUMPDEST PUSH32 0x6F6E6C7920746865206F776E65722063616E2063616C6C20746869732066756E PUSH1 0x0 DUP3 ADD MSTORE PUSH32 0x6374696F6E000000000000000000000000000000000000000000000000000000 PUSH1 0x20 DUP3 ADD MSTORE POP JUMP JUMPDEST PUSH1 0x0 PUSH2 0x431F PUSH1 0x25 DUP4 PUSH2 0x419E JUMP JUMPDEST SWAP2 POP PUSH2 0x432A DUP3 PUSH2 0x42C3 JUMP JUMPDEST PUSH1 0x40 DUP3 ADD SWAP1 POP SWAP2 SWAP1 POP JUMP JUMPDEST PUSH1 0x0 PUSH1 0x20 DUP3 ADD SWAP1 POP DUP2 DUP2 SUB PUSH1 0x0 DUP4 ADD MSTORE PUSH2 0x434E DUP2 PUSH2 0x4312 JUMP JUMPDEST SWAP1 POP SWAP2 SWAP1 POP JUMP JUMPDEST PUSH1 0x0 DUP2 MLOAD SWAP1 POP SWAP2 SWAP1 POP JUMP JUMPDEST PUSH1 0x0 DUP3 DUP3 MSTORE PUSH1 0x20 DUP3 ADD SWAP1 POP SWAP3 SWAP2 POP POP JUMP JUMPDEST PUSH1 0x0 DUP2 SWAP1 POP PUSH1 0x20 DUP3 ADD SWAP1 POP SWAP2 SWAP1 POP JUMP JUMPDEST PUSH1 0x0 PUSH2 0x438D DUP4 DUP4 PUSH2 0x39BA JUMP JUMPDEST PUSH1 0x20 DUP4 ADD SWAP1 POP SWAP3 SWAP2 POP POP JUMP JUMPDEST PUSH1 0x0 PUSH1 0x20 DUP3 ADD SWAP1 POP SWAP2 SWAP1 POP JUMP JUMPDEST PUSH1 0x0 PUSH2 0x43B1 DUP3 PUSH2 0x4355 JUMP JUMPDEST PUSH2 0x43BB DUP2 DUP6 PUSH2 0x4360 JUMP JUMPDEST SWAP4 POP PUSH2 0x43C6 DUP4 PUSH2 0x4371 JUMP JUMPDEST DUP1 PUSH1 0x0 JUMPDEST DUP4 DUP2 LT ISZERO PUSH2 0x43F7 JUMPI DUP2 MLOAD PUSH2 0x43DE DUP9 DUP3 PUSH2 0x4381 JUMP JUMPDEST SWAP8 POP PUSH2 0x43E9 DUP4 PUSH2 0x4399 JUMP JUMPDEST SWAP3 POP POP PUSH1 0x1 DUP2 ADD SWAP1 POP PUSH2 0x43CA JUMP JUMPDEST POP DUP6 SWAP4 POP POP POP POP SWAP3 SWAP2 POP POP JUMP JUMPDEST PUSH1 0x0 PUSH2 0x120 DUP3 ADD SWAP1 POP DUP2 DUP2 SUB PUSH1 0x0 DUP4 ADD MSTORE PUSH2 0x441F DUP2 DUP13 PUSH2 0x43A6 JUMP JUMPDEST SWAP1 POP PUSH2 0x442E PUSH1 0x20 DUP4 ADD DUP12 PUSH2 0x34D4 JUMP JUMPDEST PUSH2 0x443B PUSH1 0x40 DUP4 ADD DUP11 PUSH2 0x3498 JUMP JUMPDEST PUSH2 0x4448 PUSH1 0x60 DUP4 ADD DUP10 PUSH2 0x3498 JUMP JUMPDEST PUSH2 0x4455 PUSH1 0x80 DUP4 ADD DUP9 PUSH2 0x3C22 JUMP JUMPDEST PUSH2 0x4462 PUSH1 0xA0 DUP4 ADD DUP8 PUSH2 0x3498 JUMP JUMPDEST PUSH2 0x446F PUSH1 0xC0 DUP4 ADD DUP7 PUSH2 0x3498 JUMP JUMPDEST PUSH2 0x447C PUSH1 0xE0 DUP4 ADD DUP6 PUSH2 0x3600 JUMP JUMPDEST PUSH2 0x448A PUSH2 0x100 DUP4 ADD DUP5 PUSH2 0x34D4 JUMP JUMPDEST SWAP11 SWAP10 POP POP POP POP POP POP POP POP POP POP JUMP JUMPDEST PUSH1 0x0 DUP2 MLOAD SWAP1 POP PUSH2 0x44A7 DUP2 PUSH2 0x383C JUMP JUMPDEST SWAP3 SWAP2 POP POP JUMP JUMPDEST PUSH1 0x0 PUSH1 0x20 DUP3 DUP5 SUB SLT ISZERO PUSH2 0x44C3 JUMPI PUSH2 0x44C2 PUSH2 0x3508 JUMP JUMPDEST JUMPDEST PUSH1 0x0 PUSH2 0x44D1 DUP5 DUP3 DUP6 ADD PUSH2 0x4498 JUMP JUMPDEST SWAP2 POP POP SWAP3 SWAP2 POP POP JUMP JUMPDEST PUSH32 0x4F6E6C792066756E6473206F776E65722063616E207769746864726177206675 PUSH1 0x0 DUP3 ADD MSTORE PUSH32 0x6E64730000000000000000000000000000000000000000000000000000000000 PUSH1 0x20 DUP3 ADD MSTORE POP JUMP JUMPDEST PUSH1 0x0 PUSH2 0x4536 PUSH1 0x23 DUP4 PUSH2 0x419E JUMP JUMPDEST SWAP2 POP PUSH2 0x4541 DUP3 PUSH2 0x44DA JUMP JUMPDEST PUSH1 0x40 DUP3 ADD SWAP1 POP SWAP2 SWAP1 POP JUMP JUMPDEST PUSH1 0x0 PUSH1 0x20 DUP3 ADD SWAP1 POP DUP2 DUP2 SUB PUSH1 0x0 DUP4 ADD MSTORE PUSH2 0x4565 DUP2 PUSH2 0x4529 JUMP JUMPDEST SWAP1 POP SWAP2 SWAP1 POP JUMP JUMPDEST PUSH1 0x0 PUSH2 0x4577 DUP3 PUSH2 0x33F4 JUMP JUMPDEST SWAP1 POP SWAP2 SWAP1 POP JUMP JUMPDEST PUSH2 0x4587 DUP2 PUSH2 0x456C JUMP JUMPDEST DUP3 MSTORE POP POP JUMP JUMPDEST PUSH1 0x0 PUSH1 0x60 DUP3 ADD SWAP1 POP PUSH2 0x45A2 PUSH1 0x0 DUP4 ADD DUP7 PUSH2 0x457E JUMP JUMPDEST PUSH2 0x45AF PUSH1 0x20 DUP4 ADD DUP6 PUSH2 0x34D4 JUMP JUMPDEST PUSH2 0x45BC PUSH1 0x40 DUP4 ADD DUP5 PUSH2 0x3498 JUMP JUMPDEST SWAP5 SWAP4 POP POP POP POP JUMP JUMPDEST PUSH1 0x0 PUSH1 0x80 DUP3 ADD SWAP1 POP PUSH2 0x45D9 PUSH1 0x0 DUP4 ADD DUP8 PUSH2 0x34D4 JUMP JUMPDEST PUSH2 0x45E6 PUSH1 0x20 DUP4 ADD DUP7 PUSH2 0x34D4 JUMP JUMPDEST PUSH2 0x45F3 PUSH1 0x40 DUP4 ADD DUP6 PUSH2 0x34D4 JUMP JUMPDEST PUSH2 0x4600 PUSH1 0x60 DUP4 ADD DUP5 PUSH2 0x3C22 JUMP JUMPDEST SWAP6 SWAP5 POP POP POP POP POP JUMP JUMPDEST PUSH1 0x0 DUP1 PUSH1 0x0 DUP1 PUSH1 0x0 DUP1 PUSH1 0x0 DUP1 PUSH2 0x100 DUP10 DUP12 SUB SLT ISZERO PUSH2 0x462A JUMPI PUSH2 0x4629 PUSH2 0x3508 JUMP JUMPDEST JUMPDEST PUSH1 0x0 PUSH2 0x4638 DUP12 DUP3 DUP13 ADD PUSH2 0x415C JUMP JUMPDEST SWAP9 POP POP PUSH1 0x20 PUSH2 0x4649 DUP12 DUP3 DUP13 ADD PUSH2 0x415C JUMP JUMPDEST SWAP8 POP POP PUSH1 0x40 PUSH2 0x465A DUP12 DUP3 DUP13 ADD PUSH2 0x415C JUMP JUMPDEST SWAP7 POP POP PUSH1 0x60 PUSH2 0x466B DUP12 DUP3 DUP13 ADD PUSH2 0x415C JUMP JUMPDEST SWAP6 POP POP PUSH1 0x80 PUSH2 0x467C DUP12 DUP3 DUP13 ADD PUSH2 0x415C JUMP JUMPDEST SWAP5 POP POP PUSH1 0xA0 PUSH2 0x468D DUP12 DUP3 DUP13 ADD PUSH2 0x415C JUMP JUMPDEST SWAP4 POP POP PUSH1 0xC0 PUSH2 0x469E DUP12 DUP3 DUP13 ADD PUSH2 0x426E JUMP JUMPDEST SWAP3 POP POP PUSH1 0xE0 PUSH2 0x46AF DUP12 DUP3 DUP13 ADD PUSH2 0x415C JUMP JUMPDEST SWAP2 POP POP SWAP3 SWAP6 SWAP9 POP SWAP3 SWAP6 SWAP9 SWAP1 SWAP4 SWAP7 POP JUMP JUMPDEST PUSH32 0x6F6E6C7920746865206F776E6572206F7220676F762063616E2063616C6C2074 PUSH1 0x0 DUP3 ADD MSTORE PUSH32 0x6869732066756E6374696F6E0000000000000000000000000000000000000000 PUSH1 0x20 DUP3 ADD MSTORE POP JUMP JUMPDEST PUSH1 0x0 PUSH2 0x471B PUSH1 0x2C DUP4 PUSH2 0x419E JUMP JUMPDEST SWAP2 POP PUSH2 0x4726 DUP3 PUSH2 0x46BF JUMP JUMPDEST PUSH1 0x40 DUP3 ADD SWAP1 POP SWAP2 SWAP1 POP JUMP JUMPDEST PUSH1 0x0 PUSH1 0x20 DUP3 ADD SWAP1 POP DUP2 DUP2 SUB PUSH1 0x0 DUP4 ADD MSTORE PUSH2 0x474A DUP2 PUSH2 0x470E JUMP JUMPDEST SWAP1 POP SWAP2 SWAP1 POP JUMP JUMPDEST PUSH32 0x6665650000000000000000000000000000000000000000000000000000000000 PUSH1 0x0 DUP3 ADD MSTORE POP JUMP JUMPDEST PUSH1 0x0 PUSH2 0x4787 PUSH1 0x3 DUP4 PUSH2 0x419E JUMP JUMPDEST SWAP2 POP PUSH2 0x4792 DUP3 PUSH2 0x4751 JUMP JUMPDEST PUSH1 0x20 DUP3 ADD SWAP1 POP SWAP2 SWAP1 POP JUMP JUMPDEST PUSH1 0x0 PUSH1 0x20 DUP3 ADD SWAP1 POP DUP2 DUP2 SUB PUSH1 0x0 DUP4 ADD MSTORE PUSH2 0x47B6 DUP2 PUSH2 0x477A JUMP JUMPDEST SWAP1 POP SWAP2 SWAP1 POP JUMP JUMPDEST PUSH32 0x6C6F616E20616D6F756E7420646F6573206E6F74207065726D6974206C697175 PUSH1 0x0 DUP3 ADD MSTORE PUSH32 0x69646174696F6E00000000000000000000000000000000000000000000000000 PUSH1 0x20 DUP3 ADD MSTORE POP JUMP JUMPDEST PUSH1 0x0 PUSH2 0x4819 PUSH1 0x27 DUP4 PUSH2 0x419E JUMP JUMPDEST SWAP2 POP PUSH2 0x4824 DUP3 PUSH2 0x47BD JUMP JUMPDEST PUSH1 0x40 DUP3 ADD SWAP1 POP SWAP2 SWAP1 POP JUMP JUMPDEST PUSH1 0x0 PUSH1 0x20 DUP3 ADD SWAP1 POP DUP2 DUP2 SUB PUSH1 0x0 DUP4 ADD MSTORE PUSH2 0x4848 DUP2 PUSH2 0x480C JUMP JUMPDEST SWAP1 POP SWAP2 SWAP1 POP JUMP JUMPDEST PUSH32 0x4E487B7100000000000000000000000000000000000000000000000000000000 PUSH1 0x0 MSTORE PUSH1 0x21 PUSH1 0x4 MSTORE PUSH1 0x24 PUSH1 0x0 REVERT JUMPDEST PUSH1 0x0 PUSH1 0x60 DUP3 ADD SWAP1 POP PUSH2 0x4893 PUSH1 0x0 DUP4 ADD DUP7 PUSH2 0x34D4 JUMP JUMPDEST PUSH2 0x48A0 PUSH1 0x20 DUP4 ADD DUP6 PUSH2 0x34D4 JUMP JUMPDEST PUSH2 0x48AD PUSH1 0x40 DUP4 ADD DUP5 PUSH2 0x3498 JUMP JUMPDEST SWAP5 SWAP4 POP POP POP POP JUMP JUMPDEST PUSH1 0x0 PUSH1 0x20 DUP3 DUP5 SUB SLT ISZERO PUSH2 0x48CB JUMPI PUSH2 0x48CA PUSH2 0x3508 JUMP JUMPDEST JUMPDEST PUSH1 0x0 PUSH2 0x48D9 DUP5 DUP3 DUP6 ADD PUSH2 0x426E JUMP JUMPDEST SWAP2 POP POP SWAP3 SWAP2 POP POP JUMP JUMPDEST PUSH32 0x6661696C656420746F207472616E7366657220696E20636F6C6C61746572616C PUSH1 0x0 DUP3 ADD MSTORE POP JUMP JUMPDEST PUSH1 0x0 PUSH2 0x4918 PUSH1 0x20 DUP4 PUSH2 0x419E JUMP JUMPDEST SWAP2 POP PUSH2 0x4923 DUP3 PUSH2 0x48E2 JUMP JUMPDEST PUSH1 0x20 DUP3 ADD SWAP1 POP SWAP2 SWAP1 POP JUMP JUMPDEST PUSH1 0x0 PUSH1 0x20 DUP3 ADD SWAP1 POP DUP2 DUP2 SUB PUSH1 0x0 DUP4 ADD MSTORE PUSH2 0x4947 DUP2 PUSH2 0x490B JUMP JUMPDEST SWAP1 POP SWAP2 SWAP1 POP JUMP JUMPDEST PUSH1 0x0 PUSH1 0x40 DUP3 ADD SWAP1 POP PUSH2 0x4963 PUSH1 0x0 DUP4 ADD DUP6 PUSH2 0x34D4 JUMP JUMPDEST PUSH2 0x4970 PUSH1 0x20 DUP4 ADD DUP5 PUSH2 0x3498 JUMP JUMPDEST SWAP4 SWAP3 POP POP POP JUMP JUMPDEST PUSH32 0x6661696C656420746F20617070726F766520636F6C6C61746572616C20747261 PUSH1 0x0 DUP3 ADD MSTORE PUSH32 0x6E73666572000000000000000000000000000000000000000000000000000000 PUSH1 0x20 DUP3 ADD MSTORE POP JUMP JUMPDEST PUSH1 0x0 PUSH2 0x49D3 PUSH1 0x25 DUP4 PUSH2 0x419E JUMP JUMPDEST SWAP2 POP PUSH2 0x49DE DUP3 PUSH2 0x4977 JUMP JUMPDEST PUSH1 0x40 DUP3 ADD SWAP1 POP SWAP2 SWAP1 POP JUMP JUMPDEST PUSH1 0x0 PUSH1 0x20 DUP3 ADD SWAP1 POP DUP2 DUP2 SUB PUSH1 0x0 DUP4 ADD MSTORE PUSH2 0x4A02 DUP2 PUSH2 0x49C6 JUMP JUMPDEST SWAP1 POP SWAP2 SWAP1 POP JUMP JUMPDEST PUSH1 0x0 PUSH2 0x140 DUP3 ADD SWAP1 POP DUP2 DUP2 SUB PUSH1 0x0 DUP4 ADD MSTORE PUSH2 0x4A24 DUP2 DUP14 PUSH2 0x43A6 JUMP JUMPDEST SWAP1 POP PUSH2 0x4A33 PUSH1 0x20 DUP4 ADD DUP13 PUSH2 0x34D4 JUMP JUMPDEST PUSH2 0x4A40 PUSH1 0x40 DUP4 ADD DUP12 PUSH2 0x3498 JUMP JUMPDEST PUSH2 0x4A4D PUSH1 0x60 DUP4 ADD DUP11 PUSH2 0x3498 JUMP JUMPDEST PUSH2 0x4A5A PUSH1 0x80 DUP4 ADD DUP10 PUSH2 0x3498 JUMP JUMPDEST PUSH2 0x4A67 PUSH1 0xA0 DUP4 ADD DUP9 PUSH2 0x3C22 JUMP JUMPDEST PUSH2 0x4A74 PUSH1 0xC0 DUP4 ADD DUP8 PUSH2 0x3498 JUMP JUMPDEST PUSH2 0x4A81 PUSH1 0xE0 DUP4 ADD DUP7 PUSH2 0x3498 JUMP JUMPDEST PUSH2 0x4A8F PUSH2 0x100 DUP4 ADD DUP6 PUSH2 0x3600 JUMP JUMPDEST PUSH2 0x4A9D PUSH2 0x120 DUP4 ADD DUP5 PUSH2 0x34D4 JUMP JUMPDEST SWAP12 SWAP11 POP POP POP POP POP POP POP POP POP POP POP JUMP JUMPDEST PUSH1 0x0 PUSH1 0x60 DUP3 ADD SWAP1 POP PUSH2 0x4AC1 PUSH1 0x0 DUP4 ADD DUP7 PUSH2 0x34D4 JUMP JUMPDEST PUSH2 0x4ACE PUSH1 0x20 DUP4 ADD DUP6 PUSH2 0x3498 JUMP JUMPDEST PUSH2 0x4ADB PUSH1 0x40 DUP4 ADD DUP5 PUSH2 0x3498 JUMP JUMPDEST SWAP5 SWAP4 POP POP POP POP JUMP JUMPDEST PUSH32 0x617665726765207072696365206F6620706F736974696F6E2068617320746F20 PUSH1 0x0 DUP3 ADD MSTORE PUSH32 0x62652067726561746572207468616E2030000000000000000000000000000000 PUSH1 0x20 DUP3 ADD MSTORE POP JUMP JUMPDEST PUSH1 0x0 PUSH2 0x4B3F PUSH1 0x31 DUP4 PUSH2 0x419E JUMP JUMPDEST SWAP2 POP PUSH2 0x4B4A DUP3 PUSH2 0x4AE3 JUMP JUMPDEST PUSH1 0x40 DUP3 ADD SWAP1 POP SWAP2 SWAP1 POP JUMP JUMPDEST PUSH1 0x0 PUSH1 0x20 DUP3 ADD SWAP1 POP DUP2 DUP2 SUB PUSH1 0x0 DUP4 ADD MSTORE PUSH2 0x4B6E DUP2 PUSH2 0x4B32 JUMP JUMPDEST SWAP1 POP SWAP2 SWAP1 POP JUMP JUMPDEST PUSH1 0x0 PUSH1 0x40 DUP3 ADD SWAP1 POP PUSH2 0x4B8A PUSH1 0x0 DUP4 ADD DUP6 PUSH2 0x3600 JUMP JUMPDEST PUSH2 0x4B97 PUSH1 0x20 DUP4 ADD DUP5 PUSH2 0x34D4 JUMP JUMPDEST SWAP4 SWAP3 POP POP POP JUMP JUMPDEST PUSH32 0x6F6E6C7920676F762063616E2063616C6C20746869732066756E6374696F6E00 PUSH1 0x0 DUP3 ADD MSTORE POP JUMP JUMPDEST PUSH1 0x0 PUSH2 0x4BD4 PUSH1 0x1F DUP4 PUSH2 0x419E JUMP JUMPDEST SWAP2 POP PUSH2 0x4BDF DUP3 PUSH2 0x4B9E JUMP JUMPDEST PUSH1 0x20 DUP3 ADD SWAP1 POP SWAP2 SWAP1 POP JUMP JUMPDEST PUSH1 0x0 PUSH1 0x20 DUP3 ADD SWAP1 POP DUP2 DUP2 SUB PUSH1 0x0 DUP4 ADD MSTORE PUSH2 0x4C03 DUP2 PUSH2 0x4BC7 JUMP JUMPDEST SWAP1 POP SWAP2 SWAP1 POP JUMP JUMPDEST PUSH1 0x0 PUSH2 0x4C15 DUP3 PUSH2 0x348E JUMP JUMPDEST SWAP2 POP PUSH2 0x4C20 DUP4 PUSH2 0x348E JUMP JUMPDEST SWAP3 POP DUP3 DUP3 MUL PUSH2 0x4C2E DUP2 PUSH2 0x348E JUMP JUMPDEST SWAP2 POP DUP3 DUP3 DIV DUP5 EQ DUP4 ISZERO OR PUSH2 0x4C45 JUMPI PUSH2 0x4C44 PUSH2 0x40B1 JUMP JUMPDEST JUMPDEST POP SWAP3 SWAP2 POP POP JUMP JUMPDEST PUSH32 0x4E487B7100000000000000000000000000000000000000000000000000000000 PUSH1 0x0 MSTORE PUSH1 0x12 PUSH1 0x4 MSTORE PUSH1 0x24 PUSH1 0x0 REVERT JUMPDEST PUSH1 0x0 PUSH2 0x4C86 DUP3 PUSH2 0x348E JUMP JUMPDEST SWAP2 POP PUSH2 0x4C91 DUP4 PUSH2 0x348E JUMP JUMPDEST SWAP3 POP DUP3 PUSH2 0x4CA1 JUMPI PUSH2 0x4CA0 PUSH2 0x4C4C JUMP JUMPDEST JUMPDEST DUP3 DUP3 DIV SWAP1 POP SWAP3 SWAP2 POP POP JUMP JUMPDEST PUSH32 0x536166654D6174683A206D756C7469706C69636174696F6E206F766572666C6F PUSH1 0x0 DUP3 ADD MSTORE PUSH32 0x7700000000000000000000000000000000000000000000000000000000000000 PUSH1 0x20 DUP3 ADD MSTORE POP JUMP JUMPDEST PUSH1 0x0 PUSH2 0x4D08 PUSH1 0x21 DUP4 PUSH2 0x419E JUMP JUMPDEST SWAP2 POP PUSH2 0x4D13 DUP3 PUSH2 0x4CAC JUMP JUMPDEST PUSH1 0x40 DUP3 ADD SWAP1 POP SWAP2 SWAP1 POP JUMP JUMPDEST PUSH1 0x0 PUSH1 0x20 DUP3 ADD SWAP1 POP DUP2 DUP2 SUB PUSH1 0x0 DUP4 ADD MSTORE PUSH2 0x4D37 DUP2 PUSH2 0x4CFB JUMP JUMPDEST SWAP1 POP SWAP2 SWAP1 POP JUMP JUMPDEST PUSH32 0x6661696C656420746F206C697175696461746520706F736974696F6E00000000 PUSH1 0x0 DUP3 ADD MSTORE POP JUMP JUMPDEST PUSH1 0x0 PUSH2 0x4D74 PUSH1 0x1C DUP4 PUSH2 0x419E JUMP JUMPDEST SWAP2 POP PUSH2 0x4D7F DUP3 PUSH2 0x4D3E JUMP JUMPDEST PUSH1 0x20 DUP3 ADD SWAP1 POP SWAP2 SWAP1 POP JUMP JUMPDEST PUSH1 0x0 PUSH1 0x20 DUP3 ADD SWAP1 POP DUP2 DUP2 SUB PUSH1 0x0 DUP4 ADD MSTORE PUSH2 0x4DA3 DUP2 PUSH2 0x4D67 JUMP JUMPDEST SWAP1 POP SWAP2 SWAP1 POP JUMP JUMPDEST PUSH32 0x536166654D6174683A206164646974696F6E206F766572666C6F770000000000 PUSH1 0x0 DUP3 ADD MSTORE POP JUMP JUMPDEST PUSH1 0x0 PUSH2 0x4DE0 PUSH1 0x1B DUP4 PUSH2 0x419E JUMP JUMPDEST SWAP2 POP PUSH2 0x4DEB DUP3 PUSH2 0x4DAA JUMP JUMPDEST PUSH1 0x20 DUP3 ADD SWAP1 POP SWAP2 SWAP1 POP JUMP JUMPDEST PUSH1 0x0 PUSH1 0x20 DUP3 ADD SWAP1 POP DUP2 DUP2 SUB PUSH1 0x0 DUP4 ADD MSTORE PUSH2 0x4E0F DUP2 PUSH2 0x4DD3 JUMP JUMPDEST SWAP1 POP SWAP2 SWAP1 POP JUMP JUMPDEST PUSH1 0x0 PUSH2 0x160 DUP3 ADD SWAP1 POP DUP2 DUP2 SUB PUSH1 0x0 DUP4 ADD MSTORE PUSH2 0x4E31 DUP2 DUP15 PUSH2 0x43A6 JUMP JUMPDEST SWAP1 POP PUSH2 0x4E40 PUSH1 0x20 DUP4 ADD DUP14 PUSH2 0x34D4 JUMP JUMPDEST PUSH2 0x4E4D PUSH1 0x40 DUP4 ADD DUP13 PUSH2 0x3498 JUMP JUMPDEST PUSH2 0x4E5A PUSH1 0x60 DUP4 ADD DUP12 PUSH2 0x3498 JUMP JUMPDEST PUSH2 0x4E67 PUSH1 0x80 DUP4 ADD DUP11 PUSH2 0x3C22 JUMP JUMPDEST PUSH2 0x4E74 PUSH1 0xA0 DUP4 ADD DUP10 PUSH2 0x34D4 JUMP JUMPDEST PUSH2 0x4E81 PUSH1 0xC0 DUP4 ADD DUP9 PUSH2 0x3498 JUMP JUMPDEST PUSH2 0x4E8E PUSH1 0xE0 DUP4 ADD DUP8 PUSH2 0x3498 JUMP JUMPDEST PUSH2 0x4E9C PUSH2 0x100 DUP4 ADD DUP7 PUSH2 0x3498 JUMP JUMPDEST PUSH2 0x4EAA PUSH2 0x120 DUP4 ADD DUP6 PUSH2 0x3C22 JUMP JUMPDEST PUSH2 0x4EB8 PUSH2 0x140 DUP4 ADD DUP5 PUSH2 0x34D4 JUMP JUMPDEST SWAP13 SWAP12 POP POP POP POP POP POP POP POP POP POP POP POP JUMP JUMPDEST PUSH1 0x0 PUSH16 0xFFFFFFFFFFFFFFFFFFFFFFFFFFFFFFFF DUP3 AND SWAP1 POP SWAP2 SWAP1 POP JUMP JUMPDEST PUSH2 0x4EED DUP2 PUSH2 0x4EC8 JUMP JUMPDEST DUP3 MSTORE POP POP JUMP JUMPDEST PUSH1 0x0 PUSH1 0x40 DUP3 ADD SWAP1 POP PUSH2 0x4F08 PUSH1 0x0 DUP4 ADD DUP6 PUSH2 0x4EE4 JUMP JUMPDEST PUSH2 0x4F15 PUSH1 0x20 DUP4 ADD DUP5 PUSH2 0x4EE4 JUMP JUMPDEST SWAP4 SWAP3 POP POP POP JUMP JUMPDEST PUSH1 0x0 DUP2 MLOAD SWAP1 POP SWAP2 SWAP1 POP JUMP JUMPDEST PUSH1 0x0 DUP3 DUP3 MSTORE PUSH1 0x20 DUP3 ADD SWAP1 POP SWAP3 SWAP2 POP POP JUMP JUMPDEST PUSH1 0x0 JUMPDEST DUP4 DUP2 LT ISZERO PUSH2 0x4F56 JUMPI DUP1 DUP3 ADD MLOAD DUP2 DUP5 ADD MSTORE PUSH1 0x20 DUP2 ADD SWAP1 POP PUSH2 0x4F3B JUMP JUMPDEST PUSH1 0x0 DUP5 DUP5 ADD MSTORE POP POP POP POP JUMP JUMPDEST PUSH1 0x0 PUSH2 0x4F6D DUP3 PUSH2 0x4F1C JUMP JUMPDEST PUSH2 0x4F77 DUP2 DUP6 PUSH2 0x4F27 JUMP JUMPDEST SWAP4 POP PUSH2 0x4F87 DUP2 DUP6 PUSH1 0x20 DUP7 ADD PUSH2 0x4F38 JUMP JUMPDEST PUSH2 0x4F90 DUP2 PUSH2 0x36E8 JUMP JUMPDEST DUP5 ADD SWAP2 POP POP SWAP3 SWAP2 POP POP JUMP JUMPDEST PUSH1 0x0 DUP2 MLOAD SWAP1 POP SWAP2 SWAP1 POP JUMP JUMPDEST PUSH1 0x0 DUP3 DUP3 MSTORE PUSH1 0x20 DUP3 ADD SWAP1 POP SWAP3 SWAP2 POP POP JUMP JUMPDEST PUSH1 0x0 DUP2 SWAP1 POP PUSH1 0x20 DUP3 ADD SWAP1 POP SWAP2 SWAP1 POP JUMP JUMPDEST PUSH1 0x4 DUP2 LT PUSH2 0x4FD8 JUMPI PUSH2 0x4FD7 PUSH2 0x484F JUMP JUMPDEST JUMPDEST POP JUMP JUMPDEST PUSH1 0x0 DUP2 SWAP1 POP PUSH2 0x4FE9 DUP3 PUSH2 0x4FC7 JUMP JUMPDEST SWAP2 SWAP1 POP JUMP JUMPDEST PUSH1 0x0 PUSH2 0x4FF9 DUP3 PUSH2 0x4FDB JUMP JUMPDEST SWAP1 POP SWAP2 SWAP1 POP JUMP JUMPDEST PUSH2 0x5009 DUP2 PUSH2 0x4FEE JUMP JUMPDEST DUP3 MSTORE POP POP JUMP JUMPDEST PUSH1 0x0 PUSH2 0x501B DUP4 DUP4 PUSH2 0x5000 JUMP JUMPDEST PUSH1 0x20 DUP4 ADD SWAP1 POP SWAP3 SWAP2 POP POP JUMP JUMPDEST PUSH1 0x0 PUSH1 0x20 DUP3 ADD SWAP1 POP SWAP2 SWAP1 POP JUMP JUMPDEST PUSH1 0x0 PUSH2 0x503F DUP3 PUSH2 0x4F9B JUMP JUMPDEST PUSH2 0x5049 DUP2 DUP6 PUSH2 0x4FA6 JUMP JUMPDEST SWAP4 POP PUSH2 0x5054 DUP4 PUSH2 0x4FB7 JUMP JUMPDEST DUP1 PUSH1 0x0 JUMPDEST DUP4 DUP2 LT ISZERO PUSH2 0x5085 JUMPI DUP2 MLOAD PUSH2 0x506C DUP9 DUP3 PUSH2 0x500F JUMP JUMPDEST SWAP8 POP PUSH2 0x5077 DUP4 PUSH2 0x5027 JUMP JUMPDEST SWAP3 POP POP PUSH1 0x1 DUP2 ADD SWAP1 POP PUSH2 0x5058 JUMP JUMPDEST POP DUP6 SWAP4 POP POP POP POP SWAP3 SWAP2 POP POP JUMP JUMPDEST PUSH1 0x0 DUP2 MLOAD SWAP1 POP SWAP2 SWAP1 POP JUMP JUMPDEST PUSH1 0x0 DUP3 DUP3 MSTORE PUSH1 0x20 DUP3 ADD SWAP1 POP SWAP3 SWAP2 POP POP JUMP JUMPDEST PUSH1 0x0 DUP2 SWAP1 POP PUSH1 0x20 DUP3 ADD SWAP1 POP SWAP2 SWAP1 POP JUMP JUMPDEST PUSH1 0x0 DUP3 DUP3 MSTORE PUSH1 0x20 DUP3 ADD SWAP1 POP SWAP3 SWAP2 POP POP JUMP JUMPDEST PUSH1 0x0 PUSH2 0x50DA DUP3 PUSH2 0x4F1C JUMP JUMPDEST PUSH2 0x50E4 DUP2 DUP6 PUSH2 0x50BE JUMP JUMPDEST SWAP4 POP PUSH2 0x50F4 DUP2 DUP6 PUSH1 0x20 DUP7 ADD PUSH2 0x4F38 JUMP JUMPDEST PUSH2 0x50FD DUP2 PUSH2 0x36E8 JUMP JUMPDEST DUP5 ADD SWAP2 POP POP SWAP3 SWAP2 POP POP JUMP JUMPDEST PUSH1 0x0 PUSH2 0x5114 DUP4 DUP4 PUSH2 0x50CF JUMP JUMPDEST SWAP1 POP SWAP3 SWAP2 POP POP JUMP JUMPDEST PUSH1 0x0 PUSH1 0x20 DUP3 ADD SWAP1 POP SWAP2 SWAP1 POP JUMP JUMPDEST PUSH1 0x0 PUSH2 0x5134 DUP3 PUSH2 0x5092 JUMP JUMPDEST PUSH2 0x513E DUP2 DUP6 PUSH2 0x509D JUMP JUMPDEST SWAP4 POP DUP4 PUSH1 0x20 DUP3 MUL DUP6 ADD PUSH2 0x5150 DUP6 PUSH2 0x50AE JUMP JUMPDEST DUP1 PUSH1 0x0 JUMPDEST DUP6 DUP2 LT ISZERO PUSH2 0x518C JUMPI DUP5 DUP5 SUB DUP10 MSTORE DUP2 MLOAD PUSH2 0x516D DUP6 DUP3 PUSH2 0x5108 JUMP JUMPDEST SWAP5 POP PUSH2 0x5178 DUP4 PUSH2 0x511C JUMP JUMPDEST SWAP3 POP PUSH1 0x20 DUP11 ADD SWAP10 POP POP PUSH1 0x1 DUP2 ADD SWAP1 POP PUSH2 0x5154 JUMP JUMPDEST POP DUP3 SWAP8 POP DUP8 SWAP6 POP POP POP POP POP POP SWAP3 SWAP2 POP POP JUMP JUMPDEST PUSH1 0x0 PUSH1 0x40 DUP4 ADD PUSH1 0x0 DUP4 ADD MLOAD DUP5 DUP3 SUB PUSH1 0x0 DUP7 ADD MSTORE PUSH2 0x51BB DUP3 DUP3 PUSH2 0x5034 JUMP JUMPDEST SWAP2 POP POP PUSH1 0x20 DUP4 ADD MLOAD DUP5 DUP3 SUB PUSH1 0x20 DUP7 ADD MSTORE PUSH2 0x51D5 DUP3 DUP3 PUSH2 0x5129 JUMP JUMPDEST SWAP2 POP POP DUP1 SWAP2 POP POP SWAP3 SWAP2 POP POP JUMP JUMPDEST PUSH1 0x0 PUSH1 0x80 DUP3 ADD SWAP1 POP PUSH2 0x51F7 PUSH1 0x0 DUP4 ADD DUP8 PUSH2 0x34D4 JUMP JUMPDEST DUP2 DUP2 SUB PUSH1 0x20 DUP4 ADD MSTORE PUSH2 0x5209 DUP2 DUP7 PUSH2 0x4F62 JUMP JUMPDEST SWAP1 POP DUP2 DUP2 SUB PUSH1 0x40 DUP4 ADD MSTORE PUSH2 0x521D DUP2 DUP6 PUSH2 0x519E JUMP JUMPDEST SWAP1 POP PUSH2 0x522C PUSH1 0x60 DUP4 ADD DUP5 PUSH2 0x34D4 JUMP JUMPDEST SWAP6 SWAP5 POP POP POP POP POP JUMP JUMPDEST PUSH1 0x0 DUP2 MLOAD SWAP1 POP SWAP2 SWAP1 POP JUMP JUMPDEST PUSH1 0x0 PUSH2 0x524B DUP3 PUSH2 0x5235 JUMP JUMPDEST PUSH2 0x5255 DUP2 DUP6 PUSH2 0x419E JUMP JUMPDEST SWAP4 POP PUSH2 0x5265 DUP2 DUP6 PUSH1 0x20 DUP7 ADD PUSH2 0x4F38 JUMP JUMPDEST PUSH2 0x526E DUP2 PUSH2 0x36E8 JUMP JUMPDEST DUP5 ADD SWAP2 POP POP SWAP3 SWAP2 POP POP JUMP JUMPDEST PUSH1 0x0 PUSH1 0x20 DUP3 ADD SWAP1 POP DUP2 DUP2 SUB PUSH1 0x0 DUP4 ADD MSTORE PUSH2 0x5293 DUP2 DUP5 PUSH2 0x5240 JUMP JUMPDEST SWAP1 POP SWAP3 SWAP2 POP POP JUMP JUMPDEST PUSH1 0x0 PUSH2 0x52A6 DUP3 PUSH2 0x348E JUMP JUMPDEST SWAP2 POP PUSH2 0x52B1 DUP4 PUSH2 0x348E JUMP JUMPDEST SWAP3 POP DUP3 DUP3 SUB SWAP1 POP DUP2 DUP2 GT ISZERO PUSH2 0x52C9 JUMPI PUSH2 0x52C8 PUSH2 0x40B1 JUMP JUMPDEST JUMPDEST SWAP3 SWAP2 POP POP JUMP INVALID LOG2 PUSH5 0x6970667358 0x22 SLT KECCAK256 0xA9 PUSH20 0xDD90E4C6803E36A77DC4758D05557222D63A4A3 PUSH22 0x6B249678015CF41DBA64736F6C634300081100330000 "},"methodIdentifiers":{"BASIS_POINTS_DIVISOR()":"126082cf","L1()":"7809baaf","L2()":"081752bb","MIN_DECREASE_HEALTH_FACTOR()":"725ba052","MIN_HEALTH_FACTOR()":"b5627e42","automate()":"049aacfe","callCreateDecreasePosition(address[],address,uint256,uint256,bool,address,uint256,uint256,uint256,bool,address)":"937a0e4e","callCreateIncreasePosition(address[],address,uint256,uint256,uint256,bool,uint256,uint256,bytes32,address)":"af3ed347","callCreateIncreasePositionETH(address[],address,uint256,uint256,bool,uint256,uint256,bytes32,address)":"6e3990fc","createTask()":"a7476493","dedicatedMsgSender()":"28f150eb","deposit()":"d0e30db0","executeDecreasePosition(bytes32)":"ef630b3c","existingPositionsData(uint256)":"e9f4454d","fundsOwner()":"46ee3c59","gellatoAutomateAddress()":"d571e21c","getDeltaWithMargin(address,uint256,uint256,bool)":"ca2fc17c","getPortfolioValue()":"bb0498de","getPortfolioValueWithMargin()":"3ba32df4","getPosition(address,address,bool)":"8c1395f8","getPositionKey(address,address,bool)":"238e270a","getPositionValue(address,bool,uint256,uint256,uint256,uint256)":"694c1cbc","getPositionValueWithMargin(address,address,bool,uint256,uint256,uint256,uint256)":"c019bf5e","getPositions()":"80275860","gov()":"12d43a51","lendingContractAddress()":"7379dbe6","liquidatePortfolio()":"584edf10","minExecutionFee()":"63ae2103","orderBookAddress()":"9409d870","ownerAddress()":"8f84aa09","portfolioHealthFactor()":"ffb991b0","positionRouterAddress()":"d422b00f","routerAddress()":"3268cc56","setGellatoAutomateAddress(address)":"37106770","setLendingContractAddress(address)":"13f2d128","setMinExecutionFee(uint256)":"fc2cee62","setPositionRouterAddress(address)":"a0f14034","setRouterAddress(address)":"41cb87fc","setVaultContractAddress(address)":"871105cc","setWethAddress(address)":"a96e2423","taskTreasury()":"e60a3213","validateDecreasePosition(address,address[],bool)":"f8388225","vaultContractAddress()":"a92ea0e0","wethAddress()":"4f0e0ef3","withdrawFunds(uint256,address)":"744bfe61"}}}}}