{"contracts/AbstractPosition.sol":{"AbstractPosition":{"abi":[{"inputs":[{"internalType":"address","name":"_gov","type":"address"},{"internalType":"address","name":"_wethAddress","type":"address"},{"internalType":"address","name":"_lendingContractAddress","type":"address"},{"internalType":"address","name":"_ownerAddress","type":"address"},{"internalType":"address","name":"_positionRouterAddress","type":"address"},{"internalType":"address","name":"_routerAddress","type":"address"},{"internalType":"address","name":"_orderBookAddress","type":"address"},{"internalType":"address","name":"_vaultContractAddress","type":"address"}],"stateMutability":"nonpayable","type":"constructor"},{"inputs":[],"name":"BASIS_POINTS_DIVISOR","outputs":[{"internalType":"uint256","name":"","type":"uint256"}],"stateMutability":"view","type":"function"},{"inputs":[],"name":"L1","outputs":[{"internalType":"uint256","name":"","type":"uint256"}],"stateMutability":"view","type":"function"},{"inputs":[],"name":"L2","outputs":[{"internalType":"uint256","name":"","type":"uint256"}],"stateMutability":"view","type":"function"},{"inputs":[],"name":"MIN_DECREASE_HEALTH_FACTOR","outputs":[{"internalType":"uint256","name":"","type":"uint256"}],"stateMutability":"view","type":"function"},{"inputs":[],"name":"MIN_HEALTH_FACTOR","outputs":[{"internalType":"uint256","name":"","type":"uint256"}],"stateMutability":"view","type":"function"},{"inputs":[{"internalType":"address","name":"_owner","type":"address"},{"internalType":"address","name":"_indexToken","type":"address"},{"internalType":"address","name":"_collateralToken","type":"address"},{"internalType":"enum Side","name":"_side","type":"uint8"}],"name":"_getBnbPositionKey","outputs":[{"internalType":"bytes32","name":"","type":"bytes32"}],"stateMutability":"pure","type":"function"},{"inputs":[{"components":[{"internalType":"uint256","name":"size","type":"uint256"},{"internalType":"uint256","name":"collateralValue","type":"uint256"},{"internalType":"uint256","name":"reserveAmount","type":"uint256"},{"internalType":"uint256","name":"entryPrice","type":"uint256"},{"internalType":"uint256","name":"borrowIndex","type":"uint256"}],"internalType":"struct BnbPosition","name":"_position","type":"tuple"},{"internalType":"address","name":"_indexToken","type":"address"},{"internalType":"uint256","name":"_sizeChanged","type":"uint256"}],"name":"_getPositionFee","outputs":[{"internalType":"uint256","name":"_feeValue","type":"uint256"}],"stateMutability":"view","type":"function"},{"inputs":[],"name":"bnbLevelOracleAddress","outputs":[{"internalType":"address","name":"","type":"address"}],"stateMutability":"view","type":"function"},{"inputs":[],"name":"bnbOrderManagerAddress","outputs":[{"internalType":"address","name":"","type":"address"}],"stateMutability":"view","type":"function"},{"inputs":[],"name":"bnbPoolAddress","outputs":[{"internalType":"address","name":"","type":"address"}],"stateMutability":"view","type":"function"},{"inputs":[],"name":"bnbPortfolioHealthFactor","outputs":[{"internalType":"uint256","name":"","type":"uint256"}],"stateMutability":"view","type":"function"},{"inputs":[{"internalType":"enum Side","name":"_side","type":"uint8"},{"internalType":"address","name":"_indexToken","type":"address"},{"internalType":"address","name":"_collateralToken","type":"address"},{"internalType":"uint256","name":"price","type":"uint256"},{"internalType":"address","name":"payToken","type":"address"},{"internalType":"uint256","name":"sizeChange","type":"uint256"},{"internalType":"uint256","name":"_collateral","type":"uint256"}],"name":"callDecreasePlaceOrder","outputs":[],"stateMutability":"payable","type":"function"},{"inputs":[{"internalType":"enum Side","name":"_side","type":"uint8"},{"internalType":"address","name":"_indexToken","type":"address"},{"internalType":"address","name":"_collateralToken","type":"address"},{"internalType":"uint256","name":"price","type":"uint256"},{"internalType":"address","name":"payToken","type":"address"},{"internalType":"uint256","name":"purchaseAmount","type":"uint256"},{"internalType":"uint256","name":"sizeChange","type":"uint256"},{"internalType":"uint256","name":"_collateral","type":"uint256"}],"name":"callIncreasePlaceOrder","outputs":[],"stateMutability":"payable","type":"function"},{"inputs":[],"name":"deposit","outputs":[],"stateMutability":"payable","type":"function"},{"inputs":[{"internalType":"uint256","name":"","type":"uint256"}],"name":"existingBnbPositionsData","outputs":[{"internalType":"address","name":"indexToken","type":"address"},{"internalType":"address","name":"collateralToken","type":"address"},{"internalType":"enum Side","name":"side","type":"uint8"}],"stateMutability":"view","type":"function"},{"inputs":[{"internalType":"uint256","name":"","type":"uint256"}],"name":"existingPositionsData","outputs":[{"internalType":"address","name":"indexToken","type":"address"},{"internalType":"address","name":"collateralToken","type":"address"},{"internalType":"bool","name":"isLong","type":"bool"}],"stateMutability":"view","type":"function"},{"inputs":[],"name":"gellatoAutomateAddress","outputs":[{"internalType":"address","name":"","type":"address"}],"stateMutability":"view","type":"function"},{"inputs":[{"internalType":"address","name":"_indexToken","type":"address"},{"internalType":"enum Side","name":"_side","type":"uint8"},{"internalType":"uint256","name":"_size","type":"uint256"},{"internalType":"uint256","name":"_averagePrice","type":"uint256"}],"name":"getBnbDeltaWithMargin","outputs":[{"internalType":"uint256","name":"delta","type":"uint256"},{"internalType":"bool","name":"hasProfit","type":"bool"}],"stateMutability":"view","type":"function"},{"inputs":[],"name":"getBnbPortfolioValue","outputs":[{"internalType":"uint256","name":"","type":"uint256"}],"stateMutability":"view","type":"function"},{"inputs":[],"name":"getBnbPortfolioValueWithMargin","outputs":[{"internalType":"uint256","name":"","type":"uint256"}],"stateMutability":"view","type":"function"},{"inputs":[{"internalType":"address","name":"_indexToken","type":"address"},{"internalType":"address","name":"_collateralToken","type":"address"},{"internalType":"enum Side","name":"_side","type":"uint8"}],"name":"getBnbPosition","outputs":[{"components":[{"internalType":"uint256","name":"size","type":"uint256"},{"internalType":"uint256","name":"collateralValue","type":"uint256"},{"internalType":"uint256","name":"reserveAmount","type":"uint256"},{"internalType":"uint256","name":"entryPrice","type":"uint256"},{"internalType":"uint256","name":"borrowIndex","type":"uint256"}],"internalType":"struct BnbPosition","name":"_position","type":"tuple"}],"stateMutability":"view","type":"function"},{"inputs":[{"internalType":"address","name":"_indexToken","type":"address"},{"internalType":"address","name":"_collateralToken","type":"address"},{"internalType":"enum Side","name":"_side","type":"uint8"}],"name":"getBnbPositionValue","outputs":[{"internalType":"uint256","name":"_positionValue","type":"uint256"}],"stateMutability":"view","type":"function"},{"inputs":[{"internalType":"address","name":"_indexToken","type":"address"},{"internalType":"address","name":"_collateralToken","type":"address"},{"internalType":"enum Side","name":"_side","type":"uint8"}],"name":"getBnbPositionValueWithMargin","outputs":[{"internalType":"uint256","name":"_positionValue","type":"uint256"}],"stateMutability":"view","type":"function"},{"inputs":[{"internalType":"address","name":"_indexToken","type":"address"},{"internalType":"address","name":"_collateralToken","type":"address"},{"internalType":"bool","name":"_isLong","type":"bool"}],"name":"getPositionKey","outputs":[{"internalType":"bytes32","name":"","type":"bytes32"}],"stateMutability":"pure","type":"function"},{"inputs":[],"name":"gov","outputs":[{"internalType":"address","name":"","type":"address"}],"stateMutability":"view","type":"function"},{"inputs":[],"name":"lendingContractAddress","outputs":[{"internalType":"address","name":"","type":"address"}],"stateMutability":"view","type":"function"},{"inputs":[],"name":"minExecutionFee","outputs":[{"internalType":"uint256","name":"","type":"uint256"}],"stateMutability":"view","type":"function"},{"inputs":[],"name":"orderBookAddress","outputs":[{"internalType":"address","name":"","type":"address"}],"stateMutability":"view","type":"function"},{"inputs":[],"name":"ownerAddress","outputs":[{"internalType":"address","name":"","type":"address"}],"stateMutability":"view","type":"function"},{"inputs":[],"name":"positionRouterAddress","outputs":[{"internalType":"address","name":"","type":"address"}],"stateMutability":"view","type":"function"},{"inputs":[],"name":"routerAddress","outputs":[{"internalType":"address","name":"","type":"address"}],"stateMutability":"view","type":"function"},{"inputs":[{"internalType":"address","name":"_indexToken","type":"address"},{"internalType":"address","name":"_collateralToken","type":"address"},{"internalType":"enum Side","name":"_side","type":"uint8"}],"name":"validateBnbDecreasePosition","outputs":[{"internalType":"bool","name":"","type":"bool"}],"stateMutability":"view","type":"function"},{"inputs":[],"name":"vaultContractAddress","outputs":[{"internalType":"address","name":"","type":"address"}],"stateMutability":"view","type":"function"},{"inputs":[],"name":"wethAddress","outputs":[{"internalType":"address","name":"","type":"address"}],"stateMutability":"view","type":"function"}],"evm":{"bytecode":{"linkReferences":{},"object":"608060405273b3f5503f93d5ef84b06993a1975b9d21b962892f6000806101000a81548173ffffffffffffffffffffffffffffffffffffffff021916908373ffffffffffffffffffffffffffffffffffffffff16021790555073f584a17df21afd9de84f47842eceaf6042b1bb5b600860006101000a81548173ffffffffffffffffffffffffffffffffffffffff021916908373ffffffffffffffffffffffffffffffffffffffff16021790555073bb4cdb9cbd36b01bd1cbaebf2de08d9173bc095c600960006101000a81548173ffffffffffffffffffffffffffffffffffffffff021916908373ffffffffffffffffffffffffffffffffffffffff1602179055507304db83667f5d59ff61fa6bbbd894824b233b3693600a60006101000a81548173ffffffffffffffffffffffffffffffffffffffff021916908373ffffffffffffffffffffffffffffffffffffffff1602179055503480156200016457600080fd5b5060405162003d6e38038062003d6e83398181016040528101906200018a91906200040a565b87600160006101000a81548173ffffffffffffffffffffffffffffffffffffffff021916908373ffffffffffffffffffffffffffffffffffffffff16021790555084600b60006101000a81548173ffffffffffffffffffffffffffffffffffffffff021916908373ffffffffffffffffffffffffffffffffffffffff16021790555086600260006101000a81548173ffffffffffffffffffffffffffffffffffffffff021916908373ffffffffffffffffffffffffffffffffffffffff16021790555085600360006101000a81548173ffffffffffffffffffffffffffffffffffffffff021916908373ffffffffffffffffffffffffffffffffffffffff16021790555083600460006101000a81548173ffffffffffffffffffffffffffffffffffffffff021916908373ffffffffffffffffffffffffffffffffffffffff16021790555082600560006101000a81548173ffffffffffffffffffffffffffffffffffffffff021916908373ffffffffffffffffffffffffffffffffffffffff16021790555081600660006101000a81548173ffffffffffffffffffffffffffffffffffffffff021916908373ffffffffffffffffffffffffffffffffffffffff16021790555080600760006101000a81548173ffffffffffffffffffffffffffffffffffffffff021916908373ffffffffffffffffffffffffffffffffffffffff1602179055505050505050505050620004d3565b600080fd5b600073ffffffffffffffffffffffffffffffffffffffff82169050919050565b6000620003d282620003a5565b9050919050565b620003e481620003c5565b8114620003f057600080fd5b50565b6000815190506200040481620003d9565b92915050565b600080600080600080600080610100898b0312156200042e576200042d620003a0565b5b60006200043e8b828c01620003f3565b9850506020620004518b828c01620003f3565b9750506040620004648b828c01620003f3565b9650506060620004778b828c01620003f3565b95505060806200048a8b828c01620003f3565b94505060a06200049d8b828c01620003f3565b93505060c0620004b08b828c01620003f3565b92505060e0620004c38b828c01620003f3565b9150509295985092959890939650565b61388b80620004e36000396000f3fe6080604052600436106101f95760003560e01c806363ae21031161010d5780639409d870116100a0578063d0e30db01161006f578063d0e30db014610764578063d3827eee1461076e578063d422b00f14610799578063d571e21c146107c4578063e9f4454d146107ef576101f9565b80639409d870146106b8578063a92ea0e0146106e3578063b5627e421461070e578063cefcbd9d14610739576101f9565b80637809baaf116100dc5780637809baaf146105fa57806381be2320146106255780638812f374146106625780638f84aa091461068d576101f9565b806363ae21031461053c578063725ba052146105675780637379dbe61461059257806375f134b4146105bd576101f9565b80631b8b361b1161019057806333c445d51161015f57806333c445d51461042c57806339cf89161461046b5780634f0e0ef3146104a85780635b9fb547146104d357806362a3b0e114610511576101f9565b80631b8b361b1461036e578063238e270a1461039957806332315a62146103d65780633268cc5614610401576101f9565b8063126082cf116101cc578063126082cf146102bf57806312d43a51146102ea57806315109f6414610315578063157103f414610352576101f9565b8063027f1388146101fe578063081752bb1461023b5780630dd78f19146102665780631154dbc2146102a3575b600080fd5b34801561020a57600080fd5b50610225600480360381019061022091906124a8565b61082e565b604051610232919061257c565b60405180910390f35b34801561024757600080fd5b50610250610908565b60405161025d91906125a6565b60405180910390f35b34801561027257600080fd5b5061028d600480360381019061028891906125c1565b61090d565b60405161029a9190612641565b60405180910390f35b6102bd60048036038101906102b89190612688565b610946565b005b3480156102cb57600080fd5b506102d4610cac565b6040516102e191906125a6565b60405180910390f35b3480156102f657600080fd5b506102ff610cb2565b60405161030c919061274d565b60405180910390f35b34801561032157600080fd5b5061033c600480360381019061033791906124a8565b610cd8565b60405161034991906125a6565b60405180910390f35b61036c60048036038101906103679190612768565b610db6565b005b34801561037a57600080fd5b50610383610f71565b604051610390919061274d565b60405180910390f35b3480156103a557600080fd5b506103c060048036038101906103bb9190612842565b610f97565b6040516103cd9190612641565b60405180910390f35b3480156103e257600080fd5b506103eb610fcd565b6040516103f891906125a6565b60405180910390f35b34801561040d57600080fd5b506104166110dd565b604051610423919061274d565b60405180910390f35b34801561043857600080fd5b50610453600480360381019061044e9190612895565b611103565b60405161046293929190612939565b60405180910390f35b34801561047757600080fd5b50610492600480360381019061048d9190612a8d565b61118a565b60405161049f91906125a6565b60405180910390f35b3480156104b457600080fd5b506104bd611357565b6040516104ca919061274d565b60405180910390f35b3480156104df57600080fd5b506104fa60048036038101906104f59190612ae0565b61137d565b604051610508929190612b56565b60405180910390f35b34801561051d57600080fd5b5061052661164f565b604051610533919061274d565b60405180910390f35b34801561054857600080fd5b50610551611675565b60405161055e91906125a6565b60405180910390f35b34801561057357600080fd5b5061057c61167b565b60405161058991906125a6565b60405180910390f35b34801561059e57600080fd5b506105a7611681565b6040516105b4919061274d565b60405180910390f35b3480156105c957600080fd5b506105e460048036038101906105df91906124a8565b6116a7565b6040516105f191906125a6565b60405180910390f35b34801561060657600080fd5b5061060f61173f565b60405161061c91906125a6565b60405180910390f35b34801561063157600080fd5b5061064c600480360381019061064791906124a8565b611744565b6040516106599190612b7f565b60405180910390f35b34801561066e57600080fd5b50610677611898565b604051610684919061274d565b60405180910390f35b34801561069957600080fd5b506106a26118be565b6040516106af919061274d565b60405180910390f35b3480156106c457600080fd5b506106cd6118e4565b6040516106da919061274d565b60405180910390f35b3480156106ef57600080fd5b506106f861190a565b604051610705919061274d565b60405180910390f35b34801561071a57600080fd5b50610723611930565b60405161073091906125a6565b60405180910390f35b34801561074557600080fd5b5061074e611936565b60405161075b91906125a6565b60405180910390f35b61076c611c41565b005b34801561077a57600080fd5b50610783611c43565b60405161079091906125a6565b60405180910390f35b3480156107a557600080fd5b506107ae611d56565b6040516107bb919061274d565b60405180910390f35b3480156107d057600080fd5b506107d9611d7c565b6040516107e6919061274d565b60405180910390f35b3480156107fb57600080fd5b5061081660048036038101906108119190612895565b611da0565b60405161082593929190612b9a565b60405180910390f35b6108366123e7565b600960009054906101000a900473ffffffffffffffffffffffffffffffffffffffff1673ffffffffffffffffffffffffffffffffffffffff1663514ea4bf6108a2600b60009054906101000a900473ffffffffffffffffffffffffffffffffffffffff1687878761090d565b6040518263ffffffff1660e01b81526004016108be9190612641565b60a060405180830381865afa1580156108db573d6000803e3d6000fd5b505050506040513d601f19601f820116820180604052508101906108ff9190612c72565b90509392505050565b606481565b6000848484846040516020016109269493929190612c9f565b604051602081830303815290604052805190602001209050949350505050565b600b60009054906101000a900473ffffffffffffffffffffffffffffffffffffffff1673ffffffffffffffffffffffffffffffffffffffff163373ffffffffffffffffffffffffffffffffffffffff16146109d6576040517f08c379a00000000000000000000000000000000000000000000000000000000081526004016109cd90612d67565b60405180910390fd5b6000806109e4888a8c611e27565b73eeeeeeeeeeeeeeeeeeeeeeeeeeeeeeeeeeeeeeee73ffffffffffffffffffffffffffffffffffffffff168673ffffffffffffffffffffffffffffffffffffffff1614610bca578573ffffffffffffffffffffffffffffffffffffffff166323b872dd3330886040518463ffffffff1660e01b8152600401610a6893929190612d87565b6020604051808303816000875af1158015610a87573d6000803e3d6000fd5b505050506040513d601f19601f82011682018060405250810190610aab9190612dd3565b610aea576040517f08c379a0000000000000000000000000000000000000000000000000000000008152600401610ae190612e4c565b60405180910390fd5b8573ffffffffffffffffffffffffffffffffffffffff1663095ea7b3600860009054906101000a900473ffffffffffffffffffffffffffffffffffffffff16876040518363ffffffff1660e01b8152600401610b47929190612e6c565b6020604051808303816000875af1158015610b66573d6000803e3d6000fd5b505050506040513d601f19601f82011682018060405250810190610b8a9190612dd3565b610bc9576040517f08c379a0000000000000000000000000000000000000000000000000000000008152600401610bc090612f07565b60405180910390fd5b5b6000878787878760405180602001604052806000815250604051602001610bf696959493929190612fa6565b6040516020818303038152906040529050600860009054906101000a900473ffffffffffffffffffffffffffffffffffffffff1673ffffffffffffffffffffffffffffffffffffffff16632f25f18334858e8e8e88886040518863ffffffff1660e01b8152600401610c6d9695949392919061309e565b6000604051808303818588803b158015610c8657600080fd5b505af1158015610c9a573d6000803e3d6000fd5b50505050505050505050505050505050565b61271081565b600160009054906101000a900473ffffffffffffffffffffffffffffffffffffffff1681565b600080610ce685858561082e565b90506000610cf98287846000015161118a565b9050600080610d1288878660000151876060015161137d565b9150915080158015610d3957508360200151610d37848461202490919063ffffffff16565b115b15610d4b576000945050505050610daf565b80610d7e57610d7983610d6b84876020015161208290919063ffffffff16565b61208290919063ffffffff16565b610da8565b610da783610d9984876020015161202490919063ffffffff16565b61208290919063ffffffff16565b5b9450505050505b9392505050565b600b60009054906101000a900473ffffffffffffffffffffffffffffffffffffffff1673ffffffffffffffffffffffffffffffffffffffff163373ffffffffffffffffffffffffffffffffffffffff1614610e46576040517f08c379a0000000000000000000000000000000000000000000000000000000008152600401610e3d90612d67565b60405180910390fd5b610e51868689611744565b610e90576040517f08c379a0000000000000000000000000000000000000000000000000000000008152600401610e8790613178565b60405180910390fd5b60008060008686868660405180602001604052806000815250604051602001610ebd959493929190613198565b6040516020818303038152906040529050600860009054906101000a900473ffffffffffffffffffffffffffffffffffffffff1673ffffffffffffffffffffffffffffffffffffffff16632f25f183848c8c8c87876040518763ffffffff1660e01b8152600401610f339695949392919061309e565b600060405180830381600087803b158015610f4d57600080fd5b505af1158015610f61573d6000803e3d6000fd5b5050505050505050505050505050565b600a60009054906101000a900473ffffffffffffffffffffffffffffffffffffffff1681565b6000838383604051602001610fae93929190613282565b6040516020818303038152906040528051906020012090509392505050565b600080600360009054906101000a900473ffffffffffffffffffffffffffffffffffffffff1673ffffffffffffffffffffffffffffffffffffffff1663d04f246b600b60009054906101000a900473ffffffffffffffffffffffffffffffffffffffff166040518263ffffffff1660e01b815260040161104d919061274d565b602060405180830381865afa15801561106a573d6000803e3d6000fd5b505050506040513d601f19601f8201168201806040525081019061108e91906132bf565b9050600081036110a25760009150506110da565b60006110ac611936565b90506110d5826110c7612710846120cc90919063ffffffff16565b61214690919063ffffffff16565b925050505b90565b600560009054906101000a900473ffffffffffffffffffffffffffffffffffffffff1681565b6010818154811061111357600080fd5b90600052602060002090600202016000915090508060000160009054906101000a900473ffffffffffffffffffffffffffffffffffffffff16908060010160009054906101000a900473ffffffffffffffffffffffffffffffffffffffff16908060010160149054906101000a900460ff16905083565b600080600960009054906101000a900473ffffffffffffffffffffffffffffffffffffffff1673ffffffffffffffffffffffffffffffffffffffff1663ddca3f436040518163ffffffff1660e01b815260040160e060405180830381865afa1580156111fa573d6000803e3d6000fd5b505050506040513d601f19601f8201168201806040525081019061121e91906133a0565b90506000600960009054906101000a900473ffffffffffffffffffffffffffffffffffffffff1673ffffffffffffffffffffffffffffffffffffffff1663a9126169866040518263ffffffff1660e01b815260040161127d919061274d565b60a060405180830381865afa15801561129a573d6000803e3d6000fd5b505050506040513d601f19601f820116820180604052508101906112be9190613459565b606001519050600061130a6402540be4006112fc89600001516112ee8b608001518761208290919063ffffffff16565b6120cc90919063ffffffff16565b61214690919063ffffffff16565b9050600061133c6402540be40061132e8660000151896120cc90919063ffffffff16565b61214690919063ffffffff16565b9050808261134a91906134b5565b9450505050509392505050565b600260009054906101000a900473ffffffffffffffffffffffffffffffffffffffff1681565b600080600083116113c3576040517f08c379a00000000000000000000000000000000000000000000000000000000081526004016113ba9061355b565b60405180910390fd5b60008060018111156113d8576113d76128c2565b5b8660018111156113eb576113ea6128c2565b5b146114cf576114ca6127106114bc61140f606461271061202490919063ffffffff16565b600a60009054906101000a900473ffffffffffffffffffffffffffffffffffffffff1673ffffffffffffffffffffffffffffffffffffffff166376d697608c60016040518363ffffffff1660e01b815260040161146d92919061357b565b602060405180830381865afa15801561148a573d6000803e3d6000fd5b505050506040513d601f19601f820116820180604052508101906114ae91906132bf565b6120cc90919063ffffffff16565b61214690919063ffffffff16565b6115aa565b6115a961271061159b6114ee606461271061208290919063ffffffff16565b600a60009054906101000a900473ffffffffffffffffffffffffffffffffffffffff1673ffffffffffffffffffffffffffffffffffffffff166376d697608c60006040518363ffffffff1660e01b815260040161154c92919061357b565b602060405180830381865afa158015611569573d6000803e3d6000fd5b505050506040513d601f19601f8201168201806040525081019061158d91906132bf565b6120cc90919063ffffffff16565b61214690919063ffffffff16565b5b905060008185116115cd576115c8858361208290919063ffffffff16565b6115e1565b6115e0828661208290919063ffffffff16565b5b9050611608856115fa83896120cc90919063ffffffff16565b61214690919063ffffffff16565b93506000600181111561161e5761161d6128c2565b5b876001811115611631576116306128c2565b5b1461163e57818511611642565b8482115b9250505094509492505050565b600860009054906101000a900473ffffffffffffffffffffffffffffffffffffffff1681565b600c5481565b612af881565b600360009054906101000a900473ffffffffffffffffffffffffffffffffffffffff1681565b6000806116b585858561082e565b90506000806116ce878685600001518660600151612190565b91509150801580156116e35750826020015182115b156116f45760009350505050611738565b806117185761171082846020015161208290919063ffffffff16565b935083611733565b61172f82846020015161202490919063ffffffff16565b9350835b505050505b9392505050565b606481565b600080600360009054906101000a900473ffffffffffffffffffffffffffffffffffffffff1673ffffffffffffffffffffffffffffffffffffffff1663d04f246b600b60009054906101000a900473ffffffffffffffffffffffffffffffffffffffff166040518263ffffffff1660e01b81526004016117c4919061274d565b602060405180830381865afa1580156117e1573d6000803e3d6000fd5b505050506040513d601f19601f8201168201806040525081019061180591906132bf565b905060008103611819576001915050611891565b6000611823611936565b905060006118328787876116a7565b9050808210156118485760009350505050611891565b600061188384611875612710611867868861208290919063ffffffff16565b6120cc90919063ffffffff16565b61214690919063ffffffff16565b9050612af881119450505050505b9392505050565b600960009054906101000a900473ffffffffffffffffffffffffffffffffffffffff1681565b600b60009054906101000a900473ffffffffffffffffffffffffffffffffffffffff1681565b600660009054906101000a900473ffffffffffffffffffffffffffffffffffffffff1681565b600760009054906101000a900473ffffffffffffffffffffffffffffffffffffffff1681565b61271081565b600080600090506000805b600e80549050811015611b27576000611a1760108381548110611967576119666135a4565b5b906000526020600020906002020160000160009054906101000a900473ffffffffffffffffffffffffffffffffffffffff16601084815481106119ad576119ac6135a4565b5b906000526020600020906002020160010160009054906101000a900473ffffffffffffffffffffffffffffffffffffffff16601085815481106119f3576119f26135a4565b5b906000526020600020906002020160010160149054906101000a900460ff166116a7565b9050611a2c818561202490919063ffffffff16565b93506000611af760108481548110611a4757611a466135a4565b5b906000526020600020906002020160000160009054906101000a900473ffffffffffffffffffffffffffffffffffffffff1660108581548110611a8d57611a8c6135a4565b5b906000526020600020906002020160010160009054906101000a900473ffffffffffffffffffffffffffffffffffffffff1660108681548110611ad357611ad26135a4565b5b906000526020600020906002020160010160149054906101000a900460ff1661082e565b9050611b1081600001518561202490919063ffffffff16565b935050508080611b1f906135d3565b915050611941565b506000600360009054906101000a900473ffffffffffffffffffffffffffffffffffffffff1673ffffffffffffffffffffffffffffffffffffffff1663db1e4ff8600b60009054906101000a900473ffffffffffffffffffffffffffffffffffffffff166040518263ffffffff1660e01b8152600401611ba7919061274d565b602060405180830381865afa158015611bc4573d6000803e3d6000fd5b505050506040513d601f19601f82011682018060405250810190611be891906132bf565b9050611c3681611c28611c19612710611c0b6064886120cc90919063ffffffff16565b61214690919063ffffffff16565b8661208290919063ffffffff16565b61208290919063ffffffff16565b925082935050505090565b565b6000806000905060005b601080549050811015611d4e576000611d2360108381548110611c7357611c726135a4565b5b906000526020600020906002020160000160009054906101000a900473ffffffffffffffffffffffffffffffffffffffff1660108481548110611cb957611cb86135a4565b5b906000526020600020906002020160010160009054906101000a900473ffffffffffffffffffffffffffffffffffffffff1660108581548110611cff57611cfe6135a4565b5b906000526020600020906002020160010160149054906101000a900460ff16610cd8565b9050611d38818461202490919063ffffffff16565b9250508080611d46906135d3565b915050611c4d565b508091505090565b600460009054906101000a900473ffffffffffffffffffffffffffffffffffffffff1681565b60008054906101000a900473ffffffffffffffffffffffffffffffffffffffff1681565b600e8181548110611db057600080fd5b90600052602060002090600202016000915090508060000160009054906101000a900473ffffffffffffffffffffffffffffffffffffffff16908060010160009054906101000a900473ffffffffffffffffffffffffffffffffffffffff16908060010160149054906101000a900460ff16905083565b600f6000611e5d848660006001811115611e4457611e436128c2565b5b866001811115611e5757611e566128c2565b5b14610f97565b815260200190815260200160002060009054906101000a900460ff1661201f57601060405180606001604052808473ffffffffffffffffffffffffffffffffffffffff1681526020018573ffffffffffffffffffffffffffffffffffffffff168152602001836001811115611ed557611ed46128c2565b5b815250908060018154018082558091505060019003906000526020600020906002020160009091909190915060008201518160000160006101000a81548173ffffffffffffffffffffffffffffffffffffffff021916908373ffffffffffffffffffffffffffffffffffffffff16021790555060208201518160010160006101000a81548173ffffffffffffffffffffffffffffffffffffffff021916908373ffffffffffffffffffffffffffffffffffffffff16021790555060408201518160010160146101000a81548160ff02191690836001811115611fba57611fb96128c2565b5b021790555050506001600f6000611ff9858760006001811115611fe057611fdf6128c2565b5b876001811115611ff357611ff26128c2565b5b14610f97565b815260200190815260200160002060006101000a81548160ff0219169083151502179055505b505050565b600080828461203391906134b5565b905083811015612078576040517f08c379a000000000000000000000000000000000000000000000000000000000815260040161206f90613667565b60405180910390fd5b8091505092915050565b60006120c483836040518060400160405280601e81526020017f536166654d6174683a207375627472616374696f6e206f766572666c6f770000815250612320565b905092915050565b60008083036120de5760009050612140565b600082846120ec9190613687565b90508284826120fb91906136f8565b1461213b576040517f08c379a00000000000000000000000000000000000000000000000000000000081526004016121329061379b565b60405180910390fd5b809150505b92915050565b600061218883836040518060400160405280601a81526020017f536166654d6174683a206469766973696f6e206279207a65726f000000000000815250612384565b905092915050565b60008060008414806121a25750600083145b156121b35760008091509150612317565b6000600a60009054906101000a900473ffffffffffffffffffffffffffffffffffffffff1673ffffffffffffffffffffffffffffffffffffffff166376d697608860006001811115612208576122076128c2565b5b89600181111561221b5761221a6128c2565b5b146040518363ffffffff1660e01b815260040161223992919061357b565b602060405180830381865afa158015612256573d6000803e3d6000fd5b505050506040513d601f19601f8201168201806040525081019061227a91906132bf565b9050600081851161229d57612298858361208290919063ffffffff16565b6122b1565b6122b0828661208290919063ffffffff16565b5b90506122d8856122ca83896120cc90919063ffffffff16565b61214690919063ffffffff16565b9350600060018111156122ee576122ed6128c2565b5b876001811115612301576123006128c2565b5b1461230e57818511612312565b8482115b925050505b94509492505050565b6000838311158290612368576040517f08c379a000000000000000000000000000000000000000000000000000000000815260040161235f91906137ff565b60405180910390fd5b50600083856123779190613821565b9050809150509392505050565b600080831182906123cb576040517f08c379a00000000000000000000000000000000000000000000000000000000081526004016123c291906137ff565b60405180910390fd5b50600083856123da91906136f8565b9050809150509392505050565b6040518060a0016040528060008152602001600081526020016000815260200160008152602001600081525090565b6000604051905090565b600080fd5b600073ffffffffffffffffffffffffffffffffffffffff82169050919050565b600061245082612425565b9050919050565b61246081612445565b811461246b57600080fd5b50565b60008135905061247d81612457565b92915050565b6002811061249057600080fd5b50565b6000813590506124a281612483565b92915050565b6000806000606084860312156124c1576124c0612420565b5b60006124cf8682870161246e565b93505060206124e08682870161246e565b92505060406124f186828701612493565b9150509250925092565b6000819050919050565b61250e816124fb565b82525050565b60a08201600082015161252a6000850182612505565b50602082015161253d6020850182612505565b5060408201516125506040850182612505565b5060608201516125636060850182612505565b5060808201516125766080850182612505565b50505050565b600060a0820190506125916000830184612514565b92915050565b6125a0816124fb565b82525050565b60006020820190506125bb6000830184612597565b92915050565b600080600080608085870312156125db576125da612420565b5b60006125e98782880161246e565b94505060206125fa8782880161246e565b935050604061260b8782880161246e565b925050606061261c87828801612493565b91505092959194509250565b6000819050919050565b61263b81612628565b82525050565b60006020820190506126566000830184612632565b92915050565b612665816124fb565b811461267057600080fd5b50565b6000813590506126828161265c565b92915050565b600080600080600080600080610100898b0312156126a9576126a8612420565b5b60006126b78b828c01612493565b98505060206126c88b828c0161246e565b97505060406126d98b828c0161246e565b96505060606126ea8b828c01612673565b95505060806126fb8b828c0161246e565b94505060a061270c8b828c01612673565b93505060c061271d8b828c01612673565b92505060e061272e8b828c01612673565b9150509295985092959890939650565b61274781612445565b82525050565b6000602082019050612762600083018461273e565b92915050565b600080600080600080600060e0888a03121561278757612786612420565b5b60006127958a828b01612493565b97505060206127a68a828b0161246e565b96505060406127b78a828b0161246e565b95505060606127c88a828b01612673565b94505060806127d98a828b0161246e565b93505060a06127ea8a828b01612673565b92505060c06127fb8a828b01612673565b91505092959891949750929550565b60008115159050919050565b61281f8161280a565b811461282a57600080fd5b50565b60008135905061283c81612816565b92915050565b60008060006060848603121561285b5761285a612420565b5b60006128698682870161246e565b935050602061287a8682870161246e565b925050604061288b8682870161282d565b9150509250925092565b6000602082840312156128ab576128aa612420565b5b60006128b984828501612673565b91505092915050565b7f4e487b7100000000000000000000000000000000000000000000000000000000600052602160045260246000fd5b60028110612902576129016128c2565b5b50565b6000819050612913826128f1565b919050565b600061292382612905565b9050919050565b61293381612918565b82525050565b600060608201905061294e600083018661273e565b61295b602083018561273e565b612968604083018461292a565b949350505050565b600080fd5b6000601f19601f8301169050919050565b7f4e487b7100000000000000000000000000000000000000000000000000000000600052604160045260246000fd5b6129be82612975565b810181811067ffffffffffffffff821117156129dd576129dc612986565b5b80604052505050565b60006129f0612416565b90506129fc82826129b5565b919050565b600060a08284031215612a1757612a16612970565b5b612a2160a06129e6565b90506000612a3184828501612673565b6000830152506020612a4584828501612673565b6020830152506040612a5984828501612673565b6040830152506060612a6d84828501612673565b6060830152506080612a8184828501612673565b60808301525092915050565b600080600060e08486031215612aa657612aa5612420565b5b6000612ab486828701612a01565b93505060a0612ac58682870161246e565b92505060c0612ad686828701612673565b9150509250925092565b60008060008060808587031215612afa57612af9612420565b5b6000612b088782880161246e565b9450506020612b1987828801612493565b9350506040612b2a87828801612673565b9250506060612b3b87828801612673565b91505092959194509250565b612b508161280a565b82525050565b6000604082019050612b6b6000830185612597565b612b786020830184612b47565b9392505050565b6000602082019050612b946000830184612b47565b92915050565b6000606082019050612baf600083018661273e565b612bbc602083018561273e565b612bc96040830184612b47565b949350505050565b600081519050612be08161265c565b92915050565b600060a08284031215612bfc57612bfb612970565b5b612c0660a06129e6565b90506000612c1684828501612bd1565b6000830152506020612c2a84828501612bd1565b6020830152506040612c3e84828501612bd1565b6040830152506060612c5284828501612bd1565b6060830152506080612c6684828501612bd1565b60808301525092915050565b600060a08284031215612c8857612c87612420565b5b6000612c9684828501612be6565b91505092915050565b6000608082019050612cb4600083018761273e565b612cc1602083018661273e565b612cce604083018561273e565b612cdb606083018461292a565b95945050505050565b600082825260208201905092915050565b7f6f6e6c7920746865206f776e65722063616e2063616c6c20746869732066756e60008201527f6374696f6e000000000000000000000000000000000000000000000000000000602082015250565b6000612d51602583612ce4565b9150612d5c82612cf5565b604082019050919050565b60006020820190508181036000830152612d8081612d44565b9050919050565b6000606082019050612d9c600083018661273e565b612da9602083018561273e565b612db66040830184612597565b949350505050565b600081519050612dcd81612816565b92915050565b600060208284031215612de957612de8612420565b5b6000612df784828501612dbe565b91505092915050565b7f6661696c656420746f207472616e7366657220696e20636f6c6c61746572616c600082015250565b6000612e36602083612ce4565b9150612e4182612e00565b602082019050919050565b60006020820190508181036000830152612e6581612e29565b9050919050565b6000604082019050612e81600083018561273e565b612e8e6020830184612597565b9392505050565b7f6661696c656420746f20617070726f766520636f6c6c61746572616c2074726160008201527f6e73666572000000000000000000000000000000000000000000000000000000602082015250565b6000612ef1602583612ce4565b9150612efc82612e95565b604082019050919050565b60006020820190508181036000830152612f2081612ee4565b9050919050565b600081519050919050565b600082825260208201905092915050565b60005b83811015612f61578082015181840152602081019050612f46565b60008484015250505050565b6000612f7882612f27565b612f828185612f32565b9350612f92818560208601612f43565b612f9b81612975565b840191505092915050565b600060c082019050612fbb6000830189612597565b612fc8602083018861273e565b612fd56040830187612597565b612fe26060830186612597565b612fef6080830185612597565b81810360a08301526130018184612f6d565b9050979650505050505050565b6002811061301f5761301e6128c2565b5b50565b60008190506130308261300e565b919050565b600061304082613022565b9050919050565b61305081613035565b82525050565b60028110613067576130666128c2565b5b50565b600081905061307882613056565b919050565b60006130888261306a565b9050919050565b6130988161307d565b82525050565b600060c0820190506130b36000830189613047565b6130c0602083018861292a565b6130cd604083018761273e565b6130da606083018661273e565b6130e7608083018561308f565b81810360a08301526130f98184612f6d565b9050979650505050505050565b7f6c6f616e20616d6f756e7420646f6573206e6f74207065726d6974206c69717560008201527f69646174696f6e00000000000000000000000000000000000000000000000000602082015250565b6000613162602783612ce4565b915061316d82613106565b604082019050919050565b6000602082019050818103600083015261319181613155565b9050919050565b600060a0820190506131ad6000830188612597565b6131ba602083018761273e565b6131c76040830186612597565b6131d46060830185612597565b81810360808301526131e68184612f6d565b90509695505050505050565b60008160601b9050919050565b600061320a826131f2565b9050919050565b600061321c826131ff565b9050919050565b61323461322f82612445565b613211565b82525050565b60008160f81b9050919050565b60006132528261323a565b9050919050565b600061326482613247565b9050919050565b61327c6132778261280a565b613259565b82525050565b600061328e8286613223565b60148201915061329e8285613223565b6014820191506132ae828461326b565b600182019150819050949350505050565b6000602082840312156132d5576132d4612420565b5b60006132e384828501612bd1565b91505092915050565b600060e0828403121561330257613301612970565b5b61330c60e06129e6565b9050600061331c84828501612bd1565b600083015250602061333084828501612bd1565b602083015250604061334484828501612bd1565b604083015250606061335884828501612bd1565b606083015250608061336c84828501612bd1565b60808301525060a061338084828501612bd1565b60a08301525060c061339484828501612bd1565b60c08301525092915050565b600060e082840312156133b6576133b5612420565b5b60006133c4848285016132ec565b91505092915050565b600060a082840312156133e3576133e2612970565b5b6133ed60a06129e6565b905060006133fd84828501612bd1565b600083015250602061341184828501612bd1565b602083015250604061342584828501612bd1565b604083015250606061343984828501612bd1565b606083015250608061344d84828501612bd1565b60808301525092915050565b600060a0828403121561346f5761346e612420565b5b600061347d848285016133cd565b91505092915050565b7f4e487b7100000000000000000000000000000000000000000000000000000000600052601160045260246000fd5b60006134c0826124fb565b91506134cb836124fb565b92508282019050808211156134e3576134e2613486565b5b92915050565b7f617665726765207072696365206f6620706f736974696f6e2068617320746f2060008201527f62652067726561746572207468616e2030000000000000000000000000000000602082015250565b6000613545603183612ce4565b9150613550826134e9565b604082019050919050565b6000602082019050818103600083015261357481613538565b9050919050565b6000604082019050613590600083018561273e565b61359d6020830184612b47565b9392505050565b7f4e487b7100000000000000000000000000000000000000000000000000000000600052603260045260246000fd5b60006135de826124fb565b91507fffffffffffffffffffffffffffffffffffffffffffffffffffffffffffffffff82036136105761360f613486565b5b600182019050919050565b7f536166654d6174683a206164646974696f6e206f766572666c6f770000000000600082015250565b6000613651601b83612ce4565b915061365c8261361b565b602082019050919050565b6000602082019050818103600083015261368081613644565b9050919050565b6000613692826124fb565b915061369d836124fb565b92508282026136ab816124fb565b915082820484148315176136c2576136c1613486565b5b5092915050565b7f4e487b7100000000000000000000000000000000000000000000000000000000600052601260045260246000fd5b6000613703826124fb565b915061370e836124fb565b92508261371e5761371d6136c9565b5b828204905092915050565b7f536166654d6174683a206d756c7469706c69636174696f6e206f766572666c6f60008201527f7700000000000000000000000000000000000000000000000000000000000000602082015250565b6000613785602183612ce4565b915061379082613729565b604082019050919050565b600060208201905081810360008301526137b481613778565b9050919050565b600081519050919050565b60006137d1826137bb565b6137db8185612ce4565b93506137eb818560208601612f43565b6137f481612975565b840191505092915050565b6000602082019050818103600083015261381981846137c6565b905092915050565b600061382c826124fb565b9150613837836124fb565b925082820390508181111561384f5761384e613486565b5b9291505056fea264697066735822122029b861112e467e169a0323671c4f5044e330d67e1a47cf495c4c89b7b0cd60f564736f6c63430008110033","opcodes":"PUSH1 0x80 PUSH1 0x40 MSTORE PUSH20 0xB3F5503F93D5EF84B06993A1975B9D21B962892F PUSH1 0x0 DUP1 PUSH2 0x100 EXP DUP2 SLOAD DUP2 PUSH20 0xFFFFFFFFFFFFFFFFFFFFFFFFFFFFFFFFFFFFFFFF MUL NOT AND SWAP1 DUP4 PUSH20 0xFFFFFFFFFFFFFFFFFFFFFFFFFFFFFFFFFFFFFFFF AND MUL OR SWAP1 SSTORE POP PUSH20 0xF584A17DF21AFD9DE84F47842ECEAF6042B1BB5B PUSH1 0x8 PUSH1 0x0 PUSH2 0x100 EXP DUP2 SLOAD DUP2 PUSH20 0xFFFFFFFFFFFFFFFFFFFFFFFFFFFFFFFFFFFFFFFF MUL NOT AND SWAP1 DUP4 PUSH20 0xFFFFFFFFFFFFFFFFFFFFFFFFFFFFFFFFFFFFFFFF AND MUL OR SWAP1 SSTORE POP PUSH20 0xBB4CDB9CBD36B01BD1CBAEBF2DE08D9173BC095C PUSH1 0x9 PUSH1 0x0 PUSH2 0x100 EXP DUP2 SLOAD DUP2 PUSH20 0xFFFFFFFFFFFFFFFFFFFFFFFFFFFFFFFFFFFFFFFF MUL NOT AND SWAP1 DUP4 PUSH20 0xFFFFFFFFFFFFFFFFFFFFFFFFFFFFFFFFFFFFFFFF AND MUL OR SWAP1 SSTORE POP PUSH20 0x4DB83667F5D59FF61FA6BBBD894824B233B3693 PUSH1 0xA PUSH1 0x0 PUSH2 0x100 EXP DUP2 SLOAD DUP2 PUSH20 0xFFFFFFFFFFFFFFFFFFFFFFFFFFFFFFFFFFFFFFFF MUL NOT AND SWAP1 DUP4 PUSH20 0xFFFFFFFFFFFFFFFFFFFFFFFFFFFFFFFFFFFFFFFF AND MUL OR SWAP1 SSTORE POP CALLVALUE DUP1 ISZERO PUSH3 0x164 JUMPI PUSH1 0x0 DUP1 REVERT JUMPDEST POP PUSH1 0x40 MLOAD PUSH3 0x3D6E CODESIZE SUB DUP1 PUSH3 0x3D6E DUP4 CODECOPY DUP2 DUP2 ADD PUSH1 0x40 MSTORE DUP2 ADD SWAP1 PUSH3 0x18A SWAP2 SWAP1 PUSH3 0x40A JUMP JUMPDEST DUP8 PUSH1 0x1 PUSH1 0x0 PUSH2 0x100 EXP DUP2 SLOAD DUP2 PUSH20 0xFFFFFFFFFFFFFFFFFFFFFFFFFFFFFFFFFFFFFFFF MUL NOT AND SWAP1 DUP4 PUSH20 0xFFFFFFFFFFFFFFFFFFFFFFFFFFFFFFFFFFFFFFFF AND MUL OR SWAP1 SSTORE POP DUP5 PUSH1 0xB PUSH1 0x0 PUSH2 0x100 EXP DUP2 SLOAD DUP2 PUSH20 0xFFFFFFFFFFFFFFFFFFFFFFFFFFFFFFFFFFFFFFFF MUL NOT AND SWAP1 DUP4 PUSH20 0xFFFFFFFFFFFFFFFFFFFFFFFFFFFFFFFFFFFFFFFF AND MUL OR SWAP1 SSTORE POP DUP7 PUSH1 0x2 PUSH1 0x0 PUSH2 0x100 EXP DUP2 SLOAD DUP2 PUSH20 0xFFFFFFFFFFFFFFFFFFFFFFFFFFFFFFFFFFFFFFFF MUL NOT AND SWAP1 DUP4 PUSH20 0xFFFFFFFFFFFFFFFFFFFFFFFFFFFFFFFFFFFFFFFF AND MUL OR SWAP1 SSTORE POP DUP6 PUSH1 0x3 PUSH1 0x0 PUSH2 0x100 EXP DUP2 SLOAD DUP2 PUSH20 0xFFFFFFFFFFFFFFFFFFFFFFFFFFFFFFFFFFFFFFFF MUL NOT AND SWAP1 DUP4 PUSH20 0xFFFFFFFFFFFFFFFFFFFFFFFFFFFFFFFFFFFFFFFF AND MUL OR SWAP1 SSTORE POP DUP4 PUSH1 0x4 PUSH1 0x0 PUSH2 0x100 EXP DUP2 SLOAD DUP2 PUSH20 0xFFFFFFFFFFFFFFFFFFFFFFFFFFFFFFFFFFFFFFFF MUL NOT AND SWAP1 DUP4 PUSH20 0xFFFFFFFFFFFFFFFFFFFFFFFFFFFFFFFFFFFFFFFF AND MUL OR SWAP1 SSTORE POP DUP3 PUSH1 0x5 PUSH1 0x0 PUSH2 0x100 EXP DUP2 SLOAD DUP2 PUSH20 0xFFFFFFFFFFFFFFFFFFFFFFFFFFFFFFFFFFFFFFFF MUL NOT AND SWAP1 DUP4 PUSH20 0xFFFFFFFFFFFFFFFFFFFFFFFFFFFFFFFFFFFFFFFF AND MUL OR SWAP1 SSTORE POP DUP2 PUSH1 0x6 PUSH1 0x0 PUSH2 0x100 EXP DUP2 SLOAD DUP2 PUSH20 0xFFFFFFFFFFFFFFFFFFFFFFFFFFFFFFFFFFFFFFFF MUL NOT AND SWAP1 DUP4 PUSH20 0xFFFFFFFFFFFFFFFFFFFFFFFFFFFFFFFFFFFFFFFF AND MUL OR SWAP1 SSTORE POP DUP1 PUSH1 0x7 PUSH1 0x0 PUSH2 0x100 EXP DUP2 SLOAD DUP2 PUSH20 0xFFFFFFFFFFFFFFFFFFFFFFFFFFFFFFFFFFFFFFFF MUL NOT AND SWAP1 DUP4 PUSH20 0xFFFFFFFFFFFFFFFFFFFFFFFFFFFFFFFFFFFFFFFF AND MUL OR SWAP1 SSTORE POP POP POP POP POP POP POP POP POP PUSH3 0x4D3 JUMP JUMPDEST PUSH1 0x0 DUP1 REVERT JUMPDEST PUSH1 0x0 PUSH20 0xFFFFFFFFFFFFFFFFFFFFFFFFFFFFFFFFFFFFFFFF DUP3 AND SWAP1 POP SWAP2 SWAP1 POP JUMP JUMPDEST PUSH1 0x0 PUSH3 0x3D2 DUP3 PUSH3 0x3A5 JUMP JUMPDEST SWAP1 POP SWAP2 SWAP1 POP JUMP JUMPDEST PUSH3 0x3E4 DUP2 PUSH3 0x3C5 JUMP JUMPDEST DUP2 EQ PUSH3 0x3F0 JUMPI PUSH1 0x0 DUP1 REVERT JUMPDEST POP JUMP JUMPDEST PUSH1 0x0 DUP2 MLOAD SWAP1 POP PUSH3 0x404 DUP2 PUSH3 0x3D9 JUMP JUMPDEST SWAP3 SWAP2 POP POP JUMP JUMPDEST PUSH1 0x0 DUP1 PUSH1 0x0 DUP1 PUSH1 0x0 DUP1 PUSH1 0x0 DUP1 PUSH2 0x100 DUP10 DUP12 SUB SLT ISZERO PUSH3 0x42E JUMPI PUSH3 0x42D PUSH3 0x3A0 JUMP JUMPDEST JUMPDEST PUSH1 0x0 PUSH3 0x43E DUP12 DUP3 DUP13 ADD PUSH3 0x3F3 JUMP JUMPDEST SWAP9 POP POP PUSH1 0x20 PUSH3 0x451 DUP12 DUP3 DUP13 ADD PUSH3 0x3F3 JUMP JUMPDEST SWAP8 POP POP PUSH1 0x40 PUSH3 0x464 DUP12 DUP3 DUP13 ADD PUSH3 0x3F3 JUMP JUMPDEST SWAP7 POP POP PUSH1 0x60 PUSH3 0x477 DUP12 DUP3 DUP13 ADD PUSH3 0x3F3 JUMP JUMPDEST SWAP6 POP POP PUSH1 0x80 PUSH3 0x48A DUP12 DUP3 DUP13 ADD PUSH3 0x3F3 JUMP JUMPDEST SWAP5 POP POP PUSH1 0xA0 PUSH3 0x49D DUP12 DUP3 DUP13 ADD PUSH3 0x3F3 JUMP JUMPDEST SWAP4 POP POP PUSH1 0xC0 PUSH3 0x4B0 DUP12 DUP3 DUP13 ADD PUSH3 0x3F3 JUMP JUMPDEST SWAP3 POP POP PUSH1 0xE0 PUSH3 0x4C3 DUP12 DUP3 DUP13 ADD PUSH3 0x3F3 JUMP JUMPDEST SWAP2 POP POP SWAP3 SWAP6 SWAP9 POP SWAP3 SWAP6 SWAP9 SWAP1 SWAP4 SWAP7 POP JUMP JUMPDEST PUSH2 0x388B DUP1 PUSH3 0x4E3 PUSH1 0x0 CODECOPY PUSH1 0x0 RETURN INVALID PUSH1 0x80 PUSH1 0x40 MSTORE PUSH1 0x4 CALLDATASIZE LT PUSH2 0x1F9 JUMPI PUSH1 0x0 CALLDATALOAD PUSH1 0xE0 SHR DUP1 PUSH4 0x63AE2103 GT PUSH2 0x10D JUMPI DUP1 PUSH4 0x9409D870 GT PUSH2 0xA0 JUMPI DUP1 PUSH4 0xD0E30DB0 GT PUSH2 0x6F JUMPI DUP1 PUSH4 0xD0E30DB0 EQ PUSH2 0x764 JUMPI DUP1 PUSH4 0xD3827EEE EQ PUSH2 0x76E JUMPI DUP1 PUSH4 0xD422B00F EQ PUSH2 0x799 JUMPI DUP1 PUSH4 0xD571E21C EQ PUSH2 0x7C4 JUMPI DUP1 PUSH4 0xE9F4454D EQ PUSH2 0x7EF JUMPI PUSH2 0x1F9 JUMP JUMPDEST DUP1 PUSH4 0x9409D870 EQ PUSH2 0x6B8 JUMPI DUP1 PUSH4 0xA92EA0E0 EQ PUSH2 0x6E3 JUMPI DUP1 PUSH4 0xB5627E42 EQ PUSH2 0x70E JUMPI DUP1 PUSH4 0xCEFCBD9D EQ PUSH2 0x739 JUMPI PUSH2 0x1F9 JUMP JUMPDEST DUP1 PUSH4 0x7809BAAF GT PUSH2 0xDC JUMPI DUP1 PUSH4 0x7809BAAF EQ PUSH2 0x5FA JUMPI DUP1 PUSH4 0x81BE2320 EQ PUSH2 0x625 JUMPI DUP1 PUSH4 0x8812F374 EQ PUSH2 0x662 JUMPI DUP1 PUSH4 0x8F84AA09 EQ PUSH2 0x68D JUMPI PUSH2 0x1F9 JUMP JUMPDEST DUP1 PUSH4 0x63AE2103 EQ PUSH2 0x53C JUMPI DUP1 PUSH4 0x725BA052 EQ PUSH2 0x567 JUMPI DUP1 PUSH4 0x7379DBE6 EQ PUSH2 0x592 JUMPI DUP1 PUSH4 0x75F134B4 EQ PUSH2 0x5BD JUMPI PUSH2 0x1F9 JUMP JUMPDEST DUP1 PUSH4 0x1B8B361B GT PUSH2 0x190 JUMPI DUP1 PUSH4 0x33C445D5 GT PUSH2 0x15F JUMPI DUP1 PUSH4 0x33C445D5 EQ PUSH2 0x42C JUMPI DUP1 PUSH4 0x39CF8916 EQ PUSH2 0x46B JUMPI DUP1 PUSH4 0x4F0E0EF3 EQ PUSH2 0x4A8 JUMPI DUP1 PUSH4 0x5B9FB547 EQ PUSH2 0x4D3 JUMPI DUP1 PUSH4 0x62A3B0E1 EQ PUSH2 0x511 JUMPI PUSH2 0x1F9 JUMP JUMPDEST DUP1 PUSH4 0x1B8B361B EQ PUSH2 0x36E JUMPI DUP1 PUSH4 0x238E270A EQ PUSH2 0x399 JUMPI DUP1 PUSH4 0x32315A62 EQ PUSH2 0x3D6 JUMPI DUP1 PUSH4 0x3268CC56 EQ PUSH2 0x401 JUMPI PUSH2 0x1F9 JUMP JUMPDEST DUP1 PUSH4 0x126082CF GT PUSH2 0x1CC JUMPI DUP1 PUSH4 0x126082CF EQ PUSH2 0x2BF JUMPI DUP1 PUSH4 0x12D43A51 EQ PUSH2 0x2EA JUMPI DUP1 PUSH4 0x15109F64 EQ PUSH2 0x315 JUMPI DUP1 PUSH4 0x157103F4 EQ PUSH2 0x352 JUMPI PUSH2 0x1F9 JUMP JUMPDEST DUP1 PUSH4 0x27F1388 EQ PUSH2 0x1FE JUMPI DUP1 PUSH4 0x81752BB EQ PUSH2 0x23B JUMPI DUP1 PUSH4 0xDD78F19 EQ PUSH2 0x266 JUMPI DUP1 PUSH4 0x1154DBC2 EQ PUSH2 0x2A3 JUMPI JUMPDEST PUSH1 0x0 DUP1 REVERT JUMPDEST CALLVALUE DUP1 ISZERO PUSH2 0x20A JUMPI PUSH1 0x0 DUP1 REVERT JUMPDEST POP PUSH2 0x225 PUSH1 0x4 DUP1 CALLDATASIZE SUB DUP2 ADD SWAP1 PUSH2 0x220 SWAP2 SWAP1 PUSH2 0x24A8 JUMP JUMPDEST PUSH2 0x82E JUMP JUMPDEST PUSH1 0x40 MLOAD PUSH2 0x232 SWAP2 SWAP1 PUSH2 0x257C JUMP JUMPDEST PUSH1 0x40 MLOAD DUP1 SWAP2 SUB SWAP1 RETURN JUMPDEST CALLVALUE DUP1 ISZERO PUSH2 0x247 JUMPI PUSH1 0x0 DUP1 REVERT JUMPDEST POP PUSH2 0x250 PUSH2 0x908 JUMP JUMPDEST PUSH1 0x40 MLOAD PUSH2 0x25D SWAP2 SWAP1 PUSH2 0x25A6 JUMP JUMPDEST PUSH1 0x40 MLOAD DUP1 SWAP2 SUB SWAP1 RETURN JUMPDEST CALLVALUE DUP1 ISZERO PUSH2 0x272 JUMPI PUSH1 0x0 DUP1 REVERT JUMPDEST POP PUSH2 0x28D PUSH1 0x4 DUP1 CALLDATASIZE SUB DUP2 ADD SWAP1 PUSH2 0x288 SWAP2 SWAP1 PUSH2 0x25C1 JUMP JUMPDEST PUSH2 0x90D JUMP JUMPDEST PUSH1 0x40 MLOAD PUSH2 0x29A SWAP2 SWAP1 PUSH2 0x2641 JUMP JUMPDEST PUSH1 0x40 MLOAD DUP1 SWAP2 SUB SWAP1 RETURN JUMPDEST PUSH2 0x2BD PUSH1 0x4 DUP1 CALLDATASIZE SUB DUP2 ADD SWAP1 PUSH2 0x2B8 SWAP2 SWAP1 PUSH2 0x2688 JUMP JUMPDEST PUSH2 0x946 JUMP JUMPDEST STOP JUMPDEST CALLVALUE DUP1 ISZERO PUSH2 0x2CB JUMPI PUSH1 0x0 DUP1 REVERT JUMPDEST POP PUSH2 0x2D4 PUSH2 0xCAC JUMP JUMPDEST PUSH1 0x40 MLOAD PUSH2 0x2E1 SWAP2 SWAP1 PUSH2 0x25A6 JUMP JUMPDEST PUSH1 0x40 MLOAD DUP1 SWAP2 SUB SWAP1 RETURN JUMPDEST CALLVALUE DUP1 ISZERO PUSH2 0x2F6 JUMPI PUSH1 0x0 DUP1 REVERT JUMPDEST POP PUSH2 0x2FF PUSH2 0xCB2 JUMP JUMPDEST PUSH1 0x40 MLOAD PUSH2 0x30C SWAP2 SWAP1 PUSH2 0x274D JUMP JUMPDEST PUSH1 0x40 MLOAD DUP1 SWAP2 SUB SWAP1 RETURN JUMPDEST CALLVALUE DUP1 ISZERO PUSH2 0x321 JUMPI PUSH1 0x0 DUP1 REVERT JUMPDEST POP PUSH2 0x33C PUSH1 0x4 DUP1 CALLDATASIZE SUB DUP2 ADD SWAP1 PUSH2 0x337 SWAP2 SWAP1 PUSH2 0x24A8 JUMP JUMPDEST PUSH2 0xCD8 JUMP JUMPDEST PUSH1 0x40 MLOAD PUSH2 0x349 SWAP2 SWAP1 PUSH2 0x25A6 JUMP JUMPDEST PUSH1 0x40 MLOAD DUP1 SWAP2 SUB SWAP1 RETURN JUMPDEST PUSH2 0x36C PUSH1 0x4 DUP1 CALLDATASIZE SUB DUP2 ADD SWAP1 PUSH2 0x367 SWAP2 SWAP1 PUSH2 0x2768 JUMP JUMPDEST PUSH2 0xDB6 JUMP JUMPDEST STOP JUMPDEST CALLVALUE DUP1 ISZERO PUSH2 0x37A JUMPI PUSH1 0x0 DUP1 REVERT JUMPDEST POP PUSH2 0x383 PUSH2 0xF71 JUMP JUMPDEST PUSH1 0x40 MLOAD PUSH2 0x390 SWAP2 SWAP1 PUSH2 0x274D JUMP JUMPDEST PUSH1 0x40 MLOAD DUP1 SWAP2 SUB SWAP1 RETURN JUMPDEST CALLVALUE DUP1 ISZERO PUSH2 0x3A5 JUMPI PUSH1 0x0 DUP1 REVERT JUMPDEST POP PUSH2 0x3C0 PUSH1 0x4 DUP1 CALLDATASIZE SUB DUP2 ADD SWAP1 PUSH2 0x3BB SWAP2 SWAP1 PUSH2 0x2842 JUMP JUMPDEST PUSH2 0xF97 JUMP JUMPDEST PUSH1 0x40 MLOAD PUSH2 0x3CD SWAP2 SWAP1 PUSH2 0x2641 JUMP JUMPDEST PUSH1 0x40 MLOAD DUP1 SWAP2 SUB SWAP1 RETURN JUMPDEST CALLVALUE DUP1 ISZERO PUSH2 0x3E2 JUMPI PUSH1 0x0 DUP1 REVERT JUMPDEST POP PUSH2 0x3EB PUSH2 0xFCD JUMP JUMPDEST PUSH1 0x40 MLOAD PUSH2 0x3F8 SWAP2 SWAP1 PUSH2 0x25A6 JUMP JUMPDEST PUSH1 0x40 MLOAD DUP1 SWAP2 SUB SWAP1 RETURN JUMPDEST CALLVALUE DUP1 ISZERO PUSH2 0x40D JUMPI PUSH1 0x0 DUP1 REVERT JUMPDEST POP PUSH2 0x416 PUSH2 0x10DD JUMP JUMPDEST PUSH1 0x40 MLOAD PUSH2 0x423 SWAP2 SWAP1 PUSH2 0x274D JUMP JUMPDEST PUSH1 0x40 MLOAD DUP1 SWAP2 SUB SWAP1 RETURN JUMPDEST CALLVALUE DUP1 ISZERO PUSH2 0x438 JUMPI PUSH1 0x0 DUP1 REVERT JUMPDEST POP PUSH2 0x453 PUSH1 0x4 DUP1 CALLDATASIZE SUB DUP2 ADD SWAP1 PUSH2 0x44E SWAP2 SWAP1 PUSH2 0x2895 JUMP JUMPDEST PUSH2 0x1103 JUMP JUMPDEST PUSH1 0x40 MLOAD PUSH2 0x462 SWAP4 SWAP3 SWAP2 SWAP1 PUSH2 0x2939 JUMP JUMPDEST PUSH1 0x40 MLOAD DUP1 SWAP2 SUB SWAP1 RETURN JUMPDEST CALLVALUE DUP1 ISZERO PUSH2 0x477 JUMPI PUSH1 0x0 DUP1 REVERT JUMPDEST POP PUSH2 0x492 PUSH1 0x4 DUP1 CALLDATASIZE SUB DUP2 ADD SWAP1 PUSH2 0x48D SWAP2 SWAP1 PUSH2 0x2A8D JUMP JUMPDEST PUSH2 0x118A JUMP JUMPDEST PUSH1 0x40 MLOAD PUSH2 0x49F SWAP2 SWAP1 PUSH2 0x25A6 JUMP JUMPDEST PUSH1 0x40 MLOAD DUP1 SWAP2 SUB SWAP1 RETURN JUMPDEST CALLVALUE DUP1 ISZERO PUSH2 0x4B4 JUMPI PUSH1 0x0 DUP1 REVERT JUMPDEST POP PUSH2 0x4BD PUSH2 0x1357 JUMP JUMPDEST PUSH1 0x40 MLOAD PUSH2 0x4CA SWAP2 SWAP1 PUSH2 0x274D JUMP JUMPDEST PUSH1 0x40 MLOAD DUP1 SWAP2 SUB SWAP1 RETURN JUMPDEST CALLVALUE DUP1 ISZERO PUSH2 0x4DF JUMPI PUSH1 0x0 DUP1 REVERT JUMPDEST POP PUSH2 0x4FA PUSH1 0x4 DUP1 CALLDATASIZE SUB DUP2 ADD SWAP1 PUSH2 0x4F5 SWAP2 SWAP1 PUSH2 0x2AE0 JUMP JUMPDEST PUSH2 0x137D JUMP JUMPDEST PUSH1 0x40 MLOAD PUSH2 0x508 SWAP3 SWAP2 SWAP1 PUSH2 0x2B56 JUMP JUMPDEST PUSH1 0x40 MLOAD DUP1 SWAP2 SUB SWAP1 RETURN JUMPDEST CALLVALUE DUP1 ISZERO PUSH2 0x51D JUMPI PUSH1 0x0 DUP1 REVERT JUMPDEST POP PUSH2 0x526 PUSH2 0x164F JUMP JUMPDEST PUSH1 0x40 MLOAD PUSH2 0x533 SWAP2 SWAP1 PUSH2 0x274D JUMP JUMPDEST PUSH1 0x40 MLOAD DUP1 SWAP2 SUB SWAP1 RETURN JUMPDEST CALLVALUE DUP1 ISZERO PUSH2 0x548 JUMPI PUSH1 0x0 DUP1 REVERT JUMPDEST POP PUSH2 0x551 PUSH2 0x1675 JUMP JUMPDEST PUSH1 0x40 MLOAD PUSH2 0x55E SWAP2 SWAP1 PUSH2 0x25A6 JUMP JUMPDEST PUSH1 0x40 MLOAD DUP1 SWAP2 SUB SWAP1 RETURN JUMPDEST CALLVALUE DUP1 ISZERO PUSH2 0x573 JUMPI PUSH1 0x0 DUP1 REVERT JUMPDEST POP PUSH2 0x57C PUSH2 0x167B JUMP JUMPDEST PUSH1 0x40 MLOAD PUSH2 0x589 SWAP2 SWAP1 PUSH2 0x25A6 JUMP JUMPDEST PUSH1 0x40 MLOAD DUP1 SWAP2 SUB SWAP1 RETURN JUMPDEST CALLVALUE DUP1 ISZERO PUSH2 0x59E JUMPI PUSH1 0x0 DUP1 REVERT JUMPDEST POP PUSH2 0x5A7 PUSH2 0x1681 JUMP JUMPDEST PUSH1 0x40 MLOAD PUSH2 0x5B4 SWAP2 SWAP1 PUSH2 0x274D JUMP JUMPDEST PUSH1 0x40 MLOAD DUP1 SWAP2 SUB SWAP1 RETURN JUMPDEST CALLVALUE DUP1 ISZERO PUSH2 0x5C9 JUMPI PUSH1 0x0 DUP1 REVERT JUMPDEST POP PUSH2 0x5E4 PUSH1 0x4 DUP1 CALLDATASIZE SUB DUP2 ADD SWAP1 PUSH2 0x5DF SWAP2 SWAP1 PUSH2 0x24A8 JUMP JUMPDEST PUSH2 0x16A7 JUMP JUMPDEST PUSH1 0x40 MLOAD PUSH2 0x5F1 SWAP2 SWAP1 PUSH2 0x25A6 JUMP JUMPDEST PUSH1 0x40 MLOAD DUP1 SWAP2 SUB SWAP1 RETURN JUMPDEST CALLVALUE DUP1 ISZERO PUSH2 0x606 JUMPI PUSH1 0x0 DUP1 REVERT JUMPDEST POP PUSH2 0x60F PUSH2 0x173F JUMP JUMPDEST PUSH1 0x40 MLOAD PUSH2 0x61C SWAP2 SWAP1 PUSH2 0x25A6 JUMP JUMPDEST PUSH1 0x40 MLOAD DUP1 SWAP2 SUB SWAP1 RETURN JUMPDEST CALLVALUE DUP1 ISZERO PUSH2 0x631 JUMPI PUSH1 0x0 DUP1 REVERT JUMPDEST POP PUSH2 0x64C PUSH1 0x4 DUP1 CALLDATASIZE SUB DUP2 ADD SWAP1 PUSH2 0x647 SWAP2 SWAP1 PUSH2 0x24A8 JUMP JUMPDEST PUSH2 0x1744 JUMP JUMPDEST PUSH1 0x40 MLOAD PUSH2 0x659 SWAP2 SWAP1 PUSH2 0x2B7F JUMP JUMPDEST PUSH1 0x40 MLOAD DUP1 SWAP2 SUB SWAP1 RETURN JUMPDEST CALLVALUE DUP1 ISZERO PUSH2 0x66E JUMPI PUSH1 0x0 DUP1 REVERT JUMPDEST POP PUSH2 0x677 PUSH2 0x1898 JUMP JUMPDEST PUSH1 0x40 MLOAD PUSH2 0x684 SWAP2 SWAP1 PUSH2 0x274D JUMP JUMPDEST PUSH1 0x40 MLOAD DUP1 SWAP2 SUB SWAP1 RETURN JUMPDEST CALLVALUE DUP1 ISZERO PUSH2 0x699 JUMPI PUSH1 0x0 DUP1 REVERT JUMPDEST POP PUSH2 0x6A2 PUSH2 0x18BE JUMP JUMPDEST PUSH1 0x40 MLOAD PUSH2 0x6AF SWAP2 SWAP1 PUSH2 0x274D JUMP JUMPDEST PUSH1 0x40 MLOAD DUP1 SWAP2 SUB SWAP1 RETURN JUMPDEST CALLVALUE DUP1 ISZERO PUSH2 0x6C4 JUMPI PUSH1 0x0 DUP1 REVERT JUMPDEST POP PUSH2 0x6CD PUSH2 0x18E4 JUMP JUMPDEST PUSH1 0x40 MLOAD PUSH2 0x6DA SWAP2 SWAP1 PUSH2 0x274D JUMP JUMPDEST PUSH1 0x40 MLOAD DUP1 SWAP2 SUB SWAP1 RETURN JUMPDEST CALLVALUE DUP1 ISZERO PUSH2 0x6EF JUMPI PUSH1 0x0 DUP1 REVERT JUMPDEST POP PUSH2 0x6F8 PUSH2 0x190A JUMP JUMPDEST PUSH1 0x40 MLOAD PUSH2 0x705 SWAP2 SWAP1 PUSH2 0x274D JUMP JUMPDEST PUSH1 0x40 MLOAD DUP1 SWAP2 SUB SWAP1 RETURN JUMPDEST CALLVALUE DUP1 ISZERO PUSH2 0x71A JUMPI PUSH1 0x0 DUP1 REVERT JUMPDEST POP PUSH2 0x723 PUSH2 0x1930 JUMP JUMPDEST PUSH1 0x40 MLOAD PUSH2 0x730 SWAP2 SWAP1 PUSH2 0x25A6 JUMP JUMPDEST PUSH1 0x40 MLOAD DUP1 SWAP2 SUB SWAP1 RETURN JUMPDEST CALLVALUE DUP1 ISZERO PUSH2 0x745 JUMPI PUSH1 0x0 DUP1 REVERT JUMPDEST POP PUSH2 0x74E PUSH2 0x1936 JUMP JUMPDEST PUSH1 0x40 MLOAD PUSH2 0x75B SWAP2 SWAP1 PUSH2 0x25A6 JUMP JUMPDEST PUSH1 0x40 MLOAD DUP1 SWAP2 SUB SWAP1 RETURN JUMPDEST PUSH2 0x76C PUSH2 0x1C41 JUMP JUMPDEST STOP JUMPDEST CALLVALUE DUP1 ISZERO PUSH2 0x77A JUMPI PUSH1 0x0 DUP1 REVERT JUMPDEST POP PUSH2 0x783 PUSH2 0x1C43 JUMP JUMPDEST PUSH1 0x40 MLOAD PUSH2 0x790 SWAP2 SWAP1 PUSH2 0x25A6 JUMP JUMPDEST PUSH1 0x40 MLOAD DUP1 SWAP2 SUB SWAP1 RETURN JUMPDEST CALLVALUE DUP1 ISZERO PUSH2 0x7A5 JUMPI PUSH1 0x0 DUP1 REVERT JUMPDEST POP PUSH2 0x7AE PUSH2 0x1D56 JUMP JUMPDEST PUSH1 0x40 MLOAD PUSH2 0x7BB SWAP2 SWAP1 PUSH2 0x274D JUMP JUMPDEST PUSH1 0x40 MLOAD DUP1 SWAP2 SUB SWAP1 RETURN JUMPDEST CALLVALUE DUP1 ISZERO PUSH2 0x7D0 JUMPI PUSH1 0x0 DUP1 REVERT JUMPDEST POP PUSH2 0x7D9 PUSH2 0x1D7C JUMP JUMPDEST PUSH1 0x40 MLOAD PUSH2 0x7E6 SWAP2 SWAP1 PUSH2 0x274D JUMP JUMPDEST PUSH1 0x40 MLOAD DUP1 SWAP2 SUB SWAP1 RETURN JUMPDEST CALLVALUE DUP1 ISZERO PUSH2 0x7FB JUMPI PUSH1 0x0 DUP1 REVERT JUMPDEST POP PUSH2 0x816 PUSH1 0x4 DUP1 CALLDATASIZE SUB DUP2 ADD SWAP1 PUSH2 0x811 SWAP2 SWAP1 PUSH2 0x2895 JUMP JUMPDEST PUSH2 0x1DA0 JUMP JUMPDEST PUSH1 0x40 MLOAD PUSH2 0x825 SWAP4 SWAP3 SWAP2 SWAP1 PUSH2 0x2B9A JUMP JUMPDEST PUSH1 0x40 MLOAD DUP1 SWAP2 SUB SWAP1 RETURN JUMPDEST PUSH2 0x836 PUSH2 0x23E7 JUMP JUMPDEST PUSH1 0x9 PUSH1 0x0 SWAP1 SLOAD SWAP1 PUSH2 0x100 EXP SWAP1 DIV PUSH20 0xFFFFFFFFFFFFFFFFFFFFFFFFFFFFFFFFFFFFFFFF AND PUSH20 0xFFFFFFFFFFFFFFFFFFFFFFFFFFFFFFFFFFFFFFFF AND PUSH4 0x514EA4BF PUSH2 0x8A2 PUSH1 0xB PUSH1 0x0 SWAP1 SLOAD SWAP1 PUSH2 0x100 EXP SWAP1 DIV PUSH20 0xFFFFFFFFFFFFFFFFFFFFFFFFFFFFFFFFFFFFFFFF AND DUP8 DUP8 DUP8 PUSH2 0x90D JUMP JUMPDEST PUSH1 0x40 MLOAD DUP3 PUSH4 0xFFFFFFFF AND PUSH1 0xE0 SHL DUP2 MSTORE PUSH1 0x4 ADD PUSH2 0x8BE SWAP2 SWAP1 PUSH2 0x2641 JUMP JUMPDEST PUSH1 0xA0 PUSH1 0x40 MLOAD DUP1 DUP4 SUB DUP2 DUP7 GAS STATICCALL ISZERO DUP1 ISZERO PUSH2 0x8DB JUMPI RETURNDATASIZE PUSH1 0x0 DUP1 RETURNDATACOPY RETURNDATASIZE PUSH1 0x0 REVERT JUMPDEST POP POP POP POP PUSH1 0x40 MLOAD RETURNDATASIZE PUSH1 0x1F NOT PUSH1 0x1F DUP3 ADD AND DUP3 ADD DUP1 PUSH1 0x40 MSTORE POP DUP2 ADD SWAP1 PUSH2 0x8FF SWAP2 SWAP1 PUSH2 0x2C72 JUMP JUMPDEST SWAP1 POP SWAP4 SWAP3 POP POP POP JUMP JUMPDEST PUSH1 0x64 DUP2 JUMP JUMPDEST PUSH1 0x0 DUP5 DUP5 DUP5 DUP5 PUSH1 0x40 MLOAD PUSH1 0x20 ADD PUSH2 0x926 SWAP5 SWAP4 SWAP3 SWAP2 SWAP1 PUSH2 0x2C9F JUMP JUMPDEST PUSH1 0x40 MLOAD PUSH1 0x20 DUP2 DUP4 SUB SUB DUP2 MSTORE SWAP1 PUSH1 0x40 MSTORE DUP1 MLOAD SWAP1 PUSH1 0x20 ADD KECCAK256 SWAP1 POP SWAP5 SWAP4 POP POP POP POP JUMP JUMPDEST PUSH1 0xB PUSH1 0x0 SWAP1 SLOAD SWAP1 PUSH2 0x100 EXP SWAP1 DIV PUSH20 0xFFFFFFFFFFFFFFFFFFFFFFFFFFFFFFFFFFFFFFFF AND PUSH20 0xFFFFFFFFFFFFFFFFFFFFFFFFFFFFFFFFFFFFFFFF AND CALLER PUSH20 0xFFFFFFFFFFFFFFFFFFFFFFFFFFFFFFFFFFFFFFFF AND EQ PUSH2 0x9D6 JUMPI PUSH1 0x40 MLOAD PUSH32 0x8C379A000000000000000000000000000000000000000000000000000000000 DUP2 MSTORE PUSH1 0x4 ADD PUSH2 0x9CD SWAP1 PUSH2 0x2D67 JUMP JUMPDEST PUSH1 0x40 MLOAD DUP1 SWAP2 SUB SWAP1 REVERT JUMPDEST PUSH1 0x0 DUP1 PUSH2 0x9E4 DUP9 DUP11 DUP13 PUSH2 0x1E27 JUMP JUMPDEST PUSH20 0xEEEEEEEEEEEEEEEEEEEEEEEEEEEEEEEEEEEEEEEE PUSH20 0xFFFFFFFFFFFFFFFFFFFFFFFFFFFFFFFFFFFFFFFF AND DUP7 PUSH20 0xFFFFFFFFFFFFFFFFFFFFFFFFFFFFFFFFFFFFFFFF AND EQ PUSH2 0xBCA JUMPI DUP6 PUSH20 0xFFFFFFFFFFFFFFFFFFFFFFFFFFFFFFFFFFFFFFFF AND PUSH4 0x23B872DD CALLER ADDRESS DUP9 PUSH1 0x40 MLOAD DUP5 PUSH4 0xFFFFFFFF AND PUSH1 0xE0 SHL DUP2 MSTORE PUSH1 0x4 ADD PUSH2 0xA68 SWAP4 SWAP3 SWAP2 SWAP1 PUSH2 0x2D87 JUMP JUMPDEST PUSH1 0x20 PUSH1 0x40 MLOAD DUP1 DUP4 SUB DUP2 PUSH1 0x0 DUP8 GAS CALL ISZERO DUP1 ISZERO PUSH2 0xA87 JUMPI RETURNDATASIZE PUSH1 0x0 DUP1 RETURNDATACOPY RETURNDATASIZE PUSH1 0x0 REVERT JUMPDEST POP POP POP POP PUSH1 0x40 MLOAD RETURNDATASIZE PUSH1 0x1F NOT PUSH1 0x1F DUP3 ADD AND DUP3 ADD DUP1 PUSH1 0x40 MSTORE POP DUP2 ADD SWAP1 PUSH2 0xAAB SWAP2 SWAP1 PUSH2 0x2DD3 JUMP JUMPDEST PUSH2 0xAEA JUMPI PUSH1 0x40 MLOAD PUSH32 0x8C379A000000000000000000000000000000000000000000000000000000000 DUP2 MSTORE PUSH1 0x4 ADD PUSH2 0xAE1 SWAP1 PUSH2 0x2E4C JUMP JUMPDEST PUSH1 0x40 MLOAD DUP1 SWAP2 SUB SWAP1 REVERT JUMPDEST DUP6 PUSH20 0xFFFFFFFFFFFFFFFFFFFFFFFFFFFFFFFFFFFFFFFF AND PUSH4 0x95EA7B3 PUSH1 0x8 PUSH1 0x0 SWAP1 SLOAD SWAP1 PUSH2 0x100 EXP SWAP1 DIV PUSH20 0xFFFFFFFFFFFFFFFFFFFFFFFFFFFFFFFFFFFFFFFF AND DUP8 PUSH1 0x40 MLOAD DUP4 PUSH4 0xFFFFFFFF AND PUSH1 0xE0 SHL DUP2 MSTORE PUSH1 0x4 ADD PUSH2 0xB47 SWAP3 SWAP2 SWAP1 PUSH2 0x2E6C JUMP JUMPDEST PUSH1 0x20 PUSH1 0x40 MLOAD DUP1 DUP4 SUB DUP2 PUSH1 0x0 DUP8 GAS CALL ISZERO DUP1 ISZERO PUSH2 0xB66 JUMPI RETURNDATASIZE PUSH1 0x0 DUP1 RETURNDATACOPY RETURNDATASIZE PUSH1 0x0 REVERT JUMPDEST POP POP POP POP PUSH1 0x40 MLOAD RETURNDATASIZE PUSH1 0x1F NOT PUSH1 0x1F DUP3 ADD AND DUP3 ADD DUP1 PUSH1 0x40 MSTORE POP DUP2 ADD SWAP1 PUSH2 0xB8A SWAP2 SWAP1 PUSH2 0x2DD3 JUMP JUMPDEST PUSH2 0xBC9 JUMPI PUSH1 0x40 MLOAD PUSH32 0x8C379A000000000000000000000000000000000000000000000000000000000 DUP2 MSTORE PUSH1 0x4 ADD PUSH2 0xBC0 SWAP1 PUSH2 0x2F07 JUMP JUMPDEST PUSH1 0x40 MLOAD DUP1 SWAP2 SUB SWAP1 REVERT JUMPDEST JUMPDEST PUSH1 0x0 DUP8 DUP8 DUP8 DUP8 DUP8 PUSH1 0x40 MLOAD DUP1 PUSH1 0x20 ADD PUSH1 0x40 MSTORE DUP1 PUSH1 0x0 DUP2 MSTORE POP PUSH1 0x40 MLOAD PUSH1 0x20 ADD PUSH2 0xBF6 SWAP7 SWAP6 SWAP5 SWAP4 SWAP3 SWAP2 SWAP1 PUSH2 0x2FA6 JUMP JUMPDEST PUSH1 0x40 MLOAD PUSH1 0x20 DUP2 DUP4 SUB SUB DUP2 MSTORE SWAP1 PUSH1 0x40 MSTORE SWAP1 POP PUSH1 0x8 PUSH1 0x0 SWAP1 SLOAD SWAP1 PUSH2 0x100 EXP SWAP1 DIV PUSH20 0xFFFFFFFFFFFFFFFFFFFFFFFFFFFFFFFFFFFFFFFF AND PUSH20 0xFFFFFFFFFFFFFFFFFFFFFFFFFFFFFFFFFFFFFFFF AND PUSH4 0x2F25F183 CALLVALUE DUP6 DUP15 DUP15 DUP15 DUP9 DUP9 PUSH1 0x40 MLOAD DUP9 PUSH4 0xFFFFFFFF AND PUSH1 0xE0 SHL DUP2 MSTORE PUSH1 0x4 ADD PUSH2 0xC6D SWAP7 SWAP6 SWAP5 SWAP4 SWAP3 SWAP2 SWAP1 PUSH2 0x309E JUMP JUMPDEST PUSH1 0x0 PUSH1 0x40 MLOAD DUP1 DUP4 SUB DUP2 DUP6 DUP9 DUP1 EXTCODESIZE ISZERO DUP1 ISZERO PUSH2 0xC86 JUMPI PUSH1 0x0 DUP1 REVERT JUMPDEST POP GAS CALL ISZERO DUP1 ISZERO PUSH2 0xC9A JUMPI RETURNDATASIZE PUSH1 0x0 DUP1 RETURNDATACOPY RETURNDATASIZE PUSH1 0x0 REVERT JUMPDEST POP POP POP POP POP POP POP POP POP POP POP POP POP POP POP POP JUMP JUMPDEST PUSH2 0x2710 DUP2 JUMP JUMPDEST PUSH1 0x1 PUSH1 0x0 SWAP1 SLOAD SWAP1 PUSH2 0x100 EXP SWAP1 DIV PUSH20 0xFFFFFFFFFFFFFFFFFFFFFFFFFFFFFFFFFFFFFFFF AND DUP2 JUMP JUMPDEST PUSH1 0x0 DUP1 PUSH2 0xCE6 DUP6 DUP6 DUP6 PUSH2 0x82E JUMP JUMPDEST SWAP1 POP PUSH1 0x0 PUSH2 0xCF9 DUP3 DUP8 DUP5 PUSH1 0x0 ADD MLOAD PUSH2 0x118A JUMP JUMPDEST SWAP1 POP PUSH1 0x0 DUP1 PUSH2 0xD12 DUP9 DUP8 DUP7 PUSH1 0x0 ADD MLOAD DUP8 PUSH1 0x60 ADD MLOAD PUSH2 0x137D JUMP JUMPDEST SWAP2 POP SWAP2 POP DUP1 ISZERO DUP1 ISZERO PUSH2 0xD39 JUMPI POP DUP4 PUSH1 0x20 ADD MLOAD PUSH2 0xD37 DUP5 DUP5 PUSH2 0x2024 SWAP1 SWAP2 SWAP1 PUSH4 0xFFFFFFFF AND JUMP JUMPDEST GT JUMPDEST ISZERO PUSH2 0xD4B JUMPI PUSH1 0x0 SWAP5 POP POP POP POP POP PUSH2 0xDAF JUMP JUMPDEST DUP1 PUSH2 0xD7E JUMPI PUSH2 0xD79 DUP4 PUSH2 0xD6B DUP5 DUP8 PUSH1 0x20 ADD MLOAD PUSH2 0x2082 SWAP1 SWAP2 SWAP1 PUSH4 0xFFFFFFFF AND JUMP JUMPDEST PUSH2 0x2082 SWAP1 SWAP2 SWAP1 PUSH4 0xFFFFFFFF AND JUMP JUMPDEST PUSH2 0xDA8 JUMP JUMPDEST PUSH2 0xDA7 DUP4 PUSH2 0xD99 DUP5 DUP8 PUSH1 0x20 ADD MLOAD PUSH2 0x2024 SWAP1 SWAP2 SWAP1 PUSH4 0xFFFFFFFF AND JUMP JUMPDEST PUSH2 0x2082 SWAP1 SWAP2 SWAP1 PUSH4 0xFFFFFFFF AND JUMP JUMPDEST JUMPDEST SWAP5 POP POP POP POP POP JUMPDEST SWAP4 SWAP3 POP POP POP JUMP JUMPDEST PUSH1 0xB PUSH1 0x0 SWAP1 SLOAD SWAP1 PUSH2 0x100 EXP SWAP1 DIV PUSH20 0xFFFFFFFFFFFFFFFFFFFFFFFFFFFFFFFFFFFFFFFF AND PUSH20 0xFFFFFFFFFFFFFFFFFFFFFFFFFFFFFFFFFFFFFFFF AND CALLER PUSH20 0xFFFFFFFFFFFFFFFFFFFFFFFFFFFFFFFFFFFFFFFF AND EQ PUSH2 0xE46 JUMPI PUSH1 0x40 MLOAD PUSH32 0x8C379A000000000000000000000000000000000000000000000000000000000 DUP2 MSTORE PUSH1 0x4 ADD PUSH2 0xE3D SWAP1 PUSH2 0x2D67 JUMP JUMPDEST PUSH1 0x40 MLOAD DUP1 SWAP2 SUB SWAP1 REVERT JUMPDEST PUSH2 0xE51 DUP7 DUP7 DUP10 PUSH2 0x1744 JUMP JUMPDEST PUSH2 0xE90 JUMPI PUSH1 0x40 MLOAD PUSH32 0x8C379A000000000000000000000000000000000000000000000000000000000 DUP2 MSTORE PUSH1 0x4 ADD PUSH2 0xE87 SWAP1 PUSH2 0x3178 JUMP JUMPDEST PUSH1 0x40 MLOAD DUP1 SWAP2 SUB SWAP1 REVERT JUMPDEST PUSH1 0x0 DUP1 PUSH1 0x0 DUP7 DUP7 DUP7 DUP7 PUSH1 0x40 MLOAD DUP1 PUSH1 0x20 ADD PUSH1 0x40 MSTORE DUP1 PUSH1 0x0 DUP2 MSTORE POP PUSH1 0x40 MLOAD PUSH1 0x20 ADD PUSH2 0xEBD SWAP6 SWAP5 SWAP4 SWAP3 SWAP2 SWAP1 PUSH2 0x3198 JUMP JUMPDEST PUSH1 0x40 MLOAD PUSH1 0x20 DUP2 DUP4 SUB SUB DUP2 MSTORE SWAP1 PUSH1 0x40 MSTORE SWAP1 POP PUSH1 0x8 PUSH1 0x0 SWAP1 SLOAD SWAP1 PUSH2 0x100 EXP SWAP1 DIV PUSH20 0xFFFFFFFFFFFFFFFFFFFFFFFFFFFFFFFFFFFFFFFF AND PUSH20 0xFFFFFFFFFFFFFFFFFFFFFFFFFFFFFFFFFFFFFFFF AND PUSH4 0x2F25F183 DUP5 DUP13 DUP13 DUP13 DUP8 DUP8 PUSH1 0x40 MLOAD DUP8 PUSH4 0xFFFFFFFF AND PUSH1 0xE0 SHL DUP2 MSTORE PUSH1 0x4 ADD PUSH2 0xF33 SWAP7 SWAP6 SWAP5 SWAP4 SWAP3 SWAP2 SWAP1 PUSH2 0x309E JUMP JUMPDEST PUSH1 0x0 PUSH1 0x40 MLOAD DUP1 DUP4 SUB DUP2 PUSH1 0x0 DUP8 DUP1 EXTCODESIZE ISZERO DUP1 ISZERO PUSH2 0xF4D JUMPI PUSH1 0x0 DUP1 REVERT JUMPDEST POP GAS CALL ISZERO DUP1 ISZERO PUSH2 0xF61 JUMPI RETURNDATASIZE PUSH1 0x0 DUP1 RETURNDATACOPY RETURNDATASIZE PUSH1 0x0 REVERT JUMPDEST POP POP POP POP POP POP POP POP POP POP POP POP POP POP JUMP JUMPDEST PUSH1 0xA PUSH1 0x0 SWAP1 SLOAD SWAP1 PUSH2 0x100 EXP SWAP1 DIV PUSH20 0xFFFFFFFFFFFFFFFFFFFFFFFFFFFFFFFFFFFFFFFF AND DUP2 JUMP JUMPDEST PUSH1 0x0 DUP4 DUP4 DUP4 PUSH1 0x40 MLOAD PUSH1 0x20 ADD PUSH2 0xFAE SWAP4 SWAP3 SWAP2 SWAP1 PUSH2 0x3282 JUMP JUMPDEST PUSH1 0x40 MLOAD PUSH1 0x20 DUP2 DUP4 SUB SUB DUP2 MSTORE SWAP1 PUSH1 0x40 MSTORE DUP1 MLOAD SWAP1 PUSH1 0x20 ADD KECCAK256 SWAP1 POP SWAP4 SWAP3 POP POP POP JUMP JUMPDEST PUSH1 0x0 DUP1 PUSH1 0x3 PUSH1 0x0 SWAP1 SLOAD SWAP1 PUSH2 0x100 EXP SWAP1 DIV PUSH20 0xFFFFFFFFFFFFFFFFFFFFFFFFFFFFFFFFFFFFFFFF AND PUSH20 0xFFFFFFFFFFFFFFFFFFFFFFFFFFFFFFFFFFFFFFFF AND PUSH4 0xD04F246B PUSH1 0xB PUSH1 0x0 SWAP1 SLOAD SWAP1 PUSH2 0x100 EXP SWAP1 DIV PUSH20 0xFFFFFFFFFFFFFFFFFFFFFFFFFFFFFFFFFFFFFFFF AND PUSH1 0x40 MLOAD DUP3 PUSH4 0xFFFFFFFF AND PUSH1 0xE0 SHL DUP2 MSTORE PUSH1 0x4 ADD PUSH2 0x104D SWAP2 SWAP1 PUSH2 0x274D JUMP JUMPDEST PUSH1 0x20 PUSH1 0x40 MLOAD DUP1 DUP4 SUB DUP2 DUP7 GAS STATICCALL ISZERO DUP1 ISZERO PUSH2 0x106A JUMPI RETURNDATASIZE PUSH1 0x0 DUP1 RETURNDATACOPY RETURNDATASIZE PUSH1 0x0 REVERT JUMPDEST POP POP POP POP PUSH1 0x40 MLOAD RETURNDATASIZE PUSH1 0x1F NOT PUSH1 0x1F DUP3 ADD AND DUP3 ADD DUP1 PUSH1 0x40 MSTORE POP DUP2 ADD SWAP1 PUSH2 0x108E SWAP2 SWAP1 PUSH2 0x32BF JUMP JUMPDEST SWAP1 POP PUSH1 0x0 DUP2 SUB PUSH2 0x10A2 JUMPI PUSH1 0x0 SWAP2 POP POP PUSH2 0x10DA JUMP JUMPDEST PUSH1 0x0 PUSH2 0x10AC PUSH2 0x1936 JUMP JUMPDEST SWAP1 POP PUSH2 0x10D5 DUP3 PUSH2 0x10C7 PUSH2 0x2710 DUP5 PUSH2 0x20CC SWAP1 SWAP2 SWAP1 PUSH4 0xFFFFFFFF AND JUMP JUMPDEST PUSH2 0x2146 SWAP1 SWAP2 SWAP1 PUSH4 0xFFFFFFFF AND JUMP JUMPDEST SWAP3 POP POP POP JUMPDEST SWAP1 JUMP JUMPDEST PUSH1 0x5 PUSH1 0x0 SWAP1 SLOAD SWAP1 PUSH2 0x100 EXP SWAP1 DIV PUSH20 0xFFFFFFFFFFFFFFFFFFFFFFFFFFFFFFFFFFFFFFFF AND DUP2 JUMP JUMPDEST PUSH1 0x10 DUP2 DUP2 SLOAD DUP2 LT PUSH2 0x1113 JUMPI PUSH1 0x0 DUP1 REVERT JUMPDEST SWAP1 PUSH1 0x0 MSTORE PUSH1 0x20 PUSH1 0x0 KECCAK256 SWAP1 PUSH1 0x2 MUL ADD PUSH1 0x0 SWAP2 POP SWAP1 POP DUP1 PUSH1 0x0 ADD PUSH1 0x0 SWAP1 SLOAD SWAP1 PUSH2 0x100 EXP SWAP1 DIV PUSH20 0xFFFFFFFFFFFFFFFFFFFFFFFFFFFFFFFFFFFFFFFF AND SWAP1 DUP1 PUSH1 0x1 ADD PUSH1 0x0 SWAP1 SLOAD SWAP1 PUSH2 0x100 EXP SWAP1 DIV PUSH20 0xFFFFFFFFFFFFFFFFFFFFFFFFFFFFFFFFFFFFFFFF AND SWAP1 DUP1 PUSH1 0x1 ADD PUSH1 0x14 SWAP1 SLOAD SWAP1 PUSH2 0x100 EXP SWAP1 DIV PUSH1 0xFF AND SWAP1 POP DUP4 JUMP JUMPDEST PUSH1 0x0 DUP1 PUSH1 0x9 PUSH1 0x0 SWAP1 SLOAD SWAP1 PUSH2 0x100 EXP SWAP1 DIV PUSH20 0xFFFFFFFFFFFFFFFFFFFFFFFFFFFFFFFFFFFFFFFF AND PUSH20 0xFFFFFFFFFFFFFFFFFFFFFFFFFFFFFFFFFFFFFFFF AND PUSH4 0xDDCA3F43 PUSH1 0x40 MLOAD DUP2 PUSH4 0xFFFFFFFF AND PUSH1 0xE0 SHL DUP2 MSTORE PUSH1 0x4 ADD PUSH1 0xE0 PUSH1 0x40 MLOAD DUP1 DUP4 SUB DUP2 DUP7 GAS STATICCALL ISZERO DUP1 ISZERO PUSH2 0x11FA JUMPI RETURNDATASIZE PUSH1 0x0 DUP1 RETURNDATACOPY RETURNDATASIZE PUSH1 0x0 REVERT JUMPDEST POP POP POP POP PUSH1 0x40 MLOAD RETURNDATASIZE PUSH1 0x1F NOT PUSH1 0x1F DUP3 ADD AND DUP3 ADD DUP1 PUSH1 0x40 MSTORE POP DUP2 ADD SWAP1 PUSH2 0x121E SWAP2 SWAP1 PUSH2 0x33A0 JUMP JUMPDEST SWAP1 POP PUSH1 0x0 PUSH1 0x9 PUSH1 0x0 SWAP1 SLOAD SWAP1 PUSH2 0x100 EXP SWAP1 DIV PUSH20 0xFFFFFFFFFFFFFFFFFFFFFFFFFFFFFFFFFFFFFFFF AND PUSH20 0xFFFFFFFFFFFFFFFFFFFFFFFFFFFFFFFFFFFFFFFF AND PUSH4 0xA9126169 DUP7 PUSH1 0x40 MLOAD DUP3 PUSH4 0xFFFFFFFF AND PUSH1 0xE0 SHL DUP2 MSTORE PUSH1 0x4 ADD PUSH2 0x127D SWAP2 SWAP1 PUSH2 0x274D JUMP JUMPDEST PUSH1 0xA0 PUSH1 0x40 MLOAD DUP1 DUP4 SUB DUP2 DUP7 GAS STATICCALL ISZERO DUP1 ISZERO PUSH2 0x129A JUMPI RETURNDATASIZE PUSH1 0x0 DUP1 RETURNDATACOPY RETURNDATASIZE PUSH1 0x0 REVERT JUMPDEST POP POP POP POP PUSH1 0x40 MLOAD RETURNDATASIZE PUSH1 0x1F NOT PUSH1 0x1F DUP3 ADD AND DUP3 ADD DUP1 PUSH1 0x40 MSTORE POP DUP2 ADD SWAP1 PUSH2 0x12BE SWAP2 SWAP1 PUSH2 0x3459 JUMP JUMPDEST PUSH1 0x60 ADD MLOAD SWAP1 POP PUSH1 0x0 PUSH2 0x130A PUSH5 0x2540BE400 PUSH2 0x12FC DUP10 PUSH1 0x0 ADD MLOAD PUSH2 0x12EE DUP12 PUSH1 0x80 ADD MLOAD DUP8 PUSH2 0x2082 SWAP1 SWAP2 SWAP1 PUSH4 0xFFFFFFFF AND JUMP JUMPDEST PUSH2 0x20CC SWAP1 SWAP2 SWAP1 PUSH4 0xFFFFFFFF AND JUMP JUMPDEST PUSH2 0x2146 SWAP1 SWAP2 SWAP1 PUSH4 0xFFFFFFFF AND JUMP JUMPDEST SWAP1 POP PUSH1 0x0 PUSH2 0x133C PUSH5 0x2540BE400 PUSH2 0x132E DUP7 PUSH1 0x0 ADD MLOAD DUP10 PUSH2 0x20CC SWAP1 SWAP2 SWAP1 PUSH4 0xFFFFFFFF AND JUMP JUMPDEST PUSH2 0x2146 SWAP1 SWAP2 SWAP1 PUSH4 0xFFFFFFFF AND JUMP JUMPDEST SWAP1 POP DUP1 DUP3 PUSH2 0x134A SWAP2 SWAP1 PUSH2 0x34B5 JUMP JUMPDEST SWAP5 POP POP POP POP POP SWAP4 SWAP3 POP POP POP JUMP JUMPDEST PUSH1 0x2 PUSH1 0x0 SWAP1 SLOAD SWAP1 PUSH2 0x100 EXP SWAP1 DIV PUSH20 0xFFFFFFFFFFFFFFFFFFFFFFFFFFFFFFFFFFFFFFFF AND DUP2 JUMP JUMPDEST PUSH1 0x0 DUP1 PUSH1 0x0 DUP4 GT PUSH2 0x13C3 JUMPI PUSH1 0x40 MLOAD PUSH32 0x8C379A000000000000000000000000000000000000000000000000000000000 DUP2 MSTORE PUSH1 0x4 ADD PUSH2 0x13BA SWAP1 PUSH2 0x355B JUMP JUMPDEST PUSH1 0x40 MLOAD DUP1 SWAP2 SUB SWAP1 REVERT JUMPDEST PUSH1 0x0 DUP1 PUSH1 0x1 DUP2 GT ISZERO PUSH2 0x13D8 JUMPI PUSH2 0x13D7 PUSH2 0x28C2 JUMP JUMPDEST JUMPDEST DUP7 PUSH1 0x1 DUP2 GT ISZERO PUSH2 0x13EB JUMPI PUSH2 0x13EA PUSH2 0x28C2 JUMP JUMPDEST JUMPDEST EQ PUSH2 0x14CF JUMPI PUSH2 0x14CA PUSH2 0x2710 PUSH2 0x14BC PUSH2 0x140F PUSH1 0x64 PUSH2 0x2710 PUSH2 0x2024 SWAP1 SWAP2 SWAP1 PUSH4 0xFFFFFFFF AND JUMP JUMPDEST PUSH1 0xA PUSH1 0x0 SWAP1 SLOAD SWAP1 PUSH2 0x100 EXP SWAP1 DIV PUSH20 0xFFFFFFFFFFFFFFFFFFFFFFFFFFFFFFFFFFFFFFFF AND PUSH20 0xFFFFFFFFFFFFFFFFFFFFFFFFFFFFFFFFFFFFFFFF AND PUSH4 0x76D69760 DUP13 PUSH1 0x1 PUSH1 0x40 MLOAD DUP4 PUSH4 0xFFFFFFFF AND PUSH1 0xE0 SHL DUP2 MSTORE PUSH1 0x4 ADD PUSH2 0x146D SWAP3 SWAP2 SWAP1 PUSH2 0x357B JUMP JUMPDEST PUSH1 0x20 PUSH1 0x40 MLOAD DUP1 DUP4 SUB DUP2 DUP7 GAS STATICCALL ISZERO DUP1 ISZERO PUSH2 0x148A JUMPI RETURNDATASIZE PUSH1 0x0 DUP1 RETURNDATACOPY RETURNDATASIZE PUSH1 0x0 REVERT JUMPDEST POP POP POP POP PUSH1 0x40 MLOAD RETURNDATASIZE PUSH1 0x1F NOT PUSH1 0x1F DUP3 ADD AND DUP3 ADD DUP1 PUSH1 0x40 MSTORE POP DUP2 ADD SWAP1 PUSH2 0x14AE SWAP2 SWAP1 PUSH2 0x32BF JUMP JUMPDEST PUSH2 0x20CC SWAP1 SWAP2 SWAP1 PUSH4 0xFFFFFFFF AND JUMP JUMPDEST PUSH2 0x2146 SWAP1 SWAP2 SWAP1 PUSH4 0xFFFFFFFF AND JUMP JUMPDEST PUSH2 0x15AA JUMP JUMPDEST PUSH2 0x15A9 PUSH2 0x2710 PUSH2 0x159B PUSH2 0x14EE PUSH1 0x64 PUSH2 0x2710 PUSH2 0x2082 SWAP1 SWAP2 SWAP1 PUSH4 0xFFFFFFFF AND JUMP JUMPDEST PUSH1 0xA PUSH1 0x0 SWAP1 SLOAD SWAP1 PUSH2 0x100 EXP SWAP1 DIV PUSH20 0xFFFFFFFFFFFFFFFFFFFFFFFFFFFFFFFFFFFFFFFF AND PUSH20 0xFFFFFFFFFFFFFFFFFFFFFFFFFFFFFFFFFFFFFFFF AND PUSH4 0x76D69760 DUP13 PUSH1 0x0 PUSH1 0x40 MLOAD DUP4 PUSH4 0xFFFFFFFF AND PUSH1 0xE0 SHL DUP2 MSTORE PUSH1 0x4 ADD PUSH2 0x154C SWAP3 SWAP2 SWAP1 PUSH2 0x357B JUMP JUMPDEST PUSH1 0x20 PUSH1 0x40 MLOAD DUP1 DUP4 SUB DUP2 DUP7 GAS STATICCALL ISZERO DUP1 ISZERO PUSH2 0x1569 JUMPI RETURNDATASIZE PUSH1 0x0 DUP1 RETURNDATACOPY RETURNDATASIZE PUSH1 0x0 REVERT JUMPDEST POP POP POP POP PUSH1 0x40 MLOAD RETURNDATASIZE PUSH1 0x1F NOT PUSH1 0x1F DUP3 ADD AND DUP3 ADD DUP1 PUSH1 0x40 MSTORE POP DUP2 ADD SWAP1 PUSH2 0x158D SWAP2 SWAP1 PUSH2 0x32BF JUMP JUMPDEST PUSH2 0x20CC SWAP1 SWAP2 SWAP1 PUSH4 0xFFFFFFFF AND JUMP JUMPDEST PUSH2 0x2146 SWAP1 SWAP2 SWAP1 PUSH4 0xFFFFFFFF AND JUMP JUMPDEST JUMPDEST SWAP1 POP PUSH1 0x0 DUP2 DUP6 GT PUSH2 0x15CD JUMPI PUSH2 0x15C8 DUP6 DUP4 PUSH2 0x2082 SWAP1 SWAP2 SWAP1 PUSH4 0xFFFFFFFF AND JUMP JUMPDEST PUSH2 0x15E1 JUMP JUMPDEST PUSH2 0x15E0 DUP3 DUP7 PUSH2 0x2082 SWAP1 SWAP2 SWAP1 PUSH4 0xFFFFFFFF AND JUMP JUMPDEST JUMPDEST SWAP1 POP PUSH2 0x1608 DUP6 PUSH2 0x15FA DUP4 DUP10 PUSH2 0x20CC SWAP1 SWAP2 SWAP1 PUSH4 0xFFFFFFFF AND JUMP JUMPDEST PUSH2 0x2146 SWAP1 SWAP2 SWAP1 PUSH4 0xFFFFFFFF AND JUMP JUMPDEST SWAP4 POP PUSH1 0x0 PUSH1 0x1 DUP2 GT ISZERO PUSH2 0x161E JUMPI PUSH2 0x161D PUSH2 0x28C2 JUMP JUMPDEST JUMPDEST DUP8 PUSH1 0x1 DUP2 GT ISZERO PUSH2 0x1631 JUMPI PUSH2 0x1630 PUSH2 0x28C2 JUMP JUMPDEST JUMPDEST EQ PUSH2 0x163E JUMPI DUP2 DUP6 GT PUSH2 0x1642 JUMP JUMPDEST DUP5 DUP3 GT JUMPDEST SWAP3 POP POP POP SWAP5 POP SWAP5 SWAP3 POP POP POP JUMP JUMPDEST PUSH1 0x8 PUSH1 0x0 SWAP1 SLOAD SWAP1 PUSH2 0x100 EXP SWAP1 DIV PUSH20 0xFFFFFFFFFFFFFFFFFFFFFFFFFFFFFFFFFFFFFFFF AND DUP2 JUMP JUMPDEST PUSH1 0xC SLOAD DUP2 JUMP JUMPDEST PUSH2 0x2AF8 DUP2 JUMP JUMPDEST PUSH1 0x3 PUSH1 0x0 SWAP1 SLOAD SWAP1 PUSH2 0x100 EXP SWAP1 DIV PUSH20 0xFFFFFFFFFFFFFFFFFFFFFFFFFFFFFFFFFFFFFFFF AND DUP2 JUMP JUMPDEST PUSH1 0x0 DUP1 PUSH2 0x16B5 DUP6 DUP6 DUP6 PUSH2 0x82E JUMP JUMPDEST SWAP1 POP PUSH1 0x0 DUP1 PUSH2 0x16CE DUP8 DUP7 DUP6 PUSH1 0x0 ADD MLOAD DUP7 PUSH1 0x60 ADD MLOAD PUSH2 0x2190 JUMP JUMPDEST SWAP2 POP SWAP2 POP DUP1 ISZERO DUP1 ISZERO PUSH2 0x16E3 JUMPI POP DUP3 PUSH1 0x20 ADD MLOAD DUP3 GT JUMPDEST ISZERO PUSH2 0x16F4 JUMPI PUSH1 0x0 SWAP4 POP POP POP POP PUSH2 0x1738 JUMP JUMPDEST DUP1 PUSH2 0x1718 JUMPI PUSH2 0x1710 DUP3 DUP5 PUSH1 0x20 ADD MLOAD PUSH2 0x2082 SWAP1 SWAP2 SWAP1 PUSH4 0xFFFFFFFF AND JUMP JUMPDEST SWAP4 POP DUP4 PUSH2 0x1733 JUMP JUMPDEST PUSH2 0x172F DUP3 DUP5 PUSH1 0x20 ADD MLOAD PUSH2 0x2024 SWAP1 SWAP2 SWAP1 PUSH4 0xFFFFFFFF AND JUMP JUMPDEST SWAP4 POP DUP4 JUMPDEST POP POP POP POP JUMPDEST SWAP4 SWAP3 POP POP POP JUMP JUMPDEST PUSH1 0x64 DUP2 JUMP JUMPDEST PUSH1 0x0 DUP1 PUSH1 0x3 PUSH1 0x0 SWAP1 SLOAD SWAP1 PUSH2 0x100 EXP SWAP1 DIV PUSH20 0xFFFFFFFFFFFFFFFFFFFFFFFFFFFFFFFFFFFFFFFF AND PUSH20 0xFFFFFFFFFFFFFFFFFFFFFFFFFFFFFFFFFFFFFFFF AND PUSH4 0xD04F246B PUSH1 0xB PUSH1 0x0 SWAP1 SLOAD SWAP1 PUSH2 0x100 EXP SWAP1 DIV PUSH20 0xFFFFFFFFFFFFFFFFFFFFFFFFFFFFFFFFFFFFFFFF AND PUSH1 0x40 MLOAD DUP3 PUSH4 0xFFFFFFFF AND PUSH1 0xE0 SHL DUP2 MSTORE PUSH1 0x4 ADD PUSH2 0x17C4 SWAP2 SWAP1 PUSH2 0x274D JUMP JUMPDEST PUSH1 0x20 PUSH1 0x40 MLOAD DUP1 DUP4 SUB DUP2 DUP7 GAS STATICCALL ISZERO DUP1 ISZERO PUSH2 0x17E1 JUMPI RETURNDATASIZE PUSH1 0x0 DUP1 RETURNDATACOPY RETURNDATASIZE PUSH1 0x0 REVERT JUMPDEST POP POP POP POP PUSH1 0x40 MLOAD RETURNDATASIZE PUSH1 0x1F NOT PUSH1 0x1F DUP3 ADD AND DUP3 ADD DUP1 PUSH1 0x40 MSTORE POP DUP2 ADD SWAP1 PUSH2 0x1805 SWAP2 SWAP1 PUSH2 0x32BF JUMP JUMPDEST SWAP1 POP PUSH1 0x0 DUP2 SUB PUSH2 0x1819 JUMPI PUSH1 0x1 SWAP2 POP POP PUSH2 0x1891 JUMP JUMPDEST PUSH1 0x0 PUSH2 0x1823 PUSH2 0x1936 JUMP JUMPDEST SWAP1 POP PUSH1 0x0 PUSH2 0x1832 DUP8 DUP8 DUP8 PUSH2 0x16A7 JUMP JUMPDEST SWAP1 POP DUP1 DUP3 LT ISZERO PUSH2 0x1848 JUMPI PUSH1 0x0 SWAP4 POP POP POP POP PUSH2 0x1891 JUMP JUMPDEST PUSH1 0x0 PUSH2 0x1883 DUP5 PUSH2 0x1875 PUSH2 0x2710 PUSH2 0x1867 DUP7 DUP9 PUSH2 0x2082 SWAP1 SWAP2 SWAP1 PUSH4 0xFFFFFFFF AND JUMP JUMPDEST PUSH2 0x20CC SWAP1 SWAP2 SWAP1 PUSH4 0xFFFFFFFF AND JUMP JUMPDEST PUSH2 0x2146 SWAP1 SWAP2 SWAP1 PUSH4 0xFFFFFFFF AND JUMP JUMPDEST SWAP1 POP PUSH2 0x2AF8 DUP2 GT SWAP5 POP POP POP POP POP JUMPDEST SWAP4 SWAP3 POP POP POP JUMP JUMPDEST PUSH1 0x9 PUSH1 0x0 SWAP1 SLOAD SWAP1 PUSH2 0x100 EXP SWAP1 DIV PUSH20 0xFFFFFFFFFFFFFFFFFFFFFFFFFFFFFFFFFFFFFFFF AND DUP2 JUMP JUMPDEST PUSH1 0xB PUSH1 0x0 SWAP1 SLOAD SWAP1 PUSH2 0x100 EXP SWAP1 DIV PUSH20 0xFFFFFFFFFFFFFFFFFFFFFFFFFFFFFFFFFFFFFFFF AND DUP2 JUMP JUMPDEST PUSH1 0x6 PUSH1 0x0 SWAP1 SLOAD SWAP1 PUSH2 0x100 EXP SWAP1 DIV PUSH20 0xFFFFFFFFFFFFFFFFFFFFFFFFFFFFFFFFFFFFFFFF AND DUP2 JUMP JUMPDEST PUSH1 0x7 PUSH1 0x0 SWAP1 SLOAD SWAP1 PUSH2 0x100 EXP SWAP1 DIV PUSH20 0xFFFFFFFFFFFFFFFFFFFFFFFFFFFFFFFFFFFFFFFF AND DUP2 JUMP JUMPDEST PUSH2 0x2710 DUP2 JUMP JUMPDEST PUSH1 0x0 DUP1 PUSH1 0x0 SWAP1 POP PUSH1 0x0 DUP1 JUMPDEST PUSH1 0xE DUP1 SLOAD SWAP1 POP DUP2 LT ISZERO PUSH2 0x1B27 JUMPI PUSH1 0x0 PUSH2 0x1A17 PUSH1 0x10 DUP4 DUP2 SLOAD DUP2 LT PUSH2 0x1967 JUMPI PUSH2 0x1966 PUSH2 0x35A4 JUMP JUMPDEST JUMPDEST SWAP1 PUSH1 0x0 MSTORE PUSH1 0x20 PUSH1 0x0 KECCAK256 SWAP1 PUSH1 0x2 MUL ADD PUSH1 0x0 ADD PUSH1 0x0 SWAP1 SLOAD SWAP1 PUSH2 0x100 EXP SWAP1 DIV PUSH20 0xFFFFFFFFFFFFFFFFFFFFFFFFFFFFFFFFFFFFFFFF AND PUSH1 0x10 DUP5 DUP2 SLOAD DUP2 LT PUSH2 0x19AD JUMPI PUSH2 0x19AC PUSH2 0x35A4 JUMP JUMPDEST JUMPDEST SWAP1 PUSH1 0x0 MSTORE PUSH1 0x20 PUSH1 0x0 KECCAK256 SWAP1 PUSH1 0x2 MUL ADD PUSH1 0x1 ADD PUSH1 0x0 SWAP1 SLOAD SWAP1 PUSH2 0x100 EXP SWAP1 DIV PUSH20 0xFFFFFFFFFFFFFFFFFFFFFFFFFFFFFFFFFFFFFFFF AND PUSH1 0x10 DUP6 DUP2 SLOAD DUP2 LT PUSH2 0x19F3 JUMPI PUSH2 0x19F2 PUSH2 0x35A4 JUMP JUMPDEST JUMPDEST SWAP1 PUSH1 0x0 MSTORE PUSH1 0x20 PUSH1 0x0 KECCAK256 SWAP1 PUSH1 0x2 MUL ADD PUSH1 0x1 ADD PUSH1 0x14 SWAP1 SLOAD SWAP1 PUSH2 0x100 EXP SWAP1 DIV PUSH1 0xFF AND PUSH2 0x16A7 JUMP JUMPDEST SWAP1 POP PUSH2 0x1A2C DUP2 DUP6 PUSH2 0x2024 SWAP1 SWAP2 SWAP1 PUSH4 0xFFFFFFFF AND JUMP JUMPDEST SWAP4 POP PUSH1 0x0 PUSH2 0x1AF7 PUSH1 0x10 DUP5 DUP2 SLOAD DUP2 LT PUSH2 0x1A47 JUMPI PUSH2 0x1A46 PUSH2 0x35A4 JUMP JUMPDEST JUMPDEST SWAP1 PUSH1 0x0 MSTORE PUSH1 0x20 PUSH1 0x0 KECCAK256 SWAP1 PUSH1 0x2 MUL ADD PUSH1 0x0 ADD PUSH1 0x0 SWAP1 SLOAD SWAP1 PUSH2 0x100 EXP SWAP1 DIV PUSH20 0xFFFFFFFFFFFFFFFFFFFFFFFFFFFFFFFFFFFFFFFF AND PUSH1 0x10 DUP6 DUP2 SLOAD DUP2 LT PUSH2 0x1A8D JUMPI PUSH2 0x1A8C PUSH2 0x35A4 JUMP JUMPDEST JUMPDEST SWAP1 PUSH1 0x0 MSTORE PUSH1 0x20 PUSH1 0x0 KECCAK256 SWAP1 PUSH1 0x2 MUL ADD PUSH1 0x1 ADD PUSH1 0x0 SWAP1 SLOAD SWAP1 PUSH2 0x100 EXP SWAP1 DIV PUSH20 0xFFFFFFFFFFFFFFFFFFFFFFFFFFFFFFFFFFFFFFFF AND PUSH1 0x10 DUP7 DUP2 SLOAD DUP2 LT PUSH2 0x1AD3 JUMPI PUSH2 0x1AD2 PUSH2 0x35A4 JUMP JUMPDEST JUMPDEST SWAP1 PUSH1 0x0 MSTORE PUSH1 0x20 PUSH1 0x0 KECCAK256 SWAP1 PUSH1 0x2 MUL ADD PUSH1 0x1 ADD PUSH1 0x14 SWAP1 SLOAD SWAP1 PUSH2 0x100 EXP SWAP1 DIV PUSH1 0xFF AND PUSH2 0x82E JUMP JUMPDEST SWAP1 POP PUSH2 0x1B10 DUP2 PUSH1 0x0 ADD MLOAD DUP6 PUSH2 0x2024 SWAP1 SWAP2 SWAP1 PUSH4 0xFFFFFFFF AND JUMP JUMPDEST SWAP4 POP POP POP DUP1 DUP1 PUSH2 0x1B1F SWAP1 PUSH2 0x35D3 JUMP JUMPDEST SWAP2 POP POP PUSH2 0x1941 JUMP JUMPDEST POP PUSH1 0x0 PUSH1 0x3 PUSH1 0x0 SWAP1 SLOAD SWAP1 PUSH2 0x100 EXP SWAP1 DIV PUSH20 0xFFFFFFFFFFFFFFFFFFFFFFFFFFFFFFFFFFFFFFFF AND PUSH20 0xFFFFFFFFFFFFFFFFFFFFFFFFFFFFFFFFFFFFFFFF AND PUSH4 0xDB1E4FF8 PUSH1 0xB PUSH1 0x0 SWAP1 SLOAD SWAP1 PUSH2 0x100 EXP SWAP1 DIV PUSH20 0xFFFFFFFFFFFFFFFFFFFFFFFFFFFFFFFFFFFFFFFF AND PUSH1 0x40 MLOAD DUP3 PUSH4 0xFFFFFFFF AND PUSH1 0xE0 SHL DUP2 MSTORE PUSH1 0x4 ADD PUSH2 0x1BA7 SWAP2 SWAP1 PUSH2 0x274D JUMP JUMPDEST PUSH1 0x20 PUSH1 0x40 MLOAD DUP1 DUP4 SUB DUP2 DUP7 GAS STATICCALL ISZERO DUP1 ISZERO PUSH2 0x1BC4 JUMPI RETURNDATASIZE PUSH1 0x0 DUP1 RETURNDATACOPY RETURNDATASIZE PUSH1 0x0 REVERT JUMPDEST POP POP POP POP PUSH1 0x40 MLOAD RETURNDATASIZE PUSH1 0x1F NOT PUSH1 0x1F DUP3 ADD AND DUP3 ADD DUP1 PUSH1 0x40 MSTORE POP DUP2 ADD SWAP1 PUSH2 0x1BE8 SWAP2 SWAP1 PUSH2 0x32BF JUMP JUMPDEST SWAP1 POP PUSH2 0x1C36 DUP2 PUSH2 0x1C28 PUSH2 0x1C19 PUSH2 0x2710 PUSH2 0x1C0B PUSH1 0x64 DUP9 PUSH2 0x20CC SWAP1 SWAP2 SWAP1 PUSH4 0xFFFFFFFF AND JUMP JUMPDEST PUSH2 0x2146 SWAP1 SWAP2 SWAP1 PUSH4 0xFFFFFFFF AND JUMP JUMPDEST DUP7 PUSH2 0x2082 SWAP1 SWAP2 SWAP1 PUSH4 0xFFFFFFFF AND JUMP JUMPDEST PUSH2 0x2082 SWAP1 SWAP2 SWAP1 PUSH4 0xFFFFFFFF AND JUMP JUMPDEST SWAP3 POP DUP3 SWAP4 POP POP POP POP SWAP1 JUMP JUMPDEST JUMP JUMPDEST PUSH1 0x0 DUP1 PUSH1 0x0 SWAP1 POP PUSH1 0x0 JUMPDEST PUSH1 0x10 DUP1 SLOAD SWAP1 POP DUP2 LT ISZERO PUSH2 0x1D4E JUMPI PUSH1 0x0 PUSH2 0x1D23 PUSH1 0x10 DUP4 DUP2 SLOAD DUP2 LT PUSH2 0x1C73 JUMPI PUSH2 0x1C72 PUSH2 0x35A4 JUMP JUMPDEST JUMPDEST SWAP1 PUSH1 0x0 MSTORE PUSH1 0x20 PUSH1 0x0 KECCAK256 SWAP1 PUSH1 0x2 MUL ADD PUSH1 0x0 ADD PUSH1 0x0 SWAP1 SLOAD SWAP1 PUSH2 0x100 EXP SWAP1 DIV PUSH20 0xFFFFFFFFFFFFFFFFFFFFFFFFFFFFFFFFFFFFFFFF AND PUSH1 0x10 DUP5 DUP2 SLOAD DUP2 LT PUSH2 0x1CB9 JUMPI PUSH2 0x1CB8 PUSH2 0x35A4 JUMP JUMPDEST JUMPDEST SWAP1 PUSH1 0x0 MSTORE PUSH1 0x20 PUSH1 0x0 KECCAK256 SWAP1 PUSH1 0x2 MUL ADD PUSH1 0x1 ADD PUSH1 0x0 SWAP1 SLOAD SWAP1 PUSH2 0x100 EXP SWAP1 DIV PUSH20 0xFFFFFFFFFFFFFFFFFFFFFFFFFFFFFFFFFFFFFFFF AND PUSH1 0x10 DUP6 DUP2 SLOAD DUP2 LT PUSH2 0x1CFF JUMPI PUSH2 0x1CFE PUSH2 0x35A4 JUMP JUMPDEST JUMPDEST SWAP1 PUSH1 0x0 MSTORE PUSH1 0x20 PUSH1 0x0 KECCAK256 SWAP1 PUSH1 0x2 MUL ADD PUSH1 0x1 ADD PUSH1 0x14 SWAP1 SLOAD SWAP1 PUSH2 0x100 EXP SWAP1 DIV PUSH1 0xFF AND PUSH2 0xCD8 JUMP JUMPDEST SWAP1 POP PUSH2 0x1D38 DUP2 DUP5 PUSH2 0x2024 SWAP1 SWAP2 SWAP1 PUSH4 0xFFFFFFFF AND JUMP JUMPDEST SWAP3 POP POP DUP1 DUP1 PUSH2 0x1D46 SWAP1 PUSH2 0x35D3 JUMP JUMPDEST SWAP2 POP POP PUSH2 0x1C4D JUMP JUMPDEST POP DUP1 SWAP2 POP POP SWAP1 JUMP JUMPDEST PUSH1 0x4 PUSH1 0x0 SWAP1 SLOAD SWAP1 PUSH2 0x100 EXP SWAP1 DIV PUSH20 0xFFFFFFFFFFFFFFFFFFFFFFFFFFFFFFFFFFFFFFFF AND DUP2 JUMP JUMPDEST PUSH1 0x0 DUP1 SLOAD SWAP1 PUSH2 0x100 EXP SWAP1 DIV PUSH20 0xFFFFFFFFFFFFFFFFFFFFFFFFFFFFFFFFFFFFFFFF AND DUP2 JUMP JUMPDEST PUSH1 0xE DUP2 DUP2 SLOAD DUP2 LT PUSH2 0x1DB0 JUMPI PUSH1 0x0 DUP1 REVERT JUMPDEST SWAP1 PUSH1 0x0 MSTORE PUSH1 0x20 PUSH1 0x0 KECCAK256 SWAP1 PUSH1 0x2 MUL ADD PUSH1 0x0 SWAP2 POP SWAP1 POP DUP1 PUSH1 0x0 ADD PUSH1 0x0 SWAP1 SLOAD SWAP1 PUSH2 0x100 EXP SWAP1 DIV PUSH20 0xFFFFFFFFFFFFFFFFFFFFFFFFFFFFFFFFFFFFFFFF AND SWAP1 DUP1 PUSH1 0x1 ADD PUSH1 0x0 SWAP1 SLOAD SWAP1 PUSH2 0x100 EXP SWAP1 DIV PUSH20 0xFFFFFFFFFFFFFFFFFFFFFFFFFFFFFFFFFFFFFFFF AND SWAP1 DUP1 PUSH1 0x1 ADD PUSH1 0x14 SWAP1 SLOAD SWAP1 PUSH2 0x100 EXP SWAP1 DIV PUSH1 0xFF AND SWAP1 POP DUP4 JUMP JUMPDEST PUSH1 0xF PUSH1 0x0 PUSH2 0x1E5D DUP5 DUP7 PUSH1 0x0 PUSH1 0x1 DUP2 GT ISZERO PUSH2 0x1E44 JUMPI PUSH2 0x1E43 PUSH2 0x28C2 JUMP JUMPDEST JUMPDEST DUP7 PUSH1 0x1 DUP2 GT ISZERO PUSH2 0x1E57 JUMPI PUSH2 0x1E56 PUSH2 0x28C2 JUMP JUMPDEST JUMPDEST EQ PUSH2 0xF97 JUMP JUMPDEST DUP2 MSTORE PUSH1 0x20 ADD SWAP1 DUP2 MSTORE PUSH1 0x20 ADD PUSH1 0x0 KECCAK256 PUSH1 0x0 SWAP1 SLOAD SWAP1 PUSH2 0x100 EXP SWAP1 DIV PUSH1 0xFF AND PUSH2 0x201F JUMPI PUSH1 0x10 PUSH1 0x40 MLOAD DUP1 PUSH1 0x60 ADD PUSH1 0x40 MSTORE DUP1 DUP5 PUSH20 0xFFFFFFFFFFFFFFFFFFFFFFFFFFFFFFFFFFFFFFFF AND DUP2 MSTORE PUSH1 0x20 ADD DUP6 PUSH20 0xFFFFFFFFFFFFFFFFFFFFFFFFFFFFFFFFFFFFFFFF AND DUP2 MSTORE PUSH1 0x20 ADD DUP4 PUSH1 0x1 DUP2 GT ISZERO PUSH2 0x1ED5 JUMPI PUSH2 0x1ED4 PUSH2 0x28C2 JUMP JUMPDEST JUMPDEST DUP2 MSTORE POP SWAP1 DUP1 PUSH1 0x1 DUP2 SLOAD ADD DUP1 DUP3 SSTORE DUP1 SWAP2 POP POP PUSH1 0x1 SWAP1 SUB SWAP1 PUSH1 0x0 MSTORE PUSH1 0x20 PUSH1 0x0 KECCAK256 SWAP1 PUSH1 0x2 MUL ADD PUSH1 0x0 SWAP1 SWAP2 SWAP1 SWAP2 SWAP1 SWAP2 POP PUSH1 0x0 DUP3 ADD MLOAD DUP2 PUSH1 0x0 ADD PUSH1 0x0 PUSH2 0x100 EXP DUP2 SLOAD DUP2 PUSH20 0xFFFFFFFFFFFFFFFFFFFFFFFFFFFFFFFFFFFFFFFF MUL NOT AND SWAP1 DUP4 PUSH20 0xFFFFFFFFFFFFFFFFFFFFFFFFFFFFFFFFFFFFFFFF AND MUL OR SWAP1 SSTORE POP PUSH1 0x20 DUP3 ADD MLOAD DUP2 PUSH1 0x1 ADD PUSH1 0x0 PUSH2 0x100 EXP DUP2 SLOAD DUP2 PUSH20 0xFFFFFFFFFFFFFFFFFFFFFFFFFFFFFFFFFFFFFFFF MUL NOT AND SWAP1 DUP4 PUSH20 0xFFFFFFFFFFFFFFFFFFFFFFFFFFFFFFFFFFFFFFFF AND MUL OR SWAP1 SSTORE POP PUSH1 0x40 DUP3 ADD MLOAD DUP2 PUSH1 0x1 ADD PUSH1 0x14 PUSH2 0x100 EXP DUP2 SLOAD DUP2 PUSH1 0xFF MUL NOT AND SWAP1 DUP4 PUSH1 0x1 DUP2 GT ISZERO PUSH2 0x1FBA JUMPI PUSH2 0x1FB9 PUSH2 0x28C2 JUMP JUMPDEST JUMPDEST MUL OR SWAP1 SSTORE POP POP POP PUSH1 0x1 PUSH1 0xF PUSH1 0x0 PUSH2 0x1FF9 DUP6 DUP8 PUSH1 0x0 PUSH1 0x1 DUP2 GT ISZERO PUSH2 0x1FE0 JUMPI PUSH2 0x1FDF PUSH2 0x28C2 JUMP JUMPDEST JUMPDEST DUP8 PUSH1 0x1 DUP2 GT ISZERO PUSH2 0x1FF3 JUMPI PUSH2 0x1FF2 PUSH2 0x28C2 JUMP JUMPDEST JUMPDEST EQ PUSH2 0xF97 JUMP JUMPDEST DUP2 MSTORE PUSH1 0x20 ADD SWAP1 DUP2 MSTORE PUSH1 0x20 ADD PUSH1 0x0 KECCAK256 PUSH1 0x0 PUSH2 0x100 EXP DUP2 SLOAD DUP2 PUSH1 0xFF MUL NOT AND SWAP1 DUP4 ISZERO ISZERO MUL OR SWAP1 SSTORE POP JUMPDEST POP POP POP JUMP JUMPDEST PUSH1 0x0 DUP1 DUP3 DUP5 PUSH2 0x2033 SWAP2 SWAP1 PUSH2 0x34B5 JUMP JUMPDEST SWAP1 POP DUP4 DUP2 LT ISZERO PUSH2 0x2078 JUMPI PUSH1 0x40 MLOAD PUSH32 0x8C379A000000000000000000000000000000000000000000000000000000000 DUP2 MSTORE PUSH1 0x4 ADD PUSH2 0x206F SWAP1 PUSH2 0x3667 JUMP JUMPDEST PUSH1 0x40 MLOAD DUP1 SWAP2 SUB SWAP1 REVERT JUMPDEST DUP1 SWAP2 POP POP SWAP3 SWAP2 POP POP JUMP JUMPDEST PUSH1 0x0 PUSH2 0x20C4 DUP4 DUP4 PUSH1 0x40 MLOAD DUP1 PUSH1 0x40 ADD PUSH1 0x40 MSTORE DUP1 PUSH1 0x1E DUP2 MSTORE PUSH1 0x20 ADD PUSH32 0x536166654D6174683A207375627472616374696F6E206F766572666C6F770000 DUP2 MSTORE POP PUSH2 0x2320 JUMP JUMPDEST SWAP1 POP SWAP3 SWAP2 POP POP JUMP JUMPDEST PUSH1 0x0 DUP1 DUP4 SUB PUSH2 0x20DE JUMPI PUSH1 0x0 SWAP1 POP PUSH2 0x2140 JUMP JUMPDEST PUSH1 0x0 DUP3 DUP5 PUSH2 0x20EC SWAP2 SWAP1 PUSH2 0x3687 JUMP JUMPDEST SWAP1 POP DUP3 DUP5 DUP3 PUSH2 0x20FB SWAP2 SWAP1 PUSH2 0x36F8 JUMP JUMPDEST EQ PUSH2 0x213B JUMPI PUSH1 0x40 MLOAD PUSH32 0x8C379A000000000000000000000000000000000000000000000000000000000 DUP2 MSTORE PUSH1 0x4 ADD PUSH2 0x2132 SWAP1 PUSH2 0x379B JUMP JUMPDEST PUSH1 0x40 MLOAD DUP1 SWAP2 SUB SWAP1 REVERT JUMPDEST DUP1 SWAP2 POP POP JUMPDEST SWAP3 SWAP2 POP POP JUMP JUMPDEST PUSH1 0x0 PUSH2 0x2188 DUP4 DUP4 PUSH1 0x40 MLOAD DUP1 PUSH1 0x40 ADD PUSH1 0x40 MSTORE DUP1 PUSH1 0x1A DUP2 MSTORE PUSH1 0x20 ADD PUSH32 0x536166654D6174683A206469766973696F6E206279207A65726F000000000000 DUP2 MSTORE POP PUSH2 0x2384 JUMP JUMPDEST SWAP1 POP SWAP3 SWAP2 POP POP JUMP JUMPDEST PUSH1 0x0 DUP1 PUSH1 0x0 DUP5 EQ DUP1 PUSH2 0x21A2 JUMPI POP PUSH1 0x0 DUP4 EQ JUMPDEST ISZERO PUSH2 0x21B3 JUMPI PUSH1 0x0 DUP1 SWAP2 POP SWAP2 POP PUSH2 0x2317 JUMP JUMPDEST PUSH1 0x0 PUSH1 0xA PUSH1 0x0 SWAP1 SLOAD SWAP1 PUSH2 0x100 EXP SWAP1 DIV PUSH20 0xFFFFFFFFFFFFFFFFFFFFFFFFFFFFFFFFFFFFFFFF AND PUSH20 0xFFFFFFFFFFFFFFFFFFFFFFFFFFFFFFFFFFFFFFFF AND PUSH4 0x76D69760 DUP9 PUSH1 0x0 PUSH1 0x1 DUP2 GT ISZERO PUSH2 0x2208 JUMPI PUSH2 0x2207 PUSH2 0x28C2 JUMP JUMPDEST JUMPDEST DUP10 PUSH1 0x1 DUP2 GT ISZERO PUSH2 0x221B JUMPI PUSH2 0x221A PUSH2 0x28C2 JUMP JUMPDEST JUMPDEST EQ PUSH1 0x40 MLOAD DUP4 PUSH4 0xFFFFFFFF AND PUSH1 0xE0 SHL DUP2 MSTORE PUSH1 0x4 ADD PUSH2 0x2239 SWAP3 SWAP2 SWAP1 PUSH2 0x357B JUMP JUMPDEST PUSH1 0x20 PUSH1 0x40 MLOAD DUP1 DUP4 SUB DUP2 DUP7 GAS STATICCALL ISZERO DUP1 ISZERO PUSH2 0x2256 JUMPI RETURNDATASIZE PUSH1 0x0 DUP1 RETURNDATACOPY RETURNDATASIZE PUSH1 0x0 REVERT JUMPDEST POP POP POP POP PUSH1 0x40 MLOAD RETURNDATASIZE PUSH1 0x1F NOT PUSH1 0x1F DUP3 ADD AND DUP3 ADD DUP1 PUSH1 0x40 MSTORE POP DUP2 ADD SWAP1 PUSH2 0x227A SWAP2 SWAP1 PUSH2 0x32BF JUMP JUMPDEST SWAP1 POP PUSH1 0x0 DUP2 DUP6 GT PUSH2 0x229D JUMPI PUSH2 0x2298 DUP6 DUP4 PUSH2 0x2082 SWAP1 SWAP2 SWAP1 PUSH4 0xFFFFFFFF AND JUMP JUMPDEST PUSH2 0x22B1 JUMP JUMPDEST PUSH2 0x22B0 DUP3 DUP7 PUSH2 0x2082 SWAP1 SWAP2 SWAP1 PUSH4 0xFFFFFFFF AND JUMP JUMPDEST JUMPDEST SWAP1 POP PUSH2 0x22D8 DUP6 PUSH2 0x22CA DUP4 DUP10 PUSH2 0x20CC SWAP1 SWAP2 SWAP1 PUSH4 0xFFFFFFFF AND JUMP JUMPDEST PUSH2 0x2146 SWAP1 SWAP2 SWAP1 PUSH4 0xFFFFFFFF AND JUMP JUMPDEST SWAP4 POP PUSH1 0x0 PUSH1 0x1 DUP2 GT ISZERO PUSH2 0x22EE JUMPI PUSH2 0x22ED PUSH2 0x28C2 JUMP JUMPDEST JUMPDEST DUP8 PUSH1 0x1 DUP2 GT ISZERO PUSH2 0x2301 JUMPI PUSH2 0x2300 PUSH2 0x28C2 JUMP JUMPDEST JUMPDEST EQ PUSH2 0x230E JUMPI DUP2 DUP6 GT PUSH2 0x2312 JUMP JUMPDEST DUP5 DUP3 GT JUMPDEST SWAP3 POP POP POP JUMPDEST SWAP5 POP SWAP5 SWAP3 POP POP POP JUMP JUMPDEST PUSH1 0x0 DUP4 DUP4 GT ISZERO DUP3 SWAP1 PUSH2 0x2368 JUMPI PUSH1 0x40 MLOAD PUSH32 0x8C379A000000000000000000000000000000000000000000000000000000000 DUP2 MSTORE PUSH1 0x4 ADD PUSH2 0x235F SWAP2 SWAP1 PUSH2 0x37FF JUMP JUMPDEST PUSH1 0x40 MLOAD DUP1 SWAP2 SUB SWAP1 REVERT JUMPDEST POP PUSH1 0x0 DUP4 DUP6 PUSH2 0x2377 SWAP2 SWAP1 PUSH2 0x3821 JUMP JUMPDEST SWAP1 POP DUP1 SWAP2 POP POP SWAP4 SWAP3 POP POP POP JUMP JUMPDEST PUSH1 0x0 DUP1 DUP4 GT DUP3 SWAP1 PUSH2 0x23CB JUMPI PUSH1 0x40 MLOAD PUSH32 0x8C379A000000000000000000000000000000000000000000000000000000000 DUP2 MSTORE PUSH1 0x4 ADD PUSH2 0x23C2 SWAP2 SWAP1 PUSH2 0x37FF JUMP JUMPDEST PUSH1 0x40 MLOAD DUP1 SWAP2 SUB SWAP1 REVERT JUMPDEST POP PUSH1 0x0 DUP4 DUP6 PUSH2 0x23DA SWAP2 SWAP1 PUSH2 0x36F8 JUMP JUMPDEST SWAP1 POP DUP1 SWAP2 POP POP SWAP4 SWAP3 POP POP POP JUMP JUMPDEST PUSH1 0x40 MLOAD DUP1 PUSH1 0xA0 ADD PUSH1 0x40 MSTORE DUP1 PUSH1 0x0 DUP2 MSTORE PUSH1 0x20 ADD PUSH1 0x0 DUP2 MSTORE PUSH1 0x20 ADD PUSH1 0x0 DUP2 MSTORE PUSH1 0x20 ADD PUSH1 0x0 DUP2 MSTORE PUSH1 0x20 ADD PUSH1 0x0 DUP2 MSTORE POP SWAP1 JUMP JUMPDEST PUSH1 0x0 PUSH1 0x40 MLOAD SWAP1 POP SWAP1 JUMP JUMPDEST PUSH1 0x0 DUP1 REVERT JUMPDEST PUSH1 0x0 PUSH20 0xFFFFFFFFFFFFFFFFFFFFFFFFFFFFFFFFFFFFFFFF DUP3 AND SWAP1 POP SWAP2 SWAP1 POP JUMP JUMPDEST PUSH1 0x0 PUSH2 0x2450 DUP3 PUSH2 0x2425 JUMP JUMPDEST SWAP1 POP SWAP2 SWAP1 POP JUMP JUMPDEST PUSH2 0x2460 DUP2 PUSH2 0x2445 JUMP JUMPDEST DUP2 EQ PUSH2 0x246B JUMPI PUSH1 0x0 DUP1 REVERT JUMPDEST POP JUMP JUMPDEST PUSH1 0x0 DUP2 CALLDATALOAD SWAP1 POP PUSH2 0x247D DUP2 PUSH2 0x2457 JUMP JUMPDEST SWAP3 SWAP2 POP POP JUMP JUMPDEST PUSH1 0x2 DUP2 LT PUSH2 0x2490 JUMPI PUSH1 0x0 DUP1 REVERT JUMPDEST POP JUMP JUMPDEST PUSH1 0x0 DUP2 CALLDATALOAD SWAP1 POP PUSH2 0x24A2 DUP2 PUSH2 0x2483 JUMP JUMPDEST SWAP3 SWAP2 POP POP JUMP JUMPDEST PUSH1 0x0 DUP1 PUSH1 0x0 PUSH1 0x60 DUP5 DUP7 SUB SLT ISZERO PUSH2 0x24C1 JUMPI PUSH2 0x24C0 PUSH2 0x2420 JUMP JUMPDEST JUMPDEST PUSH1 0x0 PUSH2 0x24CF DUP7 DUP3 DUP8 ADD PUSH2 0x246E JUMP JUMPDEST SWAP4 POP POP PUSH1 0x20 PUSH2 0x24E0 DUP7 DUP3 DUP8 ADD PUSH2 0x246E JUMP JUMPDEST SWAP3 POP POP PUSH1 0x40 PUSH2 0x24F1 DUP7 DUP3 DUP8 ADD PUSH2 0x2493 JUMP JUMPDEST SWAP2 POP POP SWAP3 POP SWAP3 POP SWAP3 JUMP JUMPDEST PUSH1 0x0 DUP2 SWAP1 POP SWAP2 SWAP1 POP JUMP JUMPDEST PUSH2 0x250E DUP2 PUSH2 0x24FB JUMP JUMPDEST DUP3 MSTORE POP POP JUMP JUMPDEST PUSH1 0xA0 DUP3 ADD PUSH1 0x0 DUP3 ADD MLOAD PUSH2 0x252A PUSH1 0x0 DUP6 ADD DUP3 PUSH2 0x2505 JUMP JUMPDEST POP PUSH1 0x20 DUP3 ADD MLOAD PUSH2 0x253D PUSH1 0x20 DUP6 ADD DUP3 PUSH2 0x2505 JUMP JUMPDEST POP PUSH1 0x40 DUP3 ADD MLOAD PUSH2 0x2550 PUSH1 0x40 DUP6 ADD DUP3 PUSH2 0x2505 JUMP JUMPDEST POP PUSH1 0x60 DUP3 ADD MLOAD PUSH2 0x2563 PUSH1 0x60 DUP6 ADD DUP3 PUSH2 0x2505 JUMP JUMPDEST POP PUSH1 0x80 DUP3 ADD MLOAD PUSH2 0x2576 PUSH1 0x80 DUP6 ADD DUP3 PUSH2 0x2505 JUMP JUMPDEST POP POP POP POP JUMP JUMPDEST PUSH1 0x0 PUSH1 0xA0 DUP3 ADD SWAP1 POP PUSH2 0x2591 PUSH1 0x0 DUP4 ADD DUP5 PUSH2 0x2514 JUMP JUMPDEST SWAP3 SWAP2 POP POP JUMP JUMPDEST PUSH2 0x25A0 DUP2 PUSH2 0x24FB JUMP JUMPDEST DUP3 MSTORE POP POP JUMP JUMPDEST PUSH1 0x0 PUSH1 0x20 DUP3 ADD SWAP1 POP PUSH2 0x25BB PUSH1 0x0 DUP4 ADD DUP5 PUSH2 0x2597 JUMP JUMPDEST SWAP3 SWAP2 POP POP JUMP JUMPDEST PUSH1 0x0 DUP1 PUSH1 0x0 DUP1 PUSH1 0x80 DUP6 DUP8 SUB SLT ISZERO PUSH2 0x25DB JUMPI PUSH2 0x25DA PUSH2 0x2420 JUMP JUMPDEST JUMPDEST PUSH1 0x0 PUSH2 0x25E9 DUP8 DUP3 DUP9 ADD PUSH2 0x246E JUMP JUMPDEST SWAP5 POP POP PUSH1 0x20 PUSH2 0x25FA DUP8 DUP3 DUP9 ADD PUSH2 0x246E JUMP JUMPDEST SWAP4 POP POP PUSH1 0x40 PUSH2 0x260B DUP8 DUP3 DUP9 ADD PUSH2 0x246E JUMP JUMPDEST SWAP3 POP POP PUSH1 0x60 PUSH2 0x261C DUP8 DUP3 DUP9 ADD PUSH2 0x2493 JUMP JUMPDEST SWAP2 POP POP SWAP3 SWAP6 SWAP2 SWAP5 POP SWAP3 POP JUMP JUMPDEST PUSH1 0x0 DUP2 SWAP1 POP SWAP2 SWAP1 POP JUMP JUMPDEST PUSH2 0x263B DUP2 PUSH2 0x2628 JUMP JUMPDEST DUP3 MSTORE POP POP JUMP JUMPDEST PUSH1 0x0 PUSH1 0x20 DUP3 ADD SWAP1 POP PUSH2 0x2656 PUSH1 0x0 DUP4 ADD DUP5 PUSH2 0x2632 JUMP JUMPDEST SWAP3 SWAP2 POP POP JUMP JUMPDEST PUSH2 0x2665 DUP2 PUSH2 0x24FB JUMP JUMPDEST DUP2 EQ PUSH2 0x2670 JUMPI PUSH1 0x0 DUP1 REVERT JUMPDEST POP JUMP JUMPDEST PUSH1 0x0 DUP2 CALLDATALOAD SWAP1 POP PUSH2 0x2682 DUP2 PUSH2 0x265C JUMP JUMPDEST SWAP3 SWAP2 POP POP JUMP JUMPDEST PUSH1 0x0 DUP1 PUSH1 0x0 DUP1 PUSH1 0x0 DUP1 PUSH1 0x0 DUP1 PUSH2 0x100 DUP10 DUP12 SUB SLT ISZERO PUSH2 0x26A9 JUMPI PUSH2 0x26A8 PUSH2 0x2420 JUMP JUMPDEST JUMPDEST PUSH1 0x0 PUSH2 0x26B7 DUP12 DUP3 DUP13 ADD PUSH2 0x2493 JUMP JUMPDEST SWAP9 POP POP PUSH1 0x20 PUSH2 0x26C8 DUP12 DUP3 DUP13 ADD PUSH2 0x246E JUMP JUMPDEST SWAP8 POP POP PUSH1 0x40 PUSH2 0x26D9 DUP12 DUP3 DUP13 ADD PUSH2 0x246E JUMP JUMPDEST SWAP7 POP POP PUSH1 0x60 PUSH2 0x26EA DUP12 DUP3 DUP13 ADD PUSH2 0x2673 JUMP JUMPDEST SWAP6 POP POP PUSH1 0x80 PUSH2 0x26FB DUP12 DUP3 DUP13 ADD PUSH2 0x246E JUMP JUMPDEST SWAP5 POP POP PUSH1 0xA0 PUSH2 0x270C DUP12 DUP3 DUP13 ADD PUSH2 0x2673 JUMP JUMPDEST SWAP4 POP POP PUSH1 0xC0 PUSH2 0x271D DUP12 DUP3 DUP13 ADD PUSH2 0x2673 JUMP JUMPDEST SWAP3 POP POP PUSH1 0xE0 PUSH2 0x272E DUP12 DUP3 DUP13 ADD PUSH2 0x2673 JUMP JUMPDEST SWAP2 POP POP SWAP3 SWAP6 SWAP9 POP SWAP3 SWAP6 SWAP9 SWAP1 SWAP4 SWAP7 POP JUMP JUMPDEST PUSH2 0x2747 DUP2 PUSH2 0x2445 JUMP JUMPDEST DUP3 MSTORE POP POP JUMP JUMPDEST PUSH1 0x0 PUSH1 0x20 DUP3 ADD SWAP1 POP PUSH2 0x2762 PUSH1 0x0 DUP4 ADD DUP5 PUSH2 0x273E JUMP JUMPDEST SWAP3 SWAP2 POP POP JUMP JUMPDEST PUSH1 0x0 DUP1 PUSH1 0x0 DUP1 PUSH1 0x0 DUP1 PUSH1 0x0 PUSH1 0xE0 DUP9 DUP11 SUB SLT ISZERO PUSH2 0x2787 JUMPI PUSH2 0x2786 PUSH2 0x2420 JUMP JUMPDEST JUMPDEST PUSH1 0x0 PUSH2 0x2795 DUP11 DUP3 DUP12 ADD PUSH2 0x2493 JUMP JUMPDEST SWAP8 POP POP PUSH1 0x20 PUSH2 0x27A6 DUP11 DUP3 DUP12 ADD PUSH2 0x246E JUMP JUMPDEST SWAP7 POP POP PUSH1 0x40 PUSH2 0x27B7 DUP11 DUP3 DUP12 ADD PUSH2 0x246E JUMP JUMPDEST SWAP6 POP POP PUSH1 0x60 PUSH2 0x27C8 DUP11 DUP3 DUP12 ADD PUSH2 0x2673 JUMP JUMPDEST SWAP5 POP POP PUSH1 0x80 PUSH2 0x27D9 DUP11 DUP3 DUP12 ADD PUSH2 0x246E JUMP JUMPDEST SWAP4 POP POP PUSH1 0xA0 PUSH2 0x27EA DUP11 DUP3 DUP12 ADD PUSH2 0x2673 JUMP JUMPDEST SWAP3 POP POP PUSH1 0xC0 PUSH2 0x27FB DUP11 DUP3 DUP12 ADD PUSH2 0x2673 JUMP JUMPDEST SWAP2 POP POP SWAP3 SWAP6 SWAP9 SWAP2 SWAP5 SWAP8 POP SWAP3 SWAP6 POP JUMP JUMPDEST PUSH1 0x0 DUP2 ISZERO ISZERO SWAP1 POP SWAP2 SWAP1 POP JUMP JUMPDEST PUSH2 0x281F DUP2 PUSH2 0x280A JUMP JUMPDEST DUP2 EQ PUSH2 0x282A JUMPI PUSH1 0x0 DUP1 REVERT JUMPDEST POP JUMP JUMPDEST PUSH1 0x0 DUP2 CALLDATALOAD SWAP1 POP PUSH2 0x283C DUP2 PUSH2 0x2816 JUMP JUMPDEST SWAP3 SWAP2 POP POP JUMP JUMPDEST PUSH1 0x0 DUP1 PUSH1 0x0 PUSH1 0x60 DUP5 DUP7 SUB SLT ISZERO PUSH2 0x285B JUMPI PUSH2 0x285A PUSH2 0x2420 JUMP JUMPDEST JUMPDEST PUSH1 0x0 PUSH2 0x2869 DUP7 DUP3 DUP8 ADD PUSH2 0x246E JUMP JUMPDEST SWAP4 POP POP PUSH1 0x20 PUSH2 0x287A DUP7 DUP3 DUP8 ADD PUSH2 0x246E JUMP JUMPDEST SWAP3 POP POP PUSH1 0x40 PUSH2 0x288B DUP7 DUP3 DUP8 ADD PUSH2 0x282D JUMP JUMPDEST SWAP2 POP POP SWAP3 POP SWAP3 POP SWAP3 JUMP JUMPDEST PUSH1 0x0 PUSH1 0x20 DUP3 DUP5 SUB SLT ISZERO PUSH2 0x28AB JUMPI PUSH2 0x28AA PUSH2 0x2420 JUMP JUMPDEST JUMPDEST PUSH1 0x0 PUSH2 0x28B9 DUP5 DUP3 DUP6 ADD PUSH2 0x2673 JUMP JUMPDEST SWAP2 POP POP SWAP3 SWAP2 POP POP JUMP JUMPDEST PUSH32 0x4E487B7100000000000000000000000000000000000000000000000000000000 PUSH1 0x0 MSTORE PUSH1 0x21 PUSH1 0x4 MSTORE PUSH1 0x24 PUSH1 0x0 REVERT JUMPDEST PUSH1 0x2 DUP2 LT PUSH2 0x2902 JUMPI PUSH2 0x2901 PUSH2 0x28C2 JUMP JUMPDEST JUMPDEST POP JUMP JUMPDEST PUSH1 0x0 DUP2 SWAP1 POP PUSH2 0x2913 DUP3 PUSH2 0x28F1 JUMP JUMPDEST SWAP2 SWAP1 POP JUMP JUMPDEST PUSH1 0x0 PUSH2 0x2923 DUP3 PUSH2 0x2905 JUMP JUMPDEST SWAP1 POP SWAP2 SWAP1 POP JUMP JUMPDEST PUSH2 0x2933 DUP2 PUSH2 0x2918 JUMP JUMPDEST DUP3 MSTORE POP POP JUMP JUMPDEST PUSH1 0x0 PUSH1 0x60 DUP3 ADD SWAP1 POP PUSH2 0x294E PUSH1 0x0 DUP4 ADD DUP7 PUSH2 0x273E JUMP JUMPDEST PUSH2 0x295B PUSH1 0x20 DUP4 ADD DUP6 PUSH2 0x273E JUMP JUMPDEST PUSH2 0x2968 PUSH1 0x40 DUP4 ADD DUP5 PUSH2 0x292A JUMP JUMPDEST SWAP5 SWAP4 POP POP POP POP JUMP JUMPDEST PUSH1 0x0 DUP1 REVERT JUMPDEST PUSH1 0x0 PUSH1 0x1F NOT PUSH1 0x1F DUP4 ADD AND SWAP1 POP SWAP2 SWAP1 POP JUMP JUMPDEST PUSH32 0x4E487B7100000000000000000000000000000000000000000000000000000000 PUSH1 0x0 MSTORE PUSH1 0x41 PUSH1 0x4 MSTORE PUSH1 0x24 PUSH1 0x0 REVERT JUMPDEST PUSH2 0x29BE DUP3 PUSH2 0x2975 JUMP JUMPDEST DUP2 ADD DUP2 DUP2 LT PUSH8 0xFFFFFFFFFFFFFFFF DUP3 GT OR ISZERO PUSH2 0x29DD JUMPI PUSH2 0x29DC PUSH2 0x2986 JUMP JUMPDEST JUMPDEST DUP1 PUSH1 0x40 MSTORE POP POP POP JUMP JUMPDEST PUSH1 0x0 PUSH2 0x29F0 PUSH2 0x2416 JUMP JUMPDEST SWAP1 POP PUSH2 0x29FC DUP3 DUP3 PUSH2 0x29B5 JUMP JUMPDEST SWAP2 SWAP1 POP JUMP JUMPDEST PUSH1 0x0 PUSH1 0xA0 DUP3 DUP5 SUB SLT ISZERO PUSH2 0x2A17 JUMPI PUSH2 0x2A16 PUSH2 0x2970 JUMP JUMPDEST JUMPDEST PUSH2 0x2A21 PUSH1 0xA0 PUSH2 0x29E6 JUMP JUMPDEST SWAP1 POP PUSH1 0x0 PUSH2 0x2A31 DUP5 DUP3 DUP6 ADD PUSH2 0x2673 JUMP JUMPDEST PUSH1 0x0 DUP4 ADD MSTORE POP PUSH1 0x20 PUSH2 0x2A45 DUP5 DUP3 DUP6 ADD PUSH2 0x2673 JUMP JUMPDEST PUSH1 0x20 DUP4 ADD MSTORE POP PUSH1 0x40 PUSH2 0x2A59 DUP5 DUP3 DUP6 ADD PUSH2 0x2673 JUMP JUMPDEST PUSH1 0x40 DUP4 ADD MSTORE POP PUSH1 0x60 PUSH2 0x2A6D DUP5 DUP3 DUP6 ADD PUSH2 0x2673 JUMP JUMPDEST PUSH1 0x60 DUP4 ADD MSTORE POP PUSH1 0x80 PUSH2 0x2A81 DUP5 DUP3 DUP6 ADD PUSH2 0x2673 JUMP JUMPDEST PUSH1 0x80 DUP4 ADD MSTORE POP SWAP3 SWAP2 POP POP JUMP JUMPDEST PUSH1 0x0 DUP1 PUSH1 0x0 PUSH1 0xE0 DUP5 DUP7 SUB SLT ISZERO PUSH2 0x2AA6 JUMPI PUSH2 0x2AA5 PUSH2 0x2420 JUMP JUMPDEST JUMPDEST PUSH1 0x0 PUSH2 0x2AB4 DUP7 DUP3 DUP8 ADD PUSH2 0x2A01 JUMP JUMPDEST SWAP4 POP POP PUSH1 0xA0 PUSH2 0x2AC5 DUP7 DUP3 DUP8 ADD PUSH2 0x246E JUMP JUMPDEST SWAP3 POP POP PUSH1 0xC0 PUSH2 0x2AD6 DUP7 DUP3 DUP8 ADD PUSH2 0x2673 JUMP JUMPDEST SWAP2 POP POP SWAP3 POP SWAP3 POP SWAP3 JUMP JUMPDEST PUSH1 0x0 DUP1 PUSH1 0x0 DUP1 PUSH1 0x80 DUP6 DUP8 SUB SLT ISZERO PUSH2 0x2AFA JUMPI PUSH2 0x2AF9 PUSH2 0x2420 JUMP JUMPDEST JUMPDEST PUSH1 0x0 PUSH2 0x2B08 DUP8 DUP3 DUP9 ADD PUSH2 0x246E JUMP JUMPDEST SWAP5 POP POP PUSH1 0x20 PUSH2 0x2B19 DUP8 DUP3 DUP9 ADD PUSH2 0x2493 JUMP JUMPDEST SWAP4 POP POP PUSH1 0x40 PUSH2 0x2B2A DUP8 DUP3 DUP9 ADD PUSH2 0x2673 JUMP JUMPDEST SWAP3 POP POP PUSH1 0x60 PUSH2 0x2B3B DUP8 DUP3 DUP9 ADD PUSH2 0x2673 JUMP JUMPDEST SWAP2 POP POP SWAP3 SWAP6 SWAP2 SWAP5 POP SWAP3 POP JUMP JUMPDEST PUSH2 0x2B50 DUP2 PUSH2 0x280A JUMP JUMPDEST DUP3 MSTORE POP POP JUMP JUMPDEST PUSH1 0x0 PUSH1 0x40 DUP3 ADD SWAP1 POP PUSH2 0x2B6B PUSH1 0x0 DUP4 ADD DUP6 PUSH2 0x2597 JUMP JUMPDEST PUSH2 0x2B78 PUSH1 0x20 DUP4 ADD DUP5 PUSH2 0x2B47 JUMP JUMPDEST SWAP4 SWAP3 POP POP POP JUMP JUMPDEST PUSH1 0x0 PUSH1 0x20 DUP3 ADD SWAP1 POP PUSH2 0x2B94 PUSH1 0x0 DUP4 ADD DUP5 PUSH2 0x2B47 JUMP JUMPDEST SWAP3 SWAP2 POP POP JUMP JUMPDEST PUSH1 0x0 PUSH1 0x60 DUP3 ADD SWAP1 POP PUSH2 0x2BAF PUSH1 0x0 DUP4 ADD DUP7 PUSH2 0x273E JUMP JUMPDEST PUSH2 0x2BBC PUSH1 0x20 DUP4 ADD DUP6 PUSH2 0x273E JUMP JUMPDEST PUSH2 0x2BC9 PUSH1 0x40 DUP4 ADD DUP5 PUSH2 0x2B47 JUMP JUMPDEST SWAP5 SWAP4 POP POP POP POP JUMP JUMPDEST PUSH1 0x0 DUP2 MLOAD SWAP1 POP PUSH2 0x2BE0 DUP2 PUSH2 0x265C JUMP JUMPDEST SWAP3 SWAP2 POP POP JUMP JUMPDEST PUSH1 0x0 PUSH1 0xA0 DUP3 DUP5 SUB SLT ISZERO PUSH2 0x2BFC JUMPI PUSH2 0x2BFB PUSH2 0x2970 JUMP JUMPDEST JUMPDEST PUSH2 0x2C06 PUSH1 0xA0 PUSH2 0x29E6 JUMP JUMPDEST SWAP1 POP PUSH1 0x0 PUSH2 0x2C16 DUP5 DUP3 DUP6 ADD PUSH2 0x2BD1 JUMP JUMPDEST PUSH1 0x0 DUP4 ADD MSTORE POP PUSH1 0x20 PUSH2 0x2C2A DUP5 DUP3 DUP6 ADD PUSH2 0x2BD1 JUMP JUMPDEST PUSH1 0x20 DUP4 ADD MSTORE POP PUSH1 0x40 PUSH2 0x2C3E DUP5 DUP3 DUP6 ADD PUSH2 0x2BD1 JUMP JUMPDEST PUSH1 0x40 DUP4 ADD MSTORE POP PUSH1 0x60 PUSH2 0x2C52 DUP5 DUP3 DUP6 ADD PUSH2 0x2BD1 JUMP JUMPDEST PUSH1 0x60 DUP4 ADD MSTORE POP PUSH1 0x80 PUSH2 0x2C66 DUP5 DUP3 DUP6 ADD PUSH2 0x2BD1 JUMP JUMPDEST PUSH1 0x80 DUP4 ADD MSTORE POP SWAP3 SWAP2 POP POP JUMP JUMPDEST PUSH1 0x0 PUSH1 0xA0 DUP3 DUP5 SUB SLT ISZERO PUSH2 0x2C88 JUMPI PUSH2 0x2C87 PUSH2 0x2420 JUMP JUMPDEST JUMPDEST PUSH1 0x0 PUSH2 0x2C96 DUP5 DUP3 DUP6 ADD PUSH2 0x2BE6 JUMP JUMPDEST SWAP2 POP POP SWAP3 SWAP2 POP POP JUMP JUMPDEST PUSH1 0x0 PUSH1 0x80 DUP3 ADD SWAP1 POP PUSH2 0x2CB4 PUSH1 0x0 DUP4 ADD DUP8 PUSH2 0x273E JUMP JUMPDEST PUSH2 0x2CC1 PUSH1 0x20 DUP4 ADD DUP7 PUSH2 0x273E JUMP JUMPDEST PUSH2 0x2CCE PUSH1 0x40 DUP4 ADD DUP6 PUSH2 0x273E JUMP JUMPDEST PUSH2 0x2CDB PUSH1 0x60 DUP4 ADD DUP5 PUSH2 0x292A JUMP JUMPDEST SWAP6 SWAP5 POP POP POP POP POP JUMP JUMPDEST PUSH1 0x0 DUP3 DUP3 MSTORE PUSH1 0x20 DUP3 ADD SWAP1 POP SWAP3 SWAP2 POP POP JUMP JUMPDEST PUSH32 0x6F6E6C7920746865206F776E65722063616E2063616C6C20746869732066756E PUSH1 0x0 DUP3 ADD MSTORE PUSH32 0x6374696F6E000000000000000000000000000000000000000000000000000000 PUSH1 0x20 DUP3 ADD MSTORE POP JUMP JUMPDEST PUSH1 0x0 PUSH2 0x2D51 PUSH1 0x25 DUP4 PUSH2 0x2CE4 JUMP JUMPDEST SWAP2 POP PUSH2 0x2D5C DUP3 PUSH2 0x2CF5 JUMP JUMPDEST PUSH1 0x40 DUP3 ADD SWAP1 POP SWAP2 SWAP1 POP JUMP JUMPDEST PUSH1 0x0 PUSH1 0x20 DUP3 ADD SWAP1 POP DUP2 DUP2 SUB PUSH1 0x0 DUP4 ADD MSTORE PUSH2 0x2D80 DUP2 PUSH2 0x2D44 JUMP JUMPDEST SWAP1 POP SWAP2 SWAP1 POP JUMP JUMPDEST PUSH1 0x0 PUSH1 0x60 DUP3 ADD SWAP1 POP PUSH2 0x2D9C PUSH1 0x0 DUP4 ADD DUP7 PUSH2 0x273E JUMP JUMPDEST PUSH2 0x2DA9 PUSH1 0x20 DUP4 ADD DUP6 PUSH2 0x273E JUMP JUMPDEST PUSH2 0x2DB6 PUSH1 0x40 DUP4 ADD DUP5 PUSH2 0x2597 JUMP JUMPDEST SWAP5 SWAP4 POP POP POP POP JUMP JUMPDEST PUSH1 0x0 DUP2 MLOAD SWAP1 POP PUSH2 0x2DCD DUP2 PUSH2 0x2816 JUMP JUMPDEST SWAP3 SWAP2 POP POP JUMP JUMPDEST PUSH1 0x0 PUSH1 0x20 DUP3 DUP5 SUB SLT ISZERO PUSH2 0x2DE9 JUMPI PUSH2 0x2DE8 PUSH2 0x2420 JUMP JUMPDEST JUMPDEST PUSH1 0x0 PUSH2 0x2DF7 DUP5 DUP3 DUP6 ADD PUSH2 0x2DBE JUMP JUMPDEST SWAP2 POP POP SWAP3 SWAP2 POP POP JUMP JUMPDEST PUSH32 0x6661696C656420746F207472616E7366657220696E20636F6C6C61746572616C PUSH1 0x0 DUP3 ADD MSTORE POP JUMP JUMPDEST PUSH1 0x0 PUSH2 0x2E36 PUSH1 0x20 DUP4 PUSH2 0x2CE4 JUMP JUMPDEST SWAP2 POP PUSH2 0x2E41 DUP3 PUSH2 0x2E00 JUMP JUMPDEST PUSH1 0x20 DUP3 ADD SWAP1 POP SWAP2 SWAP1 POP JUMP JUMPDEST PUSH1 0x0 PUSH1 0x20 DUP3 ADD SWAP1 POP DUP2 DUP2 SUB PUSH1 0x0 DUP4 ADD MSTORE PUSH2 0x2E65 DUP2 PUSH2 0x2E29 JUMP JUMPDEST SWAP1 POP SWAP2 SWAP1 POP JUMP JUMPDEST PUSH1 0x0 PUSH1 0x40 DUP3 ADD SWAP1 POP PUSH2 0x2E81 PUSH1 0x0 DUP4 ADD DUP6 PUSH2 0x273E JUMP JUMPDEST PUSH2 0x2E8E PUSH1 0x20 DUP4 ADD DUP5 PUSH2 0x2597 JUMP JUMPDEST SWAP4 SWAP3 POP POP POP JUMP JUMPDEST PUSH32 0x6661696C656420746F20617070726F766520636F6C6C61746572616C20747261 PUSH1 0x0 DUP3 ADD MSTORE PUSH32 0x6E73666572000000000000000000000000000000000000000000000000000000 PUSH1 0x20 DUP3 ADD MSTORE POP JUMP JUMPDEST PUSH1 0x0 PUSH2 0x2EF1 PUSH1 0x25 DUP4 PUSH2 0x2CE4 JUMP JUMPDEST SWAP2 POP PUSH2 0x2EFC DUP3 PUSH2 0x2E95 JUMP JUMPDEST PUSH1 0x40 DUP3 ADD SWAP1 POP SWAP2 SWAP1 POP JUMP JUMPDEST PUSH1 0x0 PUSH1 0x20 DUP3 ADD SWAP1 POP DUP2 DUP2 SUB PUSH1 0x0 DUP4 ADD MSTORE PUSH2 0x2F20 DUP2 PUSH2 0x2EE4 JUMP JUMPDEST SWAP1 POP SWAP2 SWAP1 POP JUMP JUMPDEST PUSH1 0x0 DUP2 MLOAD SWAP1 POP SWAP2 SWAP1 POP JUMP JUMPDEST PUSH1 0x0 DUP3 DUP3 MSTORE PUSH1 0x20 DUP3 ADD SWAP1 POP SWAP3 SWAP2 POP POP JUMP JUMPDEST PUSH1 0x0 JUMPDEST DUP4 DUP2 LT ISZERO PUSH2 0x2F61 JUMPI DUP1 DUP3 ADD MLOAD DUP2 DUP5 ADD MSTORE PUSH1 0x20 DUP2 ADD SWAP1 POP PUSH2 0x2F46 JUMP JUMPDEST PUSH1 0x0 DUP5 DUP5 ADD MSTORE POP POP POP POP JUMP JUMPDEST PUSH1 0x0 PUSH2 0x2F78 DUP3 PUSH2 0x2F27 JUMP JUMPDEST PUSH2 0x2F82 DUP2 DUP6 PUSH2 0x2F32 JUMP JUMPDEST SWAP4 POP PUSH2 0x2F92 DUP2 DUP6 PUSH1 0x20 DUP7 ADD PUSH2 0x2F43 JUMP JUMPDEST PUSH2 0x2F9B DUP2 PUSH2 0x2975 JUMP JUMPDEST DUP5 ADD SWAP2 POP POP SWAP3 SWAP2 POP POP JUMP JUMPDEST PUSH1 0x0 PUSH1 0xC0 DUP3 ADD SWAP1 POP PUSH2 0x2FBB PUSH1 0x0 DUP4 ADD DUP10 PUSH2 0x2597 JUMP JUMPDEST PUSH2 0x2FC8 PUSH1 0x20 DUP4 ADD DUP9 PUSH2 0x273E JUMP JUMPDEST PUSH2 0x2FD5 PUSH1 0x40 DUP4 ADD DUP8 PUSH2 0x2597 JUMP JUMPDEST PUSH2 0x2FE2 PUSH1 0x60 DUP4 ADD DUP7 PUSH2 0x2597 JUMP JUMPDEST PUSH2 0x2FEF PUSH1 0x80 DUP4 ADD DUP6 PUSH2 0x2597 JUMP JUMPDEST DUP2 DUP2 SUB PUSH1 0xA0 DUP4 ADD MSTORE PUSH2 0x3001 DUP2 DUP5 PUSH2 0x2F6D JUMP JUMPDEST SWAP1 POP SWAP8 SWAP7 POP POP POP POP POP POP POP JUMP JUMPDEST PUSH1 0x2 DUP2 LT PUSH2 0x301F JUMPI PUSH2 0x301E PUSH2 0x28C2 JUMP JUMPDEST JUMPDEST POP JUMP JUMPDEST PUSH1 0x0 DUP2 SWAP1 POP PUSH2 0x3030 DUP3 PUSH2 0x300E JUMP JUMPDEST SWAP2 SWAP1 POP JUMP JUMPDEST PUSH1 0x0 PUSH2 0x3040 DUP3 PUSH2 0x3022 JUMP JUMPDEST SWAP1 POP SWAP2 SWAP1 POP JUMP JUMPDEST PUSH2 0x3050 DUP2 PUSH2 0x3035 JUMP JUMPDEST DUP3 MSTORE POP POP JUMP JUMPDEST PUSH1 0x2 DUP2 LT PUSH2 0x3067 JUMPI PUSH2 0x3066 PUSH2 0x28C2 JUMP JUMPDEST JUMPDEST POP JUMP JUMPDEST PUSH1 0x0 DUP2 SWAP1 POP PUSH2 0x3078 DUP3 PUSH2 0x3056 JUMP JUMPDEST SWAP2 SWAP1 POP JUMP JUMPDEST PUSH1 0x0 PUSH2 0x3088 DUP3 PUSH2 0x306A JUMP JUMPDEST SWAP1 POP SWAP2 SWAP1 POP JUMP JUMPDEST PUSH2 0x3098 DUP2 PUSH2 0x307D JUMP JUMPDEST DUP3 MSTORE POP POP JUMP JUMPDEST PUSH1 0x0 PUSH1 0xC0 DUP3 ADD SWAP1 POP PUSH2 0x30B3 PUSH1 0x0 DUP4 ADD DUP10 PUSH2 0x3047 JUMP JUMPDEST PUSH2 0x30C0 PUSH1 0x20 DUP4 ADD DUP9 PUSH2 0x292A JUMP JUMPDEST PUSH2 0x30CD PUSH1 0x40 DUP4 ADD DUP8 PUSH2 0x273E JUMP JUMPDEST PUSH2 0x30DA PUSH1 0x60 DUP4 ADD DUP7 PUSH2 0x273E JUMP JUMPDEST PUSH2 0x30E7 PUSH1 0x80 DUP4 ADD DUP6 PUSH2 0x308F JUMP JUMPDEST DUP2 DUP2 SUB PUSH1 0xA0 DUP4 ADD MSTORE PUSH2 0x30F9 DUP2 DUP5 PUSH2 0x2F6D JUMP JUMPDEST SWAP1 POP SWAP8 SWAP7 POP POP POP POP POP POP POP JUMP JUMPDEST PUSH32 0x6C6F616E20616D6F756E7420646F6573206E6F74207065726D6974206C697175 PUSH1 0x0 DUP3 ADD MSTORE PUSH32 0x69646174696F6E00000000000000000000000000000000000000000000000000 PUSH1 0x20 DUP3 ADD MSTORE POP JUMP JUMPDEST PUSH1 0x0 PUSH2 0x3162 PUSH1 0x27 DUP4 PUSH2 0x2CE4 JUMP JUMPDEST SWAP2 POP PUSH2 0x316D DUP3 PUSH2 0x3106 JUMP JUMPDEST PUSH1 0x40 DUP3 ADD SWAP1 POP SWAP2 SWAP1 POP JUMP JUMPDEST PUSH1 0x0 PUSH1 0x20 DUP3 ADD SWAP1 POP DUP2 DUP2 SUB PUSH1 0x0 DUP4 ADD MSTORE PUSH2 0x3191 DUP2 PUSH2 0x3155 JUMP JUMPDEST SWAP1 POP SWAP2 SWAP1 POP JUMP JUMPDEST PUSH1 0x0 PUSH1 0xA0 DUP3 ADD SWAP1 POP PUSH2 0x31AD PUSH1 0x0 DUP4 ADD DUP9 PUSH2 0x2597 JUMP JUMPDEST PUSH2 0x31BA PUSH1 0x20 DUP4 ADD DUP8 PUSH2 0x273E JUMP JUMPDEST PUSH2 0x31C7 PUSH1 0x40 DUP4 ADD DUP7 PUSH2 0x2597 JUMP JUMPDEST PUSH2 0x31D4 PUSH1 0x60 DUP4 ADD DUP6 PUSH2 0x2597 JUMP JUMPDEST DUP2 DUP2 SUB PUSH1 0x80 DUP4 ADD MSTORE PUSH2 0x31E6 DUP2 DUP5 PUSH2 0x2F6D JUMP JUMPDEST SWAP1 POP SWAP7 SWAP6 POP POP POP POP POP POP JUMP JUMPDEST PUSH1 0x0 DUP2 PUSH1 0x60 SHL SWAP1 POP SWAP2 SWAP1 POP JUMP JUMPDEST PUSH1 0x0 PUSH2 0x320A DUP3 PUSH2 0x31F2 JUMP JUMPDEST SWAP1 POP SWAP2 SWAP1 POP JUMP JUMPDEST PUSH1 0x0 PUSH2 0x321C DUP3 PUSH2 0x31FF JUMP JUMPDEST SWAP1 POP SWAP2 SWAP1 POP JUMP JUMPDEST PUSH2 0x3234 PUSH2 0x322F DUP3 PUSH2 0x2445 JUMP JUMPDEST PUSH2 0x3211 JUMP JUMPDEST DUP3 MSTORE POP POP JUMP JUMPDEST PUSH1 0x0 DUP2 PUSH1 0xF8 SHL SWAP1 POP SWAP2 SWAP1 POP JUMP JUMPDEST PUSH1 0x0 PUSH2 0x3252 DUP3 PUSH2 0x323A JUMP JUMPDEST SWAP1 POP SWAP2 SWAP1 POP JUMP JUMPDEST PUSH1 0x0 PUSH2 0x3264 DUP3 PUSH2 0x3247 JUMP JUMPDEST SWAP1 POP SWAP2 SWAP1 POP JUMP JUMPDEST PUSH2 0x327C PUSH2 0x3277 DUP3 PUSH2 0x280A JUMP JUMPDEST PUSH2 0x3259 JUMP JUMPDEST DUP3 MSTORE POP POP JUMP JUMPDEST PUSH1 0x0 PUSH2 0x328E DUP3 DUP7 PUSH2 0x3223 JUMP JUMPDEST PUSH1 0x14 DUP3 ADD SWAP2 POP PUSH2 0x329E DUP3 DUP6 PUSH2 0x3223 JUMP JUMPDEST PUSH1 0x14 DUP3 ADD SWAP2 POP PUSH2 0x32AE DUP3 DUP5 PUSH2 0x326B JUMP JUMPDEST PUSH1 0x1 DUP3 ADD SWAP2 POP DUP2 SWAP1 POP SWAP5 SWAP4 POP POP POP POP JUMP JUMPDEST PUSH1 0x0 PUSH1 0x20 DUP3 DUP5 SUB SLT ISZERO PUSH2 0x32D5 JUMPI PUSH2 0x32D4 PUSH2 0x2420 JUMP JUMPDEST JUMPDEST PUSH1 0x0 PUSH2 0x32E3 DUP5 DUP3 DUP6 ADD PUSH2 0x2BD1 JUMP JUMPDEST SWAP2 POP POP SWAP3 SWAP2 POP POP JUMP JUMPDEST PUSH1 0x0 PUSH1 0xE0 DUP3 DUP5 SUB SLT ISZERO PUSH2 0x3302 JUMPI PUSH2 0x3301 PUSH2 0x2970 JUMP JUMPDEST JUMPDEST PUSH2 0x330C PUSH1 0xE0 PUSH2 0x29E6 JUMP JUMPDEST SWAP1 POP PUSH1 0x0 PUSH2 0x331C DUP5 DUP3 DUP6 ADD PUSH2 0x2BD1 JUMP JUMPDEST PUSH1 0x0 DUP4 ADD MSTORE POP PUSH1 0x20 PUSH2 0x3330 DUP5 DUP3 DUP6 ADD PUSH2 0x2BD1 JUMP JUMPDEST PUSH1 0x20 DUP4 ADD MSTORE POP PUSH1 0x40 PUSH2 0x3344 DUP5 DUP3 DUP6 ADD PUSH2 0x2BD1 JUMP JUMPDEST PUSH1 0x40 DUP4 ADD MSTORE POP PUSH1 0x60 PUSH2 0x3358 DUP5 DUP3 DUP6 ADD PUSH2 0x2BD1 JUMP JUMPDEST PUSH1 0x60 DUP4 ADD MSTORE POP PUSH1 0x80 PUSH2 0x336C DUP5 DUP3 DUP6 ADD PUSH2 0x2BD1 JUMP JUMPDEST PUSH1 0x80 DUP4 ADD MSTORE POP PUSH1 0xA0 PUSH2 0x3380 DUP5 DUP3 DUP6 ADD PUSH2 0x2BD1 JUMP JUMPDEST PUSH1 0xA0 DUP4 ADD MSTORE POP PUSH1 0xC0 PUSH2 0x3394 DUP5 DUP3 DUP6 ADD PUSH2 0x2BD1 JUMP JUMPDEST PUSH1 0xC0 DUP4 ADD MSTORE POP SWAP3 SWAP2 POP POP JUMP JUMPDEST PUSH1 0x0 PUSH1 0xE0 DUP3 DUP5 SUB SLT ISZERO PUSH2 0x33B6 JUMPI PUSH2 0x33B5 PUSH2 0x2420 JUMP JUMPDEST JUMPDEST PUSH1 0x0 PUSH2 0x33C4 DUP5 DUP3 DUP6 ADD PUSH2 0x32EC JUMP JUMPDEST SWAP2 POP POP SWAP3 SWAP2 POP POP JUMP JUMPDEST PUSH1 0x0 PUSH1 0xA0 DUP3 DUP5 SUB SLT ISZERO PUSH2 0x33E3 JUMPI PUSH2 0x33E2 PUSH2 0x2970 JUMP JUMPDEST JUMPDEST PUSH2 0x33ED PUSH1 0xA0 PUSH2 0x29E6 JUMP JUMPDEST SWAP1 POP PUSH1 0x0 PUSH2 0x33FD DUP5 DUP3 DUP6 ADD PUSH2 0x2BD1 JUMP JUMPDEST PUSH1 0x0 DUP4 ADD MSTORE POP PUSH1 0x20 PUSH2 0x3411 DUP5 DUP3 DUP6 ADD PUSH2 0x2BD1 JUMP JUMPDEST PUSH1 0x20 DUP4 ADD MSTORE POP PUSH1 0x40 PUSH2 0x3425 DUP5 DUP3 DUP6 ADD PUSH2 0x2BD1 JUMP JUMPDEST PUSH1 0x40 DUP4 ADD MSTORE POP PUSH1 0x60 PUSH2 0x3439 DUP5 DUP3 DUP6 ADD PUSH2 0x2BD1 JUMP JUMPDEST PUSH1 0x60 DUP4 ADD MSTORE POP PUSH1 0x80 PUSH2 0x344D DUP5 DUP3 DUP6 ADD PUSH2 0x2BD1 JUMP JUMPDEST PUSH1 0x80 DUP4 ADD MSTORE POP SWAP3 SWAP2 POP POP JUMP JUMPDEST PUSH1 0x0 PUSH1 0xA0 DUP3 DUP5 SUB SLT ISZERO PUSH2 0x346F JUMPI PUSH2 0x346E PUSH2 0x2420 JUMP JUMPDEST JUMPDEST PUSH1 0x0 PUSH2 0x347D DUP5 DUP3 DUP6 ADD PUSH2 0x33CD JUMP JUMPDEST SWAP2 POP POP SWAP3 SWAP2 POP POP JUMP JUMPDEST PUSH32 0x4E487B7100000000000000000000000000000000000000000000000000000000 PUSH1 0x0 MSTORE PUSH1 0x11 PUSH1 0x4 MSTORE PUSH1 0x24 PUSH1 0x0 REVERT JUMPDEST PUSH1 0x0 PUSH2 0x34C0 DUP3 PUSH2 0x24FB JUMP JUMPDEST SWAP2 POP PUSH2 0x34CB DUP4 PUSH2 0x24FB JUMP JUMPDEST SWAP3 POP DUP3 DUP3 ADD SWAP1 POP DUP1 DUP3 GT ISZERO PUSH2 0x34E3 JUMPI PUSH2 0x34E2 PUSH2 0x3486 JUMP JUMPDEST JUMPDEST SWAP3 SWAP2 POP POP JUMP JUMPDEST PUSH32 0x617665726765207072696365206F6620706F736974696F6E2068617320746F20 PUSH1 0x0 DUP3 ADD MSTORE PUSH32 0x62652067726561746572207468616E2030000000000000000000000000000000 PUSH1 0x20 DUP3 ADD MSTORE POP JUMP JUMPDEST PUSH1 0x0 PUSH2 0x3545 PUSH1 0x31 DUP4 PUSH2 0x2CE4 JUMP JUMPDEST SWAP2 POP PUSH2 0x3550 DUP3 PUSH2 0x34E9 JUMP JUMPDEST PUSH1 0x40 DUP3 ADD SWAP1 POP SWAP2 SWAP1 POP JUMP JUMPDEST PUSH1 0x0 PUSH1 0x20 DUP3 ADD SWAP1 POP DUP2 DUP2 SUB PUSH1 0x0 DUP4 ADD MSTORE PUSH2 0x3574 DUP2 PUSH2 0x3538 JUMP JUMPDEST SWAP1 POP SWAP2 SWAP1 POP JUMP JUMPDEST PUSH1 0x0 PUSH1 0x40 DUP3 ADD SWAP1 POP PUSH2 0x3590 PUSH1 0x0 DUP4 ADD DUP6 PUSH2 0x273E JUMP JUMPDEST PUSH2 0x359D PUSH1 0x20 DUP4 ADD DUP5 PUSH2 0x2B47 JUMP JUMPDEST SWAP4 SWAP3 POP POP POP JUMP JUMPDEST PUSH32 0x4E487B7100000000000000000000000000000000000000000000000000000000 PUSH1 0x0 MSTORE PUSH1 0x32 PUSH1 0x4 MSTORE PUSH1 0x24 PUSH1 0x0 REVERT JUMPDEST PUSH1 0x0 PUSH2 0x35DE DUP3 PUSH2 0x24FB JUMP JUMPDEST SWAP2 POP PUSH32 0xFFFFFFFFFFFFFFFFFFFFFFFFFFFFFFFFFFFFFFFFFFFFFFFFFFFFFFFFFFFFFFFF DUP3 SUB PUSH2 0x3610 JUMPI PUSH2 0x360F PUSH2 0x3486 JUMP JUMPDEST JUMPDEST PUSH1 0x1 DUP3 ADD SWAP1 POP SWAP2 SWAP1 POP JUMP JUMPDEST PUSH32 0x536166654D6174683A206164646974696F6E206F766572666C6F770000000000 PUSH1 0x0 DUP3 ADD MSTORE POP JUMP JUMPDEST PUSH1 0x0 PUSH2 0x3651 PUSH1 0x1B DUP4 PUSH2 0x2CE4 JUMP JUMPDEST SWAP2 POP PUSH2 0x365C DUP3 PUSH2 0x361B JUMP JUMPDEST PUSH1 0x20 DUP3 ADD SWAP1 POP SWAP2 SWAP1 POP JUMP JUMPDEST PUSH1 0x0 PUSH1 0x20 DUP3 ADD SWAP1 POP DUP2 DUP2 SUB PUSH1 0x0 DUP4 ADD MSTORE PUSH2 0x3680 DUP2 PUSH2 0x3644 JUMP JUMPDEST SWAP1 POP SWAP2 SWAP1 POP JUMP JUMPDEST PUSH1 0x0 PUSH2 0x3692 DUP3 PUSH2 0x24FB JUMP JUMPDEST SWAP2 POP PUSH2 0x369D DUP4 PUSH2 0x24FB JUMP JUMPDEST SWAP3 POP DUP3 DUP3 MUL PUSH2 0x36AB DUP2 PUSH2 0x24FB JUMP JUMPDEST SWAP2 POP DUP3 DUP3 DIV DUP5 EQ DUP4 ISZERO OR PUSH2 0x36C2 JUMPI PUSH2 0x36C1 PUSH2 0x3486 JUMP JUMPDEST JUMPDEST POP SWAP3 SWAP2 POP POP JUMP JUMPDEST PUSH32 0x4E487B7100000000000000000000000000000000000000000000000000000000 PUSH1 0x0 MSTORE PUSH1 0x12 PUSH1 0x4 MSTORE PUSH1 0x24 PUSH1 0x0 REVERT JUMPDEST PUSH1 0x0 PUSH2 0x3703 DUP3 PUSH2 0x24FB JUMP JUMPDEST SWAP2 POP PUSH2 0x370E DUP4 PUSH2 0x24FB JUMP JUMPDEST SWAP3 POP DUP3 PUSH2 0x371E JUMPI PUSH2 0x371D PUSH2 0x36C9 JUMP JUMPDEST JUMPDEST DUP3 DUP3 DIV SWAP1 POP SWAP3 SWAP2 POP POP JUMP JUMPDEST PUSH32 0x536166654D6174683A206D756C7469706C69636174696F6E206F766572666C6F PUSH1 0x0 DUP3 ADD MSTORE PUSH32 0x7700000000000000000000000000000000000000000000000000000000000000 PUSH1 0x20 DUP3 ADD MSTORE POP JUMP JUMPDEST PUSH1 0x0 PUSH2 0x3785 PUSH1 0x21 DUP4 PUSH2 0x2CE4 JUMP JUMPDEST SWAP2 POP PUSH2 0x3790 DUP3 PUSH2 0x3729 JUMP JUMPDEST PUSH1 0x40 DUP3 ADD SWAP1 POP SWAP2 SWAP1 POP JUMP JUMPDEST PUSH1 0x0 PUSH1 0x20 DUP3 ADD SWAP1 POP DUP2 DUP2 SUB PUSH1 0x0 DUP4 ADD MSTORE PUSH2 0x37B4 DUP2 PUSH2 0x3778 JUMP JUMPDEST SWAP1 POP SWAP2 SWAP1 POP JUMP JUMPDEST PUSH1 0x0 DUP2 MLOAD SWAP1 POP SWAP2 SWAP1 POP JUMP JUMPDEST PUSH1 0x0 PUSH2 0x37D1 DUP3 PUSH2 0x37BB JUMP JUMPDEST PUSH2 0x37DB DUP2 DUP6 PUSH2 0x2CE4 JUMP JUMPDEST SWAP4 POP PUSH2 0x37EB DUP2 DUP6 PUSH1 0x20 DUP7 ADD PUSH2 0x2F43 JUMP JUMPDEST PUSH2 0x37F4 DUP2 PUSH2 0x2975 JUMP JUMPDEST DUP5 ADD SWAP2 POP POP SWAP3 SWAP2 POP POP JUMP JUMPDEST PUSH1 0x0 PUSH1 0x20 DUP3 ADD SWAP1 POP DUP2 DUP2 SUB PUSH1 0x0 DUP4 ADD MSTORE PUSH2 0x3819 DUP2 DUP5 PUSH2 0x37C6 JUMP JUMPDEST SWAP1 POP SWAP3 SWAP2 POP POP JUMP JUMPDEST PUSH1 0x0 PUSH2 0x382C DUP3 PUSH2 0x24FB JUMP JUMPDEST SWAP2 POP PUSH2 0x3837 DUP4 PUSH2 0x24FB JUMP JUMPDEST SWAP3 POP DUP3 DUP3 SUB SWAP1 POP DUP2 DUP2 GT ISZERO PUSH2 0x384F JUMPI PUSH2 0x384E PUSH2 0x3486 JUMP JUMPDEST JUMPDEST SWAP3 SWAP2 POP POP JUMP INVALID LOG2 PUSH5 0x6970667358 0x22 SLT KECCAK256 0x29 0xB8 PUSH2 0x112E CHAINID PUSH31 0x169A0323671C4F5044E330D67E1A47CF495C4C89B7B0CD60F564736F6C6343 STOP ADDMOD GT STOP CALLER "},"methodIdentifiers":{"BASIS_POINTS_DIVISOR()":"126082cf","L1()":"7809baaf","L2()":"081752bb","MIN_DECREASE_HEALTH_FACTOR()":"725ba052","MIN_HEALTH_FACTOR()":"b5627e42","_getBnbPositionKey(address,address,address,uint8)":"0dd78f19","_getPositionFee((uint256,uint256,uint256,uint256,uint256),address,uint256)":"39cf8916","bnbLevelOracleAddress()":"1b8b361b","bnbOrderManagerAddress()":"62a3b0e1","bnbPoolAddress()":"8812f374","bnbPortfolioHealthFactor()":"32315a62","callDecreasePlaceOrder(uint8,address,address,uint256,address,uint256,uint256)":"157103f4","callIncreasePlaceOrder(uint8,address,address,uint256,address,uint256,uint256,uint256)":"1154dbc2","deposit()":"d0e30db0","existingBnbPositionsData(uint256)":"33c445d5","existingPositionsData(uint256)":"e9f4454d","gellatoAutomateAddress()":"d571e21c","getBnbDeltaWithMargin(address,uint8,uint256,uint256)":"5b9fb547","getBnbPortfolioValue()":"d3827eee","getBnbPortfolioValueWithMargin()":"cefcbd9d","getBnbPosition(address,address,uint8)":"027f1388","getBnbPositionValue(address,address,uint8)":"75f134b4","getBnbPositionValueWithMargin(address,address,uint8)":"15109f64","getPositionKey(address,address,bool)":"238e270a","gov()":"12d43a51","lendingContractAddress()":"7379dbe6","minExecutionFee()":"63ae2103","orderBookAddress()":"9409d870","ownerAddress()":"8f84aa09","positionRouterAddress()":"d422b00f","routerAddress()":"3268cc56","validateBnbDecreasePosition(address,address,uint8)":"81be2320","vaultContractAddress()":"a92ea0e0","wethAddress()":"4f0e0ef3"}}}}}