{"contracts/AbstractPosition.sol":{"AbstractPosition":{"abi":[{"inputs":[{"internalType":"address","name":"_gov","type":"address"},{"internalType":"address","name":"_wethAddress","type":"address"},{"internalType":"address","name":"_lendingContractAddress","type":"address"},{"internalType":"address","name":"_ownerAddress","type":"address"},{"internalType":"address","name":"_positionRouterAddress","type":"address"},{"internalType":"address","name":"_routerAddress","type":"address"},{"internalType":"address","name":"_orderBookAddress","type":"address"},{"internalType":"address","name":"_vaultContractAddress","type":"address"}],"stateMutability":"nonpayable","type":"constructor"},{"inputs":[],"name":"BASIS_POINTS_DIVISOR","outputs":[{"internalType":"uint256","name":"","type":"uint256"}],"stateMutability":"view","type":"function"},{"inputs":[],"name":"L1","outputs":[{"internalType":"uint256","name":"","type":"uint256"}],"stateMutability":"view","type":"function"},{"inputs":[],"name":"L2","outputs":[{"internalType":"uint256","name":"","type":"uint256"}],"stateMutability":"view","type":"function"},{"inputs":[],"name":"MIN_DECREASE_HEALTH_FACTOR","outputs":[{"internalType":"uint256","name":"","type":"uint256"}],"stateMutability":"view","type":"function"},{"inputs":[],"name":"MIN_HEALTH_FACTOR","outputs":[{"internalType":"uint256","name":"","type":"uint256"}],"stateMutability":"view","type":"function"},{"inputs":[{"internalType":"address[]","name":"_path","type":"address[]"},{"internalType":"address","name":"_indexToken","type":"address"},{"internalType":"uint256","name":"_collateralDelta","type":"uint256"},{"internalType":"uint256","name":"_sizeDelta","type":"uint256"},{"internalType":"bool","name":"_isLong","type":"bool"},{"internalType":"address","name":"_receiver","type":"address"},{"internalType":"uint256","name":"_acceptablePrice","type":"uint256"},{"internalType":"uint256","name":"_minOut","type":"uint256"},{"internalType":"uint256","name":"_executionFee","type":"uint256"},{"internalType":"bool","name":"_withdrawETH","type":"bool"},{"internalType":"address","name":"_callbackTarget","type":"address"}],"name":"callCreateDecreasePosition","outputs":[{"internalType":"bool","name":"","type":"bool"}],"stateMutability":"payable","type":"function"},{"inputs":[{"internalType":"address[]","name":"_path","type":"address[]"},{"internalType":"address","name":"_indexToken","type":"address"},{"internalType":"uint256","name":"_amountIn","type":"uint256"},{"internalType":"uint256","name":"_minOut","type":"uint256"},{"internalType":"uint256","name":"_sizeDelta","type":"uint256"},{"internalType":"bool","name":"_isLong","type":"bool"},{"internalType":"uint256","name":"_acceptablePrice","type":"uint256"},{"internalType":"uint256","name":"_executionFee","type":"uint256"},{"internalType":"bytes32","name":"_referralCode","type":"bytes32"},{"internalType":"address","name":"_callbackTarget","type":"address"}],"name":"callCreateIncreasePosition","outputs":[{"internalType":"bytes32","name":"","type":"bytes32"}],"stateMutability":"payable","type":"function"},{"inputs":[{"internalType":"address[]","name":"_path","type":"address[]"},{"internalType":"address","name":"_indexToken","type":"address"},{"internalType":"uint256","name":"_minOut","type":"uint256"},{"internalType":"uint256","name":"_sizeDelta","type":"uint256"},{"internalType":"bool","name":"_isLong","type":"bool"},{"internalType":"uint256","name":"_acceptablePrice","type":"uint256"},{"internalType":"uint256","name":"_executionFee","type":"uint256"},{"internalType":"bytes32","name":"_referralCode","type":"bytes32"},{"internalType":"address","name":"_callbackTarget","type":"address"}],"name":"callCreateIncreasePositionETH","outputs":[{"internalType":"bytes32","name":"","type":"bytes32"}],"stateMutability":"payable","type":"function"},{"inputs":[],"name":"deposit","outputs":[],"stateMutability":"payable","type":"function"},{"inputs":[],"name":"executeDecreasePosition","outputs":[{"internalType":"bool","name":"","type":"bool"}],"stateMutability":"nonpayable","type":"function"},{"inputs":[{"internalType":"uint256","name":"","type":"uint256"}],"name":"existingPositionsData","outputs":[{"internalType":"address","name":"indexToken","type":"address"},{"internalType":"address","name":"collateralToken","type":"address"},{"internalType":"bool","name":"isLong","type":"bool"}],"stateMutability":"view","type":"function"},{"inputs":[{"internalType":"address","name":"_indexToken","type":"address"},{"internalType":"uint256","name":"_size","type":"uint256"},{"internalType":"uint256","name":"_averagePrice","type":"uint256"},{"internalType":"bool","name":"_isLong","type":"bool"}],"name":"getDeltaWithMargin","outputs":[{"internalType":"bool","name":"","type":"bool"},{"internalType":"uint256","name":"","type":"uint256"}],"stateMutability":"view","type":"function"},{"inputs":[],"name":"getPortfolioValue","outputs":[{"internalType":"uint256","name":"","type":"uint256"}],"stateMutability":"view","type":"function"},{"inputs":[],"name":"getPortfolioValueWithMargin","outputs":[{"internalType":"uint256","name":"","type":"uint256"}],"stateMutability":"view","type":"function"},{"inputs":[{"internalType":"address","name":"_indexToken","type":"address"},{"internalType":"address","name":"_collateralToken","type":"address"},{"internalType":"bool","name":"_isLong","type":"bool"}],"name":"getPositioKey","outputs":[{"internalType":"bytes32","name":"","type":"bytes32"}],"stateMutability":"pure","type":"function"},{"inputs":[{"internalType":"address","name":"_indexToken","type":"address"},{"internalType":"address","name":"_collateralToken","type":"address"},{"internalType":"bool","name":"_isLong","type":"bool"}],"name":"getPosition","outputs":[{"internalType":"uint256","name":"","type":"uint256"},{"internalType":"uint256","name":"","type":"uint256"},{"internalType":"uint256","name":"","type":"uint256"},{"internalType":"uint256","name":"","type":"uint256"},{"internalType":"uint256","name":"","type":"uint256"}],"stateMutability":"view","type":"function"},{"inputs":[{"internalType":"address","name":"_indexToken","type":"address"},{"internalType":"bool","name":"_isLong","type":"bool"},{"internalType":"uint256","name":"_positionCollateral","type":"uint256"},{"internalType":"uint256","name":"_positionSize","type":"uint256"},{"internalType":"uint256","name":"_positionAveragePrice","type":"uint256"},{"internalType":"uint256","name":"_positionLastIncreasedTime","type":"uint256"}],"name":"getPositionValue","outputs":[{"internalType":"uint256","name":"","type":"uint256"}],"stateMutability":"view","type":"function"},{"inputs":[{"internalType":"address","name":"_indexToken","type":"address"},{"internalType":"address","name":"_collateralToken","type":"address"},{"internalType":"bool","name":"_isLong","type":"bool"},{"internalType":"uint256","name":"_positionCollateral","type":"uint256"},{"internalType":"uint256","name":"_positionSize","type":"uint256"},{"internalType":"uint256","name":"_positionAveragePrice","type":"uint256"},{"internalType":"uint256","name":"_positionEntryFundingRate","type":"uint256"}],"name":"getPositionValueWithMargin","outputs":[{"internalType":"uint256","name":"","type":"uint256"}],"stateMutability":"view","type":"function"},{"inputs":[],"name":"getPositions","outputs":[{"components":[{"internalType":"address","name":"indexToken","type":"address"},{"internalType":"address","name":"collateralToken","type":"address"},{"internalType":"bool","name":"isLong","type":"bool"}],"internalType":"struct AbstractPosition.PositionData[]","name":"","type":"tuple[]"}],"stateMutability":"view","type":"function"},{"inputs":[{"internalType":"address","name":"_account","type":"address"},{"internalType":"uint256","name":"_index","type":"uint256"}],"name":"getRequestKey","outputs":[{"internalType":"bytes32","name":"","type":"bytes32"}],"stateMutability":"pure","type":"function"},{"inputs":[],"name":"gov","outputs":[{"internalType":"address","name":"","type":"address"}],"stateMutability":"view","type":"function"},{"inputs":[],"name":"lendingContractAddress","outputs":[{"internalType":"address","name":"","type":"address"}],"stateMutability":"view","type":"function"},{"inputs":[],"name":"liquidatePortfolio","outputs":[],"stateMutability":"nonpayable","type":"function"},{"inputs":[],"name":"minExecutionFee","outputs":[{"internalType":"uint256","name":"","type":"uint256"}],"stateMutability":"view","type":"function"},{"inputs":[],"name":"orderBookAddress","outputs":[{"internalType":"address","name":"","type":"address"}],"stateMutability":"view","type":"function"},{"inputs":[],"name":"ownerAddress","outputs":[{"internalType":"address","name":"","type":"address"}],"stateMutability":"view","type":"function"},{"inputs":[],"name":"portfolioHealthFactor","outputs":[{"internalType":"uint256","name":"","type":"uint256"}],"stateMutability":"view","type":"function"},{"inputs":[],"name":"positionRouterAddress","outputs":[{"internalType":"address","name":"","type":"address"}],"stateMutability":"view","type":"function"},{"inputs":[],"name":"routerAddress","outputs":[{"internalType":"address","name":"","type":"address"}],"stateMutability":"view","type":"function"},{"inputs":[{"internalType":"address","name":"_lendingContractAddress","type":"address"}],"name":"setLendingContractAddress","outputs":[],"stateMutability":"nonpayable","type":"function"},{"inputs":[{"internalType":"uint256","name":"_minExecutionFee","type":"uint256"}],"name":"setMinExecutionFee","outputs":[],"stateMutability":"nonpayable","type":"function"},{"inputs":[{"internalType":"address","name":"newAddress","type":"address"}],"name":"setPositionRouterAddress","outputs":[],"stateMutability":"nonpayable","type":"function"},{"inputs":[{"internalType":"address","name":"newAddress","type":"address"}],"name":"setRouterAddress","outputs":[],"stateMutability":"nonpayable","type":"function"},{"inputs":[{"internalType":"address","name":"_vaultContractAddress","type":"address"}],"name":"setVaultContractAddress","outputs":[],"stateMutability":"nonpayable","type":"function"},{"inputs":[{"internalType":"address","name":"_wethAddress","type":"address"}],"name":"setWethAddress","outputs":[],"stateMutability":"nonpayable","type":"function"},{"inputs":[{"internalType":"address","name":"_indexToken","type":"address"},{"internalType":"address[]","name":"_path","type":"address[]"},{"internalType":"bool","name":"_isLong","type":"bool"}],"name":"validateDecreasePosition","outputs":[{"internalType":"bool","name":"","type":"bool"}],"stateMutability":"view","type":"function"},{"inputs":[],"name":"vaultContractAddress","outputs":[{"internalType":"address","name":"","type":"address"}],"stateMutability":"view","type":"function"},{"inputs":[],"name":"wethAddress","outputs":[{"internalType":"address","name":"","type":"address"}],"stateMutability":"view","type":"function"}],"evm":{"bytecode":{"linkReferences":{},"object":"60806040526000600b553480156200001657600080fd5b5060405162004a8538038062004a8583398181016040528101906200003c919062000352565b876000806101000a81548173ffffffffffffffffffffffffffffffffffffffff021916908373ffffffffffffffffffffffffffffffffffffffff16021790555084600760006101000a81548173ffffffffffffffffffffffffffffffffffffffff021916908373ffffffffffffffffffffffffffffffffffffffff16021790555086600160006101000a81548173ffffffffffffffffffffffffffffffffffffffff021916908373ffffffffffffffffffffffffffffffffffffffff16021790555085600260006101000a81548173ffffffffffffffffffffffffffffffffffffffff021916908373ffffffffffffffffffffffffffffffffffffffff16021790555083600360006101000a81548173ffffffffffffffffffffffffffffffffffffffff021916908373ffffffffffffffffffffffffffffffffffffffff16021790555082600460006101000a81548173ffffffffffffffffffffffffffffffffffffffff021916908373ffffffffffffffffffffffffffffffffffffffff16021790555081600560006101000a81548173ffffffffffffffffffffffffffffffffffffffff021916908373ffffffffffffffffffffffffffffffffffffffff16021790555080600660006101000a81548173ffffffffffffffffffffffffffffffffffffffff021916908373ffffffffffffffffffffffffffffffffffffffff16021790555060008390508073ffffffffffffffffffffffffffffffffffffffff166338c74dd9600360009054906101000a900473ffffffffffffffffffffffffffffffffffffffff166040518263ffffffff1660e01b8152600401620002a591906200042c565b600060405180830381600087803b158015620002c057600080fd5b505af1158015620002d5573d6000803e3d6000fd5b5050505050505050505050505062000449565b600080fd5b600073ffffffffffffffffffffffffffffffffffffffff82169050919050565b60006200031a82620002ed565b9050919050565b6200032c816200030d565b81146200033857600080fd5b50565b6000815190506200034c8162000321565b92915050565b600080600080600080600080610100898b031215620003765762000375620002e8565b5b6000620003868b828c016200033b565b9850506020620003998b828c016200033b565b9750506040620003ac8b828c016200033b565b9650506060620003bf8b828c016200033b565b9550506080620003d28b828c016200033b565b94505060a0620003e58b828c016200033b565b93505060c0620003f88b828c016200033b565b92505060e06200040b8b828c016200033b565b9150509295985092959890939650565b62000426816200030d565b82525050565b60006020820190506200044360008301846200041b565b92915050565b61462c80620004596000396000f3fe6080604052600436106102255760003560e01c80638c1395f811610123578063bb0498de116100ab578063d422b00f1161006f578063d422b00f146107f6578063e9f4454d14610821578063f838822514610860578063fc2cee621461089d578063ffb991b0146108c657610225565b8063bb0498de14610709578063c019bf5e14610734578063ca2fc17c14610771578063d0e30db0146107af578063d3ec0be9146107b957610225565b8063a0f14034116100f2578063a0f1403414610631578063a92ea0e01461065a578063a96e242314610685578063af3ed347146106ae578063b5627e42146106de57610225565b80638c1395f81461056a5780638f84aa09146105ab578063937a0e4e146105d65780639409d8701461060657610225565b8063584edf10116101b1578063725ba05211610175578063725ba052146104955780637379dbe6146104c05780637809baaf146104eb5780638027586014610516578063871105cc1461054157610225565b8063584edf10146103a957806362f8a3fe146103c057806363ae2103146103fd578063694c1cbc146104285780636e3990fc1461046557610225565b806313f2d128116101f857806313f2d128146102d65780633268cc56146102ff5780633ba32df41461032a57806341cb87fc146103555780634f0e0ef31461037e57610225565b8063052143e81461022a578063081752bb14610255578063126082cf1461028057806312d43a51146102ab575b600080fd5b34801561023657600080fd5b5061023f6108f1565b60405161024c9190612d92565b60405180910390f35b34801561026157600080fd5b5061026a6109a8565b6040516102779190612dc6565b60405180910390f35b34801561028c57600080fd5b506102956109ad565b6040516102a29190612dc6565b60405180910390f35b3480156102b757600080fd5b506102c06109b3565b6040516102cd9190612e22565b60405180910390f35b3480156102e257600080fd5b506102fd60048036038101906102f89190612e7d565b6109d7565b005b34801561030b57600080fd5b50610314610a23565b6040516103219190612e22565b60405180910390f35b34801561033657600080fd5b5061033f610a49565b60405161034c9190612dc6565b60405180910390f35b34801561036157600080fd5b5061037c60048036038101906103779190612e7d565b610d58565b005b34801561038a57600080fd5b50610393610da4565b6040516103a09190612e22565b60405180910390f35b3480156103b557600080fd5b506103be610dca565b005b3480156103cc57600080fd5b506103e760048036038101906103e29190612ed6565b6111f7565b6040516103f49190612f2f565b60405180910390f35b34801561040957600080fd5b5061041261122a565b60405161041f9190612dc6565b60405180910390f35b34801561043457600080fd5b5061044f600480360381019061044a9190612f76565b611230565b60405161045c9190612dc6565b60405180910390f35b61047f600480360381019061047a9190613188565b611330565b60405161048c9190612f2f565b60405180910390f35b3480156104a157600080fd5b506104aa611491565b6040516104b79190612dc6565b60405180910390f35b3480156104cc57600080fd5b506104d5611497565b6040516104e29190612e22565b60405180910390f35b3480156104f757600080fd5b506105006114bd565b60405161050d9190612dc6565b60405180910390f35b34801561052257600080fd5b5061052b6114c2565b604051610538919061337d565b60405180910390f35b34801561054d57600080fd5b5061056860048036038101906105639190612e7d565b6115e8565b005b34801561057657600080fd5b50610591600480360381019061058c919061339f565b611634565b6040516105a29594939291906133f2565b60405180910390f35b3480156105b757600080fd5b506105c061174c565b6040516105cd9190612e22565b60405180910390f35b6105f060048036038101906105eb9190613445565b611772565b6040516105fd9190612d92565b60405180910390f35b34801561061257600080fd5b5061061b611931565b6040516106289190612e22565b60405180910390f35b34801561063d57600080fd5b5061065860048036038101906106539190612e7d565b611957565b005b34801561066657600080fd5b5061066f6119a3565b60405161067c9190612e22565b60405180910390f35b34801561069157600080fd5b506106ac60048036038101906106a79190612e7d565b6119c9565b005b6106c860048036038101906106c39190613555565b611a15565b6040516106d59190612f2f565b60405180910390f35b3480156106ea57600080fd5b506106f3611cd1565b6040516107009190612dc6565b60405180910390f35b34801561071557600080fd5b5061071e611cd7565b60405161072b9190612dc6565b60405180910390f35b34801561074057600080fd5b5061075b60048036038101906107569190613650565b611e7f565b6040516107689190612dc6565b60405180910390f35b34801561077d57600080fd5b50610798600480360381019061079391906136f2565b61204c565b6040516107a6929190613759565b60405180910390f35b6107b76122da565b005b3480156107c557600080fd5b506107e060048036038101906107db919061339f565b6122dc565b6040516107ed9190612f2f565b60405180910390f35b34801561080257600080fd5b5061080b612312565b6040516108189190612e22565b60405180910390f35b34801561082d57600080fd5b5061084860048036038101906108439190613782565b612338565b604051610857939291906137af565b60405180910390f35b34801561086c57600080fd5b50610887600480360381019061088291906137e6565b6123bf565b6040516108949190612d92565b60405180910390f35b3480156108a957600080fd5b506108c460048036038101906108bf9190613782565b612566565b005b3480156108d257600080fd5b506108db612578565b6040516108e89190612dc6565b60405180910390f35b60008061090030600b546111f7565b9050600360009054906101000a900473ffffffffffffffffffffffffffffffffffffffff1673ffffffffffffffffffffffffffffffffffffffff16630d4d003d82306040518363ffffffff1660e01b815260040161095f929190613855565b6020604051808303816000875af115801561097e573d6000803e3d6000fd5b505050506040513d601f19601f820116820180604052508101906109a29190613893565b91505090565b606481565b61271081565b60008054906101000a900473ffffffffffffffffffffffffffffffffffffffff1681565b6109df612689565b80600260006101000a81548173ffffffffffffffffffffffffffffffffffffffff021916908373ffffffffffffffffffffffffffffffffffffffff16021790555050565b600460009054906101000a900473ffffffffffffffffffffffffffffffffffffffff1681565b600080600090506000805b600a80549050811015610c3e57600080600080610b2e600a8681548110610a7e57610a7d6138c0565b5b906000526020600020906002020160000160009054906101000a900473ffffffffffffffffffffffffffffffffffffffff16600a8781548110610ac457610ac36138c0565b5b906000526020600020906002020160010160009054906101000a900473ffffffffffffffffffffffffffffffffffffffff16600a8881548110610b0a57610b096138c0565b5b906000526020600020906002020160010160149054906101000a900460ff16611634565b5093509350935093506000831115610c2757610c0b600a8681548110610b5757610b566138c0565b5b906000526020600020906002020160000160009054906101000a900473ffffffffffffffffffffffffffffffffffffffff16600a8781548110610b9d57610b9c6138c0565b5b906000526020600020906002020160010160009054906101000a900473ffffffffffffffffffffffffffffffffffffffff16600a8881548110610be357610be26138c0565b5b906000526020600020906002020160010160149054906101000a900460ff1686888787611e7f565b87610c16919061391e565b96508386610c24919061391e565b95505b505050508080610c3690613952565b915050610a54565b506000600260009054906101000a900473ffffffffffffffffffffffffffffffffffffffff1673ffffffffffffffffffffffffffffffffffffffff1663db1e4ff8600760009054906101000a900473ffffffffffffffffffffffffffffffffffffffff166040518263ffffffff1660e01b8152600401610cbe9190612e22565b602060405180830381865afa158015610cdb573d6000803e3d6000fd5b505050506040513d601f19601f82011682018060405250810190610cff91906139af565b9050610d4d81610d3f610d30612710610d2260648861271990919063ffffffff16565b61279390919063ffffffff16565b866127dd90919063ffffffff16565b6127dd90919063ffffffff16565b925082935050505090565b610d60612689565b80600460006101000a81548173ffffffffffffffffffffffffffffffffffffffff021916908373ffffffffffffffffffffffffffffffffffffffff16021790555050565b600160009054906101000a900473ffffffffffffffffffffffffffffffffffffffff1681565b6000610dd4612578565b90506127108110610e1a576040517f08c379a0000000000000000000000000000000000000000000000000000000008152600401610e1190613a39565b60405180910390fd5b60005b600a805490508110156111f357600080600080610ef7600a8681548110610e4757610e466138c0565b5b906000526020600020906002020160000160009054906101000a900473ffffffffffffffffffffffffffffffffffffffff16600a8781548110610e8d57610e8c6138c0565b5b906000526020600020906002020160010160009054906101000a900473ffffffffffffffffffffffffffffffffffffffff16600a8881548110610ed357610ed26138c0565b5b906000526020600020906002020160010160149054906101000a900460ff16611634565b50935093509350935060008311156111dc576000610fd6600a8781548110610f2257610f216138c0565b5b906000526020600020906002020160000160009054906101000a900473ffffffffffffffffffffffffffffffffffffffff16600a8881548110610f6857610f676138c0565b5b906000526020600020906002020160010160009054906101000a900473ffffffffffffffffffffffffffffffffffffffff16600a8981548110610fae57610fad6138c0565b5b906000526020600020906002020160010160149054906101000a900460ff1687898888611e7f565b90506000600a8781548110610fee57610fed6138c0565b5b906000526020600020906002020160010160149054906101000a900460ff1661110a576111056002600660009054906101000a900473ffffffffffffffffffffffffffffffffffffffff1673ffffffffffffffffffffffffffffffffffffffff1663e124e6d2600a8b81548110611068576110676138c0565b5b906000526020600020906002020160000160009054906101000a900473ffffffffffffffffffffffffffffffffffffffff166040518263ffffffff1660e01b81526004016110b69190612e22565b602060405180830381865afa1580156110d3573d6000803e3d6000fd5b505050506040513d601f19601f820116820180604052508101906110f791906139af565b61271990919063ffffffff16565b61110d565b60005b90506111d9600a8881548110611126576111256138c0565b5b906000526020600020906002020160000160009054906101000a900473ffffffffffffffffffffffffffffffffffffffff16600a898154811061116c5761116b6138c0565b5b906000526020600020906002020160010160009054906101000a900473ffffffffffffffffffffffffffffffffffffffff16600a8a815481106111b2576111b16138c0565b5b906000526020600020906002020160010160149054906101000a900460ff16898686612827565b50505b5050505080806111eb90613952565b915050610e1d565b5050565b6000828260405160200161120c929190613ac2565b60405160208183030381529060405280519060200120905092915050565b60085481565b60008085036112425760009050611326565b600080600660009054906101000a900473ffffffffffffffffffffffffffffffffffffffff1673ffffffffffffffffffffffffffffffffffffffff16635c07eaab8a88888c896040518663ffffffff1660e01b81526004016112a8959493929190613aee565b6040805180830381865afa1580156112c4573d6000803e3d6000fd5b505050506040513d601f19601f820116820180604052508101906112e89190613b41565b91509150811561130e57611305818861287990919063ffffffff16565b92505050611326565b61132181886127dd90919063ffffffff16565b925050505b9695505050505050565b6000600760009054906101000a900473ffffffffffffffffffffffffffffffffffffffff1673ffffffffffffffffffffffffffffffffffffffff163373ffffffffffffffffffffffffffffffffffffffff16146113c2576040517f08c379a00000000000000000000000000000000000000000000000000000000081526004016113b990613bf3565b60405180910390fd5b6113cd8a8a886128d7565b6000600360009054906101000a900473ffffffffffffffffffffffffffffffffffffffff1690508073ffffffffffffffffffffffffffffffffffffffff16635b88e8c6348d8d8d8d8d8d8d8d8d6040518b63ffffffff1660e01b815260040161143e99989796959493929190613cc2565b60206040518083038185885af115801561145c573d6000803e3d6000fd5b50505050506040513d601f19601f820116820180604052508101906114819190613d6b565b9150509998505050505050505050565b612af881565b600260009054906101000a900473ffffffffffffffffffffffffffffffffffffffff1681565b606481565b6060600a805480602002602001604051908101604052809291908181526020016000905b828210156115df57838290600052602060002090600202016040518060600160405290816000820160009054906101000a900473ffffffffffffffffffffffffffffffffffffffff1673ffffffffffffffffffffffffffffffffffffffff1673ffffffffffffffffffffffffffffffffffffffff1681526020016001820160009054906101000a900473ffffffffffffffffffffffffffffffffffffffff1673ffffffffffffffffffffffffffffffffffffffff1673ffffffffffffffffffffffffffffffffffffffff1681526020016001820160149054906101000a900460ff161515151581525050815260200190600101906114e6565b50505050905090565b6115f0612689565b80600660006101000a81548173ffffffffffffffffffffffffffffffffffffffff021916908373ffffffffffffffffffffffffffffffffffffffff16021790555050565b6000806000806000611644612d32565b600660009054906101000a900473ffffffffffffffffffffffffffffffffffffffff1673ffffffffffffffffffffffffffffffffffffffff16634a3f088d308a8c8b6040518563ffffffff1660e01b81526004016116a59493929190613d98565b61010060405180830381865afa1580156116c3573d6000803e3d6000fd5b505050506040513d601f19601f820116820180604052508101906116e79190613ddd565b909192509091509050856000018660200187604001886060018960c0018581525085815250858152508581525085815250505050505080600001518160200151826040015183606001518460c001519550955095509550955050939792965093509350565b600760009054906101000a900473ffffffffffffffffffffffffffffffffffffffff1681565b6000600760009054906101000a900473ffffffffffffffffffffffffffffffffffffffff1673ffffffffffffffffffffffffffffffffffffffff163373ffffffffffffffffffffffffffffffffffffffff16148061181d5750600260009054906101000a900473ffffffffffffffffffffffffffffffffffffffff1673ffffffffffffffffffffffffffffffffffffffff163373ffffffffffffffffffffffffffffffffffffffff16145b61185c576040517f08c379a000000000000000000000000000000000000000000000000000000000815260040161185390613f05565b60405180910390fd5b83341461189e576040517f08c379a000000000000000000000000000000000000000000000000000000000815260040161189590613f71565b60405180910390fd5b6118a98b8d8a6123bf565b6118e8576040517f08c379a00000000000000000000000000000000000000000000000000000000081526004016118df90614003565b60405180910390fd5b6118fe6001600b5461287990919063ffffffff16565b600b819055506119178c8c8c8c8c8c8c8c8c8c8c612a9a565b506119206108f1565b90509b9a5050505050505050505050565b600560009054906101000a900473ffffffffffffffffffffffffffffffffffffffff1681565b61195f612689565b80600360006101000a81548173ffffffffffffffffffffffffffffffffffffffff021916908373ffffffffffffffffffffffffffffffffffffffff16021790555050565b600660009054906101000a900473ffffffffffffffffffffffffffffffffffffffff1681565b6119d1612689565b80600160006101000a81548173ffffffffffffffffffffffffffffffffffffffff021916908373ffffffffffffffffffffffffffffffffffffffff16021790555050565b6000600760009054906101000a900473ffffffffffffffffffffffffffffffffffffffff1673ffffffffffffffffffffffffffffffffffffffff163373ffffffffffffffffffffffffffffffffffffffff1614611aa7576040517f08c379a0000000000000000000000000000000000000000000000000000000008152600401611a9e90613bf3565b60405180910390fd5b611ab28b8b886128d7565b8a600081518110611ac657611ac56138c0565b5b602002602001015173ffffffffffffffffffffffffffffffffffffffff166323b872dd33308c6040518463ffffffff1660e01b8152600401611b0a93929190614023565b6020604051808303816000875af1158015611b29573d6000803e3d6000fd5b505050506040513d601f19601f82011682018060405250810190611b4d9190613893565b508a600081518110611b6257611b616138c0565b5b602002602001015173ffffffffffffffffffffffffffffffffffffffff1663095ea7b3600460009054906101000a900473ffffffffffffffffffffffffffffffffffffffff168b6040518363ffffffff1660e01b8152600401611bc692919061405a565b6020604051808303816000875af1158015611be5573d6000803e3d6000fd5b505050506040513d601f19601f82011682018060405250810190611c099190613893565b506000600360009054906101000a900473ffffffffffffffffffffffffffffffffffffffff1690508073ffffffffffffffffffffffffffffffffffffffff1663f2ae372f348e8e8e8e8e8e8e8e8e8e6040518c63ffffffff1660e01b8152600401611c7d9a99989796959493929190614083565b60206040518083038185885af1158015611c9b573d6000803e3d6000fd5b50505050506040513d601f19601f82011682018060405250810190611cc09190613d6b565b9150509a9950505050505050505050565b61271081565b6000806000905060005b600a80549050811015611e7757600080600080611dbb600a8681548110611d0b57611d0a6138c0565b5b906000526020600020906002020160000160009054906101000a900473ffffffffffffffffffffffffffffffffffffffff16600a8781548110611d5157611d506138c0565b5b906000526020600020906002020160010160009054906101000a900473ffffffffffffffffffffffffffffffffffffffff16600a8881548110611d9757611d966138c0565b5b906000526020600020906002020160010160149054906101000a900460ff16611634565b9450509350935093506000831115611e6057611e52600a8681548110611de457611de36138c0565b5b906000526020600020906002020160000160009054906101000a900473ffffffffffffffffffffffffffffffffffffffff16600a8781548110611e2a57611e296138c0565b5b906000526020600020906002020160010160149054906101000a900460ff1685878686611230565b86611e5d919061391e565b95505b505050508080611e6f90613952565b915050611ce1565b508091505090565b6000806000611e908a87878b61204c565b915091506000600660009054906101000a900473ffffffffffffffffffffffffffffffffffffffff1673ffffffffffffffffffffffffffffffffffffffff1663cc5b81448b89886040518463ffffffff1660e01b8152600401611ef593929190614126565b602060405180830381865afa158015611f12573d6000803e3d6000fd5b505050506040513d601f19601f82011682018060405250810190611f3691906139af565b9050600660009054906101000a900473ffffffffffffffffffffffffffffffffffffffff1673ffffffffffffffffffffffffffffffffffffffff166317bbf25c886040518263ffffffff1660e01b8152600401611f939190612dc6565b602060405180830381865afa158015611fb0573d6000803e3d6000fd5b505050506040513d601f19601f82011682018060405250810190611fd491906139af565b81611fdf919061391e565b905082156120165761200c81611ffe848b61287990919063ffffffff16565b6127dd90919063ffffffff16565b9350505050612041565b61203b8161202d848b6127dd90919063ffffffff16565b6127dd90919063ffffffff16565b93505050505b979650505050505050565b60008060008411612092576040517f08c379a0000000000000000000000000000000000000000000000000000000008152600401612089906141cf565b60405180910390fd5b600083612175576121706127106121626120b8606461271061287990919063ffffffff16565b600660009054906101000a900473ffffffffffffffffffffffffffffffffffffffff1673ffffffffffffffffffffffffffffffffffffffff1663e124e6d28c6040518263ffffffff1660e01b81526004016121139190612e22565b602060405180830381865afa158015612130573d6000803e3d6000fd5b505050506040513d601f19601f8201168201806040525081019061215491906139af565b61271990919063ffffffff16565b61279390919063ffffffff16565b61224d565b61224c61271061223e61219460646127106127dd90919063ffffffff16565b600660009054906101000a900473ffffffffffffffffffffffffffffffffffffffff1673ffffffffffffffffffffffffffffffffffffffff166381a612d68c6040518263ffffffff1660e01b81526004016121ef9190612e22565b602060405180830381865afa15801561220c573d6000803e3d6000fd5b505050506040513d601f19601f8201168201806040525081019061223091906139af565b61271990919063ffffffff16565b61279390919063ffffffff16565b5b905060008186116122705761226b86836127dd90919063ffffffff16565b612284565b61228382876127dd90919063ffffffff16565b5b905060006122ad8761229f848b61271990919063ffffffff16565b61279390919063ffffffff16565b9050600086156122c15787841190506122c7565b83881190505b8082955095505050505094509492505050565b565b60008383836040516020016122f393929190614237565b6040516020818303038152906040528051906020012090509392505050565b600360009054906101000a900473ffffffffffffffffffffffffffffffffffffffff1681565b600a818154811061234857600080fd5b90600052602060002090600202016000915090508060000160009054906101000a900473ffffffffffffffffffffffffffffffffffffffff16908060010160009054906101000a900473ffffffffffffffffffffffffffffffffffffffff16908060010160149054906101000a900460ff16905083565b600080600260009054906101000a900473ffffffffffffffffffffffffffffffffffffffff1673ffffffffffffffffffffffffffffffffffffffff1663d04f246b600760009054906101000a900473ffffffffffffffffffffffffffffffffffffffff166040518263ffffffff1660e01b815260040161243f9190612e22565b602060405180830381865afa15801561245c573d6000803e3d6000fd5b505050506040513d601f19601f8201168201806040525081019061248091906139af565b90506000810361249457600191505061255f565b6000806000806124d389896124b460018c516127dd90919063ffffffff16565b815181106124c5576124c46138c0565b5b602002602001015189611634565b94505093509350935060006124e6610a49565b905060006124f88b8a87898888611230565b90508082101561251257600097505050505050505061255f565b600061254d8861253f61271061253186886127dd90919063ffffffff16565b61271990919063ffffffff16565b61279390919063ffffffff16565b9050612af88111985050505050505050505b9392505050565b61256e612689565b8060088190555050565b600080600260009054906101000a900473ffffffffffffffffffffffffffffffffffffffff1673ffffffffffffffffffffffffffffffffffffffff1663d04f246b600760009054906101000a900473ffffffffffffffffffffffffffffffffffffffff166040518263ffffffff1660e01b81526004016125f89190612e22565b602060405180830381865afa158015612615573d6000803e3d6000fd5b505050506040513d601f19601f8201168201806040525081019061263991906139af565b90506000612645610a49565b90506000820361265a57600092505050612686565b612681826126736127108461271990919063ffffffff16565b61279390919063ffffffff16565b925050505b90565b60008054906101000a900473ffffffffffffffffffffffffffffffffffffffff1673ffffffffffffffffffffffffffffffffffffffff163373ffffffffffffffffffffffffffffffffffffffff1614612717576040517f08c379a000000000000000000000000000000000000000000000000000000000815260040161270e906142c0565b60405180910390fd5b565b600080830361272b576000905061278d565b6000828461273991906142e0565b90508284826127489190614351565b14612788576040517f08c379a000000000000000000000000000000000000000000000000000000000815260040161277f906143f4565b60405180910390fd5b809150505b92915050565b60006127d583836040518060400160405280601a81526020017f536166654d6174683a206469766973696f6e206279207a65726f000000000000815250612b69565b905092915050565b600061281f83836040518060400160405280601e81526020017f536166654d6174683a207375627472616374696f6e206f766572666c6f770000815250612bcc565b905092915050565b61287061283386612c30565b87848688600260009054906101000a900473ffffffffffffffffffffffffffffffffffffffff168760006008546128698f612cd8565b6000612a9a565b50505050505050565b6000808284612888919061391e565b9050838110156128cd576040517f08c379a00000000000000000000000000000000000000000000000000000000081526004016128c490614460565b60405180910390fd5b8091505092915050565b6000836128ef600186516127dd90919063ffffffff16565b81518110612900576128ff6138c0565b5b60200260200101519050600960006129198584866122dc565b815260200190815260200160002060009054906101000a900460ff16612a9457600a60405180606001604052808573ffffffffffffffffffffffffffffffffffffffff1681526020018373ffffffffffffffffffffffffffffffffffffffff168152602001841515815250908060018154018082558091505060019003906000526020600020906002020160009091909190915060008201518160000160006101000a81548173ffffffffffffffffffffffffffffffffffffffff021916908373ffffffffffffffffffffffffffffffffffffffff16021790555060208201518160010160006101000a81548173ffffffffffffffffffffffffffffffffffffffff021916908373ffffffffffffffffffffffffffffffffffffffff16021790555060408201518160010160146101000a81548160ff0219169083151502179055505050600160096000612a6e8685876122dc565b815260200190815260200160002060006101000a81548160ff0219169083151502179055505b50505050565b6000600360009054906101000a900473ffffffffffffffffffffffffffffffffffffffff1673ffffffffffffffffffffffffffffffffffffffff16637be7d141348e8e8e8e8e8e8e8e8e8e8e6040518d63ffffffff1660e01b8152600401612b0c9b9a99989796959493929190614480565b60206040518083038185885af1158015612b2a573d6000803e3d6000fd5b50505050506040513d601f19601f82011682018060405250810190612b4f9190613d6b565b50612b586108f1565b90509b9a5050505050505050505050565b60008083118290612bb0576040517f08c379a0000000000000000000000000000000000000000000000000000000008152600401612ba791906145a0565b60405180910390fd5b5060008385612bbf9190614351565b9050809150509392505050565b6000838311158290612c14576040517f08c379a0000000000000000000000000000000000000000000000000000000008152600401612c0b91906145a0565b60405180910390fd5b5060008385612c2391906145c2565b9050809150509392505050565b60606000600167ffffffffffffffff811115612c4f57612c4e613019565b5b604051908082528060200260200182016040528015612c7d5781602001602082028036833780820191505090505b5090508281600081518110612c9557612c946138c0565b5b602002602001019073ffffffffffffffffffffffffffffffffffffffff16908173ffffffffffffffffffffffffffffffffffffffff168152505080915050919050565b6000600160009054906101000a900473ffffffffffffffffffffffffffffffffffffffff1673ffffffffffffffffffffffffffffffffffffffff168273ffffffffffffffffffffffffffffffffffffffff16149050919050565b60405180610100016040528060008152602001600081526020016000815260200160008152602001600081526020016000815260200160008152602001600081525090565b60008115159050919050565b612d8c81612d77565b82525050565b6000602082019050612da76000830184612d83565b92915050565b6000819050919050565b612dc081612dad565b82525050565b6000602082019050612ddb6000830184612db7565b92915050565b600073ffffffffffffffffffffffffffffffffffffffff82169050919050565b6000612e0c82612de1565b9050919050565b612e1c81612e01565b82525050565b6000602082019050612e376000830184612e13565b92915050565b6000604051905090565b600080fd5b600080fd5b612e5a81612e01565b8114612e6557600080fd5b50565b600081359050612e7781612e51565b92915050565b600060208284031215612e9357612e92612e47565b5b6000612ea184828501612e68565b91505092915050565b612eb381612dad565b8114612ebe57600080fd5b50565b600081359050612ed081612eaa565b92915050565b60008060408385031215612eed57612eec612e47565b5b6000612efb85828601612e68565b9250506020612f0c85828601612ec1565b9150509250929050565b6000819050919050565b612f2981612f16565b82525050565b6000602082019050612f446000830184612f20565b92915050565b612f5381612d77565b8114612f5e57600080fd5b50565b600081359050612f7081612f4a565b92915050565b60008060008060008060c08789031215612f9357612f92612e47565b5b6000612fa189828a01612e68565b9650506020612fb289828a01612f61565b9550506040612fc389828a01612ec1565b9450506060612fd489828a01612ec1565b9350506080612fe589828a01612ec1565b92505060a0612ff689828a01612ec1565b9150509295509295509295565b600080fd5b6000601f19601f8301169050919050565b7f4e487b7100000000000000000000000000000000000000000000000000000000600052604160045260246000fd5b61305182613008565b810181811067ffffffffffffffff821117156130705761306f613019565b5b80604052505050565b6000613083612e3d565b905061308f8282613048565b919050565b600067ffffffffffffffff8211156130af576130ae613019565b5b602082029050602081019050919050565b600080fd5b60006130d86130d384613094565b613079565b905080838252602082019050602084028301858111156130fb576130fa6130c0565b5b835b8181101561312457806131108882612e68565b8452602084019350506020810190506130fd565b5050509392505050565b600082601f83011261314357613142613003565b5b81356131538482602086016130c5565b91505092915050565b61316581612f16565b811461317057600080fd5b50565b6000813590506131828161315c565b92915050565b60008060008060008060008060006101208a8c0312156131ab576131aa612e47565b5b60008a013567ffffffffffffffff8111156131c9576131c8612e4c565b5b6131d58c828d0161312e565b99505060206131e68c828d01612e68565b98505060406131f78c828d01612ec1565b97505060606132088c828d01612ec1565b96505060806132198c828d01612f61565b95505060a061322a8c828d01612ec1565b94505060c061323b8c828d01612ec1565b93505060e061324c8c828d01613173565b92505061010061325e8c828d01612e68565b9150509295985092959850929598565b600081519050919050565b600082825260208201905092915050565b6000819050602082019050919050565b6132a381612e01565b82525050565b6132b281612d77565b82525050565b6060820160008201516132ce600085018261329a565b5060208201516132e1602085018261329a565b5060408201516132f460408501826132a9565b50505050565b600061330683836132b8565b60608301905092915050565b6000602082019050919050565b600061332a8261326e565b6133348185613279565b935061333f8361328a565b8060005b8381101561337057815161335788826132fa565b975061336283613312565b925050600181019050613343565b5085935050505092915050565b60006020820190508181036000830152613397818461331f565b905092915050565b6000806000606084860312156133b8576133b7612e47565b5b60006133c686828701612e68565b93505060206133d786828701612e68565b92505060406133e886828701612f61565b9150509250925092565b600060a0820190506134076000830188612db7565b6134146020830187612db7565b6134216040830186612db7565b61342e6060830185612db7565b61343b6080830184612db7565b9695505050505050565b60008060008060008060008060008060006101608c8e03121561346b5761346a612e47565b5b60008c013567ffffffffffffffff81111561348957613488612e4c565b5b6134958e828f0161312e565b9b505060206134a68e828f01612e68565b9a505060406134b78e828f01612ec1565b99505060606134c88e828f01612ec1565b98505060806134d98e828f01612f61565b97505060a06134ea8e828f01612e68565b96505060c06134fb8e828f01612ec1565b95505060e061350c8e828f01612ec1565b94505061010061351e8e828f01612ec1565b9350506101206135308e828f01612f61565b9250506101406135428e828f01612e68565b9150509295989b509295989b9093969950565b6000806000806000806000806000806101408b8d03121561357957613578612e47565b5b60008b013567ffffffffffffffff81111561359757613596612e4c565b5b6135a38d828e0161312e565b9a505060206135b48d828e01612e68565b99505060406135c58d828e01612ec1565b98505060606135d68d828e01612ec1565b97505060806135e78d828e01612ec1565b96505060a06135f88d828e01612f61565b95505060c06136098d828e01612ec1565b94505060e061361a8d828e01612ec1565b93505061010061362c8d828e01613173565b92505061012061363e8d828e01612e68565b9150509295989b9194979a5092959850565b600080600080600080600060e0888a03121561366f5761366e612e47565b5b600061367d8a828b01612e68565b975050602061368e8a828b01612e68565b965050604061369f8a828b01612f61565b95505060606136b08a828b01612ec1565b94505060806136c18a828b01612ec1565b93505060a06136d28a828b01612ec1565b92505060c06136e38a828b01612ec1565b91505092959891949750929550565b6000806000806080858703121561370c5761370b612e47565b5b600061371a87828801612e68565b945050602061372b87828801612ec1565b935050604061373c87828801612ec1565b925050606061374d87828801612f61565b91505092959194509250565b600060408201905061376e6000830185612d83565b61377b6020830184612db7565b9392505050565b60006020828403121561379857613797612e47565b5b60006137a684828501612ec1565b91505092915050565b60006060820190506137c46000830186612e13565b6137d16020830185612e13565b6137de6040830184612d83565b949350505050565b6000806000606084860312156137ff576137fe612e47565b5b600061380d86828701612e68565b935050602084013567ffffffffffffffff81111561382e5761382d612e4c565b5b61383a8682870161312e565b925050604061384b86828701612f61565b9150509250925092565b600060408201905061386a6000830185612f20565b6138776020830184612e13565b9392505050565b60008151905061388d81612f4a565b92915050565b6000602082840312156138a9576138a8612e47565b5b60006138b78482850161387e565b91505092915050565b7f4e487b7100000000000000000000000000000000000000000000000000000000600052603260045260246000fd5b7f4e487b7100000000000000000000000000000000000000000000000000000000600052601160045260246000fd5b600061392982612dad565b915061393483612dad565b925082820190508082111561394c5761394b6138ef565b5b92915050565b600061395d82612dad565b91507fffffffffffffffffffffffffffffffffffffffffffffffffffffffffffffffff820361398f5761398e6138ef565b5b600182019050919050565b6000815190506139a981612eaa565b92915050565b6000602082840312156139c5576139c4612e47565b5b60006139d38482850161399a565b91505092915050565b600082825260208201905092915050565b7f6865616c746820666163746f7200000000000000000000000000000000000000600082015250565b6000613a23600d836139dc565b9150613a2e826139ed565b602082019050919050565b60006020820190508181036000830152613a5281613a16565b9050919050565b60008160601b9050919050565b6000613a7182613a59565b9050919050565b6000613a8382613a66565b9050919050565b613a9b613a9682612e01565b613a78565b82525050565b6000819050919050565b613abc613ab782612dad565b613aa1565b82525050565b6000613ace8285613a8a565b601482019150613ade8284613aab565b6020820191508190509392505050565b600060a082019050613b036000830188612e13565b613b106020830187612db7565b613b1d6040830186612db7565b613b2a6060830185612d83565b613b376080830184612db7565b9695505050505050565b60008060408385031215613b5857613b57612e47565b5b6000613b668582860161387e565b9250506020613b778582860161399a565b9150509250929050565b7f6f6e6c7920746865206f776e65722063616e2063616c6c20746869732066756e60008201527f6374696f6e000000000000000000000000000000000000000000000000000000602082015250565b6000613bdd6025836139dc565b9150613be882613b81565b604082019050919050565b60006020820190508181036000830152613c0c81613bd0565b9050919050565b600081519050919050565b600082825260208201905092915050565b6000819050602082019050919050565b6000613c4b838361329a565b60208301905092915050565b6000602082019050919050565b6000613c6f82613c13565b613c798185613c1e565b9350613c8483613c2f565b8060005b83811015613cb5578151613c9c8882613c3f565b9750613ca783613c57565b925050600181019050613c88565b5085935050505092915050565b6000610120820190508181036000830152613cdd818c613c64565b9050613cec602083018b612e13565b613cf9604083018a612db7565b613d066060830189612db7565b613d136080830188612d83565b613d2060a0830187612db7565b613d2d60c0830186612db7565b613d3a60e0830185612f20565b613d48610100830184612e13565b9a9950505050505050505050565b600081519050613d658161315c565b92915050565b600060208284031215613d8157613d80612e47565b5b6000613d8f84828501613d56565b91505092915050565b6000608082019050613dad6000830187612e13565b613dba6020830186612e13565b613dc76040830185612e13565b613dd46060830184612d83565b95945050505050565b600080600080600080600080610100898b031215613dfe57613dfd612e47565b5b6000613e0c8b828c0161399a565b9850506020613e1d8b828c0161399a565b9750506040613e2e8b828c0161399a565b9650506060613e3f8b828c0161399a565b9550506080613e508b828c0161399a565b94505060a0613e618b828c0161399a565b93505060c0613e728b828c0161387e565b92505060e0613e838b828c0161399a565b9150509295985092959890939650565b7f6f6e6c7920746865206f776e6572206f7220676f762063616e2063616c6c207460008201527f6869732066756e6374696f6e0000000000000000000000000000000000000000602082015250565b6000613eef602c836139dc565b9150613efa82613e93565b604082019050919050565b60006020820190508181036000830152613f1e81613ee2565b9050919050565b7f6665650000000000000000000000000000000000000000000000000000000000600082015250565b6000613f5b6003836139dc565b9150613f6682613f25565b602082019050919050565b60006020820190508181036000830152613f8a81613f4e565b9050919050565b7f6c6f616e20616d6f756e7420646f6573206e6f74207065726d6974206c69717560008201527f69646174696f6e00000000000000000000000000000000000000000000000000602082015250565b6000613fed6027836139dc565b9150613ff882613f91565b604082019050919050565b6000602082019050818103600083015261401c81613fe0565b9050919050565b60006060820190506140386000830186612e13565b6140456020830185612e13565b6140526040830184612db7565b949350505050565b600060408201905061406f6000830185612e13565b61407c6020830184612db7565b9392505050565b600061014082019050818103600083015261409e818d613c64565b90506140ad602083018c612e13565b6140ba604083018b612db7565b6140c7606083018a612db7565b6140d46080830189612db7565b6140e160a0830188612d83565b6140ee60c0830187612db7565b6140fb60e0830186612db7565b614109610100830185612f20565b614117610120830184612e13565b9b9a5050505050505050505050565b600060608201905061413b6000830186612e13565b6141486020830185612db7565b6141556040830184612db7565b949350505050565b7f617665726765207072696365206f6620706f736974696f6e2068617320746f2060008201527f62652067726561746572207468616e2030000000000000000000000000000000602082015250565b60006141b96031836139dc565b91506141c48261415d565b604082019050919050565b600060208201905081810360008301526141e8816141ac565b9050919050565b60008160f81b9050919050565b6000614207826141ef565b9050919050565b6000614219826141fc565b9050919050565b61423161422c82612d77565b61420e565b82525050565b60006142438286613a8a565b6014820191506142538285613a8a565b6014820191506142638284614220565b600182019150819050949350505050565b7f6f6e6c7920676f762063616e2063616c6c20746869732066756e6374696f6e00600082015250565b60006142aa601f836139dc565b91506142b582614274565b602082019050919050565b600060208201905081810360008301526142d98161429d565b9050919050565b60006142eb82612dad565b91506142f683612dad565b925082820261430481612dad565b9150828204841483151761431b5761431a6138ef565b5b5092915050565b7f4e487b7100000000000000000000000000000000000000000000000000000000600052601260045260246000fd5b600061435c82612dad565b915061436783612dad565b92508261437757614376614322565b5b828204905092915050565b7f536166654d6174683a206d756c7469706c69636174696f6e206f766572666c6f60008201527f7700000000000000000000000000000000000000000000000000000000000000602082015250565b60006143de6021836139dc565b91506143e982614382565b604082019050919050565b6000602082019050818103600083015261440d816143d1565b9050919050565b7f536166654d6174683a206164646974696f6e206f766572666c6f770000000000600082015250565b600061444a601b836139dc565b915061445582614414565b602082019050919050565b600060208201905081810360008301526144798161443d565b9050919050565b600061016082019050818103600083015261449b818e613c64565b90506144aa602083018d612e13565b6144b7604083018c612db7565b6144c4606083018b612db7565b6144d1608083018a612d83565b6144de60a0830189612e13565b6144eb60c0830188612db7565b6144f860e0830187612db7565b614506610100830186612db7565b614514610120830185612d83565b614522610140830184612e13565b9c9b505050505050505050505050565b600081519050919050565b60005b8381101561455b578082015181840152602081019050614540565b60008484015250505050565b600061457282614532565b61457c81856139dc565b935061458c81856020860161453d565b61459581613008565b840191505092915050565b600060208201905081810360008301526145ba8184614567565b905092915050565b60006145cd82612dad565b91506145d883612dad565b92508282039050818111156145f0576145ef6138ef565b5b9291505056fea2646970667358221220365661bf477252006348e8d1ed3d4ca0cfcd997bf29c81d06ace5c72eaf90bcb64736f6c63430008110033","opcodes":"PUSH1 0x80 PUSH1 0x40 MSTORE PUSH1 0x0 PUSH1 0xB SSTORE CALLVALUE DUP1 ISZERO PUSH3 0x16 JUMPI PUSH1 0x0 DUP1 REVERT JUMPDEST POP PUSH1 0x40 MLOAD PUSH3 0x4A85 CODESIZE SUB DUP1 PUSH3 0x4A85 DUP4 CODECOPY DUP2 DUP2 ADD PUSH1 0x40 MSTORE DUP2 ADD SWAP1 PUSH3 0x3C SWAP2 SWAP1 PUSH3 0x352 JUMP JUMPDEST DUP8 PUSH1 0x0 DUP1 PUSH2 0x100 EXP DUP2 SLOAD DUP2 PUSH20 0xFFFFFFFFFFFFFFFFFFFFFFFFFFFFFFFFFFFFFFFF MUL NOT AND SWAP1 DUP4 PUSH20 0xFFFFFFFFFFFFFFFFFFFFFFFFFFFFFFFFFFFFFFFF AND MUL OR SWAP1 SSTORE POP DUP5 PUSH1 0x7 PUSH1 0x0 PUSH2 0x100 EXP DUP2 SLOAD DUP2 PUSH20 0xFFFFFFFFFFFFFFFFFFFFFFFFFFFFFFFFFFFFFFFF MUL NOT AND SWAP1 DUP4 PUSH20 0xFFFFFFFFFFFFFFFFFFFFFFFFFFFFFFFFFFFFFFFF AND MUL OR SWAP1 SSTORE POP DUP7 PUSH1 0x1 PUSH1 0x0 PUSH2 0x100 EXP DUP2 SLOAD DUP2 PUSH20 0xFFFFFFFFFFFFFFFFFFFFFFFFFFFFFFFFFFFFFFFF MUL NOT AND SWAP1 DUP4 PUSH20 0xFFFFFFFFFFFFFFFFFFFFFFFFFFFFFFFFFFFFFFFF AND MUL OR SWAP1 SSTORE POP DUP6 PUSH1 0x2 PUSH1 0x0 PUSH2 0x100 EXP DUP2 SLOAD DUP2 PUSH20 0xFFFFFFFFFFFFFFFFFFFFFFFFFFFFFFFFFFFFFFFF MUL NOT AND SWAP1 DUP4 PUSH20 0xFFFFFFFFFFFFFFFFFFFFFFFFFFFFFFFFFFFFFFFF AND MUL OR SWAP1 SSTORE POP DUP4 PUSH1 0x3 PUSH1 0x0 PUSH2 0x100 EXP DUP2 SLOAD DUP2 PUSH20 0xFFFFFFFFFFFFFFFFFFFFFFFFFFFFFFFFFFFFFFFF MUL NOT AND SWAP1 DUP4 PUSH20 0xFFFFFFFFFFFFFFFFFFFFFFFFFFFFFFFFFFFFFFFF AND MUL OR SWAP1 SSTORE POP DUP3 PUSH1 0x4 PUSH1 0x0 PUSH2 0x100 EXP DUP2 SLOAD DUP2 PUSH20 0xFFFFFFFFFFFFFFFFFFFFFFFFFFFFFFFFFFFFFFFF MUL NOT AND SWAP1 DUP4 PUSH20 0xFFFFFFFFFFFFFFFFFFFFFFFFFFFFFFFFFFFFFFFF AND MUL OR SWAP1 SSTORE POP DUP2 PUSH1 0x5 PUSH1 0x0 PUSH2 0x100 EXP DUP2 SLOAD DUP2 PUSH20 0xFFFFFFFFFFFFFFFFFFFFFFFFFFFFFFFFFFFFFFFF MUL NOT AND SWAP1 DUP4 PUSH20 0xFFFFFFFFFFFFFFFFFFFFFFFFFFFFFFFFFFFFFFFF AND MUL OR SWAP1 SSTORE POP DUP1 PUSH1 0x6 PUSH1 0x0 PUSH2 0x100 EXP DUP2 SLOAD DUP2 PUSH20 0xFFFFFFFFFFFFFFFFFFFFFFFFFFFFFFFFFFFFFFFF MUL NOT AND SWAP1 DUP4 PUSH20 0xFFFFFFFFFFFFFFFFFFFFFFFFFFFFFFFFFFFFFFFF AND MUL OR SWAP1 SSTORE POP PUSH1 0x0 DUP4 SWAP1 POP DUP1 PUSH20 0xFFFFFFFFFFFFFFFFFFFFFFFFFFFFFFFFFFFFFFFF AND PUSH4 0x38C74DD9 PUSH1 0x3 PUSH1 0x0 SWAP1 SLOAD SWAP1 PUSH2 0x100 EXP SWAP1 DIV PUSH20 0xFFFFFFFFFFFFFFFFFFFFFFFFFFFFFFFFFFFFFFFF AND PUSH1 0x40 MLOAD DUP3 PUSH4 0xFFFFFFFF AND PUSH1 0xE0 SHL DUP2 MSTORE PUSH1 0x4 ADD PUSH3 0x2A5 SWAP2 SWAP1 PUSH3 0x42C JUMP JUMPDEST PUSH1 0x0 PUSH1 0x40 MLOAD DUP1 DUP4 SUB DUP2 PUSH1 0x0 DUP8 DUP1 EXTCODESIZE ISZERO DUP1 ISZERO PUSH3 0x2C0 JUMPI PUSH1 0x0 DUP1 REVERT JUMPDEST POP GAS CALL ISZERO DUP1 ISZERO PUSH3 0x2D5 JUMPI RETURNDATASIZE PUSH1 0x0 DUP1 RETURNDATACOPY RETURNDATASIZE PUSH1 0x0 REVERT JUMPDEST POP POP POP POP POP POP POP POP POP POP POP POP POP PUSH3 0x449 JUMP JUMPDEST PUSH1 0x0 DUP1 REVERT JUMPDEST PUSH1 0x0 PUSH20 0xFFFFFFFFFFFFFFFFFFFFFFFFFFFFFFFFFFFFFFFF DUP3 AND SWAP1 POP SWAP2 SWAP1 POP JUMP JUMPDEST PUSH1 0x0 PUSH3 0x31A DUP3 PUSH3 0x2ED JUMP JUMPDEST SWAP1 POP SWAP2 SWAP1 POP JUMP JUMPDEST PUSH3 0x32C DUP2 PUSH3 0x30D JUMP JUMPDEST DUP2 EQ PUSH3 0x338 JUMPI PUSH1 0x0 DUP1 REVERT JUMPDEST POP JUMP JUMPDEST PUSH1 0x0 DUP2 MLOAD SWAP1 POP PUSH3 0x34C DUP2 PUSH3 0x321 JUMP JUMPDEST SWAP3 SWAP2 POP POP JUMP JUMPDEST PUSH1 0x0 DUP1 PUSH1 0x0 DUP1 PUSH1 0x0 DUP1 PUSH1 0x0 DUP1 PUSH2 0x100 DUP10 DUP12 SUB SLT ISZERO PUSH3 0x376 JUMPI PUSH3 0x375 PUSH3 0x2E8 JUMP JUMPDEST JUMPDEST PUSH1 0x0 PUSH3 0x386 DUP12 DUP3 DUP13 ADD PUSH3 0x33B JUMP JUMPDEST SWAP9 POP POP PUSH1 0x20 PUSH3 0x399 DUP12 DUP3 DUP13 ADD PUSH3 0x33B JUMP JUMPDEST SWAP8 POP POP PUSH1 0x40 PUSH3 0x3AC DUP12 DUP3 DUP13 ADD PUSH3 0x33B JUMP JUMPDEST SWAP7 POP POP PUSH1 0x60 PUSH3 0x3BF DUP12 DUP3 DUP13 ADD PUSH3 0x33B JUMP JUMPDEST SWAP6 POP POP PUSH1 0x80 PUSH3 0x3D2 DUP12 DUP3 DUP13 ADD PUSH3 0x33B JUMP JUMPDEST SWAP5 POP POP PUSH1 0xA0 PUSH3 0x3E5 DUP12 DUP3 DUP13 ADD PUSH3 0x33B JUMP JUMPDEST SWAP4 POP POP PUSH1 0xC0 PUSH3 0x3F8 DUP12 DUP3 DUP13 ADD PUSH3 0x33B JUMP JUMPDEST SWAP3 POP POP PUSH1 0xE0 PUSH3 0x40B DUP12 DUP3 DUP13 ADD PUSH3 0x33B JUMP JUMPDEST SWAP2 POP POP SWAP3 SWAP6 SWAP9 POP SWAP3 SWAP6 SWAP9 SWAP1 SWAP4 SWAP7 POP JUMP JUMPDEST PUSH3 0x426 DUP2 PUSH3 0x30D JUMP JUMPDEST DUP3 MSTORE POP POP JUMP JUMPDEST PUSH1 0x0 PUSH1 0x20 DUP3 ADD SWAP1 POP PUSH3 0x443 PUSH1 0x0 DUP4 ADD DUP5 PUSH3 0x41B JUMP JUMPDEST SWAP3 SWAP2 POP POP JUMP JUMPDEST PUSH2 0x462C DUP1 PUSH3 0x459 PUSH1 0x0 CODECOPY PUSH1 0x0 RETURN INVALID PUSH1 0x80 PUSH1 0x40 MSTORE PUSH1 0x4 CALLDATASIZE LT PUSH2 0x225 JUMPI PUSH1 0x0 CALLDATALOAD PUSH1 0xE0 SHR DUP1 PUSH4 0x8C1395F8 GT PUSH2 0x123 JUMPI DUP1 PUSH4 0xBB0498DE GT PUSH2 0xAB JUMPI DUP1 PUSH4 0xD422B00F GT PUSH2 0x6F JUMPI DUP1 PUSH4 0xD422B00F EQ PUSH2 0x7F6 JUMPI DUP1 PUSH4 0xE9F4454D EQ PUSH2 0x821 JUMPI DUP1 PUSH4 0xF8388225 EQ PUSH2 0x860 JUMPI DUP1 PUSH4 0xFC2CEE62 EQ PUSH2 0x89D JUMPI DUP1 PUSH4 0xFFB991B0 EQ PUSH2 0x8C6 JUMPI PUSH2 0x225 JUMP JUMPDEST DUP1 PUSH4 0xBB0498DE EQ PUSH2 0x709 JUMPI DUP1 PUSH4 0xC019BF5E EQ PUSH2 0x734 JUMPI DUP1 PUSH4 0xCA2FC17C EQ PUSH2 0x771 JUMPI DUP1 PUSH4 0xD0E30DB0 EQ PUSH2 0x7AF JUMPI DUP1 PUSH4 0xD3EC0BE9 EQ PUSH2 0x7B9 JUMPI PUSH2 0x225 JUMP JUMPDEST DUP1 PUSH4 0xA0F14034 GT PUSH2 0xF2 JUMPI DUP1 PUSH4 0xA0F14034 EQ PUSH2 0x631 JUMPI DUP1 PUSH4 0xA92EA0E0 EQ PUSH2 0x65A JUMPI DUP1 PUSH4 0xA96E2423 EQ PUSH2 0x685 JUMPI DUP1 PUSH4 0xAF3ED347 EQ PUSH2 0x6AE JUMPI DUP1 PUSH4 0xB5627E42 EQ PUSH2 0x6DE JUMPI PUSH2 0x225 JUMP JUMPDEST DUP1 PUSH4 0x8C1395F8 EQ PUSH2 0x56A JUMPI DUP1 PUSH4 0x8F84AA09 EQ PUSH2 0x5AB JUMPI DUP1 PUSH4 0x937A0E4E EQ PUSH2 0x5D6 JUMPI DUP1 PUSH4 0x9409D870 EQ PUSH2 0x606 JUMPI PUSH2 0x225 JUMP JUMPDEST DUP1 PUSH4 0x584EDF10 GT PUSH2 0x1B1 JUMPI DUP1 PUSH4 0x725BA052 GT PUSH2 0x175 JUMPI DUP1 PUSH4 0x725BA052 EQ PUSH2 0x495 JUMPI DUP1 PUSH4 0x7379DBE6 EQ PUSH2 0x4C0 JUMPI DUP1 PUSH4 0x7809BAAF EQ PUSH2 0x4EB JUMPI DUP1 PUSH4 0x80275860 EQ PUSH2 0x516 JUMPI DUP1 PUSH4 0x871105CC EQ PUSH2 0x541 JUMPI PUSH2 0x225 JUMP JUMPDEST DUP1 PUSH4 0x584EDF10 EQ PUSH2 0x3A9 JUMPI DUP1 PUSH4 0x62F8A3FE EQ PUSH2 0x3C0 JUMPI DUP1 PUSH4 0x63AE2103 EQ PUSH2 0x3FD JUMPI DUP1 PUSH4 0x694C1CBC EQ PUSH2 0x428 JUMPI DUP1 PUSH4 0x6E3990FC EQ PUSH2 0x465 JUMPI PUSH2 0x225 JUMP JUMPDEST DUP1 PUSH4 0x13F2D128 GT PUSH2 0x1F8 JUMPI DUP1 PUSH4 0x13F2D128 EQ PUSH2 0x2D6 JUMPI DUP1 PUSH4 0x3268CC56 EQ PUSH2 0x2FF JUMPI DUP1 PUSH4 0x3BA32DF4 EQ PUSH2 0x32A JUMPI DUP1 PUSH4 0x41CB87FC EQ PUSH2 0x355 JUMPI DUP1 PUSH4 0x4F0E0EF3 EQ PUSH2 0x37E JUMPI PUSH2 0x225 JUMP JUMPDEST DUP1 PUSH4 0x52143E8 EQ PUSH2 0x22A JUMPI DUP1 PUSH4 0x81752BB EQ PUSH2 0x255 JUMPI DUP1 PUSH4 0x126082CF EQ PUSH2 0x280 JUMPI DUP1 PUSH4 0x12D43A51 EQ PUSH2 0x2AB JUMPI JUMPDEST PUSH1 0x0 DUP1 REVERT JUMPDEST CALLVALUE DUP1 ISZERO PUSH2 0x236 JUMPI PUSH1 0x0 DUP1 REVERT JUMPDEST POP PUSH2 0x23F PUSH2 0x8F1 JUMP JUMPDEST PUSH1 0x40 MLOAD PUSH2 0x24C SWAP2 SWAP1 PUSH2 0x2D92 JUMP JUMPDEST PUSH1 0x40 MLOAD DUP1 SWAP2 SUB SWAP1 RETURN JUMPDEST CALLVALUE DUP1 ISZERO PUSH2 0x261 JUMPI PUSH1 0x0 DUP1 REVERT JUMPDEST POP PUSH2 0x26A PUSH2 0x9A8 JUMP JUMPDEST PUSH1 0x40 MLOAD PUSH2 0x277 SWAP2 SWAP1 PUSH2 0x2DC6 JUMP JUMPDEST PUSH1 0x40 MLOAD DUP1 SWAP2 SUB SWAP1 RETURN JUMPDEST CALLVALUE DUP1 ISZERO PUSH2 0x28C JUMPI PUSH1 0x0 DUP1 REVERT JUMPDEST POP PUSH2 0x295 PUSH2 0x9AD JUMP JUMPDEST PUSH1 0x40 MLOAD PUSH2 0x2A2 SWAP2 SWAP1 PUSH2 0x2DC6 JUMP JUMPDEST PUSH1 0x40 MLOAD DUP1 SWAP2 SUB SWAP1 RETURN JUMPDEST CALLVALUE DUP1 ISZERO PUSH2 0x2B7 JUMPI PUSH1 0x0 DUP1 REVERT JUMPDEST POP PUSH2 0x2C0 PUSH2 0x9B3 JUMP JUMPDEST PUSH1 0x40 MLOAD PUSH2 0x2CD SWAP2 SWAP1 PUSH2 0x2E22 JUMP JUMPDEST PUSH1 0x40 MLOAD DUP1 SWAP2 SUB SWAP1 RETURN JUMPDEST CALLVALUE DUP1 ISZERO PUSH2 0x2E2 JUMPI PUSH1 0x0 DUP1 REVERT JUMPDEST POP PUSH2 0x2FD PUSH1 0x4 DUP1 CALLDATASIZE SUB DUP2 ADD SWAP1 PUSH2 0x2F8 SWAP2 SWAP1 PUSH2 0x2E7D JUMP JUMPDEST PUSH2 0x9D7 JUMP JUMPDEST STOP JUMPDEST CALLVALUE DUP1 ISZERO PUSH2 0x30B JUMPI PUSH1 0x0 DUP1 REVERT JUMPDEST POP PUSH2 0x314 PUSH2 0xA23 JUMP JUMPDEST PUSH1 0x40 MLOAD PUSH2 0x321 SWAP2 SWAP1 PUSH2 0x2E22 JUMP JUMPDEST PUSH1 0x40 MLOAD DUP1 SWAP2 SUB SWAP1 RETURN JUMPDEST CALLVALUE DUP1 ISZERO PUSH2 0x336 JUMPI PUSH1 0x0 DUP1 REVERT JUMPDEST POP PUSH2 0x33F PUSH2 0xA49 JUMP JUMPDEST PUSH1 0x40 MLOAD PUSH2 0x34C SWAP2 SWAP1 PUSH2 0x2DC6 JUMP JUMPDEST PUSH1 0x40 MLOAD DUP1 SWAP2 SUB SWAP1 RETURN JUMPDEST CALLVALUE DUP1 ISZERO PUSH2 0x361 JUMPI PUSH1 0x0 DUP1 REVERT JUMPDEST POP PUSH2 0x37C PUSH1 0x4 DUP1 CALLDATASIZE SUB DUP2 ADD SWAP1 PUSH2 0x377 SWAP2 SWAP1 PUSH2 0x2E7D JUMP JUMPDEST PUSH2 0xD58 JUMP JUMPDEST STOP JUMPDEST CALLVALUE DUP1 ISZERO PUSH2 0x38A JUMPI PUSH1 0x0 DUP1 REVERT JUMPDEST POP PUSH2 0x393 PUSH2 0xDA4 JUMP JUMPDEST PUSH1 0x40 MLOAD PUSH2 0x3A0 SWAP2 SWAP1 PUSH2 0x2E22 JUMP JUMPDEST PUSH1 0x40 MLOAD DUP1 SWAP2 SUB SWAP1 RETURN JUMPDEST CALLVALUE DUP1 ISZERO PUSH2 0x3B5 JUMPI PUSH1 0x0 DUP1 REVERT JUMPDEST POP PUSH2 0x3BE PUSH2 0xDCA JUMP JUMPDEST STOP JUMPDEST CALLVALUE DUP1 ISZERO PUSH2 0x3CC JUMPI PUSH1 0x0 DUP1 REVERT JUMPDEST POP PUSH2 0x3E7 PUSH1 0x4 DUP1 CALLDATASIZE SUB DUP2 ADD SWAP1 PUSH2 0x3E2 SWAP2 SWAP1 PUSH2 0x2ED6 JUMP JUMPDEST PUSH2 0x11F7 JUMP JUMPDEST PUSH1 0x40 MLOAD PUSH2 0x3F4 SWAP2 SWAP1 PUSH2 0x2F2F JUMP JUMPDEST PUSH1 0x40 MLOAD DUP1 SWAP2 SUB SWAP1 RETURN JUMPDEST CALLVALUE DUP1 ISZERO PUSH2 0x409 JUMPI PUSH1 0x0 DUP1 REVERT JUMPDEST POP PUSH2 0x412 PUSH2 0x122A JUMP JUMPDEST PUSH1 0x40 MLOAD PUSH2 0x41F SWAP2 SWAP1 PUSH2 0x2DC6 JUMP JUMPDEST PUSH1 0x40 MLOAD DUP1 SWAP2 SUB SWAP1 RETURN JUMPDEST CALLVALUE DUP1 ISZERO PUSH2 0x434 JUMPI PUSH1 0x0 DUP1 REVERT JUMPDEST POP PUSH2 0x44F PUSH1 0x4 DUP1 CALLDATASIZE SUB DUP2 ADD SWAP1 PUSH2 0x44A SWAP2 SWAP1 PUSH2 0x2F76 JUMP JUMPDEST PUSH2 0x1230 JUMP JUMPDEST PUSH1 0x40 MLOAD PUSH2 0x45C SWAP2 SWAP1 PUSH2 0x2DC6 JUMP JUMPDEST PUSH1 0x40 MLOAD DUP1 SWAP2 SUB SWAP1 RETURN JUMPDEST PUSH2 0x47F PUSH1 0x4 DUP1 CALLDATASIZE SUB DUP2 ADD SWAP1 PUSH2 0x47A SWAP2 SWAP1 PUSH2 0x3188 JUMP JUMPDEST PUSH2 0x1330 JUMP JUMPDEST PUSH1 0x40 MLOAD PUSH2 0x48C SWAP2 SWAP1 PUSH2 0x2F2F JUMP JUMPDEST PUSH1 0x40 MLOAD DUP1 SWAP2 SUB SWAP1 RETURN JUMPDEST CALLVALUE DUP1 ISZERO PUSH2 0x4A1 JUMPI PUSH1 0x0 DUP1 REVERT JUMPDEST POP PUSH2 0x4AA PUSH2 0x1491 JUMP JUMPDEST PUSH1 0x40 MLOAD PUSH2 0x4B7 SWAP2 SWAP1 PUSH2 0x2DC6 JUMP JUMPDEST PUSH1 0x40 MLOAD DUP1 SWAP2 SUB SWAP1 RETURN JUMPDEST CALLVALUE DUP1 ISZERO PUSH2 0x4CC JUMPI PUSH1 0x0 DUP1 REVERT JUMPDEST POP PUSH2 0x4D5 PUSH2 0x1497 JUMP JUMPDEST PUSH1 0x40 MLOAD PUSH2 0x4E2 SWAP2 SWAP1 PUSH2 0x2E22 JUMP JUMPDEST PUSH1 0x40 MLOAD DUP1 SWAP2 SUB SWAP1 RETURN JUMPDEST CALLVALUE DUP1 ISZERO PUSH2 0x4F7 JUMPI PUSH1 0x0 DUP1 REVERT JUMPDEST POP PUSH2 0x500 PUSH2 0x14BD JUMP JUMPDEST PUSH1 0x40 MLOAD PUSH2 0x50D SWAP2 SWAP1 PUSH2 0x2DC6 JUMP JUMPDEST PUSH1 0x40 MLOAD DUP1 SWAP2 SUB SWAP1 RETURN JUMPDEST CALLVALUE DUP1 ISZERO PUSH2 0x522 JUMPI PUSH1 0x0 DUP1 REVERT JUMPDEST POP PUSH2 0x52B PUSH2 0x14C2 JUMP JUMPDEST PUSH1 0x40 MLOAD PUSH2 0x538 SWAP2 SWAP1 PUSH2 0x337D JUMP JUMPDEST PUSH1 0x40 MLOAD DUP1 SWAP2 SUB SWAP1 RETURN JUMPDEST CALLVALUE DUP1 ISZERO PUSH2 0x54D JUMPI PUSH1 0x0 DUP1 REVERT JUMPDEST POP PUSH2 0x568 PUSH1 0x4 DUP1 CALLDATASIZE SUB DUP2 ADD SWAP1 PUSH2 0x563 SWAP2 SWAP1 PUSH2 0x2E7D JUMP JUMPDEST PUSH2 0x15E8 JUMP JUMPDEST STOP JUMPDEST CALLVALUE DUP1 ISZERO PUSH2 0x576 JUMPI PUSH1 0x0 DUP1 REVERT JUMPDEST POP PUSH2 0x591 PUSH1 0x4 DUP1 CALLDATASIZE SUB DUP2 ADD SWAP1 PUSH2 0x58C SWAP2 SWAP1 PUSH2 0x339F JUMP JUMPDEST PUSH2 0x1634 JUMP JUMPDEST PUSH1 0x40 MLOAD PUSH2 0x5A2 SWAP6 SWAP5 SWAP4 SWAP3 SWAP2 SWAP1 PUSH2 0x33F2 JUMP JUMPDEST PUSH1 0x40 MLOAD DUP1 SWAP2 SUB SWAP1 RETURN JUMPDEST CALLVALUE DUP1 ISZERO PUSH2 0x5B7 JUMPI PUSH1 0x0 DUP1 REVERT JUMPDEST POP PUSH2 0x5C0 PUSH2 0x174C JUMP JUMPDEST PUSH1 0x40 MLOAD PUSH2 0x5CD SWAP2 SWAP1 PUSH2 0x2E22 JUMP JUMPDEST PUSH1 0x40 MLOAD DUP1 SWAP2 SUB SWAP1 RETURN JUMPDEST PUSH2 0x5F0 PUSH1 0x4 DUP1 CALLDATASIZE SUB DUP2 ADD SWAP1 PUSH2 0x5EB SWAP2 SWAP1 PUSH2 0x3445 JUMP JUMPDEST PUSH2 0x1772 JUMP JUMPDEST PUSH1 0x40 MLOAD PUSH2 0x5FD SWAP2 SWAP1 PUSH2 0x2D92 JUMP JUMPDEST PUSH1 0x40 MLOAD DUP1 SWAP2 SUB SWAP1 RETURN JUMPDEST CALLVALUE DUP1 ISZERO PUSH2 0x612 JUMPI PUSH1 0x0 DUP1 REVERT JUMPDEST POP PUSH2 0x61B PUSH2 0x1931 JUMP JUMPDEST PUSH1 0x40 MLOAD PUSH2 0x628 SWAP2 SWAP1 PUSH2 0x2E22 JUMP JUMPDEST PUSH1 0x40 MLOAD DUP1 SWAP2 SUB SWAP1 RETURN JUMPDEST CALLVALUE DUP1 ISZERO PUSH2 0x63D JUMPI PUSH1 0x0 DUP1 REVERT JUMPDEST POP PUSH2 0x658 PUSH1 0x4 DUP1 CALLDATASIZE SUB DUP2 ADD SWAP1 PUSH2 0x653 SWAP2 SWAP1 PUSH2 0x2E7D JUMP JUMPDEST PUSH2 0x1957 JUMP JUMPDEST STOP JUMPDEST CALLVALUE DUP1 ISZERO PUSH2 0x666 JUMPI PUSH1 0x0 DUP1 REVERT JUMPDEST POP PUSH2 0x66F PUSH2 0x19A3 JUMP JUMPDEST PUSH1 0x40 MLOAD PUSH2 0x67C SWAP2 SWAP1 PUSH2 0x2E22 JUMP JUMPDEST PUSH1 0x40 MLOAD DUP1 SWAP2 SUB SWAP1 RETURN JUMPDEST CALLVALUE DUP1 ISZERO PUSH2 0x691 JUMPI PUSH1 0x0 DUP1 REVERT JUMPDEST POP PUSH2 0x6AC PUSH1 0x4 DUP1 CALLDATASIZE SUB DUP2 ADD SWAP1 PUSH2 0x6A7 SWAP2 SWAP1 PUSH2 0x2E7D JUMP JUMPDEST PUSH2 0x19C9 JUMP JUMPDEST STOP JUMPDEST PUSH2 0x6C8 PUSH1 0x4 DUP1 CALLDATASIZE SUB DUP2 ADD SWAP1 PUSH2 0x6C3 SWAP2 SWAP1 PUSH2 0x3555 JUMP JUMPDEST PUSH2 0x1A15 JUMP JUMPDEST PUSH1 0x40 MLOAD PUSH2 0x6D5 SWAP2 SWAP1 PUSH2 0x2F2F JUMP JUMPDEST PUSH1 0x40 MLOAD DUP1 SWAP2 SUB SWAP1 RETURN JUMPDEST CALLVALUE DUP1 ISZERO PUSH2 0x6EA JUMPI PUSH1 0x0 DUP1 REVERT JUMPDEST POP PUSH2 0x6F3 PUSH2 0x1CD1 JUMP JUMPDEST PUSH1 0x40 MLOAD PUSH2 0x700 SWAP2 SWAP1 PUSH2 0x2DC6 JUMP JUMPDEST PUSH1 0x40 MLOAD DUP1 SWAP2 SUB SWAP1 RETURN JUMPDEST CALLVALUE DUP1 ISZERO PUSH2 0x715 JUMPI PUSH1 0x0 DUP1 REVERT JUMPDEST POP PUSH2 0x71E PUSH2 0x1CD7 JUMP JUMPDEST PUSH1 0x40 MLOAD PUSH2 0x72B SWAP2 SWAP1 PUSH2 0x2DC6 JUMP JUMPDEST PUSH1 0x40 MLOAD DUP1 SWAP2 SUB SWAP1 RETURN JUMPDEST CALLVALUE DUP1 ISZERO PUSH2 0x740 JUMPI PUSH1 0x0 DUP1 REVERT JUMPDEST POP PUSH2 0x75B PUSH1 0x4 DUP1 CALLDATASIZE SUB DUP2 ADD SWAP1 PUSH2 0x756 SWAP2 SWAP1 PUSH2 0x3650 JUMP JUMPDEST PUSH2 0x1E7F JUMP JUMPDEST PUSH1 0x40 MLOAD PUSH2 0x768 SWAP2 SWAP1 PUSH2 0x2DC6 JUMP JUMPDEST PUSH1 0x40 MLOAD DUP1 SWAP2 SUB SWAP1 RETURN JUMPDEST CALLVALUE DUP1 ISZERO PUSH2 0x77D JUMPI PUSH1 0x0 DUP1 REVERT JUMPDEST POP PUSH2 0x798 PUSH1 0x4 DUP1 CALLDATASIZE SUB DUP2 ADD SWAP1 PUSH2 0x793 SWAP2 SWAP1 PUSH2 0x36F2 JUMP JUMPDEST PUSH2 0x204C JUMP JUMPDEST PUSH1 0x40 MLOAD PUSH2 0x7A6 SWAP3 SWAP2 SWAP1 PUSH2 0x3759 JUMP JUMPDEST PUSH1 0x40 MLOAD DUP1 SWAP2 SUB SWAP1 RETURN JUMPDEST PUSH2 0x7B7 PUSH2 0x22DA JUMP JUMPDEST STOP JUMPDEST CALLVALUE DUP1 ISZERO PUSH2 0x7C5 JUMPI PUSH1 0x0 DUP1 REVERT JUMPDEST POP PUSH2 0x7E0 PUSH1 0x4 DUP1 CALLDATASIZE SUB DUP2 ADD SWAP1 PUSH2 0x7DB SWAP2 SWAP1 PUSH2 0x339F JUMP JUMPDEST PUSH2 0x22DC JUMP JUMPDEST PUSH1 0x40 MLOAD PUSH2 0x7ED SWAP2 SWAP1 PUSH2 0x2F2F JUMP JUMPDEST PUSH1 0x40 MLOAD DUP1 SWAP2 SUB SWAP1 RETURN JUMPDEST CALLVALUE DUP1 ISZERO PUSH2 0x802 JUMPI PUSH1 0x0 DUP1 REVERT JUMPDEST POP PUSH2 0x80B PUSH2 0x2312 JUMP JUMPDEST PUSH1 0x40 MLOAD PUSH2 0x818 SWAP2 SWAP1 PUSH2 0x2E22 JUMP JUMPDEST PUSH1 0x40 MLOAD DUP1 SWAP2 SUB SWAP1 RETURN JUMPDEST CALLVALUE DUP1 ISZERO PUSH2 0x82D JUMPI PUSH1 0x0 DUP1 REVERT JUMPDEST POP PUSH2 0x848 PUSH1 0x4 DUP1 CALLDATASIZE SUB DUP2 ADD SWAP1 PUSH2 0x843 SWAP2 SWAP1 PUSH2 0x3782 JUMP JUMPDEST PUSH2 0x2338 JUMP JUMPDEST PUSH1 0x40 MLOAD PUSH2 0x857 SWAP4 SWAP3 SWAP2 SWAP1 PUSH2 0x37AF JUMP JUMPDEST PUSH1 0x40 MLOAD DUP1 SWAP2 SUB SWAP1 RETURN JUMPDEST CALLVALUE DUP1 ISZERO PUSH2 0x86C JUMPI PUSH1 0x0 DUP1 REVERT JUMPDEST POP PUSH2 0x887 PUSH1 0x4 DUP1 CALLDATASIZE SUB DUP2 ADD SWAP1 PUSH2 0x882 SWAP2 SWAP1 PUSH2 0x37E6 JUMP JUMPDEST PUSH2 0x23BF JUMP JUMPDEST PUSH1 0x40 MLOAD PUSH2 0x894 SWAP2 SWAP1 PUSH2 0x2D92 JUMP JUMPDEST PUSH1 0x40 MLOAD DUP1 SWAP2 SUB SWAP1 RETURN JUMPDEST CALLVALUE DUP1 ISZERO PUSH2 0x8A9 JUMPI PUSH1 0x0 DUP1 REVERT JUMPDEST POP PUSH2 0x8C4 PUSH1 0x4 DUP1 CALLDATASIZE SUB DUP2 ADD SWAP1 PUSH2 0x8BF SWAP2 SWAP1 PUSH2 0x3782 JUMP JUMPDEST PUSH2 0x2566 JUMP JUMPDEST STOP JUMPDEST CALLVALUE DUP1 ISZERO PUSH2 0x8D2 JUMPI PUSH1 0x0 DUP1 REVERT JUMPDEST POP PUSH2 0x8DB PUSH2 0x2578 JUMP JUMPDEST PUSH1 0x40 MLOAD PUSH2 0x8E8 SWAP2 SWAP1 PUSH2 0x2DC6 JUMP JUMPDEST PUSH1 0x40 MLOAD DUP1 SWAP2 SUB SWAP1 RETURN JUMPDEST PUSH1 0x0 DUP1 PUSH2 0x900 ADDRESS PUSH1 0xB SLOAD PUSH2 0x11F7 JUMP JUMPDEST SWAP1 POP PUSH1 0x3 PUSH1 0x0 SWAP1 SLOAD SWAP1 PUSH2 0x100 EXP SWAP1 DIV PUSH20 0xFFFFFFFFFFFFFFFFFFFFFFFFFFFFFFFFFFFFFFFF AND PUSH20 0xFFFFFFFFFFFFFFFFFFFFFFFFFFFFFFFFFFFFFFFF AND PUSH4 0xD4D003D DUP3 ADDRESS PUSH1 0x40 MLOAD DUP4 PUSH4 0xFFFFFFFF AND PUSH1 0xE0 SHL DUP2 MSTORE PUSH1 0x4 ADD PUSH2 0x95F SWAP3 SWAP2 SWAP1 PUSH2 0x3855 JUMP JUMPDEST PUSH1 0x20 PUSH1 0x40 MLOAD DUP1 DUP4 SUB DUP2 PUSH1 0x0 DUP8 GAS CALL ISZERO DUP1 ISZERO PUSH2 0x97E JUMPI RETURNDATASIZE PUSH1 0x0 DUP1 RETURNDATACOPY RETURNDATASIZE PUSH1 0x0 REVERT JUMPDEST POP POP POP POP PUSH1 0x40 MLOAD RETURNDATASIZE PUSH1 0x1F NOT PUSH1 0x1F DUP3 ADD AND DUP3 ADD DUP1 PUSH1 0x40 MSTORE POP DUP2 ADD SWAP1 PUSH2 0x9A2 SWAP2 SWAP1 PUSH2 0x3893 JUMP JUMPDEST SWAP2 POP POP SWAP1 JUMP JUMPDEST PUSH1 0x64 DUP2 JUMP JUMPDEST PUSH2 0x2710 DUP2 JUMP JUMPDEST PUSH1 0x0 DUP1 SLOAD SWAP1 PUSH2 0x100 EXP SWAP1 DIV PUSH20 0xFFFFFFFFFFFFFFFFFFFFFFFFFFFFFFFFFFFFFFFF AND DUP2 JUMP JUMPDEST PUSH2 0x9DF PUSH2 0x2689 JUMP JUMPDEST DUP1 PUSH1 0x2 PUSH1 0x0 PUSH2 0x100 EXP DUP2 SLOAD DUP2 PUSH20 0xFFFFFFFFFFFFFFFFFFFFFFFFFFFFFFFFFFFFFFFF MUL NOT AND SWAP1 DUP4 PUSH20 0xFFFFFFFFFFFFFFFFFFFFFFFFFFFFFFFFFFFFFFFF AND MUL OR SWAP1 SSTORE POP POP JUMP JUMPDEST PUSH1 0x4 PUSH1 0x0 SWAP1 SLOAD SWAP1 PUSH2 0x100 EXP SWAP1 DIV PUSH20 0xFFFFFFFFFFFFFFFFFFFFFFFFFFFFFFFFFFFFFFFF AND DUP2 JUMP JUMPDEST PUSH1 0x0 DUP1 PUSH1 0x0 SWAP1 POP PUSH1 0x0 DUP1 JUMPDEST PUSH1 0xA DUP1 SLOAD SWAP1 POP DUP2 LT ISZERO PUSH2 0xC3E JUMPI PUSH1 0x0 DUP1 PUSH1 0x0 DUP1 PUSH2 0xB2E PUSH1 0xA DUP7 DUP2 SLOAD DUP2 LT PUSH2 0xA7E JUMPI PUSH2 0xA7D PUSH2 0x38C0 JUMP JUMPDEST JUMPDEST SWAP1 PUSH1 0x0 MSTORE PUSH1 0x20 PUSH1 0x0 KECCAK256 SWAP1 PUSH1 0x2 MUL ADD PUSH1 0x0 ADD PUSH1 0x0 SWAP1 SLOAD SWAP1 PUSH2 0x100 EXP SWAP1 DIV PUSH20 0xFFFFFFFFFFFFFFFFFFFFFFFFFFFFFFFFFFFFFFFF AND PUSH1 0xA DUP8 DUP2 SLOAD DUP2 LT PUSH2 0xAC4 JUMPI PUSH2 0xAC3 PUSH2 0x38C0 JUMP JUMPDEST JUMPDEST SWAP1 PUSH1 0x0 MSTORE PUSH1 0x20 PUSH1 0x0 KECCAK256 SWAP1 PUSH1 0x2 MUL ADD PUSH1 0x1 ADD PUSH1 0x0 SWAP1 SLOAD SWAP1 PUSH2 0x100 EXP SWAP1 DIV PUSH20 0xFFFFFFFFFFFFFFFFFFFFFFFFFFFFFFFFFFFFFFFF AND PUSH1 0xA DUP9 DUP2 SLOAD DUP2 LT PUSH2 0xB0A JUMPI PUSH2 0xB09 PUSH2 0x38C0 JUMP JUMPDEST JUMPDEST SWAP1 PUSH1 0x0 MSTORE PUSH1 0x20 PUSH1 0x0 KECCAK256 SWAP1 PUSH1 0x2 MUL ADD PUSH1 0x1 ADD PUSH1 0x14 SWAP1 SLOAD SWAP1 PUSH2 0x100 EXP SWAP1 DIV PUSH1 0xFF AND PUSH2 0x1634 JUMP JUMPDEST POP SWAP4 POP SWAP4 POP SWAP4 POP SWAP4 POP PUSH1 0x0 DUP4 GT ISZERO PUSH2 0xC27 JUMPI PUSH2 0xC0B PUSH1 0xA DUP7 DUP2 SLOAD DUP2 LT PUSH2 0xB57 JUMPI PUSH2 0xB56 PUSH2 0x38C0 JUMP JUMPDEST JUMPDEST SWAP1 PUSH1 0x0 MSTORE PUSH1 0x20 PUSH1 0x0 KECCAK256 SWAP1 PUSH1 0x2 MUL ADD PUSH1 0x0 ADD PUSH1 0x0 SWAP1 SLOAD SWAP1 PUSH2 0x100 EXP SWAP1 DIV PUSH20 0xFFFFFFFFFFFFFFFFFFFFFFFFFFFFFFFFFFFFFFFF AND PUSH1 0xA DUP8 DUP2 SLOAD DUP2 LT PUSH2 0xB9D JUMPI PUSH2 0xB9C PUSH2 0x38C0 JUMP JUMPDEST JUMPDEST SWAP1 PUSH1 0x0 MSTORE PUSH1 0x20 PUSH1 0x0 KECCAK256 SWAP1 PUSH1 0x2 MUL ADD PUSH1 0x1 ADD PUSH1 0x0 SWAP1 SLOAD SWAP1 PUSH2 0x100 EXP SWAP1 DIV PUSH20 0xFFFFFFFFFFFFFFFFFFFFFFFFFFFFFFFFFFFFFFFF AND PUSH1 0xA DUP9 DUP2 SLOAD DUP2 LT PUSH2 0xBE3 JUMPI PUSH2 0xBE2 PUSH2 0x38C0 JUMP JUMPDEST JUMPDEST SWAP1 PUSH1 0x0 MSTORE PUSH1 0x20 PUSH1 0x0 KECCAK256 SWAP1 PUSH1 0x2 MUL ADD PUSH1 0x1 ADD PUSH1 0x14 SWAP1 SLOAD SWAP1 PUSH2 0x100 EXP SWAP1 DIV PUSH1 0xFF AND DUP7 DUP9 DUP8 DUP8 PUSH2 0x1E7F JUMP JUMPDEST DUP8 PUSH2 0xC16 SWAP2 SWAP1 PUSH2 0x391E JUMP JUMPDEST SWAP7 POP DUP4 DUP7 PUSH2 0xC24 SWAP2 SWAP1 PUSH2 0x391E JUMP JUMPDEST SWAP6 POP JUMPDEST POP POP POP POP DUP1 DUP1 PUSH2 0xC36 SWAP1 PUSH2 0x3952 JUMP JUMPDEST SWAP2 POP POP PUSH2 0xA54 JUMP JUMPDEST POP PUSH1 0x0 PUSH1 0x2 PUSH1 0x0 SWAP1 SLOAD SWAP1 PUSH2 0x100 EXP SWAP1 DIV PUSH20 0xFFFFFFFFFFFFFFFFFFFFFFFFFFFFFFFFFFFFFFFF AND PUSH20 0xFFFFFFFFFFFFFFFFFFFFFFFFFFFFFFFFFFFFFFFF AND PUSH4 0xDB1E4FF8 PUSH1 0x7 PUSH1 0x0 SWAP1 SLOAD SWAP1 PUSH2 0x100 EXP SWAP1 DIV PUSH20 0xFFFFFFFFFFFFFFFFFFFFFFFFFFFFFFFFFFFFFFFF AND PUSH1 0x40 MLOAD DUP3 PUSH4 0xFFFFFFFF AND PUSH1 0xE0 SHL DUP2 MSTORE PUSH1 0x4 ADD PUSH2 0xCBE SWAP2 SWAP1 PUSH2 0x2E22 JUMP JUMPDEST PUSH1 0x20 PUSH1 0x40 MLOAD DUP1 DUP4 SUB DUP2 DUP7 GAS STATICCALL ISZERO DUP1 ISZERO PUSH2 0xCDB JUMPI RETURNDATASIZE PUSH1 0x0 DUP1 RETURNDATACOPY RETURNDATASIZE PUSH1 0x0 REVERT JUMPDEST POP POP POP POP PUSH1 0x40 MLOAD RETURNDATASIZE PUSH1 0x1F NOT PUSH1 0x1F DUP3 ADD AND DUP3 ADD DUP1 PUSH1 0x40 MSTORE POP DUP2 ADD SWAP1 PUSH2 0xCFF SWAP2 SWAP1 PUSH2 0x39AF JUMP JUMPDEST SWAP1 POP PUSH2 0xD4D DUP2 PUSH2 0xD3F PUSH2 0xD30 PUSH2 0x2710 PUSH2 0xD22 PUSH1 0x64 DUP9 PUSH2 0x2719 SWAP1 SWAP2 SWAP1 PUSH4 0xFFFFFFFF AND JUMP JUMPDEST PUSH2 0x2793 SWAP1 SWAP2 SWAP1 PUSH4 0xFFFFFFFF AND JUMP JUMPDEST DUP7 PUSH2 0x27DD SWAP1 SWAP2 SWAP1 PUSH4 0xFFFFFFFF AND JUMP JUMPDEST PUSH2 0x27DD SWAP1 SWAP2 SWAP1 PUSH4 0xFFFFFFFF AND JUMP JUMPDEST SWAP3 POP DUP3 SWAP4 POP POP POP POP SWAP1 JUMP JUMPDEST PUSH2 0xD60 PUSH2 0x2689 JUMP JUMPDEST DUP1 PUSH1 0x4 PUSH1 0x0 PUSH2 0x100 EXP DUP2 SLOAD DUP2 PUSH20 0xFFFFFFFFFFFFFFFFFFFFFFFFFFFFFFFFFFFFFFFF MUL NOT AND SWAP1 DUP4 PUSH20 0xFFFFFFFFFFFFFFFFFFFFFFFFFFFFFFFFFFFFFFFF AND MUL OR SWAP1 SSTORE POP POP JUMP JUMPDEST PUSH1 0x1 PUSH1 0x0 SWAP1 SLOAD SWAP1 PUSH2 0x100 EXP SWAP1 DIV PUSH20 0xFFFFFFFFFFFFFFFFFFFFFFFFFFFFFFFFFFFFFFFF AND DUP2 JUMP JUMPDEST PUSH1 0x0 PUSH2 0xDD4 PUSH2 0x2578 JUMP JUMPDEST SWAP1 POP PUSH2 0x2710 DUP2 LT PUSH2 0xE1A JUMPI PUSH1 0x40 MLOAD PUSH32 0x8C379A000000000000000000000000000000000000000000000000000000000 DUP2 MSTORE PUSH1 0x4 ADD PUSH2 0xE11 SWAP1 PUSH2 0x3A39 JUMP JUMPDEST PUSH1 0x40 MLOAD DUP1 SWAP2 SUB SWAP1 REVERT JUMPDEST PUSH1 0x0 JUMPDEST PUSH1 0xA DUP1 SLOAD SWAP1 POP DUP2 LT ISZERO PUSH2 0x11F3 JUMPI PUSH1 0x0 DUP1 PUSH1 0x0 DUP1 PUSH2 0xEF7 PUSH1 0xA DUP7 DUP2 SLOAD DUP2 LT PUSH2 0xE47 JUMPI PUSH2 0xE46 PUSH2 0x38C0 JUMP JUMPDEST JUMPDEST SWAP1 PUSH1 0x0 MSTORE PUSH1 0x20 PUSH1 0x0 KECCAK256 SWAP1 PUSH1 0x2 MUL ADD PUSH1 0x0 ADD PUSH1 0x0 SWAP1 SLOAD SWAP1 PUSH2 0x100 EXP SWAP1 DIV PUSH20 0xFFFFFFFFFFFFFFFFFFFFFFFFFFFFFFFFFFFFFFFF AND PUSH1 0xA DUP8 DUP2 SLOAD DUP2 LT PUSH2 0xE8D JUMPI PUSH2 0xE8C PUSH2 0x38C0 JUMP JUMPDEST JUMPDEST SWAP1 PUSH1 0x0 MSTORE PUSH1 0x20 PUSH1 0x0 KECCAK256 SWAP1 PUSH1 0x2 MUL ADD PUSH1 0x1 ADD PUSH1 0x0 SWAP1 SLOAD SWAP1 PUSH2 0x100 EXP SWAP1 DIV PUSH20 0xFFFFFFFFFFFFFFFFFFFFFFFFFFFFFFFFFFFFFFFF AND PUSH1 0xA DUP9 DUP2 SLOAD DUP2 LT PUSH2 0xED3 JUMPI PUSH2 0xED2 PUSH2 0x38C0 JUMP JUMPDEST JUMPDEST SWAP1 PUSH1 0x0 MSTORE PUSH1 0x20 PUSH1 0x0 KECCAK256 SWAP1 PUSH1 0x2 MUL ADD PUSH1 0x1 ADD PUSH1 0x14 SWAP1 SLOAD SWAP1 PUSH2 0x100 EXP SWAP1 DIV PUSH1 0xFF AND PUSH2 0x1634 JUMP JUMPDEST POP SWAP4 POP SWAP4 POP SWAP4 POP SWAP4 POP PUSH1 0x0 DUP4 GT ISZERO PUSH2 0x11DC JUMPI PUSH1 0x0 PUSH2 0xFD6 PUSH1 0xA DUP8 DUP2 SLOAD DUP2 LT PUSH2 0xF22 JUMPI PUSH2 0xF21 PUSH2 0x38C0 JUMP JUMPDEST JUMPDEST SWAP1 PUSH1 0x0 MSTORE PUSH1 0x20 PUSH1 0x0 KECCAK256 SWAP1 PUSH1 0x2 MUL ADD PUSH1 0x0 ADD PUSH1 0x0 SWAP1 SLOAD SWAP1 PUSH2 0x100 EXP SWAP1 DIV PUSH20 0xFFFFFFFFFFFFFFFFFFFFFFFFFFFFFFFFFFFFFFFF AND PUSH1 0xA DUP9 DUP2 SLOAD DUP2 LT PUSH2 0xF68 JUMPI PUSH2 0xF67 PUSH2 0x38C0 JUMP JUMPDEST JUMPDEST SWAP1 PUSH1 0x0 MSTORE PUSH1 0x20 PUSH1 0x0 KECCAK256 SWAP1 PUSH1 0x2 MUL ADD PUSH1 0x1 ADD PUSH1 0x0 SWAP1 SLOAD SWAP1 PUSH2 0x100 EXP SWAP1 DIV PUSH20 0xFFFFFFFFFFFFFFFFFFFFFFFFFFFFFFFFFFFFFFFF AND PUSH1 0xA DUP10 DUP2 SLOAD DUP2 LT PUSH2 0xFAE JUMPI PUSH2 0xFAD PUSH2 0x38C0 JUMP JUMPDEST JUMPDEST SWAP1 PUSH1 0x0 MSTORE PUSH1 0x20 PUSH1 0x0 KECCAK256 SWAP1 PUSH1 0x2 MUL ADD PUSH1 0x1 ADD PUSH1 0x14 SWAP1 SLOAD SWAP1 PUSH2 0x100 EXP SWAP1 DIV PUSH1 0xFF AND DUP8 DUP10 DUP9 DUP9 PUSH2 0x1E7F JUMP JUMPDEST SWAP1 POP PUSH1 0x0 PUSH1 0xA DUP8 DUP2 SLOAD DUP2 LT PUSH2 0xFEE JUMPI PUSH2 0xFED PUSH2 0x38C0 JUMP JUMPDEST JUMPDEST SWAP1 PUSH1 0x0 MSTORE PUSH1 0x20 PUSH1 0x0 KECCAK256 SWAP1 PUSH1 0x2 MUL ADD PUSH1 0x1 ADD PUSH1 0x14 SWAP1 SLOAD SWAP1 PUSH2 0x100 EXP SWAP1 DIV PUSH1 0xFF AND PUSH2 0x110A JUMPI PUSH2 0x1105 PUSH1 0x2 PUSH1 0x6 PUSH1 0x0 SWAP1 SLOAD SWAP1 PUSH2 0x100 EXP SWAP1 DIV PUSH20 0xFFFFFFFFFFFFFFFFFFFFFFFFFFFFFFFFFFFFFFFF AND PUSH20 0xFFFFFFFFFFFFFFFFFFFFFFFFFFFFFFFFFFFFFFFF AND PUSH4 0xE124E6D2 PUSH1 0xA DUP12 DUP2 SLOAD DUP2 LT PUSH2 0x1068 JUMPI PUSH2 0x1067 PUSH2 0x38C0 JUMP JUMPDEST JUMPDEST SWAP1 PUSH1 0x0 MSTORE PUSH1 0x20 PUSH1 0x0 KECCAK256 SWAP1 PUSH1 0x2 MUL ADD PUSH1 0x0 ADD PUSH1 0x0 SWAP1 SLOAD SWAP1 PUSH2 0x100 EXP SWAP1 DIV PUSH20 0xFFFFFFFFFFFFFFFFFFFFFFFFFFFFFFFFFFFFFFFF AND PUSH1 0x40 MLOAD DUP3 PUSH4 0xFFFFFFFF AND PUSH1 0xE0 SHL DUP2 MSTORE PUSH1 0x4 ADD PUSH2 0x10B6 SWAP2 SWAP1 PUSH2 0x2E22 JUMP JUMPDEST PUSH1 0x20 PUSH1 0x40 MLOAD DUP1 DUP4 SUB DUP2 DUP7 GAS STATICCALL ISZERO DUP1 ISZERO PUSH2 0x10D3 JUMPI RETURNDATASIZE PUSH1 0x0 DUP1 RETURNDATACOPY RETURNDATASIZE PUSH1 0x0 REVERT JUMPDEST POP POP POP POP PUSH1 0x40 MLOAD RETURNDATASIZE PUSH1 0x1F NOT PUSH1 0x1F DUP3 ADD AND DUP3 ADD DUP1 PUSH1 0x40 MSTORE POP DUP2 ADD SWAP1 PUSH2 0x10F7 SWAP2 SWAP1 PUSH2 0x39AF JUMP JUMPDEST PUSH2 0x2719 SWAP1 SWAP2 SWAP1 PUSH4 0xFFFFFFFF AND JUMP JUMPDEST PUSH2 0x110D JUMP JUMPDEST PUSH1 0x0 JUMPDEST SWAP1 POP PUSH2 0x11D9 PUSH1 0xA DUP9 DUP2 SLOAD DUP2 LT PUSH2 0x1126 JUMPI PUSH2 0x1125 PUSH2 0x38C0 JUMP JUMPDEST JUMPDEST SWAP1 PUSH1 0x0 MSTORE PUSH1 0x20 PUSH1 0x0 KECCAK256 SWAP1 PUSH1 0x2 MUL ADD PUSH1 0x0 ADD PUSH1 0x0 SWAP1 SLOAD SWAP1 PUSH2 0x100 EXP SWAP1 DIV PUSH20 0xFFFFFFFFFFFFFFFFFFFFFFFFFFFFFFFFFFFFFFFF AND PUSH1 0xA DUP10 DUP2 SLOAD DUP2 LT PUSH2 0x116C JUMPI PUSH2 0x116B PUSH2 0x38C0 JUMP JUMPDEST JUMPDEST SWAP1 PUSH1 0x0 MSTORE PUSH1 0x20 PUSH1 0x0 KECCAK256 SWAP1 PUSH1 0x2 MUL ADD PUSH1 0x1 ADD PUSH1 0x0 SWAP1 SLOAD SWAP1 PUSH2 0x100 EXP SWAP1 DIV PUSH20 0xFFFFFFFFFFFFFFFFFFFFFFFFFFFFFFFFFFFFFFFF AND PUSH1 0xA DUP11 DUP2 SLOAD DUP2 LT PUSH2 0x11B2 JUMPI PUSH2 0x11B1 PUSH2 0x38C0 JUMP JUMPDEST JUMPDEST SWAP1 PUSH1 0x0 MSTORE PUSH1 0x20 PUSH1 0x0 KECCAK256 SWAP1 PUSH1 0x2 MUL ADD PUSH1 0x1 ADD PUSH1 0x14 SWAP1 SLOAD SWAP1 PUSH2 0x100 EXP SWAP1 DIV PUSH1 0xFF AND DUP10 DUP7 DUP7 PUSH2 0x2827 JUMP JUMPDEST POP POP JUMPDEST POP POP POP POP DUP1 DUP1 PUSH2 0x11EB SWAP1 PUSH2 0x3952 JUMP JUMPDEST SWAP2 POP POP PUSH2 0xE1D JUMP JUMPDEST POP POP JUMP JUMPDEST PUSH1 0x0 DUP3 DUP3 PUSH1 0x40 MLOAD PUSH1 0x20 ADD PUSH2 0x120C SWAP3 SWAP2 SWAP1 PUSH2 0x3AC2 JUMP JUMPDEST PUSH1 0x40 MLOAD PUSH1 0x20 DUP2 DUP4 SUB SUB DUP2 MSTORE SWAP1 PUSH1 0x40 MSTORE DUP1 MLOAD SWAP1 PUSH1 0x20 ADD KECCAK256 SWAP1 POP SWAP3 SWAP2 POP POP JUMP JUMPDEST PUSH1 0x8 SLOAD DUP2 JUMP JUMPDEST PUSH1 0x0 DUP1 DUP6 SUB PUSH2 0x1242 JUMPI PUSH1 0x0 SWAP1 POP PUSH2 0x1326 JUMP JUMPDEST PUSH1 0x0 DUP1 PUSH1 0x6 PUSH1 0x0 SWAP1 SLOAD SWAP1 PUSH2 0x100 EXP SWAP1 DIV PUSH20 0xFFFFFFFFFFFFFFFFFFFFFFFFFFFFFFFFFFFFFFFF AND PUSH20 0xFFFFFFFFFFFFFFFFFFFFFFFFFFFFFFFFFFFFFFFF AND PUSH4 0x5C07EAAB DUP11 DUP9 DUP9 DUP13 DUP10 PUSH1 0x40 MLOAD DUP7 PUSH4 0xFFFFFFFF AND PUSH1 0xE0 SHL DUP2 MSTORE PUSH1 0x4 ADD PUSH2 0x12A8 SWAP6 SWAP5 SWAP4 SWAP3 SWAP2 SWAP1 PUSH2 0x3AEE JUMP JUMPDEST PUSH1 0x40 DUP1 MLOAD DUP1 DUP4 SUB DUP2 DUP7 GAS STATICCALL ISZERO DUP1 ISZERO PUSH2 0x12C4 JUMPI RETURNDATASIZE PUSH1 0x0 DUP1 RETURNDATACOPY RETURNDATASIZE PUSH1 0x0 REVERT JUMPDEST POP POP POP POP PUSH1 0x40 MLOAD RETURNDATASIZE PUSH1 0x1F NOT PUSH1 0x1F DUP3 ADD AND DUP3 ADD DUP1 PUSH1 0x40 MSTORE POP DUP2 ADD SWAP1 PUSH2 0x12E8 SWAP2 SWAP1 PUSH2 0x3B41 JUMP JUMPDEST SWAP2 POP SWAP2 POP DUP2 ISZERO PUSH2 0x130E JUMPI PUSH2 0x1305 DUP2 DUP9 PUSH2 0x2879 SWAP1 SWAP2 SWAP1 PUSH4 0xFFFFFFFF AND JUMP JUMPDEST SWAP3 POP POP POP PUSH2 0x1326 JUMP JUMPDEST PUSH2 0x1321 DUP2 DUP9 PUSH2 0x27DD SWAP1 SWAP2 SWAP1 PUSH4 0xFFFFFFFF AND JUMP JUMPDEST SWAP3 POP POP POP JUMPDEST SWAP7 SWAP6 POP POP POP POP POP POP JUMP JUMPDEST PUSH1 0x0 PUSH1 0x7 PUSH1 0x0 SWAP1 SLOAD SWAP1 PUSH2 0x100 EXP SWAP1 DIV PUSH20 0xFFFFFFFFFFFFFFFFFFFFFFFFFFFFFFFFFFFFFFFF AND PUSH20 0xFFFFFFFFFFFFFFFFFFFFFFFFFFFFFFFFFFFFFFFF AND CALLER PUSH20 0xFFFFFFFFFFFFFFFFFFFFFFFFFFFFFFFFFFFFFFFF AND EQ PUSH2 0x13C2 JUMPI PUSH1 0x40 MLOAD PUSH32 0x8C379A000000000000000000000000000000000000000000000000000000000 DUP2 MSTORE PUSH1 0x4 ADD PUSH2 0x13B9 SWAP1 PUSH2 0x3BF3 JUMP JUMPDEST PUSH1 0x40 MLOAD DUP1 SWAP2 SUB SWAP1 REVERT JUMPDEST PUSH2 0x13CD DUP11 DUP11 DUP9 PUSH2 0x28D7 JUMP JUMPDEST PUSH1 0x0 PUSH1 0x3 PUSH1 0x0 SWAP1 SLOAD SWAP1 PUSH2 0x100 EXP SWAP1 DIV PUSH20 0xFFFFFFFFFFFFFFFFFFFFFFFFFFFFFFFFFFFFFFFF AND SWAP1 POP DUP1 PUSH20 0xFFFFFFFFFFFFFFFFFFFFFFFFFFFFFFFFFFFFFFFF AND PUSH4 0x5B88E8C6 CALLVALUE DUP14 DUP14 DUP14 DUP14 DUP14 DUP14 DUP14 DUP14 DUP14 PUSH1 0x40 MLOAD DUP12 PUSH4 0xFFFFFFFF AND PUSH1 0xE0 SHL DUP2 MSTORE PUSH1 0x4 ADD PUSH2 0x143E SWAP10 SWAP9 SWAP8 SWAP7 SWAP6 SWAP5 SWAP4 SWAP3 SWAP2 SWAP1 PUSH2 0x3CC2 JUMP JUMPDEST PUSH1 0x20 PUSH1 0x40 MLOAD DUP1 DUP4 SUB DUP2 DUP6 DUP9 GAS CALL ISZERO DUP1 ISZERO PUSH2 0x145C JUMPI RETURNDATASIZE PUSH1 0x0 DUP1 RETURNDATACOPY RETURNDATASIZE PUSH1 0x0 REVERT JUMPDEST POP POP POP POP POP PUSH1 0x40 MLOAD RETURNDATASIZE PUSH1 0x1F NOT PUSH1 0x1F DUP3 ADD AND DUP3 ADD DUP1 PUSH1 0x40 MSTORE POP DUP2 ADD SWAP1 PUSH2 0x1481 SWAP2 SWAP1 PUSH2 0x3D6B JUMP JUMPDEST SWAP2 POP POP SWAP10 SWAP9 POP POP POP POP POP POP POP POP POP JUMP JUMPDEST PUSH2 0x2AF8 DUP2 JUMP JUMPDEST PUSH1 0x2 PUSH1 0x0 SWAP1 SLOAD SWAP1 PUSH2 0x100 EXP SWAP1 DIV PUSH20 0xFFFFFFFFFFFFFFFFFFFFFFFFFFFFFFFFFFFFFFFF AND DUP2 JUMP JUMPDEST PUSH1 0x64 DUP2 JUMP JUMPDEST PUSH1 0x60 PUSH1 0xA DUP1 SLOAD DUP1 PUSH1 0x20 MUL PUSH1 0x20 ADD PUSH1 0x40 MLOAD SWAP1 DUP2 ADD PUSH1 0x40 MSTORE DUP1 SWAP3 SWAP2 SWAP1 DUP2 DUP2 MSTORE PUSH1 0x20 ADD PUSH1 0x0 SWAP1 JUMPDEST DUP3 DUP3 LT ISZERO PUSH2 0x15DF JUMPI DUP4 DUP3 SWAP1 PUSH1 0x0 MSTORE PUSH1 0x20 PUSH1 0x0 KECCAK256 SWAP1 PUSH1 0x2 MUL ADD PUSH1 0x40 MLOAD DUP1 PUSH1 0x60 ADD PUSH1 0x40 MSTORE SWAP1 DUP2 PUSH1 0x0 DUP3 ADD PUSH1 0x0 SWAP1 SLOAD SWAP1 PUSH2 0x100 EXP SWAP1 DIV PUSH20 0xFFFFFFFFFFFFFFFFFFFFFFFFFFFFFFFFFFFFFFFF AND PUSH20 0xFFFFFFFFFFFFFFFFFFFFFFFFFFFFFFFFFFFFFFFF AND PUSH20 0xFFFFFFFFFFFFFFFFFFFFFFFFFFFFFFFFFFFFFFFF AND DUP2 MSTORE PUSH1 0x20 ADD PUSH1 0x1 DUP3 ADD PUSH1 0x0 SWAP1 SLOAD SWAP1 PUSH2 0x100 EXP SWAP1 DIV PUSH20 0xFFFFFFFFFFFFFFFFFFFFFFFFFFFFFFFFFFFFFFFF AND PUSH20 0xFFFFFFFFFFFFFFFFFFFFFFFFFFFFFFFFFFFFFFFF AND PUSH20 0xFFFFFFFFFFFFFFFFFFFFFFFFFFFFFFFFFFFFFFFF AND DUP2 MSTORE PUSH1 0x20 ADD PUSH1 0x1 DUP3 ADD PUSH1 0x14 SWAP1 SLOAD SWAP1 PUSH2 0x100 EXP SWAP1 DIV PUSH1 0xFF AND ISZERO ISZERO ISZERO ISZERO DUP2 MSTORE POP POP DUP2 MSTORE PUSH1 0x20 ADD SWAP1 PUSH1 0x1 ADD SWAP1 PUSH2 0x14E6 JUMP JUMPDEST POP POP POP POP SWAP1 POP SWAP1 JUMP JUMPDEST PUSH2 0x15F0 PUSH2 0x2689 JUMP JUMPDEST DUP1 PUSH1 0x6 PUSH1 0x0 PUSH2 0x100 EXP DUP2 SLOAD DUP2 PUSH20 0xFFFFFFFFFFFFFFFFFFFFFFFFFFFFFFFFFFFFFFFF MUL NOT AND SWAP1 DUP4 PUSH20 0xFFFFFFFFFFFFFFFFFFFFFFFFFFFFFFFFFFFFFFFF AND MUL OR SWAP1 SSTORE POP POP JUMP JUMPDEST PUSH1 0x0 DUP1 PUSH1 0x0 DUP1 PUSH1 0x0 PUSH2 0x1644 PUSH2 0x2D32 JUMP JUMPDEST PUSH1 0x6 PUSH1 0x0 SWAP1 SLOAD SWAP1 PUSH2 0x100 EXP SWAP1 DIV PUSH20 0xFFFFFFFFFFFFFFFFFFFFFFFFFFFFFFFFFFFFFFFF AND PUSH20 0xFFFFFFFFFFFFFFFFFFFFFFFFFFFFFFFFFFFFFFFF AND PUSH4 0x4A3F088D ADDRESS DUP11 DUP13 DUP12 PUSH1 0x40 MLOAD DUP6 PUSH4 0xFFFFFFFF AND PUSH1 0xE0 SHL DUP2 MSTORE PUSH1 0x4 ADD PUSH2 0x16A5 SWAP5 SWAP4 SWAP3 SWAP2 SWAP1 PUSH2 0x3D98 JUMP JUMPDEST PUSH2 0x100 PUSH1 0x40 MLOAD DUP1 DUP4 SUB DUP2 DUP7 GAS STATICCALL ISZERO DUP1 ISZERO PUSH2 0x16C3 JUMPI RETURNDATASIZE PUSH1 0x0 DUP1 RETURNDATACOPY RETURNDATASIZE PUSH1 0x0 REVERT JUMPDEST POP POP POP POP PUSH1 0x40 MLOAD RETURNDATASIZE PUSH1 0x1F NOT PUSH1 0x1F DUP3 ADD AND DUP3 ADD DUP1 PUSH1 0x40 MSTORE POP DUP2 ADD SWAP1 PUSH2 0x16E7 SWAP2 SWAP1 PUSH2 0x3DDD JUMP JUMPDEST SWAP1 SWAP2 SWAP3 POP SWAP1 SWAP2 POP SWAP1 POP DUP6 PUSH1 0x0 ADD DUP7 PUSH1 0x20 ADD DUP8 PUSH1 0x40 ADD DUP9 PUSH1 0x60 ADD DUP10 PUSH1 0xC0 ADD DUP6 DUP2 MSTORE POP DUP6 DUP2 MSTORE POP DUP6 DUP2 MSTORE POP DUP6 DUP2 MSTORE POP DUP6 DUP2 MSTORE POP POP POP POP POP POP DUP1 PUSH1 0x0 ADD MLOAD DUP2 PUSH1 0x20 ADD MLOAD DUP3 PUSH1 0x40 ADD MLOAD DUP4 PUSH1 0x60 ADD MLOAD DUP5 PUSH1 0xC0 ADD MLOAD SWAP6 POP SWAP6 POP SWAP6 POP SWAP6 POP SWAP6 POP POP SWAP4 SWAP8 SWAP3 SWAP7 POP SWAP4 POP SWAP4 POP JUMP JUMPDEST PUSH1 0x7 PUSH1 0x0 SWAP1 SLOAD SWAP1 PUSH2 0x100 EXP SWAP1 DIV PUSH20 0xFFFFFFFFFFFFFFFFFFFFFFFFFFFFFFFFFFFFFFFF AND DUP2 JUMP JUMPDEST PUSH1 0x0 PUSH1 0x7 PUSH1 0x0 SWAP1 SLOAD SWAP1 PUSH2 0x100 EXP SWAP1 DIV PUSH20 0xFFFFFFFFFFFFFFFFFFFFFFFFFFFFFFFFFFFFFFFF AND PUSH20 0xFFFFFFFFFFFFFFFFFFFFFFFFFFFFFFFFFFFFFFFF AND CALLER PUSH20 0xFFFFFFFFFFFFFFFFFFFFFFFFFFFFFFFFFFFFFFFF AND EQ DUP1 PUSH2 0x181D JUMPI POP PUSH1 0x2 PUSH1 0x0 SWAP1 SLOAD SWAP1 PUSH2 0x100 EXP SWAP1 DIV PUSH20 0xFFFFFFFFFFFFFFFFFFFFFFFFFFFFFFFFFFFFFFFF AND PUSH20 0xFFFFFFFFFFFFFFFFFFFFFFFFFFFFFFFFFFFFFFFF AND CALLER PUSH20 0xFFFFFFFFFFFFFFFFFFFFFFFFFFFFFFFFFFFFFFFF AND EQ JUMPDEST PUSH2 0x185C JUMPI PUSH1 0x40 MLOAD PUSH32 0x8C379A000000000000000000000000000000000000000000000000000000000 DUP2 MSTORE PUSH1 0x4 ADD PUSH2 0x1853 SWAP1 PUSH2 0x3F05 JUMP JUMPDEST PUSH1 0x40 MLOAD DUP1 SWAP2 SUB SWAP1 REVERT JUMPDEST DUP4 CALLVALUE EQ PUSH2 0x189E JUMPI PUSH1 0x40 MLOAD PUSH32 0x8C379A000000000000000000000000000000000000000000000000000000000 DUP2 MSTORE PUSH1 0x4 ADD PUSH2 0x1895 SWAP1 PUSH2 0x3F71 JUMP JUMPDEST PUSH1 0x40 MLOAD DUP1 SWAP2 SUB SWAP1 REVERT JUMPDEST PUSH2 0x18A9 DUP12 DUP14 DUP11 PUSH2 0x23BF JUMP JUMPDEST PUSH2 0x18E8 JUMPI PUSH1 0x40 MLOAD PUSH32 0x8C379A000000000000000000000000000000000000000000000000000000000 DUP2 MSTORE PUSH1 0x4 ADD PUSH2 0x18DF SWAP1 PUSH2 0x4003 JUMP JUMPDEST PUSH1 0x40 MLOAD DUP1 SWAP2 SUB SWAP1 REVERT JUMPDEST PUSH2 0x18FE PUSH1 0x1 PUSH1 0xB SLOAD PUSH2 0x2879 SWAP1 SWAP2 SWAP1 PUSH4 0xFFFFFFFF AND JUMP JUMPDEST PUSH1 0xB DUP2 SWAP1 SSTORE POP PUSH2 0x1917 DUP13 DUP13 DUP13 DUP13 DUP13 DUP13 DUP13 DUP13 DUP13 DUP13 DUP13 PUSH2 0x2A9A JUMP JUMPDEST POP PUSH2 0x1920 PUSH2 0x8F1 JUMP JUMPDEST SWAP1 POP SWAP12 SWAP11 POP POP POP POP POP POP POP POP POP POP POP JUMP JUMPDEST PUSH1 0x5 PUSH1 0x0 SWAP1 SLOAD SWAP1 PUSH2 0x100 EXP SWAP1 DIV PUSH20 0xFFFFFFFFFFFFFFFFFFFFFFFFFFFFFFFFFFFFFFFF AND DUP2 JUMP JUMPDEST PUSH2 0x195F PUSH2 0x2689 JUMP JUMPDEST DUP1 PUSH1 0x3 PUSH1 0x0 PUSH2 0x100 EXP DUP2 SLOAD DUP2 PUSH20 0xFFFFFFFFFFFFFFFFFFFFFFFFFFFFFFFFFFFFFFFF MUL NOT AND SWAP1 DUP4 PUSH20 0xFFFFFFFFFFFFFFFFFFFFFFFFFFFFFFFFFFFFFFFF AND MUL OR SWAP1 SSTORE POP POP JUMP JUMPDEST PUSH1 0x6 PUSH1 0x0 SWAP1 SLOAD SWAP1 PUSH2 0x100 EXP SWAP1 DIV PUSH20 0xFFFFFFFFFFFFFFFFFFFFFFFFFFFFFFFFFFFFFFFF AND DUP2 JUMP JUMPDEST PUSH2 0x19D1 PUSH2 0x2689 JUMP JUMPDEST DUP1 PUSH1 0x1 PUSH1 0x0 PUSH2 0x100 EXP DUP2 SLOAD DUP2 PUSH20 0xFFFFFFFFFFFFFFFFFFFFFFFFFFFFFFFFFFFFFFFF MUL NOT AND SWAP1 DUP4 PUSH20 0xFFFFFFFFFFFFFFFFFFFFFFFFFFFFFFFFFFFFFFFF AND MUL OR SWAP1 SSTORE POP POP JUMP JUMPDEST PUSH1 0x0 PUSH1 0x7 PUSH1 0x0 SWAP1 SLOAD SWAP1 PUSH2 0x100 EXP SWAP1 DIV PUSH20 0xFFFFFFFFFFFFFFFFFFFFFFFFFFFFFFFFFFFFFFFF AND PUSH20 0xFFFFFFFFFFFFFFFFFFFFFFFFFFFFFFFFFFFFFFFF AND CALLER PUSH20 0xFFFFFFFFFFFFFFFFFFFFFFFFFFFFFFFFFFFFFFFF AND EQ PUSH2 0x1AA7 JUMPI PUSH1 0x40 MLOAD PUSH32 0x8C379A000000000000000000000000000000000000000000000000000000000 DUP2 MSTORE PUSH1 0x4 ADD PUSH2 0x1A9E SWAP1 PUSH2 0x3BF3 JUMP JUMPDEST PUSH1 0x40 MLOAD DUP1 SWAP2 SUB SWAP1 REVERT JUMPDEST PUSH2 0x1AB2 DUP12 DUP12 DUP9 PUSH2 0x28D7 JUMP JUMPDEST DUP11 PUSH1 0x0 DUP2 MLOAD DUP2 LT PUSH2 0x1AC6 JUMPI PUSH2 0x1AC5 PUSH2 0x38C0 JUMP JUMPDEST JUMPDEST PUSH1 0x20 MUL PUSH1 0x20 ADD ADD MLOAD PUSH20 0xFFFFFFFFFFFFFFFFFFFFFFFFFFFFFFFFFFFFFFFF AND PUSH4 0x23B872DD CALLER ADDRESS DUP13 PUSH1 0x40 MLOAD DUP5 PUSH4 0xFFFFFFFF AND PUSH1 0xE0 SHL DUP2 MSTORE PUSH1 0x4 ADD PUSH2 0x1B0A SWAP4 SWAP3 SWAP2 SWAP1 PUSH2 0x4023 JUMP JUMPDEST PUSH1 0x20 PUSH1 0x40 MLOAD DUP1 DUP4 SUB DUP2 PUSH1 0x0 DUP8 GAS CALL ISZERO DUP1 ISZERO PUSH2 0x1B29 JUMPI RETURNDATASIZE PUSH1 0x0 DUP1 RETURNDATACOPY RETURNDATASIZE PUSH1 0x0 REVERT JUMPDEST POP POP POP POP PUSH1 0x40 MLOAD RETURNDATASIZE PUSH1 0x1F NOT PUSH1 0x1F DUP3 ADD AND DUP3 ADD DUP1 PUSH1 0x40 MSTORE POP DUP2 ADD SWAP1 PUSH2 0x1B4D SWAP2 SWAP1 PUSH2 0x3893 JUMP JUMPDEST POP DUP11 PUSH1 0x0 DUP2 MLOAD DUP2 LT PUSH2 0x1B62 JUMPI PUSH2 0x1B61 PUSH2 0x38C0 JUMP JUMPDEST JUMPDEST PUSH1 0x20 MUL PUSH1 0x20 ADD ADD MLOAD PUSH20 0xFFFFFFFFFFFFFFFFFFFFFFFFFFFFFFFFFFFFFFFF AND PUSH4 0x95EA7B3 PUSH1 0x4 PUSH1 0x0 SWAP1 SLOAD SWAP1 PUSH2 0x100 EXP SWAP1 DIV PUSH20 0xFFFFFFFFFFFFFFFFFFFFFFFFFFFFFFFFFFFFFFFF AND DUP12 PUSH1 0x40 MLOAD DUP4 PUSH4 0xFFFFFFFF AND PUSH1 0xE0 SHL DUP2 MSTORE PUSH1 0x4 ADD PUSH2 0x1BC6 SWAP3 SWAP2 SWAP1 PUSH2 0x405A JUMP JUMPDEST PUSH1 0x20 PUSH1 0x40 MLOAD DUP1 DUP4 SUB DUP2 PUSH1 0x0 DUP8 GAS CALL ISZERO DUP1 ISZERO PUSH2 0x1BE5 JUMPI RETURNDATASIZE PUSH1 0x0 DUP1 RETURNDATACOPY RETURNDATASIZE PUSH1 0x0 REVERT JUMPDEST POP POP POP POP PUSH1 0x40 MLOAD RETURNDATASIZE PUSH1 0x1F NOT PUSH1 0x1F DUP3 ADD AND DUP3 ADD DUP1 PUSH1 0x40 MSTORE POP DUP2 ADD SWAP1 PUSH2 0x1C09 SWAP2 SWAP1 PUSH2 0x3893 JUMP JUMPDEST POP PUSH1 0x0 PUSH1 0x3 PUSH1 0x0 SWAP1 SLOAD SWAP1 PUSH2 0x100 EXP SWAP1 DIV PUSH20 0xFFFFFFFFFFFFFFFFFFFFFFFFFFFFFFFFFFFFFFFF AND SWAP1 POP DUP1 PUSH20 0xFFFFFFFFFFFFFFFFFFFFFFFFFFFFFFFFFFFFFFFF AND PUSH4 0xF2AE372F CALLVALUE DUP15 DUP15 DUP15 DUP15 DUP15 DUP15 DUP15 DUP15 DUP15 DUP15 PUSH1 0x40 MLOAD DUP13 PUSH4 0xFFFFFFFF AND PUSH1 0xE0 SHL DUP2 MSTORE PUSH1 0x4 ADD PUSH2 0x1C7D SWAP11 SWAP10 SWAP9 SWAP8 SWAP7 SWAP6 SWAP5 SWAP4 SWAP3 SWAP2 SWAP1 PUSH2 0x4083 JUMP JUMPDEST PUSH1 0x20 PUSH1 0x40 MLOAD DUP1 DUP4 SUB DUP2 DUP6 DUP9 GAS CALL ISZERO DUP1 ISZERO PUSH2 0x1C9B JUMPI RETURNDATASIZE PUSH1 0x0 DUP1 RETURNDATACOPY RETURNDATASIZE PUSH1 0x0 REVERT JUMPDEST POP POP POP POP POP PUSH1 0x40 MLOAD RETURNDATASIZE PUSH1 0x1F NOT PUSH1 0x1F DUP3 ADD AND DUP3 ADD DUP1 PUSH1 0x40 MSTORE POP DUP2 ADD SWAP1 PUSH2 0x1CC0 SWAP2 SWAP1 PUSH2 0x3D6B JUMP JUMPDEST SWAP2 POP POP SWAP11 SWAP10 POP POP POP POP POP POP POP POP POP POP JUMP JUMPDEST PUSH2 0x2710 DUP2 JUMP JUMPDEST PUSH1 0x0 DUP1 PUSH1 0x0 SWAP1 POP PUSH1 0x0 JUMPDEST PUSH1 0xA DUP1 SLOAD SWAP1 POP DUP2 LT ISZERO PUSH2 0x1E77 JUMPI PUSH1 0x0 DUP1 PUSH1 0x0 DUP1 PUSH2 0x1DBB PUSH1 0xA DUP7 DUP2 SLOAD DUP2 LT PUSH2 0x1D0B JUMPI PUSH2 0x1D0A PUSH2 0x38C0 JUMP JUMPDEST JUMPDEST SWAP1 PUSH1 0x0 MSTORE PUSH1 0x20 PUSH1 0x0 KECCAK256 SWAP1 PUSH1 0x2 MUL ADD PUSH1 0x0 ADD PUSH1 0x0 SWAP1 SLOAD SWAP1 PUSH2 0x100 EXP SWAP1 DIV PUSH20 0xFFFFFFFFFFFFFFFFFFFFFFFFFFFFFFFFFFFFFFFF AND PUSH1 0xA DUP8 DUP2 SLOAD DUP2 LT PUSH2 0x1D51 JUMPI PUSH2 0x1D50 PUSH2 0x38C0 JUMP JUMPDEST JUMPDEST SWAP1 PUSH1 0x0 MSTORE PUSH1 0x20 PUSH1 0x0 KECCAK256 SWAP1 PUSH1 0x2 MUL ADD PUSH1 0x1 ADD PUSH1 0x0 SWAP1 SLOAD SWAP1 PUSH2 0x100 EXP SWAP1 DIV PUSH20 0xFFFFFFFFFFFFFFFFFFFFFFFFFFFFFFFFFFFFFFFF AND PUSH1 0xA DUP9 DUP2 SLOAD DUP2 LT PUSH2 0x1D97 JUMPI PUSH2 0x1D96 PUSH2 0x38C0 JUMP JUMPDEST JUMPDEST SWAP1 PUSH1 0x0 MSTORE PUSH1 0x20 PUSH1 0x0 KECCAK256 SWAP1 PUSH1 0x2 MUL ADD PUSH1 0x1 ADD PUSH1 0x14 SWAP1 SLOAD SWAP1 PUSH2 0x100 EXP SWAP1 DIV PUSH1 0xFF AND PUSH2 0x1634 JUMP JUMPDEST SWAP5 POP POP SWAP4 POP SWAP4 POP SWAP4 POP PUSH1 0x0 DUP4 GT ISZERO PUSH2 0x1E60 JUMPI PUSH2 0x1E52 PUSH1 0xA DUP7 DUP2 SLOAD DUP2 LT PUSH2 0x1DE4 JUMPI PUSH2 0x1DE3 PUSH2 0x38C0 JUMP JUMPDEST JUMPDEST SWAP1 PUSH1 0x0 MSTORE PUSH1 0x20 PUSH1 0x0 KECCAK256 SWAP1 PUSH1 0x2 MUL ADD PUSH1 0x0 ADD PUSH1 0x0 SWAP1 SLOAD SWAP1 PUSH2 0x100 EXP SWAP1 DIV PUSH20 0xFFFFFFFFFFFFFFFFFFFFFFFFFFFFFFFFFFFFFFFF AND PUSH1 0xA DUP8 DUP2 SLOAD DUP2 LT PUSH2 0x1E2A JUMPI PUSH2 0x1E29 PUSH2 0x38C0 JUMP JUMPDEST JUMPDEST SWAP1 PUSH1 0x0 MSTORE PUSH1 0x20 PUSH1 0x0 KECCAK256 SWAP1 PUSH1 0x2 MUL ADD PUSH1 0x1 ADD PUSH1 0x14 SWAP1 SLOAD SWAP1 PUSH2 0x100 EXP SWAP1 DIV PUSH1 0xFF AND DUP6 DUP8 DUP7 DUP7 PUSH2 0x1230 JUMP JUMPDEST DUP7 PUSH2 0x1E5D SWAP2 SWAP1 PUSH2 0x391E JUMP JUMPDEST SWAP6 POP JUMPDEST POP POP POP POP DUP1 DUP1 PUSH2 0x1E6F SWAP1 PUSH2 0x3952 JUMP JUMPDEST SWAP2 POP POP PUSH2 0x1CE1 JUMP JUMPDEST POP DUP1 SWAP2 POP POP SWAP1 JUMP JUMPDEST PUSH1 0x0 DUP1 PUSH1 0x0 PUSH2 0x1E90 DUP11 DUP8 DUP8 DUP12 PUSH2 0x204C JUMP JUMPDEST SWAP2 POP SWAP2 POP PUSH1 0x0 PUSH1 0x6 PUSH1 0x0 SWAP1 SLOAD SWAP1 PUSH2 0x100 EXP SWAP1 DIV PUSH20 0xFFFFFFFFFFFFFFFFFFFFFFFFFFFFFFFFFFFFFFFF AND PUSH20 0xFFFFFFFFFFFFFFFFFFFFFFFFFFFFFFFFFFFFFFFF AND PUSH4 0xCC5B8144 DUP12 DUP10 DUP9 PUSH1 0x40 MLOAD DUP5 PUSH4 0xFFFFFFFF AND PUSH1 0xE0 SHL DUP2 MSTORE PUSH1 0x4 ADD PUSH2 0x1EF5 SWAP4 SWAP3 SWAP2 SWAP1 PUSH2 0x4126 JUMP JUMPDEST PUSH1 0x20 PUSH1 0x40 MLOAD DUP1 DUP4 SUB DUP2 DUP7 GAS STATICCALL ISZERO DUP1 ISZERO PUSH2 0x1F12 JUMPI RETURNDATASIZE PUSH1 0x0 DUP1 RETURNDATACOPY RETURNDATASIZE PUSH1 0x0 REVERT JUMPDEST POP POP POP POP PUSH1 0x40 MLOAD RETURNDATASIZE PUSH1 0x1F NOT PUSH1 0x1F DUP3 ADD AND DUP3 ADD DUP1 PUSH1 0x40 MSTORE POP DUP2 ADD SWAP1 PUSH2 0x1F36 SWAP2 SWAP1 PUSH2 0x39AF JUMP JUMPDEST SWAP1 POP PUSH1 0x6 PUSH1 0x0 SWAP1 SLOAD SWAP1 PUSH2 0x100 EXP SWAP1 DIV PUSH20 0xFFFFFFFFFFFFFFFFFFFFFFFFFFFFFFFFFFFFFFFF AND PUSH20 0xFFFFFFFFFFFFFFFFFFFFFFFFFFFFFFFFFFFFFFFF AND PUSH4 0x17BBF25C DUP9 PUSH1 0x40 MLOAD DUP3 PUSH4 0xFFFFFFFF AND PUSH1 0xE0 SHL DUP2 MSTORE PUSH1 0x4 ADD PUSH2 0x1F93 SWAP2 SWAP1 PUSH2 0x2DC6 JUMP JUMPDEST PUSH1 0x20 PUSH1 0x40 MLOAD DUP1 DUP4 SUB DUP2 DUP7 GAS STATICCALL ISZERO DUP1 ISZERO PUSH2 0x1FB0 JUMPI RETURNDATASIZE PUSH1 0x0 DUP1 RETURNDATACOPY RETURNDATASIZE PUSH1 0x0 REVERT JUMPDEST POP POP POP POP PUSH1 0x40 MLOAD RETURNDATASIZE PUSH1 0x1F NOT PUSH1 0x1F DUP3 ADD AND DUP3 ADD DUP1 PUSH1 0x40 MSTORE POP DUP2 ADD SWAP1 PUSH2 0x1FD4 SWAP2 SWAP1 PUSH2 0x39AF JUMP JUMPDEST DUP2 PUSH2 0x1FDF SWAP2 SWAP1 PUSH2 0x391E JUMP JUMPDEST SWAP1 POP DUP3 ISZERO PUSH2 0x2016 JUMPI PUSH2 0x200C DUP2 PUSH2 0x1FFE DUP5 DUP12 PUSH2 0x2879 SWAP1 SWAP2 SWAP1 PUSH4 0xFFFFFFFF AND JUMP JUMPDEST PUSH2 0x27DD SWAP1 SWAP2 SWAP1 PUSH4 0xFFFFFFFF AND JUMP JUMPDEST SWAP4 POP POP POP POP PUSH2 0x2041 JUMP JUMPDEST PUSH2 0x203B DUP2 PUSH2 0x202D DUP5 DUP12 PUSH2 0x27DD SWAP1 SWAP2 SWAP1 PUSH4 0xFFFFFFFF AND JUMP JUMPDEST PUSH2 0x27DD SWAP1 SWAP2 SWAP1 PUSH4 0xFFFFFFFF AND JUMP JUMPDEST SWAP4 POP POP POP POP JUMPDEST SWAP8 SWAP7 POP POP POP POP POP POP POP JUMP JUMPDEST PUSH1 0x0 DUP1 PUSH1 0x0 DUP5 GT PUSH2 0x2092 JUMPI PUSH1 0x40 MLOAD PUSH32 0x8C379A000000000000000000000000000000000000000000000000000000000 DUP2 MSTORE PUSH1 0x4 ADD PUSH2 0x2089 SWAP1 PUSH2 0x41CF JUMP JUMPDEST PUSH1 0x40 MLOAD DUP1 SWAP2 SUB SWAP1 REVERT JUMPDEST PUSH1 0x0 DUP4 PUSH2 0x2175 JUMPI PUSH2 0x2170 PUSH2 0x2710 PUSH2 0x2162 PUSH2 0x20B8 PUSH1 0x64 PUSH2 0x2710 PUSH2 0x2879 SWAP1 SWAP2 SWAP1 PUSH4 0xFFFFFFFF AND JUMP JUMPDEST PUSH1 0x6 PUSH1 0x0 SWAP1 SLOAD SWAP1 PUSH2 0x100 EXP SWAP1 DIV PUSH20 0xFFFFFFFFFFFFFFFFFFFFFFFFFFFFFFFFFFFFFFFF AND PUSH20 0xFFFFFFFFFFFFFFFFFFFFFFFFFFFFFFFFFFFFFFFF AND PUSH4 0xE124E6D2 DUP13 PUSH1 0x40 MLOAD DUP3 PUSH4 0xFFFFFFFF AND PUSH1 0xE0 SHL DUP2 MSTORE PUSH1 0x4 ADD PUSH2 0x2113 SWAP2 SWAP1 PUSH2 0x2E22 JUMP JUMPDEST PUSH1 0x20 PUSH1 0x40 MLOAD DUP1 DUP4 SUB DUP2 DUP7 GAS STATICCALL ISZERO DUP1 ISZERO PUSH2 0x2130 JUMPI RETURNDATASIZE PUSH1 0x0 DUP1 RETURNDATACOPY RETURNDATASIZE PUSH1 0x0 REVERT JUMPDEST POP POP POP POP PUSH1 0x40 MLOAD RETURNDATASIZE PUSH1 0x1F NOT PUSH1 0x1F DUP3 ADD AND DUP3 ADD DUP1 PUSH1 0x40 MSTORE POP DUP2 ADD SWAP1 PUSH2 0x2154 SWAP2 SWAP1 PUSH2 0x39AF JUMP JUMPDEST PUSH2 0x2719 SWAP1 SWAP2 SWAP1 PUSH4 0xFFFFFFFF AND JUMP JUMPDEST PUSH2 0x2793 SWAP1 SWAP2 SWAP1 PUSH4 0xFFFFFFFF AND JUMP JUMPDEST PUSH2 0x224D JUMP JUMPDEST PUSH2 0x224C PUSH2 0x2710 PUSH2 0x223E PUSH2 0x2194 PUSH1 0x64 PUSH2 0x2710 PUSH2 0x27DD SWAP1 SWAP2 SWAP1 PUSH4 0xFFFFFFFF AND JUMP JUMPDEST PUSH1 0x6 PUSH1 0x0 SWAP1 SLOAD SWAP1 PUSH2 0x100 EXP SWAP1 DIV PUSH20 0xFFFFFFFFFFFFFFFFFFFFFFFFFFFFFFFFFFFFFFFF AND PUSH20 0xFFFFFFFFFFFFFFFFFFFFFFFFFFFFFFFFFFFFFFFF AND PUSH4 0x81A612D6 DUP13 PUSH1 0x40 MLOAD DUP3 PUSH4 0xFFFFFFFF AND PUSH1 0xE0 SHL DUP2 MSTORE PUSH1 0x4 ADD PUSH2 0x21EF SWAP2 SWAP1 PUSH2 0x2E22 JUMP JUMPDEST PUSH1 0x20 PUSH1 0x40 MLOAD DUP1 DUP4 SUB DUP2 DUP7 GAS STATICCALL ISZERO DUP1 ISZERO PUSH2 0x220C JUMPI RETURNDATASIZE PUSH1 0x0 DUP1 RETURNDATACOPY RETURNDATASIZE PUSH1 0x0 REVERT JUMPDEST POP POP POP POP PUSH1 0x40 MLOAD RETURNDATASIZE PUSH1 0x1F NOT PUSH1 0x1F DUP3 ADD AND DUP3 ADD DUP1 PUSH1 0x40 MSTORE POP DUP2 ADD SWAP1 PUSH2 0x2230 SWAP2 SWAP1 PUSH2 0x39AF JUMP JUMPDEST PUSH2 0x2719 SWAP1 SWAP2 SWAP1 PUSH4 0xFFFFFFFF AND JUMP JUMPDEST PUSH2 0x2793 SWAP1 SWAP2 SWAP1 PUSH4 0xFFFFFFFF AND JUMP JUMPDEST JUMPDEST SWAP1 POP PUSH1 0x0 DUP2 DUP7 GT PUSH2 0x2270 JUMPI PUSH2 0x226B DUP7 DUP4 PUSH2 0x27DD SWAP1 SWAP2 SWAP1 PUSH4 0xFFFFFFFF AND JUMP JUMPDEST PUSH2 0x2284 JUMP JUMPDEST PUSH2 0x2283 DUP3 DUP8 PUSH2 0x27DD SWAP1 SWAP2 SWAP1 PUSH4 0xFFFFFFFF AND JUMP JUMPDEST JUMPDEST SWAP1 POP PUSH1 0x0 PUSH2 0x22AD DUP8 PUSH2 0x229F DUP5 DUP12 PUSH2 0x2719 SWAP1 SWAP2 SWAP1 PUSH4 0xFFFFFFFF AND JUMP JUMPDEST PUSH2 0x2793 SWAP1 SWAP2 SWAP1 PUSH4 0xFFFFFFFF AND JUMP JUMPDEST SWAP1 POP PUSH1 0x0 DUP7 ISZERO PUSH2 0x22C1 JUMPI DUP8 DUP5 GT SWAP1 POP PUSH2 0x22C7 JUMP JUMPDEST DUP4 DUP9 GT SWAP1 POP JUMPDEST DUP1 DUP3 SWAP6 POP SWAP6 POP POP POP POP POP SWAP5 POP SWAP5 SWAP3 POP POP POP JUMP JUMPDEST JUMP JUMPDEST PUSH1 0x0 DUP4 DUP4 DUP4 PUSH1 0x40 MLOAD PUSH1 0x20 ADD PUSH2 0x22F3 SWAP4 SWAP3 SWAP2 SWAP1 PUSH2 0x4237 JUMP JUMPDEST PUSH1 0x40 MLOAD PUSH1 0x20 DUP2 DUP4 SUB SUB DUP2 MSTORE SWAP1 PUSH1 0x40 MSTORE DUP1 MLOAD SWAP1 PUSH1 0x20 ADD KECCAK256 SWAP1 POP SWAP4 SWAP3 POP POP POP JUMP JUMPDEST PUSH1 0x3 PUSH1 0x0 SWAP1 SLOAD SWAP1 PUSH2 0x100 EXP SWAP1 DIV PUSH20 0xFFFFFFFFFFFFFFFFFFFFFFFFFFFFFFFFFFFFFFFF AND DUP2 JUMP JUMPDEST PUSH1 0xA DUP2 DUP2 SLOAD DUP2 LT PUSH2 0x2348 JUMPI PUSH1 0x0 DUP1 REVERT JUMPDEST SWAP1 PUSH1 0x0 MSTORE PUSH1 0x20 PUSH1 0x0 KECCAK256 SWAP1 PUSH1 0x2 MUL ADD PUSH1 0x0 SWAP2 POP SWAP1 POP DUP1 PUSH1 0x0 ADD PUSH1 0x0 SWAP1 SLOAD SWAP1 PUSH2 0x100 EXP SWAP1 DIV PUSH20 0xFFFFFFFFFFFFFFFFFFFFFFFFFFFFFFFFFFFFFFFF AND SWAP1 DUP1 PUSH1 0x1 ADD PUSH1 0x0 SWAP1 SLOAD SWAP1 PUSH2 0x100 EXP SWAP1 DIV PUSH20 0xFFFFFFFFFFFFFFFFFFFFFFFFFFFFFFFFFFFFFFFF AND SWAP1 DUP1 PUSH1 0x1 ADD PUSH1 0x14 SWAP1 SLOAD SWAP1 PUSH2 0x100 EXP SWAP1 DIV PUSH1 0xFF AND SWAP1 POP DUP4 JUMP JUMPDEST PUSH1 0x0 DUP1 PUSH1 0x2 PUSH1 0x0 SWAP1 SLOAD SWAP1 PUSH2 0x100 EXP SWAP1 DIV PUSH20 0xFFFFFFFFFFFFFFFFFFFFFFFFFFFFFFFFFFFFFFFF AND PUSH20 0xFFFFFFFFFFFFFFFFFFFFFFFFFFFFFFFFFFFFFFFF AND PUSH4 0xD04F246B PUSH1 0x7 PUSH1 0x0 SWAP1 SLOAD SWAP1 PUSH2 0x100 EXP SWAP1 DIV PUSH20 0xFFFFFFFFFFFFFFFFFFFFFFFFFFFFFFFFFFFFFFFF AND PUSH1 0x40 MLOAD DUP3 PUSH4 0xFFFFFFFF AND PUSH1 0xE0 SHL DUP2 MSTORE PUSH1 0x4 ADD PUSH2 0x243F SWAP2 SWAP1 PUSH2 0x2E22 JUMP JUMPDEST PUSH1 0x20 PUSH1 0x40 MLOAD DUP1 DUP4 SUB DUP2 DUP7 GAS STATICCALL ISZERO DUP1 ISZERO PUSH2 0x245C JUMPI RETURNDATASIZE PUSH1 0x0 DUP1 RETURNDATACOPY RETURNDATASIZE PUSH1 0x0 REVERT JUMPDEST POP POP POP POP PUSH1 0x40 MLOAD RETURNDATASIZE PUSH1 0x1F NOT PUSH1 0x1F DUP3 ADD AND DUP3 ADD DUP1 PUSH1 0x40 MSTORE POP DUP2 ADD SWAP1 PUSH2 0x2480 SWAP2 SWAP1 PUSH2 0x39AF JUMP JUMPDEST SWAP1 POP PUSH1 0x0 DUP2 SUB PUSH2 0x2494 JUMPI PUSH1 0x1 SWAP2 POP POP PUSH2 0x255F JUMP JUMPDEST PUSH1 0x0 DUP1 PUSH1 0x0 DUP1 PUSH2 0x24D3 DUP10 DUP10 PUSH2 0x24B4 PUSH1 0x1 DUP13 MLOAD PUSH2 0x27DD SWAP1 SWAP2 SWAP1 PUSH4 0xFFFFFFFF AND JUMP JUMPDEST DUP2 MLOAD DUP2 LT PUSH2 0x24C5 JUMPI PUSH2 0x24C4 PUSH2 0x38C0 JUMP JUMPDEST JUMPDEST PUSH1 0x20 MUL PUSH1 0x20 ADD ADD MLOAD DUP10 PUSH2 0x1634 JUMP JUMPDEST SWAP5 POP POP SWAP4 POP SWAP4 POP SWAP4 POP PUSH1 0x0 PUSH2 0x24E6 PUSH2 0xA49 JUMP JUMPDEST SWAP1 POP PUSH1 0x0 PUSH2 0x24F8 DUP12 DUP11 DUP8 DUP10 DUP9 DUP9 PUSH2 0x1230 JUMP JUMPDEST SWAP1 POP DUP1 DUP3 LT ISZERO PUSH2 0x2512 JUMPI PUSH1 0x0 SWAP8 POP POP POP POP POP POP POP POP PUSH2 0x255F JUMP JUMPDEST PUSH1 0x0 PUSH2 0x254D DUP9 PUSH2 0x253F PUSH2 0x2710 PUSH2 0x2531 DUP7 DUP9 PUSH2 0x27DD SWAP1 SWAP2 SWAP1 PUSH4 0xFFFFFFFF AND JUMP JUMPDEST PUSH2 0x2719 SWAP1 SWAP2 SWAP1 PUSH4 0xFFFFFFFF AND JUMP JUMPDEST PUSH2 0x2793 SWAP1 SWAP2 SWAP1 PUSH4 0xFFFFFFFF AND JUMP JUMPDEST SWAP1 POP PUSH2 0x2AF8 DUP2 GT SWAP9 POP POP POP POP POP POP POP POP POP JUMPDEST SWAP4 SWAP3 POP POP POP JUMP JUMPDEST PUSH2 0x256E PUSH2 0x2689 JUMP JUMPDEST DUP1 PUSH1 0x8 DUP2 SWAP1 SSTORE POP POP JUMP JUMPDEST PUSH1 0x0 DUP1 PUSH1 0x2 PUSH1 0x0 SWAP1 SLOAD SWAP1 PUSH2 0x100 EXP SWAP1 DIV PUSH20 0xFFFFFFFFFFFFFFFFFFFFFFFFFFFFFFFFFFFFFFFF AND PUSH20 0xFFFFFFFFFFFFFFFFFFFFFFFFFFFFFFFFFFFFFFFF AND PUSH4 0xD04F246B PUSH1 0x7 PUSH1 0x0 SWAP1 SLOAD SWAP1 PUSH2 0x100 EXP SWAP1 DIV PUSH20 0xFFFFFFFFFFFFFFFFFFFFFFFFFFFFFFFFFFFFFFFF AND PUSH1 0x40 MLOAD DUP3 PUSH4 0xFFFFFFFF AND PUSH1 0xE0 SHL DUP2 MSTORE PUSH1 0x4 ADD PUSH2 0x25F8 SWAP2 SWAP1 PUSH2 0x2E22 JUMP JUMPDEST PUSH1 0x20 PUSH1 0x40 MLOAD DUP1 DUP4 SUB DUP2 DUP7 GAS STATICCALL ISZERO DUP1 ISZERO PUSH2 0x2615 JUMPI RETURNDATASIZE PUSH1 0x0 DUP1 RETURNDATACOPY RETURNDATASIZE PUSH1 0x0 REVERT JUMPDEST POP POP POP POP PUSH1 0x40 MLOAD RETURNDATASIZE PUSH1 0x1F NOT PUSH1 0x1F DUP3 ADD AND DUP3 ADD DUP1 PUSH1 0x40 MSTORE POP DUP2 ADD SWAP1 PUSH2 0x2639 SWAP2 SWAP1 PUSH2 0x39AF JUMP JUMPDEST SWAP1 POP PUSH1 0x0 PUSH2 0x2645 PUSH2 0xA49 JUMP JUMPDEST SWAP1 POP PUSH1 0x0 DUP3 SUB PUSH2 0x265A JUMPI PUSH1 0x0 SWAP3 POP POP POP PUSH2 0x2686 JUMP JUMPDEST PUSH2 0x2681 DUP3 PUSH2 0x2673 PUSH2 0x2710 DUP5 PUSH2 0x2719 SWAP1 SWAP2 SWAP1 PUSH4 0xFFFFFFFF AND JUMP JUMPDEST PUSH2 0x2793 SWAP1 SWAP2 SWAP1 PUSH4 0xFFFFFFFF AND JUMP JUMPDEST SWAP3 POP POP POP JUMPDEST SWAP1 JUMP JUMPDEST PUSH1 0x0 DUP1 SLOAD SWAP1 PUSH2 0x100 EXP SWAP1 DIV PUSH20 0xFFFFFFFFFFFFFFFFFFFFFFFFFFFFFFFFFFFFFFFF AND PUSH20 0xFFFFFFFFFFFFFFFFFFFFFFFFFFFFFFFFFFFFFFFF AND CALLER PUSH20 0xFFFFFFFFFFFFFFFFFFFFFFFFFFFFFFFFFFFFFFFF AND EQ PUSH2 0x2717 JUMPI PUSH1 0x40 MLOAD PUSH32 0x8C379A000000000000000000000000000000000000000000000000000000000 DUP2 MSTORE PUSH1 0x4 ADD PUSH2 0x270E SWAP1 PUSH2 0x42C0 JUMP JUMPDEST PUSH1 0x40 MLOAD DUP1 SWAP2 SUB SWAP1 REVERT JUMPDEST JUMP JUMPDEST PUSH1 0x0 DUP1 DUP4 SUB PUSH2 0x272B JUMPI PUSH1 0x0 SWAP1 POP PUSH2 0x278D JUMP JUMPDEST PUSH1 0x0 DUP3 DUP5 PUSH2 0x2739 SWAP2 SWAP1 PUSH2 0x42E0 JUMP JUMPDEST SWAP1 POP DUP3 DUP5 DUP3 PUSH2 0x2748 SWAP2 SWAP1 PUSH2 0x4351 JUMP JUMPDEST EQ PUSH2 0x2788 JUMPI PUSH1 0x40 MLOAD PUSH32 0x8C379A000000000000000000000000000000000000000000000000000000000 DUP2 MSTORE PUSH1 0x4 ADD PUSH2 0x277F SWAP1 PUSH2 0x43F4 JUMP JUMPDEST PUSH1 0x40 MLOAD DUP1 SWAP2 SUB SWAP1 REVERT JUMPDEST DUP1 SWAP2 POP POP JUMPDEST SWAP3 SWAP2 POP POP JUMP JUMPDEST PUSH1 0x0 PUSH2 0x27D5 DUP4 DUP4 PUSH1 0x40 MLOAD DUP1 PUSH1 0x40 ADD PUSH1 0x40 MSTORE DUP1 PUSH1 0x1A DUP2 MSTORE PUSH1 0x20 ADD PUSH32 0x536166654D6174683A206469766973696F6E206279207A65726F000000000000 DUP2 MSTORE POP PUSH2 0x2B69 JUMP JUMPDEST SWAP1 POP SWAP3 SWAP2 POP POP JUMP JUMPDEST PUSH1 0x0 PUSH2 0x281F DUP4 DUP4 PUSH1 0x40 MLOAD DUP1 PUSH1 0x40 ADD PUSH1 0x40 MSTORE DUP1 PUSH1 0x1E DUP2 MSTORE PUSH1 0x20 ADD PUSH32 0x536166654D6174683A207375627472616374696F6E206F766572666C6F770000 DUP2 MSTORE POP PUSH2 0x2BCC JUMP JUMPDEST SWAP1 POP SWAP3 SWAP2 POP POP JUMP JUMPDEST PUSH2 0x2870 PUSH2 0x2833 DUP7 PUSH2 0x2C30 JUMP JUMPDEST DUP8 DUP5 DUP7 DUP9 PUSH1 0x2 PUSH1 0x0 SWAP1 SLOAD SWAP1 PUSH2 0x100 EXP SWAP1 DIV PUSH20 0xFFFFFFFFFFFFFFFFFFFFFFFFFFFFFFFFFFFFFFFF AND DUP8 PUSH1 0x0 PUSH1 0x8 SLOAD PUSH2 0x2869 DUP16 PUSH2 0x2CD8 JUMP JUMPDEST PUSH1 0x0 PUSH2 0x2A9A JUMP JUMPDEST POP POP POP POP POP POP POP JUMP JUMPDEST PUSH1 0x0 DUP1 DUP3 DUP5 PUSH2 0x2888 SWAP2 SWAP1 PUSH2 0x391E JUMP JUMPDEST SWAP1 POP DUP4 DUP2 LT ISZERO PUSH2 0x28CD JUMPI PUSH1 0x40 MLOAD PUSH32 0x8C379A000000000000000000000000000000000000000000000000000000000 DUP2 MSTORE PUSH1 0x4 ADD PUSH2 0x28C4 SWAP1 PUSH2 0x4460 JUMP JUMPDEST PUSH1 0x40 MLOAD DUP1 SWAP2 SUB SWAP1 REVERT JUMPDEST DUP1 SWAP2 POP POP SWAP3 SWAP2 POP POP JUMP JUMPDEST PUSH1 0x0 DUP4 PUSH2 0x28EF PUSH1 0x1 DUP7 MLOAD PUSH2 0x27DD SWAP1 SWAP2 SWAP1 PUSH4 0xFFFFFFFF AND JUMP JUMPDEST DUP2 MLOAD DUP2 LT PUSH2 0x2900 JUMPI PUSH2 0x28FF PUSH2 0x38C0 JUMP JUMPDEST JUMPDEST PUSH1 0x20 MUL PUSH1 0x20 ADD ADD MLOAD SWAP1 POP PUSH1 0x9 PUSH1 0x0 PUSH2 0x2919 DUP6 DUP5 DUP7 PUSH2 0x22DC JUMP JUMPDEST DUP2 MSTORE PUSH1 0x20 ADD SWAP1 DUP2 MSTORE PUSH1 0x20 ADD PUSH1 0x0 KECCAK256 PUSH1 0x0 SWAP1 SLOAD SWAP1 PUSH2 0x100 EXP SWAP1 DIV PUSH1 0xFF AND PUSH2 0x2A94 JUMPI PUSH1 0xA PUSH1 0x40 MLOAD DUP1 PUSH1 0x60 ADD PUSH1 0x40 MSTORE DUP1 DUP6 PUSH20 0xFFFFFFFFFFFFFFFFFFFFFFFFFFFFFFFFFFFFFFFF AND DUP2 MSTORE PUSH1 0x20 ADD DUP4 PUSH20 0xFFFFFFFFFFFFFFFFFFFFFFFFFFFFFFFFFFFFFFFF AND DUP2 MSTORE PUSH1 0x20 ADD DUP5 ISZERO ISZERO DUP2 MSTORE POP SWAP1 DUP1 PUSH1 0x1 DUP2 SLOAD ADD DUP1 DUP3 SSTORE DUP1 SWAP2 POP POP PUSH1 0x1 SWAP1 SUB SWAP1 PUSH1 0x0 MSTORE PUSH1 0x20 PUSH1 0x0 KECCAK256 SWAP1 PUSH1 0x2 MUL ADD PUSH1 0x0 SWAP1 SWAP2 SWAP1 SWAP2 SWAP1 SWAP2 POP PUSH1 0x0 DUP3 ADD MLOAD DUP2 PUSH1 0x0 ADD PUSH1 0x0 PUSH2 0x100 EXP DUP2 SLOAD DUP2 PUSH20 0xFFFFFFFFFFFFFFFFFFFFFFFFFFFFFFFFFFFFFFFF MUL NOT AND SWAP1 DUP4 PUSH20 0xFFFFFFFFFFFFFFFFFFFFFFFFFFFFFFFFFFFFFFFF AND MUL OR SWAP1 SSTORE POP PUSH1 0x20 DUP3 ADD MLOAD DUP2 PUSH1 0x1 ADD PUSH1 0x0 PUSH2 0x100 EXP DUP2 SLOAD DUP2 PUSH20 0xFFFFFFFFFFFFFFFFFFFFFFFFFFFFFFFFFFFFFFFF MUL NOT AND SWAP1 DUP4 PUSH20 0xFFFFFFFFFFFFFFFFFFFFFFFFFFFFFFFFFFFFFFFF AND MUL OR SWAP1 SSTORE POP PUSH1 0x40 DUP3 ADD MLOAD DUP2 PUSH1 0x1 ADD PUSH1 0x14 PUSH2 0x100 EXP DUP2 SLOAD DUP2 PUSH1 0xFF MUL NOT AND SWAP1 DUP4 ISZERO ISZERO MUL OR SWAP1 SSTORE POP POP POP PUSH1 0x1 PUSH1 0x9 PUSH1 0x0 PUSH2 0x2A6E DUP7 DUP6 DUP8 PUSH2 0x22DC JUMP JUMPDEST DUP2 MSTORE PUSH1 0x20 ADD SWAP1 DUP2 MSTORE PUSH1 0x20 ADD PUSH1 0x0 KECCAK256 PUSH1 0x0 PUSH2 0x100 EXP DUP2 SLOAD DUP2 PUSH1 0xFF MUL NOT AND SWAP1 DUP4 ISZERO ISZERO MUL OR SWAP1 SSTORE POP JUMPDEST POP POP POP POP JUMP JUMPDEST PUSH1 0x0 PUSH1 0x3 PUSH1 0x0 SWAP1 SLOAD SWAP1 PUSH2 0x100 EXP SWAP1 DIV PUSH20 0xFFFFFFFFFFFFFFFFFFFFFFFFFFFFFFFFFFFFFFFF AND PUSH20 0xFFFFFFFFFFFFFFFFFFFFFFFFFFFFFFFFFFFFFFFF AND PUSH4 0x7BE7D141 CALLVALUE DUP15 DUP15 DUP15 DUP15 DUP15 DUP15 DUP15 DUP15 DUP15 DUP15 DUP15 PUSH1 0x40 MLOAD DUP14 PUSH4 0xFFFFFFFF AND PUSH1 0xE0 SHL DUP2 MSTORE PUSH1 0x4 ADD PUSH2 0x2B0C SWAP12 SWAP11 SWAP10 SWAP9 SWAP8 SWAP7 SWAP6 SWAP5 SWAP4 SWAP3 SWAP2 SWAP1 PUSH2 0x4480 JUMP JUMPDEST PUSH1 0x20 PUSH1 0x40 MLOAD DUP1 DUP4 SUB DUP2 DUP6 DUP9 GAS CALL ISZERO DUP1 ISZERO PUSH2 0x2B2A JUMPI RETURNDATASIZE PUSH1 0x0 DUP1 RETURNDATACOPY RETURNDATASIZE PUSH1 0x0 REVERT JUMPDEST POP POP POP POP POP PUSH1 0x40 MLOAD RETURNDATASIZE PUSH1 0x1F NOT PUSH1 0x1F DUP3 ADD AND DUP3 ADD DUP1 PUSH1 0x40 MSTORE POP DUP2 ADD SWAP1 PUSH2 0x2B4F SWAP2 SWAP1 PUSH2 0x3D6B JUMP JUMPDEST POP PUSH2 0x2B58 PUSH2 0x8F1 JUMP JUMPDEST SWAP1 POP SWAP12 SWAP11 POP POP POP POP POP POP POP POP POP POP POP JUMP JUMPDEST PUSH1 0x0 DUP1 DUP4 GT DUP3 SWAP1 PUSH2 0x2BB0 JUMPI PUSH1 0x40 MLOAD PUSH32 0x8C379A000000000000000000000000000000000000000000000000000000000 DUP2 MSTORE PUSH1 0x4 ADD PUSH2 0x2BA7 SWAP2 SWAP1 PUSH2 0x45A0 JUMP JUMPDEST PUSH1 0x40 MLOAD DUP1 SWAP2 SUB SWAP1 REVERT JUMPDEST POP PUSH1 0x0 DUP4 DUP6 PUSH2 0x2BBF SWAP2 SWAP1 PUSH2 0x4351 JUMP JUMPDEST SWAP1 POP DUP1 SWAP2 POP POP SWAP4 SWAP3 POP POP POP JUMP JUMPDEST PUSH1 0x0 DUP4 DUP4 GT ISZERO DUP3 SWAP1 PUSH2 0x2C14 JUMPI PUSH1 0x40 MLOAD PUSH32 0x8C379A000000000000000000000000000000000000000000000000000000000 DUP2 MSTORE PUSH1 0x4 ADD PUSH2 0x2C0B SWAP2 SWAP1 PUSH2 0x45A0 JUMP JUMPDEST PUSH1 0x40 MLOAD DUP1 SWAP2 SUB SWAP1 REVERT JUMPDEST POP PUSH1 0x0 DUP4 DUP6 PUSH2 0x2C23 SWAP2 SWAP1 PUSH2 0x45C2 JUMP JUMPDEST SWAP1 POP DUP1 SWAP2 POP POP SWAP4 SWAP3 POP POP POP JUMP JUMPDEST PUSH1 0x60 PUSH1 0x0 PUSH1 0x1 PUSH8 0xFFFFFFFFFFFFFFFF DUP2 GT ISZERO PUSH2 0x2C4F JUMPI PUSH2 0x2C4E PUSH2 0x3019 JUMP JUMPDEST JUMPDEST PUSH1 0x40 MLOAD SWAP1 DUP1 DUP3 MSTORE DUP1 PUSH1 0x20 MUL PUSH1 0x20 ADD DUP3 ADD PUSH1 0x40 MSTORE DUP1 ISZERO PUSH2 0x2C7D JUMPI DUP2 PUSH1 0x20 ADD PUSH1 0x20 DUP3 MUL DUP1 CALLDATASIZE DUP4 CALLDATACOPY DUP1 DUP3 ADD SWAP2 POP POP SWAP1 POP JUMPDEST POP SWAP1 POP DUP3 DUP2 PUSH1 0x0 DUP2 MLOAD DUP2 LT PUSH2 0x2C95 JUMPI PUSH2 0x2C94 PUSH2 0x38C0 JUMP JUMPDEST JUMPDEST PUSH1 0x20 MUL PUSH1 0x20 ADD ADD SWAP1 PUSH20 0xFFFFFFFFFFFFFFFFFFFFFFFFFFFFFFFFFFFFFFFF AND SWAP1 DUP2 PUSH20 0xFFFFFFFFFFFFFFFFFFFFFFFFFFFFFFFFFFFFFFFF AND DUP2 MSTORE POP POP DUP1 SWAP2 POP POP SWAP2 SWAP1 POP JUMP JUMPDEST PUSH1 0x0 PUSH1 0x1 PUSH1 0x0 SWAP1 SLOAD SWAP1 PUSH2 0x100 EXP SWAP1 DIV PUSH20 0xFFFFFFFFFFFFFFFFFFFFFFFFFFFFFFFFFFFFFFFF AND PUSH20 0xFFFFFFFFFFFFFFFFFFFFFFFFFFFFFFFFFFFFFFFF AND DUP3 PUSH20 0xFFFFFFFFFFFFFFFFFFFFFFFFFFFFFFFFFFFFFFFF AND EQ SWAP1 POP SWAP2 SWAP1 POP JUMP JUMPDEST PUSH1 0x40 MLOAD DUP1 PUSH2 0x100 ADD PUSH1 0x40 MSTORE DUP1 PUSH1 0x0 DUP2 MSTORE PUSH1 0x20 ADD PUSH1 0x0 DUP2 MSTORE PUSH1 0x20 ADD PUSH1 0x0 DUP2 MSTORE PUSH1 0x20 ADD PUSH1 0x0 DUP2 MSTORE PUSH1 0x20 ADD PUSH1 0x0 DUP2 MSTORE PUSH1 0x20 ADD PUSH1 0x0 DUP2 MSTORE PUSH1 0x20 ADD PUSH1 0x0 DUP2 MSTORE PUSH1 0x20 ADD PUSH1 0x0 DUP2 MSTORE POP SWAP1 JUMP JUMPDEST PUSH1 0x0 DUP2 ISZERO ISZERO SWAP1 POP SWAP2 SWAP1 POP JUMP JUMPDEST PUSH2 0x2D8C DUP2 PUSH2 0x2D77 JUMP JUMPDEST DUP3 MSTORE POP POP JUMP JUMPDEST PUSH1 0x0 PUSH1 0x20 DUP3 ADD SWAP1 POP PUSH2 0x2DA7 PUSH1 0x0 DUP4 ADD DUP5 PUSH2 0x2D83 JUMP JUMPDEST SWAP3 SWAP2 POP POP JUMP JUMPDEST PUSH1 0x0 DUP2 SWAP1 POP SWAP2 SWAP1 POP JUMP JUMPDEST PUSH2 0x2DC0 DUP2 PUSH2 0x2DAD JUMP JUMPDEST DUP3 MSTORE POP POP JUMP JUMPDEST PUSH1 0x0 PUSH1 0x20 DUP3 ADD SWAP1 POP PUSH2 0x2DDB PUSH1 0x0 DUP4 ADD DUP5 PUSH2 0x2DB7 JUMP JUMPDEST SWAP3 SWAP2 POP POP JUMP JUMPDEST PUSH1 0x0 PUSH20 0xFFFFFFFFFFFFFFFFFFFFFFFFFFFFFFFFFFFFFFFF DUP3 AND SWAP1 POP SWAP2 SWAP1 POP JUMP JUMPDEST PUSH1 0x0 PUSH2 0x2E0C DUP3 PUSH2 0x2DE1 JUMP JUMPDEST SWAP1 POP SWAP2 SWAP1 POP JUMP JUMPDEST PUSH2 0x2E1C DUP2 PUSH2 0x2E01 JUMP JUMPDEST DUP3 MSTORE POP POP JUMP JUMPDEST PUSH1 0x0 PUSH1 0x20 DUP3 ADD SWAP1 POP PUSH2 0x2E37 PUSH1 0x0 DUP4 ADD DUP5 PUSH2 0x2E13 JUMP JUMPDEST SWAP3 SWAP2 POP POP JUMP JUMPDEST PUSH1 0x0 PUSH1 0x40 MLOAD SWAP1 POP SWAP1 JUMP JUMPDEST PUSH1 0x0 DUP1 REVERT JUMPDEST PUSH1 0x0 DUP1 REVERT JUMPDEST PUSH2 0x2E5A DUP2 PUSH2 0x2E01 JUMP JUMPDEST DUP2 EQ PUSH2 0x2E65 JUMPI PUSH1 0x0 DUP1 REVERT JUMPDEST POP JUMP JUMPDEST PUSH1 0x0 DUP2 CALLDATALOAD SWAP1 POP PUSH2 0x2E77 DUP2 PUSH2 0x2E51 JUMP JUMPDEST SWAP3 SWAP2 POP POP JUMP JUMPDEST PUSH1 0x0 PUSH1 0x20 DUP3 DUP5 SUB SLT ISZERO PUSH2 0x2E93 JUMPI PUSH2 0x2E92 PUSH2 0x2E47 JUMP JUMPDEST JUMPDEST PUSH1 0x0 PUSH2 0x2EA1 DUP5 DUP3 DUP6 ADD PUSH2 0x2E68 JUMP JUMPDEST SWAP2 POP POP SWAP3 SWAP2 POP POP JUMP JUMPDEST PUSH2 0x2EB3 DUP2 PUSH2 0x2DAD JUMP JUMPDEST DUP2 EQ PUSH2 0x2EBE JUMPI PUSH1 0x0 DUP1 REVERT JUMPDEST POP JUMP JUMPDEST PUSH1 0x0 DUP2 CALLDATALOAD SWAP1 POP PUSH2 0x2ED0 DUP2 PUSH2 0x2EAA JUMP JUMPDEST SWAP3 SWAP2 POP POP JUMP JUMPDEST PUSH1 0x0 DUP1 PUSH1 0x40 DUP4 DUP6 SUB SLT ISZERO PUSH2 0x2EED JUMPI PUSH2 0x2EEC PUSH2 0x2E47 JUMP JUMPDEST JUMPDEST PUSH1 0x0 PUSH2 0x2EFB DUP6 DUP3 DUP7 ADD PUSH2 0x2E68 JUMP JUMPDEST SWAP3 POP POP PUSH1 0x20 PUSH2 0x2F0C DUP6 DUP3 DUP7 ADD PUSH2 0x2EC1 JUMP JUMPDEST SWAP2 POP POP SWAP3 POP SWAP3 SWAP1 POP JUMP JUMPDEST PUSH1 0x0 DUP2 SWAP1 POP SWAP2 SWAP1 POP JUMP JUMPDEST PUSH2 0x2F29 DUP2 PUSH2 0x2F16 JUMP JUMPDEST DUP3 MSTORE POP POP JUMP JUMPDEST PUSH1 0x0 PUSH1 0x20 DUP3 ADD SWAP1 POP PUSH2 0x2F44 PUSH1 0x0 DUP4 ADD DUP5 PUSH2 0x2F20 JUMP JUMPDEST SWAP3 SWAP2 POP POP JUMP JUMPDEST PUSH2 0x2F53 DUP2 PUSH2 0x2D77 JUMP JUMPDEST DUP2 EQ PUSH2 0x2F5E JUMPI PUSH1 0x0 DUP1 REVERT JUMPDEST POP JUMP JUMPDEST PUSH1 0x0 DUP2 CALLDATALOAD SWAP1 POP PUSH2 0x2F70 DUP2 PUSH2 0x2F4A JUMP JUMPDEST SWAP3 SWAP2 POP POP JUMP JUMPDEST PUSH1 0x0 DUP1 PUSH1 0x0 DUP1 PUSH1 0x0 DUP1 PUSH1 0xC0 DUP8 DUP10 SUB SLT ISZERO PUSH2 0x2F93 JUMPI PUSH2 0x2F92 PUSH2 0x2E47 JUMP JUMPDEST JUMPDEST PUSH1 0x0 PUSH2 0x2FA1 DUP10 DUP3 DUP11 ADD PUSH2 0x2E68 JUMP JUMPDEST SWAP7 POP POP PUSH1 0x20 PUSH2 0x2FB2 DUP10 DUP3 DUP11 ADD PUSH2 0x2F61 JUMP JUMPDEST SWAP6 POP POP PUSH1 0x40 PUSH2 0x2FC3 DUP10 DUP3 DUP11 ADD PUSH2 0x2EC1 JUMP JUMPDEST SWAP5 POP POP PUSH1 0x60 PUSH2 0x2FD4 DUP10 DUP3 DUP11 ADD PUSH2 0x2EC1 JUMP JUMPDEST SWAP4 POP POP PUSH1 0x80 PUSH2 0x2FE5 DUP10 DUP3 DUP11 ADD PUSH2 0x2EC1 JUMP JUMPDEST SWAP3 POP POP PUSH1 0xA0 PUSH2 0x2FF6 DUP10 DUP3 DUP11 ADD PUSH2 0x2EC1 JUMP JUMPDEST SWAP2 POP POP SWAP3 SWAP6 POP SWAP3 SWAP6 POP SWAP3 SWAP6 JUMP JUMPDEST PUSH1 0x0 DUP1 REVERT JUMPDEST PUSH1 0x0 PUSH1 0x1F NOT PUSH1 0x1F DUP4 ADD AND SWAP1 POP SWAP2 SWAP1 POP JUMP JUMPDEST PUSH32 0x4E487B7100000000000000000000000000000000000000000000000000000000 PUSH1 0x0 MSTORE PUSH1 0x41 PUSH1 0x4 MSTORE PUSH1 0x24 PUSH1 0x0 REVERT JUMPDEST PUSH2 0x3051 DUP3 PUSH2 0x3008 JUMP JUMPDEST DUP2 ADD DUP2 DUP2 LT PUSH8 0xFFFFFFFFFFFFFFFF DUP3 GT OR ISZERO PUSH2 0x3070 JUMPI PUSH2 0x306F PUSH2 0x3019 JUMP JUMPDEST JUMPDEST DUP1 PUSH1 0x40 MSTORE POP POP POP JUMP JUMPDEST PUSH1 0x0 PUSH2 0x3083 PUSH2 0x2E3D JUMP JUMPDEST SWAP1 POP PUSH2 0x308F DUP3 DUP3 PUSH2 0x3048 JUMP JUMPDEST SWAP2 SWAP1 POP JUMP JUMPDEST PUSH1 0x0 PUSH8 0xFFFFFFFFFFFFFFFF DUP3 GT ISZERO PUSH2 0x30AF JUMPI PUSH2 0x30AE PUSH2 0x3019 JUMP JUMPDEST JUMPDEST PUSH1 0x20 DUP3 MUL SWAP1 POP PUSH1 0x20 DUP2 ADD SWAP1 POP SWAP2 SWAP1 POP JUMP JUMPDEST PUSH1 0x0 DUP1 REVERT JUMPDEST PUSH1 0x0 PUSH2 0x30D8 PUSH2 0x30D3 DUP5 PUSH2 0x3094 JUMP JUMPDEST PUSH2 0x3079 JUMP JUMPDEST SWAP1 POP DUP1 DUP4 DUP3 MSTORE PUSH1 0x20 DUP3 ADD SWAP1 POP PUSH1 0x20 DUP5 MUL DUP4 ADD DUP6 DUP2 GT ISZERO PUSH2 0x30FB JUMPI PUSH2 0x30FA PUSH2 0x30C0 JUMP JUMPDEST JUMPDEST DUP4 JUMPDEST DUP2 DUP2 LT ISZERO PUSH2 0x3124 JUMPI DUP1 PUSH2 0x3110 DUP9 DUP3 PUSH2 0x2E68 JUMP JUMPDEST DUP5 MSTORE PUSH1 0x20 DUP5 ADD SWAP4 POP POP PUSH1 0x20 DUP2 ADD SWAP1 POP PUSH2 0x30FD JUMP JUMPDEST POP POP POP SWAP4 SWAP3 POP POP POP JUMP JUMPDEST PUSH1 0x0 DUP3 PUSH1 0x1F DUP4 ADD SLT PUSH2 0x3143 JUMPI PUSH2 0x3142 PUSH2 0x3003 JUMP JUMPDEST JUMPDEST DUP2 CALLDATALOAD PUSH2 0x3153 DUP5 DUP3 PUSH1 0x20 DUP7 ADD PUSH2 0x30C5 JUMP JUMPDEST SWAP2 POP POP SWAP3 SWAP2 POP POP JUMP JUMPDEST PUSH2 0x3165 DUP2 PUSH2 0x2F16 JUMP JUMPDEST DUP2 EQ PUSH2 0x3170 JUMPI PUSH1 0x0 DUP1 REVERT JUMPDEST POP JUMP JUMPDEST PUSH1 0x0 DUP2 CALLDATALOAD SWAP1 POP PUSH2 0x3182 DUP2 PUSH2 0x315C JUMP JUMPDEST SWAP3 SWAP2 POP POP JUMP JUMPDEST PUSH1 0x0 DUP1 PUSH1 0x0 DUP1 PUSH1 0x0 DUP1 PUSH1 0x0 DUP1 PUSH1 0x0 PUSH2 0x120 DUP11 DUP13 SUB SLT ISZERO PUSH2 0x31AB JUMPI PUSH2 0x31AA PUSH2 0x2E47 JUMP JUMPDEST JUMPDEST PUSH1 0x0 DUP11 ADD CALLDATALOAD PUSH8 0xFFFFFFFFFFFFFFFF DUP2 GT ISZERO PUSH2 0x31C9 JUMPI PUSH2 0x31C8 PUSH2 0x2E4C JUMP JUMPDEST JUMPDEST PUSH2 0x31D5 DUP13 DUP3 DUP14 ADD PUSH2 0x312E JUMP JUMPDEST SWAP10 POP POP PUSH1 0x20 PUSH2 0x31E6 DUP13 DUP3 DUP14 ADD PUSH2 0x2E68 JUMP JUMPDEST SWAP9 POP POP PUSH1 0x40 PUSH2 0x31F7 DUP13 DUP3 DUP14 ADD PUSH2 0x2EC1 JUMP JUMPDEST SWAP8 POP POP PUSH1 0x60 PUSH2 0x3208 DUP13 DUP3 DUP14 ADD PUSH2 0x2EC1 JUMP JUMPDEST SWAP7 POP POP PUSH1 0x80 PUSH2 0x3219 DUP13 DUP3 DUP14 ADD PUSH2 0x2F61 JUMP JUMPDEST SWAP6 POP POP PUSH1 0xA0 PUSH2 0x322A DUP13 DUP3 DUP14 ADD PUSH2 0x2EC1 JUMP JUMPDEST SWAP5 POP POP PUSH1 0xC0 PUSH2 0x323B DUP13 DUP3 DUP14 ADD PUSH2 0x2EC1 JUMP JUMPDEST SWAP4 POP POP PUSH1 0xE0 PUSH2 0x324C DUP13 DUP3 DUP14 ADD PUSH2 0x3173 JUMP JUMPDEST SWAP3 POP POP PUSH2 0x100 PUSH2 0x325E DUP13 DUP3 DUP14 ADD PUSH2 0x2E68 JUMP JUMPDEST SWAP2 POP POP SWAP3 SWAP6 SWAP9 POP SWAP3 SWAP6 SWAP9 POP SWAP3 SWAP6 SWAP9 JUMP JUMPDEST PUSH1 0x0 DUP2 MLOAD SWAP1 POP SWAP2 SWAP1 POP JUMP JUMPDEST PUSH1 0x0 DUP3 DUP3 MSTORE PUSH1 0x20 DUP3 ADD SWAP1 POP SWAP3 SWAP2 POP POP JUMP JUMPDEST PUSH1 0x0 DUP2 SWAP1 POP PUSH1 0x20 DUP3 ADD SWAP1 POP SWAP2 SWAP1 POP JUMP JUMPDEST PUSH2 0x32A3 DUP2 PUSH2 0x2E01 JUMP JUMPDEST DUP3 MSTORE POP POP JUMP JUMPDEST PUSH2 0x32B2 DUP2 PUSH2 0x2D77 JUMP JUMPDEST DUP3 MSTORE POP POP JUMP JUMPDEST PUSH1 0x60 DUP3 ADD PUSH1 0x0 DUP3 ADD MLOAD PUSH2 0x32CE PUSH1 0x0 DUP6 ADD DUP3 PUSH2 0x329A JUMP JUMPDEST POP PUSH1 0x20 DUP3 ADD MLOAD PUSH2 0x32E1 PUSH1 0x20 DUP6 ADD DUP3 PUSH2 0x329A JUMP JUMPDEST POP PUSH1 0x40 DUP3 ADD MLOAD PUSH2 0x32F4 PUSH1 0x40 DUP6 ADD DUP3 PUSH2 0x32A9 JUMP JUMPDEST POP POP POP POP JUMP JUMPDEST PUSH1 0x0 PUSH2 0x3306 DUP4 DUP4 PUSH2 0x32B8 JUMP JUMPDEST PUSH1 0x60 DUP4 ADD SWAP1 POP SWAP3 SWAP2 POP POP JUMP JUMPDEST PUSH1 0x0 PUSH1 0x20 DUP3 ADD SWAP1 POP SWAP2 SWAP1 POP JUMP JUMPDEST PUSH1 0x0 PUSH2 0x332A DUP3 PUSH2 0x326E JUMP JUMPDEST PUSH2 0x3334 DUP2 DUP6 PUSH2 0x3279 JUMP JUMPDEST SWAP4 POP PUSH2 0x333F DUP4 PUSH2 0x328A JUMP JUMPDEST DUP1 PUSH1 0x0 JUMPDEST DUP4 DUP2 LT ISZERO PUSH2 0x3370 JUMPI DUP2 MLOAD PUSH2 0x3357 DUP9 DUP3 PUSH2 0x32FA JUMP JUMPDEST SWAP8 POP PUSH2 0x3362 DUP4 PUSH2 0x3312 JUMP JUMPDEST SWAP3 POP POP PUSH1 0x1 DUP2 ADD SWAP1 POP PUSH2 0x3343 JUMP JUMPDEST POP DUP6 SWAP4 POP POP POP POP SWAP3 SWAP2 POP POP JUMP JUMPDEST PUSH1 0x0 PUSH1 0x20 DUP3 ADD SWAP1 POP DUP2 DUP2 SUB PUSH1 0x0 DUP4 ADD MSTORE PUSH2 0x3397 DUP2 DUP5 PUSH2 0x331F JUMP JUMPDEST SWAP1 POP SWAP3 SWAP2 POP POP JUMP JUMPDEST PUSH1 0x0 DUP1 PUSH1 0x0 PUSH1 0x60 DUP5 DUP7 SUB SLT ISZERO PUSH2 0x33B8 JUMPI PUSH2 0x33B7 PUSH2 0x2E47 JUMP JUMPDEST JUMPDEST PUSH1 0x0 PUSH2 0x33C6 DUP7 DUP3 DUP8 ADD PUSH2 0x2E68 JUMP JUMPDEST SWAP4 POP POP PUSH1 0x20 PUSH2 0x33D7 DUP7 DUP3 DUP8 ADD PUSH2 0x2E68 JUMP JUMPDEST SWAP3 POP POP PUSH1 0x40 PUSH2 0x33E8 DUP7 DUP3 DUP8 ADD PUSH2 0x2F61 JUMP JUMPDEST SWAP2 POP POP SWAP3 POP SWAP3 POP SWAP3 JUMP JUMPDEST PUSH1 0x0 PUSH1 0xA0 DUP3 ADD SWAP1 POP PUSH2 0x3407 PUSH1 0x0 DUP4 ADD DUP9 PUSH2 0x2DB7 JUMP JUMPDEST PUSH2 0x3414 PUSH1 0x20 DUP4 ADD DUP8 PUSH2 0x2DB7 JUMP JUMPDEST PUSH2 0x3421 PUSH1 0x40 DUP4 ADD DUP7 PUSH2 0x2DB7 JUMP JUMPDEST PUSH2 0x342E PUSH1 0x60 DUP4 ADD DUP6 PUSH2 0x2DB7 JUMP JUMPDEST PUSH2 0x343B PUSH1 0x80 DUP4 ADD DUP5 PUSH2 0x2DB7 JUMP JUMPDEST SWAP7 SWAP6 POP POP POP POP POP POP JUMP JUMPDEST PUSH1 0x0 DUP1 PUSH1 0x0 DUP1 PUSH1 0x0 DUP1 PUSH1 0x0 DUP1 PUSH1 0x0 DUP1 PUSH1 0x0 PUSH2 0x160 DUP13 DUP15 SUB SLT ISZERO PUSH2 0x346B JUMPI PUSH2 0x346A PUSH2 0x2E47 JUMP JUMPDEST JUMPDEST PUSH1 0x0 DUP13 ADD CALLDATALOAD PUSH8 0xFFFFFFFFFFFFFFFF DUP2 GT ISZERO PUSH2 0x3489 JUMPI PUSH2 0x3488 PUSH2 0x2E4C JUMP JUMPDEST JUMPDEST PUSH2 0x3495 DUP15 DUP3 DUP16 ADD PUSH2 0x312E JUMP JUMPDEST SWAP12 POP POP PUSH1 0x20 PUSH2 0x34A6 DUP15 DUP3 DUP16 ADD PUSH2 0x2E68 JUMP JUMPDEST SWAP11 POP POP PUSH1 0x40 PUSH2 0x34B7 DUP15 DUP3 DUP16 ADD PUSH2 0x2EC1 JUMP JUMPDEST SWAP10 POP POP PUSH1 0x60 PUSH2 0x34C8 DUP15 DUP3 DUP16 ADD PUSH2 0x2EC1 JUMP JUMPDEST SWAP9 POP POP PUSH1 0x80 PUSH2 0x34D9 DUP15 DUP3 DUP16 ADD PUSH2 0x2F61 JUMP JUMPDEST SWAP8 POP POP PUSH1 0xA0 PUSH2 0x34EA DUP15 DUP3 DUP16 ADD PUSH2 0x2E68 JUMP JUMPDEST SWAP7 POP POP PUSH1 0xC0 PUSH2 0x34FB DUP15 DUP3 DUP16 ADD PUSH2 0x2EC1 JUMP JUMPDEST SWAP6 POP POP PUSH1 0xE0 PUSH2 0x350C DUP15 DUP3 DUP16 ADD PUSH2 0x2EC1 JUMP JUMPDEST SWAP5 POP POP PUSH2 0x100 PUSH2 0x351E DUP15 DUP3 DUP16 ADD PUSH2 0x2EC1 JUMP JUMPDEST SWAP4 POP POP PUSH2 0x120 PUSH2 0x3530 DUP15 DUP3 DUP16 ADD PUSH2 0x2F61 JUMP JUMPDEST SWAP3 POP POP PUSH2 0x140 PUSH2 0x3542 DUP15 DUP3 DUP16 ADD PUSH2 0x2E68 JUMP JUMPDEST SWAP2 POP POP SWAP3 SWAP6 SWAP9 SWAP12 POP SWAP3 SWAP6 SWAP9 SWAP12 SWAP1 SWAP4 SWAP7 SWAP10 POP JUMP JUMPDEST PUSH1 0x0 DUP1 PUSH1 0x0 DUP1 PUSH1 0x0 DUP1 PUSH1 0x0 DUP1 PUSH1 0x0 DUP1 PUSH2 0x140 DUP12 DUP14 SUB SLT ISZERO PUSH2 0x3579 JUMPI PUSH2 0x3578 PUSH2 0x2E47 JUMP JUMPDEST JUMPDEST PUSH1 0x0 DUP12 ADD CALLDATALOAD PUSH8 0xFFFFFFFFFFFFFFFF DUP2 GT ISZERO PUSH2 0x3597 JUMPI PUSH2 0x3596 PUSH2 0x2E4C JUMP JUMPDEST JUMPDEST PUSH2 0x35A3 DUP14 DUP3 DUP15 ADD PUSH2 0x312E JUMP JUMPDEST SWAP11 POP POP PUSH1 0x20 PUSH2 0x35B4 DUP14 DUP3 DUP15 ADD PUSH2 0x2E68 JUMP JUMPDEST SWAP10 POP POP PUSH1 0x40 PUSH2 0x35C5 DUP14 DUP3 DUP15 ADD PUSH2 0x2EC1 JUMP JUMPDEST SWAP9 POP POP PUSH1 0x60 PUSH2 0x35D6 DUP14 DUP3 DUP15 ADD PUSH2 0x2EC1 JUMP JUMPDEST SWAP8 POP POP PUSH1 0x80 PUSH2 0x35E7 DUP14 DUP3 DUP15 ADD PUSH2 0x2EC1 JUMP JUMPDEST SWAP7 POP POP PUSH1 0xA0 PUSH2 0x35F8 DUP14 DUP3 DUP15 ADD PUSH2 0x2F61 JUMP JUMPDEST SWAP6 POP POP PUSH1 0xC0 PUSH2 0x3609 DUP14 DUP3 DUP15 ADD PUSH2 0x2EC1 JUMP JUMPDEST SWAP5 POP POP PUSH1 0xE0 PUSH2 0x361A DUP14 DUP3 DUP15 ADD PUSH2 0x2EC1 JUMP JUMPDEST SWAP4 POP POP PUSH2 0x100 PUSH2 0x362C DUP14 DUP3 DUP15 ADD PUSH2 0x3173 JUMP JUMPDEST SWAP3 POP POP PUSH2 0x120 PUSH2 0x363E DUP14 DUP3 DUP15 ADD PUSH2 0x2E68 JUMP JUMPDEST SWAP2 POP POP SWAP3 SWAP6 SWAP9 SWAP12 SWAP2 SWAP5 SWAP8 SWAP11 POP SWAP3 SWAP6 SWAP9 POP JUMP JUMPDEST PUSH1 0x0 DUP1 PUSH1 0x0 DUP1 PUSH1 0x0 DUP1 PUSH1 0x0 PUSH1 0xE0 DUP9 DUP11 SUB SLT ISZERO PUSH2 0x366F JUMPI PUSH2 0x366E PUSH2 0x2E47 JUMP JUMPDEST JUMPDEST PUSH1 0x0 PUSH2 0x367D DUP11 DUP3 DUP12 ADD PUSH2 0x2E68 JUMP JUMPDEST SWAP8 POP POP PUSH1 0x20 PUSH2 0x368E DUP11 DUP3 DUP12 ADD PUSH2 0x2E68 JUMP JUMPDEST SWAP7 POP POP PUSH1 0x40 PUSH2 0x369F DUP11 DUP3 DUP12 ADD PUSH2 0x2F61 JUMP JUMPDEST SWAP6 POP POP PUSH1 0x60 PUSH2 0x36B0 DUP11 DUP3 DUP12 ADD PUSH2 0x2EC1 JUMP JUMPDEST SWAP5 POP POP PUSH1 0x80 PUSH2 0x36C1 DUP11 DUP3 DUP12 ADD PUSH2 0x2EC1 JUMP JUMPDEST SWAP4 POP POP PUSH1 0xA0 PUSH2 0x36D2 DUP11 DUP3 DUP12 ADD PUSH2 0x2EC1 JUMP JUMPDEST SWAP3 POP POP PUSH1 0xC0 PUSH2 0x36E3 DUP11 DUP3 DUP12 ADD PUSH2 0x2EC1 JUMP JUMPDEST SWAP2 POP POP SWAP3 SWAP6 SWAP9 SWAP2 SWAP5 SWAP8 POP SWAP3 SWAP6 POP JUMP JUMPDEST PUSH1 0x0 DUP1 PUSH1 0x0 DUP1 PUSH1 0x80 DUP6 DUP8 SUB SLT ISZERO PUSH2 0x370C JUMPI PUSH2 0x370B PUSH2 0x2E47 JUMP JUMPDEST JUMPDEST PUSH1 0x0 PUSH2 0x371A DUP8 DUP3 DUP9 ADD PUSH2 0x2E68 JUMP JUMPDEST SWAP5 POP POP PUSH1 0x20 PUSH2 0x372B DUP8 DUP3 DUP9 ADD PUSH2 0x2EC1 JUMP JUMPDEST SWAP4 POP POP PUSH1 0x40 PUSH2 0x373C DUP8 DUP3 DUP9 ADD PUSH2 0x2EC1 JUMP JUMPDEST SWAP3 POP POP PUSH1 0x60 PUSH2 0x374D DUP8 DUP3 DUP9 ADD PUSH2 0x2F61 JUMP JUMPDEST SWAP2 POP POP SWAP3 SWAP6 SWAP2 SWAP5 POP SWAP3 POP JUMP JUMPDEST PUSH1 0x0 PUSH1 0x40 DUP3 ADD SWAP1 POP PUSH2 0x376E PUSH1 0x0 DUP4 ADD DUP6 PUSH2 0x2D83 JUMP JUMPDEST PUSH2 0x377B PUSH1 0x20 DUP4 ADD DUP5 PUSH2 0x2DB7 JUMP JUMPDEST SWAP4 SWAP3 POP POP POP JUMP JUMPDEST PUSH1 0x0 PUSH1 0x20 DUP3 DUP5 SUB SLT ISZERO PUSH2 0x3798 JUMPI PUSH2 0x3797 PUSH2 0x2E47 JUMP JUMPDEST JUMPDEST PUSH1 0x0 PUSH2 0x37A6 DUP5 DUP3 DUP6 ADD PUSH2 0x2EC1 JUMP JUMPDEST SWAP2 POP POP SWAP3 SWAP2 POP POP JUMP JUMPDEST PUSH1 0x0 PUSH1 0x60 DUP3 ADD SWAP1 POP PUSH2 0x37C4 PUSH1 0x0 DUP4 ADD DUP7 PUSH2 0x2E13 JUMP JUMPDEST PUSH2 0x37D1 PUSH1 0x20 DUP4 ADD DUP6 PUSH2 0x2E13 JUMP JUMPDEST PUSH2 0x37DE PUSH1 0x40 DUP4 ADD DUP5 PUSH2 0x2D83 JUMP JUMPDEST SWAP5 SWAP4 POP POP POP POP JUMP JUMPDEST PUSH1 0x0 DUP1 PUSH1 0x0 PUSH1 0x60 DUP5 DUP7 SUB SLT ISZERO PUSH2 0x37FF JUMPI PUSH2 0x37FE PUSH2 0x2E47 JUMP JUMPDEST JUMPDEST PUSH1 0x0 PUSH2 0x380D DUP7 DUP3 DUP8 ADD PUSH2 0x2E68 JUMP JUMPDEST SWAP4 POP POP PUSH1 0x20 DUP5 ADD CALLDATALOAD PUSH8 0xFFFFFFFFFFFFFFFF DUP2 GT ISZERO PUSH2 0x382E JUMPI PUSH2 0x382D PUSH2 0x2E4C JUMP JUMPDEST JUMPDEST PUSH2 0x383A DUP7 DUP3 DUP8 ADD PUSH2 0x312E JUMP JUMPDEST SWAP3 POP POP PUSH1 0x40 PUSH2 0x384B DUP7 DUP3 DUP8 ADD PUSH2 0x2F61 JUMP JUMPDEST SWAP2 POP POP SWAP3 POP SWAP3 POP SWAP3 JUMP JUMPDEST PUSH1 0x0 PUSH1 0x40 DUP3 ADD SWAP1 POP PUSH2 0x386A PUSH1 0x0 DUP4 ADD DUP6 PUSH2 0x2F20 JUMP JUMPDEST PUSH2 0x3877 PUSH1 0x20 DUP4 ADD DUP5 PUSH2 0x2E13 JUMP JUMPDEST SWAP4 SWAP3 POP POP POP JUMP JUMPDEST PUSH1 0x0 DUP2 MLOAD SWAP1 POP PUSH2 0x388D DUP2 PUSH2 0x2F4A JUMP JUMPDEST SWAP3 SWAP2 POP POP JUMP JUMPDEST PUSH1 0x0 PUSH1 0x20 DUP3 DUP5 SUB SLT ISZERO PUSH2 0x38A9 JUMPI PUSH2 0x38A8 PUSH2 0x2E47 JUMP JUMPDEST JUMPDEST PUSH1 0x0 PUSH2 0x38B7 DUP5 DUP3 DUP6 ADD PUSH2 0x387E JUMP JUMPDEST SWAP2 POP POP SWAP3 SWAP2 POP POP JUMP JUMPDEST PUSH32 0x4E487B7100000000000000000000000000000000000000000000000000000000 PUSH1 0x0 MSTORE PUSH1 0x32 PUSH1 0x4 MSTORE PUSH1 0x24 PUSH1 0x0 REVERT JUMPDEST PUSH32 0x4E487B7100000000000000000000000000000000000000000000000000000000 PUSH1 0x0 MSTORE PUSH1 0x11 PUSH1 0x4 MSTORE PUSH1 0x24 PUSH1 0x0 REVERT JUMPDEST PUSH1 0x0 PUSH2 0x3929 DUP3 PUSH2 0x2DAD JUMP JUMPDEST SWAP2 POP PUSH2 0x3934 DUP4 PUSH2 0x2DAD JUMP JUMPDEST SWAP3 POP DUP3 DUP3 ADD SWAP1 POP DUP1 DUP3 GT ISZERO PUSH2 0x394C JUMPI PUSH2 0x394B PUSH2 0x38EF JUMP JUMPDEST JUMPDEST SWAP3 SWAP2 POP POP JUMP JUMPDEST PUSH1 0x0 PUSH2 0x395D DUP3 PUSH2 0x2DAD JUMP JUMPDEST SWAP2 POP PUSH32 0xFFFFFFFFFFFFFFFFFFFFFFFFFFFFFFFFFFFFFFFFFFFFFFFFFFFFFFFFFFFFFFFF DUP3 SUB PUSH2 0x398F JUMPI PUSH2 0x398E PUSH2 0x38EF JUMP JUMPDEST JUMPDEST PUSH1 0x1 DUP3 ADD SWAP1 POP SWAP2 SWAP1 POP JUMP JUMPDEST PUSH1 0x0 DUP2 MLOAD SWAP1 POP PUSH2 0x39A9 DUP2 PUSH2 0x2EAA JUMP JUMPDEST SWAP3 SWAP2 POP POP JUMP JUMPDEST PUSH1 0x0 PUSH1 0x20 DUP3 DUP5 SUB SLT ISZERO PUSH2 0x39C5 JUMPI PUSH2 0x39C4 PUSH2 0x2E47 JUMP JUMPDEST JUMPDEST PUSH1 0x0 PUSH2 0x39D3 DUP5 DUP3 DUP6 ADD PUSH2 0x399A JUMP JUMPDEST SWAP2 POP POP SWAP3 SWAP2 POP POP JUMP JUMPDEST PUSH1 0x0 DUP3 DUP3 MSTORE PUSH1 0x20 DUP3 ADD SWAP1 POP SWAP3 SWAP2 POP POP JUMP JUMPDEST PUSH32 0x6865616C746820666163746F7200000000000000000000000000000000000000 PUSH1 0x0 DUP3 ADD MSTORE POP JUMP JUMPDEST PUSH1 0x0 PUSH2 0x3A23 PUSH1 0xD DUP4 PUSH2 0x39DC JUMP JUMPDEST SWAP2 POP PUSH2 0x3A2E DUP3 PUSH2 0x39ED JUMP JUMPDEST PUSH1 0x20 DUP3 ADD SWAP1 POP SWAP2 SWAP1 POP JUMP JUMPDEST PUSH1 0x0 PUSH1 0x20 DUP3 ADD SWAP1 POP DUP2 DUP2 SUB PUSH1 0x0 DUP4 ADD MSTORE PUSH2 0x3A52 DUP2 PUSH2 0x3A16 JUMP JUMPDEST SWAP1 POP SWAP2 SWAP1 POP JUMP JUMPDEST PUSH1 0x0 DUP2 PUSH1 0x60 SHL SWAP1 POP SWAP2 SWAP1 POP JUMP JUMPDEST PUSH1 0x0 PUSH2 0x3A71 DUP3 PUSH2 0x3A59 JUMP JUMPDEST SWAP1 POP SWAP2 SWAP1 POP JUMP JUMPDEST PUSH1 0x0 PUSH2 0x3A83 DUP3 PUSH2 0x3A66 JUMP JUMPDEST SWAP1 POP SWAP2 SWAP1 POP JUMP JUMPDEST PUSH2 0x3A9B PUSH2 0x3A96 DUP3 PUSH2 0x2E01 JUMP JUMPDEST PUSH2 0x3A78 JUMP JUMPDEST DUP3 MSTORE POP POP JUMP JUMPDEST PUSH1 0x0 DUP2 SWAP1 POP SWAP2 SWAP1 POP JUMP JUMPDEST PUSH2 0x3ABC PUSH2 0x3AB7 DUP3 PUSH2 0x2DAD JUMP JUMPDEST PUSH2 0x3AA1 JUMP JUMPDEST DUP3 MSTORE POP POP JUMP JUMPDEST PUSH1 0x0 PUSH2 0x3ACE DUP3 DUP6 PUSH2 0x3A8A JUMP JUMPDEST PUSH1 0x14 DUP3 ADD SWAP2 POP PUSH2 0x3ADE DUP3 DUP5 PUSH2 0x3AAB JUMP JUMPDEST PUSH1 0x20 DUP3 ADD SWAP2 POP DUP2 SWAP1 POP SWAP4 SWAP3 POP POP POP JUMP JUMPDEST PUSH1 0x0 PUSH1 0xA0 DUP3 ADD SWAP1 POP PUSH2 0x3B03 PUSH1 0x0 DUP4 ADD DUP9 PUSH2 0x2E13 JUMP JUMPDEST PUSH2 0x3B10 PUSH1 0x20 DUP4 ADD DUP8 PUSH2 0x2DB7 JUMP JUMPDEST PUSH2 0x3B1D PUSH1 0x40 DUP4 ADD DUP7 PUSH2 0x2DB7 JUMP JUMPDEST PUSH2 0x3B2A PUSH1 0x60 DUP4 ADD DUP6 PUSH2 0x2D83 JUMP JUMPDEST PUSH2 0x3B37 PUSH1 0x80 DUP4 ADD DUP5 PUSH2 0x2DB7 JUMP JUMPDEST SWAP7 SWAP6 POP POP POP POP POP POP JUMP JUMPDEST PUSH1 0x0 DUP1 PUSH1 0x40 DUP4 DUP6 SUB SLT ISZERO PUSH2 0x3B58 JUMPI PUSH2 0x3B57 PUSH2 0x2E47 JUMP JUMPDEST JUMPDEST PUSH1 0x0 PUSH2 0x3B66 DUP6 DUP3 DUP7 ADD PUSH2 0x387E JUMP JUMPDEST SWAP3 POP POP PUSH1 0x20 PUSH2 0x3B77 DUP6 DUP3 DUP7 ADD PUSH2 0x399A JUMP JUMPDEST SWAP2 POP POP SWAP3 POP SWAP3 SWAP1 POP JUMP JUMPDEST PUSH32 0x6F6E6C7920746865206F776E65722063616E2063616C6C20746869732066756E PUSH1 0x0 DUP3 ADD MSTORE PUSH32 0x6374696F6E000000000000000000000000000000000000000000000000000000 PUSH1 0x20 DUP3 ADD MSTORE POP JUMP JUMPDEST PUSH1 0x0 PUSH2 0x3BDD PUSH1 0x25 DUP4 PUSH2 0x39DC JUMP JUMPDEST SWAP2 POP PUSH2 0x3BE8 DUP3 PUSH2 0x3B81 JUMP JUMPDEST PUSH1 0x40 DUP3 ADD SWAP1 POP SWAP2 SWAP1 POP JUMP JUMPDEST PUSH1 0x0 PUSH1 0x20 DUP3 ADD SWAP1 POP DUP2 DUP2 SUB PUSH1 0x0 DUP4 ADD MSTORE PUSH2 0x3C0C DUP2 PUSH2 0x3BD0 JUMP JUMPDEST SWAP1 POP SWAP2 SWAP1 POP JUMP JUMPDEST PUSH1 0x0 DUP2 MLOAD SWAP1 POP SWAP2 SWAP1 POP JUMP JUMPDEST PUSH1 0x0 DUP3 DUP3 MSTORE PUSH1 0x20 DUP3 ADD SWAP1 POP SWAP3 SWAP2 POP POP JUMP JUMPDEST PUSH1 0x0 DUP2 SWAP1 POP PUSH1 0x20 DUP3 ADD SWAP1 POP SWAP2 SWAP1 POP JUMP JUMPDEST PUSH1 0x0 PUSH2 0x3C4B DUP4 DUP4 PUSH2 0x329A JUMP JUMPDEST PUSH1 0x20 DUP4 ADD SWAP1 POP SWAP3 SWAP2 POP POP JUMP JUMPDEST PUSH1 0x0 PUSH1 0x20 DUP3 ADD SWAP1 POP SWAP2 SWAP1 POP JUMP JUMPDEST PUSH1 0x0 PUSH2 0x3C6F DUP3 PUSH2 0x3C13 JUMP JUMPDEST PUSH2 0x3C79 DUP2 DUP6 PUSH2 0x3C1E JUMP JUMPDEST SWAP4 POP PUSH2 0x3C84 DUP4 PUSH2 0x3C2F JUMP JUMPDEST DUP1 PUSH1 0x0 JUMPDEST DUP4 DUP2 LT ISZERO PUSH2 0x3CB5 JUMPI DUP2 MLOAD PUSH2 0x3C9C DUP9 DUP3 PUSH2 0x3C3F JUMP JUMPDEST SWAP8 POP PUSH2 0x3CA7 DUP4 PUSH2 0x3C57 JUMP JUMPDEST SWAP3 POP POP PUSH1 0x1 DUP2 ADD SWAP1 POP PUSH2 0x3C88 JUMP JUMPDEST POP DUP6 SWAP4 POP POP POP POP SWAP3 SWAP2 POP POP JUMP JUMPDEST PUSH1 0x0 PUSH2 0x120 DUP3 ADD SWAP1 POP DUP2 DUP2 SUB PUSH1 0x0 DUP4 ADD MSTORE PUSH2 0x3CDD DUP2 DUP13 PUSH2 0x3C64 JUMP JUMPDEST SWAP1 POP PUSH2 0x3CEC PUSH1 0x20 DUP4 ADD DUP12 PUSH2 0x2E13 JUMP JUMPDEST PUSH2 0x3CF9 PUSH1 0x40 DUP4 ADD DUP11 PUSH2 0x2DB7 JUMP JUMPDEST PUSH2 0x3D06 PUSH1 0x60 DUP4 ADD DUP10 PUSH2 0x2DB7 JUMP JUMPDEST PUSH2 0x3D13 PUSH1 0x80 DUP4 ADD DUP9 PUSH2 0x2D83 JUMP JUMPDEST PUSH2 0x3D20 PUSH1 0xA0 DUP4 ADD DUP8 PUSH2 0x2DB7 JUMP JUMPDEST PUSH2 0x3D2D PUSH1 0xC0 DUP4 ADD DUP7 PUSH2 0x2DB7 JUMP JUMPDEST PUSH2 0x3D3A PUSH1 0xE0 DUP4 ADD DUP6 PUSH2 0x2F20 JUMP JUMPDEST PUSH2 0x3D48 PUSH2 0x100 DUP4 ADD DUP5 PUSH2 0x2E13 JUMP JUMPDEST SWAP11 SWAP10 POP POP POP POP POP POP POP POP POP POP JUMP JUMPDEST PUSH1 0x0 DUP2 MLOAD SWAP1 POP PUSH2 0x3D65 DUP2 PUSH2 0x315C JUMP JUMPDEST SWAP3 SWAP2 POP POP JUMP JUMPDEST PUSH1 0x0 PUSH1 0x20 DUP3 DUP5 SUB SLT ISZERO PUSH2 0x3D81 JUMPI PUSH2 0x3D80 PUSH2 0x2E47 JUMP JUMPDEST JUMPDEST PUSH1 0x0 PUSH2 0x3D8F DUP5 DUP3 DUP6 ADD PUSH2 0x3D56 JUMP JUMPDEST SWAP2 POP POP SWAP3 SWAP2 POP POP JUMP JUMPDEST PUSH1 0x0 PUSH1 0x80 DUP3 ADD SWAP1 POP PUSH2 0x3DAD PUSH1 0x0 DUP4 ADD DUP8 PUSH2 0x2E13 JUMP JUMPDEST PUSH2 0x3DBA PUSH1 0x20 DUP4 ADD DUP7 PUSH2 0x2E13 JUMP JUMPDEST PUSH2 0x3DC7 PUSH1 0x40 DUP4 ADD DUP6 PUSH2 0x2E13 JUMP JUMPDEST PUSH2 0x3DD4 PUSH1 0x60 DUP4 ADD DUP5 PUSH2 0x2D83 JUMP JUMPDEST SWAP6 SWAP5 POP POP POP POP POP JUMP JUMPDEST PUSH1 0x0 DUP1 PUSH1 0x0 DUP1 PUSH1 0x0 DUP1 PUSH1 0x0 DUP1 PUSH2 0x100 DUP10 DUP12 SUB SLT ISZERO PUSH2 0x3DFE JUMPI PUSH2 0x3DFD PUSH2 0x2E47 JUMP JUMPDEST JUMPDEST PUSH1 0x0 PUSH2 0x3E0C DUP12 DUP3 DUP13 ADD PUSH2 0x399A JUMP JUMPDEST SWAP9 POP POP PUSH1 0x20 PUSH2 0x3E1D DUP12 DUP3 DUP13 ADD PUSH2 0x399A JUMP JUMPDEST SWAP8 POP POP PUSH1 0x40 PUSH2 0x3E2E DUP12 DUP3 DUP13 ADD PUSH2 0x399A JUMP JUMPDEST SWAP7 POP POP PUSH1 0x60 PUSH2 0x3E3F DUP12 DUP3 DUP13 ADD PUSH2 0x399A JUMP JUMPDEST SWAP6 POP POP PUSH1 0x80 PUSH2 0x3E50 DUP12 DUP3 DUP13 ADD PUSH2 0x399A JUMP JUMPDEST SWAP5 POP POP PUSH1 0xA0 PUSH2 0x3E61 DUP12 DUP3 DUP13 ADD PUSH2 0x399A JUMP JUMPDEST SWAP4 POP POP PUSH1 0xC0 PUSH2 0x3E72 DUP12 DUP3 DUP13 ADD PUSH2 0x387E JUMP JUMPDEST SWAP3 POP POP PUSH1 0xE0 PUSH2 0x3E83 DUP12 DUP3 DUP13 ADD PUSH2 0x399A JUMP JUMPDEST SWAP2 POP POP SWAP3 SWAP6 SWAP9 POP SWAP3 SWAP6 SWAP9 SWAP1 SWAP4 SWAP7 POP JUMP JUMPDEST PUSH32 0x6F6E6C7920746865206F776E6572206F7220676F762063616E2063616C6C2074 PUSH1 0x0 DUP3 ADD MSTORE PUSH32 0x6869732066756E6374696F6E0000000000000000000000000000000000000000 PUSH1 0x20 DUP3 ADD MSTORE POP JUMP JUMPDEST PUSH1 0x0 PUSH2 0x3EEF PUSH1 0x2C DUP4 PUSH2 0x39DC JUMP JUMPDEST SWAP2 POP PUSH2 0x3EFA DUP3 PUSH2 0x3E93 JUMP JUMPDEST PUSH1 0x40 DUP3 ADD SWAP1 POP SWAP2 SWAP1 POP JUMP JUMPDEST PUSH1 0x0 PUSH1 0x20 DUP3 ADD SWAP1 POP DUP2 DUP2 SUB PUSH1 0x0 DUP4 ADD MSTORE PUSH2 0x3F1E DUP2 PUSH2 0x3EE2 JUMP JUMPDEST SWAP1 POP SWAP2 SWAP1 POP JUMP JUMPDEST PUSH32 0x6665650000000000000000000000000000000000000000000000000000000000 PUSH1 0x0 DUP3 ADD MSTORE POP JUMP JUMPDEST PUSH1 0x0 PUSH2 0x3F5B PUSH1 0x3 DUP4 PUSH2 0x39DC JUMP JUMPDEST SWAP2 POP PUSH2 0x3F66 DUP3 PUSH2 0x3F25 JUMP JUMPDEST PUSH1 0x20 DUP3 ADD SWAP1 POP SWAP2 SWAP1 POP JUMP JUMPDEST PUSH1 0x0 PUSH1 0x20 DUP3 ADD SWAP1 POP DUP2 DUP2 SUB PUSH1 0x0 DUP4 ADD MSTORE PUSH2 0x3F8A DUP2 PUSH2 0x3F4E JUMP JUMPDEST SWAP1 POP SWAP2 SWAP1 POP JUMP JUMPDEST PUSH32 0x6C6F616E20616D6F756E7420646F6573206E6F74207065726D6974206C697175 PUSH1 0x0 DUP3 ADD MSTORE PUSH32 0x69646174696F6E00000000000000000000000000000000000000000000000000 PUSH1 0x20 DUP3 ADD MSTORE POP JUMP JUMPDEST PUSH1 0x0 PUSH2 0x3FED PUSH1 0x27 DUP4 PUSH2 0x39DC JUMP JUMPDEST SWAP2 POP PUSH2 0x3FF8 DUP3 PUSH2 0x3F91 JUMP JUMPDEST PUSH1 0x40 DUP3 ADD SWAP1 POP SWAP2 SWAP1 POP JUMP JUMPDEST PUSH1 0x0 PUSH1 0x20 DUP3 ADD SWAP1 POP DUP2 DUP2 SUB PUSH1 0x0 DUP4 ADD MSTORE PUSH2 0x401C DUP2 PUSH2 0x3FE0 JUMP JUMPDEST SWAP1 POP SWAP2 SWAP1 POP JUMP JUMPDEST PUSH1 0x0 PUSH1 0x60 DUP3 ADD SWAP1 POP PUSH2 0x4038 PUSH1 0x0 DUP4 ADD DUP7 PUSH2 0x2E13 JUMP JUMPDEST PUSH2 0x4045 PUSH1 0x20 DUP4 ADD DUP6 PUSH2 0x2E13 JUMP JUMPDEST PUSH2 0x4052 PUSH1 0x40 DUP4 ADD DUP5 PUSH2 0x2DB7 JUMP JUMPDEST SWAP5 SWAP4 POP POP POP POP JUMP JUMPDEST PUSH1 0x0 PUSH1 0x40 DUP3 ADD SWAP1 POP PUSH2 0x406F PUSH1 0x0 DUP4 ADD DUP6 PUSH2 0x2E13 JUMP JUMPDEST PUSH2 0x407C PUSH1 0x20 DUP4 ADD DUP5 PUSH2 0x2DB7 JUMP JUMPDEST SWAP4 SWAP3 POP POP POP JUMP JUMPDEST PUSH1 0x0 PUSH2 0x140 DUP3 ADD SWAP1 POP DUP2 DUP2 SUB PUSH1 0x0 DUP4 ADD MSTORE PUSH2 0x409E DUP2 DUP14 PUSH2 0x3C64 JUMP JUMPDEST SWAP1 POP PUSH2 0x40AD PUSH1 0x20 DUP4 ADD DUP13 PUSH2 0x2E13 JUMP JUMPDEST PUSH2 0x40BA PUSH1 0x40 DUP4 ADD DUP12 PUSH2 0x2DB7 JUMP JUMPDEST PUSH2 0x40C7 PUSH1 0x60 DUP4 ADD DUP11 PUSH2 0x2DB7 JUMP JUMPDEST PUSH2 0x40D4 PUSH1 0x80 DUP4 ADD DUP10 PUSH2 0x2DB7 JUMP JUMPDEST PUSH2 0x40E1 PUSH1 0xA0 DUP4 ADD DUP9 PUSH2 0x2D83 JUMP JUMPDEST PUSH2 0x40EE PUSH1 0xC0 DUP4 ADD DUP8 PUSH2 0x2DB7 JUMP JUMPDEST PUSH2 0x40FB PUSH1 0xE0 DUP4 ADD DUP7 PUSH2 0x2DB7 JUMP JUMPDEST PUSH2 0x4109 PUSH2 0x100 DUP4 ADD DUP6 PUSH2 0x2F20 JUMP JUMPDEST PUSH2 0x4117 PUSH2 0x120 DUP4 ADD DUP5 PUSH2 0x2E13 JUMP JUMPDEST SWAP12 SWAP11 POP POP POP POP POP POP POP POP POP POP POP JUMP JUMPDEST PUSH1 0x0 PUSH1 0x60 DUP3 ADD SWAP1 POP PUSH2 0x413B PUSH1 0x0 DUP4 ADD DUP7 PUSH2 0x2E13 JUMP JUMPDEST PUSH2 0x4148 PUSH1 0x20 DUP4 ADD DUP6 PUSH2 0x2DB7 JUMP JUMPDEST PUSH2 0x4155 PUSH1 0x40 DUP4 ADD DUP5 PUSH2 0x2DB7 JUMP JUMPDEST SWAP5 SWAP4 POP POP POP POP JUMP JUMPDEST PUSH32 0x617665726765207072696365206F6620706F736974696F6E2068617320746F20 PUSH1 0x0 DUP3 ADD MSTORE PUSH32 0x62652067726561746572207468616E2030000000000000000000000000000000 PUSH1 0x20 DUP3 ADD MSTORE POP JUMP JUMPDEST PUSH1 0x0 PUSH2 0x41B9 PUSH1 0x31 DUP4 PUSH2 0x39DC JUMP JUMPDEST SWAP2 POP PUSH2 0x41C4 DUP3 PUSH2 0x415D JUMP JUMPDEST PUSH1 0x40 DUP3 ADD SWAP1 POP SWAP2 SWAP1 POP JUMP JUMPDEST PUSH1 0x0 PUSH1 0x20 DUP3 ADD SWAP1 POP DUP2 DUP2 SUB PUSH1 0x0 DUP4 ADD MSTORE PUSH2 0x41E8 DUP2 PUSH2 0x41AC JUMP JUMPDEST SWAP1 POP SWAP2 SWAP1 POP JUMP JUMPDEST PUSH1 0x0 DUP2 PUSH1 0xF8 SHL SWAP1 POP SWAP2 SWAP1 POP JUMP JUMPDEST PUSH1 0x0 PUSH2 0x4207 DUP3 PUSH2 0x41EF JUMP JUMPDEST SWAP1 POP SWAP2 SWAP1 POP JUMP JUMPDEST PUSH1 0x0 PUSH2 0x4219 DUP3 PUSH2 0x41FC JUMP JUMPDEST SWAP1 POP SWAP2 SWAP1 POP JUMP JUMPDEST PUSH2 0x4231 PUSH2 0x422C DUP3 PUSH2 0x2D77 JUMP JUMPDEST PUSH2 0x420E JUMP JUMPDEST DUP3 MSTORE POP POP JUMP JUMPDEST PUSH1 0x0 PUSH2 0x4243 DUP3 DUP7 PUSH2 0x3A8A JUMP JUMPDEST PUSH1 0x14 DUP3 ADD SWAP2 POP PUSH2 0x4253 DUP3 DUP6 PUSH2 0x3A8A JUMP JUMPDEST PUSH1 0x14 DUP3 ADD SWAP2 POP PUSH2 0x4263 DUP3 DUP5 PUSH2 0x4220 JUMP JUMPDEST PUSH1 0x1 DUP3 ADD SWAP2 POP DUP2 SWAP1 POP SWAP5 SWAP4 POP POP POP POP JUMP JUMPDEST PUSH32 0x6F6E6C7920676F762063616E2063616C6C20746869732066756E6374696F6E00 PUSH1 0x0 DUP3 ADD MSTORE POP JUMP JUMPDEST PUSH1 0x0 PUSH2 0x42AA PUSH1 0x1F DUP4 PUSH2 0x39DC JUMP JUMPDEST SWAP2 POP PUSH2 0x42B5 DUP3 PUSH2 0x4274 JUMP JUMPDEST PUSH1 0x20 DUP3 ADD SWAP1 POP SWAP2 SWAP1 POP JUMP JUMPDEST PUSH1 0x0 PUSH1 0x20 DUP3 ADD SWAP1 POP DUP2 DUP2 SUB PUSH1 0x0 DUP4 ADD MSTORE PUSH2 0x42D9 DUP2 PUSH2 0x429D JUMP JUMPDEST SWAP1 POP SWAP2 SWAP1 POP JUMP JUMPDEST PUSH1 0x0 PUSH2 0x42EB DUP3 PUSH2 0x2DAD JUMP JUMPDEST SWAP2 POP PUSH2 0x42F6 DUP4 PUSH2 0x2DAD JUMP JUMPDEST SWAP3 POP DUP3 DUP3 MUL PUSH2 0x4304 DUP2 PUSH2 0x2DAD JUMP JUMPDEST SWAP2 POP DUP3 DUP3 DIV DUP5 EQ DUP4 ISZERO OR PUSH2 0x431B JUMPI PUSH2 0x431A PUSH2 0x38EF JUMP JUMPDEST JUMPDEST POP SWAP3 SWAP2 POP POP JUMP JUMPDEST PUSH32 0x4E487B7100000000000000000000000000000000000000000000000000000000 PUSH1 0x0 MSTORE PUSH1 0x12 PUSH1 0x4 MSTORE PUSH1 0x24 PUSH1 0x0 REVERT JUMPDEST PUSH1 0x0 PUSH2 0x435C DUP3 PUSH2 0x2DAD JUMP JUMPDEST SWAP2 POP PUSH2 0x4367 DUP4 PUSH2 0x2DAD JUMP JUMPDEST SWAP3 POP DUP3 PUSH2 0x4377 JUMPI PUSH2 0x4376 PUSH2 0x4322 JUMP JUMPDEST JUMPDEST DUP3 DUP3 DIV SWAP1 POP SWAP3 SWAP2 POP POP JUMP JUMPDEST PUSH32 0x536166654D6174683A206D756C7469706C69636174696F6E206F766572666C6F PUSH1 0x0 DUP3 ADD MSTORE PUSH32 0x7700000000000000000000000000000000000000000000000000000000000000 PUSH1 0x20 DUP3 ADD MSTORE POP JUMP JUMPDEST PUSH1 0x0 PUSH2 0x43DE PUSH1 0x21 DUP4 PUSH2 0x39DC JUMP JUMPDEST SWAP2 POP PUSH2 0x43E9 DUP3 PUSH2 0x4382 JUMP JUMPDEST PUSH1 0x40 DUP3 ADD SWAP1 POP SWAP2 SWAP1 POP JUMP JUMPDEST PUSH1 0x0 PUSH1 0x20 DUP3 ADD SWAP1 POP DUP2 DUP2 SUB PUSH1 0x0 DUP4 ADD MSTORE PUSH2 0x440D DUP2 PUSH2 0x43D1 JUMP JUMPDEST SWAP1 POP SWAP2 SWAP1 POP JUMP JUMPDEST PUSH32 0x536166654D6174683A206164646974696F6E206F766572666C6F770000000000 PUSH1 0x0 DUP3 ADD MSTORE POP JUMP JUMPDEST PUSH1 0x0 PUSH2 0x444A PUSH1 0x1B DUP4 PUSH2 0x39DC JUMP JUMPDEST SWAP2 POP PUSH2 0x4455 DUP3 PUSH2 0x4414 JUMP JUMPDEST PUSH1 0x20 DUP3 ADD SWAP1 POP SWAP2 SWAP1 POP JUMP JUMPDEST PUSH1 0x0 PUSH1 0x20 DUP3 ADD SWAP1 POP DUP2 DUP2 SUB PUSH1 0x0 DUP4 ADD MSTORE PUSH2 0x4479 DUP2 PUSH2 0x443D JUMP JUMPDEST SWAP1 POP SWAP2 SWAP1 POP JUMP JUMPDEST PUSH1 0x0 PUSH2 0x160 DUP3 ADD SWAP1 POP DUP2 DUP2 SUB PUSH1 0x0 DUP4 ADD MSTORE PUSH2 0x449B DUP2 DUP15 PUSH2 0x3C64 JUMP JUMPDEST SWAP1 POP PUSH2 0x44AA PUSH1 0x20 DUP4 ADD DUP14 PUSH2 0x2E13 JUMP JUMPDEST PUSH2 0x44B7 PUSH1 0x40 DUP4 ADD DUP13 PUSH2 0x2DB7 JUMP JUMPDEST PUSH2 0x44C4 PUSH1 0x60 DUP4 ADD DUP12 PUSH2 0x2DB7 JUMP JUMPDEST PUSH2 0x44D1 PUSH1 0x80 DUP4 ADD DUP11 PUSH2 0x2D83 JUMP JUMPDEST PUSH2 0x44DE PUSH1 0xA0 DUP4 ADD DUP10 PUSH2 0x2E13 JUMP JUMPDEST PUSH2 0x44EB PUSH1 0xC0 DUP4 ADD DUP9 PUSH2 0x2DB7 JUMP JUMPDEST PUSH2 0x44F8 PUSH1 0xE0 DUP4 ADD DUP8 PUSH2 0x2DB7 JUMP JUMPDEST PUSH2 0x4506 PUSH2 0x100 DUP4 ADD DUP7 PUSH2 0x2DB7 JUMP JUMPDEST PUSH2 0x4514 PUSH2 0x120 DUP4 ADD DUP6 PUSH2 0x2D83 JUMP JUMPDEST PUSH2 0x4522 PUSH2 0x140 DUP4 ADD DUP5 PUSH2 0x2E13 JUMP JUMPDEST SWAP13 SWAP12 POP POP POP POP POP POP POP POP POP POP POP POP JUMP JUMPDEST PUSH1 0x0 DUP2 MLOAD SWAP1 POP SWAP2 SWAP1 POP JUMP JUMPDEST PUSH1 0x0 JUMPDEST DUP4 DUP2 LT ISZERO PUSH2 0x455B JUMPI DUP1 DUP3 ADD MLOAD DUP2 DUP5 ADD MSTORE PUSH1 0x20 DUP2 ADD SWAP1 POP PUSH2 0x4540 JUMP JUMPDEST PUSH1 0x0 DUP5 DUP5 ADD MSTORE POP POP POP POP JUMP JUMPDEST PUSH1 0x0 PUSH2 0x4572 DUP3 PUSH2 0x4532 JUMP JUMPDEST PUSH2 0x457C DUP2 DUP6 PUSH2 0x39DC JUMP JUMPDEST SWAP4 POP PUSH2 0x458C DUP2 DUP6 PUSH1 0x20 DUP7 ADD PUSH2 0x453D JUMP JUMPDEST PUSH2 0x4595 DUP2 PUSH2 0x3008 JUMP JUMPDEST DUP5 ADD SWAP2 POP POP SWAP3 SWAP2 POP POP JUMP JUMPDEST PUSH1 0x0 PUSH1 0x20 DUP3 ADD SWAP1 POP DUP2 DUP2 SUB PUSH1 0x0 DUP4 ADD MSTORE PUSH2 0x45BA DUP2 DUP5 PUSH2 0x4567 JUMP JUMPDEST SWAP1 POP SWAP3 SWAP2 POP POP JUMP JUMPDEST PUSH1 0x0 PUSH2 0x45CD DUP3 PUSH2 0x2DAD JUMP JUMPDEST SWAP2 POP PUSH2 0x45D8 DUP4 PUSH2 0x2DAD JUMP JUMPDEST SWAP3 POP DUP3 DUP3 SUB SWAP1 POP DUP2 DUP2 GT ISZERO PUSH2 0x45F0 JUMPI PUSH2 0x45EF PUSH2 0x38EF JUMP JUMPDEST JUMPDEST SWAP3 SWAP2 POP POP JUMP INVALID LOG2 PUSH5 0x6970667358 0x22 SLT KECCAK256 CALLDATASIZE JUMP PUSH2 0xBF47 PUSH19 0x52006348E8D1ED3D4CA0CFCD997BF29C81D06A 0xCE 0x5C PUSH19 0xEAF90BCB64736F6C6343000811003300000000 "},"methodIdentifiers":{"BASIS_POINTS_DIVISOR()":"126082cf","L1()":"7809baaf","L2()":"081752bb","MIN_DECREASE_HEALTH_FACTOR()":"725ba052","MIN_HEALTH_FACTOR()":"b5627e42","callCreateDecreasePosition(address[],address,uint256,uint256,bool,address,uint256,uint256,uint256,bool,address)":"937a0e4e","callCreateIncreasePosition(address[],address,uint256,uint256,uint256,bool,uint256,uint256,bytes32,address)":"af3ed347","callCreateIncreasePositionETH(address[],address,uint256,uint256,bool,uint256,uint256,bytes32,address)":"6e3990fc","deposit()":"d0e30db0","executeDecreasePosition()":"052143e8","existingPositionsData(uint256)":"e9f4454d","getDeltaWithMargin(address,uint256,uint256,bool)":"ca2fc17c","getPortfolioValue()":"bb0498de","getPortfolioValueWithMargin()":"3ba32df4","getPositioKey(address,address,bool)":"d3ec0be9","getPosition(address,address,bool)":"8c1395f8","getPositionValue(address,bool,uint256,uint256,uint256,uint256)":"694c1cbc","getPositionValueWithMargin(address,address,bool,uint256,uint256,uint256,uint256)":"c019bf5e","getPositions()":"80275860","getRequestKey(address,uint256)":"62f8a3fe","gov()":"12d43a51","lendingContractAddress()":"7379dbe6","liquidatePortfolio()":"584edf10","minExecutionFee()":"63ae2103","orderBookAddress()":"9409d870","ownerAddress()":"8f84aa09","portfolioHealthFactor()":"ffb991b0","positionRouterAddress()":"d422b00f","routerAddress()":"3268cc56","setLendingContractAddress(address)":"13f2d128","setMinExecutionFee(uint256)":"fc2cee62","setPositionRouterAddress(address)":"a0f14034","setRouterAddress(address)":"41cb87fc","setVaultContractAddress(address)":"871105cc","setWethAddress(address)":"a96e2423","validateDecreasePosition(address,address[],bool)":"f8388225","vaultContractAddress()":"a92ea0e0","wethAddress()":"4f0e0ef3"}}}}}