{"contracts/AbstractPosition.sol":{"AbstractPosition":{"abi":[{"inputs":[{"internalType":"address","name":"_gov","type":"address"},{"internalType":"address","name":"_lendingContractAddress","type":"address"},{"internalType":"address","name":"_ownerAddress","type":"address"},{"internalType":"address","name":"_positionRouterAddress","type":"address"},{"internalType":"address","name":"_routerAddress","type":"address"},{"internalType":"address","name":"_orderBookAddress","type":"address"},{"internalType":"address","name":"_vaultContractAddress","type":"address"}],"stateMutability":"nonpayable","type":"constructor"},{"inputs":[],"name":"BASIS_POINTS_DIVISOR","outputs":[{"internalType":"uint256","name":"","type":"uint256"}],"stateMutability":"view","type":"function"},{"inputs":[],"name":"L1","outputs":[{"internalType":"uint256","name":"","type":"uint256"}],"stateMutability":"view","type":"function"},{"inputs":[],"name":"L2","outputs":[{"internalType":"uint256","name":"","type":"uint256"}],"stateMutability":"view","type":"function"},{"inputs":[],"name":"MIN_DECREASE_HEALTH_FACTOR","outputs":[{"internalType":"uint256","name":"","type":"uint256"}],"stateMutability":"view","type":"function"},{"inputs":[],"name":"MIN_HEALTH_FACTOR","outputs":[{"internalType":"uint256","name":"","type":"uint256"}],"stateMutability":"view","type":"function"},{"inputs":[{"internalType":"address[]","name":"_path","type":"address[]"},{"internalType":"address","name":"_indexToken","type":"address"},{"internalType":"uint256","name":"_collateralDelta","type":"uint256"},{"internalType":"uint256","name":"_sizeDelta","type":"uint256"},{"internalType":"bool","name":"_isLong","type":"bool"},{"internalType":"address","name":"_receiver","type":"address"},{"internalType":"uint256","name":"_acceptablePrice","type":"uint256"},{"internalType":"uint256","name":"_minOut","type":"uint256"},{"internalType":"uint256","name":"_executionFee","type":"uint256"},{"internalType":"bool","name":"_withdrawETH","type":"bool"},{"internalType":"address","name":"_callbackTarget","type":"address"}],"name":"callCreateDecreasePosition","outputs":[{"internalType":"bytes32","name":"","type":"bytes32"}],"stateMutability":"payable","type":"function"},{"inputs":[{"internalType":"address[]","name":"_path","type":"address[]"},{"internalType":"address","name":"_indexToken","type":"address"},{"internalType":"uint256","name":"_amountIn","type":"uint256"},{"internalType":"uint256","name":"_minOut","type":"uint256"},{"internalType":"uint256","name":"_sizeDelta","type":"uint256"},{"internalType":"bool","name":"_isLong","type":"bool"},{"internalType":"uint256","name":"_acceptablePrice","type":"uint256"},{"internalType":"uint256","name":"_executionFee","type":"uint256"},{"internalType":"bytes32","name":"_referralCode","type":"bytes32"},{"internalType":"address","name":"_callbackTarget","type":"address"}],"name":"callCreateIncreasePosition","outputs":[{"internalType":"bytes32","name":"","type":"bytes32"}],"stateMutability":"payable","type":"function"},{"inputs":[{"internalType":"address[]","name":"_path","type":"address[]"},{"internalType":"address","name":"_indexToken","type":"address"},{"internalType":"uint256","name":"_minOut","type":"uint256"},{"internalType":"uint256","name":"_sizeDelta","type":"uint256"},{"internalType":"bool","name":"_isLong","type":"bool"},{"internalType":"uint256","name":"_acceptablePrice","type":"uint256"},{"internalType":"uint256","name":"_executionFee","type":"uint256"},{"internalType":"bytes32","name":"_referralCode","type":"bytes32"},{"internalType":"address","name":"_callbackTarget","type":"address"}],"name":"callCreateIncreasePositionETH","outputs":[{"internalType":"bytes32","name":"","type":"bytes32"}],"stateMutability":"payable","type":"function"},{"inputs":[],"name":"deposit","outputs":[],"stateMutability":"payable","type":"function"},{"inputs":[{"internalType":"uint256","name":"","type":"uint256"}],"name":"existingPositionsData","outputs":[{"internalType":"address","name":"indexToken","type":"address"},{"internalType":"address","name":"collateralToken","type":"address"},{"internalType":"bool","name":"isLong","type":"bool"}],"stateMutability":"view","type":"function"},{"inputs":[{"internalType":"address","name":"_indexToken","type":"address"},{"internalType":"uint256","name":"_size","type":"uint256"},{"internalType":"uint256","name":"_averagePrice","type":"uint256"},{"internalType":"bool","name":"_isLong","type":"bool"}],"name":"getDeltaWithMargin","outputs":[{"internalType":"bool","name":"","type":"bool"},{"internalType":"uint256","name":"","type":"uint256"}],"stateMutability":"view","type":"function"},{"inputs":[],"name":"getPortfolioValue","outputs":[{"internalType":"uint256","name":"","type":"uint256"}],"stateMutability":"view","type":"function"},{"inputs":[],"name":"getPortfolioValueWithMargin","outputs":[{"internalType":"uint256","name":"","type":"uint256"}],"stateMutability":"view","type":"function"},{"inputs":[{"internalType":"address","name":"_indexToken","type":"address"},{"internalType":"address","name":"_collateralToken","type":"address"},{"internalType":"bool","name":"_isLong","type":"bool"}],"name":"getPositioKey","outputs":[{"internalType":"bytes32","name":"","type":"bytes32"}],"stateMutability":"pure","type":"function"},{"inputs":[{"internalType":"address","name":"_indexToken","type":"address"},{"internalType":"address","name":"_collateralToken","type":"address"},{"internalType":"bool","name":"_isLong","type":"bool"}],"name":"getPosition","outputs":[{"internalType":"uint256","name":"","type":"uint256"},{"internalType":"uint256","name":"","type":"uint256"},{"internalType":"uint256","name":"","type":"uint256"},{"internalType":"uint256","name":"","type":"uint256"},{"internalType":"uint256","name":"","type":"uint256"}],"stateMutability":"view","type":"function"},{"inputs":[{"internalType":"address","name":"_indexToken","type":"address"},{"internalType":"bool","name":"_isLong","type":"bool"},{"internalType":"uint256","name":"_positionCollateral","type":"uint256"},{"internalType":"uint256","name":"_positionSize","type":"uint256"},{"internalType":"uint256","name":"_positionAveragePrice","type":"uint256"},{"internalType":"uint256","name":"_positionLastIncreasedTime","type":"uint256"}],"name":"getPositionValue","outputs":[{"internalType":"uint256","name":"","type":"uint256"}],"stateMutability":"view","type":"function"},{"inputs":[{"internalType":"address","name":"_indexToken","type":"address"},{"internalType":"address","name":"_collateralToken","type":"address"},{"internalType":"bool","name":"_isLong","type":"bool"},{"internalType":"uint256","name":"_positionCollateral","type":"uint256"},{"internalType":"uint256","name":"_positionSize","type":"uint256"},{"internalType":"uint256","name":"_positionAveragePrice","type":"uint256"},{"internalType":"uint256","name":"_positionEntryFundingRate","type":"uint256"}],"name":"getPositionValueWithMargin","outputs":[{"internalType":"uint256","name":"","type":"uint256"}],"stateMutability":"view","type":"function"},{"inputs":[],"name":"getPositions","outputs":[{"components":[{"internalType":"address","name":"indexToken","type":"address"},{"internalType":"address","name":"collateralToken","type":"address"},{"internalType":"bool","name":"isLong","type":"bool"}],"internalType":"struct AbstractPosition.PositionData[]","name":"","type":"tuple[]"}],"stateMutability":"view","type":"function"},{"inputs":[],"name":"gov","outputs":[{"internalType":"address","name":"","type":"address"}],"stateMutability":"view","type":"function"},{"inputs":[],"name":"lendingContractAddress","outputs":[{"internalType":"address","name":"","type":"address"}],"stateMutability":"view","type":"function"},{"inputs":[],"name":"minExecutionFee","outputs":[{"internalType":"uint256","name":"","type":"uint256"}],"stateMutability":"view","type":"function"},{"inputs":[],"name":"orderBookAddress","outputs":[{"internalType":"address","name":"","type":"address"}],"stateMutability":"view","type":"function"},{"inputs":[],"name":"ownerAddress","outputs":[{"internalType":"address","name":"","type":"address"}],"stateMutability":"view","type":"function"},{"inputs":[],"name":"portfolioHealthFactor","outputs":[{"internalType":"uint256","name":"","type":"uint256"}],"stateMutability":"view","type":"function"},{"inputs":[],"name":"positionRouterAddress","outputs":[{"internalType":"address","name":"","type":"address"}],"stateMutability":"view","type":"function"},{"inputs":[],"name":"routerAddress","outputs":[{"internalType":"address","name":"","type":"address"}],"stateMutability":"view","type":"function"},{"inputs":[{"internalType":"address","name":"_lendingContractAddress","type":"address"}],"name":"setLendingContractAddress","outputs":[],"stateMutability":"nonpayable","type":"function"},{"inputs":[{"internalType":"uint256","name":"_minExecutionFee","type":"uint256"}],"name":"setMinExecutionFee","outputs":[],"stateMutability":"nonpayable","type":"function"},{"inputs":[{"internalType":"address","name":"newAddress","type":"address"}],"name":"setPositionRouterAddress","outputs":[],"stateMutability":"nonpayable","type":"function"},{"inputs":[{"internalType":"address","name":"newAddress","type":"address"}],"name":"setRouterAddress","outputs":[],"stateMutability":"nonpayable","type":"function"},{"inputs":[{"internalType":"uint256","name":"_minExecutionFee","type":"uint256"}],"name":"setVaultContractAddress","outputs":[],"stateMutability":"nonpayable","type":"function"},{"inputs":[{"internalType":"address","name":"_indexToken","type":"address"},{"internalType":"address[]","name":"_path","type":"address[]"},{"internalType":"bool","name":"_isLong","type":"bool"}],"name":"validateDecreasePosition","outputs":[{"internalType":"bool","name":"","type":"bool"}],"stateMutability":"view","type":"function"},{"inputs":[],"name":"vaultContractAddress","outputs":[{"internalType":"address","name":"","type":"address"}],"stateMutability":"view","type":"function"}],"evm":{"bytecode":{"linkReferences":{},"object":"60806040523480156200001157600080fd5b50604051620040a5380380620040a583398181016040528101906200003791906200030b565b866000806101000a81548173ffffffffffffffffffffffffffffffffffffffff021916908373ffffffffffffffffffffffffffffffffffffffff16021790555084600660006101000a81548173ffffffffffffffffffffffffffffffffffffffff021916908373ffffffffffffffffffffffffffffffffffffffff16021790555085600160006101000a81548173ffffffffffffffffffffffffffffffffffffffff021916908373ffffffffffffffffffffffffffffffffffffffff16021790555083600260006101000a81548173ffffffffffffffffffffffffffffffffffffffff021916908373ffffffffffffffffffffffffffffffffffffffff16021790555082600360006101000a81548173ffffffffffffffffffffffffffffffffffffffff021916908373ffffffffffffffffffffffffffffffffffffffff16021790555081600460006101000a81548173ffffffffffffffffffffffffffffffffffffffff021916908373ffffffffffffffffffffffffffffffffffffffff16021790555080600560006101000a81548173ffffffffffffffffffffffffffffffffffffffff021916908373ffffffffffffffffffffffffffffffffffffffff16021790555060008390508073ffffffffffffffffffffffffffffffffffffffff166338c74dd9600260009054906101000a900473ffffffffffffffffffffffffffffffffffffffff166040518263ffffffff1660e01b81526004016200025f9190620003cf565b600060405180830381600087803b1580156200027a57600080fd5b505af11580156200028f573d6000803e3d6000fd5b505050505050505050505050620003ec565b600080fd5b600073ffffffffffffffffffffffffffffffffffffffff82169050919050565b6000620002d382620002a6565b9050919050565b620002e581620002c6565b8114620002f157600080fd5b50565b6000815190506200030581620002da565b92915050565b600080600080600080600060e0888a0312156200032d576200032c620002a1565b5b60006200033d8a828b01620002f4565b9750506020620003508a828b01620002f4565b9650506040620003638a828b01620002f4565b9550506060620003768a828b01620002f4565b9450506080620003898a828b01620002f4565b93505060a06200039c8a828b01620002f4565b92505060c0620003af8a828b01620002f4565b91505092959891949750929550565b620003c981620002c6565b82525050565b6000602082019050620003e66000830184620003be565b92915050565b613ca980620003fc6000396000f3fe6080604052600436106101ee5760003560e01c8063937a0e4e1161010d578063c019bf5e116100a0578063d422b00f1161006f578063d422b00f146106ec578063e9f4454d14610717578063f838822514610756578063fc2cee6214610793578063ffb991b0146107bc576101ee565b8063c019bf5e1461062a578063ca2fc17c14610667578063d0e30db0146106a5578063d3ec0be9146106af576101ee565b8063af3ed347116100dc578063af3ed3471461057b578063b5627e42146105ab578063bb0498de146105d6578063bcb81c3d14610601576101ee565b8063937a0e4e146104cc5780639409d870146104fc578063a0f1403414610527578063a92ea0e014610550576101ee565b8063694c1cbc116101855780637809baaf116101545780637809baaf1461040a57806380275860146104355780638c1395f8146104605780638f84aa09146104a1576101ee565b8063694c1cbc146103475780636e3990fc14610384578063725ba052146103b45780637379dbe6146103df576101ee565b80633268cc56116101c15780633268cc561461029d5780633ba32df4146102c857806341cb87fc146102f357806363ae21031461031c576101ee565b8063081752bb146101f3578063126082cf1461021e57806312d43a511461024957806313f2d12814610274575b600080fd5b3480156101ff57600080fd5b506102086107e7565b604051610215919061252f565b60405180910390f35b34801561022a57600080fd5b506102336107ec565b604051610240919061252f565b60405180910390f35b34801561025557600080fd5b5061025e6107f2565b60405161026b919061258b565b60405180910390f35b34801561028057600080fd5b5061029b600480360381019061029691906125e6565b610816565b005b3480156102a957600080fd5b506102b2610862565b6040516102bf919061258b565b60405180910390f35b3480156102d457600080fd5b506102dd610888565b6040516102ea919061252f565b60405180910390f35b3480156102ff57600080fd5b5061031a600480360381019061031591906125e6565b610b97565b005b34801561032857600080fd5b50610331610be3565b60405161033e919061252f565b60405180910390f35b34801561035357600080fd5b5061036e60048036038101906103699190612677565b610be9565b60405161037b919061252f565b60405180910390f35b61039e60048036038101906103999190612893565b610ce9565b6040516103ab9190612988565b60405180910390f35b3480156103c057600080fd5b506103c9610e4a565b6040516103d6919061252f565b60405180910390f35b3480156103eb57600080fd5b506103f4610e50565b604051610401919061258b565b60405180910390f35b34801561041657600080fd5b5061041f610e76565b60405161042c919061252f565b60405180910390f35b34801561044157600080fd5b5061044a610e7b565b6040516104579190612ab2565b60405180910390f35b34801561046c57600080fd5b5061048760048036038101906104829190612ad4565b610fa1565b604051610498959493929190612b27565b60405180910390f35b3480156104ad57600080fd5b506104b66110b9565b6040516104c3919061258b565b60405180910390f35b6104e660048036038101906104e19190612b7a565b6110df565b6040516104f39190612988565b60405180910390f35b34801561050857600080fd5b50610511611319565b60405161051e919061258b565b60405180910390f35b34801561053357600080fd5b5061054e600480360381019061054991906125e6565b61133f565b005b34801561055c57600080fd5b5061056561138b565b604051610572919061258b565b60405180910390f35b61059560048036038101906105909190612c8a565b6113b1565b6040516105a29190612988565b60405180910390f35b3480156105b757600080fd5b506105c061166d565b6040516105cd919061252f565b60405180910390f35b3480156105e257600080fd5b506105eb611673565b6040516105f8919061252f565b60405180910390f35b34801561060d57600080fd5b5061062860048036038101906106239190612d85565b61181b565b005b34801561063657600080fd5b50610651600480360381019061064c9190612db2565b61182d565b60405161065e919061252f565b60405180910390f35b34801561067357600080fd5b5061068e60048036038101906106899190612e54565b6119fa565b60405161069c929190612eca565b60405180910390f35b6106ad611c88565b005b3480156106bb57600080fd5b506106d660048036038101906106d19190612ad4565b611c9e565b6040516106e39190612988565b60405180910390f35b3480156106f857600080fd5b50610701611cd4565b60405161070e919061258b565b60405180910390f35b34801561072357600080fd5b5061073e60048036038101906107399190612d85565b611cfa565b60405161074d93929190612ef3565b60405180910390f35b34801561076257600080fd5b5061077d60048036038101906107789190612f2a565b611d81565b60405161078a9190612f99565b60405180910390f35b34801561079f57600080fd5b506107ba60048036038101906107b59190612d85565b611f28565b005b3480156107c857600080fd5b506107d1611f3a565b6040516107de919061252f565b60405180910390f35b606481565b61271081565b60008054906101000a900473ffffffffffffffffffffffffffffffffffffffff1681565b61081e61204b565b80600160006101000a81548173ffffffffffffffffffffffffffffffffffffffff021916908373ffffffffffffffffffffffffffffffffffffffff16021790555050565b600360009054906101000a900473ffffffffffffffffffffffffffffffffffffffff1681565b600080600090506000805b600980549050811015610a7d5760008060008061096d600986815481106108bd576108bc612fb4565b5b906000526020600020906002020160000160009054906101000a900473ffffffffffffffffffffffffffffffffffffffff166009878154811061090357610902612fb4565b5b906000526020600020906002020160010160009054906101000a900473ffffffffffffffffffffffffffffffffffffffff166009888154811061094957610948612fb4565b5b906000526020600020906002020160010160149054906101000a900460ff16610fa1565b5093509350935093506000831115610a6657610a4a6009868154811061099657610995612fb4565b5b906000526020600020906002020160000160009054906101000a900473ffffffffffffffffffffffffffffffffffffffff16600987815481106109dc576109db612fb4565b5b906000526020600020906002020160010160009054906101000a900473ffffffffffffffffffffffffffffffffffffffff1660098881548110610a2257610a21612fb4565b5b906000526020600020906002020160010160149054906101000a900460ff168688878761182d565b87610a559190613012565b96508386610a639190613012565b95505b505050508080610a7590613046565b915050610893565b506000600160009054906101000a900473ffffffffffffffffffffffffffffffffffffffff1673ffffffffffffffffffffffffffffffffffffffff1663db1e4ff8600660009054906101000a900473ffffffffffffffffffffffffffffffffffffffff166040518263ffffffff1660e01b8152600401610afd919061258b565b602060405180830381865afa158015610b1a573d6000803e3d6000fd5b505050506040513d601f19601f82011682018060405250810190610b3e91906130a3565b9050610b8c81610b7e610b6f612710610b616064886120db90919063ffffffff16565b61215590919063ffffffff16565b8661219f90919063ffffffff16565b61219f90919063ffffffff16565b925082935050505090565b610b9f61204b565b80600360006101000a81548173ffffffffffffffffffffffffffffffffffffffff021916908373ffffffffffffffffffffffffffffffffffffffff16021790555050565b60075481565b6000808503610bfb5760009050610cdf565b600080600560009054906101000a900473ffffffffffffffffffffffffffffffffffffffff1673ffffffffffffffffffffffffffffffffffffffff16635c07eaab8a88888c896040518663ffffffff1660e01b8152600401610c619594939291906130d0565b6040805180830381865afa158015610c7d573d6000803e3d6000fd5b505050506040513d601f19601f82011682018060405250810190610ca19190613138565b915091508115610cc757610cbe81886121e990919063ffffffff16565b92505050610cdf565b610cda818861219f90919063ffffffff16565b925050505b9695505050505050565b6000600660009054906101000a900473ffffffffffffffffffffffffffffffffffffffff1673ffffffffffffffffffffffffffffffffffffffff163373ffffffffffffffffffffffffffffffffffffffff1614610d7b576040517f08c379a0000000000000000000000000000000000000000000000000000000008152600401610d72906131fb565b60405180910390fd5b610d868a8a88612247565b6000600260009054906101000a900473ffffffffffffffffffffffffffffffffffffffff1690508073ffffffffffffffffffffffffffffffffffffffff16635b88e8c6348d8d8d8d8d8d8d8d8d6040518b63ffffffff1660e01b8152600401610df7999897969594939291906132ca565b60206040518083038185885af1158015610e15573d6000803e3d6000fd5b50505050506040513d601f19601f82011682018060405250810190610e3a9190613373565b9150509998505050505050505050565b612af881565b600160009054906101000a900473ffffffffffffffffffffffffffffffffffffffff1681565b606481565b60606009805480602002602001604051908101604052809291908181526020016000905b82821015610f9857838290600052602060002090600202016040518060600160405290816000820160009054906101000a900473ffffffffffffffffffffffffffffffffffffffff1673ffffffffffffffffffffffffffffffffffffffff1673ffffffffffffffffffffffffffffffffffffffff1681526020016001820160009054906101000a900473ffffffffffffffffffffffffffffffffffffffff1673ffffffffffffffffffffffffffffffffffffffff1673ffffffffffffffffffffffffffffffffffffffff1681526020016001820160149054906101000a900460ff16151515158152505081526020019060010190610e9f565b50505050905090565b6000806000806000610fb16124d1565b600560009054906101000a900473ffffffffffffffffffffffffffffffffffffffff1673ffffffffffffffffffffffffffffffffffffffff16634a3f088d308a8c8b6040518563ffffffff1660e01b815260040161101294939291906133a0565b61010060405180830381865afa158015611030573d6000803e3d6000fd5b505050506040513d601f19601f8201168201806040525081019061105491906133e5565b909192509091509050856000018660200187604001886060018960c0018581525085815250858152508581525085815250505050505080600001518160200151826040015183606001518460c001519550955095509550955050939792965093509350565b600660009054906101000a900473ffffffffffffffffffffffffffffffffffffffff1681565b6000600660009054906101000a900473ffffffffffffffffffffffffffffffffffffffff1673ffffffffffffffffffffffffffffffffffffffff163373ffffffffffffffffffffffffffffffffffffffff16148061118a5750600160009054906101000a900473ffffffffffffffffffffffffffffffffffffffff1673ffffffffffffffffffffffffffffffffffffffff163373ffffffffffffffffffffffffffffffffffffffff16145b6111c9576040517f08c379a00000000000000000000000000000000000000000000000000000000081526004016111c09061350d565b60405180910390fd5b83341461120b576040517f08c379a000000000000000000000000000000000000000000000000000000000815260040161120290613579565b60405180910390fd5b6112168b8d8a611d81565b611255576040517f08c379a000000000000000000000000000000000000000000000000000000000815260040161124c9061360b565b60405180910390fd5b600260009054906101000a900473ffffffffffffffffffffffffffffffffffffffff1673ffffffffffffffffffffffffffffffffffffffff16637be7d141348e8e8e8e8e8e8e8e8e8e8e6040518d63ffffffff1660e01b81526004016112c59b9a9998979695949392919061362b565b60206040518083038185885af11580156112e3573d6000803e3d6000fd5b50505050506040513d601f19601f820116820180604052508101906113089190613373565b90509b9a5050505050505050505050565b600460009054906101000a900473ffffffffffffffffffffffffffffffffffffffff1681565b61134761204b565b80600260006101000a81548173ffffffffffffffffffffffffffffffffffffffff021916908373ffffffffffffffffffffffffffffffffffffffff16021790555050565b600560009054906101000a900473ffffffffffffffffffffffffffffffffffffffff1681565b6000600660009054906101000a900473ffffffffffffffffffffffffffffffffffffffff1673ffffffffffffffffffffffffffffffffffffffff163373ffffffffffffffffffffffffffffffffffffffff1614611443576040517f08c379a000000000000000000000000000000000000000000000000000000000815260040161143a906131fb565b60405180910390fd5b61144e8b8b88612247565b8a60008151811061146257611461612fb4565b5b602002602001015173ffffffffffffffffffffffffffffffffffffffff166323b872dd33308c6040518463ffffffff1660e01b81526004016114a6939291906136dd565b6020604051808303816000875af11580156114c5573d6000803e3d6000fd5b505050506040513d601f19601f820116820180604052508101906114e99190613714565b508a6000815181106114fe576114fd612fb4565b5b602002602001015173ffffffffffffffffffffffffffffffffffffffff1663095ea7b3600360009054906101000a900473ffffffffffffffffffffffffffffffffffffffff168b6040518363ffffffff1660e01b8152600401611562929190613741565b6020604051808303816000875af1158015611581573d6000803e3d6000fd5b505050506040513d601f19601f820116820180604052508101906115a59190613714565b506000600260009054906101000a900473ffffffffffffffffffffffffffffffffffffffff1690508073ffffffffffffffffffffffffffffffffffffffff1663f2ae372f348e8e8e8e8e8e8e8e8e8e6040518c63ffffffff1660e01b81526004016116199a9998979695949392919061376a565b60206040518083038185885af1158015611637573d6000803e3d6000fd5b50505050506040513d601f19601f8201168201806040525081019061165c9190613373565b9150509a9950505050505050505050565b61271081565b6000806000905060005b60098054905081101561181357600080600080611757600986815481106116a7576116a6612fb4565b5b906000526020600020906002020160000160009054906101000a900473ffffffffffffffffffffffffffffffffffffffff16600987815481106116ed576116ec612fb4565b5b906000526020600020906002020160010160009054906101000a900473ffffffffffffffffffffffffffffffffffffffff166009888154811061173357611732612fb4565b5b906000526020600020906002020160010160149054906101000a900460ff16610fa1565b94505093509350935060008311156117fc576117ee600986815481106117805761177f612fb4565b5b906000526020600020906002020160000160009054906101000a900473ffffffffffffffffffffffffffffffffffffffff16600987815481106117c6576117c5612fb4565b5b906000526020600020906002020160010160149054906101000a900460ff1685878686610be9565b866117f99190613012565b95505b50505050808061180b90613046565b91505061167d565b508091505090565b61182361204b565b8060078190555050565b600080600061183e8a87878b6119fa565b915091506000600560009054906101000a900473ffffffffffffffffffffffffffffffffffffffff1673ffffffffffffffffffffffffffffffffffffffff1663cc5b81448b89886040518463ffffffff1660e01b81526004016118a39392919061380d565b602060405180830381865afa1580156118c0573d6000803e3d6000fd5b505050506040513d601f19601f820116820180604052508101906118e491906130a3565b9050600560009054906101000a900473ffffffffffffffffffffffffffffffffffffffff1673ffffffffffffffffffffffffffffffffffffffff166317bbf25c886040518263ffffffff1660e01b8152600401611941919061252f565b602060405180830381865afa15801561195e573d6000803e3d6000fd5b505050506040513d601f19601f8201168201806040525081019061198291906130a3565b8161198d9190613012565b905082156119c4576119ba816119ac848b6121e990919063ffffffff16565b61219f90919063ffffffff16565b93505050506119ef565b6119e9816119db848b61219f90919063ffffffff16565b61219f90919063ffffffff16565b93505050505b979650505050505050565b60008060008411611a40576040517f08c379a0000000000000000000000000000000000000000000000000000000008152600401611a37906138b6565b60405180910390fd5b600083611b2357611b1e612710611b10611a6660646127106121e990919063ffffffff16565b600560009054906101000a900473ffffffffffffffffffffffffffffffffffffffff1673ffffffffffffffffffffffffffffffffffffffff1663e124e6d28c6040518263ffffffff1660e01b8152600401611ac1919061258b565b602060405180830381865afa158015611ade573d6000803e3d6000fd5b505050506040513d601f19601f82011682018060405250810190611b0291906130a3565b6120db90919063ffffffff16565b61215590919063ffffffff16565b611bfb565b611bfa612710611bec611b42606461271061219f90919063ffffffff16565b600560009054906101000a900473ffffffffffffffffffffffffffffffffffffffff1673ffffffffffffffffffffffffffffffffffffffff166381a612d68c6040518263ffffffff1660e01b8152600401611b9d919061258b565b602060405180830381865afa158015611bba573d6000803e3d6000fd5b505050506040513d601f19601f82011682018060405250810190611bde91906130a3565b6120db90919063ffffffff16565b61215590919063ffffffff16565b5b90506000818611611c1e57611c19868361219f90919063ffffffff16565b611c32565b611c31828761219f90919063ffffffff16565b5b90506000611c5b87611c4d848b6120db90919063ffffffff16565b61215590919063ffffffff16565b905060008615611c6f578784119050611c75565b83881190505b8082955095505050505094509492505050565b670de0b6b3a76400003414611c9c57600080fd5b565b6000838383604051602001611cb593929190613966565b6040516020818303038152906040528051906020012090509392505050565b600260009054906101000a900473ffffffffffffffffffffffffffffffffffffffff1681565b60098181548110611d0a57600080fd5b90600052602060002090600202016000915090508060000160009054906101000a900473ffffffffffffffffffffffffffffffffffffffff16908060010160009054906101000a900473ffffffffffffffffffffffffffffffffffffffff16908060010160149054906101000a900460ff16905083565b600080600160009054906101000a900473ffffffffffffffffffffffffffffffffffffffff1673ffffffffffffffffffffffffffffffffffffffff1663d04f246b600660009054906101000a900473ffffffffffffffffffffffffffffffffffffffff166040518263ffffffff1660e01b8152600401611e01919061258b565b602060405180830381865afa158015611e1e573d6000803e3d6000fd5b505050506040513d601f19601f82011682018060405250810190611e4291906130a3565b905060008103611e56576001915050611f21565b600080600080611e958989611e7660018c5161219f90919063ffffffff16565b81518110611e8757611e86612fb4565b5b602002602001015189610fa1565b9450509350935093506000611ea8610888565b90506000611eba8b8a87898888610be9565b905080821015611ed4576000975050505050505050611f21565b6000611f0f88611f01612710611ef3868861219f90919063ffffffff16565b6120db90919063ffffffff16565b61215590919063ffffffff16565b9050612af88111985050505050505050505b9392505050565b611f3061204b565b8060078190555050565b600080600160009054906101000a900473ffffffffffffffffffffffffffffffffffffffff1673ffffffffffffffffffffffffffffffffffffffff1663d04f246b600660009054906101000a900473ffffffffffffffffffffffffffffffffffffffff166040518263ffffffff1660e01b8152600401611fba919061258b565b602060405180830381865afa158015611fd7573d6000803e3d6000fd5b505050506040513d601f19601f82011682018060405250810190611ffb91906130a3565b90506000612007610888565b90506000820361201c57600092505050612048565b61204382612035612710846120db90919063ffffffff16565b61215590919063ffffffff16565b925050505b90565b60008054906101000a900473ffffffffffffffffffffffffffffffffffffffff1673ffffffffffffffffffffffffffffffffffffffff163373ffffffffffffffffffffffffffffffffffffffff16146120d9576040517f08c379a00000000000000000000000000000000000000000000000000000000081526004016120d0906139ef565b60405180910390fd5b565b60008083036120ed576000905061214f565b600082846120fb9190613a0f565b905082848261210a9190613a80565b1461214a576040517f08c379a000000000000000000000000000000000000000000000000000000000815260040161214190613b23565b60405180910390fd5b809150505b92915050565b600061219783836040518060400160405280601a81526020017f536166654d6174683a206469766973696f6e206279207a65726f00000000000081525061240a565b905092915050565b60006121e183836040518060400160405280601e81526020017f536166654d6174683a207375627472616374696f6e206f766572666c6f77000081525061246d565b905092915050565b60008082846121f89190613012565b90508381101561223d576040517f08c379a000000000000000000000000000000000000000000000000000000000815260040161223490613b8f565b60405180910390fd5b8091505092915050565b60008361225f6001865161219f90919063ffffffff16565b815181106122705761226f612fb4565b5b6020026020010151905060086000612289858486611c9e565b815260200190815260200160002060009054906101000a900460ff1661240457600960405180606001604052808573ffffffffffffffffffffffffffffffffffffffff1681526020018373ffffffffffffffffffffffffffffffffffffffff168152602001841515815250908060018154018082558091505060019003906000526020600020906002020160009091909190915060008201518160000160006101000a81548173ffffffffffffffffffffffffffffffffffffffff021916908373ffffffffffffffffffffffffffffffffffffffff16021790555060208201518160010160006101000a81548173ffffffffffffffffffffffffffffffffffffffff021916908373ffffffffffffffffffffffffffffffffffffffff16021790555060408201518160010160146101000a81548160ff02191690831515021790555050506001600860006123de868587611c9e565b815260200190815260200160002060006101000a81548160ff0219169083151502179055505b50505050565b60008083118290612451576040517f08c379a00000000000000000000000000000000000000000000000000000000081526004016124489190613c1d565b60405180910390fd5b50600083856124609190613a80565b9050809150509392505050565b60008383111582906124b5576040517f08c379a00000000000000000000000000000000000000000000000000000000081526004016124ac9190613c1d565b60405180910390fd5b50600083856124c49190613c3f565b9050809150509392505050565b60405180610100016040528060008152602001600081526020016000815260200160008152602001600081526020016000815260200160008152602001600081525090565b6000819050919050565b61252981612516565b82525050565b60006020820190506125446000830184612520565b92915050565b600073ffffffffffffffffffffffffffffffffffffffff82169050919050565b60006125758261254a565b9050919050565b6125858161256a565b82525050565b60006020820190506125a0600083018461257c565b92915050565b6000604051905090565b600080fd5b600080fd5b6125c38161256a565b81146125ce57600080fd5b50565b6000813590506125e0816125ba565b92915050565b6000602082840312156125fc576125fb6125b0565b5b600061260a848285016125d1565b91505092915050565b60008115159050919050565b61262881612613565b811461263357600080fd5b50565b6000813590506126458161261f565b92915050565b61265481612516565b811461265f57600080fd5b50565b6000813590506126718161264b565b92915050565b60008060008060008060c08789031215612694576126936125b0565b5b60006126a289828a016125d1565b96505060206126b389828a01612636565b95505060406126c489828a01612662565b94505060606126d589828a01612662565b93505060806126e689828a01612662565b92505060a06126f789828a01612662565b9150509295509295509295565b600080fd5b6000601f19601f8301169050919050565b7f4e487b7100000000000000000000000000000000000000000000000000000000600052604160045260246000fd5b61275282612709565b810181811067ffffffffffffffff821117156127715761277061271a565b5b80604052505050565b60006127846125a6565b90506127908282612749565b919050565b600067ffffffffffffffff8211156127b0576127af61271a565b5b602082029050602081019050919050565b600080fd5b60006127d96127d484612795565b61277a565b905080838252602082019050602084028301858111156127fc576127fb6127c1565b5b835b81811015612825578061281188826125d1565b8452602084019350506020810190506127fe565b5050509392505050565b600082601f83011261284457612843612704565b5b81356128548482602086016127c6565b91505092915050565b6000819050919050565b6128708161285d565b811461287b57600080fd5b50565b60008135905061288d81612867565b92915050565b60008060008060008060008060006101208a8c0312156128b6576128b56125b0565b5b60008a013567ffffffffffffffff8111156128d4576128d36125b5565b5b6128e08c828d0161282f565b99505060206128f18c828d016125d1565b98505060406129028c828d01612662565b97505060606129138c828d01612662565b96505060806129248c828d01612636565b95505060a06129358c828d01612662565b94505060c06129468c828d01612662565b93505060e06129578c828d0161287e565b9250506101006129698c828d016125d1565b9150509295985092959850929598565b6129828161285d565b82525050565b600060208201905061299d6000830184612979565b92915050565b600081519050919050565b600082825260208201905092915050565b6000819050602082019050919050565b6129d88161256a565b82525050565b6129e781612613565b82525050565b606082016000820151612a0360008501826129cf565b506020820151612a1660208501826129cf565b506040820151612a2960408501826129de565b50505050565b6000612a3b83836129ed565b60608301905092915050565b6000602082019050919050565b6000612a5f826129a3565b612a6981856129ae565b9350612a74836129bf565b8060005b83811015612aa5578151612a8c8882612a2f565b9750612a9783612a47565b925050600181019050612a78565b5085935050505092915050565b60006020820190508181036000830152612acc8184612a54565b905092915050565b600080600060608486031215612aed57612aec6125b0565b5b6000612afb868287016125d1565b9350506020612b0c868287016125d1565b9250506040612b1d86828701612636565b9150509250925092565b600060a082019050612b3c6000830188612520565b612b496020830187612520565b612b566040830186612520565b612b636060830185612520565b612b706080830184612520565b9695505050505050565b60008060008060008060008060008060006101608c8e031215612ba057612b9f6125b0565b5b60008c013567ffffffffffffffff811115612bbe57612bbd6125b5565b5b612bca8e828f0161282f565b9b50506020612bdb8e828f016125d1565b9a50506040612bec8e828f01612662565b9950506060612bfd8e828f01612662565b9850506080612c0e8e828f01612636565b97505060a0612c1f8e828f016125d1565b96505060c0612c308e828f01612662565b95505060e0612c418e828f01612662565b945050610100612c538e828f01612662565b935050610120612c658e828f01612636565b925050610140612c778e828f016125d1565b9150509295989b509295989b9093969950565b6000806000806000806000806000806101408b8d031215612cae57612cad6125b0565b5b60008b013567ffffffffffffffff811115612ccc57612ccb6125b5565b5b612cd88d828e0161282f565b9a50506020612ce98d828e016125d1565b9950506040612cfa8d828e01612662565b9850506060612d0b8d828e01612662565b9750506080612d1c8d828e01612662565b96505060a0612d2d8d828e01612636565b95505060c0612d3e8d828e01612662565b94505060e0612d4f8d828e01612662565b935050610100612d618d828e0161287e565b925050610120612d738d828e016125d1565b9150509295989b9194979a5092959850565b600060208284031215612d9b57612d9a6125b0565b5b6000612da984828501612662565b91505092915050565b600080600080600080600060e0888a031215612dd157612dd06125b0565b5b6000612ddf8a828b016125d1565b9750506020612df08a828b016125d1565b9650506040612e018a828b01612636565b9550506060612e128a828b01612662565b9450506080612e238a828b01612662565b93505060a0612e348a828b01612662565b92505060c0612e458a828b01612662565b91505092959891949750929550565b60008060008060808587031215612e6e57612e6d6125b0565b5b6000612e7c878288016125d1565b9450506020612e8d87828801612662565b9350506040612e9e87828801612662565b9250506060612eaf87828801612636565b91505092959194509250565b612ec481612613565b82525050565b6000604082019050612edf6000830185612ebb565b612eec6020830184612520565b9392505050565b6000606082019050612f08600083018661257c565b612f15602083018561257c565b612f226040830184612ebb565b949350505050565b600080600060608486031215612f4357612f426125b0565b5b6000612f51868287016125d1565b935050602084013567ffffffffffffffff811115612f7257612f716125b5565b5b612f7e8682870161282f565b9250506040612f8f86828701612636565b9150509250925092565b6000602082019050612fae6000830184612ebb565b92915050565b7f4e487b7100000000000000000000000000000000000000000000000000000000600052603260045260246000fd5b7f4e487b7100000000000000000000000000000000000000000000000000000000600052601160045260246000fd5b600061301d82612516565b915061302883612516565b92508282019050808211156130405761303f612fe3565b5b92915050565b600061305182612516565b91507fffffffffffffffffffffffffffffffffffffffffffffffffffffffffffffffff820361308357613082612fe3565b5b600182019050919050565b60008151905061309d8161264b565b92915050565b6000602082840312156130b9576130b86125b0565b5b60006130c78482850161308e565b91505092915050565b600060a0820190506130e5600083018861257c565b6130f26020830187612520565b6130ff6040830186612520565b61310c6060830185612ebb565b6131196080830184612520565b9695505050505050565b6000815190506131328161261f565b92915050565b6000806040838503121561314f5761314e6125b0565b5b600061315d85828601613123565b925050602061316e8582860161308e565b9150509250929050565b600082825260208201905092915050565b7f6f6e6c7920746865206f776e65722063616e2063616c6c20746869732066756e60008201527f6374696f6e000000000000000000000000000000000000000000000000000000602082015250565b60006131e5602583613178565b91506131f082613189565b604082019050919050565b60006020820190508181036000830152613214816131d8565b9050919050565b600081519050919050565b600082825260208201905092915050565b6000819050602082019050919050565b600061325383836129cf565b60208301905092915050565b6000602082019050919050565b60006132778261321b565b6132818185613226565b935061328c83613237565b8060005b838110156132bd5781516132a48882613247565b97506132af8361325f565b925050600181019050613290565b5085935050505092915050565b60006101208201905081810360008301526132e5818c61326c565b90506132f4602083018b61257c565b613301604083018a612520565b61330e6060830189612520565b61331b6080830188612ebb565b61332860a0830187612520565b61333560c0830186612520565b61334260e0830185612979565b61335061010083018461257c565b9a9950505050505050505050565b60008151905061336d81612867565b92915050565b600060208284031215613389576133886125b0565b5b60006133978482850161335e565b91505092915050565b60006080820190506133b5600083018761257c565b6133c2602083018661257c565b6133cf604083018561257c565b6133dc6060830184612ebb565b95945050505050565b600080600080600080600080610100898b031215613406576134056125b0565b5b60006134148b828c0161308e565b98505060206134258b828c0161308e565b97505060406134368b828c0161308e565b96505060606134478b828c0161308e565b95505060806134588b828c0161308e565b94505060a06134698b828c0161308e565b93505060c061347a8b828c01613123565b92505060e061348b8b828c0161308e565b9150509295985092959890939650565b7f6f6e6c7920746865206f776e6572206f7220676f762063616e2063616c6c207460008201527f6869732066756e6374696f6e0000000000000000000000000000000000000000602082015250565b60006134f7602c83613178565b91506135028261349b565b604082019050919050565b60006020820190508181036000830152613526816134ea565b9050919050565b7f6665650000000000000000000000000000000000000000000000000000000000600082015250565b6000613563600383613178565b915061356e8261352d565b602082019050919050565b6000602082019050818103600083015261359281613556565b9050919050565b7f6c6f616e20616d6f756e7420646f6573206e6f74207065726d6974206c69717560008201527f69646174696f6e00000000000000000000000000000000000000000000000000602082015250565b60006135f5602783613178565b915061360082613599565b604082019050919050565b60006020820190508181036000830152613624816135e8565b9050919050565b6000610160820190508181036000830152613646818e61326c565b9050613655602083018d61257c565b613662604083018c612520565b61366f606083018b612520565b61367c608083018a612ebb565b61368960a083018961257c565b61369660c0830188612520565b6136a360e0830187612520565b6136b1610100830186612520565b6136bf610120830185612ebb565b6136cd61014083018461257c565b9c9b505050505050505050505050565b60006060820190506136f2600083018661257c565b6136ff602083018561257c565b61370c6040830184612520565b949350505050565b60006020828403121561372a576137296125b0565b5b600061373884828501613123565b91505092915050565b6000604082019050613756600083018561257c565b6137636020830184612520565b9392505050565b6000610140820190508181036000830152613785818d61326c565b9050613794602083018c61257c565b6137a1604083018b612520565b6137ae606083018a612520565b6137bb6080830189612520565b6137c860a0830188612ebb565b6137d560c0830187612520565b6137e260e0830186612520565b6137f0610100830185612979565b6137fe61012083018461257c565b9b9a5050505050505050505050565b6000606082019050613822600083018661257c565b61382f6020830185612520565b61383c6040830184612520565b949350505050565b7f617665726765207072696365206f6620706f736974696f6e2068617320746f2060008201527f62652067726561746572207468616e2030000000000000000000000000000000602082015250565b60006138a0603183613178565b91506138ab82613844565b604082019050919050565b600060208201905081810360008301526138cf81613893565b9050919050565b60008160601b9050919050565b60006138ee826138d6565b9050919050565b6000613900826138e3565b9050919050565b6139186139138261256a565b6138f5565b82525050565b60008160f81b9050919050565b60006139368261391e565b9050919050565b60006139488261392b565b9050919050565b61396061395b82612613565b61393d565b82525050565b60006139728286613907565b6014820191506139828285613907565b601482019150613992828461394f565b600182019150819050949350505050565b7f6f6e6c7920676f762063616e2063616c6c20746869732066756e6374696f6e00600082015250565b60006139d9601f83613178565b91506139e4826139a3565b602082019050919050565b60006020820190508181036000830152613a08816139cc565b9050919050565b6000613a1a82612516565b9150613a2583612516565b9250828202613a3381612516565b91508282048414831517613a4a57613a49612fe3565b5b5092915050565b7f4e487b7100000000000000000000000000000000000000000000000000000000600052601260045260246000fd5b6000613a8b82612516565b9150613a9683612516565b925082613aa657613aa5613a51565b5b828204905092915050565b7f536166654d6174683a206d756c7469706c69636174696f6e206f766572666c6f60008201527f7700000000000000000000000000000000000000000000000000000000000000602082015250565b6000613b0d602183613178565b9150613b1882613ab1565b604082019050919050565b60006020820190508181036000830152613b3c81613b00565b9050919050565b7f536166654d6174683a206164646974696f6e206f766572666c6f770000000000600082015250565b6000613b79601b83613178565b9150613b8482613b43565b602082019050919050565b60006020820190508181036000830152613ba881613b6c565b9050919050565b600081519050919050565b60005b83811015613bd8578082015181840152602081019050613bbd565b60008484015250505050565b6000613bef82613baf565b613bf98185613178565b9350613c09818560208601613bba565b613c1281612709565b840191505092915050565b60006020820190508181036000830152613c378184613be4565b905092915050565b6000613c4a82612516565b9150613c5583612516565b9250828203905081811115613c6d57613c6c612fe3565b5b9291505056fea264697066735822122039e48dd14e134423fd84c1981d973fd1fe086a50325b43cdf2e4d72473b7f38d64736f6c63430008110033","opcodes":"PUSH1 0x80 PUSH1 0x40 MSTORE CALLVALUE DUP1 ISZERO PUSH3 0x11 JUMPI PUSH1 0x0 DUP1 REVERT JUMPDEST POP PUSH1 0x40 MLOAD PUSH3 0x40A5 CODESIZE SUB DUP1 PUSH3 0x40A5 DUP4 CODECOPY DUP2 DUP2 ADD PUSH1 0x40 MSTORE DUP2 ADD SWAP1 PUSH3 0x37 SWAP2 SWAP1 PUSH3 0x30B JUMP JUMPDEST DUP7 PUSH1 0x0 DUP1 PUSH2 0x100 EXP DUP2 SLOAD DUP2 PUSH20 0xFFFFFFFFFFFFFFFFFFFFFFFFFFFFFFFFFFFFFFFF MUL NOT AND SWAP1 DUP4 PUSH20 0xFFFFFFFFFFFFFFFFFFFFFFFFFFFFFFFFFFFFFFFF AND MUL OR SWAP1 SSTORE POP DUP5 PUSH1 0x6 PUSH1 0x0 PUSH2 0x100 EXP DUP2 SLOAD DUP2 PUSH20 0xFFFFFFFFFFFFFFFFFFFFFFFFFFFFFFFFFFFFFFFF MUL NOT AND SWAP1 DUP4 PUSH20 0xFFFFFFFFFFFFFFFFFFFFFFFFFFFFFFFFFFFFFFFF AND MUL OR SWAP1 SSTORE POP DUP6 PUSH1 0x1 PUSH1 0x0 PUSH2 0x100 EXP DUP2 SLOAD DUP2 PUSH20 0xFFFFFFFFFFFFFFFFFFFFFFFFFFFFFFFFFFFFFFFF MUL NOT AND SWAP1 DUP4 PUSH20 0xFFFFFFFFFFFFFFFFFFFFFFFFFFFFFFFFFFFFFFFF AND MUL OR SWAP1 SSTORE POP DUP4 PUSH1 0x2 PUSH1 0x0 PUSH2 0x100 EXP DUP2 SLOAD DUP2 PUSH20 0xFFFFFFFFFFFFFFFFFFFFFFFFFFFFFFFFFFFFFFFF MUL NOT AND SWAP1 DUP4 PUSH20 0xFFFFFFFFFFFFFFFFFFFFFFFFFFFFFFFFFFFFFFFF AND MUL OR SWAP1 SSTORE POP DUP3 PUSH1 0x3 PUSH1 0x0 PUSH2 0x100 EXP DUP2 SLOAD DUP2 PUSH20 0xFFFFFFFFFFFFFFFFFFFFFFFFFFFFFFFFFFFFFFFF MUL NOT AND SWAP1 DUP4 PUSH20 0xFFFFFFFFFFFFFFFFFFFFFFFFFFFFFFFFFFFFFFFF AND MUL OR SWAP1 SSTORE POP DUP2 PUSH1 0x4 PUSH1 0x0 PUSH2 0x100 EXP DUP2 SLOAD DUP2 PUSH20 0xFFFFFFFFFFFFFFFFFFFFFFFFFFFFFFFFFFFFFFFF MUL NOT AND SWAP1 DUP4 PUSH20 0xFFFFFFFFFFFFFFFFFFFFFFFFFFFFFFFFFFFFFFFF AND MUL OR SWAP1 SSTORE POP DUP1 PUSH1 0x5 PUSH1 0x0 PUSH2 0x100 EXP DUP2 SLOAD DUP2 PUSH20 0xFFFFFFFFFFFFFFFFFFFFFFFFFFFFFFFFFFFFFFFF MUL NOT AND SWAP1 DUP4 PUSH20 0xFFFFFFFFFFFFFFFFFFFFFFFFFFFFFFFFFFFFFFFF AND MUL OR SWAP1 SSTORE POP PUSH1 0x0 DUP4 SWAP1 POP DUP1 PUSH20 0xFFFFFFFFFFFFFFFFFFFFFFFFFFFFFFFFFFFFFFFF AND PUSH4 0x38C74DD9 PUSH1 0x2 PUSH1 0x0 SWAP1 SLOAD SWAP1 PUSH2 0x100 EXP SWAP1 DIV PUSH20 0xFFFFFFFFFFFFFFFFFFFFFFFFFFFFFFFFFFFFFFFF AND PUSH1 0x40 MLOAD DUP3 PUSH4 0xFFFFFFFF AND PUSH1 0xE0 SHL DUP2 MSTORE PUSH1 0x4 ADD PUSH3 0x25F SWAP2 SWAP1 PUSH3 0x3CF JUMP JUMPDEST PUSH1 0x0 PUSH1 0x40 MLOAD DUP1 DUP4 SUB DUP2 PUSH1 0x0 DUP8 DUP1 EXTCODESIZE ISZERO DUP1 ISZERO PUSH3 0x27A JUMPI PUSH1 0x0 DUP1 REVERT JUMPDEST POP GAS CALL ISZERO DUP1 ISZERO PUSH3 0x28F JUMPI RETURNDATASIZE PUSH1 0x0 DUP1 RETURNDATACOPY RETURNDATASIZE PUSH1 0x0 REVERT JUMPDEST POP POP POP POP POP POP POP POP POP POP POP POP PUSH3 0x3EC JUMP JUMPDEST PUSH1 0x0 DUP1 REVERT JUMPDEST PUSH1 0x0 PUSH20 0xFFFFFFFFFFFFFFFFFFFFFFFFFFFFFFFFFFFFFFFF DUP3 AND SWAP1 POP SWAP2 SWAP1 POP JUMP JUMPDEST PUSH1 0x0 PUSH3 0x2D3 DUP3 PUSH3 0x2A6 JUMP JUMPDEST SWAP1 POP SWAP2 SWAP1 POP JUMP JUMPDEST PUSH3 0x2E5 DUP2 PUSH3 0x2C6 JUMP JUMPDEST DUP2 EQ PUSH3 0x2F1 JUMPI PUSH1 0x0 DUP1 REVERT JUMPDEST POP JUMP JUMPDEST PUSH1 0x0 DUP2 MLOAD SWAP1 POP PUSH3 0x305 DUP2 PUSH3 0x2DA JUMP JUMPDEST SWAP3 SWAP2 POP POP JUMP JUMPDEST PUSH1 0x0 DUP1 PUSH1 0x0 DUP1 PUSH1 0x0 DUP1 PUSH1 0x0 PUSH1 0xE0 DUP9 DUP11 SUB SLT ISZERO PUSH3 0x32D JUMPI PUSH3 0x32C PUSH3 0x2A1 JUMP JUMPDEST JUMPDEST PUSH1 0x0 PUSH3 0x33D DUP11 DUP3 DUP12 ADD PUSH3 0x2F4 JUMP JUMPDEST SWAP8 POP POP PUSH1 0x20 PUSH3 0x350 DUP11 DUP3 DUP12 ADD PUSH3 0x2F4 JUMP JUMPDEST SWAP7 POP POP PUSH1 0x40 PUSH3 0x363 DUP11 DUP3 DUP12 ADD PUSH3 0x2F4 JUMP JUMPDEST SWAP6 POP POP PUSH1 0x60 PUSH3 0x376 DUP11 DUP3 DUP12 ADD PUSH3 0x2F4 JUMP JUMPDEST SWAP5 POP POP PUSH1 0x80 PUSH3 0x389 DUP11 DUP3 DUP12 ADD PUSH3 0x2F4 JUMP JUMPDEST SWAP4 POP POP PUSH1 0xA0 PUSH3 0x39C DUP11 DUP3 DUP12 ADD PUSH3 0x2F4 JUMP JUMPDEST SWAP3 POP POP PUSH1 0xC0 PUSH3 0x3AF DUP11 DUP3 DUP12 ADD PUSH3 0x2F4 JUMP JUMPDEST SWAP2 POP POP SWAP3 SWAP6 SWAP9 SWAP2 SWAP5 SWAP8 POP SWAP3 SWAP6 POP JUMP JUMPDEST PUSH3 0x3C9 DUP2 PUSH3 0x2C6 JUMP JUMPDEST DUP3 MSTORE POP POP JUMP JUMPDEST PUSH1 0x0 PUSH1 0x20 DUP3 ADD SWAP1 POP PUSH3 0x3E6 PUSH1 0x0 DUP4 ADD DUP5 PUSH3 0x3BE JUMP JUMPDEST SWAP3 SWAP2 POP POP JUMP JUMPDEST PUSH2 0x3CA9 DUP1 PUSH3 0x3FC PUSH1 0x0 CODECOPY PUSH1 0x0 RETURN INVALID PUSH1 0x80 PUSH1 0x40 MSTORE PUSH1 0x4 CALLDATASIZE LT PUSH2 0x1EE JUMPI PUSH1 0x0 CALLDATALOAD PUSH1 0xE0 SHR DUP1 PUSH4 0x937A0E4E GT PUSH2 0x10D JUMPI DUP1 PUSH4 0xC019BF5E GT PUSH2 0xA0 JUMPI DUP1 PUSH4 0xD422B00F GT PUSH2 0x6F JUMPI DUP1 PUSH4 0xD422B00F EQ PUSH2 0x6EC JUMPI DUP1 PUSH4 0xE9F4454D EQ PUSH2 0x717 JUMPI DUP1 PUSH4 0xF8388225 EQ PUSH2 0x756 JUMPI DUP1 PUSH4 0xFC2CEE62 EQ PUSH2 0x793 JUMPI DUP1 PUSH4 0xFFB991B0 EQ PUSH2 0x7BC JUMPI PUSH2 0x1EE JUMP JUMPDEST DUP1 PUSH4 0xC019BF5E EQ PUSH2 0x62A JUMPI DUP1 PUSH4 0xCA2FC17C EQ PUSH2 0x667 JUMPI DUP1 PUSH4 0xD0E30DB0 EQ PUSH2 0x6A5 JUMPI DUP1 PUSH4 0xD3EC0BE9 EQ PUSH2 0x6AF JUMPI PUSH2 0x1EE JUMP JUMPDEST DUP1 PUSH4 0xAF3ED347 GT PUSH2 0xDC JUMPI DUP1 PUSH4 0xAF3ED347 EQ PUSH2 0x57B JUMPI DUP1 PUSH4 0xB5627E42 EQ PUSH2 0x5AB JUMPI DUP1 PUSH4 0xBB0498DE EQ PUSH2 0x5D6 JUMPI DUP1 PUSH4 0xBCB81C3D EQ PUSH2 0x601 JUMPI PUSH2 0x1EE JUMP JUMPDEST DUP1 PUSH4 0x937A0E4E EQ PUSH2 0x4CC JUMPI DUP1 PUSH4 0x9409D870 EQ PUSH2 0x4FC JUMPI DUP1 PUSH4 0xA0F14034 EQ PUSH2 0x527 JUMPI DUP1 PUSH4 0xA92EA0E0 EQ PUSH2 0x550 JUMPI PUSH2 0x1EE JUMP JUMPDEST DUP1 PUSH4 0x694C1CBC GT PUSH2 0x185 JUMPI DUP1 PUSH4 0x7809BAAF GT PUSH2 0x154 JUMPI DUP1 PUSH4 0x7809BAAF EQ PUSH2 0x40A JUMPI DUP1 PUSH4 0x80275860 EQ PUSH2 0x435 JUMPI DUP1 PUSH4 0x8C1395F8 EQ PUSH2 0x460 JUMPI DUP1 PUSH4 0x8F84AA09 EQ PUSH2 0x4A1 JUMPI PUSH2 0x1EE JUMP JUMPDEST DUP1 PUSH4 0x694C1CBC EQ PUSH2 0x347 JUMPI DUP1 PUSH4 0x6E3990FC EQ PUSH2 0x384 JUMPI DUP1 PUSH4 0x725BA052 EQ PUSH2 0x3B4 JUMPI DUP1 PUSH4 0x7379DBE6 EQ PUSH2 0x3DF JUMPI PUSH2 0x1EE JUMP JUMPDEST DUP1 PUSH4 0x3268CC56 GT PUSH2 0x1C1 JUMPI DUP1 PUSH4 0x3268CC56 EQ PUSH2 0x29D JUMPI DUP1 PUSH4 0x3BA32DF4 EQ PUSH2 0x2C8 JUMPI DUP1 PUSH4 0x41CB87FC EQ PUSH2 0x2F3 JUMPI DUP1 PUSH4 0x63AE2103 EQ PUSH2 0x31C JUMPI PUSH2 0x1EE JUMP JUMPDEST DUP1 PUSH4 0x81752BB EQ PUSH2 0x1F3 JUMPI DUP1 PUSH4 0x126082CF EQ PUSH2 0x21E JUMPI DUP1 PUSH4 0x12D43A51 EQ PUSH2 0x249 JUMPI DUP1 PUSH4 0x13F2D128 EQ PUSH2 0x274 JUMPI JUMPDEST PUSH1 0x0 DUP1 REVERT JUMPDEST CALLVALUE DUP1 ISZERO PUSH2 0x1FF JUMPI PUSH1 0x0 DUP1 REVERT JUMPDEST POP PUSH2 0x208 PUSH2 0x7E7 JUMP JUMPDEST PUSH1 0x40 MLOAD PUSH2 0x215 SWAP2 SWAP1 PUSH2 0x252F JUMP JUMPDEST PUSH1 0x40 MLOAD DUP1 SWAP2 SUB SWAP1 RETURN JUMPDEST CALLVALUE DUP1 ISZERO PUSH2 0x22A JUMPI PUSH1 0x0 DUP1 REVERT JUMPDEST POP PUSH2 0x233 PUSH2 0x7EC JUMP JUMPDEST PUSH1 0x40 MLOAD PUSH2 0x240 SWAP2 SWAP1 PUSH2 0x252F JUMP JUMPDEST PUSH1 0x40 MLOAD DUP1 SWAP2 SUB SWAP1 RETURN JUMPDEST CALLVALUE DUP1 ISZERO PUSH2 0x255 JUMPI PUSH1 0x0 DUP1 REVERT JUMPDEST POP PUSH2 0x25E PUSH2 0x7F2 JUMP JUMPDEST PUSH1 0x40 MLOAD PUSH2 0x26B SWAP2 SWAP1 PUSH2 0x258B JUMP JUMPDEST PUSH1 0x40 MLOAD DUP1 SWAP2 SUB SWAP1 RETURN JUMPDEST CALLVALUE DUP1 ISZERO PUSH2 0x280 JUMPI PUSH1 0x0 DUP1 REVERT JUMPDEST POP PUSH2 0x29B PUSH1 0x4 DUP1 CALLDATASIZE SUB DUP2 ADD SWAP1 PUSH2 0x296 SWAP2 SWAP1 PUSH2 0x25E6 JUMP JUMPDEST PUSH2 0x816 JUMP JUMPDEST STOP JUMPDEST CALLVALUE DUP1 ISZERO PUSH2 0x2A9 JUMPI PUSH1 0x0 DUP1 REVERT JUMPDEST POP PUSH2 0x2B2 PUSH2 0x862 JUMP JUMPDEST PUSH1 0x40 MLOAD PUSH2 0x2BF SWAP2 SWAP1 PUSH2 0x258B JUMP JUMPDEST PUSH1 0x40 MLOAD DUP1 SWAP2 SUB SWAP1 RETURN JUMPDEST CALLVALUE DUP1 ISZERO PUSH2 0x2D4 JUMPI PUSH1 0x0 DUP1 REVERT JUMPDEST POP PUSH2 0x2DD PUSH2 0x888 JUMP JUMPDEST PUSH1 0x40 MLOAD PUSH2 0x2EA SWAP2 SWAP1 PUSH2 0x252F JUMP JUMPDEST PUSH1 0x40 MLOAD DUP1 SWAP2 SUB SWAP1 RETURN JUMPDEST CALLVALUE DUP1 ISZERO PUSH2 0x2FF JUMPI PUSH1 0x0 DUP1 REVERT JUMPDEST POP PUSH2 0x31A PUSH1 0x4 DUP1 CALLDATASIZE SUB DUP2 ADD SWAP1 PUSH2 0x315 SWAP2 SWAP1 PUSH2 0x25E6 JUMP JUMPDEST PUSH2 0xB97 JUMP JUMPDEST STOP JUMPDEST CALLVALUE DUP1 ISZERO PUSH2 0x328 JUMPI PUSH1 0x0 DUP1 REVERT JUMPDEST POP PUSH2 0x331 PUSH2 0xBE3 JUMP JUMPDEST PUSH1 0x40 MLOAD PUSH2 0x33E SWAP2 SWAP1 PUSH2 0x252F JUMP JUMPDEST PUSH1 0x40 MLOAD DUP1 SWAP2 SUB SWAP1 RETURN JUMPDEST CALLVALUE DUP1 ISZERO PUSH2 0x353 JUMPI PUSH1 0x0 DUP1 REVERT JUMPDEST POP PUSH2 0x36E PUSH1 0x4 DUP1 CALLDATASIZE SUB DUP2 ADD SWAP1 PUSH2 0x369 SWAP2 SWAP1 PUSH2 0x2677 JUMP JUMPDEST PUSH2 0xBE9 JUMP JUMPDEST PUSH1 0x40 MLOAD PUSH2 0x37B SWAP2 SWAP1 PUSH2 0x252F JUMP JUMPDEST PUSH1 0x40 MLOAD DUP1 SWAP2 SUB SWAP1 RETURN JUMPDEST PUSH2 0x39E PUSH1 0x4 DUP1 CALLDATASIZE SUB DUP2 ADD SWAP1 PUSH2 0x399 SWAP2 SWAP1 PUSH2 0x2893 JUMP JUMPDEST PUSH2 0xCE9 JUMP JUMPDEST PUSH1 0x40 MLOAD PUSH2 0x3AB SWAP2 SWAP1 PUSH2 0x2988 JUMP JUMPDEST PUSH1 0x40 MLOAD DUP1 SWAP2 SUB SWAP1 RETURN JUMPDEST CALLVALUE DUP1 ISZERO PUSH2 0x3C0 JUMPI PUSH1 0x0 DUP1 REVERT JUMPDEST POP PUSH2 0x3C9 PUSH2 0xE4A JUMP JUMPDEST PUSH1 0x40 MLOAD PUSH2 0x3D6 SWAP2 SWAP1 PUSH2 0x252F JUMP JUMPDEST PUSH1 0x40 MLOAD DUP1 SWAP2 SUB SWAP1 RETURN JUMPDEST CALLVALUE DUP1 ISZERO PUSH2 0x3EB JUMPI PUSH1 0x0 DUP1 REVERT JUMPDEST POP PUSH2 0x3F4 PUSH2 0xE50 JUMP JUMPDEST PUSH1 0x40 MLOAD PUSH2 0x401 SWAP2 SWAP1 PUSH2 0x258B JUMP JUMPDEST PUSH1 0x40 MLOAD DUP1 SWAP2 SUB SWAP1 RETURN JUMPDEST CALLVALUE DUP1 ISZERO PUSH2 0x416 JUMPI PUSH1 0x0 DUP1 REVERT JUMPDEST POP PUSH2 0x41F PUSH2 0xE76 JUMP JUMPDEST PUSH1 0x40 MLOAD PUSH2 0x42C SWAP2 SWAP1 PUSH2 0x252F JUMP JUMPDEST PUSH1 0x40 MLOAD DUP1 SWAP2 SUB SWAP1 RETURN JUMPDEST CALLVALUE DUP1 ISZERO PUSH2 0x441 JUMPI PUSH1 0x0 DUP1 REVERT JUMPDEST POP PUSH2 0x44A PUSH2 0xE7B JUMP JUMPDEST PUSH1 0x40 MLOAD PUSH2 0x457 SWAP2 SWAP1 PUSH2 0x2AB2 JUMP JUMPDEST PUSH1 0x40 MLOAD DUP1 SWAP2 SUB SWAP1 RETURN JUMPDEST CALLVALUE DUP1 ISZERO PUSH2 0x46C JUMPI PUSH1 0x0 DUP1 REVERT JUMPDEST POP PUSH2 0x487 PUSH1 0x4 DUP1 CALLDATASIZE SUB DUP2 ADD SWAP1 PUSH2 0x482 SWAP2 SWAP1 PUSH2 0x2AD4 JUMP JUMPDEST PUSH2 0xFA1 JUMP JUMPDEST PUSH1 0x40 MLOAD PUSH2 0x498 SWAP6 SWAP5 SWAP4 SWAP3 SWAP2 SWAP1 PUSH2 0x2B27 JUMP JUMPDEST PUSH1 0x40 MLOAD DUP1 SWAP2 SUB SWAP1 RETURN JUMPDEST CALLVALUE DUP1 ISZERO PUSH2 0x4AD JUMPI PUSH1 0x0 DUP1 REVERT JUMPDEST POP PUSH2 0x4B6 PUSH2 0x10B9 JUMP JUMPDEST PUSH1 0x40 MLOAD PUSH2 0x4C3 SWAP2 SWAP1 PUSH2 0x258B JUMP JUMPDEST PUSH1 0x40 MLOAD DUP1 SWAP2 SUB SWAP1 RETURN JUMPDEST PUSH2 0x4E6 PUSH1 0x4 DUP1 CALLDATASIZE SUB DUP2 ADD SWAP1 PUSH2 0x4E1 SWAP2 SWAP1 PUSH2 0x2B7A JUMP JUMPDEST PUSH2 0x10DF JUMP JUMPDEST PUSH1 0x40 MLOAD PUSH2 0x4F3 SWAP2 SWAP1 PUSH2 0x2988 JUMP JUMPDEST PUSH1 0x40 MLOAD DUP1 SWAP2 SUB SWAP1 RETURN JUMPDEST CALLVALUE DUP1 ISZERO PUSH2 0x508 JUMPI PUSH1 0x0 DUP1 REVERT JUMPDEST POP PUSH2 0x511 PUSH2 0x1319 JUMP JUMPDEST PUSH1 0x40 MLOAD PUSH2 0x51E SWAP2 SWAP1 PUSH2 0x258B JUMP JUMPDEST PUSH1 0x40 MLOAD DUP1 SWAP2 SUB SWAP1 RETURN JUMPDEST CALLVALUE DUP1 ISZERO PUSH2 0x533 JUMPI PUSH1 0x0 DUP1 REVERT JUMPDEST POP PUSH2 0x54E PUSH1 0x4 DUP1 CALLDATASIZE SUB DUP2 ADD SWAP1 PUSH2 0x549 SWAP2 SWAP1 PUSH2 0x25E6 JUMP JUMPDEST PUSH2 0x133F JUMP JUMPDEST STOP JUMPDEST CALLVALUE DUP1 ISZERO PUSH2 0x55C JUMPI PUSH1 0x0 DUP1 REVERT JUMPDEST POP PUSH2 0x565 PUSH2 0x138B JUMP JUMPDEST PUSH1 0x40 MLOAD PUSH2 0x572 SWAP2 SWAP1 PUSH2 0x258B JUMP JUMPDEST PUSH1 0x40 MLOAD DUP1 SWAP2 SUB SWAP1 RETURN JUMPDEST PUSH2 0x595 PUSH1 0x4 DUP1 CALLDATASIZE SUB DUP2 ADD SWAP1 PUSH2 0x590 SWAP2 SWAP1 PUSH2 0x2C8A JUMP JUMPDEST PUSH2 0x13B1 JUMP JUMPDEST PUSH1 0x40 MLOAD PUSH2 0x5A2 SWAP2 SWAP1 PUSH2 0x2988 JUMP JUMPDEST PUSH1 0x40 MLOAD DUP1 SWAP2 SUB SWAP1 RETURN JUMPDEST CALLVALUE DUP1 ISZERO PUSH2 0x5B7 JUMPI PUSH1 0x0 DUP1 REVERT JUMPDEST POP PUSH2 0x5C0 PUSH2 0x166D JUMP JUMPDEST PUSH1 0x40 MLOAD PUSH2 0x5CD SWAP2 SWAP1 PUSH2 0x252F JUMP JUMPDEST PUSH1 0x40 MLOAD DUP1 SWAP2 SUB SWAP1 RETURN JUMPDEST CALLVALUE DUP1 ISZERO PUSH2 0x5E2 JUMPI PUSH1 0x0 DUP1 REVERT JUMPDEST POP PUSH2 0x5EB PUSH2 0x1673 JUMP JUMPDEST PUSH1 0x40 MLOAD PUSH2 0x5F8 SWAP2 SWAP1 PUSH2 0x252F JUMP JUMPDEST PUSH1 0x40 MLOAD DUP1 SWAP2 SUB SWAP1 RETURN JUMPDEST CALLVALUE DUP1 ISZERO PUSH2 0x60D JUMPI PUSH1 0x0 DUP1 REVERT JUMPDEST POP PUSH2 0x628 PUSH1 0x4 DUP1 CALLDATASIZE SUB DUP2 ADD SWAP1 PUSH2 0x623 SWAP2 SWAP1 PUSH2 0x2D85 JUMP JUMPDEST PUSH2 0x181B JUMP JUMPDEST STOP JUMPDEST CALLVALUE DUP1 ISZERO PUSH2 0x636 JUMPI PUSH1 0x0 DUP1 REVERT JUMPDEST POP PUSH2 0x651 PUSH1 0x4 DUP1 CALLDATASIZE SUB DUP2 ADD SWAP1 PUSH2 0x64C SWAP2 SWAP1 PUSH2 0x2DB2 JUMP JUMPDEST PUSH2 0x182D JUMP JUMPDEST PUSH1 0x40 MLOAD PUSH2 0x65E SWAP2 SWAP1 PUSH2 0x252F JUMP JUMPDEST PUSH1 0x40 MLOAD DUP1 SWAP2 SUB SWAP1 RETURN JUMPDEST CALLVALUE DUP1 ISZERO PUSH2 0x673 JUMPI PUSH1 0x0 DUP1 REVERT JUMPDEST POP PUSH2 0x68E PUSH1 0x4 DUP1 CALLDATASIZE SUB DUP2 ADD SWAP1 PUSH2 0x689 SWAP2 SWAP1 PUSH2 0x2E54 JUMP JUMPDEST PUSH2 0x19FA JUMP JUMPDEST PUSH1 0x40 MLOAD PUSH2 0x69C SWAP3 SWAP2 SWAP1 PUSH2 0x2ECA JUMP JUMPDEST PUSH1 0x40 MLOAD DUP1 SWAP2 SUB SWAP1 RETURN JUMPDEST PUSH2 0x6AD PUSH2 0x1C88 JUMP JUMPDEST STOP JUMPDEST CALLVALUE DUP1 ISZERO PUSH2 0x6BB JUMPI PUSH1 0x0 DUP1 REVERT JUMPDEST POP PUSH2 0x6D6 PUSH1 0x4 DUP1 CALLDATASIZE SUB DUP2 ADD SWAP1 PUSH2 0x6D1 SWAP2 SWAP1 PUSH2 0x2AD4 JUMP JUMPDEST PUSH2 0x1C9E JUMP JUMPDEST PUSH1 0x40 MLOAD PUSH2 0x6E3 SWAP2 SWAP1 PUSH2 0x2988 JUMP JUMPDEST PUSH1 0x40 MLOAD DUP1 SWAP2 SUB SWAP1 RETURN JUMPDEST CALLVALUE DUP1 ISZERO PUSH2 0x6F8 JUMPI PUSH1 0x0 DUP1 REVERT JUMPDEST POP PUSH2 0x701 PUSH2 0x1CD4 JUMP JUMPDEST PUSH1 0x40 MLOAD PUSH2 0x70E SWAP2 SWAP1 PUSH2 0x258B JUMP JUMPDEST PUSH1 0x40 MLOAD DUP1 SWAP2 SUB SWAP1 RETURN JUMPDEST CALLVALUE DUP1 ISZERO PUSH2 0x723 JUMPI PUSH1 0x0 DUP1 REVERT JUMPDEST POP PUSH2 0x73E PUSH1 0x4 DUP1 CALLDATASIZE SUB DUP2 ADD SWAP1 PUSH2 0x739 SWAP2 SWAP1 PUSH2 0x2D85 JUMP JUMPDEST PUSH2 0x1CFA JUMP JUMPDEST PUSH1 0x40 MLOAD PUSH2 0x74D SWAP4 SWAP3 SWAP2 SWAP1 PUSH2 0x2EF3 JUMP JUMPDEST PUSH1 0x40 MLOAD DUP1 SWAP2 SUB SWAP1 RETURN JUMPDEST CALLVALUE DUP1 ISZERO PUSH2 0x762 JUMPI PUSH1 0x0 DUP1 REVERT JUMPDEST POP PUSH2 0x77D PUSH1 0x4 DUP1 CALLDATASIZE SUB DUP2 ADD SWAP1 PUSH2 0x778 SWAP2 SWAP1 PUSH2 0x2F2A JUMP JUMPDEST PUSH2 0x1D81 JUMP JUMPDEST PUSH1 0x40 MLOAD PUSH2 0x78A SWAP2 SWAP1 PUSH2 0x2F99 JUMP JUMPDEST PUSH1 0x40 MLOAD DUP1 SWAP2 SUB SWAP1 RETURN JUMPDEST CALLVALUE DUP1 ISZERO PUSH2 0x79F JUMPI PUSH1 0x0 DUP1 REVERT JUMPDEST POP PUSH2 0x7BA PUSH1 0x4 DUP1 CALLDATASIZE SUB DUP2 ADD SWAP1 PUSH2 0x7B5 SWAP2 SWAP1 PUSH2 0x2D85 JUMP JUMPDEST PUSH2 0x1F28 JUMP JUMPDEST STOP JUMPDEST CALLVALUE DUP1 ISZERO PUSH2 0x7C8 JUMPI PUSH1 0x0 DUP1 REVERT JUMPDEST POP PUSH2 0x7D1 PUSH2 0x1F3A JUMP JUMPDEST PUSH1 0x40 MLOAD PUSH2 0x7DE SWAP2 SWAP1 PUSH2 0x252F JUMP JUMPDEST PUSH1 0x40 MLOAD DUP1 SWAP2 SUB SWAP1 RETURN JUMPDEST PUSH1 0x64 DUP2 JUMP JUMPDEST PUSH2 0x2710 DUP2 JUMP JUMPDEST PUSH1 0x0 DUP1 SLOAD SWAP1 PUSH2 0x100 EXP SWAP1 DIV PUSH20 0xFFFFFFFFFFFFFFFFFFFFFFFFFFFFFFFFFFFFFFFF AND DUP2 JUMP JUMPDEST PUSH2 0x81E PUSH2 0x204B JUMP JUMPDEST DUP1 PUSH1 0x1 PUSH1 0x0 PUSH2 0x100 EXP DUP2 SLOAD DUP2 PUSH20 0xFFFFFFFFFFFFFFFFFFFFFFFFFFFFFFFFFFFFFFFF MUL NOT AND SWAP1 DUP4 PUSH20 0xFFFFFFFFFFFFFFFFFFFFFFFFFFFFFFFFFFFFFFFF AND MUL OR SWAP1 SSTORE POP POP JUMP JUMPDEST PUSH1 0x3 PUSH1 0x0 SWAP1 SLOAD SWAP1 PUSH2 0x100 EXP SWAP1 DIV PUSH20 0xFFFFFFFFFFFFFFFFFFFFFFFFFFFFFFFFFFFFFFFF AND DUP2 JUMP JUMPDEST PUSH1 0x0 DUP1 PUSH1 0x0 SWAP1 POP PUSH1 0x0 DUP1 JUMPDEST PUSH1 0x9 DUP1 SLOAD SWAP1 POP DUP2 LT ISZERO PUSH2 0xA7D JUMPI PUSH1 0x0 DUP1 PUSH1 0x0 DUP1 PUSH2 0x96D PUSH1 0x9 DUP7 DUP2 SLOAD DUP2 LT PUSH2 0x8BD JUMPI PUSH2 0x8BC PUSH2 0x2FB4 JUMP JUMPDEST JUMPDEST SWAP1 PUSH1 0x0 MSTORE PUSH1 0x20 PUSH1 0x0 KECCAK256 SWAP1 PUSH1 0x2 MUL ADD PUSH1 0x0 ADD PUSH1 0x0 SWAP1 SLOAD SWAP1 PUSH2 0x100 EXP SWAP1 DIV PUSH20 0xFFFFFFFFFFFFFFFFFFFFFFFFFFFFFFFFFFFFFFFF AND PUSH1 0x9 DUP8 DUP2 SLOAD DUP2 LT PUSH2 0x903 JUMPI PUSH2 0x902 PUSH2 0x2FB4 JUMP JUMPDEST JUMPDEST SWAP1 PUSH1 0x0 MSTORE PUSH1 0x20 PUSH1 0x0 KECCAK256 SWAP1 PUSH1 0x2 MUL ADD PUSH1 0x1 ADD PUSH1 0x0 SWAP1 SLOAD SWAP1 PUSH2 0x100 EXP SWAP1 DIV PUSH20 0xFFFFFFFFFFFFFFFFFFFFFFFFFFFFFFFFFFFFFFFF AND PUSH1 0x9 DUP9 DUP2 SLOAD DUP2 LT PUSH2 0x949 JUMPI PUSH2 0x948 PUSH2 0x2FB4 JUMP JUMPDEST JUMPDEST SWAP1 PUSH1 0x0 MSTORE PUSH1 0x20 PUSH1 0x0 KECCAK256 SWAP1 PUSH1 0x2 MUL ADD PUSH1 0x1 ADD PUSH1 0x14 SWAP1 SLOAD SWAP1 PUSH2 0x100 EXP SWAP1 DIV PUSH1 0xFF AND PUSH2 0xFA1 JUMP JUMPDEST POP SWAP4 POP SWAP4 POP SWAP4 POP SWAP4 POP PUSH1 0x0 DUP4 GT ISZERO PUSH2 0xA66 JUMPI PUSH2 0xA4A PUSH1 0x9 DUP7 DUP2 SLOAD DUP2 LT PUSH2 0x996 JUMPI PUSH2 0x995 PUSH2 0x2FB4 JUMP JUMPDEST JUMPDEST SWAP1 PUSH1 0x0 MSTORE PUSH1 0x20 PUSH1 0x0 KECCAK256 SWAP1 PUSH1 0x2 MUL ADD PUSH1 0x0 ADD PUSH1 0x0 SWAP1 SLOAD SWAP1 PUSH2 0x100 EXP SWAP1 DIV PUSH20 0xFFFFFFFFFFFFFFFFFFFFFFFFFFFFFFFFFFFFFFFF AND PUSH1 0x9 DUP8 DUP2 SLOAD DUP2 LT PUSH2 0x9DC JUMPI PUSH2 0x9DB PUSH2 0x2FB4 JUMP JUMPDEST JUMPDEST SWAP1 PUSH1 0x0 MSTORE PUSH1 0x20 PUSH1 0x0 KECCAK256 SWAP1 PUSH1 0x2 MUL ADD PUSH1 0x1 ADD PUSH1 0x0 SWAP1 SLOAD SWAP1 PUSH2 0x100 EXP SWAP1 DIV PUSH20 0xFFFFFFFFFFFFFFFFFFFFFFFFFFFFFFFFFFFFFFFF AND PUSH1 0x9 DUP9 DUP2 SLOAD DUP2 LT PUSH2 0xA22 JUMPI PUSH2 0xA21 PUSH2 0x2FB4 JUMP JUMPDEST JUMPDEST SWAP1 PUSH1 0x0 MSTORE PUSH1 0x20 PUSH1 0x0 KECCAK256 SWAP1 PUSH1 0x2 MUL ADD PUSH1 0x1 ADD PUSH1 0x14 SWAP1 SLOAD SWAP1 PUSH2 0x100 EXP SWAP1 DIV PUSH1 0xFF AND DUP7 DUP9 DUP8 DUP8 PUSH2 0x182D JUMP JUMPDEST DUP8 PUSH2 0xA55 SWAP2 SWAP1 PUSH2 0x3012 JUMP JUMPDEST SWAP7 POP DUP4 DUP7 PUSH2 0xA63 SWAP2 SWAP1 PUSH2 0x3012 JUMP JUMPDEST SWAP6 POP JUMPDEST POP POP POP POP DUP1 DUP1 PUSH2 0xA75 SWAP1 PUSH2 0x3046 JUMP JUMPDEST SWAP2 POP POP PUSH2 0x893 JUMP JUMPDEST POP PUSH1 0x0 PUSH1 0x1 PUSH1 0x0 SWAP1 SLOAD SWAP1 PUSH2 0x100 EXP SWAP1 DIV PUSH20 0xFFFFFFFFFFFFFFFFFFFFFFFFFFFFFFFFFFFFFFFF AND PUSH20 0xFFFFFFFFFFFFFFFFFFFFFFFFFFFFFFFFFFFFFFFF AND PUSH4 0xDB1E4FF8 PUSH1 0x6 PUSH1 0x0 SWAP1 SLOAD SWAP1 PUSH2 0x100 EXP SWAP1 DIV PUSH20 0xFFFFFFFFFFFFFFFFFFFFFFFFFFFFFFFFFFFFFFFF AND PUSH1 0x40 MLOAD DUP3 PUSH4 0xFFFFFFFF AND PUSH1 0xE0 SHL DUP2 MSTORE PUSH1 0x4 ADD PUSH2 0xAFD SWAP2 SWAP1 PUSH2 0x258B JUMP JUMPDEST PUSH1 0x20 PUSH1 0x40 MLOAD DUP1 DUP4 SUB DUP2 DUP7 GAS STATICCALL ISZERO DUP1 ISZERO PUSH2 0xB1A JUMPI RETURNDATASIZE PUSH1 0x0 DUP1 RETURNDATACOPY RETURNDATASIZE PUSH1 0x0 REVERT JUMPDEST POP POP POP POP PUSH1 0x40 MLOAD RETURNDATASIZE PUSH1 0x1F NOT PUSH1 0x1F DUP3 ADD AND DUP3 ADD DUP1 PUSH1 0x40 MSTORE POP DUP2 ADD SWAP1 PUSH2 0xB3E SWAP2 SWAP1 PUSH2 0x30A3 JUMP JUMPDEST SWAP1 POP PUSH2 0xB8C DUP2 PUSH2 0xB7E PUSH2 0xB6F PUSH2 0x2710 PUSH2 0xB61 PUSH1 0x64 DUP9 PUSH2 0x20DB SWAP1 SWAP2 SWAP1 PUSH4 0xFFFFFFFF AND JUMP JUMPDEST PUSH2 0x2155 SWAP1 SWAP2 SWAP1 PUSH4 0xFFFFFFFF AND JUMP JUMPDEST DUP7 PUSH2 0x219F SWAP1 SWAP2 SWAP1 PUSH4 0xFFFFFFFF AND JUMP JUMPDEST PUSH2 0x219F SWAP1 SWAP2 SWAP1 PUSH4 0xFFFFFFFF AND JUMP JUMPDEST SWAP3 POP DUP3 SWAP4 POP POP POP POP SWAP1 JUMP JUMPDEST PUSH2 0xB9F PUSH2 0x204B JUMP JUMPDEST DUP1 PUSH1 0x3 PUSH1 0x0 PUSH2 0x100 EXP DUP2 SLOAD DUP2 PUSH20 0xFFFFFFFFFFFFFFFFFFFFFFFFFFFFFFFFFFFFFFFF MUL NOT AND SWAP1 DUP4 PUSH20 0xFFFFFFFFFFFFFFFFFFFFFFFFFFFFFFFFFFFFFFFF AND MUL OR SWAP1 SSTORE POP POP JUMP JUMPDEST PUSH1 0x7 SLOAD DUP2 JUMP JUMPDEST PUSH1 0x0 DUP1 DUP6 SUB PUSH2 0xBFB JUMPI PUSH1 0x0 SWAP1 POP PUSH2 0xCDF JUMP JUMPDEST PUSH1 0x0 DUP1 PUSH1 0x5 PUSH1 0x0 SWAP1 SLOAD SWAP1 PUSH2 0x100 EXP SWAP1 DIV PUSH20 0xFFFFFFFFFFFFFFFFFFFFFFFFFFFFFFFFFFFFFFFF AND PUSH20 0xFFFFFFFFFFFFFFFFFFFFFFFFFFFFFFFFFFFFFFFF AND PUSH4 0x5C07EAAB DUP11 DUP9 DUP9 DUP13 DUP10 PUSH1 0x40 MLOAD DUP7 PUSH4 0xFFFFFFFF AND PUSH1 0xE0 SHL DUP2 MSTORE PUSH1 0x4 ADD PUSH2 0xC61 SWAP6 SWAP5 SWAP4 SWAP3 SWAP2 SWAP1 PUSH2 0x30D0 JUMP JUMPDEST PUSH1 0x40 DUP1 MLOAD DUP1 DUP4 SUB DUP2 DUP7 GAS STATICCALL ISZERO DUP1 ISZERO PUSH2 0xC7D JUMPI RETURNDATASIZE PUSH1 0x0 DUP1 RETURNDATACOPY RETURNDATASIZE PUSH1 0x0 REVERT JUMPDEST POP POP POP POP PUSH1 0x40 MLOAD RETURNDATASIZE PUSH1 0x1F NOT PUSH1 0x1F DUP3 ADD AND DUP3 ADD DUP1 PUSH1 0x40 MSTORE POP DUP2 ADD SWAP1 PUSH2 0xCA1 SWAP2 SWAP1 PUSH2 0x3138 JUMP JUMPDEST SWAP2 POP SWAP2 POP DUP2 ISZERO PUSH2 0xCC7 JUMPI PUSH2 0xCBE DUP2 DUP9 PUSH2 0x21E9 SWAP1 SWAP2 SWAP1 PUSH4 0xFFFFFFFF AND JUMP JUMPDEST SWAP3 POP POP POP PUSH2 0xCDF JUMP JUMPDEST PUSH2 0xCDA DUP2 DUP9 PUSH2 0x219F SWAP1 SWAP2 SWAP1 PUSH4 0xFFFFFFFF AND JUMP JUMPDEST SWAP3 POP POP POP JUMPDEST SWAP7 SWAP6 POP POP POP POP POP POP JUMP JUMPDEST PUSH1 0x0 PUSH1 0x6 PUSH1 0x0 SWAP1 SLOAD SWAP1 PUSH2 0x100 EXP SWAP1 DIV PUSH20 0xFFFFFFFFFFFFFFFFFFFFFFFFFFFFFFFFFFFFFFFF AND PUSH20 0xFFFFFFFFFFFFFFFFFFFFFFFFFFFFFFFFFFFFFFFF AND CALLER PUSH20 0xFFFFFFFFFFFFFFFFFFFFFFFFFFFFFFFFFFFFFFFF AND EQ PUSH2 0xD7B JUMPI PUSH1 0x40 MLOAD PUSH32 0x8C379A000000000000000000000000000000000000000000000000000000000 DUP2 MSTORE PUSH1 0x4 ADD PUSH2 0xD72 SWAP1 PUSH2 0x31FB JUMP JUMPDEST PUSH1 0x40 MLOAD DUP1 SWAP2 SUB SWAP1 REVERT JUMPDEST PUSH2 0xD86 DUP11 DUP11 DUP9 PUSH2 0x2247 JUMP JUMPDEST PUSH1 0x0 PUSH1 0x2 PUSH1 0x0 SWAP1 SLOAD SWAP1 PUSH2 0x100 EXP SWAP1 DIV PUSH20 0xFFFFFFFFFFFFFFFFFFFFFFFFFFFFFFFFFFFFFFFF AND SWAP1 POP DUP1 PUSH20 0xFFFFFFFFFFFFFFFFFFFFFFFFFFFFFFFFFFFFFFFF AND PUSH4 0x5B88E8C6 CALLVALUE DUP14 DUP14 DUP14 DUP14 DUP14 DUP14 DUP14 DUP14 DUP14 PUSH1 0x40 MLOAD DUP12 PUSH4 0xFFFFFFFF AND PUSH1 0xE0 SHL DUP2 MSTORE PUSH1 0x4 ADD PUSH2 0xDF7 SWAP10 SWAP9 SWAP8 SWAP7 SWAP6 SWAP5 SWAP4 SWAP3 SWAP2 SWAP1 PUSH2 0x32CA JUMP JUMPDEST PUSH1 0x20 PUSH1 0x40 MLOAD DUP1 DUP4 SUB DUP2 DUP6 DUP9 GAS CALL ISZERO DUP1 ISZERO PUSH2 0xE15 JUMPI RETURNDATASIZE PUSH1 0x0 DUP1 RETURNDATACOPY RETURNDATASIZE PUSH1 0x0 REVERT JUMPDEST POP POP POP POP POP PUSH1 0x40 MLOAD RETURNDATASIZE PUSH1 0x1F NOT PUSH1 0x1F DUP3 ADD AND DUP3 ADD DUP1 PUSH1 0x40 MSTORE POP DUP2 ADD SWAP1 PUSH2 0xE3A SWAP2 SWAP1 PUSH2 0x3373 JUMP JUMPDEST SWAP2 POP POP SWAP10 SWAP9 POP POP POP POP POP POP POP POP POP JUMP JUMPDEST PUSH2 0x2AF8 DUP2 JUMP JUMPDEST PUSH1 0x1 PUSH1 0x0 SWAP1 SLOAD SWAP1 PUSH2 0x100 EXP SWAP1 DIV PUSH20 0xFFFFFFFFFFFFFFFFFFFFFFFFFFFFFFFFFFFFFFFF AND DUP2 JUMP JUMPDEST PUSH1 0x64 DUP2 JUMP JUMPDEST PUSH1 0x60 PUSH1 0x9 DUP1 SLOAD DUP1 PUSH1 0x20 MUL PUSH1 0x20 ADD PUSH1 0x40 MLOAD SWAP1 DUP2 ADD PUSH1 0x40 MSTORE DUP1 SWAP3 SWAP2 SWAP1 DUP2 DUP2 MSTORE PUSH1 0x20 ADD PUSH1 0x0 SWAP1 JUMPDEST DUP3 DUP3 LT ISZERO PUSH2 0xF98 JUMPI DUP4 DUP3 SWAP1 PUSH1 0x0 MSTORE PUSH1 0x20 PUSH1 0x0 KECCAK256 SWAP1 PUSH1 0x2 MUL ADD PUSH1 0x40 MLOAD DUP1 PUSH1 0x60 ADD PUSH1 0x40 MSTORE SWAP1 DUP2 PUSH1 0x0 DUP3 ADD PUSH1 0x0 SWAP1 SLOAD SWAP1 PUSH2 0x100 EXP SWAP1 DIV PUSH20 0xFFFFFFFFFFFFFFFFFFFFFFFFFFFFFFFFFFFFFFFF AND PUSH20 0xFFFFFFFFFFFFFFFFFFFFFFFFFFFFFFFFFFFFFFFF AND PUSH20 0xFFFFFFFFFFFFFFFFFFFFFFFFFFFFFFFFFFFFFFFF AND DUP2 MSTORE PUSH1 0x20 ADD PUSH1 0x1 DUP3 ADD PUSH1 0x0 SWAP1 SLOAD SWAP1 PUSH2 0x100 EXP SWAP1 DIV PUSH20 0xFFFFFFFFFFFFFFFFFFFFFFFFFFFFFFFFFFFFFFFF AND PUSH20 0xFFFFFFFFFFFFFFFFFFFFFFFFFFFFFFFFFFFFFFFF AND PUSH20 0xFFFFFFFFFFFFFFFFFFFFFFFFFFFFFFFFFFFFFFFF AND DUP2 MSTORE PUSH1 0x20 ADD PUSH1 0x1 DUP3 ADD PUSH1 0x14 SWAP1 SLOAD SWAP1 PUSH2 0x100 EXP SWAP1 DIV PUSH1 0xFF AND ISZERO ISZERO ISZERO ISZERO DUP2 MSTORE POP POP DUP2 MSTORE PUSH1 0x20 ADD SWAP1 PUSH1 0x1 ADD SWAP1 PUSH2 0xE9F JUMP JUMPDEST POP POP POP POP SWAP1 POP SWAP1 JUMP JUMPDEST PUSH1 0x0 DUP1 PUSH1 0x0 DUP1 PUSH1 0x0 PUSH2 0xFB1 PUSH2 0x24D1 JUMP JUMPDEST PUSH1 0x5 PUSH1 0x0 SWAP1 SLOAD SWAP1 PUSH2 0x100 EXP SWAP1 DIV PUSH20 0xFFFFFFFFFFFFFFFFFFFFFFFFFFFFFFFFFFFFFFFF AND PUSH20 0xFFFFFFFFFFFFFFFFFFFFFFFFFFFFFFFFFFFFFFFF AND PUSH4 0x4A3F088D ADDRESS DUP11 DUP13 DUP12 PUSH1 0x40 MLOAD DUP6 PUSH4 0xFFFFFFFF AND PUSH1 0xE0 SHL DUP2 MSTORE PUSH1 0x4 ADD PUSH2 0x1012 SWAP5 SWAP4 SWAP3 SWAP2 SWAP1 PUSH2 0x33A0 JUMP JUMPDEST PUSH2 0x100 PUSH1 0x40 MLOAD DUP1 DUP4 SUB DUP2 DUP7 GAS STATICCALL ISZERO DUP1 ISZERO PUSH2 0x1030 JUMPI RETURNDATASIZE PUSH1 0x0 DUP1 RETURNDATACOPY RETURNDATASIZE PUSH1 0x0 REVERT JUMPDEST POP POP POP POP PUSH1 0x40 MLOAD RETURNDATASIZE PUSH1 0x1F NOT PUSH1 0x1F DUP3 ADD AND DUP3 ADD DUP1 PUSH1 0x40 MSTORE POP DUP2 ADD SWAP1 PUSH2 0x1054 SWAP2 SWAP1 PUSH2 0x33E5 JUMP JUMPDEST SWAP1 SWAP2 SWAP3 POP SWAP1 SWAP2 POP SWAP1 POP DUP6 PUSH1 0x0 ADD DUP7 PUSH1 0x20 ADD DUP8 PUSH1 0x40 ADD DUP9 PUSH1 0x60 ADD DUP10 PUSH1 0xC0 ADD DUP6 DUP2 MSTORE POP DUP6 DUP2 MSTORE POP DUP6 DUP2 MSTORE POP DUP6 DUP2 MSTORE POP DUP6 DUP2 MSTORE POP POP POP POP POP POP DUP1 PUSH1 0x0 ADD MLOAD DUP2 PUSH1 0x20 ADD MLOAD DUP3 PUSH1 0x40 ADD MLOAD DUP4 PUSH1 0x60 ADD MLOAD DUP5 PUSH1 0xC0 ADD MLOAD SWAP6 POP SWAP6 POP SWAP6 POP SWAP6 POP SWAP6 POP POP SWAP4 SWAP8 SWAP3 SWAP7 POP SWAP4 POP SWAP4 POP JUMP JUMPDEST PUSH1 0x6 PUSH1 0x0 SWAP1 SLOAD SWAP1 PUSH2 0x100 EXP SWAP1 DIV PUSH20 0xFFFFFFFFFFFFFFFFFFFFFFFFFFFFFFFFFFFFFFFF AND DUP2 JUMP JUMPDEST PUSH1 0x0 PUSH1 0x6 PUSH1 0x0 SWAP1 SLOAD SWAP1 PUSH2 0x100 EXP SWAP1 DIV PUSH20 0xFFFFFFFFFFFFFFFFFFFFFFFFFFFFFFFFFFFFFFFF AND PUSH20 0xFFFFFFFFFFFFFFFFFFFFFFFFFFFFFFFFFFFFFFFF AND CALLER PUSH20 0xFFFFFFFFFFFFFFFFFFFFFFFFFFFFFFFFFFFFFFFF AND EQ DUP1 PUSH2 0x118A JUMPI POP PUSH1 0x1 PUSH1 0x0 SWAP1 SLOAD SWAP1 PUSH2 0x100 EXP SWAP1 DIV PUSH20 0xFFFFFFFFFFFFFFFFFFFFFFFFFFFFFFFFFFFFFFFF AND PUSH20 0xFFFFFFFFFFFFFFFFFFFFFFFFFFFFFFFFFFFFFFFF AND CALLER PUSH20 0xFFFFFFFFFFFFFFFFFFFFFFFFFFFFFFFFFFFFFFFF AND EQ JUMPDEST PUSH2 0x11C9 JUMPI PUSH1 0x40 MLOAD PUSH32 0x8C379A000000000000000000000000000000000000000000000000000000000 DUP2 MSTORE PUSH1 0x4 ADD PUSH2 0x11C0 SWAP1 PUSH2 0x350D JUMP JUMPDEST PUSH1 0x40 MLOAD DUP1 SWAP2 SUB SWAP1 REVERT JUMPDEST DUP4 CALLVALUE EQ PUSH2 0x120B JUMPI PUSH1 0x40 MLOAD PUSH32 0x8C379A000000000000000000000000000000000000000000000000000000000 DUP2 MSTORE PUSH1 0x4 ADD PUSH2 0x1202 SWAP1 PUSH2 0x3579 JUMP JUMPDEST PUSH1 0x40 MLOAD DUP1 SWAP2 SUB SWAP1 REVERT JUMPDEST PUSH2 0x1216 DUP12 DUP14 DUP11 PUSH2 0x1D81 JUMP JUMPDEST PUSH2 0x1255 JUMPI PUSH1 0x40 MLOAD PUSH32 0x8C379A000000000000000000000000000000000000000000000000000000000 DUP2 MSTORE PUSH1 0x4 ADD PUSH2 0x124C SWAP1 PUSH2 0x360B JUMP JUMPDEST PUSH1 0x40 MLOAD DUP1 SWAP2 SUB SWAP1 REVERT JUMPDEST PUSH1 0x2 PUSH1 0x0 SWAP1 SLOAD SWAP1 PUSH2 0x100 EXP SWAP1 DIV PUSH20 0xFFFFFFFFFFFFFFFFFFFFFFFFFFFFFFFFFFFFFFFF AND PUSH20 0xFFFFFFFFFFFFFFFFFFFFFFFFFFFFFFFFFFFFFFFF AND PUSH4 0x7BE7D141 CALLVALUE DUP15 DUP15 DUP15 DUP15 DUP15 DUP15 DUP15 DUP15 DUP15 DUP15 DUP15 PUSH1 0x40 MLOAD DUP14 PUSH4 0xFFFFFFFF AND PUSH1 0xE0 SHL DUP2 MSTORE PUSH1 0x4 ADD PUSH2 0x12C5 SWAP12 SWAP11 SWAP10 SWAP9 SWAP8 SWAP7 SWAP6 SWAP5 SWAP4 SWAP3 SWAP2 SWAP1 PUSH2 0x362B JUMP JUMPDEST PUSH1 0x20 PUSH1 0x40 MLOAD DUP1 DUP4 SUB DUP2 DUP6 DUP9 GAS CALL ISZERO DUP1 ISZERO PUSH2 0x12E3 JUMPI RETURNDATASIZE PUSH1 0x0 DUP1 RETURNDATACOPY RETURNDATASIZE PUSH1 0x0 REVERT JUMPDEST POP POP POP POP POP PUSH1 0x40 MLOAD RETURNDATASIZE PUSH1 0x1F NOT PUSH1 0x1F DUP3 ADD AND DUP3 ADD DUP1 PUSH1 0x40 MSTORE POP DUP2 ADD SWAP1 PUSH2 0x1308 SWAP2 SWAP1 PUSH2 0x3373 JUMP JUMPDEST SWAP1 POP SWAP12 SWAP11 POP POP POP POP POP POP POP POP POP POP POP JUMP JUMPDEST PUSH1 0x4 PUSH1 0x0 SWAP1 SLOAD SWAP1 PUSH2 0x100 EXP SWAP1 DIV PUSH20 0xFFFFFFFFFFFFFFFFFFFFFFFFFFFFFFFFFFFFFFFF AND DUP2 JUMP JUMPDEST PUSH2 0x1347 PUSH2 0x204B JUMP JUMPDEST DUP1 PUSH1 0x2 PUSH1 0x0 PUSH2 0x100 EXP DUP2 SLOAD DUP2 PUSH20 0xFFFFFFFFFFFFFFFFFFFFFFFFFFFFFFFFFFFFFFFF MUL NOT AND SWAP1 DUP4 PUSH20 0xFFFFFFFFFFFFFFFFFFFFFFFFFFFFFFFFFFFFFFFF AND MUL OR SWAP1 SSTORE POP POP JUMP JUMPDEST PUSH1 0x5 PUSH1 0x0 SWAP1 SLOAD SWAP1 PUSH2 0x100 EXP SWAP1 DIV PUSH20 0xFFFFFFFFFFFFFFFFFFFFFFFFFFFFFFFFFFFFFFFF AND DUP2 JUMP JUMPDEST PUSH1 0x0 PUSH1 0x6 PUSH1 0x0 SWAP1 SLOAD SWAP1 PUSH2 0x100 EXP SWAP1 DIV PUSH20 0xFFFFFFFFFFFFFFFFFFFFFFFFFFFFFFFFFFFFFFFF AND PUSH20 0xFFFFFFFFFFFFFFFFFFFFFFFFFFFFFFFFFFFFFFFF AND CALLER PUSH20 0xFFFFFFFFFFFFFFFFFFFFFFFFFFFFFFFFFFFFFFFF AND EQ PUSH2 0x1443 JUMPI PUSH1 0x40 MLOAD PUSH32 0x8C379A000000000000000000000000000000000000000000000000000000000 DUP2 MSTORE PUSH1 0x4 ADD PUSH2 0x143A SWAP1 PUSH2 0x31FB JUMP JUMPDEST PUSH1 0x40 MLOAD DUP1 SWAP2 SUB SWAP1 REVERT JUMPDEST PUSH2 0x144E DUP12 DUP12 DUP9 PUSH2 0x2247 JUMP JUMPDEST DUP11 PUSH1 0x0 DUP2 MLOAD DUP2 LT PUSH2 0x1462 JUMPI PUSH2 0x1461 PUSH2 0x2FB4 JUMP JUMPDEST JUMPDEST PUSH1 0x20 MUL PUSH1 0x20 ADD ADD MLOAD PUSH20 0xFFFFFFFFFFFFFFFFFFFFFFFFFFFFFFFFFFFFFFFF AND PUSH4 0x23B872DD CALLER ADDRESS DUP13 PUSH1 0x40 MLOAD DUP5 PUSH4 0xFFFFFFFF AND PUSH1 0xE0 SHL DUP2 MSTORE PUSH1 0x4 ADD PUSH2 0x14A6 SWAP4 SWAP3 SWAP2 SWAP1 PUSH2 0x36DD JUMP JUMPDEST PUSH1 0x20 PUSH1 0x40 MLOAD DUP1 DUP4 SUB DUP2 PUSH1 0x0 DUP8 GAS CALL ISZERO DUP1 ISZERO PUSH2 0x14C5 JUMPI RETURNDATASIZE PUSH1 0x0 DUP1 RETURNDATACOPY RETURNDATASIZE PUSH1 0x0 REVERT JUMPDEST POP POP POP POP PUSH1 0x40 MLOAD RETURNDATASIZE PUSH1 0x1F NOT PUSH1 0x1F DUP3 ADD AND DUP3 ADD DUP1 PUSH1 0x40 MSTORE POP DUP2 ADD SWAP1 PUSH2 0x14E9 SWAP2 SWAP1 PUSH2 0x3714 JUMP JUMPDEST POP DUP11 PUSH1 0x0 DUP2 MLOAD DUP2 LT PUSH2 0x14FE JUMPI PUSH2 0x14FD PUSH2 0x2FB4 JUMP JUMPDEST JUMPDEST PUSH1 0x20 MUL PUSH1 0x20 ADD ADD MLOAD PUSH20 0xFFFFFFFFFFFFFFFFFFFFFFFFFFFFFFFFFFFFFFFF AND PUSH4 0x95EA7B3 PUSH1 0x3 PUSH1 0x0 SWAP1 SLOAD SWAP1 PUSH2 0x100 EXP SWAP1 DIV PUSH20 0xFFFFFFFFFFFFFFFFFFFFFFFFFFFFFFFFFFFFFFFF AND DUP12 PUSH1 0x40 MLOAD DUP4 PUSH4 0xFFFFFFFF AND PUSH1 0xE0 SHL DUP2 MSTORE PUSH1 0x4 ADD PUSH2 0x1562 SWAP3 SWAP2 SWAP1 PUSH2 0x3741 JUMP JUMPDEST PUSH1 0x20 PUSH1 0x40 MLOAD DUP1 DUP4 SUB DUP2 PUSH1 0x0 DUP8 GAS CALL ISZERO DUP1 ISZERO PUSH2 0x1581 JUMPI RETURNDATASIZE PUSH1 0x0 DUP1 RETURNDATACOPY RETURNDATASIZE PUSH1 0x0 REVERT JUMPDEST POP POP POP POP PUSH1 0x40 MLOAD RETURNDATASIZE PUSH1 0x1F NOT PUSH1 0x1F DUP3 ADD AND DUP3 ADD DUP1 PUSH1 0x40 MSTORE POP DUP2 ADD SWAP1 PUSH2 0x15A5 SWAP2 SWAP1 PUSH2 0x3714 JUMP JUMPDEST POP PUSH1 0x0 PUSH1 0x2 PUSH1 0x0 SWAP1 SLOAD SWAP1 PUSH2 0x100 EXP SWAP1 DIV PUSH20 0xFFFFFFFFFFFFFFFFFFFFFFFFFFFFFFFFFFFFFFFF AND SWAP1 POP DUP1 PUSH20 0xFFFFFFFFFFFFFFFFFFFFFFFFFFFFFFFFFFFFFFFF AND PUSH4 0xF2AE372F CALLVALUE DUP15 DUP15 DUP15 DUP15 DUP15 DUP15 DUP15 DUP15 DUP15 DUP15 PUSH1 0x40 MLOAD DUP13 PUSH4 0xFFFFFFFF AND PUSH1 0xE0 SHL DUP2 MSTORE PUSH1 0x4 ADD PUSH2 0x1619 SWAP11 SWAP10 SWAP9 SWAP8 SWAP7 SWAP6 SWAP5 SWAP4 SWAP3 SWAP2 SWAP1 PUSH2 0x376A JUMP JUMPDEST PUSH1 0x20 PUSH1 0x40 MLOAD DUP1 DUP4 SUB DUP2 DUP6 DUP9 GAS CALL ISZERO DUP1 ISZERO PUSH2 0x1637 JUMPI RETURNDATASIZE PUSH1 0x0 DUP1 RETURNDATACOPY RETURNDATASIZE PUSH1 0x0 REVERT JUMPDEST POP POP POP POP POP PUSH1 0x40 MLOAD RETURNDATASIZE PUSH1 0x1F NOT PUSH1 0x1F DUP3 ADD AND DUP3 ADD DUP1 PUSH1 0x40 MSTORE POP DUP2 ADD SWAP1 PUSH2 0x165C SWAP2 SWAP1 PUSH2 0x3373 JUMP JUMPDEST SWAP2 POP POP SWAP11 SWAP10 POP POP POP POP POP POP POP POP POP POP JUMP JUMPDEST PUSH2 0x2710 DUP2 JUMP JUMPDEST PUSH1 0x0 DUP1 PUSH1 0x0 SWAP1 POP PUSH1 0x0 JUMPDEST PUSH1 0x9 DUP1 SLOAD SWAP1 POP DUP2 LT ISZERO PUSH2 0x1813 JUMPI PUSH1 0x0 DUP1 PUSH1 0x0 DUP1 PUSH2 0x1757 PUSH1 0x9 DUP7 DUP2 SLOAD DUP2 LT PUSH2 0x16A7 JUMPI PUSH2 0x16A6 PUSH2 0x2FB4 JUMP JUMPDEST JUMPDEST SWAP1 PUSH1 0x0 MSTORE PUSH1 0x20 PUSH1 0x0 KECCAK256 SWAP1 PUSH1 0x2 MUL ADD PUSH1 0x0 ADD PUSH1 0x0 SWAP1 SLOAD SWAP1 PUSH2 0x100 EXP SWAP1 DIV PUSH20 0xFFFFFFFFFFFFFFFFFFFFFFFFFFFFFFFFFFFFFFFF AND PUSH1 0x9 DUP8 DUP2 SLOAD DUP2 LT PUSH2 0x16ED JUMPI PUSH2 0x16EC PUSH2 0x2FB4 JUMP JUMPDEST JUMPDEST SWAP1 PUSH1 0x0 MSTORE PUSH1 0x20 PUSH1 0x0 KECCAK256 SWAP1 PUSH1 0x2 MUL ADD PUSH1 0x1 ADD PUSH1 0x0 SWAP1 SLOAD SWAP1 PUSH2 0x100 EXP SWAP1 DIV PUSH20 0xFFFFFFFFFFFFFFFFFFFFFFFFFFFFFFFFFFFFFFFF AND PUSH1 0x9 DUP9 DUP2 SLOAD DUP2 LT PUSH2 0x1733 JUMPI PUSH2 0x1732 PUSH2 0x2FB4 JUMP JUMPDEST JUMPDEST SWAP1 PUSH1 0x0 MSTORE PUSH1 0x20 PUSH1 0x0 KECCAK256 SWAP1 PUSH1 0x2 MUL ADD PUSH1 0x1 ADD PUSH1 0x14 SWAP1 SLOAD SWAP1 PUSH2 0x100 EXP SWAP1 DIV PUSH1 0xFF AND PUSH2 0xFA1 JUMP JUMPDEST SWAP5 POP POP SWAP4 POP SWAP4 POP SWAP4 POP PUSH1 0x0 DUP4 GT ISZERO PUSH2 0x17FC JUMPI PUSH2 0x17EE PUSH1 0x9 DUP7 DUP2 SLOAD DUP2 LT PUSH2 0x1780 JUMPI PUSH2 0x177F PUSH2 0x2FB4 JUMP JUMPDEST JUMPDEST SWAP1 PUSH1 0x0 MSTORE PUSH1 0x20 PUSH1 0x0 KECCAK256 SWAP1 PUSH1 0x2 MUL ADD PUSH1 0x0 ADD PUSH1 0x0 SWAP1 SLOAD SWAP1 PUSH2 0x100 EXP SWAP1 DIV PUSH20 0xFFFFFFFFFFFFFFFFFFFFFFFFFFFFFFFFFFFFFFFF AND PUSH1 0x9 DUP8 DUP2 SLOAD DUP2 LT PUSH2 0x17C6 JUMPI PUSH2 0x17C5 PUSH2 0x2FB4 JUMP JUMPDEST JUMPDEST SWAP1 PUSH1 0x0 MSTORE PUSH1 0x20 PUSH1 0x0 KECCAK256 SWAP1 PUSH1 0x2 MUL ADD PUSH1 0x1 ADD PUSH1 0x14 SWAP1 SLOAD SWAP1 PUSH2 0x100 EXP SWAP1 DIV PUSH1 0xFF AND DUP6 DUP8 DUP7 DUP7 PUSH2 0xBE9 JUMP JUMPDEST DUP7 PUSH2 0x17F9 SWAP2 SWAP1 PUSH2 0x3012 JUMP JUMPDEST SWAP6 POP JUMPDEST POP POP POP POP DUP1 DUP1 PUSH2 0x180B SWAP1 PUSH2 0x3046 JUMP JUMPDEST SWAP2 POP POP PUSH2 0x167D JUMP JUMPDEST POP DUP1 SWAP2 POP POP SWAP1 JUMP JUMPDEST PUSH2 0x1823 PUSH2 0x204B JUMP JUMPDEST DUP1 PUSH1 0x7 DUP2 SWAP1 SSTORE POP POP JUMP JUMPDEST PUSH1 0x0 DUP1 PUSH1 0x0 PUSH2 0x183E DUP11 DUP8 DUP8 DUP12 PUSH2 0x19FA JUMP JUMPDEST SWAP2 POP SWAP2 POP PUSH1 0x0 PUSH1 0x5 PUSH1 0x0 SWAP1 SLOAD SWAP1 PUSH2 0x100 EXP SWAP1 DIV PUSH20 0xFFFFFFFFFFFFFFFFFFFFFFFFFFFFFFFFFFFFFFFF AND PUSH20 0xFFFFFFFFFFFFFFFFFFFFFFFFFFFFFFFFFFFFFFFF AND PUSH4 0xCC5B8144 DUP12 DUP10 DUP9 PUSH1 0x40 MLOAD DUP5 PUSH4 0xFFFFFFFF AND PUSH1 0xE0 SHL DUP2 MSTORE PUSH1 0x4 ADD PUSH2 0x18A3 SWAP4 SWAP3 SWAP2 SWAP1 PUSH2 0x380D JUMP JUMPDEST PUSH1 0x20 PUSH1 0x40 MLOAD DUP1 DUP4 SUB DUP2 DUP7 GAS STATICCALL ISZERO DUP1 ISZERO PUSH2 0x18C0 JUMPI RETURNDATASIZE PUSH1 0x0 DUP1 RETURNDATACOPY RETURNDATASIZE PUSH1 0x0 REVERT JUMPDEST POP POP POP POP PUSH1 0x40 MLOAD RETURNDATASIZE PUSH1 0x1F NOT PUSH1 0x1F DUP3 ADD AND DUP3 ADD DUP1 PUSH1 0x40 MSTORE POP DUP2 ADD SWAP1 PUSH2 0x18E4 SWAP2 SWAP1 PUSH2 0x30A3 JUMP JUMPDEST SWAP1 POP PUSH1 0x5 PUSH1 0x0 SWAP1 SLOAD SWAP1 PUSH2 0x100 EXP SWAP1 DIV PUSH20 0xFFFFFFFFFFFFFFFFFFFFFFFFFFFFFFFFFFFFFFFF AND PUSH20 0xFFFFFFFFFFFFFFFFFFFFFFFFFFFFFFFFFFFFFFFF AND PUSH4 0x17BBF25C DUP9 PUSH1 0x40 MLOAD DUP3 PUSH4 0xFFFFFFFF AND PUSH1 0xE0 SHL DUP2 MSTORE PUSH1 0x4 ADD PUSH2 0x1941 SWAP2 SWAP1 PUSH2 0x252F JUMP JUMPDEST PUSH1 0x20 PUSH1 0x40 MLOAD DUP1 DUP4 SUB DUP2 DUP7 GAS STATICCALL ISZERO DUP1 ISZERO PUSH2 0x195E JUMPI RETURNDATASIZE PUSH1 0x0 DUP1 RETURNDATACOPY RETURNDATASIZE PUSH1 0x0 REVERT JUMPDEST POP POP POP POP PUSH1 0x40 MLOAD RETURNDATASIZE PUSH1 0x1F NOT PUSH1 0x1F DUP3 ADD AND DUP3 ADD DUP1 PUSH1 0x40 MSTORE POP DUP2 ADD SWAP1 PUSH2 0x1982 SWAP2 SWAP1 PUSH2 0x30A3 JUMP JUMPDEST DUP2 PUSH2 0x198D SWAP2 SWAP1 PUSH2 0x3012 JUMP JUMPDEST SWAP1 POP DUP3 ISZERO PUSH2 0x19C4 JUMPI PUSH2 0x19BA DUP2 PUSH2 0x19AC DUP5 DUP12 PUSH2 0x21E9 SWAP1 SWAP2 SWAP1 PUSH4 0xFFFFFFFF AND JUMP JUMPDEST PUSH2 0x219F SWAP1 SWAP2 SWAP1 PUSH4 0xFFFFFFFF AND JUMP JUMPDEST SWAP4 POP POP POP POP PUSH2 0x19EF JUMP JUMPDEST PUSH2 0x19E9 DUP2 PUSH2 0x19DB DUP5 DUP12 PUSH2 0x219F SWAP1 SWAP2 SWAP1 PUSH4 0xFFFFFFFF AND JUMP JUMPDEST PUSH2 0x219F SWAP1 SWAP2 SWAP1 PUSH4 0xFFFFFFFF AND JUMP JUMPDEST SWAP4 POP POP POP POP JUMPDEST SWAP8 SWAP7 POP POP POP POP POP POP POP JUMP JUMPDEST PUSH1 0x0 DUP1 PUSH1 0x0 DUP5 GT PUSH2 0x1A40 JUMPI PUSH1 0x40 MLOAD PUSH32 0x8C379A000000000000000000000000000000000000000000000000000000000 DUP2 MSTORE PUSH1 0x4 ADD PUSH2 0x1A37 SWAP1 PUSH2 0x38B6 JUMP JUMPDEST PUSH1 0x40 MLOAD DUP1 SWAP2 SUB SWAP1 REVERT JUMPDEST PUSH1 0x0 DUP4 PUSH2 0x1B23 JUMPI PUSH2 0x1B1E PUSH2 0x2710 PUSH2 0x1B10 PUSH2 0x1A66 PUSH1 0x64 PUSH2 0x2710 PUSH2 0x21E9 SWAP1 SWAP2 SWAP1 PUSH4 0xFFFFFFFF AND JUMP JUMPDEST PUSH1 0x5 PUSH1 0x0 SWAP1 SLOAD SWAP1 PUSH2 0x100 EXP SWAP1 DIV PUSH20 0xFFFFFFFFFFFFFFFFFFFFFFFFFFFFFFFFFFFFFFFF AND PUSH20 0xFFFFFFFFFFFFFFFFFFFFFFFFFFFFFFFFFFFFFFFF AND PUSH4 0xE124E6D2 DUP13 PUSH1 0x40 MLOAD DUP3 PUSH4 0xFFFFFFFF AND PUSH1 0xE0 SHL DUP2 MSTORE PUSH1 0x4 ADD PUSH2 0x1AC1 SWAP2 SWAP1 PUSH2 0x258B JUMP JUMPDEST PUSH1 0x20 PUSH1 0x40 MLOAD DUP1 DUP4 SUB DUP2 DUP7 GAS STATICCALL ISZERO DUP1 ISZERO PUSH2 0x1ADE JUMPI RETURNDATASIZE PUSH1 0x0 DUP1 RETURNDATACOPY RETURNDATASIZE PUSH1 0x0 REVERT JUMPDEST POP POP POP POP PUSH1 0x40 MLOAD RETURNDATASIZE PUSH1 0x1F NOT PUSH1 0x1F DUP3 ADD AND DUP3 ADD DUP1 PUSH1 0x40 MSTORE POP DUP2 ADD SWAP1 PUSH2 0x1B02 SWAP2 SWAP1 PUSH2 0x30A3 JUMP JUMPDEST PUSH2 0x20DB SWAP1 SWAP2 SWAP1 PUSH4 0xFFFFFFFF AND JUMP JUMPDEST PUSH2 0x2155 SWAP1 SWAP2 SWAP1 PUSH4 0xFFFFFFFF AND JUMP JUMPDEST PUSH2 0x1BFB JUMP JUMPDEST PUSH2 0x1BFA PUSH2 0x2710 PUSH2 0x1BEC PUSH2 0x1B42 PUSH1 0x64 PUSH2 0x2710 PUSH2 0x219F SWAP1 SWAP2 SWAP1 PUSH4 0xFFFFFFFF AND JUMP JUMPDEST PUSH1 0x5 PUSH1 0x0 SWAP1 SLOAD SWAP1 PUSH2 0x100 EXP SWAP1 DIV PUSH20 0xFFFFFFFFFFFFFFFFFFFFFFFFFFFFFFFFFFFFFFFF AND PUSH20 0xFFFFFFFFFFFFFFFFFFFFFFFFFFFFFFFFFFFFFFFF AND PUSH4 0x81A612D6 DUP13 PUSH1 0x40 MLOAD DUP3 PUSH4 0xFFFFFFFF AND PUSH1 0xE0 SHL DUP2 MSTORE PUSH1 0x4 ADD PUSH2 0x1B9D SWAP2 SWAP1 PUSH2 0x258B JUMP JUMPDEST PUSH1 0x20 PUSH1 0x40 MLOAD DUP1 DUP4 SUB DUP2 DUP7 GAS STATICCALL ISZERO DUP1 ISZERO PUSH2 0x1BBA JUMPI RETURNDATASIZE PUSH1 0x0 DUP1 RETURNDATACOPY RETURNDATASIZE PUSH1 0x0 REVERT JUMPDEST POP POP POP POP PUSH1 0x40 MLOAD RETURNDATASIZE PUSH1 0x1F NOT PUSH1 0x1F DUP3 ADD AND DUP3 ADD DUP1 PUSH1 0x40 MSTORE POP DUP2 ADD SWAP1 PUSH2 0x1BDE SWAP2 SWAP1 PUSH2 0x30A3 JUMP JUMPDEST PUSH2 0x20DB SWAP1 SWAP2 SWAP1 PUSH4 0xFFFFFFFF AND JUMP JUMPDEST PUSH2 0x2155 SWAP1 SWAP2 SWAP1 PUSH4 0xFFFFFFFF AND JUMP JUMPDEST JUMPDEST SWAP1 POP PUSH1 0x0 DUP2 DUP7 GT PUSH2 0x1C1E JUMPI PUSH2 0x1C19 DUP7 DUP4 PUSH2 0x219F SWAP1 SWAP2 SWAP1 PUSH4 0xFFFFFFFF AND JUMP JUMPDEST PUSH2 0x1C32 JUMP JUMPDEST PUSH2 0x1C31 DUP3 DUP8 PUSH2 0x219F SWAP1 SWAP2 SWAP1 PUSH4 0xFFFFFFFF AND JUMP JUMPDEST JUMPDEST SWAP1 POP PUSH1 0x0 PUSH2 0x1C5B DUP8 PUSH2 0x1C4D DUP5 DUP12 PUSH2 0x20DB SWAP1 SWAP2 SWAP1 PUSH4 0xFFFFFFFF AND JUMP JUMPDEST PUSH2 0x2155 SWAP1 SWAP2 SWAP1 PUSH4 0xFFFFFFFF AND JUMP JUMPDEST SWAP1 POP PUSH1 0x0 DUP7 ISZERO PUSH2 0x1C6F JUMPI DUP8 DUP5 GT SWAP1 POP PUSH2 0x1C75 JUMP JUMPDEST DUP4 DUP9 GT SWAP1 POP JUMPDEST DUP1 DUP3 SWAP6 POP SWAP6 POP POP POP POP POP SWAP5 POP SWAP5 SWAP3 POP POP POP JUMP JUMPDEST PUSH8 0xDE0B6B3A7640000 CALLVALUE EQ PUSH2 0x1C9C JUMPI PUSH1 0x0 DUP1 REVERT JUMPDEST JUMP JUMPDEST PUSH1 0x0 DUP4 DUP4 DUP4 PUSH1 0x40 MLOAD PUSH1 0x20 ADD PUSH2 0x1CB5 SWAP4 SWAP3 SWAP2 SWAP1 PUSH2 0x3966 JUMP JUMPDEST PUSH1 0x40 MLOAD PUSH1 0x20 DUP2 DUP4 SUB SUB DUP2 MSTORE SWAP1 PUSH1 0x40 MSTORE DUP1 MLOAD SWAP1 PUSH1 0x20 ADD KECCAK256 SWAP1 POP SWAP4 SWAP3 POP POP POP JUMP JUMPDEST PUSH1 0x2 PUSH1 0x0 SWAP1 SLOAD SWAP1 PUSH2 0x100 EXP SWAP1 DIV PUSH20 0xFFFFFFFFFFFFFFFFFFFFFFFFFFFFFFFFFFFFFFFF AND DUP2 JUMP JUMPDEST PUSH1 0x9 DUP2 DUP2 SLOAD DUP2 LT PUSH2 0x1D0A JUMPI PUSH1 0x0 DUP1 REVERT JUMPDEST SWAP1 PUSH1 0x0 MSTORE PUSH1 0x20 PUSH1 0x0 KECCAK256 SWAP1 PUSH1 0x2 MUL ADD PUSH1 0x0 SWAP2 POP SWAP1 POP DUP1 PUSH1 0x0 ADD PUSH1 0x0 SWAP1 SLOAD SWAP1 PUSH2 0x100 EXP SWAP1 DIV PUSH20 0xFFFFFFFFFFFFFFFFFFFFFFFFFFFFFFFFFFFFFFFF AND SWAP1 DUP1 PUSH1 0x1 ADD PUSH1 0x0 SWAP1 SLOAD SWAP1 PUSH2 0x100 EXP SWAP1 DIV PUSH20 0xFFFFFFFFFFFFFFFFFFFFFFFFFFFFFFFFFFFFFFFF AND SWAP1 DUP1 PUSH1 0x1 ADD PUSH1 0x14 SWAP1 SLOAD SWAP1 PUSH2 0x100 EXP SWAP1 DIV PUSH1 0xFF AND SWAP1 POP DUP4 JUMP JUMPDEST PUSH1 0x0 DUP1 PUSH1 0x1 PUSH1 0x0 SWAP1 SLOAD SWAP1 PUSH2 0x100 EXP SWAP1 DIV PUSH20 0xFFFFFFFFFFFFFFFFFFFFFFFFFFFFFFFFFFFFFFFF AND PUSH20 0xFFFFFFFFFFFFFFFFFFFFFFFFFFFFFFFFFFFFFFFF AND PUSH4 0xD04F246B PUSH1 0x6 PUSH1 0x0 SWAP1 SLOAD SWAP1 PUSH2 0x100 EXP SWAP1 DIV PUSH20 0xFFFFFFFFFFFFFFFFFFFFFFFFFFFFFFFFFFFFFFFF AND PUSH1 0x40 MLOAD DUP3 PUSH4 0xFFFFFFFF AND PUSH1 0xE0 SHL DUP2 MSTORE PUSH1 0x4 ADD PUSH2 0x1E01 SWAP2 SWAP1 PUSH2 0x258B JUMP JUMPDEST PUSH1 0x20 PUSH1 0x40 MLOAD DUP1 DUP4 SUB DUP2 DUP7 GAS STATICCALL ISZERO DUP1 ISZERO PUSH2 0x1E1E JUMPI RETURNDATASIZE PUSH1 0x0 DUP1 RETURNDATACOPY RETURNDATASIZE PUSH1 0x0 REVERT JUMPDEST POP POP POP POP PUSH1 0x40 MLOAD RETURNDATASIZE PUSH1 0x1F NOT PUSH1 0x1F DUP3 ADD AND DUP3 ADD DUP1 PUSH1 0x40 MSTORE POP DUP2 ADD SWAP1 PUSH2 0x1E42 SWAP2 SWAP1 PUSH2 0x30A3 JUMP JUMPDEST SWAP1 POP PUSH1 0x0 DUP2 SUB PUSH2 0x1E56 JUMPI PUSH1 0x1 SWAP2 POP POP PUSH2 0x1F21 JUMP JUMPDEST PUSH1 0x0 DUP1 PUSH1 0x0 DUP1 PUSH2 0x1E95 DUP10 DUP10 PUSH2 0x1E76 PUSH1 0x1 DUP13 MLOAD PUSH2 0x219F SWAP1 SWAP2 SWAP1 PUSH4 0xFFFFFFFF AND JUMP JUMPDEST DUP2 MLOAD DUP2 LT PUSH2 0x1E87 JUMPI PUSH2 0x1E86 PUSH2 0x2FB4 JUMP JUMPDEST JUMPDEST PUSH1 0x20 MUL PUSH1 0x20 ADD ADD MLOAD DUP10 PUSH2 0xFA1 JUMP JUMPDEST SWAP5 POP POP SWAP4 POP SWAP4 POP SWAP4 POP PUSH1 0x0 PUSH2 0x1EA8 PUSH2 0x888 JUMP JUMPDEST SWAP1 POP PUSH1 0x0 PUSH2 0x1EBA DUP12 DUP11 DUP8 DUP10 DUP9 DUP9 PUSH2 0xBE9 JUMP JUMPDEST SWAP1 POP DUP1 DUP3 LT ISZERO PUSH2 0x1ED4 JUMPI PUSH1 0x0 SWAP8 POP POP POP POP POP POP POP POP PUSH2 0x1F21 JUMP JUMPDEST PUSH1 0x0 PUSH2 0x1F0F DUP9 PUSH2 0x1F01 PUSH2 0x2710 PUSH2 0x1EF3 DUP7 DUP9 PUSH2 0x219F SWAP1 SWAP2 SWAP1 PUSH4 0xFFFFFFFF AND JUMP JUMPDEST PUSH2 0x20DB SWAP1 SWAP2 SWAP1 PUSH4 0xFFFFFFFF AND JUMP JUMPDEST PUSH2 0x2155 SWAP1 SWAP2 SWAP1 PUSH4 0xFFFFFFFF AND JUMP JUMPDEST SWAP1 POP PUSH2 0x2AF8 DUP2 GT SWAP9 POP POP POP POP POP POP POP POP POP JUMPDEST SWAP4 SWAP3 POP POP POP JUMP JUMPDEST PUSH2 0x1F30 PUSH2 0x204B JUMP JUMPDEST DUP1 PUSH1 0x7 DUP2 SWAP1 SSTORE POP POP JUMP JUMPDEST PUSH1 0x0 DUP1 PUSH1 0x1 PUSH1 0x0 SWAP1 SLOAD SWAP1 PUSH2 0x100 EXP SWAP1 DIV PUSH20 0xFFFFFFFFFFFFFFFFFFFFFFFFFFFFFFFFFFFFFFFF AND PUSH20 0xFFFFFFFFFFFFFFFFFFFFFFFFFFFFFFFFFFFFFFFF AND PUSH4 0xD04F246B PUSH1 0x6 PUSH1 0x0 SWAP1 SLOAD SWAP1 PUSH2 0x100 EXP SWAP1 DIV PUSH20 0xFFFFFFFFFFFFFFFFFFFFFFFFFFFFFFFFFFFFFFFF AND PUSH1 0x40 MLOAD DUP3 PUSH4 0xFFFFFFFF AND PUSH1 0xE0 SHL DUP2 MSTORE PUSH1 0x4 ADD PUSH2 0x1FBA SWAP2 SWAP1 PUSH2 0x258B JUMP JUMPDEST PUSH1 0x20 PUSH1 0x40 MLOAD DUP1 DUP4 SUB DUP2 DUP7 GAS STATICCALL ISZERO DUP1 ISZERO PUSH2 0x1FD7 JUMPI RETURNDATASIZE PUSH1 0x0 DUP1 RETURNDATACOPY RETURNDATASIZE PUSH1 0x0 REVERT JUMPDEST POP POP POP POP PUSH1 0x40 MLOAD RETURNDATASIZE PUSH1 0x1F NOT PUSH1 0x1F DUP3 ADD AND DUP3 ADD DUP1 PUSH1 0x40 MSTORE POP DUP2 ADD SWAP1 PUSH2 0x1FFB SWAP2 SWAP1 PUSH2 0x30A3 JUMP JUMPDEST SWAP1 POP PUSH1 0x0 PUSH2 0x2007 PUSH2 0x888 JUMP JUMPDEST SWAP1 POP PUSH1 0x0 DUP3 SUB PUSH2 0x201C JUMPI PUSH1 0x0 SWAP3 POP POP POP PUSH2 0x2048 JUMP JUMPDEST PUSH2 0x2043 DUP3 PUSH2 0x2035 PUSH2 0x2710 DUP5 PUSH2 0x20DB SWAP1 SWAP2 SWAP1 PUSH4 0xFFFFFFFF AND JUMP JUMPDEST PUSH2 0x2155 SWAP1 SWAP2 SWAP1 PUSH4 0xFFFFFFFF AND JUMP JUMPDEST SWAP3 POP POP POP JUMPDEST SWAP1 JUMP JUMPDEST PUSH1 0x0 DUP1 SLOAD SWAP1 PUSH2 0x100 EXP SWAP1 DIV PUSH20 0xFFFFFFFFFFFFFFFFFFFFFFFFFFFFFFFFFFFFFFFF AND PUSH20 0xFFFFFFFFFFFFFFFFFFFFFFFFFFFFFFFFFFFFFFFF AND CALLER PUSH20 0xFFFFFFFFFFFFFFFFFFFFFFFFFFFFFFFFFFFFFFFF AND EQ PUSH2 0x20D9 JUMPI PUSH1 0x40 MLOAD PUSH32 0x8C379A000000000000000000000000000000000000000000000000000000000 DUP2 MSTORE PUSH1 0x4 ADD PUSH2 0x20D0 SWAP1 PUSH2 0x39EF JUMP JUMPDEST PUSH1 0x40 MLOAD DUP1 SWAP2 SUB SWAP1 REVERT JUMPDEST JUMP JUMPDEST PUSH1 0x0 DUP1 DUP4 SUB PUSH2 0x20ED JUMPI PUSH1 0x0 SWAP1 POP PUSH2 0x214F JUMP JUMPDEST PUSH1 0x0 DUP3 DUP5 PUSH2 0x20FB SWAP2 SWAP1 PUSH2 0x3A0F JUMP JUMPDEST SWAP1 POP DUP3 DUP5 DUP3 PUSH2 0x210A SWAP2 SWAP1 PUSH2 0x3A80 JUMP JUMPDEST EQ PUSH2 0x214A JUMPI PUSH1 0x40 MLOAD PUSH32 0x8C379A000000000000000000000000000000000000000000000000000000000 DUP2 MSTORE PUSH1 0x4 ADD PUSH2 0x2141 SWAP1 PUSH2 0x3B23 JUMP JUMPDEST PUSH1 0x40 MLOAD DUP1 SWAP2 SUB SWAP1 REVERT JUMPDEST DUP1 SWAP2 POP POP JUMPDEST SWAP3 SWAP2 POP POP JUMP JUMPDEST PUSH1 0x0 PUSH2 0x2197 DUP4 DUP4 PUSH1 0x40 MLOAD DUP1 PUSH1 0x40 ADD PUSH1 0x40 MSTORE DUP1 PUSH1 0x1A DUP2 MSTORE PUSH1 0x20 ADD PUSH32 0x536166654D6174683A206469766973696F6E206279207A65726F000000000000 DUP2 MSTORE POP PUSH2 0x240A JUMP JUMPDEST SWAP1 POP SWAP3 SWAP2 POP POP JUMP JUMPDEST PUSH1 0x0 PUSH2 0x21E1 DUP4 DUP4 PUSH1 0x40 MLOAD DUP1 PUSH1 0x40 ADD PUSH1 0x40 MSTORE DUP1 PUSH1 0x1E DUP2 MSTORE PUSH1 0x20 ADD PUSH32 0x536166654D6174683A207375627472616374696F6E206F766572666C6F770000 DUP2 MSTORE POP PUSH2 0x246D JUMP JUMPDEST SWAP1 POP SWAP3 SWAP2 POP POP JUMP JUMPDEST PUSH1 0x0 DUP1 DUP3 DUP5 PUSH2 0x21F8 SWAP2 SWAP1 PUSH2 0x3012 JUMP JUMPDEST SWAP1 POP DUP4 DUP2 LT ISZERO PUSH2 0x223D JUMPI PUSH1 0x40 MLOAD PUSH32 0x8C379A000000000000000000000000000000000000000000000000000000000 DUP2 MSTORE PUSH1 0x4 ADD PUSH2 0x2234 SWAP1 PUSH2 0x3B8F JUMP JUMPDEST PUSH1 0x40 MLOAD DUP1 SWAP2 SUB SWAP1 REVERT JUMPDEST DUP1 SWAP2 POP POP SWAP3 SWAP2 POP POP JUMP JUMPDEST PUSH1 0x0 DUP4 PUSH2 0x225F PUSH1 0x1 DUP7 MLOAD PUSH2 0x219F SWAP1 SWAP2 SWAP1 PUSH4 0xFFFFFFFF AND JUMP JUMPDEST DUP2 MLOAD DUP2 LT PUSH2 0x2270 JUMPI PUSH2 0x226F PUSH2 0x2FB4 JUMP JUMPDEST JUMPDEST PUSH1 0x20 MUL PUSH1 0x20 ADD ADD MLOAD SWAP1 POP PUSH1 0x8 PUSH1 0x0 PUSH2 0x2289 DUP6 DUP5 DUP7 PUSH2 0x1C9E JUMP JUMPDEST DUP2 MSTORE PUSH1 0x20 ADD SWAP1 DUP2 MSTORE PUSH1 0x20 ADD PUSH1 0x0 KECCAK256 PUSH1 0x0 SWAP1 SLOAD SWAP1 PUSH2 0x100 EXP SWAP1 DIV PUSH1 0xFF AND PUSH2 0x2404 JUMPI PUSH1 0x9 PUSH1 0x40 MLOAD DUP1 PUSH1 0x60 ADD PUSH1 0x40 MSTORE DUP1 DUP6 PUSH20 0xFFFFFFFFFFFFFFFFFFFFFFFFFFFFFFFFFFFFFFFF AND DUP2 MSTORE PUSH1 0x20 ADD DUP4 PUSH20 0xFFFFFFFFFFFFFFFFFFFFFFFFFFFFFFFFFFFFFFFF AND DUP2 MSTORE PUSH1 0x20 ADD DUP5 ISZERO ISZERO DUP2 MSTORE POP SWAP1 DUP1 PUSH1 0x1 DUP2 SLOAD ADD DUP1 DUP3 SSTORE DUP1 SWAP2 POP POP PUSH1 0x1 SWAP1 SUB SWAP1 PUSH1 0x0 MSTORE PUSH1 0x20 PUSH1 0x0 KECCAK256 SWAP1 PUSH1 0x2 MUL ADD PUSH1 0x0 SWAP1 SWAP2 SWAP1 SWAP2 SWAP1 SWAP2 POP PUSH1 0x0 DUP3 ADD MLOAD DUP2 PUSH1 0x0 ADD PUSH1 0x0 PUSH2 0x100 EXP DUP2 SLOAD DUP2 PUSH20 0xFFFFFFFFFFFFFFFFFFFFFFFFFFFFFFFFFFFFFFFF MUL NOT AND SWAP1 DUP4 PUSH20 0xFFFFFFFFFFFFFFFFFFFFFFFFFFFFFFFFFFFFFFFF AND MUL OR SWAP1 SSTORE POP PUSH1 0x20 DUP3 ADD MLOAD DUP2 PUSH1 0x1 ADD PUSH1 0x0 PUSH2 0x100 EXP DUP2 SLOAD DUP2 PUSH20 0xFFFFFFFFFFFFFFFFFFFFFFFFFFFFFFFFFFFFFFFF MUL NOT AND SWAP1 DUP4 PUSH20 0xFFFFFFFFFFFFFFFFFFFFFFFFFFFFFFFFFFFFFFFF AND MUL OR SWAP1 SSTORE POP PUSH1 0x40 DUP3 ADD MLOAD DUP2 PUSH1 0x1 ADD PUSH1 0x14 PUSH2 0x100 EXP DUP2 SLOAD DUP2 PUSH1 0xFF MUL NOT AND SWAP1 DUP4 ISZERO ISZERO MUL OR SWAP1 SSTORE POP POP POP PUSH1 0x1 PUSH1 0x8 PUSH1 0x0 PUSH2 0x23DE DUP7 DUP6 DUP8 PUSH2 0x1C9E JUMP JUMPDEST DUP2 MSTORE PUSH1 0x20 ADD SWAP1 DUP2 MSTORE PUSH1 0x20 ADD PUSH1 0x0 KECCAK256 PUSH1 0x0 PUSH2 0x100 EXP DUP2 SLOAD DUP2 PUSH1 0xFF MUL NOT AND SWAP1 DUP4 ISZERO ISZERO MUL OR SWAP1 SSTORE POP JUMPDEST POP POP POP POP JUMP JUMPDEST PUSH1 0x0 DUP1 DUP4 GT DUP3 SWAP1 PUSH2 0x2451 JUMPI PUSH1 0x40 MLOAD PUSH32 0x8C379A000000000000000000000000000000000000000000000000000000000 DUP2 MSTORE PUSH1 0x4 ADD PUSH2 0x2448 SWAP2 SWAP1 PUSH2 0x3C1D JUMP JUMPDEST PUSH1 0x40 MLOAD DUP1 SWAP2 SUB SWAP1 REVERT JUMPDEST POP PUSH1 0x0 DUP4 DUP6 PUSH2 0x2460 SWAP2 SWAP1 PUSH2 0x3A80 JUMP JUMPDEST SWAP1 POP DUP1 SWAP2 POP POP SWAP4 SWAP3 POP POP POP JUMP JUMPDEST PUSH1 0x0 DUP4 DUP4 GT ISZERO DUP3 SWAP1 PUSH2 0x24B5 JUMPI PUSH1 0x40 MLOAD PUSH32 0x8C379A000000000000000000000000000000000000000000000000000000000 DUP2 MSTORE PUSH1 0x4 ADD PUSH2 0x24AC SWAP2 SWAP1 PUSH2 0x3C1D JUMP JUMPDEST PUSH1 0x40 MLOAD DUP1 SWAP2 SUB SWAP1 REVERT JUMPDEST POP PUSH1 0x0 DUP4 DUP6 PUSH2 0x24C4 SWAP2 SWAP1 PUSH2 0x3C3F JUMP JUMPDEST SWAP1 POP DUP1 SWAP2 POP POP SWAP4 SWAP3 POP POP POP JUMP JUMPDEST PUSH1 0x40 MLOAD DUP1 PUSH2 0x100 ADD PUSH1 0x40 MSTORE DUP1 PUSH1 0x0 DUP2 MSTORE PUSH1 0x20 ADD PUSH1 0x0 DUP2 MSTORE PUSH1 0x20 ADD PUSH1 0x0 DUP2 MSTORE PUSH1 0x20 ADD PUSH1 0x0 DUP2 MSTORE PUSH1 0x20 ADD PUSH1 0x0 DUP2 MSTORE PUSH1 0x20 ADD PUSH1 0x0 DUP2 MSTORE PUSH1 0x20 ADD PUSH1 0x0 DUP2 MSTORE PUSH1 0x20 ADD PUSH1 0x0 DUP2 MSTORE POP SWAP1 JUMP JUMPDEST PUSH1 0x0 DUP2 SWAP1 POP SWAP2 SWAP1 POP JUMP JUMPDEST PUSH2 0x2529 DUP2 PUSH2 0x2516 JUMP JUMPDEST DUP3 MSTORE POP POP JUMP JUMPDEST PUSH1 0x0 PUSH1 0x20 DUP3 ADD SWAP1 POP PUSH2 0x2544 PUSH1 0x0 DUP4 ADD DUP5 PUSH2 0x2520 JUMP JUMPDEST SWAP3 SWAP2 POP POP JUMP JUMPDEST PUSH1 0x0 PUSH20 0xFFFFFFFFFFFFFFFFFFFFFFFFFFFFFFFFFFFFFFFF DUP3 AND SWAP1 POP SWAP2 SWAP1 POP JUMP JUMPDEST PUSH1 0x0 PUSH2 0x2575 DUP3 PUSH2 0x254A JUMP JUMPDEST SWAP1 POP SWAP2 SWAP1 POP JUMP JUMPDEST PUSH2 0x2585 DUP2 PUSH2 0x256A JUMP JUMPDEST DUP3 MSTORE POP POP JUMP JUMPDEST PUSH1 0x0 PUSH1 0x20 DUP3 ADD SWAP1 POP PUSH2 0x25A0 PUSH1 0x0 DUP4 ADD DUP5 PUSH2 0x257C JUMP JUMPDEST SWAP3 SWAP2 POP POP JUMP JUMPDEST PUSH1 0x0 PUSH1 0x40 MLOAD SWAP1 POP SWAP1 JUMP JUMPDEST PUSH1 0x0 DUP1 REVERT JUMPDEST PUSH1 0x0 DUP1 REVERT JUMPDEST PUSH2 0x25C3 DUP2 PUSH2 0x256A JUMP JUMPDEST DUP2 EQ PUSH2 0x25CE JUMPI PUSH1 0x0 DUP1 REVERT JUMPDEST POP JUMP JUMPDEST PUSH1 0x0 DUP2 CALLDATALOAD SWAP1 POP PUSH2 0x25E0 DUP2 PUSH2 0x25BA JUMP JUMPDEST SWAP3 SWAP2 POP POP JUMP JUMPDEST PUSH1 0x0 PUSH1 0x20 DUP3 DUP5 SUB SLT ISZERO PUSH2 0x25FC JUMPI PUSH2 0x25FB PUSH2 0x25B0 JUMP JUMPDEST JUMPDEST PUSH1 0x0 PUSH2 0x260A DUP5 DUP3 DUP6 ADD PUSH2 0x25D1 JUMP JUMPDEST SWAP2 POP POP SWAP3 SWAP2 POP POP JUMP JUMPDEST PUSH1 0x0 DUP2 ISZERO ISZERO SWAP1 POP SWAP2 SWAP1 POP JUMP JUMPDEST PUSH2 0x2628 DUP2 PUSH2 0x2613 JUMP JUMPDEST DUP2 EQ PUSH2 0x2633 JUMPI PUSH1 0x0 DUP1 REVERT JUMPDEST POP JUMP JUMPDEST PUSH1 0x0 DUP2 CALLDATALOAD SWAP1 POP PUSH2 0x2645 DUP2 PUSH2 0x261F JUMP JUMPDEST SWAP3 SWAP2 POP POP JUMP JUMPDEST PUSH2 0x2654 DUP2 PUSH2 0x2516 JUMP JUMPDEST DUP2 EQ PUSH2 0x265F JUMPI PUSH1 0x0 DUP1 REVERT JUMPDEST POP JUMP JUMPDEST PUSH1 0x0 DUP2 CALLDATALOAD SWAP1 POP PUSH2 0x2671 DUP2 PUSH2 0x264B JUMP JUMPDEST SWAP3 SWAP2 POP POP JUMP JUMPDEST PUSH1 0x0 DUP1 PUSH1 0x0 DUP1 PUSH1 0x0 DUP1 PUSH1 0xC0 DUP8 DUP10 SUB SLT ISZERO PUSH2 0x2694 JUMPI PUSH2 0x2693 PUSH2 0x25B0 JUMP JUMPDEST JUMPDEST PUSH1 0x0 PUSH2 0x26A2 DUP10 DUP3 DUP11 ADD PUSH2 0x25D1 JUMP JUMPDEST SWAP7 POP POP PUSH1 0x20 PUSH2 0x26B3 DUP10 DUP3 DUP11 ADD PUSH2 0x2636 JUMP JUMPDEST SWAP6 POP POP PUSH1 0x40 PUSH2 0x26C4 DUP10 DUP3 DUP11 ADD PUSH2 0x2662 JUMP JUMPDEST SWAP5 POP POP PUSH1 0x60 PUSH2 0x26D5 DUP10 DUP3 DUP11 ADD PUSH2 0x2662 JUMP JUMPDEST SWAP4 POP POP PUSH1 0x80 PUSH2 0x26E6 DUP10 DUP3 DUP11 ADD PUSH2 0x2662 JUMP JUMPDEST SWAP3 POP POP PUSH1 0xA0 PUSH2 0x26F7 DUP10 DUP3 DUP11 ADD PUSH2 0x2662 JUMP JUMPDEST SWAP2 POP POP SWAP3 SWAP6 POP SWAP3 SWAP6 POP SWAP3 SWAP6 JUMP JUMPDEST PUSH1 0x0 DUP1 REVERT JUMPDEST PUSH1 0x0 PUSH1 0x1F NOT PUSH1 0x1F DUP4 ADD AND SWAP1 POP SWAP2 SWAP1 POP JUMP JUMPDEST PUSH32 0x4E487B7100000000000000000000000000000000000000000000000000000000 PUSH1 0x0 MSTORE PUSH1 0x41 PUSH1 0x4 MSTORE PUSH1 0x24 PUSH1 0x0 REVERT JUMPDEST PUSH2 0x2752 DUP3 PUSH2 0x2709 JUMP JUMPDEST DUP2 ADD DUP2 DUP2 LT PUSH8 0xFFFFFFFFFFFFFFFF DUP3 GT OR ISZERO PUSH2 0x2771 JUMPI PUSH2 0x2770 PUSH2 0x271A JUMP JUMPDEST JUMPDEST DUP1 PUSH1 0x40 MSTORE POP POP POP JUMP JUMPDEST PUSH1 0x0 PUSH2 0x2784 PUSH2 0x25A6 JUMP JUMPDEST SWAP1 POP PUSH2 0x2790 DUP3 DUP3 PUSH2 0x2749 JUMP JUMPDEST SWAP2 SWAP1 POP JUMP JUMPDEST PUSH1 0x0 PUSH8 0xFFFFFFFFFFFFFFFF DUP3 GT ISZERO PUSH2 0x27B0 JUMPI PUSH2 0x27AF PUSH2 0x271A JUMP JUMPDEST JUMPDEST PUSH1 0x20 DUP3 MUL SWAP1 POP PUSH1 0x20 DUP2 ADD SWAP1 POP SWAP2 SWAP1 POP JUMP JUMPDEST PUSH1 0x0 DUP1 REVERT JUMPDEST PUSH1 0x0 PUSH2 0x27D9 PUSH2 0x27D4 DUP5 PUSH2 0x2795 JUMP JUMPDEST PUSH2 0x277A JUMP JUMPDEST SWAP1 POP DUP1 DUP4 DUP3 MSTORE PUSH1 0x20 DUP3 ADD SWAP1 POP PUSH1 0x20 DUP5 MUL DUP4 ADD DUP6 DUP2 GT ISZERO PUSH2 0x27FC JUMPI PUSH2 0x27FB PUSH2 0x27C1 JUMP JUMPDEST JUMPDEST DUP4 JUMPDEST DUP2 DUP2 LT ISZERO PUSH2 0x2825 JUMPI DUP1 PUSH2 0x2811 DUP9 DUP3 PUSH2 0x25D1 JUMP JUMPDEST DUP5 MSTORE PUSH1 0x20 DUP5 ADD SWAP4 POP POP PUSH1 0x20 DUP2 ADD SWAP1 POP PUSH2 0x27FE JUMP JUMPDEST POP POP POP SWAP4 SWAP3 POP POP POP JUMP JUMPDEST PUSH1 0x0 DUP3 PUSH1 0x1F DUP4 ADD SLT PUSH2 0x2844 JUMPI PUSH2 0x2843 PUSH2 0x2704 JUMP JUMPDEST JUMPDEST DUP2 CALLDATALOAD PUSH2 0x2854 DUP5 DUP3 PUSH1 0x20 DUP7 ADD PUSH2 0x27C6 JUMP JUMPDEST SWAP2 POP POP SWAP3 SWAP2 POP POP JUMP JUMPDEST PUSH1 0x0 DUP2 SWAP1 POP SWAP2 SWAP1 POP JUMP JUMPDEST PUSH2 0x2870 DUP2 PUSH2 0x285D JUMP JUMPDEST DUP2 EQ PUSH2 0x287B JUMPI PUSH1 0x0 DUP1 REVERT JUMPDEST POP JUMP JUMPDEST PUSH1 0x0 DUP2 CALLDATALOAD SWAP1 POP PUSH2 0x288D DUP2 PUSH2 0x2867 JUMP JUMPDEST SWAP3 SWAP2 POP POP JUMP JUMPDEST PUSH1 0x0 DUP1 PUSH1 0x0 DUP1 PUSH1 0x0 DUP1 PUSH1 0x0 DUP1 PUSH1 0x0 PUSH2 0x120 DUP11 DUP13 SUB SLT ISZERO PUSH2 0x28B6 JUMPI PUSH2 0x28B5 PUSH2 0x25B0 JUMP JUMPDEST JUMPDEST PUSH1 0x0 DUP11 ADD CALLDATALOAD PUSH8 0xFFFFFFFFFFFFFFFF DUP2 GT ISZERO PUSH2 0x28D4 JUMPI PUSH2 0x28D3 PUSH2 0x25B5 JUMP JUMPDEST JUMPDEST PUSH2 0x28E0 DUP13 DUP3 DUP14 ADD PUSH2 0x282F JUMP JUMPDEST SWAP10 POP POP PUSH1 0x20 PUSH2 0x28F1 DUP13 DUP3 DUP14 ADD PUSH2 0x25D1 JUMP JUMPDEST SWAP9 POP POP PUSH1 0x40 PUSH2 0x2902 DUP13 DUP3 DUP14 ADD PUSH2 0x2662 JUMP JUMPDEST SWAP8 POP POP PUSH1 0x60 PUSH2 0x2913 DUP13 DUP3 DUP14 ADD PUSH2 0x2662 JUMP JUMPDEST SWAP7 POP POP PUSH1 0x80 PUSH2 0x2924 DUP13 DUP3 DUP14 ADD PUSH2 0x2636 JUMP JUMPDEST SWAP6 POP POP PUSH1 0xA0 PUSH2 0x2935 DUP13 DUP3 DUP14 ADD PUSH2 0x2662 JUMP JUMPDEST SWAP5 POP POP PUSH1 0xC0 PUSH2 0x2946 DUP13 DUP3 DUP14 ADD PUSH2 0x2662 JUMP JUMPDEST SWAP4 POP POP PUSH1 0xE0 PUSH2 0x2957 DUP13 DUP3 DUP14 ADD PUSH2 0x287E JUMP JUMPDEST SWAP3 POP POP PUSH2 0x100 PUSH2 0x2969 DUP13 DUP3 DUP14 ADD PUSH2 0x25D1 JUMP JUMPDEST SWAP2 POP POP SWAP3 SWAP6 SWAP9 POP SWAP3 SWAP6 SWAP9 POP SWAP3 SWAP6 SWAP9 JUMP JUMPDEST PUSH2 0x2982 DUP2 PUSH2 0x285D JUMP JUMPDEST DUP3 MSTORE POP POP JUMP JUMPDEST PUSH1 0x0 PUSH1 0x20 DUP3 ADD SWAP1 POP PUSH2 0x299D PUSH1 0x0 DUP4 ADD DUP5 PUSH2 0x2979 JUMP JUMPDEST SWAP3 SWAP2 POP POP JUMP JUMPDEST PUSH1 0x0 DUP2 MLOAD SWAP1 POP SWAP2 SWAP1 POP JUMP JUMPDEST PUSH1 0x0 DUP3 DUP3 MSTORE PUSH1 0x20 DUP3 ADD SWAP1 POP SWAP3 SWAP2 POP POP JUMP JUMPDEST PUSH1 0x0 DUP2 SWAP1 POP PUSH1 0x20 DUP3 ADD SWAP1 POP SWAP2 SWAP1 POP JUMP JUMPDEST PUSH2 0x29D8 DUP2 PUSH2 0x256A JUMP JUMPDEST DUP3 MSTORE POP POP JUMP JUMPDEST PUSH2 0x29E7 DUP2 PUSH2 0x2613 JUMP JUMPDEST DUP3 MSTORE POP POP JUMP JUMPDEST PUSH1 0x60 DUP3 ADD PUSH1 0x0 DUP3 ADD MLOAD PUSH2 0x2A03 PUSH1 0x0 DUP6 ADD DUP3 PUSH2 0x29CF JUMP JUMPDEST POP PUSH1 0x20 DUP3 ADD MLOAD PUSH2 0x2A16 PUSH1 0x20 DUP6 ADD DUP3 PUSH2 0x29CF JUMP JUMPDEST POP PUSH1 0x40 DUP3 ADD MLOAD PUSH2 0x2A29 PUSH1 0x40 DUP6 ADD DUP3 PUSH2 0x29DE JUMP JUMPDEST POP POP POP POP JUMP JUMPDEST PUSH1 0x0 PUSH2 0x2A3B DUP4 DUP4 PUSH2 0x29ED JUMP JUMPDEST PUSH1 0x60 DUP4 ADD SWAP1 POP SWAP3 SWAP2 POP POP JUMP JUMPDEST PUSH1 0x0 PUSH1 0x20 DUP3 ADD SWAP1 POP SWAP2 SWAP1 POP JUMP JUMPDEST PUSH1 0x0 PUSH2 0x2A5F DUP3 PUSH2 0x29A3 JUMP JUMPDEST PUSH2 0x2A69 DUP2 DUP6 PUSH2 0x29AE JUMP JUMPDEST SWAP4 POP PUSH2 0x2A74 DUP4 PUSH2 0x29BF JUMP JUMPDEST DUP1 PUSH1 0x0 JUMPDEST DUP4 DUP2 LT ISZERO PUSH2 0x2AA5 JUMPI DUP2 MLOAD PUSH2 0x2A8C DUP9 DUP3 PUSH2 0x2A2F JUMP JUMPDEST SWAP8 POP PUSH2 0x2A97 DUP4 PUSH2 0x2A47 JUMP JUMPDEST SWAP3 POP POP PUSH1 0x1 DUP2 ADD SWAP1 POP PUSH2 0x2A78 JUMP JUMPDEST POP DUP6 SWAP4 POP POP POP POP SWAP3 SWAP2 POP POP JUMP JUMPDEST PUSH1 0x0 PUSH1 0x20 DUP3 ADD SWAP1 POP DUP2 DUP2 SUB PUSH1 0x0 DUP4 ADD MSTORE PUSH2 0x2ACC DUP2 DUP5 PUSH2 0x2A54 JUMP JUMPDEST SWAP1 POP SWAP3 SWAP2 POP POP JUMP JUMPDEST PUSH1 0x0 DUP1 PUSH1 0x0 PUSH1 0x60 DUP5 DUP7 SUB SLT ISZERO PUSH2 0x2AED JUMPI PUSH2 0x2AEC PUSH2 0x25B0 JUMP JUMPDEST JUMPDEST PUSH1 0x0 PUSH2 0x2AFB DUP7 DUP3 DUP8 ADD PUSH2 0x25D1 JUMP JUMPDEST SWAP4 POP POP PUSH1 0x20 PUSH2 0x2B0C DUP7 DUP3 DUP8 ADD PUSH2 0x25D1 JUMP JUMPDEST SWAP3 POP POP PUSH1 0x40 PUSH2 0x2B1D DUP7 DUP3 DUP8 ADD PUSH2 0x2636 JUMP JUMPDEST SWAP2 POP POP SWAP3 POP SWAP3 POP SWAP3 JUMP JUMPDEST PUSH1 0x0 PUSH1 0xA0 DUP3 ADD SWAP1 POP PUSH2 0x2B3C PUSH1 0x0 DUP4 ADD DUP9 PUSH2 0x2520 JUMP JUMPDEST PUSH2 0x2B49 PUSH1 0x20 DUP4 ADD DUP8 PUSH2 0x2520 JUMP JUMPDEST PUSH2 0x2B56 PUSH1 0x40 DUP4 ADD DUP7 PUSH2 0x2520 JUMP JUMPDEST PUSH2 0x2B63 PUSH1 0x60 DUP4 ADD DUP6 PUSH2 0x2520 JUMP JUMPDEST PUSH2 0x2B70 PUSH1 0x80 DUP4 ADD DUP5 PUSH2 0x2520 JUMP JUMPDEST SWAP7 SWAP6 POP POP POP POP POP POP JUMP JUMPDEST PUSH1 0x0 DUP1 PUSH1 0x0 DUP1 PUSH1 0x0 DUP1 PUSH1 0x0 DUP1 PUSH1 0x0 DUP1 PUSH1 0x0 PUSH2 0x160 DUP13 DUP15 SUB SLT ISZERO PUSH2 0x2BA0 JUMPI PUSH2 0x2B9F PUSH2 0x25B0 JUMP JUMPDEST JUMPDEST PUSH1 0x0 DUP13 ADD CALLDATALOAD PUSH8 0xFFFFFFFFFFFFFFFF DUP2 GT ISZERO PUSH2 0x2BBE JUMPI PUSH2 0x2BBD PUSH2 0x25B5 JUMP JUMPDEST JUMPDEST PUSH2 0x2BCA DUP15 DUP3 DUP16 ADD PUSH2 0x282F JUMP JUMPDEST SWAP12 POP POP PUSH1 0x20 PUSH2 0x2BDB DUP15 DUP3 DUP16 ADD PUSH2 0x25D1 JUMP JUMPDEST SWAP11 POP POP PUSH1 0x40 PUSH2 0x2BEC DUP15 DUP3 DUP16 ADD PUSH2 0x2662 JUMP JUMPDEST SWAP10 POP POP PUSH1 0x60 PUSH2 0x2BFD DUP15 DUP3 DUP16 ADD PUSH2 0x2662 JUMP JUMPDEST SWAP9 POP POP PUSH1 0x80 PUSH2 0x2C0E DUP15 DUP3 DUP16 ADD PUSH2 0x2636 JUMP JUMPDEST SWAP8 POP POP PUSH1 0xA0 PUSH2 0x2C1F DUP15 DUP3 DUP16 ADD PUSH2 0x25D1 JUMP JUMPDEST SWAP7 POP POP PUSH1 0xC0 PUSH2 0x2C30 DUP15 DUP3 DUP16 ADD PUSH2 0x2662 JUMP JUMPDEST SWAP6 POP POP PUSH1 0xE0 PUSH2 0x2C41 DUP15 DUP3 DUP16 ADD PUSH2 0x2662 JUMP JUMPDEST SWAP5 POP POP PUSH2 0x100 PUSH2 0x2C53 DUP15 DUP3 DUP16 ADD PUSH2 0x2662 JUMP JUMPDEST SWAP4 POP POP PUSH2 0x120 PUSH2 0x2C65 DUP15 DUP3 DUP16 ADD PUSH2 0x2636 JUMP JUMPDEST SWAP3 POP POP PUSH2 0x140 PUSH2 0x2C77 DUP15 DUP3 DUP16 ADD PUSH2 0x25D1 JUMP JUMPDEST SWAP2 POP POP SWAP3 SWAP6 SWAP9 SWAP12 POP SWAP3 SWAP6 SWAP9 SWAP12 SWAP1 SWAP4 SWAP7 SWAP10 POP JUMP JUMPDEST PUSH1 0x0 DUP1 PUSH1 0x0 DUP1 PUSH1 0x0 DUP1 PUSH1 0x0 DUP1 PUSH1 0x0 DUP1 PUSH2 0x140 DUP12 DUP14 SUB SLT ISZERO PUSH2 0x2CAE JUMPI PUSH2 0x2CAD PUSH2 0x25B0 JUMP JUMPDEST JUMPDEST PUSH1 0x0 DUP12 ADD CALLDATALOAD PUSH8 0xFFFFFFFFFFFFFFFF DUP2 GT ISZERO PUSH2 0x2CCC JUMPI PUSH2 0x2CCB PUSH2 0x25B5 JUMP JUMPDEST JUMPDEST PUSH2 0x2CD8 DUP14 DUP3 DUP15 ADD PUSH2 0x282F JUMP JUMPDEST SWAP11 POP POP PUSH1 0x20 PUSH2 0x2CE9 DUP14 DUP3 DUP15 ADD PUSH2 0x25D1 JUMP JUMPDEST SWAP10 POP POP PUSH1 0x40 PUSH2 0x2CFA DUP14 DUP3 DUP15 ADD PUSH2 0x2662 JUMP JUMPDEST SWAP9 POP POP PUSH1 0x60 PUSH2 0x2D0B DUP14 DUP3 DUP15 ADD PUSH2 0x2662 JUMP JUMPDEST SWAP8 POP POP PUSH1 0x80 PUSH2 0x2D1C DUP14 DUP3 DUP15 ADD PUSH2 0x2662 JUMP JUMPDEST SWAP7 POP POP PUSH1 0xA0 PUSH2 0x2D2D DUP14 DUP3 DUP15 ADD PUSH2 0x2636 JUMP JUMPDEST SWAP6 POP POP PUSH1 0xC0 PUSH2 0x2D3E DUP14 DUP3 DUP15 ADD PUSH2 0x2662 JUMP JUMPDEST SWAP5 POP POP PUSH1 0xE0 PUSH2 0x2D4F DUP14 DUP3 DUP15 ADD PUSH2 0x2662 JUMP JUMPDEST SWAP4 POP POP PUSH2 0x100 PUSH2 0x2D61 DUP14 DUP3 DUP15 ADD PUSH2 0x287E JUMP JUMPDEST SWAP3 POP POP PUSH2 0x120 PUSH2 0x2D73 DUP14 DUP3 DUP15 ADD PUSH2 0x25D1 JUMP JUMPDEST SWAP2 POP POP SWAP3 SWAP6 SWAP9 SWAP12 SWAP2 SWAP5 SWAP8 SWAP11 POP SWAP3 SWAP6 SWAP9 POP JUMP JUMPDEST PUSH1 0x0 PUSH1 0x20 DUP3 DUP5 SUB SLT ISZERO PUSH2 0x2D9B JUMPI PUSH2 0x2D9A PUSH2 0x25B0 JUMP JUMPDEST JUMPDEST PUSH1 0x0 PUSH2 0x2DA9 DUP5 DUP3 DUP6 ADD PUSH2 0x2662 JUMP JUMPDEST SWAP2 POP POP SWAP3 SWAP2 POP POP JUMP JUMPDEST PUSH1 0x0 DUP1 PUSH1 0x0 DUP1 PUSH1 0x0 DUP1 PUSH1 0x0 PUSH1 0xE0 DUP9 DUP11 SUB SLT ISZERO PUSH2 0x2DD1 JUMPI PUSH2 0x2DD0 PUSH2 0x25B0 JUMP JUMPDEST JUMPDEST PUSH1 0x0 PUSH2 0x2DDF DUP11 DUP3 DUP12 ADD PUSH2 0x25D1 JUMP JUMPDEST SWAP8 POP POP PUSH1 0x20 PUSH2 0x2DF0 DUP11 DUP3 DUP12 ADD PUSH2 0x25D1 JUMP JUMPDEST SWAP7 POP POP PUSH1 0x40 PUSH2 0x2E01 DUP11 DUP3 DUP12 ADD PUSH2 0x2636 JUMP JUMPDEST SWAP6 POP POP PUSH1 0x60 PUSH2 0x2E12 DUP11 DUP3 DUP12 ADD PUSH2 0x2662 JUMP JUMPDEST SWAP5 POP POP PUSH1 0x80 PUSH2 0x2E23 DUP11 DUP3 DUP12 ADD PUSH2 0x2662 JUMP JUMPDEST SWAP4 POP POP PUSH1 0xA0 PUSH2 0x2E34 DUP11 DUP3 DUP12 ADD PUSH2 0x2662 JUMP JUMPDEST SWAP3 POP POP PUSH1 0xC0 PUSH2 0x2E45 DUP11 DUP3 DUP12 ADD PUSH2 0x2662 JUMP JUMPDEST SWAP2 POP POP SWAP3 SWAP6 SWAP9 SWAP2 SWAP5 SWAP8 POP SWAP3 SWAP6 POP JUMP JUMPDEST PUSH1 0x0 DUP1 PUSH1 0x0 DUP1 PUSH1 0x80 DUP6 DUP8 SUB SLT ISZERO PUSH2 0x2E6E JUMPI PUSH2 0x2E6D PUSH2 0x25B0 JUMP JUMPDEST JUMPDEST PUSH1 0x0 PUSH2 0x2E7C DUP8 DUP3 DUP9 ADD PUSH2 0x25D1 JUMP JUMPDEST SWAP5 POP POP PUSH1 0x20 PUSH2 0x2E8D DUP8 DUP3 DUP9 ADD PUSH2 0x2662 JUMP JUMPDEST SWAP4 POP POP PUSH1 0x40 PUSH2 0x2E9E DUP8 DUP3 DUP9 ADD PUSH2 0x2662 JUMP JUMPDEST SWAP3 POP POP PUSH1 0x60 PUSH2 0x2EAF DUP8 DUP3 DUP9 ADD PUSH2 0x2636 JUMP JUMPDEST SWAP2 POP POP SWAP3 SWAP6 SWAP2 SWAP5 POP SWAP3 POP JUMP JUMPDEST PUSH2 0x2EC4 DUP2 PUSH2 0x2613 JUMP JUMPDEST DUP3 MSTORE POP POP JUMP JUMPDEST PUSH1 0x0 PUSH1 0x40 DUP3 ADD SWAP1 POP PUSH2 0x2EDF PUSH1 0x0 DUP4 ADD DUP6 PUSH2 0x2EBB JUMP JUMPDEST PUSH2 0x2EEC PUSH1 0x20 DUP4 ADD DUP5 PUSH2 0x2520 JUMP JUMPDEST SWAP4 SWAP3 POP POP POP JUMP JUMPDEST PUSH1 0x0 PUSH1 0x60 DUP3 ADD SWAP1 POP PUSH2 0x2F08 PUSH1 0x0 DUP4 ADD DUP7 PUSH2 0x257C JUMP JUMPDEST PUSH2 0x2F15 PUSH1 0x20 DUP4 ADD DUP6 PUSH2 0x257C JUMP JUMPDEST PUSH2 0x2F22 PUSH1 0x40 DUP4 ADD DUP5 PUSH2 0x2EBB JUMP JUMPDEST SWAP5 SWAP4 POP POP POP POP JUMP JUMPDEST PUSH1 0x0 DUP1 PUSH1 0x0 PUSH1 0x60 DUP5 DUP7 SUB SLT ISZERO PUSH2 0x2F43 JUMPI PUSH2 0x2F42 PUSH2 0x25B0 JUMP JUMPDEST JUMPDEST PUSH1 0x0 PUSH2 0x2F51 DUP7 DUP3 DUP8 ADD PUSH2 0x25D1 JUMP JUMPDEST SWAP4 POP POP PUSH1 0x20 DUP5 ADD CALLDATALOAD PUSH8 0xFFFFFFFFFFFFFFFF DUP2 GT ISZERO PUSH2 0x2F72 JUMPI PUSH2 0x2F71 PUSH2 0x25B5 JUMP JUMPDEST JUMPDEST PUSH2 0x2F7E DUP7 DUP3 DUP8 ADD PUSH2 0x282F JUMP JUMPDEST SWAP3 POP POP PUSH1 0x40 PUSH2 0x2F8F DUP7 DUP3 DUP8 ADD PUSH2 0x2636 JUMP JUMPDEST SWAP2 POP POP SWAP3 POP SWAP3 POP SWAP3 JUMP JUMPDEST PUSH1 0x0 PUSH1 0x20 DUP3 ADD SWAP1 POP PUSH2 0x2FAE PUSH1 0x0 DUP4 ADD DUP5 PUSH2 0x2EBB JUMP JUMPDEST SWAP3 SWAP2 POP POP JUMP JUMPDEST PUSH32 0x4E487B7100000000000000000000000000000000000000000000000000000000 PUSH1 0x0 MSTORE PUSH1 0x32 PUSH1 0x4 MSTORE PUSH1 0x24 PUSH1 0x0 REVERT JUMPDEST PUSH32 0x4E487B7100000000000000000000000000000000000000000000000000000000 PUSH1 0x0 MSTORE PUSH1 0x11 PUSH1 0x4 MSTORE PUSH1 0x24 PUSH1 0x0 REVERT JUMPDEST PUSH1 0x0 PUSH2 0x301D DUP3 PUSH2 0x2516 JUMP JUMPDEST SWAP2 POP PUSH2 0x3028 DUP4 PUSH2 0x2516 JUMP JUMPDEST SWAP3 POP DUP3 DUP3 ADD SWAP1 POP DUP1 DUP3 GT ISZERO PUSH2 0x3040 JUMPI PUSH2 0x303F PUSH2 0x2FE3 JUMP JUMPDEST JUMPDEST SWAP3 SWAP2 POP POP JUMP JUMPDEST PUSH1 0x0 PUSH2 0x3051 DUP3 PUSH2 0x2516 JUMP JUMPDEST SWAP2 POP PUSH32 0xFFFFFFFFFFFFFFFFFFFFFFFFFFFFFFFFFFFFFFFFFFFFFFFFFFFFFFFFFFFFFFFF DUP3 SUB PUSH2 0x3083 JUMPI PUSH2 0x3082 PUSH2 0x2FE3 JUMP JUMPDEST JUMPDEST PUSH1 0x1 DUP3 ADD SWAP1 POP SWAP2 SWAP1 POP JUMP JUMPDEST PUSH1 0x0 DUP2 MLOAD SWAP1 POP PUSH2 0x309D DUP2 PUSH2 0x264B JUMP JUMPDEST SWAP3 SWAP2 POP POP JUMP JUMPDEST PUSH1 0x0 PUSH1 0x20 DUP3 DUP5 SUB SLT ISZERO PUSH2 0x30B9 JUMPI PUSH2 0x30B8 PUSH2 0x25B0 JUMP JUMPDEST JUMPDEST PUSH1 0x0 PUSH2 0x30C7 DUP5 DUP3 DUP6 ADD PUSH2 0x308E JUMP JUMPDEST SWAP2 POP POP SWAP3 SWAP2 POP POP JUMP JUMPDEST PUSH1 0x0 PUSH1 0xA0 DUP3 ADD SWAP1 POP PUSH2 0x30E5 PUSH1 0x0 DUP4 ADD DUP9 PUSH2 0x257C JUMP JUMPDEST PUSH2 0x30F2 PUSH1 0x20 DUP4 ADD DUP8 PUSH2 0x2520 JUMP JUMPDEST PUSH2 0x30FF PUSH1 0x40 DUP4 ADD DUP7 PUSH2 0x2520 JUMP JUMPDEST PUSH2 0x310C PUSH1 0x60 DUP4 ADD DUP6 PUSH2 0x2EBB JUMP JUMPDEST PUSH2 0x3119 PUSH1 0x80 DUP4 ADD DUP5 PUSH2 0x2520 JUMP JUMPDEST SWAP7 SWAP6 POP POP POP POP POP POP JUMP JUMPDEST PUSH1 0x0 DUP2 MLOAD SWAP1 POP PUSH2 0x3132 DUP2 PUSH2 0x261F JUMP JUMPDEST SWAP3 SWAP2 POP POP JUMP JUMPDEST PUSH1 0x0 DUP1 PUSH1 0x40 DUP4 DUP6 SUB SLT ISZERO PUSH2 0x314F JUMPI PUSH2 0x314E PUSH2 0x25B0 JUMP JUMPDEST JUMPDEST PUSH1 0x0 PUSH2 0x315D DUP6 DUP3 DUP7 ADD PUSH2 0x3123 JUMP JUMPDEST SWAP3 POP POP PUSH1 0x20 PUSH2 0x316E DUP6 DUP3 DUP7 ADD PUSH2 0x308E JUMP JUMPDEST SWAP2 POP POP SWAP3 POP SWAP3 SWAP1 POP JUMP JUMPDEST PUSH1 0x0 DUP3 DUP3 MSTORE PUSH1 0x20 DUP3 ADD SWAP1 POP SWAP3 SWAP2 POP POP JUMP JUMPDEST PUSH32 0x6F6E6C7920746865206F776E65722063616E2063616C6C20746869732066756E PUSH1 0x0 DUP3 ADD MSTORE PUSH32 0x6374696F6E000000000000000000000000000000000000000000000000000000 PUSH1 0x20 DUP3 ADD MSTORE POP JUMP JUMPDEST PUSH1 0x0 PUSH2 0x31E5 PUSH1 0x25 DUP4 PUSH2 0x3178 JUMP JUMPDEST SWAP2 POP PUSH2 0x31F0 DUP3 PUSH2 0x3189 JUMP JUMPDEST PUSH1 0x40 DUP3 ADD SWAP1 POP SWAP2 SWAP1 POP JUMP JUMPDEST PUSH1 0x0 PUSH1 0x20 DUP3 ADD SWAP1 POP DUP2 DUP2 SUB PUSH1 0x0 DUP4 ADD MSTORE PUSH2 0x3214 DUP2 PUSH2 0x31D8 JUMP JUMPDEST SWAP1 POP SWAP2 SWAP1 POP JUMP JUMPDEST PUSH1 0x0 DUP2 MLOAD SWAP1 POP SWAP2 SWAP1 POP JUMP JUMPDEST PUSH1 0x0 DUP3 DUP3 MSTORE PUSH1 0x20 DUP3 ADD SWAP1 POP SWAP3 SWAP2 POP POP JUMP JUMPDEST PUSH1 0x0 DUP2 SWAP1 POP PUSH1 0x20 DUP3 ADD SWAP1 POP SWAP2 SWAP1 POP JUMP JUMPDEST PUSH1 0x0 PUSH2 0x3253 DUP4 DUP4 PUSH2 0x29CF JUMP JUMPDEST PUSH1 0x20 DUP4 ADD SWAP1 POP SWAP3 SWAP2 POP POP JUMP JUMPDEST PUSH1 0x0 PUSH1 0x20 DUP3 ADD SWAP1 POP SWAP2 SWAP1 POP JUMP JUMPDEST PUSH1 0x0 PUSH2 0x3277 DUP3 PUSH2 0x321B JUMP JUMPDEST PUSH2 0x3281 DUP2 DUP6 PUSH2 0x3226 JUMP JUMPDEST SWAP4 POP PUSH2 0x328C DUP4 PUSH2 0x3237 JUMP JUMPDEST DUP1 PUSH1 0x0 JUMPDEST DUP4 DUP2 LT ISZERO PUSH2 0x32BD JUMPI DUP2 MLOAD PUSH2 0x32A4 DUP9 DUP3 PUSH2 0x3247 JUMP JUMPDEST SWAP8 POP PUSH2 0x32AF DUP4 PUSH2 0x325F JUMP JUMPDEST SWAP3 POP POP PUSH1 0x1 DUP2 ADD SWAP1 POP PUSH2 0x3290 JUMP JUMPDEST POP DUP6 SWAP4 POP POP POP POP SWAP3 SWAP2 POP POP JUMP JUMPDEST PUSH1 0x0 PUSH2 0x120 DUP3 ADD SWAP1 POP DUP2 DUP2 SUB PUSH1 0x0 DUP4 ADD MSTORE PUSH2 0x32E5 DUP2 DUP13 PUSH2 0x326C JUMP JUMPDEST SWAP1 POP PUSH2 0x32F4 PUSH1 0x20 DUP4 ADD DUP12 PUSH2 0x257C JUMP JUMPDEST PUSH2 0x3301 PUSH1 0x40 DUP4 ADD DUP11 PUSH2 0x2520 JUMP JUMPDEST PUSH2 0x330E PUSH1 0x60 DUP4 ADD DUP10 PUSH2 0x2520 JUMP JUMPDEST PUSH2 0x331B PUSH1 0x80 DUP4 ADD DUP9 PUSH2 0x2EBB JUMP JUMPDEST PUSH2 0x3328 PUSH1 0xA0 DUP4 ADD DUP8 PUSH2 0x2520 JUMP JUMPDEST PUSH2 0x3335 PUSH1 0xC0 DUP4 ADD DUP7 PUSH2 0x2520 JUMP JUMPDEST PUSH2 0x3342 PUSH1 0xE0 DUP4 ADD DUP6 PUSH2 0x2979 JUMP JUMPDEST PUSH2 0x3350 PUSH2 0x100 DUP4 ADD DUP5 PUSH2 0x257C JUMP JUMPDEST SWAP11 SWAP10 POP POP POP POP POP POP POP POP POP POP JUMP JUMPDEST PUSH1 0x0 DUP2 MLOAD SWAP1 POP PUSH2 0x336D DUP2 PUSH2 0x2867 JUMP JUMPDEST SWAP3 SWAP2 POP POP JUMP JUMPDEST PUSH1 0x0 PUSH1 0x20 DUP3 DUP5 SUB SLT ISZERO PUSH2 0x3389 JUMPI PUSH2 0x3388 PUSH2 0x25B0 JUMP JUMPDEST JUMPDEST PUSH1 0x0 PUSH2 0x3397 DUP5 DUP3 DUP6 ADD PUSH2 0x335E JUMP JUMPDEST SWAP2 POP POP SWAP3 SWAP2 POP POP JUMP JUMPDEST PUSH1 0x0 PUSH1 0x80 DUP3 ADD SWAP1 POP PUSH2 0x33B5 PUSH1 0x0 DUP4 ADD DUP8 PUSH2 0x257C JUMP JUMPDEST PUSH2 0x33C2 PUSH1 0x20 DUP4 ADD DUP7 PUSH2 0x257C JUMP JUMPDEST PUSH2 0x33CF PUSH1 0x40 DUP4 ADD DUP6 PUSH2 0x257C JUMP JUMPDEST PUSH2 0x33DC PUSH1 0x60 DUP4 ADD DUP5 PUSH2 0x2EBB JUMP JUMPDEST SWAP6 SWAP5 POP POP POP POP POP JUMP JUMPDEST PUSH1 0x0 DUP1 PUSH1 0x0 DUP1 PUSH1 0x0 DUP1 PUSH1 0x0 DUP1 PUSH2 0x100 DUP10 DUP12 SUB SLT ISZERO PUSH2 0x3406 JUMPI PUSH2 0x3405 PUSH2 0x25B0 JUMP JUMPDEST JUMPDEST PUSH1 0x0 PUSH2 0x3414 DUP12 DUP3 DUP13 ADD PUSH2 0x308E JUMP JUMPDEST SWAP9 POP POP PUSH1 0x20 PUSH2 0x3425 DUP12 DUP3 DUP13 ADD PUSH2 0x308E JUMP JUMPDEST SWAP8 POP POP PUSH1 0x40 PUSH2 0x3436 DUP12 DUP3 DUP13 ADD PUSH2 0x308E JUMP JUMPDEST SWAP7 POP POP PUSH1 0x60 PUSH2 0x3447 DUP12 DUP3 DUP13 ADD PUSH2 0x308E JUMP JUMPDEST SWAP6 POP POP PUSH1 0x80 PUSH2 0x3458 DUP12 DUP3 DUP13 ADD PUSH2 0x308E JUMP JUMPDEST SWAP5 POP POP PUSH1 0xA0 PUSH2 0x3469 DUP12 DUP3 DUP13 ADD PUSH2 0x308E JUMP JUMPDEST SWAP4 POP POP PUSH1 0xC0 PUSH2 0x347A DUP12 DUP3 DUP13 ADD PUSH2 0x3123 JUMP JUMPDEST SWAP3 POP POP PUSH1 0xE0 PUSH2 0x348B DUP12 DUP3 DUP13 ADD PUSH2 0x308E JUMP JUMPDEST SWAP2 POP POP SWAP3 SWAP6 SWAP9 POP SWAP3 SWAP6 SWAP9 SWAP1 SWAP4 SWAP7 POP JUMP JUMPDEST PUSH32 0x6F6E6C7920746865206F776E6572206F7220676F762063616E2063616C6C2074 PUSH1 0x0 DUP3 ADD MSTORE PUSH32 0x6869732066756E6374696F6E0000000000000000000000000000000000000000 PUSH1 0x20 DUP3 ADD MSTORE POP JUMP JUMPDEST PUSH1 0x0 PUSH2 0x34F7 PUSH1 0x2C DUP4 PUSH2 0x3178 JUMP JUMPDEST SWAP2 POP PUSH2 0x3502 DUP3 PUSH2 0x349B JUMP JUMPDEST PUSH1 0x40 DUP3 ADD SWAP1 POP SWAP2 SWAP1 POP JUMP JUMPDEST PUSH1 0x0 PUSH1 0x20 DUP3 ADD SWAP1 POP DUP2 DUP2 SUB PUSH1 0x0 DUP4 ADD MSTORE PUSH2 0x3526 DUP2 PUSH2 0x34EA JUMP JUMPDEST SWAP1 POP SWAP2 SWAP1 POP JUMP JUMPDEST PUSH32 0x6665650000000000000000000000000000000000000000000000000000000000 PUSH1 0x0 DUP3 ADD MSTORE POP JUMP JUMPDEST PUSH1 0x0 PUSH2 0x3563 PUSH1 0x3 DUP4 PUSH2 0x3178 JUMP JUMPDEST SWAP2 POP PUSH2 0x356E DUP3 PUSH2 0x352D JUMP JUMPDEST PUSH1 0x20 DUP3 ADD SWAP1 POP SWAP2 SWAP1 POP JUMP JUMPDEST PUSH1 0x0 PUSH1 0x20 DUP3 ADD SWAP1 POP DUP2 DUP2 SUB PUSH1 0x0 DUP4 ADD MSTORE PUSH2 0x3592 DUP2 PUSH2 0x3556 JUMP JUMPDEST SWAP1 POP SWAP2 SWAP1 POP JUMP JUMPDEST PUSH32 0x6C6F616E20616D6F756E7420646F6573206E6F74207065726D6974206C697175 PUSH1 0x0 DUP3 ADD MSTORE PUSH32 0x69646174696F6E00000000000000000000000000000000000000000000000000 PUSH1 0x20 DUP3 ADD MSTORE POP JUMP JUMPDEST PUSH1 0x0 PUSH2 0x35F5 PUSH1 0x27 DUP4 PUSH2 0x3178 JUMP JUMPDEST SWAP2 POP PUSH2 0x3600 DUP3 PUSH2 0x3599 JUMP JUMPDEST PUSH1 0x40 DUP3 ADD SWAP1 POP SWAP2 SWAP1 POP JUMP JUMPDEST PUSH1 0x0 PUSH1 0x20 DUP3 ADD SWAP1 POP DUP2 DUP2 SUB PUSH1 0x0 DUP4 ADD MSTORE PUSH2 0x3624 DUP2 PUSH2 0x35E8 JUMP JUMPDEST SWAP1 POP SWAP2 SWAP1 POP JUMP JUMPDEST PUSH1 0x0 PUSH2 0x160 DUP3 ADD SWAP1 POP DUP2 DUP2 SUB PUSH1 0x0 DUP4 ADD MSTORE PUSH2 0x3646 DUP2 DUP15 PUSH2 0x326C JUMP JUMPDEST SWAP1 POP PUSH2 0x3655 PUSH1 0x20 DUP4 ADD DUP14 PUSH2 0x257C JUMP JUMPDEST PUSH2 0x3662 PUSH1 0x40 DUP4 ADD DUP13 PUSH2 0x2520 JUMP JUMPDEST PUSH2 0x366F PUSH1 0x60 DUP4 ADD DUP12 PUSH2 0x2520 JUMP JUMPDEST PUSH2 0x367C PUSH1 0x80 DUP4 ADD DUP11 PUSH2 0x2EBB JUMP JUMPDEST PUSH2 0x3689 PUSH1 0xA0 DUP4 ADD DUP10 PUSH2 0x257C JUMP JUMPDEST PUSH2 0x3696 PUSH1 0xC0 DUP4 ADD DUP9 PUSH2 0x2520 JUMP JUMPDEST PUSH2 0x36A3 PUSH1 0xE0 DUP4 ADD DUP8 PUSH2 0x2520 JUMP JUMPDEST PUSH2 0x36B1 PUSH2 0x100 DUP4 ADD DUP7 PUSH2 0x2520 JUMP JUMPDEST PUSH2 0x36BF PUSH2 0x120 DUP4 ADD DUP6 PUSH2 0x2EBB JUMP JUMPDEST PUSH2 0x36CD PUSH2 0x140 DUP4 ADD DUP5 PUSH2 0x257C JUMP JUMPDEST SWAP13 SWAP12 POP POP POP POP POP POP POP POP POP POP POP POP JUMP JUMPDEST PUSH1 0x0 PUSH1 0x60 DUP3 ADD SWAP1 POP PUSH2 0x36F2 PUSH1 0x0 DUP4 ADD DUP7 PUSH2 0x257C JUMP JUMPDEST PUSH2 0x36FF PUSH1 0x20 DUP4 ADD DUP6 PUSH2 0x257C JUMP JUMPDEST PUSH2 0x370C PUSH1 0x40 DUP4 ADD DUP5 PUSH2 0x2520 JUMP JUMPDEST SWAP5 SWAP4 POP POP POP POP JUMP JUMPDEST PUSH1 0x0 PUSH1 0x20 DUP3 DUP5 SUB SLT ISZERO PUSH2 0x372A JUMPI PUSH2 0x3729 PUSH2 0x25B0 JUMP JUMPDEST JUMPDEST PUSH1 0x0 PUSH2 0x3738 DUP5 DUP3 DUP6 ADD PUSH2 0x3123 JUMP JUMPDEST SWAP2 POP POP SWAP3 SWAP2 POP POP JUMP JUMPDEST PUSH1 0x0 PUSH1 0x40 DUP3 ADD SWAP1 POP PUSH2 0x3756 PUSH1 0x0 DUP4 ADD DUP6 PUSH2 0x257C JUMP JUMPDEST PUSH2 0x3763 PUSH1 0x20 DUP4 ADD DUP5 PUSH2 0x2520 JUMP JUMPDEST SWAP4 SWAP3 POP POP POP JUMP JUMPDEST PUSH1 0x0 PUSH2 0x140 DUP3 ADD SWAP1 POP DUP2 DUP2 SUB PUSH1 0x0 DUP4 ADD MSTORE PUSH2 0x3785 DUP2 DUP14 PUSH2 0x326C JUMP JUMPDEST SWAP1 POP PUSH2 0x3794 PUSH1 0x20 DUP4 ADD DUP13 PUSH2 0x257C JUMP JUMPDEST PUSH2 0x37A1 PUSH1 0x40 DUP4 ADD DUP12 PUSH2 0x2520 JUMP JUMPDEST PUSH2 0x37AE PUSH1 0x60 DUP4 ADD DUP11 PUSH2 0x2520 JUMP JUMPDEST PUSH2 0x37BB PUSH1 0x80 DUP4 ADD DUP10 PUSH2 0x2520 JUMP JUMPDEST PUSH2 0x37C8 PUSH1 0xA0 DUP4 ADD DUP9 PUSH2 0x2EBB JUMP JUMPDEST PUSH2 0x37D5 PUSH1 0xC0 DUP4 ADD DUP8 PUSH2 0x2520 JUMP JUMPDEST PUSH2 0x37E2 PUSH1 0xE0 DUP4 ADD DUP7 PUSH2 0x2520 JUMP JUMPDEST PUSH2 0x37F0 PUSH2 0x100 DUP4 ADD DUP6 PUSH2 0x2979 JUMP JUMPDEST PUSH2 0x37FE PUSH2 0x120 DUP4 ADD DUP5 PUSH2 0x257C JUMP JUMPDEST SWAP12 SWAP11 POP POP POP POP POP POP POP POP POP POP POP JUMP JUMPDEST PUSH1 0x0 PUSH1 0x60 DUP3 ADD SWAP1 POP PUSH2 0x3822 PUSH1 0x0 DUP4 ADD DUP7 PUSH2 0x257C JUMP JUMPDEST PUSH2 0x382F PUSH1 0x20 DUP4 ADD DUP6 PUSH2 0x2520 JUMP JUMPDEST PUSH2 0x383C PUSH1 0x40 DUP4 ADD DUP5 PUSH2 0x2520 JUMP JUMPDEST SWAP5 SWAP4 POP POP POP POP JUMP JUMPDEST PUSH32 0x617665726765207072696365206F6620706F736974696F6E2068617320746F20 PUSH1 0x0 DUP3 ADD MSTORE PUSH32 0x62652067726561746572207468616E2030000000000000000000000000000000 PUSH1 0x20 DUP3 ADD MSTORE POP JUMP JUMPDEST PUSH1 0x0 PUSH2 0x38A0 PUSH1 0x31 DUP4 PUSH2 0x3178 JUMP JUMPDEST SWAP2 POP PUSH2 0x38AB DUP3 PUSH2 0x3844 JUMP JUMPDEST PUSH1 0x40 DUP3 ADD SWAP1 POP SWAP2 SWAP1 POP JUMP JUMPDEST PUSH1 0x0 PUSH1 0x20 DUP3 ADD SWAP1 POP DUP2 DUP2 SUB PUSH1 0x0 DUP4 ADD MSTORE PUSH2 0x38CF DUP2 PUSH2 0x3893 JUMP JUMPDEST SWAP1 POP SWAP2 SWAP1 POP JUMP JUMPDEST PUSH1 0x0 DUP2 PUSH1 0x60 SHL SWAP1 POP SWAP2 SWAP1 POP JUMP JUMPDEST PUSH1 0x0 PUSH2 0x38EE DUP3 PUSH2 0x38D6 JUMP JUMPDEST SWAP1 POP SWAP2 SWAP1 POP JUMP JUMPDEST PUSH1 0x0 PUSH2 0x3900 DUP3 PUSH2 0x38E3 JUMP JUMPDEST SWAP1 POP SWAP2 SWAP1 POP JUMP JUMPDEST PUSH2 0x3918 PUSH2 0x3913 DUP3 PUSH2 0x256A JUMP JUMPDEST PUSH2 0x38F5 JUMP JUMPDEST DUP3 MSTORE POP POP JUMP JUMPDEST PUSH1 0x0 DUP2 PUSH1 0xF8 SHL SWAP1 POP SWAP2 SWAP1 POP JUMP JUMPDEST PUSH1 0x0 PUSH2 0x3936 DUP3 PUSH2 0x391E JUMP JUMPDEST SWAP1 POP SWAP2 SWAP1 POP JUMP JUMPDEST PUSH1 0x0 PUSH2 0x3948 DUP3 PUSH2 0x392B JUMP JUMPDEST SWAP1 POP SWAP2 SWAP1 POP JUMP JUMPDEST PUSH2 0x3960 PUSH2 0x395B DUP3 PUSH2 0x2613 JUMP JUMPDEST PUSH2 0x393D JUMP JUMPDEST DUP3 MSTORE POP POP JUMP JUMPDEST PUSH1 0x0 PUSH2 0x3972 DUP3 DUP7 PUSH2 0x3907 JUMP JUMPDEST PUSH1 0x14 DUP3 ADD SWAP2 POP PUSH2 0x3982 DUP3 DUP6 PUSH2 0x3907 JUMP JUMPDEST PUSH1 0x14 DUP3 ADD SWAP2 POP PUSH2 0x3992 DUP3 DUP5 PUSH2 0x394F JUMP JUMPDEST PUSH1 0x1 DUP3 ADD SWAP2 POP DUP2 SWAP1 POP SWAP5 SWAP4 POP POP POP POP JUMP JUMPDEST PUSH32 0x6F6E6C7920676F762063616E2063616C6C20746869732066756E6374696F6E00 PUSH1 0x0 DUP3 ADD MSTORE POP JUMP JUMPDEST PUSH1 0x0 PUSH2 0x39D9 PUSH1 0x1F DUP4 PUSH2 0x3178 JUMP JUMPDEST SWAP2 POP PUSH2 0x39E4 DUP3 PUSH2 0x39A3 JUMP JUMPDEST PUSH1 0x20 DUP3 ADD SWAP1 POP SWAP2 SWAP1 POP JUMP JUMPDEST PUSH1 0x0 PUSH1 0x20 DUP3 ADD SWAP1 POP DUP2 DUP2 SUB PUSH1 0x0 DUP4 ADD MSTORE PUSH2 0x3A08 DUP2 PUSH2 0x39CC JUMP JUMPDEST SWAP1 POP SWAP2 SWAP1 POP JUMP JUMPDEST PUSH1 0x0 PUSH2 0x3A1A DUP3 PUSH2 0x2516 JUMP JUMPDEST SWAP2 POP PUSH2 0x3A25 DUP4 PUSH2 0x2516 JUMP JUMPDEST SWAP3 POP DUP3 DUP3 MUL PUSH2 0x3A33 DUP2 PUSH2 0x2516 JUMP JUMPDEST SWAP2 POP DUP3 DUP3 DIV DUP5 EQ DUP4 ISZERO OR PUSH2 0x3A4A JUMPI PUSH2 0x3A49 PUSH2 0x2FE3 JUMP JUMPDEST JUMPDEST POP SWAP3 SWAP2 POP POP JUMP JUMPDEST PUSH32 0x4E487B7100000000000000000000000000000000000000000000000000000000 PUSH1 0x0 MSTORE PUSH1 0x12 PUSH1 0x4 MSTORE PUSH1 0x24 PUSH1 0x0 REVERT JUMPDEST PUSH1 0x0 PUSH2 0x3A8B DUP3 PUSH2 0x2516 JUMP JUMPDEST SWAP2 POP PUSH2 0x3A96 DUP4 PUSH2 0x2516 JUMP JUMPDEST SWAP3 POP DUP3 PUSH2 0x3AA6 JUMPI PUSH2 0x3AA5 PUSH2 0x3A51 JUMP JUMPDEST JUMPDEST DUP3 DUP3 DIV SWAP1 POP SWAP3 SWAP2 POP POP JUMP JUMPDEST PUSH32 0x536166654D6174683A206D756C7469706C69636174696F6E206F766572666C6F PUSH1 0x0 DUP3 ADD MSTORE PUSH32 0x7700000000000000000000000000000000000000000000000000000000000000 PUSH1 0x20 DUP3 ADD MSTORE POP JUMP JUMPDEST PUSH1 0x0 PUSH2 0x3B0D PUSH1 0x21 DUP4 PUSH2 0x3178 JUMP JUMPDEST SWAP2 POP PUSH2 0x3B18 DUP3 PUSH2 0x3AB1 JUMP JUMPDEST PUSH1 0x40 DUP3 ADD SWAP1 POP SWAP2 SWAP1 POP JUMP JUMPDEST PUSH1 0x0 PUSH1 0x20 DUP3 ADD SWAP1 POP DUP2 DUP2 SUB PUSH1 0x0 DUP4 ADD MSTORE PUSH2 0x3B3C DUP2 PUSH2 0x3B00 JUMP JUMPDEST SWAP1 POP SWAP2 SWAP1 POP JUMP JUMPDEST PUSH32 0x536166654D6174683A206164646974696F6E206F766572666C6F770000000000 PUSH1 0x0 DUP3 ADD MSTORE POP JUMP JUMPDEST PUSH1 0x0 PUSH2 0x3B79 PUSH1 0x1B DUP4 PUSH2 0x3178 JUMP JUMPDEST SWAP2 POP PUSH2 0x3B84 DUP3 PUSH2 0x3B43 JUMP JUMPDEST PUSH1 0x20 DUP3 ADD SWAP1 POP SWAP2 SWAP1 POP JUMP JUMPDEST PUSH1 0x0 PUSH1 0x20 DUP3 ADD SWAP1 POP DUP2 DUP2 SUB PUSH1 0x0 DUP4 ADD MSTORE PUSH2 0x3BA8 DUP2 PUSH2 0x3B6C JUMP JUMPDEST SWAP1 POP SWAP2 SWAP1 POP JUMP JUMPDEST PUSH1 0x0 DUP2 MLOAD SWAP1 POP SWAP2 SWAP1 POP JUMP JUMPDEST PUSH1 0x0 JUMPDEST DUP4 DUP2 LT ISZERO PUSH2 0x3BD8 JUMPI DUP1 DUP3 ADD MLOAD DUP2 DUP5 ADD MSTORE PUSH1 0x20 DUP2 ADD SWAP1 POP PUSH2 0x3BBD JUMP JUMPDEST PUSH1 0x0 DUP5 DUP5 ADD MSTORE POP POP POP POP JUMP JUMPDEST PUSH1 0x0 PUSH2 0x3BEF DUP3 PUSH2 0x3BAF JUMP JUMPDEST PUSH2 0x3BF9 DUP2 DUP6 PUSH2 0x3178 JUMP JUMPDEST SWAP4 POP PUSH2 0x3C09 DUP2 DUP6 PUSH1 0x20 DUP7 ADD PUSH2 0x3BBA JUMP JUMPDEST PUSH2 0x3C12 DUP2 PUSH2 0x2709 JUMP JUMPDEST DUP5 ADD SWAP2 POP POP SWAP3 SWAP2 POP POP JUMP JUMPDEST PUSH1 0x0 PUSH1 0x20 DUP3 ADD SWAP1 POP DUP2 DUP2 SUB PUSH1 0x0 DUP4 ADD MSTORE PUSH2 0x3C37 DUP2 DUP5 PUSH2 0x3BE4 JUMP JUMPDEST SWAP1 POP SWAP3 SWAP2 POP POP JUMP JUMPDEST PUSH1 0x0 PUSH2 0x3C4A DUP3 PUSH2 0x2516 JUMP JUMPDEST SWAP2 POP PUSH2 0x3C55 DUP4 PUSH2 0x2516 JUMP JUMPDEST SWAP3 POP DUP3 DUP3 SUB SWAP1 POP DUP2 DUP2 GT ISZERO PUSH2 0x3C6D JUMPI PUSH2 0x3C6C PUSH2 0x2FE3 JUMP JUMPDEST JUMPDEST SWAP3 SWAP2 POP POP JUMP INVALID LOG2 PUSH5 0x6970667358 0x22 SLT KECCAK256 CODECOPY 0xE4 DUP14 0xD1 0x4E SGT DIFFICULTY 0x23 REVERT DUP5 0xC1 SWAP9 SAR SWAP8 EXTCODEHASH 0xD1 INVALID ADDMOD PUSH11 0x50325B43CDF2E4D72473B7 RETURN DUP14 PUSH5 0x736F6C6343 STOP ADDMOD GT STOP CALLER "},"methodIdentifiers":{"BASIS_POINTS_DIVISOR()":"126082cf","L1()":"7809baaf","L2()":"081752bb","MIN_DECREASE_HEALTH_FACTOR()":"725ba052","MIN_HEALTH_FACTOR()":"b5627e42","callCreateDecreasePosition(address[],address,uint256,uint256,bool,address,uint256,uint256,uint256,bool,address)":"937a0e4e","callCreateIncreasePosition(address[],address,uint256,uint256,uint256,bool,uint256,uint256,bytes32,address)":"af3ed347","callCreateIncreasePositionETH(address[],address,uint256,uint256,bool,uint256,uint256,bytes32,address)":"6e3990fc","deposit()":"d0e30db0","existingPositionsData(uint256)":"e9f4454d","getDeltaWithMargin(address,uint256,uint256,bool)":"ca2fc17c","getPortfolioValue()":"bb0498de","getPortfolioValueWithMargin()":"3ba32df4","getPositioKey(address,address,bool)":"d3ec0be9","getPosition(address,address,bool)":"8c1395f8","getPositionValue(address,bool,uint256,uint256,uint256,uint256)":"694c1cbc","getPositionValueWithMargin(address,address,bool,uint256,uint256,uint256,uint256)":"c019bf5e","getPositions()":"80275860","gov()":"12d43a51","lendingContractAddress()":"7379dbe6","minExecutionFee()":"63ae2103","orderBookAddress()":"9409d870","ownerAddress()":"8f84aa09","portfolioHealthFactor()":"ffb991b0","positionRouterAddress()":"d422b00f","routerAddress()":"3268cc56","setLendingContractAddress(address)":"13f2d128","setMinExecutionFee(uint256)":"fc2cee62","setPositionRouterAddress(address)":"a0f14034","setRouterAddress(address)":"41cb87fc","setVaultContractAddress(uint256)":"bcb81c3d","validateDecreasePosition(address,address[],bool)":"f8388225","vaultContractAddress()":"a92ea0e0"}}}}}