{"contracts/AbstractPosition.sol":{"AbstractPosition":{"abi":[{"inputs":[{"internalType":"address","name":"_gov","type":"address"},{"internalType":"address","name":"_lendingContractAddress","type":"address"},{"internalType":"address","name":"_ownerAddress","type":"address"},{"internalType":"address","name":"_positionRouterAddress","type":"address"},{"internalType":"address","name":"_routerAddress","type":"address"},{"internalType":"address","name":"_orderBookAddress","type":"address"},{"internalType":"address","name":"_vaultContractAddress","type":"address"}],"stateMutability":"nonpayable","type":"constructor"},{"inputs":[],"name":"BASIS_POINTS_DIVISOR","outputs":[{"internalType":"uint256","name":"","type":"uint256"}],"stateMutability":"view","type":"function"},{"inputs":[],"name":"L1","outputs":[{"internalType":"uint256","name":"","type":"uint256"}],"stateMutability":"view","type":"function"},{"inputs":[],"name":"L2","outputs":[{"internalType":"uint256","name":"","type":"uint256"}],"stateMutability":"view","type":"function"},{"inputs":[],"name":"MIN_HEALTH_FACTOR","outputs":[{"internalType":"uint256","name":"","type":"uint256"}],"stateMutability":"view","type":"function"},{"inputs":[{"internalType":"address[]","name":"_path","type":"address[]"},{"internalType":"address","name":"_indexToken","type":"address"},{"internalType":"uint256","name":"_collateralDelta","type":"uint256"},{"internalType":"uint256","name":"_sizeDelta","type":"uint256"},{"internalType":"bool","name":"_isLong","type":"bool"},{"internalType":"address","name":"_receiver","type":"address"},{"internalType":"uint256","name":"_acceptablePrice","type":"uint256"},{"internalType":"uint256","name":"_minOut","type":"uint256"},{"internalType":"uint256","name":"_executionFee","type":"uint256"},{"internalType":"bool","name":"_withdrawETH","type":"bool"},{"internalType":"address","name":"_callbackTarget","type":"address"}],"name":"callCreateDecreasePosition","outputs":[{"internalType":"bytes32","name":"","type":"bytes32"}],"stateMutability":"payable","type":"function"},{"inputs":[{"internalType":"address[]","name":"_path","type":"address[]"},{"internalType":"address","name":"_indexToken","type":"address"},{"internalType":"uint256","name":"_minOut","type":"uint256"},{"internalType":"uint256","name":"_sizeDelta","type":"uint256"},{"internalType":"bool","name":"_isLong","type":"bool"},{"internalType":"uint256","name":"_acceptablePrice","type":"uint256"},{"internalType":"uint256","name":"_executionFee","type":"uint256"},{"internalType":"bytes32","name":"_referralCode","type":"bytes32"},{"internalType":"address","name":"_callbackTarget","type":"address"}],"name":"callCreateIncreasePosition","outputs":[{"internalType":"bytes32","name":"","type":"bytes32"}],"stateMutability":"payable","type":"function"},{"inputs":[],"name":"deposit","outputs":[],"stateMutability":"payable","type":"function"},{"inputs":[{"internalType":"uint256","name":"","type":"uint256"}],"name":"existingPositionsData","outputs":[{"internalType":"address","name":"indexToken","type":"address"},{"internalType":"address","name":"collateralToken","type":"address"},{"internalType":"bool","name":"isLong","type":"bool"}],"stateMutability":"view","type":"function"},{"inputs":[{"internalType":"address","name":"_indexToken","type":"address"},{"internalType":"uint256","name":"_size","type":"uint256"},{"internalType":"uint256","name":"_averagePrice","type":"uint256"},{"internalType":"bool","name":"_isLong","type":"bool"}],"name":"getDeltaWithMargin","outputs":[{"internalType":"bool","name":"","type":"bool"},{"internalType":"uint256","name":"","type":"uint256"}],"stateMutability":"view","type":"function"},{"inputs":[],"name":"getPortfolioValue","outputs":[{"internalType":"uint256","name":"","type":"uint256"}],"stateMutability":"view","type":"function"},{"inputs":[],"name":"getPortfolioValueWithMargin","outputs":[{"internalType":"uint256","name":"","type":"uint256"}],"stateMutability":"view","type":"function"},{"inputs":[{"internalType":"address","name":"_indexToken","type":"address"},{"internalType":"bool","name":"_isLong","type":"bool"}],"name":"getPositioKey","outputs":[{"internalType":"bytes32","name":"","type":"bytes32"}],"stateMutability":"pure","type":"function"},{"inputs":[{"internalType":"address","name":"_indexToken","type":"address"},{"internalType":"address","name":"_collateralToken","type":"address"},{"internalType":"bool","name":"_isLong","type":"bool"}],"name":"getPosition","outputs":[{"internalType":"uint256","name":"","type":"uint256"},{"internalType":"uint256","name":"","type":"uint256"},{"internalType":"uint256","name":"","type":"uint256"},{"internalType":"uint256","name":"","type":"uint256"},{"internalType":"uint256","name":"","type":"uint256"}],"stateMutability":"view","type":"function"},{"inputs":[{"internalType":"address","name":"_indexToken","type":"address"},{"internalType":"bool","name":"_isLong","type":"bool"},{"internalType":"uint256","name":"_positionCollateral","type":"uint256"},{"internalType":"uint256","name":"_positionSize","type":"uint256"},{"internalType":"uint256","name":"_positionAveragePrice","type":"uint256"},{"internalType":"uint256","name":"_positionLastIncreasedTime","type":"uint256"}],"name":"getPositionValue","outputs":[{"internalType":"uint256","name":"","type":"uint256"}],"stateMutability":"view","type":"function"},{"inputs":[{"internalType":"address","name":"_indexToken","type":"address"},{"internalType":"address","name":"_collateralToken","type":"address"},{"internalType":"bool","name":"_isLong","type":"bool"},{"internalType":"uint256","name":"_positionCollateral","type":"uint256"},{"internalType":"uint256","name":"_positionSize","type":"uint256"},{"internalType":"uint256","name":"_positionAveragePrice","type":"uint256"},{"internalType":"uint256","name":"_positionEntryFundingRate","type":"uint256"}],"name":"getPositionValueWithMargin","outputs":[{"internalType":"uint256","name":"","type":"uint256"}],"stateMutability":"view","type":"function"},{"inputs":[],"name":"getPositions","outputs":[{"components":[{"internalType":"address","name":"indexToken","type":"address"},{"internalType":"address","name":"collateralToken","type":"address"},{"internalType":"bool","name":"isLong","type":"bool"}],"internalType":"struct AbstractPosition.PositionData[]","name":"","type":"tuple[]"}],"stateMutability":"view","type":"function"},{"inputs":[],"name":"gov","outputs":[{"internalType":"address","name":"","type":"address"}],"stateMutability":"view","type":"function"},{"inputs":[],"name":"lendingContractAddress","outputs":[{"internalType":"address","name":"","type":"address"}],"stateMutability":"view","type":"function"},{"inputs":[],"name":"minExecutionFee","outputs":[{"internalType":"uint256","name":"","type":"uint256"}],"stateMutability":"view","type":"function"},{"inputs":[],"name":"orderBookAddress","outputs":[{"internalType":"address","name":"","type":"address"}],"stateMutability":"view","type":"function"},{"inputs":[],"name":"ownerAddress","outputs":[{"internalType":"address","name":"","type":"address"}],"stateMutability":"view","type":"function"},{"inputs":[],"name":"portfolioHealthFactor","outputs":[{"internalType":"uint256","name":"","type":"uint256"}],"stateMutability":"view","type":"function"},{"inputs":[],"name":"positionRouterAddress","outputs":[{"internalType":"address","name":"","type":"address"}],"stateMutability":"view","type":"function"},{"inputs":[],"name":"routerAddress","outputs":[{"internalType":"address","name":"","type":"address"}],"stateMutability":"view","type":"function"},{"inputs":[{"internalType":"address","name":"_lendingContractAddress","type":"address"}],"name":"setLendingContractAddress","outputs":[],"stateMutability":"nonpayable","type":"function"},{"inputs":[{"internalType":"uint256","name":"_minExecutionFee","type":"uint256"}],"name":"setMinExecutionFee","outputs":[],"stateMutability":"nonpayable","type":"function"},{"inputs":[{"internalType":"address","name":"newAddress","type":"address"}],"name":"setPositionRouterAddress","outputs":[],"stateMutability":"nonpayable","type":"function"},{"inputs":[{"internalType":"address","name":"newAddress","type":"address"}],"name":"setRouterAddress","outputs":[],"stateMutability":"nonpayable","type":"function"},{"inputs":[{"internalType":"uint256","name":"_minExecutionFee","type":"uint256"}],"name":"setVaultContractAddress","outputs":[],"stateMutability":"nonpayable","type":"function"},{"inputs":[],"name":"vaultContractAddress","outputs":[{"internalType":"address","name":"","type":"address"}],"stateMutability":"view","type":"function"}],"evm":{"bytecode":{"linkReferences":{},"object":"60806040523480156200001157600080fd5b50604051620038c3380380620038c383398181016040528101906200003791906200030b565b866000806101000a81548173ffffffffffffffffffffffffffffffffffffffff021916908373ffffffffffffffffffffffffffffffffffffffff16021790555084600660006101000a81548173ffffffffffffffffffffffffffffffffffffffff021916908373ffffffffffffffffffffffffffffffffffffffff16021790555085600160006101000a81548173ffffffffffffffffffffffffffffffffffffffff021916908373ffffffffffffffffffffffffffffffffffffffff16021790555083600260006101000a81548173ffffffffffffffffffffffffffffffffffffffff021916908373ffffffffffffffffffffffffffffffffffffffff16021790555082600360006101000a81548173ffffffffffffffffffffffffffffffffffffffff021916908373ffffffffffffffffffffffffffffffffffffffff16021790555081600460006101000a81548173ffffffffffffffffffffffffffffffffffffffff021916908373ffffffffffffffffffffffffffffffffffffffff16021790555080600560006101000a81548173ffffffffffffffffffffffffffffffffffffffff021916908373ffffffffffffffffffffffffffffffffffffffff16021790555060008390508073ffffffffffffffffffffffffffffffffffffffff166338c74dd9600260009054906101000a900473ffffffffffffffffffffffffffffffffffffffff166040518263ffffffff1660e01b81526004016200025f9190620003cf565b600060405180830381600087803b1580156200027a57600080fd5b505af11580156200028f573d6000803e3d6000fd5b505050505050505050505050620003ec565b600080fd5b600073ffffffffffffffffffffffffffffffffffffffff82169050919050565b6000620002d382620002a6565b9050919050565b620002e581620002c6565b8114620002f157600080fd5b50565b6000815190506200030581620002da565b92915050565b600080600080600080600060e0888a0312156200032d576200032c620002a1565b5b60006200033d8a828b01620002f4565b9750506020620003508a828b01620002f4565b9650506040620003638a828b01620002f4565b9550506060620003768a828b01620002f4565b9450506080620003898a828b01620002f4565b93505060a06200039c8a828b01620002f4565b92505060c0620003af8a828b01620002f4565b91505092959891949750929550565b620003c981620002c6565b82525050565b6000602082019050620003e66000830184620003be565b92915050565b6134c780620003fc6000396000f3fe6080604052600436106101cd5760003560e01c80638f84aa09116100f7578063bcb81c3d11610095578063d422b00f11610064578063d422b00f14610670578063e9f4454d1461069b578063fc2cee62146106da578063ffb991b014610703576101cd565b8063bcb81c3d146105c2578063c019bf5e146105eb578063ca2fc17c14610628578063d0e30db014610666576101cd565b8063a0f14034116100d1578063a0f1403414610518578063a92ea0e014610541578063b5627e421461056c578063bb0498de14610597576101cd565b80638f84aa0914610492578063937a0e4e146104bd5780639409d870146104ed576101cd565b80633ba32df41161016f5780637379dbe61161013e5780637379dbe6146103d05780637809baaf146103fb57806380275860146104265780638c1395f814610451576101cd565b80633ba32df41461031457806341cb87fc1461033f57806363ae210314610368578063694c1cbc14610393576101cd565b806313f2d128116101ab57806313f2d1281461025357806317a92e431461027c5780633268cc56146102ac57806339e96ba6146102d7576101cd565b8063081752bb146101d2578063126082cf146101fd57806312d43a5114610228575b600080fd5b3480156101de57600080fd5b506101e761072e565b6040516101f49190611fd3565b60405180910390f35b34801561020957600080fd5b50610212610733565b60405161021f9190611fd3565b60405180910390f35b34801561023457600080fd5b5061023d610739565b60405161024a919061202f565b60405180910390f35b34801561025f57600080fd5b5061027a6004803603810190610275919061208a565b61075d565b005b610296600480360381019061029191906122aa565b6107a9565b6040516102a3919061239f565b60405180910390f35b3480156102b857600080fd5b506102c1610ab5565b6040516102ce919061202f565b60405180910390f35b3480156102e357600080fd5b506102fe60048036038101906102f991906123ba565b610adb565b60405161030b919061239f565b60405180910390f35b34801561032057600080fd5b50610329610b0e565b6040516103369190611fd3565b60405180910390f35b34801561034b57600080fd5b506103666004803603810190610361919061208a565b610d48565b005b34801561037457600080fd5b5061037d610d94565b60405161038a9190611fd3565b60405180910390f35b34801561039f57600080fd5b506103ba60048036038101906103b591906123fa565b610d9a565b6040516103c79190611fd3565b60405180910390f35b3480156103dc57600080fd5b506103e5610e9a565b6040516103f2919061202f565b60405180910390f35b34801561040757600080fd5b50610410610ec0565b60405161041d9190611fd3565b60405180910390f35b34801561043257600080fd5b5061043b610ec5565b6040516104489190612596565b60405180910390f35b34801561045d57600080fd5b50610478600480360381019061047391906125b8565b610feb565b60405161048995949392919061260b565b60405180910390f35b34801561049e57600080fd5b506104a7611103565b6040516104b4919061202f565b60405180910390f35b6104d760048036038101906104d2919061265e565b611129565b6040516104e4919061239f565b60405180910390f35b3480156104f957600080fd5b50610502611419565b60405161050f919061202f565b60405180910390f35b34801561052457600080fd5b5061053f600480360381019061053a919061208a565b61143f565b005b34801561054d57600080fd5b5061055661148b565b604051610563919061202f565b60405180910390f35b34801561057857600080fd5b506105816114b1565b60405161058e9190611fd3565b60405180910390f35b3480156105a357600080fd5b506105ac6114b7565b6040516105b99190611fd3565b60405180910390f35b3480156105ce57600080fd5b506105e960048036038101906105e4919061276e565b61165f565b005b3480156105f757600080fd5b50610612600480360381019061060d919061279b565b611671565b60405161061f9190611fd3565b60405180910390f35b34801561063457600080fd5b5061064f600480360381019061064a919061283d565b61183e565b60405161065d9291906128b3565b60405180910390f35b61066e611acc565b005b34801561067c57600080fd5b50610685611ae2565b604051610692919061202f565b60405180910390f35b3480156106a757600080fd5b506106c260048036038101906106bd919061276e565b611b08565b6040516106d1939291906128dc565b60405180910390f35b3480156106e657600080fd5b5061070160048036038101906106fc919061276e565b611b8f565b005b34801561070f57600080fd5b50610718611ba1565b6040516107259190611fd3565b60405180910390f35b606481565b61271081565b60008054906101000a900473ffffffffffffffffffffffffffffffffffffffff1681565b610765611cb2565b80600160006101000a81548173ffffffffffffffffffffffffffffffffffffffff021916908373ffffffffffffffffffffffffffffffffffffffff16021790555050565b6000600660009054906101000a900473ffffffffffffffffffffffffffffffffffffffff1673ffffffffffffffffffffffffffffffffffffffff163373ffffffffffffffffffffffffffffffffffffffff161461083b576040517f08c379a000000000000000000000000000000000000000000000000000000000815260040161083290612996565b60405180910390fd5b600860006108498b89610adb565b815260200190815260200160002060009054906101000a900460ff166109f157600960405180606001604052808b73ffffffffffffffffffffffffffffffffffffffff1681526020018c6108a860018f51611d4290919063ffffffff16565b815181106108b9576108b86129b6565b5b602002602001015173ffffffffffffffffffffffffffffffffffffffff168152602001881515815250908060018154018082558091505060019003906000526020600020906002020160009091909190915060008201518160000160006101000a81548173ffffffffffffffffffffffffffffffffffffffff021916908373ffffffffffffffffffffffffffffffffffffffff16021790555060208201518160010160006101000a81548173ffffffffffffffffffffffffffffffffffffffff021916908373ffffffffffffffffffffffffffffffffffffffff16021790555060408201518160010160146101000a81548160ff02191690831515021790555050506001600860006109cb8c8a610adb565b815260200190815260200160002060006101000a81548160ff0219169083151502179055505b6000600260009054906101000a900473ffffffffffffffffffffffffffffffffffffffff1690508073ffffffffffffffffffffffffffffffffffffffff16635b88e8c6348d8d8d8d8d8d8d8d8d6040518b63ffffffff1660e01b8152600401610a6299989796959493929190612a94565b60206040518083038185885af1158015610a80573d6000803e3d6000fd5b50505050506040513d601f19601f82011682018060405250810190610aa59190612b3d565b9150509998505050505050505050565b600360009054906101000a900473ffffffffffffffffffffffffffffffffffffffff1681565b60008282604051602001610af0929190612bfa565b60405160208183030381529060405280519060200120905092915050565b600080600090506000805b600980549050811015610d0357600080600080610bf360098681548110610b4357610b426129b6565b5b906000526020600020906002020160000160009054906101000a900473ffffffffffffffffffffffffffffffffffffffff1660098781548110610b8957610b886129b6565b5b906000526020600020906002020160010160009054906101000a900473ffffffffffffffffffffffffffffffffffffffff1660098881548110610bcf57610bce6129b6565b5b906000526020600020906002020160010160149054906101000a900460ff16610feb565b5093509350935093506000831115610cec57610cd060098681548110610c1c57610c1b6129b6565b5b906000526020600020906002020160000160009054906101000a900473ffffffffffffffffffffffffffffffffffffffff1660098781548110610c6257610c616129b6565b5b906000526020600020906002020160010160009054906101000a900473ffffffffffffffffffffffffffffffffffffffff1660098881548110610ca857610ca76129b6565b5b906000526020600020906002020160010160149054906101000a900460ff1686888787611671565b87610cdb9190612c55565b96508386610ce99190612c55565b95505b505050508080610cfb90612c89565b915050610b19565b50610d3e610d2f612710610d21606485611d8c90919063ffffffff16565b611e0690919063ffffffff16565b83611d4290919063ffffffff16565b9150819250505090565b610d50611cb2565b80600360006101000a81548173ffffffffffffffffffffffffffffffffffffffff021916908373ffffffffffffffffffffffffffffffffffffffff16021790555050565b60075481565b6000808503610dac5760009050610e90565b600080600560009054906101000a900473ffffffffffffffffffffffffffffffffffffffff1673ffffffffffffffffffffffffffffffffffffffff16635c07eaab8a88888c896040518663ffffffff1660e01b8152600401610e12959493929190612cd1565b6040805180830381865afa158015610e2e573d6000803e3d6000fd5b505050506040513d601f19601f82011682018060405250810190610e529190612d4e565b915091508115610e7857610e6f8188611e5090919063ffffffff16565b92505050610e90565b610e8b8188611d4290919063ffffffff16565b925050505b9695505050505050565b600160009054906101000a900473ffffffffffffffffffffffffffffffffffffffff1681565b606481565b60606009805480602002602001604051908101604052809291908181526020016000905b82821015610fe257838290600052602060002090600202016040518060600160405290816000820160009054906101000a900473ffffffffffffffffffffffffffffffffffffffff1673ffffffffffffffffffffffffffffffffffffffff1673ffffffffffffffffffffffffffffffffffffffff1681526020016001820160009054906101000a900473ffffffffffffffffffffffffffffffffffffffff1673ffffffffffffffffffffffffffffffffffffffff1673ffffffffffffffffffffffffffffffffffffffff1681526020016001820160149054906101000a900460ff16151515158152505081526020019060010190610ee9565b50505050905090565b6000806000806000610ffb611f75565b600560009054906101000a900473ffffffffffffffffffffffffffffffffffffffff1673ffffffffffffffffffffffffffffffffffffffff16634a3f088d308a8c8b6040518563ffffffff1660e01b815260040161105c9493929190612d8e565b61010060405180830381865afa15801561107a573d6000803e3d6000fd5b505050506040513d601f19601f8201168201806040525081019061109e9190612dd3565b909192509091509050856000018660200187604001886060018960c0018581525085815250858152508581525085815250505050505080600001518160200151826040015183606001518460c001519550955095509550955050939792965093509350565b600660009054906101000a900473ffffffffffffffffffffffffffffffffffffffff1681565b6000600660009054906101000a900473ffffffffffffffffffffffffffffffffffffffff1673ffffffffffffffffffffffffffffffffffffffff163373ffffffffffffffffffffffffffffffffffffffff1614806111d45750600160009054906101000a900473ffffffffffffffffffffffffffffffffffffffff1673ffffffffffffffffffffffffffffffffffffffff163373ffffffffffffffffffffffffffffffffffffffff16145b611213576040517f08c379a000000000000000000000000000000000000000000000000000000000815260040161120a90612efb565b60405180910390fd5b833414611255576040517f08c379a000000000000000000000000000000000000000000000000000000000815260040161124c90612f67565b60405180910390fd5b6000600160009054906101000a900473ffffffffffffffffffffffffffffffffffffffff1673ffffffffffffffffffffffffffffffffffffffff1663d04f246b600660009054906101000a900473ffffffffffffffffffffffffffffffffffffffff166040518263ffffffff1660e01b81526004016112d4919061202f565b602060405180830381865afa1580156112f1573d6000803e3d6000fd5b505050506040513d601f19601f820116820180604052508101906113159190612f87565b14611355576040517f08c379a000000000000000000000000000000000000000000000000000000000815260040161134c90613026565b60405180910390fd5b600260009054906101000a900473ffffffffffffffffffffffffffffffffffffffff1673ffffffffffffffffffffffffffffffffffffffff16637be7d141348e8e8e8e8e8e8e8e8e8e8e6040518d63ffffffff1660e01b81526004016113c59b9a99989796959493929190613046565b60206040518083038185885af11580156113e3573d6000803e3d6000fd5b50505050506040513d601f19601f820116820180604052508101906114089190612b3d565b90509b9a5050505050505050505050565b600460009054906101000a900473ffffffffffffffffffffffffffffffffffffffff1681565b611447611cb2565b80600260006101000a81548173ffffffffffffffffffffffffffffffffffffffff021916908373ffffffffffffffffffffffffffffffffffffffff16021790555050565b600560009054906101000a900473ffffffffffffffffffffffffffffffffffffffff1681565b61271081565b6000806000905060005b6009805490508110156116575760008060008061159b600986815481106114eb576114ea6129b6565b5b906000526020600020906002020160000160009054906101000a900473ffffffffffffffffffffffffffffffffffffffff1660098781548110611531576115306129b6565b5b906000526020600020906002020160010160009054906101000a900473ffffffffffffffffffffffffffffffffffffffff1660098881548110611577576115766129b6565b5b906000526020600020906002020160010160149054906101000a900460ff16610feb565b945050935093509350600083111561164057611632600986815481106115c4576115c36129b6565b5b906000526020600020906002020160000160009054906101000a900473ffffffffffffffffffffffffffffffffffffffff166009878154811061160a576116096129b6565b5b906000526020600020906002020160010160149054906101000a900460ff1685878686610d9a565b8661163d9190612c55565b95505b50505050808061164f90612c89565b9150506114c1565b508091505090565b611667611cb2565b8060078190555050565b60008060006116828a87878b61183e565b915091506000600560009054906101000a900473ffffffffffffffffffffffffffffffffffffffff1673ffffffffffffffffffffffffffffffffffffffff1663cc5b81448b89886040518463ffffffff1660e01b81526004016116e7939291906130f8565b602060405180830381865afa158015611704573d6000803e3d6000fd5b505050506040513d601f19601f820116820180604052508101906117289190612f87565b9050600560009054906101000a900473ffffffffffffffffffffffffffffffffffffffff1673ffffffffffffffffffffffffffffffffffffffff166317bbf25c886040518263ffffffff1660e01b81526004016117859190611fd3565b602060405180830381865afa1580156117a2573d6000803e3d6000fd5b505050506040513d601f19601f820116820180604052508101906117c69190612f87565b816117d19190612c55565b90508215611808576117fe816117f0848b611e5090919063ffffffff16565b611d4290919063ffffffff16565b9350505050611833565b61182d8161181f848b611d4290919063ffffffff16565b611d4290919063ffffffff16565b93505050505b979650505050505050565b60008060008411611884576040517f08c379a000000000000000000000000000000000000000000000000000000000815260040161187b906131a1565b60405180910390fd5b600083611967576119626127106119546118aa6064612710611e5090919063ffffffff16565b600560009054906101000a900473ffffffffffffffffffffffffffffffffffffffff1673ffffffffffffffffffffffffffffffffffffffff1663e124e6d28c6040518263ffffffff1660e01b8152600401611905919061202f565b602060405180830381865afa158015611922573d6000803e3d6000fd5b505050506040513d601f19601f820116820180604052508101906119469190612f87565b611d8c90919063ffffffff16565b611e0690919063ffffffff16565b611a3f565b611a3e612710611a306119866064612710611d4290919063ffffffff16565b600560009054906101000a900473ffffffffffffffffffffffffffffffffffffffff1673ffffffffffffffffffffffffffffffffffffffff166381a612d68c6040518263ffffffff1660e01b81526004016119e1919061202f565b602060405180830381865afa1580156119fe573d6000803e3d6000fd5b505050506040513d601f19601f82011682018060405250810190611a229190612f87565b611d8c90919063ffffffff16565b611e0690919063ffffffff16565b5b90506000818611611a6257611a5d8683611d4290919063ffffffff16565b611a76565b611a758287611d4290919063ffffffff16565b5b90506000611a9f87611a91848b611d8c90919063ffffffff16565b611e0690919063ffffffff16565b905060008615611ab3578784119050611ab9565b83881190505b8082955095505050505094509492505050565b670de0b6b3a76400003414611ae057600080fd5b565b600260009054906101000a900473ffffffffffffffffffffffffffffffffffffffff1681565b60098181548110611b1857600080fd5b90600052602060002090600202016000915090508060000160009054906101000a900473ffffffffffffffffffffffffffffffffffffffff16908060010160009054906101000a900473ffffffffffffffffffffffffffffffffffffffff16908060010160149054906101000a900460ff16905083565b611b97611cb2565b8060078190555050565b600080600160009054906101000a900473ffffffffffffffffffffffffffffffffffffffff1673ffffffffffffffffffffffffffffffffffffffff1663d04f246b600660009054906101000a900473ffffffffffffffffffffffffffffffffffffffff166040518263ffffffff1660e01b8152600401611c21919061202f565b602060405180830381865afa158015611c3e573d6000803e3d6000fd5b505050506040513d601f19601f82011682018060405250810190611c629190612f87565b90506000611c6e610b0e565b905060008203611c8357600092505050611caf565b611caa82611c9c61271084611d8c90919063ffffffff16565b611e0690919063ffffffff16565b925050505b90565b60008054906101000a900473ffffffffffffffffffffffffffffffffffffffff1673ffffffffffffffffffffffffffffffffffffffff163373ffffffffffffffffffffffffffffffffffffffff1614611d40576040517f08c379a0000000000000000000000000000000000000000000000000000000008152600401611d379061320d565b60405180910390fd5b565b6000611d8483836040518060400160405280601e81526020017f536166654d6174683a207375627472616374696f6e206f766572666c6f770000815250611eae565b905092915050565b6000808303611d9e5760009050611e00565b60008284611dac919061322d565b9050828482611dbb919061329e565b14611dfb576040517f08c379a0000000000000000000000000000000000000000000000000000000008152600401611df290613341565b60405180910390fd5b809150505b92915050565b6000611e4883836040518060400160405280601a81526020017f536166654d6174683a206469766973696f6e206279207a65726f000000000000815250611f12565b905092915050565b6000808284611e5f9190612c55565b905083811015611ea4576040517f08c379a0000000000000000000000000000000000000000000000000000000008152600401611e9b906133ad565b60405180910390fd5b8091505092915050565b6000838311158290611ef6576040517f08c379a0000000000000000000000000000000000000000000000000000000008152600401611eed919061343b565b60405180910390fd5b5060008385611f05919061345d565b9050809150509392505050565b60008083118290611f59576040517f08c379a0000000000000000000000000000000000000000000000000000000008152600401611f50919061343b565b60405180910390fd5b5060008385611f68919061329e565b9050809150509392505050565b60405180610100016040528060008152602001600081526020016000815260200160008152602001600081526020016000815260200160008152602001600081525090565b6000819050919050565b611fcd81611fba565b82525050565b6000602082019050611fe86000830184611fc4565b92915050565b600073ffffffffffffffffffffffffffffffffffffffff82169050919050565b600061201982611fee565b9050919050565b6120298161200e565b82525050565b60006020820190506120446000830184612020565b92915050565b6000604051905090565b600080fd5b600080fd5b6120678161200e565b811461207257600080fd5b50565b6000813590506120848161205e565b92915050565b6000602082840312156120a05761209f612054565b5b60006120ae84828501612075565b91505092915050565b600080fd5b6000601f19601f8301169050919050565b7f4e487b7100000000000000000000000000000000000000000000000000000000600052604160045260246000fd5b612105826120bc565b810181811067ffffffffffffffff82111715612124576121236120cd565b5b80604052505050565b600061213761204a565b905061214382826120fc565b919050565b600067ffffffffffffffff821115612163576121626120cd565b5b602082029050602081019050919050565b600080fd5b600061218c61218784612148565b61212d565b905080838252602082019050602084028301858111156121af576121ae612174565b5b835b818110156121d857806121c48882612075565b8452602084019350506020810190506121b1565b5050509392505050565b600082601f8301126121f7576121f66120b7565b5b8135612207848260208601612179565b91505092915050565b61221981611fba565b811461222457600080fd5b50565b60008135905061223681612210565b92915050565b60008115159050919050565b6122518161223c565b811461225c57600080fd5b50565b60008135905061226e81612248565b92915050565b6000819050919050565b61228781612274565b811461229257600080fd5b50565b6000813590506122a48161227e565b92915050565b60008060008060008060008060006101208a8c0312156122cd576122cc612054565b5b60008a013567ffffffffffffffff8111156122eb576122ea612059565b5b6122f78c828d016121e2565b99505060206123088c828d01612075565b98505060406123198c828d01612227565b975050606061232a8c828d01612227565b965050608061233b8c828d0161225f565b95505060a061234c8c828d01612227565b94505060c061235d8c828d01612227565b93505060e061236e8c828d01612295565b9250506101006123808c828d01612075565b9150509295985092959850929598565b61239981612274565b82525050565b60006020820190506123b46000830184612390565b92915050565b600080604083850312156123d1576123d0612054565b5b60006123df85828601612075565b92505060206123f08582860161225f565b9150509250929050565b60008060008060008060c0878903121561241757612416612054565b5b600061242589828a01612075565b965050602061243689828a0161225f565b955050604061244789828a01612227565b945050606061245889828a01612227565b935050608061246989828a01612227565b92505060a061247a89828a01612227565b9150509295509295509295565b600081519050919050565b600082825260208201905092915050565b6000819050602082019050919050565b6124bc8161200e565b82525050565b6124cb8161223c565b82525050565b6060820160008201516124e760008501826124b3565b5060208201516124fa60208501826124b3565b50604082015161250d60408501826124c2565b50505050565b600061251f83836124d1565b60608301905092915050565b6000602082019050919050565b600061254382612487565b61254d8185612492565b9350612558836124a3565b8060005b838110156125895781516125708882612513565b975061257b8361252b565b92505060018101905061255c565b5085935050505092915050565b600060208201905081810360008301526125b08184612538565b905092915050565b6000806000606084860312156125d1576125d0612054565b5b60006125df86828701612075565b93505060206125f086828701612075565b92505060406126018682870161225f565b9150509250925092565b600060a0820190506126206000830188611fc4565b61262d6020830187611fc4565b61263a6040830186611fc4565b6126476060830185611fc4565b6126546080830184611fc4565b9695505050505050565b60008060008060008060008060008060006101608c8e03121561268457612683612054565b5b60008c013567ffffffffffffffff8111156126a2576126a1612059565b5b6126ae8e828f016121e2565b9b505060206126bf8e828f01612075565b9a505060406126d08e828f01612227565b99505060606126e18e828f01612227565b98505060806126f28e828f0161225f565b97505060a06127038e828f01612075565b96505060c06127148e828f01612227565b95505060e06127258e828f01612227565b9450506101006127378e828f01612227565b9350506101206127498e828f0161225f565b92505061014061275b8e828f01612075565b9150509295989b509295989b9093969950565b60006020828403121561278457612783612054565b5b600061279284828501612227565b91505092915050565b600080600080600080600060e0888a0312156127ba576127b9612054565b5b60006127c88a828b01612075565b97505060206127d98a828b01612075565b96505060406127ea8a828b0161225f565b95505060606127fb8a828b01612227565b945050608061280c8a828b01612227565b93505060a061281d8a828b01612227565b92505060c061282e8a828b01612227565b91505092959891949750929550565b6000806000806080858703121561285757612856612054565b5b600061286587828801612075565b945050602061287687828801612227565b935050604061288787828801612227565b92505060606128988782880161225f565b91505092959194509250565b6128ad8161223c565b82525050565b60006040820190506128c860008301856128a4565b6128d56020830184611fc4565b9392505050565b60006060820190506128f16000830186612020565b6128fe6020830185612020565b61290b60408301846128a4565b949350505050565b600082825260208201905092915050565b7f6f6e6c7920746865206f776e65722063616e2063616c6c20746869732066756e60008201527f6374696f6e000000000000000000000000000000000000000000000000000000602082015250565b6000612980602583612913565b915061298b82612924565b604082019050919050565b600060208201905081810360008301526129af81612973565b9050919050565b7f4e487b7100000000000000000000000000000000000000000000000000000000600052603260045260246000fd5b600081519050919050565b600082825260208201905092915050565b6000819050602082019050919050565b6000612a1d83836124b3565b60208301905092915050565b6000602082019050919050565b6000612a41826129e5565b612a4b81856129f0565b9350612a5683612a01565b8060005b83811015612a87578151612a6e8882612a11565b9750612a7983612a29565b925050600181019050612a5a565b5085935050505092915050565b6000610120820190508181036000830152612aaf818c612a36565b9050612abe602083018b612020565b612acb604083018a611fc4565b612ad86060830189611fc4565b612ae560808301886128a4565b612af260a0830187611fc4565b612aff60c0830186611fc4565b612b0c60e0830185612390565b612b1a610100830184612020565b9a9950505050505050505050565b600081519050612b378161227e565b92915050565b600060208284031215612b5357612b52612054565b5b6000612b6184828501612b28565b91505092915050565b60008160601b9050919050565b6000612b8282612b6a565b9050919050565b6000612b9482612b77565b9050919050565b612bac612ba78261200e565b612b89565b82525050565b60008160f81b9050919050565b6000612bca82612bb2565b9050919050565b6000612bdc82612bbf565b9050919050565b612bf4612bef8261223c565b612bd1565b82525050565b6000612c068285612b9b565b601482019150612c168284612be3565b6001820191508190509392505050565b7f4e487b7100000000000000000000000000000000000000000000000000000000600052601160045260246000fd5b6000612c6082611fba565b9150612c6b83611fba565b9250828201905080821115612c8357612c82612c26565b5b92915050565b6000612c9482611fba565b91507fffffffffffffffffffffffffffffffffffffffffffffffffffffffffffffffff8203612cc657612cc5612c26565b5b600182019050919050565b600060a082019050612ce66000830188612020565b612cf36020830187611fc4565b612d006040830186611fc4565b612d0d60608301856128a4565b612d1a6080830184611fc4565b9695505050505050565b600081519050612d3381612248565b92915050565b600081519050612d4881612210565b92915050565b60008060408385031215612d6557612d64612054565b5b6000612d7385828601612d24565b9250506020612d8485828601612d39565b9150509250929050565b6000608082019050612da36000830187612020565b612db06020830186612020565b612dbd6040830185612020565b612dca60608301846128a4565b95945050505050565b600080600080600080600080610100898b031215612df457612df3612054565b5b6000612e028b828c01612d39565b9850506020612e138b828c01612d39565b9750506040612e248b828c01612d39565b9650506060612e358b828c01612d39565b9550506080612e468b828c01612d39565b94505060a0612e578b828c01612d39565b93505060c0612e688b828c01612d24565b92505060e0612e798b828c01612d39565b9150509295985092959890939650565b7f6f6e6c7920746865206f776e6572206f7220676f762063616e2063616c6c207460008201527f6869732066756e6374696f6e0000000000000000000000000000000000000000602082015250565b6000612ee5602c83612913565b9150612ef082612e89565b604082019050919050565b60006020820190508181036000830152612f1481612ed8565b9050919050565b7f6665650000000000000000000000000000000000000000000000000000000000600082015250565b6000612f51600383612913565b9150612f5c82612f1b565b602082019050919050565b60006020820190508181036000830152612f8081612f44565b9050919050565b600060208284031215612f9d57612f9c612054565b5b6000612fab84828501612d39565b91505092915050565b7f63616e2774206c6971756964617465706f736974696f6e20617320746865726560008201527f20697320616e206578697374696e67206c6f616e000000000000000000000000602082015250565b6000613010603483612913565b915061301b82612fb4565b604082019050919050565b6000602082019050818103600083015261303f81613003565b9050919050565b6000610160820190508181036000830152613061818e612a36565b9050613070602083018d612020565b61307d604083018c611fc4565b61308a606083018b611fc4565b613097608083018a6128a4565b6130a460a0830189612020565b6130b160c0830188611fc4565b6130be60e0830187611fc4565b6130cc610100830186611fc4565b6130da6101208301856128a4565b6130e8610140830184612020565b9c9b505050505050505050505050565b600060608201905061310d6000830186612020565b61311a6020830185611fc4565b6131276040830184611fc4565b949350505050565b7f617665726765207072696365206f6620706f736974696f6e2068617320746f2060008201527f62652067726561746572207468616e2030000000000000000000000000000000602082015250565b600061318b603183612913565b91506131968261312f565b604082019050919050565b600060208201905081810360008301526131ba8161317e565b9050919050565b7f6f6e6c7920676f762063616e2063616c6c20746869732066756e6374696f6e00600082015250565b60006131f7601f83612913565b9150613202826131c1565b602082019050919050565b60006020820190508181036000830152613226816131ea565b9050919050565b600061323882611fba565b915061324383611fba565b925082820261325181611fba565b9150828204841483151761326857613267612c26565b5b5092915050565b7f4e487b7100000000000000000000000000000000000000000000000000000000600052601260045260246000fd5b60006132a982611fba565b91506132b483611fba565b9250826132c4576132c361326f565b5b828204905092915050565b7f536166654d6174683a206d756c7469706c69636174696f6e206f766572666c6f60008201527f7700000000000000000000000000000000000000000000000000000000000000602082015250565b600061332b602183612913565b9150613336826132cf565b604082019050919050565b6000602082019050818103600083015261335a8161331e565b9050919050565b7f536166654d6174683a206164646974696f6e206f766572666c6f770000000000600082015250565b6000613397601b83612913565b91506133a282613361565b602082019050919050565b600060208201905081810360008301526133c68161338a565b9050919050565b600081519050919050565b60005b838110156133f65780820151818401526020810190506133db565b60008484015250505050565b600061340d826133cd565b6134178185612913565b93506134278185602086016133d8565b613430816120bc565b840191505092915050565b600060208201905081810360008301526134558184613402565b905092915050565b600061346882611fba565b915061347383611fba565b925082820390508181111561348b5761348a612c26565b5b9291505056fea26469706673582212205243eddfd74982999cc0a2f4a0e44db7904becd86ffd99da417f72daa78bfa1d64736f6c63430008110033","opcodes":"PUSH1 0x80 PUSH1 0x40 MSTORE CALLVALUE DUP1 ISZERO PUSH3 0x11 JUMPI PUSH1 0x0 DUP1 REVERT JUMPDEST POP PUSH1 0x40 MLOAD PUSH3 0x38C3 CODESIZE SUB DUP1 PUSH3 0x38C3 DUP4 CODECOPY DUP2 DUP2 ADD PUSH1 0x40 MSTORE DUP2 ADD SWAP1 PUSH3 0x37 SWAP2 SWAP1 PUSH3 0x30B JUMP JUMPDEST DUP7 PUSH1 0x0 DUP1 PUSH2 0x100 EXP DUP2 SLOAD DUP2 PUSH20 0xFFFFFFFFFFFFFFFFFFFFFFFFFFFFFFFFFFFFFFFF MUL NOT AND SWAP1 DUP4 PUSH20 0xFFFFFFFFFFFFFFFFFFFFFFFFFFFFFFFFFFFFFFFF AND MUL OR SWAP1 SSTORE POP DUP5 PUSH1 0x6 PUSH1 0x0 PUSH2 0x100 EXP DUP2 SLOAD DUP2 PUSH20 0xFFFFFFFFFFFFFFFFFFFFFFFFFFFFFFFFFFFFFFFF MUL NOT AND SWAP1 DUP4 PUSH20 0xFFFFFFFFFFFFFFFFFFFFFFFFFFFFFFFFFFFFFFFF AND MUL OR SWAP1 SSTORE POP DUP6 PUSH1 0x1 PUSH1 0x0 PUSH2 0x100 EXP DUP2 SLOAD DUP2 PUSH20 0xFFFFFFFFFFFFFFFFFFFFFFFFFFFFFFFFFFFFFFFF MUL NOT AND SWAP1 DUP4 PUSH20 0xFFFFFFFFFFFFFFFFFFFFFFFFFFFFFFFFFFFFFFFF AND MUL OR SWAP1 SSTORE POP DUP4 PUSH1 0x2 PUSH1 0x0 PUSH2 0x100 EXP DUP2 SLOAD DUP2 PUSH20 0xFFFFFFFFFFFFFFFFFFFFFFFFFFFFFFFFFFFFFFFF MUL NOT AND SWAP1 DUP4 PUSH20 0xFFFFFFFFFFFFFFFFFFFFFFFFFFFFFFFFFFFFFFFF AND MUL OR SWAP1 SSTORE POP DUP3 PUSH1 0x3 PUSH1 0x0 PUSH2 0x100 EXP DUP2 SLOAD DUP2 PUSH20 0xFFFFFFFFFFFFFFFFFFFFFFFFFFFFFFFFFFFFFFFF MUL NOT AND SWAP1 DUP4 PUSH20 0xFFFFFFFFFFFFFFFFFFFFFFFFFFFFFFFFFFFFFFFF AND MUL OR SWAP1 SSTORE POP DUP2 PUSH1 0x4 PUSH1 0x0 PUSH2 0x100 EXP DUP2 SLOAD DUP2 PUSH20 0xFFFFFFFFFFFFFFFFFFFFFFFFFFFFFFFFFFFFFFFF MUL NOT AND SWAP1 DUP4 PUSH20 0xFFFFFFFFFFFFFFFFFFFFFFFFFFFFFFFFFFFFFFFF AND MUL OR SWAP1 SSTORE POP DUP1 PUSH1 0x5 PUSH1 0x0 PUSH2 0x100 EXP DUP2 SLOAD DUP2 PUSH20 0xFFFFFFFFFFFFFFFFFFFFFFFFFFFFFFFFFFFFFFFF MUL NOT AND SWAP1 DUP4 PUSH20 0xFFFFFFFFFFFFFFFFFFFFFFFFFFFFFFFFFFFFFFFF AND MUL OR SWAP1 SSTORE POP PUSH1 0x0 DUP4 SWAP1 POP DUP1 PUSH20 0xFFFFFFFFFFFFFFFFFFFFFFFFFFFFFFFFFFFFFFFF AND PUSH4 0x38C74DD9 PUSH1 0x2 PUSH1 0x0 SWAP1 SLOAD SWAP1 PUSH2 0x100 EXP SWAP1 DIV PUSH20 0xFFFFFFFFFFFFFFFFFFFFFFFFFFFFFFFFFFFFFFFF AND PUSH1 0x40 MLOAD DUP3 PUSH4 0xFFFFFFFF AND PUSH1 0xE0 SHL DUP2 MSTORE PUSH1 0x4 ADD PUSH3 0x25F SWAP2 SWAP1 PUSH3 0x3CF JUMP JUMPDEST PUSH1 0x0 PUSH1 0x40 MLOAD DUP1 DUP4 SUB DUP2 PUSH1 0x0 DUP8 DUP1 EXTCODESIZE ISZERO DUP1 ISZERO PUSH3 0x27A JUMPI PUSH1 0x0 DUP1 REVERT JUMPDEST POP GAS CALL ISZERO DUP1 ISZERO PUSH3 0x28F JUMPI RETURNDATASIZE PUSH1 0x0 DUP1 RETURNDATACOPY RETURNDATASIZE PUSH1 0x0 REVERT JUMPDEST POP POP POP POP POP POP POP POP POP POP POP POP PUSH3 0x3EC JUMP JUMPDEST PUSH1 0x0 DUP1 REVERT JUMPDEST PUSH1 0x0 PUSH20 0xFFFFFFFFFFFFFFFFFFFFFFFFFFFFFFFFFFFFFFFF DUP3 AND SWAP1 POP SWAP2 SWAP1 POP JUMP JUMPDEST PUSH1 0x0 PUSH3 0x2D3 DUP3 PUSH3 0x2A6 JUMP JUMPDEST SWAP1 POP SWAP2 SWAP1 POP JUMP JUMPDEST PUSH3 0x2E5 DUP2 PUSH3 0x2C6 JUMP JUMPDEST DUP2 EQ PUSH3 0x2F1 JUMPI PUSH1 0x0 DUP1 REVERT JUMPDEST POP JUMP JUMPDEST PUSH1 0x0 DUP2 MLOAD SWAP1 POP PUSH3 0x305 DUP2 PUSH3 0x2DA JUMP JUMPDEST SWAP3 SWAP2 POP POP JUMP JUMPDEST PUSH1 0x0 DUP1 PUSH1 0x0 DUP1 PUSH1 0x0 DUP1 PUSH1 0x0 PUSH1 0xE0 DUP9 DUP11 SUB SLT ISZERO PUSH3 0x32D JUMPI PUSH3 0x32C PUSH3 0x2A1 JUMP JUMPDEST JUMPDEST PUSH1 0x0 PUSH3 0x33D DUP11 DUP3 DUP12 ADD PUSH3 0x2F4 JUMP JUMPDEST SWAP8 POP POP PUSH1 0x20 PUSH3 0x350 DUP11 DUP3 DUP12 ADD PUSH3 0x2F4 JUMP JUMPDEST SWAP7 POP POP PUSH1 0x40 PUSH3 0x363 DUP11 DUP3 DUP12 ADD PUSH3 0x2F4 JUMP JUMPDEST SWAP6 POP POP PUSH1 0x60 PUSH3 0x376 DUP11 DUP3 DUP12 ADD PUSH3 0x2F4 JUMP JUMPDEST SWAP5 POP POP PUSH1 0x80 PUSH3 0x389 DUP11 DUP3 DUP12 ADD PUSH3 0x2F4 JUMP JUMPDEST SWAP4 POP POP PUSH1 0xA0 PUSH3 0x39C DUP11 DUP3 DUP12 ADD PUSH3 0x2F4 JUMP JUMPDEST SWAP3 POP POP PUSH1 0xC0 PUSH3 0x3AF DUP11 DUP3 DUP12 ADD PUSH3 0x2F4 JUMP JUMPDEST SWAP2 POP POP SWAP3 SWAP6 SWAP9 SWAP2 SWAP5 SWAP8 POP SWAP3 SWAP6 POP JUMP JUMPDEST PUSH3 0x3C9 DUP2 PUSH3 0x2C6 JUMP JUMPDEST DUP3 MSTORE POP POP JUMP JUMPDEST PUSH1 0x0 PUSH1 0x20 DUP3 ADD SWAP1 POP PUSH3 0x3E6 PUSH1 0x0 DUP4 ADD DUP5 PUSH3 0x3BE JUMP JUMPDEST SWAP3 SWAP2 POP POP JUMP JUMPDEST PUSH2 0x34C7 DUP1 PUSH3 0x3FC PUSH1 0x0 CODECOPY PUSH1 0x0 RETURN INVALID PUSH1 0x80 PUSH1 0x40 MSTORE PUSH1 0x4 CALLDATASIZE LT PUSH2 0x1CD JUMPI PUSH1 0x0 CALLDATALOAD PUSH1 0xE0 SHR DUP1 PUSH4 0x8F84AA09 GT PUSH2 0xF7 JUMPI DUP1 PUSH4 0xBCB81C3D GT PUSH2 0x95 JUMPI DUP1 PUSH4 0xD422B00F GT PUSH2 0x64 JUMPI DUP1 PUSH4 0xD422B00F EQ PUSH2 0x670 JUMPI DUP1 PUSH4 0xE9F4454D EQ PUSH2 0x69B JUMPI DUP1 PUSH4 0xFC2CEE62 EQ PUSH2 0x6DA JUMPI DUP1 PUSH4 0xFFB991B0 EQ PUSH2 0x703 JUMPI PUSH2 0x1CD JUMP JUMPDEST DUP1 PUSH4 0xBCB81C3D EQ PUSH2 0x5C2 JUMPI DUP1 PUSH4 0xC019BF5E EQ PUSH2 0x5EB JUMPI DUP1 PUSH4 0xCA2FC17C EQ PUSH2 0x628 JUMPI DUP1 PUSH4 0xD0E30DB0 EQ PUSH2 0x666 JUMPI PUSH2 0x1CD JUMP JUMPDEST DUP1 PUSH4 0xA0F14034 GT PUSH2 0xD1 JUMPI DUP1 PUSH4 0xA0F14034 EQ PUSH2 0x518 JUMPI DUP1 PUSH4 0xA92EA0E0 EQ PUSH2 0x541 JUMPI DUP1 PUSH4 0xB5627E42 EQ PUSH2 0x56C JUMPI DUP1 PUSH4 0xBB0498DE EQ PUSH2 0x597 JUMPI PUSH2 0x1CD JUMP JUMPDEST DUP1 PUSH4 0x8F84AA09 EQ PUSH2 0x492 JUMPI DUP1 PUSH4 0x937A0E4E EQ PUSH2 0x4BD JUMPI DUP1 PUSH4 0x9409D870 EQ PUSH2 0x4ED JUMPI PUSH2 0x1CD JUMP JUMPDEST DUP1 PUSH4 0x3BA32DF4 GT PUSH2 0x16F JUMPI DUP1 PUSH4 0x7379DBE6 GT PUSH2 0x13E JUMPI DUP1 PUSH4 0x7379DBE6 EQ PUSH2 0x3D0 JUMPI DUP1 PUSH4 0x7809BAAF EQ PUSH2 0x3FB JUMPI DUP1 PUSH4 0x80275860 EQ PUSH2 0x426 JUMPI DUP1 PUSH4 0x8C1395F8 EQ PUSH2 0x451 JUMPI PUSH2 0x1CD JUMP JUMPDEST DUP1 PUSH4 0x3BA32DF4 EQ PUSH2 0x314 JUMPI DUP1 PUSH4 0x41CB87FC EQ PUSH2 0x33F JUMPI DUP1 PUSH4 0x63AE2103 EQ PUSH2 0x368 JUMPI DUP1 PUSH4 0x694C1CBC EQ PUSH2 0x393 JUMPI PUSH2 0x1CD JUMP JUMPDEST DUP1 PUSH4 0x13F2D128 GT PUSH2 0x1AB JUMPI DUP1 PUSH4 0x13F2D128 EQ PUSH2 0x253 JUMPI DUP1 PUSH4 0x17A92E43 EQ PUSH2 0x27C JUMPI DUP1 PUSH4 0x3268CC56 EQ PUSH2 0x2AC JUMPI DUP1 PUSH4 0x39E96BA6 EQ PUSH2 0x2D7 JUMPI PUSH2 0x1CD JUMP JUMPDEST DUP1 PUSH4 0x81752BB EQ PUSH2 0x1D2 JUMPI DUP1 PUSH4 0x126082CF EQ PUSH2 0x1FD JUMPI DUP1 PUSH4 0x12D43A51 EQ PUSH2 0x228 JUMPI JUMPDEST PUSH1 0x0 DUP1 REVERT JUMPDEST CALLVALUE DUP1 ISZERO PUSH2 0x1DE JUMPI PUSH1 0x0 DUP1 REVERT JUMPDEST POP PUSH2 0x1E7 PUSH2 0x72E JUMP JUMPDEST PUSH1 0x40 MLOAD PUSH2 0x1F4 SWAP2 SWAP1 PUSH2 0x1FD3 JUMP JUMPDEST PUSH1 0x40 MLOAD DUP1 SWAP2 SUB SWAP1 RETURN JUMPDEST CALLVALUE DUP1 ISZERO PUSH2 0x209 JUMPI PUSH1 0x0 DUP1 REVERT JUMPDEST POP PUSH2 0x212 PUSH2 0x733 JUMP JUMPDEST PUSH1 0x40 MLOAD PUSH2 0x21F SWAP2 SWAP1 PUSH2 0x1FD3 JUMP JUMPDEST PUSH1 0x40 MLOAD DUP1 SWAP2 SUB SWAP1 RETURN JUMPDEST CALLVALUE DUP1 ISZERO PUSH2 0x234 JUMPI PUSH1 0x0 DUP1 REVERT JUMPDEST POP PUSH2 0x23D PUSH2 0x739 JUMP JUMPDEST PUSH1 0x40 MLOAD PUSH2 0x24A SWAP2 SWAP1 PUSH2 0x202F JUMP JUMPDEST PUSH1 0x40 MLOAD DUP1 SWAP2 SUB SWAP1 RETURN JUMPDEST CALLVALUE DUP1 ISZERO PUSH2 0x25F JUMPI PUSH1 0x0 DUP1 REVERT JUMPDEST POP PUSH2 0x27A PUSH1 0x4 DUP1 CALLDATASIZE SUB DUP2 ADD SWAP1 PUSH2 0x275 SWAP2 SWAP1 PUSH2 0x208A JUMP JUMPDEST PUSH2 0x75D JUMP JUMPDEST STOP JUMPDEST PUSH2 0x296 PUSH1 0x4 DUP1 CALLDATASIZE SUB DUP2 ADD SWAP1 PUSH2 0x291 SWAP2 SWAP1 PUSH2 0x22AA JUMP JUMPDEST PUSH2 0x7A9 JUMP JUMPDEST PUSH1 0x40 MLOAD PUSH2 0x2A3 SWAP2 SWAP1 PUSH2 0x239F JUMP JUMPDEST PUSH1 0x40 MLOAD DUP1 SWAP2 SUB SWAP1 RETURN JUMPDEST CALLVALUE DUP1 ISZERO PUSH2 0x2B8 JUMPI PUSH1 0x0 DUP1 REVERT JUMPDEST POP PUSH2 0x2C1 PUSH2 0xAB5 JUMP JUMPDEST PUSH1 0x40 MLOAD PUSH2 0x2CE SWAP2 SWAP1 PUSH2 0x202F JUMP JUMPDEST PUSH1 0x40 MLOAD DUP1 SWAP2 SUB SWAP1 RETURN JUMPDEST CALLVALUE DUP1 ISZERO PUSH2 0x2E3 JUMPI PUSH1 0x0 DUP1 REVERT JUMPDEST POP PUSH2 0x2FE PUSH1 0x4 DUP1 CALLDATASIZE SUB DUP2 ADD SWAP1 PUSH2 0x2F9 SWAP2 SWAP1 PUSH2 0x23BA JUMP JUMPDEST PUSH2 0xADB JUMP JUMPDEST PUSH1 0x40 MLOAD PUSH2 0x30B SWAP2 SWAP1 PUSH2 0x239F JUMP JUMPDEST PUSH1 0x40 MLOAD DUP1 SWAP2 SUB SWAP1 RETURN JUMPDEST CALLVALUE DUP1 ISZERO PUSH2 0x320 JUMPI PUSH1 0x0 DUP1 REVERT JUMPDEST POP PUSH2 0x329 PUSH2 0xB0E JUMP JUMPDEST PUSH1 0x40 MLOAD PUSH2 0x336 SWAP2 SWAP1 PUSH2 0x1FD3 JUMP JUMPDEST PUSH1 0x40 MLOAD DUP1 SWAP2 SUB SWAP1 RETURN JUMPDEST CALLVALUE DUP1 ISZERO PUSH2 0x34B JUMPI PUSH1 0x0 DUP1 REVERT JUMPDEST POP PUSH2 0x366 PUSH1 0x4 DUP1 CALLDATASIZE SUB DUP2 ADD SWAP1 PUSH2 0x361 SWAP2 SWAP1 PUSH2 0x208A JUMP JUMPDEST PUSH2 0xD48 JUMP JUMPDEST STOP JUMPDEST CALLVALUE DUP1 ISZERO PUSH2 0x374 JUMPI PUSH1 0x0 DUP1 REVERT JUMPDEST POP PUSH2 0x37D PUSH2 0xD94 JUMP JUMPDEST PUSH1 0x40 MLOAD PUSH2 0x38A SWAP2 SWAP1 PUSH2 0x1FD3 JUMP JUMPDEST PUSH1 0x40 MLOAD DUP1 SWAP2 SUB SWAP1 RETURN JUMPDEST CALLVALUE DUP1 ISZERO PUSH2 0x39F JUMPI PUSH1 0x0 DUP1 REVERT JUMPDEST POP PUSH2 0x3BA PUSH1 0x4 DUP1 CALLDATASIZE SUB DUP2 ADD SWAP1 PUSH2 0x3B5 SWAP2 SWAP1 PUSH2 0x23FA JUMP JUMPDEST PUSH2 0xD9A JUMP JUMPDEST PUSH1 0x40 MLOAD PUSH2 0x3C7 SWAP2 SWAP1 PUSH2 0x1FD3 JUMP JUMPDEST PUSH1 0x40 MLOAD DUP1 SWAP2 SUB SWAP1 RETURN JUMPDEST CALLVALUE DUP1 ISZERO PUSH2 0x3DC JUMPI PUSH1 0x0 DUP1 REVERT JUMPDEST POP PUSH2 0x3E5 PUSH2 0xE9A JUMP JUMPDEST PUSH1 0x40 MLOAD PUSH2 0x3F2 SWAP2 SWAP1 PUSH2 0x202F JUMP JUMPDEST PUSH1 0x40 MLOAD DUP1 SWAP2 SUB SWAP1 RETURN JUMPDEST CALLVALUE DUP1 ISZERO PUSH2 0x407 JUMPI PUSH1 0x0 DUP1 REVERT JUMPDEST POP PUSH2 0x410 PUSH2 0xEC0 JUMP JUMPDEST PUSH1 0x40 MLOAD PUSH2 0x41D SWAP2 SWAP1 PUSH2 0x1FD3 JUMP JUMPDEST PUSH1 0x40 MLOAD DUP1 SWAP2 SUB SWAP1 RETURN JUMPDEST CALLVALUE DUP1 ISZERO PUSH2 0x432 JUMPI PUSH1 0x0 DUP1 REVERT JUMPDEST POP PUSH2 0x43B PUSH2 0xEC5 JUMP JUMPDEST PUSH1 0x40 MLOAD PUSH2 0x448 SWAP2 SWAP1 PUSH2 0x2596 JUMP JUMPDEST PUSH1 0x40 MLOAD DUP1 SWAP2 SUB SWAP1 RETURN JUMPDEST CALLVALUE DUP1 ISZERO PUSH2 0x45D JUMPI PUSH1 0x0 DUP1 REVERT JUMPDEST POP PUSH2 0x478 PUSH1 0x4 DUP1 CALLDATASIZE SUB DUP2 ADD SWAP1 PUSH2 0x473 SWAP2 SWAP1 PUSH2 0x25B8 JUMP JUMPDEST PUSH2 0xFEB JUMP JUMPDEST PUSH1 0x40 MLOAD PUSH2 0x489 SWAP6 SWAP5 SWAP4 SWAP3 SWAP2 SWAP1 PUSH2 0x260B JUMP JUMPDEST PUSH1 0x40 MLOAD DUP1 SWAP2 SUB SWAP1 RETURN JUMPDEST CALLVALUE DUP1 ISZERO PUSH2 0x49E JUMPI PUSH1 0x0 DUP1 REVERT JUMPDEST POP PUSH2 0x4A7 PUSH2 0x1103 JUMP JUMPDEST PUSH1 0x40 MLOAD PUSH2 0x4B4 SWAP2 SWAP1 PUSH2 0x202F JUMP JUMPDEST PUSH1 0x40 MLOAD DUP1 SWAP2 SUB SWAP1 RETURN JUMPDEST PUSH2 0x4D7 PUSH1 0x4 DUP1 CALLDATASIZE SUB DUP2 ADD SWAP1 PUSH2 0x4D2 SWAP2 SWAP1 PUSH2 0x265E JUMP JUMPDEST PUSH2 0x1129 JUMP JUMPDEST PUSH1 0x40 MLOAD PUSH2 0x4E4 SWAP2 SWAP1 PUSH2 0x239F JUMP JUMPDEST PUSH1 0x40 MLOAD DUP1 SWAP2 SUB SWAP1 RETURN JUMPDEST CALLVALUE DUP1 ISZERO PUSH2 0x4F9 JUMPI PUSH1 0x0 DUP1 REVERT JUMPDEST POP PUSH2 0x502 PUSH2 0x1419 JUMP JUMPDEST PUSH1 0x40 MLOAD PUSH2 0x50F SWAP2 SWAP1 PUSH2 0x202F JUMP JUMPDEST PUSH1 0x40 MLOAD DUP1 SWAP2 SUB SWAP1 RETURN JUMPDEST CALLVALUE DUP1 ISZERO PUSH2 0x524 JUMPI PUSH1 0x0 DUP1 REVERT JUMPDEST POP PUSH2 0x53F PUSH1 0x4 DUP1 CALLDATASIZE SUB DUP2 ADD SWAP1 PUSH2 0x53A SWAP2 SWAP1 PUSH2 0x208A JUMP JUMPDEST PUSH2 0x143F JUMP JUMPDEST STOP JUMPDEST CALLVALUE DUP1 ISZERO PUSH2 0x54D JUMPI PUSH1 0x0 DUP1 REVERT JUMPDEST POP PUSH2 0x556 PUSH2 0x148B JUMP JUMPDEST PUSH1 0x40 MLOAD PUSH2 0x563 SWAP2 SWAP1 PUSH2 0x202F JUMP JUMPDEST PUSH1 0x40 MLOAD DUP1 SWAP2 SUB SWAP1 RETURN JUMPDEST CALLVALUE DUP1 ISZERO PUSH2 0x578 JUMPI PUSH1 0x0 DUP1 REVERT JUMPDEST POP PUSH2 0x581 PUSH2 0x14B1 JUMP JUMPDEST PUSH1 0x40 MLOAD PUSH2 0x58E SWAP2 SWAP1 PUSH2 0x1FD3 JUMP JUMPDEST PUSH1 0x40 MLOAD DUP1 SWAP2 SUB SWAP1 RETURN JUMPDEST CALLVALUE DUP1 ISZERO PUSH2 0x5A3 JUMPI PUSH1 0x0 DUP1 REVERT JUMPDEST POP PUSH2 0x5AC PUSH2 0x14B7 JUMP JUMPDEST PUSH1 0x40 MLOAD PUSH2 0x5B9 SWAP2 SWAP1 PUSH2 0x1FD3 JUMP JUMPDEST PUSH1 0x40 MLOAD DUP1 SWAP2 SUB SWAP1 RETURN JUMPDEST CALLVALUE DUP1 ISZERO PUSH2 0x5CE JUMPI PUSH1 0x0 DUP1 REVERT JUMPDEST POP PUSH2 0x5E9 PUSH1 0x4 DUP1 CALLDATASIZE SUB DUP2 ADD SWAP1 PUSH2 0x5E4 SWAP2 SWAP1 PUSH2 0x276E JUMP JUMPDEST PUSH2 0x165F JUMP JUMPDEST STOP JUMPDEST CALLVALUE DUP1 ISZERO PUSH2 0x5F7 JUMPI PUSH1 0x0 DUP1 REVERT JUMPDEST POP PUSH2 0x612 PUSH1 0x4 DUP1 CALLDATASIZE SUB DUP2 ADD SWAP1 PUSH2 0x60D SWAP2 SWAP1 PUSH2 0x279B JUMP JUMPDEST PUSH2 0x1671 JUMP JUMPDEST PUSH1 0x40 MLOAD PUSH2 0x61F SWAP2 SWAP1 PUSH2 0x1FD3 JUMP JUMPDEST PUSH1 0x40 MLOAD DUP1 SWAP2 SUB SWAP1 RETURN JUMPDEST CALLVALUE DUP1 ISZERO PUSH2 0x634 JUMPI PUSH1 0x0 DUP1 REVERT JUMPDEST POP PUSH2 0x64F PUSH1 0x4 DUP1 CALLDATASIZE SUB DUP2 ADD SWAP1 PUSH2 0x64A SWAP2 SWAP1 PUSH2 0x283D JUMP JUMPDEST PUSH2 0x183E JUMP JUMPDEST PUSH1 0x40 MLOAD PUSH2 0x65D SWAP3 SWAP2 SWAP1 PUSH2 0x28B3 JUMP JUMPDEST PUSH1 0x40 MLOAD DUP1 SWAP2 SUB SWAP1 RETURN JUMPDEST PUSH2 0x66E PUSH2 0x1ACC JUMP JUMPDEST STOP JUMPDEST CALLVALUE DUP1 ISZERO PUSH2 0x67C JUMPI PUSH1 0x0 DUP1 REVERT JUMPDEST POP PUSH2 0x685 PUSH2 0x1AE2 JUMP JUMPDEST PUSH1 0x40 MLOAD PUSH2 0x692 SWAP2 SWAP1 PUSH2 0x202F JUMP JUMPDEST PUSH1 0x40 MLOAD DUP1 SWAP2 SUB SWAP1 RETURN JUMPDEST CALLVALUE DUP1 ISZERO PUSH2 0x6A7 JUMPI PUSH1 0x0 DUP1 REVERT JUMPDEST POP PUSH2 0x6C2 PUSH1 0x4 DUP1 CALLDATASIZE SUB DUP2 ADD SWAP1 PUSH2 0x6BD SWAP2 SWAP1 PUSH2 0x276E JUMP JUMPDEST PUSH2 0x1B08 JUMP JUMPDEST PUSH1 0x40 MLOAD PUSH2 0x6D1 SWAP4 SWAP3 SWAP2 SWAP1 PUSH2 0x28DC JUMP JUMPDEST PUSH1 0x40 MLOAD DUP1 SWAP2 SUB SWAP1 RETURN JUMPDEST CALLVALUE DUP1 ISZERO PUSH2 0x6E6 JUMPI PUSH1 0x0 DUP1 REVERT JUMPDEST POP PUSH2 0x701 PUSH1 0x4 DUP1 CALLDATASIZE SUB DUP2 ADD SWAP1 PUSH2 0x6FC SWAP2 SWAP1 PUSH2 0x276E JUMP JUMPDEST PUSH2 0x1B8F JUMP JUMPDEST STOP JUMPDEST CALLVALUE DUP1 ISZERO PUSH2 0x70F JUMPI PUSH1 0x0 DUP1 REVERT JUMPDEST POP PUSH2 0x718 PUSH2 0x1BA1 JUMP JUMPDEST PUSH1 0x40 MLOAD PUSH2 0x725 SWAP2 SWAP1 PUSH2 0x1FD3 JUMP JUMPDEST PUSH1 0x40 MLOAD DUP1 SWAP2 SUB SWAP1 RETURN JUMPDEST PUSH1 0x64 DUP2 JUMP JUMPDEST PUSH2 0x2710 DUP2 JUMP JUMPDEST PUSH1 0x0 DUP1 SLOAD SWAP1 PUSH2 0x100 EXP SWAP1 DIV PUSH20 0xFFFFFFFFFFFFFFFFFFFFFFFFFFFFFFFFFFFFFFFF AND DUP2 JUMP JUMPDEST PUSH2 0x765 PUSH2 0x1CB2 JUMP JUMPDEST DUP1 PUSH1 0x1 PUSH1 0x0 PUSH2 0x100 EXP DUP2 SLOAD DUP2 PUSH20 0xFFFFFFFFFFFFFFFFFFFFFFFFFFFFFFFFFFFFFFFF MUL NOT AND SWAP1 DUP4 PUSH20 0xFFFFFFFFFFFFFFFFFFFFFFFFFFFFFFFFFFFFFFFF AND MUL OR SWAP1 SSTORE POP POP JUMP JUMPDEST PUSH1 0x0 PUSH1 0x6 PUSH1 0x0 SWAP1 SLOAD SWAP1 PUSH2 0x100 EXP SWAP1 DIV PUSH20 0xFFFFFFFFFFFFFFFFFFFFFFFFFFFFFFFFFFFFFFFF AND PUSH20 0xFFFFFFFFFFFFFFFFFFFFFFFFFFFFFFFFFFFFFFFF AND CALLER PUSH20 0xFFFFFFFFFFFFFFFFFFFFFFFFFFFFFFFFFFFFFFFF AND EQ PUSH2 0x83B JUMPI PUSH1 0x40 MLOAD PUSH32 0x8C379A000000000000000000000000000000000000000000000000000000000 DUP2 MSTORE PUSH1 0x4 ADD PUSH2 0x832 SWAP1 PUSH2 0x2996 JUMP JUMPDEST PUSH1 0x40 MLOAD DUP1 SWAP2 SUB SWAP1 REVERT JUMPDEST PUSH1 0x8 PUSH1 0x0 PUSH2 0x849 DUP12 DUP10 PUSH2 0xADB JUMP JUMPDEST DUP2 MSTORE PUSH1 0x20 ADD SWAP1 DUP2 MSTORE PUSH1 0x20 ADD PUSH1 0x0 KECCAK256 PUSH1 0x0 SWAP1 SLOAD SWAP1 PUSH2 0x100 EXP SWAP1 DIV PUSH1 0xFF AND PUSH2 0x9F1 JUMPI PUSH1 0x9 PUSH1 0x40 MLOAD DUP1 PUSH1 0x60 ADD PUSH1 0x40 MSTORE DUP1 DUP12 PUSH20 0xFFFFFFFFFFFFFFFFFFFFFFFFFFFFFFFFFFFFFFFF AND DUP2 MSTORE PUSH1 0x20 ADD DUP13 PUSH2 0x8A8 PUSH1 0x1 DUP16 MLOAD PUSH2 0x1D42 SWAP1 SWAP2 SWAP1 PUSH4 0xFFFFFFFF AND JUMP JUMPDEST DUP2 MLOAD DUP2 LT PUSH2 0x8B9 JUMPI PUSH2 0x8B8 PUSH2 0x29B6 JUMP JUMPDEST JUMPDEST PUSH1 0x20 MUL PUSH1 0x20 ADD ADD MLOAD PUSH20 0xFFFFFFFFFFFFFFFFFFFFFFFFFFFFFFFFFFFFFFFF AND DUP2 MSTORE PUSH1 0x20 ADD DUP9 ISZERO ISZERO DUP2 MSTORE POP SWAP1 DUP1 PUSH1 0x1 DUP2 SLOAD ADD DUP1 DUP3 SSTORE DUP1 SWAP2 POP POP PUSH1 0x1 SWAP1 SUB SWAP1 PUSH1 0x0 MSTORE PUSH1 0x20 PUSH1 0x0 KECCAK256 SWAP1 PUSH1 0x2 MUL ADD PUSH1 0x0 SWAP1 SWAP2 SWAP1 SWAP2 SWAP1 SWAP2 POP PUSH1 0x0 DUP3 ADD MLOAD DUP2 PUSH1 0x0 ADD PUSH1 0x0 PUSH2 0x100 EXP DUP2 SLOAD DUP2 PUSH20 0xFFFFFFFFFFFFFFFFFFFFFFFFFFFFFFFFFFFFFFFF MUL NOT AND SWAP1 DUP4 PUSH20 0xFFFFFFFFFFFFFFFFFFFFFFFFFFFFFFFFFFFFFFFF AND MUL OR SWAP1 SSTORE POP PUSH1 0x20 DUP3 ADD MLOAD DUP2 PUSH1 0x1 ADD PUSH1 0x0 PUSH2 0x100 EXP DUP2 SLOAD DUP2 PUSH20 0xFFFFFFFFFFFFFFFFFFFFFFFFFFFFFFFFFFFFFFFF MUL NOT AND SWAP1 DUP4 PUSH20 0xFFFFFFFFFFFFFFFFFFFFFFFFFFFFFFFFFFFFFFFF AND MUL OR SWAP1 SSTORE POP PUSH1 0x40 DUP3 ADD MLOAD DUP2 PUSH1 0x1 ADD PUSH1 0x14 PUSH2 0x100 EXP DUP2 SLOAD DUP2 PUSH1 0xFF MUL NOT AND SWAP1 DUP4 ISZERO ISZERO MUL OR SWAP1 SSTORE POP POP POP PUSH1 0x1 PUSH1 0x8 PUSH1 0x0 PUSH2 0x9CB DUP13 DUP11 PUSH2 0xADB JUMP JUMPDEST DUP2 MSTORE PUSH1 0x20 ADD SWAP1 DUP2 MSTORE PUSH1 0x20 ADD PUSH1 0x0 KECCAK256 PUSH1 0x0 PUSH2 0x100 EXP DUP2 SLOAD DUP2 PUSH1 0xFF MUL NOT AND SWAP1 DUP4 ISZERO ISZERO MUL OR SWAP1 SSTORE POP JUMPDEST PUSH1 0x0 PUSH1 0x2 PUSH1 0x0 SWAP1 SLOAD SWAP1 PUSH2 0x100 EXP SWAP1 DIV PUSH20 0xFFFFFFFFFFFFFFFFFFFFFFFFFFFFFFFFFFFFFFFF AND SWAP1 POP DUP1 PUSH20 0xFFFFFFFFFFFFFFFFFFFFFFFFFFFFFFFFFFFFFFFF AND PUSH4 0x5B88E8C6 CALLVALUE DUP14 DUP14 DUP14 DUP14 DUP14 DUP14 DUP14 DUP14 DUP14 PUSH1 0x40 MLOAD DUP12 PUSH4 0xFFFFFFFF AND PUSH1 0xE0 SHL DUP2 MSTORE PUSH1 0x4 ADD PUSH2 0xA62 SWAP10 SWAP9 SWAP8 SWAP7 SWAP6 SWAP5 SWAP4 SWAP3 SWAP2 SWAP1 PUSH2 0x2A94 JUMP JUMPDEST PUSH1 0x20 PUSH1 0x40 MLOAD DUP1 DUP4 SUB DUP2 DUP6 DUP9 GAS CALL ISZERO DUP1 ISZERO PUSH2 0xA80 JUMPI RETURNDATASIZE PUSH1 0x0 DUP1 RETURNDATACOPY RETURNDATASIZE PUSH1 0x0 REVERT JUMPDEST POP POP POP POP POP PUSH1 0x40 MLOAD RETURNDATASIZE PUSH1 0x1F NOT PUSH1 0x1F DUP3 ADD AND DUP3 ADD DUP1 PUSH1 0x40 MSTORE POP DUP2 ADD SWAP1 PUSH2 0xAA5 SWAP2 SWAP1 PUSH2 0x2B3D JUMP JUMPDEST SWAP2 POP POP SWAP10 SWAP9 POP POP POP POP POP POP POP POP POP JUMP JUMPDEST PUSH1 0x3 PUSH1 0x0 SWAP1 SLOAD SWAP1 PUSH2 0x100 EXP SWAP1 DIV PUSH20 0xFFFFFFFFFFFFFFFFFFFFFFFFFFFFFFFFFFFFFFFF AND DUP2 JUMP JUMPDEST PUSH1 0x0 DUP3 DUP3 PUSH1 0x40 MLOAD PUSH1 0x20 ADD PUSH2 0xAF0 SWAP3 SWAP2 SWAP1 PUSH2 0x2BFA JUMP JUMPDEST PUSH1 0x40 MLOAD PUSH1 0x20 DUP2 DUP4 SUB SUB DUP2 MSTORE SWAP1 PUSH1 0x40 MSTORE DUP1 MLOAD SWAP1 PUSH1 0x20 ADD KECCAK256 SWAP1 POP SWAP3 SWAP2 POP POP JUMP JUMPDEST PUSH1 0x0 DUP1 PUSH1 0x0 SWAP1 POP PUSH1 0x0 DUP1 JUMPDEST PUSH1 0x9 DUP1 SLOAD SWAP1 POP DUP2 LT ISZERO PUSH2 0xD03 JUMPI PUSH1 0x0 DUP1 PUSH1 0x0 DUP1 PUSH2 0xBF3 PUSH1 0x9 DUP7 DUP2 SLOAD DUP2 LT PUSH2 0xB43 JUMPI PUSH2 0xB42 PUSH2 0x29B6 JUMP JUMPDEST JUMPDEST SWAP1 PUSH1 0x0 MSTORE PUSH1 0x20 PUSH1 0x0 KECCAK256 SWAP1 PUSH1 0x2 MUL ADD PUSH1 0x0 ADD PUSH1 0x0 SWAP1 SLOAD SWAP1 PUSH2 0x100 EXP SWAP1 DIV PUSH20 0xFFFFFFFFFFFFFFFFFFFFFFFFFFFFFFFFFFFFFFFF AND PUSH1 0x9 DUP8 DUP2 SLOAD DUP2 LT PUSH2 0xB89 JUMPI PUSH2 0xB88 PUSH2 0x29B6 JUMP JUMPDEST JUMPDEST SWAP1 PUSH1 0x0 MSTORE PUSH1 0x20 PUSH1 0x0 KECCAK256 SWAP1 PUSH1 0x2 MUL ADD PUSH1 0x1 ADD PUSH1 0x0 SWAP1 SLOAD SWAP1 PUSH2 0x100 EXP SWAP1 DIV PUSH20 0xFFFFFFFFFFFFFFFFFFFFFFFFFFFFFFFFFFFFFFFF AND PUSH1 0x9 DUP9 DUP2 SLOAD DUP2 LT PUSH2 0xBCF JUMPI PUSH2 0xBCE PUSH2 0x29B6 JUMP JUMPDEST JUMPDEST SWAP1 PUSH1 0x0 MSTORE PUSH1 0x20 PUSH1 0x0 KECCAK256 SWAP1 PUSH1 0x2 MUL ADD PUSH1 0x1 ADD PUSH1 0x14 SWAP1 SLOAD SWAP1 PUSH2 0x100 EXP SWAP1 DIV PUSH1 0xFF AND PUSH2 0xFEB JUMP JUMPDEST POP SWAP4 POP SWAP4 POP SWAP4 POP SWAP4 POP PUSH1 0x0 DUP4 GT ISZERO PUSH2 0xCEC JUMPI PUSH2 0xCD0 PUSH1 0x9 DUP7 DUP2 SLOAD DUP2 LT PUSH2 0xC1C JUMPI PUSH2 0xC1B PUSH2 0x29B6 JUMP JUMPDEST JUMPDEST SWAP1 PUSH1 0x0 MSTORE PUSH1 0x20 PUSH1 0x0 KECCAK256 SWAP1 PUSH1 0x2 MUL ADD PUSH1 0x0 ADD PUSH1 0x0 SWAP1 SLOAD SWAP1 PUSH2 0x100 EXP SWAP1 DIV PUSH20 0xFFFFFFFFFFFFFFFFFFFFFFFFFFFFFFFFFFFFFFFF AND PUSH1 0x9 DUP8 DUP2 SLOAD DUP2 LT PUSH2 0xC62 JUMPI PUSH2 0xC61 PUSH2 0x29B6 JUMP JUMPDEST JUMPDEST SWAP1 PUSH1 0x0 MSTORE PUSH1 0x20 PUSH1 0x0 KECCAK256 SWAP1 PUSH1 0x2 MUL ADD PUSH1 0x1 ADD PUSH1 0x0 SWAP1 SLOAD SWAP1 PUSH2 0x100 EXP SWAP1 DIV PUSH20 0xFFFFFFFFFFFFFFFFFFFFFFFFFFFFFFFFFFFFFFFF AND PUSH1 0x9 DUP9 DUP2 SLOAD DUP2 LT PUSH2 0xCA8 JUMPI PUSH2 0xCA7 PUSH2 0x29B6 JUMP JUMPDEST JUMPDEST SWAP1 PUSH1 0x0 MSTORE PUSH1 0x20 PUSH1 0x0 KECCAK256 SWAP1 PUSH1 0x2 MUL ADD PUSH1 0x1 ADD PUSH1 0x14 SWAP1 SLOAD SWAP1 PUSH2 0x100 EXP SWAP1 DIV PUSH1 0xFF AND DUP7 DUP9 DUP8 DUP8 PUSH2 0x1671 JUMP JUMPDEST DUP8 PUSH2 0xCDB SWAP2 SWAP1 PUSH2 0x2C55 JUMP JUMPDEST SWAP7 POP DUP4 DUP7 PUSH2 0xCE9 SWAP2 SWAP1 PUSH2 0x2C55 JUMP JUMPDEST SWAP6 POP JUMPDEST POP POP POP POP DUP1 DUP1 PUSH2 0xCFB SWAP1 PUSH2 0x2C89 JUMP JUMPDEST SWAP2 POP POP PUSH2 0xB19 JUMP JUMPDEST POP PUSH2 0xD3E PUSH2 0xD2F PUSH2 0x2710 PUSH2 0xD21 PUSH1 0x64 DUP6 PUSH2 0x1D8C SWAP1 SWAP2 SWAP1 PUSH4 0xFFFFFFFF AND JUMP JUMPDEST PUSH2 0x1E06 SWAP1 SWAP2 SWAP1 PUSH4 0xFFFFFFFF AND JUMP JUMPDEST DUP4 PUSH2 0x1D42 SWAP1 SWAP2 SWAP1 PUSH4 0xFFFFFFFF AND JUMP JUMPDEST SWAP2 POP DUP2 SWAP3 POP POP POP SWAP1 JUMP JUMPDEST PUSH2 0xD50 PUSH2 0x1CB2 JUMP JUMPDEST DUP1 PUSH1 0x3 PUSH1 0x0 PUSH2 0x100 EXP DUP2 SLOAD DUP2 PUSH20 0xFFFFFFFFFFFFFFFFFFFFFFFFFFFFFFFFFFFFFFFF MUL NOT AND SWAP1 DUP4 PUSH20 0xFFFFFFFFFFFFFFFFFFFFFFFFFFFFFFFFFFFFFFFF AND MUL OR SWAP1 SSTORE POP POP JUMP JUMPDEST PUSH1 0x7 SLOAD DUP2 JUMP JUMPDEST PUSH1 0x0 DUP1 DUP6 SUB PUSH2 0xDAC JUMPI PUSH1 0x0 SWAP1 POP PUSH2 0xE90 JUMP JUMPDEST PUSH1 0x0 DUP1 PUSH1 0x5 PUSH1 0x0 SWAP1 SLOAD SWAP1 PUSH2 0x100 EXP SWAP1 DIV PUSH20 0xFFFFFFFFFFFFFFFFFFFFFFFFFFFFFFFFFFFFFFFF AND PUSH20 0xFFFFFFFFFFFFFFFFFFFFFFFFFFFFFFFFFFFFFFFF AND PUSH4 0x5C07EAAB DUP11 DUP9 DUP9 DUP13 DUP10 PUSH1 0x40 MLOAD DUP7 PUSH4 0xFFFFFFFF AND PUSH1 0xE0 SHL DUP2 MSTORE PUSH1 0x4 ADD PUSH2 0xE12 SWAP6 SWAP5 SWAP4 SWAP3 SWAP2 SWAP1 PUSH2 0x2CD1 JUMP JUMPDEST PUSH1 0x40 DUP1 MLOAD DUP1 DUP4 SUB DUP2 DUP7 GAS STATICCALL ISZERO DUP1 ISZERO PUSH2 0xE2E JUMPI RETURNDATASIZE PUSH1 0x0 DUP1 RETURNDATACOPY RETURNDATASIZE PUSH1 0x0 REVERT JUMPDEST POP POP POP POP PUSH1 0x40 MLOAD RETURNDATASIZE PUSH1 0x1F NOT PUSH1 0x1F DUP3 ADD AND DUP3 ADD DUP1 PUSH1 0x40 MSTORE POP DUP2 ADD SWAP1 PUSH2 0xE52 SWAP2 SWAP1 PUSH2 0x2D4E JUMP JUMPDEST SWAP2 POP SWAP2 POP DUP2 ISZERO PUSH2 0xE78 JUMPI PUSH2 0xE6F DUP2 DUP9 PUSH2 0x1E50 SWAP1 SWAP2 SWAP1 PUSH4 0xFFFFFFFF AND JUMP JUMPDEST SWAP3 POP POP POP PUSH2 0xE90 JUMP JUMPDEST PUSH2 0xE8B DUP2 DUP9 PUSH2 0x1D42 SWAP1 SWAP2 SWAP1 PUSH4 0xFFFFFFFF AND JUMP JUMPDEST SWAP3 POP POP POP JUMPDEST SWAP7 SWAP6 POP POP POP POP POP POP JUMP JUMPDEST PUSH1 0x1 PUSH1 0x0 SWAP1 SLOAD SWAP1 PUSH2 0x100 EXP SWAP1 DIV PUSH20 0xFFFFFFFFFFFFFFFFFFFFFFFFFFFFFFFFFFFFFFFF AND DUP2 JUMP JUMPDEST PUSH1 0x64 DUP2 JUMP JUMPDEST PUSH1 0x60 PUSH1 0x9 DUP1 SLOAD DUP1 PUSH1 0x20 MUL PUSH1 0x20 ADD PUSH1 0x40 MLOAD SWAP1 DUP2 ADD PUSH1 0x40 MSTORE DUP1 SWAP3 SWAP2 SWAP1 DUP2 DUP2 MSTORE PUSH1 0x20 ADD PUSH1 0x0 SWAP1 JUMPDEST DUP3 DUP3 LT ISZERO PUSH2 0xFE2 JUMPI DUP4 DUP3 SWAP1 PUSH1 0x0 MSTORE PUSH1 0x20 PUSH1 0x0 KECCAK256 SWAP1 PUSH1 0x2 MUL ADD PUSH1 0x40 MLOAD DUP1 PUSH1 0x60 ADD PUSH1 0x40 MSTORE SWAP1 DUP2 PUSH1 0x0 DUP3 ADD PUSH1 0x0 SWAP1 SLOAD SWAP1 PUSH2 0x100 EXP SWAP1 DIV PUSH20 0xFFFFFFFFFFFFFFFFFFFFFFFFFFFFFFFFFFFFFFFF AND PUSH20 0xFFFFFFFFFFFFFFFFFFFFFFFFFFFFFFFFFFFFFFFF AND PUSH20 0xFFFFFFFFFFFFFFFFFFFFFFFFFFFFFFFFFFFFFFFF AND DUP2 MSTORE PUSH1 0x20 ADD PUSH1 0x1 DUP3 ADD PUSH1 0x0 SWAP1 SLOAD SWAP1 PUSH2 0x100 EXP SWAP1 DIV PUSH20 0xFFFFFFFFFFFFFFFFFFFFFFFFFFFFFFFFFFFFFFFF AND PUSH20 0xFFFFFFFFFFFFFFFFFFFFFFFFFFFFFFFFFFFFFFFF AND PUSH20 0xFFFFFFFFFFFFFFFFFFFFFFFFFFFFFFFFFFFFFFFF AND DUP2 MSTORE PUSH1 0x20 ADD PUSH1 0x1 DUP3 ADD PUSH1 0x14 SWAP1 SLOAD SWAP1 PUSH2 0x100 EXP SWAP1 DIV PUSH1 0xFF AND ISZERO ISZERO ISZERO ISZERO DUP2 MSTORE POP POP DUP2 MSTORE PUSH1 0x20 ADD SWAP1 PUSH1 0x1 ADD SWAP1 PUSH2 0xEE9 JUMP JUMPDEST POP POP POP POP SWAP1 POP SWAP1 JUMP JUMPDEST PUSH1 0x0 DUP1 PUSH1 0x0 DUP1 PUSH1 0x0 PUSH2 0xFFB PUSH2 0x1F75 JUMP JUMPDEST PUSH1 0x5 PUSH1 0x0 SWAP1 SLOAD SWAP1 PUSH2 0x100 EXP SWAP1 DIV PUSH20 0xFFFFFFFFFFFFFFFFFFFFFFFFFFFFFFFFFFFFFFFF AND PUSH20 0xFFFFFFFFFFFFFFFFFFFFFFFFFFFFFFFFFFFFFFFF AND PUSH4 0x4A3F088D ADDRESS DUP11 DUP13 DUP12 PUSH1 0x40 MLOAD DUP6 PUSH4 0xFFFFFFFF AND PUSH1 0xE0 SHL DUP2 MSTORE PUSH1 0x4 ADD PUSH2 0x105C SWAP5 SWAP4 SWAP3 SWAP2 SWAP1 PUSH2 0x2D8E JUMP JUMPDEST PUSH2 0x100 PUSH1 0x40 MLOAD DUP1 DUP4 SUB DUP2 DUP7 GAS STATICCALL ISZERO DUP1 ISZERO PUSH2 0x107A JUMPI RETURNDATASIZE PUSH1 0x0 DUP1 RETURNDATACOPY RETURNDATASIZE PUSH1 0x0 REVERT JUMPDEST POP POP POP POP PUSH1 0x40 MLOAD RETURNDATASIZE PUSH1 0x1F NOT PUSH1 0x1F DUP3 ADD AND DUP3 ADD DUP1 PUSH1 0x40 MSTORE POP DUP2 ADD SWAP1 PUSH2 0x109E SWAP2 SWAP1 PUSH2 0x2DD3 JUMP JUMPDEST SWAP1 SWAP2 SWAP3 POP SWAP1 SWAP2 POP SWAP1 POP DUP6 PUSH1 0x0 ADD DUP7 PUSH1 0x20 ADD DUP8 PUSH1 0x40 ADD DUP9 PUSH1 0x60 ADD DUP10 PUSH1 0xC0 ADD DUP6 DUP2 MSTORE POP DUP6 DUP2 MSTORE POP DUP6 DUP2 MSTORE POP DUP6 DUP2 MSTORE POP DUP6 DUP2 MSTORE POP POP POP POP POP POP DUP1 PUSH1 0x0 ADD MLOAD DUP2 PUSH1 0x20 ADD MLOAD DUP3 PUSH1 0x40 ADD MLOAD DUP4 PUSH1 0x60 ADD MLOAD DUP5 PUSH1 0xC0 ADD MLOAD SWAP6 POP SWAP6 POP SWAP6 POP SWAP6 POP SWAP6 POP POP SWAP4 SWAP8 SWAP3 SWAP7 POP SWAP4 POP SWAP4 POP JUMP JUMPDEST PUSH1 0x6 PUSH1 0x0 SWAP1 SLOAD SWAP1 PUSH2 0x100 EXP SWAP1 DIV PUSH20 0xFFFFFFFFFFFFFFFFFFFFFFFFFFFFFFFFFFFFFFFF AND DUP2 JUMP JUMPDEST PUSH1 0x0 PUSH1 0x6 PUSH1 0x0 SWAP1 SLOAD SWAP1 PUSH2 0x100 EXP SWAP1 DIV PUSH20 0xFFFFFFFFFFFFFFFFFFFFFFFFFFFFFFFFFFFFFFFF AND PUSH20 0xFFFFFFFFFFFFFFFFFFFFFFFFFFFFFFFFFFFFFFFF AND CALLER PUSH20 0xFFFFFFFFFFFFFFFFFFFFFFFFFFFFFFFFFFFFFFFF AND EQ DUP1 PUSH2 0x11D4 JUMPI POP PUSH1 0x1 PUSH1 0x0 SWAP1 SLOAD SWAP1 PUSH2 0x100 EXP SWAP1 DIV PUSH20 0xFFFFFFFFFFFFFFFFFFFFFFFFFFFFFFFFFFFFFFFF AND PUSH20 0xFFFFFFFFFFFFFFFFFFFFFFFFFFFFFFFFFFFFFFFF AND CALLER PUSH20 0xFFFFFFFFFFFFFFFFFFFFFFFFFFFFFFFFFFFFFFFF AND EQ JUMPDEST PUSH2 0x1213 JUMPI PUSH1 0x40 MLOAD PUSH32 0x8C379A000000000000000000000000000000000000000000000000000000000 DUP2 MSTORE PUSH1 0x4 ADD PUSH2 0x120A SWAP1 PUSH2 0x2EFB JUMP JUMPDEST PUSH1 0x40 MLOAD DUP1 SWAP2 SUB SWAP1 REVERT JUMPDEST DUP4 CALLVALUE EQ PUSH2 0x1255 JUMPI PUSH1 0x40 MLOAD PUSH32 0x8C379A000000000000000000000000000000000000000000000000000000000 DUP2 MSTORE PUSH1 0x4 ADD PUSH2 0x124C SWAP1 PUSH2 0x2F67 JUMP JUMPDEST PUSH1 0x40 MLOAD DUP1 SWAP2 SUB SWAP1 REVERT JUMPDEST PUSH1 0x0 PUSH1 0x1 PUSH1 0x0 SWAP1 SLOAD SWAP1 PUSH2 0x100 EXP SWAP1 DIV PUSH20 0xFFFFFFFFFFFFFFFFFFFFFFFFFFFFFFFFFFFFFFFF AND PUSH20 0xFFFFFFFFFFFFFFFFFFFFFFFFFFFFFFFFFFFFFFFF AND PUSH4 0xD04F246B PUSH1 0x6 PUSH1 0x0 SWAP1 SLOAD SWAP1 PUSH2 0x100 EXP SWAP1 DIV PUSH20 0xFFFFFFFFFFFFFFFFFFFFFFFFFFFFFFFFFFFFFFFF AND PUSH1 0x40 MLOAD DUP3 PUSH4 0xFFFFFFFF AND PUSH1 0xE0 SHL DUP2 MSTORE PUSH1 0x4 ADD PUSH2 0x12D4 SWAP2 SWAP1 PUSH2 0x202F JUMP JUMPDEST PUSH1 0x20 PUSH1 0x40 MLOAD DUP1 DUP4 SUB DUP2 DUP7 GAS STATICCALL ISZERO DUP1 ISZERO PUSH2 0x12F1 JUMPI RETURNDATASIZE PUSH1 0x0 DUP1 RETURNDATACOPY RETURNDATASIZE PUSH1 0x0 REVERT JUMPDEST POP POP POP POP PUSH1 0x40 MLOAD RETURNDATASIZE PUSH1 0x1F NOT PUSH1 0x1F DUP3 ADD AND DUP3 ADD DUP1 PUSH1 0x40 MSTORE POP DUP2 ADD SWAP1 PUSH2 0x1315 SWAP2 SWAP1 PUSH2 0x2F87 JUMP JUMPDEST EQ PUSH2 0x1355 JUMPI PUSH1 0x40 MLOAD PUSH32 0x8C379A000000000000000000000000000000000000000000000000000000000 DUP2 MSTORE PUSH1 0x4 ADD PUSH2 0x134C SWAP1 PUSH2 0x3026 JUMP JUMPDEST PUSH1 0x40 MLOAD DUP1 SWAP2 SUB SWAP1 REVERT JUMPDEST PUSH1 0x2 PUSH1 0x0 SWAP1 SLOAD SWAP1 PUSH2 0x100 EXP SWAP1 DIV PUSH20 0xFFFFFFFFFFFFFFFFFFFFFFFFFFFFFFFFFFFFFFFF AND PUSH20 0xFFFFFFFFFFFFFFFFFFFFFFFFFFFFFFFFFFFFFFFF AND PUSH4 0x7BE7D141 CALLVALUE DUP15 DUP15 DUP15 DUP15 DUP15 DUP15 DUP15 DUP15 DUP15 DUP15 DUP15 PUSH1 0x40 MLOAD DUP14 PUSH4 0xFFFFFFFF AND PUSH1 0xE0 SHL DUP2 MSTORE PUSH1 0x4 ADD PUSH2 0x13C5 SWAP12 SWAP11 SWAP10 SWAP9 SWAP8 SWAP7 SWAP6 SWAP5 SWAP4 SWAP3 SWAP2 SWAP1 PUSH2 0x3046 JUMP JUMPDEST PUSH1 0x20 PUSH1 0x40 MLOAD DUP1 DUP4 SUB DUP2 DUP6 DUP9 GAS CALL ISZERO DUP1 ISZERO PUSH2 0x13E3 JUMPI RETURNDATASIZE PUSH1 0x0 DUP1 RETURNDATACOPY RETURNDATASIZE PUSH1 0x0 REVERT JUMPDEST POP POP POP POP POP PUSH1 0x40 MLOAD RETURNDATASIZE PUSH1 0x1F NOT PUSH1 0x1F DUP3 ADD AND DUP3 ADD DUP1 PUSH1 0x40 MSTORE POP DUP2 ADD SWAP1 PUSH2 0x1408 SWAP2 SWAP1 PUSH2 0x2B3D JUMP JUMPDEST SWAP1 POP SWAP12 SWAP11 POP POP POP POP POP POP POP POP POP POP POP JUMP JUMPDEST PUSH1 0x4 PUSH1 0x0 SWAP1 SLOAD SWAP1 PUSH2 0x100 EXP SWAP1 DIV PUSH20 0xFFFFFFFFFFFFFFFFFFFFFFFFFFFFFFFFFFFFFFFF AND DUP2 JUMP JUMPDEST PUSH2 0x1447 PUSH2 0x1CB2 JUMP JUMPDEST DUP1 PUSH1 0x2 PUSH1 0x0 PUSH2 0x100 EXP DUP2 SLOAD DUP2 PUSH20 0xFFFFFFFFFFFFFFFFFFFFFFFFFFFFFFFFFFFFFFFF MUL NOT AND SWAP1 DUP4 PUSH20 0xFFFFFFFFFFFFFFFFFFFFFFFFFFFFFFFFFFFFFFFF AND MUL OR SWAP1 SSTORE POP POP JUMP JUMPDEST PUSH1 0x5 PUSH1 0x0 SWAP1 SLOAD SWAP1 PUSH2 0x100 EXP SWAP1 DIV PUSH20 0xFFFFFFFFFFFFFFFFFFFFFFFFFFFFFFFFFFFFFFFF AND DUP2 JUMP JUMPDEST PUSH2 0x2710 DUP2 JUMP JUMPDEST PUSH1 0x0 DUP1 PUSH1 0x0 SWAP1 POP PUSH1 0x0 JUMPDEST PUSH1 0x9 DUP1 SLOAD SWAP1 POP DUP2 LT ISZERO PUSH2 0x1657 JUMPI PUSH1 0x0 DUP1 PUSH1 0x0 DUP1 PUSH2 0x159B PUSH1 0x9 DUP7 DUP2 SLOAD DUP2 LT PUSH2 0x14EB JUMPI PUSH2 0x14EA PUSH2 0x29B6 JUMP JUMPDEST JUMPDEST SWAP1 PUSH1 0x0 MSTORE PUSH1 0x20 PUSH1 0x0 KECCAK256 SWAP1 PUSH1 0x2 MUL ADD PUSH1 0x0 ADD PUSH1 0x0 SWAP1 SLOAD SWAP1 PUSH2 0x100 EXP SWAP1 DIV PUSH20 0xFFFFFFFFFFFFFFFFFFFFFFFFFFFFFFFFFFFFFFFF AND PUSH1 0x9 DUP8 DUP2 SLOAD DUP2 LT PUSH2 0x1531 JUMPI PUSH2 0x1530 PUSH2 0x29B6 JUMP JUMPDEST JUMPDEST SWAP1 PUSH1 0x0 MSTORE PUSH1 0x20 PUSH1 0x0 KECCAK256 SWAP1 PUSH1 0x2 MUL ADD PUSH1 0x1 ADD PUSH1 0x0 SWAP1 SLOAD SWAP1 PUSH2 0x100 EXP SWAP1 DIV PUSH20 0xFFFFFFFFFFFFFFFFFFFFFFFFFFFFFFFFFFFFFFFF AND PUSH1 0x9 DUP9 DUP2 SLOAD DUP2 LT PUSH2 0x1577 JUMPI PUSH2 0x1576 PUSH2 0x29B6 JUMP JUMPDEST JUMPDEST SWAP1 PUSH1 0x0 MSTORE PUSH1 0x20 PUSH1 0x0 KECCAK256 SWAP1 PUSH1 0x2 MUL ADD PUSH1 0x1 ADD PUSH1 0x14 SWAP1 SLOAD SWAP1 PUSH2 0x100 EXP SWAP1 DIV PUSH1 0xFF AND PUSH2 0xFEB JUMP JUMPDEST SWAP5 POP POP SWAP4 POP SWAP4 POP SWAP4 POP PUSH1 0x0 DUP4 GT ISZERO PUSH2 0x1640 JUMPI PUSH2 0x1632 PUSH1 0x9 DUP7 DUP2 SLOAD DUP2 LT PUSH2 0x15C4 JUMPI PUSH2 0x15C3 PUSH2 0x29B6 JUMP JUMPDEST JUMPDEST SWAP1 PUSH1 0x0 MSTORE PUSH1 0x20 PUSH1 0x0 KECCAK256 SWAP1 PUSH1 0x2 MUL ADD PUSH1 0x0 ADD PUSH1 0x0 SWAP1 SLOAD SWAP1 PUSH2 0x100 EXP SWAP1 DIV PUSH20 0xFFFFFFFFFFFFFFFFFFFFFFFFFFFFFFFFFFFFFFFF AND PUSH1 0x9 DUP8 DUP2 SLOAD DUP2 LT PUSH2 0x160A JUMPI PUSH2 0x1609 PUSH2 0x29B6 JUMP JUMPDEST JUMPDEST SWAP1 PUSH1 0x0 MSTORE PUSH1 0x20 PUSH1 0x0 KECCAK256 SWAP1 PUSH1 0x2 MUL ADD PUSH1 0x1 ADD PUSH1 0x14 SWAP1 SLOAD SWAP1 PUSH2 0x100 EXP SWAP1 DIV PUSH1 0xFF AND DUP6 DUP8 DUP7 DUP7 PUSH2 0xD9A JUMP JUMPDEST DUP7 PUSH2 0x163D SWAP2 SWAP1 PUSH2 0x2C55 JUMP JUMPDEST SWAP6 POP JUMPDEST POP POP POP POP DUP1 DUP1 PUSH2 0x164F SWAP1 PUSH2 0x2C89 JUMP JUMPDEST SWAP2 POP POP PUSH2 0x14C1 JUMP JUMPDEST POP DUP1 SWAP2 POP POP SWAP1 JUMP JUMPDEST PUSH2 0x1667 PUSH2 0x1CB2 JUMP JUMPDEST DUP1 PUSH1 0x7 DUP2 SWAP1 SSTORE POP POP JUMP JUMPDEST PUSH1 0x0 DUP1 PUSH1 0x0 PUSH2 0x1682 DUP11 DUP8 DUP8 DUP12 PUSH2 0x183E JUMP JUMPDEST SWAP2 POP SWAP2 POP PUSH1 0x0 PUSH1 0x5 PUSH1 0x0 SWAP1 SLOAD SWAP1 PUSH2 0x100 EXP SWAP1 DIV PUSH20 0xFFFFFFFFFFFFFFFFFFFFFFFFFFFFFFFFFFFFFFFF AND PUSH20 0xFFFFFFFFFFFFFFFFFFFFFFFFFFFFFFFFFFFFFFFF AND PUSH4 0xCC5B8144 DUP12 DUP10 DUP9 PUSH1 0x40 MLOAD DUP5 PUSH4 0xFFFFFFFF AND PUSH1 0xE0 SHL DUP2 MSTORE PUSH1 0x4 ADD PUSH2 0x16E7 SWAP4 SWAP3 SWAP2 SWAP1 PUSH2 0x30F8 JUMP JUMPDEST PUSH1 0x20 PUSH1 0x40 MLOAD DUP1 DUP4 SUB DUP2 DUP7 GAS STATICCALL ISZERO DUP1 ISZERO PUSH2 0x1704 JUMPI RETURNDATASIZE PUSH1 0x0 DUP1 RETURNDATACOPY RETURNDATASIZE PUSH1 0x0 REVERT JUMPDEST POP POP POP POP PUSH1 0x40 MLOAD RETURNDATASIZE PUSH1 0x1F NOT PUSH1 0x1F DUP3 ADD AND DUP3 ADD DUP1 PUSH1 0x40 MSTORE POP DUP2 ADD SWAP1 PUSH2 0x1728 SWAP2 SWAP1 PUSH2 0x2F87 JUMP JUMPDEST SWAP1 POP PUSH1 0x5 PUSH1 0x0 SWAP1 SLOAD SWAP1 PUSH2 0x100 EXP SWAP1 DIV PUSH20 0xFFFFFFFFFFFFFFFFFFFFFFFFFFFFFFFFFFFFFFFF AND PUSH20 0xFFFFFFFFFFFFFFFFFFFFFFFFFFFFFFFFFFFFFFFF AND PUSH4 0x17BBF25C DUP9 PUSH1 0x40 MLOAD DUP3 PUSH4 0xFFFFFFFF AND PUSH1 0xE0 SHL DUP2 MSTORE PUSH1 0x4 ADD PUSH2 0x1785 SWAP2 SWAP1 PUSH2 0x1FD3 JUMP JUMPDEST PUSH1 0x20 PUSH1 0x40 MLOAD DUP1 DUP4 SUB DUP2 DUP7 GAS STATICCALL ISZERO DUP1 ISZERO PUSH2 0x17A2 JUMPI RETURNDATASIZE PUSH1 0x0 DUP1 RETURNDATACOPY RETURNDATASIZE PUSH1 0x0 REVERT JUMPDEST POP POP POP POP PUSH1 0x40 MLOAD RETURNDATASIZE PUSH1 0x1F NOT PUSH1 0x1F DUP3 ADD AND DUP3 ADD DUP1 PUSH1 0x40 MSTORE POP DUP2 ADD SWAP1 PUSH2 0x17C6 SWAP2 SWAP1 PUSH2 0x2F87 JUMP JUMPDEST DUP2 PUSH2 0x17D1 SWAP2 SWAP1 PUSH2 0x2C55 JUMP JUMPDEST SWAP1 POP DUP3 ISZERO PUSH2 0x1808 JUMPI PUSH2 0x17FE DUP2 PUSH2 0x17F0 DUP5 DUP12 PUSH2 0x1E50 SWAP1 SWAP2 SWAP1 PUSH4 0xFFFFFFFF AND JUMP JUMPDEST PUSH2 0x1D42 SWAP1 SWAP2 SWAP1 PUSH4 0xFFFFFFFF AND JUMP JUMPDEST SWAP4 POP POP POP POP PUSH2 0x1833 JUMP JUMPDEST PUSH2 0x182D DUP2 PUSH2 0x181F DUP5 DUP12 PUSH2 0x1D42 SWAP1 SWAP2 SWAP1 PUSH4 0xFFFFFFFF AND JUMP JUMPDEST PUSH2 0x1D42 SWAP1 SWAP2 SWAP1 PUSH4 0xFFFFFFFF AND JUMP JUMPDEST SWAP4 POP POP POP POP JUMPDEST SWAP8 SWAP7 POP POP POP POP POP POP POP JUMP JUMPDEST PUSH1 0x0 DUP1 PUSH1 0x0 DUP5 GT PUSH2 0x1884 JUMPI PUSH1 0x40 MLOAD PUSH32 0x8C379A000000000000000000000000000000000000000000000000000000000 DUP2 MSTORE PUSH1 0x4 ADD PUSH2 0x187B SWAP1 PUSH2 0x31A1 JUMP JUMPDEST PUSH1 0x40 MLOAD DUP1 SWAP2 SUB SWAP1 REVERT JUMPDEST PUSH1 0x0 DUP4 PUSH2 0x1967 JUMPI PUSH2 0x1962 PUSH2 0x2710 PUSH2 0x1954 PUSH2 0x18AA PUSH1 0x64 PUSH2 0x2710 PUSH2 0x1E50 SWAP1 SWAP2 SWAP1 PUSH4 0xFFFFFFFF AND JUMP JUMPDEST PUSH1 0x5 PUSH1 0x0 SWAP1 SLOAD SWAP1 PUSH2 0x100 EXP SWAP1 DIV PUSH20 0xFFFFFFFFFFFFFFFFFFFFFFFFFFFFFFFFFFFFFFFF AND PUSH20 0xFFFFFFFFFFFFFFFFFFFFFFFFFFFFFFFFFFFFFFFF AND PUSH4 0xE124E6D2 DUP13 PUSH1 0x40 MLOAD DUP3 PUSH4 0xFFFFFFFF AND PUSH1 0xE0 SHL DUP2 MSTORE PUSH1 0x4 ADD PUSH2 0x1905 SWAP2 SWAP1 PUSH2 0x202F JUMP JUMPDEST PUSH1 0x20 PUSH1 0x40 MLOAD DUP1 DUP4 SUB DUP2 DUP7 GAS STATICCALL ISZERO DUP1 ISZERO PUSH2 0x1922 JUMPI RETURNDATASIZE PUSH1 0x0 DUP1 RETURNDATACOPY RETURNDATASIZE PUSH1 0x0 REVERT JUMPDEST POP POP POP POP PUSH1 0x40 MLOAD RETURNDATASIZE PUSH1 0x1F NOT PUSH1 0x1F DUP3 ADD AND DUP3 ADD DUP1 PUSH1 0x40 MSTORE POP DUP2 ADD SWAP1 PUSH2 0x1946 SWAP2 SWAP1 PUSH2 0x2F87 JUMP JUMPDEST PUSH2 0x1D8C SWAP1 SWAP2 SWAP1 PUSH4 0xFFFFFFFF AND JUMP JUMPDEST PUSH2 0x1E06 SWAP1 SWAP2 SWAP1 PUSH4 0xFFFFFFFF AND JUMP JUMPDEST PUSH2 0x1A3F JUMP JUMPDEST PUSH2 0x1A3E PUSH2 0x2710 PUSH2 0x1A30 PUSH2 0x1986 PUSH1 0x64 PUSH2 0x2710 PUSH2 0x1D42 SWAP1 SWAP2 SWAP1 PUSH4 0xFFFFFFFF AND JUMP JUMPDEST PUSH1 0x5 PUSH1 0x0 SWAP1 SLOAD SWAP1 PUSH2 0x100 EXP SWAP1 DIV PUSH20 0xFFFFFFFFFFFFFFFFFFFFFFFFFFFFFFFFFFFFFFFF AND PUSH20 0xFFFFFFFFFFFFFFFFFFFFFFFFFFFFFFFFFFFFFFFF AND PUSH4 0x81A612D6 DUP13 PUSH1 0x40 MLOAD DUP3 PUSH4 0xFFFFFFFF AND PUSH1 0xE0 SHL DUP2 MSTORE PUSH1 0x4 ADD PUSH2 0x19E1 SWAP2 SWAP1 PUSH2 0x202F JUMP JUMPDEST PUSH1 0x20 PUSH1 0x40 MLOAD DUP1 DUP4 SUB DUP2 DUP7 GAS STATICCALL ISZERO DUP1 ISZERO PUSH2 0x19FE JUMPI RETURNDATASIZE PUSH1 0x0 DUP1 RETURNDATACOPY RETURNDATASIZE PUSH1 0x0 REVERT JUMPDEST POP POP POP POP PUSH1 0x40 MLOAD RETURNDATASIZE PUSH1 0x1F NOT PUSH1 0x1F DUP3 ADD AND DUP3 ADD DUP1 PUSH1 0x40 MSTORE POP DUP2 ADD SWAP1 PUSH2 0x1A22 SWAP2 SWAP1 PUSH2 0x2F87 JUMP JUMPDEST PUSH2 0x1D8C SWAP1 SWAP2 SWAP1 PUSH4 0xFFFFFFFF AND JUMP JUMPDEST PUSH2 0x1E06 SWAP1 SWAP2 SWAP1 PUSH4 0xFFFFFFFF AND JUMP JUMPDEST JUMPDEST SWAP1 POP PUSH1 0x0 DUP2 DUP7 GT PUSH2 0x1A62 JUMPI PUSH2 0x1A5D DUP7 DUP4 PUSH2 0x1D42 SWAP1 SWAP2 SWAP1 PUSH4 0xFFFFFFFF AND JUMP JUMPDEST PUSH2 0x1A76 JUMP JUMPDEST PUSH2 0x1A75 DUP3 DUP8 PUSH2 0x1D42 SWAP1 SWAP2 SWAP1 PUSH4 0xFFFFFFFF AND JUMP JUMPDEST JUMPDEST SWAP1 POP PUSH1 0x0 PUSH2 0x1A9F DUP8 PUSH2 0x1A91 DUP5 DUP12 PUSH2 0x1D8C SWAP1 SWAP2 SWAP1 PUSH4 0xFFFFFFFF AND JUMP JUMPDEST PUSH2 0x1E06 SWAP1 SWAP2 SWAP1 PUSH4 0xFFFFFFFF AND JUMP JUMPDEST SWAP1 POP PUSH1 0x0 DUP7 ISZERO PUSH2 0x1AB3 JUMPI DUP8 DUP5 GT SWAP1 POP PUSH2 0x1AB9 JUMP JUMPDEST DUP4 DUP9 GT SWAP1 POP JUMPDEST DUP1 DUP3 SWAP6 POP SWAP6 POP POP POP POP POP SWAP5 POP SWAP5 SWAP3 POP POP POP JUMP JUMPDEST PUSH8 0xDE0B6B3A7640000 CALLVALUE EQ PUSH2 0x1AE0 JUMPI PUSH1 0x0 DUP1 REVERT JUMPDEST JUMP JUMPDEST PUSH1 0x2 PUSH1 0x0 SWAP1 SLOAD SWAP1 PUSH2 0x100 EXP SWAP1 DIV PUSH20 0xFFFFFFFFFFFFFFFFFFFFFFFFFFFFFFFFFFFFFFFF AND DUP2 JUMP JUMPDEST PUSH1 0x9 DUP2 DUP2 SLOAD DUP2 LT PUSH2 0x1B18 JUMPI PUSH1 0x0 DUP1 REVERT JUMPDEST SWAP1 PUSH1 0x0 MSTORE PUSH1 0x20 PUSH1 0x0 KECCAK256 SWAP1 PUSH1 0x2 MUL ADD PUSH1 0x0 SWAP2 POP SWAP1 POP DUP1 PUSH1 0x0 ADD PUSH1 0x0 SWAP1 SLOAD SWAP1 PUSH2 0x100 EXP SWAP1 DIV PUSH20 0xFFFFFFFFFFFFFFFFFFFFFFFFFFFFFFFFFFFFFFFF AND SWAP1 DUP1 PUSH1 0x1 ADD PUSH1 0x0 SWAP1 SLOAD SWAP1 PUSH2 0x100 EXP SWAP1 DIV PUSH20 0xFFFFFFFFFFFFFFFFFFFFFFFFFFFFFFFFFFFFFFFF AND SWAP1 DUP1 PUSH1 0x1 ADD PUSH1 0x14 SWAP1 SLOAD SWAP1 PUSH2 0x100 EXP SWAP1 DIV PUSH1 0xFF AND SWAP1 POP DUP4 JUMP JUMPDEST PUSH2 0x1B97 PUSH2 0x1CB2 JUMP JUMPDEST DUP1 PUSH1 0x7 DUP2 SWAP1 SSTORE POP POP JUMP JUMPDEST PUSH1 0x0 DUP1 PUSH1 0x1 PUSH1 0x0 SWAP1 SLOAD SWAP1 PUSH2 0x100 EXP SWAP1 DIV PUSH20 0xFFFFFFFFFFFFFFFFFFFFFFFFFFFFFFFFFFFFFFFF AND PUSH20 0xFFFFFFFFFFFFFFFFFFFFFFFFFFFFFFFFFFFFFFFF AND PUSH4 0xD04F246B PUSH1 0x6 PUSH1 0x0 SWAP1 SLOAD SWAP1 PUSH2 0x100 EXP SWAP1 DIV PUSH20 0xFFFFFFFFFFFFFFFFFFFFFFFFFFFFFFFFFFFFFFFF AND PUSH1 0x40 MLOAD DUP3 PUSH4 0xFFFFFFFF AND PUSH1 0xE0 SHL DUP2 MSTORE PUSH1 0x4 ADD PUSH2 0x1C21 SWAP2 SWAP1 PUSH2 0x202F JUMP JUMPDEST PUSH1 0x20 PUSH1 0x40 MLOAD DUP1 DUP4 SUB DUP2 DUP7 GAS STATICCALL ISZERO DUP1 ISZERO PUSH2 0x1C3E JUMPI RETURNDATASIZE PUSH1 0x0 DUP1 RETURNDATACOPY RETURNDATASIZE PUSH1 0x0 REVERT JUMPDEST POP POP POP POP PUSH1 0x40 MLOAD RETURNDATASIZE PUSH1 0x1F NOT PUSH1 0x1F DUP3 ADD AND DUP3 ADD DUP1 PUSH1 0x40 MSTORE POP DUP2 ADD SWAP1 PUSH2 0x1C62 SWAP2 SWAP1 PUSH2 0x2F87 JUMP JUMPDEST SWAP1 POP PUSH1 0x0 PUSH2 0x1C6E PUSH2 0xB0E JUMP JUMPDEST SWAP1 POP PUSH1 0x0 DUP3 SUB PUSH2 0x1C83 JUMPI PUSH1 0x0 SWAP3 POP POP POP PUSH2 0x1CAF JUMP JUMPDEST PUSH2 0x1CAA DUP3 PUSH2 0x1C9C PUSH2 0x2710 DUP5 PUSH2 0x1D8C SWAP1 SWAP2 SWAP1 PUSH4 0xFFFFFFFF AND JUMP JUMPDEST PUSH2 0x1E06 SWAP1 SWAP2 SWAP1 PUSH4 0xFFFFFFFF AND JUMP JUMPDEST SWAP3 POP POP POP JUMPDEST SWAP1 JUMP JUMPDEST PUSH1 0x0 DUP1 SLOAD SWAP1 PUSH2 0x100 EXP SWAP1 DIV PUSH20 0xFFFFFFFFFFFFFFFFFFFFFFFFFFFFFFFFFFFFFFFF AND PUSH20 0xFFFFFFFFFFFFFFFFFFFFFFFFFFFFFFFFFFFFFFFF AND CALLER PUSH20 0xFFFFFFFFFFFFFFFFFFFFFFFFFFFFFFFFFFFFFFFF AND EQ PUSH2 0x1D40 JUMPI PUSH1 0x40 MLOAD PUSH32 0x8C379A000000000000000000000000000000000000000000000000000000000 DUP2 MSTORE PUSH1 0x4 ADD PUSH2 0x1D37 SWAP1 PUSH2 0x320D JUMP JUMPDEST PUSH1 0x40 MLOAD DUP1 SWAP2 SUB SWAP1 REVERT JUMPDEST JUMP JUMPDEST PUSH1 0x0 PUSH2 0x1D84 DUP4 DUP4 PUSH1 0x40 MLOAD DUP1 PUSH1 0x40 ADD PUSH1 0x40 MSTORE DUP1 PUSH1 0x1E DUP2 MSTORE PUSH1 0x20 ADD PUSH32 0x536166654D6174683A207375627472616374696F6E206F766572666C6F770000 DUP2 MSTORE POP PUSH2 0x1EAE JUMP JUMPDEST SWAP1 POP SWAP3 SWAP2 POP POP JUMP JUMPDEST PUSH1 0x0 DUP1 DUP4 SUB PUSH2 0x1D9E JUMPI PUSH1 0x0 SWAP1 POP PUSH2 0x1E00 JUMP JUMPDEST PUSH1 0x0 DUP3 DUP5 PUSH2 0x1DAC SWAP2 SWAP1 PUSH2 0x322D JUMP JUMPDEST SWAP1 POP DUP3 DUP5 DUP3 PUSH2 0x1DBB SWAP2 SWAP1 PUSH2 0x329E JUMP JUMPDEST EQ PUSH2 0x1DFB JUMPI PUSH1 0x40 MLOAD PUSH32 0x8C379A000000000000000000000000000000000000000000000000000000000 DUP2 MSTORE PUSH1 0x4 ADD PUSH2 0x1DF2 SWAP1 PUSH2 0x3341 JUMP JUMPDEST PUSH1 0x40 MLOAD DUP1 SWAP2 SUB SWAP1 REVERT JUMPDEST DUP1 SWAP2 POP POP JUMPDEST SWAP3 SWAP2 POP POP JUMP JUMPDEST PUSH1 0x0 PUSH2 0x1E48 DUP4 DUP4 PUSH1 0x40 MLOAD DUP1 PUSH1 0x40 ADD PUSH1 0x40 MSTORE DUP1 PUSH1 0x1A DUP2 MSTORE PUSH1 0x20 ADD PUSH32 0x536166654D6174683A206469766973696F6E206279207A65726F000000000000 DUP2 MSTORE POP PUSH2 0x1F12 JUMP JUMPDEST SWAP1 POP SWAP3 SWAP2 POP POP JUMP JUMPDEST PUSH1 0x0 DUP1 DUP3 DUP5 PUSH2 0x1E5F SWAP2 SWAP1 PUSH2 0x2C55 JUMP JUMPDEST SWAP1 POP DUP4 DUP2 LT ISZERO PUSH2 0x1EA4 JUMPI PUSH1 0x40 MLOAD PUSH32 0x8C379A000000000000000000000000000000000000000000000000000000000 DUP2 MSTORE PUSH1 0x4 ADD PUSH2 0x1E9B SWAP1 PUSH2 0x33AD JUMP JUMPDEST PUSH1 0x40 MLOAD DUP1 SWAP2 SUB SWAP1 REVERT JUMPDEST DUP1 SWAP2 POP POP SWAP3 SWAP2 POP POP JUMP JUMPDEST PUSH1 0x0 DUP4 DUP4 GT ISZERO DUP3 SWAP1 PUSH2 0x1EF6 JUMPI PUSH1 0x40 MLOAD PUSH32 0x8C379A000000000000000000000000000000000000000000000000000000000 DUP2 MSTORE PUSH1 0x4 ADD PUSH2 0x1EED SWAP2 SWAP1 PUSH2 0x343B JUMP JUMPDEST PUSH1 0x40 MLOAD DUP1 SWAP2 SUB SWAP1 REVERT JUMPDEST POP PUSH1 0x0 DUP4 DUP6 PUSH2 0x1F05 SWAP2 SWAP1 PUSH2 0x345D JUMP JUMPDEST SWAP1 POP DUP1 SWAP2 POP POP SWAP4 SWAP3 POP POP POP JUMP JUMPDEST PUSH1 0x0 DUP1 DUP4 GT DUP3 SWAP1 PUSH2 0x1F59 JUMPI PUSH1 0x40 MLOAD PUSH32 0x8C379A000000000000000000000000000000000000000000000000000000000 DUP2 MSTORE PUSH1 0x4 ADD PUSH2 0x1F50 SWAP2 SWAP1 PUSH2 0x343B JUMP JUMPDEST PUSH1 0x40 MLOAD DUP1 SWAP2 SUB SWAP1 REVERT JUMPDEST POP PUSH1 0x0 DUP4 DUP6 PUSH2 0x1F68 SWAP2 SWAP1 PUSH2 0x329E JUMP JUMPDEST SWAP1 POP DUP1 SWAP2 POP POP SWAP4 SWAP3 POP POP POP JUMP JUMPDEST PUSH1 0x40 MLOAD DUP1 PUSH2 0x100 ADD PUSH1 0x40 MSTORE DUP1 PUSH1 0x0 DUP2 MSTORE PUSH1 0x20 ADD PUSH1 0x0 DUP2 MSTORE PUSH1 0x20 ADD PUSH1 0x0 DUP2 MSTORE PUSH1 0x20 ADD PUSH1 0x0 DUP2 MSTORE PUSH1 0x20 ADD PUSH1 0x0 DUP2 MSTORE PUSH1 0x20 ADD PUSH1 0x0 DUP2 MSTORE PUSH1 0x20 ADD PUSH1 0x0 DUP2 MSTORE PUSH1 0x20 ADD PUSH1 0x0 DUP2 MSTORE POP SWAP1 JUMP JUMPDEST PUSH1 0x0 DUP2 SWAP1 POP SWAP2 SWAP1 POP JUMP JUMPDEST PUSH2 0x1FCD DUP2 PUSH2 0x1FBA JUMP JUMPDEST DUP3 MSTORE POP POP JUMP JUMPDEST PUSH1 0x0 PUSH1 0x20 DUP3 ADD SWAP1 POP PUSH2 0x1FE8 PUSH1 0x0 DUP4 ADD DUP5 PUSH2 0x1FC4 JUMP JUMPDEST SWAP3 SWAP2 POP POP JUMP JUMPDEST PUSH1 0x0 PUSH20 0xFFFFFFFFFFFFFFFFFFFFFFFFFFFFFFFFFFFFFFFF DUP3 AND SWAP1 POP SWAP2 SWAP1 POP JUMP JUMPDEST PUSH1 0x0 PUSH2 0x2019 DUP3 PUSH2 0x1FEE JUMP JUMPDEST SWAP1 POP SWAP2 SWAP1 POP JUMP JUMPDEST PUSH2 0x2029 DUP2 PUSH2 0x200E JUMP JUMPDEST DUP3 MSTORE POP POP JUMP JUMPDEST PUSH1 0x0 PUSH1 0x20 DUP3 ADD SWAP1 POP PUSH2 0x2044 PUSH1 0x0 DUP4 ADD DUP5 PUSH2 0x2020 JUMP JUMPDEST SWAP3 SWAP2 POP POP JUMP JUMPDEST PUSH1 0x0 PUSH1 0x40 MLOAD SWAP1 POP SWAP1 JUMP JUMPDEST PUSH1 0x0 DUP1 REVERT JUMPDEST PUSH1 0x0 DUP1 REVERT JUMPDEST PUSH2 0x2067 DUP2 PUSH2 0x200E JUMP JUMPDEST DUP2 EQ PUSH2 0x2072 JUMPI PUSH1 0x0 DUP1 REVERT JUMPDEST POP JUMP JUMPDEST PUSH1 0x0 DUP2 CALLDATALOAD SWAP1 POP PUSH2 0x2084 DUP2 PUSH2 0x205E JUMP JUMPDEST SWAP3 SWAP2 POP POP JUMP JUMPDEST PUSH1 0x0 PUSH1 0x20 DUP3 DUP5 SUB SLT ISZERO PUSH2 0x20A0 JUMPI PUSH2 0x209F PUSH2 0x2054 JUMP JUMPDEST JUMPDEST PUSH1 0x0 PUSH2 0x20AE DUP5 DUP3 DUP6 ADD PUSH2 0x2075 JUMP JUMPDEST SWAP2 POP POP SWAP3 SWAP2 POP POP JUMP JUMPDEST PUSH1 0x0 DUP1 REVERT JUMPDEST PUSH1 0x0 PUSH1 0x1F NOT PUSH1 0x1F DUP4 ADD AND SWAP1 POP SWAP2 SWAP1 POP JUMP JUMPDEST PUSH32 0x4E487B7100000000000000000000000000000000000000000000000000000000 PUSH1 0x0 MSTORE PUSH1 0x41 PUSH1 0x4 MSTORE PUSH1 0x24 PUSH1 0x0 REVERT JUMPDEST PUSH2 0x2105 DUP3 PUSH2 0x20BC JUMP JUMPDEST DUP2 ADD DUP2 DUP2 LT PUSH8 0xFFFFFFFFFFFFFFFF DUP3 GT OR ISZERO PUSH2 0x2124 JUMPI PUSH2 0x2123 PUSH2 0x20CD JUMP JUMPDEST JUMPDEST DUP1 PUSH1 0x40 MSTORE POP POP POP JUMP JUMPDEST PUSH1 0x0 PUSH2 0x2137 PUSH2 0x204A JUMP JUMPDEST SWAP1 POP PUSH2 0x2143 DUP3 DUP3 PUSH2 0x20FC JUMP JUMPDEST SWAP2 SWAP1 POP JUMP JUMPDEST PUSH1 0x0 PUSH8 0xFFFFFFFFFFFFFFFF DUP3 GT ISZERO PUSH2 0x2163 JUMPI PUSH2 0x2162 PUSH2 0x20CD JUMP JUMPDEST JUMPDEST PUSH1 0x20 DUP3 MUL SWAP1 POP PUSH1 0x20 DUP2 ADD SWAP1 POP SWAP2 SWAP1 POP JUMP JUMPDEST PUSH1 0x0 DUP1 REVERT JUMPDEST PUSH1 0x0 PUSH2 0x218C PUSH2 0x2187 DUP5 PUSH2 0x2148 JUMP JUMPDEST PUSH2 0x212D JUMP JUMPDEST SWAP1 POP DUP1 DUP4 DUP3 MSTORE PUSH1 0x20 DUP3 ADD SWAP1 POP PUSH1 0x20 DUP5 MUL DUP4 ADD DUP6 DUP2 GT ISZERO PUSH2 0x21AF JUMPI PUSH2 0x21AE PUSH2 0x2174 JUMP JUMPDEST JUMPDEST DUP4 JUMPDEST DUP2 DUP2 LT ISZERO PUSH2 0x21D8 JUMPI DUP1 PUSH2 0x21C4 DUP9 DUP3 PUSH2 0x2075 JUMP JUMPDEST DUP5 MSTORE PUSH1 0x20 DUP5 ADD SWAP4 POP POP PUSH1 0x20 DUP2 ADD SWAP1 POP PUSH2 0x21B1 JUMP JUMPDEST POP POP POP SWAP4 SWAP3 POP POP POP JUMP JUMPDEST PUSH1 0x0 DUP3 PUSH1 0x1F DUP4 ADD SLT PUSH2 0x21F7 JUMPI PUSH2 0x21F6 PUSH2 0x20B7 JUMP JUMPDEST JUMPDEST DUP2 CALLDATALOAD PUSH2 0x2207 DUP5 DUP3 PUSH1 0x20 DUP7 ADD PUSH2 0x2179 JUMP JUMPDEST SWAP2 POP POP SWAP3 SWAP2 POP POP JUMP JUMPDEST PUSH2 0x2219 DUP2 PUSH2 0x1FBA JUMP JUMPDEST DUP2 EQ PUSH2 0x2224 JUMPI PUSH1 0x0 DUP1 REVERT JUMPDEST POP JUMP JUMPDEST PUSH1 0x0 DUP2 CALLDATALOAD SWAP1 POP PUSH2 0x2236 DUP2 PUSH2 0x2210 JUMP JUMPDEST SWAP3 SWAP2 POP POP JUMP JUMPDEST PUSH1 0x0 DUP2 ISZERO ISZERO SWAP1 POP SWAP2 SWAP1 POP JUMP JUMPDEST PUSH2 0x2251 DUP2 PUSH2 0x223C JUMP JUMPDEST DUP2 EQ PUSH2 0x225C JUMPI PUSH1 0x0 DUP1 REVERT JUMPDEST POP JUMP JUMPDEST PUSH1 0x0 DUP2 CALLDATALOAD SWAP1 POP PUSH2 0x226E DUP2 PUSH2 0x2248 JUMP JUMPDEST SWAP3 SWAP2 POP POP JUMP JUMPDEST PUSH1 0x0 DUP2 SWAP1 POP SWAP2 SWAP1 POP JUMP JUMPDEST PUSH2 0x2287 DUP2 PUSH2 0x2274 JUMP JUMPDEST DUP2 EQ PUSH2 0x2292 JUMPI PUSH1 0x0 DUP1 REVERT JUMPDEST POP JUMP JUMPDEST PUSH1 0x0 DUP2 CALLDATALOAD SWAP1 POP PUSH2 0x22A4 DUP2 PUSH2 0x227E JUMP JUMPDEST SWAP3 SWAP2 POP POP JUMP JUMPDEST PUSH1 0x0 DUP1 PUSH1 0x0 DUP1 PUSH1 0x0 DUP1 PUSH1 0x0 DUP1 PUSH1 0x0 PUSH2 0x120 DUP11 DUP13 SUB SLT ISZERO PUSH2 0x22CD JUMPI PUSH2 0x22CC PUSH2 0x2054 JUMP JUMPDEST JUMPDEST PUSH1 0x0 DUP11 ADD CALLDATALOAD PUSH8 0xFFFFFFFFFFFFFFFF DUP2 GT ISZERO PUSH2 0x22EB JUMPI PUSH2 0x22EA PUSH2 0x2059 JUMP JUMPDEST JUMPDEST PUSH2 0x22F7 DUP13 DUP3 DUP14 ADD PUSH2 0x21E2 JUMP JUMPDEST SWAP10 POP POP PUSH1 0x20 PUSH2 0x2308 DUP13 DUP3 DUP14 ADD PUSH2 0x2075 JUMP JUMPDEST SWAP9 POP POP PUSH1 0x40 PUSH2 0x2319 DUP13 DUP3 DUP14 ADD PUSH2 0x2227 JUMP JUMPDEST SWAP8 POP POP PUSH1 0x60 PUSH2 0x232A DUP13 DUP3 DUP14 ADD PUSH2 0x2227 JUMP JUMPDEST SWAP7 POP POP PUSH1 0x80 PUSH2 0x233B DUP13 DUP3 DUP14 ADD PUSH2 0x225F JUMP JUMPDEST SWAP6 POP POP PUSH1 0xA0 PUSH2 0x234C DUP13 DUP3 DUP14 ADD PUSH2 0x2227 JUMP JUMPDEST SWAP5 POP POP PUSH1 0xC0 PUSH2 0x235D DUP13 DUP3 DUP14 ADD PUSH2 0x2227 JUMP JUMPDEST SWAP4 POP POP PUSH1 0xE0 PUSH2 0x236E DUP13 DUP3 DUP14 ADD PUSH2 0x2295 JUMP JUMPDEST SWAP3 POP POP PUSH2 0x100 PUSH2 0x2380 DUP13 DUP3 DUP14 ADD PUSH2 0x2075 JUMP JUMPDEST SWAP2 POP POP SWAP3 SWAP6 SWAP9 POP SWAP3 SWAP6 SWAP9 POP SWAP3 SWAP6 SWAP9 JUMP JUMPDEST PUSH2 0x2399 DUP2 PUSH2 0x2274 JUMP JUMPDEST DUP3 MSTORE POP POP JUMP JUMPDEST PUSH1 0x0 PUSH1 0x20 DUP3 ADD SWAP1 POP PUSH2 0x23B4 PUSH1 0x0 DUP4 ADD DUP5 PUSH2 0x2390 JUMP JUMPDEST SWAP3 SWAP2 POP POP JUMP JUMPDEST PUSH1 0x0 DUP1 PUSH1 0x40 DUP4 DUP6 SUB SLT ISZERO PUSH2 0x23D1 JUMPI PUSH2 0x23D0 PUSH2 0x2054 JUMP JUMPDEST JUMPDEST PUSH1 0x0 PUSH2 0x23DF DUP6 DUP3 DUP7 ADD PUSH2 0x2075 JUMP JUMPDEST SWAP3 POP POP PUSH1 0x20 PUSH2 0x23F0 DUP6 DUP3 DUP7 ADD PUSH2 0x225F JUMP JUMPDEST SWAP2 POP POP SWAP3 POP SWAP3 SWAP1 POP JUMP JUMPDEST PUSH1 0x0 DUP1 PUSH1 0x0 DUP1 PUSH1 0x0 DUP1 PUSH1 0xC0 DUP8 DUP10 SUB SLT ISZERO PUSH2 0x2417 JUMPI PUSH2 0x2416 PUSH2 0x2054 JUMP JUMPDEST JUMPDEST PUSH1 0x0 PUSH2 0x2425 DUP10 DUP3 DUP11 ADD PUSH2 0x2075 JUMP JUMPDEST SWAP7 POP POP PUSH1 0x20 PUSH2 0x2436 DUP10 DUP3 DUP11 ADD PUSH2 0x225F JUMP JUMPDEST SWAP6 POP POP PUSH1 0x40 PUSH2 0x2447 DUP10 DUP3 DUP11 ADD PUSH2 0x2227 JUMP JUMPDEST SWAP5 POP POP PUSH1 0x60 PUSH2 0x2458 DUP10 DUP3 DUP11 ADD PUSH2 0x2227 JUMP JUMPDEST SWAP4 POP POP PUSH1 0x80 PUSH2 0x2469 DUP10 DUP3 DUP11 ADD PUSH2 0x2227 JUMP JUMPDEST SWAP3 POP POP PUSH1 0xA0 PUSH2 0x247A DUP10 DUP3 DUP11 ADD PUSH2 0x2227 JUMP JUMPDEST SWAP2 POP POP SWAP3 SWAP6 POP SWAP3 SWAP6 POP SWAP3 SWAP6 JUMP JUMPDEST PUSH1 0x0 DUP2 MLOAD SWAP1 POP SWAP2 SWAP1 POP JUMP JUMPDEST PUSH1 0x0 DUP3 DUP3 MSTORE PUSH1 0x20 DUP3 ADD SWAP1 POP SWAP3 SWAP2 POP POP JUMP JUMPDEST PUSH1 0x0 DUP2 SWAP1 POP PUSH1 0x20 DUP3 ADD SWAP1 POP SWAP2 SWAP1 POP JUMP JUMPDEST PUSH2 0x24BC DUP2 PUSH2 0x200E JUMP JUMPDEST DUP3 MSTORE POP POP JUMP JUMPDEST PUSH2 0x24CB DUP2 PUSH2 0x223C JUMP JUMPDEST DUP3 MSTORE POP POP JUMP JUMPDEST PUSH1 0x60 DUP3 ADD PUSH1 0x0 DUP3 ADD MLOAD PUSH2 0x24E7 PUSH1 0x0 DUP6 ADD DUP3 PUSH2 0x24B3 JUMP JUMPDEST POP PUSH1 0x20 DUP3 ADD MLOAD PUSH2 0x24FA PUSH1 0x20 DUP6 ADD DUP3 PUSH2 0x24B3 JUMP JUMPDEST POP PUSH1 0x40 DUP3 ADD MLOAD PUSH2 0x250D PUSH1 0x40 DUP6 ADD DUP3 PUSH2 0x24C2 JUMP JUMPDEST POP POP POP POP JUMP JUMPDEST PUSH1 0x0 PUSH2 0x251F DUP4 DUP4 PUSH2 0x24D1 JUMP JUMPDEST PUSH1 0x60 DUP4 ADD SWAP1 POP SWAP3 SWAP2 POP POP JUMP JUMPDEST PUSH1 0x0 PUSH1 0x20 DUP3 ADD SWAP1 POP SWAP2 SWAP1 POP JUMP JUMPDEST PUSH1 0x0 PUSH2 0x2543 DUP3 PUSH2 0x2487 JUMP JUMPDEST PUSH2 0x254D DUP2 DUP6 PUSH2 0x2492 JUMP JUMPDEST SWAP4 POP PUSH2 0x2558 DUP4 PUSH2 0x24A3 JUMP JUMPDEST DUP1 PUSH1 0x0 JUMPDEST DUP4 DUP2 LT ISZERO PUSH2 0x2589 JUMPI DUP2 MLOAD PUSH2 0x2570 DUP9 DUP3 PUSH2 0x2513 JUMP JUMPDEST SWAP8 POP PUSH2 0x257B DUP4 PUSH2 0x252B JUMP JUMPDEST SWAP3 POP POP PUSH1 0x1 DUP2 ADD SWAP1 POP PUSH2 0x255C JUMP JUMPDEST POP DUP6 SWAP4 POP POP POP POP SWAP3 SWAP2 POP POP JUMP JUMPDEST PUSH1 0x0 PUSH1 0x20 DUP3 ADD SWAP1 POP DUP2 DUP2 SUB PUSH1 0x0 DUP4 ADD MSTORE PUSH2 0x25B0 DUP2 DUP5 PUSH2 0x2538 JUMP JUMPDEST SWAP1 POP SWAP3 SWAP2 POP POP JUMP JUMPDEST PUSH1 0x0 DUP1 PUSH1 0x0 PUSH1 0x60 DUP5 DUP7 SUB SLT ISZERO PUSH2 0x25D1 JUMPI PUSH2 0x25D0 PUSH2 0x2054 JUMP JUMPDEST JUMPDEST PUSH1 0x0 PUSH2 0x25DF DUP7 DUP3 DUP8 ADD PUSH2 0x2075 JUMP JUMPDEST SWAP4 POP POP PUSH1 0x20 PUSH2 0x25F0 DUP7 DUP3 DUP8 ADD PUSH2 0x2075 JUMP JUMPDEST SWAP3 POP POP PUSH1 0x40 PUSH2 0x2601 DUP7 DUP3 DUP8 ADD PUSH2 0x225F JUMP JUMPDEST SWAP2 POP POP SWAP3 POP SWAP3 POP SWAP3 JUMP JUMPDEST PUSH1 0x0 PUSH1 0xA0 DUP3 ADD SWAP1 POP PUSH2 0x2620 PUSH1 0x0 DUP4 ADD DUP9 PUSH2 0x1FC4 JUMP JUMPDEST PUSH2 0x262D PUSH1 0x20 DUP4 ADD DUP8 PUSH2 0x1FC4 JUMP JUMPDEST PUSH2 0x263A PUSH1 0x40 DUP4 ADD DUP7 PUSH2 0x1FC4 JUMP JUMPDEST PUSH2 0x2647 PUSH1 0x60 DUP4 ADD DUP6 PUSH2 0x1FC4 JUMP JUMPDEST PUSH2 0x2654 PUSH1 0x80 DUP4 ADD DUP5 PUSH2 0x1FC4 JUMP JUMPDEST SWAP7 SWAP6 POP POP POP POP POP POP JUMP JUMPDEST PUSH1 0x0 DUP1 PUSH1 0x0 DUP1 PUSH1 0x0 DUP1 PUSH1 0x0 DUP1 PUSH1 0x0 DUP1 PUSH1 0x0 PUSH2 0x160 DUP13 DUP15 SUB SLT ISZERO PUSH2 0x2684 JUMPI PUSH2 0x2683 PUSH2 0x2054 JUMP JUMPDEST JUMPDEST PUSH1 0x0 DUP13 ADD CALLDATALOAD PUSH8 0xFFFFFFFFFFFFFFFF DUP2 GT ISZERO PUSH2 0x26A2 JUMPI PUSH2 0x26A1 PUSH2 0x2059 JUMP JUMPDEST JUMPDEST PUSH2 0x26AE DUP15 DUP3 DUP16 ADD PUSH2 0x21E2 JUMP JUMPDEST SWAP12 POP POP PUSH1 0x20 PUSH2 0x26BF DUP15 DUP3 DUP16 ADD PUSH2 0x2075 JUMP JUMPDEST SWAP11 POP POP PUSH1 0x40 PUSH2 0x26D0 DUP15 DUP3 DUP16 ADD PUSH2 0x2227 JUMP JUMPDEST SWAP10 POP POP PUSH1 0x60 PUSH2 0x26E1 DUP15 DUP3 DUP16 ADD PUSH2 0x2227 JUMP JUMPDEST SWAP9 POP POP PUSH1 0x80 PUSH2 0x26F2 DUP15 DUP3 DUP16 ADD PUSH2 0x225F JUMP JUMPDEST SWAP8 POP POP PUSH1 0xA0 PUSH2 0x2703 DUP15 DUP3 DUP16 ADD PUSH2 0x2075 JUMP JUMPDEST SWAP7 POP POP PUSH1 0xC0 PUSH2 0x2714 DUP15 DUP3 DUP16 ADD PUSH2 0x2227 JUMP JUMPDEST SWAP6 POP POP PUSH1 0xE0 PUSH2 0x2725 DUP15 DUP3 DUP16 ADD PUSH2 0x2227 JUMP JUMPDEST SWAP5 POP POP PUSH2 0x100 PUSH2 0x2737 DUP15 DUP3 DUP16 ADD PUSH2 0x2227 JUMP JUMPDEST SWAP4 POP POP PUSH2 0x120 PUSH2 0x2749 DUP15 DUP3 DUP16 ADD PUSH2 0x225F JUMP JUMPDEST SWAP3 POP POP PUSH2 0x140 PUSH2 0x275B DUP15 DUP3 DUP16 ADD PUSH2 0x2075 JUMP JUMPDEST SWAP2 POP POP SWAP3 SWAP6 SWAP9 SWAP12 POP SWAP3 SWAP6 SWAP9 SWAP12 SWAP1 SWAP4 SWAP7 SWAP10 POP JUMP JUMPDEST PUSH1 0x0 PUSH1 0x20 DUP3 DUP5 SUB SLT ISZERO PUSH2 0x2784 JUMPI PUSH2 0x2783 PUSH2 0x2054 JUMP JUMPDEST JUMPDEST PUSH1 0x0 PUSH2 0x2792 DUP5 DUP3 DUP6 ADD PUSH2 0x2227 JUMP JUMPDEST SWAP2 POP POP SWAP3 SWAP2 POP POP JUMP JUMPDEST PUSH1 0x0 DUP1 PUSH1 0x0 DUP1 PUSH1 0x0 DUP1 PUSH1 0x0 PUSH1 0xE0 DUP9 DUP11 SUB SLT ISZERO PUSH2 0x27BA JUMPI PUSH2 0x27B9 PUSH2 0x2054 JUMP JUMPDEST JUMPDEST PUSH1 0x0 PUSH2 0x27C8 DUP11 DUP3 DUP12 ADD PUSH2 0x2075 JUMP JUMPDEST SWAP8 POP POP PUSH1 0x20 PUSH2 0x27D9 DUP11 DUP3 DUP12 ADD PUSH2 0x2075 JUMP JUMPDEST SWAP7 POP POP PUSH1 0x40 PUSH2 0x27EA DUP11 DUP3 DUP12 ADD PUSH2 0x225F JUMP JUMPDEST SWAP6 POP POP PUSH1 0x60 PUSH2 0x27FB DUP11 DUP3 DUP12 ADD PUSH2 0x2227 JUMP JUMPDEST SWAP5 POP POP PUSH1 0x80 PUSH2 0x280C DUP11 DUP3 DUP12 ADD PUSH2 0x2227 JUMP JUMPDEST SWAP4 POP POP PUSH1 0xA0 PUSH2 0x281D DUP11 DUP3 DUP12 ADD PUSH2 0x2227 JUMP JUMPDEST SWAP3 POP POP PUSH1 0xC0 PUSH2 0x282E DUP11 DUP3 DUP12 ADD PUSH2 0x2227 JUMP JUMPDEST SWAP2 POP POP SWAP3 SWAP6 SWAP9 SWAP2 SWAP5 SWAP8 POP SWAP3 SWAP6 POP JUMP JUMPDEST PUSH1 0x0 DUP1 PUSH1 0x0 DUP1 PUSH1 0x80 DUP6 DUP8 SUB SLT ISZERO PUSH2 0x2857 JUMPI PUSH2 0x2856 PUSH2 0x2054 JUMP JUMPDEST JUMPDEST PUSH1 0x0 PUSH2 0x2865 DUP8 DUP3 DUP9 ADD PUSH2 0x2075 JUMP JUMPDEST SWAP5 POP POP PUSH1 0x20 PUSH2 0x2876 DUP8 DUP3 DUP9 ADD PUSH2 0x2227 JUMP JUMPDEST SWAP4 POP POP PUSH1 0x40 PUSH2 0x2887 DUP8 DUP3 DUP9 ADD PUSH2 0x2227 JUMP JUMPDEST SWAP3 POP POP PUSH1 0x60 PUSH2 0x2898 DUP8 DUP3 DUP9 ADD PUSH2 0x225F JUMP JUMPDEST SWAP2 POP POP SWAP3 SWAP6 SWAP2 SWAP5 POP SWAP3 POP JUMP JUMPDEST PUSH2 0x28AD DUP2 PUSH2 0x223C JUMP JUMPDEST DUP3 MSTORE POP POP JUMP JUMPDEST PUSH1 0x0 PUSH1 0x40 DUP3 ADD SWAP1 POP PUSH2 0x28C8 PUSH1 0x0 DUP4 ADD DUP6 PUSH2 0x28A4 JUMP JUMPDEST PUSH2 0x28D5 PUSH1 0x20 DUP4 ADD DUP5 PUSH2 0x1FC4 JUMP JUMPDEST SWAP4 SWAP3 POP POP POP JUMP JUMPDEST PUSH1 0x0 PUSH1 0x60 DUP3 ADD SWAP1 POP PUSH2 0x28F1 PUSH1 0x0 DUP4 ADD DUP7 PUSH2 0x2020 JUMP JUMPDEST PUSH2 0x28FE PUSH1 0x20 DUP4 ADD DUP6 PUSH2 0x2020 JUMP JUMPDEST PUSH2 0x290B PUSH1 0x40 DUP4 ADD DUP5 PUSH2 0x28A4 JUMP JUMPDEST SWAP5 SWAP4 POP POP POP POP JUMP JUMPDEST PUSH1 0x0 DUP3 DUP3 MSTORE PUSH1 0x20 DUP3 ADD SWAP1 POP SWAP3 SWAP2 POP POP JUMP JUMPDEST PUSH32 0x6F6E6C7920746865206F776E65722063616E2063616C6C20746869732066756E PUSH1 0x0 DUP3 ADD MSTORE PUSH32 0x6374696F6E000000000000000000000000000000000000000000000000000000 PUSH1 0x20 DUP3 ADD MSTORE POP JUMP JUMPDEST PUSH1 0x0 PUSH2 0x2980 PUSH1 0x25 DUP4 PUSH2 0x2913 JUMP JUMPDEST SWAP2 POP PUSH2 0x298B DUP3 PUSH2 0x2924 JUMP JUMPDEST PUSH1 0x40 DUP3 ADD SWAP1 POP SWAP2 SWAP1 POP JUMP JUMPDEST PUSH1 0x0 PUSH1 0x20 DUP3 ADD SWAP1 POP DUP2 DUP2 SUB PUSH1 0x0 DUP4 ADD MSTORE PUSH2 0x29AF DUP2 PUSH2 0x2973 JUMP JUMPDEST SWAP1 POP SWAP2 SWAP1 POP JUMP JUMPDEST PUSH32 0x4E487B7100000000000000000000000000000000000000000000000000000000 PUSH1 0x0 MSTORE PUSH1 0x32 PUSH1 0x4 MSTORE PUSH1 0x24 PUSH1 0x0 REVERT JUMPDEST PUSH1 0x0 DUP2 MLOAD SWAP1 POP SWAP2 SWAP1 POP JUMP JUMPDEST PUSH1 0x0 DUP3 DUP3 MSTORE PUSH1 0x20 DUP3 ADD SWAP1 POP SWAP3 SWAP2 POP POP JUMP JUMPDEST PUSH1 0x0 DUP2 SWAP1 POP PUSH1 0x20 DUP3 ADD SWAP1 POP SWAP2 SWAP1 POP JUMP JUMPDEST PUSH1 0x0 PUSH2 0x2A1D DUP4 DUP4 PUSH2 0x24B3 JUMP JUMPDEST PUSH1 0x20 DUP4 ADD SWAP1 POP SWAP3 SWAP2 POP POP JUMP JUMPDEST PUSH1 0x0 PUSH1 0x20 DUP3 ADD SWAP1 POP SWAP2 SWAP1 POP JUMP JUMPDEST PUSH1 0x0 PUSH2 0x2A41 DUP3 PUSH2 0x29E5 JUMP JUMPDEST PUSH2 0x2A4B DUP2 DUP6 PUSH2 0x29F0 JUMP JUMPDEST SWAP4 POP PUSH2 0x2A56 DUP4 PUSH2 0x2A01 JUMP JUMPDEST DUP1 PUSH1 0x0 JUMPDEST DUP4 DUP2 LT ISZERO PUSH2 0x2A87 JUMPI DUP2 MLOAD PUSH2 0x2A6E DUP9 DUP3 PUSH2 0x2A11 JUMP JUMPDEST SWAP8 POP PUSH2 0x2A79 DUP4 PUSH2 0x2A29 JUMP JUMPDEST SWAP3 POP POP PUSH1 0x1 DUP2 ADD SWAP1 POP PUSH2 0x2A5A JUMP JUMPDEST POP DUP6 SWAP4 POP POP POP POP SWAP3 SWAP2 POP POP JUMP JUMPDEST PUSH1 0x0 PUSH2 0x120 DUP3 ADD SWAP1 POP DUP2 DUP2 SUB PUSH1 0x0 DUP4 ADD MSTORE PUSH2 0x2AAF DUP2 DUP13 PUSH2 0x2A36 JUMP JUMPDEST SWAP1 POP PUSH2 0x2ABE PUSH1 0x20 DUP4 ADD DUP12 PUSH2 0x2020 JUMP JUMPDEST PUSH2 0x2ACB PUSH1 0x40 DUP4 ADD DUP11 PUSH2 0x1FC4 JUMP JUMPDEST PUSH2 0x2AD8 PUSH1 0x60 DUP4 ADD DUP10 PUSH2 0x1FC4 JUMP JUMPDEST PUSH2 0x2AE5 PUSH1 0x80 DUP4 ADD DUP9 PUSH2 0x28A4 JUMP JUMPDEST PUSH2 0x2AF2 PUSH1 0xA0 DUP4 ADD DUP8 PUSH2 0x1FC4 JUMP JUMPDEST PUSH2 0x2AFF PUSH1 0xC0 DUP4 ADD DUP7 PUSH2 0x1FC4 JUMP JUMPDEST PUSH2 0x2B0C PUSH1 0xE0 DUP4 ADD DUP6 PUSH2 0x2390 JUMP JUMPDEST PUSH2 0x2B1A PUSH2 0x100 DUP4 ADD DUP5 PUSH2 0x2020 JUMP JUMPDEST SWAP11 SWAP10 POP POP POP POP POP POP POP POP POP POP JUMP JUMPDEST PUSH1 0x0 DUP2 MLOAD SWAP1 POP PUSH2 0x2B37 DUP2 PUSH2 0x227E JUMP JUMPDEST SWAP3 SWAP2 POP POP JUMP JUMPDEST PUSH1 0x0 PUSH1 0x20 DUP3 DUP5 SUB SLT ISZERO PUSH2 0x2B53 JUMPI PUSH2 0x2B52 PUSH2 0x2054 JUMP JUMPDEST JUMPDEST PUSH1 0x0 PUSH2 0x2B61 DUP5 DUP3 DUP6 ADD PUSH2 0x2B28 JUMP JUMPDEST SWAP2 POP POP SWAP3 SWAP2 POP POP JUMP JUMPDEST PUSH1 0x0 DUP2 PUSH1 0x60 SHL SWAP1 POP SWAP2 SWAP1 POP JUMP JUMPDEST PUSH1 0x0 PUSH2 0x2B82 DUP3 PUSH2 0x2B6A JUMP JUMPDEST SWAP1 POP SWAP2 SWAP1 POP JUMP JUMPDEST PUSH1 0x0 PUSH2 0x2B94 DUP3 PUSH2 0x2B77 JUMP JUMPDEST SWAP1 POP SWAP2 SWAP1 POP JUMP JUMPDEST PUSH2 0x2BAC PUSH2 0x2BA7 DUP3 PUSH2 0x200E JUMP JUMPDEST PUSH2 0x2B89 JUMP JUMPDEST DUP3 MSTORE POP POP JUMP JUMPDEST PUSH1 0x0 DUP2 PUSH1 0xF8 SHL SWAP1 POP SWAP2 SWAP1 POP JUMP JUMPDEST PUSH1 0x0 PUSH2 0x2BCA DUP3 PUSH2 0x2BB2 JUMP JUMPDEST SWAP1 POP SWAP2 SWAP1 POP JUMP JUMPDEST PUSH1 0x0 PUSH2 0x2BDC DUP3 PUSH2 0x2BBF JUMP JUMPDEST SWAP1 POP SWAP2 SWAP1 POP JUMP JUMPDEST PUSH2 0x2BF4 PUSH2 0x2BEF DUP3 PUSH2 0x223C JUMP JUMPDEST PUSH2 0x2BD1 JUMP JUMPDEST DUP3 MSTORE POP POP JUMP JUMPDEST PUSH1 0x0 PUSH2 0x2C06 DUP3 DUP6 PUSH2 0x2B9B JUMP JUMPDEST PUSH1 0x14 DUP3 ADD SWAP2 POP PUSH2 0x2C16 DUP3 DUP5 PUSH2 0x2BE3 JUMP JUMPDEST PUSH1 0x1 DUP3 ADD SWAP2 POP DUP2 SWAP1 POP SWAP4 SWAP3 POP POP POP JUMP JUMPDEST PUSH32 0x4E487B7100000000000000000000000000000000000000000000000000000000 PUSH1 0x0 MSTORE PUSH1 0x11 PUSH1 0x4 MSTORE PUSH1 0x24 PUSH1 0x0 REVERT JUMPDEST PUSH1 0x0 PUSH2 0x2C60 DUP3 PUSH2 0x1FBA JUMP JUMPDEST SWAP2 POP PUSH2 0x2C6B DUP4 PUSH2 0x1FBA JUMP JUMPDEST SWAP3 POP DUP3 DUP3 ADD SWAP1 POP DUP1 DUP3 GT ISZERO PUSH2 0x2C83 JUMPI PUSH2 0x2C82 PUSH2 0x2C26 JUMP JUMPDEST JUMPDEST SWAP3 SWAP2 POP POP JUMP JUMPDEST PUSH1 0x0 PUSH2 0x2C94 DUP3 PUSH2 0x1FBA JUMP JUMPDEST SWAP2 POP PUSH32 0xFFFFFFFFFFFFFFFFFFFFFFFFFFFFFFFFFFFFFFFFFFFFFFFFFFFFFFFFFFFFFFFF DUP3 SUB PUSH2 0x2CC6 JUMPI PUSH2 0x2CC5 PUSH2 0x2C26 JUMP JUMPDEST JUMPDEST PUSH1 0x1 DUP3 ADD SWAP1 POP SWAP2 SWAP1 POP JUMP JUMPDEST PUSH1 0x0 PUSH1 0xA0 DUP3 ADD SWAP1 POP PUSH2 0x2CE6 PUSH1 0x0 DUP4 ADD DUP9 PUSH2 0x2020 JUMP JUMPDEST PUSH2 0x2CF3 PUSH1 0x20 DUP4 ADD DUP8 PUSH2 0x1FC4 JUMP JUMPDEST PUSH2 0x2D00 PUSH1 0x40 DUP4 ADD DUP7 PUSH2 0x1FC4 JUMP JUMPDEST PUSH2 0x2D0D PUSH1 0x60 DUP4 ADD DUP6 PUSH2 0x28A4 JUMP JUMPDEST PUSH2 0x2D1A PUSH1 0x80 DUP4 ADD DUP5 PUSH2 0x1FC4 JUMP JUMPDEST SWAP7 SWAP6 POP POP POP POP POP POP JUMP JUMPDEST PUSH1 0x0 DUP2 MLOAD SWAP1 POP PUSH2 0x2D33 DUP2 PUSH2 0x2248 JUMP JUMPDEST SWAP3 SWAP2 POP POP JUMP JUMPDEST PUSH1 0x0 DUP2 MLOAD SWAP1 POP PUSH2 0x2D48 DUP2 PUSH2 0x2210 JUMP JUMPDEST SWAP3 SWAP2 POP POP JUMP JUMPDEST PUSH1 0x0 DUP1 PUSH1 0x40 DUP4 DUP6 SUB SLT ISZERO PUSH2 0x2D65 JUMPI PUSH2 0x2D64 PUSH2 0x2054 JUMP JUMPDEST JUMPDEST PUSH1 0x0 PUSH2 0x2D73 DUP6 DUP3 DUP7 ADD PUSH2 0x2D24 JUMP JUMPDEST SWAP3 POP POP PUSH1 0x20 PUSH2 0x2D84 DUP6 DUP3 DUP7 ADD PUSH2 0x2D39 JUMP JUMPDEST SWAP2 POP POP SWAP3 POP SWAP3 SWAP1 POP JUMP JUMPDEST PUSH1 0x0 PUSH1 0x80 DUP3 ADD SWAP1 POP PUSH2 0x2DA3 PUSH1 0x0 DUP4 ADD DUP8 PUSH2 0x2020 JUMP JUMPDEST PUSH2 0x2DB0 PUSH1 0x20 DUP4 ADD DUP7 PUSH2 0x2020 JUMP JUMPDEST PUSH2 0x2DBD PUSH1 0x40 DUP4 ADD DUP6 PUSH2 0x2020 JUMP JUMPDEST PUSH2 0x2DCA PUSH1 0x60 DUP4 ADD DUP5 PUSH2 0x28A4 JUMP JUMPDEST SWAP6 SWAP5 POP POP POP POP POP JUMP JUMPDEST PUSH1 0x0 DUP1 PUSH1 0x0 DUP1 PUSH1 0x0 DUP1 PUSH1 0x0 DUP1 PUSH2 0x100 DUP10 DUP12 SUB SLT ISZERO PUSH2 0x2DF4 JUMPI PUSH2 0x2DF3 PUSH2 0x2054 JUMP JUMPDEST JUMPDEST PUSH1 0x0 PUSH2 0x2E02 DUP12 DUP3 DUP13 ADD PUSH2 0x2D39 JUMP JUMPDEST SWAP9 POP POP PUSH1 0x20 PUSH2 0x2E13 DUP12 DUP3 DUP13 ADD PUSH2 0x2D39 JUMP JUMPDEST SWAP8 POP POP PUSH1 0x40 PUSH2 0x2E24 DUP12 DUP3 DUP13 ADD PUSH2 0x2D39 JUMP JUMPDEST SWAP7 POP POP PUSH1 0x60 PUSH2 0x2E35 DUP12 DUP3 DUP13 ADD PUSH2 0x2D39 JUMP JUMPDEST SWAP6 POP POP PUSH1 0x80 PUSH2 0x2E46 DUP12 DUP3 DUP13 ADD PUSH2 0x2D39 JUMP JUMPDEST SWAP5 POP POP PUSH1 0xA0 PUSH2 0x2E57 DUP12 DUP3 DUP13 ADD PUSH2 0x2D39 JUMP JUMPDEST SWAP4 POP POP PUSH1 0xC0 PUSH2 0x2E68 DUP12 DUP3 DUP13 ADD PUSH2 0x2D24 JUMP JUMPDEST SWAP3 POP POP PUSH1 0xE0 PUSH2 0x2E79 DUP12 DUP3 DUP13 ADD PUSH2 0x2D39 JUMP JUMPDEST SWAP2 POP POP SWAP3 SWAP6 SWAP9 POP SWAP3 SWAP6 SWAP9 SWAP1 SWAP4 SWAP7 POP JUMP JUMPDEST PUSH32 0x6F6E6C7920746865206F776E6572206F7220676F762063616E2063616C6C2074 PUSH1 0x0 DUP3 ADD MSTORE PUSH32 0x6869732066756E6374696F6E0000000000000000000000000000000000000000 PUSH1 0x20 DUP3 ADD MSTORE POP JUMP JUMPDEST PUSH1 0x0 PUSH2 0x2EE5 PUSH1 0x2C DUP4 PUSH2 0x2913 JUMP JUMPDEST SWAP2 POP PUSH2 0x2EF0 DUP3 PUSH2 0x2E89 JUMP JUMPDEST PUSH1 0x40 DUP3 ADD SWAP1 POP SWAP2 SWAP1 POP JUMP JUMPDEST PUSH1 0x0 PUSH1 0x20 DUP3 ADD SWAP1 POP DUP2 DUP2 SUB PUSH1 0x0 DUP4 ADD MSTORE PUSH2 0x2F14 DUP2 PUSH2 0x2ED8 JUMP JUMPDEST SWAP1 POP SWAP2 SWAP1 POP JUMP JUMPDEST PUSH32 0x6665650000000000000000000000000000000000000000000000000000000000 PUSH1 0x0 DUP3 ADD MSTORE POP JUMP JUMPDEST PUSH1 0x0 PUSH2 0x2F51 PUSH1 0x3 DUP4 PUSH2 0x2913 JUMP JUMPDEST SWAP2 POP PUSH2 0x2F5C DUP3 PUSH2 0x2F1B JUMP JUMPDEST PUSH1 0x20 DUP3 ADD SWAP1 POP SWAP2 SWAP1 POP JUMP JUMPDEST PUSH1 0x0 PUSH1 0x20 DUP3 ADD SWAP1 POP DUP2 DUP2 SUB PUSH1 0x0 DUP4 ADD MSTORE PUSH2 0x2F80 DUP2 PUSH2 0x2F44 JUMP JUMPDEST SWAP1 POP SWAP2 SWAP1 POP JUMP JUMPDEST PUSH1 0x0 PUSH1 0x20 DUP3 DUP5 SUB SLT ISZERO PUSH2 0x2F9D JUMPI PUSH2 0x2F9C PUSH2 0x2054 JUMP JUMPDEST JUMPDEST PUSH1 0x0 PUSH2 0x2FAB DUP5 DUP3 DUP6 ADD PUSH2 0x2D39 JUMP JUMPDEST SWAP2 POP POP SWAP3 SWAP2 POP POP JUMP JUMPDEST PUSH32 0x63616E2774206C6971756964617465706F736974696F6E206173207468657265 PUSH1 0x0 DUP3 ADD MSTORE PUSH32 0x20697320616E206578697374696E67206C6F616E000000000000000000000000 PUSH1 0x20 DUP3 ADD MSTORE POP JUMP JUMPDEST PUSH1 0x0 PUSH2 0x3010 PUSH1 0x34 DUP4 PUSH2 0x2913 JUMP JUMPDEST SWAP2 POP PUSH2 0x301B DUP3 PUSH2 0x2FB4 JUMP JUMPDEST PUSH1 0x40 DUP3 ADD SWAP1 POP SWAP2 SWAP1 POP JUMP JUMPDEST PUSH1 0x0 PUSH1 0x20 DUP3 ADD SWAP1 POP DUP2 DUP2 SUB PUSH1 0x0 DUP4 ADD MSTORE PUSH2 0x303F DUP2 PUSH2 0x3003 JUMP JUMPDEST SWAP1 POP SWAP2 SWAP1 POP JUMP JUMPDEST PUSH1 0x0 PUSH2 0x160 DUP3 ADD SWAP1 POP DUP2 DUP2 SUB PUSH1 0x0 DUP4 ADD MSTORE PUSH2 0x3061 DUP2 DUP15 PUSH2 0x2A36 JUMP JUMPDEST SWAP1 POP PUSH2 0x3070 PUSH1 0x20 DUP4 ADD DUP14 PUSH2 0x2020 JUMP JUMPDEST PUSH2 0x307D PUSH1 0x40 DUP4 ADD DUP13 PUSH2 0x1FC4 JUMP JUMPDEST PUSH2 0x308A PUSH1 0x60 DUP4 ADD DUP12 PUSH2 0x1FC4 JUMP JUMPDEST PUSH2 0x3097 PUSH1 0x80 DUP4 ADD DUP11 PUSH2 0x28A4 JUMP JUMPDEST PUSH2 0x30A4 PUSH1 0xA0 DUP4 ADD DUP10 PUSH2 0x2020 JUMP JUMPDEST PUSH2 0x30B1 PUSH1 0xC0 DUP4 ADD DUP9 PUSH2 0x1FC4 JUMP JUMPDEST PUSH2 0x30BE PUSH1 0xE0 DUP4 ADD DUP8 PUSH2 0x1FC4 JUMP JUMPDEST PUSH2 0x30CC PUSH2 0x100 DUP4 ADD DUP7 PUSH2 0x1FC4 JUMP JUMPDEST PUSH2 0x30DA PUSH2 0x120 DUP4 ADD DUP6 PUSH2 0x28A4 JUMP JUMPDEST PUSH2 0x30E8 PUSH2 0x140 DUP4 ADD DUP5 PUSH2 0x2020 JUMP JUMPDEST SWAP13 SWAP12 POP POP POP POP POP POP POP POP POP POP POP POP JUMP JUMPDEST PUSH1 0x0 PUSH1 0x60 DUP3 ADD SWAP1 POP PUSH2 0x310D PUSH1 0x0 DUP4 ADD DUP7 PUSH2 0x2020 JUMP JUMPDEST PUSH2 0x311A PUSH1 0x20 DUP4 ADD DUP6 PUSH2 0x1FC4 JUMP JUMPDEST PUSH2 0x3127 PUSH1 0x40 DUP4 ADD DUP5 PUSH2 0x1FC4 JUMP JUMPDEST SWAP5 SWAP4 POP POP POP POP JUMP JUMPDEST PUSH32 0x617665726765207072696365206F6620706F736974696F6E2068617320746F20 PUSH1 0x0 DUP3 ADD MSTORE PUSH32 0x62652067726561746572207468616E2030000000000000000000000000000000 PUSH1 0x20 DUP3 ADD MSTORE POP JUMP JUMPDEST PUSH1 0x0 PUSH2 0x318B PUSH1 0x31 DUP4 PUSH2 0x2913 JUMP JUMPDEST SWAP2 POP PUSH2 0x3196 DUP3 PUSH2 0x312F JUMP JUMPDEST PUSH1 0x40 DUP3 ADD SWAP1 POP SWAP2 SWAP1 POP JUMP JUMPDEST PUSH1 0x0 PUSH1 0x20 DUP3 ADD SWAP1 POP DUP2 DUP2 SUB PUSH1 0x0 DUP4 ADD MSTORE PUSH2 0x31BA DUP2 PUSH2 0x317E JUMP JUMPDEST SWAP1 POP SWAP2 SWAP1 POP JUMP JUMPDEST PUSH32 0x6F6E6C7920676F762063616E2063616C6C20746869732066756E6374696F6E00 PUSH1 0x0 DUP3 ADD MSTORE POP JUMP JUMPDEST PUSH1 0x0 PUSH2 0x31F7 PUSH1 0x1F DUP4 PUSH2 0x2913 JUMP JUMPDEST SWAP2 POP PUSH2 0x3202 DUP3 PUSH2 0x31C1 JUMP JUMPDEST PUSH1 0x20 DUP3 ADD SWAP1 POP SWAP2 SWAP1 POP JUMP JUMPDEST PUSH1 0x0 PUSH1 0x20 DUP3 ADD SWAP1 POP DUP2 DUP2 SUB PUSH1 0x0 DUP4 ADD MSTORE PUSH2 0x3226 DUP2 PUSH2 0x31EA JUMP JUMPDEST SWAP1 POP SWAP2 SWAP1 POP JUMP JUMPDEST PUSH1 0x0 PUSH2 0x3238 DUP3 PUSH2 0x1FBA JUMP JUMPDEST SWAP2 POP PUSH2 0x3243 DUP4 PUSH2 0x1FBA JUMP JUMPDEST SWAP3 POP DUP3 DUP3 MUL PUSH2 0x3251 DUP2 PUSH2 0x1FBA JUMP JUMPDEST SWAP2 POP DUP3 DUP3 DIV DUP5 EQ DUP4 ISZERO OR PUSH2 0x3268 JUMPI PUSH2 0x3267 PUSH2 0x2C26 JUMP JUMPDEST JUMPDEST POP SWAP3 SWAP2 POP POP JUMP JUMPDEST PUSH32 0x4E487B7100000000000000000000000000000000000000000000000000000000 PUSH1 0x0 MSTORE PUSH1 0x12 PUSH1 0x4 MSTORE PUSH1 0x24 PUSH1 0x0 REVERT JUMPDEST PUSH1 0x0 PUSH2 0x32A9 DUP3 PUSH2 0x1FBA JUMP JUMPDEST SWAP2 POP PUSH2 0x32B4 DUP4 PUSH2 0x1FBA JUMP JUMPDEST SWAP3 POP DUP3 PUSH2 0x32C4 JUMPI PUSH2 0x32C3 PUSH2 0x326F JUMP JUMPDEST JUMPDEST DUP3 DUP3 DIV SWAP1 POP SWAP3 SWAP2 POP POP JUMP JUMPDEST PUSH32 0x536166654D6174683A206D756C7469706C69636174696F6E206F766572666C6F PUSH1 0x0 DUP3 ADD MSTORE PUSH32 0x7700000000000000000000000000000000000000000000000000000000000000 PUSH1 0x20 DUP3 ADD MSTORE POP JUMP JUMPDEST PUSH1 0x0 PUSH2 0x332B PUSH1 0x21 DUP4 PUSH2 0x2913 JUMP JUMPDEST SWAP2 POP PUSH2 0x3336 DUP3 PUSH2 0x32CF JUMP JUMPDEST PUSH1 0x40 DUP3 ADD SWAP1 POP SWAP2 SWAP1 POP JUMP JUMPDEST PUSH1 0x0 PUSH1 0x20 DUP3 ADD SWAP1 POP DUP2 DUP2 SUB PUSH1 0x0 DUP4 ADD MSTORE PUSH2 0x335A DUP2 PUSH2 0x331E JUMP JUMPDEST SWAP1 POP SWAP2 SWAP1 POP JUMP JUMPDEST PUSH32 0x536166654D6174683A206164646974696F6E206F766572666C6F770000000000 PUSH1 0x0 DUP3 ADD MSTORE POP JUMP JUMPDEST PUSH1 0x0 PUSH2 0x3397 PUSH1 0x1B DUP4 PUSH2 0x2913 JUMP JUMPDEST SWAP2 POP PUSH2 0x33A2 DUP3 PUSH2 0x3361 JUMP JUMPDEST PUSH1 0x20 DUP3 ADD SWAP1 POP SWAP2 SWAP1 POP JUMP JUMPDEST PUSH1 0x0 PUSH1 0x20 DUP3 ADD SWAP1 POP DUP2 DUP2 SUB PUSH1 0x0 DUP4 ADD MSTORE PUSH2 0x33C6 DUP2 PUSH2 0x338A JUMP JUMPDEST SWAP1 POP SWAP2 SWAP1 POP JUMP JUMPDEST PUSH1 0x0 DUP2 MLOAD SWAP1 POP SWAP2 SWAP1 POP JUMP JUMPDEST PUSH1 0x0 JUMPDEST DUP4 DUP2 LT ISZERO PUSH2 0x33F6 JUMPI DUP1 DUP3 ADD MLOAD DUP2 DUP5 ADD MSTORE PUSH1 0x20 DUP2 ADD SWAP1 POP PUSH2 0x33DB JUMP JUMPDEST PUSH1 0x0 DUP5 DUP5 ADD MSTORE POP POP POP POP JUMP JUMPDEST PUSH1 0x0 PUSH2 0x340D DUP3 PUSH2 0x33CD JUMP JUMPDEST PUSH2 0x3417 DUP2 DUP6 PUSH2 0x2913 JUMP JUMPDEST SWAP4 POP PUSH2 0x3427 DUP2 DUP6 PUSH1 0x20 DUP7 ADD PUSH2 0x33D8 JUMP JUMPDEST PUSH2 0x3430 DUP2 PUSH2 0x20BC JUMP JUMPDEST DUP5 ADD SWAP2 POP POP SWAP3 SWAP2 POP POP JUMP JUMPDEST PUSH1 0x0 PUSH1 0x20 DUP3 ADD SWAP1 POP DUP2 DUP2 SUB PUSH1 0x0 DUP4 ADD MSTORE PUSH2 0x3455 DUP2 DUP5 PUSH2 0x3402 JUMP JUMPDEST SWAP1 POP SWAP3 SWAP2 POP POP JUMP JUMPDEST PUSH1 0x0 PUSH2 0x3468 DUP3 PUSH2 0x1FBA JUMP JUMPDEST SWAP2 POP PUSH2 0x3473 DUP4 PUSH2 0x1FBA JUMP JUMPDEST SWAP3 POP DUP3 DUP3 SUB SWAP1 POP DUP2 DUP2 GT ISZERO PUSH2 0x348B JUMPI PUSH2 0x348A PUSH2 0x2C26 JUMP JUMPDEST JUMPDEST SWAP3 SWAP2 POP POP JUMP INVALID LOG2 PUSH5 0x6970667358 0x22 SLT KECCAK256 MSTORE NUMBER 0xED 0xDF 0xD7 0x49 DUP3 SWAP10 SWAP13 0xC0 LOG2 DELEGATECALL LOG0 0xE4 0x4D 0xB7 SWAP1 0x4B 0xEC 0xD8 PUSH16 0xFD99DA417F72DAA78BFA1D64736F6C63 NUMBER STOP ADDMOD GT STOP CALLER "},"methodIdentifiers":{"BASIS_POINTS_DIVISOR()":"126082cf","L1()":"7809baaf","L2()":"081752bb","MIN_HEALTH_FACTOR()":"b5627e42","callCreateDecreasePosition(address[],address,uint256,uint256,bool,address,uint256,uint256,uint256,bool,address)":"937a0e4e","callCreateIncreasePosition(address[],address,uint256,uint256,bool,uint256,uint256,bytes32,address)":"17a92e43","deposit()":"d0e30db0","existingPositionsData(uint256)":"e9f4454d","getDeltaWithMargin(address,uint256,uint256,bool)":"ca2fc17c","getPortfolioValue()":"bb0498de","getPortfolioValueWithMargin()":"3ba32df4","getPositioKey(address,bool)":"39e96ba6","getPosition(address,address,bool)":"8c1395f8","getPositionValue(address,bool,uint256,uint256,uint256,uint256)":"694c1cbc","getPositionValueWithMargin(address,address,bool,uint256,uint256,uint256,uint256)":"c019bf5e","getPositions()":"80275860","gov()":"12d43a51","lendingContractAddress()":"7379dbe6","minExecutionFee()":"63ae2103","orderBookAddress()":"9409d870","ownerAddress()":"8f84aa09","portfolioHealthFactor()":"ffb991b0","positionRouterAddress()":"d422b00f","routerAddress()":"3268cc56","setLendingContractAddress(address)":"13f2d128","setMinExecutionFee(uint256)":"fc2cee62","setPositionRouterAddress(address)":"a0f14034","setRouterAddress(address)":"41cb87fc","setVaultContractAddress(uint256)":"bcb81c3d","vaultContractAddress()":"a92ea0e0"}}}}}