{"contracts/LendingContract.sol":{"LendingContract":{"abi":[{"inputs":[{"internalType":"address","name":"_vaultContractAddress","type":"address"},{"internalType":"address","name":"_usdcAddress","type":"address"}],"stateMutability":"nonpayable","type":"constructor"},{"inputs":[],"name":"PRICE_PRECISION","outputs":[{"internalType":"uint256","name":"","type":"uint256"}],"stateMutability":"view","type":"function"},{"inputs":[{"internalType":"address","name":"_account","type":"address"},{"internalType":"address","name":"_indexToken","type":"address"},{"internalType":"bool","name":"_isLong","type":"bool"}],"name":"_getLoanAmountKey","outputs":[{"internalType":"bytes32","name":"","type":"bytes32"}],"stateMutability":"pure","type":"function"},{"inputs":[{"internalType":"bytes32","name":"","type":"bytes32"}],"name":"amountLoanedForPosition","outputs":[{"internalType":"uint256","name":"","type":"uint256"}],"stateMutability":"view","type":"function"},{"inputs":[{"internalType":"uint256","name":"","type":"uint256"}],"name":"errors","outputs":[{"internalType":"string","name":"","type":"string"}],"stateMutability":"view","type":"function"},{"inputs":[],"name":"factoryContractAddress","outputs":[{"internalType":"address","name":"","type":"address"}],"stateMutability":"view","type":"function"},{"inputs":[{"internalType":"address","name":"_account","type":"address"},{"internalType":"address","name":"_indexToken","type":"address"},{"internalType":"bool","name":"_isLong","type":"bool"}],"name":"getPosition","outputs":[{"internalType":"uint256","name":"","type":"uint256"},{"internalType":"uint256","name":"","type":"uint256"},{"internalType":"uint256","name":"","type":"uint256"},{"internalType":"uint256","name":"","type":"uint256"},{"internalType":"uint256","name":"","type":"uint256"},{"internalType":"uint256","name":"","type":"uint256"},{"internalType":"uint256","name":"","type":"uint256"}],"stateMutability":"view","type":"function"},{"inputs":[],"name":"getReserve","outputs":[{"internalType":"uint256","name":"","type":"uint256"}],"stateMutability":"view","type":"function"},{"inputs":[],"name":"gov","outputs":[{"internalType":"address","name":"","type":"address"}],"stateMutability":"view","type":"function"},{"inputs":[{"internalType":"address","name":"_indexToken","type":"address"},{"internalType":"address","name":"_account","type":"address"},{"internalType":"bool","name":"_isLong","type":"bool"}],"name":"liquidateLoan","outputs":[],"stateMutability":"nonpayable","type":"function"},{"inputs":[{"internalType":"address","name":"_indexToken","type":"address"},{"internalType":"bool","name":"_isLong","type":"bool"},{"internalType":"uint256","name":"positionSize","type":"uint256"},{"internalType":"uint256","name":"positionCollateral","type":"uint256"},{"internalType":"uint256","name":"positionAveragePrice","type":"uint256"},{"internalType":"uint256","name":"positionLastIncreasedTime","type":"uint256"}],"name":"maxLoanOnPosition","outputs":[{"internalType":"uint256","name":"","type":"uint256"}],"stateMutability":"view","type":"function"},{"inputs":[{"internalType":"uint256","name":"_amount","type":"uint256"}],"name":"provideLiquidity","outputs":[{"internalType":"uint256","name":"availablePool","type":"uint256"}],"stateMutability":"nonpayable","type":"function"},{"inputs":[{"internalType":"address","name":"newAddress","type":"address"}],"name":"setFactoryaContractAddress","outputs":[],"stateMutability":"nonpayable","type":"function"},{"inputs":[{"internalType":"address","name":"newAddress","type":"address"}],"name":"setVaultContractAddress","outputs":[],"stateMutability":"nonpayable","type":"function"},{"inputs":[{"internalType":"address","name":"_indexToken","type":"address"},{"internalType":"bool","name":"_isLong","type":"bool"},{"internalType":"uint256","name":"_loanAmount","type":"uint256"}],"name":"takeLoanOnPosition","outputs":[],"stateMutability":"nonpayable","type":"function"},{"inputs":[],"name":"totalLoanedAmount","outputs":[{"internalType":"uint256","name":"","type":"uint256"}],"stateMutability":"view","type":"function"},{"inputs":[],"name":"usdcAddress","outputs":[{"internalType":"address","name":"","type":"address"}],"stateMutability":"view","type":"function"},{"inputs":[],"name":"vaultContractAddress","outputs":[{"internalType":"address","name":"","type":"address"}],"stateMutability":"view","type":"function"}],"evm":{"bytecode":{"linkReferences":{},"object":"608060405260006005553480156200001657600080fd5b5060405162001d6e38038062001d6e83398181016040528101906200003c919062000170565b336000806101000a81548173ffffffffffffffffffffffffffffffffffffffff021916908373ffffffffffffffffffffffffffffffffffffffff16021790555081600260006101000a81548173ffffffffffffffffffffffffffffffffffffffff021916908373ffffffffffffffffffffffffffffffffffffffff16021790555080600360006101000a81548173ffffffffffffffffffffffffffffffffffffffff021916908373ffffffffffffffffffffffffffffffffffffffff1602179055505050620001b7565b600080fd5b600073ffffffffffffffffffffffffffffffffffffffff82169050919050565b600062000138826200010b565b9050919050565b6200014a816200012b565b81146200015657600080fd5b50565b6000815190506200016a816200013f565b92915050565b600080604083850312156200018a576200018962000106565b5b60006200019a8582860162000159565b9250506020620001ad8582860162000159565b9150509250929050565b611ba780620001c76000396000f3fe608060405234801561001057600080fd5b506004361061010b5760003560e01c8063871105cc116100a2578063a19cf92f11610071578063a19cf92f146102ae578063a92ea0e0146102ca578063d3c34f3a146102e8578063eb521a4c14610318578063fed1a606146103485761010b565b8063871105cc146102225780638c1395f81461023e57806395082d25146102745780639fd282b0146102925761010b565b80636602533d116100de5780636602533d1461018657806368df4ebd146101b6578063732e0a1d146101e6578063819bd33c146102045761010b565b806302d45457146101105780630fef75c31461012e57806312d43a511461014a57806359bf5d3914610168575b600080fd5b610118610378565b60405161012591906110e2565b60405180910390f35b6101486004803603810190610143919061112e565b61039e565b005b6101526103ea565b60405161015f91906110e2565b60405180910390f35b61017061040e565b60405161017d9190611174565b60405180910390f35b6101a0600480360381019061019b91906111c7565b6104b1565b6040516101ad9190611233565b60405180910390f35b6101d060048036038101906101cb919061127a565b6104e7565b6040516101dd9190611174565b60405180910390f35b6101ee6105ff565b6040516101fb91906110e2565b60405180910390f35b61020c610625565b6040516102199190611174565b60405180910390f35b61023c6004803603810190610237919061112e565b61062b565b005b610258600480360381019061025391906111c7565b610677565b60405161026b9796959493929190611307565b60405180910390f35b61027c6107b2565b6040516102899190611174565b60405180910390f35b6102ac60048036038101906102a79190611376565b6107c3565b005b6102c860048036038101906102c391906111c7565b610bac565b005b6102d2610dae565b6040516102df91906110e2565b60405180910390f35b61030260048036038101906102fd91906113f5565b610dd4565b60405161030f9190611174565b60405180910390f35b610332600480360381019061032d9190611422565b610dec565b60405161033f9190611174565b60405180910390f35b610362600480360381019061035d9190611422565b610f34565b60405161036f91906114df565b60405180910390f35b600360009054906101000a900473ffffffffffffffffffffffffffffffffffffffff1681565b6103a6610fd4565b80600160006101000a81548173ffffffffffffffffffffffffffffffffffffffff021916908373ffffffffffffffffffffffffffffffffffffffff16021790555050565b60008054906101000a900473ffffffffffffffffffffffffffffffffffffffff1681565b6000600360009054906101000a900473ffffffffffffffffffffffffffffffffffffffff1673ffffffffffffffffffffffffffffffffffffffff166370a08231306040518263ffffffff1660e01b815260040161046b91906110e2565b602060405180830381865afa158015610488573d6000803e3d6000fd5b505050506040513d601f19601f820116820180604052508101906104ac9190611516565b905090565b60008383836040516020016104c8939291906115d3565b6040516020818303038152906040528051906020012090509392505050565b600080600260009054906101000a900473ffffffffffffffffffffffffffffffffffffffff1690506000808273ffffffffffffffffffffffffffffffffffffffff16635c07eaab8b8a898d8a6040518663ffffffff1660e01b815260040161055395949392919061161f565b6040805180830381865afa15801561056f573d6000803e3d6000fd5b505050506040513d601f19601f820116820180604052508101906105939190611687565b9150915081156105cb576064605082896105ad91906116f6565b6105b7919061172a565b6105c1919061179b565b93505050506105f5565b6064605082896105db91906117cc565b6105e5919061172a565b6105ef919061179b565b93505050505b9695505050505050565b600160009054906101000a900473ffffffffffffffffffffffffffffffffffffffff1681565b60055481565b610633610fd4565b80600260006101000a81548173ffffffffffffffffffffffffffffffffffffffff021916908373ffffffffffffffffffffffffffffffffffffffff16021790555050565b600080600080600080600080600260009054906101000a900473ffffffffffffffffffffffffffffffffffffffff1690506106b0611064565b8173ffffffffffffffffffffffffffffffffffffffff16634a3f088d8d8d8e8e6040518563ffffffff1660e01b81526004016106ef9493929190611800565b61010060405180830381865afa15801561070d573d6000803e3d6000fd5b505050506040513d601f19601f820116820180604052508101906107319190611845565b90508760000188602001896040018a6060018b6080018c60a0018d60c0018781525087815250878152508781525087815250878152508781525050505050505050806000015181602001518260400151836060015184608001518560a001518660c00151985098509850985098509850985050509397509397509397909450565b6c0c9f2c9cd04674edea4000000081565b6000600460006107d43387876104b1565b81526020019081526020016000205490506000600160009054906101000a900473ffffffffffffffffffffffffffffffffffffffff16905060008173ffffffffffffffffffffffffffffffffffffffff16633704d21b336040518263ffffffff1660e01b815260040161084791906110e2565b602060405180830381865afa158015610864573d6000803e3d6000fd5b505050506040513d601f19601f820116820180604052508101906108889190611910565b90506000819050610897611064565b6108a2838989610677565b8760000188602001896040018a6060018b6080018c60a0018d60c0018781525087815250878152508781525087815250878152508781525050505050505050600061090189898460000151856020015186604001518760c001516104e7565b905060008603610a975786811061094d576040517f08c379a000000000000000000000000000000000000000000000000000000000815260040161094490611989565b60405180910390fd5b8273ffffffffffffffffffffffffffffffffffffffff166371e229b38a8b8b8b8760200151886040015189600001516040518863ffffffff1660e01b815260040161099e97969594939291906119a9565b600060405180830381600087803b1580156109b857600080fd5b505af11580156109cc573d6000803e3d6000fd5b5050505086600560008282546109e291906116f6565b92505081905550600360009054906101000a900473ffffffffffffffffffffffffffffffffffffffff1673ffffffffffffffffffffffffffffffffffffffff166323b872dd30338a6040518463ffffffff1660e01b8152600401610a4893929190611a18565b6020604051808303816000875af1158015610a67573d6000803e3d6000fd5b505050506040513d601f19601f82011682018060405250810190610a8b9190611a4f565b50505050505050610ba7565b8587610aa391906116f6565b8110610ae4576040517f08c379a0000000000000000000000000000000000000000000000000000000008152600401610adb90611989565b60405180910390fd5b8660056000828254610af691906116f6565b92505081905550600360009054906101000a900473ffffffffffffffffffffffffffffffffffffffff1673ffffffffffffffffffffffffffffffffffffffff166323b872dd30338a6040518463ffffffff1660e01b8152600401610b5c93929190611a18565b6020604051808303816000875af1158015610b7b573d6000803e3d6000fd5b505050506040513d601f19601f82011682018060405250810190610b9f9190611a4f565b505050505050505b505050565b600060046000610bbd8587866104b1565b81526020019081526020016000205490506000600160009054906101000a900473ffffffffffffffffffffffffffffffffffffffff16905060008173ffffffffffffffffffffffffffffffffffffffff16633704d21b866040518263ffffffff1660e01b8152600401610c3091906110e2565b602060405180830381865afa158015610c4d573d6000803e3d6000fd5b505050506040513d601f19601f82011682018060405250810190610c719190611910565b9050600360009054906101000a900473ffffffffffffffffffffffffffffffffffffffff1673ffffffffffffffffffffffffffffffffffffffff166323b872dd3330866040518463ffffffff1660e01b8152600401610cd293929190611a18565b6020604051808303816000875af1158015610cf1573d6000803e3d6000fd5b505050506040513d601f19601f82011682018060405250810190610d159190611a4f565b50600060046000610d27888a896104b1565b8152602001908152602001600020819055508073ffffffffffffffffffffffffffffffffffffffff1663a4f8a0bf87866040518363ffffffff1660e01b8152600401610d74929190611a7c565b600060405180830381600087803b158015610d8e57600080fd5b505af1158015610da2573d6000803e3d6000fd5b50505050505050505050565b600260009054906101000a900473ffffffffffffffffffffffffffffffffffffffff1681565b60046020528060005260406000206000915090505481565b6000600360009054906101000a900473ffffffffffffffffffffffffffffffffffffffff1673ffffffffffffffffffffffffffffffffffffffff166323b872dd3330856040518463ffffffff1660e01b8152600401610e4d93929190611a18565b6020604051808303816000875af1158015610e6c573d6000803e3d6000fd5b505050506040513d601f19601f82011682018060405250810190610e909190611a4f565b50600360009054906101000a900473ffffffffffffffffffffffffffffffffffffffff1673ffffffffffffffffffffffffffffffffffffffff166370a08231306040518263ffffffff1660e01b8152600401610eec91906110e2565b602060405180830381865afa158015610f09573d6000803e3d6000fd5b505050506040513d601f19601f82011682018060405250810190610f2d9190611516565b9050919050565b60066020528060005260406000206000915090508054610f5390611ad4565b80601f0160208091040260200160405190810160405280929190818152602001828054610f7f90611ad4565b8015610fcc5780601f10610fa157610100808354040283529160200191610fcc565b820191906000526020600020905b815481529060010190602001808311610faf57829003601f168201915b505050505081565b60008054906101000a900473ffffffffffffffffffffffffffffffffffffffff1673ffffffffffffffffffffffffffffffffffffffff163373ffffffffffffffffffffffffffffffffffffffff1614611062576040517f08c379a000000000000000000000000000000000000000000000000000000000815260040161105990611b51565b60405180910390fd5b565b6040518060e00160405280600081526020016000815260200160008152602001600081526020016000815260200160008152602001600081525090565b600073ffffffffffffffffffffffffffffffffffffffff82169050919050565b60006110cc826110a1565b9050919050565b6110dc816110c1565b82525050565b60006020820190506110f760008301846110d3565b92915050565b600080fd5b61110b816110c1565b811461111657600080fd5b50565b60008135905061112881611102565b92915050565b600060208284031215611144576111436110fd565b5b600061115284828501611119565b91505092915050565b6000819050919050565b61116e8161115b565b82525050565b60006020820190506111896000830184611165565b92915050565b60008115159050919050565b6111a48161118f565b81146111af57600080fd5b50565b6000813590506111c18161119b565b92915050565b6000806000606084860312156111e0576111df6110fd565b5b60006111ee86828701611119565b93505060206111ff86828701611119565b9250506040611210868287016111b2565b9150509250925092565b6000819050919050565b61122d8161121a565b82525050565b60006020820190506112486000830184611224565b92915050565b6112578161115b565b811461126257600080fd5b50565b6000813590506112748161124e565b92915050565b60008060008060008060c08789031215611297576112966110fd565b5b60006112a589828a01611119565b96505060206112b689828a016111b2565b95505060406112c789828a01611265565b94505060606112d889828a01611265565b93505060806112e989828a01611265565b92505060a06112fa89828a01611265565b9150509295509295509295565b600060e08201905061131c600083018a611165565b6113296020830189611165565b6113366040830188611165565b6113436060830187611165565b6113506080830186611165565b61135d60a0830185611165565b61136a60c0830184611165565b98975050505050505050565b60008060006060848603121561138f5761138e6110fd565b5b600061139d86828701611119565b93505060206113ae868287016111b2565b92505060406113bf86828701611265565b9150509250925092565b6113d28161121a565b81146113dd57600080fd5b50565b6000813590506113ef816113c9565b92915050565b60006020828403121561140b5761140a6110fd565b5b6000611419848285016113e0565b91505092915050565b600060208284031215611438576114376110fd565b5b600061144684828501611265565b91505092915050565b600081519050919050565b600082825260208201905092915050565b60005b8381101561148957808201518184015260208101905061146e565b60008484015250505050565b6000601f19601f8301169050919050565b60006114b18261144f565b6114bb818561145a565b93506114cb81856020860161146b565b6114d481611495565b840191505092915050565b600060208201905081810360008301526114f981846114a6565b905092915050565b6000815190506115108161124e565b92915050565b60006020828403121561152c5761152b6110fd565b5b600061153a84828501611501565b91505092915050565b60008160601b9050919050565b600061155b82611543565b9050919050565b600061156d82611550565b9050919050565b611585611580826110c1565b611562565b82525050565b60008160f81b9050919050565b60006115a38261158b565b9050919050565b60006115b582611598565b9050919050565b6115cd6115c88261118f565b6115aa565b82525050565b60006115df8286611574565b6014820191506115ef8285611574565b6014820191506115ff82846115bc565b600182019150819050949350505050565b6116198161118f565b82525050565b600060a08201905061163460008301886110d3565b6116416020830187611165565b61164e6040830186611165565b61165b6060830185611610565b6116686080830184611165565b9695505050505050565b6000815190506116818161119b565b92915050565b6000806040838503121561169e5761169d6110fd565b5b60006116ac85828601611672565b92505060206116bd85828601611501565b9150509250929050565b7f4e487b7100000000000000000000000000000000000000000000000000000000600052601160045260246000fd5b60006117018261115b565b915061170c8361115b565b9250828201905080821115611724576117236116c7565b5b92915050565b60006117358261115b565b91506117408361115b565b925082820261174e8161115b565b91508282048414831517611765576117646116c7565b5b5092915050565b7f4e487b7100000000000000000000000000000000000000000000000000000000600052601260045260246000fd5b60006117a68261115b565b91506117b18361115b565b9250826117c1576117c061176c565b5b828204905092915050565b60006117d78261115b565b91506117e28361115b565b92508282039050818111156117fa576117f96116c7565b5b92915050565b600060808201905061181560008301876110d3565b61182260208301866110d3565b61182f60408301856110d3565b61183c6060830184611610565b95945050505050565b600080600080600080600080610100898b031215611866576118656110fd565b5b60006118748b828c01611501565b98505060206118858b828c01611501565b97505060406118968b828c01611501565b96505060606118a78b828c01611501565b95505060806118b88b828c01611501565b94505060a06118c98b828c01611501565b93505060c06118da8b828c01611672565b92505060e06118eb8b828c01611501565b9150509295985092959890939650565b60008151905061190a81611102565b92915050565b600060208284031215611926576119256110fd565b5b6000611934848285016118fb565b91505092915050565b7f696e73756666696369616e7420636f6c6c61746572616c000000000000000000600082015250565b600061197360178361145a565b915061197e8261193d565b602082019050919050565b600060208201905081810360008301526119a281611966565b9050919050565b600060e0820190506119be600083018a6110d3565b6119cb60208301896110d3565b6119d86040830188611610565b6119e56060830187611165565b6119f26080830186611165565b6119ff60a0830185611165565b611a0c60c0830184611165565b98975050505050505050565b6000606082019050611a2d60008301866110d3565b611a3a60208301856110d3565b611a476040830184611165565b949350505050565b600060208284031215611a6557611a646110fd565b5b6000611a7384828501611672565b91505092915050565b6000604082019050611a9160008301856110d3565b611a9e6020830184611610565b9392505050565b7f4e487b7100000000000000000000000000000000000000000000000000000000600052602260045260246000fd5b60006002820490506001821680611aec57607f821691505b602082108103611aff57611afe611aa5565b5b50919050565b7f6f6e6c7920676f762063616e2063616c6c20746869732066756e6374696f6e00600082015250565b6000611b3b601f8361145a565b9150611b4682611b05565b602082019050919050565b60006020820190508181036000830152611b6a81611b2e565b905091905056fea26469706673582212204eb697f9bea7998beb514bc1d0e87f293bbf0fe1b5bea42b24858a17e97f5dfa64736f6c63430008110033","opcodes":"PUSH1 0x80 PUSH1 0x40 MSTORE PUSH1 0x0 PUSH1 0x5 SSTORE CALLVALUE DUP1 ISZERO PUSH3 0x16 JUMPI PUSH1 0x0 DUP1 REVERT JUMPDEST POP PUSH1 0x40 MLOAD PUSH3 0x1D6E CODESIZE SUB DUP1 PUSH3 0x1D6E DUP4 CODECOPY DUP2 DUP2 ADD PUSH1 0x40 MSTORE DUP2 ADD SWAP1 PUSH3 0x3C SWAP2 SWAP1 PUSH3 0x170 JUMP JUMPDEST CALLER PUSH1 0x0 DUP1 PUSH2 0x100 EXP DUP2 SLOAD DUP2 PUSH20 0xFFFFFFFFFFFFFFFFFFFFFFFFFFFFFFFFFFFFFFFF MUL NOT AND SWAP1 DUP4 PUSH20 0xFFFFFFFFFFFFFFFFFFFFFFFFFFFFFFFFFFFFFFFF AND MUL OR SWAP1 SSTORE POP DUP2 PUSH1 0x2 PUSH1 0x0 PUSH2 0x100 EXP DUP2 SLOAD DUP2 PUSH20 0xFFFFFFFFFFFFFFFFFFFFFFFFFFFFFFFFFFFFFFFF MUL NOT AND SWAP1 DUP4 PUSH20 0xFFFFFFFFFFFFFFFFFFFFFFFFFFFFFFFFFFFFFFFF AND MUL OR SWAP1 SSTORE POP DUP1 PUSH1 0x3 PUSH1 0x0 PUSH2 0x100 EXP DUP2 SLOAD DUP2 PUSH20 0xFFFFFFFFFFFFFFFFFFFFFFFFFFFFFFFFFFFFFFFF MUL NOT AND SWAP1 DUP4 PUSH20 0xFFFFFFFFFFFFFFFFFFFFFFFFFFFFFFFFFFFFFFFF AND MUL OR SWAP1 SSTORE POP POP POP PUSH3 0x1B7 JUMP JUMPDEST PUSH1 0x0 DUP1 REVERT JUMPDEST PUSH1 0x0 PUSH20 0xFFFFFFFFFFFFFFFFFFFFFFFFFFFFFFFFFFFFFFFF DUP3 AND SWAP1 POP SWAP2 SWAP1 POP JUMP JUMPDEST PUSH1 0x0 PUSH3 0x138 DUP3 PUSH3 0x10B JUMP JUMPDEST SWAP1 POP SWAP2 SWAP1 POP JUMP JUMPDEST PUSH3 0x14A DUP2 PUSH3 0x12B JUMP JUMPDEST DUP2 EQ PUSH3 0x156 JUMPI PUSH1 0x0 DUP1 REVERT JUMPDEST POP JUMP JUMPDEST PUSH1 0x0 DUP2 MLOAD SWAP1 POP PUSH3 0x16A DUP2 PUSH3 0x13F JUMP JUMPDEST SWAP3 SWAP2 POP POP JUMP JUMPDEST PUSH1 0x0 DUP1 PUSH1 0x40 DUP4 DUP6 SUB SLT ISZERO PUSH3 0x18A JUMPI PUSH3 0x189 PUSH3 0x106 JUMP JUMPDEST JUMPDEST PUSH1 0x0 PUSH3 0x19A DUP6 DUP3 DUP7 ADD PUSH3 0x159 JUMP JUMPDEST SWAP3 POP POP PUSH1 0x20 PUSH3 0x1AD DUP6 DUP3 DUP7 ADD PUSH3 0x159 JUMP JUMPDEST SWAP2 POP POP SWAP3 POP SWAP3 SWAP1 POP JUMP JUMPDEST PUSH2 0x1BA7 DUP1 PUSH3 0x1C7 PUSH1 0x0 CODECOPY PUSH1 0x0 RETURN INVALID PUSH1 0x80 PUSH1 0x40 MSTORE CALLVALUE DUP1 ISZERO PUSH2 0x10 JUMPI PUSH1 0x0 DUP1 REVERT JUMPDEST POP PUSH1 0x4 CALLDATASIZE LT PUSH2 0x10B JUMPI PUSH1 0x0 CALLDATALOAD PUSH1 0xE0 SHR DUP1 PUSH4 0x871105CC GT PUSH2 0xA2 JUMPI DUP1 PUSH4 0xA19CF92F GT PUSH2 0x71 JUMPI DUP1 PUSH4 0xA19CF92F EQ PUSH2 0x2AE JUMPI DUP1 PUSH4 0xA92EA0E0 EQ PUSH2 0x2CA JUMPI DUP1 PUSH4 0xD3C34F3A EQ PUSH2 0x2E8 JUMPI DUP1 PUSH4 0xEB521A4C EQ PUSH2 0x318 JUMPI DUP1 PUSH4 0xFED1A606 EQ PUSH2 0x348 JUMPI PUSH2 0x10B JUMP JUMPDEST DUP1 PUSH4 0x871105CC EQ PUSH2 0x222 JUMPI DUP1 PUSH4 0x8C1395F8 EQ PUSH2 0x23E JUMPI DUP1 PUSH4 0x95082D25 EQ PUSH2 0x274 JUMPI DUP1 PUSH4 0x9FD282B0 EQ PUSH2 0x292 JUMPI PUSH2 0x10B JUMP JUMPDEST DUP1 PUSH4 0x6602533D GT PUSH2 0xDE JUMPI DUP1 PUSH4 0x6602533D EQ PUSH2 0x186 JUMPI DUP1 PUSH4 0x68DF4EBD EQ PUSH2 0x1B6 JUMPI DUP1 PUSH4 0x732E0A1D EQ PUSH2 0x1E6 JUMPI DUP1 PUSH4 0x819BD33C EQ PUSH2 0x204 JUMPI PUSH2 0x10B JUMP JUMPDEST DUP1 PUSH4 0x2D45457 EQ PUSH2 0x110 JUMPI DUP1 PUSH4 0xFEF75C3 EQ PUSH2 0x12E JUMPI DUP1 PUSH4 0x12D43A51 EQ PUSH2 0x14A JUMPI DUP1 PUSH4 0x59BF5D39 EQ PUSH2 0x168 JUMPI JUMPDEST PUSH1 0x0 DUP1 REVERT JUMPDEST PUSH2 0x118 PUSH2 0x378 JUMP JUMPDEST PUSH1 0x40 MLOAD PUSH2 0x125 SWAP2 SWAP1 PUSH2 0x10E2 JUMP JUMPDEST PUSH1 0x40 MLOAD DUP1 SWAP2 SUB SWAP1 RETURN JUMPDEST PUSH2 0x148 PUSH1 0x4 DUP1 CALLDATASIZE SUB DUP2 ADD SWAP1 PUSH2 0x143 SWAP2 SWAP1 PUSH2 0x112E JUMP JUMPDEST PUSH2 0x39E JUMP JUMPDEST STOP JUMPDEST PUSH2 0x152 PUSH2 0x3EA JUMP JUMPDEST PUSH1 0x40 MLOAD PUSH2 0x15F SWAP2 SWAP1 PUSH2 0x10E2 JUMP JUMPDEST PUSH1 0x40 MLOAD DUP1 SWAP2 SUB SWAP1 RETURN JUMPDEST PUSH2 0x170 PUSH2 0x40E JUMP JUMPDEST PUSH1 0x40 MLOAD PUSH2 0x17D SWAP2 SWAP1 PUSH2 0x1174 JUMP JUMPDEST PUSH1 0x40 MLOAD DUP1 SWAP2 SUB SWAP1 RETURN JUMPDEST PUSH2 0x1A0 PUSH1 0x4 DUP1 CALLDATASIZE SUB DUP2 ADD SWAP1 PUSH2 0x19B SWAP2 SWAP1 PUSH2 0x11C7 JUMP JUMPDEST PUSH2 0x4B1 JUMP JUMPDEST PUSH1 0x40 MLOAD PUSH2 0x1AD SWAP2 SWAP1 PUSH2 0x1233 JUMP JUMPDEST PUSH1 0x40 MLOAD DUP1 SWAP2 SUB SWAP1 RETURN JUMPDEST PUSH2 0x1D0 PUSH1 0x4 DUP1 CALLDATASIZE SUB DUP2 ADD SWAP1 PUSH2 0x1CB SWAP2 SWAP1 PUSH2 0x127A JUMP JUMPDEST PUSH2 0x4E7 JUMP JUMPDEST PUSH1 0x40 MLOAD PUSH2 0x1DD SWAP2 SWAP1 PUSH2 0x1174 JUMP JUMPDEST PUSH1 0x40 MLOAD DUP1 SWAP2 SUB SWAP1 RETURN JUMPDEST PUSH2 0x1EE PUSH2 0x5FF JUMP JUMPDEST PUSH1 0x40 MLOAD PUSH2 0x1FB SWAP2 SWAP1 PUSH2 0x10E2 JUMP JUMPDEST PUSH1 0x40 MLOAD DUP1 SWAP2 SUB SWAP1 RETURN JUMPDEST PUSH2 0x20C PUSH2 0x625 JUMP JUMPDEST PUSH1 0x40 MLOAD PUSH2 0x219 SWAP2 SWAP1 PUSH2 0x1174 JUMP JUMPDEST PUSH1 0x40 MLOAD DUP1 SWAP2 SUB SWAP1 RETURN JUMPDEST PUSH2 0x23C PUSH1 0x4 DUP1 CALLDATASIZE SUB DUP2 ADD SWAP1 PUSH2 0x237 SWAP2 SWAP1 PUSH2 0x112E JUMP JUMPDEST PUSH2 0x62B JUMP JUMPDEST STOP JUMPDEST PUSH2 0x258 PUSH1 0x4 DUP1 CALLDATASIZE SUB DUP2 ADD SWAP1 PUSH2 0x253 SWAP2 SWAP1 PUSH2 0x11C7 JUMP JUMPDEST PUSH2 0x677 JUMP JUMPDEST PUSH1 0x40 MLOAD PUSH2 0x26B SWAP8 SWAP7 SWAP6 SWAP5 SWAP4 SWAP3 SWAP2 SWAP1 PUSH2 0x1307 JUMP JUMPDEST PUSH1 0x40 MLOAD DUP1 SWAP2 SUB SWAP1 RETURN JUMPDEST PUSH2 0x27C PUSH2 0x7B2 JUMP JUMPDEST PUSH1 0x40 MLOAD PUSH2 0x289 SWAP2 SWAP1 PUSH2 0x1174 JUMP JUMPDEST PUSH1 0x40 MLOAD DUP1 SWAP2 SUB SWAP1 RETURN JUMPDEST PUSH2 0x2AC PUSH1 0x4 DUP1 CALLDATASIZE SUB DUP2 ADD SWAP1 PUSH2 0x2A7 SWAP2 SWAP1 PUSH2 0x1376 JUMP JUMPDEST PUSH2 0x7C3 JUMP JUMPDEST STOP JUMPDEST PUSH2 0x2C8 PUSH1 0x4 DUP1 CALLDATASIZE SUB DUP2 ADD SWAP1 PUSH2 0x2C3 SWAP2 SWAP1 PUSH2 0x11C7 JUMP JUMPDEST PUSH2 0xBAC JUMP JUMPDEST STOP JUMPDEST PUSH2 0x2D2 PUSH2 0xDAE JUMP JUMPDEST PUSH1 0x40 MLOAD PUSH2 0x2DF SWAP2 SWAP1 PUSH2 0x10E2 JUMP JUMPDEST PUSH1 0x40 MLOAD DUP1 SWAP2 SUB SWAP1 RETURN JUMPDEST PUSH2 0x302 PUSH1 0x4 DUP1 CALLDATASIZE SUB DUP2 ADD SWAP1 PUSH2 0x2FD SWAP2 SWAP1 PUSH2 0x13F5 JUMP JUMPDEST PUSH2 0xDD4 JUMP JUMPDEST PUSH1 0x40 MLOAD PUSH2 0x30F SWAP2 SWAP1 PUSH2 0x1174 JUMP JUMPDEST PUSH1 0x40 MLOAD DUP1 SWAP2 SUB SWAP1 RETURN JUMPDEST PUSH2 0x332 PUSH1 0x4 DUP1 CALLDATASIZE SUB DUP2 ADD SWAP1 PUSH2 0x32D SWAP2 SWAP1 PUSH2 0x1422 JUMP JUMPDEST PUSH2 0xDEC JUMP JUMPDEST PUSH1 0x40 MLOAD PUSH2 0x33F SWAP2 SWAP1 PUSH2 0x1174 JUMP JUMPDEST PUSH1 0x40 MLOAD DUP1 SWAP2 SUB SWAP1 RETURN JUMPDEST PUSH2 0x362 PUSH1 0x4 DUP1 CALLDATASIZE SUB DUP2 ADD SWAP1 PUSH2 0x35D SWAP2 SWAP1 PUSH2 0x1422 JUMP JUMPDEST PUSH2 0xF34 JUMP JUMPDEST PUSH1 0x40 MLOAD PUSH2 0x36F SWAP2 SWAP1 PUSH2 0x14DF JUMP JUMPDEST PUSH1 0x40 MLOAD DUP1 SWAP2 SUB SWAP1 RETURN JUMPDEST PUSH1 0x3 PUSH1 0x0 SWAP1 SLOAD SWAP1 PUSH2 0x100 EXP SWAP1 DIV PUSH20 0xFFFFFFFFFFFFFFFFFFFFFFFFFFFFFFFFFFFFFFFF AND DUP2 JUMP JUMPDEST PUSH2 0x3A6 PUSH2 0xFD4 JUMP JUMPDEST DUP1 PUSH1 0x1 PUSH1 0x0 PUSH2 0x100 EXP DUP2 SLOAD DUP2 PUSH20 0xFFFFFFFFFFFFFFFFFFFFFFFFFFFFFFFFFFFFFFFF MUL NOT AND SWAP1 DUP4 PUSH20 0xFFFFFFFFFFFFFFFFFFFFFFFFFFFFFFFFFFFFFFFF AND MUL OR SWAP1 SSTORE POP POP JUMP JUMPDEST PUSH1 0x0 DUP1 SLOAD SWAP1 PUSH2 0x100 EXP SWAP1 DIV PUSH20 0xFFFFFFFFFFFFFFFFFFFFFFFFFFFFFFFFFFFFFFFF AND DUP2 JUMP JUMPDEST PUSH1 0x0 PUSH1 0x3 PUSH1 0x0 SWAP1 SLOAD SWAP1 PUSH2 0x100 EXP SWAP1 DIV PUSH20 0xFFFFFFFFFFFFFFFFFFFFFFFFFFFFFFFFFFFFFFFF AND PUSH20 0xFFFFFFFFFFFFFFFFFFFFFFFFFFFFFFFFFFFFFFFF AND PUSH4 0x70A08231 ADDRESS PUSH1 0x40 MLOAD DUP3 PUSH4 0xFFFFFFFF AND PUSH1 0xE0 SHL DUP2 MSTORE PUSH1 0x4 ADD PUSH2 0x46B SWAP2 SWAP1 PUSH2 0x10E2 JUMP JUMPDEST PUSH1 0x20 PUSH1 0x40 MLOAD DUP1 DUP4 SUB DUP2 DUP7 GAS STATICCALL ISZERO DUP1 ISZERO PUSH2 0x488 JUMPI RETURNDATASIZE PUSH1 0x0 DUP1 RETURNDATACOPY RETURNDATASIZE PUSH1 0x0 REVERT JUMPDEST POP POP POP POP PUSH1 0x40 MLOAD RETURNDATASIZE PUSH1 0x1F NOT PUSH1 0x1F DUP3 ADD AND DUP3 ADD DUP1 PUSH1 0x40 MSTORE POP DUP2 ADD SWAP1 PUSH2 0x4AC SWAP2 SWAP1 PUSH2 0x1516 JUMP JUMPDEST SWAP1 POP SWAP1 JUMP JUMPDEST PUSH1 0x0 DUP4 DUP4 DUP4 PUSH1 0x40 MLOAD PUSH1 0x20 ADD PUSH2 0x4C8 SWAP4 SWAP3 SWAP2 SWAP1 PUSH2 0x15D3 JUMP JUMPDEST PUSH1 0x40 MLOAD PUSH1 0x20 DUP2 DUP4 SUB SUB DUP2 MSTORE SWAP1 PUSH1 0x40 MSTORE DUP1 MLOAD SWAP1 PUSH1 0x20 ADD KECCAK256 SWAP1 POP SWAP4 SWAP3 POP POP POP JUMP JUMPDEST PUSH1 0x0 DUP1 PUSH1 0x2 PUSH1 0x0 SWAP1 SLOAD SWAP1 PUSH2 0x100 EXP SWAP1 DIV PUSH20 0xFFFFFFFFFFFFFFFFFFFFFFFFFFFFFFFFFFFFFFFF AND SWAP1 POP PUSH1 0x0 DUP1 DUP3 PUSH20 0xFFFFFFFFFFFFFFFFFFFFFFFFFFFFFFFFFFFFFFFF AND PUSH4 0x5C07EAAB DUP12 DUP11 DUP10 DUP14 DUP11 PUSH1 0x40 MLOAD DUP7 PUSH4 0xFFFFFFFF AND PUSH1 0xE0 SHL DUP2 MSTORE PUSH1 0x4 ADD PUSH2 0x553 SWAP6 SWAP5 SWAP4 SWAP3 SWAP2 SWAP1 PUSH2 0x161F JUMP JUMPDEST PUSH1 0x40 DUP1 MLOAD DUP1 DUP4 SUB DUP2 DUP7 GAS STATICCALL ISZERO DUP1 ISZERO PUSH2 0x56F JUMPI RETURNDATASIZE PUSH1 0x0 DUP1 RETURNDATACOPY RETURNDATASIZE PUSH1 0x0 REVERT JUMPDEST POP POP POP POP PUSH1 0x40 MLOAD RETURNDATASIZE PUSH1 0x1F NOT PUSH1 0x1F DUP3 ADD AND DUP3 ADD DUP1 PUSH1 0x40 MSTORE POP DUP2 ADD SWAP1 PUSH2 0x593 SWAP2 SWAP1 PUSH2 0x1687 JUMP JUMPDEST SWAP2 POP SWAP2 POP DUP2 ISZERO PUSH2 0x5CB JUMPI PUSH1 0x64 PUSH1 0x50 DUP3 DUP10 PUSH2 0x5AD SWAP2 SWAP1 PUSH2 0x16F6 JUMP JUMPDEST PUSH2 0x5B7 SWAP2 SWAP1 PUSH2 0x172A JUMP JUMPDEST PUSH2 0x5C1 SWAP2 SWAP1 PUSH2 0x179B JUMP JUMPDEST SWAP4 POP POP POP POP PUSH2 0x5F5 JUMP JUMPDEST PUSH1 0x64 PUSH1 0x50 DUP3 DUP10 PUSH2 0x5DB SWAP2 SWAP1 PUSH2 0x17CC JUMP JUMPDEST PUSH2 0x5E5 SWAP2 SWAP1 PUSH2 0x172A JUMP JUMPDEST PUSH2 0x5EF SWAP2 SWAP1 PUSH2 0x179B JUMP JUMPDEST SWAP4 POP POP POP POP JUMPDEST SWAP7 SWAP6 POP POP POP POP POP POP JUMP JUMPDEST PUSH1 0x1 PUSH1 0x0 SWAP1 SLOAD SWAP1 PUSH2 0x100 EXP SWAP1 DIV PUSH20 0xFFFFFFFFFFFFFFFFFFFFFFFFFFFFFFFFFFFFFFFF AND DUP2 JUMP JUMPDEST PUSH1 0x5 SLOAD DUP2 JUMP JUMPDEST PUSH2 0x633 PUSH2 0xFD4 JUMP JUMPDEST DUP1 PUSH1 0x2 PUSH1 0x0 PUSH2 0x100 EXP DUP2 SLOAD DUP2 PUSH20 0xFFFFFFFFFFFFFFFFFFFFFFFFFFFFFFFFFFFFFFFF MUL NOT AND SWAP1 DUP4 PUSH20 0xFFFFFFFFFFFFFFFFFFFFFFFFFFFFFFFFFFFFFFFF AND MUL OR SWAP1 SSTORE POP POP JUMP JUMPDEST PUSH1 0x0 DUP1 PUSH1 0x0 DUP1 PUSH1 0x0 DUP1 PUSH1 0x0 DUP1 PUSH1 0x2 PUSH1 0x0 SWAP1 SLOAD SWAP1 PUSH2 0x100 EXP SWAP1 DIV PUSH20 0xFFFFFFFFFFFFFFFFFFFFFFFFFFFFFFFFFFFFFFFF AND SWAP1 POP PUSH2 0x6B0 PUSH2 0x1064 JUMP JUMPDEST DUP2 PUSH20 0xFFFFFFFFFFFFFFFFFFFFFFFFFFFFFFFFFFFFFFFF AND PUSH4 0x4A3F088D DUP14 DUP14 DUP15 DUP15 PUSH1 0x40 MLOAD DUP6 PUSH4 0xFFFFFFFF AND PUSH1 0xE0 SHL DUP2 MSTORE PUSH1 0x4 ADD PUSH2 0x6EF SWAP5 SWAP4 SWAP3 SWAP2 SWAP1 PUSH2 0x1800 JUMP JUMPDEST PUSH2 0x100 PUSH1 0x40 MLOAD DUP1 DUP4 SUB DUP2 DUP7 GAS STATICCALL ISZERO DUP1 ISZERO PUSH2 0x70D JUMPI RETURNDATASIZE PUSH1 0x0 DUP1 RETURNDATACOPY RETURNDATASIZE PUSH1 0x0 REVERT JUMPDEST POP POP POP POP PUSH1 0x40 MLOAD RETURNDATASIZE PUSH1 0x1F NOT PUSH1 0x1F DUP3 ADD AND DUP3 ADD DUP1 PUSH1 0x40 MSTORE POP DUP2 ADD SWAP1 PUSH2 0x731 SWAP2 SWAP1 PUSH2 0x1845 JUMP JUMPDEST SWAP1 POP DUP8 PUSH1 0x0 ADD DUP9 PUSH1 0x20 ADD DUP10 PUSH1 0x40 ADD DUP11 PUSH1 0x60 ADD DUP12 PUSH1 0x80 ADD DUP13 PUSH1 0xA0 ADD DUP14 PUSH1 0xC0 ADD DUP8 DUP2 MSTORE POP DUP8 DUP2 MSTORE POP DUP8 DUP2 MSTORE POP DUP8 DUP2 MSTORE POP DUP8 DUP2 MSTORE POP DUP8 DUP2 MSTORE POP DUP8 DUP2 MSTORE POP POP POP POP POP POP POP POP DUP1 PUSH1 0x0 ADD MLOAD DUP2 PUSH1 0x20 ADD MLOAD DUP3 PUSH1 0x40 ADD MLOAD DUP4 PUSH1 0x60 ADD MLOAD DUP5 PUSH1 0x80 ADD MLOAD DUP6 PUSH1 0xA0 ADD MLOAD DUP7 PUSH1 0xC0 ADD MLOAD SWAP9 POP SWAP9 POP SWAP9 POP SWAP9 POP SWAP9 POP SWAP9 POP SWAP9 POP POP POP SWAP4 SWAP8 POP SWAP4 SWAP8 POP SWAP4 SWAP8 SWAP1 SWAP5 POP JUMP JUMPDEST PUSH13 0xC9F2C9CD04674EDEA40000000 DUP2 JUMP JUMPDEST PUSH1 0x0 PUSH1 0x4 PUSH1 0x0 PUSH2 0x7D4 CALLER DUP8 DUP8 PUSH2 0x4B1 JUMP JUMPDEST DUP2 MSTORE PUSH1 0x20 ADD SWAP1 DUP2 MSTORE PUSH1 0x20 ADD PUSH1 0x0 KECCAK256 SLOAD SWAP1 POP PUSH1 0x0 PUSH1 0x1 PUSH1 0x0 SWAP1 SLOAD SWAP1 PUSH2 0x100 EXP SWAP1 DIV PUSH20 0xFFFFFFFFFFFFFFFFFFFFFFFFFFFFFFFFFFFFFFFF AND SWAP1 POP PUSH1 0x0 DUP2 PUSH20 0xFFFFFFFFFFFFFFFFFFFFFFFFFFFFFFFFFFFFFFFF AND PUSH4 0x3704D21B CALLER PUSH1 0x40 MLOAD DUP3 PUSH4 0xFFFFFFFF AND PUSH1 0xE0 SHL DUP2 MSTORE PUSH1 0x4 ADD PUSH2 0x847 SWAP2 SWAP1 PUSH2 0x10E2 JUMP JUMPDEST PUSH1 0x20 PUSH1 0x40 MLOAD DUP1 DUP4 SUB DUP2 DUP7 GAS STATICCALL ISZERO DUP1 ISZERO PUSH2 0x864 JUMPI RETURNDATASIZE PUSH1 0x0 DUP1 RETURNDATACOPY RETURNDATASIZE PUSH1 0x0 REVERT JUMPDEST POP POP POP POP PUSH1 0x40 MLOAD RETURNDATASIZE PUSH1 0x1F NOT PUSH1 0x1F DUP3 ADD AND DUP3 ADD DUP1 PUSH1 0x40 MSTORE POP DUP2 ADD SWAP1 PUSH2 0x888 SWAP2 SWAP1 PUSH2 0x1910 JUMP JUMPDEST SWAP1 POP PUSH1 0x0 DUP2 SWAP1 POP PUSH2 0x897 PUSH2 0x1064 JUMP JUMPDEST PUSH2 0x8A2 DUP4 DUP10 DUP10 PUSH2 0x677 JUMP JUMPDEST DUP8 PUSH1 0x0 ADD DUP9 PUSH1 0x20 ADD DUP10 PUSH1 0x40 ADD DUP11 PUSH1 0x60 ADD DUP12 PUSH1 0x80 ADD DUP13 PUSH1 0xA0 ADD DUP14 PUSH1 0xC0 ADD DUP8 DUP2 MSTORE POP DUP8 DUP2 MSTORE POP DUP8 DUP2 MSTORE POP DUP8 DUP2 MSTORE POP DUP8 DUP2 MSTORE POP DUP8 DUP2 MSTORE POP DUP8 DUP2 MSTORE POP POP POP POP POP POP POP POP PUSH1 0x0 PUSH2 0x901 DUP10 DUP10 DUP5 PUSH1 0x0 ADD MLOAD DUP6 PUSH1 0x20 ADD MLOAD DUP7 PUSH1 0x40 ADD MLOAD DUP8 PUSH1 0xC0 ADD MLOAD PUSH2 0x4E7 JUMP JUMPDEST SWAP1 POP PUSH1 0x0 DUP7 SUB PUSH2 0xA97 JUMPI DUP7 DUP2 LT PUSH2 0x94D JUMPI PUSH1 0x40 MLOAD PUSH32 0x8C379A000000000000000000000000000000000000000000000000000000000 DUP2 MSTORE PUSH1 0x4 ADD PUSH2 0x944 SWAP1 PUSH2 0x1989 JUMP JUMPDEST PUSH1 0x40 MLOAD DUP1 SWAP2 SUB SWAP1 REVERT JUMPDEST DUP3 PUSH20 0xFFFFFFFFFFFFFFFFFFFFFFFFFFFFFFFFFFFFFFFF AND PUSH4 0x71E229B3 DUP11 DUP12 DUP12 DUP12 DUP8 PUSH1 0x20 ADD MLOAD DUP9 PUSH1 0x40 ADD MLOAD DUP10 PUSH1 0x0 ADD MLOAD PUSH1 0x40 MLOAD DUP9 PUSH4 0xFFFFFFFF AND PUSH1 0xE0 SHL DUP2 MSTORE PUSH1 0x4 ADD PUSH2 0x99E SWAP8 SWAP7 SWAP6 SWAP5 SWAP4 SWAP3 SWAP2 SWAP1 PUSH2 0x19A9 JUMP JUMPDEST PUSH1 0x0 PUSH1 0x40 MLOAD DUP1 DUP4 SUB DUP2 PUSH1 0x0 DUP8 DUP1 EXTCODESIZE ISZERO DUP1 ISZERO PUSH2 0x9B8 JUMPI PUSH1 0x0 DUP1 REVERT JUMPDEST POP GAS CALL ISZERO DUP1 ISZERO PUSH2 0x9CC JUMPI RETURNDATASIZE PUSH1 0x0 DUP1 RETURNDATACOPY RETURNDATASIZE PUSH1 0x0 REVERT JUMPDEST POP POP POP POP DUP7 PUSH1 0x5 PUSH1 0x0 DUP3 DUP3 SLOAD PUSH2 0x9E2 SWAP2 SWAP1 PUSH2 0x16F6 JUMP JUMPDEST SWAP3 POP POP DUP2 SWAP1 SSTORE POP PUSH1 0x3 PUSH1 0x0 SWAP1 SLOAD SWAP1 PUSH2 0x100 EXP SWAP1 DIV PUSH20 0xFFFFFFFFFFFFFFFFFFFFFFFFFFFFFFFFFFFFFFFF AND PUSH20 0xFFFFFFFFFFFFFFFFFFFFFFFFFFFFFFFFFFFFFFFF AND PUSH4 0x23B872DD ADDRESS CALLER DUP11 PUSH1 0x40 MLOAD DUP5 PUSH4 0xFFFFFFFF AND PUSH1 0xE0 SHL DUP2 MSTORE PUSH1 0x4 ADD PUSH2 0xA48 SWAP4 SWAP3 SWAP2 SWAP1 PUSH2 0x1A18 JUMP JUMPDEST PUSH1 0x20 PUSH1 0x40 MLOAD DUP1 DUP4 SUB DUP2 PUSH1 0x0 DUP8 GAS CALL ISZERO DUP1 ISZERO PUSH2 0xA67 JUMPI RETURNDATASIZE PUSH1 0x0 DUP1 RETURNDATACOPY RETURNDATASIZE PUSH1 0x0 REVERT JUMPDEST POP POP POP POP PUSH1 0x40 MLOAD RETURNDATASIZE PUSH1 0x1F NOT PUSH1 0x1F DUP3 ADD AND DUP3 ADD DUP1 PUSH1 0x40 MSTORE POP DUP2 ADD SWAP1 PUSH2 0xA8B SWAP2 SWAP1 PUSH2 0x1A4F JUMP JUMPDEST POP POP POP POP POP POP POP PUSH2 0xBA7 JUMP JUMPDEST DUP6 DUP8 PUSH2 0xAA3 SWAP2 SWAP1 PUSH2 0x16F6 JUMP JUMPDEST DUP2 LT PUSH2 0xAE4 JUMPI PUSH1 0x40 MLOAD PUSH32 0x8C379A000000000000000000000000000000000000000000000000000000000 DUP2 MSTORE PUSH1 0x4 ADD PUSH2 0xADB SWAP1 PUSH2 0x1989 JUMP JUMPDEST PUSH1 0x40 MLOAD DUP1 SWAP2 SUB SWAP1 REVERT JUMPDEST DUP7 PUSH1 0x5 PUSH1 0x0 DUP3 DUP3 SLOAD PUSH2 0xAF6 SWAP2 SWAP1 PUSH2 0x16F6 JUMP JUMPDEST SWAP3 POP POP DUP2 SWAP1 SSTORE POP PUSH1 0x3 PUSH1 0x0 SWAP1 SLOAD SWAP1 PUSH2 0x100 EXP SWAP1 DIV PUSH20 0xFFFFFFFFFFFFFFFFFFFFFFFFFFFFFFFFFFFFFFFF AND PUSH20 0xFFFFFFFFFFFFFFFFFFFFFFFFFFFFFFFFFFFFFFFF AND PUSH4 0x23B872DD ADDRESS CALLER DUP11 PUSH1 0x40 MLOAD DUP5 PUSH4 0xFFFFFFFF AND PUSH1 0xE0 SHL DUP2 MSTORE PUSH1 0x4 ADD PUSH2 0xB5C SWAP4 SWAP3 SWAP2 SWAP1 PUSH2 0x1A18 JUMP JUMPDEST PUSH1 0x20 PUSH1 0x40 MLOAD DUP1 DUP4 SUB DUP2 PUSH1 0x0 DUP8 GAS CALL ISZERO DUP1 ISZERO PUSH2 0xB7B JUMPI RETURNDATASIZE PUSH1 0x0 DUP1 RETURNDATACOPY RETURNDATASIZE PUSH1 0x0 REVERT JUMPDEST POP POP POP POP PUSH1 0x40 MLOAD RETURNDATASIZE PUSH1 0x1F NOT PUSH1 0x1F DUP3 ADD AND DUP3 ADD DUP1 PUSH1 0x40 MSTORE POP DUP2 ADD SWAP1 PUSH2 0xB9F SWAP2 SWAP1 PUSH2 0x1A4F JUMP JUMPDEST POP POP POP POP POP POP POP JUMPDEST POP POP POP JUMP JUMPDEST PUSH1 0x0 PUSH1 0x4 PUSH1 0x0 PUSH2 0xBBD DUP6 DUP8 DUP7 PUSH2 0x4B1 JUMP JUMPDEST DUP2 MSTORE PUSH1 0x20 ADD SWAP1 DUP2 MSTORE PUSH1 0x20 ADD PUSH1 0x0 KECCAK256 SLOAD SWAP1 POP PUSH1 0x0 PUSH1 0x1 PUSH1 0x0 SWAP1 SLOAD SWAP1 PUSH2 0x100 EXP SWAP1 DIV PUSH20 0xFFFFFFFFFFFFFFFFFFFFFFFFFFFFFFFFFFFFFFFF AND SWAP1 POP PUSH1 0x0 DUP2 PUSH20 0xFFFFFFFFFFFFFFFFFFFFFFFFFFFFFFFFFFFFFFFF AND PUSH4 0x3704D21B DUP7 PUSH1 0x40 MLOAD DUP3 PUSH4 0xFFFFFFFF AND PUSH1 0xE0 SHL DUP2 MSTORE PUSH1 0x4 ADD PUSH2 0xC30 SWAP2 SWAP1 PUSH2 0x10E2 JUMP JUMPDEST PUSH1 0x20 PUSH1 0x40 MLOAD DUP1 DUP4 SUB DUP2 DUP7 GAS STATICCALL ISZERO DUP1 ISZERO PUSH2 0xC4D JUMPI RETURNDATASIZE PUSH1 0x0 DUP1 RETURNDATACOPY RETURNDATASIZE PUSH1 0x0 REVERT JUMPDEST POP POP POP POP PUSH1 0x40 MLOAD RETURNDATASIZE PUSH1 0x1F NOT PUSH1 0x1F DUP3 ADD AND DUP3 ADD DUP1 PUSH1 0x40 MSTORE POP DUP2 ADD SWAP1 PUSH2 0xC71 SWAP2 SWAP1 PUSH2 0x1910 JUMP JUMPDEST SWAP1 POP PUSH1 0x3 PUSH1 0x0 SWAP1 SLOAD SWAP1 PUSH2 0x100 EXP SWAP1 DIV PUSH20 0xFFFFFFFFFFFFFFFFFFFFFFFFFFFFFFFFFFFFFFFF AND PUSH20 0xFFFFFFFFFFFFFFFFFFFFFFFFFFFFFFFFFFFFFFFF AND PUSH4 0x23B872DD CALLER ADDRESS DUP7 PUSH1 0x40 MLOAD DUP5 PUSH4 0xFFFFFFFF AND PUSH1 0xE0 SHL DUP2 MSTORE PUSH1 0x4 ADD PUSH2 0xCD2 SWAP4 SWAP3 SWAP2 SWAP1 PUSH2 0x1A18 JUMP JUMPDEST PUSH1 0x20 PUSH1 0x40 MLOAD DUP1 DUP4 SUB DUP2 PUSH1 0x0 DUP8 GAS CALL ISZERO DUP1 ISZERO PUSH2 0xCF1 JUMPI RETURNDATASIZE PUSH1 0x0 DUP1 RETURNDATACOPY RETURNDATASIZE PUSH1 0x0 REVERT JUMPDEST POP POP POP POP PUSH1 0x40 MLOAD RETURNDATASIZE PUSH1 0x1F NOT PUSH1 0x1F DUP3 ADD AND DUP3 ADD DUP1 PUSH1 0x40 MSTORE POP DUP2 ADD SWAP1 PUSH2 0xD15 SWAP2 SWAP1 PUSH2 0x1A4F JUMP JUMPDEST POP PUSH1 0x0 PUSH1 0x4 PUSH1 0x0 PUSH2 0xD27 DUP9 DUP11 DUP10 PUSH2 0x4B1 JUMP JUMPDEST DUP2 MSTORE PUSH1 0x20 ADD SWAP1 DUP2 MSTORE PUSH1 0x20 ADD PUSH1 0x0 KECCAK256 DUP2 SWAP1 SSTORE POP DUP1 PUSH20 0xFFFFFFFFFFFFFFFFFFFFFFFFFFFFFFFFFFFFFFFF AND PUSH4 0xA4F8A0BF DUP8 DUP7 PUSH1 0x40 MLOAD DUP4 PUSH4 0xFFFFFFFF AND PUSH1 0xE0 SHL DUP2 MSTORE PUSH1 0x4 ADD PUSH2 0xD74 SWAP3 SWAP2 SWAP1 PUSH2 0x1A7C JUMP JUMPDEST PUSH1 0x0 PUSH1 0x40 MLOAD DUP1 DUP4 SUB DUP2 PUSH1 0x0 DUP8 DUP1 EXTCODESIZE ISZERO DUP1 ISZERO PUSH2 0xD8E JUMPI PUSH1 0x0 DUP1 REVERT JUMPDEST POP GAS CALL ISZERO DUP1 ISZERO PUSH2 0xDA2 JUMPI RETURNDATASIZE PUSH1 0x0 DUP1 RETURNDATACOPY RETURNDATASIZE PUSH1 0x0 REVERT JUMPDEST POP POP POP POP POP POP POP POP POP POP JUMP JUMPDEST PUSH1 0x2 PUSH1 0x0 SWAP1 SLOAD SWAP1 PUSH2 0x100 EXP SWAP1 DIV PUSH20 0xFFFFFFFFFFFFFFFFFFFFFFFFFFFFFFFFFFFFFFFF AND DUP2 JUMP JUMPDEST PUSH1 0x4 PUSH1 0x20 MSTORE DUP1 PUSH1 0x0 MSTORE PUSH1 0x40 PUSH1 0x0 KECCAK256 PUSH1 0x0 SWAP2 POP SWAP1 POP SLOAD DUP2 JUMP JUMPDEST PUSH1 0x0 PUSH1 0x3 PUSH1 0x0 SWAP1 SLOAD SWAP1 PUSH2 0x100 EXP SWAP1 DIV PUSH20 0xFFFFFFFFFFFFFFFFFFFFFFFFFFFFFFFFFFFFFFFF AND PUSH20 0xFFFFFFFFFFFFFFFFFFFFFFFFFFFFFFFFFFFFFFFF AND PUSH4 0x23B872DD CALLER ADDRESS DUP6 PUSH1 0x40 MLOAD DUP5 PUSH4 0xFFFFFFFF AND PUSH1 0xE0 SHL DUP2 MSTORE PUSH1 0x4 ADD PUSH2 0xE4D SWAP4 SWAP3 SWAP2 SWAP1 PUSH2 0x1A18 JUMP JUMPDEST PUSH1 0x20 PUSH1 0x40 MLOAD DUP1 DUP4 SUB DUP2 PUSH1 0x0 DUP8 GAS CALL ISZERO DUP1 ISZERO PUSH2 0xE6C JUMPI RETURNDATASIZE PUSH1 0x0 DUP1 RETURNDATACOPY RETURNDATASIZE PUSH1 0x0 REVERT JUMPDEST POP POP POP POP PUSH1 0x40 MLOAD RETURNDATASIZE PUSH1 0x1F NOT PUSH1 0x1F DUP3 ADD AND DUP3 ADD DUP1 PUSH1 0x40 MSTORE POP DUP2 ADD SWAP1 PUSH2 0xE90 SWAP2 SWAP1 PUSH2 0x1A4F JUMP JUMPDEST POP PUSH1 0x3 PUSH1 0x0 SWAP1 SLOAD SWAP1 PUSH2 0x100 EXP SWAP1 DIV PUSH20 0xFFFFFFFFFFFFFFFFFFFFFFFFFFFFFFFFFFFFFFFF AND PUSH20 0xFFFFFFFFFFFFFFFFFFFFFFFFFFFFFFFFFFFFFFFF AND PUSH4 0x70A08231 ADDRESS PUSH1 0x40 MLOAD DUP3 PUSH4 0xFFFFFFFF AND PUSH1 0xE0 SHL DUP2 MSTORE PUSH1 0x4 ADD PUSH2 0xEEC SWAP2 SWAP1 PUSH2 0x10E2 JUMP JUMPDEST PUSH1 0x20 PUSH1 0x40 MLOAD DUP1 DUP4 SUB DUP2 DUP7 GAS STATICCALL ISZERO DUP1 ISZERO PUSH2 0xF09 JUMPI RETURNDATASIZE PUSH1 0x0 DUP1 RETURNDATACOPY RETURNDATASIZE PUSH1 0x0 REVERT JUMPDEST POP POP POP POP PUSH1 0x40 MLOAD RETURNDATASIZE PUSH1 0x1F NOT PUSH1 0x1F DUP3 ADD AND DUP3 ADD DUP1 PUSH1 0x40 MSTORE POP DUP2 ADD SWAP1 PUSH2 0xF2D SWAP2 SWAP1 PUSH2 0x1516 JUMP JUMPDEST SWAP1 POP SWAP2 SWAP1 POP JUMP JUMPDEST PUSH1 0x6 PUSH1 0x20 MSTORE DUP1 PUSH1 0x0 MSTORE PUSH1 0x40 PUSH1 0x0 KECCAK256 PUSH1 0x0 SWAP2 POP SWAP1 POP DUP1 SLOAD PUSH2 0xF53 SWAP1 PUSH2 0x1AD4 JUMP JUMPDEST DUP1 PUSH1 0x1F ADD PUSH1 0x20 DUP1 SWAP2 DIV MUL PUSH1 0x20 ADD PUSH1 0x40 MLOAD SWAP1 DUP2 ADD PUSH1 0x40 MSTORE DUP1 SWAP3 SWAP2 SWAP1 DUP2 DUP2 MSTORE PUSH1 0x20 ADD DUP3 DUP1 SLOAD PUSH2 0xF7F SWAP1 PUSH2 0x1AD4 JUMP JUMPDEST DUP1 ISZERO PUSH2 0xFCC JUMPI DUP1 PUSH1 0x1F LT PUSH2 0xFA1 JUMPI PUSH2 0x100 DUP1 DUP4 SLOAD DIV MUL DUP4 MSTORE SWAP2 PUSH1 0x20 ADD SWAP2 PUSH2 0xFCC JUMP JUMPDEST DUP3 ADD SWAP2 SWAP1 PUSH1 0x0 MSTORE PUSH1 0x20 PUSH1 0x0 KECCAK256 SWAP1 JUMPDEST DUP2 SLOAD DUP2 MSTORE SWAP1 PUSH1 0x1 ADD SWAP1 PUSH1 0x20 ADD DUP1 DUP4 GT PUSH2 0xFAF JUMPI DUP3 SWAP1 SUB PUSH1 0x1F AND DUP3 ADD SWAP2 JUMPDEST POP POP POP POP POP DUP2 JUMP JUMPDEST PUSH1 0x0 DUP1 SLOAD SWAP1 PUSH2 0x100 EXP SWAP1 DIV PUSH20 0xFFFFFFFFFFFFFFFFFFFFFFFFFFFFFFFFFFFFFFFF AND PUSH20 0xFFFFFFFFFFFFFFFFFFFFFFFFFFFFFFFFFFFFFFFF AND CALLER PUSH20 0xFFFFFFFFFFFFFFFFFFFFFFFFFFFFFFFFFFFFFFFF AND EQ PUSH2 0x1062 JUMPI PUSH1 0x40 MLOAD PUSH32 0x8C379A000000000000000000000000000000000000000000000000000000000 DUP2 MSTORE PUSH1 0x4 ADD PUSH2 0x1059 SWAP1 PUSH2 0x1B51 JUMP JUMPDEST PUSH1 0x40 MLOAD DUP1 SWAP2 SUB SWAP1 REVERT JUMPDEST JUMP JUMPDEST PUSH1 0x40 MLOAD DUP1 PUSH1 0xE0 ADD PUSH1 0x40 MSTORE DUP1 PUSH1 0x0 DUP2 MSTORE PUSH1 0x20 ADD PUSH1 0x0 DUP2 MSTORE PUSH1 0x20 ADD PUSH1 0x0 DUP2 MSTORE PUSH1 0x20 ADD PUSH1 0x0 DUP2 MSTORE PUSH1 0x20 ADD PUSH1 0x0 DUP2 MSTORE PUSH1 0x20 ADD PUSH1 0x0 DUP2 MSTORE PUSH1 0x20 ADD PUSH1 0x0 DUP2 MSTORE POP SWAP1 JUMP JUMPDEST PUSH1 0x0 PUSH20 0xFFFFFFFFFFFFFFFFFFFFFFFFFFFFFFFFFFFFFFFF DUP3 AND SWAP1 POP SWAP2 SWAP1 POP JUMP JUMPDEST PUSH1 0x0 PUSH2 0x10CC DUP3 PUSH2 0x10A1 JUMP JUMPDEST SWAP1 POP SWAP2 SWAP1 POP JUMP JUMPDEST PUSH2 0x10DC DUP2 PUSH2 0x10C1 JUMP JUMPDEST DUP3 MSTORE POP POP JUMP JUMPDEST PUSH1 0x0 PUSH1 0x20 DUP3 ADD SWAP1 POP PUSH2 0x10F7 PUSH1 0x0 DUP4 ADD DUP5 PUSH2 0x10D3 JUMP JUMPDEST SWAP3 SWAP2 POP POP JUMP JUMPDEST PUSH1 0x0 DUP1 REVERT JUMPDEST PUSH2 0x110B DUP2 PUSH2 0x10C1 JUMP JUMPDEST DUP2 EQ PUSH2 0x1116 JUMPI PUSH1 0x0 DUP1 REVERT JUMPDEST POP JUMP JUMPDEST PUSH1 0x0 DUP2 CALLDATALOAD SWAP1 POP PUSH2 0x1128 DUP2 PUSH2 0x1102 JUMP JUMPDEST SWAP3 SWAP2 POP POP JUMP JUMPDEST PUSH1 0x0 PUSH1 0x20 DUP3 DUP5 SUB SLT ISZERO PUSH2 0x1144 JUMPI PUSH2 0x1143 PUSH2 0x10FD JUMP JUMPDEST JUMPDEST PUSH1 0x0 PUSH2 0x1152 DUP5 DUP3 DUP6 ADD PUSH2 0x1119 JUMP JUMPDEST SWAP2 POP POP SWAP3 SWAP2 POP POP JUMP JUMPDEST PUSH1 0x0 DUP2 SWAP1 POP SWAP2 SWAP1 POP JUMP JUMPDEST PUSH2 0x116E DUP2 PUSH2 0x115B JUMP JUMPDEST DUP3 MSTORE POP POP JUMP JUMPDEST PUSH1 0x0 PUSH1 0x20 DUP3 ADD SWAP1 POP PUSH2 0x1189 PUSH1 0x0 DUP4 ADD DUP5 PUSH2 0x1165 JUMP JUMPDEST SWAP3 SWAP2 POP POP JUMP JUMPDEST PUSH1 0x0 DUP2 ISZERO ISZERO SWAP1 POP SWAP2 SWAP1 POP JUMP JUMPDEST PUSH2 0x11A4 DUP2 PUSH2 0x118F JUMP JUMPDEST DUP2 EQ PUSH2 0x11AF JUMPI PUSH1 0x0 DUP1 REVERT JUMPDEST POP JUMP JUMPDEST PUSH1 0x0 DUP2 CALLDATALOAD SWAP1 POP PUSH2 0x11C1 DUP2 PUSH2 0x119B JUMP JUMPDEST SWAP3 SWAP2 POP POP JUMP JUMPDEST PUSH1 0x0 DUP1 PUSH1 0x0 PUSH1 0x60 DUP5 DUP7 SUB SLT ISZERO PUSH2 0x11E0 JUMPI PUSH2 0x11DF PUSH2 0x10FD JUMP JUMPDEST JUMPDEST PUSH1 0x0 PUSH2 0x11EE DUP7 DUP3 DUP8 ADD PUSH2 0x1119 JUMP JUMPDEST SWAP4 POP POP PUSH1 0x20 PUSH2 0x11FF DUP7 DUP3 DUP8 ADD PUSH2 0x1119 JUMP JUMPDEST SWAP3 POP POP PUSH1 0x40 PUSH2 0x1210 DUP7 DUP3 DUP8 ADD PUSH2 0x11B2 JUMP JUMPDEST SWAP2 POP POP SWAP3 POP SWAP3 POP SWAP3 JUMP JUMPDEST PUSH1 0x0 DUP2 SWAP1 POP SWAP2 SWAP1 POP JUMP JUMPDEST PUSH2 0x122D DUP2 PUSH2 0x121A JUMP JUMPDEST DUP3 MSTORE POP POP JUMP JUMPDEST PUSH1 0x0 PUSH1 0x20 DUP3 ADD SWAP1 POP PUSH2 0x1248 PUSH1 0x0 DUP4 ADD DUP5 PUSH2 0x1224 JUMP JUMPDEST SWAP3 SWAP2 POP POP JUMP JUMPDEST PUSH2 0x1257 DUP2 PUSH2 0x115B JUMP JUMPDEST DUP2 EQ PUSH2 0x1262 JUMPI PUSH1 0x0 DUP1 REVERT JUMPDEST POP JUMP JUMPDEST PUSH1 0x0 DUP2 CALLDATALOAD SWAP1 POP PUSH2 0x1274 DUP2 PUSH2 0x124E JUMP JUMPDEST SWAP3 SWAP2 POP POP JUMP JUMPDEST PUSH1 0x0 DUP1 PUSH1 0x0 DUP1 PUSH1 0x0 DUP1 PUSH1 0xC0 DUP8 DUP10 SUB SLT ISZERO PUSH2 0x1297 JUMPI PUSH2 0x1296 PUSH2 0x10FD JUMP JUMPDEST JUMPDEST PUSH1 0x0 PUSH2 0x12A5 DUP10 DUP3 DUP11 ADD PUSH2 0x1119 JUMP JUMPDEST SWAP7 POP POP PUSH1 0x20 PUSH2 0x12B6 DUP10 DUP3 DUP11 ADD PUSH2 0x11B2 JUMP JUMPDEST SWAP6 POP POP PUSH1 0x40 PUSH2 0x12C7 DUP10 DUP3 DUP11 ADD PUSH2 0x1265 JUMP JUMPDEST SWAP5 POP POP PUSH1 0x60 PUSH2 0x12D8 DUP10 DUP3 DUP11 ADD PUSH2 0x1265 JUMP JUMPDEST SWAP4 POP POP PUSH1 0x80 PUSH2 0x12E9 DUP10 DUP3 DUP11 ADD PUSH2 0x1265 JUMP JUMPDEST SWAP3 POP POP PUSH1 0xA0 PUSH2 0x12FA DUP10 DUP3 DUP11 ADD PUSH2 0x1265 JUMP JUMPDEST SWAP2 POP POP SWAP3 SWAP6 POP SWAP3 SWAP6 POP SWAP3 SWAP6 JUMP JUMPDEST PUSH1 0x0 PUSH1 0xE0 DUP3 ADD SWAP1 POP PUSH2 0x131C PUSH1 0x0 DUP4 ADD DUP11 PUSH2 0x1165 JUMP JUMPDEST PUSH2 0x1329 PUSH1 0x20 DUP4 ADD DUP10 PUSH2 0x1165 JUMP JUMPDEST PUSH2 0x1336 PUSH1 0x40 DUP4 ADD DUP9 PUSH2 0x1165 JUMP JUMPDEST PUSH2 0x1343 PUSH1 0x60 DUP4 ADD DUP8 PUSH2 0x1165 JUMP JUMPDEST PUSH2 0x1350 PUSH1 0x80 DUP4 ADD DUP7 PUSH2 0x1165 JUMP JUMPDEST PUSH2 0x135D PUSH1 0xA0 DUP4 ADD DUP6 PUSH2 0x1165 JUMP JUMPDEST PUSH2 0x136A PUSH1 0xC0 DUP4 ADD DUP5 PUSH2 0x1165 JUMP JUMPDEST SWAP9 SWAP8 POP POP POP POP POP POP POP POP JUMP JUMPDEST PUSH1 0x0 DUP1 PUSH1 0x0 PUSH1 0x60 DUP5 DUP7 SUB SLT ISZERO PUSH2 0x138F JUMPI PUSH2 0x138E PUSH2 0x10FD JUMP JUMPDEST JUMPDEST PUSH1 0x0 PUSH2 0x139D DUP7 DUP3 DUP8 ADD PUSH2 0x1119 JUMP JUMPDEST SWAP4 POP POP PUSH1 0x20 PUSH2 0x13AE DUP7 DUP3 DUP8 ADD PUSH2 0x11B2 JUMP JUMPDEST SWAP3 POP POP PUSH1 0x40 PUSH2 0x13BF DUP7 DUP3 DUP8 ADD PUSH2 0x1265 JUMP JUMPDEST SWAP2 POP POP SWAP3 POP SWAP3 POP SWAP3 JUMP JUMPDEST PUSH2 0x13D2 DUP2 PUSH2 0x121A JUMP JUMPDEST DUP2 EQ PUSH2 0x13DD JUMPI PUSH1 0x0 DUP1 REVERT JUMPDEST POP JUMP JUMPDEST PUSH1 0x0 DUP2 CALLDATALOAD SWAP1 POP PUSH2 0x13EF DUP2 PUSH2 0x13C9 JUMP JUMPDEST SWAP3 SWAP2 POP POP JUMP JUMPDEST PUSH1 0x0 PUSH1 0x20 DUP3 DUP5 SUB SLT ISZERO PUSH2 0x140B JUMPI PUSH2 0x140A PUSH2 0x10FD JUMP JUMPDEST JUMPDEST PUSH1 0x0 PUSH2 0x1419 DUP5 DUP3 DUP6 ADD PUSH2 0x13E0 JUMP JUMPDEST SWAP2 POP POP SWAP3 SWAP2 POP POP JUMP JUMPDEST PUSH1 0x0 PUSH1 0x20 DUP3 DUP5 SUB SLT ISZERO PUSH2 0x1438 JUMPI PUSH2 0x1437 PUSH2 0x10FD JUMP JUMPDEST JUMPDEST PUSH1 0x0 PUSH2 0x1446 DUP5 DUP3 DUP6 ADD PUSH2 0x1265 JUMP JUMPDEST SWAP2 POP POP SWAP3 SWAP2 POP POP JUMP JUMPDEST PUSH1 0x0 DUP2 MLOAD SWAP1 POP SWAP2 SWAP1 POP JUMP JUMPDEST PUSH1 0x0 DUP3 DUP3 MSTORE PUSH1 0x20 DUP3 ADD SWAP1 POP SWAP3 SWAP2 POP POP JUMP JUMPDEST PUSH1 0x0 JUMPDEST DUP4 DUP2 LT ISZERO PUSH2 0x1489 JUMPI DUP1 DUP3 ADD MLOAD DUP2 DUP5 ADD MSTORE PUSH1 0x20 DUP2 ADD SWAP1 POP PUSH2 0x146E JUMP JUMPDEST PUSH1 0x0 DUP5 DUP5 ADD MSTORE POP POP POP POP JUMP JUMPDEST PUSH1 0x0 PUSH1 0x1F NOT PUSH1 0x1F DUP4 ADD AND SWAP1 POP SWAP2 SWAP1 POP JUMP JUMPDEST PUSH1 0x0 PUSH2 0x14B1 DUP3 PUSH2 0x144F JUMP JUMPDEST PUSH2 0x14BB DUP2 DUP6 PUSH2 0x145A JUMP JUMPDEST SWAP4 POP PUSH2 0x14CB DUP2 DUP6 PUSH1 0x20 DUP7 ADD PUSH2 0x146B JUMP JUMPDEST PUSH2 0x14D4 DUP2 PUSH2 0x1495 JUMP JUMPDEST DUP5 ADD SWAP2 POP POP SWAP3 SWAP2 POP POP JUMP JUMPDEST PUSH1 0x0 PUSH1 0x20 DUP3 ADD SWAP1 POP DUP2 DUP2 SUB PUSH1 0x0 DUP4 ADD MSTORE PUSH2 0x14F9 DUP2 DUP5 PUSH2 0x14A6 JUMP JUMPDEST SWAP1 POP SWAP3 SWAP2 POP POP JUMP JUMPDEST PUSH1 0x0 DUP2 MLOAD SWAP1 POP PUSH2 0x1510 DUP2 PUSH2 0x124E JUMP JUMPDEST SWAP3 SWAP2 POP POP JUMP JUMPDEST PUSH1 0x0 PUSH1 0x20 DUP3 DUP5 SUB SLT ISZERO PUSH2 0x152C JUMPI PUSH2 0x152B PUSH2 0x10FD JUMP JUMPDEST JUMPDEST PUSH1 0x0 PUSH2 0x153A DUP5 DUP3 DUP6 ADD PUSH2 0x1501 JUMP JUMPDEST SWAP2 POP POP SWAP3 SWAP2 POP POP JUMP JUMPDEST PUSH1 0x0 DUP2 PUSH1 0x60 SHL SWAP1 POP SWAP2 SWAP1 POP JUMP JUMPDEST PUSH1 0x0 PUSH2 0x155B DUP3 PUSH2 0x1543 JUMP JUMPDEST SWAP1 POP SWAP2 SWAP1 POP JUMP JUMPDEST PUSH1 0x0 PUSH2 0x156D DUP3 PUSH2 0x1550 JUMP JUMPDEST SWAP1 POP SWAP2 SWAP1 POP JUMP JUMPDEST PUSH2 0x1585 PUSH2 0x1580 DUP3 PUSH2 0x10C1 JUMP JUMPDEST PUSH2 0x1562 JUMP JUMPDEST DUP3 MSTORE POP POP JUMP JUMPDEST PUSH1 0x0 DUP2 PUSH1 0xF8 SHL SWAP1 POP SWAP2 SWAP1 POP JUMP JUMPDEST PUSH1 0x0 PUSH2 0x15A3 DUP3 PUSH2 0x158B JUMP JUMPDEST SWAP1 POP SWAP2 SWAP1 POP JUMP JUMPDEST PUSH1 0x0 PUSH2 0x15B5 DUP3 PUSH2 0x1598 JUMP JUMPDEST SWAP1 POP SWAP2 SWAP1 POP JUMP JUMPDEST PUSH2 0x15CD PUSH2 0x15C8 DUP3 PUSH2 0x118F JUMP JUMPDEST PUSH2 0x15AA JUMP JUMPDEST DUP3 MSTORE POP POP JUMP JUMPDEST PUSH1 0x0 PUSH2 0x15DF DUP3 DUP7 PUSH2 0x1574 JUMP JUMPDEST PUSH1 0x14 DUP3 ADD SWAP2 POP PUSH2 0x15EF DUP3 DUP6 PUSH2 0x1574 JUMP JUMPDEST PUSH1 0x14 DUP3 ADD SWAP2 POP PUSH2 0x15FF DUP3 DUP5 PUSH2 0x15BC JUMP JUMPDEST PUSH1 0x1 DUP3 ADD SWAP2 POP DUP2 SWAP1 POP SWAP5 SWAP4 POP POP POP POP JUMP JUMPDEST PUSH2 0x1619 DUP2 PUSH2 0x118F JUMP JUMPDEST DUP3 MSTORE POP POP JUMP JUMPDEST PUSH1 0x0 PUSH1 0xA0 DUP3 ADD SWAP1 POP PUSH2 0x1634 PUSH1 0x0 DUP4 ADD DUP9 PUSH2 0x10D3 JUMP JUMPDEST PUSH2 0x1641 PUSH1 0x20 DUP4 ADD DUP8 PUSH2 0x1165 JUMP JUMPDEST PUSH2 0x164E PUSH1 0x40 DUP4 ADD DUP7 PUSH2 0x1165 JUMP JUMPDEST PUSH2 0x165B PUSH1 0x60 DUP4 ADD DUP6 PUSH2 0x1610 JUMP JUMPDEST PUSH2 0x1668 PUSH1 0x80 DUP4 ADD DUP5 PUSH2 0x1165 JUMP JUMPDEST SWAP7 SWAP6 POP POP POP POP POP POP JUMP JUMPDEST PUSH1 0x0 DUP2 MLOAD SWAP1 POP PUSH2 0x1681 DUP2 PUSH2 0x119B JUMP JUMPDEST SWAP3 SWAP2 POP POP JUMP JUMPDEST PUSH1 0x0 DUP1 PUSH1 0x40 DUP4 DUP6 SUB SLT ISZERO PUSH2 0x169E JUMPI PUSH2 0x169D PUSH2 0x10FD JUMP JUMPDEST JUMPDEST PUSH1 0x0 PUSH2 0x16AC DUP6 DUP3 DUP7 ADD PUSH2 0x1672 JUMP JUMPDEST SWAP3 POP POP PUSH1 0x20 PUSH2 0x16BD DUP6 DUP3 DUP7 ADD PUSH2 0x1501 JUMP JUMPDEST SWAP2 POP POP SWAP3 POP SWAP3 SWAP1 POP JUMP JUMPDEST PUSH32 0x4E487B7100000000000000000000000000000000000000000000000000000000 PUSH1 0x0 MSTORE PUSH1 0x11 PUSH1 0x4 MSTORE PUSH1 0x24 PUSH1 0x0 REVERT JUMPDEST PUSH1 0x0 PUSH2 0x1701 DUP3 PUSH2 0x115B JUMP JUMPDEST SWAP2 POP PUSH2 0x170C DUP4 PUSH2 0x115B JUMP JUMPDEST SWAP3 POP DUP3 DUP3 ADD SWAP1 POP DUP1 DUP3 GT ISZERO PUSH2 0x1724 JUMPI PUSH2 0x1723 PUSH2 0x16C7 JUMP JUMPDEST JUMPDEST SWAP3 SWAP2 POP POP JUMP JUMPDEST PUSH1 0x0 PUSH2 0x1735 DUP3 PUSH2 0x115B JUMP JUMPDEST SWAP2 POP PUSH2 0x1740 DUP4 PUSH2 0x115B JUMP JUMPDEST SWAP3 POP DUP3 DUP3 MUL PUSH2 0x174E DUP2 PUSH2 0x115B JUMP JUMPDEST SWAP2 POP DUP3 DUP3 DIV DUP5 EQ DUP4 ISZERO OR PUSH2 0x1765 JUMPI PUSH2 0x1764 PUSH2 0x16C7 JUMP JUMPDEST JUMPDEST POP SWAP3 SWAP2 POP POP JUMP JUMPDEST PUSH32 0x4E487B7100000000000000000000000000000000000000000000000000000000 PUSH1 0x0 MSTORE PUSH1 0x12 PUSH1 0x4 MSTORE PUSH1 0x24 PUSH1 0x0 REVERT JUMPDEST PUSH1 0x0 PUSH2 0x17A6 DUP3 PUSH2 0x115B JUMP JUMPDEST SWAP2 POP PUSH2 0x17B1 DUP4 PUSH2 0x115B JUMP JUMPDEST SWAP3 POP DUP3 PUSH2 0x17C1 JUMPI PUSH2 0x17C0 PUSH2 0x176C JUMP JUMPDEST JUMPDEST DUP3 DUP3 DIV SWAP1 POP SWAP3 SWAP2 POP POP JUMP JUMPDEST PUSH1 0x0 PUSH2 0x17D7 DUP3 PUSH2 0x115B JUMP JUMPDEST SWAP2 POP PUSH2 0x17E2 DUP4 PUSH2 0x115B JUMP JUMPDEST SWAP3 POP DUP3 DUP3 SUB SWAP1 POP DUP2 DUP2 GT ISZERO PUSH2 0x17FA JUMPI PUSH2 0x17F9 PUSH2 0x16C7 JUMP JUMPDEST JUMPDEST SWAP3 SWAP2 POP POP JUMP JUMPDEST PUSH1 0x0 PUSH1 0x80 DUP3 ADD SWAP1 POP PUSH2 0x1815 PUSH1 0x0 DUP4 ADD DUP8 PUSH2 0x10D3 JUMP JUMPDEST PUSH2 0x1822 PUSH1 0x20 DUP4 ADD DUP7 PUSH2 0x10D3 JUMP JUMPDEST PUSH2 0x182F PUSH1 0x40 DUP4 ADD DUP6 PUSH2 0x10D3 JUMP JUMPDEST PUSH2 0x183C PUSH1 0x60 DUP4 ADD DUP5 PUSH2 0x1610 JUMP JUMPDEST SWAP6 SWAP5 POP POP POP POP POP JUMP JUMPDEST PUSH1 0x0 DUP1 PUSH1 0x0 DUP1 PUSH1 0x0 DUP1 PUSH1 0x0 DUP1 PUSH2 0x100 DUP10 DUP12 SUB SLT ISZERO PUSH2 0x1866 JUMPI PUSH2 0x1865 PUSH2 0x10FD JUMP JUMPDEST JUMPDEST PUSH1 0x0 PUSH2 0x1874 DUP12 DUP3 DUP13 ADD PUSH2 0x1501 JUMP JUMPDEST SWAP9 POP POP PUSH1 0x20 PUSH2 0x1885 DUP12 DUP3 DUP13 ADD PUSH2 0x1501 JUMP JUMPDEST SWAP8 POP POP PUSH1 0x40 PUSH2 0x1896 DUP12 DUP3 DUP13 ADD PUSH2 0x1501 JUMP JUMPDEST SWAP7 POP POP PUSH1 0x60 PUSH2 0x18A7 DUP12 DUP3 DUP13 ADD PUSH2 0x1501 JUMP JUMPDEST SWAP6 POP POP PUSH1 0x80 PUSH2 0x18B8 DUP12 DUP3 DUP13 ADD PUSH2 0x1501 JUMP JUMPDEST SWAP5 POP POP PUSH1 0xA0 PUSH2 0x18C9 DUP12 DUP3 DUP13 ADD PUSH2 0x1501 JUMP JUMPDEST SWAP4 POP POP PUSH1 0xC0 PUSH2 0x18DA DUP12 DUP3 DUP13 ADD PUSH2 0x1672 JUMP JUMPDEST SWAP3 POP POP PUSH1 0xE0 PUSH2 0x18EB DUP12 DUP3 DUP13 ADD PUSH2 0x1501 JUMP JUMPDEST SWAP2 POP POP SWAP3 SWAP6 SWAP9 POP SWAP3 SWAP6 SWAP9 SWAP1 SWAP4 SWAP7 POP JUMP JUMPDEST PUSH1 0x0 DUP2 MLOAD SWAP1 POP PUSH2 0x190A DUP2 PUSH2 0x1102 JUMP JUMPDEST SWAP3 SWAP2 POP POP JUMP JUMPDEST PUSH1 0x0 PUSH1 0x20 DUP3 DUP5 SUB SLT ISZERO PUSH2 0x1926 JUMPI PUSH2 0x1925 PUSH2 0x10FD JUMP JUMPDEST JUMPDEST PUSH1 0x0 PUSH2 0x1934 DUP5 DUP3 DUP6 ADD PUSH2 0x18FB JUMP JUMPDEST SWAP2 POP POP SWAP3 SWAP2 POP POP JUMP JUMPDEST PUSH32 0x696E73756666696369616E7420636F6C6C61746572616C000000000000000000 PUSH1 0x0 DUP3 ADD MSTORE POP JUMP JUMPDEST PUSH1 0x0 PUSH2 0x1973 PUSH1 0x17 DUP4 PUSH2 0x145A JUMP JUMPDEST SWAP2 POP PUSH2 0x197E DUP3 PUSH2 0x193D JUMP JUMPDEST PUSH1 0x20 DUP3 ADD SWAP1 POP SWAP2 SWAP1 POP JUMP JUMPDEST PUSH1 0x0 PUSH1 0x20 DUP3 ADD SWAP1 POP DUP2 DUP2 SUB PUSH1 0x0 DUP4 ADD MSTORE PUSH2 0x19A2 DUP2 PUSH2 0x1966 JUMP JUMPDEST SWAP1 POP SWAP2 SWAP1 POP JUMP JUMPDEST PUSH1 0x0 PUSH1 0xE0 DUP3 ADD SWAP1 POP PUSH2 0x19BE PUSH1 0x0 DUP4 ADD DUP11 PUSH2 0x10D3 JUMP JUMPDEST PUSH2 0x19CB PUSH1 0x20 DUP4 ADD DUP10 PUSH2 0x10D3 JUMP JUMPDEST PUSH2 0x19D8 PUSH1 0x40 DUP4 ADD DUP9 PUSH2 0x1610 JUMP JUMPDEST PUSH2 0x19E5 PUSH1 0x60 DUP4 ADD DUP8 PUSH2 0x1165 JUMP JUMPDEST PUSH2 0x19F2 PUSH1 0x80 DUP4 ADD DUP7 PUSH2 0x1165 JUMP JUMPDEST PUSH2 0x19FF PUSH1 0xA0 DUP4 ADD DUP6 PUSH2 0x1165 JUMP JUMPDEST PUSH2 0x1A0C PUSH1 0xC0 DUP4 ADD DUP5 PUSH2 0x1165 JUMP JUMPDEST SWAP9 SWAP8 POP POP POP POP POP POP POP POP JUMP JUMPDEST PUSH1 0x0 PUSH1 0x60 DUP3 ADD SWAP1 POP PUSH2 0x1A2D PUSH1 0x0 DUP4 ADD DUP7 PUSH2 0x10D3 JUMP JUMPDEST PUSH2 0x1A3A PUSH1 0x20 DUP4 ADD DUP6 PUSH2 0x10D3 JUMP JUMPDEST PUSH2 0x1A47 PUSH1 0x40 DUP4 ADD DUP5 PUSH2 0x1165 JUMP JUMPDEST SWAP5 SWAP4 POP POP POP POP JUMP JUMPDEST PUSH1 0x0 PUSH1 0x20 DUP3 DUP5 SUB SLT ISZERO PUSH2 0x1A65 JUMPI PUSH2 0x1A64 PUSH2 0x10FD JUMP JUMPDEST JUMPDEST PUSH1 0x0 PUSH2 0x1A73 DUP5 DUP3 DUP6 ADD PUSH2 0x1672 JUMP JUMPDEST SWAP2 POP POP SWAP3 SWAP2 POP POP JUMP JUMPDEST PUSH1 0x0 PUSH1 0x40 DUP3 ADD SWAP1 POP PUSH2 0x1A91 PUSH1 0x0 DUP4 ADD DUP6 PUSH2 0x10D3 JUMP JUMPDEST PUSH2 0x1A9E PUSH1 0x20 DUP4 ADD DUP5 PUSH2 0x1610 JUMP JUMPDEST SWAP4 SWAP3 POP POP POP JUMP JUMPDEST PUSH32 0x4E487B7100000000000000000000000000000000000000000000000000000000 PUSH1 0x0 MSTORE PUSH1 0x22 PUSH1 0x4 MSTORE PUSH1 0x24 PUSH1 0x0 REVERT JUMPDEST PUSH1 0x0 PUSH1 0x2 DUP3 DIV SWAP1 POP PUSH1 0x1 DUP3 AND DUP1 PUSH2 0x1AEC JUMPI PUSH1 0x7F DUP3 AND SWAP2 POP JUMPDEST PUSH1 0x20 DUP3 LT DUP2 SUB PUSH2 0x1AFF JUMPI PUSH2 0x1AFE PUSH2 0x1AA5 JUMP JUMPDEST JUMPDEST POP SWAP2 SWAP1 POP JUMP JUMPDEST PUSH32 0x6F6E6C7920676F762063616E2063616C6C20746869732066756E6374696F6E00 PUSH1 0x0 DUP3 ADD MSTORE POP JUMP JUMPDEST PUSH1 0x0 PUSH2 0x1B3B PUSH1 0x1F DUP4 PUSH2 0x145A JUMP JUMPDEST SWAP2 POP PUSH2 0x1B46 DUP3 PUSH2 0x1B05 JUMP JUMPDEST PUSH1 0x20 DUP3 ADD SWAP1 POP SWAP2 SWAP1 POP JUMP JUMPDEST PUSH1 0x0 PUSH1 0x20 DUP3 ADD SWAP1 POP DUP2 DUP2 SUB PUSH1 0x0 DUP4 ADD MSTORE PUSH2 0x1B6A DUP2 PUSH2 0x1B2E JUMP JUMPDEST SWAP1 POP SWAP2 SWAP1 POP JUMP INVALID LOG2 PUSH5 0x6970667358 0x22 SLT KECCAK256 0x4E 0xB6 SWAP8 0xF9 0xBE 0xA7 SWAP10 DUP12 0xEB MLOAD 0x4B 0xC1 0xD0 0xE8 PUSH32 0x293BBF0FE1B5BEA42B24858A17E97F5DFA64736F6C6343000811003300000000 "},"methodIdentifiers":{"PRICE_PRECISION()":"95082d25","_getLoanAmountKey(address,address,bool)":"6602533d","amountLoanedForPosition(bytes32)":"d3c34f3a","errors(uint256)":"fed1a606","factoryContractAddress()":"732e0a1d","getPosition(address,address,bool)":"8c1395f8","getReserve()":"59bf5d39","gov()":"12d43a51","liquidateLoan(address,address,bool)":"a19cf92f","maxLoanOnPosition(address,bool,uint256,uint256,uint256,uint256)":"68df4ebd","provideLiquidity(uint256)":"eb521a4c","setFactoryaContractAddress(address)":"0fef75c3","setVaultContractAddress(address)":"871105cc","takeLoanOnPosition(address,bool,uint256)":"9fd282b0","totalLoanedAmount()":"819bd33c","usdcAddress()":"02d45457","vaultContractAddress()":"a92ea0e0"}}}}}