{"contracts/AbstractPosition.sol":{"AbstractPosition":{"abi":[{"inputs":[{"internalType":"address","name":"_gov","type":"address"},{"internalType":"address","name":"_lendingContractAddress","type":"address"},{"internalType":"address","name":"_ownerAddress","type":"address"},{"internalType":"address","name":"_positionRouterAddress","type":"address"},{"internalType":"address","name":"_routerAddress","type":"address"},{"internalType":"address","name":"_orderBookAddress","type":"address"}],"stateMutability":"nonpayable","type":"constructor"},{"inputs":[],"name":"PRICE_PRECISION","outputs":[{"internalType":"uint256","name":"","type":"uint256"}],"stateMutability":"view","type":"function"},{"inputs":[{"internalType":"address","name":"_indexToken","type":"address"},{"internalType":"bool","name":"_isLong","type":"bool"}],"name":"_getPositionOnIndexKey","outputs":[{"internalType":"bytes32","name":"","type":"bytes32"}],"stateMutability":"pure","type":"function"},{"inputs":[{"internalType":"address[]","name":"_path","type":"address[]"},{"internalType":"address","name":"_indexToken","type":"address"},{"internalType":"uint256","name":"_collateralDelta","type":"uint256"},{"internalType":"uint256","name":"_sizeDelta","type":"uint256"},{"internalType":"bool","name":"_isLong","type":"bool"},{"internalType":"address","name":"_receiver","type":"address"},{"internalType":"uint256","name":"_acceptablePrice","type":"uint256"},{"internalType":"uint256","name":"_minOut","type":"uint256"},{"internalType":"uint256","name":"_executionFee","type":"uint256"},{"internalType":"bool","name":"_withdrawETH","type":"bool"},{"internalType":"address","name":"_callbackTarget","type":"address"}],"name":"callCreateDecreasePosition","outputs":[{"internalType":"bytes32","name":"","type":"bytes32"}],"stateMutability":"payable","type":"function"},{"inputs":[{"internalType":"address[]","name":"_path","type":"address[]"},{"internalType":"address","name":"_indexToken","type":"address"},{"internalType":"uint256","name":"_minOut","type":"uint256"},{"internalType":"uint256","name":"_sizeDelta","type":"uint256"},{"internalType":"bool","name":"_isLong","type":"bool"},{"internalType":"uint256","name":"_acceptablePrice","type":"uint256"},{"internalType":"uint256","name":"_executionFee","type":"uint256"},{"internalType":"bytes32","name":"_referralCode","type":"bytes32"},{"internalType":"address","name":"_callbackTarget","type":"address"}],"name":"callCreateIncreasePosition","outputs":[{"internalType":"bytes32","name":"","type":"bytes32"}],"stateMutability":"payable","type":"function"},{"inputs":[],"name":"deposit","outputs":[],"stateMutability":"payable","type":"function"},{"inputs":[{"internalType":"uint256","name":"","type":"uint256"}],"name":"errors","outputs":[{"internalType":"string","name":"","type":"string"}],"stateMutability":"view","type":"function"},{"inputs":[{"internalType":"address","name":"_account","type":"address"},{"internalType":"uint256","name":"_index","type":"uint256"}],"name":"getRequestKey","outputs":[{"internalType":"bytes32","name":"","type":"bytes32"}],"stateMutability":"pure","type":"function"},{"inputs":[],"name":"gov","outputs":[{"internalType":"address","name":"","type":"address"}],"stateMutability":"view","type":"function"},{"inputs":[{"internalType":"bytes32","name":"","type":"bytes32"}],"name":"isLoaned","outputs":[{"internalType":"bool","name":"","type":"bool"}],"stateMutability":"view","type":"function"},{"inputs":[],"name":"lendingContractAddress","outputs":[{"internalType":"address","name":"","type":"address"}],"stateMutability":"view","type":"function"},{"inputs":[{"internalType":"address","name":"_indexToken","type":"address"},{"internalType":"address","name":"_collateralToken","type":"address"},{"internalType":"bool","name":"_isLong","type":"bool"},{"internalType":"uint256","name":"_loanAmount","type":"uint256"},{"internalType":"uint256","name":"_collateral","type":"uint256"},{"internalType":"uint256","name":"_averagePrice","type":"uint256"},{"internalType":"uint256","name":"_size","type":"uint256"}],"name":"markPositionAsLoaned","outputs":[],"stateMutability":"nonpayable","type":"function"},{"inputs":[{"internalType":"address","name":"_indexToken","type":"address"},{"internalType":"bool","name":"_isLong","type":"bool"}],"name":"markPositionAsPaid","outputs":[],"stateMutability":"nonpayable","type":"function"},{"inputs":[],"name":"orderBookAddress","outputs":[{"internalType":"address","name":"","type":"address"}],"stateMutability":"view","type":"function"},{"inputs":[],"name":"ownerAddress","outputs":[{"internalType":"address","name":"","type":"address"}],"stateMutability":"view","type":"function"},{"inputs":[],"name":"positionRouterAddress","outputs":[{"internalType":"address","name":"","type":"address"}],"stateMutability":"view","type":"function"},{"inputs":[],"name":"routerAddress","outputs":[{"internalType":"address","name":"","type":"address"}],"stateMutability":"view","type":"function"},{"inputs":[{"internalType":"address","name":"_lendingContractAddress","type":"address"}],"name":"setLendingContractAddress","outputs":[],"stateMutability":"nonpayable","type":"function"},{"inputs":[{"internalType":"address","name":"newAddress","type":"address"}],"name":"setPositionRouterAddress","outputs":[],"stateMutability":"nonpayable","type":"function"},{"inputs":[{"internalType":"address","name":"newAddress","type":"address"}],"name":"setRouterAddress","outputs":[],"stateMutability":"nonpayable","type":"function"}],"evm":{"bytecode":{"linkReferences":{},"object":"60806040523480156200001157600080fd5b50604051620025df380380620025df8339818101604052810190620000379190620002c9565b856000806101000a81548173ffffffffffffffffffffffffffffffffffffffff021916908373ffffffffffffffffffffffffffffffffffffffff16021790555083600560006101000a81548173ffffffffffffffffffffffffffffffffffffffff021916908373ffffffffffffffffffffffffffffffffffffffff16021790555084600160006101000a81548173ffffffffffffffffffffffffffffffffffffffff021916908373ffffffffffffffffffffffffffffffffffffffff16021790555082600260006101000a81548173ffffffffffffffffffffffffffffffffffffffff021916908373ffffffffffffffffffffffffffffffffffffffff16021790555081600360006101000a81548173ffffffffffffffffffffffffffffffffffffffff021916908373ffffffffffffffffffffffffffffffffffffffff16021790555080600460006101000a81548173ffffffffffffffffffffffffffffffffffffffff021916908373ffffffffffffffffffffffffffffffffffffffff16021790555060008290508073ffffffffffffffffffffffffffffffffffffffff166338c74dd9600260009054906101000a900473ffffffffffffffffffffffffffffffffffffffff166040518263ffffffff1660e01b81526004016200021e919062000376565b600060405180830381600087803b1580156200023957600080fd5b505af11580156200024e573d6000803e3d6000fd5b505050505050505050505062000393565b600080fd5b600073ffffffffffffffffffffffffffffffffffffffff82169050919050565b6000620002918262000264565b9050919050565b620002a38162000284565b8114620002af57600080fd5b50565b600081519050620002c38162000298565b92915050565b60008060008060008060c08789031215620002e957620002e86200025f565b5b6000620002f989828a01620002b2565b96505060206200030c89828a01620002b2565b95505060406200031f89828a01620002b2565b94505060606200033289828a01620002b2565b93505060806200034589828a01620002b2565b92505060a06200035889828a01620002b2565b9150509295509295509295565b620003708162000284565b82525050565b60006020820190506200038d600083018462000365565b92915050565b61223c80620003a36000396000f3fe6080604052600436106101145760003560e01c80638f84aa09116100a0578063a0f1403411610064578063a0f14034146103ad578063a4f8a0bf146103d6578063d0e30db0146103ff578063d422b00f14610409578063fed1a6061461043457610114565b80638f84aa09146102bf578063903d5aeb146102ea578063937a0e4e146103275780639409d8701461035757806395082d251461038257610114565b80633268cc56116100e75780633268cc56146101da57806341cb87fc1461020557806362f8a3fe1461022e57806371e229b31461026b5780637379dbe61461029457610114565b806312d43a511461011957806313f2d1281461014457806317a92e431461016d5780631d59310e1461019d575b600080fd5b34801561012557600080fd5b5061012e610471565b60405161013b9190611190565b60405180910390f35b34801561015057600080fd5b5061016b600480360381019061016691906111eb565b610495565b005b61018760048036038101906101829190611415565b6104e1565b604051610194919061150a565b60405180910390f35b3480156101a957600080fd5b506101c460048036038101906101bf9190611525565b610637565b6040516101d1919061150a565b60405180910390f35b3480156101e657600080fd5b506101ef61066a565b6040516101fc9190611190565b60405180910390f35b34801561021157600080fd5b5061022c600480360381019061022791906111eb565b610690565b005b34801561023a57600080fd5b5061025560048036038101906102509190611565565b6106dc565b604051610262919061150a565b60405180910390f35b34801561027757600080fd5b50610292600480360381019061028d91906115a5565b61070f565b005b3480156102a057600080fd5b506102a9610991565b6040516102b69190611190565b60405180910390f35b3480156102cb57600080fd5b506102d46109b7565b6040516102e19190611190565b60405180910390f35b3480156102f657600080fd5b50610311600480360381019061030c9190611647565b6109dd565b60405161031e9190611683565b60405180910390f35b610341600480360381019061033c919061169e565b6109fd565b60405161034e919061150a565b60405180910390f35b34801561036357600080fd5b5061036c610c5c565b6040516103799190611190565b60405180910390f35b34801561038e57600080fd5b50610397610c82565b6040516103a491906117bd565b60405180910390f35b3480156103b957600080fd5b506103d460048036038101906103cf91906111eb565b610c93565b005b3480156103e257600080fd5b506103fd60048036038101906103f89190611525565b610cdf565b005b610407610e0e565b005b34801561041557600080fd5b5061041e610e24565b60405161042b9190611190565b60405180910390f35b34801561044057600080fd5b5061045b600480360381019061045691906117d8565b610e4a565b6040516104689190611884565b60405180910390f35b60008054906101000a900473ffffffffffffffffffffffffffffffffffffffff1681565b61049d610eea565b80600160006101000a81548173ffffffffffffffffffffffffffffffffffffffff021916908373ffffffffffffffffffffffffffffffffffffffff16021790555050565b6000600560009054906101000a900473ffffffffffffffffffffffffffffffffffffffff1673ffffffffffffffffffffffffffffffffffffffff163373ffffffffffffffffffffffffffffffffffffffff1614610573576040517f08c379a000000000000000000000000000000000000000000000000000000000815260040161056a90611918565b60405180910390fd5b6000600260009054906101000a900473ffffffffffffffffffffffffffffffffffffffff1690508073ffffffffffffffffffffffffffffffffffffffff16635b88e8c6348d8d8d8d8d8d8d8d8d6040518b63ffffffff1660e01b81526004016105e4999897969594939291906119f6565b60206040518083038185885af1158015610602573d6000803e3d6000fd5b50505050506040513d601f19601f820116820180604052508101906106279190611a9f565b9150509998505050505050505050565b6000828260405160200161064c929190611b5c565b60405160208183030381529060405280519060200120905092915050565b600360009054906101000a900473ffffffffffffffffffffffffffffffffffffffff1681565b610698610eea565b80600360006101000a81548173ffffffffffffffffffffffffffffffffffffffff021916908373ffffffffffffffffffffffffffffffffffffffff16021790555050565b600082826040516020016106f1929190611ba9565b60405160208183030381529060405280519060200120905092915050565b600160009054906101000a900473ffffffffffffffffffffffffffffffffffffffff1673ffffffffffffffffffffffffffffffffffffffff163373ffffffffffffffffffffffffffffffffffffffff161461079f576040517f08c379a000000000000000000000000000000000000000000000000000000000815260040161079690611c47565b60405180910390fd5b60006107ab8887610637565b90506006600082815260200190815260200160002060009054906101000a900460ff161561080e576040517f08c379a000000000000000000000000000000000000000000000000000000000815260040161080590611cb3565b60405180910390fd5b600061085961084a8461083c8761082e8b8b610f7a90919063ffffffff16565b610fc490919063ffffffff16565b61103e90919063ffffffff16565b85610f7a90919063ffffffff16565b9050861561088f57610888606461087a606984610fc490919063ffffffff16565b61103e90919063ffffffff16565b90506108b9565b6108b660646108a8605f84610fc490919063ffffffff16565b61103e90919063ffffffff16565b90505b6000600460009054906101000a900473ffffffffffffffffffffffffffffffffffffffff1690508073ffffffffffffffffffffffffffffffffffffffff1663c16cde8a8b898c60008d8860016040518863ffffffff1660e01b81526004016109279796959493929190611d18565b600060405180830381600087803b15801561094157600080fd5b505af1158015610955573d6000803e3d6000fd5b5050505060016006600085815260200190815260200160002060006101000a81548160ff02191690831515021790555050505050505050505050565b600160009054906101000a900473ffffffffffffffffffffffffffffffffffffffff1681565b600560009054906101000a900473ffffffffffffffffffffffffffffffffffffffff1681565b60066020528060005260406000206000915054906101000a900460ff1681565b6000600560009054906101000a900473ffffffffffffffffffffffffffffffffffffffff1673ffffffffffffffffffffffffffffffffffffffff163373ffffffffffffffffffffffffffffffffffffffff161480610aa85750600160009054906101000a900473ffffffffffffffffffffffffffffffffffffffff1673ffffffffffffffffffffffffffffffffffffffff163373ffffffffffffffffffffffffffffffffffffffff16145b610ae7576040517f08c379a0000000000000000000000000000000000000000000000000000000008152600401610ade90611df9565b60405180910390fd5b833411610b29576040517f08c379a0000000000000000000000000000000000000000000000000000000008152600401610b2090611e65565b60405180910390fd5b60066000610b378d8b610637565b815260200190815260200160002060009054906101000a900460ff16610b92576040517f08c379a0000000000000000000000000000000000000000000000000000000008152600401610b8990611cb3565b60405180910390fd5b6000600260009054906101000a900473ffffffffffffffffffffffffffffffffffffffff1690508073ffffffffffffffffffffffffffffffffffffffff16637be7d141348f8f8f8f8f8f8f8f8f8f8f6040518d63ffffffff1660e01b8152600401610c079b9a99989796959493929190611e85565b60206040518083038185885af1158015610c25573d6000803e3d6000fd5b50505050506040513d601f19601f82011682018060405250810190610c4a9190611a9f565b9150509b9a5050505050505050505050565b600460009054906101000a900473ffffffffffffffffffffffffffffffffffffffff1681565b6c0c9f2c9cd04674edea4000000081565b610c9b610eea565b80600260006101000a81548173ffffffffffffffffffffffffffffffffffffffff021916908373ffffffffffffffffffffffffffffffffffffffff16021790555050565b600160009054906101000a900473ffffffffffffffffffffffffffffffffffffffff1673ffffffffffffffffffffffffffffffffffffffff163373ffffffffffffffffffffffffffffffffffffffff1614610d6f576040517f08c379a0000000000000000000000000000000000000000000000000000000008152600401610d6690611c47565b60405180910390fd5b6000610d7b8383610637565b90506006600082815260200190815260200160002060009054906101000a900460ff16610ddd576040517f08c379a0000000000000000000000000000000000000000000000000000000008152600401610dd490611f83565b60405180910390fd5b60006006600083815260200190815260200160002060006101000a81548160ff021916908315150217905550505050565b670de0b6b3a76400003414610e2257600080fd5b565b600260009054906101000a900473ffffffffffffffffffffffffffffffffffffffff1681565b60076020528060005260406000206000915090508054610e6990611fd2565b80601f0160208091040260200160405190810160405280929190818152602001828054610e9590611fd2565b8015610ee25780601f10610eb757610100808354040283529160200191610ee2565b820191906000526020600020905b815481529060010190602001808311610ec557829003601f168201915b505050505081565b60008054906101000a900473ffffffffffffffffffffffffffffffffffffffff1673ffffffffffffffffffffffffffffffffffffffff163373ffffffffffffffffffffffffffffffffffffffff1614610f78576040517f08c379a0000000000000000000000000000000000000000000000000000000008152600401610f6f9061204f565b60405180910390fd5b565b6000610fbc83836040518060400160405280601e81526020017f536166654d6174683a207375627472616374696f6e206f766572666c6f770000815250611088565b905092915050565b6000808303610fd65760009050611038565b60008284610fe4919061209e565b9050828482610ff3919061210f565b14611033576040517f08c379a000000000000000000000000000000000000000000000000000000000815260040161102a906121b2565b60405180910390fd5b809150505b92915050565b600061108083836040518060400160405280601a81526020017f536166654d6174683a206469766973696f6e206279207a65726f0000000000008152506110ec565b905092915050565b60008383111582906110d0576040517f08c379a00000000000000000000000000000000000000000000000000000000081526004016110c79190611884565b60405180910390fd5b50600083856110df91906121d2565b9050809150509392505050565b60008083118290611133576040517f08c379a000000000000000000000000000000000000000000000000000000000815260040161112a9190611884565b60405180910390fd5b5060008385611142919061210f565b9050809150509392505050565b600073ffffffffffffffffffffffffffffffffffffffff82169050919050565b600061117a8261114f565b9050919050565b61118a8161116f565b82525050565b60006020820190506111a56000830184611181565b92915050565b6000604051905090565b600080fd5b600080fd5b6111c88161116f565b81146111d357600080fd5b50565b6000813590506111e5816111bf565b92915050565b600060208284031215611201576112006111b5565b5b600061120f848285016111d6565b91505092915050565b600080fd5b6000601f19601f8301169050919050565b7f4e487b7100000000000000000000000000000000000000000000000000000000600052604160045260246000fd5b6112668261121d565b810181811067ffffffffffffffff821117156112855761128461122e565b5b80604052505050565b60006112986111ab565b90506112a4828261125d565b919050565b600067ffffffffffffffff8211156112c4576112c361122e565b5b602082029050602081019050919050565b600080fd5b60006112ed6112e8846112a9565b61128e565b905080838252602082019050602084028301858111156113105761130f6112d5565b5b835b81811015611339578061132588826111d6565b845260208401935050602081019050611312565b5050509392505050565b600082601f83011261135857611357611218565b5b81356113688482602086016112da565b91505092915050565b6000819050919050565b61138481611371565b811461138f57600080fd5b50565b6000813590506113a18161137b565b92915050565b60008115159050919050565b6113bc816113a7565b81146113c757600080fd5b50565b6000813590506113d9816113b3565b92915050565b6000819050919050565b6113f2816113df565b81146113fd57600080fd5b50565b60008135905061140f816113e9565b92915050565b60008060008060008060008060006101208a8c031215611438576114376111b5565b5b60008a013567ffffffffffffffff811115611456576114556111ba565b5b6114628c828d01611343565b99505060206114738c828d016111d6565b98505060406114848c828d01611392565b97505060606114958c828d01611392565b96505060806114a68c828d016113ca565b95505060a06114b78c828d01611392565b94505060c06114c88c828d01611392565b93505060e06114d98c828d01611400565b9250506101006114eb8c828d016111d6565b9150509295985092959850929598565b611504816113df565b82525050565b600060208201905061151f60008301846114fb565b92915050565b6000806040838503121561153c5761153b6111b5565b5b600061154a858286016111d6565b925050602061155b858286016113ca565b9150509250929050565b6000806040838503121561157c5761157b6111b5565b5b600061158a858286016111d6565b925050602061159b85828601611392565b9150509250929050565b600080600080600080600060e0888a0312156115c4576115c36111b5565b5b60006115d28a828b016111d6565b97505060206115e38a828b016111d6565b96505060406115f48a828b016113ca565b95505060606116058a828b01611392565b94505060806116168a828b01611392565b93505060a06116278a828b01611392565b92505060c06116388a828b01611392565b91505092959891949750929550565b60006020828403121561165d5761165c6111b5565b5b600061166b84828501611400565b91505092915050565b61167d816113a7565b82525050565b60006020820190506116986000830184611674565b92915050565b60008060008060008060008060008060006101608c8e0312156116c4576116c36111b5565b5b60008c013567ffffffffffffffff8111156116e2576116e16111ba565b5b6116ee8e828f01611343565b9b505060206116ff8e828f016111d6565b9a505060406117108e828f01611392565b99505060606117218e828f01611392565b98505060806117328e828f016113ca565b97505060a06117438e828f016111d6565b96505060c06117548e828f01611392565b95505060e06117658e828f01611392565b9450506101006117778e828f01611392565b9350506101206117898e828f016113ca565b92505061014061179b8e828f016111d6565b9150509295989b509295989b9093969950565b6117b781611371565b82525050565b60006020820190506117d260008301846117ae565b92915050565b6000602082840312156117ee576117ed6111b5565b5b60006117fc84828501611392565b91505092915050565b600081519050919050565b600082825260208201905092915050565b60005b8381101561183f578082015181840152602081019050611824565b60008484015250505050565b600061185682611805565b6118608185611810565b9350611870818560208601611821565b6118798161121d565b840191505092915050565b6000602082019050818103600083015261189e818461184b565b905092915050565b7f6f6e6c7920746865206f776e65722063616e2063616c6c20746869732066756e60008201527f6374696f6e000000000000000000000000000000000000000000000000000000602082015250565b6000611902602583611810565b915061190d826118a6565b604082019050919050565b60006020820190508181036000830152611931816118f5565b9050919050565b600081519050919050565b600082825260208201905092915050565b6000819050602082019050919050565b61196d8161116f565b82525050565b600061197f8383611964565b60208301905092915050565b6000602082019050919050565b60006119a382611938565b6119ad8185611943565b93506119b883611954565b8060005b838110156119e95781516119d08882611973565b97506119db8361198b565b9250506001810190506119bc565b5085935050505092915050565b6000610120820190508181036000830152611a11818c611998565b9050611a20602083018b611181565b611a2d604083018a6117ae565b611a3a60608301896117ae565b611a476080830188611674565b611a5460a08301876117ae565b611a6160c08301866117ae565b611a6e60e08301856114fb565b611a7c610100830184611181565b9a9950505050505050505050565b600081519050611a99816113e9565b92915050565b600060208284031215611ab557611ab46111b5565b5b6000611ac384828501611a8a565b91505092915050565b60008160601b9050919050565b6000611ae482611acc565b9050919050565b6000611af682611ad9565b9050919050565b611b0e611b098261116f565b611aeb565b82525050565b60008160f81b9050919050565b6000611b2c82611b14565b9050919050565b6000611b3e82611b21565b9050919050565b611b56611b51826113a7565b611b33565b82525050565b6000611b688285611afd565b601482019150611b788284611b45565b6001820191508190509392505050565b6000819050919050565b611ba3611b9e82611371565b611b88565b82525050565b6000611bb58285611afd565b601482019150611bc58284611b92565b6020820191508190509392505050565b7f6f6e6c79206c656e64696e67436f6e74726163742063616e2063616c6c20746860008201527f69732066756e6374696f6e000000000000000000000000000000000000000000602082015250565b6000611c31602b83611810565b9150611c3c82611bd5565b604082019050919050565b60006020820190508181036000830152611c6081611c24565b9050919050565b7f706f736974696f6e2063757272656e746c79206c6f616e656400000000000000600082015250565b6000611c9d601983611810565b9150611ca882611c67565b602082019050919050565b60006020820190508181036000830152611ccc81611c90565b9050919050565b6000819050919050565b6000819050919050565b6000611d02611cfd611cf884611cd3565b611cdd565b611371565b9050919050565b611d1281611ce7565b82525050565b600060e082019050611d2d600083018a611181565b611d3a60208301896117ae565b611d476040830188611181565b611d546060830187611d09565b611d616080830186611674565b611d6e60a08301856117ae565b611d7b60c0830184611674565b98975050505050505050565b7f6f6e6c7920746865206f776e6572206f7220676f762063616e2063616c6c207460008201527f6869732066756e6374696f6e0000000000000000000000000000000000000000602082015250565b6000611de3602c83611810565b9150611dee82611d87565b604082019050919050565b60006020820190508181036000830152611e1281611dd6565b9050919050565b7f6d7976616c000000000000000000000000000000000000000000000000000000600082015250565b6000611e4f600583611810565b9150611e5a82611e19565b602082019050919050565b60006020820190508181036000830152611e7e81611e42565b9050919050565b6000610160820190508181036000830152611ea0818e611998565b9050611eaf602083018d611181565b611ebc604083018c6117ae565b611ec9606083018b6117ae565b611ed6608083018a611674565b611ee360a0830189611181565b611ef060c08301886117ae565b611efd60e08301876117ae565b611f0b6101008301866117ae565b611f19610120830185611674565b611f27610140830184611181565b9c9b505050505050505050505050565b7f706f736974696f6e2068617320746f206265206c6f616e656400000000000000600082015250565b6000611f6d601983611810565b9150611f7882611f37565b602082019050919050565b60006020820190508181036000830152611f9c81611f60565b9050919050565b7f4e487b7100000000000000000000000000000000000000000000000000000000600052602260045260246000fd5b60006002820490506001821680611fea57607f821691505b602082108103611ffd57611ffc611fa3565b5b50919050565b7f6f6e6c7920676f762063616e2063616c6c20746869732066756e6374696f6e00600082015250565b6000612039601f83611810565b915061204482612003565b602082019050919050565b600060208201905081810360008301526120688161202c565b9050919050565b7f4e487b7100000000000000000000000000000000000000000000000000000000600052601160045260246000fd5b60006120a982611371565b91506120b483611371565b92508282026120c281611371565b915082820484148315176120d9576120d861206f565b5b5092915050565b7f4e487b7100000000000000000000000000000000000000000000000000000000600052601260045260246000fd5b600061211a82611371565b915061212583611371565b925082612135576121346120e0565b5b828204905092915050565b7f536166654d6174683a206d756c7469706c69636174696f6e206f766572666c6f60008201527f7700000000000000000000000000000000000000000000000000000000000000602082015250565b600061219c602183611810565b91506121a782612140565b604082019050919050565b600060208201905081810360008301526121cb8161218f565b9050919050565b60006121dd82611371565b91506121e883611371565b9250828203905081811115612200576121ff61206f565b5b9291505056fea2646970667358221220c76e3b9b612ef64b49e30b90d07125047cd8a753613bf85fbc37bdaeb89d6b6864736f6c63430008110033","opcodes":"PUSH1 0x80 PUSH1 0x40 MSTORE CALLVALUE DUP1 ISZERO PUSH3 0x11 JUMPI PUSH1 0x0 DUP1 REVERT JUMPDEST POP PUSH1 0x40 MLOAD PUSH3 0x25DF CODESIZE SUB DUP1 PUSH3 0x25DF DUP4 CODECOPY DUP2 DUP2 ADD PUSH1 0x40 MSTORE DUP2 ADD SWAP1 PUSH3 0x37 SWAP2 SWAP1 PUSH3 0x2C9 JUMP JUMPDEST DUP6 PUSH1 0x0 DUP1 PUSH2 0x100 EXP DUP2 SLOAD DUP2 PUSH20 0xFFFFFFFFFFFFFFFFFFFFFFFFFFFFFFFFFFFFFFFF MUL NOT AND SWAP1 DUP4 PUSH20 0xFFFFFFFFFFFFFFFFFFFFFFFFFFFFFFFFFFFFFFFF AND MUL OR SWAP1 SSTORE POP DUP4 PUSH1 0x5 PUSH1 0x0 PUSH2 0x100 EXP DUP2 SLOAD DUP2 PUSH20 0xFFFFFFFFFFFFFFFFFFFFFFFFFFFFFFFFFFFFFFFF MUL NOT AND SWAP1 DUP4 PUSH20 0xFFFFFFFFFFFFFFFFFFFFFFFFFFFFFFFFFFFFFFFF AND MUL OR SWAP1 SSTORE POP DUP5 PUSH1 0x1 PUSH1 0x0 PUSH2 0x100 EXP DUP2 SLOAD DUP2 PUSH20 0xFFFFFFFFFFFFFFFFFFFFFFFFFFFFFFFFFFFFFFFF MUL NOT AND SWAP1 DUP4 PUSH20 0xFFFFFFFFFFFFFFFFFFFFFFFFFFFFFFFFFFFFFFFF AND MUL OR SWAP1 SSTORE POP DUP3 PUSH1 0x2 PUSH1 0x0 PUSH2 0x100 EXP DUP2 SLOAD DUP2 PUSH20 0xFFFFFFFFFFFFFFFFFFFFFFFFFFFFFFFFFFFFFFFF MUL NOT AND SWAP1 DUP4 PUSH20 0xFFFFFFFFFFFFFFFFFFFFFFFFFFFFFFFFFFFFFFFF AND MUL OR SWAP1 SSTORE POP DUP2 PUSH1 0x3 PUSH1 0x0 PUSH2 0x100 EXP DUP2 SLOAD DUP2 PUSH20 0xFFFFFFFFFFFFFFFFFFFFFFFFFFFFFFFFFFFFFFFF MUL NOT AND SWAP1 DUP4 PUSH20 0xFFFFFFFFFFFFFFFFFFFFFFFFFFFFFFFFFFFFFFFF AND MUL OR SWAP1 SSTORE POP DUP1 PUSH1 0x4 PUSH1 0x0 PUSH2 0x100 EXP DUP2 SLOAD DUP2 PUSH20 0xFFFFFFFFFFFFFFFFFFFFFFFFFFFFFFFFFFFFFFFF MUL NOT AND SWAP1 DUP4 PUSH20 0xFFFFFFFFFFFFFFFFFFFFFFFFFFFFFFFFFFFFFFFF AND MUL OR SWAP1 SSTORE POP PUSH1 0x0 DUP3 SWAP1 POP DUP1 PUSH20 0xFFFFFFFFFFFFFFFFFFFFFFFFFFFFFFFFFFFFFFFF AND PUSH4 0x38C74DD9 PUSH1 0x2 PUSH1 0x0 SWAP1 SLOAD SWAP1 PUSH2 0x100 EXP SWAP1 DIV PUSH20 0xFFFFFFFFFFFFFFFFFFFFFFFFFFFFFFFFFFFFFFFF AND PUSH1 0x40 MLOAD DUP3 PUSH4 0xFFFFFFFF AND PUSH1 0xE0 SHL DUP2 MSTORE PUSH1 0x4 ADD PUSH3 0x21E SWAP2 SWAP1 PUSH3 0x376 JUMP JUMPDEST PUSH1 0x0 PUSH1 0x40 MLOAD DUP1 DUP4 SUB DUP2 PUSH1 0x0 DUP8 DUP1 EXTCODESIZE ISZERO DUP1 ISZERO PUSH3 0x239 JUMPI PUSH1 0x0 DUP1 REVERT JUMPDEST POP GAS CALL ISZERO DUP1 ISZERO PUSH3 0x24E JUMPI RETURNDATASIZE PUSH1 0x0 DUP1 RETURNDATACOPY RETURNDATASIZE PUSH1 0x0 REVERT JUMPDEST POP POP POP POP POP POP POP POP POP POP POP PUSH3 0x393 JUMP JUMPDEST PUSH1 0x0 DUP1 REVERT JUMPDEST PUSH1 0x0 PUSH20 0xFFFFFFFFFFFFFFFFFFFFFFFFFFFFFFFFFFFFFFFF DUP3 AND SWAP1 POP SWAP2 SWAP1 POP JUMP JUMPDEST PUSH1 0x0 PUSH3 0x291 DUP3 PUSH3 0x264 JUMP JUMPDEST SWAP1 POP SWAP2 SWAP1 POP JUMP JUMPDEST PUSH3 0x2A3 DUP2 PUSH3 0x284 JUMP JUMPDEST DUP2 EQ PUSH3 0x2AF JUMPI PUSH1 0x0 DUP1 REVERT JUMPDEST POP JUMP JUMPDEST PUSH1 0x0 DUP2 MLOAD SWAP1 POP PUSH3 0x2C3 DUP2 PUSH3 0x298 JUMP JUMPDEST SWAP3 SWAP2 POP POP JUMP JUMPDEST PUSH1 0x0 DUP1 PUSH1 0x0 DUP1 PUSH1 0x0 DUP1 PUSH1 0xC0 DUP8 DUP10 SUB SLT ISZERO PUSH3 0x2E9 JUMPI PUSH3 0x2E8 PUSH3 0x25F JUMP JUMPDEST JUMPDEST PUSH1 0x0 PUSH3 0x2F9 DUP10 DUP3 DUP11 ADD PUSH3 0x2B2 JUMP JUMPDEST SWAP7 POP POP PUSH1 0x20 PUSH3 0x30C DUP10 DUP3 DUP11 ADD PUSH3 0x2B2 JUMP JUMPDEST SWAP6 POP POP PUSH1 0x40 PUSH3 0x31F DUP10 DUP3 DUP11 ADD PUSH3 0x2B2 JUMP JUMPDEST SWAP5 POP POP PUSH1 0x60 PUSH3 0x332 DUP10 DUP3 DUP11 ADD PUSH3 0x2B2 JUMP JUMPDEST SWAP4 POP POP PUSH1 0x80 PUSH3 0x345 DUP10 DUP3 DUP11 ADD PUSH3 0x2B2 JUMP JUMPDEST SWAP3 POP POP PUSH1 0xA0 PUSH3 0x358 DUP10 DUP3 DUP11 ADD PUSH3 0x2B2 JUMP JUMPDEST SWAP2 POP POP SWAP3 SWAP6 POP SWAP3 SWAP6 POP SWAP3 SWAP6 JUMP JUMPDEST PUSH3 0x370 DUP2 PUSH3 0x284 JUMP JUMPDEST DUP3 MSTORE POP POP JUMP JUMPDEST PUSH1 0x0 PUSH1 0x20 DUP3 ADD SWAP1 POP PUSH3 0x38D PUSH1 0x0 DUP4 ADD DUP5 PUSH3 0x365 JUMP JUMPDEST SWAP3 SWAP2 POP POP JUMP JUMPDEST PUSH2 0x223C DUP1 PUSH3 0x3A3 PUSH1 0x0 CODECOPY PUSH1 0x0 RETURN INVALID PUSH1 0x80 PUSH1 0x40 MSTORE PUSH1 0x4 CALLDATASIZE LT PUSH2 0x114 JUMPI PUSH1 0x0 CALLDATALOAD PUSH1 0xE0 SHR DUP1 PUSH4 0x8F84AA09 GT PUSH2 0xA0 JUMPI DUP1 PUSH4 0xA0F14034 GT PUSH2 0x64 JUMPI DUP1 PUSH4 0xA0F14034 EQ PUSH2 0x3AD JUMPI DUP1 PUSH4 0xA4F8A0BF EQ PUSH2 0x3D6 JUMPI DUP1 PUSH4 0xD0E30DB0 EQ PUSH2 0x3FF JUMPI DUP1 PUSH4 0xD422B00F EQ PUSH2 0x409 JUMPI DUP1 PUSH4 0xFED1A606 EQ PUSH2 0x434 JUMPI PUSH2 0x114 JUMP JUMPDEST DUP1 PUSH4 0x8F84AA09 EQ PUSH2 0x2BF JUMPI DUP1 PUSH4 0x903D5AEB EQ PUSH2 0x2EA JUMPI DUP1 PUSH4 0x937A0E4E EQ PUSH2 0x327 JUMPI DUP1 PUSH4 0x9409D870 EQ PUSH2 0x357 JUMPI DUP1 PUSH4 0x95082D25 EQ PUSH2 0x382 JUMPI PUSH2 0x114 JUMP JUMPDEST DUP1 PUSH4 0x3268CC56 GT PUSH2 0xE7 JUMPI DUP1 PUSH4 0x3268CC56 EQ PUSH2 0x1DA JUMPI DUP1 PUSH4 0x41CB87FC EQ PUSH2 0x205 JUMPI DUP1 PUSH4 0x62F8A3FE EQ PUSH2 0x22E JUMPI DUP1 PUSH4 0x71E229B3 EQ PUSH2 0x26B JUMPI DUP1 PUSH4 0x7379DBE6 EQ PUSH2 0x294 JUMPI PUSH2 0x114 JUMP JUMPDEST DUP1 PUSH4 0x12D43A51 EQ PUSH2 0x119 JUMPI DUP1 PUSH4 0x13F2D128 EQ PUSH2 0x144 JUMPI DUP1 PUSH4 0x17A92E43 EQ PUSH2 0x16D JUMPI DUP1 PUSH4 0x1D59310E EQ PUSH2 0x19D JUMPI JUMPDEST PUSH1 0x0 DUP1 REVERT JUMPDEST CALLVALUE DUP1 ISZERO PUSH2 0x125 JUMPI PUSH1 0x0 DUP1 REVERT JUMPDEST POP PUSH2 0x12E PUSH2 0x471 JUMP JUMPDEST PUSH1 0x40 MLOAD PUSH2 0x13B SWAP2 SWAP1 PUSH2 0x1190 JUMP JUMPDEST PUSH1 0x40 MLOAD DUP1 SWAP2 SUB SWAP1 RETURN JUMPDEST CALLVALUE DUP1 ISZERO PUSH2 0x150 JUMPI PUSH1 0x0 DUP1 REVERT JUMPDEST POP PUSH2 0x16B PUSH1 0x4 DUP1 CALLDATASIZE SUB DUP2 ADD SWAP1 PUSH2 0x166 SWAP2 SWAP1 PUSH2 0x11EB JUMP JUMPDEST PUSH2 0x495 JUMP JUMPDEST STOP JUMPDEST PUSH2 0x187 PUSH1 0x4 DUP1 CALLDATASIZE SUB DUP2 ADD SWAP1 PUSH2 0x182 SWAP2 SWAP1 PUSH2 0x1415 JUMP JUMPDEST PUSH2 0x4E1 JUMP JUMPDEST PUSH1 0x40 MLOAD PUSH2 0x194 SWAP2 SWAP1 PUSH2 0x150A JUMP JUMPDEST PUSH1 0x40 MLOAD DUP1 SWAP2 SUB SWAP1 RETURN JUMPDEST CALLVALUE DUP1 ISZERO PUSH2 0x1A9 JUMPI PUSH1 0x0 DUP1 REVERT JUMPDEST POP PUSH2 0x1C4 PUSH1 0x4 DUP1 CALLDATASIZE SUB DUP2 ADD SWAP1 PUSH2 0x1BF SWAP2 SWAP1 PUSH2 0x1525 JUMP JUMPDEST PUSH2 0x637 JUMP JUMPDEST PUSH1 0x40 MLOAD PUSH2 0x1D1 SWAP2 SWAP1 PUSH2 0x150A JUMP JUMPDEST PUSH1 0x40 MLOAD DUP1 SWAP2 SUB SWAP1 RETURN JUMPDEST CALLVALUE DUP1 ISZERO PUSH2 0x1E6 JUMPI PUSH1 0x0 DUP1 REVERT JUMPDEST POP PUSH2 0x1EF PUSH2 0x66A JUMP JUMPDEST PUSH1 0x40 MLOAD PUSH2 0x1FC SWAP2 SWAP1 PUSH2 0x1190 JUMP JUMPDEST PUSH1 0x40 MLOAD DUP1 SWAP2 SUB SWAP1 RETURN JUMPDEST CALLVALUE DUP1 ISZERO PUSH2 0x211 JUMPI PUSH1 0x0 DUP1 REVERT JUMPDEST POP PUSH2 0x22C PUSH1 0x4 DUP1 CALLDATASIZE SUB DUP2 ADD SWAP1 PUSH2 0x227 SWAP2 SWAP1 PUSH2 0x11EB JUMP JUMPDEST PUSH2 0x690 JUMP JUMPDEST STOP JUMPDEST CALLVALUE DUP1 ISZERO PUSH2 0x23A JUMPI PUSH1 0x0 DUP1 REVERT JUMPDEST POP PUSH2 0x255 PUSH1 0x4 DUP1 CALLDATASIZE SUB DUP2 ADD SWAP1 PUSH2 0x250 SWAP2 SWAP1 PUSH2 0x1565 JUMP JUMPDEST PUSH2 0x6DC JUMP JUMPDEST PUSH1 0x40 MLOAD PUSH2 0x262 SWAP2 SWAP1 PUSH2 0x150A JUMP JUMPDEST PUSH1 0x40 MLOAD DUP1 SWAP2 SUB SWAP1 RETURN JUMPDEST CALLVALUE DUP1 ISZERO PUSH2 0x277 JUMPI PUSH1 0x0 DUP1 REVERT JUMPDEST POP PUSH2 0x292 PUSH1 0x4 DUP1 CALLDATASIZE SUB DUP2 ADD SWAP1 PUSH2 0x28D SWAP2 SWAP1 PUSH2 0x15A5 JUMP JUMPDEST PUSH2 0x70F JUMP JUMPDEST STOP JUMPDEST CALLVALUE DUP1 ISZERO PUSH2 0x2A0 JUMPI PUSH1 0x0 DUP1 REVERT JUMPDEST POP PUSH2 0x2A9 PUSH2 0x991 JUMP JUMPDEST PUSH1 0x40 MLOAD PUSH2 0x2B6 SWAP2 SWAP1 PUSH2 0x1190 JUMP JUMPDEST PUSH1 0x40 MLOAD DUP1 SWAP2 SUB SWAP1 RETURN JUMPDEST CALLVALUE DUP1 ISZERO PUSH2 0x2CB JUMPI PUSH1 0x0 DUP1 REVERT JUMPDEST POP PUSH2 0x2D4 PUSH2 0x9B7 JUMP JUMPDEST PUSH1 0x40 MLOAD PUSH2 0x2E1 SWAP2 SWAP1 PUSH2 0x1190 JUMP JUMPDEST PUSH1 0x40 MLOAD DUP1 SWAP2 SUB SWAP1 RETURN JUMPDEST CALLVALUE DUP1 ISZERO PUSH2 0x2F6 JUMPI PUSH1 0x0 DUP1 REVERT JUMPDEST POP PUSH2 0x311 PUSH1 0x4 DUP1 CALLDATASIZE SUB DUP2 ADD SWAP1 PUSH2 0x30C SWAP2 SWAP1 PUSH2 0x1647 JUMP JUMPDEST PUSH2 0x9DD JUMP JUMPDEST PUSH1 0x40 MLOAD PUSH2 0x31E SWAP2 SWAP1 PUSH2 0x1683 JUMP JUMPDEST PUSH1 0x40 MLOAD DUP1 SWAP2 SUB SWAP1 RETURN JUMPDEST PUSH2 0x341 PUSH1 0x4 DUP1 CALLDATASIZE SUB DUP2 ADD SWAP1 PUSH2 0x33C SWAP2 SWAP1 PUSH2 0x169E JUMP JUMPDEST PUSH2 0x9FD JUMP JUMPDEST PUSH1 0x40 MLOAD PUSH2 0x34E SWAP2 SWAP1 PUSH2 0x150A JUMP JUMPDEST PUSH1 0x40 MLOAD DUP1 SWAP2 SUB SWAP1 RETURN JUMPDEST CALLVALUE DUP1 ISZERO PUSH2 0x363 JUMPI PUSH1 0x0 DUP1 REVERT JUMPDEST POP PUSH2 0x36C PUSH2 0xC5C JUMP JUMPDEST PUSH1 0x40 MLOAD PUSH2 0x379 SWAP2 SWAP1 PUSH2 0x1190 JUMP JUMPDEST PUSH1 0x40 MLOAD DUP1 SWAP2 SUB SWAP1 RETURN JUMPDEST CALLVALUE DUP1 ISZERO PUSH2 0x38E JUMPI PUSH1 0x0 DUP1 REVERT JUMPDEST POP PUSH2 0x397 PUSH2 0xC82 JUMP JUMPDEST PUSH1 0x40 MLOAD PUSH2 0x3A4 SWAP2 SWAP1 PUSH2 0x17BD JUMP JUMPDEST PUSH1 0x40 MLOAD DUP1 SWAP2 SUB SWAP1 RETURN JUMPDEST CALLVALUE DUP1 ISZERO PUSH2 0x3B9 JUMPI PUSH1 0x0 DUP1 REVERT JUMPDEST POP PUSH2 0x3D4 PUSH1 0x4 DUP1 CALLDATASIZE SUB DUP2 ADD SWAP1 PUSH2 0x3CF SWAP2 SWAP1 PUSH2 0x11EB JUMP JUMPDEST PUSH2 0xC93 JUMP JUMPDEST STOP JUMPDEST CALLVALUE DUP1 ISZERO PUSH2 0x3E2 JUMPI PUSH1 0x0 DUP1 REVERT JUMPDEST POP PUSH2 0x3FD PUSH1 0x4 DUP1 CALLDATASIZE SUB DUP2 ADD SWAP1 PUSH2 0x3F8 SWAP2 SWAP1 PUSH2 0x1525 JUMP JUMPDEST PUSH2 0xCDF JUMP JUMPDEST STOP JUMPDEST PUSH2 0x407 PUSH2 0xE0E JUMP JUMPDEST STOP JUMPDEST CALLVALUE DUP1 ISZERO PUSH2 0x415 JUMPI PUSH1 0x0 DUP1 REVERT JUMPDEST POP PUSH2 0x41E PUSH2 0xE24 JUMP JUMPDEST PUSH1 0x40 MLOAD PUSH2 0x42B SWAP2 SWAP1 PUSH2 0x1190 JUMP JUMPDEST PUSH1 0x40 MLOAD DUP1 SWAP2 SUB SWAP1 RETURN JUMPDEST CALLVALUE DUP1 ISZERO PUSH2 0x440 JUMPI PUSH1 0x0 DUP1 REVERT JUMPDEST POP PUSH2 0x45B PUSH1 0x4 DUP1 CALLDATASIZE SUB DUP2 ADD SWAP1 PUSH2 0x456 SWAP2 SWAP1 PUSH2 0x17D8 JUMP JUMPDEST PUSH2 0xE4A JUMP JUMPDEST PUSH1 0x40 MLOAD PUSH2 0x468 SWAP2 SWAP1 PUSH2 0x1884 JUMP JUMPDEST PUSH1 0x40 MLOAD DUP1 SWAP2 SUB SWAP1 RETURN JUMPDEST PUSH1 0x0 DUP1 SLOAD SWAP1 PUSH2 0x100 EXP SWAP1 DIV PUSH20 0xFFFFFFFFFFFFFFFFFFFFFFFFFFFFFFFFFFFFFFFF AND DUP2 JUMP JUMPDEST PUSH2 0x49D PUSH2 0xEEA JUMP JUMPDEST DUP1 PUSH1 0x1 PUSH1 0x0 PUSH2 0x100 EXP DUP2 SLOAD DUP2 PUSH20 0xFFFFFFFFFFFFFFFFFFFFFFFFFFFFFFFFFFFFFFFF MUL NOT AND SWAP1 DUP4 PUSH20 0xFFFFFFFFFFFFFFFFFFFFFFFFFFFFFFFFFFFFFFFF AND MUL OR SWAP1 SSTORE POP POP JUMP JUMPDEST PUSH1 0x0 PUSH1 0x5 PUSH1 0x0 SWAP1 SLOAD SWAP1 PUSH2 0x100 EXP SWAP1 DIV PUSH20 0xFFFFFFFFFFFFFFFFFFFFFFFFFFFFFFFFFFFFFFFF AND PUSH20 0xFFFFFFFFFFFFFFFFFFFFFFFFFFFFFFFFFFFFFFFF AND CALLER PUSH20 0xFFFFFFFFFFFFFFFFFFFFFFFFFFFFFFFFFFFFFFFF AND EQ PUSH2 0x573 JUMPI PUSH1 0x40 MLOAD PUSH32 0x8C379A000000000000000000000000000000000000000000000000000000000 DUP2 MSTORE PUSH1 0x4 ADD PUSH2 0x56A SWAP1 PUSH2 0x1918 JUMP JUMPDEST PUSH1 0x40 MLOAD DUP1 SWAP2 SUB SWAP1 REVERT JUMPDEST PUSH1 0x0 PUSH1 0x2 PUSH1 0x0 SWAP1 SLOAD SWAP1 PUSH2 0x100 EXP SWAP1 DIV PUSH20 0xFFFFFFFFFFFFFFFFFFFFFFFFFFFFFFFFFFFFFFFF AND SWAP1 POP DUP1 PUSH20 0xFFFFFFFFFFFFFFFFFFFFFFFFFFFFFFFFFFFFFFFF AND PUSH4 0x5B88E8C6 CALLVALUE DUP14 DUP14 DUP14 DUP14 DUP14 DUP14 DUP14 DUP14 DUP14 PUSH1 0x40 MLOAD DUP12 PUSH4 0xFFFFFFFF AND PUSH1 0xE0 SHL DUP2 MSTORE PUSH1 0x4 ADD PUSH2 0x5E4 SWAP10 SWAP9 SWAP8 SWAP7 SWAP6 SWAP5 SWAP4 SWAP3 SWAP2 SWAP1 PUSH2 0x19F6 JUMP JUMPDEST PUSH1 0x20 PUSH1 0x40 MLOAD DUP1 DUP4 SUB DUP2 DUP6 DUP9 GAS CALL ISZERO DUP1 ISZERO PUSH2 0x602 JUMPI RETURNDATASIZE PUSH1 0x0 DUP1 RETURNDATACOPY RETURNDATASIZE PUSH1 0x0 REVERT JUMPDEST POP POP POP POP POP PUSH1 0x40 MLOAD RETURNDATASIZE PUSH1 0x1F NOT PUSH1 0x1F DUP3 ADD AND DUP3 ADD DUP1 PUSH1 0x40 MSTORE POP DUP2 ADD SWAP1 PUSH2 0x627 SWAP2 SWAP1 PUSH2 0x1A9F JUMP JUMPDEST SWAP2 POP POP SWAP10 SWAP9 POP POP POP POP POP POP POP POP POP JUMP JUMPDEST PUSH1 0x0 DUP3 DUP3 PUSH1 0x40 MLOAD PUSH1 0x20 ADD PUSH2 0x64C SWAP3 SWAP2 SWAP1 PUSH2 0x1B5C JUMP JUMPDEST PUSH1 0x40 MLOAD PUSH1 0x20 DUP2 DUP4 SUB SUB DUP2 MSTORE SWAP1 PUSH1 0x40 MSTORE DUP1 MLOAD SWAP1 PUSH1 0x20 ADD KECCAK256 SWAP1 POP SWAP3 SWAP2 POP POP JUMP JUMPDEST PUSH1 0x3 PUSH1 0x0 SWAP1 SLOAD SWAP1 PUSH2 0x100 EXP SWAP1 DIV PUSH20 0xFFFFFFFFFFFFFFFFFFFFFFFFFFFFFFFFFFFFFFFF AND DUP2 JUMP JUMPDEST PUSH2 0x698 PUSH2 0xEEA JUMP JUMPDEST DUP1 PUSH1 0x3 PUSH1 0x0 PUSH2 0x100 EXP DUP2 SLOAD DUP2 PUSH20 0xFFFFFFFFFFFFFFFFFFFFFFFFFFFFFFFFFFFFFFFF MUL NOT AND SWAP1 DUP4 PUSH20 0xFFFFFFFFFFFFFFFFFFFFFFFFFFFFFFFFFFFFFFFF AND MUL OR SWAP1 SSTORE POP POP JUMP JUMPDEST PUSH1 0x0 DUP3 DUP3 PUSH1 0x40 MLOAD PUSH1 0x20 ADD PUSH2 0x6F1 SWAP3 SWAP2 SWAP1 PUSH2 0x1BA9 JUMP JUMPDEST PUSH1 0x40 MLOAD PUSH1 0x20 DUP2 DUP4 SUB SUB DUP2 MSTORE SWAP1 PUSH1 0x40 MSTORE DUP1 MLOAD SWAP1 PUSH1 0x20 ADD KECCAK256 SWAP1 POP SWAP3 SWAP2 POP POP JUMP JUMPDEST PUSH1 0x1 PUSH1 0x0 SWAP1 SLOAD SWAP1 PUSH2 0x100 EXP SWAP1 DIV PUSH20 0xFFFFFFFFFFFFFFFFFFFFFFFFFFFFFFFFFFFFFFFF AND PUSH20 0xFFFFFFFFFFFFFFFFFFFFFFFFFFFFFFFFFFFFFFFF AND CALLER PUSH20 0xFFFFFFFFFFFFFFFFFFFFFFFFFFFFFFFFFFFFFFFF AND EQ PUSH2 0x79F JUMPI PUSH1 0x40 MLOAD PUSH32 0x8C379A000000000000000000000000000000000000000000000000000000000 DUP2 MSTORE PUSH1 0x4 ADD PUSH2 0x796 SWAP1 PUSH2 0x1C47 JUMP JUMPDEST PUSH1 0x40 MLOAD DUP1 SWAP2 SUB SWAP1 REVERT JUMPDEST PUSH1 0x0 PUSH2 0x7AB DUP9 DUP8 PUSH2 0x637 JUMP JUMPDEST SWAP1 POP PUSH1 0x6 PUSH1 0x0 DUP3 DUP2 MSTORE PUSH1 0x20 ADD SWAP1 DUP2 MSTORE PUSH1 0x20 ADD PUSH1 0x0 KECCAK256 PUSH1 0x0 SWAP1 SLOAD SWAP1 PUSH2 0x100 EXP SWAP1 DIV PUSH1 0xFF AND ISZERO PUSH2 0x80E JUMPI PUSH1 0x40 MLOAD PUSH32 0x8C379A000000000000000000000000000000000000000000000000000000000 DUP2 MSTORE PUSH1 0x4 ADD PUSH2 0x805 SWAP1 PUSH2 0x1CB3 JUMP JUMPDEST PUSH1 0x40 MLOAD DUP1 SWAP2 SUB SWAP1 REVERT JUMPDEST PUSH1 0x0 PUSH2 0x859 PUSH2 0x84A DUP5 PUSH2 0x83C DUP8 PUSH2 0x82E DUP12 DUP12 PUSH2 0xF7A SWAP1 SWAP2 SWAP1 PUSH4 0xFFFFFFFF AND JUMP JUMPDEST PUSH2 0xFC4 SWAP1 SWAP2 SWAP1 PUSH4 0xFFFFFFFF AND JUMP JUMPDEST PUSH2 0x103E SWAP1 SWAP2 SWAP1 PUSH4 0xFFFFFFFF AND JUMP JUMPDEST DUP6 PUSH2 0xF7A SWAP1 SWAP2 SWAP1 PUSH4 0xFFFFFFFF AND JUMP JUMPDEST SWAP1 POP DUP7 ISZERO PUSH2 0x88F JUMPI PUSH2 0x888 PUSH1 0x64 PUSH2 0x87A PUSH1 0x69 DUP5 PUSH2 0xFC4 SWAP1 SWAP2 SWAP1 PUSH4 0xFFFFFFFF AND JUMP JUMPDEST PUSH2 0x103E SWAP1 SWAP2 SWAP1 PUSH4 0xFFFFFFFF AND JUMP JUMPDEST SWAP1 POP PUSH2 0x8B9 JUMP JUMPDEST PUSH2 0x8B6 PUSH1 0x64 PUSH2 0x8A8 PUSH1 0x5F DUP5 PUSH2 0xFC4 SWAP1 SWAP2 SWAP1 PUSH4 0xFFFFFFFF AND JUMP JUMPDEST PUSH2 0x103E SWAP1 SWAP2 SWAP1 PUSH4 0xFFFFFFFF AND JUMP JUMPDEST SWAP1 POP JUMPDEST PUSH1 0x0 PUSH1 0x4 PUSH1 0x0 SWAP1 SLOAD SWAP1 PUSH2 0x100 EXP SWAP1 DIV PUSH20 0xFFFFFFFFFFFFFFFFFFFFFFFFFFFFFFFFFFFFFFFF AND SWAP1 POP DUP1 PUSH20 0xFFFFFFFFFFFFFFFFFFFFFFFFFFFFFFFFFFFFFFFF AND PUSH4 0xC16CDE8A DUP12 DUP10 DUP13 PUSH1 0x0 DUP14 DUP9 PUSH1 0x1 PUSH1 0x40 MLOAD DUP9 PUSH4 0xFFFFFFFF AND PUSH1 0xE0 SHL DUP2 MSTORE PUSH1 0x4 ADD PUSH2 0x927 SWAP8 SWAP7 SWAP6 SWAP5 SWAP4 SWAP3 SWAP2 SWAP1 PUSH2 0x1D18 JUMP JUMPDEST PUSH1 0x0 PUSH1 0x40 MLOAD DUP1 DUP4 SUB DUP2 PUSH1 0x0 DUP8 DUP1 EXTCODESIZE ISZERO DUP1 ISZERO PUSH2 0x941 JUMPI PUSH1 0x0 DUP1 REVERT JUMPDEST POP GAS CALL ISZERO DUP1 ISZERO PUSH2 0x955 JUMPI RETURNDATASIZE PUSH1 0x0 DUP1 RETURNDATACOPY RETURNDATASIZE PUSH1 0x0 REVERT JUMPDEST POP POP POP POP PUSH1 0x1 PUSH1 0x6 PUSH1 0x0 DUP6 DUP2 MSTORE PUSH1 0x20 ADD SWAP1 DUP2 MSTORE PUSH1 0x20 ADD PUSH1 0x0 KECCAK256 PUSH1 0x0 PUSH2 0x100 EXP DUP2 SLOAD DUP2 PUSH1 0xFF MUL NOT AND SWAP1 DUP4 ISZERO ISZERO MUL OR SWAP1 SSTORE POP POP POP POP POP POP POP POP POP POP POP JUMP JUMPDEST PUSH1 0x1 PUSH1 0x0 SWAP1 SLOAD SWAP1 PUSH2 0x100 EXP SWAP1 DIV PUSH20 0xFFFFFFFFFFFFFFFFFFFFFFFFFFFFFFFFFFFFFFFF AND DUP2 JUMP JUMPDEST PUSH1 0x5 PUSH1 0x0 SWAP1 SLOAD SWAP1 PUSH2 0x100 EXP SWAP1 DIV PUSH20 0xFFFFFFFFFFFFFFFFFFFFFFFFFFFFFFFFFFFFFFFF AND DUP2 JUMP JUMPDEST PUSH1 0x6 PUSH1 0x20 MSTORE DUP1 PUSH1 0x0 MSTORE PUSH1 0x40 PUSH1 0x0 KECCAK256 PUSH1 0x0 SWAP2 POP SLOAD SWAP1 PUSH2 0x100 EXP SWAP1 DIV PUSH1 0xFF AND DUP2 JUMP JUMPDEST PUSH1 0x0 PUSH1 0x5 PUSH1 0x0 SWAP1 SLOAD SWAP1 PUSH2 0x100 EXP SWAP1 DIV PUSH20 0xFFFFFFFFFFFFFFFFFFFFFFFFFFFFFFFFFFFFFFFF AND PUSH20 0xFFFFFFFFFFFFFFFFFFFFFFFFFFFFFFFFFFFFFFFF AND CALLER PUSH20 0xFFFFFFFFFFFFFFFFFFFFFFFFFFFFFFFFFFFFFFFF AND EQ DUP1 PUSH2 0xAA8 JUMPI POP PUSH1 0x1 PUSH1 0x0 SWAP1 SLOAD SWAP1 PUSH2 0x100 EXP SWAP1 DIV PUSH20 0xFFFFFFFFFFFFFFFFFFFFFFFFFFFFFFFFFFFFFFFF AND PUSH20 0xFFFFFFFFFFFFFFFFFFFFFFFFFFFFFFFFFFFFFFFF AND CALLER PUSH20 0xFFFFFFFFFFFFFFFFFFFFFFFFFFFFFFFFFFFFFFFF AND EQ JUMPDEST PUSH2 0xAE7 JUMPI PUSH1 0x40 MLOAD PUSH32 0x8C379A000000000000000000000000000000000000000000000000000000000 DUP2 MSTORE PUSH1 0x4 ADD PUSH2 0xADE SWAP1 PUSH2 0x1DF9 JUMP JUMPDEST PUSH1 0x40 MLOAD DUP1 SWAP2 SUB SWAP1 REVERT JUMPDEST DUP4 CALLVALUE GT PUSH2 0xB29 JUMPI PUSH1 0x40 MLOAD PUSH32 0x8C379A000000000000000000000000000000000000000000000000000000000 DUP2 MSTORE PUSH1 0x4 ADD PUSH2 0xB20 SWAP1 PUSH2 0x1E65 JUMP JUMPDEST PUSH1 0x40 MLOAD DUP1 SWAP2 SUB SWAP1 REVERT JUMPDEST PUSH1 0x6 PUSH1 0x0 PUSH2 0xB37 DUP14 DUP12 PUSH2 0x637 JUMP JUMPDEST DUP2 MSTORE PUSH1 0x20 ADD SWAP1 DUP2 MSTORE PUSH1 0x20 ADD PUSH1 0x0 KECCAK256 PUSH1 0x0 SWAP1 SLOAD SWAP1 PUSH2 0x100 EXP SWAP1 DIV PUSH1 0xFF AND PUSH2 0xB92 JUMPI PUSH1 0x40 MLOAD PUSH32 0x8C379A000000000000000000000000000000000000000000000000000000000 DUP2 MSTORE PUSH1 0x4 ADD PUSH2 0xB89 SWAP1 PUSH2 0x1CB3 JUMP JUMPDEST PUSH1 0x40 MLOAD DUP1 SWAP2 SUB SWAP1 REVERT JUMPDEST PUSH1 0x0 PUSH1 0x2 PUSH1 0x0 SWAP1 SLOAD SWAP1 PUSH2 0x100 EXP SWAP1 DIV PUSH20 0xFFFFFFFFFFFFFFFFFFFFFFFFFFFFFFFFFFFFFFFF AND SWAP1 POP DUP1 PUSH20 0xFFFFFFFFFFFFFFFFFFFFFFFFFFFFFFFFFFFFFFFF AND PUSH4 0x7BE7D141 CALLVALUE DUP16 DUP16 DUP16 DUP16 DUP16 DUP16 DUP16 DUP16 DUP16 DUP16 DUP16 PUSH1 0x40 MLOAD DUP14 PUSH4 0xFFFFFFFF AND PUSH1 0xE0 SHL DUP2 MSTORE PUSH1 0x4 ADD PUSH2 0xC07 SWAP12 SWAP11 SWAP10 SWAP9 SWAP8 SWAP7 SWAP6 SWAP5 SWAP4 SWAP3 SWAP2 SWAP1 PUSH2 0x1E85 JUMP JUMPDEST PUSH1 0x20 PUSH1 0x40 MLOAD DUP1 DUP4 SUB DUP2 DUP6 DUP9 GAS CALL ISZERO DUP1 ISZERO PUSH2 0xC25 JUMPI RETURNDATASIZE PUSH1 0x0 DUP1 RETURNDATACOPY RETURNDATASIZE PUSH1 0x0 REVERT JUMPDEST POP POP POP POP POP PUSH1 0x40 MLOAD RETURNDATASIZE PUSH1 0x1F NOT PUSH1 0x1F DUP3 ADD AND DUP3 ADD DUP1 PUSH1 0x40 MSTORE POP DUP2 ADD SWAP1 PUSH2 0xC4A SWAP2 SWAP1 PUSH2 0x1A9F JUMP JUMPDEST SWAP2 POP POP SWAP12 SWAP11 POP POP POP POP POP POP POP POP POP POP POP JUMP JUMPDEST PUSH1 0x4 PUSH1 0x0 SWAP1 SLOAD SWAP1 PUSH2 0x100 EXP SWAP1 DIV PUSH20 0xFFFFFFFFFFFFFFFFFFFFFFFFFFFFFFFFFFFFFFFF AND DUP2 JUMP JUMPDEST PUSH13 0xC9F2C9CD04674EDEA40000000 DUP2 JUMP JUMPDEST PUSH2 0xC9B PUSH2 0xEEA JUMP JUMPDEST DUP1 PUSH1 0x2 PUSH1 0x0 PUSH2 0x100 EXP DUP2 SLOAD DUP2 PUSH20 0xFFFFFFFFFFFFFFFFFFFFFFFFFFFFFFFFFFFFFFFF MUL NOT AND SWAP1 DUP4 PUSH20 0xFFFFFFFFFFFFFFFFFFFFFFFFFFFFFFFFFFFFFFFF AND MUL OR SWAP1 SSTORE POP POP JUMP JUMPDEST PUSH1 0x1 PUSH1 0x0 SWAP1 SLOAD SWAP1 PUSH2 0x100 EXP SWAP1 DIV PUSH20 0xFFFFFFFFFFFFFFFFFFFFFFFFFFFFFFFFFFFFFFFF AND PUSH20 0xFFFFFFFFFFFFFFFFFFFFFFFFFFFFFFFFFFFFFFFF AND CALLER PUSH20 0xFFFFFFFFFFFFFFFFFFFFFFFFFFFFFFFFFFFFFFFF AND EQ PUSH2 0xD6F JUMPI PUSH1 0x40 MLOAD PUSH32 0x8C379A000000000000000000000000000000000000000000000000000000000 DUP2 MSTORE PUSH1 0x4 ADD PUSH2 0xD66 SWAP1 PUSH2 0x1C47 JUMP JUMPDEST PUSH1 0x40 MLOAD DUP1 SWAP2 SUB SWAP1 REVERT JUMPDEST PUSH1 0x0 PUSH2 0xD7B DUP4 DUP4 PUSH2 0x637 JUMP JUMPDEST SWAP1 POP PUSH1 0x6 PUSH1 0x0 DUP3 DUP2 MSTORE PUSH1 0x20 ADD SWAP1 DUP2 MSTORE PUSH1 0x20 ADD PUSH1 0x0 KECCAK256 PUSH1 0x0 SWAP1 SLOAD SWAP1 PUSH2 0x100 EXP SWAP1 DIV PUSH1 0xFF AND PUSH2 0xDDD JUMPI PUSH1 0x40 MLOAD PUSH32 0x8C379A000000000000000000000000000000000000000000000000000000000 DUP2 MSTORE PUSH1 0x4 ADD PUSH2 0xDD4 SWAP1 PUSH2 0x1F83 JUMP JUMPDEST PUSH1 0x40 MLOAD DUP1 SWAP2 SUB SWAP1 REVERT JUMPDEST PUSH1 0x0 PUSH1 0x6 PUSH1 0x0 DUP4 DUP2 MSTORE PUSH1 0x20 ADD SWAP1 DUP2 MSTORE PUSH1 0x20 ADD PUSH1 0x0 KECCAK256 PUSH1 0x0 PUSH2 0x100 EXP DUP2 SLOAD DUP2 PUSH1 0xFF MUL NOT AND SWAP1 DUP4 ISZERO ISZERO MUL OR SWAP1 SSTORE POP POP POP POP JUMP JUMPDEST PUSH8 0xDE0B6B3A7640000 CALLVALUE EQ PUSH2 0xE22 JUMPI PUSH1 0x0 DUP1 REVERT JUMPDEST JUMP JUMPDEST PUSH1 0x2 PUSH1 0x0 SWAP1 SLOAD SWAP1 PUSH2 0x100 EXP SWAP1 DIV PUSH20 0xFFFFFFFFFFFFFFFFFFFFFFFFFFFFFFFFFFFFFFFF AND DUP2 JUMP JUMPDEST PUSH1 0x7 PUSH1 0x20 MSTORE DUP1 PUSH1 0x0 MSTORE PUSH1 0x40 PUSH1 0x0 KECCAK256 PUSH1 0x0 SWAP2 POP SWAP1 POP DUP1 SLOAD PUSH2 0xE69 SWAP1 PUSH2 0x1FD2 JUMP JUMPDEST DUP1 PUSH1 0x1F ADD PUSH1 0x20 DUP1 SWAP2 DIV MUL PUSH1 0x20 ADD PUSH1 0x40 MLOAD SWAP1 DUP2 ADD PUSH1 0x40 MSTORE DUP1 SWAP3 SWAP2 SWAP1 DUP2 DUP2 MSTORE PUSH1 0x20 ADD DUP3 DUP1 SLOAD PUSH2 0xE95 SWAP1 PUSH2 0x1FD2 JUMP JUMPDEST DUP1 ISZERO PUSH2 0xEE2 JUMPI DUP1 PUSH1 0x1F LT PUSH2 0xEB7 JUMPI PUSH2 0x100 DUP1 DUP4 SLOAD DIV MUL DUP4 MSTORE SWAP2 PUSH1 0x20 ADD SWAP2 PUSH2 0xEE2 JUMP JUMPDEST DUP3 ADD SWAP2 SWAP1 PUSH1 0x0 MSTORE PUSH1 0x20 PUSH1 0x0 KECCAK256 SWAP1 JUMPDEST DUP2 SLOAD DUP2 MSTORE SWAP1 PUSH1 0x1 ADD SWAP1 PUSH1 0x20 ADD DUP1 DUP4 GT PUSH2 0xEC5 JUMPI DUP3 SWAP1 SUB PUSH1 0x1F AND DUP3 ADD SWAP2 JUMPDEST POP POP POP POP POP DUP2 JUMP JUMPDEST PUSH1 0x0 DUP1 SLOAD SWAP1 PUSH2 0x100 EXP SWAP1 DIV PUSH20 0xFFFFFFFFFFFFFFFFFFFFFFFFFFFFFFFFFFFFFFFF AND PUSH20 0xFFFFFFFFFFFFFFFFFFFFFFFFFFFFFFFFFFFFFFFF AND CALLER PUSH20 0xFFFFFFFFFFFFFFFFFFFFFFFFFFFFFFFFFFFFFFFF AND EQ PUSH2 0xF78 JUMPI PUSH1 0x40 MLOAD PUSH32 0x8C379A000000000000000000000000000000000000000000000000000000000 DUP2 MSTORE PUSH1 0x4 ADD PUSH2 0xF6F SWAP1 PUSH2 0x204F JUMP JUMPDEST PUSH1 0x40 MLOAD DUP1 SWAP2 SUB SWAP1 REVERT JUMPDEST JUMP JUMPDEST PUSH1 0x0 PUSH2 0xFBC DUP4 DUP4 PUSH1 0x40 MLOAD DUP1 PUSH1 0x40 ADD PUSH1 0x40 MSTORE DUP1 PUSH1 0x1E DUP2 MSTORE PUSH1 0x20 ADD PUSH32 0x536166654D6174683A207375627472616374696F6E206F766572666C6F770000 DUP2 MSTORE POP PUSH2 0x1088 JUMP JUMPDEST SWAP1 POP SWAP3 SWAP2 POP POP JUMP JUMPDEST PUSH1 0x0 DUP1 DUP4 SUB PUSH2 0xFD6 JUMPI PUSH1 0x0 SWAP1 POP PUSH2 0x1038 JUMP JUMPDEST PUSH1 0x0 DUP3 DUP5 PUSH2 0xFE4 SWAP2 SWAP1 PUSH2 0x209E JUMP JUMPDEST SWAP1 POP DUP3 DUP5 DUP3 PUSH2 0xFF3 SWAP2 SWAP1 PUSH2 0x210F JUMP JUMPDEST EQ PUSH2 0x1033 JUMPI PUSH1 0x40 MLOAD PUSH32 0x8C379A000000000000000000000000000000000000000000000000000000000 DUP2 MSTORE PUSH1 0x4 ADD PUSH2 0x102A SWAP1 PUSH2 0x21B2 JUMP JUMPDEST PUSH1 0x40 MLOAD DUP1 SWAP2 SUB SWAP1 REVERT JUMPDEST DUP1 SWAP2 POP POP JUMPDEST SWAP3 SWAP2 POP POP JUMP JUMPDEST PUSH1 0x0 PUSH2 0x1080 DUP4 DUP4 PUSH1 0x40 MLOAD DUP1 PUSH1 0x40 ADD PUSH1 0x40 MSTORE DUP1 PUSH1 0x1A DUP2 MSTORE PUSH1 0x20 ADD PUSH32 0x536166654D6174683A206469766973696F6E206279207A65726F000000000000 DUP2 MSTORE POP PUSH2 0x10EC JUMP JUMPDEST SWAP1 POP SWAP3 SWAP2 POP POP JUMP JUMPDEST PUSH1 0x0 DUP4 DUP4 GT ISZERO DUP3 SWAP1 PUSH2 0x10D0 JUMPI PUSH1 0x40 MLOAD PUSH32 0x8C379A000000000000000000000000000000000000000000000000000000000 DUP2 MSTORE PUSH1 0x4 ADD PUSH2 0x10C7 SWAP2 SWAP1 PUSH2 0x1884 JUMP JUMPDEST PUSH1 0x40 MLOAD DUP1 SWAP2 SUB SWAP1 REVERT JUMPDEST POP PUSH1 0x0 DUP4 DUP6 PUSH2 0x10DF SWAP2 SWAP1 PUSH2 0x21D2 JUMP JUMPDEST SWAP1 POP DUP1 SWAP2 POP POP SWAP4 SWAP3 POP POP POP JUMP JUMPDEST PUSH1 0x0 DUP1 DUP4 GT DUP3 SWAP1 PUSH2 0x1133 JUMPI PUSH1 0x40 MLOAD PUSH32 0x8C379A000000000000000000000000000000000000000000000000000000000 DUP2 MSTORE PUSH1 0x4 ADD PUSH2 0x112A SWAP2 SWAP1 PUSH2 0x1884 JUMP JUMPDEST PUSH1 0x40 MLOAD DUP1 SWAP2 SUB SWAP1 REVERT JUMPDEST POP PUSH1 0x0 DUP4 DUP6 PUSH2 0x1142 SWAP2 SWAP1 PUSH2 0x210F JUMP JUMPDEST SWAP1 POP DUP1 SWAP2 POP POP SWAP4 SWAP3 POP POP POP JUMP JUMPDEST PUSH1 0x0 PUSH20 0xFFFFFFFFFFFFFFFFFFFFFFFFFFFFFFFFFFFFFFFF DUP3 AND SWAP1 POP SWAP2 SWAP1 POP JUMP JUMPDEST PUSH1 0x0 PUSH2 0x117A DUP3 PUSH2 0x114F JUMP JUMPDEST SWAP1 POP SWAP2 SWAP1 POP JUMP JUMPDEST PUSH2 0x118A DUP2 PUSH2 0x116F JUMP JUMPDEST DUP3 MSTORE POP POP JUMP JUMPDEST PUSH1 0x0 PUSH1 0x20 DUP3 ADD SWAP1 POP PUSH2 0x11A5 PUSH1 0x0 DUP4 ADD DUP5 PUSH2 0x1181 JUMP JUMPDEST SWAP3 SWAP2 POP POP JUMP JUMPDEST PUSH1 0x0 PUSH1 0x40 MLOAD SWAP1 POP SWAP1 JUMP JUMPDEST PUSH1 0x0 DUP1 REVERT JUMPDEST PUSH1 0x0 DUP1 REVERT JUMPDEST PUSH2 0x11C8 DUP2 PUSH2 0x116F JUMP JUMPDEST DUP2 EQ PUSH2 0x11D3 JUMPI PUSH1 0x0 DUP1 REVERT JUMPDEST POP JUMP JUMPDEST PUSH1 0x0 DUP2 CALLDATALOAD SWAP1 POP PUSH2 0x11E5 DUP2 PUSH2 0x11BF JUMP JUMPDEST SWAP3 SWAP2 POP POP JUMP JUMPDEST PUSH1 0x0 PUSH1 0x20 DUP3 DUP5 SUB SLT ISZERO PUSH2 0x1201 JUMPI PUSH2 0x1200 PUSH2 0x11B5 JUMP JUMPDEST JUMPDEST PUSH1 0x0 PUSH2 0x120F DUP5 DUP3 DUP6 ADD PUSH2 0x11D6 JUMP JUMPDEST SWAP2 POP POP SWAP3 SWAP2 POP POP JUMP JUMPDEST PUSH1 0x0 DUP1 REVERT JUMPDEST PUSH1 0x0 PUSH1 0x1F NOT PUSH1 0x1F DUP4 ADD AND SWAP1 POP SWAP2 SWAP1 POP JUMP JUMPDEST PUSH32 0x4E487B7100000000000000000000000000000000000000000000000000000000 PUSH1 0x0 MSTORE PUSH1 0x41 PUSH1 0x4 MSTORE PUSH1 0x24 PUSH1 0x0 REVERT JUMPDEST PUSH2 0x1266 DUP3 PUSH2 0x121D JUMP JUMPDEST DUP2 ADD DUP2 DUP2 LT PUSH8 0xFFFFFFFFFFFFFFFF DUP3 GT OR ISZERO PUSH2 0x1285 JUMPI PUSH2 0x1284 PUSH2 0x122E JUMP JUMPDEST JUMPDEST DUP1 PUSH1 0x40 MSTORE POP POP POP JUMP JUMPDEST PUSH1 0x0 PUSH2 0x1298 PUSH2 0x11AB JUMP JUMPDEST SWAP1 POP PUSH2 0x12A4 DUP3 DUP3 PUSH2 0x125D JUMP JUMPDEST SWAP2 SWAP1 POP JUMP JUMPDEST PUSH1 0x0 PUSH8 0xFFFFFFFFFFFFFFFF DUP3 GT ISZERO PUSH2 0x12C4 JUMPI PUSH2 0x12C3 PUSH2 0x122E JUMP JUMPDEST JUMPDEST PUSH1 0x20 DUP3 MUL SWAP1 POP PUSH1 0x20 DUP2 ADD SWAP1 POP SWAP2 SWAP1 POP JUMP JUMPDEST PUSH1 0x0 DUP1 REVERT JUMPDEST PUSH1 0x0 PUSH2 0x12ED PUSH2 0x12E8 DUP5 PUSH2 0x12A9 JUMP JUMPDEST PUSH2 0x128E JUMP JUMPDEST SWAP1 POP DUP1 DUP4 DUP3 MSTORE PUSH1 0x20 DUP3 ADD SWAP1 POP PUSH1 0x20 DUP5 MUL DUP4 ADD DUP6 DUP2 GT ISZERO PUSH2 0x1310 JUMPI PUSH2 0x130F PUSH2 0x12D5 JUMP JUMPDEST JUMPDEST DUP4 JUMPDEST DUP2 DUP2 LT ISZERO PUSH2 0x1339 JUMPI DUP1 PUSH2 0x1325 DUP9 DUP3 PUSH2 0x11D6 JUMP JUMPDEST DUP5 MSTORE PUSH1 0x20 DUP5 ADD SWAP4 POP POP PUSH1 0x20 DUP2 ADD SWAP1 POP PUSH2 0x1312 JUMP JUMPDEST POP POP POP SWAP4 SWAP3 POP POP POP JUMP JUMPDEST PUSH1 0x0 DUP3 PUSH1 0x1F DUP4 ADD SLT PUSH2 0x1358 JUMPI PUSH2 0x1357 PUSH2 0x1218 JUMP JUMPDEST JUMPDEST DUP2 CALLDATALOAD PUSH2 0x1368 DUP5 DUP3 PUSH1 0x20 DUP7 ADD PUSH2 0x12DA JUMP JUMPDEST SWAP2 POP POP SWAP3 SWAP2 POP POP JUMP JUMPDEST PUSH1 0x0 DUP2 SWAP1 POP SWAP2 SWAP1 POP JUMP JUMPDEST PUSH2 0x1384 DUP2 PUSH2 0x1371 JUMP JUMPDEST DUP2 EQ PUSH2 0x138F JUMPI PUSH1 0x0 DUP1 REVERT JUMPDEST POP JUMP JUMPDEST PUSH1 0x0 DUP2 CALLDATALOAD SWAP1 POP PUSH2 0x13A1 DUP2 PUSH2 0x137B JUMP JUMPDEST SWAP3 SWAP2 POP POP JUMP JUMPDEST PUSH1 0x0 DUP2 ISZERO ISZERO SWAP1 POP SWAP2 SWAP1 POP JUMP JUMPDEST PUSH2 0x13BC DUP2 PUSH2 0x13A7 JUMP JUMPDEST DUP2 EQ PUSH2 0x13C7 JUMPI PUSH1 0x0 DUP1 REVERT JUMPDEST POP JUMP JUMPDEST PUSH1 0x0 DUP2 CALLDATALOAD SWAP1 POP PUSH2 0x13D9 DUP2 PUSH2 0x13B3 JUMP JUMPDEST SWAP3 SWAP2 POP POP JUMP JUMPDEST PUSH1 0x0 DUP2 SWAP1 POP SWAP2 SWAP1 POP JUMP JUMPDEST PUSH2 0x13F2 DUP2 PUSH2 0x13DF JUMP JUMPDEST DUP2 EQ PUSH2 0x13FD JUMPI PUSH1 0x0 DUP1 REVERT JUMPDEST POP JUMP JUMPDEST PUSH1 0x0 DUP2 CALLDATALOAD SWAP1 POP PUSH2 0x140F DUP2 PUSH2 0x13E9 JUMP JUMPDEST SWAP3 SWAP2 POP POP JUMP JUMPDEST PUSH1 0x0 DUP1 PUSH1 0x0 DUP1 PUSH1 0x0 DUP1 PUSH1 0x0 DUP1 PUSH1 0x0 PUSH2 0x120 DUP11 DUP13 SUB SLT ISZERO PUSH2 0x1438 JUMPI PUSH2 0x1437 PUSH2 0x11B5 JUMP JUMPDEST JUMPDEST PUSH1 0x0 DUP11 ADD CALLDATALOAD PUSH8 0xFFFFFFFFFFFFFFFF DUP2 GT ISZERO PUSH2 0x1456 JUMPI PUSH2 0x1455 PUSH2 0x11BA JUMP JUMPDEST JUMPDEST PUSH2 0x1462 DUP13 DUP3 DUP14 ADD PUSH2 0x1343 JUMP JUMPDEST SWAP10 POP POP PUSH1 0x20 PUSH2 0x1473 DUP13 DUP3 DUP14 ADD PUSH2 0x11D6 JUMP JUMPDEST SWAP9 POP POP PUSH1 0x40 PUSH2 0x1484 DUP13 DUP3 DUP14 ADD PUSH2 0x1392 JUMP JUMPDEST SWAP8 POP POP PUSH1 0x60 PUSH2 0x1495 DUP13 DUP3 DUP14 ADD PUSH2 0x1392 JUMP JUMPDEST SWAP7 POP POP PUSH1 0x80 PUSH2 0x14A6 DUP13 DUP3 DUP14 ADD PUSH2 0x13CA JUMP JUMPDEST SWAP6 POP POP PUSH1 0xA0 PUSH2 0x14B7 DUP13 DUP3 DUP14 ADD PUSH2 0x1392 JUMP JUMPDEST SWAP5 POP POP PUSH1 0xC0 PUSH2 0x14C8 DUP13 DUP3 DUP14 ADD PUSH2 0x1392 JUMP JUMPDEST SWAP4 POP POP PUSH1 0xE0 PUSH2 0x14D9 DUP13 DUP3 DUP14 ADD PUSH2 0x1400 JUMP JUMPDEST SWAP3 POP POP PUSH2 0x100 PUSH2 0x14EB DUP13 DUP3 DUP14 ADD PUSH2 0x11D6 JUMP JUMPDEST SWAP2 POP POP SWAP3 SWAP6 SWAP9 POP SWAP3 SWAP6 SWAP9 POP SWAP3 SWAP6 SWAP9 JUMP JUMPDEST PUSH2 0x1504 DUP2 PUSH2 0x13DF JUMP JUMPDEST DUP3 MSTORE POP POP JUMP JUMPDEST PUSH1 0x0 PUSH1 0x20 DUP3 ADD SWAP1 POP PUSH2 0x151F PUSH1 0x0 DUP4 ADD DUP5 PUSH2 0x14FB JUMP JUMPDEST SWAP3 SWAP2 POP POP JUMP JUMPDEST PUSH1 0x0 DUP1 PUSH1 0x40 DUP4 DUP6 SUB SLT ISZERO PUSH2 0x153C JUMPI PUSH2 0x153B PUSH2 0x11B5 JUMP JUMPDEST JUMPDEST PUSH1 0x0 PUSH2 0x154A DUP6 DUP3 DUP7 ADD PUSH2 0x11D6 JUMP JUMPDEST SWAP3 POP POP PUSH1 0x20 PUSH2 0x155B DUP6 DUP3 DUP7 ADD PUSH2 0x13CA JUMP JUMPDEST SWAP2 POP POP SWAP3 POP SWAP3 SWAP1 POP JUMP JUMPDEST PUSH1 0x0 DUP1 PUSH1 0x40 DUP4 DUP6 SUB SLT ISZERO PUSH2 0x157C JUMPI PUSH2 0x157B PUSH2 0x11B5 JUMP JUMPDEST JUMPDEST PUSH1 0x0 PUSH2 0x158A DUP6 DUP3 DUP7 ADD PUSH2 0x11D6 JUMP JUMPDEST SWAP3 POP POP PUSH1 0x20 PUSH2 0x159B DUP6 DUP3 DUP7 ADD PUSH2 0x1392 JUMP JUMPDEST SWAP2 POP POP SWAP3 POP SWAP3 SWAP1 POP JUMP JUMPDEST PUSH1 0x0 DUP1 PUSH1 0x0 DUP1 PUSH1 0x0 DUP1 PUSH1 0x0 PUSH1 0xE0 DUP9 DUP11 SUB SLT ISZERO PUSH2 0x15C4 JUMPI PUSH2 0x15C3 PUSH2 0x11B5 JUMP JUMPDEST JUMPDEST PUSH1 0x0 PUSH2 0x15D2 DUP11 DUP3 DUP12 ADD PUSH2 0x11D6 JUMP JUMPDEST SWAP8 POP POP PUSH1 0x20 PUSH2 0x15E3 DUP11 DUP3 DUP12 ADD PUSH2 0x11D6 JUMP JUMPDEST SWAP7 POP POP PUSH1 0x40 PUSH2 0x15F4 DUP11 DUP3 DUP12 ADD PUSH2 0x13CA JUMP JUMPDEST SWAP6 POP POP PUSH1 0x60 PUSH2 0x1605 DUP11 DUP3 DUP12 ADD PUSH2 0x1392 JUMP JUMPDEST SWAP5 POP POP PUSH1 0x80 PUSH2 0x1616 DUP11 DUP3 DUP12 ADD PUSH2 0x1392 JUMP JUMPDEST SWAP4 POP POP PUSH1 0xA0 PUSH2 0x1627 DUP11 DUP3 DUP12 ADD PUSH2 0x1392 JUMP JUMPDEST SWAP3 POP POP PUSH1 0xC0 PUSH2 0x1638 DUP11 DUP3 DUP12 ADD PUSH2 0x1392 JUMP JUMPDEST SWAP2 POP POP SWAP3 SWAP6 SWAP9 SWAP2 SWAP5 SWAP8 POP SWAP3 SWAP6 POP JUMP JUMPDEST PUSH1 0x0 PUSH1 0x20 DUP3 DUP5 SUB SLT ISZERO PUSH2 0x165D JUMPI PUSH2 0x165C PUSH2 0x11B5 JUMP JUMPDEST JUMPDEST PUSH1 0x0 PUSH2 0x166B DUP5 DUP3 DUP6 ADD PUSH2 0x1400 JUMP JUMPDEST SWAP2 POP POP SWAP3 SWAP2 POP POP JUMP JUMPDEST PUSH2 0x167D DUP2 PUSH2 0x13A7 JUMP JUMPDEST DUP3 MSTORE POP POP JUMP JUMPDEST PUSH1 0x0 PUSH1 0x20 DUP3 ADD SWAP1 POP PUSH2 0x1698 PUSH1 0x0 DUP4 ADD DUP5 PUSH2 0x1674 JUMP JUMPDEST SWAP3 SWAP2 POP POP JUMP JUMPDEST PUSH1 0x0 DUP1 PUSH1 0x0 DUP1 PUSH1 0x0 DUP1 PUSH1 0x0 DUP1 PUSH1 0x0 DUP1 PUSH1 0x0 PUSH2 0x160 DUP13 DUP15 SUB SLT ISZERO PUSH2 0x16C4 JUMPI PUSH2 0x16C3 PUSH2 0x11B5 JUMP JUMPDEST JUMPDEST PUSH1 0x0 DUP13 ADD CALLDATALOAD PUSH8 0xFFFFFFFFFFFFFFFF DUP2 GT ISZERO PUSH2 0x16E2 JUMPI PUSH2 0x16E1 PUSH2 0x11BA JUMP JUMPDEST JUMPDEST PUSH2 0x16EE DUP15 DUP3 DUP16 ADD PUSH2 0x1343 JUMP JUMPDEST SWAP12 POP POP PUSH1 0x20 PUSH2 0x16FF DUP15 DUP3 DUP16 ADD PUSH2 0x11D6 JUMP JUMPDEST SWAP11 POP POP PUSH1 0x40 PUSH2 0x1710 DUP15 DUP3 DUP16 ADD PUSH2 0x1392 JUMP JUMPDEST SWAP10 POP POP PUSH1 0x60 PUSH2 0x1721 DUP15 DUP3 DUP16 ADD PUSH2 0x1392 JUMP JUMPDEST SWAP9 POP POP PUSH1 0x80 PUSH2 0x1732 DUP15 DUP3 DUP16 ADD PUSH2 0x13CA JUMP JUMPDEST SWAP8 POP POP PUSH1 0xA0 PUSH2 0x1743 DUP15 DUP3 DUP16 ADD PUSH2 0x11D6 JUMP JUMPDEST SWAP7 POP POP PUSH1 0xC0 PUSH2 0x1754 DUP15 DUP3 DUP16 ADD PUSH2 0x1392 JUMP JUMPDEST SWAP6 POP POP PUSH1 0xE0 PUSH2 0x1765 DUP15 DUP3 DUP16 ADD PUSH2 0x1392 JUMP JUMPDEST SWAP5 POP POP PUSH2 0x100 PUSH2 0x1777 DUP15 DUP3 DUP16 ADD PUSH2 0x1392 JUMP JUMPDEST SWAP4 POP POP PUSH2 0x120 PUSH2 0x1789 DUP15 DUP3 DUP16 ADD PUSH2 0x13CA JUMP JUMPDEST SWAP3 POP POP PUSH2 0x140 PUSH2 0x179B DUP15 DUP3 DUP16 ADD PUSH2 0x11D6 JUMP JUMPDEST SWAP2 POP POP SWAP3 SWAP6 SWAP9 SWAP12 POP SWAP3 SWAP6 SWAP9 SWAP12 SWAP1 SWAP4 SWAP7 SWAP10 POP JUMP JUMPDEST PUSH2 0x17B7 DUP2 PUSH2 0x1371 JUMP JUMPDEST DUP3 MSTORE POP POP JUMP JUMPDEST PUSH1 0x0 PUSH1 0x20 DUP3 ADD SWAP1 POP PUSH2 0x17D2 PUSH1 0x0 DUP4 ADD DUP5 PUSH2 0x17AE JUMP JUMPDEST SWAP3 SWAP2 POP POP JUMP JUMPDEST PUSH1 0x0 PUSH1 0x20 DUP3 DUP5 SUB SLT ISZERO PUSH2 0x17EE JUMPI PUSH2 0x17ED PUSH2 0x11B5 JUMP JUMPDEST JUMPDEST PUSH1 0x0 PUSH2 0x17FC DUP5 DUP3 DUP6 ADD PUSH2 0x1392 JUMP JUMPDEST SWAP2 POP POP SWAP3 SWAP2 POP POP JUMP JUMPDEST PUSH1 0x0 DUP2 MLOAD SWAP1 POP SWAP2 SWAP1 POP JUMP JUMPDEST PUSH1 0x0 DUP3 DUP3 MSTORE PUSH1 0x20 DUP3 ADD SWAP1 POP SWAP3 SWAP2 POP POP JUMP JUMPDEST PUSH1 0x0 JUMPDEST DUP4 DUP2 LT ISZERO PUSH2 0x183F JUMPI DUP1 DUP3 ADD MLOAD DUP2 DUP5 ADD MSTORE PUSH1 0x20 DUP2 ADD SWAP1 POP PUSH2 0x1824 JUMP JUMPDEST PUSH1 0x0 DUP5 DUP5 ADD MSTORE POP POP POP POP JUMP JUMPDEST PUSH1 0x0 PUSH2 0x1856 DUP3 PUSH2 0x1805 JUMP JUMPDEST PUSH2 0x1860 DUP2 DUP6 PUSH2 0x1810 JUMP JUMPDEST SWAP4 POP PUSH2 0x1870 DUP2 DUP6 PUSH1 0x20 DUP7 ADD PUSH2 0x1821 JUMP JUMPDEST PUSH2 0x1879 DUP2 PUSH2 0x121D JUMP JUMPDEST DUP5 ADD SWAP2 POP POP SWAP3 SWAP2 POP POP JUMP JUMPDEST PUSH1 0x0 PUSH1 0x20 DUP3 ADD SWAP1 POP DUP2 DUP2 SUB PUSH1 0x0 DUP4 ADD MSTORE PUSH2 0x189E DUP2 DUP5 PUSH2 0x184B JUMP JUMPDEST SWAP1 POP SWAP3 SWAP2 POP POP JUMP JUMPDEST PUSH32 0x6F6E6C7920746865206F776E65722063616E2063616C6C20746869732066756E PUSH1 0x0 DUP3 ADD MSTORE PUSH32 0x6374696F6E000000000000000000000000000000000000000000000000000000 PUSH1 0x20 DUP3 ADD MSTORE POP JUMP JUMPDEST PUSH1 0x0 PUSH2 0x1902 PUSH1 0x25 DUP4 PUSH2 0x1810 JUMP JUMPDEST SWAP2 POP PUSH2 0x190D DUP3 PUSH2 0x18A6 JUMP JUMPDEST PUSH1 0x40 DUP3 ADD SWAP1 POP SWAP2 SWAP1 POP JUMP JUMPDEST PUSH1 0x0 PUSH1 0x20 DUP3 ADD SWAP1 POP DUP2 DUP2 SUB PUSH1 0x0 DUP4 ADD MSTORE PUSH2 0x1931 DUP2 PUSH2 0x18F5 JUMP JUMPDEST SWAP1 POP SWAP2 SWAP1 POP JUMP JUMPDEST PUSH1 0x0 DUP2 MLOAD SWAP1 POP SWAP2 SWAP1 POP JUMP JUMPDEST PUSH1 0x0 DUP3 DUP3 MSTORE PUSH1 0x20 DUP3 ADD SWAP1 POP SWAP3 SWAP2 POP POP JUMP JUMPDEST PUSH1 0x0 DUP2 SWAP1 POP PUSH1 0x20 DUP3 ADD SWAP1 POP SWAP2 SWAP1 POP JUMP JUMPDEST PUSH2 0x196D DUP2 PUSH2 0x116F JUMP JUMPDEST DUP3 MSTORE POP POP JUMP JUMPDEST PUSH1 0x0 PUSH2 0x197F DUP4 DUP4 PUSH2 0x1964 JUMP JUMPDEST PUSH1 0x20 DUP4 ADD SWAP1 POP SWAP3 SWAP2 POP POP JUMP JUMPDEST PUSH1 0x0 PUSH1 0x20 DUP3 ADD SWAP1 POP SWAP2 SWAP1 POP JUMP JUMPDEST PUSH1 0x0 PUSH2 0x19A3 DUP3 PUSH2 0x1938 JUMP JUMPDEST PUSH2 0x19AD DUP2 DUP6 PUSH2 0x1943 JUMP JUMPDEST SWAP4 POP PUSH2 0x19B8 DUP4 PUSH2 0x1954 JUMP JUMPDEST DUP1 PUSH1 0x0 JUMPDEST DUP4 DUP2 LT ISZERO PUSH2 0x19E9 JUMPI DUP2 MLOAD PUSH2 0x19D0 DUP9 DUP3 PUSH2 0x1973 JUMP JUMPDEST SWAP8 POP PUSH2 0x19DB DUP4 PUSH2 0x198B JUMP JUMPDEST SWAP3 POP POP PUSH1 0x1 DUP2 ADD SWAP1 POP PUSH2 0x19BC JUMP JUMPDEST POP DUP6 SWAP4 POP POP POP POP SWAP3 SWAP2 POP POP JUMP JUMPDEST PUSH1 0x0 PUSH2 0x120 DUP3 ADD SWAP1 POP DUP2 DUP2 SUB PUSH1 0x0 DUP4 ADD MSTORE PUSH2 0x1A11 DUP2 DUP13 PUSH2 0x1998 JUMP JUMPDEST SWAP1 POP PUSH2 0x1A20 PUSH1 0x20 DUP4 ADD DUP12 PUSH2 0x1181 JUMP JUMPDEST PUSH2 0x1A2D PUSH1 0x40 DUP4 ADD DUP11 PUSH2 0x17AE JUMP JUMPDEST PUSH2 0x1A3A PUSH1 0x60 DUP4 ADD DUP10 PUSH2 0x17AE JUMP JUMPDEST PUSH2 0x1A47 PUSH1 0x80 DUP4 ADD DUP9 PUSH2 0x1674 JUMP JUMPDEST PUSH2 0x1A54 PUSH1 0xA0 DUP4 ADD DUP8 PUSH2 0x17AE JUMP JUMPDEST PUSH2 0x1A61 PUSH1 0xC0 DUP4 ADD DUP7 PUSH2 0x17AE JUMP JUMPDEST PUSH2 0x1A6E PUSH1 0xE0 DUP4 ADD DUP6 PUSH2 0x14FB JUMP JUMPDEST PUSH2 0x1A7C PUSH2 0x100 DUP4 ADD DUP5 PUSH2 0x1181 JUMP JUMPDEST SWAP11 SWAP10 POP POP POP POP POP POP POP POP POP POP JUMP JUMPDEST PUSH1 0x0 DUP2 MLOAD SWAP1 POP PUSH2 0x1A99 DUP2 PUSH2 0x13E9 JUMP JUMPDEST SWAP3 SWAP2 POP POP JUMP JUMPDEST PUSH1 0x0 PUSH1 0x20 DUP3 DUP5 SUB SLT ISZERO PUSH2 0x1AB5 JUMPI PUSH2 0x1AB4 PUSH2 0x11B5 JUMP JUMPDEST JUMPDEST PUSH1 0x0 PUSH2 0x1AC3 DUP5 DUP3 DUP6 ADD PUSH2 0x1A8A JUMP JUMPDEST SWAP2 POP POP SWAP3 SWAP2 POP POP JUMP JUMPDEST PUSH1 0x0 DUP2 PUSH1 0x60 SHL SWAP1 POP SWAP2 SWAP1 POP JUMP JUMPDEST PUSH1 0x0 PUSH2 0x1AE4 DUP3 PUSH2 0x1ACC JUMP JUMPDEST SWAP1 POP SWAP2 SWAP1 POP JUMP JUMPDEST PUSH1 0x0 PUSH2 0x1AF6 DUP3 PUSH2 0x1AD9 JUMP JUMPDEST SWAP1 POP SWAP2 SWAP1 POP JUMP JUMPDEST PUSH2 0x1B0E PUSH2 0x1B09 DUP3 PUSH2 0x116F JUMP JUMPDEST PUSH2 0x1AEB JUMP JUMPDEST DUP3 MSTORE POP POP JUMP JUMPDEST PUSH1 0x0 DUP2 PUSH1 0xF8 SHL SWAP1 POP SWAP2 SWAP1 POP JUMP JUMPDEST PUSH1 0x0 PUSH2 0x1B2C DUP3 PUSH2 0x1B14 JUMP JUMPDEST SWAP1 POP SWAP2 SWAP1 POP JUMP JUMPDEST PUSH1 0x0 PUSH2 0x1B3E DUP3 PUSH2 0x1B21 JUMP JUMPDEST SWAP1 POP SWAP2 SWAP1 POP JUMP JUMPDEST PUSH2 0x1B56 PUSH2 0x1B51 DUP3 PUSH2 0x13A7 JUMP JUMPDEST PUSH2 0x1B33 JUMP JUMPDEST DUP3 MSTORE POP POP JUMP JUMPDEST PUSH1 0x0 PUSH2 0x1B68 DUP3 DUP6 PUSH2 0x1AFD JUMP JUMPDEST PUSH1 0x14 DUP3 ADD SWAP2 POP PUSH2 0x1B78 DUP3 DUP5 PUSH2 0x1B45 JUMP JUMPDEST PUSH1 0x1 DUP3 ADD SWAP2 POP DUP2 SWAP1 POP SWAP4 SWAP3 POP POP POP JUMP JUMPDEST PUSH1 0x0 DUP2 SWAP1 POP SWAP2 SWAP1 POP JUMP JUMPDEST PUSH2 0x1BA3 PUSH2 0x1B9E DUP3 PUSH2 0x1371 JUMP JUMPDEST PUSH2 0x1B88 JUMP JUMPDEST DUP3 MSTORE POP POP JUMP JUMPDEST PUSH1 0x0 PUSH2 0x1BB5 DUP3 DUP6 PUSH2 0x1AFD JUMP JUMPDEST PUSH1 0x14 DUP3 ADD SWAP2 POP PUSH2 0x1BC5 DUP3 DUP5 PUSH2 0x1B92 JUMP JUMPDEST PUSH1 0x20 DUP3 ADD SWAP2 POP DUP2 SWAP1 POP SWAP4 SWAP3 POP POP POP JUMP JUMPDEST PUSH32 0x6F6E6C79206C656E64696E67436F6E74726163742063616E2063616C6C207468 PUSH1 0x0 DUP3 ADD MSTORE PUSH32 0x69732066756E6374696F6E000000000000000000000000000000000000000000 PUSH1 0x20 DUP3 ADD MSTORE POP JUMP JUMPDEST PUSH1 0x0 PUSH2 0x1C31 PUSH1 0x2B DUP4 PUSH2 0x1810 JUMP JUMPDEST SWAP2 POP PUSH2 0x1C3C DUP3 PUSH2 0x1BD5 JUMP JUMPDEST PUSH1 0x40 DUP3 ADD SWAP1 POP SWAP2 SWAP1 POP JUMP JUMPDEST PUSH1 0x0 PUSH1 0x20 DUP3 ADD SWAP1 POP DUP2 DUP2 SUB PUSH1 0x0 DUP4 ADD MSTORE PUSH2 0x1C60 DUP2 PUSH2 0x1C24 JUMP JUMPDEST SWAP1 POP SWAP2 SWAP1 POP JUMP JUMPDEST PUSH32 0x706F736974696F6E2063757272656E746C79206C6F616E656400000000000000 PUSH1 0x0 DUP3 ADD MSTORE POP JUMP JUMPDEST PUSH1 0x0 PUSH2 0x1C9D PUSH1 0x19 DUP4 PUSH2 0x1810 JUMP JUMPDEST SWAP2 POP PUSH2 0x1CA8 DUP3 PUSH2 0x1C67 JUMP JUMPDEST PUSH1 0x20 DUP3 ADD SWAP1 POP SWAP2 SWAP1 POP JUMP JUMPDEST PUSH1 0x0 PUSH1 0x20 DUP3 ADD SWAP1 POP DUP2 DUP2 SUB PUSH1 0x0 DUP4 ADD MSTORE PUSH2 0x1CCC DUP2 PUSH2 0x1C90 JUMP JUMPDEST SWAP1 POP SWAP2 SWAP1 POP JUMP JUMPDEST PUSH1 0x0 DUP2 SWAP1 POP SWAP2 SWAP1 POP JUMP JUMPDEST PUSH1 0x0 DUP2 SWAP1 POP SWAP2 SWAP1 POP JUMP JUMPDEST PUSH1 0x0 PUSH2 0x1D02 PUSH2 0x1CFD PUSH2 0x1CF8 DUP5 PUSH2 0x1CD3 JUMP JUMPDEST PUSH2 0x1CDD JUMP JUMPDEST PUSH2 0x1371 JUMP JUMPDEST SWAP1 POP SWAP2 SWAP1 POP JUMP JUMPDEST PUSH2 0x1D12 DUP2 PUSH2 0x1CE7 JUMP JUMPDEST DUP3 MSTORE POP POP JUMP JUMPDEST PUSH1 0x0 PUSH1 0xE0 DUP3 ADD SWAP1 POP PUSH2 0x1D2D PUSH1 0x0 DUP4 ADD DUP11 PUSH2 0x1181 JUMP JUMPDEST PUSH2 0x1D3A PUSH1 0x20 DUP4 ADD DUP10 PUSH2 0x17AE JUMP JUMPDEST PUSH2 0x1D47 PUSH1 0x40 DUP4 ADD DUP9 PUSH2 0x1181 JUMP JUMPDEST PUSH2 0x1D54 PUSH1 0x60 DUP4 ADD DUP8 PUSH2 0x1D09 JUMP JUMPDEST PUSH2 0x1D61 PUSH1 0x80 DUP4 ADD DUP7 PUSH2 0x1674 JUMP JUMPDEST PUSH2 0x1D6E PUSH1 0xA0 DUP4 ADD DUP6 PUSH2 0x17AE JUMP JUMPDEST PUSH2 0x1D7B PUSH1 0xC0 DUP4 ADD DUP5 PUSH2 0x1674 JUMP JUMPDEST SWAP9 SWAP8 POP POP POP POP POP POP POP POP JUMP JUMPDEST PUSH32 0x6F6E6C7920746865206F776E6572206F7220676F762063616E2063616C6C2074 PUSH1 0x0 DUP3 ADD MSTORE PUSH32 0x6869732066756E6374696F6E0000000000000000000000000000000000000000 PUSH1 0x20 DUP3 ADD MSTORE POP JUMP JUMPDEST PUSH1 0x0 PUSH2 0x1DE3 PUSH1 0x2C DUP4 PUSH2 0x1810 JUMP JUMPDEST SWAP2 POP PUSH2 0x1DEE DUP3 PUSH2 0x1D87 JUMP JUMPDEST PUSH1 0x40 DUP3 ADD SWAP1 POP SWAP2 SWAP1 POP JUMP JUMPDEST PUSH1 0x0 PUSH1 0x20 DUP3 ADD SWAP1 POP DUP2 DUP2 SUB PUSH1 0x0 DUP4 ADD MSTORE PUSH2 0x1E12 DUP2 PUSH2 0x1DD6 JUMP JUMPDEST SWAP1 POP SWAP2 SWAP1 POP JUMP JUMPDEST PUSH32 0x6D7976616C000000000000000000000000000000000000000000000000000000 PUSH1 0x0 DUP3 ADD MSTORE POP JUMP JUMPDEST PUSH1 0x0 PUSH2 0x1E4F PUSH1 0x5 DUP4 PUSH2 0x1810 JUMP JUMPDEST SWAP2 POP PUSH2 0x1E5A DUP3 PUSH2 0x1E19 JUMP JUMPDEST PUSH1 0x20 DUP3 ADD SWAP1 POP SWAP2 SWAP1 POP JUMP JUMPDEST PUSH1 0x0 PUSH1 0x20 DUP3 ADD SWAP1 POP DUP2 DUP2 SUB PUSH1 0x0 DUP4 ADD MSTORE PUSH2 0x1E7E DUP2 PUSH2 0x1E42 JUMP JUMPDEST SWAP1 POP SWAP2 SWAP1 POP JUMP JUMPDEST PUSH1 0x0 PUSH2 0x160 DUP3 ADD SWAP1 POP DUP2 DUP2 SUB PUSH1 0x0 DUP4 ADD MSTORE PUSH2 0x1EA0 DUP2 DUP15 PUSH2 0x1998 JUMP JUMPDEST SWAP1 POP PUSH2 0x1EAF PUSH1 0x20 DUP4 ADD DUP14 PUSH2 0x1181 JUMP JUMPDEST PUSH2 0x1EBC PUSH1 0x40 DUP4 ADD DUP13 PUSH2 0x17AE JUMP JUMPDEST PUSH2 0x1EC9 PUSH1 0x60 DUP4 ADD DUP12 PUSH2 0x17AE JUMP JUMPDEST PUSH2 0x1ED6 PUSH1 0x80 DUP4 ADD DUP11 PUSH2 0x1674 JUMP JUMPDEST PUSH2 0x1EE3 PUSH1 0xA0 DUP4 ADD DUP10 PUSH2 0x1181 JUMP JUMPDEST PUSH2 0x1EF0 PUSH1 0xC0 DUP4 ADD DUP9 PUSH2 0x17AE JUMP JUMPDEST PUSH2 0x1EFD PUSH1 0xE0 DUP4 ADD DUP8 PUSH2 0x17AE JUMP JUMPDEST PUSH2 0x1F0B PUSH2 0x100 DUP4 ADD DUP7 PUSH2 0x17AE JUMP JUMPDEST PUSH2 0x1F19 PUSH2 0x120 DUP4 ADD DUP6 PUSH2 0x1674 JUMP JUMPDEST PUSH2 0x1F27 PUSH2 0x140 DUP4 ADD DUP5 PUSH2 0x1181 JUMP JUMPDEST SWAP13 SWAP12 POP POP POP POP POP POP POP POP POP POP POP POP JUMP JUMPDEST PUSH32 0x706F736974696F6E2068617320746F206265206C6F616E656400000000000000 PUSH1 0x0 DUP3 ADD MSTORE POP JUMP JUMPDEST PUSH1 0x0 PUSH2 0x1F6D PUSH1 0x19 DUP4 PUSH2 0x1810 JUMP JUMPDEST SWAP2 POP PUSH2 0x1F78 DUP3 PUSH2 0x1F37 JUMP JUMPDEST PUSH1 0x20 DUP3 ADD SWAP1 POP SWAP2 SWAP1 POP JUMP JUMPDEST PUSH1 0x0 PUSH1 0x20 DUP3 ADD SWAP1 POP DUP2 DUP2 SUB PUSH1 0x0 DUP4 ADD MSTORE PUSH2 0x1F9C DUP2 PUSH2 0x1F60 JUMP JUMPDEST SWAP1 POP SWAP2 SWAP1 POP JUMP JUMPDEST PUSH32 0x4E487B7100000000000000000000000000000000000000000000000000000000 PUSH1 0x0 MSTORE PUSH1 0x22 PUSH1 0x4 MSTORE PUSH1 0x24 PUSH1 0x0 REVERT JUMPDEST PUSH1 0x0 PUSH1 0x2 DUP3 DIV SWAP1 POP PUSH1 0x1 DUP3 AND DUP1 PUSH2 0x1FEA JUMPI PUSH1 0x7F DUP3 AND SWAP2 POP JUMPDEST PUSH1 0x20 DUP3 LT DUP2 SUB PUSH2 0x1FFD JUMPI PUSH2 0x1FFC PUSH2 0x1FA3 JUMP JUMPDEST JUMPDEST POP SWAP2 SWAP1 POP JUMP JUMPDEST PUSH32 0x6F6E6C7920676F762063616E2063616C6C20746869732066756E6374696F6E00 PUSH1 0x0 DUP3 ADD MSTORE POP JUMP JUMPDEST PUSH1 0x0 PUSH2 0x2039 PUSH1 0x1F DUP4 PUSH2 0x1810 JUMP JUMPDEST SWAP2 POP PUSH2 0x2044 DUP3 PUSH2 0x2003 JUMP JUMPDEST PUSH1 0x20 DUP3 ADD SWAP1 POP SWAP2 SWAP1 POP JUMP JUMPDEST PUSH1 0x0 PUSH1 0x20 DUP3 ADD SWAP1 POP DUP2 DUP2 SUB PUSH1 0x0 DUP4 ADD MSTORE PUSH2 0x2068 DUP2 PUSH2 0x202C JUMP JUMPDEST SWAP1 POP SWAP2 SWAP1 POP JUMP JUMPDEST PUSH32 0x4E487B7100000000000000000000000000000000000000000000000000000000 PUSH1 0x0 MSTORE PUSH1 0x11 PUSH1 0x4 MSTORE PUSH1 0x24 PUSH1 0x0 REVERT JUMPDEST PUSH1 0x0 PUSH2 0x20A9 DUP3 PUSH2 0x1371 JUMP JUMPDEST SWAP2 POP PUSH2 0x20B4 DUP4 PUSH2 0x1371 JUMP JUMPDEST SWAP3 POP DUP3 DUP3 MUL PUSH2 0x20C2 DUP2 PUSH2 0x1371 JUMP JUMPDEST SWAP2 POP DUP3 DUP3 DIV DUP5 EQ DUP4 ISZERO OR PUSH2 0x20D9 JUMPI PUSH2 0x20D8 PUSH2 0x206F JUMP JUMPDEST JUMPDEST POP SWAP3 SWAP2 POP POP JUMP JUMPDEST PUSH32 0x4E487B7100000000000000000000000000000000000000000000000000000000 PUSH1 0x0 MSTORE PUSH1 0x12 PUSH1 0x4 MSTORE PUSH1 0x24 PUSH1 0x0 REVERT JUMPDEST PUSH1 0x0 PUSH2 0x211A DUP3 PUSH2 0x1371 JUMP JUMPDEST SWAP2 POP PUSH2 0x2125 DUP4 PUSH2 0x1371 JUMP JUMPDEST SWAP3 POP DUP3 PUSH2 0x2135 JUMPI PUSH2 0x2134 PUSH2 0x20E0 JUMP JUMPDEST JUMPDEST DUP3 DUP3 DIV SWAP1 POP SWAP3 SWAP2 POP POP JUMP JUMPDEST PUSH32 0x536166654D6174683A206D756C7469706C69636174696F6E206F766572666C6F PUSH1 0x0 DUP3 ADD MSTORE PUSH32 0x7700000000000000000000000000000000000000000000000000000000000000 PUSH1 0x20 DUP3 ADD MSTORE POP JUMP JUMPDEST PUSH1 0x0 PUSH2 0x219C PUSH1 0x21 DUP4 PUSH2 0x1810 JUMP JUMPDEST SWAP2 POP PUSH2 0x21A7 DUP3 PUSH2 0x2140 JUMP JUMPDEST PUSH1 0x40 DUP3 ADD SWAP1 POP SWAP2 SWAP1 POP JUMP JUMPDEST PUSH1 0x0 PUSH1 0x20 DUP3 ADD SWAP1 POP DUP2 DUP2 SUB PUSH1 0x0 DUP4 ADD MSTORE PUSH2 0x21CB DUP2 PUSH2 0x218F JUMP JUMPDEST SWAP1 POP SWAP2 SWAP1 POP JUMP JUMPDEST PUSH1 0x0 PUSH2 0x21DD DUP3 PUSH2 0x1371 JUMP JUMPDEST SWAP2 POP PUSH2 0x21E8 DUP4 PUSH2 0x1371 JUMP JUMPDEST SWAP3 POP DUP3 DUP3 SUB SWAP1 POP DUP2 DUP2 GT ISZERO PUSH2 0x2200 JUMPI PUSH2 0x21FF PUSH2 0x206F JUMP JUMPDEST JUMPDEST SWAP3 SWAP2 POP POP JUMP INVALID LOG2 PUSH5 0x6970667358 0x22 SLT KECCAK256 0xC7 PUSH15 0x3B9B612EF64B49E30B90D07125047C 0xD8 0xA7 MSTORE8 PUSH2 0x3BF8 0x5F 0xBC CALLDATACOPY 0xBD 0xAE 0xB8 SWAP14 PUSH12 0x6864736F6C63430008110033 "},"methodIdentifiers":{"PRICE_PRECISION()":"95082d25","_getPositionOnIndexKey(address,bool)":"1d59310e","callCreateDecreasePosition(address[],address,uint256,uint256,bool,address,uint256,uint256,uint256,bool,address)":"937a0e4e","callCreateIncreasePosition(address[],address,uint256,uint256,bool,uint256,uint256,bytes32,address)":"17a92e43","deposit()":"d0e30db0","errors(uint256)":"fed1a606","getRequestKey(address,uint256)":"62f8a3fe","gov()":"12d43a51","isLoaned(bytes32)":"903d5aeb","lendingContractAddress()":"7379dbe6","markPositionAsLoaned(address,address,bool,uint256,uint256,uint256,uint256)":"71e229b3","markPositionAsPaid(address,bool)":"a4f8a0bf","orderBookAddress()":"9409d870","ownerAddress()":"8f84aa09","positionRouterAddress()":"d422b00f","routerAddress()":"3268cc56","setLendingContractAddress(address)":"13f2d128","setPositionRouterAddress(address)":"a0f14034","setRouterAddress(address)":"41cb87fc"}}}}}