{
  "_format": "hh-sol-artifact-1",
  "contractName": "VaultReader",
  "sourceName": "contracts/gmx/peripherals/VaultReader.sol",
  "abi": [
    {
      "inputs": [
        {
          "internalType": "address",
          "name": "_vault",
          "type": "address"
        },
        {
          "internalType": "address",
          "name": "_positionManager",
          "type": "address"
        },
        {
          "internalType": "address",
          "name": "_weth",
          "type": "address"
        },
        {
          "internalType": "uint256",
          "name": "_usdgAmount",
          "type": "uint256"
        },
        {
          "internalType": "address[]",
          "name": "_tokens",
          "type": "address[]"
        }
      ],
      "name": "getVaultTokenInfoV3",
      "outputs": [
        {
          "internalType": "uint256[]",
          "name": "",
          "type": "uint256[]"
        }
      ],
      "stateMutability": "view",
      "type": "function"
    },
    {
      "inputs": [
        {
          "internalType": "address",
          "name": "_vault",
          "type": "address"
        },
        {
          "internalType": "address",
          "name": "_positionManager",
          "type": "address"
        },
        {
          "internalType": "address",
          "name": "_weth",
          "type": "address"
        },
        {
          "internalType": "uint256",
          "name": "_usdgAmount",
          "type": "uint256"
        },
        {
          "internalType": "address[]",
          "name": "_tokens",
          "type": "address[]"
        }
      ],
      "name": "getVaultTokenInfoV4",
      "outputs": [
        {
          "internalType": "uint256[]",
          "name": "",
          "type": "uint256[]"
        }
      ],
      "stateMutability": "view",
      "type": "function"
    }
  ],
  "bytecode": "0x608060405234801561001057600080fd5b50611bfc806100206000396000f3fe608060405234801561001057600080fd5b50600436106100365760003560e01c8063d3f3265c1461003b578063f75e8101146101b2575b600080fd5b61015b600480360360a081101561005157600080fd5b81019080803573ffffffffffffffffffffffffffffffffffffffff169060200190929190803573ffffffffffffffffffffffffffffffffffffffff169060200190929190803573ffffffffffffffffffffffffffffffffffffffff16906020019092919080359060200190929190803590602001906401000000008111156100d857600080fd5b8201836020820111156100ea57600080fd5b8035906020019184602083028401116401000000008311171561010c57600080fd5b919080806020026020016040519081016040528093929190818152602001838360200280828437600081840152601f19601f820116905080830192505050505050509192919290505050610329565b6040518080602001828103825283818151815260200191508051906020019060200280838360005b8381101561019e578082015181840152602081019050610183565b505050509050019250505060405180910390f35b6102d2600480360360a08110156101c857600080fd5b81019080803573ffffffffffffffffffffffffffffffffffffffff169060200190929190803573ffffffffffffffffffffffffffffffffffffffff169060200190929190803573ffffffffffffffffffffffffffffffffffffffff169060200190929190803590602001909291908035906020019064010000000081111561024f57600080fd5b82018360208201111561026157600080fd5b8035906020019184602083028401116401000000008311171561028357600080fd5b919080806020026020016040519081016040528093929190818152602001838360200280828437600081840152601f19601f820116905080830192505050505050509192919290505050610fd7565b6040518080602001828103825283818151815260200191508051906020019060200280838360005b838110156103155780820151818401526020810190506102fa565b505050509050019250505060405180910390f35b60606000600f9050600087905060008173ffffffffffffffffffffffffffffffffffffffff1663741bef1a6040518163ffffffff1660e01b815260040160206040518083038186803b15801561037e57600080fd5b505afa158015610392573d6000803e3d6000fd5b505050506040513d60208110156103a857600080fd5b81019080805190602001909291905050509050600088905060608487510267ffffffffffffffff811180156103dc57600080fd5b5060405190808252806020026020018201604052801561040b5781602001602082028036833780820191505090505b50905060005b8751811015610fc557600088828151811061042857fe5b60200260200101519050600073ffffffffffffffffffffffffffffffffffffffff168173ffffffffffffffffffffffffffffffffffffffff16141561046b578a90505b8573ffffffffffffffffffffffffffffffffffffffff166352f55eed826040518263ffffffff1660e01b8152600401808273ffffffffffffffffffffffffffffffffffffffff16815260200191505060206040518083038186803b1580156104d257600080fd5b505afa1580156104e6573d6000803e3d6000fd5b505050506040513d60208110156104fc57600080fd5b8101908080519060200190929190505050838884028151811061051b57fe5b6020026020010181815250508573ffffffffffffffffffffffffffffffffffffffff1663c3c7b9e9826040518263ffffffff1660e01b8152600401808273ffffffffffffffffffffffffffffffffffffffff16815260200191505060206040518083038186803b15801561058e57600080fd5b505afa1580156105a2573d6000803e3d6000fd5b505050506040513d60208110156105b857600080fd5b810190808051906020019092919050505083600189850201815181106105da57fe5b6020026020010181815250508573ffffffffffffffffffffffffffffffffffffffff16631aa4ace5826040518263ffffffff1660e01b8152600401808273ffffffffffffffffffffffffffffffffffffffff16815260200191505060206040518083038186803b15801561064d57600080fd5b505afa158015610661573d6000803e3d6000fd5b505050506040513d602081101561067757600080fd5b8101908080519060200190929190505050836002898502018151811061069957fe5b6020026020010181815250508573ffffffffffffffffffffffffffffffffffffffff16632c668ec1828c6040518363ffffffff1660e01b8152600401808373ffffffffffffffffffffffffffffffffffffffff1681526020018281526020019250505060206040518083038186803b15801561071457600080fd5b505afa158015610728573d6000803e3d6000fd5b505050506040513d602081101561073e57600080fd5b8101908080519060200190929190505050836003898502018151811061076057fe5b6020026020010181815250508573ffffffffffffffffffffffffffffffffffffffff1663ab2f3ad4826040518263ffffffff1660e01b8152600401808273ffffffffffffffffffffffffffffffffffffffff16815260200191505060206040518083038186803b1580156107d357600080fd5b505afa1580156107e7573d6000803e3d6000fd5b505050506040513d60208110156107fd57600080fd5b8101908080519060200190929190505050836004898502018151811061081f57fe5b6020026020010181815250508573ffffffffffffffffffffffffffffffffffffffff16634a993ee9826040518263ffffffff1660e01b8152600401808273ffffffffffffffffffffffffffffffffffffffff16815260200191505060206040518083038186803b15801561089257600080fd5b505afa1580156108a6573d6000803e3d6000fd5b505050506040513d60208110156108bc57600080fd5b810190808051906020019092919050505083600589850201815181106108de57fe5b6020026020010181815250508573ffffffffffffffffffffffffffffffffffffffff1663ad1e4f8d826040518263ffffffff1660e01b8152600401808273ffffffffffffffffffffffffffffffffffffffff16815260200191505060206040518083038186803b15801561095157600080fd5b505afa158015610965573d6000803e3d6000fd5b505050506040513d602081101561097b57600080fd5b8101908080519060200190929190505050836006898502018151811061099d57fe5b6020026020010181815250508573ffffffffffffffffffffffffffffffffffffffff16638a78daa8826040518263ffffffff1660e01b8152600401808273ffffffffffffffffffffffffffffffffffffffff16815260200191505060206040518083038186803b158015610a1057600080fd5b505afa158015610a24573d6000803e3d6000fd5b505050506040513d6020811015610a3a57600080fd5b81019080805190602001909291905050508360078985020181518110610a5c57fe5b6020026020010181815250508373ffffffffffffffffffffffffffffffffffffffff16639698d25a826040518263ffffffff1660e01b8152600401808273ffffffffffffffffffffffffffffffffffffffff16815260200191505060206040518083038186803b158015610acf57600080fd5b505afa158015610ae3573d6000803e3d6000fd5b505050506040513d6020811015610af957600080fd5b81019080805190602001909291905050508360088985020181518110610b1b57fe5b6020026020010181815250508373ffffffffffffffffffffffffffffffffffffffff16631045c74e826040518263ffffffff1660e01b8152600401808273ffffffffffffffffffffffffffffffffffffffff16815260200191505060206040518083038186803b158015610b8e57600080fd5b505afa158015610ba2573d6000803e3d6000fd5b505050506040513d6020811015610bb857600080fd5b81019080805190602001909291905050508360098985020181518110610bda57fe5b6020026020010181815250508573ffffffffffffffffffffffffffffffffffffffff166381a612d6826040518263ffffffff1660e01b8152600401808273ffffffffffffffffffffffffffffffffffffffff16815260200191505060206040518083038186803b158015610c4d57600080fd5b505afa158015610c61573d6000803e3d6000fd5b505050506040513d6020811015610c7757600080fd5b810190808051906020019092919050505083600a8985020181518110610c9957fe5b6020026020010181815250508573ffffffffffffffffffffffffffffffffffffffff1663e124e6d2826040518263ffffffff1660e01b8152600401808273ffffffffffffffffffffffffffffffffffffffff16815260200191505060206040518083038186803b158015610d0c57600080fd5b505afa158015610d20573d6000803e3d6000fd5b505050506040513d6020811015610d3657600080fd5b810190808051906020019092919050505083600b8985020181518110610d5857fe5b6020026020010181815250508573ffffffffffffffffffffffffffffffffffffffff1663f07456ce826040518263ffffffff1660e01b8152600401808273ffffffffffffffffffffffffffffffffffffffff16815260200191505060206040518083038186803b158015610dcb57600080fd5b505afa158015610ddf573d6000803e3d6000fd5b505050506040513d6020811015610df557600080fd5b810190808051906020019092919050505083600c8985020181518110610e1757fe5b6020026020010181815250508473ffffffffffffffffffffffffffffffffffffffff166356c8c2c18260006040518363ffffffff1660e01b8152600401808373ffffffffffffffffffffffffffffffffffffffff16815260200182151581526020019250505060206040518083038186803b158015610e9557600080fd5b505afa158015610ea9573d6000803e3d6000fd5b505050506040513d6020811015610ebf57600080fd5b810190808051906020019092919050505083600d8985020181518110610ee157fe5b6020026020010181815250508473ffffffffffffffffffffffffffffffffffffffff166356c8c2c18260016040518363ffffffff1660e01b8152600401808373ffffffffffffffffffffffffffffffffffffffff16815260200182151581526020019250505060206040518083038186803b158015610f5f57600080fd5b505afa158015610f73573d6000803e3d6000fd5b505050506040513d6020811015610f8957600080fd5b810190808051906020019092919050505083600e8985020181518110610fab57fe5b602002602001018181525050508080600101915050610411565b50809550505050505095945050505050565b60606000600e9050600087905060008173ffffffffffffffffffffffffffffffffffffffff1663741bef1a6040518163ffffffff1660e01b815260040160206040518083038186803b15801561102c57600080fd5b505afa158015611040573d6000803e3d6000fd5b505050506040513d602081101561105657600080fd5b81019080805190602001909291905050509050600088905060608487510267ffffffffffffffff8111801561108a57600080fd5b506040519080825280602002602001820160405280156110b95781602001602082028036833780820191505090505b50905060005b8751811015611bb45760008882815181106110d657fe5b60200260200101519050600073ffffffffffffffffffffffffffffffffffffffff168173ffffffffffffffffffffffffffffffffffffffff161415611119578a90505b8573ffffffffffffffffffffffffffffffffffffffff166352f55eed826040518263ffffffff1660e01b8152600401808273ffffffffffffffffffffffffffffffffffffffff16815260200191505060206040518083038186803b15801561118057600080fd5b505afa158015611194573d6000803e3d6000fd5b505050506040513d60208110156111aa57600080fd5b810190808051906020019092919050505083888402815181106111c957fe5b6020026020010181815250508573ffffffffffffffffffffffffffffffffffffffff1663c3c7b9e9826040518263ffffffff1660e01b8152600401808273ffffffffffffffffffffffffffffffffffffffff16815260200191505060206040518083038186803b15801561123c57600080fd5b505afa158015611250573d6000803e3d6000fd5b505050506040513d602081101561126657600080fd5b8101908080519060200190929190505050836001898502018151811061128857fe5b6020026020010181815250508573ffffffffffffffffffffffffffffffffffffffff16631aa4ace5826040518263ffffffff1660e01b8152600401808273ffffffffffffffffffffffffffffffffffffffff16815260200191505060206040518083038186803b1580156112fb57600080fd5b505afa15801561130f573d6000803e3d6000fd5b505050506040513d602081101561132557600080fd5b8101908080519060200190929190505050836002898502018151811061134757fe5b6020026020010181815250508573ffffffffffffffffffffffffffffffffffffffff16632c668ec1828c6040518363ffffffff1660e01b8152600401808373ffffffffffffffffffffffffffffffffffffffff1681526020018281526020019250505060206040518083038186803b1580156113c257600080fd5b505afa1580156113d6573d6000803e3d6000fd5b505050506040513d60208110156113ec57600080fd5b8101908080519060200190929190505050836003898502018151811061140e57fe5b6020026020010181815250508573ffffffffffffffffffffffffffffffffffffffff1663ab2f3ad4826040518263ffffffff1660e01b8152600401808273ffffffffffffffffffffffffffffffffffffffff16815260200191505060206040518083038186803b15801561148157600080fd5b505afa158015611495573d6000803e3d6000fd5b505050506040513d60208110156114ab57600080fd5b810190808051906020019092919050505083600489850201815181106114cd57fe5b6020026020010181815250508573ffffffffffffffffffffffffffffffffffffffff16634a993ee9826040518263ffffffff1660e01b8152600401808273ffffffffffffffffffffffffffffffffffffffff16815260200191505060206040518083038186803b15801561154057600080fd5b505afa158015611554573d6000803e3d6000fd5b505050506040513d602081101561156a57600080fd5b8101908080519060200190929190505050836005898502018151811061158c57fe5b6020026020010181815250508573ffffffffffffffffffffffffffffffffffffffff1663ad1e4f8d826040518263ffffffff1660e01b8152600401808273ffffffffffffffffffffffffffffffffffffffff16815260200191505060206040518083038186803b1580156115ff57600080fd5b505afa158015611613573d6000803e3d6000fd5b505050506040513d602081101561162957600080fd5b8101908080519060200190929190505050836006898502018151811061164b57fe5b6020026020010181815250508573ffffffffffffffffffffffffffffffffffffffff16638a78daa8826040518263ffffffff1660e01b8152600401808273ffffffffffffffffffffffffffffffffffffffff16815260200191505060206040518083038186803b1580156116be57600080fd5b505afa1580156116d2573d6000803e3d6000fd5b505050506040513d60208110156116e857600080fd5b8101908080519060200190929190505050836007898502018151811061170a57fe5b6020026020010181815250508373ffffffffffffffffffffffffffffffffffffffff16639698d25a826040518263ffffffff1660e01b8152600401808273ffffffffffffffffffffffffffffffffffffffff16815260200191505060206040518083038186803b15801561177d57600080fd5b505afa158015611791573d6000803e3d6000fd5b505050506040513d60208110156117a757600080fd5b810190808051906020019092919050505083600889850201815181106117c957fe5b6020026020010181815250508573ffffffffffffffffffffffffffffffffffffffff166381a612d6826040518263ffffffff1660e01b8152600401808273ffffffffffffffffffffffffffffffffffffffff16815260200191505060206040518083038186803b15801561183c57600080fd5b505afa158015611850573d6000803e3d6000fd5b505050506040513d602081101561186657600080fd5b8101908080519060200190929190505050836009898502018151811061188857fe5b6020026020010181815250508573ffffffffffffffffffffffffffffffffffffffff1663e124e6d2826040518263ffffffff1660e01b8152600401808273ffffffffffffffffffffffffffffffffffffffff16815260200191505060206040518083038186803b1580156118fb57600080fd5b505afa15801561190f573d6000803e3d6000fd5b505050506040513d602081101561192557600080fd5b810190808051906020019092919050505083600a898502018151811061194757fe5b6020026020010181815250508573ffffffffffffffffffffffffffffffffffffffff1663f07456ce826040518263ffffffff1660e01b8152600401808273ffffffffffffffffffffffffffffffffffffffff16815260200191505060206040518083038186803b1580156119ba57600080fd5b505afa1580156119ce573d6000803e3d6000fd5b505050506040513d60208110156119e457600080fd5b810190808051906020019092919050505083600b8985020181518110611a0657fe5b6020026020010181815250508473ffffffffffffffffffffffffffffffffffffffff166356c8c2c18260006040518363ffffffff1660e01b8152600401808373ffffffffffffffffffffffffffffffffffffffff16815260200182151581526020019250505060206040518083038186803b158015611a8457600080fd5b505afa158015611a98573d6000803e3d6000fd5b505050506040513d6020811015611aae57600080fd5b810190808051906020019092919050505083600c8985020181518110611ad057fe5b6020026020010181815250508473ffffffffffffffffffffffffffffffffffffffff166356c8c2c18260016040518363ffffffff1660e01b8152600401808373ffffffffffffffffffffffffffffffffffffffff16815260200182151581526020019250505060206040518083038186803b158015611b4e57600080fd5b505afa158015611b62573d6000803e3d6000fd5b505050506040513d6020811015611b7857600080fd5b810190808051906020019092919050505083600d8985020181518110611b9a57fe5b6020026020010181815250505080806001019150506110bf565b5080955050505050509594505050505056fea2646970667358221220bb6dc25c81389850c6cde2ac2bf1f9a4596d356f5252d1e97e6963d01b32527a64736f6c634300060c0033",
  "linkReferences": {},
  "deployedLinkReferences": {}
}