{
  "_format": "hh-sol-artifact-1",
  "contractName": "VaultErrorController",
  "sourceName": "contracts/gmx/core/VaultErrorController.sol",
  "abi": [
    {
      "inputs": [],
      "name": "gov",
      "outputs": [
        {
          "internalType": "address",
          "name": "",
          "type": "address"
        }
      ],
      "stateMutability": "view",
      "type": "function"
    },
    {
      "inputs": [
        {
          "internalType": "contract IVault",
          "name": "_vault",
          "type": "address"
        },
        {
          "internalType": "string[]",
          "name": "_errors",
          "type": "string[]"
        }
      ],
      "name": "setErrors",
      "outputs": [],
      "stateMutability": "nonpayable",
      "type": "function"
    },
    {
      "inputs": [
        {
          "internalType": "address",
          "name": "_gov",
          "type": "address"
        }
      ],
      "name": "setGov",
      "outputs": [],
      "stateMutability": "nonpayable",
      "type": "function"
    }
  ],
  "bytecode": "0x608060405234801561001057600080fd5b50336000806101000a81548173ffffffffffffffffffffffffffffffffffffffff021916908373ffffffffffffffffffffffffffffffffffffffff1602179055506105f2806100606000396000f3fe608060405234801561001057600080fd5b50600436106100415760003560e01c806312d43a51146100465780636216c01b14610064578063cfad57a214610080575b600080fd5b61004e61009c565b60405161005b919061044b565b60405180910390f35b61007e60048036038101906100799190610368565b6100c0565b005b61009a6004803603810190610095919061033f565b6101fa565b005b60008054906101000a900473ffffffffffffffffffffffffffffffffffffffff1681565b60008054906101000a900473ffffffffffffffffffffffffffffffffffffffff1673ffffffffffffffffffffffffffffffffffffffff163373ffffffffffffffffffffffffffffffffffffffff161461014e576040517f08c379a000000000000000000000000000000000000000000000000000000000815260040161014590610466565b60405180910390fd5b60005b828290508110156101f4578373ffffffffffffffffffffffffffffffffffffffff166328e67be58285858581811061018557fe5b905060200281019061019791906104b8565b6040518463ffffffff1660e01b81526004016101b593929190610486565b600060405180830381600087803b1580156101cf57600080fd5b505af11580156101e3573d6000803e3d6000fd5b505050508080600101915050610151565b50505050565b60008054906101000a900473ffffffffffffffffffffffffffffffffffffffff1673ffffffffffffffffffffffffffffffffffffffff163373ffffffffffffffffffffffffffffffffffffffff1614610288576040517f08c379a000000000000000000000000000000000000000000000000000000000815260040161027f90610466565b60405180910390fd5b806000806101000a81548173ffffffffffffffffffffffffffffffffffffffff021916908373ffffffffffffffffffffffffffffffffffffffff16021790555050565b6000813590506102da8161058e565b92915050565b60008083601f8401126102f257600080fd5b8235905067ffffffffffffffff81111561030b57600080fd5b60208301915083602082028301111561032357600080fd5b9250929050565b600081359050610339816105a5565b92915050565b60006020828403121561035157600080fd5b600061035f848285016102cb565b91505092915050565b60008060006040848603121561037d57600080fd5b600061038b8682870161032a565b935050602084013567ffffffffffffffff8111156103a857600080fd5b6103b4868287016102e0565b92509250509250925092565b6103c981610520565b82525050565b60006103db838561050f565b93506103e883858461056e565b6103f18361057d565b840190509392505050565b600061040960158361050f565b91507f476f7665726e61626c653a20666f7262696464656e00000000000000000000006000830152602082019050919050565b61044581610564565b82525050565b600060208201905061046060008301846103c0565b92915050565b6000602082019050818103600083015261047f816103fc565b9050919050565b600060408201905061049b600083018661043c565b81810360208301526104ae8184866103cf565b9050949350505050565b600080833560016020038436030381126104d157600080fd5b80840192508235915067ffffffffffffffff8211156104ef57600080fd5b60208301925060018202360383131561050757600080fd5b509250929050565b600082825260208201905092915050565b600061052b82610544565b9050919050565b600061053d82610520565b9050919050565b600073ffffffffffffffffffffffffffffffffffffffff82169050919050565b6000819050919050565b82818337600083830152505050565b6000601f19601f8301169050919050565b61059781610520565b81146105a257600080fd5b50565b6105ae81610532565b81146105b957600080fd5b5056fea264697066735822122032a2c637926ba9c6ddac94186218219fbb1a61b5a7cc282a70f399e61ac92edc64736f6c634300060c0033",
  "linkReferences": {},
  "deployedLinkReferences": {}
}