{
  "_format": "hh-sol-artifact-1",
  "contractName": "Treasury",
  "sourceName": "contracts/gmx/gambit-token/Treasury.sol",
  "abi": [
    {
      "inputs": [],
      "stateMutability": "nonpayable",
      "type": "constructor"
    },
    {
      "inputs": [],
      "name": "addLiquidity",
      "outputs": [],
      "stateMutability": "nonpayable",
      "type": "function"
    },
    {
      "inputs": [
        {
          "internalType": "address[]",
          "name": "_accounts",
          "type": "address[]"
        }
      ],
      "name": "addWhitelists",
      "outputs": [],
      "stateMutability": "nonpayable",
      "type": "function"
    },
    {
      "inputs": [],
      "name": "busd",
      "outputs": [
        {
          "internalType": "address",
          "name": "",
          "type": "address"
        }
      ],
      "stateMutability": "view",
      "type": "function"
    },
    {
      "inputs": [],
      "name": "busdBasisPoints",
      "outputs": [
        {
          "internalType": "uint256",
          "name": "",
          "type": "uint256"
        }
      ],
      "stateMutability": "view",
      "type": "function"
    },
    {
      "inputs": [],
      "name": "busdHardCap",
      "outputs": [
        {
          "internalType": "uint256",
          "name": "",
          "type": "uint256"
        }
      ],
      "stateMutability": "view",
      "type": "function"
    },
    {
      "inputs": [],
      "name": "busdReceived",
      "outputs": [
        {
          "internalType": "uint256",
          "name": "",
          "type": "uint256"
        }
      ],
      "stateMutability": "view",
      "type": "function"
    },
    {
      "inputs": [],
      "name": "busdSlotCap",
      "outputs": [
        {
          "internalType": "uint256",
          "name": "",
          "type": "uint256"
        }
      ],
      "stateMutability": "view",
      "type": "function"
    },
    {
      "inputs": [],
      "name": "endSwap",
      "outputs": [],
      "stateMutability": "nonpayable",
      "type": "function"
    },
    {
      "inputs": [
        {
          "internalType": "uint256",
          "name": "_unlockTime",
          "type": "uint256"
        }
      ],
      "name": "extendUnlockTime",
      "outputs": [],
      "stateMutability": "nonpayable",
      "type": "function"
    },
    {
      "inputs": [],
      "name": "fund",
      "outputs": [
        {
          "internalType": "address",
          "name": "",
          "type": "address"
        }
      ],
      "stateMutability": "view",
      "type": "function"
    },
    {
      "inputs": [],
      "name": "gmt",
      "outputs": [
        {
          "internalType": "address",
          "name": "",
          "type": "address"
        }
      ],
      "stateMutability": "view",
      "type": "function"
    },
    {
      "inputs": [],
      "name": "gmtListingPrice",
      "outputs": [
        {
          "internalType": "uint256",
          "name": "",
          "type": "uint256"
        }
      ],
      "stateMutability": "view",
      "type": "function"
    },
    {
      "inputs": [],
      "name": "gmtPresalePrice",
      "outputs": [
        {
          "internalType": "uint256",
          "name": "",
          "type": "uint256"
        }
      ],
      "stateMutability": "view",
      "type": "function"
    },
    {
      "inputs": [],
      "name": "gov",
      "outputs": [
        {
          "internalType": "address",
          "name": "",
          "type": "address"
        }
      ],
      "stateMutability": "view",
      "type": "function"
    },
    {
      "inputs": [
        {
          "internalType": "uint256",
          "name": "_busdBasisPoints",
          "type": "uint256"
        }
      ],
      "name": "increaseBusdBasisPoints",
      "outputs": [],
      "stateMutability": "nonpayable",
      "type": "function"
    },
    {
      "inputs": [
        {
          "internalType": "address[]",
          "name": "_addresses",
          "type": "address[]"
        },
        {
          "internalType": "uint256[]",
          "name": "_values",
          "type": "uint256[]"
        }
      ],
      "name": "initialize",
      "outputs": [],
      "stateMutability": "nonpayable",
      "type": "function"
    },
    {
      "inputs": [],
      "name": "isInitialized",
      "outputs": [
        {
          "internalType": "bool",
          "name": "",
          "type": "bool"
        }
      ],
      "stateMutability": "view",
      "type": "function"
    },
    {
      "inputs": [],
      "name": "isLiquidityAdded",
      "outputs": [
        {
          "internalType": "bool",
          "name": "",
          "type": "bool"
        }
      ],
      "stateMutability": "view",
      "type": "function"
    },
    {
      "inputs": [],
      "name": "isSwapActive",
      "outputs": [
        {
          "internalType": "bool",
          "name": "",
          "type": "bool"
        }
      ],
      "stateMutability": "view",
      "type": "function"
    },
    {
      "inputs": [
        {
          "internalType": "address[]",
          "name": "_accounts",
          "type": "address[]"
        }
      ],
      "name": "removeWhitelists",
      "outputs": [],
      "stateMutability": "nonpayable",
      "type": "function"
    },
    {
      "inputs": [],
      "name": "router",
      "outputs": [
        {
          "internalType": "address",
          "name": "",
          "type": "address"
        }
      ],
      "stateMutability": "view",
      "type": "function"
    },
    {
      "inputs": [
        {
          "internalType": "address",
          "name": "_fund",
          "type": "address"
        }
      ],
      "name": "setFund",
      "outputs": [],
      "stateMutability": "nonpayable",
      "type": "function"
    },
    {
      "inputs": [
        {
          "internalType": "address",
          "name": "_gov",
          "type": "address"
        }
      ],
      "name": "setGov",
      "outputs": [],
      "stateMutability": "nonpayable",
      "type": "function"
    },
    {
      "inputs": [
        {
          "internalType": "uint256",
          "name": "_busdAmount",
          "type": "uint256"
        }
      ],
      "name": "swap",
      "outputs": [],
      "stateMutability": "nonpayable",
      "type": "function"
    },
    {
      "inputs": [
        {
          "internalType": "address",
          "name": "",
          "type": "address"
        }
      ],
      "name": "swapAmounts",
      "outputs": [
        {
          "internalType": "uint256",
          "name": "",
          "type": "uint256"
        }
      ],
      "stateMutability": "view",
      "type": "function"
    },
    {
      "inputs": [
        {
          "internalType": "address",
          "name": "",
          "type": "address"
        }
      ],
      "name": "swapWhitelist",
      "outputs": [
        {
          "internalType": "bool",
          "name": "",
          "type": "bool"
        }
      ],
      "stateMutability": "view",
      "type": "function"
    },
    {
      "inputs": [],
      "name": "unlockTime",
      "outputs": [
        {
          "internalType": "uint256",
          "name": "",
          "type": "uint256"
        }
      ],
      "stateMutability": "view",
      "type": "function"
    },
    {
      "inputs": [
        {
          "internalType": "address",
          "name": "prevAccount",
          "type": "address"
        },
        {
          "internalType": "address",
          "name": "nextAccount",
          "type": "address"
        }
      ],
      "name": "updateWhitelist",
      "outputs": [],
      "stateMutability": "nonpayable",
      "type": "function"
    },
    {
      "inputs": [
        {
          "internalType": "address",
          "name": "_token",
          "type": "address"
        },
        {
          "internalType": "address",
          "name": "_account",
          "type": "address"
        },
        {
          "internalType": "uint256",
          "name": "_amount",
          "type": "uint256"
        }
      ],
      "name": "withdrawToken",
      "outputs": [],
      "stateMutability": "nonpayable",
      "type": "function"
    }
  ],
  "bytecode": "0x608060405260018060016101000a81548160ff0219169083151502179055506000600160026101000a81548160ff02191690831515021790555034801561004557600080fd5b50600160008190555033600c60006101000a81548173ffffffffffffffffffffffffffffffffffffffff021916908373ffffffffffffffffffffffffffffffffffffffff1602179055506132ab8061009e6000396000f3fe608060405234801561001057600080fd5b50600436106101cf5760003560e01c80637fbbe46f11610104578063d0435961116100a2578063e8078d9411610071578063e8078d94146108e0578063f6f4f55b146108ea578063f8322d2414610908578063f887ea401461093c576101cf565b8063d04359611461083e578063dec9b19614610898578063e35bff96146108b6578063e3cb6ea3146108d6576101cf565b8063b60d4288116100de578063b60d4288146106e0578063c2333ee814610714578063c8eaf28f14610742578063cfad57a2146107fa576101cf565b80637fbbe46f1461050257806394b918de1461064e578063ab2b04cf1461067c576101cf565b8063281bd79811610171578063442bbad61161014b578063442bbad61461045057806363bd4bdf146104a857806377b4da2c146104c65780637c098091146104e4576101cf565b8063281bd79814610344578063392e53cd146103fc5780633ca5b2341461041c576101cf565b806312d43a51116101ad57806312d43a51146102a45780631e17ba39146102d857806321089a50146102f8578063251c1aa314610326576101cf565b806301e33667146101d45780630963e9fc146102425780630e21750f14610260575b600080fd5b610240600480360360608110156101ea57600080fd5b81019080803573ffffffffffffffffffffffffffffffffffffffff169060200190929190803573ffffffffffffffffffffffffffffffffffffffff16906020019092919080359060200190929190505050610970565b005b61024a610bc8565b6040518082815260200191505060405180910390f35b6102a26004803603602081101561027657600080fd5b81019080803573ffffffffffffffffffffffffffffffffffffffff169060200190929190505050610bce565b005b6102ac610d5e565b604051808273ffffffffffffffffffffffffffffffffffffffff16815260200191505060405180910390f35b6102e0610d84565b60405180821515815260200191505060405180910390f35b6103246004803603602081101561030e57600080fd5b8101908080359060200190929190505050610d97565b005b61032e610f47565b6040518082815260200191505060405180910390f35b6103fa6004803603602081101561035a57600080fd5b810190808035906020019064010000000081111561037757600080fd5b82018360208201111561038957600080fd5b803590602001918460208302840111640100000000831117156103ab57600080fd5b919080806020026020016040519081016040528093929190818152602001838360200280828437600081840152601f19601f820116905080830192505050505050509192919290505050610f4d565b005b610404611127565b60405180821515815260200191505060405180910390f35b61042461113a565b604051808273ffffffffffffffffffffffffffffffffffffffff16815260200191505060405180910390f35b6104926004803603602081101561046657600080fd5b81019080803573ffffffffffffffffffffffffffffffffffffffff169060200190929190505050611160565b6040518082815260200191505060405180910390f35b6104b0611178565b6040518082815260200191505060405180910390f35b6104ce61117e565b6040518082815260200191505060405180910390f35b6104ec611184565b6040518082815260200191505060405180910390f35b61064c6004803603604081101561051857600080fd5b810190808035906020019064010000000081111561053557600080fd5b82018360208201111561054757600080fd5b8035906020019184602083028401116401000000008311171561056957600080fd5b919080806020026020016040519081016040528093929190818152602001838360200280828437600081840152601f19601f820116905080830192505050505050509192919290803590602001906401000000008111156105c957600080fd5b8201836020820111156105db57600080fd5b803590602001918460208302840111640100000000831117156105fd57600080fd5b919080806020026020016040519081016040528093929190818152602001838360200280828437600081840152601f19601f82011690508083019250505050505050919291929050505061118a565b005b61067a6004803603602081101561066457600080fd5b81019080803590602001909291905050506114e4565b005b6106de6004803603604081101561069257600080fd5b81019080803573ffffffffffffffffffffffffffffffffffffffff169060200190929190803573ffffffffffffffffffffffffffffffffffffffff169060200190929190505050611cf3565b005b6106e8611fb2565b604051808273ffffffffffffffffffffffffffffffffffffffff16815260200191505060405180910390f35b6107406004803603602081101561072a57600080fd5b8101908080359060200190929190505050611fd8565b005b6107f86004803603602081101561075857600080fd5b810190808035906020019064010000000081111561077557600080fd5b82018360208201111561078757600080fd5b803590602001918460208302840111640100000000831117156107a957600080fd5b919080806020026020016040519081016040528093929190818152602001838360200280828437600081840152601f19601f8201169050808301925050505050505091929192905050506121a5565b005b61083c6004803603602081101561081057600080fd5b81019080803573ffffffffffffffffffffffffffffffffffffffff16906020019092919050505061237f565b005b6108806004803603602081101561085457600080fd5b81019080803573ffffffffffffffffffffffffffffffffffffffff16906020019092919050505061250f565b60405180821515815260200191505060405180910390f35b6108a061252f565b6040518082815260200191505060405180910390f35b6108be612535565b60405180821515815260200191505060405180910390f35b6108de612546565b005b6108e86126ae565b005b6108f2612e52565b6040518082815260200191505060405180910390f35b610910612e58565b604051808273ffffffffffffffffffffffffffffffffffffffff16815260200191505060405180910390f35b610944612e7e565b604051808273ffffffffffffffffffffffffffffffffffffffff16815260200191505060405180910390f35b600c60009054906101000a900473ffffffffffffffffffffffffffffffffffffffff1673ffffffffffffffffffffffffffffffffffffffff163373ffffffffffffffffffffffffffffffffffffffff1614610a33576040517f08c379a00000000000000000000000000000000000000000000000000000000081526004018080602001828103825260138152602001807f54726561737572793a20666f7262696464656e0000000000000000000000000081525060200191505060405180910390fd5b60026000541415610aac576040517f08c379a000000000000000000000000000000000000000000000000000000000815260040180806020018281038252601f8152602001807f5265656e7472616e637947756172643a207265656e7472616e742063616c6c0081525060200191505060405180910390fd5b6002600081905550600a544211610b0e576040517f08c379a00000000000000000000000000000000000000000000000000000000081526004018080602001828103825260238152602001806132326023913960400191505060405180910390fd5b8273ffffffffffffffffffffffffffffffffffffffff1663a9059cbb83836040518363ffffffff1660e01b8152600401808373ffffffffffffffffffffffffffffffffffffffff16815260200182815260200192505050602060405180830381600087803b158015610b7f57600080fd5b505af1158015610b93573d6000803e3d6000fd5b505050506040513d6020811015610ba957600080fd5b8101908080519060200190929190505050506001600081905550505050565b60065481565b600c60009054906101000a900473ffffffffffffffffffffffffffffffffffffffff1673ffffffffffffffffffffffffffffffffffffffff163373ffffffffffffffffffffffffffffffffffffffff1614610c91576040517f08c379a00000000000000000000000000000000000000000000000000000000081526004018080602001828103825260138152602001807f54726561737572793a20666f7262696464656e0000000000000000000000000081525060200191505060405180910390fd5b60026000541415610d0a576040517f08c379a000000000000000000000000000000000000000000000000000000000815260040180806020018281038252601f8152602001807f5265656e7472616e637947756172643a207265656e7472616e742063616c6c0081525060200191505060405180910390fd5b600260008190555080600460006101000a81548173ffffffffffffffffffffffffffffffffffffffff021916908373ffffffffffffffffffffffffffffffffffffffff160217905550600160008190555050565b600c60009054906101000a900473ffffffffffffffffffffffffffffffffffffffff1681565b600160029054906101000a900460ff1681565b600c60009054906101000a900473ffffffffffffffffffffffffffffffffffffffff1673ffffffffffffffffffffffffffffffffffffffff163373ffffffffffffffffffffffffffffffffffffffff1614610e5a576040517f08c379a00000000000000000000000000000000000000000000000000000000081526004018080602001828103825260138152602001807f54726561737572793a20666f7262696464656e0000000000000000000000000081525060200191505060405180910390fd5b60026000541415610ed3576040517f08c379a000000000000000000000000000000000000000000000000000000000815260040180806020018281038252601f8152602001807f5265656e7472616e637947756172643a207265656e7472616e742063616c6c0081525060200191505060405180910390fd5b60026000819055506009548111610f35576040517f08c379a00000000000000000000000000000000000000000000000000000000081526004018080602001828103825260228152602001806131cd6022913960400191505060405180910390fd5b80600981905550600160008190555050565b600a5481565b600c60009054906101000a900473ffffffffffffffffffffffffffffffffffffffff1673ffffffffffffffffffffffffffffffffffffffff163373ffffffffffffffffffffffffffffffffffffffff1614611010576040517f08c379a00000000000000000000000000000000000000000000000000000000081526004018080602001828103825260138152602001807f54726561737572793a20666f7262696464656e0000000000000000000000000081525060200191505060405180910390fd5b60026000541415611089576040517f08c379a000000000000000000000000000000000000000000000000000000000815260040180806020018281038252601f8152602001807f5265656e7472616e637947756172643a207265656e7472616e742063616c6c0081525060200191505060405180910390fd5b600260008190555060005b815181101561111b5760008282815181106110ab57fe5b602002602001015190506000600e60008373ffffffffffffffffffffffffffffffffffffffff1673ffffffffffffffffffffffffffffffffffffffff16815260200190815260200160002060006101000a81548160ff021916908315150217905550508080600101915050611094565b50600160008190555050565b600160009054906101000a900460ff1681565b600260009054906101000a900473ffffffffffffffffffffffffffffffffffffffff1681565b600d6020528060005260406000206000915090505481565b60085481565b60095481565b60055481565b600c60009054906101000a900473ffffffffffffffffffffffffffffffffffffffff1673ffffffffffffffffffffffffffffffffffffffff163373ffffffffffffffffffffffffffffffffffffffff161461124d576040517f08c379a00000000000000000000000000000000000000000000000000000000081526004018080602001828103825260138152602001807f54726561737572793a20666f7262696464656e0000000000000000000000000081525060200191505060405180910390fd5b600160009054906101000a900460ff16156112d0576040517f08c379a000000000000000000000000000000000000000000000000000000000815260040180806020018281038252601d8152602001807f54726561737572793a20616c726561647920696e697469616c697a656400000081525060200191505060405180910390fd5b60018060006101000a81548160ff021916908315150217905550816000815181106112f757fe5b6020026020010151600160036101000a81548173ffffffffffffffffffffffffffffffffffffffff021916908373ffffffffffffffffffffffffffffffffffffffff1602179055508160018151811061134c57fe5b6020026020010151600260006101000a81548173ffffffffffffffffffffffffffffffffffffffff021916908373ffffffffffffffffffffffffffffffffffffffff160217905550816002815181106113a157fe5b6020026020010151600360006101000a81548173ffffffffffffffffffffffffffffffffffffffff021916908373ffffffffffffffffffffffffffffffffffffffff160217905550816003815181106113f657fe5b6020026020010151600460006101000a81548173ffffffffffffffffffffffffffffffffffffffff021916908373ffffffffffffffffffffffffffffffffffffffff1602179055508060008151811061144b57fe5b60200260200101516005819055508060018151811061146657fe5b60200260200101516006819055508060028151811061148157fe5b60200260200101516007819055508060038151811061149c57fe5b6020026020010151600881905550806004815181106114b757fe5b6020026020010151600981905550806005815181106114d257fe5b6020026020010151600a819055505050565b6002600054141561155d576040517f08c379a000000000000000000000000000000000000000000000000000000000815260040180806020018281038252601f8152602001807f5265656e7472616e637947756172643a207265656e7472616e742063616c6c0081525060200191505060405180910390fd5b60026000819055506000339050600e60008273ffffffffffffffffffffffffffffffffffffffff1673ffffffffffffffffffffffffffffffffffffffff16815260200190815260200160002060009054906101000a900460ff16611629576040517f08c379a00000000000000000000000000000000000000000000000000000000081526004018080602001828103825260138152602001807f54726561737572793a20666f7262696464656e0000000000000000000000000081525060200191505060405180910390fd5b60018054906101000a900460ff1661168c576040517f08c379a00000000000000000000000000000000000000000000000000000000081526004018080602001828103825260228152602001806131ef6022913960400191505060405180910390fd5b60008211611702576040517f08c379a000000000000000000000000000000000000000000000000000000000815260040180806020018281038252601d8152602001807f54726561737572793a20696e76616c6964205f62757364416d6f756e7400000081525060200191505060405180910390fd5b61171782600b54612ea490919063ffffffff16565b600b81905550600854600b541115611797576040517f08c379a000000000000000000000000000000000000000000000000000000000815260040180806020018281038252601e8152602001807f54726561737572793a206275736448617264436170206578636565646564000081525060200191505060405180910390fd5b6117e982600d60008473ffffffffffffffffffffffffffffffffffffffff1673ffffffffffffffffffffffffffffffffffffffff16815260200190815260200160002054612ea490919063ffffffff16565b600d60008373ffffffffffffffffffffffffffffffffffffffff1673ffffffffffffffffffffffffffffffffffffffff16815260200190815260200160002081905550600754600d60008373ffffffffffffffffffffffffffffffffffffffff1673ffffffffffffffffffffffffffffffffffffffff1681526020019081526020016000205411156118e3576040517f08c379a000000000000000000000000000000000000000000000000000000000815260040180806020018281038252601e8152602001807f54726561737572793a2062757364536c6f74436170206578636565646564000081525060200191505060405180910390fd5b6000600260009054906101000a900473ffffffffffffffffffffffffffffffffffffffff1673ffffffffffffffffffffffffffffffffffffffff166370a08231306040518263ffffffff1660e01b8152600401808273ffffffffffffffffffffffffffffffffffffffff16815260200191505060206040518083038186803b15801561196e57600080fd5b505afa158015611982573d6000803e3d6000fd5b505050506040513d602081101561199857600080fd5b81019080805190602001909291905050509050600260009054906101000a900473ffffffffffffffffffffffffffffffffffffffff1673ffffffffffffffffffffffffffffffffffffffff166323b872dd8330866040518463ffffffff1660e01b8152600401808473ffffffffffffffffffffffffffffffffffffffff1681526020018373ffffffffffffffffffffffffffffffffffffffff1681526020018281526020019350505050602060405180830381600087803b158015611a5c57600080fd5b505af1158015611a70573d6000803e3d6000fd5b505050506040513d6020811015611a8657600080fd5b8101908080519060200190929190505050506000600260009054906101000a900473ffffffffffffffffffffffffffffffffffffffff1673ffffffffffffffffffffffffffffffffffffffff166370a08231306040518263ffffffff1660e01b8152600401808273ffffffffffffffffffffffffffffffffffffffff16815260200191505060206040518083038186803b158015611b2357600080fd5b505afa158015611b37573d6000803e3d6000fd5b505050506040513d6020811015611b4d57600080fd5b8101908080519060200190929190505050905083611b748383612f2c90919063ffffffff16565b14611be7576040517f08c379a000000000000000000000000000000000000000000000000000000000815260040180806020018281038252601a8152602001807f54726561737572793a20696e76616c6964207472616e7366657200000000000081525060200191505060405180910390fd5b6000611c13600554611c05620f424088612f7690919063ffffffff16565b612ffc90919063ffffffff16565b9050600160039054906101000a900473ffffffffffffffffffffffffffffffffffffffff1673ffffffffffffffffffffffffffffffffffffffff1663a9059cbb85836040518363ffffffff1660e01b8152600401808373ffffffffffffffffffffffffffffffffffffffff16815260200182815260200192505050602060405180830381600087803b158015611ca857600080fd5b505af1158015611cbc573d6000803e3d6000fd5b505050506040513d6020811015611cd257600080fd5b81019080805190602001909291905050505050505050600160008190555050565b600c60009054906101000a900473ffffffffffffffffffffffffffffffffffffffff1673ffffffffffffffffffffffffffffffffffffffff163373ffffffffffffffffffffffffffffffffffffffff1614611db6576040517f08c379a00000000000000000000000000000000000000000000000000000000081526004018080602001828103825260138152602001807f54726561737572793a20666f7262696464656e0000000000000000000000000081525060200191505060405180910390fd5b60026000541415611e2f576040517f08c379a000000000000000000000000000000000000000000000000000000000815260040180806020018281038252601f8152602001807f5265656e7472616e637947756172643a207265656e7472616e742063616c6c0081525060200191505060405180910390fd5b6002600081905550600e60008373ffffffffffffffffffffffffffffffffffffffff1673ffffffffffffffffffffffffffffffffffffffff16815260200190815260200160002060009054906101000a900460ff16611ef6576040517f08c379a000000000000000000000000000000000000000000000000000000000815260040180806020018281038252601d8152602001807f54726561737572793a20696e76616c696420707265764163636f756e7400000081525060200191505060405180910390fd5b6000600e60008473ffffffffffffffffffffffffffffffffffffffff1673ffffffffffffffffffffffffffffffffffffffff16815260200190815260200160002060006101000a81548160ff0219169083151502179055506001600e60008373ffffffffffffffffffffffffffffffffffffffff1673ffffffffffffffffffffffffffffffffffffffff16815260200190815260200160002060006101000a81548160ff02191690831515021790555060016000819055505050565b600460009054906101000a900473ffffffffffffffffffffffffffffffffffffffff1681565b600c60009054906101000a900473ffffffffffffffffffffffffffffffffffffffff1673ffffffffffffffffffffffffffffffffffffffff163373ffffffffffffffffffffffffffffffffffffffff161461209b576040517f08c379a00000000000000000000000000000000000000000000000000000000081526004018080602001828103825260138152602001807f54726561737572793a20666f7262696464656e0000000000000000000000000081525060200191505060405180910390fd5b60026000541415612114576040517f08c379a000000000000000000000000000000000000000000000000000000000815260040180806020018281038252601f8152602001807f5265656e7472616e637947756172643a207265656e7472616e742063616c6c0081525060200191505060405180910390fd5b6002600081905550600a548111612193576040517f08c379a000000000000000000000000000000000000000000000000000000000815260040180806020018281038252601d8152602001807f54726561737572793a20696e76616c6964205f756e6c6f636b54696d6500000081525060200191505060405180910390fd5b80600a81905550600160008190555050565b600c60009054906101000a900473ffffffffffffffffffffffffffffffffffffffff1673ffffffffffffffffffffffffffffffffffffffff163373ffffffffffffffffffffffffffffffffffffffff1614612268576040517f08c379a00000000000000000000000000000000000000000000000000000000081526004018080602001828103825260138152602001807f54726561737572793a20666f7262696464656e0000000000000000000000000081525060200191505060405180910390fd5b600260005414156122e1576040517f08c379a000000000000000000000000000000000000000000000000000000000815260040180806020018281038252601f8152602001807f5265656e7472616e637947756172643a207265656e7472616e742063616c6c0081525060200191505060405180910390fd5b600260008190555060005b815181101561237357600082828151811061230357fe5b602002602001015190506001600e60008373ffffffffffffffffffffffffffffffffffffffff1673ffffffffffffffffffffffffffffffffffffffff16815260200190815260200160002060006101000a81548160ff0219169083151502179055505080806001019150506122ec565b50600160008190555050565b600c60009054906101000a900473ffffffffffffffffffffffffffffffffffffffff1673ffffffffffffffffffffffffffffffffffffffff163373ffffffffffffffffffffffffffffffffffffffff1614612442576040517f08c379a00000000000000000000000000000000000000000000000000000000081526004018080602001828103825260138152602001807f54726561737572793a20666f7262696464656e0000000000000000000000000081525060200191505060405180910390fd5b600260005414156124bb576040517f08c379a000000000000000000000000000000000000000000000000000000000815260040180806020018281038252601f8152602001807f5265656e7472616e637947756172643a207265656e7472616e742063616c6c0081525060200191505060405180910390fd5b600260008190555080600c60006101000a81548173ffffffffffffffffffffffffffffffffffffffff021916908373ffffffffffffffffffffffffffffffffffffffff160217905550600160008190555050565b600e6020528060005260406000206000915054906101000a900460ff1681565b60075481565b60018054906101000a900460ff1681565b600c60009054906101000a900473ffffffffffffffffffffffffffffffffffffffff1673ffffffffffffffffffffffffffffffffffffffff163373ffffffffffffffffffffffffffffffffffffffff1614612609576040517f08c379a00000000000000000000000000000000000000000000000000000000081526004018080602001828103825260138152602001807f54726561737572793a20666f7262696464656e0000000000000000000000000081525060200191505060405180910390fd5b60026000541415612682576040517f08c379a000000000000000000000000000000000000000000000000000000000815260040180806020018281038252601f8152602001807f5265656e7472616e637947756172643a207265656e7472616e742063616c6c0081525060200191505060405180910390fd5b600260008190555060006001806101000a81548160ff0219169083151502179055506001600081905550565b600c60009054906101000a900473ffffffffffffffffffffffffffffffffffffffff1673ffffffffffffffffffffffffffffffffffffffff163373ffffffffffffffffffffffffffffffffffffffff1614612771576040517f08c379a00000000000000000000000000000000000000000000000000000000081526004018080602001828103825260138152602001807f54726561737572793a20666f7262696464656e0000000000000000000000000081525060200191505060405180910390fd5b600260005414156127ea576040517f08c379a000000000000000000000000000000000000000000000000000000000815260040180806020018281038252601f8152602001807f5265656e7472616e637947756172643a207265656e7472616e742063616c6c0081525060200191505060405180910390fd5b6002600081905550600160029054906101000a900460ff1615612858576040517f08c379a00000000000000000000000000000000000000000000000000000000081526004018080602001828103825260218152602001806132556021913960400191505060405180910390fd5b60018060026101000a81548160ff021916908315150217905550600061289f612710612891600954600b54612f7690919063ffffffff16565b612ffc90919063ffffffff16565b905060006128cd6006546128bf620f424085612f7690919063ffffffff16565b612ffc90919063ffffffff16565b9050600260009054906101000a900473ffffffffffffffffffffffffffffffffffffffff1673ffffffffffffffffffffffffffffffffffffffff1663095ea7b3600360009054906101000a900473ffffffffffffffffffffffffffffffffffffffff16846040518363ffffffff1660e01b8152600401808373ffffffffffffffffffffffffffffffffffffffff16815260200182815260200192505050602060405180830381600087803b15801561298457600080fd5b505af1158015612998573d6000803e3d6000fd5b505050506040513d60208110156129ae57600080fd5b810190808051906020019092919050505050600160039054906101000a900473ffffffffffffffffffffffffffffffffffffffff1673ffffffffffffffffffffffffffffffffffffffff1663095ea7b3600360009054906101000a900473ffffffffffffffffffffffffffffffffffffffff16836040518363ffffffff1660e01b8152600401808373ffffffffffffffffffffffffffffffffffffffff16815260200182815260200192505050602060405180830381600087803b158015612a7557600080fd5b505af1158015612a89573d6000803e3d6000fd5b505050506040513d6020811015612a9f57600080fd5b810190808051906020019092919050505050600160039054906101000a900473ffffffffffffffffffffffffffffffffffffffff1673ffffffffffffffffffffffffffffffffffffffff16636c525d046040518163ffffffff1660e01b8152600401600060405180830381600087803b158015612b1b57600080fd5b505af1158015612b2f573d6000803e3d6000fd5b50505050600360009054906101000a900473ffffffffffffffffffffffffffffffffffffffff1673ffffffffffffffffffffffffffffffffffffffff1663e8e33700600260009054906101000a900473ffffffffffffffffffffffffffffffffffffffff16600160039054906101000a900473ffffffffffffffffffffffffffffffffffffffff16858560008030426040518963ffffffff1660e01b8152600401808973ffffffffffffffffffffffffffffffffffffffff1681526020018873ffffffffffffffffffffffffffffffffffffffff1681526020018781526020018681526020018581526020018481526020018373ffffffffffffffffffffffffffffffffffffffff16815260200182815260200198505050505050505050606060405180830381600087803b158015612c6757600080fd5b505af1158015612c7b573d6000803e3d6000fd5b505050506040513d6060811015612c9157600080fd5b81019080805190602001909291908051906020019092919080519060200190929190505050505050600160039054906101000a900473ffffffffffffffffffffffffffffffffffffffff1673ffffffffffffffffffffffffffffffffffffffff1663fe0194f26040518163ffffffff1660e01b8152600401600060405180830381600087803b158015612d2357600080fd5b505af1158015612d37573d6000803e3d6000fd5b505050506000612d5283600b54612f2c90919063ffffffff16565b9050600260009054906101000a900473ffffffffffffffffffffffffffffffffffffffff1673ffffffffffffffffffffffffffffffffffffffff1663a9059cbb600460009054906101000a900473ffffffffffffffffffffffffffffffffffffffff16836040518363ffffffff1660e01b8152600401808373ffffffffffffffffffffffffffffffffffffffff16815260200182815260200192505050602060405180830381600087803b158015612e0957600080fd5b505af1158015612e1d573d6000803e3d6000fd5b505050506040513d6020811015612e3357600080fd5b8101908080519060200190929190505050505050506001600081905550565b600b5481565b600160039054906101000a900473ffffffffffffffffffffffffffffffffffffffff1681565b600360009054906101000a900473ffffffffffffffffffffffffffffffffffffffff1681565b600080828401905083811015612f22576040517f08c379a000000000000000000000000000000000000000000000000000000000815260040180806020018281038252601b8152602001807f536166654d6174683a206164646974696f6e206f766572666c6f77000000000081525060200191505060405180910390fd5b8091505092915050565b6000612f6e83836040518060400160405280601e81526020017f536166654d6174683a207375627472616374696f6e206f766572666c6f770000815250613046565b905092915050565b600080831415612f895760009050612ff6565b6000828402905082848281612f9a57fe5b0414612ff1576040517f08c379a00000000000000000000000000000000000000000000000000000000081526004018080602001828103825260218152602001806132116021913960400191505060405180910390fd5b809150505b92915050565b600061303e83836040518060400160405280601a81526020017f536166654d6174683a206469766973696f6e206279207a65726f000000000000815250613106565b905092915050565b60008383111582906130f3576040517f08c379a00000000000000000000000000000000000000000000000000000000081526004018080602001828103825283818151815260200191508051906020019080838360005b838110156130b857808201518184015260208101905061309d565b50505050905090810190601f1680156130e55780820380516001836020036101000a031916815260200191505b509250505060405180910390fd5b5060008385039050809150509392505050565b600080831182906131b2576040517f08c379a00000000000000000000000000000000000000000000000000000000081526004018080602001828103825283818151815260200191508051906020019080838360005b8381101561317757808201518184015260208101905061315c565b50505050905090810190601f1680156131a45780820380516001836020036101000a031916815260200191505b509250505060405180910390fd5b5060008385816131be57fe5b04905080915050939250505056fe54726561737572793a20696e76616c6964205f627573644261736973506f696e747354726561737572793a2073776170206973206e6f206c6f6e67657220616374697665536166654d6174683a206d756c7469706c69636174696f6e206f766572666c6f7754726561737572793a20756e6c6f636b54696d65206e6f74207965742070617373656454726561737572793a206c697175696469747920616c7265616479206164646564a26469706673582212203cdad883f3209495932be1917e2c4b1f840ee2d6a76acbee3455c4644b79dce064736f6c634300060c0033",
  "linkReferences": {},
  "deployedLinkReferences": {}
}