{
  "_format": "hh-sol-artifact-1",
  "contractName": "Vault",
  "sourceName": "contracts/gmx/core/Vault.sol",
  "abi": [
    {
      "inputs": [],
      "stateMutability": "nonpayable",
      "type": "constructor"
    },
    {
      "anonymous": false,
      "inputs": [
        {
          "indexed": false,
          "internalType": "address",
          "name": "account",
          "type": "address"
        },
        {
          "indexed": false,
          "internalType": "address",
          "name": "token",
          "type": "address"
        },
        {
          "indexed": false,
          "internalType": "uint256",
          "name": "tokenAmount",
          "type": "uint256"
        },
        {
          "indexed": false,
          "internalType": "uint256",
          "name": "usdgAmount",
          "type": "uint256"
        },
        {
          "indexed": false,
          "internalType": "uint256",
          "name": "feeBasisPoints",
          "type": "uint256"
        }
      ],
      "name": "BuyUSDG",
      "type": "event"
    },
    {
      "anonymous": false,
      "inputs": [
        {
          "indexed": false,
          "internalType": "bytes32",
          "name": "key",
          "type": "bytes32"
        },
        {
          "indexed": false,
          "internalType": "uint256",
          "name": "size",
          "type": "uint256"
        },
        {
          "indexed": false,
          "internalType": "uint256",
          "name": "collateral",
          "type": "uint256"
        },
        {
          "indexed": false,
          "internalType": "uint256",
          "name": "averagePrice",
          "type": "uint256"
        },
        {
          "indexed": false,
          "internalType": "uint256",
          "name": "entryFundingRate",
          "type": "uint256"
        },
        {
          "indexed": false,
          "internalType": "uint256",
          "name": "reserveAmount",
          "type": "uint256"
        },
        {
          "indexed": false,
          "internalType": "int256",
          "name": "realisedPnl",
          "type": "int256"
        }
      ],
      "name": "ClosePosition",
      "type": "event"
    },
    {
      "anonymous": false,
      "inputs": [
        {
          "indexed": false,
          "internalType": "address",
          "name": "token",
          "type": "address"
        },
        {
          "indexed": false,
          "internalType": "uint256",
          "name": "feeUsd",
          "type": "uint256"
        },
        {
          "indexed": false,
          "internalType": "uint256",
          "name": "feeTokens",
          "type": "uint256"
        }
      ],
      "name": "CollectMarginFees",
      "type": "event"
    },
    {
      "anonymous": false,
      "inputs": [
        {
          "indexed": false,
          "internalType": "address",
          "name": "token",
          "type": "address"
        },
        {
          "indexed": false,
          "internalType": "uint256",
          "name": "feeUsd",
          "type": "uint256"
        },
        {
          "indexed": false,
          "internalType": "uint256",
          "name": "feeTokens",
          "type": "uint256"
        }
      ],
      "name": "CollectSwapFees",
      "type": "event"
    },
    {
      "anonymous": false,
      "inputs": [
        {
          "indexed": false,
          "internalType": "address",
          "name": "token",
          "type": "address"
        },
        {
          "indexed": false,
          "internalType": "uint256",
          "name": "amount",
          "type": "uint256"
        }
      ],
      "name": "DecreaseGuaranteedUsd",
      "type": "event"
    },
    {
      "anonymous": false,
      "inputs": [
        {
          "indexed": false,
          "internalType": "address",
          "name": "token",
          "type": "address"
        },
        {
          "indexed": false,
          "internalType": "uint256",
          "name": "amount",
          "type": "uint256"
        }
      ],
      "name": "DecreasePoolAmount",
      "type": "event"
    },
    {
      "anonymous": false,
      "inputs": [
        {
          "indexed": false,
          "internalType": "bytes32",
          "name": "key",
          "type": "bytes32"
        },
        {
          "indexed": false,
          "internalType": "address",
          "name": "account",
          "type": "address"
        },
        {
          "indexed": false,
          "internalType": "address",
          "name": "collateralToken",
          "type": "address"
        },
        {
          "indexed": false,
          "internalType": "address",
          "name": "indexToken",
          "type": "address"
        },
        {
          "indexed": false,
          "internalType": "uint256",
          "name": "collateralDelta",
          "type": "uint256"
        },
        {
          "indexed": false,
          "internalType": "uint256",
          "name": "sizeDelta",
          "type": "uint256"
        },
        {
          "indexed": false,
          "internalType": "bool",
          "name": "isLong",
          "type": "bool"
        },
        {
          "indexed": false,
          "internalType": "uint256",
          "name": "price",
          "type": "uint256"
        },
        {
          "indexed": false,
          "internalType": "uint256",
          "name": "fee",
          "type": "uint256"
        }
      ],
      "name": "DecreasePosition",
      "type": "event"
    },
    {
      "anonymous": false,
      "inputs": [
        {
          "indexed": false,
          "internalType": "address",
          "name": "token",
          "type": "address"
        },
        {
          "indexed": false,
          "internalType": "uint256",
          "name": "amount",
          "type": "uint256"
        }
      ],
      "name": "DecreaseReservedAmount",
      "type": "event"
    },
    {
      "anonymous": false,
      "inputs": [
        {
          "indexed": false,
          "internalType": "address",
          "name": "token",
          "type": "address"
        },
        {
          "indexed": false,
          "internalType": "uint256",
          "name": "amount",
          "type": "uint256"
        }
      ],
      "name": "DecreaseUsdgAmount",
      "type": "event"
    },
    {
      "anonymous": false,
      "inputs": [
        {
          "indexed": false,
          "internalType": "address",
          "name": "token",
          "type": "address"
        },
        {
          "indexed": false,
          "internalType": "uint256",
          "name": "amount",
          "type": "uint256"
        }
      ],
      "name": "DirectPoolDeposit",
      "type": "event"
    },
    {
      "anonymous": false,
      "inputs": [
        {
          "indexed": false,
          "internalType": "address",
          "name": "token",
          "type": "address"
        },
        {
          "indexed": false,
          "internalType": "uint256",
          "name": "amount",
          "type": "uint256"
        }
      ],
      "name": "IncreaseGuaranteedUsd",
      "type": "event"
    },
    {
      "anonymous": false,
      "inputs": [
        {
          "indexed": false,
          "internalType": "address",
          "name": "token",
          "type": "address"
        },
        {
          "indexed": false,
          "internalType": "uint256",
          "name": "amount",
          "type": "uint256"
        }
      ],
      "name": "IncreasePoolAmount",
      "type": "event"
    },
    {
      "anonymous": false,
      "inputs": [
        {
          "indexed": false,
          "internalType": "bytes32",
          "name": "key",
          "type": "bytes32"
        },
        {
          "indexed": false,
          "internalType": "address",
          "name": "account",
          "type": "address"
        },
        {
          "indexed": false,
          "internalType": "address",
          "name": "collateralToken",
          "type": "address"
        },
        {
          "indexed": false,
          "internalType": "address",
          "name": "indexToken",
          "type": "address"
        },
        {
          "indexed": false,
          "internalType": "uint256",
          "name": "collateralDelta",
          "type": "uint256"
        },
        {
          "indexed": false,
          "internalType": "uint256",
          "name": "sizeDelta",
          "type": "uint256"
        },
        {
          "indexed": false,
          "internalType": "bool",
          "name": "isLong",
          "type": "bool"
        },
        {
          "indexed": false,
          "internalType": "uint256",
          "name": "price",
          "type": "uint256"
        },
        {
          "indexed": false,
          "internalType": "uint256",
          "name": "fee",
          "type": "uint256"
        }
      ],
      "name": "IncreasePosition",
      "type": "event"
    },
    {
      "anonymous": false,
      "inputs": [
        {
          "indexed": false,
          "internalType": "address",
          "name": "token",
          "type": "address"
        },
        {
          "indexed": false,
          "internalType": "uint256",
          "name": "amount",
          "type": "uint256"
        }
      ],
      "name": "IncreaseReservedAmount",
      "type": "event"
    },
    {
      "anonymous": false,
      "inputs": [
        {
          "indexed": false,
          "internalType": "address",
          "name": "token",
          "type": "address"
        },
        {
          "indexed": false,
          "internalType": "uint256",
          "name": "amount",
          "type": "uint256"
        }
      ],
      "name": "IncreaseUsdgAmount",
      "type": "event"
    },
    {
      "anonymous": false,
      "inputs": [
        {
          "indexed": false,
          "internalType": "bytes32",
          "name": "key",
          "type": "bytes32"
        },
        {
          "indexed": false,
          "internalType": "address",
          "name": "account",
          "type": "address"
        },
        {
          "indexed": false,
          "internalType": "address",
          "name": "collateralToken",
          "type": "address"
        },
        {
          "indexed": false,
          "internalType": "address",
          "name": "indexToken",
          "type": "address"
        },
        {
          "indexed": false,
          "internalType": "bool",
          "name": "isLong",
          "type": "bool"
        },
        {
          "indexed": false,
          "internalType": "uint256",
          "name": "size",
          "type": "uint256"
        },
        {
          "indexed": false,
          "internalType": "uint256",
          "name": "collateral",
          "type": "uint256"
        },
        {
          "indexed": false,
          "internalType": "uint256",
          "name": "reserveAmount",
          "type": "uint256"
        },
        {
          "indexed": false,
          "internalType": "int256",
          "name": "realisedPnl",
          "type": "int256"
        },
        {
          "indexed": false,
          "internalType": "uint256",
          "name": "markPrice",
          "type": "uint256"
        }
      ],
      "name": "LiquidatePosition",
      "type": "event"
    },
    {
      "anonymous": false,
      "inputs": [
        {
          "indexed": false,
          "internalType": "address",
          "name": "account",
          "type": "address"
        },
        {
          "indexed": false,
          "internalType": "address",
          "name": "token",
          "type": "address"
        },
        {
          "indexed": false,
          "internalType": "uint256",
          "name": "usdgAmount",
          "type": "uint256"
        },
        {
          "indexed": false,
          "internalType": "uint256",
          "name": "tokenAmount",
          "type": "uint256"
        },
        {
          "indexed": false,
          "internalType": "uint256",
          "name": "feeBasisPoints",
          "type": "uint256"
        }
      ],
      "name": "SellUSDG",
      "type": "event"
    },
    {
      "anonymous": false,
      "inputs": [
        {
          "indexed": false,
          "internalType": "address",
          "name": "account",
          "type": "address"
        },
        {
          "indexed": false,
          "internalType": "address",
          "name": "tokenIn",
          "type": "address"
        },
        {
          "indexed": false,
          "internalType": "address",
          "name": "tokenOut",
          "type": "address"
        },
        {
          "indexed": false,
          "internalType": "uint256",
          "name": "amountIn",
          "type": "uint256"
        },
        {
          "indexed": false,
          "internalType": "uint256",
          "name": "amountOut",
          "type": "uint256"
        },
        {
          "indexed": false,
          "internalType": "uint256",
          "name": "amountOutAfterFees",
          "type": "uint256"
        },
        {
          "indexed": false,
          "internalType": "uint256",
          "name": "feeBasisPoints",
          "type": "uint256"
        }
      ],
      "name": "Swap",
      "type": "event"
    },
    {
      "anonymous": false,
      "inputs": [
        {
          "indexed": false,
          "internalType": "address",
          "name": "token",
          "type": "address"
        },
        {
          "indexed": false,
          "internalType": "uint256",
          "name": "fundingRate",
          "type": "uint256"
        }
      ],
      "name": "UpdateFundingRate",
      "type": "event"
    },
    {
      "anonymous": false,
      "inputs": [
        {
          "indexed": false,
          "internalType": "bytes32",
          "name": "key",
          "type": "bytes32"
        },
        {
          "indexed": false,
          "internalType": "bool",
          "name": "hasProfit",
          "type": "bool"
        },
        {
          "indexed": false,
          "internalType": "uint256",
          "name": "delta",
          "type": "uint256"
        }
      ],
      "name": "UpdatePnl",
      "type": "event"
    },
    {
      "anonymous": false,
      "inputs": [
        {
          "indexed": false,
          "internalType": "bytes32",
          "name": "key",
          "type": "bytes32"
        },
        {
          "indexed": false,
          "internalType": "uint256",
          "name": "size",
          "type": "uint256"
        },
        {
          "indexed": false,
          "internalType": "uint256",
          "name": "collateral",
          "type": "uint256"
        },
        {
          "indexed": false,
          "internalType": "uint256",
          "name": "averagePrice",
          "type": "uint256"
        },
        {
          "indexed": false,
          "internalType": "uint256",
          "name": "entryFundingRate",
          "type": "uint256"
        },
        {
          "indexed": false,
          "internalType": "uint256",
          "name": "reserveAmount",
          "type": "uint256"
        },
        {
          "indexed": false,
          "internalType": "int256",
          "name": "realisedPnl",
          "type": "int256"
        },
        {
          "indexed": false,
          "internalType": "uint256",
          "name": "markPrice",
          "type": "uint256"
        }
      ],
      "name": "UpdatePosition",
      "type": "event"
    },
    {
      "inputs": [],
      "name": "BASIS_POINTS_DIVISOR",
      "outputs": [
        {
          "internalType": "uint256",
          "name": "",
          "type": "uint256"
        }
      ],
      "stateMutability": "view",
      "type": "function"
    },
    {
      "inputs": [],
      "name": "FUNDING_RATE_PRECISION",
      "outputs": [
        {
          "internalType": "uint256",
          "name": "",
          "type": "uint256"
        }
      ],
      "stateMutability": "view",
      "type": "function"
    },
    {
      "inputs": [],
      "name": "MAX_FEE_BASIS_POINTS",
      "outputs": [
        {
          "internalType": "uint256",
          "name": "",
          "type": "uint256"
        }
      ],
      "stateMutability": "view",
      "type": "function"
    },
    {
      "inputs": [],
      "name": "MAX_FUNDING_RATE_FACTOR",
      "outputs": [
        {
          "internalType": "uint256",
          "name": "",
          "type": "uint256"
        }
      ],
      "stateMutability": "view",
      "type": "function"
    },
    {
      "inputs": [],
      "name": "MAX_LIQUIDATION_FEE_USD",
      "outputs": [
        {
          "internalType": "uint256",
          "name": "",
          "type": "uint256"
        }
      ],
      "stateMutability": "view",
      "type": "function"
    },
    {
      "inputs": [],
      "name": "MIN_FUNDING_RATE_INTERVAL",
      "outputs": [
        {
          "internalType": "uint256",
          "name": "",
          "type": "uint256"
        }
      ],
      "stateMutability": "view",
      "type": "function"
    },
    {
      "inputs": [],
      "name": "MIN_LEVERAGE",
      "outputs": [
        {
          "internalType": "uint256",
          "name": "",
          "type": "uint256"
        }
      ],
      "stateMutability": "view",
      "type": "function"
    },
    {
      "inputs": [],
      "name": "PRICE_PRECISION",
      "outputs": [
        {
          "internalType": "uint256",
          "name": "",
          "type": "uint256"
        }
      ],
      "stateMutability": "view",
      "type": "function"
    },
    {
      "inputs": [],
      "name": "USDG_DECIMALS",
      "outputs": [
        {
          "internalType": "uint256",
          "name": "",
          "type": "uint256"
        }
      ],
      "stateMutability": "view",
      "type": "function"
    },
    {
      "inputs": [
        {
          "internalType": "address",
          "name": "_router",
          "type": "address"
        }
      ],
      "name": "addRouter",
      "outputs": [],
      "stateMutability": "nonpayable",
      "type": "function"
    },
    {
      "inputs": [
        {
          "internalType": "uint256",
          "name": "_amount",
          "type": "uint256"
        },
        {
          "internalType": "address",
          "name": "_tokenDiv",
          "type": "address"
        },
        {
          "internalType": "address",
          "name": "_tokenMul",
          "type": "address"
        }
      ],
      "name": "adjustForDecimals",
      "outputs": [
        {
          "internalType": "uint256",
          "name": "",
          "type": "uint256"
        }
      ],
      "stateMutability": "view",
      "type": "function"
    },
    {
      "inputs": [
        {
          "internalType": "uint256",
          "name": "",
          "type": "uint256"
        }
      ],
      "name": "allWhitelistedTokens",
      "outputs": [
        {
          "internalType": "address",
          "name": "",
          "type": "address"
        }
      ],
      "stateMutability": "view",
      "type": "function"
    },
    {
      "inputs": [],
      "name": "allWhitelistedTokensLength",
      "outputs": [
        {
          "internalType": "uint256",
          "name": "",
          "type": "uint256"
        }
      ],
      "stateMutability": "view",
      "type": "function"
    },
    {
      "inputs": [
        {
          "internalType": "address",
          "name": "",
          "type": "address"
        },
        {
          "internalType": "address",
          "name": "",
          "type": "address"
        }
      ],
      "name": "approvedRouters",
      "outputs": [
        {
          "internalType": "bool",
          "name": "",
          "type": "bool"
        }
      ],
      "stateMutability": "view",
      "type": "function"
    },
    {
      "inputs": [
        {
          "internalType": "address",
          "name": "",
          "type": "address"
        }
      ],
      "name": "bufferAmounts",
      "outputs": [
        {
          "internalType": "uint256",
          "name": "",
          "type": "uint256"
        }
      ],
      "stateMutability": "view",
      "type": "function"
    },
    {
      "inputs": [
        {
          "internalType": "address",
          "name": "_token",
          "type": "address"
        },
        {
          "internalType": "address",
          "name": "_receiver",
          "type": "address"
        }
      ],
      "name": "buyUSDG",
      "outputs": [
        {
          "internalType": "uint256",
          "name": "",
          "type": "uint256"
        }
      ],
      "stateMutability": "nonpayable",
      "type": "function"
    },
    {
      "inputs": [
        {
          "internalType": "address",
          "name": "_token",
          "type": "address"
        }
      ],
      "name": "clearTokenConfig",
      "outputs": [],
      "stateMutability": "nonpayable",
      "type": "function"
    },
    {
      "inputs": [
        {
          "internalType": "address",
          "name": "",
          "type": "address"
        }
      ],
      "name": "cumulativeFundingRates",
      "outputs": [
        {
          "internalType": "uint256",
          "name": "",
          "type": "uint256"
        }
      ],
      "stateMutability": "view",
      "type": "function"
    },
    {
      "inputs": [
        {
          "internalType": "address",
          "name": "_account",
          "type": "address"
        },
        {
          "internalType": "address",
          "name": "_collateralToken",
          "type": "address"
        },
        {
          "internalType": "address",
          "name": "_indexToken",
          "type": "address"
        },
        {
          "internalType": "uint256",
          "name": "_collateralDelta",
          "type": "uint256"
        },
        {
          "internalType": "uint256",
          "name": "_sizeDelta",
          "type": "uint256"
        },
        {
          "internalType": "bool",
          "name": "_isLong",
          "type": "bool"
        },
        {
          "internalType": "address",
          "name": "_receiver",
          "type": "address"
        }
      ],
      "name": "decreasePosition",
      "outputs": [
        {
          "internalType": "uint256",
          "name": "",
          "type": "uint256"
        }
      ],
      "stateMutability": "nonpayable",
      "type": "function"
    },
    {
      "inputs": [
        {
          "internalType": "address",
          "name": "_token",
          "type": "address"
        }
      ],
      "name": "directPoolDeposit",
      "outputs": [],
      "stateMutability": "nonpayable",
      "type": "function"
    },
    {
      "inputs": [],
      "name": "errorController",
      "outputs": [
        {
          "internalType": "address",
          "name": "",
          "type": "address"
        }
      ],
      "stateMutability": "view",
      "type": "function"
    },
    {
      "inputs": [
        {
          "internalType": "uint256",
          "name": "",
          "type": "uint256"
        }
      ],
      "name": "errors",
      "outputs": [
        {
          "internalType": "string",
          "name": "",
          "type": "string"
        }
      ],
      "stateMutability": "view",
      "type": "function"
    },
    {
      "inputs": [
        {
          "internalType": "address",
          "name": "",
          "type": "address"
        }
      ],
      "name": "feeReserves",
      "outputs": [
        {
          "internalType": "uint256",
          "name": "",
          "type": "uint256"
        }
      ],
      "stateMutability": "view",
      "type": "function"
    },
    {
      "inputs": [],
      "name": "fundingInterval",
      "outputs": [
        {
          "internalType": "uint256",
          "name": "",
          "type": "uint256"
        }
      ],
      "stateMutability": "view",
      "type": "function"
    },
    {
      "inputs": [],
      "name": "fundingRateFactor",
      "outputs": [
        {
          "internalType": "uint256",
          "name": "",
          "type": "uint256"
        }
      ],
      "stateMutability": "view",
      "type": "function"
    },
    {
      "inputs": [
        {
          "internalType": "address",
          "name": "_indexToken",
          "type": "address"
        },
        {
          "internalType": "uint256",
          "name": "_size",
          "type": "uint256"
        },
        {
          "internalType": "uint256",
          "name": "_averagePrice",
          "type": "uint256"
        },
        {
          "internalType": "bool",
          "name": "_isLong",
          "type": "bool"
        },
        {
          "internalType": "uint256",
          "name": "_lastIncreasedTime",
          "type": "uint256"
        }
      ],
      "name": "getDelta",
      "outputs": [
        {
          "internalType": "bool",
          "name": "",
          "type": "bool"
        },
        {
          "internalType": "uint256",
          "name": "",
          "type": "uint256"
        }
      ],
      "stateMutability": "view",
      "type": "function"
    },
    {
      "inputs": [
        {
          "internalType": "address",
          "name": "_collateralToken",
          "type": "address"
        },
        {
          "internalType": "address",
          "name": "_indexToken",
          "type": "address"
        },
        {
          "internalType": "bool",
          "name": "_isLong",
          "type": "bool"
        }
      ],
      "name": "getEntryFundingRate",
      "outputs": [
        {
          "internalType": "uint256",
          "name": "",
          "type": "uint256"
        }
      ],
      "stateMutability": "view",
      "type": "function"
    },
    {
      "inputs": [
        {
          "internalType": "address",
          "name": "_token",
          "type": "address"
        },
        {
          "internalType": "uint256",
          "name": "_usdgDelta",
          "type": "uint256"
        },
        {
          "internalType": "uint256",
          "name": "_feeBasisPoints",
          "type": "uint256"
        },
        {
          "internalType": "uint256",
          "name": "_taxBasisPoints",
          "type": "uint256"
        },
        {
          "internalType": "bool",
          "name": "_increment",
          "type": "bool"
        }
      ],
      "name": "getFeeBasisPoints",
      "outputs": [
        {
          "internalType": "uint256",
          "name": "",
          "type": "uint256"
        }
      ],
      "stateMutability": "view",
      "type": "function"
    },
    {
      "inputs": [
        {
          "internalType": "address",
          "name": "_account",
          "type": "address"
        },
        {
          "internalType": "address",
          "name": "_collateralToken",
          "type": "address"
        },
        {
          "internalType": "address",
          "name": "_indexToken",
          "type": "address"
        },
        {
          "internalType": "bool",
          "name": "_isLong",
          "type": "bool"
        },
        {
          "internalType": "uint256",
          "name": "_size",
          "type": "uint256"
        },
        {
          "internalType": "uint256",
          "name": "_entryFundingRate",
          "type": "uint256"
        }
      ],
      "name": "getFundingFee",
      "outputs": [
        {
          "internalType": "uint256",
          "name": "",
          "type": "uint256"
        }
      ],
      "stateMutability": "view",
      "type": "function"
    },
    {
      "inputs": [
        {
          "internalType": "address",
          "name": "_token",
          "type": "address"
        }
      ],
      "name": "getGlobalShortDelta",
      "outputs": [
        {
          "internalType": "bool",
          "name": "",
          "type": "bool"
        },
        {
          "internalType": "uint256",
          "name": "",
          "type": "uint256"
        }
      ],
      "stateMutability": "view",
      "type": "function"
    },
    {
      "inputs": [
        {
          "internalType": "address",
          "name": "_token",
          "type": "address"
        }
      ],
      "name": "getMaxPrice",
      "outputs": [
        {
          "internalType": "uint256",
          "name": "",
          "type": "uint256"
        }
      ],
      "stateMutability": "view",
      "type": "function"
    },
    {
      "inputs": [
        {
          "internalType": "address",
          "name": "_token",
          "type": "address"
        }
      ],
      "name": "getMinPrice",
      "outputs": [
        {
          "internalType": "uint256",
          "name": "",
          "type": "uint256"
        }
      ],
      "stateMutability": "view",
      "type": "function"
    },
    {
      "inputs": [
        {
          "internalType": "address",
          "name": "_indexToken",
          "type": "address"
        },
        {
          "internalType": "uint256",
          "name": "_size",
          "type": "uint256"
        },
        {
          "internalType": "uint256",
          "name": "_averagePrice",
          "type": "uint256"
        },
        {
          "internalType": "bool",
          "name": "_isLong",
          "type": "bool"
        },
        {
          "internalType": "uint256",
          "name": "_nextPrice",
          "type": "uint256"
        },
        {
          "internalType": "uint256",
          "name": "_sizeDelta",
          "type": "uint256"
        },
        {
          "internalType": "uint256",
          "name": "_lastIncreasedTime",
          "type": "uint256"
        }
      ],
      "name": "getNextAveragePrice",
      "outputs": [
        {
          "internalType": "uint256",
          "name": "",
          "type": "uint256"
        }
      ],
      "stateMutability": "view",
      "type": "function"
    },
    {
      "inputs": [
        {
          "internalType": "address",
          "name": "_token",
          "type": "address"
        }
      ],
      "name": "getNextFundingRate",
      "outputs": [
        {
          "internalType": "uint256",
          "name": "",
          "type": "uint256"
        }
      ],
      "stateMutability": "view",
      "type": "function"
    },
    {
      "inputs": [
        {
          "internalType": "address",
          "name": "_indexToken",
          "type": "address"
        },
        {
          "internalType": "uint256",
          "name": "_nextPrice",
          "type": "uint256"
        },
        {
          "internalType": "uint256",
          "name": "_sizeDelta",
          "type": "uint256"
        }
      ],
      "name": "getNextGlobalShortAveragePrice",
      "outputs": [
        {
          "internalType": "uint256",
          "name": "",
          "type": "uint256"
        }
      ],
      "stateMutability": "view",
      "type": "function"
    },
    {
      "inputs": [
        {
          "internalType": "address",
          "name": "_account",
          "type": "address"
        },
        {
          "internalType": "address",
          "name": "_collateralToken",
          "type": "address"
        },
        {
          "internalType": "address",
          "name": "_indexToken",
          "type": "address"
        },
        {
          "internalType": "bool",
          "name": "_isLong",
          "type": "bool"
        }
      ],
      "name": "getPosition",
      "outputs": [
        {
          "internalType": "uint256",
          "name": "",
          "type": "uint256"
        },
        {
          "internalType": "uint256",
          "name": "",
          "type": "uint256"
        },
        {
          "internalType": "uint256",
          "name": "",
          "type": "uint256"
        },
        {
          "internalType": "uint256",
          "name": "",
          "type": "uint256"
        },
        {
          "internalType": "uint256",
          "name": "",
          "type": "uint256"
        },
        {
          "internalType": "uint256",
          "name": "",
          "type": "uint256"
        },
        {
          "internalType": "bool",
          "name": "",
          "type": "bool"
        },
        {
          "internalType": "uint256",
          "name": "",
          "type": "uint256"
        }
      ],
      "stateMutability": "view",
      "type": "function"
    },
    {
      "inputs": [
        {
          "internalType": "address",
          "name": "_account",
          "type": "address"
        },
        {
          "internalType": "address",
          "name": "_collateralToken",
          "type": "address"
        },
        {
          "internalType": "address",
          "name": "_indexToken",
          "type": "address"
        },
        {
          "internalType": "bool",
          "name": "_isLong",
          "type": "bool"
        }
      ],
      "name": "getPositionDelta",
      "outputs": [
        {
          "internalType": "bool",
          "name": "",
          "type": "bool"
        },
        {
          "internalType": "uint256",
          "name": "",
          "type": "uint256"
        }
      ],
      "stateMutability": "view",
      "type": "function"
    },
    {
      "inputs": [
        {
          "internalType": "address",
          "name": "_account",
          "type": "address"
        },
        {
          "internalType": "address",
          "name": "_collateralToken",
          "type": "address"
        },
        {
          "internalType": "address",
          "name": "_indexToken",
          "type": "address"
        },
        {
          "internalType": "bool",
          "name": "_isLong",
          "type": "bool"
        },
        {
          "internalType": "uint256",
          "name": "_sizeDelta",
          "type": "uint256"
        }
      ],
      "name": "getPositionFee",
      "outputs": [
        {
          "internalType": "uint256",
          "name": "",
          "type": "uint256"
        }
      ],
      "stateMutability": "view",
      "type": "function"
    },
    {
      "inputs": [
        {
          "internalType": "address",
          "name": "_account",
          "type": "address"
        },
        {
          "internalType": "address",
          "name": "_collateralToken",
          "type": "address"
        },
        {
          "internalType": "address",
          "name": "_indexToken",
          "type": "address"
        },
        {
          "internalType": "bool",
          "name": "_isLong",
          "type": "bool"
        }
      ],
      "name": "getPositionKey",
      "outputs": [
        {
          "internalType": "bytes32",
          "name": "",
          "type": "bytes32"
        }
      ],
      "stateMutability": "pure",
      "type": "function"
    },
    {
      "inputs": [
        {
          "internalType": "address",
          "name": "_account",
          "type": "address"
        },
        {
          "internalType": "address",
          "name": "_collateralToken",
          "type": "address"
        },
        {
          "internalType": "address",
          "name": "_indexToken",
          "type": "address"
        },
        {
          "internalType": "bool",
          "name": "_isLong",
          "type": "bool"
        }
      ],
      "name": "getPositionLeverage",
      "outputs": [
        {
          "internalType": "uint256",
          "name": "",
          "type": "uint256"
        }
      ],
      "stateMutability": "view",
      "type": "function"
    },
    {
      "inputs": [
        {
          "internalType": "address",
          "name": "_token",
          "type": "address"
        },
        {
          "internalType": "uint256",
          "name": "_usdgAmount",
          "type": "uint256"
        }
      ],
      "name": "getRedemptionAmount",
      "outputs": [
        {
          "internalType": "uint256",
          "name": "",
          "type": "uint256"
        }
      ],
      "stateMutability": "view",
      "type": "function"
    },
    {
      "inputs": [
        {
          "internalType": "address",
          "name": "_token",
          "type": "address"
        }
      ],
      "name": "getRedemptionCollateral",
      "outputs": [
        {
          "internalType": "uint256",
          "name": "",
          "type": "uint256"
        }
      ],
      "stateMutability": "view",
      "type": "function"
    },
    {
      "inputs": [
        {
          "internalType": "address",
          "name": "_token",
          "type": "address"
        }
      ],
      "name": "getRedemptionCollateralUsd",
      "outputs": [
        {
          "internalType": "uint256",
          "name": "",
          "type": "uint256"
        }
      ],
      "stateMutability": "view",
      "type": "function"
    },
    {
      "inputs": [
        {
          "internalType": "address",
          "name": "_token",
          "type": "address"
        }
      ],
      "name": "getTargetUsdgAmount",
      "outputs": [
        {
          "internalType": "uint256",
          "name": "",
          "type": "uint256"
        }
      ],
      "stateMutability": "view",
      "type": "function"
    },
    {
      "inputs": [
        {
          "internalType": "address",
          "name": "_token",
          "type": "address"
        }
      ],
      "name": "getUtilisation",
      "outputs": [
        {
          "internalType": "uint256",
          "name": "",
          "type": "uint256"
        }
      ],
      "stateMutability": "view",
      "type": "function"
    },
    {
      "inputs": [
        {
          "internalType": "address",
          "name": "",
          "type": "address"
        }
      ],
      "name": "globalShortAveragePrices",
      "outputs": [
        {
          "internalType": "uint256",
          "name": "",
          "type": "uint256"
        }
      ],
      "stateMutability": "view",
      "type": "function"
    },
    {
      "inputs": [
        {
          "internalType": "address",
          "name": "",
          "type": "address"
        }
      ],
      "name": "globalShortSizes",
      "outputs": [
        {
          "internalType": "uint256",
          "name": "",
          "type": "uint256"
        }
      ],
      "stateMutability": "view",
      "type": "function"
    },
    {
      "inputs": [],
      "name": "gov",
      "outputs": [
        {
          "internalType": "address",
          "name": "",
          "type": "address"
        }
      ],
      "stateMutability": "view",
      "type": "function"
    },
    {
      "inputs": [
        {
          "internalType": "address",
          "name": "",
          "type": "address"
        }
      ],
      "name": "guaranteedUsd",
      "outputs": [
        {
          "internalType": "uint256",
          "name": "",
          "type": "uint256"
        }
      ],
      "stateMutability": "view",
      "type": "function"
    },
    {
      "inputs": [],
      "name": "hasDynamicFees",
      "outputs": [
        {
          "internalType": "bool",
          "name": "",
          "type": "bool"
        }
      ],
      "stateMutability": "view",
      "type": "function"
    },
    {
      "inputs": [],
      "name": "inManagerMode",
      "outputs": [
        {
          "internalType": "bool",
          "name": "",
          "type": "bool"
        }
      ],
      "stateMutability": "view",
      "type": "function"
    },
    {
      "inputs": [],
      "name": "inPrivateLiquidationMode",
      "outputs": [
        {
          "internalType": "bool",
          "name": "",
          "type": "bool"
        }
      ],
      "stateMutability": "view",
      "type": "function"
    },
    {
      "inputs": [],
      "name": "includeAmmPrice",
      "outputs": [
        {
          "internalType": "bool",
          "name": "",
          "type": "bool"
        }
      ],
      "stateMutability": "view",
      "type": "function"
    },
    {
      "inputs": [
        {
          "internalType": "address",
          "name": "_account",
          "type": "address"
        },
        {
          "internalType": "address",
          "name": "_collateralToken",
          "type": "address"
        },
        {
          "internalType": "address",
          "name": "_indexToken",
          "type": "address"
        },
        {
          "internalType": "uint256",
          "name": "_sizeDelta",
          "type": "uint256"
        },
        {
          "internalType": "bool",
          "name": "_isLong",
          "type": "bool"
        }
      ],
      "name": "increasePosition",
      "outputs": [],
      "stateMutability": "nonpayable",
      "type": "function"
    },
    {
      "inputs": [
        {
          "internalType": "address",
          "name": "_router",
          "type": "address"
        },
        {
          "internalType": "address",
          "name": "_usdg",
          "type": "address"
        },
        {
          "internalType": "address",
          "name": "_priceFeed",
          "type": "address"
        },
        {
          "internalType": "uint256",
          "name": "_liquidationFeeUsd",
          "type": "uint256"
        },
        {
          "internalType": "uint256",
          "name": "_fundingRateFactor",
          "type": "uint256"
        },
        {
          "internalType": "uint256",
          "name": "_stableFundingRateFactor",
          "type": "uint256"
        }
      ],
      "name": "initialize",
      "outputs": [],
      "stateMutability": "nonpayable",
      "type": "function"
    },
    {
      "inputs": [],
      "name": "isInitialized",
      "outputs": [
        {
          "internalType": "bool",
          "name": "",
          "type": "bool"
        }
      ],
      "stateMutability": "view",
      "type": "function"
    },
    {
      "inputs": [],
      "name": "isLeverageEnabled",
      "outputs": [
        {
          "internalType": "bool",
          "name": "",
          "type": "bool"
        }
      ],
      "stateMutability": "view",
      "type": "function"
    },
    {
      "inputs": [
        {
          "internalType": "address",
          "name": "",
          "type": "address"
        }
      ],
      "name": "isLiquidator",
      "outputs": [
        {
          "internalType": "bool",
          "name": "",
          "type": "bool"
        }
      ],
      "stateMutability": "view",
      "type": "function"
    },
    {
      "inputs": [
        {
          "internalType": "address",
          "name": "",
          "type": "address"
        }
      ],
      "name": "isManager",
      "outputs": [
        {
          "internalType": "bool",
          "name": "",
          "type": "bool"
        }
      ],
      "stateMutability": "view",
      "type": "function"
    },
    {
      "inputs": [],
      "name": "isSwapEnabled",
      "outputs": [
        {
          "internalType": "bool",
          "name": "",
          "type": "bool"
        }
      ],
      "stateMutability": "view",
      "type": "function"
    },
    {
      "inputs": [
        {
          "internalType": "address",
          "name": "",
          "type": "address"
        }
      ],
      "name": "lastFundingTimes",
      "outputs": [
        {
          "internalType": "uint256",
          "name": "",
          "type": "uint256"
        }
      ],
      "stateMutability": "view",
      "type": "function"
    },
    {
      "inputs": [
        {
          "internalType": "address",
          "name": "_account",
          "type": "address"
        },
        {
          "internalType": "address",
          "name": "_collateralToken",
          "type": "address"
        },
        {
          "internalType": "address",
          "name": "_indexToken",
          "type": "address"
        },
        {
          "internalType": "bool",
          "name": "_isLong",
          "type": "bool"
        },
        {
          "internalType": "address",
          "name": "_feeReceiver",
          "type": "address"
        }
      ],
      "name": "liquidatePosition",
      "outputs": [],
      "stateMutability": "nonpayable",
      "type": "function"
    },
    {
      "inputs": [],
      "name": "liquidationFeeUsd",
      "outputs": [
        {
          "internalType": "uint256",
          "name": "",
          "type": "uint256"
        }
      ],
      "stateMutability": "view",
      "type": "function"
    },
    {
      "inputs": [],
      "name": "marginFeeBasisPoints",
      "outputs": [
        {
          "internalType": "uint256",
          "name": "",
          "type": "uint256"
        }
      ],
      "stateMutability": "view",
      "type": "function"
    },
    {
      "inputs": [],
      "name": "maxGasPrice",
      "outputs": [
        {
          "internalType": "uint256",
          "name": "",
          "type": "uint256"
        }
      ],
      "stateMutability": "view",
      "type": "function"
    },
    {
      "inputs": [
        {
          "internalType": "address",
          "name": "",
          "type": "address"
        }
      ],
      "name": "maxGlobalShortSizes",
      "outputs": [
        {
          "internalType": "uint256",
          "name": "",
          "type": "uint256"
        }
      ],
      "stateMutability": "view",
      "type": "function"
    },
    {
      "inputs": [],
      "name": "maxLeverage",
      "outputs": [
        {
          "internalType": "uint256",
          "name": "",
          "type": "uint256"
        }
      ],
      "stateMutability": "view",
      "type": "function"
    },
    {
      "inputs": [
        {
          "internalType": "address",
          "name": "",
          "type": "address"
        }
      ],
      "name": "maxUsdgAmounts",
      "outputs": [
        {
          "internalType": "uint256",
          "name": "",
          "type": "uint256"
        }
      ],
      "stateMutability": "view",
      "type": "function"
    },
    {
      "inputs": [
        {
          "internalType": "address",
          "name": "",
          "type": "address"
        }
      ],
      "name": "minProfitBasisPoints",
      "outputs": [
        {
          "internalType": "uint256",
          "name": "",
          "type": "uint256"
        }
      ],
      "stateMutability": "view",
      "type": "function"
    },
    {
      "inputs": [],
      "name": "minProfitTime",
      "outputs": [
        {
          "internalType": "uint256",
          "name": "",
          "type": "uint256"
        }
      ],
      "stateMutability": "view",
      "type": "function"
    },
    {
      "inputs": [],
      "name": "mintBurnFeeBasisPoints",
      "outputs": [
        {
          "internalType": "uint256",
          "name": "",
          "type": "uint256"
        }
      ],
      "stateMutability": "view",
      "type": "function"
    },
    {
      "inputs": [
        {
          "internalType": "address",
          "name": "",
          "type": "address"
        }
      ],
      "name": "poolAmounts",
      "outputs": [
        {
          "internalType": "uint256",
          "name": "",
          "type": "uint256"
        }
      ],
      "stateMutability": "view",
      "type": "function"
    },
    {
      "inputs": [
        {
          "internalType": "bytes32",
          "name": "",
          "type": "bytes32"
        }
      ],
      "name": "positions",
      "outputs": [
        {
          "internalType": "uint256",
          "name": "size",
          "type": "uint256"
        },
        {
          "internalType": "uint256",
          "name": "collateral",
          "type": "uint256"
        },
        {
          "internalType": "uint256",
          "name": "averagePrice",
          "type": "uint256"
        },
        {
          "internalType": "uint256",
          "name": "entryFundingRate",
          "type": "uint256"
        },
        {
          "internalType": "uint256",
          "name": "reserveAmount",
          "type": "uint256"
        },
        {
          "internalType": "int256",
          "name": "realisedPnl",
          "type": "int256"
        },
        {
          "internalType": "uint256",
          "name": "lastIncreasedTime",
          "type": "uint256"
        }
      ],
      "stateMutability": "view",
      "type": "function"
    },
    {
      "inputs": [],
      "name": "priceFeed",
      "outputs": [
        {
          "internalType": "address",
          "name": "",
          "type": "address"
        }
      ],
      "stateMutability": "view",
      "type": "function"
    },
    {
      "inputs": [
        {
          "internalType": "address",
          "name": "_router",
          "type": "address"
        }
      ],
      "name": "removeRouter",
      "outputs": [],
      "stateMutability": "nonpayable",
      "type": "function"
    },
    {
      "inputs": [
        {
          "internalType": "address",
          "name": "",
          "type": "address"
        }
      ],
      "name": "reservedAmounts",
      "outputs": [
        {
          "internalType": "uint256",
          "name": "",
          "type": "uint256"
        }
      ],
      "stateMutability": "view",
      "type": "function"
    },
    {
      "inputs": [],
      "name": "router",
      "outputs": [
        {
          "internalType": "address",
          "name": "",
          "type": "address"
        }
      ],
      "stateMutability": "view",
      "type": "function"
    },
    {
      "inputs": [
        {
          "internalType": "address",
          "name": "_token",
          "type": "address"
        },
        {
          "internalType": "address",
          "name": "_receiver",
          "type": "address"
        }
      ],
      "name": "sellUSDG",
      "outputs": [
        {
          "internalType": "uint256",
          "name": "",
          "type": "uint256"
        }
      ],
      "stateMutability": "nonpayable",
      "type": "function"
    },
    {
      "inputs": [
        {
          "internalType": "address",
          "name": "_token",
          "type": "address"
        },
        {
          "internalType": "uint256",
          "name": "_amount",
          "type": "uint256"
        }
      ],
      "name": "setBufferAmount",
      "outputs": [],
      "stateMutability": "nonpayable",
      "type": "function"
    },
    {
      "inputs": [
        {
          "internalType": "uint256",
          "name": "_errorCode",
          "type": "uint256"
        },
        {
          "internalType": "string",
          "name": "_error",
          "type": "string"
        }
      ],
      "name": "setError",
      "outputs": [],
      "stateMutability": "nonpayable",
      "type": "function"
    },
    {
      "inputs": [
        {
          "internalType": "address",
          "name": "_errorController",
          "type": "address"
        }
      ],
      "name": "setErrorController",
      "outputs": [],
      "stateMutability": "nonpayable",
      "type": "function"
    },
    {
      "inputs": [
        {
          "internalType": "uint256",
          "name": "_taxBasisPoints",
          "type": "uint256"
        },
        {
          "internalType": "uint256",
          "name": "_stableTaxBasisPoints",
          "type": "uint256"
        },
        {
          "internalType": "uint256",
          "name": "_mintBurnFeeBasisPoints",
          "type": "uint256"
        },
        {
          "internalType": "uint256",
          "name": "_swapFeeBasisPoints",
          "type": "uint256"
        },
        {
          "internalType": "uint256",
          "name": "_stableSwapFeeBasisPoints",
          "type": "uint256"
        },
        {
          "internalType": "uint256",
          "name": "_marginFeeBasisPoints",
          "type": "uint256"
        },
        {
          "internalType": "uint256",
          "name": "_liquidationFeeUsd",
          "type": "uint256"
        },
        {
          "internalType": "uint256",
          "name": "_minProfitTime",
          "type": "uint256"
        },
        {
          "internalType": "bool",
          "name": "_hasDynamicFees",
          "type": "bool"
        }
      ],
      "name": "setFees",
      "outputs": [],
      "stateMutability": "nonpayable",
      "type": "function"
    },
    {
      "inputs": [
        {
          "internalType": "uint256",
          "name": "_fundingInterval",
          "type": "uint256"
        },
        {
          "internalType": "uint256",
          "name": "_fundingRateFactor",
          "type": "uint256"
        },
        {
          "internalType": "uint256",
          "name": "_stableFundingRateFactor",
          "type": "uint256"
        }
      ],
      "name": "setFundingRate",
      "outputs": [],
      "stateMutability": "nonpayable",
      "type": "function"
    },
    {
      "inputs": [
        {
          "internalType": "address",
          "name": "_gov",
          "type": "address"
        }
      ],
      "name": "setGov",
      "outputs": [],
      "stateMutability": "nonpayable",
      "type": "function"
    },
    {
      "inputs": [
        {
          "internalType": "bool",
          "name": "_inManagerMode",
          "type": "bool"
        }
      ],
      "name": "setInManagerMode",
      "outputs": [],
      "stateMutability": "nonpayable",
      "type": "function"
    },
    {
      "inputs": [
        {
          "internalType": "bool",
          "name": "_inPrivateLiquidationMode",
          "type": "bool"
        }
      ],
      "name": "setInPrivateLiquidationMode",
      "outputs": [],
      "stateMutability": "nonpayable",
      "type": "function"
    },
    {
      "inputs": [
        {
          "internalType": "bool",
          "name": "_isLeverageEnabled",
          "type": "bool"
        }
      ],
      "name": "setIsLeverageEnabled",
      "outputs": [],
      "stateMutability": "nonpayable",
      "type": "function"
    },
    {
      "inputs": [
        {
          "internalType": "bool",
          "name": "_isSwapEnabled",
          "type": "bool"
        }
      ],
      "name": "setIsSwapEnabled",
      "outputs": [],
      "stateMutability": "nonpayable",
      "type": "function"
    },
    {
      "inputs": [
        {
          "internalType": "address",
          "name": "_liquidator",
          "type": "address"
        },
        {
          "internalType": "bool",
          "name": "_isActive",
          "type": "bool"
        }
      ],
      "name": "setLiquidator",
      "outputs": [],
      "stateMutability": "nonpayable",
      "type": "function"
    },
    {
      "inputs": [
        {
          "internalType": "address",
          "name": "_manager",
          "type": "address"
        },
        {
          "internalType": "bool",
          "name": "_isManager",
          "type": "bool"
        }
      ],
      "name": "setManager",
      "outputs": [],
      "stateMutability": "nonpayable",
      "type": "function"
    },
    {
      "inputs": [
        {
          "internalType": "uint256",
          "name": "_maxGasPrice",
          "type": "uint256"
        }
      ],
      "name": "setMaxGasPrice",
      "outputs": [],
      "stateMutability": "nonpayable",
      "type": "function"
    },
    {
      "inputs": [
        {
          "internalType": "address",
          "name": "_token",
          "type": "address"
        },
        {
          "internalType": "uint256",
          "name": "_amount",
          "type": "uint256"
        }
      ],
      "name": "setMaxGlobalShortSize",
      "outputs": [],
      "stateMutability": "nonpayable",
      "type": "function"
    },
    {
      "inputs": [
        {
          "internalType": "uint256",
          "name": "_maxLeverage",
          "type": "uint256"
        }
      ],
      "name": "setMaxLeverage",
      "outputs": [],
      "stateMutability": "nonpayable",
      "type": "function"
    },
    {
      "inputs": [
        {
          "internalType": "address",
          "name": "_priceFeed",
          "type": "address"
        }
      ],
      "name": "setPriceFeed",
      "outputs": [],
      "stateMutability": "nonpayable",
      "type": "function"
    },
    {
      "inputs": [
        {
          "internalType": "address",
          "name": "_token",
          "type": "address"
        },
        {
          "internalType": "uint256",
          "name": "_tokenDecimals",
          "type": "uint256"
        },
        {
          "internalType": "uint256",
          "name": "_tokenWeight",
          "type": "uint256"
        },
        {
          "internalType": "uint256",
          "name": "_minProfitBps",
          "type": "uint256"
        },
        {
          "internalType": "uint256",
          "name": "_maxUsdgAmount",
          "type": "uint256"
        },
        {
          "internalType": "bool",
          "name": "_isStable",
          "type": "bool"
        },
        {
          "internalType": "bool",
          "name": "_isShortable",
          "type": "bool"
        }
      ],
      "name": "setTokenConfig",
      "outputs": [],
      "stateMutability": "nonpayable",
      "type": "function"
    },
    {
      "inputs": [
        {
          "internalType": "address",
          "name": "_token",
          "type": "address"
        },
        {
          "internalType": "uint256",
          "name": "_amount",
          "type": "uint256"
        }
      ],
      "name": "setUsdgAmount",
      "outputs": [],
      "stateMutability": "nonpayable",
      "type": "function"
    },
    {
      "inputs": [
        {
          "internalType": "contract IVaultUtils",
          "name": "_vaultUtils",
          "type": "address"
        }
      ],
      "name": "setVaultUtils",
      "outputs": [],
      "stateMutability": "nonpayable",
      "type": "function"
    },
    {
      "inputs": [
        {
          "internalType": "address",
          "name": "",
          "type": "address"
        }
      ],
      "name": "shortableTokens",
      "outputs": [
        {
          "internalType": "bool",
          "name": "",
          "type": "bool"
        }
      ],
      "stateMutability": "view",
      "type": "function"
    },
    {
      "inputs": [],
      "name": "stableFundingRateFactor",
      "outputs": [
        {
          "internalType": "uint256",
          "name": "",
          "type": "uint256"
        }
      ],
      "stateMutability": "view",
      "type": "function"
    },
    {
      "inputs": [],
      "name": "stableSwapFeeBasisPoints",
      "outputs": [
        {
          "internalType": "uint256",
          "name": "",
          "type": "uint256"
        }
      ],
      "stateMutability": "view",
      "type": "function"
    },
    {
      "inputs": [],
      "name": "stableTaxBasisPoints",
      "outputs": [
        {
          "internalType": "uint256",
          "name": "",
          "type": "uint256"
        }
      ],
      "stateMutability": "view",
      "type": "function"
    },
    {
      "inputs": [
        {
          "internalType": "address",
          "name": "",
          "type": "address"
        }
      ],
      "name": "stableTokens",
      "outputs": [
        {
          "internalType": "bool",
          "name": "",
          "type": "bool"
        }
      ],
      "stateMutability": "view",
      "type": "function"
    },
    {
      "inputs": [
        {
          "internalType": "address",
          "name": "_tokenIn",
          "type": "address"
        },
        {
          "internalType": "address",
          "name": "_tokenOut",
          "type": "address"
        },
        {
          "internalType": "address",
          "name": "_receiver",
          "type": "address"
        }
      ],
      "name": "swap",
      "outputs": [
        {
          "internalType": "uint256",
          "name": "",
          "type": "uint256"
        }
      ],
      "stateMutability": "nonpayable",
      "type": "function"
    },
    {
      "inputs": [],
      "name": "swapFeeBasisPoints",
      "outputs": [
        {
          "internalType": "uint256",
          "name": "",
          "type": "uint256"
        }
      ],
      "stateMutability": "view",
      "type": "function"
    },
    {
      "inputs": [],
      "name": "taxBasisPoints",
      "outputs": [
        {
          "internalType": "uint256",
          "name": "",
          "type": "uint256"
        }
      ],
      "stateMutability": "view",
      "type": "function"
    },
    {
      "inputs": [
        {
          "internalType": "address",
          "name": "",
          "type": "address"
        }
      ],
      "name": "tokenBalances",
      "outputs": [
        {
          "internalType": "uint256",
          "name": "",
          "type": "uint256"
        }
      ],
      "stateMutability": "view",
      "type": "function"
    },
    {
      "inputs": [
        {
          "internalType": "address",
          "name": "",
          "type": "address"
        }
      ],
      "name": "tokenDecimals",
      "outputs": [
        {
          "internalType": "uint256",
          "name": "",
          "type": "uint256"
        }
      ],
      "stateMutability": "view",
      "type": "function"
    },
    {
      "inputs": [
        {
          "internalType": "address",
          "name": "_token",
          "type": "address"
        },
        {
          "internalType": "uint256",
          "name": "_tokenAmount",
          "type": "uint256"
        }
      ],
      "name": "tokenToUsdMin",
      "outputs": [
        {
          "internalType": "uint256",
          "name": "",
          "type": "uint256"
        }
      ],
      "stateMutability": "view",
      "type": "function"
    },
    {
      "inputs": [
        {
          "internalType": "address",
          "name": "",
          "type": "address"
        }
      ],
      "name": "tokenWeights",
      "outputs": [
        {
          "internalType": "uint256",
          "name": "",
          "type": "uint256"
        }
      ],
      "stateMutability": "view",
      "type": "function"
    },
    {
      "inputs": [],
      "name": "totalTokenWeights",
      "outputs": [
        {
          "internalType": "uint256",
          "name": "",
          "type": "uint256"
        }
      ],
      "stateMutability": "view",
      "type": "function"
    },
    {
      "inputs": [
        {
          "internalType": "address",
          "name": "_collateralToken",
          "type": "address"
        },
        {
          "internalType": "address",
          "name": "_indexToken",
          "type": "address"
        }
      ],
      "name": "updateCumulativeFundingRate",
      "outputs": [],
      "stateMutability": "nonpayable",
      "type": "function"
    },
    {
      "inputs": [
        {
          "internalType": "address",
          "name": "_newVault",
          "type": "address"
        },
        {
          "internalType": "address",
          "name": "_token",
          "type": "address"
        },
        {
          "internalType": "uint256",
          "name": "_amount",
          "type": "uint256"
        }
      ],
      "name": "upgradeVault",
      "outputs": [],
      "stateMutability": "nonpayable",
      "type": "function"
    },
    {
      "inputs": [
        {
          "internalType": "address",
          "name": "_token",
          "type": "address"
        },
        {
          "internalType": "uint256",
          "name": "_usdAmount",
          "type": "uint256"
        },
        {
          "internalType": "uint256",
          "name": "_price",
          "type": "uint256"
        }
      ],
      "name": "usdToToken",
      "outputs": [
        {
          "internalType": "uint256",
          "name": "",
          "type": "uint256"
        }
      ],
      "stateMutability": "view",
      "type": "function"
    },
    {
      "inputs": [
        {
          "internalType": "address",
          "name": "_token",
          "type": "address"
        },
        {
          "internalType": "uint256",
          "name": "_usdAmount",
          "type": "uint256"
        }
      ],
      "name": "usdToTokenMax",
      "outputs": [
        {
          "internalType": "uint256",
          "name": "",
          "type": "uint256"
        }
      ],
      "stateMutability": "view",
      "type": "function"
    },
    {
      "inputs": [
        {
          "internalType": "address",
          "name": "_token",
          "type": "address"
        },
        {
          "internalType": "uint256",
          "name": "_usdAmount",
          "type": "uint256"
        }
      ],
      "name": "usdToTokenMin",
      "outputs": [
        {
          "internalType": "uint256",
          "name": "",
          "type": "uint256"
        }
      ],
      "stateMutability": "view",
      "type": "function"
    },
    {
      "inputs": [],
      "name": "usdg",
      "outputs": [
        {
          "internalType": "address",
          "name": "",
          "type": "address"
        }
      ],
      "stateMutability": "view",
      "type": "function"
    },
    {
      "inputs": [
        {
          "internalType": "address",
          "name": "",
          "type": "address"
        }
      ],
      "name": "usdgAmounts",
      "outputs": [
        {
          "internalType": "uint256",
          "name": "",
          "type": "uint256"
        }
      ],
      "stateMutability": "view",
      "type": "function"
    },
    {
      "inputs": [],
      "name": "useSwapPricing",
      "outputs": [
        {
          "internalType": "bool",
          "name": "",
          "type": "bool"
        }
      ],
      "stateMutability": "view",
      "type": "function"
    },
    {
      "inputs": [
        {
          "internalType": "address",
          "name": "_account",
          "type": "address"
        },
        {
          "internalType": "address",
          "name": "_collateralToken",
          "type": "address"
        },
        {
          "internalType": "address",
          "name": "_indexToken",
          "type": "address"
        },
        {
          "internalType": "bool",
          "name": "_isLong",
          "type": "bool"
        },
        {
          "internalType": "bool",
          "name": "_raise",
          "type": "bool"
        }
      ],
      "name": "validateLiquidation",
      "outputs": [
        {
          "internalType": "uint256",
          "name": "",
          "type": "uint256"
        },
        {
          "internalType": "uint256",
          "name": "",
          "type": "uint256"
        }
      ],
      "stateMutability": "view",
      "type": "function"
    },
    {
      "inputs": [],
      "name": "vaultUtils",
      "outputs": [
        {
          "internalType": "contract IVaultUtils",
          "name": "",
          "type": "address"
        }
      ],
      "stateMutability": "view",
      "type": "function"
    },
    {
      "inputs": [],
      "name": "whitelistedTokenCount",
      "outputs": [
        {
          "internalType": "uint256",
          "name": "",
          "type": "uint256"
        }
      ],
      "stateMutability": "view",
      "type": "function"
    },
    {
      "inputs": [
        {
          "internalType": "address",
          "name": "",
          "type": "address"
        }
      ],
      "name": "whitelistedTokens",
      "outputs": [
        {
          "internalType": "bool",
          "name": "",
          "type": "bool"
        }
      ],
      "stateMutability": "view",
      "type": "function"
    },
    {
      "inputs": [
        {
          "internalType": "address",
          "name": "_token",
          "type": "address"
        },
        {
          "internalType": "address",
          "name": "_receiver",
          "type": "address"
        }
      ],
      "name": "withdrawFees",
      "outputs": [
        {
          "internalType": "uint256",
          "name": "",
          "type": "uint256"
        }
      ],
      "stateMutability": "nonpayable",
      "type": "function"
    }
  ],
  "bytecode": "0x608060405260018060016101000a81548160ff02191690831515021790555060018060026101000a81548160ff0219169083151502179055506207a1206008556032600a556014600b55601e600c55601e600d556004600e55600a600f556000601160006101000a81548160ff0219169083151502179055506170806012556001601660006101000a81548160ff0219169083151502179055506000601660016101000a81548160ff0219169083151502179055506000601660026101000a81548160ff0219169083151502179055506000601660036101000a81548160ff021916908315150217905550348015620000f757600080fd5b50600160008190555033600660006101000a81548173ffffffffffffffffffffffffffffffffffffffff021916908373ffffffffffffffffffffffffffffffffffffffff16021790555061a61180620001516000396000f3fe608060405234801561001057600080fd5b50600436106107595760003560e01c80638585f4d2116103c9578063c7e074c3116101ff578063df73a26711610125578063f3ae2415116100b8578063fbfded6d11610087578063fbfded6d14612cb5578063fce28c1014612d19578063fdaf6ac314612d37578063fed1a60614612de557610759565b8063f3ae241514612b87578063f5b91b7b14612be1578063f887ea4014612c15578063fa12dbc014612c4957610759565b8063efa10a6e116100f4578063efa10a6e14612a39578063f07456ce14612a87578063f07bbf7714612adf578063f255527814612b0f57610759565b8063df73a26714612927578063e124e6d214612945578063e468baf01461299d578063e67f59a7146129f557610759565b8063d8f897c31161019d578063db3555fb1161016c578063db3555fb14612769578063db97495f146127c3578063dc8f5fac14612859578063de2ea9481461287757610759565b8063d8f897c3146125e1578063d9ac422514612639578063da76524c14612657578063daf9c2101461270f57610759565b8063d2fa635e116101d9578063d2fa635e14612480578063d3127e63146124ae578063d54d5a9f146124dc578063d66b000d1461259357610759565b8063c7e074c31461234c578063cea0c328146123ce578063cfad57a21461243c57610759565b80639f392eb3116102ef578063ae3302c211610282578063b364accb11610251578063b364accb1461221d578063c3c7b9e91461227e578063c4f718bf146122d6578063c65bc7b1146122f457610759565b8063ae3302c214612103578063b06423f314612121578063b136ca4914612141578063b1cc53ab1461219957610759565b8063a93acac2116102be578063a93acac214611fdb578063ab08c1c614612033578063ab2f3ad414612053578063ad1e4f8d146120ab57610759565b80639f392eb314611eeb578063a22f239214611f0b578063a42ab3d214611f29578063a5e90eee14611f8b57610759565b80638f7b8404116103675780639698d25a116103365780639698d25a14611da75780639849e41214611dff5780639899cd0214611e1d5780639d7432ca14611e7f57610759565b80638f7b840414611c8d5780639060b1ca14611cd15780639331621214611cf157806395082d2514611d8957610759565b80638a27d468116103a35780638a27d46814611b7d5780638a39735a14611bbf5780638a78daa814611bdd5780638ee573ac14611c3557610759565b80638585f4d214611ab9578063870d917c14611b0757806388b1fbdf14611b2557610759565b80634453a3741161059e57806360922199116104c4578063724e78da116104575780637c2eb9f7116104265780637c2eb9f7146118e1578063817bb8571461191157806381a612d61461198957806382a08490146119e157610759565b8063724e78da146117a9578063728cdbca146117ed578063741bef1a1461188f5780637a210a2b146118c357610759565b80636ae0b154116104935780636ae0b1541461168b5780636be6026b146116cf57806371089f4d146116ed578063711e61901461173157610759565b8063609221991461156757806362287a32146115e157806362749803146115ff5780636abbe0c81461165757610759565b80634d47b3041161053c578063529a356f1161050b578063529a356f146113e657806352f55eed146114405780635c07eaab146114985780635f7bc1191461152357610759565b80634d47b30414611260578063514ea4bf1461127e57806351723e82146112ea578063523fba7f1461138e57610759565b806348f35cbb1161057857806348f35cbb146110df5780634a3f088d146111135780634a993ee9146111ea5780634befe2ca1461124257610759565b80634453a37414610f4857806345a6f37014610f9857806348d91abf1461104557610759565b806329ff961511610683578063392e53cd116106215780633e72a262116105f05780633e72a26214610dcb57806340eb380214610deb5780634215287314610e6c57806342b60b0314610eee57610759565b8063392e53cd14610cb15780633a05dcc114610cd15780633c5a6e3514610d295780633de39c1114610dad57610759565b806330455ede1161065d57806330455ede14610c25578063318bc68914610c5557806334c1557d14610c73578063351a964d14610c9157610759565b806329ff961514610ac75780632c668ec114610b1f5780632d4b057614610b8157610759565b8063134ca63b116106fb5780631ce9cb8f116106ca5780631ce9cb8f1461097857806324b0c04d146109d057806324ca984e14610a0057806328e67be514610a4457610759565b8063134ca63b146108c4578063174d2694146108e2578063181e210e146109005780631aa4ace51461092057610759565b80630a48d5a9116107375780630a48d5a9146107f257806310eb56c214610854578063126082cf1461087257806312d43a511461089057610759565b806304fef1db1461075e57806307c58752146107b65780630842b076146107d4575b600080fd5b6107a06004803603602081101561077457600080fd5b81019080803573ffffffffffffffffffffffffffffffffffffffff169060200190929190505050612e8c565b6040518082815260200191505060405180910390f35b6107be612f54565b6040518082815260200191505060405180910390f35b6107dc612f68565b6040518082815260200191505060405180910390f35b61083e6004803603604081101561080857600080fd5b81019080803573ffffffffffffffffffffffffffffffffffffffff16906020019092919080359060200190929190505050612f75565b6040518082815260200191505060405180910390f35b61085c61300c565b6040518082815260200191505060405180910390f35b61087a613012565b6040518082815260200191505060405180910390f35b610898613018565b604051808273ffffffffffffffffffffffffffffffffffffffff16815260200191505060405180910390f35b6108cc61303e565b6040518082815260200191505060405180910390f35b6108ea613044565b6040518082815260200191505060405180910390f35b61090861304a565b60405180821515815260200191505060405180910390f35b6109626004803603602081101561093657600080fd5b81019080803573ffffffffffffffffffffffffffffffffffffffff16906020019092919050505061305d565b6040518082815260200191505060405180910390f35b6109ba6004803603602081101561098e57600080fd5b81019080803573ffffffffffffffffffffffffffffffffffffffff169060200190929190505050613075565b6040518082815260200191505060405180910390f35b6109fe600480360360208110156109e657600080fd5b8101908080351515906020019092919050505061308d565b005b610a4260048036036020811015610a1657600080fd5b81019080803573ffffffffffffffffffffffffffffffffffffffff1690602001909291905050506130b2565b005b610ac560048036036040811015610a5a57600080fd5b810190808035906020019092919080359060200190640100000000811115610a8157600080fd5b820183602082011115610a9357600080fd5b80359060200191846001830284011164010000000083111715610ab557600080fd5b909192939192939050505061314a565b005b610b0960048036036020811015610add57600080fd5b81019080803573ffffffffffffffffffffffffffffffffffffffff169060200190929190505050613235565b6040518082815260200191505060405180910390f35b610b6b60048036036040811015610b3557600080fd5b81019080803573ffffffffffffffffffffffffffffffffffffffff16906020019092919080359060200190929190505050613250565b6040518082815260200191505060405180910390f35b610c0f60048036036080811015610b9757600080fd5b81019080803573ffffffffffffffffffffffffffffffffffffffff169060200190929190803573ffffffffffffffffffffffffffffffffffffffff169060200190929190803573ffffffffffffffffffffffffffffffffffffffff1690602001909291908035151590602001909291905050506132cb565b6040518082815260200191505060405180910390f35b610c5360048036036020811015610c3b57600080fd5b81019080803515159060200190929190505050613366565b005b610c5d61338a565b6040518082815260200191505060405180910390f35b610c7b613390565b6040518082815260200191505060405180910390f35b610c99613396565b60405180821515815260200191505060405180910390f35b610cb96133a7565b60405180821515815260200191505060405180910390f35b610d1360048036036020811015610ce757600080fd5b81019080803573ffffffffffffffffffffffffffffffffffffffff1690602001909291905050506133ba565b6040518082815260200191505060405180910390f35b610dab600480360360e0811015610d3f57600080fd5b81019080803573ffffffffffffffffffffffffffffffffffffffff169060200190929190803590602001909291908035906020019092919080359060200190929190803590602001909291908035151590602001909291908035151590602001909291905050506134ea565b005b610db5613861565b6040518082815260200191505060405180910390f35b610dd3613867565b60405180821515815260200191505060405180910390f35b610e6a6004803603610120811015610e0257600080fd5b81019080803590602001909291908035906020019092919080359060200190929190803590602001909291908035906020019092919080359060200190929190803590602001909291908035906020019092919080351515906020019092919050505061387a565b005b610ed860048036036060811015610e8257600080fd5b8101908080359060200190929190803573ffffffffffffffffffffffffffffffffffffffff169060200190929190803573ffffffffffffffffffffffffffffffffffffffff16906020019092919050505061395d565b6040518082815260200191505060405180910390f35b610f3060048036036020811015610f0457600080fd5b81019080803573ffffffffffffffffffffffffffffffffffffffff169060200190929190505050613ad6565b60405180821515815260200191505060405180910390f35b610f9660048036036040811015610f5e57600080fd5b81019080803573ffffffffffffffffffffffffffffffffffffffff169060200190929190803515159060200190929190505050613af6565b005b61102660048036036080811015610fae57600080fd5b81019080803573ffffffffffffffffffffffffffffffffffffffff169060200190929190803573ffffffffffffffffffffffffffffffffffffffff169060200190929190803573ffffffffffffffffffffffffffffffffffffffff169060200190929190803515159060200190929190505050613b59565b6040518083151581526020018281526020019250505060405180910390f35b6110dd600480360360a081101561105b57600080fd5b81019080803573ffffffffffffffffffffffffffffffffffffffff169060200190929190803573ffffffffffffffffffffffffffffffffffffffff169060200190929190803573ffffffffffffffffffffffffffffffffffffffff16906020019092919080359060200190929190803515159060200190929190505050613c02565b005b6110e761420b565b604051808273ffffffffffffffffffffffffffffffffffffffff16815260200191505060405180910390f35b6111a16004803603608081101561112957600080fd5b81019080803573ffffffffffffffffffffffffffffffffffffffff169060200190929190803573ffffffffffffffffffffffffffffffffffffffff169060200190929190803573ffffffffffffffffffffffffffffffffffffffff169060200190929190803515159060200190929190505050614231565b6040518089815260200188815260200187815260200186815260200185815260200184815260200183151581526020018281526020019850505050505050505060405180910390f35b61122c6004803603602081101561120057600080fd5b81019080803573ffffffffffffffffffffffffffffffffffffffff169060200190929190505050614327565b6040518082815260200191505060405180910390f35b61124a61433f565b6040518082815260200191505060405180910390f35b611268614345565b6040518082815260200191505060405180910390f35b6112aa6004803603602081101561129457600080fd5b810190808035906020019092919050505061434b565b6040518088815260200187815260200186815260200185815260200184815260200183815260200182815260200197505050505050505060405180910390f35b6113786004803603608081101561130057600080fd5b81019080803573ffffffffffffffffffffffffffffffffffffffff169060200190929190803573ffffffffffffffffffffffffffffffffffffffff169060200190929190803573ffffffffffffffffffffffffffffffffffffffff16906020019092919080351515906020019092919050505061438d565b6040518082815260200191505060405180910390f35b6113d0600480360360208110156113a457600080fd5b81019080803573ffffffffffffffffffffffffffffffffffffffff169060200190929190505050614459565b6040518082815260200191505060405180910390f35b611428600480360360208110156113fc57600080fd5b81019080803573ffffffffffffffffffffffffffffffffffffffff169060200190929190505050614471565b60405180821515815260200191505060405180910390f35b6114826004803603602081101561145657600080fd5b81019080803573ffffffffffffffffffffffffffffffffffffffff169060200190929190505050614491565b6040518082815260200191505060405180910390f35b611504600480360360a08110156114ae57600080fd5b81019080803573ffffffffffffffffffffffffffffffffffffffff1690602001909291908035906020019092919080359060200190929190803515159060200190929190803590602001909291905050506144a9565b6040518083151581526020018281526020019250505060405180910390f35b6115656004803603602081101561153957600080fd5b81019080803573ffffffffffffffffffffffffffffffffffffffff16906020019092919050505061460c565b005b6115c96004803603604081101561157d57600080fd5b81019080803573ffffffffffffffffffffffffffffffffffffffff169060200190929190803573ffffffffffffffffffffffffffffffffffffffff16906020019092919050505061476a565b60405180821515815260200191505060405180910390f35b6115e9614799565b6040518082815260200191505060405180910390f35b6116416004803603602081101561161557600080fd5b81019080803573ffffffffffffffffffffffffffffffffffffffff16906020019092919050505061479f565b6040518082815260200191505060405180910390f35b61165f6147b7565b604051808273ffffffffffffffffffffffffffffffffffffffff16815260200191505060405180910390f35b6116cd600480360360208110156116a157600080fd5b81019080803573ffffffffffffffffffffffffffffffffffffffff1690602001909291905050506147dd565b005b6116d7614875565b6040518082815260200191505060405180910390f35b61172f6004803603602081101561170357600080fd5b81019080803573ffffffffffffffffffffffffffffffffffffffff16906020019092919050505061487c565b005b6117936004803603604081101561174757600080fd5b81019080803573ffffffffffffffffffffffffffffffffffffffff169060200190929190803573ffffffffffffffffffffffffffffffffffffffff1690602001909291905050506148c8565b6040518082815260200191505060405180910390f35b6117eb600480360360208110156117bf57600080fd5b81019080803573ffffffffffffffffffffffffffffffffffffffff169060200190929190505050614cbd565b005b61188d600480360360c081101561180357600080fd5b81019080803573ffffffffffffffffffffffffffffffffffffffff169060200190929190803573ffffffffffffffffffffffffffffffffffffffff169060200190929190803573ffffffffffffffffffffffffffffffffffffffff169060200190929190803590602001909291908035906020019092919080359060200190929190505050614d09565b005b611897614e26565b604051808273ffffffffffffffffffffffffffffffffffffffff16815260200191505060405180910390f35b6118cb614e4c565b6040518082815260200191505060405180910390f35b61190f600480360360208110156118f757600080fd5b81019080803515159060200190929190505050614e52565b005b6119736004803603604081101561192757600080fd5b81019080803573ffffffffffffffffffffffffffffffffffffffff169060200190929190803573ffffffffffffffffffffffffffffffffffffffff169060200190929190505050614e77565b6040518082815260200191505060405180910390f35b6119cb6004803603602081101561199f57600080fd5b81019080803573ffffffffffffffffffffffffffffffffffffffff1690602001909291905050506152d1565b6040518082815260200191505060405180910390f35b611aa3600480360360e08110156119f757600080fd5b81019080803573ffffffffffffffffffffffffffffffffffffffff169060200190929190803573ffffffffffffffffffffffffffffffffffffffff169060200190929190803573ffffffffffffffffffffffffffffffffffffffff1690602001909291908035906020019092919080359060200190929190803515159060200190929190803573ffffffffffffffffffffffffffffffffffffffff1690602001909291905050506153db565b6040518082815260200191505060405180910390f35b611b0560048036036040811015611acf57600080fd5b81019080803573ffffffffffffffffffffffffffffffffffffffff16906020019092919080359060200190929190505050615493565b005b611b0f6154e3565b6040518082815260200191505060405180910390f35b611b6760048036036020811015611b3b57600080fd5b81019080803573ffffffffffffffffffffffffffffffffffffffff1690602001909291905050506154e8565b6040518082815260200191505060405180910390f35b611bbd60048036036060811015611b9357600080fd5b81019080803590602001909291908035906020019092919080359060200190929190505050615500565b005b611bc7615552565b6040518082815260200191505060405180910390f35b611c1f60048036036020811015611bf357600080fd5b81019080803573ffffffffffffffffffffffffffffffffffffffff169060200190929190505050615558565b6040518082815260200191505060405180910390f35b611c7760048036036020811015611c4b57600080fd5b81019080803573ffffffffffffffffffffffffffffffffffffffff169060200190929190505050615570565b6040518082815260200191505060405180910390f35b611ccf60048036036020811015611ca357600080fd5b81019080803573ffffffffffffffffffffffffffffffffffffffff169060200190929190505050615588565b005b611cd96155d4565b60405180821515815260200191505060405180910390f35b611d7360048036036060811015611d0757600080fd5b81019080803573ffffffffffffffffffffffffffffffffffffffff169060200190929190803573ffffffffffffffffffffffffffffffffffffffff169060200190929190803573ffffffffffffffffffffffffffffffffffffffff1690602001909291905050506155e7565b6040518082815260200191505060405180910390f35b611d91615a7f565b6040518082815260200191505060405180910390f35b611de960048036036020811015611dbd57600080fd5b81019080803573ffffffffffffffffffffffffffffffffffffffff169060200190929190505050615a90565b6040518082815260200191505060405180910390f35b611e07615aa8565b6040518082815260200191505060405180910390f35b611e6960048036036040811015611e3357600080fd5b81019080803573ffffffffffffffffffffffffffffffffffffffff16906020019092919080359060200190929190505050615aae565b6040518082815260200191505060405180910390f35b611ed560048036036060811015611e9557600080fd5b81019080803573ffffffffffffffffffffffffffffffffffffffff1690602001909291908035906020019092919080359060200190929190505050615add565b6040518082815260200191505060405180910390f35b611ef3615c4e565b60405180821515815260200191505060405180910390f35b611f13615c61565b6040518082815260200191505060405180910390f35b611f7560048036036040811015611f3f57600080fd5b81019080803573ffffffffffffffffffffffffffffffffffffffff16906020019092919080359060200190929190505050615c67565b6040518082815260200191505060405180910390f35b611fd960048036036040811015611fa157600080fd5b81019080803573ffffffffffffffffffffffffffffffffffffffff169060200190929190803515159060200190929190505050615c96565b005b61201d60048036036020811015611ff157600080fd5b81019080803573ffffffffffffffffffffffffffffffffffffffff169060200190929190505050615cf9565b6040518082815260200191505060405180910390f35b61203b615f03565b60405180821515815260200191505060405180910390f35b6120956004803603602081101561206957600080fd5b81019080803573ffffffffffffffffffffffffffffffffffffffff169060200190929190505050615f16565b6040518082815260200191505060405180910390f35b6120ed600480360360208110156120c157600080fd5b81019080803573ffffffffffffffffffffffffffffffffffffffff169060200190929190505050615f2e565b6040518082815260200191505060405180910390f35b61210b615f46565b6040518082815260200191505060405180910390f35b612129615f4c565b60405180821515815260200191505060405180910390f35b6121836004803603602081101561215757600080fd5b81019080803573ffffffffffffffffffffffffffffffffffffffff169060200190929190505050615f5f565b6040518082815260200191505060405180910390f35b612207600480360360608110156121af57600080fd5b81019080803573ffffffffffffffffffffffffffffffffffffffff169060200190929190803573ffffffffffffffffffffffffffffffffffffffff1690602001909291908035151590602001909291905050506160f3565b6040518082815260200191505060405180910390f35b61225f6004803603602081101561223357600080fd5b81019080803573ffffffffffffffffffffffffffffffffffffffff1690602001909291905050506161ea565b6040518083151581526020018281526020019250505060405180910390f35b6122c06004803603602081101561229457600080fd5b81019080803573ffffffffffffffffffffffffffffffffffffffff169060200190929190505050616311565b6040518082815260200191505060405180910390f35b6122de616329565b6040518082815260200191505060405180910390f35b6123366004803603602081101561230a57600080fd5b81019080803573ffffffffffffffffffffffffffffffffffffffff16906020019092919050505061632f565b6040518082815260200191505060405180910390f35b6123b8600480360360a081101561236257600080fd5b81019080803573ffffffffffffffffffffffffffffffffffffffff169060200190929190803590602001909291908035906020019092919080359060200190929190803515159060200190929190505050616347565b6040518082815260200191505060405180910390f35b61243a600480360360608110156123e457600080fd5b81019080803573ffffffffffffffffffffffffffffffffffffffff169060200190929190803573ffffffffffffffffffffffffffffffffffffffff1690602001909291908035906020019092919050505061643a565b005b61247e6004803603602081101561245257600080fd5b81019080803573ffffffffffffffffffffffffffffffffffffffff169060200190929190505050616472565b005b6124ac6004803603602081101561249657600080fd5b81019080803590602001909291905050506164be565b005b6124da600480360360208110156124c457600080fd5b81019080803590602001909291905050506164d0565b005b612576600480360360a08110156124f257600080fd5b81019080803573ffffffffffffffffffffffffffffffffffffffff169060200190929190803573ffffffffffffffffffffffffffffffffffffffff169060200190929190803573ffffffffffffffffffffffffffffffffffffffff1690602001909291908035151590602001909291908035151590602001909291905050506164f1565b604051808381526020018281526020019250505060405180910390f35b6125df600480360360408110156125a957600080fd5b81019080803573ffffffffffffffffffffffffffffffffffffffff1690602001909291908035906020019092919050505061661f565b005b612623600480360360208110156125f757600080fd5b81019080803573ffffffffffffffffffffffffffffffffffffffff1690602001909291905050506166b7565b6040518082815260200191505060405180910390f35b6126416166cf565b6040518082815260200191505060405180910390f35b6126f9600480360360c081101561266d57600080fd5b81019080803573ffffffffffffffffffffffffffffffffffffffff169060200190929190803573ffffffffffffffffffffffffffffffffffffffff169060200190929190803573ffffffffffffffffffffffffffffffffffffffff16906020019092919080351515906020019092919080359060200190929190803590602001909291905050506166d5565b6040518082815260200191505060405180910390f35b6127516004803603602081101561272557600080fd5b81019080803573ffffffffffffffffffffffffffffffffffffffff1690602001909291905050506167fd565b60405180821515815260200191505060405180910390f35b6127ab6004803603602081101561277f57600080fd5b81019080803573ffffffffffffffffffffffffffffffffffffffff16906020019092919050505061681d565b60405180821515815260200191505060405180910390f35b612843600480360360e08110156127d957600080fd5b81019080803573ffffffffffffffffffffffffffffffffffffffff169060200190929190803590602001909291908035906020019092919080351515906020019092919080359060200190929190803590602001909291908035906020019092919050505061683c565b6040518082815260200191505060405180910390f35b612861616913565b6040518082815260200191505060405180910390f35b612925600480360360a081101561288d57600080fd5b81019080803573ffffffffffffffffffffffffffffffffffffffff169060200190929190803573ffffffffffffffffffffffffffffffffffffffff169060200190929190803573ffffffffffffffffffffffffffffffffffffffff169060200190929190803515159060200190929190803573ffffffffffffffffffffffffffffffffffffffff169060200190929190505050616919565b005b61292f616e66565b6040518082815260200191505060405180910390f35b6129876004803603602081101561295b57600080fd5b81019080803573ffffffffffffffffffffffffffffffffffffffff169060200190929190505050616e6c565b6040518082815260200191505060405180910390f35b6129c9600480360360208110156129b357600080fd5b8101908080359060200190929190505050616f76565b604051808273ffffffffffffffffffffffffffffffffffffffff16815260200191505060405180910390f35b612a3760048036036020811015612a0b57600080fd5b81019080803573ffffffffffffffffffffffffffffffffffffffff169060200190929190505050616fb2565b005b612a8560048036036040811015612a4f57600080fd5b81019080803573ffffffffffffffffffffffffffffffffffffffff16906020019092919080359060200190929190505050617283565b005b612ac960048036036020811015612a9d57600080fd5b81019080803573ffffffffffffffffffffffffffffffffffffffff1690602001909291905050506172d3565b6040518082815260200191505060405180910390f35b612b0d60048036036020811015612af557600080fd5b810190808035151590602001909291905050506172eb565b005b612b7160048036036040811015612b2557600080fd5b81019080803573ffffffffffffffffffffffffffffffffffffffff169060200190929190803573ffffffffffffffffffffffffffffffffffffffff169060200190929190505050617310565b6040518082815260200191505060405180910390f35b612bc960048036036020811015612b9d57600080fd5b81019080803573ffffffffffffffffffffffffffffffffffffffff1690602001909291905050506173cc565b60405180821515815260200191505060405180910390f35b612be96173ec565b604051808273ffffffffffffffffffffffffffffffffffffffff16815260200191505060405180910390f35b612c1d617412565b604051808273ffffffffffffffffffffffffffffffffffffffff16815260200191505060405180910390f35b612c9f60048036036060811015612c5f57600080fd5b81019080803573ffffffffffffffffffffffffffffffffffffffff1690602001909291908035906020019092919080359060200190929190505050617438565b6040518082815260200191505060405180910390f35b612d1760048036036040811015612ccb57600080fd5b81019080803573ffffffffffffffffffffffffffffffffffffffff169060200190929190803573ffffffffffffffffffffffffffffffffffffffff1690602001909291905050506174c2565b005b612d21617879565b6040518082815260200191505060405180910390f35b612dcf600480360360a0811015612d4d57600080fd5b81019080803573ffffffffffffffffffffffffffffffffffffffff169060200190929190803573ffffffffffffffffffffffffffffffffffffffff169060200190929190803573ffffffffffffffffffffffffffffffffffffffff1690602001909291908035151590602001909291908035906020019092919050505061787f565b6040518082815260200191505060405180910390f35b612e1160048036036020811015612dfb57600080fd5b810190808035906020019092919050505061799e565b6040518080602001828103825283818151815260200191508051906020019080838360005b83811015612e51578082015181840152602081019050612e36565b50505050905090810190601f168015612e7e5780820380516001836020036101000a031916815260200191505b509250505060405180910390f35b600080602560008473ffffffffffffffffffffffffffffffffffffffff1673ffffffffffffffffffffffffffffffffffffffff1681526020019081526020016000205490506000811415612ee4576000915050612f4f565b612f4b81612f3d620f4240602660008873ffffffffffffffffffffffffffffffffffffffff1673ffffffffffffffffffffffffffffffffffffffff16815260200190815260200160002054617a4e90919063ffffffff16565b617ad490919063ffffffff16565b9150505b919050565b6c0c9f2c9cd04674edea4000000060640281565b6000601b80549050905090565b600080821415612f885760009050613006565b6000612f93846152d1565b90506000601d60008673ffffffffffffffffffffffffffffffffffffffff1673ffffffffffffffffffffffffffffffffffffffff16815260200190815260200160002054905061300181600a0a612ff38487617a4e90919063ffffffff16565b617ad490919063ffffffff16565b925050505b92915050565b600b5481565b61271081565b600660009054906101000a900473ffffffffffffffffffffffffffffffffffffffff1681565b60145481565b60095481565b601660039054906101000a900460ff1681565b60236020528060005260406000206000915090505481565b602c6020528060005260406000206000915090505481565b613095617b1e565b80601660026101000a81548160ff02191690831515021790555050565b6001601860003373ffffffffffffffffffffffffffffffffffffffff1673ffffffffffffffffffffffffffffffffffffffff16815260200190815260200160002060008373ffffffffffffffffffffffffffffffffffffffff1673ffffffffffffffffffffffffffffffffffffffff16815260200190815260200160002060006101000a81548160ff02191690831515021790555050565b600260009054906101000a900473ffffffffffffffffffffffffffffffffffffffff1673ffffffffffffffffffffffffffffffffffffffff163373ffffffffffffffffffffffffffffffffffffffff161461320d576040517f08c379a000000000000000000000000000000000000000000000000000000000815260040180806020018281038252601e8152602001807f5661756c743a20696e76616c6964206572726f72436f6e74726f6c6c6572000081525060200191505060405180910390fd5b818160306000868152602001908152602001600020919061322f92919061a490565b50505050565b60006132498261324484615f5f565b612f75565b9050919050565b60008061325c84616e6c565b90506000613292826132846c0c9f2c9cd04674edea4000000087617a4e90919063ffffffff16565b617ad490919063ffffffff16565b90506132c181600560009054906101000a900473ffffffffffffffffffffffffffffffffffffffff168761395d565b9250505092915050565b600084848484604051602001808573ffffffffffffffffffffffffffffffffffffffff1660601b81526014018473ffffffffffffffffffffffffffffffffffffffff1660601b81526014018373ffffffffffffffffffffffffffffffffffffffff1660601b815260140182151560f81b8152600101945050505050604051602081830303815290604052805190602001209050949350505050565b61336e617b1e565b806001806101000a81548160ff02191690831515021790555050565b600f5481565b61271081565b60018054906101000a900460ff1681565b600160009054906101000a900460ff1681565b600080600560009054906101000a900473ffffffffffffffffffffffffffffffffffffffff1673ffffffffffffffffffffffffffffffffffffffff166318160ddd6040518163ffffffff1660e01b815260040160206040518083038186803b15801561342557600080fd5b505afa158015613439573d6000803e3d6000fd5b505050506040513d602081101561344f57600080fd5b8101908080519060200190929190505050905060008114156134755760009150506134e5565b6000602260008573ffffffffffffffffffffffffffffffffffffffff1673ffffffffffffffffffffffffffffffffffffffff1681526020019081526020016000205490506134e06015546134d28484617a4e90919063ffffffff16565b617ad490919063ffffffff16565b925050505b919050565b6134f2617b1e565b601c60008873ffffffffffffffffffffffffffffffffffffffff1673ffffffffffffffffffffffffffffffffffffffff16815260200190815260200160002060009054906101000a900460ff166135c3576135596001600754617b7b90919063ffffffff16565b600781905550601b879080600181540180825580915050600190039060005260206000200160009091909190916101000a81548173ffffffffffffffffffffffffffffffffffffffff021916908373ffffffffffffffffffffffffffffffffffffffff1602179055505b6000601554905061361c602260008a73ffffffffffffffffffffffffffffffffffffffff1673ffffffffffffffffffffffffffffffffffffffff1681526020019081526020016000205482617c0390919063ffffffff16565b90506001601c60008a73ffffffffffffffffffffffffffffffffffffffff1673ffffffffffffffffffffffffffffffffffffffff16815260200190815260200160002060006101000a81548160ff02191690831515021790555086601d60008a73ffffffffffffffffffffffffffffffffffffffff1673ffffffffffffffffffffffffffffffffffffffff1681526020019081526020016000208190555085602260008a73ffffffffffffffffffffffffffffffffffffffff1673ffffffffffffffffffffffffffffffffffffffff1681526020019081526020016000208190555084601e60008a73ffffffffffffffffffffffffffffffffffffffff1673ffffffffffffffffffffffffffffffffffffffff1681526020019081526020016000208190555083602460008a73ffffffffffffffffffffffffffffffffffffffff1673ffffffffffffffffffffffffffffffffffffffff1681526020019081526020016000208190555082601f60008a73ffffffffffffffffffffffffffffffffffffffff1673ffffffffffffffffffffffffffffffffffffffff16815260200190815260200160002060006101000a81548160ff02191690831515021790555081602060008a73ffffffffffffffffffffffffffffffffffffffff1673ffffffffffffffffffffffffffffffffffffffff16815260200190815260200160002060006101000a81548160ff0219169083151502179055506138478682617b7b90919063ffffffff16565b60158190555061385688616e6c565b505050505050505050565b60175481565b600160029054906101000a900460ff1681565b613882617b1e565b6138926101f48a11156003617c4d565b6138a26101f48911156004617c4d565b6138b26101f48811156005617c4d565b6138c26101f48711156006617c4d565b6138d26101f48611156007617c4d565b6138e26101f48511156008617c4d565b6139006c0c9f2c9cd04674edea400000006064028411156009617c4d565b88600a8190555087600b8190555086600c8190555085600d8190555084600e8190555083600f81905550826009819055508160108190555080601160006101000a81548160ff021916908315150217905550505050505050505050565b600080600560009054906101000a900473ffffffffffffffffffffffffffffffffffffffff1673ffffffffffffffffffffffffffffffffffffffff168473ffffffffffffffffffffffffffffffffffffffff16146139fa57601d60008573ffffffffffffffffffffffffffffffffffffffff1673ffffffffffffffffffffffffffffffffffffffff168152602001908152602001600020546139fd565b60125b90506000600560009054906101000a900473ffffffffffffffffffffffffffffffffffffffff1673ffffffffffffffffffffffffffffffffffffffff168473ffffffffffffffffffffffffffffffffffffffff1614613a9b57601d60008573ffffffffffffffffffffffffffffffffffffffff1673ffffffffffffffffffffffffffffffffffffffff16815260200190815260200160002054613a9e565b60125b9050613acb82600a0a613abd83600a0a89617a4e90919063ffffffff16565b617ad490919063ffffffff16565b925050509392505050565b601f6020528060005260406000206000915054906101000a900460ff1681565b613afe617b1e565b80601960008473ffffffffffffffffffffffffffffffffffffffff1673ffffffffffffffffffffffffffffffffffffffff16815260200190815260200160002060006101000a81548160ff0219169083151502179055505050565b6000806000613b6a878787876132cb565b9050613b7461a510565b602b60008381526020019081526020016000206040518060e00160405290816000820154815260200160018201548152602001600282015481526020016003820154815260200160048201548152602001600582015481526020016006820154815250509050613bf38682600001518360400151888560c001516144a9565b93509350505094509492505050565b60026000541415613c7b576040517f08c379a000000000000000000000000000000000000000000000000000000000815260040180806020018281038252601f8152602001807f5265656e7472616e637947756172643a207265656e7472616e742063616c6c0081525060200191505060405180910390fd5b6002600081905550613c9d600160029054906101000a900460ff16601c617c4d565b613ca5617d29565b613cae85617d4c565b613cb9848483617e78565b600160039054906101000a900473ffffffffffffffffffffffffffffffffffffffff1673ffffffffffffffffffffffffffffffffffffffff16639d5c28fa86868686866040518663ffffffff1660e01b8152600401808673ffffffffffffffffffffffffffffffffffffffff1681526020018573ffffffffffffffffffffffffffffffffffffffff1681526020018473ffffffffffffffffffffffffffffffffffffffff16815260200183815260200182151581526020019550505050505060006040518083038186803b158015613d9057600080fd5b505afa158015613da4573d6000803e3d6000fd5b50505050613db284846174c2565b6000613dc0868686856132cb565b90506000602b60008381526020019081526020016000209050600083613dee57613de9866152d1565b613df8565b613df786616e6c565b5b9050600082600001541415613e11578082600201819055505b60008260000154118015613e255750600085115b15613e4e57613e45868360000154846002015487858a886006015461683c565b82600201819055505b6000613e67898989888a886000015489600301546180ce565b90506000613e7489618218565b90506000613e828a83612f75565b9050613e9b818660010154617b7b90919063ffffffff16565b8560010181905550613eb58386600101541015601d617c4d565b613ecc838660010154617c0390919063ffffffff16565b8560010181905550613edf8a8a896160f3565b8560030181905550613efe888660000154617b7b90919063ffffffff16565b8560000181905550428560060181905550613f216000866000015411601e617c4d565b613f3385600001548660010154618363565b613f418b8b8b8a60016164f1565b50506000613f4f8b8a615c67565b9050613f68818760040154617b7b90919063ffffffff16565b8660040181905550613f7a8b82618392565b8715613fc857613f9c8b613f97868c617b7b90919063ffffffff16565b61850c565b613fa68b836185fa565b613fb08b846186e8565b613fc38b613fbe8d87615aae565b6188ca565b6140b3565b6000602d60008c73ffffffffffffffffffffffffffffffffffffffff1673ffffffffffffffffffffffffffffffffffffffff1681526020019081526020016000205414156140595784602e60008c73ffffffffffffffffffffffffffffffffffffffff1673ffffffffffffffffffffffffffffffffffffffff168152602001908152602001600020819055506140a8565b6140648a868b615add565b602e60008c73ffffffffffffffffffffffffffffffffffffffff1673ffffffffffffffffffffffffffffffffffffffff168152602001908152602001600020819055505b6140b28a8a618a7b565b5b7f2fe68525253654c21998f35787a8d0f361905ef647c854092430ab65f2f15022878d8d8d868e8e8c8c604051808a81526020018973ffffffffffffffffffffffffffffffffffffffff1681526020018873ffffffffffffffffffffffffffffffffffffffff1681526020018773ffffffffffffffffffffffffffffffffffffffff1681526020018681526020018581526020018415158152602001838152602001828152602001995050505050505050505060405180910390a17f20853733b590dce729d9f4628682ebd9a34d2354e72679e66f43a008fc03b773878760000154886001015489600201548a600301548b600401548c600501548c604051808981526020018881526020018781526020018681526020018581526020018481526020018381526020018281526020019850505050505050505060405180910390a15050505050505060016000819055505050505050565b600260009054906101000a900473ffffffffffffffffffffffffffffffffffffffff1681565b600080600080600080600080600061424b8d8d8d8d6132cb565b905061425561a510565b602b60008381526020019081526020016000206040518060e001604052908160008201548152602001600182015481526020016002820154815260200160038201548152602001600482015481526020016005820154815260200160068201548152505090506000808260a00151136142d5578160a001516000036142db565b8160a001515b9050816000015182602001518360400151846060015185608001518560008860a0015112158860c001519a509a509a509a509a509a509a509a5050505094995094995094999196509450565b60276020528060005260406000206000915090505481565b6101f481565b600c5481565b602b6020528060005260406000206000915090508060000154908060010154908060020154908060030154908060040154908060050154908060060154905087565b60008061439c868686866132cb565b90506143a661a510565b602b60008381526020019081526020016000206040518060e0016040529081600082015481526020016001820154815260200160028201548152602001600382015481526020016004820154815260200160058201548152602001600682015481525050905061441e60008260200151116025617c4d565b61444d816020015161443f6127108460000151617a4e90919063ffffffff16565b617ad490919063ffffffff16565b92505050949350505050565b60216020528060005260406000206000915090505481565b60196020528060005260406000206000915054906101000a900460ff1681565b60256020528060005260406000206000915090505481565b6000806144ba600086116026617c4d565b6000846144cf576144ca88616e6c565b6144d9565b6144d8886152d1565b5b905060008187116144fc576144f78783617c0390919063ffffffff16565b614510565b61450f8288617c0390919063ffffffff16565b5b905060006145398861452b848c617a4e90919063ffffffff16565b617ad490919063ffffffff16565b90506000871561454d578884119050614553565b83891190505b600061456a60105489617b7b90919063ffffffff16565b42116145b557601e60008d73ffffffffffffffffffffffffffffffffffffffff1673ffffffffffffffffffffffffffffffffffffffff168152602001908152602001600020546145b8565b60005b90508180156145ed57506145d5818c617a4e90919063ffffffff16565b6145ea61271085617a4e90919063ffffffff16565b11155b156145f757600092505b81839650965050505050509550959350505050565b60026000541415614685576040517f08c379a000000000000000000000000000000000000000000000000000000000815260040180806020018281038252601f8152602001807f5265656e7472616e637947756172643a207265656e7472616e742063616c6c0081525060200191505060405180910390fd5b60026000819055506146e4601c60008373ffffffffffffffffffffffffffffffffffffffff1673ffffffffffffffffffffffffffffffffffffffff16815260200190815260200160002060009054906101000a900460ff16600e617c4d565b60006146ef82618218565b90506146ff60008211600f617c4d565b61470982826186e8565b7fa5a389190ebf6170a133bda5c769b77f4d6715b8aa172ec0ddf8473d0b4944bd8282604051808373ffffffffffffffffffffffffffffffffffffffff1681526020018281526020019250505060405180910390a150600160008190555050565b60186020528160005260406000206020528060005260406000206000915091509054906101000a900460ff1681565b60075481565b602e6020528060005260406000206000915090505481565b600160039054906101000a900473ffffffffffffffffffffffffffffffffffffffff1681565b6000601860003373ffffffffffffffffffffffffffffffffffffffff1673ffffffffffffffffffffffffffffffffffffffff16815260200190815260200160002060008373ffffffffffffffffffffffffffffffffffffffff1673ffffffffffffffffffffffffffffffffffffffff16815260200190815260200160002060006101000a81548160ff02191690831515021790555050565b620f424081565b614884617b1e565b80600160036101000a81548173ffffffffffffffffffffffffffffffffffffffff021916908373ffffffffffffffffffffffffffffffffffffffff16021790555050565b600060026000541415614943576040517f08c379a000000000000000000000000000000000000000000000000000000000815260040180806020018281038252601f8152602001807f5265656e7472616e637947756172643a207265656e7472616e742063616c6c0081525060200191505060405180910390fd5b6002600081905550614953618c17565b6149aa601c60008573ffffffffffffffffffffffffffffffffffffffff1673ffffffffffffffffffffffffffffffffffffffff16815260200190815260200160002060009054906101000a900460ff166013617c4d565b6001601660016101000a81548160ff02191690831515021790555060006149f2600560009054906101000a900473ffffffffffffffffffffffffffffffffffffffff16618218565b9050614a02600082116014617c4d565b614a0c84856174c2565b6000614a188583613250565b9050614a28600082116015617c4d565b614a328583618c86565b614a3c85826188ca565b600560009054906101000a900473ffffffffffffffffffffffffffffffffffffffff1673ffffffffffffffffffffffffffffffffffffffff16639dc29fac30846040518363ffffffff1660e01b8152600401808373ffffffffffffffffffffffffffffffffffffffff16815260200182815260200192505050600060405180830381600087803b158015614acf57600080fd5b505af1158015614ae3573d6000803e3d6000fd5b50505050614b12600560009054906101000a900473ffffffffffffffffffffffffffffffffffffffff16618e22565b6000600160039054906101000a900473ffffffffffffffffffffffffffffffffffffffff1673ffffffffffffffffffffffffffffffffffffffff1663eb0835bf87856040518363ffffffff1660e01b8152600401808373ffffffffffffffffffffffffffffffffffffffff1681526020018281526020019250505060206040518083038186803b158015614ba557600080fd5b505afa158015614bb9573d6000803e3d6000fd5b505050506040513d6020811015614bcf57600080fd5b810190808051906020019092919050505090506000614bef878484618f10565b9050614bff600082116016617c4d565b614c0a87828861906e565b7fd732b7828fa6cee72c285eac756fc66a7477e3dc22e22e7c432f1c265d40b4838688868486604051808673ffffffffffffffffffffffffffffffffffffffff1681526020018573ffffffffffffffffffffffffffffffffffffffff1681526020018481526020018381526020018281526020019550505050505060405180910390a16000601660016101000a81548160ff02191690831515021790555080945050505050600160008190555092915050565b614cc5617b1e565b80600460006101000a81548173ffffffffffffffffffffffffffffffffffffffff021916908373ffffffffffffffffffffffffffffffffffffffff16021790555050565b614d11617b1e565b614d2c600160009054906101000a900460ff16156001617c4d565b60018060006101000a81548160ff02191690831515021790555085600360006101000a81548173ffffffffffffffffffffffffffffffffffffffff021916908373ffffffffffffffffffffffffffffffffffffffff16021790555084600560006101000a81548173ffffffffffffffffffffffffffffffffffffffff021916908373ffffffffffffffffffffffffffffffffffffffff16021790555083600460006101000a81548173ffffffffffffffffffffffffffffffffffffffff021916908373ffffffffffffffffffffffffffffffffffffffff160217905550826009819055508160138190555080601481905550505050505050565b600460009054906101000a900473ffffffffffffffffffffffffffffffffffffffff1681565b600a5481565b614e5a617b1e565b80600160026101000a81548160ff02191690831515021790555050565b600060026000541415614ef2576040517f08c379a000000000000000000000000000000000000000000000000000000000815260040180806020018281038252601f8152602001807f5265656e7472616e637947756172643a207265656e7472616e742063616c6c0081525060200191505060405180910390fd5b6002600081905550614f02618c17565b614f59601c60008573ffffffffffffffffffffffffffffffffffffffff1673ffffffffffffffffffffffffffffffffffffffff16815260200190815260200160002060009054906101000a900460ff166010617c4d565b6001601660016101000a81548160ff0219169083151502179055506000614f7f84618218565b9050614f8f600082116011617c4d565b614f9984856174c2565b6000614fa4856152d1565b90506000614fda6c0c9f2c9cd04674edea40000000614fcc8486617a4e90919063ffffffff16565b617ad490919063ffffffff16565b90506150098187600560009054906101000a900473ffffffffffffffffffffffffffffffffffffffff1661395d565b9050615019600082116012617c4d565b6000600160039054906101000a900473ffffffffffffffffffffffffffffffffffffffff1673ffffffffffffffffffffffffffffffffffffffff16634adeddc688846040518363ffffffff1660e01b8152600401808373ffffffffffffffffffffffffffffffffffffffff1681526020018281526020019250505060206040518083038186803b1580156150ac57600080fd5b505afa1580156150c0573d6000803e3d6000fd5b505050506040513d60208110156150d657600080fd5b8101908080519060200190929190505050905060006150f6888684618f10565b9050600061512c6c0c9f2c9cd04674edea4000000061511e8785617a4e90919063ffffffff16565b617ad490919063ffffffff16565b905061515b818a600560009054906101000a900473ffffffffffffffffffffffffffffffffffffffff1661395d565b90506151678982619183565b61517189836186e8565b600560009054906101000a900473ffffffffffffffffffffffffffffffffffffffff1673ffffffffffffffffffffffffffffffffffffffff166340c10f1989836040518363ffffffff1660e01b8152600401808373ffffffffffffffffffffffffffffffffffffffff16815260200182815260200192505050600060405180830381600087803b15801561520457600080fd5b505af1158015615218573d6000803e3d6000fd5b505050507fab4c77c74cd32c85f35416cf03e7ce9e2d4387f7b7f2c1f4bf53daaecf8ea72d888a888487604051808673ffffffffffffffffffffffffffffffffffffffff1681526020018573ffffffffffffffffffffffffffffffffffffffff1681526020018481526020018381526020018281526020019550505050505060405180910390a16000601660016101000a81548160ff021916908315150217905550809650505050505050600160008190555092915050565b6000600460009054906101000a900473ffffffffffffffffffffffffffffffffffffffff1673ffffffffffffffffffffffffffffffffffffffff16632fc3a70a836000601660009054906101000a900460ff16601660019054906101000a900460ff166040518563ffffffff1660e01b8152600401808573ffffffffffffffffffffffffffffffffffffffff16815260200184151581526020018315158152602001821515815260200194505050505060206040518083038186803b15801561539957600080fd5b505afa1580156153ad573d6000803e3d6000fd5b505050506040513d60208110156153c357600080fd5b81019080805190602001909291905050509050919050565b600060026000541415615456576040517f08c379a000000000000000000000000000000000000000000000000000000000815260040180806020018281038252601f8152602001807f5265656e7472616e637947756172643a207265656e7472616e742063616c6c0081525060200191505060405180910390fd5b6002600081905550615466617d29565b61546f88617d4c565b61547e8888888888888861930c565b90506001600081905550979650505050505050565b61549b617b1e565b80602760008473ffffffffffffffffffffffffffffffffffffffff1673ffffffffffffffffffffffffffffffffffffffff168152602001908152602001600020819055505050565b601281565b601e6020528060005260406000206000915090505481565b615508617b1e565b615518610e10841015600a617c4d565b615528612710831115600b617c4d565b615538612710821115600c617c4d565b826012819055508160138190555080601481905550505050565b61271081565b602d6020528060005260406000206000915090505481565b601d6020528060005260406000206000915090505481565b615590617b1e565b80600260006101000a81548173ffffffffffffffffffffffffffffffffffffffff021916908373ffffffffffffffffffffffffffffffffffffffff16021790555050565b601660029054906101000a900460ff1681565b600060026000541415615662576040517f08c379a000000000000000000000000000000000000000000000000000000000815260040180806020018281038252601f8152602001807f5265656e7472616e637947756172643a207265656e7472616e742063616c6c0081525060200191505060405180910390fd5b600260008190555061568260018054906101000a900460ff166017617c4d565b6156d9601c60008673ffffffffffffffffffffffffffffffffffffffff1673ffffffffffffffffffffffffffffffffffffffff16815260200190815260200160002060009054906101000a900460ff166018617c4d565b615730601c60008573ffffffffffffffffffffffffffffffffffffffff1673ffffffffffffffffffffffffffffffffffffffff16815260200190815260200160002060009054906101000a900460ff166019617c4d565b61576a8373ffffffffffffffffffffffffffffffffffffffff168573ffffffffffffffffffffffffffffffffffffffff161415601a617c4d565b6001601660016101000a81548160ff02191690831515021790555061578f84856174c2565b61579983846174c2565b60006157a485618218565b90506157b460008211601b617c4d565b60006157bf866152d1565b905060006157cc86616e6c565b905060006157f5826157e78587617a4e90919063ffffffff16565b617ad490919063ffffffff16565b905061580281898961395d565b905060006158386c0c9f2c9cd04674edea4000000061582a8688617a4e90919063ffffffff16565b617ad490919063ffffffff16565b9050615867818a600560009054906101000a900473ffffffffffffffffffffffffffffffffffffffff1661395d565b90506000600160039054906101000a900473ffffffffffffffffffffffffffffffffffffffff1673ffffffffffffffffffffffffffffffffffffffff1663da1338168b8b856040518463ffffffff1660e01b8152600401808473ffffffffffffffffffffffffffffffffffffffff1681526020018373ffffffffffffffffffffffffffffffffffffffff168152602001828152602001935050505060206040518083038186803b15801561591a57600080fd5b505afa15801561592e573d6000803e3d6000fd5b505050506040513d602081101561594457600080fd5b8101908080519060200190929190505050905060006159648a8584618f10565b90506159708b84619183565b61597a8a84618c86565b6159848b886186e8565b61598e8a856188ca565b6159978a619955565b6159a28a828b61906e565b7f0874b2d545cb271cdbda4e093020c452328b24af12382ed62c4d00f5c26709db898c8c8a888688604051808873ffffffffffffffffffffffffffffffffffffffff1681526020018773ffffffffffffffffffffffffffffffffffffffff1681526020018673ffffffffffffffffffffffffffffffffffffffff16815260200185815260200184815260200183815260200182815260200197505050505050505060405180910390a16000601660016101000a81548160ff0219169083151502179055508097505050505050505060016000819055509392505050565b6c0c9f2c9cd04674edea4000000081565b602f6020528060005260406000206000915090505481565b60125481565b600080821415615ac15760009050615ad7565b615ad48383615acf86616e6c565b617438565b90505b92915050565b600080602d60008673ffffffffffffffffffffffffffffffffffffffff1673ffffffffffffffffffffffffffffffffffffffff1681526020019081526020016000205490506000602e60008773ffffffffffffffffffffffffffffffffffffffff1673ffffffffffffffffffffffffffffffffffffffff1681526020019081526020016000205490506000858211615b8757615b828287617c0390919063ffffffff16565b615b9b565b615b9a8683617c0390919063ffffffff16565b5b90506000615bc483615bb68487617a4e90919063ffffffff16565b617ad490919063ffffffff16565b9050600087841190506000615be28887617b7b90919063ffffffff16565b9050600082615c0357615bfe8483617b7b90919063ffffffff16565b615c17565b615c168483617c0390919063ffffffff16565b5b9050615c3e81615c30848d617a4e90919063ffffffff16565b617ad490919063ffffffff16565b9750505050505050509392505050565b601160009054906101000a900460ff1681565b600d5481565b600080821415615c7a5760009050615c90565b615c8d8383615c88866152d1565b617438565b90505b92915050565b615c9e617b1e565b80601a60008473ffffffffffffffffffffffffffffffffffffffff1673ffffffffffffffffffffffffffffffffffffffff16815260200190815260200160002060006101000a81548160ff0219169083151502179055505050565b600042615d50601254602a60008673ffffffffffffffffffffffffffffffffffffffff1673ffffffffffffffffffffffffffffffffffffffff16815260200190815260200160002054617b7b90919063ffffffff16565b1115615d5f5760009050615efe565b6000615dc7601254615db9602a60008773ffffffffffffffffffffffffffffffffffffffff1673ffffffffffffffffffffffffffffffffffffffff1681526020019081526020016000205442617c0390919063ffffffff16565b617ad490919063ffffffff16565b90506000602560008573ffffffffffffffffffffffffffffffffffffffff1673ffffffffffffffffffffffffffffffffffffffff1681526020019081526020016000205490506000811415615e2157600092505050615efe565b6000601f60008673ffffffffffffffffffffffffffffffffffffffff1673ffffffffffffffffffffffffffffffffffffffff16815260200190815260200160002060009054906101000a900460ff16615e7c57601354615e80565b6014545b9050615ef882615eea85615edc602660008b73ffffffffffffffffffffffffffffffffffffffff1673ffffffffffffffffffffffffffffffffffffffff1681526020019081526020016000205486617a4e90919063ffffffff16565b617a4e90919063ffffffff16565b617ad490919063ffffffff16565b93505050505b919050565b601660009054906101000a900460ff1681565b60226020528060005260406000206000915090505481565b60246020528060005260406000206000915090505481565b60085481565b601660019054906101000a900460ff1681565b6000601f60008373ffffffffffffffffffffffffffffffffffffffff1673ffffffffffffffffffffffffffffffffffffffff16815260200190815260200160002060009054906101000a900460ff1615615ffa57602560008373ffffffffffffffffffffffffffffffffffffffff1673ffffffffffffffffffffffffffffffffffffffff1681526020019081526020016000205490506160ee565b600061604583602860008673ffffffffffffffffffffffffffffffffffffffff1673ffffffffffffffffffffffffffffffffffffffff16815260200190815260200160002054615aae565b90506160ea602660008573ffffffffffffffffffffffffffffffffffffffff1673ffffffffffffffffffffffffffffffffffffffff168152602001908152602001600020546160dc602560008773ffffffffffffffffffffffffffffffffffffffff1673ffffffffffffffffffffffffffffffffffffffff1681526020019081526020016000205484617b7b90919063ffffffff16565b617c0390919063ffffffff16565b9150505b919050565b6000600160039054906101000a900473ffffffffffffffffffffffffffffffffffffffff1673ffffffffffffffffffffffffffffffffffffffff1663b1cc53ab8585856040518463ffffffff1660e01b8152600401808473ffffffffffffffffffffffffffffffffffffffff1681526020018373ffffffffffffffffffffffffffffffffffffffff1681526020018215158152602001935050505060206040518083038186803b1580156161a657600080fd5b505afa1580156161ba573d6000803e3d6000fd5b505050506040513d60208110156161d057600080fd5b810190808051906020019092919050505090509392505050565b6000806000602d60008573ffffffffffffffffffffffffffffffffffffffff1673ffffffffffffffffffffffffffffffffffffffff168152602001908152602001600020549050600081141561624757600080925092505061630c565b600061625285616e6c565b90506000602e60008773ffffffffffffffffffffffffffffffffffffffff1673ffffffffffffffffffffffffffffffffffffffff16815260200190815260200160002054905060008282116162b9576162b48284617c0390919063ffffffff16565b6162cd565b6162cc8383617c0390919063ffffffff16565b5b905060006162f6836162e88488617a4e90919063ffffffff16565b617ad490919063ffffffff16565b9050600084841190508082975097505050505050505b915091565b60266020528060005260406000206000915090505481565b60135481565b60296020528060005260406000206000915090505481565b6000600160039054906101000a900473ffffffffffffffffffffffffffffffffffffffff1673ffffffffffffffffffffffffffffffffffffffff1663c7e074c387878787876040518663ffffffff1660e01b8152600401808673ffffffffffffffffffffffffffffffffffffffff16815260200185815260200184815260200183815260200182151581526020019550505050505060206040518083038186803b1580156163f457600080fd5b505afa158015616408573d6000803e3d6000fd5b505050506040513d602081101561641e57600080fd5b8101908080519060200190929190505050905095945050505050565b616442617b1e565b61646d83828473ffffffffffffffffffffffffffffffffffffffff16619a4c9092919063ffffffff16565b505050565b61647a617b1e565b80600660006101000a81548173ffffffffffffffffffffffffffffffffffffffff021916908373ffffffffffffffffffffffffffffffffffffffff16021790555050565b6164c6617b1e565b8060178190555050565b6164d8617b1e565b6164e761271082116002617c4d565b8060088190555050565b600080600160039054906101000a900473ffffffffffffffffffffffffffffffffffffffff1673ffffffffffffffffffffffffffffffffffffffff1663d54d5a9f88888888886040518663ffffffff1660e01b8152600401808673ffffffffffffffffffffffffffffffffffffffff1681526020018573ffffffffffffffffffffffffffffffffffffffff1681526020018473ffffffffffffffffffffffffffffffffffffffff1681526020018315158152602001821515815260200195505050505050604080518083038186803b1580156165cc57600080fd5b505afa1580156165e0573d6000803e3d6000fd5b505050506040513d60408110156165f657600080fd5b810190808051906020019092919080519060200190929190505050915091509550959350505050565b616627617b1e565b6000602360008473ffffffffffffffffffffffffffffffffffffffff1673ffffffffffffffffffffffffffffffffffffffff168152602001908152602001600020549050808211156166955761668f8361668a8385617c0390919063ffffffff16565b619183565b506166b3565b6166b1836166ac8484617c0390919063ffffffff16565b618c86565b505b5050565b602a6020528060005260406000206000915090505481565b60105481565b6000600160039054906101000a900473ffffffffffffffffffffffffffffffffffffffff1673ffffffffffffffffffffffffffffffffffffffff1663da76524c8888888888886040518763ffffffff1660e01b8152600401808773ffffffffffffffffffffffffffffffffffffffff1681526020018673ffffffffffffffffffffffffffffffffffffffff1681526020018573ffffffffffffffffffffffffffffffffffffffff1681526020018415158152602001838152602001828152602001965050505050505060206040518083038186803b1580156167b657600080fd5b505afa1580156167ca573d6000803e3d6000fd5b505050506040513d60208110156167e057600080fd5b810190808051906020019092919050505090509695505050505050565b601c6020528060005260406000206000915054906101000a900460ff1681565b602080528060005260406000206000915054906101000a900460ff1681565b600080600061684e8a8a8a8a886144a9565b915091506000616867868b617b7b90919063ffffffff16565b9050600088156168a9578361688e576168898383617c0390919063ffffffff16565b6168a2565b6168a18383617b7b90919063ffffffff16565b5b90506168dd565b836168c6576168c18383617b7b90919063ffffffff16565b6168da565b6168d98383617c0390919063ffffffff16565b5b90505b616902816168f4848b617a4e90919063ffffffff16565b617ad490919063ffffffff16565b945050505050979650505050505050565b60155481565b60026000541415616992576040517f08c379a000000000000000000000000000000000000000000000000000000000815260040180806020018281038252601f8152602001807f5265656e7472616e637947756172643a207265656e7472616e742063616c6c0081525060200191505060405180910390fd5b6002600081905550601660039054906101000a900460ff1615616a0757616a06601960003373ffffffffffffffffffffffffffffffffffffffff1673ffffffffffffffffffffffffffffffffffffffff16815260200190815260200160002060009054906101000a900460ff166022617c4d565b5b6000601660006101000a81548160ff021916908315150217905550616a2c84846174c2565b6000616a3a868686866132cb565b9050616a4461a510565b602b60008381526020019081526020016000206040518060e00160405290816000820154815260200160018201548152602001600282015481526020016003820154815260200160048201548152602001600582015481526020016006820154815250509050616abc60008260000151116023617c4d565b600080616acd8989898960006164f1565b91509150616ae060008314156024617c4d565b6002821415616b2257616afd898989600087600001518b8f61930c565b506001601660006101000a81548160ff02191690831515021790555050505050616e57565b6000616b2e8983615aae565b9050616b8281602c60008c73ffffffffffffffffffffffffffffffffffffffff1673ffffffffffffffffffffffffffffffffffffffff16815260200190815260200160002054617b7b90919063ffffffff16565b602c60008b73ffffffffffffffffffffffffffffffffffffffff1673ffffffffffffffffffffffffffffffffffffffff168152602001908152602001600020819055507f5d0c0019d3d45fadeb74eff9d2c9924d146d000ac6bcf3c28bf0ac3c9baa011a898383604051808473ffffffffffffffffffffffffffffffffffffffff168152602001838152602001828152602001935050505060405180910390a1616c30898560800151619aee565b8615616c6e57616c5a89616c5586602001518760000151617c0390919063ffffffff16565b6185fa565b616c6d89616c688b85615aae565b6188ca565b5b600087616c8357616c7e89616e6c565b616c8d565b616c8c896152d1565b5b90507f2e1f85a64a2f22cf2f0c42584e7c919ed4abe8d53675cff0f62bf1e95a1c676f868c8c8c8c8a600001518b602001518c608001518d60a001518a604051808b81526020018a73ffffffffffffffffffffffffffffffffffffffff1681526020018973ffffffffffffffffffffffffffffffffffffffff1681526020018873ffffffffffffffffffffffffffffffffffffffff16815260200187151581526020018681526020018581526020018481526020018381526020018281526020019a505050505050505050505060405180910390a187158015616d735750846020015183105b15616da8576000616d91848760200151617c0390919063ffffffff16565b9050616da68b616da18d84615aae565b6186e8565b505b87616dbc57616dbb898660000151619c13565b5b602b60008781526020019081526020016000206000808201600090556001820160009055600282016000905560038201600090556004820160009055600582016000905560068201600090555050616e1f8a616e1a8c600954615aae565b6188ca565b616e358a616e2f8c600954615aae565b8961906e565b6001601660006101000a81548160ff0219169083151502179055505050505050505b60016000819055505050505050565b600e5481565b6000600460009054906101000a900473ffffffffffffffffffffffffffffffffffffffff1673ffffffffffffffffffffffffffffffffffffffff16632fc3a70a836001601660009054906101000a900460ff16601660019054906101000a900460ff166040518563ffffffff1660e01b8152600401808573ffffffffffffffffffffffffffffffffffffffff16815260200184151581526020018315158152602001821515815260200194505050505060206040518083038186803b158015616f3457600080fd5b505afa158015616f48573d6000803e3d6000fd5b505050506040513d6020811015616f5e57600080fd5b81019080805190602001909291905050509050919050565b601b8181548110616f8357fe5b906000526020600020016000915054906101000a900473ffffffffffffffffffffffffffffffffffffffff1681565b616fba617b1e565b617011601c60008373ffffffffffffffffffffffffffffffffffffffff1673ffffffffffffffffffffffffffffffffffffffff16815260200190815260200160002060009054906101000a900460ff16600d617c4d565b617065602260008373ffffffffffffffffffffffffffffffffffffffff1673ffffffffffffffffffffffffffffffffffffffff16815260200190815260200160002054601554617c0390919063ffffffff16565b601581905550601c60008273ffffffffffffffffffffffffffffffffffffffff1673ffffffffffffffffffffffffffffffffffffffff16815260200190815260200160002060006101000a81549060ff0219169055601d60008273ffffffffffffffffffffffffffffffffffffffff1673ffffffffffffffffffffffffffffffffffffffff16815260200190815260200160002060009055602260008273ffffffffffffffffffffffffffffffffffffffff1673ffffffffffffffffffffffffffffffffffffffff16815260200190815260200160002060009055601e60008273ffffffffffffffffffffffffffffffffffffffff1673ffffffffffffffffffffffffffffffffffffffff16815260200190815260200160002060009055602460008273ffffffffffffffffffffffffffffffffffffffff1673ffffffffffffffffffffffffffffffffffffffff16815260200190815260200160002060009055601f60008273ffffffffffffffffffffffffffffffffffffffff1673ffffffffffffffffffffffffffffffffffffffff16815260200190815260200160002060006101000a81549060ff0219169055602060008273ffffffffffffffffffffffffffffffffffffffff1673ffffffffffffffffffffffffffffffffffffffff16815260200190815260200160002060006101000a81549060ff021916905561727a6001600754617c0390919063ffffffff16565b60078190555050565b61728b617b1e565b80602f60008473ffffffffffffffffffffffffffffffffffffffff1673ffffffffffffffffffffffffffffffffffffffff168152602001908152602001600020819055505050565b60286020528060005260406000206000915090505481565b6172f3617b1e565b80601660036101000a81548160ff02191690831515021790555050565b600061731a617b1e565b6000602c60008573ffffffffffffffffffffffffffffffffffffffff1673ffffffffffffffffffffffffffffffffffffffff16815260200190815260200160002054905060008114156173715760009150506173c6565b6000602c60008673ffffffffffffffffffffffffffffffffffffffff1673ffffffffffffffffffffffffffffffffffffffff168152602001908152602001600020819055506173c184828561906e565b809150505b92915050565b601a6020528060005260406000206000915054906101000a900460ff1681565b600560009054906101000a900473ffffffffffffffffffffffffffffffffffffffff1681565b600360009054906101000a900473ffffffffffffffffffffffffffffffffffffffff1681565b60008083141561744b57600090506174bb565b6000601d60008673ffffffffffffffffffffffffffffffffffffffff1673ffffffffffffffffffffffffffffffffffffffff1681526020019081526020016000205490506174b7836174a983600a0a87617a4e90919063ffffffff16565b617ad490919063ffffffff16565b9150505b9392505050565b6000600160039054906101000a900473ffffffffffffffffffffffffffffffffffffffff1673ffffffffffffffffffffffffffffffffffffffff1663fbfded6d84846040518363ffffffff1660e01b8152600401808373ffffffffffffffffffffffffffffffffffffffff1681526020018273ffffffffffffffffffffffffffffffffffffffff16815260200192505050602060405180830381600087803b15801561756d57600080fd5b505af1158015617581573d6000803e3d6000fd5b505050506040513d602081101561759757600080fd5b81019080805190602001909291905050509050806175b55750617875565b6000602a60008573ffffffffffffffffffffffffffffffffffffffff1673ffffffffffffffffffffffffffffffffffffffff16815260200190815260200160002054141561766f5761762660125461761860125442617ad490919063ffffffff16565b617a4e90919063ffffffff16565b602a60008573ffffffffffffffffffffffffffffffffffffffff1673ffffffffffffffffffffffffffffffffffffffff1681526020019081526020016000208190555050617875565b426176c4601254602a60008773ffffffffffffffffffffffffffffffffffffffff1673ffffffffffffffffffffffffffffffffffffffff16815260200190815260200160002054617b7b90919063ffffffff16565b11156176d05750617875565b60006176db84615cf9565b905061772f81602960008773ffffffffffffffffffffffffffffffffffffffff1673ffffffffffffffffffffffffffffffffffffffff16815260200190815260200160002054617b7b90919063ffffffff16565b602960008673ffffffffffffffffffffffffffffffffffffffff1673ffffffffffffffffffffffffffffffffffffffff1681526020019081526020016000208190555061779b60125461778d60125442617ad490919063ffffffff16565b617a4e90919063ffffffff16565b602a60008673ffffffffffffffffffffffffffffffffffffffff1673ffffffffffffffffffffffffffffffffffffffff168152602001908152602001600020819055507fa146fc154e1913322e9817d49f0d5c37466c24326e15de10e739a948be815eab84602960008773ffffffffffffffffffffffffffffffffffffffff1673ffffffffffffffffffffffffffffffffffffffff16815260200190815260200160002054604051808373ffffffffffffffffffffffffffffffffffffffff1681526020018281526020019250505060405180910390a150505b5050565b610e1081565b6000600160039054906101000a900473ffffffffffffffffffffffffffffffffffffffff1673ffffffffffffffffffffffffffffffffffffffff1663fdaf6ac387878787876040518663ffffffff1660e01b8152600401808673ffffffffffffffffffffffffffffffffffffffff1681526020018573ffffffffffffffffffffffffffffffffffffffff1681526020018473ffffffffffffffffffffffffffffffffffffffff16815260200183151581526020018281526020019550505050505060206040518083038186803b15801561795857600080fd5b505afa15801561796c573d6000803e3d6000fd5b505050506040513d602081101561798257600080fd5b8101908080519060200190929190505050905095945050505050565b60306020528060005260406000206000915090508054600181600116156101000203166002900480601f016020809104026020016040519081016040528092919081815260200182805460018160011615610100020316600290048015617a465780601f10617a1b57610100808354040283529160200191617a46565b820191906000526020600020905b815481529060010190602001808311617a2957829003601f168201915b505050505081565b600080831415617a615760009050617ace565b6000828402905082848281617a7257fe5b0414617ac9576040517f08c379a000000000000000000000000000000000000000000000000000000000815260040180806020018281038252602181526020018061a5916021913960400191505060405180910390fd5b809150505b92915050565b6000617b1683836040518060400160405280601a81526020017f536166654d6174683a206469766973696f6e206279207a65726f000000000000815250619d06565b905092915050565b617b79600660009054906101000a900473ffffffffffffffffffffffffffffffffffffffff1673ffffffffffffffffffffffffffffffffffffffff163373ffffffffffffffffffffffffffffffffffffffff16146035617c4d565b565b600080828401905083811015617bf9576040517f08c379a000000000000000000000000000000000000000000000000000000000815260040180806020018281038252601b8152602001807f536166654d6174683a206164646974696f6e206f766572666c6f77000000000081525060200191505060405180910390fd5b8091505092915050565b6000617c4583836040518060400160405280601e81526020017f536166654d6174683a207375627472616374696f6e206f766572666c6f770000815250619dcc565b905092915050565b816030600083815260200190815260200160002090617d24576040517f08c379a00000000000000000000000000000000000000000000000000000000081526004018080602001828103825283818154600181600116156101000203166002900481526020019150805460018160011615610100020316600290048015617d155780601f10617cea57610100808354040283529160200191617d15565b820191906000526020600020905b815481529060010190602001808311617cf857829003601f168201915b50509250505060405180910390fd5b505050565b60006017541415617d3957617d4a565b617d496017543a11156037617c4d565b5b565b8073ffffffffffffffffffffffffffffffffffffffff163373ffffffffffffffffffffffffffffffffffffffff161415617d8557617e75565b600360009054906101000a900473ffffffffffffffffffffffffffffffffffffffff1673ffffffffffffffffffffffffffffffffffffffff163373ffffffffffffffffffffffffffffffffffffffff161415617de057617e75565b617e74601860008373ffffffffffffffffffffffffffffffffffffffff1673ffffffffffffffffffffffffffffffffffffffff16815260200190815260200160002060003373ffffffffffffffffffffffffffffffffffffffff1673ffffffffffffffffffffffffffffffffffffffff16815260200190815260200160002060009054906101000a900460ff166029617c4d565b5b50565b8015617f6b57617eb78273ffffffffffffffffffffffffffffffffffffffff168473ffffffffffffffffffffffffffffffffffffffff1614602a617c4d565b617f0e601c60008573ffffffffffffffffffffffffffffffffffffffff1673ffffffffffffffffffffffffffffffffffffffff16815260200190815260200160002060009054906101000a900460ff16602b617c4d565b617f66601f60008573ffffffffffffffffffffffffffffffffffffffff1673ffffffffffffffffffffffffffffffffffffffff16815260200190815260200160002060009054906101000a900460ff1615602c617c4d565b6180c9565b617fc2601c60008573ffffffffffffffffffffffffffffffffffffffff1673ffffffffffffffffffffffffffffffffffffffff16815260200190815260200160002060009054906101000a900460ff16602d617c4d565b618019601f60008573ffffffffffffffffffffffffffffffffffffffff1673ffffffffffffffffffffffffffffffffffffffff16815260200190815260200160002060009054906101000a900460ff16602e617c4d565b618071601f60008473ffffffffffffffffffffffffffffffffffffffff1673ffffffffffffffffffffffffffffffffffffffff16815260200190815260200160002060009054906101000a900460ff1615602f617c4d565b6180c8602060008473ffffffffffffffffffffffffffffffffffffffff1673ffffffffffffffffffffffffffffffffffffffff16815260200190815260200160002060009054906101000a900460ff166030617c4d565b5b505050565b6000806180de898989898961787f565b905060006180f08a8a8a8a89896166d5565b90506181058183617b7b90919063ffffffff16565b915060006181138a84615aae565b905061816781602c60008d73ffffffffffffffffffffffffffffffffffffffff1673ffffffffffffffffffffffffffffffffffffffff16815260200190815260200160002054617b7b90919063ffffffff16565b602c60008c73ffffffffffffffffffffffffffffffffffffffff1673ffffffffffffffffffffffffffffffffffffffff168152602001908152602001600020819055507f5d0c0019d3d45fadeb74eff9d2c9924d146d000ac6bcf3c28bf0ac3c9baa011a8a8483604051808473ffffffffffffffffffffffffffffffffffffffff168152602001838152602001828152602001935050505060405180910390a1829350505050979650505050505050565b600080602160008473ffffffffffffffffffffffffffffffffffffffff1673ffffffffffffffffffffffffffffffffffffffff16815260200190815260200160002054905060008373ffffffffffffffffffffffffffffffffffffffff166370a08231306040518263ffffffff1660e01b8152600401808273ffffffffffffffffffffffffffffffffffffffff16815260200191505060206040518083038186803b1580156182c657600080fd5b505afa1580156182da573d6000803e3d6000fd5b505050506040513d60208110156182f057600080fd5b8101908080519060200190929190505050905080602160008673ffffffffffffffffffffffffffffffffffffffff1673ffffffffffffffffffffffffffffffffffffffff1681526020019081526020016000208190555061835a8282617c0390919063ffffffff16565b92505050919050565b600082141561837f5761837a600082146027617c4d565b61838e565b61838d818310156028617c4d565b5b5050565b6183e481602660008573ffffffffffffffffffffffffffffffffffffffff1673ffffffffffffffffffffffffffffffffffffffff16815260200190815260200160002054617b7b90919063ffffffff16565b602660008473ffffffffffffffffffffffffffffffffffffffff1673ffffffffffffffffffffffffffffffffffffffff168152602001908152602001600020819055506184b3602560008473ffffffffffffffffffffffffffffffffffffffff1673ffffffffffffffffffffffffffffffffffffffff16815260200190815260200160002054602660008573ffffffffffffffffffffffffffffffffffffffff1673ffffffffffffffffffffffffffffffffffffffff1681526020019081526020016000205411156034617c4d565b7faa5649d82f5462be9d19b0f2b31a59b2259950a6076550bac9f3a1c07db9f66d8282604051808373ffffffffffffffffffffffffffffffffffffffff1681526020018281526020019250505060405180910390a15050565b61855e81602860008573ffffffffffffffffffffffffffffffffffffffff1673ffffffffffffffffffffffffffffffffffffffff16815260200190815260200160002054617b7b90919063ffffffff16565b602860008473ffffffffffffffffffffffffffffffffffffffff1673ffffffffffffffffffffffffffffffffffffffff168152602001908152602001600020819055507fd9d4761f75e0d0103b5cbeab941eeb443d7a56a35b5baf2a0787c03f03f4e4748282604051808373ffffffffffffffffffffffffffffffffffffffff1681526020018281526020019250505060405180910390a15050565b61864c81602860008573ffffffffffffffffffffffffffffffffffffffff1673ffffffffffffffffffffffffffffffffffffffff16815260200190815260200160002054617c0390919063ffffffff16565b602860008473ffffffffffffffffffffffffffffffffffffffff1673ffffffffffffffffffffffffffffffffffffffff168152602001908152602001600020819055507f34e07158b9db50df5613e591c44ea2ebc82834eff4a4dc3a46e000e608261d688282604051808373ffffffffffffffffffffffffffffffffffffffff1681526020018281526020019250505060405180910390a15050565b61873a81602560008573ffffffffffffffffffffffffffffffffffffffff1673ffffffffffffffffffffffffffffffffffffffff16815260200190815260200160002054617b7b90919063ffffffff16565b602560008473ffffffffffffffffffffffffffffffffffffffff1673ffffffffffffffffffffffffffffffffffffffff1681526020019081526020016000208190555060008273ffffffffffffffffffffffffffffffffffffffff166370a08231306040518263ffffffff1660e01b8152600401808273ffffffffffffffffffffffffffffffffffffffff16815260200191505060206040518083038186803b1580156187e657600080fd5b505afa1580156187fa573d6000803e3d6000fd5b505050506040513d602081101561881057600080fd5b8101908080519060200190929190505050905061887081602560008673ffffffffffffffffffffffffffffffffffffffff1673ffffffffffffffffffffffffffffffffffffffff1681526020019081526020016000205411156031617c4d565b7f976177fbe09a15e5e43f848844963a42b41ef919ef17ff21a17a5421de8f47378383604051808373ffffffffffffffffffffffffffffffffffffffff1681526020018281526020019250505060405180910390a1505050565b618953816040518060400160405280601a81526020017f5661756c743a20706f6f6c416d6f756e74206578636565646564000000000000815250602560008673ffffffffffffffffffffffffffffffffffffffff1673ffffffffffffffffffffffffffffffffffffffff16815260200190815260200160002054619dcc9092919063ffffffff16565b602560008473ffffffffffffffffffffffffffffffffffffffff1673ffffffffffffffffffffffffffffffffffffffff16815260200190815260200160002081905550618a22602560008473ffffffffffffffffffffffffffffffffffffffff1673ffffffffffffffffffffffffffffffffffffffff16815260200190815260200160002054602660008573ffffffffffffffffffffffffffffffffffffffff1673ffffffffffffffffffffffffffffffffffffffff1681526020019081526020016000205411156032617c4d565b7f112726233fbeaeed0f5b1dba5cb0b2b81883dee49fb35ff99fd98ed9f6d31eb08282604051808373ffffffffffffffffffffffffffffffffffffffff1681526020018281526020019250505060405180910390a15050565b618acd81602d60008573ffffffffffffffffffffffffffffffffffffffff1673ffffffffffffffffffffffffffffffffffffffff16815260200190815260200160002054617b7b90919063ffffffff16565b602d60008473ffffffffffffffffffffffffffffffffffffffff1673ffffffffffffffffffffffffffffffffffffffff168152602001908152602001600020819055506000602f60008473ffffffffffffffffffffffffffffffffffffffff1673ffffffffffffffffffffffffffffffffffffffff16815260200190815260200160002054905060008114618c125780602d60008573ffffffffffffffffffffffffffffffffffffffff1673ffffffffffffffffffffffffffffffffffffffff168152602001908152602001600020541115618c11576040517f08c379a000000000000000000000000000000000000000000000000000000000815260040180806020018281038252601a8152602001807f5661756c743a206d61782073686f72747320657863656564656400000000000081525060200191505060405180910390fd5b5b505050565b601660029054906101000a900460ff1615618c8457618c83601a60003373ffffffffffffffffffffffffffffffffffffffff1673ffffffffffffffffffffffffffffffffffffffff16815260200190815260200160002060009054906101000a900460ff166036617c4d565b5b565b6000602360008473ffffffffffffffffffffffffffffffffffffffff1673ffffffffffffffffffffffffffffffffffffffff168152602001908152602001600020549050818111618d71576000602360008573ffffffffffffffffffffffffffffffffffffffff1673ffffffffffffffffffffffffffffffffffffffff168152602001908152602001600020819055507fe1e812596aac93a06ecc4ca627014d18e30f5c33b825160cc9d5c0ba61e452278382604051808373ffffffffffffffffffffffffffffffffffffffff1681526020018281526020019250505060405180910390a150618e1e565b618d848282617c0390919063ffffffff16565b602360008573ffffffffffffffffffffffffffffffffffffffff1673ffffffffffffffffffffffffffffffffffffffff168152602001908152602001600020819055507fe1e812596aac93a06ecc4ca627014d18e30f5c33b825160cc9d5c0ba61e452278383604051808373ffffffffffffffffffffffffffffffffffffffff1681526020018281526020019250505060405180910390a1505b5050565b60008173ffffffffffffffffffffffffffffffffffffffff166370a08231306040518263ffffffff1660e01b8152600401808273ffffffffffffffffffffffffffffffffffffffff16815260200191505060206040518083038186803b158015618e8b57600080fd5b505afa158015618e9f573d6000803e3d6000fd5b505050506040513d6020811015618eb557600080fd5b8101908080519060200190929190505050905080602160008473ffffffffffffffffffffffffffffffffffffffff1673ffffffffffffffffffffffffffffffffffffffff168152602001908152602001600020819055505050565b600080618f4e612710618f40618f3186612710617c0390919063ffffffff16565b87617a4e90919063ffffffff16565b617ad490919063ffffffff16565b90506000618f658286617c0390919063ffffffff16565b9050618fb981602c60008973ffffffffffffffffffffffffffffffffffffffff1673ffffffffffffffffffffffffffffffffffffffff16815260200190815260200160002054617b7b90919063ffffffff16565b602c60008873ffffffffffffffffffffffffffffffffffffffff1673ffffffffffffffffffffffffffffffffffffffff168152602001908152602001600020819055507f47cd9dda0e50ce30bcaaacd0488452b596221c07ac402a581cfae4d3933cac2b866190288884612f75565b83604051808473ffffffffffffffffffffffffffffffffffffffff168152602001838152602001828152602001935050505060405180910390a181925050509392505050565b61909981838573ffffffffffffffffffffffffffffffffffffffff16619a4c9092919063ffffffff16565b8273ffffffffffffffffffffffffffffffffffffffff166370a08231306040518263ffffffff1660e01b8152600401808273ffffffffffffffffffffffffffffffffffffffff16815260200191505060206040518083038186803b15801561910057600080fd5b505afa158015619114573d6000803e3d6000fd5b505050506040513d602081101561912a57600080fd5b8101908080519060200190929190505050602160008573ffffffffffffffffffffffffffffffffffffffff1673ffffffffffffffffffffffffffffffffffffffff16815260200190815260200160002081905550505050565b6191d581602360008573ffffffffffffffffffffffffffffffffffffffff1673ffffffffffffffffffffffffffffffffffffffff16815260200190815260200160002054617b7b90919063ffffffff16565b602360008473ffffffffffffffffffffffffffffffffffffffff1673ffffffffffffffffffffffffffffffffffffffff168152602001908152602001600020819055506000602460008473ffffffffffffffffffffffffffffffffffffffff1673ffffffffffffffffffffffffffffffffffffffff168152602001908152602001600020549050600081146192b2576192b181602360008673ffffffffffffffffffffffffffffffffffffffff1673ffffffffffffffffffffffffffffffffffffffff1681526020019081526020016000205411156033617c4d565b5b7f64243679a443432e2293343b77d411ff6144370404618f00ca0d2025d9ca98828383604051808373ffffffffffffffffffffffffffffffffffffffff1681526020018281526020019250505060405180910390a1505050565b6000600160039054906101000a900473ffffffffffffffffffffffffffffffffffffffff1673ffffffffffffffffffffffffffffffffffffffff166381d11a23898989898989896040518863ffffffff1660e01b8152600401808873ffffffffffffffffffffffffffffffffffffffff1681526020018773ffffffffffffffffffffffffffffffffffffffff1681526020018673ffffffffffffffffffffffffffffffffffffffff16815260200185815260200184815260200183151581526020018273ffffffffffffffffffffffffffffffffffffffff16815260200197505050505050505060006040518083038186803b15801561940b57600080fd5b505afa15801561941f573d6000803e3d6000fd5b5050505061942d87876174c2565b600061943b898989876132cb565b90506000602b600083815260200190815260200160002090506194666000826000015411601f617c4d565b61947886826000015410156020617c4d565b61948a87826001015410156021617c4d565b60008160010154905060006194c283600001546194b48a8660040154617a4e90919063ffffffff16565b617ad490919063ffffffff16565b90506194db818460040154617c0390919063ffffffff16565b83600401819055506194ed8b82619aee565b506000806194ff8d8d8d8d8d8d619e8c565b915091508884600001541461970e576195198c8c8a6160f3565b8460030181905550619538898560000154617c0390919063ffffffff16565b846000018190555061955284600001548560010154618363565b6195608d8d8d8b60016164f1565b50508715619593576195888c619583866001015486617c0390919063ffffffff16565b61850c565b6195928c8a6185fa565b5b6000886195a8576195a38c616e6c565b6195b2565b6195b18c6152d1565b5b90507f93d75d64d1f84fc6f430a64fc578bdd4c1e090e90ea2d51773e626d19de56d30868f8f8f8f8f8f886195f08b8d617c0390919063ffffffff16565b604051808a81526020018973ffffffffffffffffffffffffffffffffffffffff1681526020018873ffffffffffffffffffffffffffffffffffffffff1681526020018773ffffffffffffffffffffffffffffffffffffffff1681526020018681526020018581526020018415158152602001838152602001828152602001995050505050505050505060405180910390a17f20853733b590dce729d9f4628682ebd9a34d2354e72679e66f43a008fc03b7738686600001548760010154886002015489600301548a600401548b6005015488604051808981526020018881526020018781526020018681526020018581526020018481526020018381526020018281526020019850505050505050505060405180910390a1506198e6565b87156197295761971e8c8461850c565b6197288c8a6185fa565b5b60008861973e576197398c616e6c565b619748565b6197478c6152d1565b5b90507f93d75d64d1f84fc6f430a64fc578bdd4c1e090e90ea2d51773e626d19de56d30868f8f8f8f8f8f886197868b8d617c0390919063ffffffff16565b604051808a81526020018973ffffffffffffffffffffffffffffffffffffffff1681526020018873ffffffffffffffffffffffffffffffffffffffff1681526020018773ffffffffffffffffffffffffffffffffffffffff1681526020018681526020018581526020018415158152602001838152602001828152602001995050505050505050505060405180910390a17f73af1d417d82c240fdb6d319b34ad884487c6bf2845d98980cc52ad9171cb4558686600001548760010154886002015489600301548a600401548b600501546040518088815260200187815260200186815260200185815260200184815260200183815260200182815260200197505050505050505060405180910390a1602b60008781526020019081526020016000206000808201600090556001820160009055600282016000905560038201600090556004820160009055600582016000905560068201600090555050505b876198f6576198f58b8a619c13565b5b6000821115619940578715619919576199188c6199138e85615aae565b6188ca565b5b60006199258d83615aae565b90506199328d828a61906e565b80965050505050505061994a565b6000955050505050505b979650505050505050565b602760008273ffffffffffffffffffffffffffffffffffffffff1673ffffffffffffffffffffffffffffffffffffffff16815260200190815260200160002054602560008373ffffffffffffffffffffffffffffffffffffffff1673ffffffffffffffffffffffffffffffffffffffff168152602001908152602001600020541015619a49576040517f08c379a000000000000000000000000000000000000000000000000000000000815260040180806020018281038252601a8152602001807f5661756c743a20706f6f6c416d6f756e74203c2062756666657200000000000081525060200191505060405180910390fd5b50565b619ae98363a9059cbb60e01b8484604051602401808373ffffffffffffffffffffffffffffffffffffffff16815260200182815260200192505050604051602081830303815290604052907bffffffffffffffffffffffffffffffffffffffffffffffffffffffff19166020820180517bffffffffffffffffffffffffffffffffffffffffffffffffffffffff838183161783525050505061a101565b505050565b619b77816040518060400160405280601b81526020017f5661756c743a20696e73756666696369656e7420726573657276650000000000815250602660008673ffffffffffffffffffffffffffffffffffffffff1673ffffffffffffffffffffffffffffffffffffffff16815260200190815260200160002054619dcc9092919063ffffffff16565b602660008473ffffffffffffffffffffffffffffffffffffffff1673ffffffffffffffffffffffffffffffffffffffff168152602001908152602001600020819055507f533cb5ed32be6a90284e96b5747a1bfc2d38fdb5768a6b5f67ff7d62144ed67b8282604051808373ffffffffffffffffffffffffffffffffffffffff1681526020018281526020019250505060405180910390a15050565b6000602d60008473ffffffffffffffffffffffffffffffffffffffff1673ffffffffffffffffffffffffffffffffffffffff16815260200190815260200160002054905080821115619caa576000602d60008573ffffffffffffffffffffffffffffffffffffffff1673ffffffffffffffffffffffffffffffffffffffff1681526020019081526020016000208190555050619d02565b619cbd8282617c0390919063ffffffff16565b602d60008573ffffffffffffffffffffffffffffffffffffffff1673ffffffffffffffffffffffffffffffffffffffff16815260200190815260200160002081905550505b5050565b60008083118290619db2576040517f08c379a00000000000000000000000000000000000000000000000000000000081526004018080602001828103825283818151815260200191508051906020019080838360005b83811015619d77578082015181840152602081019050619d5c565b50505050905090810190601f168015619da45780820380516001836020036101000a031916815260200191505b509250505060405180910390fd5b506000838581619dbe57fe5b049050809150509392505050565b6000838311158290619e79576040517f08c379a00000000000000000000000000000000000000000000000000000000081526004018080602001828103825283818151815260200191508051906020019080838360005b83811015619e3e578082015181840152602081019050619e23565b50505050905090810190601f168015619e6b5780820380516001836020036101000a031916815260200191505b509250505060405180910390fd5b5060008385039050809150509392505050565b6000806000619e9d898989876132cb565b90506000602b600083815260200190815260200160002090506000619ecf8b8b8b898b876000015488600301546180ce565b9050600080600080619ef08d876000015488600201548d8a600601546144a9565b91509150819350619f208660000154619f12838e617a4e90919063ffffffff16565b617ad490919063ffffffff16565b925050506000828015619f335750600082115b15619f6a5781905081856005015401856005018190555088619f69576000619f5b8e84615aae565b9050619f678e826188ca565b505b5b82158015619f785750600082115b15619fcb57619f94828660010154617c0390919063ffffffff16565b856001018190555088619fbb576000619fad8e84615aae565b9050619fb98e826186e8565b505b8185600501540385600501819055505b60008b111561a00957619fe78b82617b7b90919063ffffffff16565b905061a0008b8660010154617c0390919063ffffffff16565b85600101819055505b898560000154141561a0395761a02c856001015482617b7b90919063ffffffff16565b9050600085600101819055505b60008190508482111561a0605761a0598583617c0390919063ffffffff16565b905061a0a0565b61a077858760010154617c0390919063ffffffff16565b8660010181905550891561a09f57600061a0918f87615aae565b905061a09d8f826188ca565b505b5b7f3ff41bdde87755b687ae83d0221a232b6be51a803330ed9661c1b5d0105e0d8a878585604051808481526020018315158152602001828152602001935050505060405180910390a181819850985050505050505050965096945050505050565b606061a163826040518060400160405280602081526020017f5361666545524332303a206c6f772d6c6576656c2063616c6c206661696c65648152508573ffffffffffffffffffffffffffffffffffffffff1661a1f09092919063ffffffff16565b905060008151111561a1eb5780806020019051602081101561a18457600080fd5b810190808051906020019092919050505061a1ea576040517f08c379a000000000000000000000000000000000000000000000000000000000815260040180806020018281038252602a81526020018061a5b2602a913960400191505060405180910390fd5b5b505050565b606061a1ff848460008561a208565b90509392505050565b60608247101561a263576040517f08c379a000000000000000000000000000000000000000000000000000000000815260040180806020018281038252602681526020018061a56b6026913960400191505060405180910390fd5b61a26c8561a3b1565b61a2de576040517f08c379a000000000000000000000000000000000000000000000000000000000815260040180806020018281038252601d8152602001807f416464726573733a2063616c6c20746f206e6f6e2d636f6e747261637400000081525060200191505060405180910390fd5b600060608673ffffffffffffffffffffffffffffffffffffffff1685876040518082805190602001908083835b6020831061a32e578051825260208201915060208101905060208303925061a30b565b6001836020036101000a03801982511681845116808217855250505050505090500191505060006040518083038185875af1925050503d806000811461a390576040519150601f19603f3d011682016040523d82523d6000602084013e61a395565b606091505b509150915061a3a582828661a3c4565b92505050949350505050565b600080823b905060008111915050919050565b6060831561a3d45782905061a489565b60008351111561a3e75782518084602001fd5b816040517f08c379a00000000000000000000000000000000000000000000000000000000081526004018080602001828103825283818151815260200191508051906020019080838360005b8381101561a44e57808201518184015260208101905061a433565b50505050905090810190601f16801561a47b5780820380516001836020036101000a031916815260200191505b509250505060405180910390fd5b9392505050565b828054600181600116156101000203166002900490600052602060002090601f016020900481019282601f1061a4d157803560ff191683800117855561a4ff565b8280016001018555821561a4ff579182015b8281111561a4fe57823582559160200191906001019061a4e3565b5b50905061a50c919061a54d565b5090565b6040518060e00160405280600081526020016000815260200160008152602001600081526020016000815260200160008152602001600081525090565b5b8082111561a56657600081600090555060010161a54e565b509056fe416464726573733a20696e73756666696369656e742062616c616e636520666f722063616c6c536166654d6174683a206d756c7469706c69636174696f6e206f766572666c6f775361666545524332303a204552433230206f7065726174696f6e20646964206e6f742073756363656564a264697066735822122047de76ab641c8d7235327e9b3aaa907be01f446d2be1060b409c9d4e4f562f1f64736f6c634300060c0033",
  "linkReferences": {},
  "deployedLinkReferences": {}
}