{
  "_format": "hh-sol-artifact-1",
  "contractName": "UniFactory",
  "sourceName": "contracts/gmx/amm/UniFactory.sol",
  "abi": [
    {
      "inputs": [
        {
          "internalType": "address",
          "name": "",
          "type": "address"
        },
        {
          "internalType": "address",
          "name": "",
          "type": "address"
        },
        {
          "internalType": "uint24",
          "name": "",
          "type": "uint24"
        }
      ],
      "name": "getPool",
      "outputs": [
        {
          "internalType": "address",
          "name": "",
          "type": "address"
        }
      ],
      "stateMutability": "view",
      "type": "function"
    }
  ],
  "bytecode": "0x608060405234801561001057600080fd5b50610152806100206000396000f3fe608060405234801561001057600080fd5b506004361061002b5760003560e01c80631698ee8214610030575b600080fd5b6100a16004803603606081101561004657600080fd5b81019080803573ffffffffffffffffffffffffffffffffffffffff169060200190929190803573ffffffffffffffffffffffffffffffffffffffff169060200190929190803562ffffff1690602001909291905050506100cd565b604051808273ffffffffffffffffffffffffffffffffffffffff16815260200191505060405180910390f35b6000602052826000526040600020602052816000526040600020602052806000526040600020600092509250509054906101000a900473ffffffffffffffffffffffffffffffffffffffff168156fea264697066735822122016634643b2f1424b56b134e58b6aec809c393357bcbb680d27de7141a99f4e0d64736f6c634300060c0033",
  "linkReferences": {},
  "deployedLinkReferences": {}
}