{
  "_format": "hh-sol-artifact-1",
  "contractName": "MaliciousTraderTest",
  "sourceName": "contracts/gmx/core/test/MaliciousTraderTest.sol",
  "abi": [
    {
      "inputs": [
        {
          "internalType": "address",
          "name": "_positionRouter",
          "type": "address"
        }
      ],
      "stateMutability": "nonpayable",
      "type": "constructor"
    },
    {
      "anonymous": false,
      "inputs": [],
      "name": "Received",
      "type": "event"
    },
    {
      "inputs": [
        {
          "internalType": "address[]",
          "name": "_path",
          "type": "address[]"
        },
        {
          "internalType": "address",
          "name": "_indexToken",
          "type": "address"
        },
        {
          "internalType": "uint256",
          "name": "_minOut",
          "type": "uint256"
        },
        {
          "internalType": "uint256",
          "name": "_sizeDelta",
          "type": "uint256"
        },
        {
          "internalType": "bool",
          "name": "_isLong",
          "type": "bool"
        },
        {
          "internalType": "uint256",
          "name": "_acceptablePrice",
          "type": "uint256"
        },
        {
          "internalType": "uint256",
          "name": "_executionFee",
          "type": "uint256"
        },
        {
          "internalType": "bytes32",
          "name": "_referralCode",
          "type": "bytes32"
        },
        {
          "internalType": "address",
          "name": "_callbackTarget",
          "type": "address"
        }
      ],
      "name": "createIncreasePositionETH",
      "outputs": [],
      "stateMutability": "payable",
      "type": "function"
    },
    {
      "inputs": [],
      "name": "positionRouter",
      "outputs": [
        {
          "internalType": "address",
          "name": "",
          "type": "address"
        }
      ],
      "stateMutability": "view",
      "type": "function"
    },
    {
      "stateMutability": "payable",
      "type": "receive"
    }
  ],
  "bytecode": "0x608060405234801561001057600080fd5b50604051610bec380380610bec8339818101604052602081101561003357600080fd5b8101908080519060200190929190505050806000806101000a81548173ffffffffffffffffffffffffffffffffffffffff021916908373ffffffffffffffffffffffffffffffffffffffff16021790555050610b58806100946000396000f3fe60806040526004361061002d5760003560e01c80635b88e8c61461008c57806361ef161f146101c357610087565b3661008757600080600090505b620f4240811015610057578082029150808060010191505061003a565b507f544c765b33ca411cce832250371569244f765a17fcd217832be093f0fd5fa45b60405160405180910390a150005b600080fd5b6101c160048036036101208110156100a357600080fd5b81019080803590602001906401000000008111156100c057600080fd5b8201836020820111156100d257600080fd5b803590602001918460208302840111640100000000831117156100f457600080fd5b919080806020026020016040519081016040528093929190818152602001838360200280828437600081840152601f19601f820116905080830192505050505050509192919290803573ffffffffffffffffffffffffffffffffffffffff1690602001909291908035906020019092919080359060200190929190803515159060200190929190803590602001909291908035906020019092919080359060200190929190803573ffffffffffffffffffffffffffffffffffffffff169060200190929190505050610204565b005b3480156101cf57600080fd5b506101d861057e565b604051808273ffffffffffffffffffffffffffffffffffffffff16815260200191505060405180910390f35b610229604051806060016040528060268152602001610ab3602691398a518a8a6105a2565b61024d604051806060016040528060298152602001610afa602991398787876106d1565b610270604051806060016040528060218152602001610ad96021913984836107ec565b6000606060008054906101000a900473ffffffffffffffffffffffffffffffffffffffff1673ffffffffffffffffffffffffffffffffffffffff16348c8c8c8c8c8c8c8c8c60405160240180806020018a73ffffffffffffffffffffffffffffffffffffffff16815260200189815260200188815260200187151581526020018681526020018581526020018481526020018373ffffffffffffffffffffffffffffffffffffffff16815260200182810382528b818151815260200191508051906020019060200280838360005b8381101561035957808201518184015260208101905061033e565b505050509050019a50505050505050505050506040516020818303038152906040527f5b88e8c6000000000000000000000000000000000000000000000000000000007bffffffffffffffffffffffffffffffffffffffffffffffffffffffff19166020820180517bffffffffffffffffffffffffffffffffffffffffffffffffffffffff83818316178352505050506040518082805190602001908083835b6020831061041c57805182526020820191506020810190506020830392506103f9565b6001836020036101000a03801982511681845116808217855250505050505090500191505060006040518083038185875af1925050503d806000811461047e576040519150601f19603f3d011682016040523d82523d6000602084013e610483565b606091505b50915091506104c86040518060400160405280601881526020017f737563636573733a20257320726561736f6e3a202725732700000000000000008152508383610912565b818190610570576040517f08c379a00000000000000000000000000000000000000000000000000000000081526004018080602001828103825283818151815260200191508051906020019080838360005b8381101561053557808201518184015260208101905061051a565b50505050905090810190601f1680156105625780820380516001836020036101000a031916815260200191505b509250505060405180910390fd5b505050505050505050505050565b60008054906101000a900473ffffffffffffffffffffffffffffffffffffffff1681565b6106cb8484848460405160240180806020018581526020018473ffffffffffffffffffffffffffffffffffffffff168152602001838152602001828103825286818151815260200191508051906020019080838360005b838110156106145780820151818401526020810190506105f9565b50505050905090810190601f1680156106415780820380516001836020036101000a031916815260200191505b50955050505050506040516020818303038152906040527f4f04fdc6000000000000000000000000000000000000000000000000000000007bffffffffffffffffffffffffffffffffffffffffffffffffffffffff19166020820180517bffffffffffffffffffffffffffffffffffffffffffffffffffffffff8381831617835250505050610a89565b50505050565b6107e68484848460405160240180806020018581526020018415158152602001838152602001828103825286818151815260200191508051906020019080838360005b8381101561072f578082015181840152602081019050610714565b50505050905090810190601f16801561075c5780820380516001836020036101000a031916815260200191505b50955050505050506040516020818303038152906040527fe41b6f6f000000000000000000000000000000000000000000000000000000007bffffffffffffffffffffffffffffffffffffffffffffffffffffffff19166020820180517bffffffffffffffffffffffffffffffffffffffffffffffffffffffff8381831617835250505050610a89565b50505050565b61090d83838360405160240180806020018481526020018373ffffffffffffffffffffffffffffffffffffffff168152602001828103825285818151815260200191508051906020019080838360005b8381101561085757808201518184015260208101905061083c565b50505050905090810190601f1680156108845780820380516001836020036101000a031916815260200191505b509450505050506040516020818303038152906040527f1c7ec448000000000000000000000000000000000000000000000000000000007bffffffffffffffffffffffffffffffffffffffffffffffffffffffff19166020820180517bffffffffffffffffffffffffffffffffffffffffffffffffffffffff8381831617835250505050610a89565b505050565b610a848383836040516024018080602001841515815260200180602001838103835286818151815260200191508051906020019080838360005b8381101561096757808201518184015260208101905061094c565b50505050905090810190601f1680156109945780820380516001836020036101000a031916815260200191505b50838103825284818151815260200191508051906020019080838360005b838110156109cd5780820151818401526020810190506109b2565b50505050905090810190601f1680156109fa5780820380516001836020036101000a031916815260200191505b50955050505050506040516020818303038152906040527fe298f47d000000000000000000000000000000000000000000000000000000007bffffffffffffffffffffffffffffffffffffffffffffffffffffffff19166020820180517bffffffffffffffffffffffffffffffffffffffffffffffffffffffff8381831617835250505050610a89565b505050565b60008151905060006a636f6e736f6c652e6c6f679050602083016000808483855afa505050505056fe706174682e6c656e67746820257320696e646578546f6b656e202573206d696e4f7574202573657865637574696f6e4665652025732063616c6c6261636b54617267657420257373697a6544656c74612025732069734c6f6e672025732061636365707461626c655072696365202573a264697066735822122039a552133bab9c0cb419f5cf66090c5cdf21aa1b656d5c52a971eb7de4cea48564736f6c634300060c0033",
  "linkReferences": {},
  "deployedLinkReferences": {}
}