{
  "_format": "hh-sol-artifact-1",
  "contractName": "OrderBookReader",
  "sourceName": "contracts/gmx/peripherals/OrderBookReader.sol",
  "abi": [
    {
      "inputs": [
        {
          "internalType": "address payable",
          "name": "_orderBookAddress",
          "type": "address"
        },
        {
          "internalType": "address",
          "name": "_account",
          "type": "address"
        },
        {
          "internalType": "uint256[]",
          "name": "_indices",
          "type": "uint256[]"
        }
      ],
      "name": "getDecreaseOrders",
      "outputs": [
        {
          "internalType": "uint256[]",
          "name": "",
          "type": "uint256[]"
        },
        {
          "internalType": "address[]",
          "name": "",
          "type": "address[]"
        }
      ],
      "stateMutability": "view",
      "type": "function"
    },
    {
      "inputs": [
        {
          "internalType": "address payable",
          "name": "_orderBookAddress",
          "type": "address"
        },
        {
          "internalType": "address",
          "name": "_account",
          "type": "address"
        },
        {
          "internalType": "uint256[]",
          "name": "_indices",
          "type": "uint256[]"
        }
      ],
      "name": "getIncreaseOrders",
      "outputs": [
        {
          "internalType": "uint256[]",
          "name": "",
          "type": "uint256[]"
        },
        {
          "internalType": "address[]",
          "name": "",
          "type": "address[]"
        }
      ],
      "stateMutability": "view",
      "type": "function"
    },
    {
      "inputs": [
        {
          "internalType": "address payable",
          "name": "_orderBookAddress",
          "type": "address"
        },
        {
          "internalType": "address",
          "name": "_account",
          "type": "address"
        },
        {
          "internalType": "uint256[]",
          "name": "_indices",
          "type": "uint256[]"
        }
      ],
      "name": "getSwapOrders",
      "outputs": [
        {
          "internalType": "uint256[]",
          "name": "",
          "type": "uint256[]"
        },
        {
          "internalType": "address[]",
          "name": "",
          "type": "address[]"
        }
      ],
      "stateMutability": "view",
      "type": "function"
    }
  ],
  "bytecode": "0x608060405234801561001057600080fd5b50611202806100206000396000f3fe608060405234801561001057600080fd5b50600436106100415760003560e01c80630ce933b9146100465780632e181469146101db578063c38ccd5014610370575b600080fd5b61013c6004803603606081101561005c57600080fd5b81019080803573ffffffffffffffffffffffffffffffffffffffff169060200190929190803573ffffffffffffffffffffffffffffffffffffffff169060200190929190803590602001906401000000008111156100b957600080fd5b8201836020820111156100cb57600080fd5b803590602001918460208302840111640100000000831117156100ed57600080fd5b919080806020026020016040519081016040528093929190818152602001838360200280828437600081840152601f19601f820116905080830192505050505050509192919290505050610505565b604051808060200180602001838103835285818151815260200191508051906020019060200280838360005b83811015610183578082015181840152602081019050610168565b50505050905001838103825284818151815260200191508051906020019060200280838360005b838110156101c55780820151818401526020810190506101aa565b5050505090500194505050505060405180910390f35b6102d1600480360360608110156101f157600080fd5b81019080803573ffffffffffffffffffffffffffffffffffffffff169060200190929190803573ffffffffffffffffffffffffffffffffffffffff1690602001909291908035906020019064010000000081111561024e57600080fd5b82018360208201111561026057600080fd5b8035906020019184602083028401116401000000008311171561028257600080fd5b919080806020026020016040519081016040528093929190818152602001838360200280828437600081840152601f19601f8201169050808301925050505050505091929192905050506108ef565b604051808060200180602001838103835285818151815260200191508051906020019060200280838360005b838110156103185780820151818401526020810190506102fd565b50505050905001838103825284818151815260200191508051906020019060200280838360005b8381101561035a57808201518184015260208101905061033f565b5050505090500194505050505060405180910390f35b6104666004803603606081101561038657600080fd5b81019080803573ffffffffffffffffffffffffffffffffffffffff169060200190929190803573ffffffffffffffffffffffffffffffffffffffff169060200190929190803590602001906401000000008111156103e357600080fd5b8201836020820111156103f557600080fd5b8035906020019184602083028401116401000000008311171561041757600080fd5b919080806020026020016040519081016040528093929190818152602001838360200280828437600081840152601f19601f820116905080830192505050505050509192919290505050610d3b565b604051808060200180602001838103835285818151815260200191508051906020019060200280838360005b838110156104ad578082015181840152602081019050610492565b50505050905001838103825284818151815260200191508051906020019060200280838360005b838110156104ef5780820151818401526020810190506104d4565b5050505090500194505050505060405180910390f35b606080610510611187565b6040518060a0016040528060008152602001600081526020018673ffffffffffffffffffffffffffffffffffffffff16815260200160058152602001600281525090506060845182606001510267ffffffffffffffff8111801561057357600080fd5b506040519080825280602002602001820160405280156105a25781602001602082028036833780820191505090505b5090506060855183608001510267ffffffffffffffff811180156105c557600080fd5b506040519080825280602002602001820160405280156105f45781602001602082028036833780820191505090505b50905060008890505b8651846000015110156108dd578684600001518151811061061a57fe5b602002602001015184602001818152505060008060008060008060008773ffffffffffffffffffffffffffffffffffffffff1663026032ee8c604001518d602001516040518363ffffffff1660e01b8152600401808373ffffffffffffffffffffffffffffffffffffffff168152602001828152602001925050506101006040518083038186803b1580156106ae57600080fd5b505afa1580156106c2573d6000803e3d6000fd5b505050506040513d6101008110156106d957600080fd5b810190808051906020019092919080519060200190929190805190602001909291908051906020019092919080519060200190929190805190602001909291908051906020019092919080519060200190929190505050509650965096509650965096509650858a8c606001518d60000151028151811061075657fe5b602002602001018181525050838a60018d606001518e6000015102018151811061077c57fe5b60200260200101818152505082610794576000610797565b60015b60ff168a60028d606001518e600001510201815181106107b357fe5b602002602001018181525050818a60038d606001518e600001510201815181106107d957fe5b602002602001018181525050806107f15760006107f4565b60015b60ff168a60048d606001518e6000015102018151811061081057fe5b60200260200101818152505086898c608001518d60000151028151811061083357fe5b602002602001019073ffffffffffffffffffffffffffffffffffffffff16908173ffffffffffffffffffffffffffffffffffffffff1681525050848960018d608001518e6000015102018151811061088757fe5b602002602001019073ffffffffffffffffffffffffffffffffffffffff16908173ffffffffffffffffffffffffffffffffffffffff16815250508a600001805180919060010181525050505050505050506105fd565b82829550955050505050935093915050565b6060806108fa611187565b6040518060a0016040528060008152602001600081526020018673ffffffffffffffffffffffffffffffffffffffff16815260200160058152602001600381525090506060845182606001510267ffffffffffffffff8111801561095d57600080fd5b5060405190808252806020026020018201604052801561098c5781602001602082028036833780820191505090505b5090506060855183608001510267ffffffffffffffff811180156109af57600080fd5b506040519080825280602002602001820160405280156109de5781602001602082028036833780820191505090505b50905060008890505b865184600001511015610d295786846000015181518110610a0457fe5b60200260200101518460200181815250506000806000806000806000808873ffffffffffffffffffffffffffffffffffffffff1663d0d40cd68d604001518e602001516040518363ffffffff1660e01b8152600401808373ffffffffffffffffffffffffffffffffffffffff168152602001828152602001925050506101206040518083038186803b158015610a9957600080fd5b505afa158015610aad573d6000803e3d6000fd5b505050506040513d610120811015610ac457600080fd5b810190808051906020019092919080519060200190929190805190602001909291908051906020019092919080519060200190929190805190602001909291908051906020019092919080519060200190929190805190602001909291905050505097509750975097509750975097509750848b8d606001518e600001510281518110610b4d57fe5b602002602001018181525050838b60018e606001518f60000151020181518110610b7357fe5b602002602001018181525050828b60028e606001518f60000151020181518110610b9957fe5b60200260200101818152505081610bb1576000610bb4565b60015b60ff168b60038e606001518f60000151020181518110610bd057fe5b60200260200101818152505080610be8576000610beb565b60015b60ff168b60048e606001518f60000151020181518110610c0757fe5b602002602001018181525050878a8d608001518e600001510281518110610c2a57fe5b602002602001019073ffffffffffffffffffffffffffffffffffffffff16908173ffffffffffffffffffffffffffffffffffffffff1681525050868a60018e608001518f60000151020181518110610c7e57fe5b602002602001019073ffffffffffffffffffffffffffffffffffffffff16908173ffffffffffffffffffffffffffffffffffffffff1681525050858a60028e608001518f60000151020181518110610cd257fe5b602002602001019073ffffffffffffffffffffffffffffffffffffffff16908173ffffffffffffffffffffffffffffffffffffffff16815250508b60000180518091906001018152505050505050505050506109e7565b82829550955050505050935093915050565b606080610d46611187565b6040518060a0016040528060008152602001600081526020018673ffffffffffffffffffffffffffffffffffffffff16815260200160058152602001600381525090506060845182606001510267ffffffffffffffff81118015610da957600080fd5b50604051908082528060200260200182016040528015610dd85781602001602082028036833780820191505090505b5090506060855183608001510267ffffffffffffffff81118015610dfb57600080fd5b50604051908082528060200260200182016040528015610e2a5781602001602082028036833780820191505090505b50905060008890505b8651846000015110156111755786846000015181518110610e5057fe5b60200260200101518460200181815250506000806000806000806000808873ffffffffffffffffffffffffffffffffffffffff1663d3bab1d18d604001518e602001516040518363ffffffff1660e01b8152600401808373ffffffffffffffffffffffffffffffffffffffff168152602001828152602001925050506101206040518083038186803b158015610ee557600080fd5b505afa158015610ef9573d6000803e3d6000fd5b505050506040513d610120811015610f1057600080fd5b810190808051906020019092919080519060200190929190805190602001909291908051906020019092919080519060200190929190805190602001909291908051906020019092919080519060200190929190805190602001909291905050505097509750975097509750975097509750868b8d606001518e600001510281518110610f9957fe5b602002602001018181525050838b60018e606001518f60000151020181518110610fbf57fe5b60200260200101818152505082610fd7576000610fda565b60015b60ff168b60028e606001518f60000151020181518110610ff657fe5b602002602001018181525050818b60038e606001518f6000015102018151811061101c57fe5b60200260200101818152505080611034576000611037565b60015b60ff168b60048e606001518f6000015102018151811061105357fe5b602002602001018181525050878a8d608001518e60000151028151811061107657fe5b602002602001019073ffffffffffffffffffffffffffffffffffffffff16908173ffffffffffffffffffffffffffffffffffffffff1681525050858a60018e608001518f600001510201815181106110ca57fe5b602002602001019073ffffffffffffffffffffffffffffffffffffffff16908173ffffffffffffffffffffffffffffffffffffffff1681525050848a60028e608001518f6000015102018151811061111e57fe5b602002602001019073ffffffffffffffffffffffffffffffffffffffff16908173ffffffffffffffffffffffffffffffffffffffff16815250508b6000018051809190600101815250505050505050505050610e33565b82829550955050505050935093915050565b6040518060a001604052806000815260200160008152602001600073ffffffffffffffffffffffffffffffffffffffff1681526020016000815260200160008152509056fea26469706673582212208d8f75c6427af602a2c24aa91e16c55b1e9e3e348665e1df69002acc4d97dcd264736f6c634300060c0033",
  "linkReferences": {},
  "deployedLinkReferences": {}
}