{
  "_format": "hh-sol-artifact-1",
  "contractName": "EsGmxBatchSender",
  "sourceName": "contracts/gmx/peripherals/EsGmxBatchSender.sol",
  "abi": [
    {
      "inputs": [
        {
          "internalType": "address",
          "name": "_esGmx",
          "type": "address"
        }
      ],
      "stateMutability": "nonpayable",
      "type": "constructor"
    },
    {
      "inputs": [],
      "name": "admin",
      "outputs": [
        {
          "internalType": "address",
          "name": "",
          "type": "address"
        }
      ],
      "stateMutability": "view",
      "type": "function"
    },
    {
      "inputs": [],
      "name": "esGmx",
      "outputs": [
        {
          "internalType": "address",
          "name": "",
          "type": "address"
        }
      ],
      "stateMutability": "view",
      "type": "function"
    },
    {
      "inputs": [
        {
          "internalType": "contract IVester",
          "name": "_vester",
          "type": "address"
        },
        {
          "internalType": "uint256",
          "name": "_minRatio",
          "type": "uint256"
        },
        {
          "internalType": "address[]",
          "name": "_accounts",
          "type": "address[]"
        },
        {
          "internalType": "uint256[]",
          "name": "_amounts",
          "type": "uint256[]"
        }
      ],
      "name": "send",
      "outputs": [],
      "stateMutability": "nonpayable",
      "type": "function"
    }
  ],
  "bytecode": "0x608060405234801561001057600080fd5b50604051610e2f380380610e2f8339818101604052602081101561003357600080fd5b8101908080519060200190929190505050336000806101000a81548173ffffffffffffffffffffffffffffffffffffffff021916908373ffffffffffffffffffffffffffffffffffffffff16021790555080600160006101000a81548173ffffffffffffffffffffffffffffffffffffffff021916908373ffffffffffffffffffffffffffffffffffffffff16021790555050610d5a806100d56000396000f3fe608060405234801561001057600080fd5b50600436106100415760003560e01c80636a192a78146100465780638b8f837b1461007a578063f851a440146101f0575b600080fd5b61004e610224565b604051808273ffffffffffffffffffffffffffffffffffffffff16815260200191505060405180910390f35b6101ee6004803603608081101561009057600080fd5b81019080803573ffffffffffffffffffffffffffffffffffffffff16906020019092919080359060200190929190803590602001906401000000008111156100d757600080fd5b8201836020820111156100e957600080fd5b8035906020019184602083028401116401000000008311171561010b57600080fd5b919080806020026020016040519081016040528093929190818152602001838360200280828437600081840152601f19601f8201169050808301925050505050505091929192908035906020019064010000000081111561016b57600080fd5b82018360208201111561017d57600080fd5b8035906020019184602083028401116401000000008311171561019f57600080fd5b919080806020026020016040519081016040528093929190818152602001838360200280828437600081840152601f19601f82011690508083019250505050505050919291929050505061024a565b005b6101f86109b7565b604051808273ffffffffffffffffffffffffffffffffffffffff16815260200191505060405180910390f35b600160009054906101000a900473ffffffffffffffffffffffffffffffffffffffff1681565b60008054906101000a900473ffffffffffffffffffffffffffffffffffffffff1673ffffffffffffffffffffffffffffffffffffffff163373ffffffffffffffffffffffffffffffffffffffff161461030b576040517f08c379a000000000000000000000000000000000000000000000000000000000815260040180806020018281038252601b8152602001807f4573476d78426174636853656e6465723a20666f7262696464656e000000000081525060200191505060405180910390fd5b60008473ffffffffffffffffffffffffffffffffffffffff16636bcb411a6040518163ffffffff1660e01b815260040160206040518083038186803b15801561035357600080fd5b505afa158015610367573d6000803e3d6000fd5b505050506040513d602081101561037d57600080fd5b8101908080519060200190929190505050905060005b83518110156109af57600160009054906101000a900473ffffffffffffffffffffffffffffffffffffffff1673ffffffffffffffffffffffffffffffffffffffff166323b872dd338684815181106103e757fe5b60200260200101518685815181106103fb57fe5b60200260200101516040518463ffffffff1660e01b8152600401808473ffffffffffffffffffffffffffffffffffffffff1681526020018373ffffffffffffffffffffffffffffffffffffffff1681526020018281526020019350505050602060405180830381600087803b15801561047357600080fd5b505af1158015610487573d6000803e3d6000fd5b505050506040513d602081101561049d57600080fd5b810190808051906020019092919050505050600061058b8483815181106104c057fe5b60200260200101518873ffffffffffffffffffffffffffffffffffffffff1663b71bce2a8886815181106104f057fe5b60200260200101516040518263ffffffff1660e01b8152600401808273ffffffffffffffffffffffffffffffffffffffff16815260200191505060206040518083038186803b15801561054257600080fd5b505afa158015610556573d6000803e3d6000fd5b505050506040513d602081101561056c57600080fd5b81019080805190602001909291905050506109db90919063ffffffff16565b90508673ffffffffffffffffffffffffffffffffffffffff1663d0b038b78684815181106105b557fe5b6020026020010151836040518363ffffffff1660e01b8152600401808373ffffffffffffffffffffffffffffffffffffffff16815260200182815260200192505050600060405180830381600087803b15801561061157600080fd5b505af1158015610625573d6000803e3d6000fd5b5050505060008373ffffffffffffffffffffffffffffffffffffffff16633792def387858151811061065357fe5b60200260200101516040518263ffffffff1660e01b8152600401808273ffffffffffffffffffffffffffffffffffffffff16815260200191505060206040518083038186803b1580156106a557600080fd5b505afa1580156106b9573d6000803e3d6000fd5b505050506040513d60208110156106cf57600080fd5b8101908080519060200190929190505050905060006106f783836109db90919063ffffffff16565b905060008973ffffffffffffffffffffffffffffffffffffffff166345f01ee689878151811061072357fe5b60200260200101516040518263ffffffff1660e01b8152600401808273ffffffffffffffffffffffffffffffffffffffff16815260200191505060206040518083038186803b15801561077557600080fd5b505afa158015610789573d6000803e3d6000fd5b505050506040513d602081101561079f57600080fd5b810190808051906020019092919050505090506107c58983610a6390919063ffffffff16565b8111156107d557505050506109a2565b60006107ea838b610a6390919063ffffffff16565b90506108d76108c8846108ba878b73ffffffffffffffffffffffffffffffffffffffff1663a31802178f8d8151811061081f57fe5b60200260200101516040518263ffffffff1660e01b8152600401808273ffffffffffffffffffffffffffffffffffffffff16815260200191505060206040518083038186803b15801561087157600080fd5b505afa158015610885573d6000803e3d6000fd5b505050506040513d602081101561089b57600080fd5b8101908080519060200190929190505050610a6390919063ffffffff16565b610ae990919063ffffffff16565b82610b3390919063ffffffff16565b90506108fe856108f08584610a6390919063ffffffff16565b610ae990919063ffffffff16565b90508a73ffffffffffffffffffffffffffffffffffffffff1663e3ecc4b28a888151811061092857fe5b6020026020010151836040518363ffffffff1660e01b8152600401808373ffffffffffffffffffffffffffffffffffffffff16815260200182815260200192505050600060405180830381600087803b15801561098457600080fd5b505af1158015610998573d6000803e3d6000fd5b5050505050505050505b8080600101915050610393565b505050505050565b60008054906101000a900473ffffffffffffffffffffffffffffffffffffffff1681565b600080828401905083811015610a59576040517f08c379a000000000000000000000000000000000000000000000000000000000815260040180806020018281038252601b8152602001807f536166654d6174683a206164646974696f6e206f766572666c6f77000000000081525060200191505060405180910390fd5b8091505092915050565b600080831415610a765760009050610ae3565b6000828402905082848281610a8757fe5b0414610ade576040517f08c379a0000000000000000000000000000000000000000000000000000000008152600401808060200182810382526021815260200180610d046021913960400191505060405180910390fd5b809150505b92915050565b6000610b2b83836040518060400160405280601a81526020017f536166654d6174683a206469766973696f6e206279207a65726f000000000000815250610b7d565b905092915050565b6000610b7583836040518060400160405280601e81526020017f536166654d6174683a207375627472616374696f6e206f766572666c6f770000815250610c43565b905092915050565b60008083118290610c29576040517f08c379a00000000000000000000000000000000000000000000000000000000081526004018080602001828103825283818151815260200191508051906020019080838360005b83811015610bee578082015181840152602081019050610bd3565b50505050905090810190601f168015610c1b5780820380516001836020036101000a031916815260200191505b509250505060405180910390fd5b506000838581610c3557fe5b049050809150509392505050565b6000838311158290610cf0576040517f08c379a00000000000000000000000000000000000000000000000000000000081526004018080602001828103825283818151815260200191508051906020019080838360005b83811015610cb5578082015181840152602081019050610c9a565b50505050905090810190601f168015610ce25780820380516001836020036101000a031916815260200191505b509250505060405180910390fd5b506000838503905080915050939250505056fe536166654d6174683a206d756c7469706c69636174696f6e206f766572666c6f77a2646970667358221220c77dbff91c45bf436af52a1caf0153c175557bb4ddc35e6f8d1070c07810e36a64736f6c634300060c0033",
  "linkReferences": {},
  "deployedLinkReferences": {}
}