{
  "_format": "hh-sol-artifact-1",
  "contractName": "Vester",
  "sourceName": "contracts/gmx/staking/Vester.sol",
  "abi": [
    {
      "inputs": [
        {
          "internalType": "string",
          "name": "_name",
          "type": "string"
        },
        {
          "internalType": "string",
          "name": "_symbol",
          "type": "string"
        },
        {
          "internalType": "uint256",
          "name": "_vestingDuration",
          "type": "uint256"
        },
        {
          "internalType": "address",
          "name": "_esToken",
          "type": "address"
        },
        {
          "internalType": "address",
          "name": "_pairToken",
          "type": "address"
        },
        {
          "internalType": "address",
          "name": "_claimableToken",
          "type": "address"
        },
        {
          "internalType": "address",
          "name": "_rewardTracker",
          "type": "address"
        }
      ],
      "stateMutability": "nonpayable",
      "type": "constructor"
    },
    {
      "anonymous": false,
      "inputs": [
        {
          "indexed": true,
          "internalType": "address",
          "name": "owner",
          "type": "address"
        },
        {
          "indexed": true,
          "internalType": "address",
          "name": "spender",
          "type": "address"
        },
        {
          "indexed": false,
          "internalType": "uint256",
          "name": "value",
          "type": "uint256"
        }
      ],
      "name": "Approval",
      "type": "event"
    },
    {
      "anonymous": false,
      "inputs": [
        {
          "indexed": false,
          "internalType": "address",
          "name": "receiver",
          "type": "address"
        },
        {
          "indexed": false,
          "internalType": "uint256",
          "name": "amount",
          "type": "uint256"
        }
      ],
      "name": "Claim",
      "type": "event"
    },
    {
      "anonymous": false,
      "inputs": [
        {
          "indexed": false,
          "internalType": "address",
          "name": "account",
          "type": "address"
        },
        {
          "indexed": false,
          "internalType": "uint256",
          "name": "amount",
          "type": "uint256"
        }
      ],
      "name": "Deposit",
      "type": "event"
    },
    {
      "anonymous": false,
      "inputs": [
        {
          "indexed": true,
          "internalType": "address",
          "name": "from",
          "type": "address"
        },
        {
          "indexed": true,
          "internalType": "address",
          "name": "to",
          "type": "address"
        },
        {
          "indexed": false,
          "internalType": "uint256",
          "name": "value",
          "type": "uint256"
        }
      ],
      "name": "PairTransfer",
      "type": "event"
    },
    {
      "anonymous": false,
      "inputs": [
        {
          "indexed": true,
          "internalType": "address",
          "name": "from",
          "type": "address"
        },
        {
          "indexed": true,
          "internalType": "address",
          "name": "to",
          "type": "address"
        },
        {
          "indexed": false,
          "internalType": "uint256",
          "name": "value",
          "type": "uint256"
        }
      ],
      "name": "Transfer",
      "type": "event"
    },
    {
      "anonymous": false,
      "inputs": [
        {
          "indexed": false,
          "internalType": "address",
          "name": "account",
          "type": "address"
        },
        {
          "indexed": false,
          "internalType": "uint256",
          "name": "claimedAmount",
          "type": "uint256"
        },
        {
          "indexed": false,
          "internalType": "uint256",
          "name": "balance",
          "type": "uint256"
        }
      ],
      "name": "Withdraw",
      "type": "event"
    },
    {
      "inputs": [
        {
          "internalType": "address",
          "name": "",
          "type": "address"
        },
        {
          "internalType": "address",
          "name": "",
          "type": "address"
        }
      ],
      "name": "allowance",
      "outputs": [
        {
          "internalType": "uint256",
          "name": "",
          "type": "uint256"
        }
      ],
      "stateMutability": "view",
      "type": "function"
    },
    {
      "inputs": [
        {
          "internalType": "address",
          "name": "",
          "type": "address"
        },
        {
          "internalType": "uint256",
          "name": "",
          "type": "uint256"
        }
      ],
      "name": "approve",
      "outputs": [
        {
          "internalType": "bool",
          "name": "",
          "type": "bool"
        }
      ],
      "stateMutability": "nonpayable",
      "type": "function"
    },
    {
      "inputs": [
        {
          "internalType": "address",
          "name": "_account",
          "type": "address"
        }
      ],
      "name": "balanceOf",
      "outputs": [
        {
          "internalType": "uint256",
          "name": "",
          "type": "uint256"
        }
      ],
      "stateMutability": "view",
      "type": "function"
    },
    {
      "inputs": [
        {
          "internalType": "address",
          "name": "",
          "type": "address"
        }
      ],
      "name": "balances",
      "outputs": [
        {
          "internalType": "uint256",
          "name": "",
          "type": "uint256"
        }
      ],
      "stateMutability": "view",
      "type": "function"
    },
    {
      "inputs": [
        {
          "internalType": "address",
          "name": "",
          "type": "address"
        }
      ],
      "name": "bonusRewards",
      "outputs": [
        {
          "internalType": "uint256",
          "name": "",
          "type": "uint256"
        }
      ],
      "stateMutability": "view",
      "type": "function"
    },
    {
      "inputs": [],
      "name": "claim",
      "outputs": [
        {
          "internalType": "uint256",
          "name": "",
          "type": "uint256"
        }
      ],
      "stateMutability": "nonpayable",
      "type": "function"
    },
    {
      "inputs": [
        {
          "internalType": "address",
          "name": "_account",
          "type": "address"
        },
        {
          "internalType": "address",
          "name": "_receiver",
          "type": "address"
        }
      ],
      "name": "claimForAccount",
      "outputs": [
        {
          "internalType": "uint256",
          "name": "",
          "type": "uint256"
        }
      ],
      "stateMutability": "nonpayable",
      "type": "function"
    },
    {
      "inputs": [
        {
          "internalType": "address",
          "name": "_account",
          "type": "address"
        }
      ],
      "name": "claimable",
      "outputs": [
        {
          "internalType": "uint256",
          "name": "",
          "type": "uint256"
        }
      ],
      "stateMutability": "view",
      "type": "function"
    },
    {
      "inputs": [],
      "name": "claimableToken",
      "outputs": [
        {
          "internalType": "address",
          "name": "",
          "type": "address"
        }
      ],
      "stateMutability": "view",
      "type": "function"
    },
    {
      "inputs": [
        {
          "internalType": "address",
          "name": "",
          "type": "address"
        }
      ],
      "name": "claimedAmounts",
      "outputs": [
        {
          "internalType": "uint256",
          "name": "",
          "type": "uint256"
        }
      ],
      "stateMutability": "view",
      "type": "function"
    },
    {
      "inputs": [
        {
          "internalType": "address",
          "name": "",
          "type": "address"
        }
      ],
      "name": "cumulativeClaimAmounts",
      "outputs": [
        {
          "internalType": "uint256",
          "name": "",
          "type": "uint256"
        }
      ],
      "stateMutability": "view",
      "type": "function"
    },
    {
      "inputs": [
        {
          "internalType": "address",
          "name": "",
          "type": "address"
        }
      ],
      "name": "cumulativeRewardDeductions",
      "outputs": [
        {
          "internalType": "uint256",
          "name": "",
          "type": "uint256"
        }
      ],
      "stateMutability": "view",
      "type": "function"
    },
    {
      "inputs": [],
      "name": "decimals",
      "outputs": [
        {
          "internalType": "uint8",
          "name": "",
          "type": "uint8"
        }
      ],
      "stateMutability": "view",
      "type": "function"
    },
    {
      "inputs": [
        {
          "internalType": "uint256",
          "name": "_amount",
          "type": "uint256"
        }
      ],
      "name": "deposit",
      "outputs": [],
      "stateMutability": "nonpayable",
      "type": "function"
    },
    {
      "inputs": [
        {
          "internalType": "address",
          "name": "_account",
          "type": "address"
        },
        {
          "internalType": "uint256",
          "name": "_amount",
          "type": "uint256"
        }
      ],
      "name": "depositForAccount",
      "outputs": [],
      "stateMutability": "nonpayable",
      "type": "function"
    },
    {
      "inputs": [],
      "name": "esToken",
      "outputs": [
        {
          "internalType": "address",
          "name": "",
          "type": "address"
        }
      ],
      "stateMutability": "view",
      "type": "function"
    },
    {
      "inputs": [
        {
          "internalType": "address",
          "name": "_account",
          "type": "address"
        }
      ],
      "name": "getCombinedAverageStakedAmount",
      "outputs": [
        {
          "internalType": "uint256",
          "name": "",
          "type": "uint256"
        }
      ],
      "stateMutability": "view",
      "type": "function"
    },
    {
      "inputs": [
        {
          "internalType": "address",
          "name": "_account",
          "type": "address"
        }
      ],
      "name": "getMaxVestableAmount",
      "outputs": [
        {
          "internalType": "uint256",
          "name": "",
          "type": "uint256"
        }
      ],
      "stateMutability": "view",
      "type": "function"
    },
    {
      "inputs": [
        {
          "internalType": "address",
          "name": "_account",
          "type": "address"
        },
        {
          "internalType": "uint256",
          "name": "_esAmount",
          "type": "uint256"
        }
      ],
      "name": "getPairAmount",
      "outputs": [
        {
          "internalType": "uint256",
          "name": "",
          "type": "uint256"
        }
      ],
      "stateMutability": "view",
      "type": "function"
    },
    {
      "inputs": [
        {
          "internalType": "address",
          "name": "_account",
          "type": "address"
        }
      ],
      "name": "getTotalVested",
      "outputs": [
        {
          "internalType": "uint256",
          "name": "",
          "type": "uint256"
        }
      ],
      "stateMutability": "view",
      "type": "function"
    },
    {
      "inputs": [
        {
          "internalType": "address",
          "name": "_account",
          "type": "address"
        }
      ],
      "name": "getVestedAmount",
      "outputs": [
        {
          "internalType": "uint256",
          "name": "",
          "type": "uint256"
        }
      ],
      "stateMutability": "view",
      "type": "function"
    },
    {
      "inputs": [],
      "name": "gov",
      "outputs": [
        {
          "internalType": "address",
          "name": "",
          "type": "address"
        }
      ],
      "stateMutability": "view",
      "type": "function"
    },
    {
      "inputs": [],
      "name": "hasMaxVestableAmount",
      "outputs": [
        {
          "internalType": "bool",
          "name": "",
          "type": "bool"
        }
      ],
      "stateMutability": "view",
      "type": "function"
    },
    {
      "inputs": [],
      "name": "hasPairToken",
      "outputs": [
        {
          "internalType": "bool",
          "name": "",
          "type": "bool"
        }
      ],
      "stateMutability": "view",
      "type": "function"
    },
    {
      "inputs": [],
      "name": "hasRewardTracker",
      "outputs": [
        {
          "internalType": "bool",
          "name": "",
          "type": "bool"
        }
      ],
      "stateMutability": "view",
      "type": "function"
    },
    {
      "inputs": [
        {
          "internalType": "address",
          "name": "",
          "type": "address"
        }
      ],
      "name": "isHandler",
      "outputs": [
        {
          "internalType": "bool",
          "name": "",
          "type": "bool"
        }
      ],
      "stateMutability": "view",
      "type": "function"
    },
    {
      "inputs": [
        {
          "internalType": "address",
          "name": "",
          "type": "address"
        }
      ],
      "name": "lastVestingTimes",
      "outputs": [
        {
          "internalType": "uint256",
          "name": "",
          "type": "uint256"
        }
      ],
      "stateMutability": "view",
      "type": "function"
    },
    {
      "inputs": [],
      "name": "name",
      "outputs": [
        {
          "internalType": "string",
          "name": "",
          "type": "string"
        }
      ],
      "stateMutability": "view",
      "type": "function"
    },
    {
      "inputs": [
        {
          "internalType": "address",
          "name": "",
          "type": "address"
        }
      ],
      "name": "pairAmounts",
      "outputs": [
        {
          "internalType": "uint256",
          "name": "",
          "type": "uint256"
        }
      ],
      "stateMutability": "view",
      "type": "function"
    },
    {
      "inputs": [],
      "name": "pairSupply",
      "outputs": [
        {
          "internalType": "uint256",
          "name": "",
          "type": "uint256"
        }
      ],
      "stateMutability": "view",
      "type": "function"
    },
    {
      "inputs": [],
      "name": "pairToken",
      "outputs": [
        {
          "internalType": "address",
          "name": "",
          "type": "address"
        }
      ],
      "stateMutability": "view",
      "type": "function"
    },
    {
      "inputs": [],
      "name": "rewardTracker",
      "outputs": [
        {
          "internalType": "address",
          "name": "",
          "type": "address"
        }
      ],
      "stateMutability": "view",
      "type": "function"
    },
    {
      "inputs": [
        {
          "internalType": "address",
          "name": "_account",
          "type": "address"
        },
        {
          "internalType": "uint256",
          "name": "_amount",
          "type": "uint256"
        }
      ],
      "name": "setBonusRewards",
      "outputs": [],
      "stateMutability": "nonpayable",
      "type": "function"
    },
    {
      "inputs": [
        {
          "internalType": "address",
          "name": "_account",
          "type": "address"
        },
        {
          "internalType": "uint256",
          "name": "_amount",
          "type": "uint256"
        }
      ],
      "name": "setCumulativeRewardDeductions",
      "outputs": [],
      "stateMutability": "nonpayable",
      "type": "function"
    },
    {
      "inputs": [
        {
          "internalType": "address",
          "name": "_gov",
          "type": "address"
        }
      ],
      "name": "setGov",
      "outputs": [],
      "stateMutability": "nonpayable",
      "type": "function"
    },
    {
      "inputs": [
        {
          "internalType": "address",
          "name": "_handler",
          "type": "address"
        },
        {
          "internalType": "bool",
          "name": "_isActive",
          "type": "bool"
        }
      ],
      "name": "setHandler",
      "outputs": [],
      "stateMutability": "nonpayable",
      "type": "function"
    },
    {
      "inputs": [
        {
          "internalType": "bool",
          "name": "_hasMaxVestableAmount",
          "type": "bool"
        }
      ],
      "name": "setHasMaxVestableAmount",
      "outputs": [],
      "stateMutability": "nonpayable",
      "type": "function"
    },
    {
      "inputs": [
        {
          "internalType": "address",
          "name": "_account",
          "type": "address"
        },
        {
          "internalType": "uint256",
          "name": "_amount",
          "type": "uint256"
        }
      ],
      "name": "setTransferredAverageStakedAmounts",
      "outputs": [],
      "stateMutability": "nonpayable",
      "type": "function"
    },
    {
      "inputs": [
        {
          "internalType": "address",
          "name": "_account",
          "type": "address"
        },
        {
          "internalType": "uint256",
          "name": "_amount",
          "type": "uint256"
        }
      ],
      "name": "setTransferredCumulativeRewards",
      "outputs": [],
      "stateMutability": "nonpayable",
      "type": "function"
    },
    {
      "inputs": [],
      "name": "symbol",
      "outputs": [
        {
          "internalType": "string",
          "name": "",
          "type": "string"
        }
      ],
      "stateMutability": "view",
      "type": "function"
    },
    {
      "inputs": [],
      "name": "totalSupply",
      "outputs": [
        {
          "internalType": "uint256",
          "name": "",
          "type": "uint256"
        }
      ],
      "stateMutability": "view",
      "type": "function"
    },
    {
      "inputs": [
        {
          "internalType": "address",
          "name": "",
          "type": "address"
        },
        {
          "internalType": "uint256",
          "name": "",
          "type": "uint256"
        }
      ],
      "name": "transfer",
      "outputs": [
        {
          "internalType": "bool",
          "name": "",
          "type": "bool"
        }
      ],
      "stateMutability": "nonpayable",
      "type": "function"
    },
    {
      "inputs": [
        {
          "internalType": "address",
          "name": "",
          "type": "address"
        },
        {
          "internalType": "address",
          "name": "",
          "type": "address"
        },
        {
          "internalType": "uint256",
          "name": "",
          "type": "uint256"
        }
      ],
      "name": "transferFrom",
      "outputs": [
        {
          "internalType": "bool",
          "name": "",
          "type": "bool"
        }
      ],
      "stateMutability": "nonpayable",
      "type": "function"
    },
    {
      "inputs": [
        {
          "internalType": "address",
          "name": "_sender",
          "type": "address"
        },
        {
          "internalType": "address",
          "name": "_receiver",
          "type": "address"
        }
      ],
      "name": "transferStakeValues",
      "outputs": [],
      "stateMutability": "nonpayable",
      "type": "function"
    },
    {
      "inputs": [
        {
          "internalType": "address",
          "name": "",
          "type": "address"
        }
      ],
      "name": "transferredAverageStakedAmounts",
      "outputs": [
        {
          "internalType": "uint256",
          "name": "",
          "type": "uint256"
        }
      ],
      "stateMutability": "view",
      "type": "function"
    },
    {
      "inputs": [
        {
          "internalType": "address",
          "name": "",
          "type": "address"
        }
      ],
      "name": "transferredCumulativeRewards",
      "outputs": [
        {
          "internalType": "uint256",
          "name": "",
          "type": "uint256"
        }
      ],
      "stateMutability": "view",
      "type": "function"
    },
    {
      "inputs": [],
      "name": "vestingDuration",
      "outputs": [
        {
          "internalType": "uint256",
          "name": "",
          "type": "uint256"
        }
      ],
      "stateMutability": "view",
      "type": "function"
    },
    {
      "inputs": [],
      "name": "withdraw",
      "outputs": [],
      "stateMutability": "nonpayable",
      "type": "function"
    },
    {
      "inputs": [
        {
          "internalType": "address",
          "name": "_token",
          "type": "address"
        },
        {
          "internalType": "address",
          "name": "_account",
          "type": "address"
        },
        {
          "internalType": "uint256",
          "name": "_amount",
          "type": "uint256"
        }
      ],
      "name": "withdrawToken",
      "outputs": [],
      "stateMutability": "nonpayable",
      "type": "function"
    }
  ],
  "bytecode": "0x60806040526012600460006101000a81548160ff021916908360ff1602179055503480156200002d57600080fd5b5060405162004bf938038062004bf9833981810160405260e08110156200005357600080fd5b81019080805160405193929190846401000000008211156200007457600080fd5b838201915060208201858111156200008b57600080fd5b8251866001820283011164010000000082111715620000a957600080fd5b8083526020830192505050908051906020019080838360005b83811015620000df578082015181840152602081019050620000c2565b50505050905090810190601f1680156200010d5780820380516001836020036101000a031916815260200191505b50604052602001805160405193929190846401000000008211156200013157600080fd5b838201915060208201858111156200014857600080fd5b82518660018202830111640100000000821117156200016657600080fd5b8083526020830192505050908051906020019080838360005b838110156200019c5780820151818401526020810190506200017f565b50505050905090810190601f168015620001ca5780820380516001836020036101000a031916815260200191505b506040526020018051906020019092919080519060200190929190805190602001909291908051906020019092919080519060200190929190505050600160008190555033600160006101000a81548173ffffffffffffffffffffffffffffffffffffffff021916908373ffffffffffffffffffffffffffffffffffffffff1602179055508660029080519060200190620002679291906200040c565b508560039080519060200190620002809291906200040c565b508460058190555083600660006101000a81548173ffffffffffffffffffffffffffffffffffffffff021916908373ffffffffffffffffffffffffffffffffffffffff16021790555082600760006101000a81548173ffffffffffffffffffffffffffffffffffffffff021916908373ffffffffffffffffffffffffffffffffffffffff16021790555081600860006101000a81548173ffffffffffffffffffffffffffffffffffffffff021916908373ffffffffffffffffffffffffffffffffffffffff16021790555080600960006101000a81548173ffffffffffffffffffffffffffffffffffffffff021916908373ffffffffffffffffffffffffffffffffffffffff160217905550600073ffffffffffffffffffffffffffffffffffffffff16600960009054906101000a900473ffffffffffffffffffffffffffffffffffffffff1673ffffffffffffffffffffffffffffffffffffffff1614620003ff576001600c60006101000a81548160ff0219169083151502179055505b50505050505050620004b2565b828054600181600116156101000203166002900490600052602060002090601f016020900481019282601f106200044f57805160ff191683800117855562000480565b8280016001018555821562000480579182015b828111156200047f57825182559160200191906001019062000462565b5b5090506200048f919062000493565b5090565b5b80821115620004ae57600081600090555060010162000494565b5090565b61473780620004c26000396000f3fe608060405234801561001057600080fd5b50600436106102bb5760003560e01c806369de9b9311610182578063b5ff136d116100e9578063d75abb57116100a2578063e3ecc4b21161007c578063e3ecc4b214611031578063f421f62a1461107f578063f6d6d5aa1461109f578063f713c230146110d3576102bb565b8063d75abb5714610f4b578063d89b700714610f6b578063dd62ed3e14610fb9576102bb565b8063b5ff136d14610d83578063b6b55f2514610ddb578063b71bce2a14610e09578063cfad57a214610e61578063d0b038b714610ea5578063d5a73fdd14610ef3576102bb565b8063930354731161013b5780639303547314610b7c57806395d89b4114610bd45780639cb7de4b14610c57578063a2545fa514610ca7578063a9059cbb14610cff578063acf077a514610d63576102bb565b806369de9b93146109ae5780636bcb411a146109de57806370a0823114610a1257806371417b3214610a6a5780637337035c14610ac25780637cf8f3b214610b1a576102bb565b806327e235e311610226578063402914f5116101df578063402914f5146107e057806341f227241461083857806345f01ee61461088657806346ea87af146108de5780634e71d92d146109385780635d50e72914610956576102bb565b806327e235e314610683578063313ce567146106db578063342fcda9146106fc578063387a785d1461074a5780633ccfd60b146107a25780633de35b79146107ac576102bb565b806313e82e7a1161027857806313e82e7a146104f95780631514617e1461057157806315e90a411461058f57806316ca05c5146105ad57806318160ddd146105e157806323b872dd146105ff576102bb565b806301e33667146102c057806306fdde031461032e57806308f26c76146103b1578063095ea7b3146104095780630db9ea4a1461046d57806312d43a51146104c5575b600080fd5b61032c600480360360608110156102d657600080fd5b81019080803573ffffffffffffffffffffffffffffffffffffffff169060200190929190803573ffffffffffffffffffffffffffffffffffffffff16906020019092919080359060200190929190505050611137565b005b61033661122a565b6040518080602001828103825283818151815260200191508051906020019080838360005b8381101561037657808201518184015260208101905061035b565b50505050905090810190601f1680156103a35780820380516001836020036101000a031916815260200191505b509250505060405180910390f35b6103f3600480360360208110156103c757600080fd5b81019080803573ffffffffffffffffffffffffffffffffffffffff1690602001909291905050506112c8565b6040518082815260200191505060405180910390f35b6104556004803603604081101561041f57600080fd5b81019080803573ffffffffffffffffffffffffffffffffffffffff169060200190929190803590602001909291905050506114d2565b60405180821515815260200191505060405180910390f35b6104af6004803603602081101561048357600080fd5b81019080803573ffffffffffffffffffffffffffffffffffffffff169060200190929190505050611542565b6040518082815260200191505060405180910390f35b6104cd61155a565b604051808273ffffffffffffffffffffffffffffffffffffffff16815260200191505060405180910390f35b61055b6004803603604081101561050f57600080fd5b81019080803573ffffffffffffffffffffffffffffffffffffffff169060200190929190803573ffffffffffffffffffffffffffffffffffffffff169060200190929190505050611580565b6040518082815260200191505060405180910390f35b610579611625565b6040518082815260200191505060405180910390f35b61059761162b565b6040518082815260200191505060405180910390f35b6105b5611631565b604051808273ffffffffffffffffffffffffffffffffffffffff16815260200191505060405180910390f35b6105e9611657565b6040518082815260200191505060405180910390f35b61066b6004803603606081101561061557600080fd5b81019080803573ffffffffffffffffffffffffffffffffffffffff169060200190929190803573ffffffffffffffffffffffffffffffffffffffff1690602001909291908035906020019092919050505061165d565b60405180821515815260200191505060405180910390f35b6106c56004803603602081101561069957600080fd5b81019080803573ffffffffffffffffffffffffffffffffffffffff1690602001909291905050506116cd565b6040518082815260200191505060405180910390f35b6106e36116e5565b604051808260ff16815260200191505060405180910390f35b6107486004803603604081101561071257600080fd5b81019080803573ffffffffffffffffffffffffffffffffffffffff169060200190929190803590602001909291905050506116f8565b005b61078c6004803603602081101561076057600080fd5b81019080803573ffffffffffffffffffffffffffffffffffffffff169060200190929190505050611797565b6040518082815260200191505060405180910390f35b6107aa6117af565b005b6107b4611b90565b604051808273ffffffffffffffffffffffffffffffffffffffff16815260200191505060405180910390f35b610822600480360360208110156107f657600080fd5b81019080803573ffffffffffffffffffffffffffffffffffffffff169060200190929190505050611bb6565b6040518082815260200191505060405180910390f35b6108846004803603604081101561084e57600080fd5b81019080803573ffffffffffffffffffffffffffffffffffffffff16906020019092919080359060200190929190505050611c75565b005b6108c86004803603602081101561089c57600080fd5b81019080803573ffffffffffffffffffffffffffffffffffffffff169060200190929190505050611d4e565b6040518082815260200191505060405180910390f35b610920600480360360208110156108f457600080fd5b81019080803573ffffffffffffffffffffffffffffffffffffffff169060200190929190505050611ffb565b60405180821515815260200191505060405180910390f35b61094061201b565b6040518082815260200191505060405180910390f35b6109986004803603602081101561096c57600080fd5b81019080803573ffffffffffffffffffffffffffffffffffffffff1690602001909291905050506120b5565b6040518082815260200191505060405180910390f35b6109dc600480360360208110156109c457600080fd5b810190808035151590602001909291905050506120cd565b005b6109e66121ad565b604051808273ffffffffffffffffffffffffffffffffffffffff16815260200191505060405180910390f35b610a5460048036036020811015610a2857600080fd5b81019080803573ffffffffffffffffffffffffffffffffffffffff1690602001909291905050506121d3565b6040518082815260200191505060405180910390f35b610aac60048036036020811015610a8057600080fd5b81019080803573ffffffffffffffffffffffffffffffffffffffff16906020019092919050505061221c565b6040518082815260200191505060405180910390f35b610b0460048036036020811015610ad857600080fd5b81019080803573ffffffffffffffffffffffffffffffffffffffff169060200190929190505050612234565b6040518082815260200191505060405180910390f35b610b6660048036036040811015610b3057600080fd5b81019080803573ffffffffffffffffffffffffffffffffffffffff1690602001909291908035906020019092919050505061224c565b6040518082815260200191505060405180910390f35b610bbe60048036036020811015610b9257600080fd5b81019080803573ffffffffffffffffffffffffffffffffffffffff1690602001909291905050506122d4565b6040518082815260200191505060405180910390f35b610bdc61236e565b6040518080602001828103825283818151815260200191508051906020019080838360005b83811015610c1c578082015181840152602081019050610c01565b50505050905090810190601f168015610c495780820380516001836020036101000a031916815260200191505b509250505060405180910390f35b610ca560048036036040811015610c6d57600080fd5b81019080803573ffffffffffffffffffffffffffffffffffffffff16906020019092919080351515906020019092919050505061240c565b005b610ce960048036036020811015610cbd57600080fd5b81019080803573ffffffffffffffffffffffffffffffffffffffff16906020019092919050505061252a565b6040518082815260200191505060405180910390f35b610d4b60048036036040811015610d1557600080fd5b81019080803573ffffffffffffffffffffffffffffffffffffffff16906020019092919080359060200190929190505050612542565b60405180821515815260200191505060405180910390f35b610d6b6125b2565b60405180821515815260200191505060405180910390f35b610dc560048036036020811015610d9957600080fd5b81019080803573ffffffffffffffffffffffffffffffffffffffff1690602001909291905050506125c5565b6040518082815260200191505060405180910390f35b610e0760048036036020811015610df157600080fd5b81019080803590602001909291905050506125dd565b005b610e4b60048036036020811015610e1f57600080fd5b81019080803573ffffffffffffffffffffffffffffffffffffffff169060200190929190505050612673565b6040518082815260200191505060405180910390f35b610ea360048036036020811015610e7757600080fd5b81019080803573ffffffffffffffffffffffffffffffffffffffff16906020019092919050505061268b565b005b610ef160048036036040811015610ebb57600080fd5b81019080803573ffffffffffffffffffffffffffffffffffffffff16906020019092919080359060200190929190505050612792565b005b610f3560048036036020811015610f0957600080fd5b81019080803573ffffffffffffffffffffffffffffffffffffffff16906020019092919050505061286b565b6040518082815260200191505060405180910390f35b610f53612910565b60405180821515815260200191505060405180910390f35b610fb760048036036040811015610f8157600080fd5b81019080803573ffffffffffffffffffffffffffffffffffffffff16906020019092919080359060200190929190505050612969565b005b61101b60048036036040811015610fcf57600080fd5b81019080803573ffffffffffffffffffffffffffffffffffffffff169060200190929190803573ffffffffffffffffffffffffffffffffffffffff169060200190929190505050612a42565b6040518082815260200191505060405180910390f35b61107d6004803603604081101561104757600080fd5b81019080803573ffffffffffffffffffffffffffffffffffffffff16906020019092919080359060200190929190505050612a4a565b005b611087612b23565b60405180821515815260200191505060405180910390f35b6110a7612b7c565b604051808273ffffffffffffffffffffffffffffffffffffffff16815260200191505060405180910390f35b611135600480360360408110156110e957600080fd5b81019080803573ffffffffffffffffffffffffffffffffffffffff169060200190929190803573ffffffffffffffffffffffffffffffffffffffff169060200190929190505050612ba2565b005b600160009054906101000a900473ffffffffffffffffffffffffffffffffffffffff1673ffffffffffffffffffffffffffffffffffffffff163373ffffffffffffffffffffffffffffffffffffffff16146111fa576040517f08c379a00000000000000000000000000000000000000000000000000000000081526004018080602001828103825260158152602001807f476f7665726e61626c653a20666f7262696464656e000000000000000000000081525060200191505060405180910390fd5b61122582828573ffffffffffffffffffffffffffffffffffffffff16612f7d9092919063ffffffff16565b505050565b60028054600181600116156101000203166002900480601f0160208091040260200160405190810160405280929190818152602001828054600181600116156101000203166002900480156112c05780601f10611295576101008083540402835291602001916112c0565b820191906000526020600020905b8154815290600101906020018083116112a357829003601f168201915b505050505081565b60006112d2612b23565b6112df57600090506114cd565b6000601360008473ffffffffffffffffffffffffffffffffffffffff1673ffffffffffffffffffffffffffffffffffffffff1681526020019081526020016000205490506000601560008573ffffffffffffffffffffffffffffffffffffffff1673ffffffffffffffffffffffffffffffffffffffff1681526020019081526020016000205490506000600960009054906101000a900473ffffffffffffffffffffffffffffffffffffffff1673ffffffffffffffffffffffffffffffffffffffff16633792def3866040518263ffffffff1660e01b8152600401808273ffffffffffffffffffffffffffffffffffffffff16815260200191505060206040518083038186803b1580156113f257600080fd5b505afa158015611406573d6000803e3d6000fd5b505050506040513d602081101561141c57600080fd5b81019080805190602001909291905050509050600061145683611448868561301f90919063ffffffff16565b61301f90919063ffffffff16565b90506000601460008873ffffffffffffffffffffffffffffffffffffffff1673ffffffffffffffffffffffffffffffffffffffff168152602001908152602001600020549050808210156114b2576000955050505050506114cd565b6114c581836130a790919063ffffffff16565b955050505050505b919050565b60006040517f08c379a00000000000000000000000000000000000000000000000000000000081526004018080602001828103825260198152602001807f5665737465723a206e6f6e2d7472616e736665727261626c650000000000000081525060200191505060405180910390fd5b60116020528060005260406000206000915090505481565b600160009054906101000a900473ffffffffffffffffffffffffffffffffffffffff1681565b6000600260005414156115fb576040517f08c379a000000000000000000000000000000000000000000000000000000000815260040180806020018281038252601f8152602001807f5265656e7472616e637947756172643a207265656e7472616e742063616c6c0081525060200191505060405180910390fd5b600260008190555061160b6130f1565b61161583836131b2565b9050600160008190555092915050565b60055481565b600b5481565b600660009054906101000a900473ffffffffffffffffffffffffffffffffffffffff1681565b600a5481565b60006040517f08c379a00000000000000000000000000000000000000000000000000000000081526004018080602001828103825260198152602001807f5665737465723a206e6f6e2d7472616e736665727261626c650000000000000081525060200191505060405180910390fd5b600d6020528060005260406000206000915090505481565b600460009054906101000a900460ff1681565b60026000541415611771576040517f08c379a000000000000000000000000000000000000000000000000000000000815260040180806020018281038252601f8152602001807f5265656e7472616e637947756172643a207265656e7472616e742063616c6c0081525060200191505060405180910390fd5b60026000819055506117816130f1565b61178b828261330b565b60016000819055505050565b60146020528060005260406000206000915090505481565b60026000541415611828576040517f08c379a000000000000000000000000000000000000000000000000000000000815260040180806020018281038252601f8152602001807f5265656e7472616e637947756172643a207265656e7472616e742063616c6c0081525060200191505060405180910390fd5b60026000819055506000339050600081905061184482826131b2565b506000600f60008473ffffffffffffffffffffffffffffffffffffffff1673ffffffffffffffffffffffffffffffffffffffff1681526020019081526020016000205490506000600d60008573ffffffffffffffffffffffffffffffffffffffff1673ffffffffffffffffffffffffffffffffffffffff16815260200190815260200160002054905060006118e2838361301f90919063ffffffff16565b90506000811161195a576040517f08c379a000000000000000000000000000000000000000000000000000000000815260040180806020018281038252601d8152602001807f5665737465723a2076657374656420616d6f756e74206973207a65726f00000081525060200191505060405180910390fd5b611962612910565b15611a04576000600e60008773ffffffffffffffffffffffffffffffffffffffff1673ffffffffffffffffffffffffffffffffffffffff1681526020019081526020016000205490506119b586826135dc565b611a028582600760009054906101000a900473ffffffffffffffffffffffffffffffffffffffff1673ffffffffffffffffffffffffffffffffffffffff16612f7d9092919063ffffffff16565b505b611a518483600660009054906101000a900473ffffffffffffffffffffffffffffffffffffffff1673ffffffffffffffffffffffffffffffffffffffff16612f7d9092919063ffffffff16565b611a5b8583613796565b600f60008673ffffffffffffffffffffffffffffffffffffffff1673ffffffffffffffffffffffffffffffffffffffff16815260200190815260200160002060009055601060008673ffffffffffffffffffffffffffffffffffffffff1673ffffffffffffffffffffffffffffffffffffffff16815260200190815260200160002060009055601160008673ffffffffffffffffffffffffffffffffffffffff1673ffffffffffffffffffffffffffffffffffffffff168152602001908152602001600020600090557ff279e6a1f5e320cca91135676d9cb6e44ca8a08c0b88342bcdb1144f6511b568858484604051808473ffffffffffffffffffffffffffffffffffffffff168152602001838152602001828152602001935050505060405180910390a150505050506001600081905550565b600760009054906101000a900473ffffffffffffffffffffffffffffffffffffffff1681565b600080611c4a601060008573ffffffffffffffffffffffffffffffffffffffff1673ffffffffffffffffffffffffffffffffffffffff16815260200190815260200160002054600f60008673ffffffffffffffffffffffffffffffffffffffff1673ffffffffffffffffffffffffffffffffffffffff168152602001908152602001600020546130a790919063ffffffff16565b90506000611c5784613950565b9050611c6c818361301f90919063ffffffff16565b92505050919050565b60026000541415611cee576040517f08c379a000000000000000000000000000000000000000000000000000000000815260040180806020018281038252601f8152602001807f5265656e7472616e637947756172643a207265656e7472616e742063616c6c0081525060200191505060405180910390fd5b6002600081905550611cfe6130f1565b80601560008473ffffffffffffffffffffffffffffffffffffffff1673ffffffffffffffffffffffffffffffffffffffff1681526020019081526020016000208190555060016000819055505050565b600080600960009054906101000a900473ffffffffffffffffffffffffffffffffffffffff1673ffffffffffffffffffffffffffffffffffffffff16633792def3846040518263ffffffff1660e01b8152600401808273ffffffffffffffffffffffffffffffffffffffff16815260200191505060206040518083038186803b158015611dda57600080fd5b505afa158015611dee573d6000803e3d6000fd5b505050506040513d6020811015611e0457600080fd5b810190808051906020019092919050505090506000601360008573ffffffffffffffffffffffffffffffffffffffff1673ffffffffffffffffffffffffffffffffffffffff1681526020019081526020016000205490506000611e70828461301f90919063ffffffff16565b90506000811415611e875760009350505050611ff6565b6000600960009054906101000a900473ffffffffffffffffffffffffffffffffffffffff1673ffffffffffffffffffffffffffffffffffffffff1663a3180217876040518263ffffffff1660e01b8152600401808273ffffffffffffffffffffffffffffffffffffffff16815260200191505060206040518083038186803b158015611f1257600080fd5b505afa158015611f26573d6000803e3d6000fd5b505050506040513d6020811015611f3c57600080fd5b810190808051906020019092919050505090506000601260008873ffffffffffffffffffffffffffffffffffffffff1673ffffffffffffffffffffffffffffffffffffffff168152602001908152602001600020549050611fee611fbb84611fad8785613a5890919063ffffffff16565b613ade90919063ffffffff16565b611fe085611fd28987613a5890919063ffffffff16565b613ade90919063ffffffff16565b61301f90919063ffffffff16565b955050505050505b919050565b60166020528060005260406000206000915054906101000a900460ff1681565b600060026000541415612096576040517f08c379a000000000000000000000000000000000000000000000000000000000815260040180806020018281038252601f8152602001807f5265656e7472616e637947756172643a207265656e7472616e742063616c6c0081525060200191505060405180910390fd5b60026000819055506120a833336131b2565b9050600160008190555090565b600e6020528060005260406000206000915090505481565b600160009054906101000a900473ffffffffffffffffffffffffffffffffffffffff1673ffffffffffffffffffffffffffffffffffffffff163373ffffffffffffffffffffffffffffffffffffffff1614612190576040517f08c379a00000000000000000000000000000000000000000000000000000000081526004018080602001828103825260158152602001807f476f7665726e61626c653a20666f7262696464656e000000000000000000000081525060200191505060405180910390fd5b80600c60006101000a81548160ff02191690831515021790555050565b600960009054906101000a900473ffffffffffffffffffffffffffffffffffffffff1681565b6000600d60008373ffffffffffffffffffffffffffffffffffffffff1673ffffffffffffffffffffffffffffffffffffffff168152602001908152602001600020549050919050565b60106020528060005260406000206000915090505481565b60126020528060005260406000206000915090505481565b6000612256612b23565b61226357600090506122ce565b600061226e84611d4e565b905060008114156122835760009150506122ce565b600061228e856112c8565b905060008114156122a4576000925050506122ce565b6122c9816122bb8487613a5890919063ffffffff16565b613ade90919063ffffffff16565b925050505b92915050565b6000612367600f60008473ffffffffffffffffffffffffffffffffffffffff1673ffffffffffffffffffffffffffffffffffffffff16815260200190815260200160002054600d60008573ffffffffffffffffffffffffffffffffffffffff1673ffffffffffffffffffffffffffffffffffffffff1681526020019081526020016000205461301f90919063ffffffff16565b9050919050565b60038054600181600116156101000203166002900480601f0160208091040260200160405190810160405280929190818152602001828054600181600116156101000203166002900480156124045780601f106123d957610100808354040283529160200191612404565b820191906000526020600020905b8154815290600101906020018083116123e757829003601f168201915b505050505081565b600160009054906101000a900473ffffffffffffffffffffffffffffffffffffffff1673ffffffffffffffffffffffffffffffffffffffff163373ffffffffffffffffffffffffffffffffffffffff16146124cf576040517f08c379a00000000000000000000000000000000000000000000000000000000081526004018080602001828103825260158152602001807f476f7665726e61626c653a20666f7262696464656e000000000000000000000081525060200191505060405180910390fd5b80601660008473ffffffffffffffffffffffffffffffffffffffff1673ffffffffffffffffffffffffffffffffffffffff16815260200190815260200160002060006101000a81548160ff0219169083151502179055505050565b60156020528060005260406000206000915090505481565b60006040517f08c379a00000000000000000000000000000000000000000000000000000000081526004018080602001828103825260198152602001807f5665737465723a206e6f6e2d7472616e736665727261626c650000000000000081525060200191505060405180910390fd5b600c60009054906101000a900460ff1681565b600f6020528060005260406000206000915090505481565b60026000541415612656576040517f08c379a000000000000000000000000000000000000000000000000000000000815260040180806020018281038252601f8152602001807f5265656e7472616e637947756172643a207265656e7472616e742063616c6c0081525060200191505060405180910390fd5b6002600081905550612668338261330b565b600160008190555050565b60136020528060005260406000206000915090505481565b600160009054906101000a900473ffffffffffffffffffffffffffffffffffffffff1673ffffffffffffffffffffffffffffffffffffffff163373ffffffffffffffffffffffffffffffffffffffff161461274e576040517f08c379a00000000000000000000000000000000000000000000000000000000081526004018080602001828103825260158152602001807f476f7665726e61626c653a20666f7262696464656e000000000000000000000081525060200191505060405180910390fd5b80600160006101000a81548173ffffffffffffffffffffffffffffffffffffffff021916908373ffffffffffffffffffffffffffffffffffffffff16021790555050565b6002600054141561280b576040517f08c379a000000000000000000000000000000000000000000000000000000000815260040180806020018281038252601f8152602001807f5265656e7472616e637947756172643a207265656e7472616e742063616c6c0081525060200191505060405180910390fd5b600260008190555061281b6130f1565b80601360008473ffffffffffffffffffffffffffffffffffffffff1673ffffffffffffffffffffffffffffffffffffffff1681526020019081526020016000208190555060016000819055505050565b600080600d60008473ffffffffffffffffffffffffffffffffffffffff1673ffffffffffffffffffffffffffffffffffffffff1681526020019081526020016000205490506000600f60008573ffffffffffffffffffffffffffffffffffffffff1673ffffffffffffffffffffffffffffffffffffffff168152602001908152602001600020549050612907818361301f90919063ffffffff16565b92505050919050565b60008073ffffffffffffffffffffffffffffffffffffffff16600760009054906101000a900473ffffffffffffffffffffffffffffffffffffffff1673ffffffffffffffffffffffffffffffffffffffff161415905090565b600260005414156129e2576040517f08c379a000000000000000000000000000000000000000000000000000000000815260040180806020018281038252601f8152602001807f5265656e7472616e637947756172643a207265656e7472616e742063616c6c0081525060200191505060405180910390fd5b60026000819055506129f26130f1565b80601460008473ffffffffffffffffffffffffffffffffffffffff1673ffffffffffffffffffffffffffffffffffffffff1681526020019081526020016000208190555060016000819055505050565b600092915050565b60026000541415612ac3576040517f08c379a000000000000000000000000000000000000000000000000000000000815260040180806020018281038252601f8152602001807f5265656e7472616e637947756172643a207265656e7472616e742063616c6c0081525060200191505060405180910390fd5b6002600081905550612ad36130f1565b80601260008473ffffffffffffffffffffffffffffffffffffffff1673ffffffffffffffffffffffffffffffffffffffff1681526020019081526020016000208190555060016000819055505050565b60008073ffffffffffffffffffffffffffffffffffffffff16600960009054906101000a900473ffffffffffffffffffffffffffffffffffffffff1673ffffffffffffffffffffffffffffffffffffffff161415905090565b600860009054906101000a900473ffffffffffffffffffffffffffffffffffffffff1681565b60026000541415612c1b576040517f08c379a000000000000000000000000000000000000000000000000000000000815260040180806020018281038252601f8152602001807f5265656e7472616e637947756172643a207265656e7472616e742063616c6c0081525060200191505060405180910390fd5b6002600081905550612c2b6130f1565b612c3482611d4e565b601260008373ffffffffffffffffffffffffffffffffffffffff1673ffffffffffffffffffffffffffffffffffffffff168152602001908152602001600020819055506000601260008473ffffffffffffffffffffffffffffffffffffffff1673ffffffffffffffffffffffffffffffffffffffff168152602001908152602001600020819055506000601360008473ffffffffffffffffffffffffffffffffffffffff1673ffffffffffffffffffffffffffffffffffffffff1681526020019081526020016000205490506000600960009054906101000a900473ffffffffffffffffffffffffffffffffffffffff1673ffffffffffffffffffffffffffffffffffffffff16633792def3856040518263ffffffff1660e01b8152600401808273ffffffffffffffffffffffffffffffffffffffff16815260200191505060206040518083038186803b158015612d8b57600080fd5b505afa158015612d9f573d6000803e3d6000fd5b505050506040513d6020811015612db557600080fd5b81019080805190602001909291905050509050612ddb818361301f90919063ffffffff16565b601360008573ffffffffffffffffffffffffffffffffffffffff1673ffffffffffffffffffffffffffffffffffffffff1681526020019081526020016000208190555080601460008673ffffffffffffffffffffffffffffffffffffffff1673ffffffffffffffffffffffffffffffffffffffff168152602001908152602001600020819055506000601360008673ffffffffffffffffffffffffffffffffffffffff1673ffffffffffffffffffffffffffffffffffffffff16815260200190815260200160002081905550601560008573ffffffffffffffffffffffffffffffffffffffff1673ffffffffffffffffffffffffffffffffffffffff16815260200190815260200160002054601560008573ffffffffffffffffffffffffffffffffffffffff1673ffffffffffffffffffffffffffffffffffffffff168152602001908152602001600020819055506000601560008673ffffffffffffffffffffffffffffffffffffffff1673ffffffffffffffffffffffffffffffffffffffff16815260200190815260200160002081905550505060016000819055505050565b61301a8363a9059cbb60e01b8484604051602401808373ffffffffffffffffffffffffffffffffffffffff16815260200182815260200192505050604051602081830303815290604052907bffffffffffffffffffffffffffffffffffffffffffffffffffffffff19166020820180517bffffffffffffffffffffffffffffffffffffffffffffffffffffffff8381831617835250505050613b28565b505050565b60008082840190508381101561309d576040517f08c379a000000000000000000000000000000000000000000000000000000000815260040180806020018281038252601b8152602001807f536166654d6174683a206164646974696f6e206f766572666c6f77000000000081525060200191505060405180910390fd5b8091505092915050565b60006130e983836040518060400160405280601e81526020017f536166654d6174683a207375627472616374696f6e206f766572666c6f770000815250613c17565b905092915050565b601660003373ffffffffffffffffffffffffffffffffffffffff1673ffffffffffffffffffffffffffffffffffffffff16815260200190815260200160002060009054906101000a900460ff166131b0576040517f08c379a00000000000000000000000000000000000000000000000000000000081526004018080602001828103825260118152602001807f5665737465723a20666f7262696464656e00000000000000000000000000000081525060200191505060405180910390fd5b565b60006131bd83613cd7565b60006131c884611bb6565b905061321c81601060008773ffffffffffffffffffffffffffffffffffffffff1673ffffffffffffffffffffffffffffffffffffffff1681526020019081526020016000205461301f90919063ffffffff16565b601060008673ffffffffffffffffffffffffffffffffffffffff1673ffffffffffffffffffffffffffffffffffffffff168152602001908152602001600020819055506132ac8382600860009054906101000a900473ffffffffffffffffffffffffffffffffffffffff1673ffffffffffffffffffffffffffffffffffffffff16612f7d9092919063ffffffff16565b7f47cee97cb7acd717b3c0aa1435d004cd5b3c8c57d70dbceb4e4458bbd60e39d48482604051808373ffffffffffffffffffffffffffffffffffffffff1681526020018281526020019250505060405180910390a18091505092915050565b60008111613381576040517f08c379a00000000000000000000000000000000000000000000000000000000081526004018080602001828103825260178152602001807f5665737465723a20696e76616c6964205f616d6f756e7400000000000000000081525060200191505060405180910390fd5b61338a82613cd7565b6133d9823083600660009054906101000a900473ffffffffffffffffffffffffffffffffffffffff1673ffffffffffffffffffffffffffffffffffffffff16613e86909392919063ffffffff16565b6133e38282613f47565b6133eb612910565b156134fe576000600e60008473ffffffffffffffffffffffffffffffffffffffff1673ffffffffffffffffffffffffffffffffffffffff168152602001908152602001600020549050600061347f84600d60008773ffffffffffffffffffffffffffffffffffffffff1673ffffffffffffffffffffffffffffffffffffffff1681526020019081526020016000205461224c565b9050818111156134fb57600061349e83836130a790919063ffffffff16565b90506134ef853083600760009054906101000a900473ffffffffffffffffffffffffffffffffffffffff1673ffffffffffffffffffffffffffffffffffffffff16613e86909392919063ffffffff16565b6134f98582614104565b505b50505b600c60009054906101000a900460ff161561358357600061351e836112c8565b90508061352a846122d4565b1115613581576040517f08c379a00000000000000000000000000000000000000000000000000000000081526004018080602001828103825260248152602001806146b46024913960400191505060405180910390fd5b505b7fe1fffcc4923d04b559f4d29a8bfc6cda04eb5b0d3c460751c2402c5c5cc9109c8282604051808373ffffffffffffffffffffffffffffffffffffffff1681526020018281526020019250505060405180910390a15050565b600073ffffffffffffffffffffffffffffffffffffffff168273ffffffffffffffffffffffffffffffffffffffff161415613662576040517f08c379a00000000000000000000000000000000000000000000000000000000081526004018080602001828103825260228152602001806146716022913960400191505060405180910390fd5b6136ce8160405180606001604052806023815260200161464e60239139600e60008673ffffffffffffffffffffffffffffffffffffffff1673ffffffffffffffffffffffffffffffffffffffff16815260200190815260200160002054613c179092919063ffffffff16565b600e60008473ffffffffffffffffffffffffffffffffffffffff1673ffffffffffffffffffffffffffffffffffffffff1681526020019081526020016000208190555061372681600b546130a790919063ffffffff16565b600b81905550600073ffffffffffffffffffffffffffffffffffffffff168273ffffffffffffffffffffffffffffffffffffffff167f659523c479d006050ebc0d0e48fea36d1b2c5d45b2f31402ac6f8671fc84cc04836040518082815260200191505060405180910390a35050565b600073ffffffffffffffffffffffffffffffffffffffff168273ffffffffffffffffffffffffffffffffffffffff16141561381c576040517f08c379a00000000000000000000000000000000000000000000000000000000081526004018080602001828103825260228152602001806146716022913960400191505060405180910390fd5b6138888160405180606001604052806023815260200161464e60239139600d60008673ffffffffffffffffffffffffffffffffffffffff1673ffffffffffffffffffffffffffffffffffffffff16815260200190815260200160002054613c179092919063ffffffff16565b600d60008473ffffffffffffffffffffffffffffffffffffffff1673ffffffffffffffffffffffffffffffffffffffff168152602001908152602001600020819055506138e081600a546130a790919063ffffffff16565b600a81905550600073ffffffffffffffffffffffffffffffffffffffff168273ffffffffffffffffffffffffffffffffffffffff167fddf252ad1be2c89b69c2b068fc378daa952ba7f163c4a11628f55a4df523b3ef836040518082815260200191505060405180910390a35050565b6000806139a5601160008573ffffffffffffffffffffffffffffffffffffffff1673ffffffffffffffffffffffffffffffffffffffff16815260200190815260200160002054426130a790919063ffffffff16565b90506000600d60008573ffffffffffffffffffffffffffffffffffffffff1673ffffffffffffffffffffffffffffffffffffffff16815260200190815260200160002054905060008114156139ff57600092505050613a53565b6000613a0a8561286b565b90506000613a35600554613a278685613a5890919063ffffffff16565b613ade90919063ffffffff16565b905082811015613a4b5780945050505050613a53565b829450505050505b919050565b600080831415613a6b5760009050613ad8565b6000828402905082848281613a7c57fe5b0414613ad3576040517f08c379a00000000000000000000000000000000000000000000000000000000081526004018080602001828103825260218152602001806146936021913960400191505060405180910390fd5b809150505b92915050565b6000613b2083836040518060400160405280601a81526020017f536166654d6174683a206469766973696f6e206279207a65726f0000000000008152506142c1565b905092915050565b6060613b8a826040518060400160405280602081526020017f5361666545524332303a206c6f772d6c6576656c2063616c6c206661696c65648152508573ffffffffffffffffffffffffffffffffffffffff166143879092919063ffffffff16565b9050600081511115613c1257808060200190516020811015613bab57600080fd5b8101908080519060200190929190505050613c11576040517f08c379a000000000000000000000000000000000000000000000000000000000815260040180806020018281038252602a8152602001806146d8602a913960400191505060405180910390fd5b5b505050565b6000838311158290613cc4576040517f08c379a00000000000000000000000000000000000000000000000000000000081526004018080602001828103825283818151815260200191508051906020019080838360005b83811015613c89578082015181840152602081019050613c6e565b50505050905090810190601f168015613cb65780820380516001836020036101000a031916815260200191505b509250505060405180910390fd5b5060008385039050809150509392505050565b6000613ce282613950565b905042601160008473ffffffffffffffffffffffffffffffffffffffff1673ffffffffffffffffffffffffffffffffffffffff168152602001908152602001600020819055506000811415613d375750613e83565b613d418282613796565b613d9381600f60008573ffffffffffffffffffffffffffffffffffffffff1673ffffffffffffffffffffffffffffffffffffffff1681526020019081526020016000205461301f90919063ffffffff16565b600f60008473ffffffffffffffffffffffffffffffffffffffff1673ffffffffffffffffffffffffffffffffffffffff16815260200190815260200160002081905550600660009054906101000a900473ffffffffffffffffffffffffffffffffffffffff1673ffffffffffffffffffffffffffffffffffffffff16639dc29fac30836040518363ffffffff1660e01b8152600401808373ffffffffffffffffffffffffffffffffffffffff16815260200182815260200192505050600060405180830381600087803b158015613e6957600080fd5b505af1158015613e7d573d6000803e3d6000fd5b50505050505b50565b613f41846323b872dd60e01b858585604051602401808473ffffffffffffffffffffffffffffffffffffffff1681526020018373ffffffffffffffffffffffffffffffffffffffff1681526020018281526020019350505050604051602081830303815290604052907bffffffffffffffffffffffffffffffffffffffffffffffffffffffff19166020820180517bffffffffffffffffffffffffffffffffffffffffffffffffffffffff8381831617835250505050613b28565b50505050565b600073ffffffffffffffffffffffffffffffffffffffff168273ffffffffffffffffffffffffffffffffffffffff161415613fea576040517f08c379a00000000000000000000000000000000000000000000000000000000081526004018080602001828103825260208152602001807f5665737465723a206d696e7420746f20746865207a65726f206164647265737381525060200191505060405180910390fd5b613fff81600a5461301f90919063ffffffff16565b600a8190555061405781600d60008573ffffffffffffffffffffffffffffffffffffffff1673ffffffffffffffffffffffffffffffffffffffff1681526020019081526020016000205461301f90919063ffffffff16565b600d60008473ffffffffffffffffffffffffffffffffffffffff1673ffffffffffffffffffffffffffffffffffffffff168152602001908152602001600020819055508173ffffffffffffffffffffffffffffffffffffffff16600073ffffffffffffffffffffffffffffffffffffffff167fddf252ad1be2c89b69c2b068fc378daa952ba7f163c4a11628f55a4df523b3ef836040518082815260200191505060405180910390a35050565b600073ffffffffffffffffffffffffffffffffffffffff168273ffffffffffffffffffffffffffffffffffffffff1614156141a7576040517f08c379a00000000000000000000000000000000000000000000000000000000081526004018080602001828103825260208152602001807f5665737465723a206d696e7420746f20746865207a65726f206164647265737381525060200191505060405180910390fd5b6141bc81600b5461301f90919063ffffffff16565b600b8190555061421481600e60008573ffffffffffffffffffffffffffffffffffffffff1673ffffffffffffffffffffffffffffffffffffffff1681526020019081526020016000205461301f90919063ffffffff16565b600e60008473ffffffffffffffffffffffffffffffffffffffff1673ffffffffffffffffffffffffffffffffffffffff168152602001908152602001600020819055508173ffffffffffffffffffffffffffffffffffffffff16600073ffffffffffffffffffffffffffffffffffffffff167f659523c479d006050ebc0d0e48fea36d1b2c5d45b2f31402ac6f8671fc84cc04836040518082815260200191505060405180910390a35050565b6000808311829061436d576040517f08c379a00000000000000000000000000000000000000000000000000000000081526004018080602001828103825283818151815260200191508051906020019080838360005b83811015614332578082015181840152602081019050614317565b50505050905090810190601f16801561435f5780820380516001836020036101000a031916815260200191505b509250505060405180910390fd5b50600083858161437957fe5b049050809150509392505050565b6060614396848460008561439f565b90509392505050565b6060824710156143fa576040517f08c379a00000000000000000000000000000000000000000000000000000000081526004018080602001828103825260268152602001806146286026913960400191505060405180910390fd5b61440385614548565b614475576040517f08c379a000000000000000000000000000000000000000000000000000000000815260040180806020018281038252601d8152602001807f416464726573733a2063616c6c20746f206e6f6e2d636f6e747261637400000081525060200191505060405180910390fd5b600060608673ffffffffffffffffffffffffffffffffffffffff1685876040518082805190602001908083835b602083106144c557805182526020820191506020810190506020830392506144a2565b6001836020036101000a03801982511681845116808217855250505050505090500191505060006040518083038185875af1925050503d8060008114614527576040519150601f19603f3d011682016040523d82523d6000602084013e61452c565b606091505b509150915061453c82828661455b565b92505050949350505050565b600080823b905060008111915050919050565b6060831561456b57829050614620565b60008351111561457e5782518084602001fd5b816040517f08c379a00000000000000000000000000000000000000000000000000000000081526004018080602001828103825283818151815260200191508051906020019080838360005b838110156145e55780820151818401526020810190506145ca565b50505050905090810190601f1680156146125780820380516001836020036101000a031916815260200191505b509250505060405180910390fd5b939250505056fe416464726573733a20696e73756666696369656e742062616c616e636520666f722063616c6c5665737465723a206275726e20616d6f756e7420657863656564732062616c616e63655665737465723a206275726e2066726f6d20746865207a65726f2061646472657373536166654d6174683a206d756c7469706c69636174696f6e206f766572666c6f775665737465723a206d6178207665737461626c6520616d6f756e742065786365656465645361666545524332303a204552433230206f7065726174696f6e20646964206e6f742073756363656564a264697066735822122094a5072fdbbec305ded2084d8539381003ebf4a251dcbeef69608b966195a05064736f6c634300060c0033",
  "linkReferences": {},
  "deployedLinkReferences": {}
}