{
  "_format": "hh-sol-artifact-1",
  "contractName": "SnapshotToken",
  "sourceName": "contracts/gmx/tokens/SnapshotToken.sol",
  "abi": [
    {
      "inputs": [
        {
          "internalType": "string",
          "name": "_name",
          "type": "string"
        },
        {
          "internalType": "string",
          "name": "_symbol",
          "type": "string"
        },
        {
          "internalType": "uint256",
          "name": "_initialSupply",
          "type": "uint256"
        }
      ],
      "stateMutability": "nonpayable",
      "type": "constructor"
    },
    {
      "anonymous": false,
      "inputs": [
        {
          "indexed": true,
          "internalType": "address",
          "name": "owner",
          "type": "address"
        },
        {
          "indexed": true,
          "internalType": "address",
          "name": "spender",
          "type": "address"
        },
        {
          "indexed": false,
          "internalType": "uint256",
          "name": "value",
          "type": "uint256"
        }
      ],
      "name": "Approval",
      "type": "event"
    },
    {
      "anonymous": false,
      "inputs": [
        {
          "indexed": true,
          "internalType": "address",
          "name": "from",
          "type": "address"
        },
        {
          "indexed": true,
          "internalType": "address",
          "name": "to",
          "type": "address"
        },
        {
          "indexed": false,
          "internalType": "uint256",
          "name": "value",
          "type": "uint256"
        }
      ],
      "name": "Transfer",
      "type": "event"
    },
    {
      "inputs": [
        {
          "internalType": "address",
          "name": "_account",
          "type": "address"
        }
      ],
      "name": "addAdmin",
      "outputs": [],
      "stateMutability": "nonpayable",
      "type": "function"
    },
    {
      "inputs": [
        {
          "internalType": "address",
          "name": "_account",
          "type": "address"
        }
      ],
      "name": "addNonStakingAccount",
      "outputs": [],
      "stateMutability": "nonpayable",
      "type": "function"
    },
    {
      "inputs": [
        {
          "internalType": "address",
          "name": "",
          "type": "address"
        }
      ],
      "name": "admins",
      "outputs": [
        {
          "internalType": "bool",
          "name": "",
          "type": "bool"
        }
      ],
      "stateMutability": "view",
      "type": "function"
    },
    {
      "inputs": [
        {
          "internalType": "address",
          "name": "_owner",
          "type": "address"
        },
        {
          "internalType": "address",
          "name": "_spender",
          "type": "address"
        }
      ],
      "name": "allowance",
      "outputs": [
        {
          "internalType": "uint256",
          "name": "",
          "type": "uint256"
        }
      ],
      "stateMutability": "view",
      "type": "function"
    },
    {
      "inputs": [
        {
          "internalType": "address",
          "name": "",
          "type": "address"
        },
        {
          "internalType": "address",
          "name": "",
          "type": "address"
        }
      ],
      "name": "allowances",
      "outputs": [
        {
          "internalType": "uint256",
          "name": "",
          "type": "uint256"
        }
      ],
      "stateMutability": "view",
      "type": "function"
    },
    {
      "inputs": [
        {
          "internalType": "address",
          "name": "_spender",
          "type": "address"
        },
        {
          "internalType": "uint256",
          "name": "_amount",
          "type": "uint256"
        }
      ],
      "name": "approve",
      "outputs": [
        {
          "internalType": "bool",
          "name": "",
          "type": "bool"
        }
      ],
      "stateMutability": "nonpayable",
      "type": "function"
    },
    {
      "inputs": [
        {
          "internalType": "address",
          "name": "_account",
          "type": "address"
        }
      ],
      "name": "balanceOf",
      "outputs": [
        {
          "internalType": "uint256",
          "name": "",
          "type": "uint256"
        }
      ],
      "stateMutability": "view",
      "type": "function"
    },
    {
      "inputs": [
        {
          "internalType": "address",
          "name": "",
          "type": "address"
        }
      ],
      "name": "balances",
      "outputs": [
        {
          "internalType": "uint256",
          "name": "",
          "type": "uint256"
        }
      ],
      "stateMutability": "view",
      "type": "function"
    },
    {
      "inputs": [
        {
          "internalType": "address[]",
          "name": "_accounts",
          "type": "address[]"
        },
        {
          "internalType": "uint256[]",
          "name": "_amounts",
          "type": "uint256[]"
        }
      ],
      "name": "batchMint",
      "outputs": [],
      "stateMutability": "nonpayable",
      "type": "function"
    },
    {
      "inputs": [
        {
          "internalType": "address",
          "name": "_account",
          "type": "address"
        },
        {
          "internalType": "uint256",
          "name": "_amount",
          "type": "uint256"
        }
      ],
      "name": "burn",
      "outputs": [],
      "stateMutability": "nonpayable",
      "type": "function"
    },
    {
      "inputs": [
        {
          "internalType": "address",
          "name": "_receiver",
          "type": "address"
        }
      ],
      "name": "claim",
      "outputs": [],
      "stateMutability": "nonpayable",
      "type": "function"
    },
    {
      "inputs": [],
      "name": "decimals",
      "outputs": [
        {
          "internalType": "uint8",
          "name": "",
          "type": "uint8"
        }
      ],
      "stateMutability": "view",
      "type": "function"
    },
    {
      "inputs": [],
      "name": "gov",
      "outputs": [
        {
          "internalType": "address",
          "name": "",
          "type": "address"
        }
      ],
      "stateMutability": "view",
      "type": "function"
    },
    {
      "inputs": [],
      "name": "inPrivateTransferMode",
      "outputs": [
        {
          "internalType": "bool",
          "name": "",
          "type": "bool"
        }
      ],
      "stateMutability": "view",
      "type": "function"
    },
    {
      "inputs": [
        {
          "internalType": "address",
          "name": "",
          "type": "address"
        }
      ],
      "name": "isHandler",
      "outputs": [
        {
          "internalType": "bool",
          "name": "",
          "type": "bool"
        }
      ],
      "stateMutability": "view",
      "type": "function"
    },
    {
      "inputs": [
        {
          "internalType": "address",
          "name": "",
          "type": "address"
        }
      ],
      "name": "isMinter",
      "outputs": [
        {
          "internalType": "bool",
          "name": "",
          "type": "bool"
        }
      ],
      "stateMutability": "view",
      "type": "function"
    },
    {
      "inputs": [
        {
          "internalType": "address",
          "name": "_account",
          "type": "address"
        },
        {
          "internalType": "uint256",
          "name": "_amount",
          "type": "uint256"
        }
      ],
      "name": "mint",
      "outputs": [],
      "stateMutability": "nonpayable",
      "type": "function"
    },
    {
      "inputs": [],
      "name": "name",
      "outputs": [
        {
          "internalType": "string",
          "name": "",
          "type": "string"
        }
      ],
      "stateMutability": "view",
      "type": "function"
    },
    {
      "inputs": [
        {
          "internalType": "address",
          "name": "",
          "type": "address"
        }
      ],
      "name": "nonStakingAccounts",
      "outputs": [
        {
          "internalType": "bool",
          "name": "",
          "type": "bool"
        }
      ],
      "stateMutability": "view",
      "type": "function"
    },
    {
      "inputs": [],
      "name": "nonStakingSupply",
      "outputs": [
        {
          "internalType": "uint256",
          "name": "",
          "type": "uint256"
        }
      ],
      "stateMutability": "view",
      "type": "function"
    },
    {
      "inputs": [
        {
          "internalType": "address",
          "name": "_account",
          "type": "address"
        },
        {
          "internalType": "address",
          "name": "_receiver",
          "type": "address"
        }
      ],
      "name": "recoverClaim",
      "outputs": [],
      "stateMutability": "nonpayable",
      "type": "function"
    },
    {
      "inputs": [
        {
          "internalType": "address",
          "name": "_account",
          "type": "address"
        }
      ],
      "name": "removeAdmin",
      "outputs": [],
      "stateMutability": "nonpayable",
      "type": "function"
    },
    {
      "inputs": [
        {
          "internalType": "address",
          "name": "_account",
          "type": "address"
        }
      ],
      "name": "removeNonStakingAccount",
      "outputs": [],
      "stateMutability": "nonpayable",
      "type": "function"
    },
    {
      "inputs": [
        {
          "internalType": "address",
          "name": "_gov",
          "type": "address"
        }
      ],
      "name": "setGov",
      "outputs": [],
      "stateMutability": "nonpayable",
      "type": "function"
    },
    {
      "inputs": [
        {
          "internalType": "address",
          "name": "_handler",
          "type": "address"
        },
        {
          "internalType": "bool",
          "name": "_isActive",
          "type": "bool"
        }
      ],
      "name": "setHandler",
      "outputs": [],
      "stateMutability": "nonpayable",
      "type": "function"
    },
    {
      "inputs": [
        {
          "internalType": "bool",
          "name": "_inPrivateTransferMode",
          "type": "bool"
        }
      ],
      "name": "setInPrivateTransferMode",
      "outputs": [],
      "stateMutability": "nonpayable",
      "type": "function"
    },
    {
      "inputs": [
        {
          "internalType": "string",
          "name": "_name",
          "type": "string"
        },
        {
          "internalType": "string",
          "name": "_symbol",
          "type": "string"
        }
      ],
      "name": "setInfo",
      "outputs": [],
      "stateMutability": "nonpayable",
      "type": "function"
    },
    {
      "inputs": [
        {
          "internalType": "address",
          "name": "_minter",
          "type": "address"
        },
        {
          "internalType": "bool",
          "name": "_isActive",
          "type": "bool"
        }
      ],
      "name": "setMinter",
      "outputs": [],
      "stateMutability": "nonpayable",
      "type": "function"
    },
    {
      "inputs": [
        {
          "internalType": "address[]",
          "name": "_yieldTrackers",
          "type": "address[]"
        }
      ],
      "name": "setYieldTrackers",
      "outputs": [],
      "stateMutability": "nonpayable",
      "type": "function"
    },
    {
      "inputs": [
        {
          "internalType": "address",
          "name": "_account",
          "type": "address"
        }
      ],
      "name": "stakedBalance",
      "outputs": [
        {
          "internalType": "uint256",
          "name": "",
          "type": "uint256"
        }
      ],
      "stateMutability": "view",
      "type": "function"
    },
    {
      "inputs": [],
      "name": "symbol",
      "outputs": [
        {
          "internalType": "string",
          "name": "",
          "type": "string"
        }
      ],
      "stateMutability": "view",
      "type": "function"
    },
    {
      "inputs": [],
      "name": "totalStaked",
      "outputs": [
        {
          "internalType": "uint256",
          "name": "",
          "type": "uint256"
        }
      ],
      "stateMutability": "view",
      "type": "function"
    },
    {
      "inputs": [],
      "name": "totalSupply",
      "outputs": [
        {
          "internalType": "uint256",
          "name": "",
          "type": "uint256"
        }
      ],
      "stateMutability": "view",
      "type": "function"
    },
    {
      "inputs": [
        {
          "internalType": "address",
          "name": "_recipient",
          "type": "address"
        },
        {
          "internalType": "uint256",
          "name": "_amount",
          "type": "uint256"
        }
      ],
      "name": "transfer",
      "outputs": [
        {
          "internalType": "bool",
          "name": "",
          "type": "bool"
        }
      ],
      "stateMutability": "nonpayable",
      "type": "function"
    },
    {
      "inputs": [
        {
          "internalType": "address",
          "name": "_sender",
          "type": "address"
        },
        {
          "internalType": "address",
          "name": "_recipient",
          "type": "address"
        },
        {
          "internalType": "uint256",
          "name": "_amount",
          "type": "uint256"
        }
      ],
      "name": "transferFrom",
      "outputs": [
        {
          "internalType": "bool",
          "name": "",
          "type": "bool"
        }
      ],
      "stateMutability": "nonpayable",
      "type": "function"
    },
    {
      "inputs": [
        {
          "internalType": "address",
          "name": "_token",
          "type": "address"
        },
        {
          "internalType": "address",
          "name": "_account",
          "type": "address"
        },
        {
          "internalType": "uint256",
          "name": "_amount",
          "type": "uint256"
        }
      ],
      "name": "withdrawToken",
      "outputs": [],
      "stateMutability": "nonpayable",
      "type": "function"
    },
    {
      "inputs": [
        {
          "internalType": "uint256",
          "name": "",
          "type": "uint256"
        }
      ],
      "name": "yieldTrackers",
      "outputs": [
        {
          "internalType": "address",
          "name": "",
          "type": "address"
        }
      ],
      "stateMutability": "view",
      "type": "function"
    }
  ],
  "bytecode": "0x60806040523480156200001157600080fd5b506040516200448938038062004489833981810160405260608110156200003757600080fd5b81019080805160405193929190846401000000008211156200005857600080fd5b838201915060208201858111156200006f57600080fd5b82518660018202830111640100000000821117156200008d57600080fd5b8083526020830192505050908051906020019080838360005b83811015620000c3578082015181840152602081019050620000a6565b50505050905090810190601f168015620000f15780820380516001836020036101000a031916815260200191505b50604052602001805160405193929190846401000000008211156200011557600080fd5b838201915060208201858111156200012c57600080fd5b82518660018202830111640100000000821117156200014a57600080fd5b8083526020830192505050908051906020019080838360005b838110156200018057808201518184015260208101905062000163565b50505050905090810190601f168015620001ae5780820380516001836020036101000a031916815260200191505b50604052602001805190602001909291905050508282828282828260009080519060200190620001e092919062000600565b508160019080519060200190620001f992919062000600565b5033600460006101000a81548173ffffffffffffffffffffffffffffffffffffffff021916908373ffffffffffffffffffffffffffffffffffffffff1602179055506200024d33826200025c60201b60201c565b505050505050505050620006a6565b600073ffffffffffffffffffffffffffffffffffffffff168273ffffffffffffffffffffffffffffffffffffffff161415620002e4576040517f08c379a0000000000000000000000000000000000000000000000000000000008152600401808060200182810382526023815260200180620044666023913960400191505060405180910390fd5b620002f5826200049360201b60201c565b62000311816002546200057760201b620028de1790919060201c565b6002819055506200037081600560008573ffffffffffffffffffffffffffffffffffffffff1673ffffffffffffffffffffffffffffffffffffffff168152602001908152602001600020546200057760201b620028de1790919060201c565b600560008473ffffffffffffffffffffffffffffffffffffffff1673ffffffffffffffffffffffffffffffffffffffff16815260200190815260200160002081905550600860008373ffffffffffffffffffffffffffffffffffffffff1673ffffffffffffffffffffffffffffffffffffffff16815260200190815260200160002060009054906101000a900460ff1615620004295762000422816003546200057760201b620028de1790919060201c565b6003819055505b8173ffffffffffffffffffffffffffffffffffffffff16600073ffffffffffffffffffffffffffffffffffffffff167fddf252ad1be2c89b69c2b068fc378daa952ba7f163c4a11628f55a4df523b3ef836040518082815260200191505060405180910390a35050565b60005b6007805490508110156200057357600060078281548110620004b457fe5b9060005260206000200160009054906101000a900473ffffffffffffffffffffffffffffffffffffffff1690508073ffffffffffffffffffffffffffffffffffffffff16635fd61965846040518263ffffffff1660e01b8152600401808273ffffffffffffffffffffffffffffffffffffffff168152602001915050600060405180830381600087803b1580156200054b57600080fd5b505af115801562000560573d6000803e3d6000fd5b5050505050808060010191505062000496565b5050565b600080828401905083811015620005f6576040517f08c379a000000000000000000000000000000000000000000000000000000000815260040180806020018281038252601b8152602001807f536166654d6174683a206164646974696f6e206f766572666c6f77000000000081525060200191505060405180910390fd5b8091505092915050565b828054600181600116156101000203166002900490600052602060002090601f016020900481019282601f106200064357805160ff191683800117855562000674565b8280016001018555821562000674579182015b828111156200067357825182559160200191906001019062000656565b5b50905062000683919062000687565b5090565b5b80821115620006a257600081600090555060010162000688565b5090565b613db080620006b66000396000f3fe608060405234801561001057600080fd5b50600436106102275760003560e01c806362289077116101305780639dc29fac116100b8578063cf456ae71161007c578063cf456ae714610ec1578063cfad57a214610f11578063dd62ed3e14610f55578063dfbaefb114610fcd578063fb30d91614610fed57610227565b80639dc29fac14610c45578063a9059cbb14610c93578063a923fc4014610cf7578063aa271e1a14610e49578063c93be63614610ea357610227565b8063817b1cd2116100ff578063817b1cd214610a965780639554381a14610ab457806395d89b4114610b0e578063996f11ee14610b915780639cb7de4b14610bf557610227565b8063622890771461086a57806368573107146108ae57806370480275146109fa57806370a0823114610a3e57610227565b806327e235e3116101b357806346ea87af1161018257806346ea87af146106b857806352cd38d91461071257806355b6ed5c1461076a5780635a47a1a7146107e2578063602172671461081257610227565b806327e235e314610597578063313ce567146105ef57806340c10f1914610610578063429b62e51461065e57610227565b80631785f53c116101fa5780631785f53c146103b557806318160ddd146103f95780631e83409a1461041757806323b872dd1461045b578063276eab4e146104df57610227565b806301e336671461022c57806306fdde031461029a578063095ea7b31461031d57806312d43a5114610381575b600080fd5b6102986004803603606081101561024257600080fd5b81019080803573ffffffffffffffffffffffffffffffffffffffff169060200190929190803573ffffffffffffffffffffffffffffffffffffffff16906020019092919080359060200190929190505050611031565b005b6102a2611124565b6040518080602001828103825283818151815260200191508051906020019080838360005b838110156102e25780820151818401526020810190506102c7565b50505050905090810190601f16801561030f5780820380516001836020036101000a031916815260200191505b509250505060405180910390f35b6103696004803603604081101561033357600080fd5b81019080803573ffffffffffffffffffffffffffffffffffffffff169060200190929190803590602001909291905050506111c2565b60405180821515815260200191505060405180910390f35b6103896111d9565b604051808273ffffffffffffffffffffffffffffffffffffffff16815260200191505060405180910390f35b6103f7600480360360208110156103cb57600080fd5b81019080803573ffffffffffffffffffffffffffffffffffffffff1690602001909291905050506111ff565b005b61040161131d565b6040518082815260200191505060405180910390f35b6104596004803603602081101561042d57600080fd5b81019080803573ffffffffffffffffffffffffffffffffffffffff169060200190929190505050611323565b005b6104c76004803603606081101561047157600080fd5b81019080803573ffffffffffffffffffffffffffffffffffffffff169060200190929190803573ffffffffffffffffffffffffffffffffffffffff16906020019092919080359060200190929190505050611444565b60405180821515815260200191505060405180910390f35b610595600480360360208110156104f557600080fd5b810190808035906020019064010000000081111561051257600080fd5b82018360208201111561052457600080fd5b8035906020019184602083028401116401000000008311171561054657600080fd5b919080806020026020016040519081016040528093929190818152602001838360200280828437600081840152601f19601f82011690508083019250505050505050919291929050505061157c565b005b6105d9600480360360208110156105ad57600080fd5b81019080803573ffffffffffffffffffffffffffffffffffffffff169060200190929190505050611659565b6040518082815260200191505060405180910390f35b6105f7611671565b604051808260ff16815260200191505060405180910390f35b61065c6004803603604081101561062657600080fd5b81019080803573ffffffffffffffffffffffffffffffffffffffff16906020019092919080359060200190929190505050611676565b005b6106a06004803603602081101561067457600080fd5b81019080803573ffffffffffffffffffffffffffffffffffffffff169060200190929190505050611743565b60405180821515815260200191505060405180910390f35b6106fa600480360360208110156106ce57600080fd5b81019080803573ffffffffffffffffffffffffffffffffffffffff169060200190929190505050611763565b60405180821515815260200191505060405180910390f35b61073e6004803603602081101561072857600080fd5b8101908080359060200190929190505050611783565b604051808273ffffffffffffffffffffffffffffffffffffffff16815260200191505060405180910390f35b6107cc6004803603604081101561078057600080fd5b81019080803573ffffffffffffffffffffffffffffffffffffffff169060200190929190803573ffffffffffffffffffffffffffffffffffffffff1690602001909291905050506117bf565b6040518082815260200191505060405180910390f35b610810600480360360208110156107f857600080fd5b810190808035151590602001909291905050506117e4565b005b6108546004803603602081101561082857600080fd5b81019080803573ffffffffffffffffffffffffffffffffffffffff1690602001909291905050506118c4565b6040518082815260200191505060405180910390f35b6108ac6004803603602081101561088057600080fd5b81019080803573ffffffffffffffffffffffffffffffffffffffff169060200190929190505050611969565b005b6109f8600480360360408110156108c457600080fd5b81019080803590602001906401000000008111156108e157600080fd5b8201836020820111156108f357600080fd5b8035906020019184602083028401116401000000008311171561091557600080fd5b919080806020026020016040519081016040528093929190818152602001838360200280828437600081840152601f19601f8201169050808301925050505050505091929192908035906020019064010000000081111561097557600080fd5b82018360208201111561098757600080fd5b803590602001918460208302840111640100000000831117156109a957600080fd5b919080806020026020016040519081016040528093929190818152602001838360200280828437600081840152601f19601f820116905080830192505050505050509192919290505050611b89565b005b610a3c60048036036020811015610a1057600080fd5b81019080803573ffffffffffffffffffffffffffffffffffffffff169060200190929190505050611ca2565b005b610a8060048036036020811015610a5457600080fd5b81019080803573ffffffffffffffffffffffffffffffffffffffff169060200190929190505050611dc0565b6040518082815260200191505060405180910390f35b610a9e611e09565b6040518082815260200191505060405180910390f35b610af660048036036020811015610aca57600080fd5b81019080803573ffffffffffffffffffffffffffffffffffffffff169060200190929190505050611e27565b60405180821515815260200191505060405180910390f35b610b16611e47565b6040518080602001828103825283818151815260200191508051906020019080838360005b83811015610b56578082015181840152602081019050610b3b565b50505050905090810190601f168015610b835780820380516001836020036101000a031916815260200191505b509250505060405180910390f35b610bf360048036036040811015610ba757600080fd5b81019080803573ffffffffffffffffffffffffffffffffffffffff169060200190929190803573ffffffffffffffffffffffffffffffffffffffff169060200190929190505050611ee5565b005b610c4360048036036040811015610c0b57600080fd5b81019080803573ffffffffffffffffffffffffffffffffffffffff1690602001909291908035151590602001909291905050506120c6565b005b610c9160048036036040811015610c5b57600080fd5b81019080803573ffffffffffffffffffffffffffffffffffffffff169060200190929190803590602001909291905050506121e4565b005b610cdf60048036036040811015610ca957600080fd5b81019080803573ffffffffffffffffffffffffffffffffffffffff169060200190929190803590602001909291905050506122b1565b60405180821515815260200191505060405180910390f35b610e4760048036036040811015610d0d57600080fd5b8101908080359060200190640100000000811115610d2a57600080fd5b820183602082011115610d3c57600080fd5b80359060200191846001830284011164010000000083111715610d5e57600080fd5b91908080601f016020809104026020016040519081016040528093929190818152602001838380828437600081840152601f19601f82011690508083019250505050505050919291929080359060200190640100000000811115610dc157600080fd5b820183602082011115610dd357600080fd5b80359060200191846001830284011164010000000083111715610df557600080fd5b91908080601f016020809104026020016040519081016040528093929190818152602001838380828437600081840152601f19601f8201169050808301925050505050505091929192905050506122c8565b005b610e8b60048036036020811015610e5f57600080fd5b81019080803573ffffffffffffffffffffffffffffffffffffffff1690602001909291905050506123bd565b60405180821515815260200191505060405180910390f35b610eab6123dd565b6040518082815260200191505060405180910390f35b610f0f60048036036040811015610ed757600080fd5b81019080803573ffffffffffffffffffffffffffffffffffffffff1690602001909291908035151590602001909291905050506123e3565b005b610f5360048036036020811015610f2757600080fd5b81019080803573ffffffffffffffffffffffffffffffffffffffff169060200190929190505050612501565b005b610fb760048036036040811015610f6b57600080fd5b81019080803573ffffffffffffffffffffffffffffffffffffffff169060200190929190803573ffffffffffffffffffffffffffffffffffffffff169060200190929190505050612608565b6040518082815260200191505060405180910390f35b610fd561268f565b60405180821515815260200191505060405180910390f35b61102f6004803603602081101561100357600080fd5b81019080803573ffffffffffffffffffffffffffffffffffffffff1690602001909291905050506126a2565b005b600460009054906101000a900473ffffffffffffffffffffffffffffffffffffffff1673ffffffffffffffffffffffffffffffffffffffff163373ffffffffffffffffffffffffffffffffffffffff16146110f4576040517f08c379a00000000000000000000000000000000000000000000000000000000081526004018080602001828103825260148152602001807f42617365546f6b656e3a20666f7262696464656e00000000000000000000000081525060200191505060405180910390fd5b61111f82828573ffffffffffffffffffffffffffffffffffffffff166129669092919063ffffffff16565b505050565b60008054600181600116156101000203166002900480601f0160208091040260200160405190810160405280929190818152602001828054600181600116156101000203166002900480156111ba5780601f1061118f576101008083540402835291602001916111ba565b820191906000526020600020905b81548152906001019060200180831161119d57829003601f168201915b505050505081565b60006111cf338484612a08565b6001905092915050565b600460009054906101000a900473ffffffffffffffffffffffffffffffffffffffff1681565b600460009054906101000a900473ffffffffffffffffffffffffffffffffffffffff1673ffffffffffffffffffffffffffffffffffffffff163373ffffffffffffffffffffffffffffffffffffffff16146112c2576040517f08c379a00000000000000000000000000000000000000000000000000000000081526004018080602001828103825260148152602001807f42617365546f6b656e3a20666f7262696464656e00000000000000000000000081525060200191505060405180910390fd5b6000600960008373ffffffffffffffffffffffffffffffffffffffff1673ffffffffffffffffffffffffffffffffffffffff16815260200190815260200160002060006101000a81548160ff02191690831515021790555050565b60025481565b60005b6007805490508110156114405760006007828154811061134257fe5b9060005260206000200160009054906101000a900473ffffffffffffffffffffffffffffffffffffffff1690508073ffffffffffffffffffffffffffffffffffffffff166321c0b34233856040518363ffffffff1660e01b8152600401808373ffffffffffffffffffffffffffffffffffffffff1681526020018273ffffffffffffffffffffffffffffffffffffffff16815260200192505050602060405180830381600087803b1580156113f657600080fd5b505af115801561140a573d6000803e3d6000fd5b505050506040513d602081101561142057600080fd5b810190808051906020019092919050505050508080600101915050611326565b5050565b6000600b60003373ffffffffffffffffffffffffffffffffffffffff1673ffffffffffffffffffffffffffffffffffffffff16815260200190815260200160002060009054906101000a900460ff16156114ac576114a3848484612bff565b60019050611575565b6000611557836040518060600160405280602c8152602001613c17602c9139600660008973ffffffffffffffffffffffffffffffffffffffff1673ffffffffffffffffffffffffffffffffffffffff16815260200190815260200160002060003373ffffffffffffffffffffffffffffffffffffffff1673ffffffffffffffffffffffffffffffffffffffff1681526020019081526020016000205461305f9092919063ffffffff16565b9050611564853383612a08565b61156f858585612bff565b60019150505b9392505050565b600460009054906101000a900473ffffffffffffffffffffffffffffffffffffffff1673ffffffffffffffffffffffffffffffffffffffff163373ffffffffffffffffffffffffffffffffffffffff161461163f576040517f08c379a00000000000000000000000000000000000000000000000000000000081526004018080602001828103825260148152602001807f42617365546f6b656e3a20666f7262696464656e00000000000000000000000081525060200191505060405180910390fd5b8060079080519060200190611655929190613a1f565b5050565b60056020528060005260406000206000915090505481565b601281565b600c60003373ffffffffffffffffffffffffffffffffffffffff1673ffffffffffffffffffffffffffffffffffffffff16815260200190815260200160002060009054906101000a900460ff16611735576040517f08c379a000000000000000000000000000000000000000000000000000000000815260040180806020018281038252601c8152602001807f4d696e7461626c6542617365546f6b656e3a20666f7262696464656e0000000081525060200191505060405180910390fd5b61173f828261311f565b5050565b60096020528060005260406000206000915054906101000a900460ff1681565b600b6020528060005260406000206000915054906101000a900460ff1681565b6007818154811061179057fe5b906000526020600020016000915054906101000a900473ffffffffffffffffffffffffffffffffffffffff1681565b6006602052816000526040600020602052806000526040600020600091509150505481565b600460009054906101000a900473ffffffffffffffffffffffffffffffffffffffff1673ffffffffffffffffffffffffffffffffffffffff163373ffffffffffffffffffffffffffffffffffffffff16146118a7576040517f08c379a00000000000000000000000000000000000000000000000000000000081526004018080602001828103825260148152602001807f42617365546f6b656e3a20666f7262696464656e00000000000000000000000081525060200191505060405180910390fd5b80600a60006101000a81548160ff02191690831515021790555050565b6000600860008373ffffffffffffffffffffffffffffffffffffffff1673ffffffffffffffffffffffffffffffffffffffff16815260200190815260200160002060009054906101000a900460ff16156119215760009050611964565b600560008373ffffffffffffffffffffffffffffffffffffffff1673ffffffffffffffffffffffffffffffffffffffff1681526020019081526020016000205490505b919050565b600960003373ffffffffffffffffffffffffffffffffffffffff1673ffffffffffffffffffffffffffffffffffffffff16815260200190815260200160002060009054906101000a900460ff16611a28576040517f08c379a00000000000000000000000000000000000000000000000000000000081526004018080602001828103825260148152602001807f42617365546f6b656e3a20666f7262696464656e00000000000000000000000081525060200191505060405180910390fd5b600860008273ffffffffffffffffffffffffffffffffffffffff1673ffffffffffffffffffffffffffffffffffffffff16815260200190815260200160002060009054906101000a900460ff1615611acb576040517f08c379a0000000000000000000000000000000000000000000000000000000008152600401808060200182810382526022815260200180613cbb6022913960400191505060405180910390fd5b611ad481613336565b6001600860008373ffffffffffffffffffffffffffffffffffffffff1673ffffffffffffffffffffffffffffffffffffffff16815260200190815260200160002060006101000a81548160ff021916908315150217905550611b80600560008373ffffffffffffffffffffffffffffffffffffffff1673ffffffffffffffffffffffffffffffffffffffff168152602001908152602001600020546003546128de90919063ffffffff16565b60038190555050565b600c60003373ffffffffffffffffffffffffffffffffffffffff1673ffffffffffffffffffffffffffffffffffffffff16815260200190815260200160002060009054906101000a900460ff16611c48576040517f08c379a000000000000000000000000000000000000000000000000000000000815260040180806020018281038252601c8152602001807f4d696e7461626c6542617365546f6b656e3a20666f7262696464656e0000000081525060200191505060405180910390fd5b60005b8251811015611c9d576000838281518110611c6257fe5b602002602001015190506000838381518110611c7a57fe5b60200260200101519050611c8e828261311f565b50508080600101915050611c4b565b505050565b600460009054906101000a900473ffffffffffffffffffffffffffffffffffffffff1673ffffffffffffffffffffffffffffffffffffffff163373ffffffffffffffffffffffffffffffffffffffff1614611d65576040517f08c379a00000000000000000000000000000000000000000000000000000000081526004018080602001828103825260148152602001807f42617365546f6b656e3a20666f7262696464656e00000000000000000000000081525060200191505060405180910390fd5b6001600960008373ffffffffffffffffffffffffffffffffffffffff1673ffffffffffffffffffffffffffffffffffffffff16815260200190815260200160002060006101000a81548160ff02191690831515021790555050565b6000600560008373ffffffffffffffffffffffffffffffffffffffff1673ffffffffffffffffffffffffffffffffffffffff168152602001908152602001600020549050919050565b6000611e2260035460025461341590919063ffffffff16565b905090565b60086020528060005260406000206000915054906101000a900460ff1681565b60018054600181600116156101000203166002900480601f016020809104026020016040519081016040528092919081815260200182805460018160011615610100020316600290048015611edd5780601f10611eb257610100808354040283529160200191611edd565b820191906000526020600020905b815481529060010190602001808311611ec057829003601f168201915b505050505081565b600960003373ffffffffffffffffffffffffffffffffffffffff1673ffffffffffffffffffffffffffffffffffffffff16815260200190815260200160002060009054906101000a900460ff16611fa4576040517f08c379a00000000000000000000000000000000000000000000000000000000081526004018080602001828103825260148152602001807f42617365546f6b656e3a20666f7262696464656e00000000000000000000000081525060200191505060405180910390fd5b60005b6007805490508110156120c157600060078281548110611fc357fe5b9060005260206000200160009054906101000a900473ffffffffffffffffffffffffffffffffffffffff1690508073ffffffffffffffffffffffffffffffffffffffff166321c0b34285856040518363ffffffff1660e01b8152600401808373ffffffffffffffffffffffffffffffffffffffff1681526020018273ffffffffffffffffffffffffffffffffffffffff16815260200192505050602060405180830381600087803b15801561207757600080fd5b505af115801561208b573d6000803e3d6000fd5b505050506040513d60208110156120a157600080fd5b810190808051906020019092919050505050508080600101915050611fa7565b505050565b600460009054906101000a900473ffffffffffffffffffffffffffffffffffffffff1673ffffffffffffffffffffffffffffffffffffffff163373ffffffffffffffffffffffffffffffffffffffff1614612189576040517f08c379a00000000000000000000000000000000000000000000000000000000081526004018080602001828103825260148152602001807f42617365546f6b656e3a20666f7262696464656e00000000000000000000000081525060200191505060405180910390fd5b80600b60008473ffffffffffffffffffffffffffffffffffffffff1673ffffffffffffffffffffffffffffffffffffffff16815260200190815260200160002060006101000a81548160ff0219169083151502179055505050565b600c60003373ffffffffffffffffffffffffffffffffffffffff1673ffffffffffffffffffffffffffffffffffffffff16815260200190815260200160002060009054906101000a900460ff166122a3576040517f08c379a000000000000000000000000000000000000000000000000000000000815260040180806020018281038252601c8152602001807f4d696e7461626c6542617365546f6b656e3a20666f7262696464656e0000000081525060200191505060405180910390fd5b6122ad828261345f565b5050565b60006122be338484612bff565b6001905092915050565b600460009054906101000a900473ffffffffffffffffffffffffffffffffffffffff1673ffffffffffffffffffffffffffffffffffffffff163373ffffffffffffffffffffffffffffffffffffffff161461238b576040517f08c379a00000000000000000000000000000000000000000000000000000000081526004018080602001828103825260148152602001807f42617365546f6b656e3a20666f7262696464656e00000000000000000000000081525060200191505060405180910390fd5b81600090805190602001906123a1929190613aa9565b5080600190805190602001906123b8929190613aa9565b505050565b600c6020528060005260406000206000915054906101000a900460ff1681565b60035481565b600460009054906101000a900473ffffffffffffffffffffffffffffffffffffffff1673ffffffffffffffffffffffffffffffffffffffff163373ffffffffffffffffffffffffffffffffffffffff16146124a6576040517f08c379a00000000000000000000000000000000000000000000000000000000081526004018080602001828103825260148152602001807f42617365546f6b656e3a20666f7262696464656e00000000000000000000000081525060200191505060405180910390fd5b80600c60008473ffffffffffffffffffffffffffffffffffffffff1673ffffffffffffffffffffffffffffffffffffffff16815260200190815260200160002060006101000a81548160ff0219169083151502179055505050565b600460009054906101000a900473ffffffffffffffffffffffffffffffffffffffff1673ffffffffffffffffffffffffffffffffffffffff163373ffffffffffffffffffffffffffffffffffffffff16146125c4576040517f08c379a00000000000000000000000000000000000000000000000000000000081526004018080602001828103825260148152602001807f42617365546f6b656e3a20666f7262696464656e00000000000000000000000081525060200191505060405180910390fd5b80600460006101000a81548173ffffffffffffffffffffffffffffffffffffffff021916908373ffffffffffffffffffffffffffffffffffffffff16021790555050565b6000600660008473ffffffffffffffffffffffffffffffffffffffff1673ffffffffffffffffffffffffffffffffffffffff16815260200190815260200160002060008373ffffffffffffffffffffffffffffffffffffffff1673ffffffffffffffffffffffffffffffffffffffff16815260200190815260200160002054905092915050565b600a60009054906101000a900460ff1681565b600960003373ffffffffffffffffffffffffffffffffffffffff1673ffffffffffffffffffffffffffffffffffffffff16815260200190815260200160002060009054906101000a900460ff16612761576040517f08c379a00000000000000000000000000000000000000000000000000000000081526004018080602001828103825260148152602001807f42617365546f6b656e3a20666f7262696464656e00000000000000000000000081525060200191505060405180910390fd5b600860008273ffffffffffffffffffffffffffffffffffffffff1673ffffffffffffffffffffffffffffffffffffffff16815260200190815260200160002060009054906101000a900460ff16612820576040517f08c379a000000000000000000000000000000000000000000000000000000000815260040180806020018281038252601e8152602001807f42617365546f6b656e3a205f6163636f756e74206e6f74206d61726b6564000081525060200191505060405180910390fd5b61282981613336565b6000600860008373ffffffffffffffffffffffffffffffffffffffff1673ffffffffffffffffffffffffffffffffffffffff16815260200190815260200160002060006101000a81548160ff0219169083151502179055506128d5600560008373ffffffffffffffffffffffffffffffffffffffff1673ffffffffffffffffffffffffffffffffffffffff1681526020019081526020016000205460035461341590919063ffffffff16565b60038190555050565b60008082840190508381101561295c576040517f08c379a000000000000000000000000000000000000000000000000000000000815260040180806020018281038252601b8152602001807f536166654d6174683a206164646974696f6e206f766572666c6f77000000000081525060200191505060405180910390fd5b8091505092915050565b612a038363a9059cbb60e01b8484604051602401808373ffffffffffffffffffffffffffffffffffffffff16815260200182815260200192505050604051602081830303815290604052907bffffffffffffffffffffffffffffffffffffffffffffffffffffffff19166020820180517bffffffffffffffffffffffffffffffffffffffffffffffffffffffff8381831617835250505050613690565b505050565b600073ffffffffffffffffffffffffffffffffffffffff168373ffffffffffffffffffffffffffffffffffffffff161415612a8e576040517f08c379a0000000000000000000000000000000000000000000000000000000008152600401808060200182810382526028815260200180613c696028913960400191505060405180910390fd5b600073ffffffffffffffffffffffffffffffffffffffff168273ffffffffffffffffffffffffffffffffffffffff161415612b14576040517f08c379a0000000000000000000000000000000000000000000000000000000008152600401808060200182810382526026815260200180613bf16026913960400191505060405180910390fd5b80600660008573ffffffffffffffffffffffffffffffffffffffff1673ffffffffffffffffffffffffffffffffffffffff16815260200190815260200160002060008473ffffffffffffffffffffffffffffffffffffffff1673ffffffffffffffffffffffffffffffffffffffff168152602001908152602001600020819055508173ffffffffffffffffffffffffffffffffffffffff168373ffffffffffffffffffffffffffffffffffffffff167f8c5be1e5ebec7d5bd14f71427d1e84f3dd0314c0f7b2291e5b200ac8c7c3b925836040518082815260200191505060405180910390a3505050565b600073ffffffffffffffffffffffffffffffffffffffff168373ffffffffffffffffffffffffffffffffffffffff161415612c85576040517f08c379a0000000000000000000000000000000000000000000000000000000008152600401808060200182810382526029815260200180613d526029913960400191505060405180910390fd5b600073ffffffffffffffffffffffffffffffffffffffff168273ffffffffffffffffffffffffffffffffffffffff161415612d0b576040517f08c379a0000000000000000000000000000000000000000000000000000000008152600401808060200182810382526027815260200180613ba76027913960400191505060405180910390fd5b600a60009054906101000a900460ff1615612dc357600b60003373ffffffffffffffffffffffffffffffffffffffff1673ffffffffffffffffffffffffffffffffffffffff16815260200190815260200160002060009054906101000a900460ff16612dc2576040517f08c379a0000000000000000000000000000000000000000000000000000000008152600401808060200182810382526025815260200180613b826025913960400191505060405180910390fd5b5b612dcc83613336565b612dd582613336565b612e41816040518060600160405280602a8152602001613c91602a9139600560008773ffffffffffffffffffffffffffffffffffffffff1673ffffffffffffffffffffffffffffffffffffffff1681526020019081526020016000205461305f9092919063ffffffff16565b600560008573ffffffffffffffffffffffffffffffffffffffff1673ffffffffffffffffffffffffffffffffffffffff16815260200190815260200160002081905550612ed681600560008573ffffffffffffffffffffffffffffffffffffffff1673ffffffffffffffffffffffffffffffffffffffff168152602001908152602001600020546128de90919063ffffffff16565b600560008473ffffffffffffffffffffffffffffffffffffffff1673ffffffffffffffffffffffffffffffffffffffff16815260200190815260200160002081905550600860008473ffffffffffffffffffffffffffffffffffffffff1673ffffffffffffffffffffffffffffffffffffffff16815260200190815260200160002060009054906101000a900460ff1615612f8757612f808160035461341590919063ffffffff16565b6003819055505b600860008373ffffffffffffffffffffffffffffffffffffffff1673ffffffffffffffffffffffffffffffffffffffff16815260200190815260200160002060009054906101000a900460ff1615612ff557612fee816003546128de90919063ffffffff16565b6003819055505b8173ffffffffffffffffffffffffffffffffffffffff168373ffffffffffffffffffffffffffffffffffffffff167fddf252ad1be2c89b69c2b068fc378daa952ba7f163c4a11628f55a4df523b3ef836040518082815260200191505060405180910390a3505050565b600083831115829061310c576040517f08c379a00000000000000000000000000000000000000000000000000000000081526004018080602001828103825283818151815260200191508051906020019080838360005b838110156130d15780820151818401526020810190506130b6565b50505050905090810190601f1680156130fe5780820380516001836020036101000a031916815260200191505b509250505060405180910390fd5b5060008385039050809150509392505050565b600073ffffffffffffffffffffffffffffffffffffffff168273ffffffffffffffffffffffffffffffffffffffff1614156131a5576040517f08c379a0000000000000000000000000000000000000000000000000000000008152600401808060200182810382526023815260200180613bce6023913960400191505060405180910390fd5b6131ae82613336565b6131c3816002546128de90919063ffffffff16565b60028190555061321b81600560008573ffffffffffffffffffffffffffffffffffffffff1673ffffffffffffffffffffffffffffffffffffffff168152602001908152602001600020546128de90919063ffffffff16565b600560008473ffffffffffffffffffffffffffffffffffffffff1673ffffffffffffffffffffffffffffffffffffffff16815260200190815260200160002081905550600860008373ffffffffffffffffffffffffffffffffffffffff1673ffffffffffffffffffffffffffffffffffffffff16815260200190815260200160002060009054906101000a900460ff16156132cc576132c5816003546128de90919063ffffffff16565b6003819055505b8173ffffffffffffffffffffffffffffffffffffffff16600073ffffffffffffffffffffffffffffffffffffffff167fddf252ad1be2c89b69c2b068fc378daa952ba7f163c4a11628f55a4df523b3ef836040518082815260200191505060405180910390a35050565b60005b6007805490508110156134115760006007828154811061335557fe5b9060005260206000200160009054906101000a900473ffffffffffffffffffffffffffffffffffffffff1690508073ffffffffffffffffffffffffffffffffffffffff16635fd61965846040518263ffffffff1660e01b8152600401808273ffffffffffffffffffffffffffffffffffffffff168152602001915050600060405180830381600087803b1580156133eb57600080fd5b505af11580156133ff573d6000803e3d6000fd5b50505050508080600101915050613339565b5050565b600061345783836040518060400160405280601e81526020017f536166654d6174683a207375627472616374696f6e206f766572666c6f77000081525061305f565b905092915050565b600073ffffffffffffffffffffffffffffffffffffffff168273ffffffffffffffffffffffffffffffffffffffff1614156134e5576040517f08c379a0000000000000000000000000000000000000000000000000000000008152600401808060200182810382526025815260200180613d2d6025913960400191505060405180910390fd5b6134ee82613336565b61355a81604051806060016040528060268152602001613cdd60269139600560008673ffffffffffffffffffffffffffffffffffffffff1673ffffffffffffffffffffffffffffffffffffffff1681526020019081526020016000205461305f9092919063ffffffff16565b600560008473ffffffffffffffffffffffffffffffffffffffff1673ffffffffffffffffffffffffffffffffffffffff168152602001908152602001600020819055506135b28160025461341590919063ffffffff16565b600281905550600860008373ffffffffffffffffffffffffffffffffffffffff1673ffffffffffffffffffffffffffffffffffffffff16815260200190815260200160002060009054906101000a900460ff16156136265761361f8160035461341590919063ffffffff16565b6003819055505b600073ffffffffffffffffffffffffffffffffffffffff168273ffffffffffffffffffffffffffffffffffffffff167fddf252ad1be2c89b69c2b068fc378daa952ba7f163c4a11628f55a4df523b3ef836040518082815260200191505060405180910390a35050565b60606136f2826040518060400160405280602081526020017f5361666545524332303a206c6f772d6c6576656c2063616c6c206661696c65648152508573ffffffffffffffffffffffffffffffffffffffff1661377f9092919063ffffffff16565b905060008151111561377a5780806020019051602081101561371357600080fd5b8101908080519060200190929190505050613779576040517f08c379a000000000000000000000000000000000000000000000000000000000815260040180806020018281038252602a815260200180613d03602a913960400191505060405180910390fd5b5b505050565b606061378e8484600085613797565b90509392505050565b6060824710156137f2576040517f08c379a0000000000000000000000000000000000000000000000000000000008152600401808060200182810382526026815260200180613c436026913960400191505060405180910390fd5b6137fb85613940565b61386d576040517f08c379a000000000000000000000000000000000000000000000000000000000815260040180806020018281038252601d8152602001807f416464726573733a2063616c6c20746f206e6f6e2d636f6e747261637400000081525060200191505060405180910390fd5b600060608673ffffffffffffffffffffffffffffffffffffffff1685876040518082805190602001908083835b602083106138bd578051825260208201915060208101905060208303925061389a565b6001836020036101000a03801982511681845116808217855250505050505090500191505060006040518083038185875af1925050503d806000811461391f576040519150601f19603f3d011682016040523d82523d6000602084013e613924565b606091505b5091509150613934828286613953565b92505050949350505050565b600080823b905060008111915050919050565b6060831561396357829050613a18565b6000835111156139765782518084602001fd5b816040517f08c379a00000000000000000000000000000000000000000000000000000000081526004018080602001828103825283818151815260200191508051906020019080838360005b838110156139dd5780820151818401526020810190506139c2565b50505050905090810190601f168015613a0a5780820380516001836020036101000a031916815260200191505b509250505060405180910390fd5b9392505050565b828054828255906000526020600020908101928215613a98579160200282015b82811115613a975782518260006101000a81548173ffffffffffffffffffffffffffffffffffffffff021916908373ffffffffffffffffffffffffffffffffffffffff16021790555091602001919060010190613a3f565b5b509050613aa59190613b29565b5090565b828054600181600116156101000203166002900490600052602060002090601f016020900481019282601f10613aea57805160ff1916838001178555613b18565b82800160010185558215613b18579182015b82811115613b17578251825591602001919060010190613afc565b5b509050613b259190613b64565b5090565b5b80821115613b6057600081816101000a81549073ffffffffffffffffffffffffffffffffffffffff021916905550600101613b2a565b5090565b5b80821115613b7d576000816000905550600101613b65565b509056fe42617365546f6b656e3a206d73672e73656e646572206e6f742077686974656c697374656442617365546f6b656e3a207472616e7366657220746f20746865207a65726f206164647265737342617365546f6b656e3a206d696e7420746f20746865207a65726f206164647265737342617365546f6b656e3a20617070726f766520746f20746865207a65726f206164647265737342617365546f6b656e3a207472616e7366657220616d6f756e74206578636565647320616c6c6f77616e6365416464726573733a20696e73756666696369656e742062616c616e636520666f722063616c6c42617365546f6b656e3a20617070726f76652066726f6d20746865207a65726f206164647265737342617365546f6b656e3a207472616e7366657220616d6f756e7420657863656564732062616c616e636542617365546f6b656e3a205f6163636f756e7420616c7265616479206d61726b656442617365546f6b656e3a206275726e20616d6f756e7420657863656564732062616c616e63655361666545524332303a204552433230206f7065726174696f6e20646964206e6f74207375636365656442617365546f6b656e3a206275726e2066726f6d20746865207a65726f206164647265737342617365546f6b656e3a207472616e736665722066726f6d20746865207a65726f2061646472657373a2646970667358221220d974d2ce4076da2c0a50ad882ca00a414812fe751c8fc2e797a44fc38d2bf4b564736f6c634300060c003342617365546f6b656e3a206d696e7420746f20746865207a65726f2061646472657373",
  "linkReferences": {},
  "deployedLinkReferences": {}
}