{
  "_format": "hh-sol-artifact-1",
  "contractName": "BonusDistributor",
  "sourceName": "contracts/gmx/staking/BonusDistributor.sol",
  "abi": [
    {
      "inputs": [
        {
          "internalType": "address",
          "name": "_rewardToken",
          "type": "address"
        },
        {
          "internalType": "address",
          "name": "_rewardTracker",
          "type": "address"
        }
      ],
      "stateMutability": "nonpayable",
      "type": "constructor"
    },
    {
      "anonymous": false,
      "inputs": [
        {
          "indexed": false,
          "internalType": "uint256",
          "name": "amount",
          "type": "uint256"
        }
      ],
      "name": "BonusMultiplierChange",
      "type": "event"
    },
    {
      "anonymous": false,
      "inputs": [
        {
          "indexed": false,
          "internalType": "uint256",
          "name": "amount",
          "type": "uint256"
        }
      ],
      "name": "Distribute",
      "type": "event"
    },
    {
      "inputs": [],
      "name": "BASIS_POINTS_DIVISOR",
      "outputs": [
        {
          "internalType": "uint256",
          "name": "",
          "type": "uint256"
        }
      ],
      "stateMutability": "view",
      "type": "function"
    },
    {
      "inputs": [],
      "name": "BONUS_DURATION",
      "outputs": [
        {
          "internalType": "uint256",
          "name": "",
          "type": "uint256"
        }
      ],
      "stateMutability": "view",
      "type": "function"
    },
    {
      "inputs": [],
      "name": "admin",
      "outputs": [
        {
          "internalType": "address",
          "name": "",
          "type": "address"
        }
      ],
      "stateMutability": "view",
      "type": "function"
    },
    {
      "inputs": [],
      "name": "bonusMultiplierBasisPoints",
      "outputs": [
        {
          "internalType": "uint256",
          "name": "",
          "type": "uint256"
        }
      ],
      "stateMutability": "view",
      "type": "function"
    },
    {
      "inputs": [],
      "name": "distribute",
      "outputs": [
        {
          "internalType": "uint256",
          "name": "",
          "type": "uint256"
        }
      ],
      "stateMutability": "nonpayable",
      "type": "function"
    },
    {
      "inputs": [],
      "name": "gov",
      "outputs": [
        {
          "internalType": "address",
          "name": "",
          "type": "address"
        }
      ],
      "stateMutability": "view",
      "type": "function"
    },
    {
      "inputs": [],
      "name": "lastDistributionTime",
      "outputs": [
        {
          "internalType": "uint256",
          "name": "",
          "type": "uint256"
        }
      ],
      "stateMutability": "view",
      "type": "function"
    },
    {
      "inputs": [],
      "name": "pendingRewards",
      "outputs": [
        {
          "internalType": "uint256",
          "name": "",
          "type": "uint256"
        }
      ],
      "stateMutability": "view",
      "type": "function"
    },
    {
      "inputs": [],
      "name": "rewardToken",
      "outputs": [
        {
          "internalType": "address",
          "name": "",
          "type": "address"
        }
      ],
      "stateMutability": "view",
      "type": "function"
    },
    {
      "inputs": [],
      "name": "rewardTracker",
      "outputs": [
        {
          "internalType": "address",
          "name": "",
          "type": "address"
        }
      ],
      "stateMutability": "view",
      "type": "function"
    },
    {
      "inputs": [
        {
          "internalType": "address",
          "name": "_admin",
          "type": "address"
        }
      ],
      "name": "setAdmin",
      "outputs": [],
      "stateMutability": "nonpayable",
      "type": "function"
    },
    {
      "inputs": [
        {
          "internalType": "uint256",
          "name": "_bonusMultiplierBasisPoints",
          "type": "uint256"
        }
      ],
      "name": "setBonusMultiplier",
      "outputs": [],
      "stateMutability": "nonpayable",
      "type": "function"
    },
    {
      "inputs": [
        {
          "internalType": "address",
          "name": "_gov",
          "type": "address"
        }
      ],
      "name": "setGov",
      "outputs": [],
      "stateMutability": "nonpayable",
      "type": "function"
    },
    {
      "inputs": [],
      "name": "tokensPerInterval",
      "outputs": [
        {
          "internalType": "uint256",
          "name": "",
          "type": "uint256"
        }
      ],
      "stateMutability": "view",
      "type": "function"
    },
    {
      "inputs": [],
      "name": "updateLastDistributionTime",
      "outputs": [],
      "stateMutability": "nonpayable",
      "type": "function"
    },
    {
      "inputs": [
        {
          "internalType": "address",
          "name": "_token",
          "type": "address"
        },
        {
          "internalType": "address",
          "name": "_account",
          "type": "address"
        },
        {
          "internalType": "uint256",
          "name": "_amount",
          "type": "uint256"
        }
      ],
      "name": "withdrawToken",
      "outputs": [],
      "stateMutability": "nonpayable",
      "type": "function"
    }
  ],
  "bytecode": "0x608060405234801561001057600080fd5b506040516117b53803806117b58339818101604052604081101561003357600080fd5b810190808051906020019092919080519060200190929190505050600160008190555033600160006101000a81548173ffffffffffffffffffffffffffffffffffffffff021916908373ffffffffffffffffffffffffffffffffffffffff16021790555081600360006101000a81548173ffffffffffffffffffffffffffffffffffffffff021916908373ffffffffffffffffffffffffffffffffffffffff16021790555080600560006101000a81548173ffffffffffffffffffffffffffffffffffffffff021916908373ffffffffffffffffffffffffffffffffffffffff16021790555033600660006101000a81548173ffffffffffffffffffffffffffffffffffffffff021916908373ffffffffffffffffffffffffffffffffffffffff160217905550505061164a8061016b6000396000f3fe608060405234801561001057600080fd5b50600436106101005760003560e01c8063a013ad5411610097578063eded3fda11610066578063eded3fda14610321578063f7c618c11461033f578063f851a44014610373578063fd58e63a146103a757610100565b8063a013ad5414610283578063a8d93627146102a1578063cfad57a2146102bf578063e4fc6b6d1461030357610100565b80633ae6d6eb116100d35780633ae6d6eb146101e35780636bcb411a146101ed578063704b6c021461022157806375b173501461026557610100565b806301e3366714610105578063126082cf1461017357806312d43a51146101915780632f6beaa5146101c5575b600080fd5b6101716004803603606081101561011b57600080fd5b81019080803573ffffffffffffffffffffffffffffffffffffffff169060200190929190803573ffffffffffffffffffffffffffffffffffffffff169060200190929190803590602001909291905050506103d5565b005b61017b6104c8565b6040518082815260200191505060405180910390f35b6101996104ce565b604051808273ffffffffffffffffffffffffffffffffffffffff16815260200191505060405180910390f35b6101cd6104f4565b6040518082815260200191505060405180910390f35b6101eb6104fa565b005b6101f56105c6565b604051808273ffffffffffffffffffffffffffffffffffffffff16815260200191505060405180910390f35b6102636004803603602081101561023757600080fd5b81019080803573ffffffffffffffffffffffffffffffffffffffff1690602001909291905050506105ec565b005b61026d6106f3565b6040518082815260200191505060405180910390f35b61028b6106f9565b6040518082815260200191505060405180910390f35b6102a9610701565b6040518082815260200191505060405180910390f35b610301600480360360208110156102d557600080fd5b81019080803573ffffffffffffffffffffffffffffffffffffffff1690602001909291905050506107ee565b005b61030b6108f5565b6040518082815260200191505060405180910390f35b610329610b24565b6040518082815260200191505060405180910390f35b610347610c52565b604051808273ffffffffffffffffffffffffffffffffffffffff16815260200191505060405180910390f35b61037b610c78565b604051808273ffffffffffffffffffffffffffffffffffffffff16815260200191505060405180910390f35b6103d3600480360360208110156103bd57600080fd5b8101908080359060200190929190505050610c9e565b005b600160009054906101000a900473ffffffffffffffffffffffffffffffffffffffff1673ffffffffffffffffffffffffffffffffffffffff163373ffffffffffffffffffffffffffffffffffffffff1614610498576040517f08c379a00000000000000000000000000000000000000000000000000000000081526004018080602001828103825260158152602001807f476f7665726e61626c653a20666f7262696464656e000000000000000000000081525060200191505060405180910390fd5b6104c382828573ffffffffffffffffffffffffffffffffffffffff16610e809092919063ffffffff16565b505050565b61271081565b600160009054906101000a900473ffffffffffffffffffffffffffffffffffffffff1681565b60025481565b600660009054906101000a900473ffffffffffffffffffffffffffffffffffffffff1673ffffffffffffffffffffffffffffffffffffffff163373ffffffffffffffffffffffffffffffffffffffff16146105bd576040517f08c379a000000000000000000000000000000000000000000000000000000000815260040180806020018281038252601b8152602001807f426f6e75734469737472696275746f723a20666f7262696464656e000000000081525060200191505060405180910390fd5b42600481905550565b600560009054906101000a900473ffffffffffffffffffffffffffffffffffffffff1681565b600160009054906101000a900473ffffffffffffffffffffffffffffffffffffffff1673ffffffffffffffffffffffffffffffffffffffff163373ffffffffffffffffffffffffffffffffffffffff16146106af576040517f08c379a00000000000000000000000000000000000000000000000000000000081526004018080602001828103825260158152602001807f476f7665726e61626c653a20666f7262696464656e000000000000000000000081525060200191505060405180910390fd5b80600660006101000a81548173ffffffffffffffffffffffffffffffffffffffff021916908373ffffffffffffffffffffffffffffffffffffffff16021790555050565b60045481565b6301e1338081565b600080600560009054906101000a900473ffffffffffffffffffffffffffffffffffffffff1673ffffffffffffffffffffffffffffffffffffffff166318160ddd6040518163ffffffff1660e01b815260040160206040518083038186803b15801561076c57600080fd5b505afa158015610780573d6000803e3d6000fd5b505050506040513d602081101561079657600080fd5b810190808051906020019092919050505090506107e86301e133806107da6127106107cc60025486610f2290919063ffffffff16565b610fa890919063ffffffff16565b610fa890919063ffffffff16565b91505090565b600160009054906101000a900473ffffffffffffffffffffffffffffffffffffffff1673ffffffffffffffffffffffffffffffffffffffff163373ffffffffffffffffffffffffffffffffffffffff16146108b1576040517f08c379a00000000000000000000000000000000000000000000000000000000081526004018080602001828103825260158152602001807f476f7665726e61626c653a20666f7262696464656e000000000000000000000081525060200191505060405180910390fd5b80600160006101000a81548173ffffffffffffffffffffffffffffffffffffffff021916908373ffffffffffffffffffffffffffffffffffffffff16021790555050565b6000600560009054906101000a900473ffffffffffffffffffffffffffffffffffffffff1673ffffffffffffffffffffffffffffffffffffffff163373ffffffffffffffffffffffffffffffffffffffff161461099d576040517f08c379a00000000000000000000000000000000000000000000000000000000081526004018080602001828103825260248152602001806115c76024913960400191505060405180910390fd5b60006109a7610b24565b905060008114156109bc576000915050610b21565b426004819055506000600360009054906101000a900473ffffffffffffffffffffffffffffffffffffffff1673ffffffffffffffffffffffffffffffffffffffff166370a08231306040518263ffffffff1660e01b8152600401808273ffffffffffffffffffffffffffffffffffffffff16815260200191505060206040518083038186803b158015610a4e57600080fd5b505afa158015610a62573d6000803e3d6000fd5b505050506040513d6020811015610a7857600080fd5b8101908080519060200190929190505050905080821115610a97578091505b610ae43383600360009054906101000a900473ffffffffffffffffffffffffffffffffffffffff1673ffffffffffffffffffffffffffffffffffffffff16610e809092919063ffffffff16565b7f4def474aca53bf221d07d9ab0f675b3f6d8d2494b8427271bcf43c018ef1eead826040518082815260200191505060405180910390a181925050505b90565b6000600454421415610b395760009050610c4f565b6000600560009054906101000a900473ffffffffffffffffffffffffffffffffffffffff1673ffffffffffffffffffffffffffffffffffffffff166318160ddd6040518163ffffffff1660e01b815260040160206040518083038186803b158015610ba357600080fd5b505afa158015610bb7573d6000803e3d6000fd5b505050506040513d6020811015610bcd57600080fd5b810190808051906020019092919050505090506000610bf760045442610ff290919063ffffffff16565b9050610c4a6301e13380610c3c612710610c2e600254610c208888610f2290919063ffffffff16565b610f2290919063ffffffff16565b610fa890919063ffffffff16565b610fa890919063ffffffff16565b925050505b90565b600360009054906101000a900473ffffffffffffffffffffffffffffffffffffffff1681565b600660009054906101000a900473ffffffffffffffffffffffffffffffffffffffff1681565b600660009054906101000a900473ffffffffffffffffffffffffffffffffffffffff1673ffffffffffffffffffffffffffffffffffffffff163373ffffffffffffffffffffffffffffffffffffffff1614610d61576040517f08c379a000000000000000000000000000000000000000000000000000000000815260040180806020018281038252601b8152602001807f426f6e75734469737472696275746f723a20666f7262696464656e000000000081525060200191505060405180910390fd5b60006004541415610dbd576040517f08c379a000000000000000000000000000000000000000000000000000000000815260040180806020018281038252602e815260200180611578602e913960400191505060405180910390fd5b600560009054906101000a900473ffffffffffffffffffffffffffffffffffffffff1673ffffffffffffffffffffffffffffffffffffffff16633e158b0c6040518163ffffffff1660e01b8152600401600060405180830381600087803b158015610e2757600080fd5b505af1158015610e3b573d6000803e3d6000fd5b50505050806002819055507f58585e4edc172f6517d6789356504dc9ad23553d02202c3ac454a8d0733f6b2b816040518082815260200191505060405180910390a150565b610f1d8363a9059cbb60e01b8484604051602401808373ffffffffffffffffffffffffffffffffffffffff16815260200182815260200192505050604051602081830303815290604052907bffffffffffffffffffffffffffffffffffffffffffffffffffffffff19166020820180517bffffffffffffffffffffffffffffffffffffffffffffffffffffffff838183161783525050505061103c565b505050565b600080831415610f355760009050610fa2565b6000828402905082848281610f4657fe5b0414610f9d576040517f08c379a00000000000000000000000000000000000000000000000000000000081526004018080602001828103825260218152602001806115a66021913960400191505060405180910390fd5b809150505b92915050565b6000610fea83836040518060400160405280601a81526020017f536166654d6174683a206469766973696f6e206279207a65726f00000000000081525061112b565b905092915050565b600061103483836040518060400160405280601e81526020017f536166654d6174683a207375627472616374696f6e206f766572666c6f7700008152506111f1565b905092915050565b606061109e826040518060400160405280602081526020017f5361666545524332303a206c6f772d6c6576656c2063616c6c206661696c65648152508573ffffffffffffffffffffffffffffffffffffffff166112b19092919063ffffffff16565b9050600081511115611126578080602001905160208110156110bf57600080fd5b8101908080519060200190929190505050611125576040517f08c379a000000000000000000000000000000000000000000000000000000000815260040180806020018281038252602a8152602001806115eb602a913960400191505060405180910390fd5b5b505050565b600080831182906111d7576040517f08c379a00000000000000000000000000000000000000000000000000000000081526004018080602001828103825283818151815260200191508051906020019080838360005b8381101561119c578082015181840152602081019050611181565b50505050905090810190601f1680156111c95780820380516001836020036101000a031916815260200191505b509250505060405180910390fd5b5060008385816111e357fe5b049050809150509392505050565b600083831115829061129e576040517f08c379a00000000000000000000000000000000000000000000000000000000081526004018080602001828103825283818151815260200191508051906020019080838360005b83811015611263578082015181840152602081019050611248565b50505050905090810190601f1680156112905780820380516001836020036101000a031916815260200191505b509250505060405180910390fd5b5060008385039050809150509392505050565b60606112c084846000856112c9565b90509392505050565b606082471015611324576040517f08c379a00000000000000000000000000000000000000000000000000000000081526004018080602001828103825260268152602001806115526026913960400191505060405180910390fd5b61132d85611472565b61139f576040517f08c379a000000000000000000000000000000000000000000000000000000000815260040180806020018281038252601d8152602001807f416464726573733a2063616c6c20746f206e6f6e2d636f6e747261637400000081525060200191505060405180910390fd5b600060608673ffffffffffffffffffffffffffffffffffffffff1685876040518082805190602001908083835b602083106113ef57805182526020820191506020810190506020830392506113cc565b6001836020036101000a03801982511681845116808217855250505050505090500191505060006040518083038185875af1925050503d8060008114611451576040519150601f19603f3d011682016040523d82523d6000602084013e611456565b606091505b5091509150611466828286611485565b92505050949350505050565b600080823b905060008111915050919050565b606083156114955782905061154a565b6000835111156114a85782518084602001fd5b816040517f08c379a00000000000000000000000000000000000000000000000000000000081526004018080602001828103825283818151815260200191508051906020019080838360005b8381101561150f5780820151818401526020810190506114f4565b50505050905090810190601f16801561153c5780820380516001836020036101000a031916815260200191505b509250505060405180910390fd5b939250505056fe416464726573733a20696e73756666696369656e742062616c616e636520666f722063616c6c426f6e75734469737472696275746f723a20696e76616c6964206c617374446973747269627574696f6e54696d65536166654d6174683a206d756c7469706c69636174696f6e206f766572666c6f77426f6e75734469737472696275746f723a20696e76616c6964206d73672e73656e6465725361666545524332303a204552433230206f7065726174696f6e20646964206e6f742073756363656564a264697066735822122048556a9766fb37c81c8ba714afb22af5075671a2212f6c5f4c6b1c192f634ca564736f6c634300060c0033",
  "linkReferences": {},
  "deployedLinkReferences": {}
}