{
  "_format": "hh-sol-artifact-1",
  "contractName": "UniPool",
  "sourceName": "contracts/gmx/amm/UniPool.sol",
  "abi": [
    {
      "inputs": [
        {
          "internalType": "uint32[]",
          "name": "",
          "type": "uint32[]"
        }
      ],
      "name": "observe",
      "outputs": [
        {
          "internalType": "int56[]",
          "name": "tickCumulatives",
          "type": "int56[]"
        },
        {
          "internalType": "uint160[]",
          "name": "secondsPerLiquidityCumulativeX128s",
          "type": "uint160[]"
        }
      ],
      "stateMutability": "pure",
      "type": "function"
    },
    {
      "inputs": [],
      "name": "slot0",
      "outputs": [
        {
          "internalType": "uint160",
          "name": "sqrtPriceX96",
          "type": "uint160"
        },
        {
          "internalType": "int24",
          "name": "tick",
          "type": "int24"
        },
        {
          "internalType": "uint16",
          "name": "observationIndex",
          "type": "uint16"
        },
        {
          "internalType": "uint16",
          "name": "observationCardinality",
          "type": "uint16"
        },
        {
          "internalType": "uint16",
          "name": "observationCardinalityNext",
          "type": "uint16"
        },
        {
          "internalType": "uint8",
          "name": "feeProtocol",
          "type": "uint8"
        },
        {
          "internalType": "bool",
          "name": "unlocked",
          "type": "bool"
        }
      ],
      "stateMutability": "view",
      "type": "function"
    },
    {
      "inputs": [],
      "name": "tickSpacing",
      "outputs": [
        {
          "internalType": "int24",
          "name": "",
          "type": "int24"
        }
      ],
      "stateMutability": "pure",
      "type": "function"
    }
  ],
  "bytecode": "0x608060405234801561001057600080fd5b506102d5806100206000396000f3fe608060405234801561001057600080fd5b50600436106100415760003560e01c80633850c7bd14610046578063883bdbfd146100b8578063d0c93a7c146101ce575b600080fd5b61004e6101ef565b604051808873ffffffffffffffffffffffffffffffffffffffff1681526020018760020b81526020018661ffff1681526020018561ffff1681526020018461ffff1681526020018360ff168152602001821515815260200197505050505050505060405180910390f35b61012f600480360360208110156100ce57600080fd5b81019080803590602001906401000000008111156100eb57600080fd5b8201836020820111156100fd57600080fd5b8035906020019184602083028401116401000000008311171561011f57600080fd5b9091929391929390505050610290565b604051808060200180602001838103835285818151815260200191508051906020019060200280838360005b8381101561017657808201518184015260208101905061015b565b50505050905001838103825284818151815260200191508051906020019060200280838360005b838110156101b857808201518184015260208101905061019d565b5050505090500194505050505060405180910390f35b6101d661029a565b604051808260020b815260200191505060405180910390f35b60008060000160009054906101000a900473ffffffffffffffffffffffffffffffffffffffff16908060000160149054906101000a900460020b908060000160179054906101000a900461ffff16908060000160199054906101000a900461ffff169080600001601b9054906101000a900461ffff169080600001601d9054906101000a900460ff169080600001601e9054906101000a900460ff16905087565b6060809250929050565b60009056fea2646970667358221220e3a4555073881df409404d211269deb6030721f08b4ca9b3c4b6578922d4d35264736f6c634300060c0033",
  "linkReferences": {},
  "deployedLinkReferences": {}
}