{
  "_format": "hh-sol-artifact-1",
  "contractName": "FastPriceFeed",
  "sourceName": "contracts/gmx/oracle/FastPriceFeed.sol",
  "abi": [
    {
      "inputs": [
        {
          "internalType": "uint256",
          "name": "_priceDuration",
          "type": "uint256"
        },
        {
          "internalType": "uint256",
          "name": "_maxPriceUpdateDelay",
          "type": "uint256"
        },
        {
          "internalType": "uint256",
          "name": "_minBlockInterval",
          "type": "uint256"
        },
        {
          "internalType": "uint256",
          "name": "_maxDeviationBasisPoints",
          "type": "uint256"
        },
        {
          "internalType": "address",
          "name": "_fastPriceEvents",
          "type": "address"
        },
        {
          "internalType": "address",
          "name": "_tokenManager",
          "type": "address"
        },
        {
          "internalType": "address",
          "name": "_positionRouter",
          "type": "address"
        }
      ],
      "stateMutability": "nonpayable",
      "type": "constructor"
    },
    {
      "anonymous": false,
      "inputs": [
        {
          "indexed": false,
          "internalType": "address",
          "name": "signer",
          "type": "address"
        }
      ],
      "name": "DisableFastPrice",
      "type": "event"
    },
    {
      "anonymous": false,
      "inputs": [
        {
          "indexed": false,
          "internalType": "address",
          "name": "signer",
          "type": "address"
        }
      ],
      "name": "EnableFastPrice",
      "type": "event"
    },
    {
      "anonymous": false,
      "inputs": [
        {
          "indexed": false,
          "internalType": "address",
          "name": "token",
          "type": "address"
        },
        {
          "indexed": false,
          "internalType": "uint256",
          "name": "refPrice",
          "type": "uint256"
        },
        {
          "indexed": false,
          "internalType": "uint256",
          "name": "fastPrice",
          "type": "uint256"
        },
        {
          "indexed": false,
          "internalType": "uint256",
          "name": "cumulativeRefDelta",
          "type": "uint256"
        },
        {
          "indexed": false,
          "internalType": "uint256",
          "name": "cumulativeFastDelta",
          "type": "uint256"
        }
      ],
      "name": "MaxCumulativeDeltaDiffExceeded",
      "type": "event"
    },
    {
      "anonymous": false,
      "inputs": [
        {
          "indexed": false,
          "internalType": "address",
          "name": "token",
          "type": "address"
        },
        {
          "indexed": false,
          "internalType": "uint256",
          "name": "refPrice",
          "type": "uint256"
        },
        {
          "indexed": false,
          "internalType": "uint256",
          "name": "fastPrice",
          "type": "uint256"
        },
        {
          "indexed": false,
          "internalType": "uint256",
          "name": "cumulativeRefDelta",
          "type": "uint256"
        },
        {
          "indexed": false,
          "internalType": "uint256",
          "name": "cumulativeFastDelta",
          "type": "uint256"
        }
      ],
      "name": "PriceData",
      "type": "event"
    },
    {
      "inputs": [],
      "name": "BASIS_POINTS_DIVISOR",
      "outputs": [
        {
          "internalType": "uint256",
          "name": "",
          "type": "uint256"
        }
      ],
      "stateMutability": "view",
      "type": "function"
    },
    {
      "inputs": [],
      "name": "BITMASK_32",
      "outputs": [
        {
          "internalType": "uint256",
          "name": "",
          "type": "uint256"
        }
      ],
      "stateMutability": "view",
      "type": "function"
    },
    {
      "inputs": [],
      "name": "CUMULATIVE_DELTA_PRECISION",
      "outputs": [
        {
          "internalType": "uint256",
          "name": "",
          "type": "uint256"
        }
      ],
      "stateMutability": "view",
      "type": "function"
    },
    {
      "inputs": [],
      "name": "MAX_CUMULATIVE_FAST_DELTA",
      "outputs": [
        {
          "internalType": "uint256",
          "name": "",
          "type": "uint256"
        }
      ],
      "stateMutability": "view",
      "type": "function"
    },
    {
      "inputs": [],
      "name": "MAX_CUMULATIVE_REF_DELTA",
      "outputs": [
        {
          "internalType": "uint256",
          "name": "",
          "type": "uint256"
        }
      ],
      "stateMutability": "view",
      "type": "function"
    },
    {
      "inputs": [],
      "name": "MAX_PRICE_DURATION",
      "outputs": [
        {
          "internalType": "uint256",
          "name": "",
          "type": "uint256"
        }
      ],
      "stateMutability": "view",
      "type": "function"
    },
    {
      "inputs": [],
      "name": "MAX_REF_PRICE",
      "outputs": [
        {
          "internalType": "uint256",
          "name": "",
          "type": "uint256"
        }
      ],
      "stateMutability": "view",
      "type": "function"
    },
    {
      "inputs": [],
      "name": "PRICE_PRECISION",
      "outputs": [
        {
          "internalType": "uint256",
          "name": "",
          "type": "uint256"
        }
      ],
      "stateMutability": "view",
      "type": "function"
    },
    {
      "inputs": [],
      "name": "disableFastPrice",
      "outputs": [],
      "stateMutability": "nonpayable",
      "type": "function"
    },
    {
      "inputs": [],
      "name": "disableFastPriceVoteCount",
      "outputs": [
        {
          "internalType": "uint256",
          "name": "",
          "type": "uint256"
        }
      ],
      "stateMutability": "view",
      "type": "function"
    },
    {
      "inputs": [
        {
          "internalType": "address",
          "name": "",
          "type": "address"
        }
      ],
      "name": "disableFastPriceVotes",
      "outputs": [
        {
          "internalType": "bool",
          "name": "",
          "type": "bool"
        }
      ],
      "stateMutability": "view",
      "type": "function"
    },
    {
      "inputs": [],
      "name": "enableFastPrice",
      "outputs": [],
      "stateMutability": "nonpayable",
      "type": "function"
    },
    {
      "inputs": [],
      "name": "fastPriceEvents",
      "outputs": [
        {
          "internalType": "address",
          "name": "",
          "type": "address"
        }
      ],
      "stateMutability": "view",
      "type": "function"
    },
    {
      "inputs": [
        {
          "internalType": "address",
          "name": "_token",
          "type": "address"
        }
      ],
      "name": "favorFastPrice",
      "outputs": [
        {
          "internalType": "bool",
          "name": "",
          "type": "bool"
        }
      ],
      "stateMutability": "view",
      "type": "function"
    },
    {
      "inputs": [
        {
          "internalType": "address",
          "name": "_token",
          "type": "address"
        },
        {
          "internalType": "uint256",
          "name": "_refPrice",
          "type": "uint256"
        },
        {
          "internalType": "bool",
          "name": "_maximise",
          "type": "bool"
        }
      ],
      "name": "getPrice",
      "outputs": [
        {
          "internalType": "uint256",
          "name": "",
          "type": "uint256"
        }
      ],
      "stateMutability": "view",
      "type": "function"
    },
    {
      "inputs": [
        {
          "internalType": "address",
          "name": "_token",
          "type": "address"
        }
      ],
      "name": "getPriceData",
      "outputs": [
        {
          "internalType": "uint256",
          "name": "",
          "type": "uint256"
        },
        {
          "internalType": "uint256",
          "name": "",
          "type": "uint256"
        },
        {
          "internalType": "uint256",
          "name": "",
          "type": "uint256"
        },
        {
          "internalType": "uint256",
          "name": "",
          "type": "uint256"
        }
      ],
      "stateMutability": "view",
      "type": "function"
    },
    {
      "inputs": [],
      "name": "gov",
      "outputs": [
        {
          "internalType": "address",
          "name": "",
          "type": "address"
        }
      ],
      "stateMutability": "view",
      "type": "function"
    },
    {
      "inputs": [
        {
          "internalType": "uint256",
          "name": "_minAuthorizations",
          "type": "uint256"
        },
        {
          "internalType": "address[]",
          "name": "_signers",
          "type": "address[]"
        },
        {
          "internalType": "address[]",
          "name": "_updaters",
          "type": "address[]"
        }
      ],
      "name": "initialize",
      "outputs": [],
      "stateMutability": "nonpayable",
      "type": "function"
    },
    {
      "inputs": [],
      "name": "isInitialized",
      "outputs": [
        {
          "internalType": "bool",
          "name": "",
          "type": "bool"
        }
      ],
      "stateMutability": "view",
      "type": "function"
    },
    {
      "inputs": [
        {
          "internalType": "address",
          "name": "",
          "type": "address"
        }
      ],
      "name": "isSigner",
      "outputs": [
        {
          "internalType": "bool",
          "name": "",
          "type": "bool"
        }
      ],
      "stateMutability": "view",
      "type": "function"
    },
    {
      "inputs": [],
      "name": "isSpreadEnabled",
      "outputs": [
        {
          "internalType": "bool",
          "name": "",
          "type": "bool"
        }
      ],
      "stateMutability": "view",
      "type": "function"
    },
    {
      "inputs": [
        {
          "internalType": "address",
          "name": "",
          "type": "address"
        }
      ],
      "name": "isUpdater",
      "outputs": [
        {
          "internalType": "bool",
          "name": "",
          "type": "bool"
        }
      ],
      "stateMutability": "view",
      "type": "function"
    },
    {
      "inputs": [],
      "name": "lastUpdatedAt",
      "outputs": [
        {
          "internalType": "uint256",
          "name": "",
          "type": "uint256"
        }
      ],
      "stateMutability": "view",
      "type": "function"
    },
    {
      "inputs": [],
      "name": "lastUpdatedBlock",
      "outputs": [
        {
          "internalType": "uint256",
          "name": "",
          "type": "uint256"
        }
      ],
      "stateMutability": "view",
      "type": "function"
    },
    {
      "inputs": [
        {
          "internalType": "address",
          "name": "",
          "type": "address"
        }
      ],
      "name": "maxCumulativeDeltaDiffs",
      "outputs": [
        {
          "internalType": "uint256",
          "name": "",
          "type": "uint256"
        }
      ],
      "stateMutability": "view",
      "type": "function"
    },
    {
      "inputs": [],
      "name": "maxDeviationBasisPoints",
      "outputs": [
        {
          "internalType": "uint256",
          "name": "",
          "type": "uint256"
        }
      ],
      "stateMutability": "view",
      "type": "function"
    },
    {
      "inputs": [],
      "name": "maxPriceUpdateDelay",
      "outputs": [
        {
          "internalType": "uint256",
          "name": "",
          "type": "uint256"
        }
      ],
      "stateMutability": "view",
      "type": "function"
    },
    {
      "inputs": [],
      "name": "maxTimeDeviation",
      "outputs": [
        {
          "internalType": "uint256",
          "name": "",
          "type": "uint256"
        }
      ],
      "stateMutability": "view",
      "type": "function"
    },
    {
      "inputs": [],
      "name": "minAuthorizations",
      "outputs": [
        {
          "internalType": "uint256",
          "name": "",
          "type": "uint256"
        }
      ],
      "stateMutability": "view",
      "type": "function"
    },
    {
      "inputs": [],
      "name": "minBlockInterval",
      "outputs": [
        {
          "internalType": "uint256",
          "name": "",
          "type": "uint256"
        }
      ],
      "stateMutability": "view",
      "type": "function"
    },
    {
      "inputs": [],
      "name": "positionRouter",
      "outputs": [
        {
          "internalType": "address",
          "name": "",
          "type": "address"
        }
      ],
      "stateMutability": "view",
      "type": "function"
    },
    {
      "inputs": [
        {
          "internalType": "address",
          "name": "",
          "type": "address"
        }
      ],
      "name": "priceData",
      "outputs": [
        {
          "internalType": "uint160",
          "name": "refPrice",
          "type": "uint160"
        },
        {
          "internalType": "uint32",
          "name": "refTime",
          "type": "uint32"
        },
        {
          "internalType": "uint32",
          "name": "cumulativeRefDelta",
          "type": "uint32"
        },
        {
          "internalType": "uint32",
          "name": "cumulativeFastDelta",
          "type": "uint32"
        }
      ],
      "stateMutability": "view",
      "type": "function"
    },
    {
      "inputs": [],
      "name": "priceDataInterval",
      "outputs": [
        {
          "internalType": "uint256",
          "name": "",
          "type": "uint256"
        }
      ],
      "stateMutability": "view",
      "type": "function"
    },
    {
      "inputs": [],
      "name": "priceDuration",
      "outputs": [
        {
          "internalType": "uint256",
          "name": "",
          "type": "uint256"
        }
      ],
      "stateMutability": "view",
      "type": "function"
    },
    {
      "inputs": [
        {
          "internalType": "address",
          "name": "",
          "type": "address"
        }
      ],
      "name": "prices",
      "outputs": [
        {
          "internalType": "uint256",
          "name": "",
          "type": "uint256"
        }
      ],
      "stateMutability": "view",
      "type": "function"
    },
    {
      "inputs": [
        {
          "internalType": "uint256[]",
          "name": "_priceBitArray",
          "type": "uint256[]"
        },
        {
          "internalType": "uint256",
          "name": "_timestamp",
          "type": "uint256"
        }
      ],
      "name": "setCompactedPrices",
      "outputs": [],
      "stateMutability": "nonpayable",
      "type": "function"
    },
    {
      "inputs": [
        {
          "internalType": "address",
          "name": "_fastPriceEvents",
          "type": "address"
        }
      ],
      "name": "setFastPriceEvents",
      "outputs": [],
      "stateMutability": "nonpayable",
      "type": "function"
    },
    {
      "inputs": [
        {
          "internalType": "address",
          "name": "_gov",
          "type": "address"
        }
      ],
      "name": "setGov",
      "outputs": [],
      "stateMutability": "nonpayable",
      "type": "function"
    },
    {
      "inputs": [
        {
          "internalType": "bool",
          "name": "_isSpreadEnabled",
          "type": "bool"
        }
      ],
      "name": "setIsSpreadEnabled",
      "outputs": [],
      "stateMutability": "nonpayable",
      "type": "function"
    },
    {
      "inputs": [
        {
          "internalType": "uint256",
          "name": "_lastUpdatedAt",
          "type": "uint256"
        }
      ],
      "name": "setLastUpdatedAt",
      "outputs": [],
      "stateMutability": "nonpayable",
      "type": "function"
    },
    {
      "inputs": [
        {
          "internalType": "address[]",
          "name": "_tokens",
          "type": "address[]"
        },
        {
          "internalType": "uint256[]",
          "name": "_maxCumulativeDeltaDiffs",
          "type": "uint256[]"
        }
      ],
      "name": "setMaxCumulativeDeltaDiffs",
      "outputs": [],
      "stateMutability": "nonpayable",
      "type": "function"
    },
    {
      "inputs": [
        {
          "internalType": "uint256",
          "name": "_maxDeviationBasisPoints",
          "type": "uint256"
        }
      ],
      "name": "setMaxDeviationBasisPoints",
      "outputs": [],
      "stateMutability": "nonpayable",
      "type": "function"
    },
    {
      "inputs": [
        {
          "internalType": "uint256",
          "name": "_maxPriceUpdateDelay",
          "type": "uint256"
        }
      ],
      "name": "setMaxPriceUpdateDelay",
      "outputs": [],
      "stateMutability": "nonpayable",
      "type": "function"
    },
    {
      "inputs": [
        {
          "internalType": "uint256",
          "name": "_maxTimeDeviation",
          "type": "uint256"
        }
      ],
      "name": "setMaxTimeDeviation",
      "outputs": [],
      "stateMutability": "nonpayable",
      "type": "function"
    },
    {
      "inputs": [
        {
          "internalType": "uint256",
          "name": "_minAuthorizations",
          "type": "uint256"
        }
      ],
      "name": "setMinAuthorizations",
      "outputs": [],
      "stateMutability": "nonpayable",
      "type": "function"
    },
    {
      "inputs": [
        {
          "internalType": "uint256",
          "name": "_minBlockInterval",
          "type": "uint256"
        }
      ],
      "name": "setMinBlockInterval",
      "outputs": [],
      "stateMutability": "nonpayable",
      "type": "function"
    },
    {
      "inputs": [
        {
          "internalType": "uint256",
          "name": "_priceDataInterval",
          "type": "uint256"
        }
      ],
      "name": "setPriceDataInterval",
      "outputs": [],
      "stateMutability": "nonpayable",
      "type": "function"
    },
    {
      "inputs": [
        {
          "internalType": "uint256",
          "name": "_priceDuration",
          "type": "uint256"
        }
      ],
      "name": "setPriceDuration",
      "outputs": [],
      "stateMutability": "nonpayable",
      "type": "function"
    },
    {
      "inputs": [
        {
          "internalType": "address[]",
          "name": "_tokens",
          "type": "address[]"
        },
        {
          "internalType": "uint256[]",
          "name": "_prices",
          "type": "uint256[]"
        },
        {
          "internalType": "uint256",
          "name": "_timestamp",
          "type": "uint256"
        }
      ],
      "name": "setPrices",
      "outputs": [],
      "stateMutability": "nonpayable",
      "type": "function"
    },
    {
      "inputs": [
        {
          "internalType": "uint256",
          "name": "_priceBits",
          "type": "uint256"
        },
        {
          "internalType": "uint256",
          "name": "_timestamp",
          "type": "uint256"
        }
      ],
      "name": "setPricesWithBits",
      "outputs": [],
      "stateMutability": "nonpayable",
      "type": "function"
    },
    {
      "inputs": [
        {
          "internalType": "uint256",
          "name": "_priceBits",
          "type": "uint256"
        },
        {
          "internalType": "uint256",
          "name": "_timestamp",
          "type": "uint256"
        },
        {
          "internalType": "uint256",
          "name": "_endIndexForIncreasePositions",
          "type": "uint256"
        },
        {
          "internalType": "uint256",
          "name": "_endIndexForDecreasePositions",
          "type": "uint256"
        },
        {
          "internalType": "uint256",
          "name": "_maxIncreasePositions",
          "type": "uint256"
        },
        {
          "internalType": "uint256",
          "name": "_maxDecreasePositions",
          "type": "uint256"
        }
      ],
      "name": "setPricesWithBitsAndExecute",
      "outputs": [],
      "stateMutability": "nonpayable",
      "type": "function"
    },
    {
      "inputs": [
        {
          "internalType": "address",
          "name": "_account",
          "type": "address"
        },
        {
          "internalType": "bool",
          "name": "_isActive",
          "type": "bool"
        }
      ],
      "name": "setSigner",
      "outputs": [],
      "stateMutability": "nonpayable",
      "type": "function"
    },
    {
      "inputs": [
        {
          "internalType": "uint256",
          "name": "_spreadBasisPointsIfChainError",
          "type": "uint256"
        }
      ],
      "name": "setSpreadBasisPointsIfChainError",
      "outputs": [],
      "stateMutability": "nonpayable",
      "type": "function"
    },
    {
      "inputs": [
        {
          "internalType": "uint256",
          "name": "_spreadBasisPointsIfInactive",
          "type": "uint256"
        }
      ],
      "name": "setSpreadBasisPointsIfInactive",
      "outputs": [],
      "stateMutability": "nonpayable",
      "type": "function"
    },
    {
      "inputs": [
        {
          "internalType": "address",
          "name": "_tokenManager",
          "type": "address"
        }
      ],
      "name": "setTokenManager",
      "outputs": [],
      "stateMutability": "nonpayable",
      "type": "function"
    },
    {
      "inputs": [
        {
          "internalType": "address[]",
          "name": "_tokens",
          "type": "address[]"
        },
        {
          "internalType": "uint256[]",
          "name": "_tokenPrecisions",
          "type": "uint256[]"
        }
      ],
      "name": "setTokens",
      "outputs": [],
      "stateMutability": "nonpayable",
      "type": "function"
    },
    {
      "inputs": [
        {
          "internalType": "address",
          "name": "_account",
          "type": "address"
        },
        {
          "internalType": "bool",
          "name": "_isActive",
          "type": "bool"
        }
      ],
      "name": "setUpdater",
      "outputs": [],
      "stateMutability": "nonpayable",
      "type": "function"
    },
    {
      "inputs": [
        {
          "internalType": "address",
          "name": "_vaultPriceFeed",
          "type": "address"
        }
      ],
      "name": "setVaultPriceFeed",
      "outputs": [],
      "stateMutability": "nonpayable",
      "type": "function"
    },
    {
      "inputs": [],
      "name": "spreadBasisPointsIfChainError",
      "outputs": [
        {
          "internalType": "uint256",
          "name": "",
          "type": "uint256"
        }
      ],
      "stateMutability": "view",
      "type": "function"
    },
    {
      "inputs": [],
      "name": "spreadBasisPointsIfInactive",
      "outputs": [
        {
          "internalType": "uint256",
          "name": "",
          "type": "uint256"
        }
      ],
      "stateMutability": "view",
      "type": "function"
    },
    {
      "inputs": [],
      "name": "tokenManager",
      "outputs": [
        {
          "internalType": "address",
          "name": "",
          "type": "address"
        }
      ],
      "stateMutability": "view",
      "type": "function"
    },
    {
      "inputs": [
        {
          "internalType": "uint256",
          "name": "",
          "type": "uint256"
        }
      ],
      "name": "tokenPrecisions",
      "outputs": [
        {
          "internalType": "uint256",
          "name": "",
          "type": "uint256"
        }
      ],
      "stateMutability": "view",
      "type": "function"
    },
    {
      "inputs": [
        {
          "internalType": "uint256",
          "name": "",
          "type": "uint256"
        }
      ],
      "name": "tokens",
      "outputs": [
        {
          "internalType": "address",
          "name": "",
          "type": "address"
        }
      ],
      "stateMutability": "view",
      "type": "function"
    },
    {
      "inputs": [],
      "name": "vaultPriceFeed",
      "outputs": [
        {
          "internalType": "address",
          "name": "",
          "type": "address"
        }
      ],
      "stateMutability": "view",
      "type": "function"
    }
  ],
  "bytecode": "0x608060405260008060156101000a81548160ff02191690831515021790555060006010553480156200003057600080fd5b50604051620051b2380380620051b2833981810160405260e08110156200005657600080fd5b8101908080519060200190929190805190602001909291908051906020019092919080519060200190929190805190602001909291908051906020019092919080519060200190929190505050336000806101000a81548173ffffffffffffffffffffffffffffffffffffffff021916908373ffffffffffffffffffffffffffffffffffffffff16021790555061070887111562000140576040517f08c379a00000000000000000000000000000000000000000000000000000000081526004018080602001828103825260258152602001806200518d6025913960400191505060405180910390fd5b866007819055508560088190555084600b8190555083600e8190555082600260006101000a81548173ffffffffffffffffffffffffffffffffffffffff021916908373ffffffffffffffffffffffffffffffffffffffff16021790555081600360006101000a81548173ffffffffffffffffffffffffffffffffffffffff021916908373ffffffffffffffffffffffffffffffffffffffff16021790555080600460006101000a81548173ffffffffffffffffffffffffffffffffffffffff021916908373ffffffffffffffffffffffffffffffffffffffff16021790555050505050505050614f5780620002366000396000f3fe608060405234801561001057600080fd5b50600436106103d05760003560e01c806372279ba1116101ff578063b3606b561161011a578063d6a153f1116100ad578063e64559ad1161007c578063e64559ad14611563578063e68a22c014611581578063eeaa783a1461159f578063f90ce5ba146115d3576103d0565b8063d6a153f1146114bb578063d925351a146114e9578063de0d1b9414611517578063dfb481c914611545576103d0565b8063cab44b76116100e9578063cab44b761461135a578063ce98dfa8146113ef578063cfad57a21461141f578063cfed246b14611463576103d0565b8063b3606b56146111b8578063b70c7b70146111d6578063c8390a4814611204578063c84a912414611350576103d0565b8063807c978211610192578063a2b47c1611610161578063a2b47c1614611106578063a374242514611124578063a6eca8961461117c578063b0a256661461119a576103d0565b8063807c97821461106e57806382553aad1461108c5780638b7677f4146110ba57806395082d25146110e8576103d0565b80637cb2b79c116101ce5780637cb2b79c14610e0c5780637df73e2714610e505780637fbc79c614610eaa5780637fece36814611000576103d0565b806372279ba114610bfd57806374bfed8914610c6a578063776d16c114610c88578063782661bc14610cb6576103d0565b8063392e53cd116102ef57806354aea12711610282578063695d418411610251578063695d418414610b5b5780636c56fd0514610b7b5780636ccd47c414610bd5578063715c753614610bdf576103d0565b806354aea12714610a8b578063574ec1be14610aa957806361ef161f14610b09578063668d3d6514610b3d576103d0565b80634c0e31c8116102be5780634c0e31c81461084b5780634d11fb4a146109975780634f64b2be146109d95780634fdfb08614610a31576103d0565b8063392e53cd146107c15780633aa08f86146107e157806344c23193146107ff5780634bd66c1c1461082d576103d0565b8063162ac4e011610367578063287800c911610336578063287800c9146106f15780632a709b141461070f5780632e9cd94b1461074357806331cb610514610771576103d0565b8063162ac4e0146105e157806317835d1c146106255780631a1533911461065d578063238aafb7146106ad576103d0565b80630e9272ea116103a35780630e9272ea1461052d578063126082cf1461056157806312d43a511461057f57806314dd2dce146105b3576103d0565b806303b04936146103d557806303cd25711461042f57806303f4d7dc1461044d5780630604ddea1461050f575b600080fd5b610417600480360360208110156103eb57600080fd5b81019080803573ffffffffffffffffffffffffffffffffffffffff1690602001909291905050506115f1565b60405180821515815260200191505060405180910390f35b610437611611565b6040518082815260200191505060405180910390f35b61050d6004803603604081101561046357600080fd5b810190808035906020019064010000000081111561048057600080fd5b82018360208201111561049257600080fd5b803590602001918460208302840111640100000000831117156104b457600080fd5b919080806020026020016040519081016040528093929190818152602001838360200280828437600081840152601f19601f82011690508083019250505050505050919291929080359060200190929190505050611617565b005b61051761188f565b6040518082815260200191505060405180910390f35b610535611899565b604051808273ffffffffffffffffffffffffffffffffffffffff16815260200191505060405180910390f35b6105696118bf565b6040518082815260200191505060405180910390f35b6105876118c5565b604051808273ffffffffffffffffffffffffffffffffffffffff16815260200191505060405180910390f35b6105df600480360360208110156105c957600080fd5b81019080803590602001909291905050506118e9565b005b610623600480360360208110156105f757600080fd5b81019080803573ffffffffffffffffffffffffffffffffffffffff1690602001909291905050506119b4565b005b61065b6004803603604081101561063b57600080fd5b810190808035906020019092919080359060200190929190505050611ab9565b005b6106ab6004803603604081101561067357600080fd5b81019080803573ffffffffffffffffffffffffffffffffffffffff169060200190929190803515159060200190929190505050611b86565b005b6106ef600480360360208110156106c357600080fd5b81019080803573ffffffffffffffffffffffffffffffffffffffff169060200190929190505050611ca2565b005b6106f9611da7565b6040518082815260200191505060405180910390f35b610717611dad565b604051808273ffffffffffffffffffffffffffffffffffffffff16815260200191505060405180910390f35b61076f6004803603602081101561075957600080fd5b8101908080359060200190929190505050611dd3565b005b6107bf6004803603604081101561078757600080fd5b81019080803573ffffffffffffffffffffffffffffffffffffffff169060200190929190803515159060200190929190505050611ea0565b005b6107c9611fbc565b60405180821515815260200191505060405180910390f35b6107e9611fcf565b6040518082815260200191505060405180910390f35b61082b6004803603602081101561081557600080fd5b8101908080359060200190929190505050611fd5565b005b6108356120fb565b6040518082815260200191505060405180910390f35b6109956004803603604081101561086157600080fd5b810190808035906020019064010000000081111561087e57600080fd5b82018360208201111561089057600080fd5b803590602001918460208302840111640100000000831117156108b257600080fd5b919080806020026020016040519081016040528093929190818152602001838360200280828437600081840152601f19601f8201169050808301925050505050505091929192908035906020019064010000000081111561091257600080fd5b82018360208201111561092457600080fd5b8035906020019184602083028401116401000000008311171561094657600080fd5b919080806020026020016040519081016040528093929190818152602001838360200280828437600081840152601f19601f820116905080830192505050505050509192919290505050612105565b005b6109c3600480360360208110156109ad57600080fd5b8101908080359060200190929190505050612256565b6040518082815260200191505060405180910390f35b610a05600480360360208110156109ef57600080fd5b8101908080359060200190929190505050612277565b604051808273ffffffffffffffffffffffffffffffffffffffff16815260200191505060405180910390f35b610a7360048036036020811015610a4757600080fd5b81019080803573ffffffffffffffffffffffffffffffffffffffff1690602001909291905050506122b3565b60405180821515815260200191505060405180910390f35b610a936122d3565b6040518082815260200191505060405180910390f35b610b07600480360360c0811015610abf57600080fd5b810190808035906020019092919080359060200190929190803590602001909291908035906020019092919080359060200190929190803590602001909291905050506122d9565b005b610b11612630565b604051808273ffffffffffffffffffffffffffffffffffffffff16815260200191505060405180910390f35b610b45612656565b6040518082815260200191505060405180910390f35b610b6361265c565b60405180821515815260200191505060405180910390f35b610bbd60048036036020811015610b9157600080fd5b81019080803573ffffffffffffffffffffffffffffffffffffffff16906020019092919050505061266f565b60405180821515815260200191505060405180910390f35b610bdd61272f565b005b610be7612970565b6040518082815260200191505060405180910390f35b610c3f60048036036020811015610c1357600080fd5b81019080803573ffffffffffffffffffffffffffffffffffffffff169060200190929190505050612976565b6040518085815260200184815260200183815260200182815260200194505050505060405180910390f35b610c72612ae4565b6040518082815260200191505060405180910390f35b610cb460048036036020811015610c9e57600080fd5b8101908080359060200190929190505050612aea565b005b610e0a60048036036060811015610ccc57600080fd5b8101908080359060200190640100000000811115610ce957600080fd5b820183602082011115610cfb57600080fd5b80359060200191846020830284011164010000000083111715610d1d57600080fd5b919080806020026020016040519081016040528093929190818152602001838360200280828437600081840152601f19601f82011690508083019250505050505050919291929080359060200190640100000000811115610d7d57600080fd5b820183602082011115610d8f57600080fd5b80359060200191846020830284011164010000000083111715610db157600080fd5b919080806020026020016040519081016040528093929190818152602001838360200280828437600081840152601f19601f82011690508083019250505050505050919291929080359060200190929190505050612bb5565b005b610e4e60048036036020811015610e2257600080fd5b81019080803573ffffffffffffffffffffffffffffffffffffffff169060200190929190505050612d30565b005b610e9260048036036020811015610e6657600080fd5b81019080803573ffffffffffffffffffffffffffffffffffffffff169060200190929190505050612e37565b60405180821515815260200191505060405180910390f35b610ffe60048036036060811015610ec057600080fd5b810190808035906020019092919080359060200190640100000000811115610ee757600080fd5b820183602082011115610ef957600080fd5b80359060200191846020830284011164010000000083111715610f1b57600080fd5b919080806020026020016040519081016040528093929190818152602001838360200280828437600081840152601f19601f82011690508083019250505050505050919291929080359060200190640100000000811115610f7b57600080fd5b820183602082011115610f8d57600080fd5b80359060200191846020830284011164010000000083111715610faf57600080fd5b919080806020026020016040519081016040528093929190818152602001838360200280828437600081840152601f19601f820116905080830192505050505050509192919290505050612e57565b005b6110586004803603606081101561101657600080fd5b81019080803573ffffffffffffffffffffffffffffffffffffffff169060200190929190803590602001909291908035151590602001909291905050506130bb565b6040518082815260200191505060405180910390f35b611076613331565b6040518082815260200191505060405180910390f35b6110b8600480360360208110156110a257600080fd5b8101908080359060200190929190505050613359565b005b6110e6600480360360208110156110d057600080fd5b8101908080359060200190929190505050613426565b005b6110f06134f1565b6040518082815260200191505060405180910390f35b61110e613502565b6040518082815260200191505060405180910390f35b6111666004803603602081101561113a57600080fd5b81019080803573ffffffffffffffffffffffffffffffffffffffff169060200190929190505050613509565b6040518082815260200191505060405180910390f35b611184613521565b6040518082815260200191505060405180910390f35b6111a2613527565b6040518082815260200191505060405180910390f35b6111c061352d565b6040518082815260200191505060405180910390f35b611202600480360360208110156111ec57600080fd5b8101908080359060200190929190505050613533565b005b61134e6004803603604081101561121a57600080fd5b810190808035906020019064010000000081111561123757600080fd5b82018360208201111561124957600080fd5b8035906020019184602083028401116401000000008311171561126b57600080fd5b919080806020026020016040519081016040528093929190818152602001838360200280828437600081840152601f19601f820116905080830192505050505050509192919290803590602001906401000000008111156112cb57600080fd5b8201836020820111156112dd57600080fd5b803590602001918460208302840111640100000000831117156112ff57600080fd5b919080806020026020016040519081016040528093929190818152602001838360200280828437600081840152601f19601f8201169050808301925050505050505091929192905050506135fe565b005b611358613768565b005b61139c6004803603602081101561137057600080fd5b81019080803573ffffffffffffffffffffffffffffffffffffffff1690602001909291905050506139aa565b604051808573ffffffffffffffffffffffffffffffffffffffff1681526020018463ffffffff1681526020018363ffffffff1681526020018263ffffffff16815260200194505050505060405180910390f35b61141d6004803603602081101561140557600080fd5b81019080803515159060200190929190505050613a2a565b005b6114616004803603602081101561143557600080fd5b81019080803573ffffffffffffffffffffffffffffffffffffffff169060200190929190505050613b08565b005b6114a56004803603602081101561147957600080fd5b81019080803573ffffffffffffffffffffffffffffffffffffffff169060200190929190505050613c0c565b6040518082815260200191505060405180910390f35b6114e7600480360360208110156114d157600080fd5b8101908080359060200190929190505050613c24565b005b611515600480360360208110156114ff57600080fd5b8101908080359060200190929190505050613cef565b005b6115436004803603602081101561152d57600080fd5b8101908080359060200190929190505050613dbc565b005b61154d613e87565b6040518082815260200191505060405180910390f35b61156b613e8d565b6040518082815260200191505060405180910390f35b611589613e93565b6040518082815260200191505060405180910390f35b6115a7613ead565b604051808273ffffffffffffffffffffffffffffffffffffffff16815260200191505060405180910390f35b6115db613ed3565b6040518082815260200191505060405180910390f35b60166020528060005260406000206000915054906101000a900460ff1681565b60075481565b601160003373ffffffffffffffffffffffffffffffffffffffff1673ffffffffffffffffffffffffffffffffffffffff16815260200190815260200160002060009054906101000a900460ff166116d6576040517f08c379a00000000000000000000000000000000000000000000000000000000081526004018080602001828103825260188152602001807f466173745072696365466565643a20666f7262696464656e000000000000000081525060200191505060405180910390fd5b60006116e182613ed9565b90508015611889576000600260009054906101000a900473ffffffffffffffffffffffffffffffffffffffff1690506000600160009054906101000a900473ffffffffffffffffffffffffffffffffffffffff16905060005b855181101561188557600086828151811061175157fe5b6020026020010151905060005b600881101561187657600081600885020190506017805490508110611789575050505050505061188b565b6000826020029050600060e07fffffffffffffffffffffffffffffffffffffffffffffffffffffffffffffffff901c8286901c16905060006017856008890201815481106117d357fe5b9060005260206000200160009054906101000a900473ffffffffffffffffffffffffffffffffffffffff169050600060188660088a02018154811061181457fe5b906000526020600020015490506000611855826118476c0c9f2c9cd04674edea400000008761405d90919063ffffffff16565b6140e390919063ffffffff16565b905061186383828c8e61412d565b505050505050808060010191505061175e565b5050808060010191505061173a565b5050505b505b5050565b63ffffffff801681565b600260009054906101000a900473ffffffffffffffffffffffffffffffffffffffff1681565b61271081565b60008054906101000a900473ffffffffffffffffffffffffffffffffffffffff1681565b60008054906101000a900473ffffffffffffffffffffffffffffffffffffffff1673ffffffffffffffffffffffffffffffffffffffff163373ffffffffffffffffffffffffffffffffffffffff16146119aa576040517f08c379a00000000000000000000000000000000000000000000000000000000081526004018080602001828103825260158152602001807f476f7665726e61626c653a20666f7262696464656e000000000000000000000081525060200191505060405180910390fd5b8060058190555050565b60008054906101000a900473ffffffffffffffffffffffffffffffffffffffff1673ffffffffffffffffffffffffffffffffffffffff163373ffffffffffffffffffffffffffffffffffffffff1614611a75576040517f08c379a00000000000000000000000000000000000000000000000000000000081526004018080602001828103825260158152602001807f476f7665726e61626c653a20666f7262696464656e000000000000000000000081525060200191505060405180910390fd5b80600260006101000a81548173ffffffffffffffffffffffffffffffffffffffff021916908373ffffffffffffffffffffffffffffffffffffffff16021790555050565b601160003373ffffffffffffffffffffffffffffffffffffffff1673ffffffffffffffffffffffffffffffffffffffff16815260200190815260200160002060009054906101000a900460ff16611b78576040517f08c379a00000000000000000000000000000000000000000000000000000000081526004018080602001828103825260188152602001807f466173745072696365466565643a20666f7262696464656e000000000000000081525060200191505060405180910390fd5b611b828282614533565b5050565b60008054906101000a900473ffffffffffffffffffffffffffffffffffffffff1673ffffffffffffffffffffffffffffffffffffffff163373ffffffffffffffffffffffffffffffffffffffff1614611c47576040517f08c379a00000000000000000000000000000000000000000000000000000000081526004018080602001828103825260158152602001807f476f7665726e61626c653a20666f7262696464656e000000000000000000000081525060200191505060405180910390fd5b80601160008473ffffffffffffffffffffffffffffffffffffffff1673ffffffffffffffffffffffffffffffffffffffff16815260200190815260200160002060006101000a81548160ff0219169083151502179055505050565b60008054906101000a900473ffffffffffffffffffffffffffffffffffffffff1673ffffffffffffffffffffffffffffffffffffffff163373ffffffffffffffffffffffffffffffffffffffff1614611d63576040517f08c379a00000000000000000000000000000000000000000000000000000000081526004018080602001828103825260158152602001807f476f7665726e61626c653a20666f7262696464656e000000000000000000000081525060200191505060405180910390fd5b80600160006101000a81548173ffffffffffffffffffffffffffffffffffffffff021916908373ffffffffffffffffffffffffffffffffffffffff16021790555050565b600f5481565b600360009054906101000a900473ffffffffffffffffffffffffffffffffffffffff1681565b600360009054906101000a900473ffffffffffffffffffffffffffffffffffffffff1673ffffffffffffffffffffffffffffffffffffffff163373ffffffffffffffffffffffffffffffffffffffff1614611e96576040517f08c379a00000000000000000000000000000000000000000000000000000000081526004018080602001828103825260188152602001807f466173745072696365466565643a20666f7262696464656e000000000000000081525060200191505060405180910390fd5b80600d8190555050565b60008054906101000a900473ffffffffffffffffffffffffffffffffffffffff1673ffffffffffffffffffffffffffffffffffffffff163373ffffffffffffffffffffffffffffffffffffffff1614611f61576040517f08c379a00000000000000000000000000000000000000000000000000000000081526004018080602001828103825260158152602001807f476f7665726e61626c653a20666f7262696464656e000000000000000000000081525060200191505060405180910390fd5b80601560008473ffffffffffffffffffffffffffffffffffffffff1673ffffffffffffffffffffffffffffffffffffffff16815260200190815260200160002060006101000a81548160ff0219169083151502179055505050565b600060149054906101000a900460ff1681565b600c5481565b60008054906101000a900473ffffffffffffffffffffffffffffffffffffffff1673ffffffffffffffffffffffffffffffffffffffff163373ffffffffffffffffffffffffffffffffffffffff1614612096576040517f08c379a00000000000000000000000000000000000000000000000000000000081526004018080602001828103825260158152602001807f476f7665726e61626c653a20666f7262696464656e000000000000000000000081525060200191505060405180910390fd5b6107088111156120f1576040517f08c379a0000000000000000000000000000000000000000000000000000000008152600401808060200182810382526025815260200180614ddd6025913960400191505060405180910390fd5b8060078190555050565b63ffffffff801681565b600360009054906101000a900473ffffffffffffffffffffffffffffffffffffffff1673ffffffffffffffffffffffffffffffffffffffff163373ffffffffffffffffffffffffffffffffffffffff16146121c8576040517f08c379a00000000000000000000000000000000000000000000000000000000081526004018080602001828103825260188152602001807f466173745072696365466565643a20666f7262696464656e000000000000000081525060200191505060405180910390fd5b60005b82518110156122515760008382815181106121e257fe5b602002602001015190508282815181106121f857fe5b6020026020010151601460008373ffffffffffffffffffffffffffffffffffffffff1673ffffffffffffffffffffffffffffffffffffffff168152602001908152602001600020819055505080806001019150506121cb565b505050565b6018818154811061226357fe5b906000526020600020016000915090505481565b6017818154811061228457fe5b906000526020600020016000915054906101000a900473ffffffffffffffffffffffffffffffffffffffff1681565b60116020528060005260406000206000915054906101000a900460ff1681565b60055481565b601160003373ffffffffffffffffffffffffffffffffffffffff1673ffffffffffffffffffffffffffffffffffffffff16815260200190815260200160002060009054906101000a900460ff16612398576040517f08c379a00000000000000000000000000000000000000000000000000000000081526004018080602001828103825260188152602001807f466173745072696365466565643a20666f7262696464656e000000000000000081525060200191505060405180910390fd5b6123a28686614533565b6000600460009054906101000a900473ffffffffffffffffffffffffffffffffffffffff1690506000612460848373ffffffffffffffffffffffffffffffffffffffff16639b5786206040518163ffffffff1660e01b8152600401602060405180830381600087803b15801561241757600080fd5b505af115801561242b573d6000803e3d6000fd5b505050506040513d602081101561244157600080fd5b81019080805190602001909291905050506146a890919063ffffffff16565b905060006124f9848473ffffffffffffffffffffffffffffffffffffffff16631bca8cf06040518163ffffffff1660e01b8152600401602060405180830381600087803b1580156124b057600080fd5b505af11580156124c4573d6000803e3d6000fd5b505050506040513d60208110156124da57600080fd5b81019080805190602001909291905050506146a890919063ffffffff16565b905081871115612507578196505b80861115612513578095505b8273ffffffffffffffffffffffffffffffffffffffff16639a20810088336040518363ffffffff1660e01b8152600401808381526020018273ffffffffffffffffffffffffffffffffffffffff16815260200192505050600060405180830381600087803b15801561258457600080fd5b505af1158015612598573d6000803e3d6000fd5b505050508273ffffffffffffffffffffffffffffffffffffffff1663f3883d8b87336040518363ffffffff1660e01b8152600401808381526020018273ffffffffffffffffffffffffffffffffffffffff16815260200192505050600060405180830381600087803b15801561260d57600080fd5b505af1158015612621573d6000803e3d6000fd5b50505050505050505050505050565b600460009054906101000a900473ffffffffffffffffffffffffffffffffffffffff1681565b61070881565b600060159054906101000a900460ff1681565b60008060159054906101000a900460ff161561268e576000905061272a565b600f54601054106126a2576000905061272a565b6000806126ae84612976565b93509350505081811180156127135750601460008573ffffffffffffffffffffffffffffffffffffffff1673ffffffffffffffffffffffffffffffffffffffff16815260200190815260200160002054612711838361473090919063ffffffff16565b115b156127235760009250505061272a565b6001925050505b919050565b601560003373ffffffffffffffffffffffffffffffffffffffff1673ffffffffffffffffffffffffffffffffffffffff16815260200190815260200160002060009054906101000a900460ff166127ee576040517f08c379a00000000000000000000000000000000000000000000000000000000081526004018080602001828103825260188152602001807f466173745072696365466565643a20666f7262696464656e000000000000000081525060200191505060405180910390fd5b601660003373ffffffffffffffffffffffffffffffffffffffff1673ffffffffffffffffffffffffffffffffffffffff16815260200190815260200160002060009054906101000a900460ff166128ad576040517f08c379a000000000000000000000000000000000000000000000000000000000815260040180806020018281038252601e8152602001807f466173745072696365466565643a20616c726561647920656e61626c6564000081525060200191505060405180910390fd5b6000601660003373ffffffffffffffffffffffffffffffffffffffff1673ffffffffffffffffffffffffffffffffffffffff16815260200190815260200160002060006101000a81548160ff02191690831515021790555061291b600160105461473090919063ffffffff16565b6010819055507f9fe0c305c33aa92757a537936872a60be0d91549a4303cc99fd8b7fce8a0027533604051808273ffffffffffffffffffffffffffffffffffffffff16815260200191505060405180910390a1565b600e5481565b600080600080612984614c5d565b601360008773ffffffffffffffffffffffffffffffffffffffff1673ffffffffffffffffffffffffffffffffffffffff1681526020019081526020016000206040518060800160405290816000820160009054906101000a900473ffffffffffffffffffffffffffffffffffffffff1673ffffffffffffffffffffffffffffffffffffffff1673ffffffffffffffffffffffffffffffffffffffff1681526020016000820160149054906101000a900463ffffffff1663ffffffff1663ffffffff1681526020016000820160189054906101000a900463ffffffff1663ffffffff1663ffffffff16815260200160008201601c9054906101000a900463ffffffff1663ffffffff1663ffffffff16815250509050806000015173ffffffffffffffffffffffffffffffffffffffff16816020015163ffffffff16826040015163ffffffff16836060015163ffffffff169450945094509450509193509193565b60095481565b60008054906101000a900473ffffffffffffffffffffffffffffffffffffffff1673ffffffffffffffffffffffffffffffffffffffff163373ffffffffffffffffffffffffffffffffffffffff1614612bab576040517f08c379a00000000000000000000000000000000000000000000000000000000081526004018080602001828103825260158152602001807f476f7665726e61626c653a20666f7262696464656e000000000000000000000081525060200191505060405180910390fd5b80600c8190555050565b601160003373ffffffffffffffffffffffffffffffffffffffff1673ffffffffffffffffffffffffffffffffffffffff16815260200190815260200160002060009054906101000a900460ff16612c74576040517f08c379a00000000000000000000000000000000000000000000000000000000081526004018080602001828103825260188152602001807f466173745072696365466565643a20666f7262696464656e000000000000000081525060200191505060405180910390fd5b6000612c7f82613ed9565b90508015612d2a576000600260009054906101000a900473ffffffffffffffffffffffffffffffffffffffff1690506000600160009054906101000a900473ffffffffffffffffffffffffffffffffffffffff16905060005b8651811015612d26576000878281518110612cef57fe5b60200260200101519050612d1881888481518110612d0957fe5b6020026020010151858761412d565b508080600101915050612cd8565b5050505b50505050565b600360009054906101000a900473ffffffffffffffffffffffffffffffffffffffff1673ffffffffffffffffffffffffffffffffffffffff163373ffffffffffffffffffffffffffffffffffffffff1614612df3576040517f08c379a00000000000000000000000000000000000000000000000000000000081526004018080602001828103825260188152602001807f466173745072696365466565643a20666f7262696464656e000000000000000081525060200191505060405180910390fd5b80600360006101000a81548173ffffffffffffffffffffffffffffffffffffffff021916908373ffffffffffffffffffffffffffffffffffffffff16021790555050565b60156020528060005260406000206000915054906101000a900460ff1681565b60008054906101000a900473ffffffffffffffffffffffffffffffffffffffff1673ffffffffffffffffffffffffffffffffffffffff163373ffffffffffffffffffffffffffffffffffffffff1614612f18576040517f08c379a00000000000000000000000000000000000000000000000000000000081526004018080602001828103825260158152602001807f476f7665726e61626c653a20666f7262696464656e000000000000000000000081525060200191505060405180910390fd5b600060149054906101000a900460ff1615612f7e576040517f08c379a0000000000000000000000000000000000000000000000000000000008152600401808060200182810382526022815260200180614f006022913960400191505060405180910390fd5b6001600060146101000a81548160ff02191690831515021790555082600f8190555060005b825181101561302a576000838281518110612fba57fe5b602002602001015190506001601560008373ffffffffffffffffffffffffffffffffffffffff1673ffffffffffffffffffffffffffffffffffffffff16815260200190815260200160002060006101000a81548160ff021916908315150217905550508080600101915050612fa3565b5060005b81518110156130b557600082828151811061304557fe5b602002602001015190506001601160008373ffffffffffffffffffffffffffffffffffffffff1673ffffffffffffffffffffffffffffffffffffffff16815260200190815260200160002060006101000a81548160ff02191690831515021790555050808060010191505061302e565b50505050565b60006130d46008546005546146a890919063ffffffff16565b4211156131695781156131255761311e612710613110613101600a546127106146a890919063ffffffff16565b8661405d90919063ffffffff16565b6140e390919063ffffffff16565b905061332a565b613162612710613154613145600a5461271061473090919063ffffffff16565b8661405d90919063ffffffff16565b6140e390919063ffffffff16565b905061332a565b6131806007546005546146a890919063ffffffff16565b4211156132155781156131d1576131ca6127106131bc6131ad6009546127106146a890919063ffffffff16565b8661405d90919063ffffffff16565b6140e390919063ffffffff16565b905061332a565b61320e6127106132006131f160095461271061473090919063ffffffff16565b8661405d90919063ffffffff16565b6140e390919063ffffffff16565b905061332a565b6000601260008673ffffffffffffffffffffffffffffffffffffffff1673ffffffffffffffffffffffffffffffffffffffff168152602001908152602001600020549050600081141561326b578391505061332a565b600081851161328c57613287858361473090919063ffffffff16565b6132a0565b61329f828661473090919063ffffffff16565b5b90506132c9856132bb6127108461405d90919063ffffffff16565b6140e390919063ffffffff16565b905060006132d68761266f565b15806132e35750600e5482115b9050801561332357841561330a578286116132fe5782613300565b855b935050505061332a565b8286106133175782613319565b855b935050505061332a565b8293505050505b9392505050565b60e07fffffffffffffffffffffffffffffffffffffffffffffffffffffffffffffffff901c81565b600360009054906101000a900473ffffffffffffffffffffffffffffffffffffffff1673ffffffffffffffffffffffffffffffffffffffff163373ffffffffffffffffffffffffffffffffffffffff161461341c576040517f08c379a00000000000000000000000000000000000000000000000000000000081526004018080602001828103825260188152602001807f466173745072696365466565643a20666f7262696464656e000000000000000081525060200191505060405180910390fd5b80600e8190555050565b60008054906101000a900473ffffffffffffffffffffffffffffffffffffffff1673ffffffffffffffffffffffffffffffffffffffff163373ffffffffffffffffffffffffffffffffffffffff16146134e7576040517f08c379a00000000000000000000000000000000000000000000000000000000081526004018080602001828103825260158152602001807f476f7665726e61626c653a20666f7262696464656e000000000000000000000081525060200191505060405180910390fd5b8060088190555050565b6c0c9f2c9cd04674edea4000000081565b6298968081565b60146020528060005260406000206000915090505481565b600a5481565b60105481565b600b5481565b60008054906101000a900473ffffffffffffffffffffffffffffffffffffffff1673ffffffffffffffffffffffffffffffffffffffff163373ffffffffffffffffffffffffffffffffffffffff16146135f4576040517f08c379a00000000000000000000000000000000000000000000000000000000081526004018080602001828103825260158152602001807f476f7665726e61626c653a20666f7262696464656e000000000000000000000081525060200191505060405180910390fd5b8060098190555050565b60008054906101000a900473ffffffffffffffffffffffffffffffffffffffff1673ffffffffffffffffffffffffffffffffffffffff163373ffffffffffffffffffffffffffffffffffffffff16146136bf576040517f08c379a00000000000000000000000000000000000000000000000000000000081526004018080602001828103825260158152602001807f476f7665726e61626c653a20666f7262696464656e000000000000000000000081525060200191505060405180910390fd5b8051825114613736576040517f08c379a000000000000000000000000000000000000000000000000000000000815260040180806020018281038252601e8152602001807f466173745072696365466565643a20696e76616c6964206c656e67746873000081525060200191505060405180910390fd5b816017908051906020019061374c929190614cad565b508060189080519060200190613763929190614d37565b505050565b601560003373ffffffffffffffffffffffffffffffffffffffff1673ffffffffffffffffffffffffffffffffffffffff16815260200190815260200160002060009054906101000a900460ff16613827576040517f08c379a00000000000000000000000000000000000000000000000000000000081526004018080602001828103825260188152602001807f466173745072696365466565643a20666f7262696464656e000000000000000081525060200191505060405180910390fd5b601660003373ffffffffffffffffffffffffffffffffffffffff1673ffffffffffffffffffffffffffffffffffffffff16815260200190815260200160002060009054906101000a900460ff16156138e7576040517f08c379a000000000000000000000000000000000000000000000000000000000815260040180806020018281038252601c8152602001807f466173745072696365466565643a20616c726561647920766f7465640000000081525060200191505060405180910390fd5b6001601660003373ffffffffffffffffffffffffffffffffffffffff1673ffffffffffffffffffffffffffffffffffffffff16815260200190815260200160002060006101000a81548160ff02191690831515021790555061395560016010546146a890919063ffffffff16565b6010819055507f4c0c5fabf50e808e3bc8d19577d305e3a7163eea7e8a74a50caa8896694cd44b33604051808273ffffffffffffffffffffffffffffffffffffffff16815260200191505060405180910390a1565b60136020528060005260406000206000915090508060000160009054906101000a900473ffffffffffffffffffffffffffffffffffffffff16908060000160149054906101000a900463ffffffff16908060000160189054906101000a900463ffffffff169080600001601c9054906101000a900463ffffffff16905084565b60008054906101000a900473ffffffffffffffffffffffffffffffffffffffff1673ffffffffffffffffffffffffffffffffffffffff163373ffffffffffffffffffffffffffffffffffffffff1614613aeb576040517f08c379a00000000000000000000000000000000000000000000000000000000081526004018080602001828103825260158152602001807f476f7665726e61626c653a20666f7262696464656e000000000000000000000081525060200191505060405180910390fd5b80600060156101000a81548160ff02191690831515021790555050565b60008054906101000a900473ffffffffffffffffffffffffffffffffffffffff1673ffffffffffffffffffffffffffffffffffffffff163373ffffffffffffffffffffffffffffffffffffffff1614613bc9576040517f08c379a00000000000000000000000000000000000000000000000000000000081526004018080602001828103825260158152602001807f476f7665726e61626c653a20666f7262696464656e000000000000000000000081525060200191505060405180910390fd5b806000806101000a81548173ffffffffffffffffffffffffffffffffffffffff021916908373ffffffffffffffffffffffffffffffffffffffff16021790555050565b60126020528060005260406000206000915090505481565b60008054906101000a900473ffffffffffffffffffffffffffffffffffffffff1673ffffffffffffffffffffffffffffffffffffffff163373ffffffffffffffffffffffffffffffffffffffff1614613ce5576040517f08c379a00000000000000000000000000000000000000000000000000000000081526004018080602001828103825260158152602001807f476f7665726e61626c653a20666f7262696464656e000000000000000000000081525060200191505060405180910390fd5b80600b8190555050565b600360009054906101000a900473ffffffffffffffffffffffffffffffffffffffff1673ffffffffffffffffffffffffffffffffffffffff163373ffffffffffffffffffffffffffffffffffffffff1614613db2576040517f08c379a00000000000000000000000000000000000000000000000000000000081526004018080602001828103825260188152602001807f466173745072696365466565643a20666f7262696464656e000000000000000081525060200191505060405180910390fd5b80600f8190555050565b60008054906101000a900473ffffffffffffffffffffffffffffffffffffffff1673ffffffffffffffffffffffffffffffffffffffff163373ffffffffffffffffffffffffffffffffffffffff1614613e7d576040517f08c379a00000000000000000000000000000000000000000000000000000000081526004018080602001828103825260158152602001807f476f7665726e61626c653a20666f7262696464656e000000000000000000000081525060200191505060405180910390fd5b80600a8190555050565b600d5481565b60085481565b73ffffffffffffffffffffffffffffffffffffffff801681565b600160009054906101000a900473ffffffffffffffffffffffffffffffffffffffff1681565b60065481565b600080600b541115613f5557600b54613efd6006544361473090919063ffffffff16565b1015613f54576040517f08c379a000000000000000000000000000000000000000000000000000000000815260040180806020018281038252602e815260200180614ea9602e913960400191505060405180910390fd5b5b6000600c549050613f6f814261473090919063ffffffff16565b8311613fc6576040517f08c379a000000000000000000000000000000000000000000000000000000000815260040180806020018281038252602d815260200180614e7c602d913960400191505060405180910390fd5b613fd981426146a890919063ffffffff16565b8310614030576040517f08c379a000000000000000000000000000000000000000000000000000000000815260040180806020018281038252602f815260200180614e2c602f913960400191505060405180910390fd5b600554831015614044576000915050614058565b826005819055504360068190555060019150505b919050565b60008083141561407057600090506140dd565b600082840290508284828161408157fe5b04146140d8576040517f08c379a0000000000000000000000000000000000000000000000000000000008152600401808060200182810382526021815260200180614e5b6021913960400191505060405180910390fd5b809150505b92915050565b600061412583836040518060400160405280601a81526020017f536166654d6174683a206469766973696f6e206279207a65726f00000000000081525061477a565b905092915050565b600073ffffffffffffffffffffffffffffffffffffffff168273ffffffffffffffffffffffffffffffffffffffff16146144de5760008273ffffffffffffffffffffffffffffffffffffffff166356bf9de4866040518263ffffffff1660e01b8152600401808273ffffffffffffffffffffffffffffffffffffffff16815260200191505060206040518083038186803b1580156141ca57600080fd5b505afa1580156141de573d6000803e3d6000fd5b505050506040513d60208110156141f457600080fd5b810190808051906020019092919050505090506000601260008773ffffffffffffffffffffffffffffffffffffffff1673ffffffffffffffffffffffffffffffffffffffff16815260200190815260200160002054905060008060008061425a8a612976565b9350935093509350600084111561438c57600084871161428c57614287878661473090919063ffffffff16565b6142a0565b61429f858861473090919063ffffffff16565b5b905060008a87116142c3576142be878c61473090919063ffffffff16565b6142d7565b6142d68b8861473090919063ffffffff16565b5b90506142ee600d54426140e390919063ffffffff16565b614303600d54876140e390919063ffffffff16565b146143115760009350600092505b61434b61433c8761432e629896808661405d90919063ffffffff16565b6140e390919063ffffffff16565b856146a890919063ffffffff16565b93506143876143788861436a629896808561405d90919063ffffffff16565b6140e390919063ffffffff16565b846146a890919063ffffffff16565b925050505b81811180156143eb5750601460008b73ffffffffffffffffffffffffffffffffffffffff1673ffffffffffffffffffffffffffffffffffffffff168152602001908152602001600020546143e9838361473090919063ffffffff16565b115b1561445e577fe582322b389ad06b2bbf619cd6da3f16a288ec873ea0fa6df4d72f3d9480b4478a87878585604051808673ffffffffffffffffffffffffffffffffffffffff1681526020018581526020018481526020018381526020018281526020019550505050505060405180910390a15b61446a8a878484614840565b7f23b9387f81fca646aac1dc4487ede045c65f5f7445482906565f01e05afdb3a88a87878585604051808673ffffffffffffffffffffffffffffffffffffffff1681526020018581526020018481526020018381526020018281526020019550505050505060405180910390a15050505050505b82601260008673ffffffffffffffffffffffffffffffffffffffff1673ffffffffffffffffffffffffffffffffffffffff1681526020019081526020016000208190555061452d818585614ad4565b50505050565b600061453e82613ed9565b905080156146a2576000600260009054906101000a900473ffffffffffffffffffffffffffffffffffffffff1690506000600160009054906101000a900473ffffffffffffffffffffffffffffffffffffffff16905060005b600881101561469e57600081905060178054905081106145bb5750505050506146a4565b6000826020029050600060e07fffffffffffffffffffffffffffffffffffffffffffffffffffffffffffffffff901c828a901c16905060006017858154811061460057fe5b9060005260206000200160009054906101000a900473ffffffffffffffffffffffffffffffffffffffff16905060006018868154811061463c57fe5b90600052602060002001549050600061467d8261466f6c0c9f2c9cd04674edea400000008761405d90919063ffffffff16565b6140e390919063ffffffff16565b905061468b83828a8c61412d565b5050505050508080600101915050614597565b5050505b505b5050565b600080828401905083811015614726576040517f08c379a000000000000000000000000000000000000000000000000000000000815260040180806020018281038252601b8152602001807f536166654d6174683a206164646974696f6e206f766572666c6f77000000000081525060200191505060405180910390fd5b8091505092915050565b600061477283836040518060400160405280601e81526020017f536166654d6174683a207375627472616374696f6e206f766572666c6f770000815250614b9d565b905092915050565b60008083118290614826576040517f08c379a00000000000000000000000000000000000000000000000000000000081526004018080602001828103825283818151815260200191508051906020019080838360005b838110156147eb5780820151818401526020810190506147d0565b50505050905090810190601f1680156148185780820380516001836020036101000a031916815260200191505b509250505060405180910390fd5b50600083858161483257fe5b049050809150509392505050565b73ffffffffffffffffffffffffffffffffffffffff801683106148cb576040517f08c379a000000000000000000000000000000000000000000000000000000000815260040180806020018281038252601f8152602001807f466173745072696365466565643a20696e76616c69642072656650726963650081525060200191505060405180910390fd5b63ffffffff80168210614929576040517f08c379a0000000000000000000000000000000000000000000000000000000008152600401808060200182810382526029815260200180614ed76029913960400191505060405180910390fd5b63ffffffff80168110614987576040517f08c379a000000000000000000000000000000000000000000000000000000000815260040180806020018281038252602a815260200180614e02602a913960400191505060405180910390fd5b60405180608001604052808473ffffffffffffffffffffffffffffffffffffffff1681526020014263ffffffff1681526020018363ffffffff1681526020018263ffffffff16815250601360008673ffffffffffffffffffffffffffffffffffffffff1673ffffffffffffffffffffffffffffffffffffffff16815260200190815260200160002060008201518160000160006101000a81548173ffffffffffffffffffffffffffffffffffffffff021916908373ffffffffffffffffffffffffffffffffffffffff16021790555060208201518160000160146101000a81548163ffffffff021916908363ffffffff16021790555060408201518160000160186101000a81548163ffffffff021916908363ffffffff160217905550606082015181600001601c6101000a81548163ffffffff021916908363ffffffff16021790555090505050505050565b600073ffffffffffffffffffffffffffffffffffffffff168373ffffffffffffffffffffffffffffffffffffffff161415614b0e57614b98565b8273ffffffffffffffffffffffffffffffffffffffff1663e0409c7183836040518363ffffffff1660e01b8152600401808373ffffffffffffffffffffffffffffffffffffffff16815260200182815260200192505050600060405180830381600087803b158015614b7f57600080fd5b505af1158015614b93573d6000803e3d6000fd5b505050505b505050565b6000838311158290614c4a576040517f08c379a00000000000000000000000000000000000000000000000000000000081526004018080602001828103825283818151815260200191508051906020019080838360005b83811015614c0f578082015181840152602081019050614bf4565b50505050905090810190601f168015614c3c5780820380516001836020036101000a031916815260200191505b509250505060405180910390fd5b5060008385039050809150509392505050565b6040518060800160405280600073ffffffffffffffffffffffffffffffffffffffff168152602001600063ffffffff168152602001600063ffffffff168152602001600063ffffffff1681525090565b828054828255906000526020600020908101928215614d26579160200282015b82811115614d255782518260006101000a81548173ffffffffffffffffffffffffffffffffffffffff021916908373ffffffffffffffffffffffffffffffffffffffff16021790555091602001919060010190614ccd565b5b509050614d339190614d84565b5090565b828054828255906000526020600020908101928215614d73579160200282015b82811115614d72578251825591602001919060010190614d57565b5b509050614d809190614dbf565b5090565b5b80821115614dbb57600081816101000a81549073ffffffffffffffffffffffffffffffffffffffff021916905550600101614d85565b5090565b5b80821115614dd8576000816000905550600101614dc0565b509056fe466173745072696365466565643a20696e76616c6964205f70726963654475726174696f6e466173745072696365466565643a20696e76616c69642063756d756c61746976654661737444656c7461466173745072696365466565643a205f74696d657374616d70206578636565647320616c6c6f7765642072616e6765536166654d6174683a206d756c7469706c69636174696f6e206f766572666c6f77466173745072696365466565643a205f74696d657374616d702062656c6f7720616c6c6f7765642072616e6765466173745072696365466565643a206d696e426c6f636b496e74657276616c206e6f742079657420706173736564466173745072696365466565643a20696e76616c69642063756d756c617469766552656644656c7461466173745072696365466565643a20616c726561647920696e697469616c697a6564a2646970667358221220ad6d89723dc180de228d5bf7bef63750d9db6ccf13b5074053e9318f7e57539164736f6c634300060c0033466173745072696365466565643a20696e76616c6964205f70726963654475726174696f6e",
  "linkReferences": {},
  "deployedLinkReferences": {}
}