{
  "_format": "hh-sol-artifact-1",
  "contractName": "ReferralStorage",
  "sourceName": "contracts/gmx/referrals/ReferralStorage.sol",
  "abi": [
    {
      "anonymous": false,
      "inputs": [
        {
          "indexed": false,
          "internalType": "bytes32",
          "name": "code",
          "type": "bytes32"
        },
        {
          "indexed": false,
          "internalType": "address",
          "name": "newAccount",
          "type": "address"
        }
      ],
      "name": "GovSetCodeOwner",
      "type": "event"
    },
    {
      "anonymous": false,
      "inputs": [
        {
          "indexed": false,
          "internalType": "address",
          "name": "account",
          "type": "address"
        },
        {
          "indexed": false,
          "internalType": "bytes32",
          "name": "code",
          "type": "bytes32"
        }
      ],
      "name": "RegisterCode",
      "type": "event"
    },
    {
      "anonymous": false,
      "inputs": [
        {
          "indexed": false,
          "internalType": "address",
          "name": "account",
          "type": "address"
        },
        {
          "indexed": false,
          "internalType": "address",
          "name": "newAccount",
          "type": "address"
        },
        {
          "indexed": false,
          "internalType": "bytes32",
          "name": "code",
          "type": "bytes32"
        }
      ],
      "name": "SetCodeOwner",
      "type": "event"
    },
    {
      "anonymous": false,
      "inputs": [
        {
          "indexed": false,
          "internalType": "address",
          "name": "handler",
          "type": "address"
        },
        {
          "indexed": false,
          "internalType": "bool",
          "name": "isActive",
          "type": "bool"
        }
      ],
      "name": "SetHandler",
      "type": "event"
    },
    {
      "anonymous": false,
      "inputs": [
        {
          "indexed": false,
          "internalType": "address",
          "name": "referrer",
          "type": "address"
        },
        {
          "indexed": false,
          "internalType": "uint256",
          "name": "discountShare",
          "type": "uint256"
        }
      ],
      "name": "SetReferrerDiscountShare",
      "type": "event"
    },
    {
      "anonymous": false,
      "inputs": [
        {
          "indexed": false,
          "internalType": "address",
          "name": "referrer",
          "type": "address"
        },
        {
          "indexed": false,
          "internalType": "uint256",
          "name": "tierId",
          "type": "uint256"
        }
      ],
      "name": "SetReferrerTier",
      "type": "event"
    },
    {
      "anonymous": false,
      "inputs": [
        {
          "indexed": false,
          "internalType": "uint256",
          "name": "tierId",
          "type": "uint256"
        },
        {
          "indexed": false,
          "internalType": "uint256",
          "name": "totalRebate",
          "type": "uint256"
        },
        {
          "indexed": false,
          "internalType": "uint256",
          "name": "discountShare",
          "type": "uint256"
        }
      ],
      "name": "SetTier",
      "type": "event"
    },
    {
      "anonymous": false,
      "inputs": [
        {
          "indexed": false,
          "internalType": "address",
          "name": "account",
          "type": "address"
        },
        {
          "indexed": false,
          "internalType": "bytes32",
          "name": "code",
          "type": "bytes32"
        }
      ],
      "name": "SetTraderReferralCode",
      "type": "event"
    },
    {
      "inputs": [],
      "name": "BASIS_POINTS",
      "outputs": [
        {
          "internalType": "uint256",
          "name": "",
          "type": "uint256"
        }
      ],
      "stateMutability": "view",
      "type": "function"
    },
    {
      "inputs": [
        {
          "internalType": "bytes32",
          "name": "",
          "type": "bytes32"
        }
      ],
      "name": "codeOwners",
      "outputs": [
        {
          "internalType": "address",
          "name": "",
          "type": "address"
        }
      ],
      "stateMutability": "view",
      "type": "function"
    },
    {
      "inputs": [
        {
          "internalType": "address",
          "name": "_account",
          "type": "address"
        }
      ],
      "name": "getTraderReferralInfo",
      "outputs": [
        {
          "internalType": "bytes32",
          "name": "",
          "type": "bytes32"
        },
        {
          "internalType": "address",
          "name": "",
          "type": "address"
        }
      ],
      "stateMutability": "view",
      "type": "function"
    },
    {
      "inputs": [],
      "name": "gov",
      "outputs": [
        {
          "internalType": "address",
          "name": "",
          "type": "address"
        }
      ],
      "stateMutability": "view",
      "type": "function"
    },
    {
      "inputs": [
        {
          "internalType": "bytes32",
          "name": "_code",
          "type": "bytes32"
        },
        {
          "internalType": "address",
          "name": "_newAccount",
          "type": "address"
        }
      ],
      "name": "govSetCodeOwner",
      "outputs": [],
      "stateMutability": "nonpayable",
      "type": "function"
    },
    {
      "inputs": [
        {
          "internalType": "address",
          "name": "",
          "type": "address"
        }
      ],
      "name": "isHandler",
      "outputs": [
        {
          "internalType": "bool",
          "name": "",
          "type": "bool"
        }
      ],
      "stateMutability": "view",
      "type": "function"
    },
    {
      "inputs": [
        {
          "internalType": "address",
          "name": "",
          "type": "address"
        }
      ],
      "name": "referrerDiscountShares",
      "outputs": [
        {
          "internalType": "uint256",
          "name": "",
          "type": "uint256"
        }
      ],
      "stateMutability": "view",
      "type": "function"
    },
    {
      "inputs": [
        {
          "internalType": "address",
          "name": "",
          "type": "address"
        }
      ],
      "name": "referrerTiers",
      "outputs": [
        {
          "internalType": "uint256",
          "name": "",
          "type": "uint256"
        }
      ],
      "stateMutability": "view",
      "type": "function"
    },
    {
      "inputs": [
        {
          "internalType": "bytes32",
          "name": "_code",
          "type": "bytes32"
        }
      ],
      "name": "registerCode",
      "outputs": [],
      "stateMutability": "nonpayable",
      "type": "function"
    },
    {
      "inputs": [
        {
          "internalType": "bytes32",
          "name": "_code",
          "type": "bytes32"
        },
        {
          "internalType": "address",
          "name": "_newAccount",
          "type": "address"
        }
      ],
      "name": "setCodeOwner",
      "outputs": [],
      "stateMutability": "nonpayable",
      "type": "function"
    },
    {
      "inputs": [
        {
          "internalType": "address",
          "name": "_gov",
          "type": "address"
        }
      ],
      "name": "setGov",
      "outputs": [],
      "stateMutability": "nonpayable",
      "type": "function"
    },
    {
      "inputs": [
        {
          "internalType": "address",
          "name": "_handler",
          "type": "address"
        },
        {
          "internalType": "bool",
          "name": "_isActive",
          "type": "bool"
        }
      ],
      "name": "setHandler",
      "outputs": [],
      "stateMutability": "nonpayable",
      "type": "function"
    },
    {
      "inputs": [
        {
          "internalType": "uint256",
          "name": "_discountShare",
          "type": "uint256"
        }
      ],
      "name": "setReferrerDiscountShare",
      "outputs": [],
      "stateMutability": "nonpayable",
      "type": "function"
    },
    {
      "inputs": [
        {
          "internalType": "address",
          "name": "_referrer",
          "type": "address"
        },
        {
          "internalType": "uint256",
          "name": "_tierId",
          "type": "uint256"
        }
      ],
      "name": "setReferrerTier",
      "outputs": [],
      "stateMutability": "nonpayable",
      "type": "function"
    },
    {
      "inputs": [
        {
          "internalType": "uint256",
          "name": "_tierId",
          "type": "uint256"
        },
        {
          "internalType": "uint256",
          "name": "_totalRebate",
          "type": "uint256"
        },
        {
          "internalType": "uint256",
          "name": "_discountShare",
          "type": "uint256"
        }
      ],
      "name": "setTier",
      "outputs": [],
      "stateMutability": "nonpayable",
      "type": "function"
    },
    {
      "inputs": [
        {
          "internalType": "address",
          "name": "_account",
          "type": "address"
        },
        {
          "internalType": "bytes32",
          "name": "_code",
          "type": "bytes32"
        }
      ],
      "name": "setTraderReferralCode",
      "outputs": [],
      "stateMutability": "nonpayable",
      "type": "function"
    },
    {
      "inputs": [
        {
          "internalType": "bytes32",
          "name": "_code",
          "type": "bytes32"
        }
      ],
      "name": "setTraderReferralCodeByUser",
      "outputs": [],
      "stateMutability": "nonpayable",
      "type": "function"
    },
    {
      "inputs": [
        {
          "internalType": "uint256",
          "name": "",
          "type": "uint256"
        }
      ],
      "name": "tiers",
      "outputs": [
        {
          "internalType": "uint256",
          "name": "totalRebate",
          "type": "uint256"
        },
        {
          "internalType": "uint256",
          "name": "discountShare",
          "type": "uint256"
        }
      ],
      "stateMutability": "view",
      "type": "function"
    },
    {
      "inputs": [
        {
          "internalType": "address",
          "name": "",
          "type": "address"
        }
      ],
      "name": "traderReferralCodes",
      "outputs": [
        {
          "internalType": "bytes32",
          "name": "",
          "type": "bytes32"
        }
      ],
      "stateMutability": "view",
      "type": "function"
    }
  ],
  "bytecode": "0x608060405234801561001057600080fd5b50336000806101000a81548173ffffffffffffffffffffffffffffffffffffffff021916908373ffffffffffffffffffffffffffffffffffffffff160217905550611724806100606000396000f3fe608060405234801561001057600080fd5b50600436106101215760003560e01c8063836a0187116100ad578063cfad57a211610071578063cfad57a21461055c578063dfcfa250146105a0578063e1e01bf3146105ee578063e1f1c4a71461061c578063ed8431341461063a57610121565b8063836a0187146103ec57806385725b581461042e5780639c8e2de9146104865780639cb7de4b146104b4578063c8b3c4601461050457610121565b80633fb8b323116100f45780633fb8b3231461022957806346ea87af14610277578063534ef883146102d157806356b4b2ad1461034657806371a6a7901461039457610121565b8063039af9eb1461012657806312d43a511461016f5780631582a018146101a357806336def2c8146101fb575b600080fd5b6101526004803603602081101561013c57600080fd5b8101908080359060200190929190505050610688565b604051808381526020018281526020019250505060405180910390f35b6101776106ac565b604051808273ffffffffffffffffffffffffffffffffffffffff16815260200191505060405180910390f35b6101e5600480360360208110156101b957600080fd5b81019080803573ffffffffffffffffffffffffffffffffffffffff1690602001909291905050506106d0565b6040518082815260200191505060405180910390f35b6102276004803603602081101561021157600080fd5b81019080803590602001909291905050506106e8565b005b6102756004803603604081101561023f57600080fd5b81019080803573ffffffffffffffffffffffffffffffffffffffff169060200190929190803590602001909291905050506108c3565b005b6102b96004803603602081101561028d57600080fd5b81019080803573ffffffffffffffffffffffffffffffffffffffff169060200190929190505050610a21565b60405180821515815260200191505060405180910390f35b610313600480360360208110156102e757600080fd5b81019080803573ffffffffffffffffffffffffffffffffffffffff169060200190929190505050610a41565b604051808381526020018273ffffffffffffffffffffffffffffffffffffffff1681526020019250505060405180910390f35b6103926004803603604081101561035c57600080fd5b81019080803573ffffffffffffffffffffffffffffffffffffffff16906020019092919080359060200190929190505050610ad8565b005b6103d6600480360360208110156103aa57600080fd5b81019080803573ffffffffffffffffffffffffffffffffffffffff169060200190929190505050610ba5565b6040518082815260200191505060405180910390f35b61042c6004803603606081101561040257600080fd5b81019080803590602001909291908035906020019092919080359060200190929190505050610bbd565b005b6104706004803603602081101561044457600080fd5b81019080803573ffffffffffffffffffffffffffffffffffffffff169060200190929190505050610dfc565b6040518082815260200191505060405180910390f35b6104b26004803603602081101561049c57600080fd5b8101908080359060200190929190505050610e14565b005b610502600480360360408110156104ca57600080fd5b81019080803573ffffffffffffffffffffffffffffffffffffffff169060200190929190803515159060200190929190505050610f0b565b005b6105306004803603602081101561051a57600080fd5b810190808035906020019092919050505061107e565b604051808273ffffffffffffffffffffffffffffffffffffffff16815260200191505060405180910390f35b61059e6004803603602081101561057257600080fd5b81019080803573ffffffffffffffffffffffffffffffffffffffff1690602001909291905050506110b1565b005b6105ec600480360360408110156105b657600080fd5b8101908080359060200190929190803573ffffffffffffffffffffffffffffffffffffffff1690602001909291905050506111b5565b005b61061a6004803603602081101561060457600080fd5b810190808035906020019092919050505061139a565b005b6106246113a7565b6040518082815260200191505060405180910390f35b6106866004803603604081101561065057600080fd5b8101908080359060200190929190803573ffffffffffffffffffffffffffffffffffffffff1690602001909291905050506113ad565b005b60036020528060005260406000206000915090508060000154908060010154905082565b60008054906101000a900473ffffffffffffffffffffffffffffffffffffffff1681565b60026020528060005260406000206000915090505481565b6000801b811415610761576040517f08c379a000000000000000000000000000000000000000000000000000000000815260040180806020018281038252601e8152602001807f526566657272616c53746f726167653a20696e76616c6964205f636f6465000081525060200191505060405180910390fd5b600073ffffffffffffffffffffffffffffffffffffffff166005600083815260200190815260200160002060009054906101000a900473ffffffffffffffffffffffffffffffffffffffff1673ffffffffffffffffffffffffffffffffffffffff1614610819576040517f08c379a00000000000000000000000000000000000000000000000000000000081526004018080602001828103825260248152602001806116a56024913960400191505060405180910390fd5b336005600083815260200190815260200160002060006101000a81548173ffffffffffffffffffffffffffffffffffffffff021916908373ffffffffffffffffffffffffffffffffffffffff1602179055507f04f82286a2a3b2ee5c8555de8304dfe2ea70991613213184b73a9e408d2d80293382604051808373ffffffffffffffffffffffffffffffffffffffff1681526020018281526020019250505060405180910390a150565b60008054906101000a900473ffffffffffffffffffffffffffffffffffffffff1673ffffffffffffffffffffffffffffffffffffffff163373ffffffffffffffffffffffffffffffffffffffff1614610984576040517f08c379a00000000000000000000000000000000000000000000000000000000081526004018080602001828103825260158152602001807f476f7665726e61626c653a20666f7262696464656e000000000000000000000081525060200191505060405180910390fd5b80600260008473ffffffffffffffffffffffffffffffffffffffff1673ffffffffffffffffffffffffffffffffffffffff168152602001908152602001600020819055507f7696855cdbb94bb5a44cb0a95caff6f29173aa1cbfba193834b12b90827ce2bc8282604051808373ffffffffffffffffffffffffffffffffffffffff1681526020018281526020019250505060405180910390a15050565b60046020528060005260406000206000915054906101000a900460ff1681565b6000806000600660008573ffffffffffffffffffffffffffffffffffffffff1673ffffffffffffffffffffffffffffffffffffffff16815260200190815260200160002054905060008060001b8214610acb576005600083815260200190815260200160002060009054906101000a900473ffffffffffffffffffffffffffffffffffffffff1690505b8181935093505050915091565b600460003373ffffffffffffffffffffffffffffffffffffffff1673ffffffffffffffffffffffffffffffffffffffff16815260200190815260200160002060009054906101000a900460ff16610b97576040517f08c379a000000000000000000000000000000000000000000000000000000000815260040180806020018281038252601a8152602001807f526566657272616c53746f726167653a20666f7262696464656e00000000000081525060200191505060405180910390fd5b610ba182826115c9565b5050565b60016020528060005260406000206000915090505481565b60008054906101000a900473ffffffffffffffffffffffffffffffffffffffff1673ffffffffffffffffffffffffffffffffffffffff163373ffffffffffffffffffffffffffffffffffffffff1614610c7e576040517f08c379a00000000000000000000000000000000000000000000000000000000081526004018080602001828103825260158152602001807f476f7665726e61626c653a20666f7262696464656e000000000000000000000081525060200191505060405180910390fd5b612710821115610cd9576040517f08c379a00000000000000000000000000000000000000000000000000000000081526004018080602001828103825260248152602001806116816024913960400191505060405180910390fd5b612710811115610d34576040517f08c379a00000000000000000000000000000000000000000000000000000000081526004018080602001828103825260268152602001806116c96026913960400191505060405180910390fd5b610d3c611666565b600360008581526020019081526020016000206040518060400160405290816000820154815260200160018201548152505090508281600001818152505081816020018181525050806003600086815260200190815260200160002060008201518160000155602082015181600101559050507f4ebd23a492b2bd79586cb57cae40d7793408265f20320f68b478b971e696f4c784848460405180848152602001838152602001828152602001935050505060405180910390a150505050565b60066020528060005260406000206000915090505481565b612710811115610e6f576040517f08c379a00000000000000000000000000000000000000000000000000000000081526004018080602001828103825260268152602001806116c96026913960400191505060405180910390fd5b80600160003373ffffffffffffffffffffffffffffffffffffffff1673ffffffffffffffffffffffffffffffffffffffff168152602001908152602001600020819055507fbd224f3917462b0fa80805fe3ec29be3a37f664955aad6224e5ece036224c4293382604051808373ffffffffffffffffffffffffffffffffffffffff1681526020018281526020019250505060405180910390a150565b60008054906101000a900473ffffffffffffffffffffffffffffffffffffffff1673ffffffffffffffffffffffffffffffffffffffff163373ffffffffffffffffffffffffffffffffffffffff1614610fcc576040517f08c379a00000000000000000000000000000000000000000000000000000000081526004018080602001828103825260158152602001807f476f7665726e61626c653a20666f7262696464656e000000000000000000000081525060200191505060405180910390fd5b80600460008473ffffffffffffffffffffffffffffffffffffffff1673ffffffffffffffffffffffffffffffffffffffff16815260200190815260200160002060006101000a81548160ff0219169083151502179055507fd373464a39404e5f98fdb4b152b8ba9a094561e97e5c4b4ea11eb18cd9e6695e8282604051808373ffffffffffffffffffffffffffffffffffffffff16815260200182151581526020019250505060405180910390a15050565b60056020528060005260406000206000915054906101000a900473ffffffffffffffffffffffffffffffffffffffff1681565b60008054906101000a900473ffffffffffffffffffffffffffffffffffffffff1673ffffffffffffffffffffffffffffffffffffffff163373ffffffffffffffffffffffffffffffffffffffff1614611172576040517f08c379a00000000000000000000000000000000000000000000000000000000081526004018080602001828103825260158152602001807f476f7665726e61626c653a20666f7262696464656e000000000000000000000081525060200191505060405180910390fd5b806000806101000a81548173ffffffffffffffffffffffffffffffffffffffff021916908373ffffffffffffffffffffffffffffffffffffffff16021790555050565b60008054906101000a900473ffffffffffffffffffffffffffffffffffffffff1673ffffffffffffffffffffffffffffffffffffffff163373ffffffffffffffffffffffffffffffffffffffff1614611276576040517f08c379a00000000000000000000000000000000000000000000000000000000081526004018080602001828103825260158152602001807f476f7665726e61626c653a20666f7262696464656e000000000000000000000081525060200191505060405180910390fd5b6000801b8214156112ef576040517f08c379a000000000000000000000000000000000000000000000000000000000815260040180806020018281038252601e8152602001807f526566657272616c53746f726167653a20696e76616c6964205f636f6465000081525060200191505060405180910390fd5b806005600084815260200190815260200160002060006101000a81548173ffffffffffffffffffffffffffffffffffffffff021916908373ffffffffffffffffffffffffffffffffffffffff1602179055507f6431f88c655dd0e2b8d09b6405c007c515c66d67f2998e69c902873a8c8f3e978282604051808381526020018273ffffffffffffffffffffffffffffffffffffffff1681526020019250505060405180910390a15050565b6113a433826115c9565b50565b61271081565b6000801b821415611426576040517f08c379a000000000000000000000000000000000000000000000000000000000815260040180806020018281038252601e8152602001807f526566657272616c53746f726167653a20696e76616c6964205f636f6465000081525060200191505060405180910390fd5b60006005600084815260200190815260200160002060009054906101000a900473ffffffffffffffffffffffffffffffffffffffff1690508073ffffffffffffffffffffffffffffffffffffffff163373ffffffffffffffffffffffffffffffffffffffff16146114ff576040517f08c379a000000000000000000000000000000000000000000000000000000000815260040180806020018281038252601a8152602001807f526566657272616c53746f726167653a20666f7262696464656e00000000000081525060200191505060405180910390fd5b816005600085815260200190815260200160002060006101000a81548173ffffffffffffffffffffffffffffffffffffffff021916908373ffffffffffffffffffffffffffffffffffffffff1602179055507f5640856798d41ce9ca0a109b54c20a06eb99ba9c36ab4547115dafb8473cf397338385604051808473ffffffffffffffffffffffffffffffffffffffff1681526020018373ffffffffffffffffffffffffffffffffffffffff168152602001828152602001935050505060405180910390a1505050565b80600660008473ffffffffffffffffffffffffffffffffffffffff1673ffffffffffffffffffffffffffffffffffffffff168152602001908152602001600020819055507f43825f14567dda057e821be2e51a5aa79aa51f3907a647e3ed2bd486a01050f18282604051808373ffffffffffffffffffffffffffffffffffffffff1681526020018281526020019250505060405180910390a15050565b60405180604001604052806000815260200160008152509056fe526566657272616c53746f726167653a20696e76616c696420746f74616c526562617465526566657272616c53746f726167653a20636f646520616c726561647920657869737473526566657272616c53746f726167653a20696e76616c696420646973636f756e745368617265a26469706673582212202aa652ea40f56271f913f639b4957738b65e8d832325101c78cef052067fb6f564736f6c634300060c0033",
  "linkReferences": {},
  "deployedLinkReferences": {}
}