{
  "_format": "hh-sol-artifact-1",
  "contractName": "StakedGlpMigrator",
  "sourceName": "contracts/gmx/staking/StakedGlpMigrator.sol",
  "abi": [
    {
      "inputs": [
        {
          "internalType": "address",
          "name": "_sender",
          "type": "address"
        },
        {
          "internalType": "address",
          "name": "_glp",
          "type": "address"
        },
        {
          "internalType": "address",
          "name": "_stakedGlpTracker",
          "type": "address"
        },
        {
          "internalType": "address",
          "name": "_feeGlpTracker",
          "type": "address"
        }
      ],
      "stateMutability": "nonpayable",
      "type": "constructor"
    },
    {
      "inputs": [],
      "name": "disable",
      "outputs": [],
      "stateMutability": "nonpayable",
      "type": "function"
    },
    {
      "inputs": [],
      "name": "feeGlpTracker",
      "outputs": [
        {
          "internalType": "address",
          "name": "",
          "type": "address"
        }
      ],
      "stateMutability": "view",
      "type": "function"
    },
    {
      "inputs": [],
      "name": "glp",
      "outputs": [
        {
          "internalType": "address",
          "name": "",
          "type": "address"
        }
      ],
      "stateMutability": "view",
      "type": "function"
    },
    {
      "inputs": [],
      "name": "gov",
      "outputs": [
        {
          "internalType": "address",
          "name": "",
          "type": "address"
        }
      ],
      "stateMutability": "view",
      "type": "function"
    },
    {
      "inputs": [],
      "name": "isEnabled",
      "outputs": [
        {
          "internalType": "bool",
          "name": "",
          "type": "bool"
        }
      ],
      "stateMutability": "view",
      "type": "function"
    },
    {
      "inputs": [],
      "name": "sender",
      "outputs": [
        {
          "internalType": "address",
          "name": "",
          "type": "address"
        }
      ],
      "stateMutability": "view",
      "type": "function"
    },
    {
      "inputs": [
        {
          "internalType": "address",
          "name": "_gov",
          "type": "address"
        }
      ],
      "name": "setGov",
      "outputs": [],
      "stateMutability": "nonpayable",
      "type": "function"
    },
    {
      "inputs": [],
      "name": "stakedGlpTracker",
      "outputs": [
        {
          "internalType": "address",
          "name": "",
          "type": "address"
        }
      ],
      "stateMutability": "view",
      "type": "function"
    },
    {
      "inputs": [
        {
          "internalType": "address",
          "name": "_recipient",
          "type": "address"
        },
        {
          "internalType": "uint256",
          "name": "_amount",
          "type": "uint256"
        }
      ],
      "name": "transfer",
      "outputs": [],
      "stateMutability": "nonpayable",
      "type": "function"
    }
  ],
  "bytecode": "0x60806040526001600460146101000a81548160ff02191690831515021790555034801561002b57600080fd5b50604051610e1c380380610e1c8339818101604052608081101561004e57600080fd5b8101908080519060200190929190805190602001909291908051906020019092919080519060200190929190505050336000806101000a81548173ffffffffffffffffffffffffffffffffffffffff021916908373ffffffffffffffffffffffffffffffffffffffff16021790555083600160006101000a81548173ffffffffffffffffffffffffffffffffffffffff021916908373ffffffffffffffffffffffffffffffffffffffff16021790555082600260006101000a81548173ffffffffffffffffffffffffffffffffffffffff021916908373ffffffffffffffffffffffffffffffffffffffff16021790555081600360006101000a81548173ffffffffffffffffffffffffffffffffffffffff021916908373ffffffffffffffffffffffffffffffffffffffff16021790555080600460006101000a81548173ffffffffffffffffffffffffffffffffffffffff021916908373ffffffffffffffffffffffffffffffffffffffff16021790555050505050610c48806101d46000396000f3fe608060405234801561001057600080fd5b50600436106100935760003560e01c806378a207ee1161006657806378a207ee1461012a578063a9059cbb1461015e578063af394d00146101ac578063cfad57a2146101e0578063e1c363b71461022457610093565b806312d43a51146100985780632f2770db146100cc57806367e404ce146100d65780636aa633b61461010a575b600080fd5b6100a0610258565b604051808273ffffffffffffffffffffffffffffffffffffffff16815260200191505060405180910390f35b6100d461027c565b005b6100de61035a565b604051808273ffffffffffffffffffffffffffffffffffffffff16815260200191505060405180910390f35b610112610380565b60405180821515815260200191505060405180910390f35b610132610393565b604051808273ffffffffffffffffffffffffffffffffffffffff16815260200191505060405180910390f35b6101aa6004803603604081101561017457600080fd5b81019080803573ffffffffffffffffffffffffffffffffffffffff169060200190929190803590602001909291905050506103b9565b005b6101b46104ab565b604051808273ffffffffffffffffffffffffffffffffffffffff16815260200191505060405180910390f35b610222600480360360208110156101f657600080fd5b81019080803573ffffffffffffffffffffffffffffffffffffffff1690602001909291905050506104d1565b005b61022c6105d5565b604051808273ffffffffffffffffffffffffffffffffffffffff16815260200191505060405180910390f35b60008054906101000a900473ffffffffffffffffffffffffffffffffffffffff1681565b60008054906101000a900473ffffffffffffffffffffffffffffffffffffffff1673ffffffffffffffffffffffffffffffffffffffff163373ffffffffffffffffffffffffffffffffffffffff161461033d576040517f08c379a00000000000000000000000000000000000000000000000000000000081526004018080602001828103825260158152602001807f476f7665726e61626c653a20666f7262696464656e000000000000000000000081525060200191505060405180910390fd5b6000600460146101000a81548160ff021916908315150217905550565b600160009054906101000a900473ffffffffffffffffffffffffffffffffffffffff1681565b600460149054906101000a900460ff1681565b600260009054906101000a900473ffffffffffffffffffffffffffffffffffffffff1681565b60008054906101000a900473ffffffffffffffffffffffffffffffffffffffff1673ffffffffffffffffffffffffffffffffffffffff163373ffffffffffffffffffffffffffffffffffffffff161461047a576040517f08c379a00000000000000000000000000000000000000000000000000000000081526004018080602001828103825260158152602001807f476f7665726e61626c653a20666f7262696464656e000000000000000000000081525060200191505060405180910390fd5b6104a7600160009054906101000a900473ffffffffffffffffffffffffffffffffffffffff1683836105fb565b5050565b600360009054906101000a900473ffffffffffffffffffffffffffffffffffffffff1681565b60008054906101000a900473ffffffffffffffffffffffffffffffffffffffff1673ffffffffffffffffffffffffffffffffffffffff163373ffffffffffffffffffffffffffffffffffffffff1614610592576040517f08c379a00000000000000000000000000000000000000000000000000000000081526004018080602001828103825260158152602001807f476f7665726e61626c653a20666f7262696464656e000000000000000000000081525060200191505060405180910390fd5b806000806101000a81548173ffffffffffffffffffffffffffffffffffffffff021916908373ffffffffffffffffffffffffffffffffffffffff16021790555050565b600460009054906101000a900473ffffffffffffffffffffffffffffffffffffffff1681565b600460149054906101000a900460ff1661067d576040517f08c379a000000000000000000000000000000000000000000000000000000000815260040180806020018281038252601e8152602001807f5374616b6564476c704d69677261746f723a206e6f7420656e61626c6564000081525060200191505060405180910390fd5b600073ffffffffffffffffffffffffffffffffffffffff168373ffffffffffffffffffffffffffffffffffffffff161415610703576040517f08c379a0000000000000000000000000000000000000000000000000000000008152600401808060200182810382526031815260200180610be26031913960400191505060405180910390fd5b600073ffffffffffffffffffffffffffffffffffffffff168273ffffffffffffffffffffffffffffffffffffffff161415610789576040517f08c379a000000000000000000000000000000000000000000000000000000000815260040180806020018281038252602f815260200180610bb3602f913960400191505060405180910390fd5b600360009054906101000a900473ffffffffffffffffffffffffffffffffffffffff1673ffffffffffffffffffffffffffffffffffffffff1663098bf59d84600460009054906101000a900473ffffffffffffffffffffffffffffffffffffffff1684876040518563ffffffff1660e01b8152600401808573ffffffffffffffffffffffffffffffffffffffff1681526020018473ffffffffffffffffffffffffffffffffffffffff1681526020018381526020018273ffffffffffffffffffffffffffffffffffffffff168152602001945050505050600060405180830381600087803b15801561087a57600080fd5b505af115801561088e573d6000803e3d6000fd5b50505050600460009054906101000a900473ffffffffffffffffffffffffffffffffffffffff1673ffffffffffffffffffffffffffffffffffffffff1663098bf59d84600260009054906101000a900473ffffffffffffffffffffffffffffffffffffffff1684876040518563ffffffff1660e01b8152600401808573ffffffffffffffffffffffffffffffffffffffff1681526020018473ffffffffffffffffffffffffffffffffffffffff1681526020018381526020018273ffffffffffffffffffffffffffffffffffffffff168152602001945050505050600060405180830381600087803b15801561098357600080fd5b505af1158015610997573d6000803e3d6000fd5b50505050600460009054906101000a900473ffffffffffffffffffffffffffffffffffffffff1673ffffffffffffffffffffffffffffffffffffffff1663790b5a6c8484600260009054906101000a900473ffffffffffffffffffffffffffffffffffffffff16856040518563ffffffff1660e01b8152600401808573ffffffffffffffffffffffffffffffffffffffff1681526020018473ffffffffffffffffffffffffffffffffffffffff1681526020018373ffffffffffffffffffffffffffffffffffffffff168152602001828152602001945050505050600060405180830381600087803b158015610a8c57600080fd5b505af1158015610aa0573d6000803e3d6000fd5b50505050600360009054906101000a900473ffffffffffffffffffffffffffffffffffffffff1673ffffffffffffffffffffffffffffffffffffffff1663790b5a6c8384600460009054906101000a900473ffffffffffffffffffffffffffffffffffffffff16856040518563ffffffff1660e01b8152600401808573ffffffffffffffffffffffffffffffffffffffff1681526020018473ffffffffffffffffffffffffffffffffffffffff1681526020018373ffffffffffffffffffffffffffffffffffffffff168152602001828152602001945050505050600060405180830381600087803b158015610b9557600080fd5b505af1158015610ba9573d6000803e3d6000fd5b5050505050505056fe5374616b6564476c704d69677261746f723a207472616e7366657220746f20746865207a65726f20616464726573735374616b6564476c704d69677261746f723a207472616e736665722066726f6d20746865207a65726f2061646472657373a26469706673582212201296a3ef5e08a353227968d65cea729e5994fda8fe59176dcc071a78e85b83a464736f6c634300060c0033",
  "linkReferences": {},
  "deployedLinkReferences": {}
}