{
  "_format": "hh-sol-artifact-1",
  "contractName": "MintableBaseToken",
  "sourceName": "contracts/tokens/MintableBaseToken.sol",
  "abi": [
    {
      "inputs": [
        {
          "internalType": "string",
          "name": "_name",
          "type": "string"
        },
        {
          "internalType": "string",
          "name": "_symbol",
          "type": "string"
        },
        {
          "internalType": "uint256",
          "name": "_initialSupply",
          "type": "uint256"
        }
      ],
      "stateMutability": "nonpayable",
      "type": "constructor"
    },
    {
      "anonymous": false,
      "inputs": [
        {
          "indexed": true,
          "internalType": "address",
          "name": "owner",
          "type": "address"
        },
        {
          "indexed": true,
          "internalType": "address",
          "name": "spender",
          "type": "address"
        },
        {
          "indexed": false,
          "internalType": "uint256",
          "name": "value",
          "type": "uint256"
        }
      ],
      "name": "Approval",
      "type": "event"
    },
    {
      "anonymous": false,
      "inputs": [
        {
          "indexed": true,
          "internalType": "address",
          "name": "from",
          "type": "address"
        },
        {
          "indexed": true,
          "internalType": "address",
          "name": "to",
          "type": "address"
        },
        {
          "indexed": false,
          "internalType": "uint256",
          "name": "value",
          "type": "uint256"
        }
      ],
      "name": "Transfer",
      "type": "event"
    },
    {
      "inputs": [
        {
          "internalType": "address",
          "name": "_account",
          "type": "address"
        }
      ],
      "name": "addAdmin",
      "outputs": [],
      "stateMutability": "nonpayable",
      "type": "function"
    },
    {
      "inputs": [
        {
          "internalType": "address",
          "name": "",
          "type": "address"
        }
      ],
      "name": "admins",
      "outputs": [
        {
          "internalType": "bool",
          "name": "",
          "type": "bool"
        }
      ],
      "stateMutability": "view",
      "type": "function"
    },
    {
      "inputs": [
        {
          "internalType": "address",
          "name": "_owner",
          "type": "address"
        },
        {
          "internalType": "address",
          "name": "_spender",
          "type": "address"
        }
      ],
      "name": "allowance",
      "outputs": [
        {
          "internalType": "uint256",
          "name": "",
          "type": "uint256"
        }
      ],
      "stateMutability": "view",
      "type": "function"
    },
    {
      "inputs": [
        {
          "internalType": "address",
          "name": "",
          "type": "address"
        },
        {
          "internalType": "address",
          "name": "",
          "type": "address"
        }
      ],
      "name": "allowances",
      "outputs": [
        {
          "internalType": "uint256",
          "name": "",
          "type": "uint256"
        }
      ],
      "stateMutability": "view",
      "type": "function"
    },
    {
      "inputs": [
        {
          "internalType": "address",
          "name": "_spender",
          "type": "address"
        },
        {
          "internalType": "uint256",
          "name": "_amount",
          "type": "uint256"
        }
      ],
      "name": "approve",
      "outputs": [
        {
          "internalType": "bool",
          "name": "",
          "type": "bool"
        }
      ],
      "stateMutability": "nonpayable",
      "type": "function"
    },
    {
      "inputs": [
        {
          "internalType": "address",
          "name": "_account",
          "type": "address"
        }
      ],
      "name": "balanceOf",
      "outputs": [
        {
          "internalType": "uint256",
          "name": "",
          "type": "uint256"
        }
      ],
      "stateMutability": "view",
      "type": "function"
    },
    {
      "inputs": [
        {
          "internalType": "address",
          "name": "",
          "type": "address"
        }
      ],
      "name": "balances",
      "outputs": [
        {
          "internalType": "uint256",
          "name": "",
          "type": "uint256"
        }
      ],
      "stateMutability": "view",
      "type": "function"
    },
    {
      "inputs": [
        {
          "internalType": "address",
          "name": "_account",
          "type": "address"
        },
        {
          "internalType": "uint256",
          "name": "_amount",
          "type": "uint256"
        }
      ],
      "name": "burn",
      "outputs": [],
      "stateMutability": "nonpayable",
      "type": "function"
    },
    {
      "inputs": [],
      "name": "decimals",
      "outputs": [
        {
          "internalType": "uint8",
          "name": "",
          "type": "uint8"
        }
      ],
      "stateMutability": "view",
      "type": "function"
    },
    {
      "inputs": [],
      "name": "gov",
      "outputs": [
        {
          "internalType": "address",
          "name": "",
          "type": "address"
        }
      ],
      "stateMutability": "view",
      "type": "function"
    },
    {
      "inputs": [],
      "name": "inPrivateTransferMode",
      "outputs": [
        {
          "internalType": "bool",
          "name": "",
          "type": "bool"
        }
      ],
      "stateMutability": "view",
      "type": "function"
    },
    {
      "inputs": [
        {
          "internalType": "address",
          "name": "",
          "type": "address"
        }
      ],
      "name": "isHandler",
      "outputs": [
        {
          "internalType": "bool",
          "name": "",
          "type": "bool"
        }
      ],
      "stateMutability": "view",
      "type": "function"
    },
    {
      "inputs": [
        {
          "internalType": "address",
          "name": "",
          "type": "address"
        }
      ],
      "name": "isMinter",
      "outputs": [
        {
          "internalType": "bool",
          "name": "",
          "type": "bool"
        }
      ],
      "stateMutability": "view",
      "type": "function"
    },
    {
      "inputs": [
        {
          "internalType": "address",
          "name": "_account",
          "type": "address"
        },
        {
          "internalType": "uint256",
          "name": "_amount",
          "type": "uint256"
        }
      ],
      "name": "mint",
      "outputs": [],
      "stateMutability": "nonpayable",
      "type": "function"
    },
    {
      "inputs": [],
      "name": "name",
      "outputs": [
        {
          "internalType": "string",
          "name": "",
          "type": "string"
        }
      ],
      "stateMutability": "view",
      "type": "function"
    },
    {
      "inputs": [
        {
          "internalType": "address",
          "name": "_account",
          "type": "address"
        }
      ],
      "name": "removeAdmin",
      "outputs": [],
      "stateMutability": "nonpayable",
      "type": "function"
    },
    {
      "inputs": [
        {
          "internalType": "address",
          "name": "_gov",
          "type": "address"
        }
      ],
      "name": "setGov",
      "outputs": [],
      "stateMutability": "nonpayable",
      "type": "function"
    },
    {
      "inputs": [
        {
          "internalType": "address",
          "name": "_handler",
          "type": "address"
        },
        {
          "internalType": "bool",
          "name": "_isActive",
          "type": "bool"
        }
      ],
      "name": "setHandler",
      "outputs": [],
      "stateMutability": "nonpayable",
      "type": "function"
    },
    {
      "inputs": [
        {
          "internalType": "bool",
          "name": "_inPrivateTransferMode",
          "type": "bool"
        }
      ],
      "name": "setInPrivateTransferMode",
      "outputs": [],
      "stateMutability": "nonpayable",
      "type": "function"
    },
    {
      "inputs": [
        {
          "internalType": "string",
          "name": "_name",
          "type": "string"
        },
        {
          "internalType": "string",
          "name": "_symbol",
          "type": "string"
        }
      ],
      "name": "setInfo",
      "outputs": [],
      "stateMutability": "nonpayable",
      "type": "function"
    },
    {
      "inputs": [
        {
          "internalType": "address",
          "name": "_minter",
          "type": "address"
        },
        {
          "internalType": "bool",
          "name": "_isActive",
          "type": "bool"
        }
      ],
      "name": "setMinter",
      "outputs": [],
      "stateMutability": "nonpayable",
      "type": "function"
    },
    {
      "inputs": [],
      "name": "symbol",
      "outputs": [
        {
          "internalType": "string",
          "name": "",
          "type": "string"
        }
      ],
      "stateMutability": "view",
      "type": "function"
    },
    {
      "inputs": [],
      "name": "totalSupply",
      "outputs": [
        {
          "internalType": "uint256",
          "name": "",
          "type": "uint256"
        }
      ],
      "stateMutability": "view",
      "type": "function"
    },
    {
      "inputs": [
        {
          "internalType": "address",
          "name": "_recipient",
          "type": "address"
        },
        {
          "internalType": "uint256",
          "name": "_amount",
          "type": "uint256"
        }
      ],
      "name": "transfer",
      "outputs": [
        {
          "internalType": "bool",
          "name": "",
          "type": "bool"
        }
      ],
      "stateMutability": "nonpayable",
      "type": "function"
    },
    {
      "inputs": [
        {
          "internalType": "address",
          "name": "_sender",
          "type": "address"
        },
        {
          "internalType": "address",
          "name": "_recipient",
          "type": "address"
        },
        {
          "internalType": "uint256",
          "name": "_amount",
          "type": "uint256"
        }
      ],
      "name": "transferFrom",
      "outputs": [
        {
          "internalType": "bool",
          "name": "",
          "type": "bool"
        }
      ],
      "stateMutability": "nonpayable",
      "type": "function"
    },
    {
      "inputs": [
        {
          "internalType": "address",
          "name": "_token",
          "type": "address"
        },
        {
          "internalType": "address",
          "name": "_account",
          "type": "address"
        },
        {
          "internalType": "uint256",
          "name": "_amount",
          "type": "uint256"
        }
      ],
      "name": "withdrawToken",
      "outputs": [],
      "stateMutability": "nonpayable",
      "type": "function"
    }
  ],
  "bytecode": "0x60806040523480156200001157600080fd5b506040516200389b3803806200389b83398181016040528101906200003791906200048a565b82828282600090816200004b919062000765565b5081600190816200005d919062000765565b5033600360006101000a81548173ffffffffffffffffffffffffffffffffffffffff021916908373ffffffffffffffffffffffffffffffffffffffff160217905550620000b13382620000bd60201b60201c565b505050505050620009ff565b600073ffffffffffffffffffffffffffffffffffffffff168273ffffffffffffffffffffffffffffffffffffffff16036200012f576040517f08c379a00000000000000000000000000000000000000000000000000000000081526004016200012690620008d3565b60405180910390fd5b6200014b816002546200025960201b620011471790919060201c565b600281905550620001aa81600460008573ffffffffffffffffffffffffffffffffffffffff1673ffffffffffffffffffffffffffffffffffffffff168152602001908152602001600020546200025960201b620011471790919060201c565b600460008473ffffffffffffffffffffffffffffffffffffffff1673ffffffffffffffffffffffffffffffffffffffff168152602001908152602001600020819055508173ffffffffffffffffffffffffffffffffffffffff16600073ffffffffffffffffffffffffffffffffffffffff167fddf252ad1be2c89b69c2b068fc378daa952ba7f163c4a11628f55a4df523b3ef836040516200024d919062000906565b60405180910390a35050565b60008082846200026a919062000952565b905083811015620002b2576040517f08c379a0000000000000000000000000000000000000000000000000000000008152600401620002a990620009dd565b60405180910390fd5b8091505092915050565b6000604051905090565b600080fd5b600080fd5b600080fd5b600080fd5b6000601f19601f8301169050919050565b7f4e487b7100000000000000000000000000000000000000000000000000000000600052604160045260246000fd5b6200032582620002da565b810181811067ffffffffffffffff82111715620003475762000346620002eb565b5b80604052505050565b60006200035c620002bc565b90506200036a82826200031a565b919050565b600067ffffffffffffffff8211156200038d576200038c620002eb565b5b6200039882620002da565b9050602081019050919050565b60005b83811015620003c5578082015181840152602081019050620003a8565b60008484015250505050565b6000620003e8620003e2846200036f565b62000350565b905082815260208101848484011115620004075762000406620002d5565b5b62000414848285620003a5565b509392505050565b600082601f830112620004345762000433620002d0565b5b815162000446848260208601620003d1565b91505092915050565b6000819050919050565b62000464816200044f565b81146200047057600080fd5b50565b600081519050620004848162000459565b92915050565b600080600060608486031215620004a657620004a5620002c6565b5b600084015167ffffffffffffffff811115620004c757620004c6620002cb565b5b620004d5868287016200041c565b935050602084015167ffffffffffffffff811115620004f957620004f8620002cb565b5b62000507868287016200041c565b92505060406200051a8682870162000473565b9150509250925092565b600081519050919050565b7f4e487b7100000000000000000000000000000000000000000000000000000000600052602260045260246000fd5b600060028204905060018216806200057757607f821691505b6020821081036200058d576200058c6200052f565b5b50919050565b60008190508160005260206000209050919050565b60006020601f8301049050919050565b600082821b905092915050565b600060088302620005f77fffffffffffffffffffffffffffffffffffffffffffffffffffffffffffffffff82620005b8565b620006038683620005b8565b95508019841693508086168417925050509392505050565b6000819050919050565b600062000646620006406200063a846200044f565b6200061b565b6200044f565b9050919050565b6000819050919050565b620006628362000625565b6200067a62000671826200064d565b848454620005c5565b825550505050565b600090565b6200069162000682565b6200069e81848462000657565b505050565b5b81811015620006c657620006ba60008262000687565b600181019050620006a4565b5050565b601f8211156200071557620006df8162000593565b620006ea84620005a8565b81016020851015620006fa578190505b620007126200070985620005a8565b830182620006a3565b50505b505050565b600082821c905092915050565b60006200073a600019846008026200071a565b1980831691505092915050565b600062000755838362000727565b9150826002028217905092915050565b620007708262000524565b67ffffffffffffffff8111156200078c576200078b620002eb565b5b6200079882546200055e565b620007a5828285620006ca565b600060209050601f831160018114620007dd5760008415620007c8578287015190505b620007d4858262000747565b86555062000844565b601f198416620007ed8662000593565b60005b828110156200081757848901518255600182019150602085019450602081019050620007f0565b8683101562000837578489015162000833601f89168262000727565b8355505b6001600288020188555050505b505050505050565b600082825260208201905092915050565b7f42617365546f6b656e3a206d696e7420746f20746865207a65726f206164647260008201527f6573730000000000000000000000000000000000000000000000000000000000602082015250565b6000620008bb6023836200084c565b9150620008c8826200085d565b604082019050919050565b60006020820190508181036000830152620008ee81620008ac565b9050919050565b62000900816200044f565b82525050565b60006020820190506200091d6000830184620008f5565b92915050565b7f4e487b7100000000000000000000000000000000000000000000000000000000600052601160045260246000fd5b60006200095f826200044f565b91506200096c836200044f565b925082820190508082111562000987576200098662000923565b5b92915050565b7f536166654d6174683a206164646974696f6e206f766572666c6f770000000000600082015250565b6000620009c5601b836200084c565b9150620009d2826200098d565b602082019050919050565b60006020820190508181036000830152620009f881620009b6565b9050919050565b612e8c8062000a0f6000396000f3fe608060405234801561001057600080fd5b506004361061018e5760003560e01c80635a47a1a7116100de578063a9059cbb11610097578063cf456ae711610071578063cf456ae7146104b9578063cfad57a2146104d5578063dd62ed3e146104f1578063dfbaefb1146105215761018e565b8063a9059cbb1461043d578063a923fc401461046d578063aa271e1a146104895761018e565b80635a47a1a71461037f578063704802751461039b57806370a08231146103b757806395d89b41146103e75780639cb7de4b146104055780639dc29fac146104215761018e565b806323b872dd1161014b57806340c10f191161012557806340c10f19146102d3578063429b62e5146102ef57806346ea87af1461031f57806355b6ed5c1461034f5761018e565b806323b872dd1461025557806327e235e314610285578063313ce567146102b55761018e565b806301e336671461019357806306fdde03146101af578063095ea7b3146101cd57806312d43a51146101fd5780631785f53c1461021b57806318160ddd14610237575b600080fd5b6101ad60048036038101906101a89190611e11565b61053f565b005b6101b76105ff565b6040516101c49190611ef4565b60405180910390f35b6101e760048036038101906101e29190611f16565b61068d565b6040516101f49190611f71565b60405180910390f35b6102056106a4565b6040516102129190611f9b565b60405180910390f35b61023560048036038101906102309190611fb6565b6106ca565b005b61023f6107b5565b60405161024c9190611ff2565b60405180910390f35b61026f600480360381019061026a9190611e11565b6107bb565b60405161027c9190611f71565b60405180910390f35b61029f600480360381019061029a9190611fb6565b6108f3565b6040516102ac9190611ff2565b60405180910390f35b6102bd61090b565b6040516102ca9190612029565b60405180910390f35b6102ed60048036038101906102e89190611f16565b610910565b005b61030960048036038101906103049190611fb6565b6109aa565b6040516103169190611f71565b60405180910390f35b61033960048036038101906103349190611fb6565b6109ca565b6040516103469190611f71565b60405180910390f35b61036960048036038101906103649190612044565b6109ea565b6040516103769190611ff2565b60405180910390f35b610399600480360381019061039491906120b0565b610a0f565b005b6103b560048036038101906103b09190611fb6565b610abc565b005b6103d160048036038101906103cc9190611fb6565b610ba7565b6040516103de9190611ff2565b60405180910390f35b6103ef610bf0565b6040516103fc9190611ef4565b60405180910390f35b61041f600480360381019061041a91906120dd565b610c7e565b005b61043b60048036038101906104369190611f16565b610d69565b005b61045760048036038101906104529190611f16565b610e03565b6040516104649190611f71565b60405180910390f35b61048760048036038101906104829190612252565b610e1a565b005b6104a3600480360381019061049e9190611fb6565b610ece565b6040516104b09190611f71565b60405180910390f35b6104d360048036038101906104ce91906120dd565b610eee565b005b6104ef60048036038101906104ea9190611fb6565b610fd9565b005b61050b60048036038101906105069190612044565b6110ad565b6040516105189190611ff2565b60405180910390f35b610529611134565b6040516105369190611f71565b60405180910390f35b600360009054906101000a900473ffffffffffffffffffffffffffffffffffffffff1673ffffffffffffffffffffffffffffffffffffffff163373ffffffffffffffffffffffffffffffffffffffff16146105cf576040517f08c379a00000000000000000000000000000000000000000000000000000000081526004016105c690612316565b60405180910390fd5b6105fa82828573ffffffffffffffffffffffffffffffffffffffff166111a59092919063ffffffff16565b505050565b6000805461060c90612365565b80601f016020809104026020016040519081016040528092919081815260200182805461063890612365565b80156106855780601f1061065a57610100808354040283529160200191610685565b820191906000526020600020905b81548152906001019060200180831161066857829003601f168201915b505050505081565b600061069a33848461122b565b6001905092915050565b600360009054906101000a900473ffffffffffffffffffffffffffffffffffffffff1681565b600360009054906101000a900473ffffffffffffffffffffffffffffffffffffffff1673ffffffffffffffffffffffffffffffffffffffff163373ffffffffffffffffffffffffffffffffffffffff161461075a576040517f08c379a000000000000000000000000000000000000000000000000000000000815260040161075190612316565b60405180910390fd5b6000600660008373ffffffffffffffffffffffffffffffffffffffff1673ffffffffffffffffffffffffffffffffffffffff16815260200190815260200160002060006101000a81548160ff02191690831515021790555050565b60025481565b6000600860003373ffffffffffffffffffffffffffffffffffffffff1673ffffffffffffffffffffffffffffffffffffffff16815260200190815260200160002060009054906101000a900460ff16156108235761081a8484846113f4565b600190506108ec565b60006108ce836040518060600160405280602c8152602001612ddb602c9139600560008973ffffffffffffffffffffffffffffffffffffffff1673ffffffffffffffffffffffffffffffffffffffff16815260200190815260200160002060003373ffffffffffffffffffffffffffffffffffffffff1673ffffffffffffffffffffffffffffffffffffffff168152602001908152602001600020546117229092919063ffffffff16565b90506108db85338361122b565b6108e68585856113f4565b60019150505b9392505050565b60046020528060005260406000206000915090505481565b601281565b600960003373ffffffffffffffffffffffffffffffffffffffff1673ffffffffffffffffffffffffffffffffffffffff16815260200190815260200160002060009054906101000a900460ff1661099c576040517f08c379a0000000000000000000000000000000000000000000000000000000008152600401610993906123e2565b60405180910390fd5b6109a68282611786565b5050565b60066020528060005260406000206000915054906101000a900460ff1681565b60086020528060005260406000206000915054906101000a900460ff1681565b6005602052816000526040600020602052806000526040600020600091509150505481565b600360009054906101000a900473ffffffffffffffffffffffffffffffffffffffff1673ffffffffffffffffffffffffffffffffffffffff163373ffffffffffffffffffffffffffffffffffffffff1614610a9f576040517f08c379a0000000000000000000000000000000000000000000000000000000008152600401610a9690612316565b60405180910390fd5b80600760006101000a81548160ff02191690831515021790555050565b600360009054906101000a900473ffffffffffffffffffffffffffffffffffffffff1673ffffffffffffffffffffffffffffffffffffffff163373ffffffffffffffffffffffffffffffffffffffff1614610b4c576040517f08c379a0000000000000000000000000000000000000000000000000000000008152600401610b4390612316565b60405180910390fd5b6001600660008373ffffffffffffffffffffffffffffffffffffffff1673ffffffffffffffffffffffffffffffffffffffff16815260200190815260200160002060006101000a81548160ff02191690831515021790555050565b6000600460008373ffffffffffffffffffffffffffffffffffffffff1673ffffffffffffffffffffffffffffffffffffffff168152602001908152602001600020549050919050565b60018054610bfd90612365565b80601f0160208091040260200160405190810160405280929190818152602001828054610c2990612365565b8015610c765780601f10610c4b57610100808354040283529160200191610c76565b820191906000526020600020905b815481529060010190602001808311610c5957829003601f168201915b505050505081565b600360009054906101000a900473ffffffffffffffffffffffffffffffffffffffff1673ffffffffffffffffffffffffffffffffffffffff163373ffffffffffffffffffffffffffffffffffffffff1614610d0e576040517f08c379a0000000000000000000000000000000000000000000000000000000008152600401610d0590612316565b60405180910390fd5b80600860008473ffffffffffffffffffffffffffffffffffffffff1673ffffffffffffffffffffffffffffffffffffffff16815260200190815260200160002060006101000a81548160ff0219169083151502179055505050565b600960003373ffffffffffffffffffffffffffffffffffffffff1673ffffffffffffffffffffffffffffffffffffffff16815260200190815260200160002060009054906101000a900460ff16610df5576040517f08c379a0000000000000000000000000000000000000000000000000000000008152600401610dec906123e2565b60405180910390fd5b610dff828261190f565b5050565b6000610e103384846113f4565b6001905092915050565b600360009054906101000a900473ffffffffffffffffffffffffffffffffffffffff1673ffffffffffffffffffffffffffffffffffffffff163373ffffffffffffffffffffffffffffffffffffffff1614610eaa576040517f08c379a0000000000000000000000000000000000000000000000000000000008152600401610ea190612316565b60405180910390fd5b8160009081610eb991906125ae565b508060019081610ec991906125ae565b505050565b60096020528060005260406000206000915054906101000a900460ff1681565b600360009054906101000a900473ffffffffffffffffffffffffffffffffffffffff1673ffffffffffffffffffffffffffffffffffffffff163373ffffffffffffffffffffffffffffffffffffffff1614610f7e576040517f08c379a0000000000000000000000000000000000000000000000000000000008152600401610f7590612316565b60405180910390fd5b80600960008473ffffffffffffffffffffffffffffffffffffffff1673ffffffffffffffffffffffffffffffffffffffff16815260200190815260200160002060006101000a81548160ff0219169083151502179055505050565b600360009054906101000a900473ffffffffffffffffffffffffffffffffffffffff1673ffffffffffffffffffffffffffffffffffffffff163373ffffffffffffffffffffffffffffffffffffffff1614611069576040517f08c379a000000000000000000000000000000000000000000000000000000000815260040161106090612316565b60405180910390fd5b80600360006101000a81548173ffffffffffffffffffffffffffffffffffffffff021916908373ffffffffffffffffffffffffffffffffffffffff16021790555050565b6000600560008473ffffffffffffffffffffffffffffffffffffffff1673ffffffffffffffffffffffffffffffffffffffff16815260200190815260200160002060008373ffffffffffffffffffffffffffffffffffffffff1673ffffffffffffffffffffffffffffffffffffffff16815260200190815260200160002054905092915050565b600760009054906101000a900460ff1681565b600080828461115691906126af565b90508381101561119b576040517f08c379a00000000000000000000000000000000000000000000000000000000081526004016111929061272f565b60405180910390fd5b8091505092915050565b6112268363a9059cbb60e01b84846040516024016111c492919061274f565b604051602081830303815290604052907bffffffffffffffffffffffffffffffffffffffffffffffffffffffff19166020820180517bffffffffffffffffffffffffffffffffffffffffffffffffffffffff8381831617835250505050611ab2565b505050565b600073ffffffffffffffffffffffffffffffffffffffff168373ffffffffffffffffffffffffffffffffffffffff160361129a576040517f08c379a0000000000000000000000000000000000000000000000000000000008152600401611291906127ea565b60405180910390fd5b600073ffffffffffffffffffffffffffffffffffffffff168273ffffffffffffffffffffffffffffffffffffffff1603611309576040517f08c379a00000000000000000000000000000000000000000000000000000000081526004016113009061287c565b60405180910390fd5b80600560008573ffffffffffffffffffffffffffffffffffffffff1673ffffffffffffffffffffffffffffffffffffffff16815260200190815260200160002060008473ffffffffffffffffffffffffffffffffffffffff1673ffffffffffffffffffffffffffffffffffffffff168152602001908152602001600020819055508173ffffffffffffffffffffffffffffffffffffffff168373ffffffffffffffffffffffffffffffffffffffff167f8c5be1e5ebec7d5bd14f71427d1e84f3dd0314c0f7b2291e5b200ac8c7c3b925836040516113e79190611ff2565b60405180910390a3505050565b600073ffffffffffffffffffffffffffffffffffffffff168373ffffffffffffffffffffffffffffffffffffffff1603611463576040517f08c379a000000000000000000000000000000000000000000000000000000000815260040161145a9061290e565b60405180910390fd5b600073ffffffffffffffffffffffffffffffffffffffff168273ffffffffffffffffffffffffffffffffffffffff16036114d2576040517f08c379a00000000000000000000000000000000000000000000000000000000081526004016114c9906129a0565b60405180910390fd5b600760009054906101000a900460ff161561157457600860003373ffffffffffffffffffffffffffffffffffffffff1673ffffffffffffffffffffffffffffffffffffffff16815260200190815260200160002060009054906101000a900460ff16611573576040517f08c379a000000000000000000000000000000000000000000000000000000000815260040161156a90612a32565b60405180910390fd5b5b6115e0816040518060600160405280602a8152602001612e07602a9139600460008773ffffffffffffffffffffffffffffffffffffffff1673ffffffffffffffffffffffffffffffffffffffff168152602001908152602001600020546117229092919063ffffffff16565b600460008573ffffffffffffffffffffffffffffffffffffffff1673ffffffffffffffffffffffffffffffffffffffff1681526020019081526020016000208190555061167581600460008573ffffffffffffffffffffffffffffffffffffffff1673ffffffffffffffffffffffffffffffffffffffff1681526020019081526020016000205461114790919063ffffffff16565b600460008473ffffffffffffffffffffffffffffffffffffffff1673ffffffffffffffffffffffffffffffffffffffff168152602001908152602001600020819055508173ffffffffffffffffffffffffffffffffffffffff168373ffffffffffffffffffffffffffffffffffffffff167fddf252ad1be2c89b69c2b068fc378daa952ba7f163c4a11628f55a4df523b3ef836040516117159190611ff2565b60405180910390a3505050565b600083831115829061176a576040517f08c379a00000000000000000000000000000000000000000000000000000000081526004016117619190611ef4565b60405180910390fd5b50600083856117799190612a52565b9050809150509392505050565b600073ffffffffffffffffffffffffffffffffffffffff168273ffffffffffffffffffffffffffffffffffffffff16036117f5576040517f08c379a00000000000000000000000000000000000000000000000000000000081526004016117ec90612af8565b60405180910390fd5b61180a8160025461114790919063ffffffff16565b60028190555061186281600460008573ffffffffffffffffffffffffffffffffffffffff1673ffffffffffffffffffffffffffffffffffffffff1681526020019081526020016000205461114790919063ffffffff16565b600460008473ffffffffffffffffffffffffffffffffffffffff1673ffffffffffffffffffffffffffffffffffffffff168152602001908152602001600020819055508173ffffffffffffffffffffffffffffffffffffffff16600073ffffffffffffffffffffffffffffffffffffffff167fddf252ad1be2c89b69c2b068fc378daa952ba7f163c4a11628f55a4df523b3ef836040516119039190611ff2565b60405180910390a35050565b600073ffffffffffffffffffffffffffffffffffffffff168273ffffffffffffffffffffffffffffffffffffffff160361197e576040517f08c379a000000000000000000000000000000000000000000000000000000000815260040161197590612b8a565b60405180910390fd5b6119ea81604051806060016040528060268152602001612e3160269139600460008673ffffffffffffffffffffffffffffffffffffffff1673ffffffffffffffffffffffffffffffffffffffff168152602001908152602001600020546117229092919063ffffffff16565b600460008473ffffffffffffffffffffffffffffffffffffffff1673ffffffffffffffffffffffffffffffffffffffff16815260200190815260200160002081905550611a4281600254611b7990919063ffffffff16565b600281905550600073ffffffffffffffffffffffffffffffffffffffff168273ffffffffffffffffffffffffffffffffffffffff167fddf252ad1be2c89b69c2b068fc378daa952ba7f163c4a11628f55a4df523b3ef83604051611aa69190611ff2565b60405180910390a35050565b6000611b14826040518060400160405280602081526020017f5361666545524332303a206c6f772d6c6576656c2063616c6c206661696c65648152508573ffffffffffffffffffffffffffffffffffffffff16611bc39092919063ffffffff16565b9050600081511115611b745780806020019051810190611b349190612bbf565b611b73576040517f08c379a0000000000000000000000000000000000000000000000000000000008152600401611b6a90612c5e565b60405180910390fd5b5b505050565b6000611bbb83836040518060400160405280601e81526020017f536166654d6174683a207375627472616374696f6e206f766572666c6f770000815250611722565b905092915050565b6060611bd28484600085611bdb565b90509392505050565b606082471015611c20576040517f08c379a0000000000000000000000000000000000000000000000000000000008152600401611c1790612cf0565b60405180910390fd5b611c2985611cef565b611c68576040517f08c379a0000000000000000000000000000000000000000000000000000000008152600401611c5f90612d5c565b60405180910390fd5b6000808673ffffffffffffffffffffffffffffffffffffffff168587604051611c919190612dc3565b60006040518083038185875af1925050503d8060008114611cce576040519150601f19603f3d011682016040523d82523d6000602084013e611cd3565b606091505b5091509150611ce3828286611d02565b92505050949350505050565b600080823b905060008111915050919050565b60608315611d1257829050611d62565b600083511115611d255782518084602001fd5b816040517f08c379a0000000000000000000000000000000000000000000000000000000008152600401611d599190611ef4565b60405180910390fd5b9392505050565b6000604051905090565b600080fd5b600080fd5b600073ffffffffffffffffffffffffffffffffffffffff82169050919050565b6000611da882611d7d565b9050919050565b611db881611d9d565b8114611dc357600080fd5b50565b600081359050611dd581611daf565b92915050565b6000819050919050565b611dee81611ddb565b8114611df957600080fd5b50565b600081359050611e0b81611de5565b92915050565b600080600060608486031215611e2a57611e29611d73565b5b6000611e3886828701611dc6565b9350506020611e4986828701611dc6565b9250506040611e5a86828701611dfc565b9150509250925092565b600081519050919050565b600082825260208201905092915050565b60005b83811015611e9e578082015181840152602081019050611e83565b60008484015250505050565b6000601f19601f8301169050919050565b6000611ec682611e64565b611ed08185611e6f565b9350611ee0818560208601611e80565b611ee981611eaa565b840191505092915050565b60006020820190508181036000830152611f0e8184611ebb565b905092915050565b60008060408385031215611f2d57611f2c611d73565b5b6000611f3b85828601611dc6565b9250506020611f4c85828601611dfc565b9150509250929050565b60008115159050919050565b611f6b81611f56565b82525050565b6000602082019050611f866000830184611f62565b92915050565b611f9581611d9d565b82525050565b6000602082019050611fb06000830184611f8c565b92915050565b600060208284031215611fcc57611fcb611d73565b5b6000611fda84828501611dc6565b91505092915050565b611fec81611ddb565b82525050565b60006020820190506120076000830184611fe3565b92915050565b600060ff82169050919050565b6120238161200d565b82525050565b600060208201905061203e600083018461201a565b92915050565b6000806040838503121561205b5761205a611d73565b5b600061206985828601611dc6565b925050602061207a85828601611dc6565b9150509250929050565b61208d81611f56565b811461209857600080fd5b50565b6000813590506120aa81612084565b92915050565b6000602082840312156120c6576120c5611d73565b5b60006120d48482850161209b565b91505092915050565b600080604083850312156120f4576120f3611d73565b5b600061210285828601611dc6565b92505060206121138582860161209b565b9150509250929050565b600080fd5b600080fd5b7f4e487b7100000000000000000000000000000000000000000000000000000000600052604160045260246000fd5b61215f82611eaa565b810181811067ffffffffffffffff8211171561217e5761217d612127565b5b80604052505050565b6000612191611d69565b905061219d8282612156565b919050565b600067ffffffffffffffff8211156121bd576121bc612127565b5b6121c682611eaa565b9050602081019050919050565b82818337600083830152505050565b60006121f56121f0846121a2565b612187565b90508281526020810184848401111561221157612210612122565b5b61221c8482856121d3565b509392505050565b600082601f8301126122395761223861211d565b5b81356122498482602086016121e2565b91505092915050565b6000806040838503121561226957612268611d73565b5b600083013567ffffffffffffffff81111561228757612286611d78565b5b61229385828601612224565b925050602083013567ffffffffffffffff8111156122b4576122b3611d78565b5b6122c085828601612224565b9150509250929050565b7f42617365546f6b656e3a20666f7262696464656e000000000000000000000000600082015250565b6000612300601483611e6f565b915061230b826122ca565b602082019050919050565b6000602082019050818103600083015261232f816122f3565b9050919050565b7f4e487b7100000000000000000000000000000000000000000000000000000000600052602260045260246000fd5b6000600282049050600182168061237d57607f821691505b6020821081036123905761238f612336565b5b50919050565b7f4d696e7461626c6542617365546f6b656e3a20666f7262696464656e00000000600082015250565b60006123cc601c83611e6f565b91506123d782612396565b602082019050919050565b600060208201905081810360008301526123fb816123bf565b9050919050565b60008190508160005260206000209050919050565b60006020601f8301049050919050565b600082821b905092915050565b6000600883026124647fffffffffffffffffffffffffffffffffffffffffffffffffffffffffffffffff82612427565b61246e8683612427565b95508019841693508086168417925050509392505050565b6000819050919050565b60006124ab6124a66124a184611ddb565b612486565b611ddb565b9050919050565b6000819050919050565b6124c583612490565b6124d96124d1826124b2565b848454612434565b825550505050565b600090565b6124ee6124e1565b6124f98184846124bc565b505050565b5b8181101561251d576125126000826124e6565b6001810190506124ff565b5050565b601f8211156125625761253381612402565b61253c84612417565b8101602085101561254b578190505b61255f61255785612417565b8301826124fe565b50505b505050565b600082821c905092915050565b600061258560001984600802612567565b1980831691505092915050565b600061259e8383612574565b9150826002028217905092915050565b6125b782611e64565b67ffffffffffffffff8111156125d0576125cf612127565b5b6125da8254612365565b6125e5828285612521565b600060209050601f8311600181146126185760008415612606578287015190505b6126108582612592565b865550612678565b601f19841661262686612402565b60005b8281101561264e57848901518255600182019150602085019450602081019050612629565b8683101561266b5784890151612667601f891682612574565b8355505b6001600288020188555050505b505050505050565b7f4e487b7100000000000000000000000000000000000000000000000000000000600052601160045260246000fd5b60006126ba82611ddb565b91506126c583611ddb565b92508282019050808211156126dd576126dc612680565b5b92915050565b7f536166654d6174683a206164646974696f6e206f766572666c6f770000000000600082015250565b6000612719601b83611e6f565b9150612724826126e3565b602082019050919050565b600060208201905081810360008301526127488161270c565b9050919050565b60006040820190506127646000830185611f8c565b6127716020830184611fe3565b9392505050565b7f42617365546f6b656e3a20617070726f76652066726f6d20746865207a65726f60008201527f2061646472657373000000000000000000000000000000000000000000000000602082015250565b60006127d4602883611e6f565b91506127df82612778565b604082019050919050565b60006020820190508181036000830152612803816127c7565b9050919050565b7f42617365546f6b656e3a20617070726f766520746f20746865207a65726f206160008201527f6464726573730000000000000000000000000000000000000000000000000000602082015250565b6000612866602683611e6f565b91506128718261280a565b604082019050919050565b6000602082019050818103600083015261289581612859565b9050919050565b7f42617365546f6b656e3a207472616e736665722066726f6d20746865207a657260008201527f6f20616464726573730000000000000000000000000000000000000000000000602082015250565b60006128f8602983611e6f565b91506129038261289c565b604082019050919050565b60006020820190508181036000830152612927816128eb565b9050919050565b7f42617365546f6b656e3a207472616e7366657220746f20746865207a65726f2060008201527f6164647265737300000000000000000000000000000000000000000000000000602082015250565b600061298a602783611e6f565b91506129958261292e565b604082019050919050565b600060208201905081810360008301526129b98161297d565b9050919050565b7f42617365546f6b656e3a206d73672e73656e646572206e6f742077686974656c60008201527f6973746564000000000000000000000000000000000000000000000000000000602082015250565b6000612a1c602583611e6f565b9150612a27826129c0565b604082019050919050565b60006020820190508181036000830152612a4b81612a0f565b9050919050565b6000612a5d82611ddb565b9150612a6883611ddb565b9250828203905081811115612a8057612a7f612680565b5b92915050565b7f42617365546f6b656e3a206d696e7420746f20746865207a65726f206164647260008201527f6573730000000000000000000000000000000000000000000000000000000000602082015250565b6000612ae2602383611e6f565b9150612aed82612a86565b604082019050919050565b60006020820190508181036000830152612b1181612ad5565b9050919050565b7f42617365546f6b656e3a206275726e2066726f6d20746865207a65726f20616460008201527f6472657373000000000000000000000000000000000000000000000000000000602082015250565b6000612b74602583611e6f565b9150612b7f82612b18565b604082019050919050565b60006020820190508181036000830152612ba381612b67565b9050919050565b600081519050612bb981612084565b92915050565b600060208284031215612bd557612bd4611d73565b5b6000612be384828501612baa565b91505092915050565b7f5361666545524332303a204552433230206f7065726174696f6e20646964206e60008201527f6f74207375636365656400000000000000000000000000000000000000000000602082015250565b6000612c48602a83611e6f565b9150612c5382612bec565b604082019050919050565b60006020820190508181036000830152612c7781612c3b565b9050919050565b7f416464726573733a20696e73756666696369656e742062616c616e636520666f60008201527f722063616c6c0000000000000000000000000000000000000000000000000000602082015250565b6000612cda602683611e6f565b9150612ce582612c7e565b604082019050919050565b60006020820190508181036000830152612d0981612ccd565b9050919050565b7f416464726573733a2063616c6c20746f206e6f6e2d636f6e7472616374000000600082015250565b6000612d46601d83611e6f565b9150612d5182612d10565b602082019050919050565b60006020820190508181036000830152612d7581612d39565b9050919050565b600081519050919050565b600081905092915050565b6000612d9d82612d7c565b612da78185612d87565b9350612db7818560208601611e80565b80840191505092915050565b6000612dcf8284612d92565b91508190509291505056fe42617365546f6b656e3a207472616e7366657220616d6f756e74206578636565647320616c6c6f77616e636542617365546f6b656e3a207472616e7366657220616d6f756e7420657863656564732062616c616e636542617365546f6b656e3a206275726e20616d6f756e7420657863656564732062616c616e6365a2646970667358221220f567562663282d0c1b16e9f160956c284437e24a2f5fc064c330561fef88dff964736f6c63430008110033",
  "linkReferences": {},
  "deployedLinkReferences": {}
}