{
  "_format": "hh-sol-artifact-1",
  "contractName": "PositionManager",
  "sourceName": "contracts/gmx/core/PositionManager.sol",
  "abi": [
    {
      "inputs": [
        {
          "internalType": "address",
          "name": "_vault",
          "type": "address"
        },
        {
          "internalType": "address",
          "name": "_router",
          "type": "address"
        },
        {
          "internalType": "address",
          "name": "_shortsTracker",
          "type": "address"
        },
        {
          "internalType": "address",
          "name": "_weth",
          "type": "address"
        },
        {
          "internalType": "uint256",
          "name": "_depositFee",
          "type": "uint256"
        },
        {
          "internalType": "address",
          "name": "_orderBook",
          "type": "address"
        }
      ],
      "stateMutability": "nonpayable",
      "type": "constructor"
    },
    {
      "anonymous": false,
      "inputs": [
        {
          "indexed": false,
          "internalType": "address",
          "name": "account",
          "type": "address"
        },
        {
          "indexed": false,
          "internalType": "uint256",
          "name": "sizeDelta",
          "type": "uint256"
        },
        {
          "indexed": false,
          "internalType": "uint256",
          "name": "marginFeeBasisPoints",
          "type": "uint256"
        },
        {
          "indexed": false,
          "internalType": "bytes32",
          "name": "referralCode",
          "type": "bytes32"
        },
        {
          "indexed": false,
          "internalType": "address",
          "name": "referrer",
          "type": "address"
        }
      ],
      "name": "DecreasePositionReferral",
      "type": "event"
    },
    {
      "anonymous": false,
      "inputs": [
        {
          "indexed": false,
          "internalType": "address",
          "name": "account",
          "type": "address"
        },
        {
          "indexed": false,
          "internalType": "uint256",
          "name": "sizeDelta",
          "type": "uint256"
        },
        {
          "indexed": false,
          "internalType": "uint256",
          "name": "marginFeeBasisPoints",
          "type": "uint256"
        },
        {
          "indexed": false,
          "internalType": "bytes32",
          "name": "referralCode",
          "type": "bytes32"
        },
        {
          "indexed": false,
          "internalType": "address",
          "name": "referrer",
          "type": "address"
        }
      ],
      "name": "IncreasePositionReferral",
      "type": "event"
    },
    {
      "anonymous": false,
      "inputs": [
        {
          "indexed": false,
          "internalType": "address",
          "name": "admin",
          "type": "address"
        }
      ],
      "name": "SetAdmin",
      "type": "event"
    },
    {
      "anonymous": false,
      "inputs": [
        {
          "indexed": false,
          "internalType": "uint256",
          "name": "depositFee",
          "type": "uint256"
        }
      ],
      "name": "SetDepositFee",
      "type": "event"
    },
    {
      "anonymous": false,
      "inputs": [
        {
          "indexed": false,
          "internalType": "bool",
          "name": "inLegacyMode",
          "type": "bool"
        }
      ],
      "name": "SetInLegacyMode",
      "type": "event"
    },
    {
      "anonymous": false,
      "inputs": [
        {
          "indexed": false,
          "internalType": "uint256",
          "name": "increasePositionBufferBps",
          "type": "uint256"
        }
      ],
      "name": "SetIncreasePositionBufferBps",
      "type": "event"
    },
    {
      "anonymous": false,
      "inputs": [
        {
          "indexed": true,
          "internalType": "address",
          "name": "account",
          "type": "address"
        },
        {
          "indexed": false,
          "internalType": "bool",
          "name": "isActive",
          "type": "bool"
        }
      ],
      "name": "SetLiquidator",
      "type": "event"
    },
    {
      "anonymous": false,
      "inputs": [
        {
          "indexed": false,
          "internalType": "address[]",
          "name": "tokens",
          "type": "address[]"
        },
        {
          "indexed": false,
          "internalType": "uint256[]",
          "name": "longSizes",
          "type": "uint256[]"
        },
        {
          "indexed": false,
          "internalType": "uint256[]",
          "name": "shortSizes",
          "type": "uint256[]"
        }
      ],
      "name": "SetMaxGlobalSizes",
      "type": "event"
    },
    {
      "anonymous": false,
      "inputs": [
        {
          "indexed": true,
          "internalType": "address",
          "name": "account",
          "type": "address"
        },
        {
          "indexed": false,
          "internalType": "bool",
          "name": "isActive",
          "type": "bool"
        }
      ],
      "name": "SetOrderKeeper",
      "type": "event"
    },
    {
      "anonymous": false,
      "inputs": [
        {
          "indexed": false,
          "internalType": "address",
          "name": "account",
          "type": "address"
        },
        {
          "indexed": false,
          "internalType": "bool",
          "name": "isActive",
          "type": "bool"
        }
      ],
      "name": "SetPartner",
      "type": "event"
    },
    {
      "anonymous": false,
      "inputs": [
        {
          "indexed": false,
          "internalType": "address",
          "name": "referralStorage",
          "type": "address"
        }
      ],
      "name": "SetReferralStorage",
      "type": "event"
    },
    {
      "anonymous": false,
      "inputs": [
        {
          "indexed": false,
          "internalType": "bool",
          "name": "shouldValidateIncreaseOrder",
          "type": "bool"
        }
      ],
      "name": "SetShouldValidateIncreaseOrder",
      "type": "event"
    },
    {
      "anonymous": false,
      "inputs": [
        {
          "indexed": false,
          "internalType": "address",
          "name": "token",
          "type": "address"
        },
        {
          "indexed": false,
          "internalType": "address",
          "name": "receiver",
          "type": "address"
        },
        {
          "indexed": false,
          "internalType": "uint256",
          "name": "amount",
          "type": "uint256"
        }
      ],
      "name": "WithdrawFees",
      "type": "event"
    },
    {
      "inputs": [],
      "name": "BASIS_POINTS_DIVISOR",
      "outputs": [
        {
          "internalType": "uint256",
          "name": "",
          "type": "uint256"
        }
      ],
      "stateMutability": "view",
      "type": "function"
    },
    {
      "inputs": [],
      "name": "admin",
      "outputs": [
        {
          "internalType": "address",
          "name": "",
          "type": "address"
        }
      ],
      "stateMutability": "view",
      "type": "function"
    },
    {
      "inputs": [
        {
          "internalType": "address",
          "name": "_token",
          "type": "address"
        },
        {
          "internalType": "address",
          "name": "_spender",
          "type": "address"
        },
        {
          "internalType": "uint256",
          "name": "_amount",
          "type": "uint256"
        }
      ],
      "name": "approve",
      "outputs": [],
      "stateMutability": "nonpayable",
      "type": "function"
    },
    {
      "inputs": [
        {
          "internalType": "address",
          "name": "_collateralToken",
          "type": "address"
        },
        {
          "internalType": "address",
          "name": "_indexToken",
          "type": "address"
        },
        {
          "internalType": "uint256",
          "name": "_collateralDelta",
          "type": "uint256"
        },
        {
          "internalType": "uint256",
          "name": "_sizeDelta",
          "type": "uint256"
        },
        {
          "internalType": "bool",
          "name": "_isLong",
          "type": "bool"
        },
        {
          "internalType": "address",
          "name": "_receiver",
          "type": "address"
        },
        {
          "internalType": "uint256",
          "name": "_price",
          "type": "uint256"
        }
      ],
      "name": "decreasePosition",
      "outputs": [],
      "stateMutability": "nonpayable",
      "type": "function"
    },
    {
      "inputs": [
        {
          "internalType": "address[]",
          "name": "_path",
          "type": "address[]"
        },
        {
          "internalType": "address",
          "name": "_indexToken",
          "type": "address"
        },
        {
          "internalType": "uint256",
          "name": "_collateralDelta",
          "type": "uint256"
        },
        {
          "internalType": "uint256",
          "name": "_sizeDelta",
          "type": "uint256"
        },
        {
          "internalType": "bool",
          "name": "_isLong",
          "type": "bool"
        },
        {
          "internalType": "address",
          "name": "_receiver",
          "type": "address"
        },
        {
          "internalType": "uint256",
          "name": "_price",
          "type": "uint256"
        },
        {
          "internalType": "uint256",
          "name": "_minOut",
          "type": "uint256"
        }
      ],
      "name": "decreasePositionAndSwap",
      "outputs": [],
      "stateMutability": "nonpayable",
      "type": "function"
    },
    {
      "inputs": [
        {
          "internalType": "address[]",
          "name": "_path",
          "type": "address[]"
        },
        {
          "internalType": "address",
          "name": "_indexToken",
          "type": "address"
        },
        {
          "internalType": "uint256",
          "name": "_collateralDelta",
          "type": "uint256"
        },
        {
          "internalType": "uint256",
          "name": "_sizeDelta",
          "type": "uint256"
        },
        {
          "internalType": "bool",
          "name": "_isLong",
          "type": "bool"
        },
        {
          "internalType": "address payable",
          "name": "_receiver",
          "type": "address"
        },
        {
          "internalType": "uint256",
          "name": "_price",
          "type": "uint256"
        },
        {
          "internalType": "uint256",
          "name": "_minOut",
          "type": "uint256"
        }
      ],
      "name": "decreasePositionAndSwapETH",
      "outputs": [],
      "stateMutability": "nonpayable",
      "type": "function"
    },
    {
      "inputs": [
        {
          "internalType": "address",
          "name": "_collateralToken",
          "type": "address"
        },
        {
          "internalType": "address",
          "name": "_indexToken",
          "type": "address"
        },
        {
          "internalType": "uint256",
          "name": "_collateralDelta",
          "type": "uint256"
        },
        {
          "internalType": "uint256",
          "name": "_sizeDelta",
          "type": "uint256"
        },
        {
          "internalType": "bool",
          "name": "_isLong",
          "type": "bool"
        },
        {
          "internalType": "address payable",
          "name": "_receiver",
          "type": "address"
        },
        {
          "internalType": "uint256",
          "name": "_price",
          "type": "uint256"
        }
      ],
      "name": "decreasePositionETH",
      "outputs": [],
      "stateMutability": "nonpayable",
      "type": "function"
    },
    {
      "inputs": [],
      "name": "depositFee",
      "outputs": [
        {
          "internalType": "uint256",
          "name": "",
          "type": "uint256"
        }
      ],
      "stateMutability": "view",
      "type": "function"
    },
    {
      "inputs": [
        {
          "internalType": "address",
          "name": "_account",
          "type": "address"
        },
        {
          "internalType": "uint256",
          "name": "_orderIndex",
          "type": "uint256"
        },
        {
          "internalType": "address payable",
          "name": "_feeReceiver",
          "type": "address"
        }
      ],
      "name": "executeDecreaseOrder",
      "outputs": [],
      "stateMutability": "nonpayable",
      "type": "function"
    },
    {
      "inputs": [
        {
          "internalType": "address",
          "name": "_account",
          "type": "address"
        },
        {
          "internalType": "uint256",
          "name": "_orderIndex",
          "type": "uint256"
        },
        {
          "internalType": "address payable",
          "name": "_feeReceiver",
          "type": "address"
        }
      ],
      "name": "executeIncreaseOrder",
      "outputs": [],
      "stateMutability": "nonpayable",
      "type": "function"
    },
    {
      "inputs": [
        {
          "internalType": "address",
          "name": "_account",
          "type": "address"
        },
        {
          "internalType": "uint256",
          "name": "_orderIndex",
          "type": "uint256"
        },
        {
          "internalType": "address payable",
          "name": "_feeReceiver",
          "type": "address"
        }
      ],
      "name": "executeSwapOrder",
      "outputs": [],
      "stateMutability": "nonpayable",
      "type": "function"
    },
    {
      "inputs": [
        {
          "internalType": "address",
          "name": "",
          "type": "address"
        }
      ],
      "name": "feeReserves",
      "outputs": [
        {
          "internalType": "uint256",
          "name": "",
          "type": "uint256"
        }
      ],
      "stateMutability": "view",
      "type": "function"
    },
    {
      "inputs": [],
      "name": "gov",
      "outputs": [
        {
          "internalType": "address",
          "name": "",
          "type": "address"
        }
      ],
      "stateMutability": "view",
      "type": "function"
    },
    {
      "inputs": [],
      "name": "inLegacyMode",
      "outputs": [
        {
          "internalType": "bool",
          "name": "",
          "type": "bool"
        }
      ],
      "stateMutability": "view",
      "type": "function"
    },
    {
      "inputs": [
        {
          "internalType": "address[]",
          "name": "_path",
          "type": "address[]"
        },
        {
          "internalType": "address",
          "name": "_indexToken",
          "type": "address"
        },
        {
          "internalType": "uint256",
          "name": "_amountIn",
          "type": "uint256"
        },
        {
          "internalType": "uint256",
          "name": "_minOut",
          "type": "uint256"
        },
        {
          "internalType": "uint256",
          "name": "_sizeDelta",
          "type": "uint256"
        },
        {
          "internalType": "bool",
          "name": "_isLong",
          "type": "bool"
        },
        {
          "internalType": "uint256",
          "name": "_price",
          "type": "uint256"
        }
      ],
      "name": "increasePosition",
      "outputs": [],
      "stateMutability": "nonpayable",
      "type": "function"
    },
    {
      "inputs": [],
      "name": "increasePositionBufferBps",
      "outputs": [
        {
          "internalType": "uint256",
          "name": "",
          "type": "uint256"
        }
      ],
      "stateMutability": "view",
      "type": "function"
    },
    {
      "inputs": [
        {
          "internalType": "address[]",
          "name": "_path",
          "type": "address[]"
        },
        {
          "internalType": "address",
          "name": "_indexToken",
          "type": "address"
        },
        {
          "internalType": "uint256",
          "name": "_minOut",
          "type": "uint256"
        },
        {
          "internalType": "uint256",
          "name": "_sizeDelta",
          "type": "uint256"
        },
        {
          "internalType": "bool",
          "name": "_isLong",
          "type": "bool"
        },
        {
          "internalType": "uint256",
          "name": "_price",
          "type": "uint256"
        }
      ],
      "name": "increasePositionETH",
      "outputs": [],
      "stateMutability": "payable",
      "type": "function"
    },
    {
      "inputs": [
        {
          "internalType": "address",
          "name": "",
          "type": "address"
        }
      ],
      "name": "isLiquidator",
      "outputs": [
        {
          "internalType": "bool",
          "name": "",
          "type": "bool"
        }
      ],
      "stateMutability": "view",
      "type": "function"
    },
    {
      "inputs": [
        {
          "internalType": "address",
          "name": "",
          "type": "address"
        }
      ],
      "name": "isOrderKeeper",
      "outputs": [
        {
          "internalType": "bool",
          "name": "",
          "type": "bool"
        }
      ],
      "stateMutability": "view",
      "type": "function"
    },
    {
      "inputs": [
        {
          "internalType": "address",
          "name": "",
          "type": "address"
        }
      ],
      "name": "isPartner",
      "outputs": [
        {
          "internalType": "bool",
          "name": "",
          "type": "bool"
        }
      ],
      "stateMutability": "view",
      "type": "function"
    },
    {
      "inputs": [
        {
          "internalType": "address",
          "name": "_account",
          "type": "address"
        },
        {
          "internalType": "address",
          "name": "_collateralToken",
          "type": "address"
        },
        {
          "internalType": "address",
          "name": "_indexToken",
          "type": "address"
        },
        {
          "internalType": "bool",
          "name": "_isLong",
          "type": "bool"
        },
        {
          "internalType": "address",
          "name": "_feeReceiver",
          "type": "address"
        }
      ],
      "name": "liquidatePosition",
      "outputs": [],
      "stateMutability": "nonpayable",
      "type": "function"
    },
    {
      "inputs": [
        {
          "internalType": "address",
          "name": "",
          "type": "address"
        }
      ],
      "name": "maxGlobalLongSizes",
      "outputs": [
        {
          "internalType": "uint256",
          "name": "",
          "type": "uint256"
        }
      ],
      "stateMutability": "view",
      "type": "function"
    },
    {
      "inputs": [
        {
          "internalType": "address",
          "name": "",
          "type": "address"
        }
      ],
      "name": "maxGlobalShortSizes",
      "outputs": [
        {
          "internalType": "uint256",
          "name": "",
          "type": "uint256"
        }
      ],
      "stateMutability": "view",
      "type": "function"
    },
    {
      "inputs": [],
      "name": "orderBook",
      "outputs": [
        {
          "internalType": "address",
          "name": "",
          "type": "address"
        }
      ],
      "stateMutability": "view",
      "type": "function"
    },
    {
      "inputs": [],
      "name": "referralStorage",
      "outputs": [
        {
          "internalType": "address",
          "name": "",
          "type": "address"
        }
      ],
      "stateMutability": "view",
      "type": "function"
    },
    {
      "inputs": [],
      "name": "router",
      "outputs": [
        {
          "internalType": "address",
          "name": "",
          "type": "address"
        }
      ],
      "stateMutability": "view",
      "type": "function"
    },
    {
      "inputs": [
        {
          "internalType": "address payable",
          "name": "_receiver",
          "type": "address"
        },
        {
          "internalType": "uint256",
          "name": "_amount",
          "type": "uint256"
        }
      ],
      "name": "sendValue",
      "outputs": [],
      "stateMutability": "nonpayable",
      "type": "function"
    },
    {
      "inputs": [
        {
          "internalType": "address",
          "name": "_admin",
          "type": "address"
        }
      ],
      "name": "setAdmin",
      "outputs": [],
      "stateMutability": "nonpayable",
      "type": "function"
    },
    {
      "inputs": [
        {
          "internalType": "uint256",
          "name": "_depositFee",
          "type": "uint256"
        }
      ],
      "name": "setDepositFee",
      "outputs": [],
      "stateMutability": "nonpayable",
      "type": "function"
    },
    {
      "inputs": [
        {
          "internalType": "address",
          "name": "_gov",
          "type": "address"
        }
      ],
      "name": "setGov",
      "outputs": [],
      "stateMutability": "nonpayable",
      "type": "function"
    },
    {
      "inputs": [
        {
          "internalType": "bool",
          "name": "_inLegacyMode",
          "type": "bool"
        }
      ],
      "name": "setInLegacyMode",
      "outputs": [],
      "stateMutability": "nonpayable",
      "type": "function"
    },
    {
      "inputs": [
        {
          "internalType": "uint256",
          "name": "_increasePositionBufferBps",
          "type": "uint256"
        }
      ],
      "name": "setIncreasePositionBufferBps",
      "outputs": [],
      "stateMutability": "nonpayable",
      "type": "function"
    },
    {
      "inputs": [
        {
          "internalType": "address",
          "name": "_account",
          "type": "address"
        },
        {
          "internalType": "bool",
          "name": "_isActive",
          "type": "bool"
        }
      ],
      "name": "setLiquidator",
      "outputs": [],
      "stateMutability": "nonpayable",
      "type": "function"
    },
    {
      "inputs": [
        {
          "internalType": "address[]",
          "name": "_tokens",
          "type": "address[]"
        },
        {
          "internalType": "uint256[]",
          "name": "_longSizes",
          "type": "uint256[]"
        },
        {
          "internalType": "uint256[]",
          "name": "_shortSizes",
          "type": "uint256[]"
        }
      ],
      "name": "setMaxGlobalSizes",
      "outputs": [],
      "stateMutability": "nonpayable",
      "type": "function"
    },
    {
      "inputs": [
        {
          "internalType": "address",
          "name": "_account",
          "type": "address"
        },
        {
          "internalType": "bool",
          "name": "_isActive",
          "type": "bool"
        }
      ],
      "name": "setOrderKeeper",
      "outputs": [],
      "stateMutability": "nonpayable",
      "type": "function"
    },
    {
      "inputs": [
        {
          "internalType": "address",
          "name": "_account",
          "type": "address"
        },
        {
          "internalType": "bool",
          "name": "_isActive",
          "type": "bool"
        }
      ],
      "name": "setPartner",
      "outputs": [],
      "stateMutability": "nonpayable",
      "type": "function"
    },
    {
      "inputs": [
        {
          "internalType": "address",
          "name": "_referralStorage",
          "type": "address"
        }
      ],
      "name": "setReferralStorage",
      "outputs": [],
      "stateMutability": "nonpayable",
      "type": "function"
    },
    {
      "inputs": [
        {
          "internalType": "bool",
          "name": "_shouldValidateIncreaseOrder",
          "type": "bool"
        }
      ],
      "name": "setShouldValidateIncreaseOrder",
      "outputs": [],
      "stateMutability": "nonpayable",
      "type": "function"
    },
    {
      "inputs": [],
      "name": "shortsTracker",
      "outputs": [
        {
          "internalType": "address",
          "name": "",
          "type": "address"
        }
      ],
      "stateMutability": "view",
      "type": "function"
    },
    {
      "inputs": [],
      "name": "shouldValidateIncreaseOrder",
      "outputs": [
        {
          "internalType": "bool",
          "name": "",
          "type": "bool"
        }
      ],
      "stateMutability": "view",
      "type": "function"
    },
    {
      "inputs": [],
      "name": "vault",
      "outputs": [
        {
          "internalType": "address",
          "name": "",
          "type": "address"
        }
      ],
      "stateMutability": "view",
      "type": "function"
    },
    {
      "inputs": [],
      "name": "weth",
      "outputs": [
        {
          "internalType": "address",
          "name": "",
          "type": "address"
        }
      ],
      "stateMutability": "view",
      "type": "function"
    },
    {
      "inputs": [
        {
          "internalType": "address",
          "name": "_token",
          "type": "address"
        },
        {
          "internalType": "address",
          "name": "_receiver",
          "type": "address"
        }
      ],
      "name": "withdrawFees",
      "outputs": [],
      "stateMutability": "nonpayable",
      "type": "function"
    },
    {
      "stateMutability": "payable",
      "type": "receive"
    }
  ],
  "bytecode": "0x608060405260646008556001600d60156101000a81548160ff0219169083151502179055503480156200003157600080fd5b50604051620082ab380380620082ab833981810160405260c08110156200005757600080fd5b810190808051906020019092919080519060200190929190805190602001909291908051906020019092919080519060200190929190805190602001909291905050508585858585600160008190555033600160006101000a81548173ffffffffffffffffffffffffffffffffffffffff021916908373ffffffffffffffffffffffffffffffffffffffff16021790555084600360006101000a81548173ffffffffffffffffffffffffffffffffffffffff021916908373ffffffffffffffffffffffffffffffffffffffff16021790555083600560006101000a81548173ffffffffffffffffffffffffffffffffffffffff021916908373ffffffffffffffffffffffffffffffffffffffff16021790555081600660006101000a81548173ffffffffffffffffffffffffffffffffffffffff021916908373ffffffffffffffffffffffffffffffffffffffff1602179055508060078190555082600460006101000a81548173ffffffffffffffffffffffffffffffffffffffff021916908373ffffffffffffffffffffffffffffffffffffffff16021790555033600260006101000a81548173ffffffffffffffffffffffffffffffffffffffff021916908373ffffffffffffffffffffffffffffffffffffffff160217905550505050505080600d60006101000a81548173ffffffffffffffffffffffffffffffffffffffff021916908373ffffffffffffffffffffffffffffffffffffffff16021790555050505050505061801b80620002906000396000f3fe60806040526004361061025f5760003560e01c8063657bc5d011610144578063b7ddc992116100b6578063e1f21c671161007a578063e1f21c671461131d578063ef12c67e14611398578063f255527814611585578063f851a440146115f6578063f887ea4014611637578063fbfa77cf146116785761030c565b8063b7ddc9921461104e578063cfad57a214611167578063d38ab519146111b8578063d4ca83f914611233578063de2ea948146112605761030c565b806390205d8c1161010857806390205d8c14610d735780639698d25a14610e2e57806398d1e03a14610e935780639c95332f14610ebe578063ae4d7f9a14610efb578063b32755de14610f4c5761030c565b8063657bc5d014610c0e57806367a5279314610c4f578063704b6c0214610c7a578063776af5ba14610ccb5780638c0f9aac14610d0c5761030c565b8063233bfe3b116101dd578063430ed37c116101a1578063430ed37c146108ed5780634453a374146109a85780634584bd4b14610a05578063490ae21014610a32578063529a356f14610a6d5780635fc8500e14610ad45761030c565b8063233bfe3b1461067557806324a084df146106b05780633039e37f1461070b5780633833f5f5146108455780633fc8cef3146108ac5761030c565b806312d43a511161022457806312d43a51146104d85780631b904359146105195780631ce9cb8f146105565780631e261538146105bb57806321acf659146106185761030c565b80626cc35e1461031157806307c7edc3146103525780631045c74e146103cd57806311d9444a14610432578063126082cf146104ad5761030c565b3661030c57600660009054906101000a900473ffffffffffffffffffffffffffffffffffffffff1673ffffffffffffffffffffffffffffffffffffffff163373ffffffffffffffffffffffffffffffffffffffff161461030a576040517f08c379a0000000000000000000000000000000000000000000000000000000008152600401808060200182810382526023815260200180617f746023913960400191505060405180910390fd5b005b600080fd5b34801561031d57600080fd5b506103266116b9565b604051808273ffffffffffffffffffffffffffffffffffffffff16815260200191505060405180910390f35b34801561035e57600080fd5b506103cb6004803603606081101561037557600080fd5b81019080803573ffffffffffffffffffffffffffffffffffffffff16906020019092919080359060200190929190803573ffffffffffffffffffffffffffffffffffffffff1690602001909291905050506116df565b005b3480156103d957600080fd5b5061041c600480360360208110156103f057600080fd5b81019080803573ffffffffffffffffffffffffffffffffffffffff16906020019092919050505061186c565b6040518082815260200191505060405180910390f35b34801561043e57600080fd5b506104ab6004803603606081101561045557600080fd5b81019080803573ffffffffffffffffffffffffffffffffffffffff16906020019092919080359060200190929190803573ffffffffffffffffffffffffffffffffffffffff169060200190929190505050611884565b005b3480156104b957600080fd5b506104c2611f4d565b6040518082815260200191505060405180910390f35b3480156104e457600080fd5b506104ed611f53565b604051808273ffffffffffffffffffffffffffffffffffffffff16815260200191505060405180910390f35b34801561052557600080fd5b506105546004803603602081101561053c57600080fd5b81019080803515159060200190929190505050611f79565b005b34801561056257600080fd5b506105a56004803603602081101561057957600080fd5b81019080803573ffffffffffffffffffffffffffffffffffffffff169060200190929190505050612092565b6040518082815260200191505060405180910390f35b3480156105c757600080fd5b50610616600480360360408110156105de57600080fd5b81019080803573ffffffffffffffffffffffffffffffffffffffff1690602001909291908035151590602001909291905050506120aa565b005b34801561062457600080fd5b506106736004803603604081101561063b57600080fd5b81019080803573ffffffffffffffffffffffffffffffffffffffff169060200190929190803515159060200190929190505050612218565b005b34801561068157600080fd5b506106ae6004803603602081101561069857600080fd5b810190808035906020019092919050505061238d565b005b3480156106bc57600080fd5b50610709600480360360408110156106d357600080fd5b81019080803573ffffffffffffffffffffffffffffffffffffffff16906020019092919080359060200190929190505050612491565b005b34801561071757600080fd5b50610843600480360361010081101561072f57600080fd5b810190808035906020019064010000000081111561074c57600080fd5b82018360208201111561075e57600080fd5b8035906020019184602083028401116401000000008311171561078057600080fd5b919080806020026020016040519081016040528093929190818152602001838360200280828437600081840152601f19601f820116905080830192505050505050509192919290803573ffffffffffffffffffffffffffffffffffffffff1690602001909291908035906020019092919080359060200190929190803515159060200190929190803573ffffffffffffffffffffffffffffffffffffffff1690602001909291908035906020019092919080359060200190929190505050612581565b005b34801561085157600080fd5b506108946004803603602081101561086857600080fd5b81019080803573ffffffffffffffffffffffffffffffffffffffff1690602001909291905050506128c2565b60405180821515815260200191505060405180910390f35b3480156108b857600080fd5b506108c16128e2565b604051808273ffffffffffffffffffffffffffffffffffffffff16815260200191505060405180910390f35b3480156108f957600080fd5b506109a6600480360360e081101561091057600080fd5b81019080803573ffffffffffffffffffffffffffffffffffffffff169060200190929190803573ffffffffffffffffffffffffffffffffffffffff1690602001909291908035906020019092919080359060200190929190803515159060200190929190803573ffffffffffffffffffffffffffffffffffffffff16906020019092919080359060200190929190505050612908565b005b3480156109b457600080fd5b50610a03600480360360408110156109cb57600080fd5b81019080803573ffffffffffffffffffffffffffffffffffffffff169060200190929190803515159060200190929190505050612b35565b005b348015610a1157600080fd5b50610a1a612ca3565b60405180821515815260200191505060405180910390f35b348015610a3e57600080fd5b50610a6b60048036036020811015610a5557600080fd5b8101908080359060200190929190505050612cb6565b005b348015610a7957600080fd5b50610abc60048036036020811015610a9057600080fd5b81019080803573ffffffffffffffffffffffffffffffffffffffff169060200190929190505050612dba565b60405180821515815260200191505060405180910390f35b348015610ae057600080fd5b50610c0c6004803603610100811015610af857600080fd5b8101908080359060200190640100000000811115610b1557600080fd5b820183602082011115610b2757600080fd5b80359060200191846020830284011164010000000083111715610b4957600080fd5b919080806020026020016040519081016040528093929190818152602001838360200280828437600081840152601f19601f820116905080830192505050505050509192919290803573ffffffffffffffffffffffffffffffffffffffff1690602001909291908035906020019092919080359060200190929190803515159060200190929190803573ffffffffffffffffffffffffffffffffffffffff1690602001909291908035906020019092919080359060200190929190505050612dda565b005b348015610c1a57600080fd5b50610c23613033565b604051808273ffffffffffffffffffffffffffffffffffffffff16815260200191505060405180910390f35b348015610c5b57600080fd5b50610c64613059565b6040518082815260200191505060405180910390f35b348015610c8657600080fd5b50610cc960048036036020811015610c9d57600080fd5b81019080803573ffffffffffffffffffffffffffffffffffffffff16906020019092919050505061305f565b005b348015610cd757600080fd5b50610ce06131b3565b604051808273ffffffffffffffffffffffffffffffffffffffff16815260200191505060405180910390f35b348015610d1857600080fd5b50610d5b60048036036020811015610d2f57600080fd5b81019080803573ffffffffffffffffffffffffffffffffffffffff1690602001909291905050506131d9565b60405180821515815260200191505060405180910390f35b348015610d7f57600080fd5b50610e2c600480360360e0811015610d9657600080fd5b81019080803573ffffffffffffffffffffffffffffffffffffffff169060200190929190803573ffffffffffffffffffffffffffffffffffffffff1690602001909291908035906020019092919080359060200190929190803515159060200190929190803573ffffffffffffffffffffffffffffffffffffffff169060200190929190803590602001909291905050506131f9565b005b348015610e3a57600080fd5b50610e7d60048036036020811015610e5157600080fd5b81019080803573ffffffffffffffffffffffffffffffffffffffff169060200190929190505050613372565b6040518082815260200191505060405180910390f35b348015610e9f57600080fd5b50610ea861338a565b6040518082815260200191505060405180910390f35b348015610eca57600080fd5b50610ef960048036036020811015610ee157600080fd5b81019080803515159060200190929190505050613390565b005b348015610f0757600080fd5b50610f4a60048036036020811015610f1e57600080fd5b81019080803573ffffffffffffffffffffffffffffffffffffffff1690602001909291905050506134a9565b005b61104c600480360360c0811015610f6257600080fd5b8101908080359060200190640100000000811115610f7f57600080fd5b820183602082011115610f9157600080fd5b80359060200191846020830284011164010000000083111715610fb357600080fd5b919080806020026020016040519081016040528093929190818152602001838360200280828437600081840152601f19601f820116905080830192505050505050509192919290803573ffffffffffffffffffffffffffffffffffffffff1690602001909291908035906020019092919080359060200190929190803515159060200190929190803590602001909291905050506135fd565b005b34801561105a57600080fd5b50611165600480360360e081101561107157600080fd5b810190808035906020019064010000000081111561108e57600080fd5b8201836020820111156110a057600080fd5b803590602001918460208302840111640100000000831117156110c257600080fd5b919080806020026020016040519081016040528093929190818152602001838360200280828437600081840152601f19601f820116905080830192505050505050509192919290803573ffffffffffffffffffffffffffffffffffffffff169060200190929190803590602001909291908035906020019092919080359060200190929190803515159060200190929190803590602001909291905050506139dc565b005b34801561117357600080fd5b506111b66004803603602081101561118a57600080fd5b81019080803573ffffffffffffffffffffffffffffffffffffffff169060200190929190505050613e85565b005b3480156111c457600080fd5b50611231600480360360608110156111db57600080fd5b81019080803573ffffffffffffffffffffffffffffffffffffffff16906020019092919080359060200190929190803573ffffffffffffffffffffffffffffffffffffffff169060200190929190505050613f8c565b005b34801561123f57600080fd5b5061124861466a565b60405180821515815260200191505060405180910390f35b34801561126c57600080fd5b5061131b600480360360a081101561128357600080fd5b81019080803573ffffffffffffffffffffffffffffffffffffffff169060200190929190803573ffffffffffffffffffffffffffffffffffffffff169060200190929190803573ffffffffffffffffffffffffffffffffffffffff169060200190929190803515159060200190929190803573ffffffffffffffffffffffffffffffffffffffff16906020019092919050505061467d565b005b34801561132957600080fd5b506113966004803603606081101561134057600080fd5b81019080803573ffffffffffffffffffffffffffffffffffffffff169060200190929190803573ffffffffffffffffffffffffffffffffffffffff16906020019092919080359060200190929190505050614e17565b005b3480156113a457600080fd5b50611583600480360360608110156113bb57600080fd5b81019080803590602001906401000000008111156113d857600080fd5b8201836020820111156113ea57600080fd5b8035906020019184602083028401116401000000008311171561140c57600080fd5b919080806020026020016040519081016040528093929190818152602001838360200280828437600081840152601f19601f8201169050808301925050505050505091929192908035906020019064010000000081111561146c57600080fd5b82018360208201111561147e57600080fd5b803590602001918460208302840111640100000000831117156114a057600080fd5b919080806020026020016040519081016040528093929190818152602001838360200280828437600081840152601f19601f8201169050808301925050505050505091929192908035906020019064010000000081111561150057600080fd5b82018360208201111561151257600080fd5b8035906020019184602083028401116401000000008311171561153457600080fd5b919080806020026020016040519081016040528093929190818152602001838360200280828437600081840152601f19601f820116905080830192505050505050509192919290505050614f8c565b005b34801561159157600080fd5b506115f4600480360360408110156115a857600080fd5b81019080803573ffffffffffffffffffffffffffffffffffffffff169060200190929190803573ffffffffffffffffffffffffffffffffffffffff16906020019092919050505061523f565b005b34801561160257600080fd5b5061160b61543e565b604051808273ffffffffffffffffffffffffffffffffffffffff16815260200191505060405180910390f35b34801561164357600080fd5b5061164c615464565b604051808273ffffffffffffffffffffffffffffffffffffffff16815260200191505060405180910390f35b34801561168457600080fd5b5061168d61548a565b604051808273ffffffffffffffffffffffffffffffffffffffff16815260200191505060405180910390f35b600960009054906101000a900473ffffffffffffffffffffffffffffffffffffffff1681565b600e60003373ffffffffffffffffffffffffffffffffffffffff1673ffffffffffffffffffffffffffffffffffffffff16815260200190815260200160002060009054906101000a900460ff1661179e576040517f08c379a000000000000000000000000000000000000000000000000000000000815260040180806020018281038252601a8152602001807f506f736974696f6e4d616e616765723a20666f7262696464656e00000000000081525060200191505060405180910390fd5b600d60009054906101000a900473ffffffffffffffffffffffffffffffffffffffff1673ffffffffffffffffffffffffffffffffffffffff166307c7edc38484846040518463ffffffff1660e01b8152600401808473ffffffffffffffffffffffffffffffffffffffff1681526020018381526020018273ffffffffffffffffffffffffffffffffffffffff1681526020019350505050600060405180830381600087803b15801561184f57600080fd5b505af1158015611863573d6000803e3d6000fd5b50505050505050565b600b6020528060005260406000206000915090505481565b600e60003373ffffffffffffffffffffffffffffffffffffffff1673ffffffffffffffffffffffffffffffffffffffff16815260200190815260200160002060009054906101000a900460ff16611943576040517f08c379a000000000000000000000000000000000000000000000000000000000815260040180806020018281038252601a8152602001807f506f736974696f6e4d616e616765723a20666f7262696464656e00000000000081525060200191505060405180910390fd5b6000600360009054906101000a900473ffffffffffffffffffffffffffffffffffffffff16905060008173ffffffffffffffffffffffffffffffffffffffff166312d43a516040518163ffffffff1660e01b815260040160206040518083038186803b1580156119b257600080fd5b505afa1580156119c6573d6000803e3d6000fd5b505050506040513d60208110156119dc57600080fd5b81019080805190602001909291905050509050600080600080600d60009054906101000a900473ffffffffffffffffffffffffffffffffffffffff1673ffffffffffffffffffffffffffffffffffffffff1663026032ee8a8a6040518363ffffffff1660e01b8152600401808373ffffffffffffffffffffffffffffffffffffffff168152602001828152602001925050506101006040518083038186803b158015611a8757600080fd5b505afa158015611a9b573d6000803e3d6000fd5b505050506040513d610100811015611ab257600080fd5b810190808051906020019092919080519060200190929190805190602001909291908051906020019092919080519060200190929190805190602001909291908051906020019092919080519060200190929190505050505050945094509450509350600081611bc3578673ffffffffffffffffffffffffffffffffffffffff1663e124e6d2856040518263ffffffff1660e01b8152600401808273ffffffffffffffffffffffffffffffffffffffff16815260200191505060206040518083038186803b158015611b8357600080fd5b505afa158015611b97573d6000803e3d6000fd5b505050506040513d6020811015611bad57600080fd5b8101908080519060200190929190505050611c66565b8673ffffffffffffffffffffffffffffffffffffffff166381a612d6856040518263ffffffff1660e01b8152600401808273ffffffffffffffffffffffffffffffffffffffff16815260200191505060206040518083038186803b158015611c2a57600080fd5b505afa158015611c3e573d6000803e3d6000fd5b505050506040513d6020811015611c5457600080fd5b81019080805190602001909291905050505b9050600460009054906101000a900473ffffffffffffffffffffffffffffffffffffffff1673ffffffffffffffffffffffffffffffffffffffff1663f3238cec8b878786888760006040518863ffffffff1660e01b8152600401808873ffffffffffffffffffffffffffffffffffffffff1681526020018773ffffffffffffffffffffffffffffffffffffffff1681526020018673ffffffffffffffffffffffffffffffffffffffff16815260200185151581526020018481526020018381526020018215158152602001975050505050505050600060405180830381600087803b158015611d5457600080fd5b505af1158015611d68573d6000803e3d6000fd5b505050508573ffffffffffffffffffffffffffffffffffffffff16636d63c1d0886040518263ffffffff1660e01b8152600401808273ffffffffffffffffffffffffffffffffffffffff168152602001915050600060405180830381600087803b158015611dd557600080fd5b505af1158015611de9573d6000803e3d6000fd5b50505050600d60009054906101000a900473ffffffffffffffffffffffffffffffffffffffff1673ffffffffffffffffffffffffffffffffffffffff166311d9444a8b8b8b6040518463ffffffff1660e01b8152600401808473ffffffffffffffffffffffffffffffffffffffff1681526020018381526020018273ffffffffffffffffffffffffffffffffffffffff1681526020019350505050600060405180830381600087803b158015611e9e57600080fd5b505af1158015611eb2573d6000803e3d6000fd5b505050508573ffffffffffffffffffffffffffffffffffffffff1663d3c87bbb886040518263ffffffff1660e01b8152600401808273ffffffffffffffffffffffffffffffffffffffff168152602001915050600060405180830381600087803b158015611f1f57600080fd5b505af1158015611f33573d6000803e3d6000fd5b50505050611f418a846154b0565b50505050505050505050565b61271081565b600160009054906101000a900473ffffffffffffffffffffffffffffffffffffffff1681565b600260009054906101000a900473ffffffffffffffffffffffffffffffffffffffff1673ffffffffffffffffffffffffffffffffffffffff163373ffffffffffffffffffffffffffffffffffffffff161461203c576040517f08c379a000000000000000000000000000000000000000000000000000000000815260040180806020018281038252601e8152602001807f42617365506f736974696f6e4d616e616765723a20666f7262696464656e000081525060200191505060405180910390fd5b80600d60156101000a81548160ff0219169083151502179055507fa956222e37fe025ff51e5440ac729a9bd417ff91e485e14dcffa2c0ba8894f408160405180821515815260200191505060405180910390a150565b600a6020528060005260406000206000915090505481565b600260009054906101000a900473ffffffffffffffffffffffffffffffffffffffff1673ffffffffffffffffffffffffffffffffffffffff163373ffffffffffffffffffffffffffffffffffffffff161461216d576040517f08c379a000000000000000000000000000000000000000000000000000000000815260040180806020018281038252601e8152602001807f42617365506f736974696f6e4d616e616765723a20666f7262696464656e000081525060200191505060405180910390fd5b80600e60008473ffffffffffffffffffffffffffffffffffffffff1673ffffffffffffffffffffffffffffffffffffffff16815260200190815260200160002060006101000a81548160ff0219169083151502179055508173ffffffffffffffffffffffffffffffffffffffff167f1d5bc0255b943d6a5b5279e8a55d74d620baccbceecb25e87a3558f14c4c118e8260405180821515815260200191505060405180910390a25050565b600260009054906101000a900473ffffffffffffffffffffffffffffffffffffffff1673ffffffffffffffffffffffffffffffffffffffff163373ffffffffffffffffffffffffffffffffffffffff16146122db576040517f08c379a000000000000000000000000000000000000000000000000000000000815260040180806020018281038252601e8152602001807f42617365506f736974696f6e4d616e616765723a20666f7262696464656e000081525060200191505060405180910390fd5b80600f60008473ffffffffffffffffffffffffffffffffffffffff1673ffffffffffffffffffffffffffffffffffffffff16815260200190815260200160002060006101000a81548160ff0219169083151502179055507fa4e46c70ff429a91de7d1716d736e877c7cca1c22ac850b23d242530dd95e4748282604051808373ffffffffffffffffffffffffffffffffffffffff16815260200182151581526020019250505060405180910390a15050565b600260009054906101000a900473ffffffffffffffffffffffffffffffffffffffff1673ffffffffffffffffffffffffffffffffffffffff163373ffffffffffffffffffffffffffffffffffffffff1614612450576040517f08c379a000000000000000000000000000000000000000000000000000000000815260040180806020018281038252601e8152602001807f42617365506f736974696f6e4d616e616765723a20666f7262696464656e000081525060200191505060405180910390fd5b806008819055507f21167d0d4661af93817ebce920f18986eed3d75d5e1c03f2aed05efcbafbc452816040518082815260200191505060405180910390a150565b600160009054906101000a900473ffffffffffffffffffffffffffffffffffffffff1673ffffffffffffffffffffffffffffffffffffffff163373ffffffffffffffffffffffffffffffffffffffff1614612554576040517f08c379a00000000000000000000000000000000000000000000000000000000081526004018080602001828103825260158152602001807f476f7665726e61626c653a20666f7262696464656e000000000000000000000081525060200191505060405180910390fd5b61257d818373ffffffffffffffffffffffffffffffffffffffff1661570490919063ffffffff16565b5050565b600260005414156125fa576040517f08c379a000000000000000000000000000000000000000000000000000000000815260040180806020018281038252601f8152602001807f5265656e7472616e637947756172643a207265656e7472616e742063616c6c0081525060200191505060405180910390fd5b6002600081905550600f60003373ffffffffffffffffffffffffffffffffffffffff1673ffffffffffffffffffffffffffffffffffffffff16815260200190815260200160002060009054906101000a900460ff16806126665750600d60149054906101000a900460ff165b6126d8576040517f08c379a000000000000000000000000000000000000000000000000000000000815260040180806020018281038252601a8152602001807f506f736974696f6e4d616e616765723a20666f7262696464656e00000000000081525060200191505060405180910390fd5b6002885114612732576040517f08c379a0000000000000000000000000000000000000000000000000000000008152600401808060200182810382526025815260200180617fc16025913960400191505060405180910390fd5b600660009054906101000a900473ffffffffffffffffffffffffffffffffffffffff1673ffffffffffffffffffffffffffffffffffffffff168860018a51038151811061277b57fe5b602002602001015173ffffffffffffffffffffffffffffffffffffffff161461280c576040517f08c379a000000000000000000000000000000000000000000000000000000000815260040180806020018281038252601e8152602001807f506f736974696f6e4d616e616765723a20696e76616c6964205f70617468000081525060200191505060405180910390fd5b6000612832338a60008151811061281f57fe5b60200260200101518a8a8a8a308a61583e565b9050612895600360009054906101000a900473ffffffffffffffffffffffffffffffffffffffff16828b60008151811061286857fe5b602002602001015173ffffffffffffffffffffffffffffffffffffffff16615e5d9092919063ffffffff16565b60006128a28a8430615eff565b90506128ae8186615f9e565b505060016000819055505050505050505050565b600e6020528060005260406000206000915054906101000a900460ff1681565b600660009054906101000a900473ffffffffffffffffffffffffffffffffffffffff1681565b60026000541415612981576040517f08c379a000000000000000000000000000000000000000000000000000000000815260040180806020018281038252601f8152602001807f5265656e7472616e637947756172643a207265656e7472616e742063616c6c0081525060200191505060405180910390fd5b6002600081905550600f60003373ffffffffffffffffffffffffffffffffffffffff1673ffffffffffffffffffffffffffffffffffffffff16815260200190815260200160002060009054906101000a900460ff16806129ed5750600d60149054906101000a900460ff165b612a5f576040517f08c379a000000000000000000000000000000000000000000000000000000000815260040180806020018281038252601a8152602001807f506f736974696f6e4d616e616765723a20666f7262696464656e00000000000081525060200191505060405180910390fd5b600660009054906101000a900473ffffffffffffffffffffffffffffffffffffffff1673ffffffffffffffffffffffffffffffffffffffff168773ffffffffffffffffffffffffffffffffffffffff1614612b05576040517f08c379a0000000000000000000000000000000000000000000000000000000008152600401808060200182810382526029815260200180617f4b6029913960400191505060405180910390fd5b6000612b17338989898989308961583e565b9050612b238184615f9e565b50600160008190555050505050505050565b600260009054906101000a900473ffffffffffffffffffffffffffffffffffffffff1673ffffffffffffffffffffffffffffffffffffffff163373ffffffffffffffffffffffffffffffffffffffff1614612bf8576040517f08c379a000000000000000000000000000000000000000000000000000000000815260040180806020018281038252601e8152602001807f42617365506f736974696f6e4d616e616765723a20666f7262696464656e000081525060200191505060405180910390fd5b80601060008473ffffffffffffffffffffffffffffffffffffffff1673ffffffffffffffffffffffffffffffffffffffff16815260200190815260200160002060006101000a81548160ff0219169083151502179055508173ffffffffffffffffffffffffffffffffffffffff167f8c0d56805c3b43d441481229dc64bee168253ffe4305f37ab7cfe63b1c4268c68260405180821515815260200191505060405180910390a25050565b600d60159054906101000a900460ff1681565b600260009054906101000a900473ffffffffffffffffffffffffffffffffffffffff1673ffffffffffffffffffffffffffffffffffffffff163373ffffffffffffffffffffffffffffffffffffffff1614612d79576040517f08c379a000000000000000000000000000000000000000000000000000000000815260040180806020018281038252601e8152602001807f42617365506f736974696f6e4d616e616765723a20666f7262696464656e000081525060200191505060405180910390fd5b806007819055507f974fd3c1fcb4653dfc4fb740c4c692cd212d55c28f163f310128cb64d8300675816040518082815260200191505060405180910390a150565b60106020528060005260406000206000915054906101000a900460ff1681565b60026000541415612e53576040517f08c379a000000000000000000000000000000000000000000000000000000000815260040180806020018281038252601f8152602001807f5265656e7472616e637947756172643a207265656e7472616e742063616c6c0081525060200191505060405180910390fd5b6002600081905550600f60003373ffffffffffffffffffffffffffffffffffffffff1673ffffffffffffffffffffffffffffffffffffffff16815260200190815260200160002060009054906101000a900460ff1680612ebf5750600d60149054906101000a900460ff165b612f31576040517f08c379a000000000000000000000000000000000000000000000000000000000815260040180806020018281038252601a8152602001807f506f736974696f6e4d616e616765723a20666f7262696464656e00000000000081525060200191505060405180910390fd5b6002885114612f8b576040517f08c379a0000000000000000000000000000000000000000000000000000000008152600401808060200182810382526025815260200180617fc16025913960400191505060405180910390fd5b6000612fb1338a600081518110612f9e57fe5b60200260200101518a8a8a8a308a61583e565b9050613014600360009054906101000a900473ffffffffffffffffffffffffffffffffffffffff16828b600081518110612fe757fe5b602002602001015173ffffffffffffffffffffffffffffffffffffffff16615e5d9092919063ffffffff16565b61301f898386615eff565b505060016000819055505050505050505050565b600460009054906101000a900473ffffffffffffffffffffffffffffffffffffffff1681565b60075481565b600160009054906101000a900473ffffffffffffffffffffffffffffffffffffffff1673ffffffffffffffffffffffffffffffffffffffff163373ffffffffffffffffffffffffffffffffffffffff1614613122576040517f08c379a00000000000000000000000000000000000000000000000000000000081526004018080602001828103825260158152602001807f476f7665726e61626c653a20666f7262696464656e000000000000000000000081525060200191505060405180910390fd5b80600260006101000a81548173ffffffffffffffffffffffffffffffffffffffff021916908373ffffffffffffffffffffffffffffffffffffffff1602179055507f5a272403b402d892977df56625f4164ccaf70ca3863991c43ecfe76a6905b0a181604051808273ffffffffffffffffffffffffffffffffffffffff16815260200191505060405180910390a150565b600d60009054906101000a900473ffffffffffffffffffffffffffffffffffffffff1681565b600f6020528060005260406000206000915054906101000a900460ff1681565b60026000541415613272576040517f08c379a000000000000000000000000000000000000000000000000000000000815260040180806020018281038252601f8152602001807f5265656e7472616e637947756172643a207265656e7472616e742063616c6c0081525060200191505060405180910390fd5b6002600081905550600f60003373ffffffffffffffffffffffffffffffffffffffff1673ffffffffffffffffffffffffffffffffffffffff16815260200190815260200160002060009054906101000a900460ff16806132de5750600d60149054906101000a900460ff165b613350576040517f08c379a000000000000000000000000000000000000000000000000000000000815260040180806020018281038252601a8152602001807f506f736974696f6e4d616e616765723a20666f7262696464656e00000000000081525060200191505060405180910390fd5b613360338888888888888861583e565b50600160008190555050505050505050565b600c6020528060005260406000206000915090505481565b60085481565b600260009054906101000a900473ffffffffffffffffffffffffffffffffffffffff1673ffffffffffffffffffffffffffffffffffffffff163373ffffffffffffffffffffffffffffffffffffffff1614613453576040517f08c379a000000000000000000000000000000000000000000000000000000000815260040180806020018281038252601e8152602001807f42617365506f736974696f6e4d616e616765723a20666f7262696464656e000081525060200191505060405180910390fd5b80600d60146101000a81548160ff0219169083151502179055507feac6b3611e79ff0d8ea5daa8439f6b1ab7eea4ebf95f1dd360417f712c3fc3048160405180821515815260200191505060405180910390a150565b600260009054906101000a900473ffffffffffffffffffffffffffffffffffffffff1673ffffffffffffffffffffffffffffffffffffffff163373ffffffffffffffffffffffffffffffffffffffff161461356c576040517f08c379a000000000000000000000000000000000000000000000000000000000815260040180806020018281038252601e8152602001807f42617365506f736974696f6e4d616e616765723a20666f7262696464656e000081525060200191505060405180910390fd5b80600960006101000a81548173ffffffffffffffffffffffffffffffffffffffff021916908373ffffffffffffffffffffffffffffffffffffffff1602179055507f828abcccea18192c21d645e575652c49e20b986dab777906fc473d056b01b6a881604051808273ffffffffffffffffffffffffffffffffffffffff16815260200191505060405180910390a150565b60026000541415613676576040517f08c379a000000000000000000000000000000000000000000000000000000000815260040180806020018281038252601f8152602001807f5265656e7472616e637947756172643a207265656e7472616e742063616c6c0081525060200191505060405180910390fd5b6002600081905550600f60003373ffffffffffffffffffffffffffffffffffffffff1673ffffffffffffffffffffffffffffffffffffffff16815260200190815260200160002060009054906101000a900460ff16806136e25750600d60149054906101000a900460ff165b613754576040517f08c379a000000000000000000000000000000000000000000000000000000000815260040180806020018281038252601a8152602001807f506f736974696f6e4d616e616765723a20666f7262696464656e00000000000081525060200191505060405180910390fd5b600186511480613765575060028651145b6137ba576040517f08c379a0000000000000000000000000000000000000000000000000000000008152600401808060200182810382526025815260200180617fc16025913960400191505060405180910390fd5b600660009054906101000a900473ffffffffffffffffffffffffffffffffffffffff1673ffffffffffffffffffffffffffffffffffffffff168660008151811061380057fe5b602002602001015173ffffffffffffffffffffffffffffffffffffffff1614613891576040517f08c379a000000000000000000000000000000000000000000000000000000000815260040180806020018281038252601e8152602001807f506f736974696f6e4d616e616765723a20696e76616c6964205f70617468000081525060200191505060405180910390fd5b60003411156139a7576138a2616065565b600034905060018751111561392e57613920600360009054906101000a900473ffffffffffffffffffffffffffffffffffffffff1634600660009054906101000a900473ffffffffffffffffffffffffffffffffffffffff1673ffffffffffffffffffffffffffffffffffffffff16615e5d9092919063ffffffff16565b61392b878630615eff565b90505b600061393e3389848a888a6160f3565b90506139a4600360009054906101000a900473ffffffffffffffffffffffffffffffffffffffff16828a60018c51038151811061397757fe5b602002602001015173ffffffffffffffffffffffffffffffffffffffff16615e5d9092919063ffffffff16565b50505b6139cc33876001895103815181106139bb57fe5b602002602001015187868686616230565b6001600081905550505050505050565b60026000541415613a55576040517f08c379a000000000000000000000000000000000000000000000000000000000815260040180806020018281038252601f8152602001807f5265656e7472616e637947756172643a207265656e7472616e742063616c6c0081525060200191505060405180910390fd5b6002600081905550600f60003373ffffffffffffffffffffffffffffffffffffffff1673ffffffffffffffffffffffffffffffffffffffff16815260200190815260200160002060009054906101000a900460ff1680613ac15750600d60149054906101000a900460ff165b613b33576040517f08c379a000000000000000000000000000000000000000000000000000000000815260040180806020018281038252601a8152602001807f506f736974696f6e4d616e616765723a20666f7262696464656e00000000000081525060200191505060405180910390fd5b600187511480613b44575060028751145b613b99576040517f08c379a0000000000000000000000000000000000000000000000000000000008152600401808060200182810382526025815260200180617fc16025913960400191505060405180910390fd5b6000851115613e4f57600187511415613cac57600560009054906101000a900473ffffffffffffffffffffffffffffffffffffffff1673ffffffffffffffffffffffffffffffffffffffff16631b82787888600081518110613bf757fe5b60200260200101513330896040518563ffffffff1660e01b8152600401808573ffffffffffffffffffffffffffffffffffffffff1681526020018473ffffffffffffffffffffffffffffffffffffffff1681526020018373ffffffffffffffffffffffffffffffffffffffff168152602001828152602001945050505050600060405180830381600087803b158015613c8f57600080fd5b505af1158015613ca3573d6000803e3d6000fd5b50505050613dd7565b600560009054906101000a900473ffffffffffffffffffffffffffffffffffffffff1673ffffffffffffffffffffffffffffffffffffffff16631b82787888600081518110613cf757fe5b602002602001015133600360009054906101000a900473ffffffffffffffffffffffffffffffffffffffff16896040518563ffffffff1660e01b8152600401808573ffffffffffffffffffffffffffffffffffffffff1681526020018473ffffffffffffffffffffffffffffffffffffffff1681526020018373ffffffffffffffffffffffffffffffffffffffff168152602001828152602001945050505050600060405180830381600087803b158015613db157600080fd5b505af1158015613dc5573d6000803e3d6000fd5b50505050613dd4878530615eff565b94505b6000613de73389888a87896160f3565b9050613e4d600360009054906101000a900473ffffffffffffffffffffffffffffffffffffffff16828a60018c510381518110613e2057fe5b602002602001015173ffffffffffffffffffffffffffffffffffffffff16615e5d9092919063ffffffff16565b505b613e74338860018a510381518110613e6357fe5b602002602001015188868686616230565b600160008190555050505050505050565b600160009054906101000a900473ffffffffffffffffffffffffffffffffffffffff1673ffffffffffffffffffffffffffffffffffffffff163373ffffffffffffffffffffffffffffffffffffffff1614613f48576040517f08c379a00000000000000000000000000000000000000000000000000000000081526004018080602001828103825260158152602001807f476f7665726e61626c653a20666f7262696464656e000000000000000000000081525060200191505060405180910390fd5b80600160006101000a81548173ffffffffffffffffffffffffffffffffffffffff021916908373ffffffffffffffffffffffffffffffffffffffff16021790555050565b600e60003373ffffffffffffffffffffffffffffffffffffffff1673ffffffffffffffffffffffffffffffffffffffff16815260200190815260200160002060009054906101000a900460ff1661404b576040517f08c379a000000000000000000000000000000000000000000000000000000000815260040180806020018281038252601a8152602001807f506f736974696f6e4d616e616765723a20666f7262696464656e00000000000081525060200191505060405180910390fd5b6140558383616804565b6000600360009054906101000a900473ffffffffffffffffffffffffffffffffffffffff16905060008173ffffffffffffffffffffffffffffffffffffffff166312d43a516040518163ffffffff1660e01b815260040160206040518083038186803b1580156140c457600080fd5b505afa1580156140d8573d6000803e3d6000fd5b505050506040513d60208110156140ee57600080fd5b81019080805190602001909291905050509050600080600080600d60009054906101000a900473ffffffffffffffffffffffffffffffffffffffff1673ffffffffffffffffffffffffffffffffffffffff1663d3bab1d18a8a6040518363ffffffff1660e01b8152600401808373ffffffffffffffffffffffffffffffffffffffff168152602001828152602001925050506101206040518083038186803b15801561419957600080fd5b505afa1580156141ad573d6000803e3d6000fd5b505050506040513d6101208110156141c457600080fd5b81019080805190602001909291908051906020019092919080519060200190929190805190602001909291908051906020019092919080519060200190929190805190602001909291908051906020019092919080519060200190929190505050505050955095509550955050506000816142e0578673ffffffffffffffffffffffffffffffffffffffff166381a612d6856040518263ffffffff1660e01b8152600401808273ffffffffffffffffffffffffffffffffffffffff16815260200191505060206040518083038186803b1580156142a057600080fd5b505afa1580156142b4573d6000803e3d6000fd5b505050506040513d60208110156142ca57600080fd5b8101908080519060200190929190505050614383565b8673ffffffffffffffffffffffffffffffffffffffff1663e124e6d2856040518263ffffffff1660e01b8152600401808273ffffffffffffffffffffffffffffffffffffffff16815260200191505060206040518083038186803b15801561434757600080fd5b505afa15801561435b573d6000803e3d6000fd5b505050506040513d602081101561437157600080fd5b81019080805190602001909291905050505b9050600460009054906101000a900473ffffffffffffffffffffffffffffffffffffffff1673ffffffffffffffffffffffffffffffffffffffff1663f3238cec8b878786888760016040518863ffffffff1660e01b8152600401808873ffffffffffffffffffffffffffffffffffffffff1681526020018773ffffffffffffffffffffffffffffffffffffffff1681526020018673ffffffffffffffffffffffffffffffffffffffff16815260200185151581526020018481526020018381526020018215158152602001975050505050505050600060405180830381600087803b15801561447157600080fd5b505af1158015614485573d6000803e3d6000fd5b505050508573ffffffffffffffffffffffffffffffffffffffff16636d63c1d0886040518263ffffffff1660e01b8152600401808273ffffffffffffffffffffffffffffffffffffffff168152602001915050600060405180830381600087803b1580156144f257600080fd5b505af1158015614506573d6000803e3d6000fd5b50505050600d60009054906101000a900473ffffffffffffffffffffffffffffffffffffffff1673ffffffffffffffffffffffffffffffffffffffff1663d38ab5198b8b8b6040518463ffffffff1660e01b8152600401808473ffffffffffffffffffffffffffffffffffffffff1681526020018381526020018273ffffffffffffffffffffffffffffffffffffffff1681526020019350505050600060405180830381600087803b1580156145bb57600080fd5b505af11580156145cf573d6000803e3d6000fd5b505050508573ffffffffffffffffffffffffffffffffffffffff1663d3c87bbb886040518263ffffffff1660e01b8152600401808273ffffffffffffffffffffffffffffffffffffffff168152602001915050600060405180830381600087803b15801561463c57600080fd5b505af1158015614650573d6000803e3d6000fd5b5050505061465e8a84616d07565b50505050505050505050565b600d60149054906101000a900460ff1681565b600260005414156146f6576040517f08c379a000000000000000000000000000000000000000000000000000000000815260040180806020018281038252601f8152602001807f5265656e7472616e637947756172643a207265656e7472616e742063616c6c0081525060200191505060405180910390fd5b6002600081905550601060003373ffffffffffffffffffffffffffffffffffffffff1673ffffffffffffffffffffffffffffffffffffffff16815260200190815260200160002060009054906101000a900460ff166147bd576040517f08c379a000000000000000000000000000000000000000000000000000000000815260040180806020018281038252601a8152602001807f506f736974696f6e4d616e616765723a20666f7262696464656e00000000000081525060200191505060405180910390fd5b6000600360009054906101000a900473ffffffffffffffffffffffffffffffffffffffff16905060008173ffffffffffffffffffffffffffffffffffffffff166312d43a516040518163ffffffff1660e01b815260040160206040518083038186803b15801561482c57600080fd5b505afa158015614840573d6000803e3d6000fd5b505050506040513d602081101561485657600080fd5b810190808051906020019092919050505090506000600360009054906101000a900473ffffffffffffffffffffffffffffffffffffffff1673ffffffffffffffffffffffffffffffffffffffff16634a3f088d898989896040518563ffffffff1660e01b8152600401808573ffffffffffffffffffffffffffffffffffffffff1681526020018473ffffffffffffffffffffffffffffffffffffffff1681526020018373ffffffffffffffffffffffffffffffffffffffff16815260200182151581526020019450505050506101006040518083038186803b15801561493b57600080fd5b505afa15801561494f573d6000803e3d6000fd5b505050506040513d61010081101561496657600080fd5b810190808051906020019092919080519060200190929190805190602001909291908051906020019092919080519060200190929190805190602001909291908051906020019092919080519060200190929190505050505050505050509050600085614a74578373ffffffffffffffffffffffffffffffffffffffff1663e124e6d2886040518263ffffffff1660e01b8152600401808273ffffffffffffffffffffffffffffffffffffffff16815260200191505060206040518083038186803b158015614a3457600080fd5b505afa158015614a48573d6000803e3d6000fd5b505050506040513d6020811015614a5e57600080fd5b8101908080519060200190929190505050614b17565b8373ffffffffffffffffffffffffffffffffffffffff166381a612d6886040518263ffffffff1660e01b8152600401808273ffffffffffffffffffffffffffffffffffffffff16815260200191505060206040518083038186803b158015614adb57600080fd5b505afa158015614aef573d6000803e3d6000fd5b505050506040513d6020811015614b0557600080fd5b81019080805190602001909291905050505b9050600460009054906101000a900473ffffffffffffffffffffffffffffffffffffffff1673ffffffffffffffffffffffffffffffffffffffff1663f3238cec8a8a8a8a878760006040518863ffffffff1660e01b8152600401808873ffffffffffffffffffffffffffffffffffffffff1681526020018773ffffffffffffffffffffffffffffffffffffffff1681526020018673ffffffffffffffffffffffffffffffffffffffff16815260200185151581526020018481526020018381526020018215158152602001975050505050505050600060405180830381600087803b158015614c0557600080fd5b505af1158015614c19573d6000803e3d6000fd5b505050508273ffffffffffffffffffffffffffffffffffffffff16636d63c1d0856040518263ffffffff1660e01b8152600401808273ffffffffffffffffffffffffffffffffffffffff168152602001915050600060405180830381600087803b158015614c8657600080fd5b505af1158015614c9a573d6000803e3d6000fd5b505050508373ffffffffffffffffffffffffffffffffffffffff1663de2ea9488a8a8a8a8a6040518663ffffffff1660e01b8152600401808673ffffffffffffffffffffffffffffffffffffffff1681526020018573ffffffffffffffffffffffffffffffffffffffff1681526020018473ffffffffffffffffffffffffffffffffffffffff16815260200183151581526020018273ffffffffffffffffffffffffffffffffffffffff16815260200195505050505050600060405180830381600087803b158015614d6b57600080fd5b505af1158015614d7f573d6000803e3d6000fd5b505050508273ffffffffffffffffffffffffffffffffffffffff1663d3c87bbb856040518263ffffffff1660e01b8152600401808273ffffffffffffffffffffffffffffffffffffffff168152602001915050600060405180830381600087803b158015614dec57600080fd5b505af1158015614e00573d6000803e3d6000fd5b505050505050505060016000819055505050505050565b600160009054906101000a900473ffffffffffffffffffffffffffffffffffffffff1673ffffffffffffffffffffffffffffffffffffffff163373ffffffffffffffffffffffffffffffffffffffff1614614eda576040517f08c379a00000000000000000000000000000000000000000000000000000000081526004018080602001828103825260158152602001807f476f7665726e61626c653a20666f7262696464656e000000000000000000000081525060200191505060405180910390fd5b8273ffffffffffffffffffffffffffffffffffffffff1663095ea7b383836040518363ffffffff1660e01b8152600401808373ffffffffffffffffffffffffffffffffffffffff16815260200182815260200192505050602060405180830381600087803b158015614f4b57600080fd5b505af1158015614f5f573d6000803e3d6000fd5b505050506040513d6020811015614f7557600080fd5b810190808051906020019092919050505050505050565b600260009054906101000a900473ffffffffffffffffffffffffffffffffffffffff1673ffffffffffffffffffffffffffffffffffffffff163373ffffffffffffffffffffffffffffffffffffffff161461504f576040517f08c379a000000000000000000000000000000000000000000000000000000000815260040180806020018281038252601e8152602001807f42617365506f736974696f6e4d616e616765723a20666f7262696464656e000081525060200191505060405180910390fd5b60005b835181101561512f57600084828151811061506957fe5b6020026020010151905083828151811061507f57fe5b6020026020010151600b60008373ffffffffffffffffffffffffffffffffffffffff1673ffffffffffffffffffffffffffffffffffffffff168152602001908152602001600020819055508282815181106150d657fe5b6020026020010151600c60008373ffffffffffffffffffffffffffffffffffffffff1673ffffffffffffffffffffffffffffffffffffffff16815260200190815260200160002081905550508080600101915050615052565b507fae32d569b058895b9620d6552b09aaffedc9a6f396be4d595a224ad09f8b213983838360405180806020018060200180602001848103845287818151815260200191508051906020019060200280838360005b8381101561519f578082015181840152602081019050615184565b50505050905001848103835286818151815260200191508051906020019060200280838360005b838110156151e15780820151818401526020810190506151c6565b50505050905001848103825285818151815260200191508051906020019060200280838360005b83811015615223578082015181840152602081019050615208565b50505050905001965050505050505060405180910390a1505050565b600260009054906101000a900473ffffffffffffffffffffffffffffffffffffffff1673ffffffffffffffffffffffffffffffffffffffff163373ffffffffffffffffffffffffffffffffffffffff1614615302576040517f08c379a000000000000000000000000000000000000000000000000000000000815260040180806020018281038252601e8152602001807f42617365506f736974696f6e4d616e616765723a20666f7262696464656e000081525060200191505060405180910390fd5b6000600a60008473ffffffffffffffffffffffffffffffffffffffff1673ffffffffffffffffffffffffffffffffffffffff1681526020019081526020016000205490506000811415615355575061543a565b6000600a60008573ffffffffffffffffffffffffffffffffffffffff1673ffffffffffffffffffffffffffffffffffffffff168152602001908152602001600020819055506153c582828573ffffffffffffffffffffffffffffffffffffffff16615e5d9092919063ffffffff16565b7f4f1b51dd7a2fcb861aa2670f668be66835c4ee12b4bbbf037e4d0018f39819e4838383604051808473ffffffffffffffffffffffffffffffffffffffff1681526020018373ffffffffffffffffffffffffffffffffffffffff168152602001828152602001935050505060405180910390a1505b5050565b600260009054906101000a900473ffffffffffffffffffffffffffffffffffffffff1681565b600560009054906101000a900473ffffffffffffffffffffffffffffffffffffffff1681565b600360009054906101000a900473ffffffffffffffffffffffffffffffffffffffff1681565b6000600960009054906101000a900473ffffffffffffffffffffffffffffffffffffffff169050600073ffffffffffffffffffffffffffffffffffffffff168173ffffffffffffffffffffffffffffffffffffffff1614156155125750615700565b6000808273ffffffffffffffffffffffffffffffffffffffff1663534ef883866040518263ffffffff1660e01b8152600401808273ffffffffffffffffffffffffffffffffffffffff168152602001915050604080518083038186803b15801561557b57600080fd5b505afa15801561558f573d6000803e3d6000fd5b505050506040513d60408110156155a557600080fd5b810190808051906020019092919080519060200190929190505050915091506000801b8214156155d757505050615700565b7f474c763ff84bf2c2039a6d9fea955ecd0f724030e3c365b91169c6a16fe751b78585600360009054906101000a900473ffffffffffffffffffffffffffffffffffffffff1673ffffffffffffffffffffffffffffffffffffffff1663318bc6896040518163ffffffff1660e01b815260040160206040518083038186803b15801561566257600080fd5b505afa158015615676573d6000803e3d6000fd5b505050506040513d602081101561568c57600080fd5b81019080805190602001909291905050508585604051808673ffffffffffffffffffffffffffffffffffffffff1681526020018581526020018481526020018381526020018273ffffffffffffffffffffffffffffffffffffffff1681526020019550505050505060405180910390a15050505b5050565b8047101561577a576040517f08c379a000000000000000000000000000000000000000000000000000000000815260040180806020018281038252601d8152602001807f416464726573733a20696e73756666696369656e742062616c616e636500000081525060200191505060405180910390fd5b60008273ffffffffffffffffffffffffffffffffffffffff168260405180600001905060006040518083038185875af1925050503d80600081146157da576040519150601f19603f3d011682016040523d82523d6000602084013e6157df565b606091505b5050905080615839576040517f08c379a000000000000000000000000000000000000000000000000000000000815260040180806020018281038252603a815260200180617dea603a913960400191505060405180910390fd5b505050565b600080600360009054906101000a900473ffffffffffffffffffffffffffffffffffffffff169050600085615914578173ffffffffffffffffffffffffffffffffffffffff1663e124e6d28a6040518263ffffffff1660e01b8152600401808273ffffffffffffffffffffffffffffffffffffffff16815260200191505060206040518083038186803b1580156158d457600080fd5b505afa1580156158e8573d6000803e3d6000fd5b505050506040513d60208110156158fe57600080fd5b81019080805190602001909291905050506159b7565b8173ffffffffffffffffffffffffffffffffffffffff166381a612d68a6040518263ffffffff1660e01b8152600401808273ffffffffffffffffffffffffffffffffffffffff16815260200191505060206040518083038186803b15801561597b57600080fd5b505afa15801561598f573d6000803e3d6000fd5b505050506040513d60208110156159a557600080fd5b81019080805190602001909291905050505b90508515615a1d5783811015615a18576040517f08c379a0000000000000000000000000000000000000000000000000000000008152600401808060200182810382526030815260200180617e4a6030913960400191505060405180910390fd5b615a77565b83811115615a76576040517f08c379a0000000000000000000000000000000000000000000000000000000008152600401808060200182810382526031815260200180617eca6031913960400191505060405180910390fd5b5b60008273ffffffffffffffffffffffffffffffffffffffff166312d43a516040518163ffffffff1660e01b815260040160206040518083038186803b158015615abf57600080fd5b505afa158015615ad3573d6000803e3d6000fd5b505050506040513d6020811015615ae957600080fd5b81019080805190602001909291905050509050600460009054906101000a900473ffffffffffffffffffffffffffffffffffffffff1673ffffffffffffffffffffffffffffffffffffffff1663f3238cec8d8d8d8b8d8860006040518863ffffffff1660e01b8152600401808873ffffffffffffffffffffffffffffffffffffffff1681526020018773ffffffffffffffffffffffffffffffffffffffff1681526020018673ffffffffffffffffffffffffffffffffffffffff16815260200185151581526020018481526020018381526020018215158152602001975050505050505050600060405180830381600087803b158015615be857600080fd5b505af1158015615bfc573d6000803e3d6000fd5b505050508073ffffffffffffffffffffffffffffffffffffffff16636d63c1d0846040518263ffffffff1660e01b8152600401808273ffffffffffffffffffffffffffffffffffffffff168152602001915050600060405180830381600087803b158015615c6957600080fd5b505af1158015615c7d573d6000803e3d6000fd5b505050506000600560009054906101000a900473ffffffffffffffffffffffffffffffffffffffff1673ffffffffffffffffffffffffffffffffffffffff16632662166b8e8e8e8e8e8e8e6040518863ffffffff1660e01b8152600401808873ffffffffffffffffffffffffffffffffffffffff1681526020018773ffffffffffffffffffffffffffffffffffffffff1681526020018673ffffffffffffffffffffffffffffffffffffffff16815260200185815260200184815260200183151581526020018273ffffffffffffffffffffffffffffffffffffffff168152602001975050505050505050602060405180830381600087803b158015615d8257600080fd5b505af1158015615d96573d6000803e3d6000fd5b505050506040513d6020811015615dac57600080fd5b810190808051906020019092919050505090508173ffffffffffffffffffffffffffffffffffffffff1663d3c87bbb856040518263ffffffff1660e01b8152600401808273ffffffffffffffffffffffffffffffffffffffff168152602001915050600060405180830381600087803b158015615e2857600080fd5b505af1158015615e3c573d6000803e3d6000fd5b50505050615e4a8d8a6154b0565b8094505050505098975050505050505050565b615efa8363a9059cbb60e01b8484604051602401808373ffffffffffffffffffffffffffffffffffffffff16815260200182815260200192505050604051602081830303815290604052907bffffffffffffffffffffffffffffffffffffffffffffffffffffffff19166020820180517bffffffffffffffffffffffffffffffffffffffffffffffffffffffff8381831617835250505050616f48565b505050565b6000600284511415615f4657615f3f84600081518110615f1b57fe5b602002602001015185600181518110615f3057fe5b60200260200101518585617037565b9050615f97565b6040517f08c379a0000000000000000000000000000000000000000000000000000000008152600401808060200182810382526029815260200180617f226029913960400191505060405180910390fd5b9392505050565b600660009054906101000a900473ffffffffffffffffffffffffffffffffffffffff1673ffffffffffffffffffffffffffffffffffffffff16632e1a7d4d836040518263ffffffff1660e01b815260040180828152602001915050600060405180830381600087803b15801561601357600080fd5b505af1158015616027573d6000803e3d6000fd5b505050508073ffffffffffffffffffffffffffffffffffffffff166108fc839081150290604051600060405180830381858888f19350505050505050565b600034146160f157600660009054906101000a900473ffffffffffffffffffffffffffffffffffffffff1673ffffffffffffffffffffffffffffffffffffffff1663d0e30db0346040518263ffffffff1660e01b81526004016000604051808303818588803b1580156160d757600080fd5b505af11580156160eb573d6000803e3d6000fd5b50505050505b565b6000806161048888888888886171a3565b9050801561622157600061614b61271061613d61612e6007546127106174aa90919063ffffffff16565b8a6174f490919063ffffffff16565b61757a90919063ffffffff16565b9050600061616282896174aa90919063ffffffff16565b905060008960018b51038151811061617657fe5b602002602001015190506161d282600a60008473ffffffffffffffffffffffffffffffffffffffff1673ffffffffffffffffffffffffffffffffffffffff168152602001908152602001600020546175c490919063ffffffff16565b600a60008373ffffffffffffffffffffffffffffffffffffffff1673ffffffffffffffffffffffffffffffffffffffff1681526020019081526020016000208190555082945050505050616226565b859150505b9695505050505050565b6000600360009054906101000a900473ffffffffffffffffffffffffffffffffffffffff169050600083616305578173ffffffffffffffffffffffffffffffffffffffff166381a612d6876040518263ffffffff1660e01b8152600401808273ffffffffffffffffffffffffffffffffffffffff16815260200191505060206040518083038186803b1580156162c557600080fd5b505afa1580156162d9573d6000803e3d6000fd5b505050506040513d60208110156162ef57600080fd5b81019080805190602001909291905050506163a8565b8173ffffffffffffffffffffffffffffffffffffffff1663e124e6d2876040518263ffffffff1660e01b8152600401808273ffffffffffffffffffffffffffffffffffffffff16815260200191505060206040518083038186803b15801561636c57600080fd5b505afa158015616380573d6000803e3d6000fd5b505050506040513d602081101561639657600080fd5b81019080805190602001909291905050505b9050831561640e5782811115616409576040517f08c379a0000000000000000000000000000000000000000000000000000000008152600401808060200182810382526031815260200180617eca6031913960400191505060405180910390fd5b616468565b82811015616467576040517f08c379a0000000000000000000000000000000000000000000000000000000008152600401808060200182810382526030815260200180617e4a6030913960400191505060405180910390fd5b5b61647386858761764c565b60008273ffffffffffffffffffffffffffffffffffffffff166312d43a516040518163ffffffff1660e01b815260040160206040518083038186803b1580156164bb57600080fd5b505afa1580156164cf573d6000803e3d6000fd5b505050506040513d60208110156164e557600080fd5b81019080805190602001909291905050509050600460009054906101000a900473ffffffffffffffffffffffffffffffffffffffff1673ffffffffffffffffffffffffffffffffffffffff1663f3238cec8a8a8a898b8860016040518863ffffffff1660e01b8152600401808873ffffffffffffffffffffffffffffffffffffffff1681526020018773ffffffffffffffffffffffffffffffffffffffff1681526020018673ffffffffffffffffffffffffffffffffffffffff16815260200185151581526020018481526020018381526020018215158152602001975050505050505050600060405180830381600087803b1580156165e457600080fd5b505af11580156165f8573d6000803e3d6000fd5b505050508073ffffffffffffffffffffffffffffffffffffffff16636d63c1d0846040518263ffffffff1660e01b8152600401808273ffffffffffffffffffffffffffffffffffffffff168152602001915050600060405180830381600087803b15801561666557600080fd5b505af1158015616679573d6000803e3d6000fd5b50505050600560009054906101000a900473ffffffffffffffffffffffffffffffffffffffff1673ffffffffffffffffffffffffffffffffffffffff16631f1dd1768a8a8a8a8a6040518663ffffffff1660e01b8152600401808673ffffffffffffffffffffffffffffffffffffffff1681526020018573ffffffffffffffffffffffffffffffffffffffff1681526020018473ffffffffffffffffffffffffffffffffffffffff168152602001838152602001821515815260200195505050505050600060405180830381600087803b15801561675657600080fd5b505af115801561676a573d6000803e3d6000fd5b505050508073ffffffffffffffffffffffffffffffffffffffff1663d3c87bbb846040518263ffffffff1660e01b8152600401808273ffffffffffffffffffffffffffffffffffffffff168152602001915050600060405180830381600087803b1580156167d757600080fd5b505af11580156167eb573d6000803e3d6000fd5b505050506167f98987616d07565b505050505050505050565b600080600080600080600d60009054906101000a900473ffffffffffffffffffffffffffffffffffffffff1673ffffffffffffffffffffffffffffffffffffffff1663d3bab1d189896040518363ffffffff1660e01b8152600401808373ffffffffffffffffffffffffffffffffffffffff168152602001828152602001925050506101206040518083038186803b15801561689f57600080fd5b505afa1580156168b3573d6000803e3d6000fd5b505050506040513d6101208110156168ca57600080fd5b8101908080519060200190929190805190602001909291908051906020019092919080519060200190929190805190602001909291908051906020019092919080519060200190929190805190602001909291908051906020019092919050505050505095509550955095509550955061694583828461764c565b600d60159054906101000a900460ff1661696457505050505050616d03565b8061697457505050505050616d03565b600082116169ea576040517f08c379a000000000000000000000000000000000000000000000000000000000815260040180806020018281038252601d8152602001807f506f736974696f6e4d616e616765723a206c6f6e67206465706f73697400000081525060200191505060405180910390fd5b6000600360009054906101000a900473ffffffffffffffffffffffffffffffffffffffff1690506000808273ffffffffffffffffffffffffffffffffffffffff16634a3f088d8c8989886040518563ffffffff1660e01b8152600401808573ffffffffffffffffffffffffffffffffffffffff1681526020018473ffffffffffffffffffffffffffffffffffffffff1681526020018373ffffffffffffffffffffffffffffffffffffffff16815260200182151581526020019450505050506101006040518083038186803b158015616ac257600080fd5b505afa158015616ad6573d6000803e3d6000fd5b505050506040513d610100811015616aed57600080fd5b810190808051906020019092919080519060200190929190805190602001909291908051906020019092919080519060200190929190805190602001909291908051906020019092919080519060200190929190505050505050505050915091506000821415616b6557505050505050505050616d03565b6000616b7a86846175c490919063ffffffff16565b905060008473ffffffffffffffffffffffffffffffffffffffff16630a48d5a98c8c6040518363ffffffff1660e01b8152600401808373ffffffffffffffffffffffffffffffffffffffff1681526020018281526020019250505060206040518083038186803b158015616bed57600080fd5b505afa158015616c01573d6000803e3d6000fd5b505050506040513d6020811015616c1757600080fd5b810190808051906020019092919050505090506000616c3f82856175c490919063ffffffff16565b90506000616c6a85616c5c612710896174f490919063ffffffff16565b61757a90919063ffffffff16565b90506000616c9983616c8b60085461271001886174f490919063ffffffff16565b61757a90919063ffffffff16565b905081811015616cf4576040517f08c379a0000000000000000000000000000000000000000000000000000000008152600401808060200182810382526027815260200180617efb6027913960400191505060405180910390fd5b50505050505050505050505050505b5050565b6000600960009054906101000a900473ffffffffffffffffffffffffffffffffffffffff169050600073ffffffffffffffffffffffffffffffffffffffff168173ffffffffffffffffffffffffffffffffffffffff161415616d695750616f44565b6000808273ffffffffffffffffffffffffffffffffffffffff1663534ef883866040518263ffffffff1660e01b8152600401808273ffffffffffffffffffffffffffffffffffffffff168152602001915050604080518083038186803b158015616dd257600080fd5b505afa158015616de6573d6000803e3d6000fd5b505050506040513d6040811015616dfc57600080fd5b810190808051906020019092919080519060200190929190505050915091507fc2414023ce7002ee98557d1e7be21e5559073336f2217ee5f9b2e50fd85f71ee8585600360009054906101000a900473ffffffffffffffffffffffffffffffffffffffff1673ffffffffffffffffffffffffffffffffffffffff1663318bc6896040518163ffffffff1660e01b815260040160206040518083038186803b158015616ea657600080fd5b505afa158015616eba573d6000803e3d6000fd5b505050506040513d6020811015616ed057600080fd5b81019080805190602001909291905050508585604051808673ffffffffffffffffffffffffffffffffffffffff1681526020018581526020018481526020018381526020018273ffffffffffffffffffffffffffffffffffffffff1681526020019550505050505060405180910390a15050505b5050565b6060616faa826040518060400160405280602081526020017f5361666545524332303a206c6f772d6c6576656c2063616c6c206661696c65648152508573ffffffffffffffffffffffffffffffffffffffff1661796a9092919063ffffffff16565b905060008151111561703257808060200190516020811015616fcb57600080fd5b8101908080519060200190929190505050617031576040517f08c379a000000000000000000000000000000000000000000000000000000000815260040180806020018281038252602a815260200180617f97602a913960400191505060405180910390fd5b5b505050565b600080600360009054906101000a900473ffffffffffffffffffffffffffffffffffffffff1673ffffffffffffffffffffffffffffffffffffffff1663933162128787866040518463ffffffff1660e01b8152600401808473ffffffffffffffffffffffffffffffffffffffff1681526020018373ffffffffffffffffffffffffffffffffffffffff1681526020018273ffffffffffffffffffffffffffffffffffffffff1681526020019350505050602060405180830381600087803b15801561710157600080fd5b505af1158015617115573d6000803e3d6000fd5b505050506040513d602081101561712b57600080fd5b8101908080519060200190929190505050905083811015617197576040517f08c379a000000000000000000000000000000000000000000000000000000000815260040180806020018281038252602b815260200180617dbf602b913960400191505060405180910390fd5b80915050949350505050565b6000826171b357600090506174a0565b60008214156171c557600190506174a0565b6000866001885103815181106171d757fe5b602002602001015190506000600360009054906101000a900473ffffffffffffffffffffffffffffffffffffffff1690506000808273ffffffffffffffffffffffffffffffffffffffff16634a3f088d8c868b8b6040518563ffffffff1660e01b8152600401808573ffffffffffffffffffffffffffffffffffffffff1681526020018473ffffffffffffffffffffffffffffffffffffffff1681526020018373ffffffffffffffffffffffffffffffffffffffff16815260200182151581526020019450505050506101006040518083038186803b1580156172b957600080fd5b505afa1580156172cd573d6000803e3d6000fd5b505050506040513d6101008110156172e457600080fd5b81019080805190602001909291908051906020019092919080519060200190929190805190602001909291908051906020019092919080519060200190929190805190602001909291908051906020019092919050505050505050505091509150600082141561735b5760009450505050506174a0565b600061737087846175c490919063ffffffff16565b905060008473ffffffffffffffffffffffffffffffffffffffff16630a48d5a9878d6040518363ffffffff1660e01b8152600401808373ffffffffffffffffffffffffffffffffffffffff1681526020018281526020019250505060206040518083038186803b1580156173e357600080fd5b505afa1580156173f7573d6000803e3d6000fd5b505050506040513d602081101561740d57600080fd5b81019080805190602001909291905050509050600061743582856175c490919063ffffffff16565b9050600061746085617452612710896174f490919063ffffffff16565b61757a90919063ffffffff16565b9050600061748f8361748160085461271001886174f490919063ffffffff16565b61757a90919063ffffffff16565b905081811099505050505050505050505b9695505050505050565b60006174ec83836040518060400160405280601e81526020017f536166654d6174683a207375627472616374696f6e206f766572666c6f770000815250617982565b905092915050565b6000808314156175075760009050617574565b600082840290508284828161751857fe5b041461756f576040517f08c379a0000000000000000000000000000000000000000000000000000000008152600401808060200182810382526021815260200180617ea96021913960400191505060405180910390fd5b809150505b92915050565b60006175bc83836040518060400160405280601a81526020017f536166654d6174683a206469766973696f6e206279207a65726f000000000000815250617a42565b905092915050565b600080828401905083811015617642576040517f08c379a000000000000000000000000000000000000000000000000000000000815260040180806020018281038252601b8152602001807f536166654d6174683a206164646974696f6e206f766572666c6f77000000000081525060200191505060405180910390fd5b8091505092915050565b600081141561765a57617965565b81156177e4576000600b60008573ffffffffffffffffffffffffffffffffffffffff1673ffffffffffffffffffffffffffffffffffffffff16815260200190815260200160002054905060008111801561778857508061778683600360009054906101000a900473ffffffffffffffffffffffffffffffffffffffff1673ffffffffffffffffffffffffffffffffffffffff1663f07456ce886040518263ffffffff1660e01b8152600401808273ffffffffffffffffffffffffffffffffffffffff16815260200191505060206040518083038186803b15801561773d57600080fd5b505afa158015617751573d6000803e3d6000fd5b505050506040513d602081101561776757600080fd5b81019080805190602001909291905050506175c490919063ffffffff16565b115b156177de576040517f08c379a000000000000000000000000000000000000000000000000000000000815260040180806020018281038252602e815260200180617d91602e913960400191505060405180910390fd5b50617964565b6000600c60008573ffffffffffffffffffffffffffffffffffffffff1673ffffffffffffffffffffffffffffffffffffffff16815260200190815260200160002054905060008111801561790c57508061790a83600360009054906101000a900473ffffffffffffffffffffffffffffffffffffffff1673ffffffffffffffffffffffffffffffffffffffff16638a78daa8886040518263ffffffff1660e01b8152600401808273ffffffffffffffffffffffffffffffffffffffff16815260200191505060206040518083038186803b1580156178c157600080fd5b505afa1580156178d5573d6000803e3d6000fd5b505050506040513d60208110156178eb57600080fd5b81019080805190602001909291905050506175c490919063ffffffff16565b115b15617962576040517f08c379a000000000000000000000000000000000000000000000000000000000815260040180806020018281038252602f815260200180617e7a602f913960400191505060405180910390fd5b505b5b505050565b60606179798484600085617b08565b90509392505050565b6000838311158290617a2f576040517f08c379a00000000000000000000000000000000000000000000000000000000081526004018080602001828103825283818151815260200191508051906020019080838360005b838110156179f45780820151818401526020810190506179d9565b50505050905090810190601f168015617a215780820380516001836020036101000a031916815260200191505b509250505060405180910390fd5b5060008385039050809150509392505050565b60008083118290617aee576040517f08c379a00000000000000000000000000000000000000000000000000000000081526004018080602001828103825283818151815260200191508051906020019080838360005b83811015617ab3578082015181840152602081019050617a98565b50505050905090810190601f168015617ae05780820380516001836020036101000a031916815260200191505b509250505060405180910390fd5b506000838581617afa57fe5b049050809150509392505050565b606082471015617b63576040517f08c379a0000000000000000000000000000000000000000000000000000000008152600401808060200182810382526026815260200180617e246026913960400191505060405180910390fd5b617b6c85617cb1565b617bde576040517f08c379a000000000000000000000000000000000000000000000000000000000815260040180806020018281038252601d8152602001807f416464726573733a2063616c6c20746f206e6f6e2d636f6e747261637400000081525060200191505060405180910390fd5b600060608673ffffffffffffffffffffffffffffffffffffffff1685876040518082805190602001908083835b60208310617c2e5780518252602082019150602081019050602083039250617c0b565b6001836020036101000a03801982511681845116808217855250505050505090500191505060006040518083038185875af1925050503d8060008114617c90576040519150601f19603f3d011682016040523d82523d6000602084013e617c95565b606091505b5091509150617ca5828286617cc4565b92505050949350505050565b600080823b905060008111915050919050565b60608315617cd457829050617d89565b600083511115617ce75782518084602001fd5b816040517f08c379a00000000000000000000000000000000000000000000000000000000081526004018080602001828103825283818151815260200191508051906020019080838360005b83811015617d4e578082015181840152602081019050617d33565b50505050905090810190601f168015617d7b5780820380516001836020036101000a031916815260200191505b509250505060405180910390fd5b939250505056fe42617365506f736974696f6e4d616e616765723a206d617820676c6f62616c206c6f6e677320657863656564656442617365506f736974696f6e4d616e616765723a20696e73756666696369656e7420616d6f756e744f7574416464726573733a20756e61626c6520746f2073656e642076616c75652c20726563697069656e74206d61792068617665207265766572746564416464726573733a20696e73756666696369656e742062616c616e636520666f722063616c6c42617365506f736974696f6e4d616e616765723a206d61726b207072696365206c6f776572207468616e206c696d697442617365506f736974696f6e4d616e616765723a206d617820676c6f62616c2073686f727473206578636565646564536166654d6174683a206d756c7469706c69636174696f6e206f766572666c6f7742617365506f736974696f6e4d616e616765723a206d61726b20707269636520686967686572207468616e206c696d6974506f736974696f6e4d616e616765723a206c6f6e67206c6576657261676520646563726561736542617365506f736974696f6e4d616e616765723a20696e76616c6964205f706174682e6c656e677468506f736974696f6e4d616e616765723a20696e76616c6964205f636f6c6c61746572616c546f6b656e42617365506f736974696f6e4d616e616765723a20696e76616c69642073656e6465725361666545524332303a204552433230206f7065726174696f6e20646964206e6f742073756363656564506f736974696f6e4d616e616765723a20696e76616c6964205f706174682e6c656e677468a264697066735822122003dacdf5769de0f3d7242dacf3ac8a91367d0b6052e2fb1b26b83c0c71ca3bff64736f6c634300060c0033",
  "linkReferences": {},
  "deployedLinkReferences": {}
}