{
  "_format": "hh-sol-artifact-1",
  "contractName": "VaultPriceFeed",
  "sourceName": "contracts/gmx/core/VaultPriceFeed.sol",
  "abi": [
    {
      "inputs": [],
      "stateMutability": "nonpayable",
      "type": "constructor"
    },
    {
      "inputs": [],
      "name": "BASIS_POINTS_DIVISOR",
      "outputs": [
        {
          "internalType": "uint256",
          "name": "",
          "type": "uint256"
        }
      ],
      "stateMutability": "view",
      "type": "function"
    },
    {
      "inputs": [],
      "name": "MAX_ADJUSTMENT_BASIS_POINTS",
      "outputs": [
        {
          "internalType": "uint256",
          "name": "",
          "type": "uint256"
        }
      ],
      "stateMutability": "view",
      "type": "function"
    },
    {
      "inputs": [],
      "name": "MAX_ADJUSTMENT_INTERVAL",
      "outputs": [
        {
          "internalType": "uint256",
          "name": "",
          "type": "uint256"
        }
      ],
      "stateMutability": "view",
      "type": "function"
    },
    {
      "inputs": [],
      "name": "MAX_SPREAD_BASIS_POINTS",
      "outputs": [
        {
          "internalType": "uint256",
          "name": "",
          "type": "uint256"
        }
      ],
      "stateMutability": "view",
      "type": "function"
    },
    {
      "inputs": [],
      "name": "ONE_USD",
      "outputs": [
        {
          "internalType": "uint256",
          "name": "",
          "type": "uint256"
        }
      ],
      "stateMutability": "view",
      "type": "function"
    },
    {
      "inputs": [],
      "name": "PRICE_PRECISION",
      "outputs": [
        {
          "internalType": "uint256",
          "name": "",
          "type": "uint256"
        }
      ],
      "stateMutability": "view",
      "type": "function"
    },
    {
      "inputs": [
        {
          "internalType": "address",
          "name": "",
          "type": "address"
        }
      ],
      "name": "adjustmentBasisPoints",
      "outputs": [
        {
          "internalType": "uint256",
          "name": "",
          "type": "uint256"
        }
      ],
      "stateMutability": "view",
      "type": "function"
    },
    {
      "inputs": [],
      "name": "bnb",
      "outputs": [
        {
          "internalType": "address",
          "name": "",
          "type": "address"
        }
      ],
      "stateMutability": "view",
      "type": "function"
    },
    {
      "inputs": [],
      "name": "bnbBusd",
      "outputs": [
        {
          "internalType": "address",
          "name": "",
          "type": "address"
        }
      ],
      "stateMutability": "view",
      "type": "function"
    },
    {
      "inputs": [],
      "name": "btc",
      "outputs": [
        {
          "internalType": "address",
          "name": "",
          "type": "address"
        }
      ],
      "stateMutability": "view",
      "type": "function"
    },
    {
      "inputs": [],
      "name": "btcBnb",
      "outputs": [
        {
          "internalType": "address",
          "name": "",
          "type": "address"
        }
      ],
      "stateMutability": "view",
      "type": "function"
    },
    {
      "inputs": [],
      "name": "chainlinkFlags",
      "outputs": [
        {
          "internalType": "address",
          "name": "",
          "type": "address"
        }
      ],
      "stateMutability": "view",
      "type": "function"
    },
    {
      "inputs": [],
      "name": "eth",
      "outputs": [
        {
          "internalType": "address",
          "name": "",
          "type": "address"
        }
      ],
      "stateMutability": "view",
      "type": "function"
    },
    {
      "inputs": [],
      "name": "ethBnb",
      "outputs": [
        {
          "internalType": "address",
          "name": "",
          "type": "address"
        }
      ],
      "stateMutability": "view",
      "type": "function"
    },
    {
      "inputs": [],
      "name": "favorPrimaryPrice",
      "outputs": [
        {
          "internalType": "bool",
          "name": "",
          "type": "bool"
        }
      ],
      "stateMutability": "view",
      "type": "function"
    },
    {
      "inputs": [
        {
          "internalType": "address",
          "name": "_token",
          "type": "address"
        }
      ],
      "name": "getAmmPrice",
      "outputs": [
        {
          "internalType": "uint256",
          "name": "",
          "type": "uint256"
        }
      ],
      "stateMutability": "view",
      "type": "function"
    },
    {
      "inputs": [
        {
          "internalType": "address",
          "name": "_token",
          "type": "address"
        },
        {
          "internalType": "bool",
          "name": "_maximise",
          "type": "bool"
        },
        {
          "internalType": "uint256",
          "name": "_primaryPrice",
          "type": "uint256"
        }
      ],
      "name": "getAmmPriceV2",
      "outputs": [
        {
          "internalType": "uint256",
          "name": "",
          "type": "uint256"
        }
      ],
      "stateMutability": "view",
      "type": "function"
    },
    {
      "inputs": [
        {
          "internalType": "address",
          "name": "_token",
          "type": "address"
        }
      ],
      "name": "getLatestPrimaryPrice",
      "outputs": [
        {
          "internalType": "uint256",
          "name": "",
          "type": "uint256"
        }
      ],
      "stateMutability": "view",
      "type": "function"
    },
    {
      "inputs": [
        {
          "internalType": "address",
          "name": "_pair",
          "type": "address"
        },
        {
          "internalType": "bool",
          "name": "_divByReserve0",
          "type": "bool"
        }
      ],
      "name": "getPairPrice",
      "outputs": [
        {
          "internalType": "uint256",
          "name": "",
          "type": "uint256"
        }
      ],
      "stateMutability": "view",
      "type": "function"
    },
    {
      "inputs": [
        {
          "internalType": "address",
          "name": "_token",
          "type": "address"
        },
        {
          "internalType": "bool",
          "name": "_maximise",
          "type": "bool"
        },
        {
          "internalType": "bool",
          "name": "_includeAmmPrice",
          "type": "bool"
        },
        {
          "internalType": "bool",
          "name": "",
          "type": "bool"
        }
      ],
      "name": "getPrice",
      "outputs": [
        {
          "internalType": "uint256",
          "name": "",
          "type": "uint256"
        }
      ],
      "stateMutability": "view",
      "type": "function"
    },
    {
      "inputs": [
        {
          "internalType": "address",
          "name": "_token",
          "type": "address"
        },
        {
          "internalType": "bool",
          "name": "_maximise",
          "type": "bool"
        },
        {
          "internalType": "bool",
          "name": "_includeAmmPrice",
          "type": "bool"
        }
      ],
      "name": "getPriceV1",
      "outputs": [
        {
          "internalType": "uint256",
          "name": "",
          "type": "uint256"
        }
      ],
      "stateMutability": "view",
      "type": "function"
    },
    {
      "inputs": [
        {
          "internalType": "address",
          "name": "_token",
          "type": "address"
        },
        {
          "internalType": "bool",
          "name": "_maximise",
          "type": "bool"
        },
        {
          "internalType": "bool",
          "name": "_includeAmmPrice",
          "type": "bool"
        }
      ],
      "name": "getPriceV2",
      "outputs": [
        {
          "internalType": "uint256",
          "name": "",
          "type": "uint256"
        }
      ],
      "stateMutability": "view",
      "type": "function"
    },
    {
      "inputs": [
        {
          "internalType": "address",
          "name": "_token",
          "type": "address"
        },
        {
          "internalType": "bool",
          "name": "_maximise",
          "type": "bool"
        }
      ],
      "name": "getPrimaryPrice",
      "outputs": [
        {
          "internalType": "uint256",
          "name": "",
          "type": "uint256"
        }
      ],
      "stateMutability": "view",
      "type": "function"
    },
    {
      "inputs": [
        {
          "internalType": "address",
          "name": "_token",
          "type": "address"
        },
        {
          "internalType": "uint256",
          "name": "_referencePrice",
          "type": "uint256"
        },
        {
          "internalType": "bool",
          "name": "_maximise",
          "type": "bool"
        }
      ],
      "name": "getSecondaryPrice",
      "outputs": [
        {
          "internalType": "uint256",
          "name": "",
          "type": "uint256"
        }
      ],
      "stateMutability": "view",
      "type": "function"
    },
    {
      "inputs": [],
      "name": "gov",
      "outputs": [
        {
          "internalType": "address",
          "name": "",
          "type": "address"
        }
      ],
      "stateMutability": "view",
      "type": "function"
    },
    {
      "inputs": [
        {
          "internalType": "address",
          "name": "",
          "type": "address"
        }
      ],
      "name": "isAdjustmentAdditive",
      "outputs": [
        {
          "internalType": "bool",
          "name": "",
          "type": "bool"
        }
      ],
      "stateMutability": "view",
      "type": "function"
    },
    {
      "inputs": [],
      "name": "isAmmEnabled",
      "outputs": [
        {
          "internalType": "bool",
          "name": "",
          "type": "bool"
        }
      ],
      "stateMutability": "view",
      "type": "function"
    },
    {
      "inputs": [],
      "name": "isSecondaryPriceEnabled",
      "outputs": [
        {
          "internalType": "bool",
          "name": "",
          "type": "bool"
        }
      ],
      "stateMutability": "view",
      "type": "function"
    },
    {
      "inputs": [
        {
          "internalType": "address",
          "name": "",
          "type": "address"
        }
      ],
      "name": "lastAdjustmentTimings",
      "outputs": [
        {
          "internalType": "uint256",
          "name": "",
          "type": "uint256"
        }
      ],
      "stateMutability": "view",
      "type": "function"
    },
    {
      "inputs": [],
      "name": "maxStrictPriceDeviation",
      "outputs": [
        {
          "internalType": "uint256",
          "name": "",
          "type": "uint256"
        }
      ],
      "stateMutability": "view",
      "type": "function"
    },
    {
      "inputs": [
        {
          "internalType": "address",
          "name": "",
          "type": "address"
        }
      ],
      "name": "priceDecimals",
      "outputs": [
        {
          "internalType": "uint256",
          "name": "",
          "type": "uint256"
        }
      ],
      "stateMutability": "view",
      "type": "function"
    },
    {
      "inputs": [
        {
          "internalType": "address",
          "name": "",
          "type": "address"
        }
      ],
      "name": "priceFeeds",
      "outputs": [
        {
          "internalType": "address",
          "name": "",
          "type": "address"
        }
      ],
      "stateMutability": "view",
      "type": "function"
    },
    {
      "inputs": [],
      "name": "priceSampleSpace",
      "outputs": [
        {
          "internalType": "uint256",
          "name": "",
          "type": "uint256"
        }
      ],
      "stateMutability": "view",
      "type": "function"
    },
    {
      "inputs": [],
      "name": "secondaryPriceFeed",
      "outputs": [
        {
          "internalType": "address",
          "name": "",
          "type": "address"
        }
      ],
      "stateMutability": "view",
      "type": "function"
    },
    {
      "inputs": [
        {
          "internalType": "address",
          "name": "_token",
          "type": "address"
        },
        {
          "internalType": "bool",
          "name": "_isAdditive",
          "type": "bool"
        },
        {
          "internalType": "uint256",
          "name": "_adjustmentBps",
          "type": "uint256"
        }
      ],
      "name": "setAdjustment",
      "outputs": [],
      "stateMutability": "nonpayable",
      "type": "function"
    },
    {
      "inputs": [
        {
          "internalType": "address",
          "name": "_chainlinkFlags",
          "type": "address"
        }
      ],
      "name": "setChainlinkFlags",
      "outputs": [],
      "stateMutability": "nonpayable",
      "type": "function"
    },
    {
      "inputs": [
        {
          "internalType": "bool",
          "name": "_favorPrimaryPrice",
          "type": "bool"
        }
      ],
      "name": "setFavorPrimaryPrice",
      "outputs": [],
      "stateMutability": "nonpayable",
      "type": "function"
    },
    {
      "inputs": [
        {
          "internalType": "address",
          "name": "_gov",
          "type": "address"
        }
      ],
      "name": "setGov",
      "outputs": [],
      "stateMutability": "nonpayable",
      "type": "function"
    },
    {
      "inputs": [
        {
          "internalType": "bool",
          "name": "_isEnabled",
          "type": "bool"
        }
      ],
      "name": "setIsAmmEnabled",
      "outputs": [],
      "stateMutability": "nonpayable",
      "type": "function"
    },
    {
      "inputs": [
        {
          "internalType": "bool",
          "name": "_isEnabled",
          "type": "bool"
        }
      ],
      "name": "setIsSecondaryPriceEnabled",
      "outputs": [],
      "stateMutability": "nonpayable",
      "type": "function"
    },
    {
      "inputs": [
        {
          "internalType": "uint256",
          "name": "_maxStrictPriceDeviation",
          "type": "uint256"
        }
      ],
      "name": "setMaxStrictPriceDeviation",
      "outputs": [],
      "stateMutability": "nonpayable",
      "type": "function"
    },
    {
      "inputs": [
        {
          "internalType": "address",
          "name": "_bnbBusd",
          "type": "address"
        },
        {
          "internalType": "address",
          "name": "_ethBnb",
          "type": "address"
        },
        {
          "internalType": "address",
          "name": "_btcBnb",
          "type": "address"
        }
      ],
      "name": "setPairs",
      "outputs": [],
      "stateMutability": "nonpayable",
      "type": "function"
    },
    {
      "inputs": [
        {
          "internalType": "uint256",
          "name": "_priceSampleSpace",
          "type": "uint256"
        }
      ],
      "name": "setPriceSampleSpace",
      "outputs": [],
      "stateMutability": "nonpayable",
      "type": "function"
    },
    {
      "inputs": [
        {
          "internalType": "address",
          "name": "_secondaryPriceFeed",
          "type": "address"
        }
      ],
      "name": "setSecondaryPriceFeed",
      "outputs": [],
      "stateMutability": "nonpayable",
      "type": "function"
    },
    {
      "inputs": [
        {
          "internalType": "address",
          "name": "_token",
          "type": "address"
        },
        {
          "internalType": "uint256",
          "name": "_spreadBasisPoints",
          "type": "uint256"
        }
      ],
      "name": "setSpreadBasisPoints",
      "outputs": [],
      "stateMutability": "nonpayable",
      "type": "function"
    },
    {
      "inputs": [
        {
          "internalType": "uint256",
          "name": "_spreadThresholdBasisPoints",
          "type": "uint256"
        }
      ],
      "name": "setSpreadThresholdBasisPoints",
      "outputs": [],
      "stateMutability": "nonpayable",
      "type": "function"
    },
    {
      "inputs": [
        {
          "internalType": "address",
          "name": "_token",
          "type": "address"
        },
        {
          "internalType": "address",
          "name": "_priceFeed",
          "type": "address"
        },
        {
          "internalType": "uint256",
          "name": "_priceDecimals",
          "type": "uint256"
        },
        {
          "internalType": "bool",
          "name": "_isStrictStable",
          "type": "bool"
        }
      ],
      "name": "setTokenConfig",
      "outputs": [],
      "stateMutability": "nonpayable",
      "type": "function"
    },
    {
      "inputs": [
        {
          "internalType": "address",
          "name": "_btc",
          "type": "address"
        },
        {
          "internalType": "address",
          "name": "_eth",
          "type": "address"
        },
        {
          "internalType": "address",
          "name": "_bnb",
          "type": "address"
        }
      ],
      "name": "setTokens",
      "outputs": [],
      "stateMutability": "nonpayable",
      "type": "function"
    },
    {
      "inputs": [
        {
          "internalType": "bool",
          "name": "_useV2Pricing",
          "type": "bool"
        }
      ],
      "name": "setUseV2Pricing",
      "outputs": [],
      "stateMutability": "nonpayable",
      "type": "function"
    },
    {
      "inputs": [
        {
          "internalType": "address",
          "name": "",
          "type": "address"
        }
      ],
      "name": "spreadBasisPoints",
      "outputs": [
        {
          "internalType": "uint256",
          "name": "",
          "type": "uint256"
        }
      ],
      "stateMutability": "view",
      "type": "function"
    },
    {
      "inputs": [],
      "name": "spreadThresholdBasisPoints",
      "outputs": [
        {
          "internalType": "uint256",
          "name": "",
          "type": "uint256"
        }
      ],
      "stateMutability": "view",
      "type": "function"
    },
    {
      "inputs": [
        {
          "internalType": "address",
          "name": "",
          "type": "address"
        }
      ],
      "name": "strictStableTokens",
      "outputs": [
        {
          "internalType": "bool",
          "name": "",
          "type": "bool"
        }
      ],
      "stateMutability": "view",
      "type": "function"
    },
    {
      "inputs": [],
      "name": "useV2Pricing",
      "outputs": [
        {
          "internalType": "bool",
          "name": "",
          "type": "bool"
        }
      ],
      "stateMutability": "view",
      "type": "function"
    }
  ],
  "bytecode": "0x608060405260018060146101000a81548160ff02191690831515021790555060018060156101000a81548160ff0219169083151502179055506000600160166101000a81548160ff0219169083151502179055506000600160176101000a81548160ff02191690831515021790555060036002556000600355601e60055534801561008957600080fd5b50336000806101000a81548173ffffffffffffffffffffffffffffffffffffffff021916908373ffffffffffffffffffffffffffffffffffffffff160217905550613fe9806100d96000396000f3fe608060405234801561001057600080fd5b50600436106103275760003560e01c8063732391b4116101b8578063a27ea38611610104578063c2138d8c116100a2578063d694376c1161007c578063d694376c14611012578063e4440e021461106c578063eb1c92a9146110a0578063fd34ec40146110d057610327565b8063c2138d8c14610f1e578063cefe0f2114610f76578063cfad57a214610fce57610327565b8063a39c73a3116100de578063a39c73a314610e0a578063b02a2de414610e28578063b731dd8714610e96578063b8f6110514610ec457610327565b8063a27ea38614610d1a578063a28d57d814610d72578063a2ad7b9314610da657610327565b8063971bd396116101715780639a0a66351161014b5780639a0a663514610bfc5780639b18dc4714610c405780639b88938014610c5e5780639dcb511a14610cac57610327565b8063971bd39614610b6457806397dfade714610b985780639917dc7414610bcc57610327565b8063732391b4146109a6578063826e055f14610a165780638b86616c14610a5a5780638c7c9e0c14610a8e57806393f6907414610ac257806395082d2514610b4657610327565b8063443be2091161027757806356c8c2c11161023057806367781c0e1161020a57806367781c0e146108b85780636ce8a44b146108d65780636fc8070814610930578063717cfe7a1461094e57610327565b806356c8c2c114610804578063593d9e8014610868578063604f37e91461088857610327565b8063443be2091461060457806348cac2771461068857806349a876e4146106e05780634a4b1f4f146107145780634b9ade471461073257806356bf9de4146107ac57610327565b80632fc3a70a116102e45780633d949c5f116102be5780633d949c5f146104e65780633eba8d36146105565780633ebbc601146105c45780633f0c3bb7146105e457610327565b80632fc3a70a1461042c57806330536ee5146104a8578063378e7bf7146104c857610327565b80630957aed91461032c5780631193c8091461034a578063126082cf1461037e57806312d43a511461039c5780632fa03b8f146103d05780632fbfe3d3146103fe575b600080fd5b610334611100565b6040518082815260200191505060405180910390f35b610352611105565b604051808273ffffffffffffffffffffffffffffffffffffffff16815260200191505060405180910390f35b61038661112b565b6040518082815260200191505060405180910390f35b6103a4611131565b604051808273ffffffffffffffffffffffffffffffffffffffff16815260200191505060405180910390f35b6103fc600480360360208110156103e657600080fd5b8101908080359060200190929190505050611155565b005b61042a6004803603602081101561041457600080fd5b8101908080359060200190929190505050611279565b005b6104926004803603608081101561044257600080fd5b81019080803573ffffffffffffffffffffffffffffffffffffffff169060200190929190803515159060200190929190803515159060200190929190803515159060200190929190505050611344565b6040518082815260200191505060405180910390f35b6104b06114ac565b60405180821515815260200191505060405180910390f35b6104d06114bf565b6040518082815260200191505060405180910390f35b610540600480360360608110156104fc57600080fd5b81019080803573ffffffffffffffffffffffffffffffffffffffff1690602001909291908035151590602001909291908035151590602001909291905050506114c5565b6040518082815260200191505060405180910390f35b6105ae6004803603606081101561056c57600080fd5b81019080803573ffffffffffffffffffffffffffffffffffffffff16906020019092919080359060200190929190803515159060200190929190505050611766565b6040518082815260200191505060405180910390f35b6105cc6118a6565b60405180821515815260200191505060405180910390f35b6105ec6118b9565b60405180821515815260200191505060405180910390f35b6106866004803603606081101561061a57600080fd5b81019080803573ffffffffffffffffffffffffffffffffffffffff169060200190929190803573ffffffffffffffffffffffffffffffffffffffff169060200190929190803573ffffffffffffffffffffffffffffffffffffffff1690602001909291905050506118cc565b005b6106ca6004803603602081101561069e57600080fd5b81019080803573ffffffffffffffffffffffffffffffffffffffff169060200190929190505050611a55565b6040518082815260200191505060405180910390f35b6106e8611a6d565b604051808273ffffffffffffffffffffffffffffffffffffffff16815260200191505060405180910390f35b61071c611a93565b6040518082815260200191505060405180910390f35b6107aa6004803603608081101561074857600080fd5b81019080803573ffffffffffffffffffffffffffffffffffffffff169060200190929190803573ffffffffffffffffffffffffffffffffffffffff16906020019092919080359060200190929190803515159060200190929190505050611a98565b005b6107ee600480360360208110156107c257600080fd5b81019080803573ffffffffffffffffffffffffffffffffffffffff169060200190929190505050611c78565b6040518082815260200191505060405180910390f35b6108526004803603604081101561081a57600080fd5b81019080803573ffffffffffffffffffffffffffffffffffffffff169060200190929190803515159060200190929190505050611e6e565b6040518082815260200191505060405180910390f35b610870612554565b60405180821515815260200191505060405180910390f35b6108b66004803603602081101561089e57600080fd5b81019080803515159060200190929190505050612567565b005b6108c0612645565b6040518082815260200191505060405180910390f35b610918600480360360208110156108ec57600080fd5b81019080803573ffffffffffffffffffffffffffffffffffffffff169060200190929190505050612656565b60405180821515815260200191505060405180910390f35b610938612676565b6040518082815260200191505060405180910390f35b6109906004803603602081101561096457600080fd5b81019080803573ffffffffffffffffffffffffffffffffffffffff16906020019092919050505061267c565b6040518082815260200191505060405180910390f35b610a00600480360360608110156109bc57600080fd5b81019080803573ffffffffffffffffffffffffffffffffffffffff169060200190929190803515159060200190929190803515159060200190929190505050612694565b6040518082815260200191505060405180910390f35b610a5860048036036020811015610a2c57600080fd5b81019080803573ffffffffffffffffffffffffffffffffffffffff1690602001909291905050506128ff565b005b610a62612a04565b604051808273ffffffffffffffffffffffffffffffffffffffff16815260200191505060405180910390f35b610a96612a2a565b604051808273ffffffffffffffffffffffffffffffffffffffff16815260200191505060405180910390f35b610b4460048036036060811015610ad857600080fd5b81019080803573ffffffffffffffffffffffffffffffffffffffff169060200190929190803573ffffffffffffffffffffffffffffffffffffffff169060200190929190803573ffffffffffffffffffffffffffffffffffffffff169060200190929190505050612a50565b005b610b4e612bd9565b6040518082815260200191505060405180910390f35b610b6c612bea565b604051808273ffffffffffffffffffffffffffffffffffffffff16815260200191505060405180910390f35b610ba0612c10565b604051808273ffffffffffffffffffffffffffffffffffffffff16815260200191505060405180910390f35b610bfa60048036036020811015610be257600080fd5b81019080803515159060200190929190505050612c36565b005b610c3e60048036036020811015610c1257600080fd5b81019080803573ffffffffffffffffffffffffffffffffffffffff169060200190929190505050612d14565b005b610c48612e19565b6040518082815260200191505060405180910390f35b610caa60048036036040811015610c7457600080fd5b81019080803573ffffffffffffffffffffffffffffffffffffffff16906020019092919080359060200190929190505050612e1f565b005b610cee60048036036020811015610cc257600080fd5b81019080803573ffffffffffffffffffffffffffffffffffffffff169060200190929190505050612f82565b604051808273ffffffffffffffffffffffffffffffffffffffff16815260200191505060405180910390f35b610d5c60048036036020811015610d3057600080fd5b81019080803573ffffffffffffffffffffffffffffffffffffffff169060200190929190505050612fb5565b6040518082815260200191505060405180910390f35b610d7a612fcd565b604051808273ffffffffffffffffffffffffffffffffffffffff16815260200191505060405180910390f35b610df460048036036040811015610dbc57600080fd5b81019080803573ffffffffffffffffffffffffffffffffffffffff169060200190929190803515159060200190929190505050612ff3565b6040518082815260200191505060405180910390f35b610e12613158565b6040518082815260200191505060405180910390f35b610e8060048036036060811015610e3e57600080fd5b81019080803573ffffffffffffffffffffffffffffffffffffffff1690602001909291908035151590602001909291908035906020019092919050505061315e565b6040518082815260200191505060405180910390f35b610ec260048036036020811015610eac57600080fd5b8101908080359060200190929190505050613252565b005b610f0660048036036020811015610eda57600080fd5b81019080803573ffffffffffffffffffffffffffffffffffffffff16906020019092919050505061331d565b60405180821515815260200191505060405180910390f35b610f6060048036036020811015610f3457600080fd5b81019080803573ffffffffffffffffffffffffffffffffffffffff16906020019092919050505061333d565b6040518082815260200191505060405180910390f35b610fb860048036036020811015610f8c57600080fd5b81019080803573ffffffffffffffffffffffffffffffffffffffff1690602001909291905050506135b9565b6040518082815260200191505060405180910390f35b61101060048036036020811015610fe457600080fd5b81019080803573ffffffffffffffffffffffffffffffffffffffff1690602001909291905050506135d1565b005b61106a6004803603606081101561102857600080fd5b81019080803573ffffffffffffffffffffffffffffffffffffffff169060200190929190803515159060200190929190803590602001909291905050506136d5565b005b61107461399c565b604051808273ffffffffffffffffffffffffffffffffffffffff16815260200191505060405180910390f35b6110ce600480360360208110156110b657600080fd5b810190808035151590602001909291905050506139c2565b005b6110fe600480360360208110156110e657600080fd5b81019080803515159060200190929190505050613aa0565b005b603281565b600a60009054906101000a900473ffffffffffffffffffffffffffffffffffffffff1681565b61271081565b60008054906101000a900473ffffffffffffffffffffffffffffffffffffffff1681565b60008054906101000a900473ffffffffffffffffffffffffffffffffffffffff1673ffffffffffffffffffffffffffffffffffffffff163373ffffffffffffffffffffffffffffffffffffffff1614611216576040517f08c379a00000000000000000000000000000000000000000000000000000000081526004018080602001828103825260198152602001807f5661756c745072696365466565643a20666f7262696464656e0000000000000081525060200191505060405180910390fd5b6000811161126f576040517f08c379a0000000000000000000000000000000000000000000000000000000008152600401808060200182810382526029815260200180613ea76029913960400191505060405180910390fd5b8060028190555050565b60008054906101000a900473ffffffffffffffffffffffffffffffffffffffff1673ffffffffffffffffffffffffffffffffffffffff163373ffffffffffffffffffffffffffffffffffffffff161461133a576040517f08c379a00000000000000000000000000000000000000000000000000000000081526004018080602001828103825260198152602001807f5661756c745072696365466565643a20666f7262696464656e0000000000000081525060200191505060405180910390fd5b8060038190555050565b600080600160169054906101000a900460ff1661136b576113668686866114c5565b611377565b611376868686612694565b5b90506000601060008873ffffffffffffffffffffffffffffffffffffffff1673ffffffffffffffffffffffffffffffffffffffff168152602001908152602001600020549050600081111561149f576000601160008973ffffffffffffffffffffffffffffffffffffffff1673ffffffffffffffffffffffffffffffffffffffff16815260200190815260200160002060009054906101000a900460ff169050801561145f5761145861271061144a61143b85612710613b7e90919063ffffffff16565b86613c0690919063ffffffff16565b613c8c90919063ffffffff16565b925061149d565b61149a61271061148c61147d85612710613cd690919063ffffffff16565b86613c0690919063ffffffff16565b613c8c90919063ffffffff16565b92505b505b8192505050949350505050565b600160169054906101000a900460ff1681565b60035481565b6000806114d28585611e6e565b90508280156114ed5750600160149054906101000a900460ff165b156115365760006114fd8661333d565b905060008111156115345784801561151457508181115b1561151d578091505b8415801561152a57508181105b15611533578091505b5b505b600160159054906101000a900460ff161561155957611556858286611766565b90505b600f60008673ffffffffffffffffffffffffffffffffffffffff1673ffffffffffffffffffffffffffffffffffffffff16815260200190815260200160002060009054906101000a900460ff16156116915760006c0c9f2c9cd04674edea4000000082116115e6576115e1826c0c9f2c9cd04674edea40000000613cd690919063ffffffff16565b611607565b6116066c0c9f2c9cd04674edea4000000083613cd690919063ffffffff16565b5b90506003548111611629576c0c9f2c9cd04674edea400000009250505061175f565b84801561164257506c0c9f2c9cd04674edea4000000082115b1561165157819250505061175f565b8415801561166b57506c0c9f2c9cd04674edea4000000082105b1561167a57819250505061175f565b6c0c9f2c9cd04674edea400000009250505061175f565b6000600e60008773ffffffffffffffffffffffffffffffffffffffff1673ffffffffffffffffffffffffffffffffffffffff168152602001908152602001600020549050841561171f576117166127106117086116f984612710613b7e90919063ffffffff16565b85613c0690919063ffffffff16565b613c8c90919063ffffffff16565b9250505061175f565b61175a61271061174c61173d84612710613cd690919063ffffffff16565b85613c0690919063ffffffff16565b613c8c90919063ffffffff16565b925050505b9392505050565b60008073ffffffffffffffffffffffffffffffffffffffff16600460009054906101000a900473ffffffffffffffffffffffffffffffffffffffff1673ffffffffffffffffffffffffffffffffffffffff1614156117c65782905061189f565b600460009054906101000a900473ffffffffffffffffffffffffffffffffffffffff1673ffffffffffffffffffffffffffffffffffffffff16637fece3688585856040518463ffffffff1660e01b8152600401808473ffffffffffffffffffffffffffffffffffffffff1681526020018381526020018215158152602001935050505060206040518083038186803b15801561186157600080fd5b505afa158015611875573d6000803e3d6000fd5b505050506040513d602081101561188b57600080fd5b810190808051906020019092919050505090505b9392505050565b600160159054906101000a900460ff1681565b600160149054906101000a900460ff1681565b60008054906101000a900473ffffffffffffffffffffffffffffffffffffffff1673ffffffffffffffffffffffffffffffffffffffff163373ffffffffffffffffffffffffffffffffffffffff161461198d576040517f08c379a00000000000000000000000000000000000000000000000000000000081526004018080602001828103825260198152602001807f5661756c745072696365466565643a20666f7262696464656e0000000000000081525060200191505060405180910390fd5b82600660006101000a81548173ffffffffffffffffffffffffffffffffffffffff021916908373ffffffffffffffffffffffffffffffffffffffff16021790555081600760006101000a81548173ffffffffffffffffffffffffffffffffffffffff021916908373ffffffffffffffffffffffffffffffffffffffff16021790555080600860006101000a81548173ffffffffffffffffffffffffffffffffffffffff021916908373ffffffffffffffffffffffffffffffffffffffff160217905550505050565b60106020528060005260406000206000915090505481565b600860009054906101000a900473ffffffffffffffffffffffffffffffffffffffff1681565b601481565b60008054906101000a900473ffffffffffffffffffffffffffffffffffffffff1673ffffffffffffffffffffffffffffffffffffffff163373ffffffffffffffffffffffffffffffffffffffff1614611b59576040517f08c379a00000000000000000000000000000000000000000000000000000000081526004018080602001828103825260198152602001807f5661756c745072696365466565643a20666f7262696464656e0000000000000081525060200191505060405180910390fd5b82600c60008673ffffffffffffffffffffffffffffffffffffffff1673ffffffffffffffffffffffffffffffffffffffff16815260200190815260200160002060006101000a81548173ffffffffffffffffffffffffffffffffffffffff021916908373ffffffffffffffffffffffffffffffffffffffff16021790555081600d60008673ffffffffffffffffffffffffffffffffffffffff1673ffffffffffffffffffffffffffffffffffffffff1681526020019081526020016000208190555080600f60008673ffffffffffffffffffffffffffffffffffffffff1673ffffffffffffffffffffffffffffffffffffffff16815260200190815260200160002060006101000a81548160ff02191690831515021790555050505050565b600080600c60008473ffffffffffffffffffffffffffffffffffffffff1673ffffffffffffffffffffffffffffffffffffffff16815260200190815260200160002060009054906101000a900473ffffffffffffffffffffffffffffffffffffffff169050600073ffffffffffffffffffffffffffffffffffffffff168173ffffffffffffffffffffffffffffffffffffffff161415611d63576040517f08c379a0000000000000000000000000000000000000000000000000000000008152600401808060200182810382526022815260200180613f926022913960400191505060405180910390fd5b600081905060008173ffffffffffffffffffffffffffffffffffffffff166350d25bcd6040518163ffffffff1660e01b815260040160206040518083038186803b158015611db057600080fd5b505afa158015611dc4573d6000803e3d6000fd5b505050506040513d6020811015611dda57600080fd5b8101908080519060200190929190505050905060008113611e63576040517f08c379a000000000000000000000000000000000000000000000000000000000815260040180806020018281038252601d8152602001807f5661756c745072696365466565643a20696e76616c696420707269636500000081525060200191505060405180910390fd5b809350505050919050565b600080600c60008573ffffffffffffffffffffffffffffffffffffffff1673ffffffffffffffffffffffffffffffffffffffff16815260200190815260200160002060009054906101000a900473ffffffffffffffffffffffffffffffffffffffff169050600073ffffffffffffffffffffffffffffffffffffffff168173ffffffffffffffffffffffffffffffffffffffff161415611f59576040517f08c379a0000000000000000000000000000000000000000000000000000000008152600401808060200182810382526022815260200180613f926022913960400191505060405180910390fd5b600073ffffffffffffffffffffffffffffffffffffffff16600160009054906101000a900473ffffffffffffffffffffffffffffffffffffffff1673ffffffffffffffffffffffffffffffffffffffff16146120fc576000600160009054906101000a900473ffffffffffffffffffffffffffffffffffffffff1673ffffffffffffffffffffffffffffffffffffffff1663357e47fe60017fa438451d6458044c3c8cd2f6f31c91ac882a6d917fa1d50c2bc3074c4524952d60001c0360001b60601c6040518263ffffffff1660e01b8152600401808273ffffffffffffffffffffffffffffffffffffffff16815260200191505060206040518083038186803b15801561206657600080fd5b505afa15801561207a573d6000803e3d6000fd5b505050506040513d602081101561209057600080fd5b8101908080519060200190929190505050905080156120fa576040517f08c379a0000000000000000000000000000000000000000000000000000000008152600401808060200182810382526025815260200180613f436025913960400191505060405180910390fd5b505b60008190506000808273ffffffffffffffffffffffffffffffffffffffff1663668a0f026040518163ffffffff1660e01b815260040160206040518083038186803b15801561214a57600080fd5b505afa15801561215e573d6000803e3d6000fd5b505050506040513d602081101561217457600080fd5b8101908080519060200190929190505050905060005b6002548169ffffffffffffffffffff161015612474578069ffffffffffffffffffff168269ffffffffffffffffffff16116121c457612474565b6000808269ffffffffffffffffffff1614156122de5760008573ffffffffffffffffffffffffffffffffffffffff166350d25bcd6040518163ffffffff1660e01b815260040160206040518083038186803b15801561222257600080fd5b505afa158015612236573d6000803e3d6000fd5b505050506040513d602081101561224c57600080fd5b81019080805190602001909291905050509050600081136122d5576040517f08c379a000000000000000000000000000000000000000000000000000000000815260040180806020018281038252601d8152602001807f5661756c745072696365466565643a20696e76616c696420707269636500000081525060200191505060405180910390fd5b80915050612423565b60008573ffffffffffffffffffffffffffffffffffffffff16639a6fc8f58486036040518263ffffffff1660e01b8152600401808269ffffffffffffffffffff16815260200191505060a06040518083038186803b15801561233f57600080fd5b505afa158015612353573d6000803e3d6000fd5b505050506040513d60a081101561236957600080fd5b8101908080519060200190929190805190602001909291908051906020019092919080519060200190929190805190602001909291905050505050509150506000811361241e576040517f08c379a000000000000000000000000000000000000000000000000000000000815260040180806020018281038252601d8152602001807f5661756c745072696365466565643a20696e76616c696420707269636500000081525060200191505060405180910390fd5b809150505b60008414156124355780935050612467565b87801561244157508381115b1561244f5780935050612467565b8715801561245c57508381105b15612465578093505b505b808060010191505061218a565b50600082116124ce576040517f08c379a0000000000000000000000000000000000000000000000000000000008152600401808060200182810382526025815260200180613ed06025913960400191505060405180910390fd5b6000600d60008973ffffffffffffffffffffffffffffffffffffffff1673ffffffffffffffffffffffffffffffffffffffff16815260200190815260200160002054905061254781600a0a6125396c0c9f2c9cd04674edea4000000086613c0690919063ffffffff16565b613c8c90919063ffffffff16565b9550505050505092915050565b600160179054906101000a900460ff1681565b60008054906101000a900473ffffffffffffffffffffffffffffffffffffffff1673ffffffffffffffffffffffffffffffffffffffff163373ffffffffffffffffffffffffffffffffffffffff1614612628576040517f08c379a00000000000000000000000000000000000000000000000000000000081526004018080602001828103825260198152602001807f5661756c745072696365466565643a20666f7262696464656e0000000000000081525060200191505060405180910390fd5b80600160176101000a81548160ff02191690831515021790555050565b6c0c9f2c9cd04674edea4000000081565b60116020528060005260406000206000915054906101000a900460ff1681565b60025481565b60126020528060005260406000206000915090505481565b6000806126a18585611e6e565b90508280156126bc5750600160149054906101000a900460ff165b156126cf576126cc85858361315e565b90505b600160159054906101000a900460ff16156126f2576126ef858286611766565b90505b600f60008673ffffffffffffffffffffffffffffffffffffffff1673ffffffffffffffffffffffffffffffffffffffff16815260200190815260200160002060009054906101000a900460ff161561282a5760006c0c9f2c9cd04674edea40000000821161277f5761277a826c0c9f2c9cd04674edea40000000613cd690919063ffffffff16565b6127a0565b61279f6c0c9f2c9cd04674edea4000000083613cd690919063ffffffff16565b5b905060035481116127c2576c0c9f2c9cd04674edea40000000925050506128f8565b8480156127db57506c0c9f2c9cd04674edea4000000082115b156127ea5781925050506128f8565b8415801561280457506c0c9f2c9cd04674edea4000000082105b156128135781925050506128f8565b6c0c9f2c9cd04674edea40000000925050506128f8565b6000600e60008773ffffffffffffffffffffffffffffffffffffffff1673ffffffffffffffffffffffffffffffffffffffff16815260200190815260200160002054905084156128b8576128af6127106128a161289284612710613b7e90919063ffffffff16565b85613c0690919063ffffffff16565b613c8c90919063ffffffff16565b925050506128f8565b6128f36127106128e56128d684612710613cd690919063ffffffff16565b85613c0690919063ffffffff16565b613c8c90919063ffffffff16565b925050505b9392505050565b60008054906101000a900473ffffffffffffffffffffffffffffffffffffffff1673ffffffffffffffffffffffffffffffffffffffff163373ffffffffffffffffffffffffffffffffffffffff16146129c0576040517f08c379a00000000000000000000000000000000000000000000000000000000081526004018080602001828103825260198152602001807f5661756c745072696365466565643a20666f7262696464656e0000000000000081525060200191505060405180910390fd5b80600160006101000a81548173ffffffffffffffffffffffffffffffffffffffff021916908373ffffffffffffffffffffffffffffffffffffffff16021790555050565b600460009054906101000a900473ffffffffffffffffffffffffffffffffffffffff1681565b600760009054906101000a900473ffffffffffffffffffffffffffffffffffffffff1681565b60008054906101000a900473ffffffffffffffffffffffffffffffffffffffff1673ffffffffffffffffffffffffffffffffffffffff163373ffffffffffffffffffffffffffffffffffffffff1614612b11576040517f08c379a00000000000000000000000000000000000000000000000000000000081526004018080602001828103825260198152602001807f5661756c745072696365466565643a20666f7262696464656e0000000000000081525060200191505060405180910390fd5b82600960006101000a81548173ffffffffffffffffffffffffffffffffffffffff021916908373ffffffffffffffffffffffffffffffffffffffff16021790555081600a60006101000a81548173ffffffffffffffffffffffffffffffffffffffff021916908373ffffffffffffffffffffffffffffffffffffffff16021790555080600b60006101000a81548173ffffffffffffffffffffffffffffffffffffffff021916908373ffffffffffffffffffffffffffffffffffffffff160217905550505050565b6c0c9f2c9cd04674edea4000000081565b600b60009054906101000a900473ffffffffffffffffffffffffffffffffffffffff1681565b600960009054906101000a900473ffffffffffffffffffffffffffffffffffffffff1681565b60008054906101000a900473ffffffffffffffffffffffffffffffffffffffff1673ffffffffffffffffffffffffffffffffffffffff163373ffffffffffffffffffffffffffffffffffffffff1614612cf7576040517f08c379a00000000000000000000000000000000000000000000000000000000081526004018080602001828103825260198152602001807f5661756c745072696365466565643a20666f7262696464656e0000000000000081525060200191505060405180910390fd5b80600160146101000a81548160ff02191690831515021790555050565b60008054906101000a900473ffffffffffffffffffffffffffffffffffffffff1673ffffffffffffffffffffffffffffffffffffffff163373ffffffffffffffffffffffffffffffffffffffff1614612dd5576040517f08c379a00000000000000000000000000000000000000000000000000000000081526004018080602001828103825260198152602001807f5661756c745072696365466565643a20666f7262696464656e0000000000000081525060200191505060405180910390fd5b80600460006101000a81548173ffffffffffffffffffffffffffffffffffffffff021916908373ffffffffffffffffffffffffffffffffffffffff16021790555050565b611c2081565b60008054906101000a900473ffffffffffffffffffffffffffffffffffffffff1673ffffffffffffffffffffffffffffffffffffffff163373ffffffffffffffffffffffffffffffffffffffff1614612ee0576040517f08c379a00000000000000000000000000000000000000000000000000000000081526004018080602001828103825260198152602001807f5661756c745072696365466565643a20666f7262696464656e0000000000000081525060200191505060405180910390fd5b6032811115612f3a576040517f08c379a000000000000000000000000000000000000000000000000000000000815260040180806020018281038252602a815260200180613f68602a913960400191505060405180910390fd5b80600e60008473ffffffffffffffffffffffffffffffffffffffff1673ffffffffffffffffffffffffffffffffffffffff168152602001908152602001600020819055505050565b600c6020528060005260406000206000915054906101000a900473ffffffffffffffffffffffffffffffffffffffff1681565b600e6020528060005260406000206000915090505481565b600660009054906101000a900473ffffffffffffffffffffffffffffffffffffffff1681565b60008060008473ffffffffffffffffffffffffffffffffffffffff16630902f1ac6040518163ffffffff1660e01b815260040160606040518083038186803b15801561303e57600080fd5b505afa158015613052573d6000803e3d6000fd5b505050506040513d606081101561306857600080fd5b81019080805190602001909291908051906020019092919080519060200190929190505050506dffffffffffffffffffffffffffff1691506dffffffffffffffffffffffffffff16915083156131075760008214156130cc57600092505050613152565b6130fe826130f06c0c9f2c9cd04674edea4000000084613c0690919063ffffffff16565b613c8c90919063ffffffff16565b92505050613152565b600081141561311b57600092505050613152565b61314d8161313f6c0c9f2c9cd04674edea4000000085613c0690919063ffffffff16565b613c8c90919063ffffffff16565b925050505b92915050565b60055481565b60008061316a8561333d565b9050600081141561317e578291505061324b565b600083821161319f5761319a8285613cd690919063ffffffff16565b6131b3565b6131b28483613cd690919063ffffffff16565b5b90506131ca60055485613c0690919063ffffffff16565b6131df61271083613c0690919063ffffffff16565b101561320e57600160179054906101000a900460ff161561320457839250505061324b565b819250505061324b565b84801561321a57508382115b1561322957819250505061324b565b8415801561323657508382105b1561324557819250505061324b565b83925050505b9392505050565b60008054906101000a900473ffffffffffffffffffffffffffffffffffffffff1673ffffffffffffffffffffffffffffffffffffffff163373ffffffffffffffffffffffffffffffffffffffff1614613313576040517f08c379a00000000000000000000000000000000000000000000000000000000081526004018080602001828103825260198152602001807f5661756c745072696365466565643a20666f7262696464656e0000000000000081525060200191505060405180910390fd5b8060058190555050565b600f6020528060005260406000206000915054906101000a900460ff1681565b6000600860009054906101000a900473ffffffffffffffffffffffffffffffffffffffff1673ffffffffffffffffffffffffffffffffffffffff168273ffffffffffffffffffffffffffffffffffffffff1614156133c9576133c2600960009054906101000a900473ffffffffffffffffffffffffffffffffffffffff166001612ff3565b90506135b4565b600760009054906101000a900473ffffffffffffffffffffffffffffffffffffffff1673ffffffffffffffffffffffffffffffffffffffff168273ffffffffffffffffffffffffffffffffffffffff1614156134bc57600061344e600960009054906101000a900473ffffffffffffffffffffffffffffffffffffffff166001612ff3565b9050600061347f600a60009054906101000a900473ffffffffffffffffffffffffffffffffffffffff166001612ff3565b90506134b36c0c9f2c9cd04674edea400000006134a58385613c0690919063ffffffff16565b613c8c90919063ffffffff16565b925050506135b4565b600660009054906101000a900473ffffffffffffffffffffffffffffffffffffffff1673ffffffffffffffffffffffffffffffffffffffff168273ffffffffffffffffffffffffffffffffffffffff1614156135af576000613541600960009054906101000a900473ffffffffffffffffffffffffffffffffffffffff166001612ff3565b90506000613572600b60009054906101000a900473ffffffffffffffffffffffffffffffffffffffff166001612ff3565b90506135a66c0c9f2c9cd04674edea400000006135988385613c0690919063ffffffff16565b613c8c90919063ffffffff16565b925050506135b4565b600090505b919050565b600d6020528060005260406000206000915090505481565b60008054906101000a900473ffffffffffffffffffffffffffffffffffffffff1673ffffffffffffffffffffffffffffffffffffffff163373ffffffffffffffffffffffffffffffffffffffff1614613692576040517f08c379a00000000000000000000000000000000000000000000000000000000081526004018080602001828103825260198152602001807f5661756c745072696365466565643a20666f7262696464656e0000000000000081525060200191505060405180910390fd5b806000806101000a81548173ffffffffffffffffffffffffffffffffffffffff021916908373ffffffffffffffffffffffffffffffffffffffff16021790555050565b60008054906101000a900473ffffffffffffffffffffffffffffffffffffffff1673ffffffffffffffffffffffffffffffffffffffff163373ffffffffffffffffffffffffffffffffffffffff1614613796576040517f08c379a00000000000000000000000000000000000000000000000000000000081526004018080602001828103825260198152602001807f5661756c745072696365466565643a20666f7262696464656e0000000000000081525060200191505060405180910390fd5b426137eb611c20601260008773ffffffffffffffffffffffffffffffffffffffff1673ffffffffffffffffffffffffffffffffffffffff16815260200190815260200160002054613b7e90919063ffffffff16565b10613841576040517f08c379a000000000000000000000000000000000000000000000000000000000815260040180806020018281038252602d815260200180613f16602d913960400191505060405180910390fd5b60148111156138b8576040517f08c379a00000000000000000000000000000000000000000000000000000000081526004018080602001828103825260168152602001807f696e76616c6964205f61646a7573746d656e744270730000000000000000000081525060200191505060405180910390fd5b81601160008573ffffffffffffffffffffffffffffffffffffffff1673ffffffffffffffffffffffffffffffffffffffff16815260200190815260200160002060006101000a81548160ff02191690831515021790555080601060008573ffffffffffffffffffffffffffffffffffffffff1673ffffffffffffffffffffffffffffffffffffffff1681526020019081526020016000208190555042601260008573ffffffffffffffffffffffffffffffffffffffff1673ffffffffffffffffffffffffffffffffffffffff16815260200190815260200160002081905550505050565b600160009054906101000a900473ffffffffffffffffffffffffffffffffffffffff1681565b60008054906101000a900473ffffffffffffffffffffffffffffffffffffffff1673ffffffffffffffffffffffffffffffffffffffff163373ffffffffffffffffffffffffffffffffffffffff1614613a83576040517f08c379a00000000000000000000000000000000000000000000000000000000081526004018080602001828103825260198152602001807f5661756c745072696365466565643a20666f7262696464656e0000000000000081525060200191505060405180910390fd5b80600160156101000a81548160ff02191690831515021790555050565b60008054906101000a900473ffffffffffffffffffffffffffffffffffffffff1673ffffffffffffffffffffffffffffffffffffffff163373ffffffffffffffffffffffffffffffffffffffff1614613b61576040517f08c379a00000000000000000000000000000000000000000000000000000000081526004018080602001828103825260198152602001807f5661756c745072696365466565643a20666f7262696464656e0000000000000081525060200191505060405180910390fd5b80600160166101000a81548160ff02191690831515021790555050565b600080828401905083811015613bfc576040517f08c379a000000000000000000000000000000000000000000000000000000000815260040180806020018281038252601b8152602001807f536166654d6174683a206164646974696f6e206f766572666c6f77000000000081525060200191505060405180910390fd5b8091505092915050565b600080831415613c195760009050613c86565b6000828402905082848281613c2a57fe5b0414613c81576040517f08c379a0000000000000000000000000000000000000000000000000000000008152600401808060200182810382526021815260200180613ef56021913960400191505060405180910390fd5b809150505b92915050565b6000613cce83836040518060400160405280601a81526020017f536166654d6174683a206469766973696f6e206279207a65726f000000000000815250613d20565b905092915050565b6000613d1883836040518060400160405280601e81526020017f536166654d6174683a207375627472616374696f6e206f766572666c6f770000815250613de6565b905092915050565b60008083118290613dcc576040517f08c379a00000000000000000000000000000000000000000000000000000000081526004018080602001828103825283818151815260200191508051906020019080838360005b83811015613d91578082015181840152602081019050613d76565b50505050905090810190601f168015613dbe5780820380516001836020036101000a031916815260200191505b509250505060405180910390fd5b506000838581613dd857fe5b049050809150509392505050565b6000838311158290613e93576040517f08c379a00000000000000000000000000000000000000000000000000000000081526004018080602001828103825283818151815260200191508051906020019080838360005b83811015613e58578082015181840152602081019050613e3d565b50505050905090810190601f168015613e855780820380516001836020036101000a031916815260200191505b509250505060405180910390fd5b506000838503905080915050939250505056fe5661756c745072696365466565643a20696e76616c6964205f707269636553616d706c6553706163655661756c745072696365466565643a20636f756c64206e6f74206665746368207072696365536166654d6174683a206d756c7469706c69636174696f6e206f766572666c6f775661756c745072696365466565643a2061646a7573746d656e74206672657175656e6379206578636565646564436861696e6c696e6b20666565647320617265206e6f74206265696e6720757064617465645661756c745072696365466565643a20696e76616c6964205f7370726561644261736973506f696e74735661756c745072696365466565643a20696e76616c69642070726963652066656564a26469706673582212201a4e7b2ccf7902b48638b917557e868a24edeae82e5f84aabab9ce0eb300873164736f6c634300060c0033",
  "linkReferences": {},
  "deployedLinkReferences": {}
}