{
  "_format": "hh-sol-artifact-1",
  "contractName": "RewardReader",
  "sourceName": "contracts/gmx/peripherals/RewardReader.sol",
  "abi": [
    {
      "inputs": [
        {
          "internalType": "address",
          "name": "_account",
          "type": "address"
        },
        {
          "internalType": "address[]",
          "name": "_depositTokens",
          "type": "address[]"
        },
        {
          "internalType": "address[]",
          "name": "_rewardTrackers",
          "type": "address[]"
        }
      ],
      "name": "getDepositBalances",
      "outputs": [
        {
          "internalType": "uint256[]",
          "name": "",
          "type": "uint256[]"
        }
      ],
      "stateMutability": "view",
      "type": "function"
    },
    {
      "inputs": [
        {
          "internalType": "address",
          "name": "_account",
          "type": "address"
        },
        {
          "internalType": "address[]",
          "name": "_rewardTrackers",
          "type": "address[]"
        }
      ],
      "name": "getStakingInfo",
      "outputs": [
        {
          "internalType": "uint256[]",
          "name": "",
          "type": "uint256[]"
        }
      ],
      "stateMutability": "view",
      "type": "function"
    },
    {
      "inputs": [
        {
          "internalType": "address",
          "name": "_account",
          "type": "address"
        },
        {
          "internalType": "address[]",
          "name": "_vesters",
          "type": "address[]"
        }
      ],
      "name": "getVestingInfoV2",
      "outputs": [
        {
          "internalType": "uint256[]",
          "name": "",
          "type": "uint256[]"
        }
      ],
      "stateMutability": "view",
      "type": "function"
    }
  ],
  "bytecode": "0x608060405234801561001057600080fd5b50611448806100206000396000f3fe608060405234801561001057600080fd5b50600436106100415760003560e01c8063575157e414610046578063937a0be814610207578063e1fc2a3814610334575b600080fd5b6101b06004803603606081101561005c57600080fd5b81019080803573ffffffffffffffffffffffffffffffffffffffff1690602001909291908035906020019064010000000081111561009957600080fd5b8201836020820111156100ab57600080fd5b803590602001918460208302840111640100000000831117156100cd57600080fd5b919080806020026020016040519081016040528093929190818152602001838360200280828437600081840152601f19601f8201169050808301925050505050505091929192908035906020019064010000000081111561012d57600080fd5b82018360208201111561013f57600080fd5b8035906020019184602083028401116401000000008311171561016157600080fd5b919080806020026020016040519081016040528093929190818152602001838360200280828437600081840152601f19601f820116905080830192505050505050509192919290505050610461565b6040518080602001828103825283818151815260200191508051906020019060200280838360005b838110156101f35780820151818401526020810190506101d8565b505050509050019250505060405180910390f35b6102dd6004803603604081101561021d57600080fd5b81019080803573ffffffffffffffffffffffffffffffffffffffff1690602001909291908035906020019064010000000081111561025a57600080fd5b82018360208201111561026c57600080fd5b8035906020019184602083028401116401000000008311171561028e57600080fd5b919080806020026020016040519081016040528093929190818152602001838360200280828437600081840152601f19601f8201169050808301925050505050505091929192905050506105d7565b6040518080602001828103825283818151815260200191508051906020019060200280838360005b83811015610320578082015181840152602081019050610305565b505050509050019250505060405180910390f35b61040a6004803603604081101561034a57600080fd5b81019080803573ffffffffffffffffffffffffffffffffffffffff1690602001909291908035906020019064010000000081111561038757600080fd5b82018360208201111561039957600080fd5b803590602001918460208302840111640100000000831117156103bb57600080fd5b919080806020026020016040519081016040528093929190818152602001838360200280828437600081840152601f19601f8201169050808301925050505050505091929192905050506109f4565b6040518080602001828103825283818151815260200191508051906020019060200280838360005b8381101561044d578082015181840152602081019050610432565b505050509050019250505060405180910390f35b606080825167ffffffffffffffff8111801561047c57600080fd5b506040519080825280602002602001820160405280156104ab5781602001602082028036833780820191505090505b50905060005b83518110156105cb5760008482815181106104c857fe5b602002602001015190508073ffffffffffffffffffffffffffffffffffffffff1663f5d9d63e888885815181106104fb57fe5b60200260200101516040518363ffffffff1660e01b8152600401808373ffffffffffffffffffffffffffffffffffffffff1681526020018273ffffffffffffffffffffffffffffffffffffffff1681526020019250505060206040518083038186803b15801561056a57600080fd5b505afa15801561057e573d6000803e3d6000fd5b505050506040513d602081101561059457600080fd5b81019080805190602001909291905050508383815181106105b157fe5b6020026020010181815250505080806001019150506104b1565b50809150509392505050565b606060006005905060608184510267ffffffffffffffff811180156105fb57600080fd5b5060405190808252806020026020018201604052801561062a5781602001602082028036833780820191505090505b50905060005b84518110156109e857600085828151811061064757fe5b602002602001015190508073ffffffffffffffffffffffffffffffffffffffff1663402914f5886040518263ffffffff1660e01b8152600401808273ffffffffffffffffffffffffffffffffffffffff16815260200191505060206040518083038186803b1580156106b857600080fd5b505afa1580156106cc573d6000803e3d6000fd5b505050506040513d60208110156106e257600080fd5b8101908080519060200190929190505050838584028151811061070157fe5b6020026020010181815250508073ffffffffffffffffffffffffffffffffffffffff1663a8d936276040518163ffffffff1660e01b815260040160206040518083038186803b15801561075357600080fd5b505afa158015610767573d6000803e3d6000fd5b505050506040513d602081101561077d57600080fd5b8101908080519060200190929190505050836001868502018151811061079f57fe5b6020026020010181815250508073ffffffffffffffffffffffffffffffffffffffff1663a3180217886040518263ffffffff1660e01b8152600401808273ffffffffffffffffffffffffffffffffffffffff16815260200191505060206040518083038186803b15801561081257600080fd5b505afa158015610826573d6000803e3d6000fd5b505050506040513d602081101561083c57600080fd5b8101908080519060200190929190505050836002868502018151811061085e57fe5b6020026020010181815250508073ffffffffffffffffffffffffffffffffffffffff16633792def3886040518263ffffffff1660e01b8152600401808273ffffffffffffffffffffffffffffffffffffffff16815260200191505060206040518083038186803b1580156108d157600080fd5b505afa1580156108e5573d6000803e3d6000fd5b505050506040513d60208110156108fb57600080fd5b8101908080519060200190929190505050836003868502018151811061091d57fe5b60200260200101818152505085828151811061093557fe5b602002602001015173ffffffffffffffffffffffffffffffffffffffff166318160ddd6040518163ffffffff1660e01b815260040160206040518083038186803b15801561098257600080fd5b505afa158015610996573d6000803e3d6000fd5b505050506040513d60208110156109ac57600080fd5b810190808051906020019092919050505083600486850201815181106109ce57fe5b602002602001018181525050508080600101915050610630565b50809250505092915050565b60606000600c905060608184510267ffffffffffffffff81118015610a1857600080fd5b50604051908082528060200260200182016040528015610a475781602001602082028036833780820191505090505b50905060005b8451811015611406576000858281518110610a6457fe5b6020026020010151905060008173ffffffffffffffffffffffffffffffffffffffff16636bcb411a6040518163ffffffff1660e01b815260040160206040518083038186803b158015610ab657600080fd5b505afa158015610aca573d6000803e3d6000fd5b505050506040513d6020811015610ae057600080fd5b810190808051906020019092919050505090508173ffffffffffffffffffffffffffffffffffffffff16635d50e729896040518263ffffffff1660e01b8152600401808273ffffffffffffffffffffffffffffffffffffffff16815260200191505060206040518083038186803b158015610b5a57600080fd5b505afa158015610b6e573d6000803e3d6000fd5b505050506040513d6020811015610b8457600080fd5b81019080805190602001909291905050508486850281518110610ba357fe5b6020026020010181815250508173ffffffffffffffffffffffffffffffffffffffff1663d5a73fdd896040518263ffffffff1660e01b8152600401808273ffffffffffffffffffffffffffffffffffffffff16815260200191505060206040518083038186803b158015610c1657600080fd5b505afa158015610c2a573d6000803e3d6000fd5b505050506040513d6020811015610c4057600080fd5b81019080805190602001909291905050508460018786020181518110610c6257fe5b602002602001018181525050868381518110610c7a57fe5b602002602001015173ffffffffffffffffffffffffffffffffffffffff166370a08231896040518263ffffffff1660e01b8152600401808273ffffffffffffffffffffffffffffffffffffffff16815260200191505060206040518083038186803b158015610ce857600080fd5b505afa158015610cfc573d6000803e3d6000fd5b505050506040513d6020811015610d1257600080fd5b81019080805190602001909291905050508460028786020181518110610d3457fe5b6020026020010181815250508173ffffffffffffffffffffffffffffffffffffffff166371417b32896040518263ffffffff1660e01b8152600401808273ffffffffffffffffffffffffffffffffffffffff16815260200191505060206040518083038186803b158015610da757600080fd5b505afa158015610dbb573d6000803e3d6000fd5b505050506040513d6020811015610dd157600080fd5b81019080805190602001909291905050508460038786020181518110610df357fe5b6020026020010181815250508173ffffffffffffffffffffffffffffffffffffffff1663402914f5896040518263ffffffff1660e01b8152600401808273ffffffffffffffffffffffffffffffffffffffff16815260200191505060206040518083038186803b158015610e6657600080fd5b505afa158015610e7a573d6000803e3d6000fd5b505050506040513d6020811015610e9057600080fd5b81019080805190602001909291905050508460048786020181518110610eb257fe5b6020026020010181815250508173ffffffffffffffffffffffffffffffffffffffff166308f26c76896040518263ffffffff1660e01b8152600401808273ffffffffffffffffffffffffffffffffffffffff16815260200191505060206040518083038186803b158015610f2557600080fd5b505afa158015610f39573d6000803e3d6000fd5b505050506040513d6020811015610f4f57600080fd5b81019080805190602001909291905050508460058786020181518110610f7157fe5b6020026020010181815250508173ffffffffffffffffffffffffffffffffffffffff166345f01ee6896040518263ffffffff1660e01b8152600401808273ffffffffffffffffffffffffffffffffffffffff16815260200191505060206040518083038186803b158015610fe457600080fd5b505afa158015610ff8573d6000803e3d6000fd5b505050506040513d602081101561100e57600080fd5b8101908080519060200190929190505050846006878602018151811061103057fe5b6020026020010181815250508073ffffffffffffffffffffffffffffffffffffffff16633792def3896040518263ffffffff1660e01b8152600401808273ffffffffffffffffffffffffffffffffffffffff16815260200191505060206040518083038186803b1580156110a357600080fd5b505afa1580156110b7573d6000803e3d6000fd5b505050506040513d60208110156110cd57600080fd5b810190808051906020019092919050505084600787860201815181106110ef57fe5b6020026020010181815250508173ffffffffffffffffffffffffffffffffffffffff1663b71bce2a896040518263ffffffff1660e01b8152600401808273ffffffffffffffffffffffffffffffffffffffff16815260200191505060206040518083038186803b15801561116257600080fd5b505afa158015611176573d6000803e3d6000fd5b505050506040513d602081101561118c57600080fd5b810190808051906020019092919050505084600887860201815181106111ae57fe5b6020026020010181815250508173ffffffffffffffffffffffffffffffffffffffff1663a2545fa5896040518263ffffffff1660e01b8152600401808273ffffffffffffffffffffffffffffffffffffffff16815260200191505060206040518083038186803b15801561122157600080fd5b505afa158015611235573d6000803e3d6000fd5b505050506040513d602081101561124b57600080fd5b8101908080519060200190929190505050846009878602018151811061126d57fe5b6020026020010181815250508073ffffffffffffffffffffffffffffffffffffffff1663a3180217896040518263ffffffff1660e01b8152600401808273ffffffffffffffffffffffffffffffffffffffff16815260200191505060206040518083038186803b1580156112e057600080fd5b505afa1580156112f4573d6000803e3d6000fd5b505050506040513d602081101561130a57600080fd5b810190808051906020019092919050505084600a878602018151811061132c57fe5b6020026020010181815250508173ffffffffffffffffffffffffffffffffffffffff16637337035c896040518263ffffffff1660e01b8152600401808273ffffffffffffffffffffffffffffffffffffffff16815260200191505060206040518083038186803b15801561139f57600080fd5b505afa1580156113b3573d6000803e3d6000fd5b505050506040513d60208110156113c957600080fd5b810190808051906020019092919050505084600b87860201815181106113eb57fe5b60200260200101818152505050508080600101915050610a4d565b5080925050509291505056fea26469706673582212201b3a0ea444ce17425044dd3b0a10bac533207066c01d17145cf1c4d00267b60864736f6c634300060c0033",
  "linkReferences": {},
  "deployedLinkReferences": {}
}