{
  "_format": "hh-sol-artifact-1",
  "contractName": "ShortsTrackerTimelock",
  "sourceName": "contracts/gmx/peripherals/ShortsTrackerTimelock.sol",
  "abi": [
    {
      "inputs": [
        {
          "internalType": "address",
          "name": "_admin",
          "type": "address"
        },
        {
          "internalType": "uint256",
          "name": "_buffer",
          "type": "uint256"
        },
        {
          "internalType": "uint256",
          "name": "_averagePriceUpdateDelay",
          "type": "uint256"
        },
        {
          "internalType": "uint256",
          "name": "_maxAveragePriceChange",
          "type": "uint256"
        }
      ],
      "stateMutability": "nonpayable",
      "type": "constructor"
    },
    {
      "anonymous": false,
      "inputs": [
        {
          "indexed": false,
          "internalType": "bytes32",
          "name": "action",
          "type": "bytes32"
        }
      ],
      "name": "ClearAction",
      "type": "event"
    },
    {
      "anonymous": false,
      "inputs": [
        {
          "indexed": true,
          "internalType": "address",
          "name": "token",
          "type": "address"
        },
        {
          "indexed": false,
          "internalType": "uint256",
          "name": "oldAveragePrice",
          "type": "uint256"
        },
        {
          "indexed": false,
          "internalType": "uint256",
          "name": "newAveragePrice",
          "type": "uint256"
        }
      ],
      "name": "GlobalShortAveragePriceUpdated",
      "type": "event"
    },
    {
      "anonymous": false,
      "inputs": [
        {
          "indexed": false,
          "internalType": "address",
          "name": "admin",
          "type": "address"
        }
      ],
      "name": "SetAdmin",
      "type": "event"
    },
    {
      "anonymous": false,
      "inputs": [
        {
          "indexed": false,
          "internalType": "uint256",
          "name": "averagePriceUpdateDelay",
          "type": "uint256"
        }
      ],
      "name": "SetAveragePriceUpdateDelay",
      "type": "event"
    },
    {
      "anonymous": false,
      "inputs": [
        {
          "indexed": false,
          "internalType": "address",
          "name": "target",
          "type": "address"
        },
        {
          "indexed": false,
          "internalType": "address",
          "name": "gov",
          "type": "address"
        }
      ],
      "name": "SetGov",
      "type": "event"
    },
    {
      "anonymous": false,
      "inputs": [
        {
          "indexed": true,
          "internalType": "address",
          "name": "handler",
          "type": "address"
        },
        {
          "indexed": false,
          "internalType": "bool",
          "name": "isHandler",
          "type": "bool"
        }
      ],
      "name": "SetHandler",
      "type": "event"
    },
    {
      "anonymous": false,
      "inputs": [
        {
          "indexed": false,
          "internalType": "address",
          "name": "target",
          "type": "address"
        },
        {
          "indexed": false,
          "internalType": "bool",
          "name": "isGlobalShortDataReady",
          "type": "bool"
        }
      ],
      "name": "SetIsGlobalShortDataReady",
      "type": "event"
    },
    {
      "anonymous": false,
      "inputs": [
        {
          "indexed": false,
          "internalType": "uint256",
          "name": "maxAveragePriceChange",
          "type": "uint256"
        }
      ],
      "name": "SetMaxAveragePriceChange",
      "type": "event"
    },
    {
      "anonymous": false,
      "inputs": [
        {
          "indexed": false,
          "internalType": "bytes32",
          "name": "action",
          "type": "bytes32"
        }
      ],
      "name": "SignalPendingAction",
      "type": "event"
    },
    {
      "anonymous": false,
      "inputs": [
        {
          "indexed": false,
          "internalType": "address",
          "name": "admin",
          "type": "address"
        }
      ],
      "name": "SignalSetAdmin",
      "type": "event"
    },
    {
      "anonymous": false,
      "inputs": [
        {
          "indexed": false,
          "internalType": "uint256",
          "name": "averagePriceUpdateDelay",
          "type": "uint256"
        }
      ],
      "name": "SignalSetAveragePriceUpdateDelay",
      "type": "event"
    },
    {
      "anonymous": false,
      "inputs": [
        {
          "indexed": false,
          "internalType": "address",
          "name": "target",
          "type": "address"
        },
        {
          "indexed": false,
          "internalType": "address",
          "name": "gov",
          "type": "address"
        }
      ],
      "name": "SignalSetGov",
      "type": "event"
    },
    {
      "anonymous": false,
      "inputs": [
        {
          "indexed": false,
          "internalType": "address",
          "name": "target",
          "type": "address"
        },
        {
          "indexed": false,
          "internalType": "bool",
          "name": "isGlobalShortDataReady",
          "type": "bool"
        }
      ],
      "name": "SignalSetIsGlobalShortDataReady",
      "type": "event"
    },
    {
      "anonymous": false,
      "inputs": [
        {
          "indexed": false,
          "internalType": "uint256",
          "name": "maxAveragePriceChange",
          "type": "uint256"
        }
      ],
      "name": "SignalSetMaxAveragePriceChange",
      "type": "event"
    },
    {
      "inputs": [],
      "name": "BASIS_POINTS_DIVISOR",
      "outputs": [
        {
          "internalType": "uint256",
          "name": "",
          "type": "uint256"
        }
      ],
      "stateMutability": "view",
      "type": "function"
    },
    {
      "inputs": [],
      "name": "MAX_BUFFER",
      "outputs": [
        {
          "internalType": "uint256",
          "name": "",
          "type": "uint256"
        }
      ],
      "stateMutability": "view",
      "type": "function"
    },
    {
      "inputs": [],
      "name": "admin",
      "outputs": [
        {
          "internalType": "address",
          "name": "",
          "type": "address"
        }
      ],
      "stateMutability": "view",
      "type": "function"
    },
    {
      "inputs": [],
      "name": "averagePriceUpdateDelay",
      "outputs": [
        {
          "internalType": "uint256",
          "name": "",
          "type": "uint256"
        }
      ],
      "stateMutability": "view",
      "type": "function"
    },
    {
      "inputs": [],
      "name": "buffer",
      "outputs": [
        {
          "internalType": "uint256",
          "name": "",
          "type": "uint256"
        }
      ],
      "stateMutability": "view",
      "type": "function"
    },
    {
      "inputs": [
        {
          "internalType": "contract IShortsTracker",
          "name": "_shortsTracker",
          "type": "address"
        }
      ],
      "name": "disableIsGlobalShortDataReady",
      "outputs": [],
      "stateMutability": "nonpayable",
      "type": "function"
    },
    {
      "inputs": [
        {
          "internalType": "address",
          "name": "",
          "type": "address"
        }
      ],
      "name": "isHandler",
      "outputs": [
        {
          "internalType": "bool",
          "name": "",
          "type": "bool"
        }
      ],
      "stateMutability": "view",
      "type": "function"
    },
    {
      "inputs": [
        {
          "internalType": "address",
          "name": "",
          "type": "address"
        }
      ],
      "name": "lastUpdated",
      "outputs": [
        {
          "internalType": "uint256",
          "name": "",
          "type": "uint256"
        }
      ],
      "stateMutability": "view",
      "type": "function"
    },
    {
      "inputs": [],
      "name": "maxAveragePriceChange",
      "outputs": [
        {
          "internalType": "uint256",
          "name": "",
          "type": "uint256"
        }
      ],
      "stateMutability": "view",
      "type": "function"
    },
    {
      "inputs": [
        {
          "internalType": "bytes32",
          "name": "",
          "type": "bytes32"
        }
      ],
      "name": "pendingActions",
      "outputs": [
        {
          "internalType": "uint256",
          "name": "",
          "type": "uint256"
        }
      ],
      "stateMutability": "view",
      "type": "function"
    },
    {
      "inputs": [
        {
          "internalType": "address",
          "name": "_admin",
          "type": "address"
        }
      ],
      "name": "setAdmin",
      "outputs": [],
      "stateMutability": "nonpayable",
      "type": "function"
    },
    {
      "inputs": [
        {
          "internalType": "uint256",
          "name": "_averagePriceUpdateDelay",
          "type": "uint256"
        }
      ],
      "name": "setAveragePriceUpdateDelay",
      "outputs": [],
      "stateMutability": "nonpayable",
      "type": "function"
    },
    {
      "inputs": [
        {
          "internalType": "uint256",
          "name": "_buffer",
          "type": "uint256"
        }
      ],
      "name": "setBuffer",
      "outputs": [],
      "stateMutability": "nonpayable",
      "type": "function"
    },
    {
      "inputs": [
        {
          "internalType": "contract IShortsTracker",
          "name": "_shortsTracker",
          "type": "address"
        },
        {
          "internalType": "address[]",
          "name": "_tokens",
          "type": "address[]"
        },
        {
          "internalType": "uint256[]",
          "name": "_averagePrices",
          "type": "uint256[]"
        }
      ],
      "name": "setGlobalShortAveragePrices",
      "outputs": [],
      "stateMutability": "nonpayable",
      "type": "function"
    },
    {
      "inputs": [
        {
          "internalType": "address",
          "name": "_shortsTracker",
          "type": "address"
        },
        {
          "internalType": "address",
          "name": "_gov",
          "type": "address"
        }
      ],
      "name": "setGov",
      "outputs": [],
      "stateMutability": "nonpayable",
      "type": "function"
    },
    {
      "inputs": [
        {
          "internalType": "address",
          "name": "_handler",
          "type": "address"
        },
        {
          "internalType": "bool",
          "name": "_isActive",
          "type": "bool"
        }
      ],
      "name": "setHandler",
      "outputs": [],
      "stateMutability": "nonpayable",
      "type": "function"
    },
    {
      "inputs": [
        {
          "internalType": "contract IShortsTracker",
          "name": "_shortsTracker",
          "type": "address"
        },
        {
          "internalType": "bool",
          "name": "_value",
          "type": "bool"
        }
      ],
      "name": "setIsGlobalShortDataReady",
      "outputs": [],
      "stateMutability": "nonpayable",
      "type": "function"
    },
    {
      "inputs": [
        {
          "internalType": "uint256",
          "name": "_maxAveragePriceChange",
          "type": "uint256"
        }
      ],
      "name": "setMaxAveragePriceChange",
      "outputs": [],
      "stateMutability": "nonpayable",
      "type": "function"
    },
    {
      "inputs": [
        {
          "internalType": "address",
          "name": "_admin",
          "type": "address"
        }
      ],
      "name": "signalSetAdmin",
      "outputs": [],
      "stateMutability": "nonpayable",
      "type": "function"
    },
    {
      "inputs": [
        {
          "internalType": "uint256",
          "name": "_averagePriceUpdateDelay",
          "type": "uint256"
        }
      ],
      "name": "signalSetAveragePriceUpdateDelay",
      "outputs": [],
      "stateMutability": "nonpayable",
      "type": "function"
    },
    {
      "inputs": [
        {
          "internalType": "address",
          "name": "_shortsTracker",
          "type": "address"
        },
        {
          "internalType": "address",
          "name": "_gov",
          "type": "address"
        }
      ],
      "name": "signalSetGov",
      "outputs": [],
      "stateMutability": "nonpayable",
      "type": "function"
    },
    {
      "inputs": [
        {
          "internalType": "contract IShortsTracker",
          "name": "_shortsTracker",
          "type": "address"
        },
        {
          "internalType": "bool",
          "name": "_value",
          "type": "bool"
        }
      ],
      "name": "signalSetIsGlobalShortDataReady",
      "outputs": [],
      "stateMutability": "nonpayable",
      "type": "function"
    },
    {
      "inputs": [
        {
          "internalType": "uint256",
          "name": "_maxAveragePriceChange",
          "type": "uint256"
        }
      ],
      "name": "signalSetMaxAveragePriceChange",
      "outputs": [],
      "stateMutability": "nonpayable",
      "type": "function"
    }
  ],
  "bytecode": "0x608060405234801561001057600080fd5b50604051612a99380380612a998339818101604052608081101561003357600080fd5b810190808051906020019092919080519060200190929190805190602001909291908051906020019092919050505083600160006101000a81548173ffffffffffffffffffffffffffffffffffffffff021916908373ffffffffffffffffffffffffffffffffffffffff160217905550826002819055508160058190555080600681905550505050506129ce806100cb6000396000f3fe608060405234801561001057600080fd5b506004361061014d5760003560e01c806351a6de0d116100c3578063996a7a1e1161007c578063996a7a1e146105f25780639cb7de4b14610656578063adc7ea37146106a6578063e30569e5146106d4578063edaafe2014610716578063f851a440146107345761014d565b806351a6de0d146104765780635c3bca36146104da57806361d0756914610508578063627395eb14610526578063704b6c021461056a578063717cf5d6146105ae5761014d565b8063331566391161011557806333156639146102645780633976e5661461029257806342588a671461038057806342773c2c146103ae57806346ea87af146103cc5780634882fa13146104265761014d565b80630a6f93e614610152578063126082cf146101aa5780631ab8fe04146101c85780632591d483146101e65780632c166c4114610236575b600080fd5b6101946004803603602081101561016857600080fd5b81019080803573ffffffffffffffffffffffffffffffffffffffff169060200190929190505050610768565b6040518082815260200191505060405180910390f35b6101b2610780565b6040518082815260200191505060405180910390f35b6101d0610786565b6040518082815260200191505060405180910390f35b610234600480360360408110156101fc57600080fd5b81019080803573ffffffffffffffffffffffffffffffffffffffff16906020019092919080351515906020019092919050505061078c565b005b6102626004803603602081101561024c57600080fd5b8101908080359060200190929190505050610986565b005b6102906004803603602081101561027a57600080fd5b8101908080359060200190929190505050610ad3565b005b61037e600480360360608110156102a857600080fd5b81019080803573ffffffffffffffffffffffffffffffffffffffff169060200190929190803590602001906401000000008111156102e557600080fd5b8201836020820111156102f757600080fd5b8035906020019184602083028401116401000000008311171561031957600080fd5b90919293919293908035906020019064010000000081111561033a57600080fd5b82018360208201111561034c57600080fd5b8035906020019184602083028401116401000000008311171561036e57600080fd5b9091929391929390505050610c20565b005b6103ac6004803603602081101561039657600080fd5b8101908080359060200190929190505050611184565b005b6103b66112c1565b6040518082815260200191505060405180910390f35b61040e600480360360208110156103e257600080fd5b81019080803573ffffffffffffffffffffffffffffffffffffffff1690602001909291905050506112c7565b60405180821515815260200191505060405180910390f35b6104746004803603604081101561043c57600080fd5b81019080803573ffffffffffffffffffffffffffffffffffffffff1690602001909291908035151590602001909291905050506112e7565b005b6104d86004803603604081101561048c57600080fd5b81019080803573ffffffffffffffffffffffffffffffffffffffff169060200190929190803573ffffffffffffffffffffffffffffffffffffffff16906020019092919050505061146b565b005b610506600480360360208110156104f057600080fd5b81019080803590602001909291905050506116a1565b005b6105106117de565b6040518082815260200191505060405180910390f35b6105686004803603602081101561053c57600080fd5b81019080803573ffffffffffffffffffffffffffffffffffffffff1690602001909291905050506117e5565b005b6105ac6004803603602081101561058057600080fd5b81019080803573ffffffffffffffffffffffffffffffffffffffff169060200190929190505050611954565b005b6105f0600480360360208110156105c457600080fd5b81019080803573ffffffffffffffffffffffffffffffffffffffff169060200190929190505050611b0a565b005b6106546004803603604081101561060857600080fd5b81019080803573ffffffffffffffffffffffffffffffffffffffff169060200190929190803573ffffffffffffffffffffffffffffffffffffffff169060200190929190505050611cfc565b005b6106a46004803603604081101561066c57600080fd5b81019080803573ffffffffffffffffffffffffffffffffffffffff169060200190929190803515159060200190929190505050611f2e565b005b6106d2600480360360208110156106bc57600080fd5b810190808035906020019092919050505061207f565b005b610700600480360360208110156106ea57600080fd5b81019080803590602001909291905050506121e5565b6040518082815260200191505060405180910390f35b61071e6121fd565b6040518082815260200191505060405180910390f35b61073c612203565b604051808273ffffffffffffffffffffffffffffffffffffffff16815260200191505060405180910390f35b60046020528060005260406000206000915090505481565b61271081565b60055481565b600160009054906101000a900473ffffffffffffffffffffffffffffffffffffffff1673ffffffffffffffffffffffffffffffffffffffff163373ffffffffffffffffffffffffffffffffffffffff1614610832576040517f08c379a000000000000000000000000000000000000000000000000000000000815260040180806020018281038252602681526020018061282b6026913960400191505060405180910390fd5b6000828260405160200180807f7365744973476c6f62616c53686f7274446174615265616479000000000000008152506019018373ffffffffffffffffffffffffffffffffffffffff1660601b815260140182151560f81b8152600101925050506040516020818303038152906040528051906020012090506108b481612229565b6108bd81612303565b8273ffffffffffffffffffffffffffffffffffffffff16633d30cabf836040518263ffffffff1660e01b8152600401808215158152602001915050600060405180830381600087803b15801561091257600080fd5b505af1158015610926573d6000803e3d6000fd5b505050507f177de4361fc37a0e8defe8ac0c685d3472789b507959897eec32350c9d2c36668383604051808373ffffffffffffffffffffffffffffffffffffffff16815260200182151581526020019250505060405180910390a1505050565b600160009054906101000a900473ffffffffffffffffffffffffffffffffffffffff1673ffffffffffffffffffffffffffffffffffffffff163373ffffffffffffffffffffffffffffffffffffffff1614610a2c576040517f08c379a000000000000000000000000000000000000000000000000000000000815260040180806020018281038252602681526020018061282b6026913960400191505060405180910390fd5b60008160405160200180807f7365744d61784176657261676550726963654368616e67650000000000000000815250601801828152602001915050604051602081830303815290604052805190602001209050610a8881612229565b610a9181612303565b816006819055507fe846c28c10eef345d8d4fea8b403bfac624c32c3e64ce0b666f23404f2edb514826040518082815260200191505060405180910390a15050565b600160009054906101000a900473ffffffffffffffffffffffffffffffffffffffff1673ffffffffffffffffffffffffffffffffffffffff163373ffffffffffffffffffffffffffffffffffffffff1614610b79576040517f08c379a000000000000000000000000000000000000000000000000000000000815260040180806020018281038252602681526020018061282b6026913960400191505060405180910390fd5b60008160405160200180807f73657441766572616765507269636555706461746544656c6179000000000000815250601a01828152602001915050604051602081830303815290604052805190602001209050610bd581612229565b610bde81612303565b816005819055507fa043b6b847902bb85c2a2575e9bce3a077bcaad8ec888ac941f50a6f4acdbb3d826040518082815260200191505060405180910390a15050565b600360003373ffffffffffffffffffffffffffffffffffffffff1673ffffffffffffffffffffffffffffffffffffffff16815260200190815260200160002060009054906101000a900460ff1680610cc55750600160009054906101000a900473ffffffffffffffffffffffffffffffffffffffff1673ffffffffffffffffffffffffffffffffffffffff163373ffffffffffffffffffffffffffffffffffffffff16145b610d1a576040517f08c379a00000000000000000000000000000000000000000000000000000000081526004018080602001828103825260288152602001806128516028913960400191505060405180910390fd5b8473ffffffffffffffffffffffffffffffffffffffff16633d30cabf60006040518263ffffffff1660e01b8152600401808215158152602001915050600060405180830381600087803b158015610d7057600080fd5b505af1158015610d84573d6000803e3d6000fd5b5050505060005b848490508110156110ab576000858583818110610da457fe5b9050602002013573ffffffffffffffffffffffffffffffffffffffff16905060008773ffffffffffffffffffffffffffffffffffffffff166362749803836040518263ffffffff1660e01b8152600401808273ffffffffffffffffffffffffffffffffffffffff16815260200191505060206040518083038186803b158015610e2c57600080fd5b505afa158015610e40573d6000803e3d6000fd5b505050506040513d6020811015610e5657600080fd5b810190808051906020019092919050505090506000858585818110610e7757fe5b9050602002013590506000828211610ea157610e9c82846123bf90919063ffffffff16565b610eb5565b610eb483836123bf90919063ffffffff16565b5b9050600654610ee184610ed36127108561240990919063ffffffff16565b61248f90919063ffffffff16565b10610f37576040517f08c379a00000000000000000000000000000000000000000000000000000000081526004018080602001828103825260258152602001806129746025913960400191505060405180910390fd5b610f8b600554600460008773ffffffffffffffffffffffffffffffffffffffff1673ffffffffffffffffffffffffffffffffffffffff168152602001908152602001600020546124d990919063ffffffff16565b421015611000576040517f08c379a00000000000000000000000000000000000000000000000000000000081526004018080602001828103825260208152602001807f53686f727473547261636b657254696d656c6f636b3a20746f6f206561726c7981525060200191505060405180910390fd5b42600460008673ffffffffffffffffffffffffffffffffffffffff1673ffffffffffffffffffffffffffffffffffffffff168152602001908152602001600020819055508373ffffffffffffffffffffffffffffffffffffffff167fa6a58ff784b1e07988de90568885d7bbd8e5485c3ec4344195c73061085532568484604051808381526020018281526020019250505060405180910390a2505050508080600101915050610d8b565b508473ffffffffffffffffffffffffffffffffffffffff1663bbd97187858585856040518563ffffffff1660e01b81526004018080602001806020018381038352878782818152602001925060200280828437600081840152601f19601f8201169050808301925050508381038252858582818152602001925060200280828437600081840152601f19601f8201169050808301925050509650505050505050600060405180830381600087803b15801561116557600080fd5b505af1158015611179573d6000803e3d6000fd5b505050505050505050565b600160009054906101000a900473ffffffffffffffffffffffffffffffffffffffff1673ffffffffffffffffffffffffffffffffffffffff163373ffffffffffffffffffffffffffffffffffffffff161461122a576040517f08c379a000000000000000000000000000000000000000000000000000000000815260040180806020018281038252602681526020018061282b6026913960400191505060405180910390fd5b60008160405160200180807f73657441766572616765507269636555706461746544656c6179000000000000815250601a0182815260200191505060405160208183030381529060405280519060200120905061128681612561565b7fc226c48cee6a025ab009e01969a2e89f1ce4d455cfa2900745b2237cb0bb8d61826040518082815260200191505060405180910390a15050565b60065481565b60036020528060005260406000206000915054906101000a900460ff1681565b600160009054906101000a900473ffffffffffffffffffffffffffffffffffffffff1673ffffffffffffffffffffffffffffffffffffffff163373ffffffffffffffffffffffffffffffffffffffff161461138d576040517f08c379a000000000000000000000000000000000000000000000000000000000815260040180806020018281038252602681526020018061282b6026913960400191505060405180910390fd5b6000828260405160200180807f7365744973476c6f62616c53686f7274446174615265616479000000000000008152506019018373ffffffffffffffffffffffffffffffffffffffff1660601b815260140182151560f81b81526001019250505060405160208183030381529060405280519060200120905061140f81612561565b7f362e5bba25647700de1a7562fc07672df837bef17125e07a6f79abea31ee5a488383604051808373ffffffffffffffffffffffffffffffffffffffff16815260200182151581526020019250505060405180910390a1505050565b600160009054906101000a900473ffffffffffffffffffffffffffffffffffffffff1673ffffffffffffffffffffffffffffffffffffffff163373ffffffffffffffffffffffffffffffffffffffff1614611511576040517f08c379a000000000000000000000000000000000000000000000000000000000815260040180806020018281038252602681526020018061282b6026913960400191505060405180910390fd5b6000828260405160200180807f736574476f7600000000000000000000000000000000000000000000000000008152506006018373ffffffffffffffffffffffffffffffffffffffff1660601b81526014018273ffffffffffffffffffffffffffffffffffffffff1660601b8152601401925050506040516020818303038152906040528051906020012090506115a781612229565b6115b081612303565b8273ffffffffffffffffffffffffffffffffffffffff1663cfad57a2836040518263ffffffff1660e01b8152600401808273ffffffffffffffffffffffffffffffffffffffff168152602001915050600060405180830381600087803b15801561161957600080fd5b505af115801561162d573d6000803e3d6000fd5b505050507f53351836099c03ffc3b1727d8abd4b0222afa87d4ed76ae3102d51369ef7f7858383604051808373ffffffffffffffffffffffffffffffffffffffff1681526020018273ffffffffffffffffffffffffffffffffffffffff1681526020019250505060405180910390a1505050565b600160009054906101000a900473ffffffffffffffffffffffffffffffffffffffff1673ffffffffffffffffffffffffffffffffffffffff163373ffffffffffffffffffffffffffffffffffffffff1614611747576040517f08c379a000000000000000000000000000000000000000000000000000000000815260040180806020018281038252602681526020018061282b6026913960400191505060405180910390fd5b60008160405160200180807f7365744d61784176657261676550726963654368616e676500000000000000008152506018018281526020019150506040516020818303038152906040528051906020012090506117a381612561565b7f21f68305d262b9ce144019f5d9f755a2dd1b5c2d35996cd4b649c285d7525cd1826040518082815260200191505060405180910390a15050565b6206978081565b600160009054906101000a900473ffffffffffffffffffffffffffffffffffffffff1673ffffffffffffffffffffffffffffffffffffffff163373ffffffffffffffffffffffffffffffffffffffff161461188b576040517f08c379a000000000000000000000000000000000000000000000000000000000815260040180806020018281038252602681526020018061282b6026913960400191505060405180910390fd5b8073ffffffffffffffffffffffffffffffffffffffff16633d30cabf60006040518263ffffffff1660e01b8152600401808215158152602001915050600060405180830381600087803b1580156118e157600080fd5b505af11580156118f5573d6000803e3d6000fd5b505050507f177de4361fc37a0e8defe8ac0c685d3472789b507959897eec32350c9d2c3666816000604051808373ffffffffffffffffffffffffffffffffffffffff16815260200182151581526020019250505060405180910390a150565b600160009054906101000a900473ffffffffffffffffffffffffffffffffffffffff1673ffffffffffffffffffffffffffffffffffffffff163373ffffffffffffffffffffffffffffffffffffffff16146119fa576040517f08c379a000000000000000000000000000000000000000000000000000000000815260040180806020018281038252602681526020018061282b6026913960400191505060405180910390fd5b60008160405160200180807f73657441646d696e0000000000000000000000000000000000000000000000008152506008018273ffffffffffffffffffffffffffffffffffffffff1660601b8152601401915050604051602081830303815290604052805190602001209050611a6f81612229565b611a7881612303565b81600160006101000a81548173ffffffffffffffffffffffffffffffffffffffff021916908373ffffffffffffffffffffffffffffffffffffffff1602179055507f5a272403b402d892977df56625f4164ccaf70ca3863991c43ecfe76a6905b0a182604051808273ffffffffffffffffffffffffffffffffffffffff16815260200191505060405180910390a15050565b600160009054906101000a900473ffffffffffffffffffffffffffffffffffffffff1673ffffffffffffffffffffffffffffffffffffffff163373ffffffffffffffffffffffffffffffffffffffff1614611bb0576040517f08c379a000000000000000000000000000000000000000000000000000000000815260040180806020018281038252602681526020018061282b6026913960400191505060405180910390fd5b600073ffffffffffffffffffffffffffffffffffffffff168173ffffffffffffffffffffffffffffffffffffffff161415611c36576040517f08c379a00000000000000000000000000000000000000000000000000000000081526004018080602001828103825260248152602001806128fa6024913960400191505060405180910390fd5b60008160405160200180807f73657441646d696e0000000000000000000000000000000000000000000000008152506008018273ffffffffffffffffffffffffffffffffffffffff1660601b8152601401915050604051602081830303815290604052805190602001209050611cab81612561565b7fbccacda50126e9efa231593d2a9d4394d7cda7909ab2e14d2ae878ab2a306b3f82604051808273ffffffffffffffffffffffffffffffffffffffff16815260200191505060405180910390a15050565b600160009054906101000a900473ffffffffffffffffffffffffffffffffffffffff1673ffffffffffffffffffffffffffffffffffffffff163373ffffffffffffffffffffffffffffffffffffffff1614611da2576040517f08c379a000000000000000000000000000000000000000000000000000000000815260040180806020018281038252602681526020018061282b6026913960400191505060405180910390fd5b600073ffffffffffffffffffffffffffffffffffffffff168173ffffffffffffffffffffffffffffffffffffffff161415611e28576040517f08c379a00000000000000000000000000000000000000000000000000000000081526004018080602001828103825260228152602001806127b86022913960400191505060405180910390fd5b6000828260405160200180807f736574476f7600000000000000000000000000000000000000000000000000008152506006018373ffffffffffffffffffffffffffffffffffffffff1660601b81526014018273ffffffffffffffffffffffffffffffffffffffff1660601b815260140192505050604051602081830303815290604052805190602001209050611ebe81612561565b7f84f5d90471bb5811423318895e49ef4de52f5a6f4dac67af85e4202410bb66a48383604051808373ffffffffffffffffffffffffffffffffffffffff1681526020018273ffffffffffffffffffffffffffffffffffffffff1681526020019250505060405180910390a1505050565b600160009054906101000a900473ffffffffffffffffffffffffffffffffffffffff1673ffffffffffffffffffffffffffffffffffffffff163373ffffffffffffffffffffffffffffffffffffffff1614611fd4576040517f08c379a000000000000000000000000000000000000000000000000000000000815260040180806020018281038252602681526020018061282b6026913960400191505060405180910390fd5b80600360008473ffffffffffffffffffffffffffffffffffffffff1673ffffffffffffffffffffffffffffffffffffffff16815260200190815260200160002060006101000a81548160ff0219169083151502179055508173ffffffffffffffffffffffffffffffffffffffff167fd373464a39404e5f98fdb4b152b8ba9a094561e97e5c4b4ea11eb18cd9e6695e8260405180821515815260200191505060405180910390a25050565b600160009054906101000a900473ffffffffffffffffffffffffffffffffffffffff1673ffffffffffffffffffffffffffffffffffffffff163373ffffffffffffffffffffffffffffffffffffffff1614612125576040517f08c379a000000000000000000000000000000000000000000000000000000000815260040180806020018281038252602681526020018061282b6026913960400191505060405180910390fd5b62069780811115612181576040517f08c379a000000000000000000000000000000000000000000000000000000000815260040180806020018281038252602581526020018061291e6025913960400191505060405180910390fd5b60025481116121db576040517f08c379a00000000000000000000000000000000000000000000000000000000081526004018080602001828103825260318152602001806129436031913960400191505060405180910390fd5b8060028190555050565b60006020528060005260406000206000915090505481565b60025481565b600160009054906101000a900473ffffffffffffffffffffffffffffffffffffffff1681565b6000806000838152602001908152602001600020541415612295576040517f08c379a000000000000000000000000000000000000000000000000000000000815260040180806020018281038252602b815260200180612800602b913960400191505060405180910390fd5b42600080838152602001908152602001600020541115612300576040517f08c379a00000000000000000000000000000000000000000000000000000000081526004018080602001828103825260318152602001806128c96031913960400191505060405180910390fd5b50565b600080600083815260200190815260200160002054141561236f576040517f08c379a00000000000000000000000000000000000000000000000000000000081526004018080602001828103825260268152602001806127da6026913960400191505060405180910390fd5b600080828152602001908152602001600020600090557f194ed6dd5e37e2acc44a19455c3f208c4831ee695fe362d9c4ef2d316bc53aec816040518082815260200191505060405180910390a150565b600061240183836040518060400160405280601e81526020017f536166654d6174683a207375627472616374696f6e206f766572666c6f770000815250612631565b905092915050565b60008083141561241c5760009050612489565b600082840290508284828161242d57fe5b0414612484576040517f08c379a00000000000000000000000000000000000000000000000000000000081526004018080602001828103825260218152602001806128a86021913960400191505060405180910390fd5b809150505b92915050565b60006124d183836040518060400160405280601a81526020017f536166654d6174683a206469766973696f6e206279207a65726f0000000000008152506126f1565b905092915050565b600080828401905083811015612557576040517f08c379a000000000000000000000000000000000000000000000000000000000815260040180806020018281038252601b8152602001807f536166654d6174683a206164646974696f6e206f766572666c6f77000000000081525060200191505060405180910390fd5b8091505092915050565b600080600083815260200190815260200160002054146125cc576040517f08c379a000000000000000000000000000000000000000000000000000000000815260040180806020018281038252602f815260200180612879602f913960400191505060405180910390fd5b6125e1600254426124d990919063ffffffff16565b600080838152602001908152602001600020819055507f5fb9c0ecf7b4a28c4c480212e868f9da7f373a2ed4d23498b0be6aadf35242fb816040518082815260200191505060405180910390a150565b60008383111582906126de576040517f08c379a00000000000000000000000000000000000000000000000000000000081526004018080602001828103825283818151815260200191508051906020019080838360005b838110156126a3578082015181840152602081019050612688565b50505050905090810190601f1680156126d05780820380516001836020036101000a031916815260200191505b509250505060405180910390fd5b5060008385039050809150509392505050565b6000808311829061279d576040517f08c379a00000000000000000000000000000000000000000000000000000000081526004018080602001828103825283818151815260200191508051906020019080838360005b83811015612762578082015181840152602081019050612747565b50505050905090810190601f16801561278f5780820380516001836020036101000a031916815260200191505b509250505060405180910390fd5b5060008385816127a957fe5b04905080915050939250505056fe53686f727473547261636b657254696d656c6f636b3a20696e76616c696420676f7653686f727473547261636b657254696d656c6f636b3a20696e76616c6964205f616374696f6e53686f727473547261636b657254696d656c6f636b3a20616374696f6e206e6f74207369676e616c6c656453686f727473547261636b657254696d656c6f636b3a2061646d696e20666f7262696464656e53686f727473547261636b657254696d656c6f636b3a2068616e646c657220666f7262696464656e53686f727473547261636b657254696d656c6f636b3a20616374696f6e20616c7265616479207369676e616c6c6564536166654d6174683a206d756c7469706c69636174696f6e206f766572666c6f7753686f727473547261636b657254696d656c6f636b3a20616374696f6e2074696d65206e6f74207965742070617373656453686f727473547261636b657254696d656c6f636b3a20696e76616c69642061646d696e53686f727473547261636b657254696d656c6f636b3a20696e76616c69642062756666657253686f727473547261636b657254696d656c6f636b3a206275666665722063616e6e6f742062652064656372656173656453686f727473547261636b657254696d656c6f636b3a20746f6f20626967206368616e6765a2646970667358221220adc7da3f10385ed4ba0864d2d2eddfda8d8e428fbab41f76ba59f4df63bcf4e564736f6c634300060c0033",
  "linkReferences": {},
  "deployedLinkReferences": {}
}