{
  "_format": "hh-sol-artifact-1",
  "contractName": "PriceFeed",
  "sourceName": "contracts/gmx/oracle/PriceFeed.sol",
  "abi": [
    {
      "inputs": [],
      "stateMutability": "nonpayable",
      "type": "constructor"
    },
    {
      "inputs": [],
      "name": "aggregator",
      "outputs": [
        {
          "internalType": "address",
          "name": "",
          "type": "address"
        }
      ],
      "stateMutability": "view",
      "type": "function"
    },
    {
      "inputs": [],
      "name": "answer",
      "outputs": [
        {
          "internalType": "int256",
          "name": "",
          "type": "int256"
        }
      ],
      "stateMutability": "view",
      "type": "function"
    },
    {
      "inputs": [
        {
          "internalType": "uint80",
          "name": "",
          "type": "uint80"
        }
      ],
      "name": "answers",
      "outputs": [
        {
          "internalType": "int256",
          "name": "",
          "type": "int256"
        }
      ],
      "stateMutability": "view",
      "type": "function"
    },
    {
      "inputs": [],
      "name": "decimals",
      "outputs": [
        {
          "internalType": "uint256",
          "name": "",
          "type": "uint256"
        }
      ],
      "stateMutability": "view",
      "type": "function"
    },
    {
      "inputs": [],
      "name": "description",
      "outputs": [
        {
          "internalType": "string",
          "name": "",
          "type": "string"
        }
      ],
      "stateMutability": "view",
      "type": "function"
    },
    {
      "inputs": [
        {
          "internalType": "uint80",
          "name": "_roundId",
          "type": "uint80"
        }
      ],
      "name": "getRoundData",
      "outputs": [
        {
          "internalType": "uint80",
          "name": "",
          "type": "uint80"
        },
        {
          "internalType": "int256",
          "name": "",
          "type": "int256"
        },
        {
          "internalType": "uint256",
          "name": "",
          "type": "uint256"
        },
        {
          "internalType": "uint256",
          "name": "",
          "type": "uint256"
        },
        {
          "internalType": "uint80",
          "name": "",
          "type": "uint80"
        }
      ],
      "stateMutability": "view",
      "type": "function"
    },
    {
      "inputs": [],
      "name": "gov",
      "outputs": [
        {
          "internalType": "address",
          "name": "",
          "type": "address"
        }
      ],
      "stateMutability": "view",
      "type": "function"
    },
    {
      "inputs": [
        {
          "internalType": "address",
          "name": "",
          "type": "address"
        }
      ],
      "name": "isAdmin",
      "outputs": [
        {
          "internalType": "bool",
          "name": "",
          "type": "bool"
        }
      ],
      "stateMutability": "view",
      "type": "function"
    },
    {
      "inputs": [],
      "name": "latestAnswer",
      "outputs": [
        {
          "internalType": "int256",
          "name": "",
          "type": "int256"
        }
      ],
      "stateMutability": "view",
      "type": "function"
    },
    {
      "inputs": [],
      "name": "latestRound",
      "outputs": [
        {
          "internalType": "uint80",
          "name": "",
          "type": "uint80"
        }
      ],
      "stateMutability": "view",
      "type": "function"
    },
    {
      "inputs": [],
      "name": "roundId",
      "outputs": [
        {
          "internalType": "uint80",
          "name": "",
          "type": "uint80"
        }
      ],
      "stateMutability": "view",
      "type": "function"
    },
    {
      "inputs": [
        {
          "internalType": "address",
          "name": "_account",
          "type": "address"
        },
        {
          "internalType": "bool",
          "name": "_isAdmin",
          "type": "bool"
        }
      ],
      "name": "setAdmin",
      "outputs": [],
      "stateMutability": "nonpayable",
      "type": "function"
    },
    {
      "inputs": [
        {
          "internalType": "int256",
          "name": "_answer",
          "type": "int256"
        }
      ],
      "name": "setLatestAnswer",
      "outputs": [],
      "stateMutability": "nonpayable",
      "type": "function"
    }
  ],
  "bytecode": "0x60806040526040518060400160405280600981526020017f50726963654665656400000000000000000000000000000000000000000000008152506002908051906020019061004f9291906100fb565b5034801561005c57600080fd5b5033600560006101000a81548173ffffffffffffffffffffffffffffffffffffffff021916908373ffffffffffffffffffffffffffffffffffffffff1602179055506001600760003373ffffffffffffffffffffffffffffffffffffffff1673ffffffffffffffffffffffffffffffffffffffff16815260200190815260200160002060006101000a81548160ff021916908315150217905550610198565b828054600181600116156101000203166002900490600052602060002090601f016020900481019282601f1061013c57805160ff191683800117855561016a565b8280016001018555821561016a579182015b8281111561016957825182559160200191906001019061014e565b5b509050610177919061017b565b5090565b5b8082111561019457600081600090555060010161017c565b5090565b610881806101a76000396000f3fe608060405234801561001057600080fd5b50600436106100cf5760003560e01c80634c295ca31161008c5780637284e416116100665780637284e416146102c857806385bb7d691461034b5780638cd221c9146103695780639a6fc8f514610393576100cf565b80634c295ca31461023257806350d25bcd14610280578063668a0f021461029e576100cf565b806304ea97b0146100d457806312d43a5114610102578063245a7bfc1461013657806324d7806c1461016a578063313ce567146101c45780634b0bddd2146101e2575b600080fd5b610100600480360360208110156100ea57600080fd5b8101908080359060200190929190505050610415565b005b61010a61056d565b604051808273ffffffffffffffffffffffffffffffffffffffff16815260200191505060405180910390f35b61013e610593565b604051808273ffffffffffffffffffffffffffffffffffffffff16815260200191505060405180910390f35b6101ac6004803603602081101561018057600080fd5b81019080803573ffffffffffffffffffffffffffffffffffffffff1690602001909291905050506105b9565b60405180821515815260200191505060405180910390f35b6101cc6105d9565b6040518082815260200191505060405180910390f35b610230600480360360408110156101f857600080fd5b81019080803573ffffffffffffffffffffffffffffffffffffffff1690602001909291908035151590602001909291905050506105df565b005b61026a6004803603602081101561024857600080fd5b81019080803569ffffffffffffffffffff1690602001909291905050506106fd565b6040518082815260200191505060405180910390f35b610288610715565b6040518082815260200191505060405180910390f35b6102a661071e565b604051808269ffffffffffffffffffff16815260200191505060405180910390f35b6102d061073e565b6040518080602001828103825283818151815260200191508051906020019080838360005b838110156103105780820151818401526020810190506102f5565b50505050905090810190601f16801561033d5780820380516001836020036101000a031916815260200191505b509250505060405180910390f35b6103536107dc565b6040518082815260200191505060405180910390f35b6103716107e2565b604051808269ffffffffffffffffffff16815260200191505060405180910390f35b6103cb600480360360208110156103a957600080fd5b81019080803569ffffffffffffffffffff1690602001909291905050506107fe565b604051808669ffffffffffffffffffff1681526020018581526020018481526020018381526020018269ffffffffffffffffffff1681526020019550505050505060405180910390f35b600760003373ffffffffffffffffffffffffffffffffffffffff1673ffffffffffffffffffffffffffffffffffffffff16815260200190815260200160002060009054906101000a900460ff166104d4576040517f08c379a00000000000000000000000000000000000000000000000000000000081526004018080602001828103825260148152602001807f5072696365466565643a20666f7262696464656e00000000000000000000000081525060200191505060405180910390fd5b60018060009054906101000a900469ffffffffffffffffffff1601600160006101000a81548169ffffffffffffffffffff021916908369ffffffffffffffffffff160217905550806000819055508060066000600160009054906101000a900469ffffffffffffffffffff1669ffffffffffffffffffff1669ffffffffffffffffffff1681526020019081526020016000208190555050565b600560009054906101000a900473ffffffffffffffffffffffffffffffffffffffff1681565b600360009054906101000a900473ffffffffffffffffffffffffffffffffffffffff1681565b60076020528060005260406000206000915054906101000a900460ff1681565b60045481565b600560009054906101000a900473ffffffffffffffffffffffffffffffffffffffff1673ffffffffffffffffffffffffffffffffffffffff163373ffffffffffffffffffffffffffffffffffffffff16146106a2576040517f08c379a00000000000000000000000000000000000000000000000000000000081526004018080602001828103825260148152602001807f5072696365466565643a20666f7262696464656e00000000000000000000000081525060200191505060405180910390fd5b80600760008473ffffffffffffffffffffffffffffffffffffffff1673ffffffffffffffffffffffffffffffffffffffff16815260200190815260200160002060006101000a81548160ff0219169083151502179055505050565b60066020528060005260406000206000915090505481565b60008054905090565b6000600160009054906101000a900469ffffffffffffffffffff16905090565b60028054600181600116156101000203166002900480601f0160208091040260200160405190810160405280929190818152602001828054600181600116156101000203166002900480156107d45780601f106107a9576101008083540402835291602001916107d4565b820191906000526020600020905b8154815290600101906020018083116107b757829003601f168201915b505050505081565b60005481565b600160009054906101000a900469ffffffffffffffffffff1681565b600080600080600085600660008869ffffffffffffffffffff1669ffffffffffffffffffff168152602001908152602001600020546000806000945094509450945094509193959092945056fea2646970667358221220019248bf7548340afc69e1f46e6fbe861e03c5a35acd670c7cb9461a8bfc043564736f6c634300060c0033",
  "linkReferences": {},
  "deployedLinkReferences": {}
}