{
  "_format": "hh-sol-artifact-1",
  "contractName": "UniNftManager",
  "sourceName": "contracts/gmx/amm/UniNftManager.sol",
  "abi": [
    {
      "inputs": [
        {
          "components": [
            {
              "internalType": "uint256",
              "name": "tokenId",
              "type": "uint256"
            },
            {
              "internalType": "address",
              "name": "recipient",
              "type": "address"
            },
            {
              "internalType": "uint128",
              "name": "amount0Max",
              "type": "uint128"
            },
            {
              "internalType": "uint128",
              "name": "amount1Max",
              "type": "uint128"
            }
          ],
          "internalType": "struct UniNftManager.CollectParams",
          "name": "params",
          "type": "tuple"
        }
      ],
      "name": "collect",
      "outputs": [
        {
          "internalType": "uint256",
          "name": "amount0",
          "type": "uint256"
        },
        {
          "internalType": "uint256",
          "name": "amount1",
          "type": "uint256"
        }
      ],
      "stateMutability": "nonpayable",
      "type": "function"
    },
    {
      "inputs": [
        {
          "internalType": "uint256",
          "name": "tokenId",
          "type": "uint256"
        }
      ],
      "name": "ownerOf",
      "outputs": [
        {
          "internalType": "address",
          "name": "",
          "type": "address"
        }
      ],
      "stateMutability": "view",
      "type": "function"
    },
    {
      "inputs": [
        {
          "internalType": "uint256",
          "name": "",
          "type": "uint256"
        }
      ],
      "name": "positions",
      "outputs": [
        {
          "internalType": "uint96",
          "name": "nonce",
          "type": "uint96"
        },
        {
          "internalType": "address",
          "name": "operator",
          "type": "address"
        },
        {
          "internalType": "address",
          "name": "token0",
          "type": "address"
        },
        {
          "internalType": "address",
          "name": "token1",
          "type": "address"
        },
        {
          "internalType": "uint24",
          "name": "fee",
          "type": "uint24"
        },
        {
          "internalType": "int24",
          "name": "tickLower",
          "type": "int24"
        },
        {
          "internalType": "int24",
          "name": "tickUpper",
          "type": "int24"
        },
        {
          "internalType": "uint128",
          "name": "liquidity",
          "type": "uint128"
        },
        {
          "internalType": "uint256",
          "name": "feeGrowthInside0LastX128",
          "type": "uint256"
        },
        {
          "internalType": "uint256",
          "name": "feeGrowthInside1LastX128",
          "type": "uint256"
        },
        {
          "internalType": "uint128",
          "name": "tokensOwed0",
          "type": "uint128"
        },
        {
          "internalType": "uint128",
          "name": "tokensOwed1",
          "type": "uint128"
        }
      ],
      "stateMutability": "pure",
      "type": "function"
    }
  ],
  "bytecode": "0x608060405234801561001057600080fd5b506103ef806100206000396000f3fe608060405234801561001057600080fd5b50600436106100415760003560e01c80636352211e1461004657806399fbab8814610076578063fc6f7865146100b1575b600080fd5b610060600480360381019061005b9190610195565b6100e2565b60405161006d9190610218565b60405180910390f35b610090600480360381019061008b9190610195565b6100e9565b6040516100a89c9b9a9998979695949392919061025c565b60405180910390f35b6100cb60048036038101906100c6919061016c565b610134565b6040516100d9929190610233565b60405180910390f35b6000919050565b6000806000806000806000806000806000806000806000806000806000806000806000809b509b509b509b509b509b509b509b509b509b509b509b5091939597999b5091939597999b565b600080915091565b60006080828403121561014e57600080fd5b81905092915050565b600081359050610166816103a2565b92915050565b60006080828403121561017e57600080fd5b600061018c8482850161013c565b91505092915050565b6000602082840312156101a757600080fd5b60006101b584828501610157565b91505092915050565b6101c781610316565b82525050565b6101d681610328565b82525050565b6101e581610335565b82525050565b6101f481610371565b82525050565b61020381610380565b82525050565b6102128161038a565b82525050565b600060208201905061022d60008301846101be565b92915050565b600060408201905061024860008301856101fa565b61025560208301846101fa565b9392505050565b600061018082019050610272600083018f610209565b61027f602083018e6101be565b61028c604083018d6101be565b610299606083018c6101be565b6102a6608083018b6101eb565b6102b360a083018a6101cd565b6102c060c08301896101cd565b6102cd60e08301886101dc565b6102db6101008301876101fa565b6102e96101208301866101fa565b6102f76101408301856101dc565b6103056101608301846101dc565b9d9c50505050505050505050505050565b600061032182610351565b9050919050565b60008160020b9050919050565b60006fffffffffffffffffffffffffffffffff82169050919050565b600073ffffffffffffffffffffffffffffffffffffffff82169050919050565b600062ffffff82169050919050565b6000819050919050565b60006bffffffffffffffffffffffff82169050919050565b6103ab81610380565b81146103b657600080fd5b5056fea26469706673582212201b7a7a5d5f1b7e29789fe2138ec5a207fb8113e3341bf7f398b93245045d913264736f6c634300060c0033",
  "linkReferences": {},
  "deployedLinkReferences": {}
}