{
  "_format": "hh-sol-artifact-1",
  "contractName": "FactoryContract",
  "sourceName": "contracts/FactoryContract.sol",
  "abi": [
    {
      "inputs": [
        {
          "internalType": "address",
          "name": "_wethAddress",
          "type": "address"
        },
        {
          "internalType": "address",
          "name": "_lendingContractAddress",
          "type": "address"
        },
        {
          "internalType": "address",
          "name": "_positionRouterAddress",
          "type": "address"
        },
        {
          "internalType": "address",
          "name": "_routerAddress",
          "type": "address"
        },
        {
          "internalType": "address",
          "name": "_orderBookAddress",
          "type": "address"
        },
        {
          "internalType": "address",
          "name": "_vaultContractAddress",
          "type": "address"
        }
      ],
      "stateMutability": "nonpayable",
      "type": "constructor"
    },
    {
      "inputs": [
        {
          "internalType": "address",
          "name": "",
          "type": "address"
        }
      ],
      "name": "abstractPositionMap",
      "outputs": [
        {
          "internalType": "address",
          "name": "",
          "type": "address"
        }
      ],
      "stateMutability": "view",
      "type": "function"
    },
    {
      "inputs": [],
      "name": "createAbstractPosition",
      "outputs": [
        {
          "internalType": "address",
          "name": "",
          "type": "address"
        }
      ],
      "stateMutability": "nonpayable",
      "type": "function"
    },
    {
      "inputs": [
        {
          "internalType": "address",
          "name": "account",
          "type": "address"
        }
      ],
      "name": "getContractForAccount",
      "outputs": [
        {
          "internalType": "address",
          "name": "",
          "type": "address"
        }
      ],
      "stateMutability": "view",
      "type": "function"
    },
    {
      "inputs": [],
      "name": "gov",
      "outputs": [
        {
          "internalType": "address",
          "name": "",
          "type": "address"
        }
      ],
      "stateMutability": "view",
      "type": "function"
    },
    {
      "inputs": [],
      "name": "lendingContractAddress",
      "outputs": [
        {
          "internalType": "address",
          "name": "",
          "type": "address"
        }
      ],
      "stateMutability": "view",
      "type": "function"
    },
    {
      "inputs": [],
      "name": "orderBookAddress",
      "outputs": [
        {
          "internalType": "address",
          "name": "",
          "type": "address"
        }
      ],
      "stateMutability": "view",
      "type": "function"
    },
    {
      "inputs": [],
      "name": "positionRouterAddress",
      "outputs": [
        {
          "internalType": "address",
          "name": "",
          "type": "address"
        }
      ],
      "stateMutability": "view",
      "type": "function"
    },
    {
      "inputs": [],
      "name": "routerAddress",
      "outputs": [
        {
          "internalType": "address",
          "name": "",
          "type": "address"
        }
      ],
      "stateMutability": "view",
      "type": "function"
    },
    {
      "inputs": [],
      "name": "vaultContractAddress",
      "outputs": [
        {
          "internalType": "address",
          "name": "",
          "type": "address"
        }
      ],
      "stateMutability": "view",
      "type": "function"
    },
    {
      "inputs": [],
      "name": "wethAddress",
      "outputs": [
        {
          "internalType": "address",
          "name": "",
          "type": "address"
        }
      ],
      "stateMutability": "view",
      "type": "function"
    }
  ],
  "bytecode": "0x608060405234801561001057600080fd5b50604051620060223803806200602283398181016040528101906100349190610268565b336000806101000a81548173ffffffffffffffffffffffffffffffffffffffff021916908373ffffffffffffffffffffffffffffffffffffffff16021790555085600160006101000a81548173ffffffffffffffffffffffffffffffffffffffff021916908373ffffffffffffffffffffffffffffffffffffffff16021790555084600260006101000a81548173ffffffffffffffffffffffffffffffffffffffff021916908373ffffffffffffffffffffffffffffffffffffffff16021790555083600360006101000a81548173ffffffffffffffffffffffffffffffffffffffff021916908373ffffffffffffffffffffffffffffffffffffffff16021790555082600460006101000a81548173ffffffffffffffffffffffffffffffffffffffff021916908373ffffffffffffffffffffffffffffffffffffffff16021790555081600560006101000a81548173ffffffffffffffffffffffffffffffffffffffff021916908373ffffffffffffffffffffffffffffffffffffffff16021790555080600660006101000a81548173ffffffffffffffffffffffffffffffffffffffff021916908373ffffffffffffffffffffffffffffffffffffffff1602179055505050505050506102f5565b600080fd5b600073ffffffffffffffffffffffffffffffffffffffff82169050919050565b60006102358261020a565b9050919050565b6102458161022a565b811461025057600080fd5b50565b6000815190506102628161023c565b92915050565b60008060008060008060c0878903121561028557610284610205565b5b600061029389828a01610253565b96505060206102a489828a01610253565b95505060406102b589828a01610253565b94505060606102c689828a01610253565b93505060806102d789828a01610253565b92505060a06102e889828a01610253565b9150509295509295509295565b615d1d80620003056000396000f3fe60806040523480156200001157600080fd5b5060043610620000ac5760003560e01c80636f039415116200006f5780636f039415146200016f5780637379dbe614620001a55780639409d87014620001c7578063a92ea0e014620001e9578063d422b00f146200020b57620000ac565b806312d43a5114620000b15780633268cc5614620000d35780633704d21b14620000f55780634f0e0ef3146200012b578063557c5c91146200014d575b600080fd5b620000bb6200022d565b604051620000ca9190620006b3565b60405180910390f35b620000dd62000251565b604051620000ec9190620006b3565b60405180910390f35b6200011360048036038101906200010d919062000706565b62000277565b604051620001229190620006b3565b60405180910390f35b62000135620002e0565b604051620001449190620006b3565b60405180910390f35b6200015762000306565b604051620001669190620006b3565b60405180910390f35b6200018d600480360381019062000187919062000706565b62000595565b6040516200019c9190620006b3565b60405180910390f35b620001af620005c8565b604051620001be9190620006b3565b60405180910390f35b620001d1620005ee565b604051620001e09190620006b3565b60405180910390f35b620001f362000614565b604051620002029190620006b3565b60405180910390f35b620002156200063a565b604051620002249190620006b3565b60405180910390f35b60008054906101000a900473ffffffffffffffffffffffffffffffffffffffff1681565b600460009054906101000a900473ffffffffffffffffffffffffffffffffffffffff1681565b6000600760008373ffffffffffffffffffffffffffffffffffffffff1673ffffffffffffffffffffffffffffffffffffffff16815260200190815260200160002060009054906101000a900473ffffffffffffffffffffffffffffffffffffffff169050919050565b600160009054906101000a900473ffffffffffffffffffffffffffffffffffffffff1681565b60008073ffffffffffffffffffffffffffffffffffffffff16600760003373ffffffffffffffffffffffffffffffffffffffff1673ffffffffffffffffffffffffffffffffffffffff16815260200190815260200160002060009054906101000a900473ffffffffffffffffffffffffffffffffffffffff1673ffffffffffffffffffffffffffffffffffffffff1614620003d8576040517f08c379a0000000000000000000000000000000000000000000000000000000008152600401620003cf90620007bf565b60405180910390fd5b60008060009054906101000a900473ffffffffffffffffffffffffffffffffffffffff16600160009054906101000a900473ffffffffffffffffffffffffffffffffffffffff16600260009054906101000a900473ffffffffffffffffffffffffffffffffffffffff1633600360009054906101000a900473ffffffffffffffffffffffffffffffffffffffff16600460009054906101000a900473ffffffffffffffffffffffffffffffffffffffff16600560009054906101000a900473ffffffffffffffffffffffffffffffffffffffff16600660009054906101000a900473ffffffffffffffffffffffffffffffffffffffff16604051620004dd9062000660565b620004f0989796959493929190620007e1565b604051809103906000f0801580156200050d573d6000803e3d6000fd5b50905080600760003373ffffffffffffffffffffffffffffffffffffffff1673ffffffffffffffffffffffffffffffffffffffff16815260200190815260200160002060006101000a81548173ffffffffffffffffffffffffffffffffffffffff021916908373ffffffffffffffffffffffffffffffffffffffff1602179055508091505090565b60076020528060005260406000206000915054906101000a900473ffffffffffffffffffffffffffffffffffffffff1681565b600260009054906101000a900473ffffffffffffffffffffffffffffffffffffffff1681565b600560009054906101000a900473ffffffffffffffffffffffffffffffffffffffff1681565b600660009054906101000a900473ffffffffffffffffffffffffffffffffffffffff1681565b600360009054906101000a900473ffffffffffffffffffffffffffffffffffffffff1681565b615478806200087083390190565b600073ffffffffffffffffffffffffffffffffffffffff82169050919050565b60006200069b826200066e565b9050919050565b620006ad816200068e565b82525050565b6000602082019050620006ca6000830184620006a2565b92915050565b600080fd5b620006e0816200068e565b8114620006ec57600080fd5b50565b6000813590506200070081620006d5565b92915050565b6000602082840312156200071f576200071e620006d0565b5b60006200072f84828501620006ef565b91505092915050565b600082825260208201905092915050565b7f616273747261637420706f736974696f6e20636f6e747261637420616c72656160008201527f64792065786973747320666f7220757365720000000000000000000000000000602082015250565b6000620007a760328362000738565b9150620007b48262000749565b604082019050919050565b60006020820190508181036000830152620007da8162000798565b9050919050565b600061010082019050620007f9600083018b620006a2565b62000808602083018a620006a2565b620008176040830189620006a2565b620008266060830188620006a2565b620008356080830187620006a2565b6200084460a0830186620006a2565b6200085360c0830185620006a2565b6200086260e0830184620006a2565b999850505050505050505056fe608060405273b3f5503f93d5ef84b06993a1975b9d21b962892f6000806101000a81548173ffffffffffffffffffffffffffffffffffffffff021916908373ffffffffffffffffffffffffffffffffffffffff1602179055503480156200006557600080fd5b50604051620054783803806200547883398181016040528101906200008b919062000621565b87600160006101000a81548173ffffffffffffffffffffffffffffffffffffffff021916908373ffffffffffffffffffffffffffffffffffffffff16021790555084600860006101000a81548173ffffffffffffffffffffffffffffffffffffffff021916908373ffffffffffffffffffffffffffffffffffffffff16021790555086600260006101000a81548173ffffffffffffffffffffffffffffffffffffffff021916908373ffffffffffffffffffffffffffffffffffffffff16021790555085600360006101000a81548173ffffffffffffffffffffffffffffffffffffffff021916908373ffffffffffffffffffffffffffffffffffffffff16021790555083600460006101000a81548173ffffffffffffffffffffffffffffffffffffffff021916908373ffffffffffffffffffffffffffffffffffffffff16021790555082600560006101000a81548173ffffffffffffffffffffffffffffffffffffffff021916908373ffffffffffffffffffffffffffffffffffffffff16021790555081600660006101000a81548173ffffffffffffffffffffffffffffffffffffffff021916908373ffffffffffffffffffffffffffffffffffffffff16021790555080600760006101000a81548173ffffffffffffffffffffffffffffffffffffffff021916908373ffffffffffffffffffffffffffffffffffffffff16021790555060008390508073ffffffffffffffffffffffffffffffffffffffff166338c74dd9600460009054906101000a900473ffffffffffffffffffffffffffffffffffffffff166040518263ffffffff1660e01b8152600401620002f59190620006fb565b600060405180830381600087803b1580156200031057600080fd5b505af115801562000325573d6000803e3d6000fd5b50505050620003396200034860201b60201c565b50505050505050505062000c33565b60003073ffffffffffffffffffffffffffffffffffffffff1663584edf10604051602401604051602081830303815290604052915060e01b6020820180517bffffffffffffffffffffffffffffffffffffffffffffffffffffffff8381831617835250505050905060006040518060400160405280600167ffffffffffffffff811115620003db57620003da62000718565b5b6040519080825280602002602001820160405280156200040a5781602001602082028036833780820191505090505b508152602001600167ffffffffffffffff8111156200042e576200042d62000718565b5b6040519080825280602002602001820160405280156200046357816020015b60608152602001906001900390816200044d5790505b5081525090506001816000015160008151811062000486576200048562000747565b5b60200260200101906003811115620004a357620004a262000776565b5b90816003811115620004ba57620004b962000776565b5b8152505060006001604051602001620004d59291906200082c565b6040516020818303038152906040528160200151600081518110620004ff57620004fe62000747565b5b602002602001018190525060008054906101000a900473ffffffffffffffffffffffffffffffffffffffff1673ffffffffffffffffffffffffffffffffffffffff16633323b46730848460006040518563ffffffff1660e01b81526004016200056c949392919062000b6b565b6020604051808303816000875af11580156200058c573d6000803e3d6000fd5b505050506040513d601f19601f82011682018060405250810190620005b2919062000c01565b505050565b600080fd5b600073ffffffffffffffffffffffffffffffffffffffff82169050919050565b6000620005e982620005bc565b9050919050565b620005fb81620005dc565b81146200060757600080fd5b50565b6000815190506200061b81620005f0565b92915050565b600080600080600080600080610100898b031215620006455762000644620005b7565b5b6000620006558b828c016200060a565b9850506020620006688b828c016200060a565b97505060406200067b8b828c016200060a565b96505060606200068e8b828c016200060a565b9550506080620006a18b828c016200060a565b94505060a0620006b48b828c016200060a565b93505060c0620006c78b828c016200060a565b92505060e0620006da8b828c016200060a565b9150509295985092959890939650565b620006f581620005dc565b82525050565b6000602082019050620007126000830184620006ea565b92915050565b7f4e487b7100000000000000000000000000000000000000000000000000000000600052604160045260246000fd5b7f4e487b7100000000000000000000000000000000000000000000000000000000600052603260045260246000fd5b7f4e487b7100000000000000000000000000000000000000000000000000000000600052602160045260246000fd5b6000819050919050565b600060ff82169050919050565b6000819050919050565b6000620007e7620007e1620007db84620007a5565b620007bc565b620007af565b9050919050565b620007f981620007c6565b82525050565b60006fffffffffffffffffffffffffffffffff82169050919050565b6200082681620007ff565b82525050565b6000604082019050620008436000830185620007ee565b6200085260208301846200081b565b9392505050565b600081519050919050565b600082825260208201905092915050565b60005b838110156200089557808201518184015260208101905062000878565b60008484015250505050565b6000601f19601f8301169050919050565b6000620008bf8262000859565b620008cb818562000864565b9350620008dd81856020860162000875565b620008e881620008a1565b840191505092915050565b600081519050919050565b600082825260208201905092915050565b6000819050602082019050919050565b6004811062000933576200093262000776565b5b50565b600081905062000946826200091f565b919050565b6000620009588262000936565b9050919050565b6200096a816200094b565b82525050565b60006200097e83836200095f565b60208301905092915050565b6000602082019050919050565b6000620009a482620008f3565b620009b08185620008fe565b9350620009bd836200090f565b8060005b83811015620009f4578151620009d8888262000970565b9750620009e5836200098a565b925050600181019050620009c1565b5085935050505092915050565b600081519050919050565b600082825260208201905092915050565b6000819050602082019050919050565b600082825260208201905092915050565b600062000a4b8262000859565b62000a57818562000a2d565b935062000a6981856020860162000875565b62000a7481620008a1565b840191505092915050565b600062000a8d838362000a3e565b905092915050565b6000602082019050919050565b600062000aaf8262000a01565b62000abb818562000a0c565b93508360208202850162000acf8562000a1d565b8060005b8581101562000b11578484038952815162000aef858262000a7f565b945062000afc8362000a95565b925060208a0199505060018101905062000ad3565b50829750879550505050505092915050565b6000604083016000830151848203600086015262000b42828262000997565b9150506020830151848203602086015262000b5e828262000aa2565b9150508091505092915050565b600060808201905062000b826000830187620006ea565b818103602083015262000b968186620008b2565b9050818103604083015262000bac818562000b23565b905062000bbd6060830184620006ea565b95945050505050565b6000819050919050565b62000bdb8162000bc6565b811462000be757600080fd5b50565b60008151905062000bfb8162000bd0565b92915050565b60006020828403121562000c1a5762000c19620005b7565b5b600062000c2a8482850162000bea565b91505092915050565b6148358062000c436000396000f3fe6080604052600436106102305760003560e01c80638c1395f81161012e578063c019bf5e116100ab578063e9f4454d1161006f578063e9f4454d14610818578063ef630b3c14610857578063f838822514610894578063fc2cee62146108d1578063ffb991b0146108fa57610230565b8063c019bf5e1461073d578063ca2fc17c1461077a578063d0e30db0146107b8578063d422b00f146107c2578063d571e21c146107ed57610230565b8063a92ea0e0116100f2578063a92ea0e014610663578063a96e24231461068e578063af3ed347146106b7578063b5627e42146106e7578063bb0498de1461071257610230565b80638c1395f8146105735780638f84aa09146105b4578063937a0e4e146105df5780639409d8701461060f578063a0f140341461063a57610230565b80634f0e0ef3116101bc578063725ba05211610180578063725ba0521461049e5780637379dbe6146104c95780637809baaf146104f4578063802758601461051f578063871105cc1461054a57610230565b80634f0e0ef3146103c4578063584edf10146103ef57806363ae210314610406578063694c1cbc146104315780636e3990fc1461046e57610230565b8063238e270a11610203578063238e270a146102df5780633268cc561461031c57806337106770146103475780633ba32df41461037057806341cb87fc1461039b57610230565b8063081752bb14610235578063126082cf1461026057806312d43a511461028b57806313f2d128146102b6575b600080fd5b34801561024157600080fd5b5061024a610925565b6040516102579190612e8f565b60405180910390f35b34801561026c57600080fd5b5061027561092a565b6040516102829190612e8f565b60405180910390f35b34801561029757600080fd5b506102a0610930565b6040516102ad9190612eeb565b60405180910390f35b3480156102c257600080fd5b506102dd60048036038101906102d89190612f46565b610956565b005b3480156102eb57600080fd5b5061030660048036038101906103019190612fab565b6109a2565b6040516103139190613017565b60405180910390f35b34801561032857600080fd5b506103316109d8565b60405161033e9190612eeb565b60405180910390f35b34801561035357600080fd5b5061036e60048036038101906103699190612f46565b6109fe565b005b34801561037c57600080fd5b50610385610a49565b6040516103929190612e8f565b60405180910390f35b3480156103a757600080fd5b506103c260048036038101906103bd9190612f46565b610d58565b005b3480156103d057600080fd5b506103d9610da4565b6040516103e69190612eeb565b60405180910390f35b3480156103fb57600080fd5b50610404610dca565b005b34801561041257600080fd5b5061041b6111f7565b6040516104289190612e8f565b60405180910390f35b34801561043d57600080fd5b506104586004803603810190610453919061305e565b6111fd565b6040516104659190612e8f565b60405180910390f35b61048860048036038101906104839190613270565b6112fd565b6040516104959190613017565b60405180910390f35b3480156104aa57600080fd5b506104b361145e565b6040516104c09190612e8f565b60405180910390f35b3480156104d557600080fd5b506104de611464565b6040516104eb9190612eeb565b60405180910390f35b34801561050057600080fd5b5061050961148a565b6040516105169190612e8f565b60405180910390f35b34801561052b57600080fd5b5061053461148f565b6040516105419190613465565b60405180910390f35b34801561055657600080fd5b50610571600480360381019061056c9190612f46565b6115b5565b005b34801561057f57600080fd5b5061059a60048036038101906105959190612fab565b611601565b6040516105ab959493929190613487565b60405180910390f35b3480156105c057600080fd5b506105c9611719565b6040516105d69190612eeb565b60405180910390f35b6105f960048036038101906105f491906134da565b61173f565b60405161060691906135f9565b60405180910390f35b34801561061b57600080fd5b506106246118d9565b6040516106319190612eeb565b60405180910390f35b34801561064657600080fd5b50610661600480360381019061065c9190612f46565b6118ff565b005b34801561066f57600080fd5b5061067861194b565b6040516106859190612eeb565b60405180910390f35b34801561069a57600080fd5b506106b560048036038101906106b09190612f46565b611971565b005b6106d160048036038101906106cc9190613614565b6119bd565b6040516106de9190613017565b60405180910390f35b3480156106f357600080fd5b506106fc611cf5565b6040516107099190612e8f565b60405180910390f35b34801561071e57600080fd5b50610727611cfb565b6040516107349190612e8f565b60405180910390f35b34801561074957600080fd5b50610764600480360381019061075f919061370f565b611ea3565b6040516107719190612e8f565b60405180910390f35b34801561078657600080fd5b506107a1600480360381019061079c91906137b1565b612070565b6040516107af929190613818565b60405180910390f35b6107c06122fe565b005b3480156107ce57600080fd5b506107d7612300565b6040516107e49190612eeb565b60405180910390f35b3480156107f957600080fd5b50610802612326565b60405161080f9190612eeb565b60405180910390f35b34801561082457600080fd5b5061083f600480360381019061083a9190613841565b61234a565b60405161084e9392919061386e565b60405180910390f35b34801561086357600080fd5b5061087e600480360381019061087991906138a5565b6123d1565b60405161088b91906135f9565b60405180910390f35b3480156108a057600080fd5b506108bb60048036038101906108b691906138d2565b61247a565b6040516108c891906135f9565b60405180910390f35b3480156108dd57600080fd5b506108f860048036038101906108f39190613841565b612621565b005b34801561090657600080fd5b5061090f612633565b60405161091c9190612e8f565b60405180910390f35b606481565b61271081565b600160009054906101000a900473ffffffffffffffffffffffffffffffffffffffff1681565b61095e612744565b80600360006101000a81548173ffffffffffffffffffffffffffffffffffffffff021916908373ffffffffffffffffffffffffffffffffffffffff16021790555050565b60008383836040516020016109b9939291906139d1565b6040516020818303038152906040528051906020012090509392505050565b600560009054906101000a900473ffffffffffffffffffffffffffffffffffffffff1681565b610a06612744565b806000806101000a81548173ffffffffffffffffffffffffffffffffffffffff021916908373ffffffffffffffffffffffffffffffffffffffff16021790555050565b600080600090506000805b600b80549050811015610c3e57600080600080610b2e600b8681548110610a7e57610a7d613a0e565b5b906000526020600020906002020160000160009054906101000a900473ffffffffffffffffffffffffffffffffffffffff16600b8781548110610ac457610ac3613a0e565b5b906000526020600020906002020160010160009054906101000a900473ffffffffffffffffffffffffffffffffffffffff16600b8881548110610b0a57610b09613a0e565b5b906000526020600020906002020160010160149054906101000a900460ff16611601565b5093509350935093506000831115610c2757610c0b600b8681548110610b5757610b56613a0e565b5b906000526020600020906002020160000160009054906101000a900473ffffffffffffffffffffffffffffffffffffffff16600b8781548110610b9d57610b9c613a0e565b5b906000526020600020906002020160010160009054906101000a900473ffffffffffffffffffffffffffffffffffffffff16600b8881548110610be357610be2613a0e565b5b906000526020600020906002020160010160149054906101000a900460ff1686888787611ea3565b87610c169190613a6c565b96508386610c249190613a6c565b95505b505050508080610c3690613aa0565b915050610a54565b506000600360009054906101000a900473ffffffffffffffffffffffffffffffffffffffff1673ffffffffffffffffffffffffffffffffffffffff1663db1e4ff8600860009054906101000a900473ffffffffffffffffffffffffffffffffffffffff166040518263ffffffff1660e01b8152600401610cbe9190612eeb565b602060405180830381865afa158015610cdb573d6000803e3d6000fd5b505050506040513d601f19601f82011682018060405250810190610cff9190613afd565b9050610d4d81610d3f610d30612710610d226064886127d690919063ffffffff16565b61285090919063ffffffff16565b8661289a90919063ffffffff16565b61289a90919063ffffffff16565b925082935050505090565b610d60612744565b80600560006101000a81548173ffffffffffffffffffffffffffffffffffffffff021916908373ffffffffffffffffffffffffffffffffffffffff16021790555050565b600260009054906101000a900473ffffffffffffffffffffffffffffffffffffffff1681565b6000610dd4612633565b90506127108110610e1a576040517f08c379a0000000000000000000000000000000000000000000000000000000008152600401610e1190613b87565b60405180910390fd5b60005b600b805490508110156111f357600080600080610ef7600b8681548110610e4757610e46613a0e565b5b906000526020600020906002020160000160009054906101000a900473ffffffffffffffffffffffffffffffffffffffff16600b8781548110610e8d57610e8c613a0e565b5b906000526020600020906002020160010160009054906101000a900473ffffffffffffffffffffffffffffffffffffffff16600b8881548110610ed357610ed2613a0e565b5b906000526020600020906002020160010160149054906101000a900460ff16611601565b50935093509350935060008311156111dc576000610fd6600b8781548110610f2257610f21613a0e565b5b906000526020600020906002020160000160009054906101000a900473ffffffffffffffffffffffffffffffffffffffff16600b8881548110610f6857610f67613a0e565b5b906000526020600020906002020160010160009054906101000a900473ffffffffffffffffffffffffffffffffffffffff16600b8981548110610fae57610fad613a0e565b5b906000526020600020906002020160010160149054906101000a900460ff1687898888611ea3565b90506000600b8781548110610fee57610fed613a0e565b5b906000526020600020906002020160010160149054906101000a900460ff1661110a576111056002600760009054906101000a900473ffffffffffffffffffffffffffffffffffffffff1673ffffffffffffffffffffffffffffffffffffffff1663e124e6d2600b8b8154811061106857611067613a0e565b5b906000526020600020906002020160000160009054906101000a900473ffffffffffffffffffffffffffffffffffffffff166040518263ffffffff1660e01b81526004016110b69190612eeb565b602060405180830381865afa1580156110d3573d6000803e3d6000fd5b505050506040513d601f19601f820116820180604052508101906110f79190613afd565b6127d690919063ffffffff16565b61110d565b60005b90506111d9600b888154811061112657611125613a0e565b5b906000526020600020906002020160000160009054906101000a900473ffffffffffffffffffffffffffffffffffffffff16600b898154811061116c5761116b613a0e565b5b906000526020600020906002020160010160009054906101000a900473ffffffffffffffffffffffffffffffffffffffff16600b8a815481106111b2576111b1613a0e565b5b906000526020600020906002020160010160149054906101000a900460ff168986866128e4565b50505b5050505080806111eb90613aa0565b915050610e1d565b5050565b60095481565b600080850361120f57600090506112f3565b600080600760009054906101000a900473ffffffffffffffffffffffffffffffffffffffff1673ffffffffffffffffffffffffffffffffffffffff16635c07eaab8a88888c896040518663ffffffff1660e01b8152600401611275959493929190613ba7565b6040805180830381865afa158015611291573d6000803e3d6000fd5b505050506040513d601f19601f820116820180604052508101906112b59190613c0f565b9150915081156112db576112d2818861297490919063ffffffff16565b925050506112f3565b6112ee818861289a90919063ffffffff16565b925050505b9695505050505050565b6000600860009054906101000a900473ffffffffffffffffffffffffffffffffffffffff1673ffffffffffffffffffffffffffffffffffffffff163373ffffffffffffffffffffffffffffffffffffffff161461138f576040517f08c379a000000000000000000000000000000000000000000000000000000000815260040161138690613cc1565b60405180910390fd5b61139a8a8a886129d2565b6000600460009054906101000a900473ffffffffffffffffffffffffffffffffffffffff1690508073ffffffffffffffffffffffffffffffffffffffff16635b88e8c6348d8d8d8d8d8d8d8d8d6040518b63ffffffff1660e01b815260040161140b99989796959493929190613d90565b60206040518083038185885af1158015611429573d6000803e3d6000fd5b50505050506040513d601f19601f8201168201806040525081019061144e9190613e39565b9150509998505050505050505050565b612af881565b600360009054906101000a900473ffffffffffffffffffffffffffffffffffffffff1681565b606481565b6060600b805480602002602001604051908101604052809291908181526020016000905b828210156115ac57838290600052602060002090600202016040518060600160405290816000820160009054906101000a900473ffffffffffffffffffffffffffffffffffffffff1673ffffffffffffffffffffffffffffffffffffffff1673ffffffffffffffffffffffffffffffffffffffff1681526020016001820160009054906101000a900473ffffffffffffffffffffffffffffffffffffffff1673ffffffffffffffffffffffffffffffffffffffff1673ffffffffffffffffffffffffffffffffffffffff1681526020016001820160149054906101000a900460ff161515151581525050815260200190600101906114b3565b50505050905090565b6115bd612744565b80600760006101000a81548173ffffffffffffffffffffffffffffffffffffffff021916908373ffffffffffffffffffffffffffffffffffffffff16021790555050565b6000806000806000611611612e31565b600760009054906101000a900473ffffffffffffffffffffffffffffffffffffffff1673ffffffffffffffffffffffffffffffffffffffff16634a3f088d308a8c8b6040518563ffffffff1660e01b81526004016116729493929190613e66565b61010060405180830381865afa158015611690573d6000803e3d6000fd5b505050506040513d601f19601f820116820180604052508101906116b49190613eab565b909192509091509050856000018660200187604001886060018960c0018581525085815250858152508581525085815250505050505080600001518160200151826040015183606001518460c001519550955095509550955050939792965093509350565b600860009054906101000a900473ffffffffffffffffffffffffffffffffffffffff1681565b6000600860009054906101000a900473ffffffffffffffffffffffffffffffffffffffff1673ffffffffffffffffffffffffffffffffffffffff163373ffffffffffffffffffffffffffffffffffffffff1614806117ea5750600360009054906101000a900473ffffffffffffffffffffffffffffffffffffffff1673ffffffffffffffffffffffffffffffffffffffff163373ffffffffffffffffffffffffffffffffffffffff16145b611829576040517f08c379a000000000000000000000000000000000000000000000000000000000815260040161182090613fd3565b60405180910390fd5b83341461186b576040517f08c379a00000000000000000000000000000000000000000000000000000000081526004016118629061403f565b60405180910390fd5b6118768b8d8a61247a565b6118b5576040517f08c379a00000000000000000000000000000000000000000000000000000000081526004016118ac906140d1565b60405180910390fd5b6118c88c8c8c8c8c8c8c8c8c8c8c612b95565b90509b9a5050505050505050505050565b600660009054906101000a900473ffffffffffffffffffffffffffffffffffffffff1681565b611907612744565b80600460006101000a81548173ffffffffffffffffffffffffffffffffffffffff021916908373ffffffffffffffffffffffffffffffffffffffff16021790555050565b600760009054906101000a900473ffffffffffffffffffffffffffffffffffffffff1681565b611979612744565b80600260006101000a81548173ffffffffffffffffffffffffffffffffffffffff021916908373ffffffffffffffffffffffffffffffffffffffff16021790555050565b6000600860009054906101000a900473ffffffffffffffffffffffffffffffffffffffff1673ffffffffffffffffffffffffffffffffffffffff163373ffffffffffffffffffffffffffffffffffffffff1614611a4f576040517f08c379a0000000000000000000000000000000000000000000000000000000008152600401611a4690613cc1565b60405180910390fd5b611a5a8b8b886129d2565b8a600081518110611a6e57611a6d613a0e565b5b602002602001015173ffffffffffffffffffffffffffffffffffffffff166323b872dd33308c6040518463ffffffff1660e01b8152600401611ab2939291906140f1565b6020604051808303816000875af1158015611ad1573d6000803e3d6000fd5b505050506040513d601f19601f82011682018060405250810190611af59190614128565b611b34576040517f08c379a0000000000000000000000000000000000000000000000000000000008152600401611b2b906141a1565b60405180910390fd5b8a600081518110611b4857611b47613a0e565b5b602002602001015173ffffffffffffffffffffffffffffffffffffffff1663095ea7b3600560009054906101000a900473ffffffffffffffffffffffffffffffffffffffff168b6040518363ffffffff1660e01b8152600401611bac9291906141c1565b6020604051808303816000875af1158015611bcb573d6000803e3d6000fd5b505050506040513d601f19601f82011682018060405250810190611bef9190614128565b611c2e576040517f08c379a0000000000000000000000000000000000000000000000000000000008152600401611c259061425c565b60405180910390fd5b6000600460009054906101000a900473ffffffffffffffffffffffffffffffffffffffff1690508073ffffffffffffffffffffffffffffffffffffffff1663f2ae372f348e8e8e8e8e8e8e8e8e8e6040518c63ffffffff1660e01b8152600401611ca19a9998979695949392919061427c565b60206040518083038185885af1158015611cbf573d6000803e3d6000fd5b50505050506040513d601f19601f82011682018060405250810190611ce49190613e39565b9150509a9950505050505050505050565b61271081565b6000806000905060005b600b80549050811015611e9b57600080600080611ddf600b8681548110611d2f57611d2e613a0e565b5b906000526020600020906002020160000160009054906101000a900473ffffffffffffffffffffffffffffffffffffffff16600b8781548110611d7557611d74613a0e565b5b906000526020600020906002020160010160009054906101000a900473ffffffffffffffffffffffffffffffffffffffff16600b8881548110611dbb57611dba613a0e565b5b906000526020600020906002020160010160149054906101000a900460ff16611601565b9450509350935093506000831115611e8457611e76600b8681548110611e0857611e07613a0e565b5b906000526020600020906002020160000160009054906101000a900473ffffffffffffffffffffffffffffffffffffffff16600b8781548110611e4e57611e4d613a0e565b5b906000526020600020906002020160010160149054906101000a900460ff16858786866111fd565b86611e819190613a6c565b95505b505050508080611e9390613aa0565b915050611d05565b508091505090565b6000806000611eb48a87878b612070565b915091506000600760009054906101000a900473ffffffffffffffffffffffffffffffffffffffff1673ffffffffffffffffffffffffffffffffffffffff1663cc5b81448b89886040518463ffffffff1660e01b8152600401611f199392919061431f565b602060405180830381865afa158015611f36573d6000803e3d6000fd5b505050506040513d601f19601f82011682018060405250810190611f5a9190613afd565b9050600760009054906101000a900473ffffffffffffffffffffffffffffffffffffffff1673ffffffffffffffffffffffffffffffffffffffff166317bbf25c886040518263ffffffff1660e01b8152600401611fb79190612e8f565b602060405180830381865afa158015611fd4573d6000803e3d6000fd5b505050506040513d601f19601f82011682018060405250810190611ff89190613afd565b816120039190613a6c565b9050821561203a5761203081612022848b61297490919063ffffffff16565b61289a90919063ffffffff16565b9350505050612065565b61205f81612051848b61289a90919063ffffffff16565b61289a90919063ffffffff16565b93505050505b979650505050505050565b600080600084116120b6576040517f08c379a00000000000000000000000000000000000000000000000000000000081526004016120ad906143c8565b60405180910390fd5b600083612199576121946127106121866120dc606461271061297490919063ffffffff16565b600760009054906101000a900473ffffffffffffffffffffffffffffffffffffffff1673ffffffffffffffffffffffffffffffffffffffff1663e124e6d28c6040518263ffffffff1660e01b81526004016121379190612eeb565b602060405180830381865afa158015612154573d6000803e3d6000fd5b505050506040513d601f19601f820116820180604052508101906121789190613afd565b6127d690919063ffffffff16565b61285090919063ffffffff16565b612271565b6122706127106122626121b8606461271061289a90919063ffffffff16565b600760009054906101000a900473ffffffffffffffffffffffffffffffffffffffff1673ffffffffffffffffffffffffffffffffffffffff166381a612d68c6040518263ffffffff1660e01b81526004016122139190612eeb565b602060405180830381865afa158015612230573d6000803e3d6000fd5b505050506040513d601f19601f820116820180604052508101906122549190613afd565b6127d690919063ffffffff16565b61285090919063ffffffff16565b5b905060008186116122945761228f868361289a90919063ffffffff16565b6122a8565b6122a7828761289a90919063ffffffff16565b5b905060006122d1876122c3848b6127d690919063ffffffff16565b61285090919063ffffffff16565b9050600086156122e55787841190506122eb565b83881190505b8082955095505050505094509492505050565b565b600460009054906101000a900473ffffffffffffffffffffffffffffffffffffffff1681565b60008054906101000a900473ffffffffffffffffffffffffffffffffffffffff1681565b600b818154811061235a57600080fd5b90600052602060002090600202016000915090508060000160009054906101000a900473ffffffffffffffffffffffffffffffffffffffff16908060010160009054906101000a900473ffffffffffffffffffffffffffffffffffffffff16908060010160149054906101000a900460ff16905083565b6000600460009054906101000a900473ffffffffffffffffffffffffffffffffffffffff1673ffffffffffffffffffffffffffffffffffffffff16630d4d003d83306040518363ffffffff1660e01b81526004016124309291906143e8565b6020604051808303816000875af115801561244f573d6000803e3d6000fd5b505050506040513d601f19601f820116820180604052508101906124739190614128565b9050919050565b600080600360009054906101000a900473ffffffffffffffffffffffffffffffffffffffff1673ffffffffffffffffffffffffffffffffffffffff1663d04f246b600860009054906101000a900473ffffffffffffffffffffffffffffffffffffffff166040518263ffffffff1660e01b81526004016124fa9190612eeb565b602060405180830381865afa158015612517573d6000803e3d6000fd5b505050506040513d601f19601f8201168201806040525081019061253b9190613afd565b90506000810361254f57600191505061261a565b60008060008061258e898961256f60018c5161289a90919063ffffffff16565b815181106125805761257f613a0e565b5b602002602001015189611601565b94505093509350935060006125a1610a49565b905060006125b38b8a878988886111fd565b9050808210156125cd57600097505050505050505061261a565b6000612608886125fa6127106125ec868861289a90919063ffffffff16565b6127d690919063ffffffff16565b61285090919063ffffffff16565b9050612af88111985050505050505050505b9392505050565b612629612744565b8060098190555050565b600080600360009054906101000a900473ffffffffffffffffffffffffffffffffffffffff1673ffffffffffffffffffffffffffffffffffffffff1663d04f246b600860009054906101000a900473ffffffffffffffffffffffffffffffffffffffff166040518263ffffffff1660e01b81526004016126b39190612eeb565b602060405180830381865afa1580156126d0573d6000803e3d6000fd5b505050506040513d601f19601f820116820180604052508101906126f49190613afd565b90506000612700610a49565b90506000820361271557600092505050612741565b61273c8261272e612710846127d690919063ffffffff16565b61285090919063ffffffff16565b925050505b90565b600160009054906101000a900473ffffffffffffffffffffffffffffffffffffffff1673ffffffffffffffffffffffffffffffffffffffff163373ffffffffffffffffffffffffffffffffffffffff16146127d4576040517f08c379a00000000000000000000000000000000000000000000000000000000081526004016127cb9061445d565b60405180910390fd5b565b60008083036127e8576000905061284a565b600082846127f6919061447d565b905082848261280591906144ee565b14612845576040517f08c379a000000000000000000000000000000000000000000000000000000000815260040161283c90614591565b60405180910390fd5b809150505b92915050565b600061289283836040518060400160405280601a81526020017f536166654d6174683a206469766973696f6e206279207a65726f000000000000815250612c68565b905092915050565b60006128dc83836040518060400160405280601e81526020017f536166654d6174683a207375627472616374696f6e206f766572666c6f770000815250612ccb565b905092915050565b61292d6128f086612d2f565b87848688600360009054906101000a900473ffffffffffffffffffffffffffffffffffffffff168760006009546129268f612dd7565b6000612b95565b61296c576040517f08c379a0000000000000000000000000000000000000000000000000000000008152600401612963906145fd565b60405180910390fd5b505050505050565b60008082846129839190613a6c565b9050838110156129c8576040517f08c379a00000000000000000000000000000000000000000000000000000000081526004016129bf90614669565b60405180910390fd5b8091505092915050565b6000836129ea6001865161289a90919063ffffffff16565b815181106129fb576129fa613a0e565b5b60200260200101519050600a6000612a148584866109a2565b815260200190815260200160002060009054906101000a900460ff16612b8f57600b60405180606001604052808573ffffffffffffffffffffffffffffffffffffffff1681526020018373ffffffffffffffffffffffffffffffffffffffff168152602001841515815250908060018154018082558091505060019003906000526020600020906002020160009091909190915060008201518160000160006101000a81548173ffffffffffffffffffffffffffffffffffffffff021916908373ffffffffffffffffffffffffffffffffffffffff16021790555060208201518160010160006101000a81548173ffffffffffffffffffffffffffffffffffffffff021916908373ffffffffffffffffffffffffffffffffffffffff16021790555060408201518160010160146101000a81548160ff02191690831515021790555050506001600a6000612b698685876109a2565b815260200190815260200160002060006101000a81548160ff0219169083151502179055505b50505050565b600080600460009054906101000a900473ffffffffffffffffffffffffffffffffffffffff1673ffffffffffffffffffffffffffffffffffffffff16637be7d141348f8f8f8f8f8f8f8f8f8f8f6040518d63ffffffff1660e01b8152600401612c089b9a99989796959493929190614689565b60206040518083038185885af1158015612c26573d6000803e3d6000fd5b50505050506040513d601f19601f82011682018060405250810190612c4b9190613e39565b9050612c56816123d1565b9150509b9a5050505050505050505050565b60008083118290612caf576040517f08c379a0000000000000000000000000000000000000000000000000000000008152600401612ca691906147a9565b60405180910390fd5b5060008385612cbe91906144ee565b9050809150509392505050565b6000838311158290612d13576040517f08c379a0000000000000000000000000000000000000000000000000000000008152600401612d0a91906147a9565b60405180910390fd5b5060008385612d2291906147cb565b9050809150509392505050565b60606000600167ffffffffffffffff811115612d4e57612d4d613101565b5b604051908082528060200260200182016040528015612d7c5781602001602082028036833780820191505090505b5090508281600081518110612d9457612d93613a0e565b5b602002602001019073ffffffffffffffffffffffffffffffffffffffff16908173ffffffffffffffffffffffffffffffffffffffff168152505080915050919050565b6000600260009054906101000a900473ffffffffffffffffffffffffffffffffffffffff1673ffffffffffffffffffffffffffffffffffffffff168273ffffffffffffffffffffffffffffffffffffffff16149050919050565b60405180610100016040528060008152602001600081526020016000815260200160008152602001600081526020016000815260200160008152602001600081525090565b6000819050919050565b612e8981612e76565b82525050565b6000602082019050612ea46000830184612e80565b92915050565b600073ffffffffffffffffffffffffffffffffffffffff82169050919050565b6000612ed582612eaa565b9050919050565b612ee581612eca565b82525050565b6000602082019050612f006000830184612edc565b92915050565b6000604051905090565b600080fd5b600080fd5b612f2381612eca565b8114612f2e57600080fd5b50565b600081359050612f4081612f1a565b92915050565b600060208284031215612f5c57612f5b612f10565b5b6000612f6a84828501612f31565b91505092915050565b60008115159050919050565b612f8881612f73565b8114612f9357600080fd5b50565b600081359050612fa581612f7f565b92915050565b600080600060608486031215612fc457612fc3612f10565b5b6000612fd286828701612f31565b9350506020612fe386828701612f31565b9250506040612ff486828701612f96565b9150509250925092565b6000819050919050565b61301181612ffe565b82525050565b600060208201905061302c6000830184613008565b92915050565b61303b81612e76565b811461304657600080fd5b50565b60008135905061305881613032565b92915050565b60008060008060008060c0878903121561307b5761307a612f10565b5b600061308989828a01612f31565b965050602061309a89828a01612f96565b95505060406130ab89828a01613049565b94505060606130bc89828a01613049565b93505060806130cd89828a01613049565b92505060a06130de89828a01613049565b9150509295509295509295565b600080fd5b6000601f19601f8301169050919050565b7f4e487b7100000000000000000000000000000000000000000000000000000000600052604160045260246000fd5b613139826130f0565b810181811067ffffffffffffffff8211171561315857613157613101565b5b80604052505050565b600061316b612f06565b90506131778282613130565b919050565b600067ffffffffffffffff82111561319757613196613101565b5b602082029050602081019050919050565b600080fd5b60006131c06131bb8461317c565b613161565b905080838252602082019050602084028301858111156131e3576131e26131a8565b5b835b8181101561320c57806131f88882612f31565b8452602084019350506020810190506131e5565b5050509392505050565b600082601f83011261322b5761322a6130eb565b5b813561323b8482602086016131ad565b91505092915050565b61324d81612ffe565b811461325857600080fd5b50565b60008135905061326a81613244565b92915050565b60008060008060008060008060006101208a8c03121561329357613292612f10565b5b60008a013567ffffffffffffffff8111156132b1576132b0612f15565b5b6132bd8c828d01613216565b99505060206132ce8c828d01612f31565b98505060406132df8c828d01613049565b97505060606132f08c828d01613049565b96505060806133018c828d01612f96565b95505060a06133128c828d01613049565b94505060c06133238c828d01613049565b93505060e06133348c828d0161325b565b9250506101006133468c828d01612f31565b9150509295985092959850929598565b600081519050919050565b600082825260208201905092915050565b6000819050602082019050919050565b61338b81612eca565b82525050565b61339a81612f73565b82525050565b6060820160008201516133b66000850182613382565b5060208201516133c96020850182613382565b5060408201516133dc6040850182613391565b50505050565b60006133ee83836133a0565b60608301905092915050565b6000602082019050919050565b600061341282613356565b61341c8185613361565b935061342783613372565b8060005b8381101561345857815161343f88826133e2565b975061344a836133fa565b92505060018101905061342b565b5085935050505092915050565b6000602082019050818103600083015261347f8184613407565b905092915050565b600060a08201905061349c6000830188612e80565b6134a96020830187612e80565b6134b66040830186612e80565b6134c36060830185612e80565b6134d06080830184612e80565b9695505050505050565b60008060008060008060008060008060006101608c8e031215613500576134ff612f10565b5b60008c013567ffffffffffffffff81111561351e5761351d612f15565b5b61352a8e828f01613216565b9b5050602061353b8e828f01612f31565b9a5050604061354c8e828f01613049565b995050606061355d8e828f01613049565b985050608061356e8e828f01612f96565b97505060a061357f8e828f01612f31565b96505060c06135908e828f01613049565b95505060e06135a18e828f01613049565b9450506101006135b38e828f01613049565b9350506101206135c58e828f01612f96565b9250506101406135d78e828f01612f31565b9150509295989b509295989b9093969950565b6135f381612f73565b82525050565b600060208201905061360e60008301846135ea565b92915050565b6000806000806000806000806000806101408b8d03121561363857613637612f10565b5b60008b013567ffffffffffffffff81111561365657613655612f15565b5b6136628d828e01613216565b9a505060206136738d828e01612f31565b99505060406136848d828e01613049565b98505060606136958d828e01613049565b97505060806136a68d828e01613049565b96505060a06136b78d828e01612f96565b95505060c06136c88d828e01613049565b94505060e06136d98d828e01613049565b9350506101006136eb8d828e0161325b565b9250506101206136fd8d828e01612f31565b9150509295989b9194979a5092959850565b600080600080600080600060e0888a03121561372e5761372d612f10565b5b600061373c8a828b01612f31565b975050602061374d8a828b01612f31565b965050604061375e8a828b01612f96565b955050606061376f8a828b01613049565b94505060806137808a828b01613049565b93505060a06137918a828b01613049565b92505060c06137a28a828b01613049565b91505092959891949750929550565b600080600080608085870312156137cb576137ca612f10565b5b60006137d987828801612f31565b94505060206137ea87828801613049565b93505060406137fb87828801613049565b925050606061380c87828801612f96565b91505092959194509250565b600060408201905061382d60008301856135ea565b61383a6020830184612e80565b9392505050565b60006020828403121561385757613856612f10565b5b600061386584828501613049565b91505092915050565b60006060820190506138836000830186612edc565b6138906020830185612edc565b61389d60408301846135ea565b949350505050565b6000602082840312156138bb576138ba612f10565b5b60006138c98482850161325b565b91505092915050565b6000806000606084860312156138eb576138ea612f10565b5b60006138f986828701612f31565b935050602084013567ffffffffffffffff81111561391a57613919612f15565b5b61392686828701613216565b925050604061393786828701612f96565b9150509250925092565b60008160601b9050919050565b600061395982613941565b9050919050565b600061396b8261394e565b9050919050565b61398361397e82612eca565b613960565b82525050565b60008160f81b9050919050565b60006139a182613989565b9050919050565b60006139b382613996565b9050919050565b6139cb6139c682612f73565b6139a8565b82525050565b60006139dd8286613972565b6014820191506139ed8285613972565b6014820191506139fd82846139ba565b600182019150819050949350505050565b7f4e487b7100000000000000000000000000000000000000000000000000000000600052603260045260246000fd5b7f4e487b7100000000000000000000000000000000000000000000000000000000600052601160045260246000fd5b6000613a7782612e76565b9150613a8283612e76565b9250828201905080821115613a9a57613a99613a3d565b5b92915050565b6000613aab82612e76565b91507fffffffffffffffffffffffffffffffffffffffffffffffffffffffffffffffff8203613add57613adc613a3d565b5b600182019050919050565b600081519050613af781613032565b92915050565b600060208284031215613b1357613b12612f10565b5b6000613b2184828501613ae8565b91505092915050565b600082825260208201905092915050565b7f6865616c746820666163746f7200000000000000000000000000000000000000600082015250565b6000613b71600d83613b2a565b9150613b7c82613b3b565b602082019050919050565b60006020820190508181036000830152613ba081613b64565b9050919050565b600060a082019050613bbc6000830188612edc565b613bc96020830187612e80565b613bd66040830186612e80565b613be360608301856135ea565b613bf06080830184612e80565b9695505050505050565b600081519050613c0981612f7f565b92915050565b60008060408385031215613c2657613c25612f10565b5b6000613c3485828601613bfa565b9250506020613c4585828601613ae8565b9150509250929050565b7f6f6e6c7920746865206f776e65722063616e2063616c6c20746869732066756e60008201527f6374696f6e000000000000000000000000000000000000000000000000000000602082015250565b6000613cab602583613b2a565b9150613cb682613c4f565b604082019050919050565b60006020820190508181036000830152613cda81613c9e565b9050919050565b600081519050919050565b600082825260208201905092915050565b6000819050602082019050919050565b6000613d198383613382565b60208301905092915050565b6000602082019050919050565b6000613d3d82613ce1565b613d478185613cec565b9350613d5283613cfd565b8060005b83811015613d83578151613d6a8882613d0d565b9750613d7583613d25565b925050600181019050613d56565b5085935050505092915050565b6000610120820190508181036000830152613dab818c613d32565b9050613dba602083018b612edc565b613dc7604083018a612e80565b613dd46060830189612e80565b613de160808301886135ea565b613dee60a0830187612e80565b613dfb60c0830186612e80565b613e0860e0830185613008565b613e16610100830184612edc565b9a9950505050505050505050565b600081519050613e3381613244565b92915050565b600060208284031215613e4f57613e4e612f10565b5b6000613e5d84828501613e24565b91505092915050565b6000608082019050613e7b6000830187612edc565b613e886020830186612edc565b613e956040830185612edc565b613ea260608301846135ea565b95945050505050565b600080600080600080600080610100898b031215613ecc57613ecb612f10565b5b6000613eda8b828c01613ae8565b9850506020613eeb8b828c01613ae8565b9750506040613efc8b828c01613ae8565b9650506060613f0d8b828c01613ae8565b9550506080613f1e8b828c01613ae8565b94505060a0613f2f8b828c01613ae8565b93505060c0613f408b828c01613bfa565b92505060e0613f518b828c01613ae8565b9150509295985092959890939650565b7f6f6e6c7920746865206f776e6572206f7220676f762063616e2063616c6c207460008201527f6869732066756e6374696f6e0000000000000000000000000000000000000000602082015250565b6000613fbd602c83613b2a565b9150613fc882613f61565b604082019050919050565b60006020820190508181036000830152613fec81613fb0565b9050919050565b7f6665650000000000000000000000000000000000000000000000000000000000600082015250565b6000614029600383613b2a565b915061403482613ff3565b602082019050919050565b600060208201905081810360008301526140588161401c565b9050919050565b7f6c6f616e20616d6f756e7420646f6573206e6f74207065726d6974206c69717560008201527f69646174696f6e00000000000000000000000000000000000000000000000000602082015250565b60006140bb602783613b2a565b91506140c68261405f565b604082019050919050565b600060208201905081810360008301526140ea816140ae565b9050919050565b60006060820190506141066000830186612edc565b6141136020830185612edc565b6141206040830184612e80565b949350505050565b60006020828403121561413e5761413d612f10565b5b600061414c84828501613bfa565b91505092915050565b7f6661696c656420746f207472616e7366657220696e20636f6c6c61746572616c600082015250565b600061418b602083613b2a565b915061419682614155565b602082019050919050565b600060208201905081810360008301526141ba8161417e565b9050919050565b60006040820190506141d66000830185612edc565b6141e36020830184612e80565b9392505050565b7f6661696c656420746f20617070726f766520636f6c6c61746572616c2074726160008201527f6e73666572000000000000000000000000000000000000000000000000000000602082015250565b6000614246602583613b2a565b9150614251826141ea565b604082019050919050565b6000602082019050818103600083015261427581614239565b9050919050565b6000610140820190508181036000830152614297818d613d32565b90506142a6602083018c612edc565b6142b3604083018b612e80565b6142c0606083018a612e80565b6142cd6080830189612e80565b6142da60a08301886135ea565b6142e760c0830187612e80565b6142f460e0830186612e80565b614302610100830185613008565b614310610120830184612edc565b9b9a5050505050505050505050565b60006060820190506143346000830186612edc565b6143416020830185612e80565b61434e6040830184612e80565b949350505050565b7f617665726765207072696365206f6620706f736974696f6e2068617320746f2060008201527f62652067726561746572207468616e2030000000000000000000000000000000602082015250565b60006143b2603183613b2a565b91506143bd82614356565b604082019050919050565b600060208201905081810360008301526143e1816143a5565b9050919050565b60006040820190506143fd6000830185613008565b61440a6020830184612edc565b9392505050565b7f6f6e6c7920676f762063616e2063616c6c20746869732066756e6374696f6e00600082015250565b6000614447601f83613b2a565b915061445282614411565b602082019050919050565b600060208201905081810360008301526144768161443a565b9050919050565b600061448882612e76565b915061449383612e76565b92508282026144a181612e76565b915082820484148315176144b8576144b7613a3d565b5b5092915050565b7f4e487b7100000000000000000000000000000000000000000000000000000000600052601260045260246000fd5b60006144f982612e76565b915061450483612e76565b925082614514576145136144bf565b5b828204905092915050565b7f536166654d6174683a206d756c7469706c69636174696f6e206f766572666c6f60008201527f7700000000000000000000000000000000000000000000000000000000000000602082015250565b600061457b602183613b2a565b91506145868261451f565b604082019050919050565b600060208201905081810360008301526145aa8161456e565b9050919050565b7f6661696c656420746f206c697175696461746520706f736974696f6e00000000600082015250565b60006145e7601c83613b2a565b91506145f2826145b1565b602082019050919050565b60006020820190508181036000830152614616816145da565b9050919050565b7f536166654d6174683a206164646974696f6e206f766572666c6f770000000000600082015250565b6000614653601b83613b2a565b915061465e8261461d565b602082019050919050565b6000602082019050818103600083015261468281614646565b9050919050565b60006101608201905081810360008301526146a4818e613d32565b90506146b3602083018d612edc565b6146c0604083018c612e80565b6146cd606083018b612e80565b6146da608083018a6135ea565b6146e760a0830189612edc565b6146f460c0830188612e80565b61470160e0830187612e80565b61470f610100830186612e80565b61471d6101208301856135ea565b61472b610140830184612edc565b9c9b505050505050505050505050565b600081519050919050565b60005b83811015614764578082015181840152602081019050614749565b60008484015250505050565b600061477b8261473b565b6147858185613b2a565b9350614795818560208601614746565b61479e816130f0565b840191505092915050565b600060208201905081810360008301526147c38184614770565b905092915050565b60006147d682612e76565b91506147e183612e76565b92508282039050818111156147f9576147f8613a3d565b5b9291505056fea2646970667358221220e598a1ff2128767a6083d99b493d192a9ccd5b73b8c1c7df01c976a39d96404964736f6c63430008110033a26469706673582212201ee2ddcc3917b938edb4c4f13e3f649ca122bf336780d544afdc10ff6303c37f64736f6c63430008110033",
  "linkReferences": {},
  "deployedLinkReferences": {}
}