{
  "_format": "hh-sol-artifact-1",
  "contractName": "PositionRouter",
  "sourceName": "contracts/gmx/core/PositionRouter.sol",
  "abi": [
    {
      "inputs": [
        {
          "internalType": "address",
          "name": "_vault",
          "type": "address"
        },
        {
          "internalType": "address",
          "name": "_router",
          "type": "address"
        },
        {
          "internalType": "address",
          "name": "_weth",
          "type": "address"
        },
        {
          "internalType": "address",
          "name": "_shortsTracker",
          "type": "address"
        },
        {
          "internalType": "uint256",
          "name": "_depositFee",
          "type": "uint256"
        },
        {
          "internalType": "uint256",
          "name": "_minExecutionFee",
          "type": "uint256"
        }
      ],
      "stateMutability": "nonpayable",
      "type": "constructor"
    },
    {
      "anonymous": false,
      "inputs": [
        {
          "indexed": false,
          "internalType": "address",
          "name": "callbackTarget",
          "type": "address"
        },
        {
          "indexed": false,
          "internalType": "bool",
          "name": "success",
          "type": "bool"
        }
      ],
      "name": "Callback",
      "type": "event"
    },
    {
      "anonymous": false,
      "inputs": [
        {
          "indexed": true,
          "internalType": "address",
          "name": "account",
          "type": "address"
        },
        {
          "indexed": false,
          "internalType": "address[]",
          "name": "path",
          "type": "address[]"
        },
        {
          "indexed": false,
          "internalType": "address",
          "name": "indexToken",
          "type": "address"
        },
        {
          "indexed": false,
          "internalType": "uint256",
          "name": "collateralDelta",
          "type": "uint256"
        },
        {
          "indexed": false,
          "internalType": "uint256",
          "name": "sizeDelta",
          "type": "uint256"
        },
        {
          "indexed": false,
          "internalType": "bool",
          "name": "isLong",
          "type": "bool"
        },
        {
          "indexed": false,
          "internalType": "address",
          "name": "receiver",
          "type": "address"
        },
        {
          "indexed": false,
          "internalType": "uint256",
          "name": "acceptablePrice",
          "type": "uint256"
        },
        {
          "indexed": false,
          "internalType": "uint256",
          "name": "minOut",
          "type": "uint256"
        },
        {
          "indexed": false,
          "internalType": "uint256",
          "name": "executionFee",
          "type": "uint256"
        },
        {
          "indexed": false,
          "internalType": "uint256",
          "name": "blockGap",
          "type": "uint256"
        },
        {
          "indexed": false,
          "internalType": "uint256",
          "name": "timeGap",
          "type": "uint256"
        }
      ],
      "name": "CancelDecreasePosition",
      "type": "event"
    },
    {
      "anonymous": false,
      "inputs": [
        {
          "indexed": true,
          "internalType": "address",
          "name": "account",
          "type": "address"
        },
        {
          "indexed": false,
          "internalType": "address[]",
          "name": "path",
          "type": "address[]"
        },
        {
          "indexed": false,
          "internalType": "address",
          "name": "indexToken",
          "type": "address"
        },
        {
          "indexed": false,
          "internalType": "uint256",
          "name": "amountIn",
          "type": "uint256"
        },
        {
          "indexed": false,
          "internalType": "uint256",
          "name": "minOut",
          "type": "uint256"
        },
        {
          "indexed": false,
          "internalType": "uint256",
          "name": "sizeDelta",
          "type": "uint256"
        },
        {
          "indexed": false,
          "internalType": "bool",
          "name": "isLong",
          "type": "bool"
        },
        {
          "indexed": false,
          "internalType": "uint256",
          "name": "acceptablePrice",
          "type": "uint256"
        },
        {
          "indexed": false,
          "internalType": "uint256",
          "name": "executionFee",
          "type": "uint256"
        },
        {
          "indexed": false,
          "internalType": "uint256",
          "name": "blockGap",
          "type": "uint256"
        },
        {
          "indexed": false,
          "internalType": "uint256",
          "name": "timeGap",
          "type": "uint256"
        }
      ],
      "name": "CancelIncreasePosition",
      "type": "event"
    },
    {
      "anonymous": false,
      "inputs": [
        {
          "indexed": true,
          "internalType": "address",
          "name": "account",
          "type": "address"
        },
        {
          "indexed": false,
          "internalType": "address[]",
          "name": "path",
          "type": "address[]"
        },
        {
          "indexed": false,
          "internalType": "address",
          "name": "indexToken",
          "type": "address"
        },
        {
          "indexed": false,
          "internalType": "uint256",
          "name": "collateralDelta",
          "type": "uint256"
        },
        {
          "indexed": false,
          "internalType": "uint256",
          "name": "sizeDelta",
          "type": "uint256"
        },
        {
          "indexed": false,
          "internalType": "bool",
          "name": "isLong",
          "type": "bool"
        },
        {
          "indexed": false,
          "internalType": "address",
          "name": "receiver",
          "type": "address"
        },
        {
          "indexed": false,
          "internalType": "uint256",
          "name": "acceptablePrice",
          "type": "uint256"
        },
        {
          "indexed": false,
          "internalType": "uint256",
          "name": "minOut",
          "type": "uint256"
        },
        {
          "indexed": false,
          "internalType": "uint256",
          "name": "executionFee",
          "type": "uint256"
        },
        {
          "indexed": false,
          "internalType": "uint256",
          "name": "index",
          "type": "uint256"
        },
        {
          "indexed": false,
          "internalType": "uint256",
          "name": "queueIndex",
          "type": "uint256"
        },
        {
          "indexed": false,
          "internalType": "uint256",
          "name": "blockNumber",
          "type": "uint256"
        },
        {
          "indexed": false,
          "internalType": "uint256",
          "name": "blockTime",
          "type": "uint256"
        }
      ],
      "name": "CreateDecreasePosition",
      "type": "event"
    },
    {
      "anonymous": false,
      "inputs": [
        {
          "indexed": true,
          "internalType": "address",
          "name": "account",
          "type": "address"
        },
        {
          "indexed": false,
          "internalType": "address[]",
          "name": "path",
          "type": "address[]"
        },
        {
          "indexed": false,
          "internalType": "address",
          "name": "indexToken",
          "type": "address"
        },
        {
          "indexed": false,
          "internalType": "uint256",
          "name": "amountIn",
          "type": "uint256"
        },
        {
          "indexed": false,
          "internalType": "uint256",
          "name": "minOut",
          "type": "uint256"
        },
        {
          "indexed": false,
          "internalType": "uint256",
          "name": "sizeDelta",
          "type": "uint256"
        },
        {
          "indexed": false,
          "internalType": "bool",
          "name": "isLong",
          "type": "bool"
        },
        {
          "indexed": false,
          "internalType": "uint256",
          "name": "acceptablePrice",
          "type": "uint256"
        },
        {
          "indexed": false,
          "internalType": "uint256",
          "name": "executionFee",
          "type": "uint256"
        },
        {
          "indexed": false,
          "internalType": "uint256",
          "name": "index",
          "type": "uint256"
        },
        {
          "indexed": false,
          "internalType": "uint256",
          "name": "queueIndex",
          "type": "uint256"
        },
        {
          "indexed": false,
          "internalType": "uint256",
          "name": "blockNumber",
          "type": "uint256"
        },
        {
          "indexed": false,
          "internalType": "uint256",
          "name": "blockTime",
          "type": "uint256"
        },
        {
          "indexed": false,
          "internalType": "uint256",
          "name": "gasPrice",
          "type": "uint256"
        }
      ],
      "name": "CreateIncreasePosition",
      "type": "event"
    },
    {
      "anonymous": false,
      "inputs": [
        {
          "indexed": false,
          "internalType": "address",
          "name": "account",
          "type": "address"
        },
        {
          "indexed": false,
          "internalType": "uint256",
          "name": "sizeDelta",
          "type": "uint256"
        },
        {
          "indexed": false,
          "internalType": "uint256",
          "name": "marginFeeBasisPoints",
          "type": "uint256"
        },
        {
          "indexed": false,
          "internalType": "bytes32",
          "name": "referralCode",
          "type": "bytes32"
        },
        {
          "indexed": false,
          "internalType": "address",
          "name": "referrer",
          "type": "address"
        }
      ],
      "name": "DecreasePositionReferral",
      "type": "event"
    },
    {
      "anonymous": false,
      "inputs": [
        {
          "indexed": true,
          "internalType": "address",
          "name": "account",
          "type": "address"
        },
        {
          "indexed": false,
          "internalType": "address[]",
          "name": "path",
          "type": "address[]"
        },
        {
          "indexed": false,
          "internalType": "address",
          "name": "indexToken",
          "type": "address"
        },
        {
          "indexed": false,
          "internalType": "uint256",
          "name": "collateralDelta",
          "type": "uint256"
        },
        {
          "indexed": false,
          "internalType": "uint256",
          "name": "sizeDelta",
          "type": "uint256"
        },
        {
          "indexed": false,
          "internalType": "bool",
          "name": "isLong",
          "type": "bool"
        },
        {
          "indexed": false,
          "internalType": "address",
          "name": "receiver",
          "type": "address"
        },
        {
          "indexed": false,
          "internalType": "uint256",
          "name": "acceptablePrice",
          "type": "uint256"
        },
        {
          "indexed": false,
          "internalType": "uint256",
          "name": "minOut",
          "type": "uint256"
        },
        {
          "indexed": false,
          "internalType": "uint256",
          "name": "executionFee",
          "type": "uint256"
        },
        {
          "indexed": false,
          "internalType": "uint256",
          "name": "blockGap",
          "type": "uint256"
        },
        {
          "indexed": false,
          "internalType": "uint256",
          "name": "timeGap",
          "type": "uint256"
        }
      ],
      "name": "ExecuteDecreasePosition",
      "type": "event"
    },
    {
      "anonymous": false,
      "inputs": [
        {
          "indexed": true,
          "internalType": "address",
          "name": "account",
          "type": "address"
        },
        {
          "indexed": false,
          "internalType": "address[]",
          "name": "path",
          "type": "address[]"
        },
        {
          "indexed": false,
          "internalType": "address",
          "name": "indexToken",
          "type": "address"
        },
        {
          "indexed": false,
          "internalType": "uint256",
          "name": "amountIn",
          "type": "uint256"
        },
        {
          "indexed": false,
          "internalType": "uint256",
          "name": "minOut",
          "type": "uint256"
        },
        {
          "indexed": false,
          "internalType": "uint256",
          "name": "sizeDelta",
          "type": "uint256"
        },
        {
          "indexed": false,
          "internalType": "bool",
          "name": "isLong",
          "type": "bool"
        },
        {
          "indexed": false,
          "internalType": "uint256",
          "name": "acceptablePrice",
          "type": "uint256"
        },
        {
          "indexed": false,
          "internalType": "uint256",
          "name": "executionFee",
          "type": "uint256"
        },
        {
          "indexed": false,
          "internalType": "uint256",
          "name": "blockGap",
          "type": "uint256"
        },
        {
          "indexed": false,
          "internalType": "uint256",
          "name": "timeGap",
          "type": "uint256"
        }
      ],
      "name": "ExecuteIncreasePosition",
      "type": "event"
    },
    {
      "anonymous": false,
      "inputs": [
        {
          "indexed": false,
          "internalType": "address",
          "name": "account",
          "type": "address"
        },
        {
          "indexed": false,
          "internalType": "uint256",
          "name": "sizeDelta",
          "type": "uint256"
        },
        {
          "indexed": false,
          "internalType": "uint256",
          "name": "marginFeeBasisPoints",
          "type": "uint256"
        },
        {
          "indexed": false,
          "internalType": "bytes32",
          "name": "referralCode",
          "type": "bytes32"
        },
        {
          "indexed": false,
          "internalType": "address",
          "name": "referrer",
          "type": "address"
        }
      ],
      "name": "IncreasePositionReferral",
      "type": "event"
    },
    {
      "anonymous": false,
      "inputs": [
        {
          "indexed": false,
          "internalType": "address",
          "name": "admin",
          "type": "address"
        }
      ],
      "name": "SetAdmin",
      "type": "event"
    },
    {
      "anonymous": false,
      "inputs": [
        {
          "indexed": false,
          "internalType": "uint256",
          "name": "callbackGasLimit",
          "type": "uint256"
        }
      ],
      "name": "SetCallbackGasLimit",
      "type": "event"
    },
    {
      "anonymous": false,
      "inputs": [
        {
          "indexed": false,
          "internalType": "uint256",
          "name": "minBlockDelayKeeper",
          "type": "uint256"
        },
        {
          "indexed": false,
          "internalType": "uint256",
          "name": "minTimeDelayPublic",
          "type": "uint256"
        },
        {
          "indexed": false,
          "internalType": "uint256",
          "name": "maxTimeDelay",
          "type": "uint256"
        }
      ],
      "name": "SetDelayValues",
      "type": "event"
    },
    {
      "anonymous": false,
      "inputs": [
        {
          "indexed": false,
          "internalType": "uint256",
          "name": "depositFee",
          "type": "uint256"
        }
      ],
      "name": "SetDepositFee",
      "type": "event"
    },
    {
      "anonymous": false,
      "inputs": [
        {
          "indexed": false,
          "internalType": "uint256",
          "name": "increasePositionBufferBps",
          "type": "uint256"
        }
      ],
      "name": "SetIncreasePositionBufferBps",
      "type": "event"
    },
    {
      "anonymous": false,
      "inputs": [
        {
          "indexed": false,
          "internalType": "bool",
          "name": "isLeverageEnabled",
          "type": "bool"
        }
      ],
      "name": "SetIsLeverageEnabled",
      "type": "event"
    },
    {
      "anonymous": false,
      "inputs": [
        {
          "indexed": false,
          "internalType": "address[]",
          "name": "tokens",
          "type": "address[]"
        },
        {
          "indexed": false,
          "internalType": "uint256[]",
          "name": "longSizes",
          "type": "uint256[]"
        },
        {
          "indexed": false,
          "internalType": "uint256[]",
          "name": "shortSizes",
          "type": "uint256[]"
        }
      ],
      "name": "SetMaxGlobalSizes",
      "type": "event"
    },
    {
      "anonymous": false,
      "inputs": [
        {
          "indexed": false,
          "internalType": "uint256",
          "name": "minExecutionFee",
          "type": "uint256"
        }
      ],
      "name": "SetMinExecutionFee",
      "type": "event"
    },
    {
      "anonymous": false,
      "inputs": [
        {
          "indexed": true,
          "internalType": "address",
          "name": "account",
          "type": "address"
        },
        {
          "indexed": false,
          "internalType": "bool",
          "name": "isActive",
          "type": "bool"
        }
      ],
      "name": "SetPositionKeeper",
      "type": "event"
    },
    {
      "anonymous": false,
      "inputs": [
        {
          "indexed": false,
          "internalType": "address",
          "name": "referralStorage",
          "type": "address"
        }
      ],
      "name": "SetReferralStorage",
      "type": "event"
    },
    {
      "anonymous": false,
      "inputs": [
        {
          "indexed": false,
          "internalType": "uint256",
          "name": "increasePositionRequestKeysStart",
          "type": "uint256"
        },
        {
          "indexed": false,
          "internalType": "uint256",
          "name": "decreasePositionRequestKeysStart",
          "type": "uint256"
        }
      ],
      "name": "SetRequestKeysStartValues",
      "type": "event"
    },
    {
      "anonymous": false,
      "inputs": [
        {
          "indexed": false,
          "internalType": "address",
          "name": "token",
          "type": "address"
        },
        {
          "indexed": false,
          "internalType": "address",
          "name": "receiver",
          "type": "address"
        },
        {
          "indexed": false,
          "internalType": "uint256",
          "name": "amount",
          "type": "uint256"
        }
      ],
      "name": "WithdrawFees",
      "type": "event"
    },
    {
      "inputs": [],
      "name": "BASIS_POINTS_DIVISOR",
      "outputs": [
        {
          "internalType": "uint256",
          "name": "",
          "type": "uint256"
        }
      ],
      "stateMutability": "view",
      "type": "function"
    },
    {
      "inputs": [],
      "name": "admin",
      "outputs": [
        {
          "internalType": "address",
          "name": "",
          "type": "address"
        }
      ],
      "stateMutability": "view",
      "type": "function"
    },
    {
      "inputs": [
        {
          "internalType": "address",
          "name": "_token",
          "type": "address"
        },
        {
          "internalType": "address",
          "name": "_spender",
          "type": "address"
        },
        {
          "internalType": "uint256",
          "name": "_amount",
          "type": "uint256"
        }
      ],
      "name": "approve",
      "outputs": [],
      "stateMutability": "nonpayable",
      "type": "function"
    },
    {
      "inputs": [],
      "name": "callbackGasLimit",
      "outputs": [
        {
          "internalType": "uint256",
          "name": "",
          "type": "uint256"
        }
      ],
      "stateMutability": "view",
      "type": "function"
    },
    {
      "inputs": [
        {
          "internalType": "bytes32",
          "name": "_key",
          "type": "bytes32"
        },
        {
          "internalType": "address payable",
          "name": "_executionFeeReceiver",
          "type": "address"
        }
      ],
      "name": "cancelDecreasePosition",
      "outputs": [
        {
          "internalType": "bool",
          "name": "",
          "type": "bool"
        }
      ],
      "stateMutability": "nonpayable",
      "type": "function"
    },
    {
      "inputs": [
        {
          "internalType": "bytes32",
          "name": "_key",
          "type": "bytes32"
        },
        {
          "internalType": "address payable",
          "name": "_executionFeeReceiver",
          "type": "address"
        }
      ],
      "name": "cancelIncreasePosition",
      "outputs": [
        {
          "internalType": "bool",
          "name": "",
          "type": "bool"
        }
      ],
      "stateMutability": "nonpayable",
      "type": "function"
    },
    {
      "inputs": [
        {
          "internalType": "address[]",
          "name": "_path",
          "type": "address[]"
        },
        {
          "internalType": "address",
          "name": "_indexToken",
          "type": "address"
        },
        {
          "internalType": "uint256",
          "name": "_collateralDelta",
          "type": "uint256"
        },
        {
          "internalType": "uint256",
          "name": "_sizeDelta",
          "type": "uint256"
        },
        {
          "internalType": "bool",
          "name": "_isLong",
          "type": "bool"
        },
        {
          "internalType": "address",
          "name": "_receiver",
          "type": "address"
        },
        {
          "internalType": "uint256",
          "name": "_acceptablePrice",
          "type": "uint256"
        },
        {
          "internalType": "uint256",
          "name": "_minOut",
          "type": "uint256"
        },
        {
          "internalType": "uint256",
          "name": "_executionFee",
          "type": "uint256"
        },
        {
          "internalType": "bool",
          "name": "_withdrawETH",
          "type": "bool"
        },
        {
          "internalType": "address",
          "name": "_callbackTarget",
          "type": "address"
        }
      ],
      "name": "createDecreasePosition",
      "outputs": [
        {
          "internalType": "bytes32",
          "name": "",
          "type": "bytes32"
        }
      ],
      "stateMutability": "payable",
      "type": "function"
    },
    {
      "inputs": [
        {
          "internalType": "address[]",
          "name": "_path",
          "type": "address[]"
        },
        {
          "internalType": "address",
          "name": "_indexToken",
          "type": "address"
        },
        {
          "internalType": "uint256",
          "name": "_amountIn",
          "type": "uint256"
        },
        {
          "internalType": "uint256",
          "name": "_minOut",
          "type": "uint256"
        },
        {
          "internalType": "uint256",
          "name": "_sizeDelta",
          "type": "uint256"
        },
        {
          "internalType": "bool",
          "name": "_isLong",
          "type": "bool"
        },
        {
          "internalType": "uint256",
          "name": "_acceptablePrice",
          "type": "uint256"
        },
        {
          "internalType": "uint256",
          "name": "_executionFee",
          "type": "uint256"
        },
        {
          "internalType": "bytes32",
          "name": "_referralCode",
          "type": "bytes32"
        },
        {
          "internalType": "address",
          "name": "_callbackTarget",
          "type": "address"
        }
      ],
      "name": "createIncreasePosition",
      "outputs": [
        {
          "internalType": "bytes32",
          "name": "",
          "type": "bytes32"
        }
      ],
      "stateMutability": "payable",
      "type": "function"
    },
    {
      "inputs": [
        {
          "internalType": "address[]",
          "name": "_path",
          "type": "address[]"
        },
        {
          "internalType": "address",
          "name": "_indexToken",
          "type": "address"
        },
        {
          "internalType": "uint256",
          "name": "_minOut",
          "type": "uint256"
        },
        {
          "internalType": "uint256",
          "name": "_sizeDelta",
          "type": "uint256"
        },
        {
          "internalType": "bool",
          "name": "_isLong",
          "type": "bool"
        },
        {
          "internalType": "uint256",
          "name": "_acceptablePrice",
          "type": "uint256"
        },
        {
          "internalType": "uint256",
          "name": "_executionFee",
          "type": "uint256"
        },
        {
          "internalType": "bytes32",
          "name": "_referralCode",
          "type": "bytes32"
        },
        {
          "internalType": "address",
          "name": "_callbackTarget",
          "type": "address"
        }
      ],
      "name": "createIncreasePositionETH",
      "outputs": [
        {
          "internalType": "bytes32",
          "name": "",
          "type": "bytes32"
        }
      ],
      "stateMutability": "payable",
      "type": "function"
    },
    {
      "inputs": [
        {
          "internalType": "uint256",
          "name": "",
          "type": "uint256"
        }
      ],
      "name": "decreasePositionRequestKeys",
      "outputs": [
        {
          "internalType": "bytes32",
          "name": "",
          "type": "bytes32"
        }
      ],
      "stateMutability": "view",
      "type": "function"
    },
    {
      "inputs": [],
      "name": "decreasePositionRequestKeysStart",
      "outputs": [
        {
          "internalType": "uint256",
          "name": "",
          "type": "uint256"
        }
      ],
      "stateMutability": "view",
      "type": "function"
    },
    {
      "inputs": [
        {
          "internalType": "bytes32",
          "name": "",
          "type": "bytes32"
        }
      ],
      "name": "decreasePositionRequests",
      "outputs": [
        {
          "internalType": "address",
          "name": "account",
          "type": "address"
        },
        {
          "internalType": "address",
          "name": "indexToken",
          "type": "address"
        },
        {
          "internalType": "uint256",
          "name": "collateralDelta",
          "type": "uint256"
        },
        {
          "internalType": "uint256",
          "name": "sizeDelta",
          "type": "uint256"
        },
        {
          "internalType": "bool",
          "name": "isLong",
          "type": "bool"
        },
        {
          "internalType": "address",
          "name": "receiver",
          "type": "address"
        },
        {
          "internalType": "uint256",
          "name": "acceptablePrice",
          "type": "uint256"
        },
        {
          "internalType": "uint256",
          "name": "minOut",
          "type": "uint256"
        },
        {
          "internalType": "uint256",
          "name": "executionFee",
          "type": "uint256"
        },
        {
          "internalType": "uint256",
          "name": "blockNumber",
          "type": "uint256"
        },
        {
          "internalType": "uint256",
          "name": "blockTime",
          "type": "uint256"
        },
        {
          "internalType": "bool",
          "name": "withdrawETH",
          "type": "bool"
        },
        {
          "internalType": "address",
          "name": "callbackTarget",
          "type": "address"
        }
      ],
      "stateMutability": "view",
      "type": "function"
    },
    {
      "inputs": [
        {
          "internalType": "address",
          "name": "",
          "type": "address"
        }
      ],
      "name": "decreasePositionsIndex",
      "outputs": [
        {
          "internalType": "uint256",
          "name": "",
          "type": "uint256"
        }
      ],
      "stateMutability": "view",
      "type": "function"
    },
    {
      "inputs": [],
      "name": "depositFee",
      "outputs": [
        {
          "internalType": "uint256",
          "name": "",
          "type": "uint256"
        }
      ],
      "stateMutability": "view",
      "type": "function"
    },
    {
      "inputs": [
        {
          "internalType": "bytes32",
          "name": "_key",
          "type": "bytes32"
        },
        {
          "internalType": "address payable",
          "name": "_executionFeeReceiver",
          "type": "address"
        }
      ],
      "name": "executeDecreasePosition",
      "outputs": [
        {
          "internalType": "bool",
          "name": "",
          "type": "bool"
        }
      ],
      "stateMutability": "nonpayable",
      "type": "function"
    },
    {
      "inputs": [
        {
          "internalType": "uint256",
          "name": "_endIndex",
          "type": "uint256"
        },
        {
          "internalType": "address payable",
          "name": "_executionFeeReceiver",
          "type": "address"
        }
      ],
      "name": "executeDecreasePositions",
      "outputs": [],
      "stateMutability": "nonpayable",
      "type": "function"
    },
    {
      "inputs": [
        {
          "internalType": "bytes32",
          "name": "_key",
          "type": "bytes32"
        },
        {
          "internalType": "address payable",
          "name": "_executionFeeReceiver",
          "type": "address"
        }
      ],
      "name": "executeIncreasePosition",
      "outputs": [
        {
          "internalType": "bool",
          "name": "",
          "type": "bool"
        }
      ],
      "stateMutability": "nonpayable",
      "type": "function"
    },
    {
      "inputs": [
        {
          "internalType": "uint256",
          "name": "_endIndex",
          "type": "uint256"
        },
        {
          "internalType": "address payable",
          "name": "_executionFeeReceiver",
          "type": "address"
        }
      ],
      "name": "executeIncreasePositions",
      "outputs": [],
      "stateMutability": "nonpayable",
      "type": "function"
    },
    {
      "inputs": [
        {
          "internalType": "address",
          "name": "",
          "type": "address"
        }
      ],
      "name": "feeReserves",
      "outputs": [
        {
          "internalType": "uint256",
          "name": "",
          "type": "uint256"
        }
      ],
      "stateMutability": "view",
      "type": "function"
    },
    {
      "inputs": [
        {
          "internalType": "bytes32",
          "name": "_key",
          "type": "bytes32"
        }
      ],
      "name": "getDecreasePositionRequestPath",
      "outputs": [
        {
          "internalType": "address[]",
          "name": "",
          "type": "address[]"
        }
      ],
      "stateMutability": "view",
      "type": "function"
    },
    {
      "inputs": [
        {
          "internalType": "bytes32",
          "name": "_key",
          "type": "bytes32"
        }
      ],
      "name": "getIncreasePositionRequestPath",
      "outputs": [
        {
          "internalType": "address[]",
          "name": "",
          "type": "address[]"
        }
      ],
      "stateMutability": "view",
      "type": "function"
    },
    {
      "inputs": [
        {
          "internalType": "address",
          "name": "_account",
          "type": "address"
        },
        {
          "internalType": "uint256",
          "name": "_index",
          "type": "uint256"
        }
      ],
      "name": "getRequestKey",
      "outputs": [
        {
          "internalType": "bytes32",
          "name": "",
          "type": "bytes32"
        }
      ],
      "stateMutability": "pure",
      "type": "function"
    },
    {
      "inputs": [],
      "name": "getRequestQueueLengths",
      "outputs": [
        {
          "internalType": "uint256",
          "name": "",
          "type": "uint256"
        },
        {
          "internalType": "uint256",
          "name": "",
          "type": "uint256"
        },
        {
          "internalType": "uint256",
          "name": "",
          "type": "uint256"
        },
        {
          "internalType": "uint256",
          "name": "",
          "type": "uint256"
        }
      ],
      "stateMutability": "view",
      "type": "function"
    },
    {
      "inputs": [],
      "name": "gov",
      "outputs": [
        {
          "internalType": "address",
          "name": "",
          "type": "address"
        }
      ],
      "stateMutability": "view",
      "type": "function"
    },
    {
      "inputs": [],
      "name": "increasePositionBufferBps",
      "outputs": [
        {
          "internalType": "uint256",
          "name": "",
          "type": "uint256"
        }
      ],
      "stateMutability": "view",
      "type": "function"
    },
    {
      "inputs": [
        {
          "internalType": "uint256",
          "name": "",
          "type": "uint256"
        }
      ],
      "name": "increasePositionRequestKeys",
      "outputs": [
        {
          "internalType": "bytes32",
          "name": "",
          "type": "bytes32"
        }
      ],
      "stateMutability": "view",
      "type": "function"
    },
    {
      "inputs": [],
      "name": "increasePositionRequestKeysStart",
      "outputs": [
        {
          "internalType": "uint256",
          "name": "",
          "type": "uint256"
        }
      ],
      "stateMutability": "view",
      "type": "function"
    },
    {
      "inputs": [
        {
          "internalType": "bytes32",
          "name": "",
          "type": "bytes32"
        }
      ],
      "name": "increasePositionRequests",
      "outputs": [
        {
          "internalType": "address",
          "name": "account",
          "type": "address"
        },
        {
          "internalType": "address",
          "name": "indexToken",
          "type": "address"
        },
        {
          "internalType": "uint256",
          "name": "amountIn",
          "type": "uint256"
        },
        {
          "internalType": "uint256",
          "name": "minOut",
          "type": "uint256"
        },
        {
          "internalType": "uint256",
          "name": "sizeDelta",
          "type": "uint256"
        },
        {
          "internalType": "bool",
          "name": "isLong",
          "type": "bool"
        },
        {
          "internalType": "uint256",
          "name": "acceptablePrice",
          "type": "uint256"
        },
        {
          "internalType": "uint256",
          "name": "executionFee",
          "type": "uint256"
        },
        {
          "internalType": "uint256",
          "name": "blockNumber",
          "type": "uint256"
        },
        {
          "internalType": "uint256",
          "name": "blockTime",
          "type": "uint256"
        },
        {
          "internalType": "bool",
          "name": "hasCollateralInETH",
          "type": "bool"
        },
        {
          "internalType": "address",
          "name": "callbackTarget",
          "type": "address"
        }
      ],
      "stateMutability": "view",
      "type": "function"
    },
    {
      "inputs": [
        {
          "internalType": "address",
          "name": "",
          "type": "address"
        }
      ],
      "name": "increasePositionsIndex",
      "outputs": [
        {
          "internalType": "uint256",
          "name": "",
          "type": "uint256"
        }
      ],
      "stateMutability": "view",
      "type": "function"
    },
    {
      "inputs": [],
      "name": "isLeverageEnabled",
      "outputs": [
        {
          "internalType": "bool",
          "name": "",
          "type": "bool"
        }
      ],
      "stateMutability": "view",
      "type": "function"
    },
    {
      "inputs": [
        {
          "internalType": "address",
          "name": "",
          "type": "address"
        }
      ],
      "name": "isPositionKeeper",
      "outputs": [
        {
          "internalType": "bool",
          "name": "",
          "type": "bool"
        }
      ],
      "stateMutability": "view",
      "type": "function"
    },
    {
      "inputs": [
        {
          "internalType": "address",
          "name": "",
          "type": "address"
        }
      ],
      "name": "maxGlobalLongSizes",
      "outputs": [
        {
          "internalType": "uint256",
          "name": "",
          "type": "uint256"
        }
      ],
      "stateMutability": "view",
      "type": "function"
    },
    {
      "inputs": [
        {
          "internalType": "address",
          "name": "",
          "type": "address"
        }
      ],
      "name": "maxGlobalShortSizes",
      "outputs": [
        {
          "internalType": "uint256",
          "name": "",
          "type": "uint256"
        }
      ],
      "stateMutability": "view",
      "type": "function"
    },
    {
      "inputs": [],
      "name": "maxTimeDelay",
      "outputs": [
        {
          "internalType": "uint256",
          "name": "",
          "type": "uint256"
        }
      ],
      "stateMutability": "view",
      "type": "function"
    },
    {
      "inputs": [],
      "name": "minBlockDelayKeeper",
      "outputs": [
        {
          "internalType": "uint256",
          "name": "",
          "type": "uint256"
        }
      ],
      "stateMutability": "view",
      "type": "function"
    },
    {
      "inputs": [],
      "name": "minExecutionFee",
      "outputs": [
        {
          "internalType": "uint256",
          "name": "",
          "type": "uint256"
        }
      ],
      "stateMutability": "view",
      "type": "function"
    },
    {
      "inputs": [],
      "name": "minTimeDelayPublic",
      "outputs": [
        {
          "internalType": "uint256",
          "name": "",
          "type": "uint256"
        }
      ],
      "stateMutability": "view",
      "type": "function"
    },
    {
      "inputs": [],
      "name": "referralStorage",
      "outputs": [
        {
          "internalType": "address",
          "name": "",
          "type": "address"
        }
      ],
      "stateMutability": "view",
      "type": "function"
    },
    {
      "inputs": [],
      "name": "router",
      "outputs": [
        {
          "internalType": "address",
          "name": "",
          "type": "address"
        }
      ],
      "stateMutability": "view",
      "type": "function"
    },
    {
      "inputs": [
        {
          "internalType": "address payable",
          "name": "_receiver",
          "type": "address"
        },
        {
          "internalType": "uint256",
          "name": "_amount",
          "type": "uint256"
        }
      ],
      "name": "sendValue",
      "outputs": [],
      "stateMutability": "nonpayable",
      "type": "function"
    },
    {
      "inputs": [
        {
          "internalType": "address",
          "name": "_admin",
          "type": "address"
        }
      ],
      "name": "setAdmin",
      "outputs": [],
      "stateMutability": "nonpayable",
      "type": "function"
    },
    {
      "inputs": [
        {
          "internalType": "uint256",
          "name": "_callbackGasLimit",
          "type": "uint256"
        }
      ],
      "name": "setCallbackGasLimit",
      "outputs": [],
      "stateMutability": "nonpayable",
      "type": "function"
    },
    {
      "inputs": [
        {
          "internalType": "uint256",
          "name": "_minBlockDelayKeeper",
          "type": "uint256"
        },
        {
          "internalType": "uint256",
          "name": "_minTimeDelayPublic",
          "type": "uint256"
        },
        {
          "internalType": "uint256",
          "name": "_maxTimeDelay",
          "type": "uint256"
        }
      ],
      "name": "setDelayValues",
      "outputs": [],
      "stateMutability": "nonpayable",
      "type": "function"
    },
    {
      "inputs": [
        {
          "internalType": "uint256",
          "name": "_depositFee",
          "type": "uint256"
        }
      ],
      "name": "setDepositFee",
      "outputs": [],
      "stateMutability": "nonpayable",
      "type": "function"
    },
    {
      "inputs": [
        {
          "internalType": "address",
          "name": "_gov",
          "type": "address"
        }
      ],
      "name": "setGov",
      "outputs": [],
      "stateMutability": "nonpayable",
      "type": "function"
    },
    {
      "inputs": [
        {
          "internalType": "uint256",
          "name": "_increasePositionBufferBps",
          "type": "uint256"
        }
      ],
      "name": "setIncreasePositionBufferBps",
      "outputs": [],
      "stateMutability": "nonpayable",
      "type": "function"
    },
    {
      "inputs": [
        {
          "internalType": "bool",
          "name": "_isLeverageEnabled",
          "type": "bool"
        }
      ],
      "name": "setIsLeverageEnabled",
      "outputs": [],
      "stateMutability": "nonpayable",
      "type": "function"
    },
    {
      "inputs": [
        {
          "internalType": "address[]",
          "name": "_tokens",
          "type": "address[]"
        },
        {
          "internalType": "uint256[]",
          "name": "_longSizes",
          "type": "uint256[]"
        },
        {
          "internalType": "uint256[]",
          "name": "_shortSizes",
          "type": "uint256[]"
        }
      ],
      "name": "setMaxGlobalSizes",
      "outputs": [],
      "stateMutability": "nonpayable",
      "type": "function"
    },
    {
      "inputs": [
        {
          "internalType": "uint256",
          "name": "_minExecutionFee",
          "type": "uint256"
        }
      ],
      "name": "setMinExecutionFee",
      "outputs": [],
      "stateMutability": "nonpayable",
      "type": "function"
    },
    {
      "inputs": [
        {
          "internalType": "address",
          "name": "_account",
          "type": "address"
        },
        {
          "internalType": "bool",
          "name": "_isActive",
          "type": "bool"
        }
      ],
      "name": "setPositionKeeper",
      "outputs": [],
      "stateMutability": "nonpayable",
      "type": "function"
    },
    {
      "inputs": [
        {
          "internalType": "address",
          "name": "_referralStorage",
          "type": "address"
        }
      ],
      "name": "setReferralStorage",
      "outputs": [],
      "stateMutability": "nonpayable",
      "type": "function"
    },
    {
      "inputs": [
        {
          "internalType": "uint256",
          "name": "_increasePositionRequestKeysStart",
          "type": "uint256"
        },
        {
          "internalType": "uint256",
          "name": "_decreasePositionRequestKeysStart",
          "type": "uint256"
        }
      ],
      "name": "setRequestKeysStartValues",
      "outputs": [],
      "stateMutability": "nonpayable",
      "type": "function"
    },
    {
      "inputs": [],
      "name": "shortsTracker",
      "outputs": [
        {
          "internalType": "address",
          "name": "",
          "type": "address"
        }
      ],
      "stateMutability": "view",
      "type": "function"
    },
    {
      "inputs": [],
      "name": "vault",
      "outputs": [
        {
          "internalType": "address",
          "name": "",
          "type": "address"
        }
      ],
      "stateMutability": "view",
      "type": "function"
    },
    {
      "inputs": [],
      "name": "weth",
      "outputs": [
        {
          "internalType": "address",
          "name": "",
          "type": "address"
        }
      ],
      "stateMutability": "view",
      "type": "function"
    },
    {
      "inputs": [
        {
          "internalType": "address",
          "name": "_token",
          "type": "address"
        },
        {
          "internalType": "address",
          "name": "_receiver",
          "type": "address"
        }
      ],
      "name": "withdrawFees",
      "outputs": [],
      "stateMutability": "nonpayable",
      "type": "function"
    },
    {
      "stateMutability": "payable",
      "type": "receive"
    }
  ],
  "bytecode": "0x608060405260646008556001601160006101000a81548160ff0219169083151502179055503480156200003157600080fd5b5060405162009dfe38038062009dfe833981810160405260c08110156200005757600080fd5b810190808051906020019092919080519060200190929190805190602001909291908051906020019092919080519060200190929190805190602001909291905050508585848685600160008190555033600160006101000a81548173ffffffffffffffffffffffffffffffffffffffff021916908373ffffffffffffffffffffffffffffffffffffffff16021790555084600360006101000a81548173ffffffffffffffffffffffffffffffffffffffff021916908373ffffffffffffffffffffffffffffffffffffffff16021790555083600560006101000a81548173ffffffffffffffffffffffffffffffffffffffff021916908373ffffffffffffffffffffffffffffffffffffffff16021790555081600660006101000a81548173ffffffffffffffffffffffffffffffffffffffff021916908373ffffffffffffffffffffffffffffffffffffffff1602179055508060078190555082600460006101000a81548173ffffffffffffffffffffffffffffffffffffffff021916908373ffffffffffffffffffffffffffffffffffffffff16021790555033600260006101000a81548173ffffffffffffffffffffffffffffffffffffffff021916908373ffffffffffffffffffffffffffffffffffffffff160217905550505050505080600d81905550505050505050619ba880620002566000396000f3fe60806040526004361061036e5760003560e01c8063633451de116101c6578063cb0269c9116100f7578063f3883d8b11610095578063fa4445771161006f578063fa4445771461197f578063faf990f3146119e4578063fbfa77cf14611ac6578063fc2cee6214611b075761041b565b8063f3883d8b146118a2578063f851a440146118fd578063f887ea401461193e5761041b565b8063ef12c67e116100d1578063ef12c67e146114af578063f25552781461169c578063f2ae372f1461170d578063f2cea6a5146118625761041b565b8063cb0269c9146113b8578063cfad57a2146113e3578063e1f21c67146114345761041b565b80638a54942f1161016457806398d1e03a1161013e57806398d1e03a146112b65780639a208100146112e15780639b5786201461133c578063ae4d7f9a146113675761041b565b80638a54942f1461118657806395e9bbd7146111c15780639698d25a146112515761041b565b806367a52793116101a057806367a5279314610f56578063704b6c0214610f815780637be7d14114610fd25780637c2eb9f7146111495761041b565b8063633451de14610e8557806363ae210314610eea578063657bc5d014610f155761041b565b8063308aa81f116102a05780634278555f1161023e5780635b88e8c6116102185780635b88e8c614610bca5780635d5c22e814610d1557806360a362e214610da557806362f8a3fe14610e165761041b565b80634278555f14610b15578063490ae21014610b645780635841fcaa14610b9f5761041b565b80633a2a80c71161027a5780633a2a80c714610a2d5780633e72a26214610a585780633fc8cef314610a855780634067b13214610ac65761041b565b8063308aa81f146109245780633422ead11461096957806336eba48a146109c65761041b565b80631ce9cb8f1161030d578063233bfe3b116102e7578063233bfe3b146107f257806324a084df1461082d57806324f746971461088857806327b42c0f146108b35761041b565b80631ce9cb8f1461061d5780631f28510614610682578063225fc9fd146107815761041b565b80631045c74e116103495780631045c74e14610521578063126082cf1461058657806312d43a51146105b15780631bca8cf0146105f25761041b565b80626cc35e1461042057806304225954146104615780630d4d003d146104b05761041b565b3661041b57600660009054906101000a900473ffffffffffffffffffffffffffffffffffffffff1673ffffffffffffffffffffffffffffffffffffffff163373ffffffffffffffffffffffffffffffffffffffff1614610419576040517f08c379a0000000000000000000000000000000000000000000000000000000008152600401808060200182810382526023815260200180619b266023913960400191505060405180910390fd5b005b600080fd5b34801561042c57600080fd5b50610435611b42565b604051808273ffffffffffffffffffffffffffffffffffffffff16815260200191505060405180910390f35b34801561046d57600080fd5b5061049a6004803603602081101561048457600080fd5b8101908080359060200190929190505050611b68565b6040518082815260200191505060405180910390f35b3480156104bc57600080fd5b50610509600480360360408110156104d357600080fd5b8101908080359060200190929190803573ffffffffffffffffffffffffffffffffffffffff169060200190929190505050611b89565b60405180821515815260200191505060405180910390f35b34801561052d57600080fd5b506105706004803603602081101561054457600080fd5b81019080803573ffffffffffffffffffffffffffffffffffffffff16906020019092919050505061230b565b6040518082815260200191505060405180910390f35b34801561059257600080fd5b5061059b612323565b6040518082815260200191505060405180910390f35b3480156105bd57600080fd5b506105c6612329565b604051808273ffffffffffffffffffffffffffffffffffffffff16815260200191505060405180910390f35b3480156105fe57600080fd5b5061060761234f565b6040518082815260200191505060405180910390f35b34801561062957600080fd5b5061066c6004803603602081101561064057600080fd5b81019080803573ffffffffffffffffffffffffffffffffffffffff169060200190929190505050612355565b6040518082815260200191505060405180910390f35b34801561068e57600080fd5b506106bb600480360360208110156106a557600080fd5b810190808035906020019092919050505061236d565b604051808e73ffffffffffffffffffffffffffffffffffffffff1681526020018d73ffffffffffffffffffffffffffffffffffffffff1681526020018c81526020018b81526020018a151581526020018973ffffffffffffffffffffffffffffffffffffffff16815260200188815260200187815260200186815260200185815260200184815260200183151581526020018273ffffffffffffffffffffffffffffffffffffffff1681526020019d505050505050505050505050505060405180910390f35b34801561078d57600080fd5b506107da600480360360408110156107a457600080fd5b8101908080359060200190929190803573ffffffffffffffffffffffffffffffffffffffff16906020019092919050505061246d565b60405180821515815260200191505060405180910390f35b3480156107fe57600080fd5b5061082b6004803603602081101561081557600080fd5b8101908080359060200190929190505050612a77565b005b34801561083957600080fd5b506108866004803603604081101561085057600080fd5b81019080803573ffffffffffffffffffffffffffffffffffffffff16906020019092919080359060200190929190505050612b7b565b005b34801561089457600080fd5b5061089d612c6b565b6040518082815260200191505060405180910390f35b3480156108bf57600080fd5b5061090c600480360360408110156108d657600080fd5b8101908080359060200190929190803573ffffffffffffffffffffffffffffffffffffffff169060200190929190505050612c71565b60405180821515815260200191505060405180910390f35b34801561093057600080fd5b506109676004803603604081101561094757600080fd5b810190808035906020019092919080359060200190929190505050613385565b005b34801561097557600080fd5b506109c46004803603604081101561098c57600080fd5b81019080803573ffffffffffffffffffffffffffffffffffffffff169060200190929190803515159060200190929190505050613499565b005b3480156109d257600080fd5b50610a15600480360360208110156109e957600080fd5b81019080803573ffffffffffffffffffffffffffffffffffffffff169060200190929190505050613607565b60405180821515815260200191505060405180910390f35b348015610a3957600080fd5b50610a42613627565b6040518082815260200191505060405180910390f35b348015610a6457600080fd5b50610a6d61362d565b60405180821515815260200191505060405180910390f35b348015610a9157600080fd5b50610a9a613640565b604051808273ffffffffffffffffffffffffffffffffffffffff16815260200191505060405180910390f35b348015610ad257600080fd5b50610b1360048036036060811015610ae957600080fd5b81019080803590602001909291908035906020019092919080359060200190929190505050613666565b005b348015610b2157600080fd5b50610b4e60048036036020811015610b3857600080fd5b810190808035906020019092919050505061378a565b6040518082815260200191505060405180910390f35b348015610b7057600080fd5b50610b9d60048036036020811015610b8757600080fd5b81019080803590602001909291905050506137ab565b005b348015610bab57600080fd5b50610bb46138af565b6040518082815260200191505060405180910390f35b610cff6004803603610120811015610be157600080fd5b8101908080359060200190640100000000811115610bfe57600080fd5b820183602082011115610c1057600080fd5b80359060200191846020830284011164010000000083111715610c3257600080fd5b919080806020026020016040519081016040528093929190818152602001838360200280828437600081840152601f19601f820116905080830192505050505050509192919290803573ffffffffffffffffffffffffffffffffffffffff1690602001909291908035906020019092919080359060200190929190803515159060200190929190803590602001909291908035906020019092919080359060200190929190803573ffffffffffffffffffffffffffffffffffffffff1690602001909291905050506138b5565b6040518082815260200191505060405180910390f35b348015610d2157600080fd5b50610d4e60048036036020811015610d3857600080fd5b8101908080359060200190929190505050613bd4565b6040518080602001828103825283818151815260200191508051906020019060200280838360005b83811015610d91578082015181840152602081019050610d76565b505050509050019250505060405180910390f35b348015610db157600080fd5b50610dfe60048036036040811015610dc857600080fd5b8101908080359060200190929190803573ffffffffffffffffffffffffffffffffffffffff169060200190929190505050613e6e565b60405180821515815260200191505060405180910390f35b348015610e2257600080fd5b50610e6f60048036036040811015610e3957600080fd5b81019080803573ffffffffffffffffffffffffffffffffffffffff169060200190929190803590602001909291905050506144a9565b6040518082815260200191505060405180910390f35b348015610e9157600080fd5b50610ed460048036036020811015610ea857600080fd5b81019080803573ffffffffffffffffffffffffffffffffffffffff1690602001909291905050506144fb565b6040518082815260200191505060405180910390f35b348015610ef657600080fd5b50610eff614513565b6040518082815260200191505060405180910390f35b348015610f2157600080fd5b50610f2a614519565b604051808273ffffffffffffffffffffffffffffffffffffffff16815260200191505060405180910390f35b348015610f6257600080fd5b50610f6b61453f565b6040518082815260200191505060405180910390f35b348015610f8d57600080fd5b50610fd060048036036020811015610fa457600080fd5b81019080803573ffffffffffffffffffffffffffffffffffffffff169060200190929190505050614545565b005b6111336004803603610160811015610fe957600080fd5b810190808035906020019064010000000081111561100657600080fd5b82018360208201111561101857600080fd5b8035906020019184602083028401116401000000008311171561103a57600080fd5b919080806020026020016040519081016040528093929190818152602001838360200280828437600081840152601f19601f820116905080830192505050505050509192919290803573ffffffffffffffffffffffffffffffffffffffff1690602001909291908035906020019092919080359060200190929190803515159060200190929190803573ffffffffffffffffffffffffffffffffffffffff169060200190929190803590602001909291908035906020019092919080359060200190929190803515159060200190929190803573ffffffffffffffffffffffffffffffffffffffff169060200190929190505050614699565b6040518082815260200191505060405180910390f35b34801561115557600080fd5b506111846004803603602081101561116c57600080fd5b810190808035151590602001909291905050506149a2565b005b34801561119257600080fd5b506111bf600480360360208110156111a957600080fd5b8101908080359060200190929190505050614abb565b005b3480156111cd57600080fd5b506111fa600480360360208110156111e457600080fd5b8101908080359060200190929190505050614bbf565b6040518080602001828103825283818151815260200191508051906020019060200280838360005b8381101561123d578082015181840152602081019050611222565b505050509050019250505060405180910390f35b34801561125d57600080fd5b506112a06004803603602081101561127457600080fd5b81019080803573ffffffffffffffffffffffffffffffffffffffff169060200190929190505050614e03565b6040518082815260200191505060405180910390f35b3480156112c257600080fd5b506112cb614e1b565b6040518082815260200191505060405180910390f35b3480156112ed57600080fd5b5061133a6004803603604081101561130457600080fd5b8101908080359060200190929190803573ffffffffffffffffffffffffffffffffffffffff169060200190929190505050614e21565b005b34801561134857600080fd5b506113516150df565b6040518082815260200191505060405180910390f35b34801561137357600080fd5b506113b66004803603602081101561138a57600080fd5b81019080803573ffffffffffffffffffffffffffffffffffffffff1690602001909291905050506150e5565b005b3480156113c457600080fd5b506113cd615239565b6040518082815260200191505060405180910390f35b3480156113ef57600080fd5b506114326004803603602081101561140657600080fd5b81019080803573ffffffffffffffffffffffffffffffffffffffff16906020019092919050505061523f565b005b34801561144057600080fd5b506114ad6004803603606081101561145757600080fd5b81019080803573ffffffffffffffffffffffffffffffffffffffff169060200190929190803573ffffffffffffffffffffffffffffffffffffffff16906020019092919080359060200190929190505050615346565b005b3480156114bb57600080fd5b5061169a600480360360608110156114d257600080fd5b81019080803590602001906401000000008111156114ef57600080fd5b82018360208201111561150157600080fd5b8035906020019184602083028401116401000000008311171561152357600080fd5b919080806020026020016040519081016040528093929190818152602001838360200280828437600081840152601f19601f8201169050808301925050505050505091929192908035906020019064010000000081111561158357600080fd5b82018360208201111561159557600080fd5b803590602001918460208302840111640100000000831117156115b757600080fd5b919080806020026020016040519081016040528093929190818152602001838360200280828437600081840152601f19601f8201169050808301925050505050505091929192908035906020019064010000000081111561161757600080fd5b82018360208201111561162957600080fd5b8035906020019184602083028401116401000000008311171561164b57600080fd5b919080806020026020016040519081016040528093929190818152602001838360200280828437600081840152601f19601f8201169050808301925050505050505091929192905050506154bb565b005b3480156116a857600080fd5b5061170b600480360360408110156116bf57600080fd5b81019080803573ffffffffffffffffffffffffffffffffffffffff169060200190929190803573ffffffffffffffffffffffffffffffffffffffff16906020019092919050505061576e565b005b61184c600480360361014081101561172457600080fd5b810190808035906020019064010000000081111561174157600080fd5b82018360208201111561175357600080fd5b8035906020019184602083028401116401000000008311171561177557600080fd5b919080806020026020016040519081016040528093929190818152602001838360200280828437600081840152601f19601f820116905080830192505050505050509192919290803573ffffffffffffffffffffffffffffffffffffffff169060200190929190803590602001909291908035906020019092919080359060200190929190803515159060200190929190803590602001909291908035906020019092919080359060200190929190803573ffffffffffffffffffffffffffffffffffffffff16906020019092919050505061596d565b6040518082815260200191505060405180910390f35b34801561186e57600080fd5b50611877615ca2565b6040518085815260200184815260200183815260200182815260200194505050505060405180910390f35b3480156118ae57600080fd5b506118fb600480360360408110156118c557600080fd5b8101908080359060200190929190803573ffffffffffffffffffffffffffffffffffffffff169060200190929190505050615cc8565b005b34801561190957600080fd5b50611912615f86565b604051808273ffffffffffffffffffffffffffffffffffffffff16815260200191505060405180910390f35b34801561194a57600080fd5b50611953615fac565b604051808273ffffffffffffffffffffffffffffffffffffffff16815260200191505060405180910390f35b34801561198b57600080fd5b506119ce600480360360208110156119a257600080fd5b81019080803573ffffffffffffffffffffffffffffffffffffffff169060200190929190505050615fd2565b6040518082815260200191505060405180910390f35b3480156119f057600080fd5b50611a1d60048036036020811015611a0757600080fd5b8101908080359060200190929190505050615fea565b604051808d73ffffffffffffffffffffffffffffffffffffffff1681526020018c73ffffffffffffffffffffffffffffffffffffffff1681526020018b81526020018a8152602001898152602001881515815260200187815260200186815260200185815260200184815260200183151581526020018273ffffffffffffffffffffffffffffffffffffffff1681526020019c5050505050505050505050505060405180910390f35b348015611ad257600080fd5b50611adb6160c4565b604051808273ffffffffffffffffffffffffffffffffffffffff16815260200191505060405180910390f35b348015611b1357600080fd5b50611b4060048036036020811015611b2a57600080fd5b81019080803590602001909291905050506160ea565b005b600960009054906101000a900473ffffffffffffffffffffffffffffffffffffffff1681565b60128181548110611b7557fe5b906000526020600020016000915090505481565b600060026000541415611c04576040517f08c379a000000000000000000000000000000000000000000000000000000000815260040180806020018281038252601f8152602001807f5265656e7472616e637947756172643a207265656e7472616e742063616c6c0081525060200191505060405180910390fd5b6002600081905550611c14619716565b601b6000858152602001908152602001600020604051806101c00160405290816000820160009054906101000a900473ffffffffffffffffffffffffffffffffffffffff1673ffffffffffffffffffffffffffffffffffffffff1673ffffffffffffffffffffffffffffffffffffffff16815260200160018201805480602002602001604051908101604052809291908181526020018280548015611d0e57602002820191906000526020600020905b8160009054906101000a900473ffffffffffffffffffffffffffffffffffffffff1673ffffffffffffffffffffffffffffffffffffffff1681526020019060010190808311611cc4575b505050505081526020016002820160009054906101000a900473ffffffffffffffffffffffffffffffffffffffff1673ffffffffffffffffffffffffffffffffffffffff1673ffffffffffffffffffffffffffffffffffffffff16815260200160038201548152602001600482015481526020016005820160009054906101000a900460ff161515151581526020016005820160019054906101000a900473ffffffffffffffffffffffffffffffffffffffff1673ffffffffffffffffffffffffffffffffffffffff1673ffffffffffffffffffffffffffffffffffffffff16815260200160068201548152602001600782015481526020016008820154815260200160098201548152602001600a8201548152602001600b820160009054906101000a900460ff16151515158152602001600b820160019054906101000a900473ffffffffffffffffffffffffffffffffffffffff1673ffffffffffffffffffffffffffffffffffffffff1673ffffffffffffffffffffffffffffffffffffffff16815250509050600073ffffffffffffffffffffffffffffffffffffffff16816000015173ffffffffffffffffffffffffffffffffffffffff161415611eda5760019150506122fd565b6000611ef582610140015183610160015184600001516161ee565b905080611f07576000925050506122fd565b601b6000868152602001908152602001600020600080820160006101000a81549073ffffffffffffffffffffffffffffffffffffffff0219169055600182016000611f5291906197e1565b6002820160006101000a81549073ffffffffffffffffffffffffffffffffffffffff0219169055600382016000905560048201600090556005820160006101000a81549060ff02191690556005820160016101000a81549073ffffffffffffffffffffffffffffffffffffffff02191690556006820160009055600782016000905560088201600090556009820160009055600a820160009055600b820160006101000a81549060ff0219169055600b820160016101000a81549073ffffffffffffffffffffffffffffffffffffffff02191690555050600061206b8360000151846020015160008151811061204457fe5b60200260200101518560400151866060015187608001518860a00151308a60e001516164ec565b9050600081111561216e5760018360200151511115612100576120e9600360009054906101000a900473ffffffffffffffffffffffffffffffffffffffff168285602001516000815181106120bc57fe5b602002602001015173ffffffffffffffffffffffffffffffffffffffff16616b0b9092919063ffffffff16565b6120fd836020015184610100015130616bad565b90505b8261018001511561211e57612119818460c00151616c4c565b61216d565b61216c8360c001518285602001516001876020015151038151811061213f57fe5b602002602001015173ffffffffffffffffffffffffffffffffffffffff16616b0b9092919063ffffffff16565b5b5b61217d83610120015186616c4c565b826000015173ffffffffffffffffffffffffffffffffffffffff167f21435c5b618d77ff3657140cd3318e2cffaebc5e0e1b7318f56a9ba4044c3ed284602001518560400151866060015187608001518860a001518960c001518a60e001518b61010001518c61012001516122008e610140015143616d1390919063ffffffff16565b6122188f610160015142616d1390919063ffffffff16565b60405180806020018c73ffffffffffffffffffffffffffffffffffffffff1681526020018b81526020018a815260200189151581526020018873ffffffffffffffffffffffffffffffffffffffff16815260200187815260200186815260200185815260200184815260200183815260200182810382528d818151815260200191508051906020019060200280838360005b838110156122c55780820151818401526020810190506122aa565b505050509050019c5050505050505050505050505060405180910390a26122f5836101a001518760016000616d5d565b600193505050505b600160008190555092915050565b600b6020528060005260406000206000915090505481565b61271081565b600160009054906101000a900473ffffffffffffffffffffffffffffffffffffffff1681565b60155481565b600a6020528060005260406000206000915090505481565b601b6020528060005260406000206000915090508060000160009054906101000a900473ffffffffffffffffffffffffffffffffffffffff16908060020160009054906101000a900473ffffffffffffffffffffffffffffffffffffffff16908060030154908060040154908060050160009054906101000a900460ff16908060050160019054906101000a900473ffffffffffffffffffffffffffffffffffffffff169080600601549080600701549080600801549080600901549080600a01549080600b0160009054906101000a900460ff169080600b0160019054906101000a900473ffffffffffffffffffffffffffffffffffffffff1690508d565b6000600260005414156124e8576040517f08c379a000000000000000000000000000000000000000000000000000000000815260040180806020018281038252601f8152602001807f5265656e7472616e637947756172643a207265656e7472616e742063616c6c0081525060200191505060405180910390fd5b60026000819055506124f8619802565b60196000858152602001908152602001600020604051806101a00160405290816000820160009054906101000a900473ffffffffffffffffffffffffffffffffffffffff1673ffffffffffffffffffffffffffffffffffffffff1673ffffffffffffffffffffffffffffffffffffffff168152602001600182018054806020026020016040519081016040528092919081815260200182805480156125f257602002820191906000526020600020905b8160009054906101000a900473ffffffffffffffffffffffffffffffffffffffff1673ffffffffffffffffffffffffffffffffffffffff16815260200190600101908083116125a8575b505050505081526020016002820160009054906101000a900473ffffffffffffffffffffffffffffffffffffffff1673ffffffffffffffffffffffffffffffffffffffff1673ffffffffffffffffffffffffffffffffffffffff1681526020016003820154815260200160048201548152602001600582015481526020016006820160009054906101000a900460ff16151515158152602001600782015481526020016008820154815260200160098201548152602001600a8201548152602001600b820160009054906101000a900460ff16151515158152602001600b820160019054906101000a900473ffffffffffffffffffffffffffffffffffffffff1673ffffffffffffffffffffffffffffffffffffffff1673ffffffffffffffffffffffffffffffffffffffff16815250509050600073ffffffffffffffffffffffffffffffffffffffff16816000015173ffffffffffffffffffffffffffffffffffffffff161415612768576001915050612a69565b60006127838261012001518361014001518460000151616ebf565b90508061279557600092505050612a69565b60196000868152602001908152602001600020600080820160006101000a81549073ffffffffffffffffffffffffffffffffffffffff02191690556001820160006127e091906197e1565b6002820160006101000a81549073ffffffffffffffffffffffffffffffffffffffff02191690556003820160009055600482016000905560058201600090556006820160006101000a81549060ff0219169055600782016000905560088201600090556009820160009055600a820160009055600b820160006101000a81549060ff0219169055600b820160016101000a81549073ffffffffffffffffffffffffffffffffffffffff02191690555050816101600151156128b2576128ad82606001518360000151616c4c565b6128fe565b6128fd8260000151836060015184602001516000815181106128d057fe5b602002602001015173ffffffffffffffffffffffffffffffffffffffff16616b0b9092919063ffffffff16565b5b61290d82610100015185616c4c565b816000015173ffffffffffffffffffffffffffffffffffffffff167f35b638e650e2328786fb405bd69d2083dbedc018d086662e74b775b4f1dae4bf83602001518460400151856060015186608001518760a001518860c001518960e001518a610100015161298a8c610120015143616d1390919063ffffffff16565b6129a28d610140015142616d1390919063ffffffff16565b60405180806020018b73ffffffffffffffffffffffffffffffffffffffff1681526020018a8152602001898152602001888152602001871515815260200186815260200185815260200184815260200183815260200182810382528c818151815260200191508051906020019060200280838360005b83811015612a33578082015181840152602081019050612a18565b505050509050019b50505050505050505050505060405180910390a2612a628261018001518660006001616d5d565b6001925050505b600160008190555092915050565b600260009054906101000a900473ffffffffffffffffffffffffffffffffffffffff1673ffffffffffffffffffffffffffffffffffffffff163373ffffffffffffffffffffffffffffffffffffffff1614612b3a576040517f08c379a000000000000000000000000000000000000000000000000000000000815260040180806020018281038252601e8152602001807f42617365506f736974696f6e4d616e616765723a20666f7262696464656e000081525060200191505060405180910390fd5b806008819055507f21167d0d4661af93817ebce920f18986eed3d75d5e1c03f2aed05efcbafbc452816040518082815260200191505060405180910390a150565b600160009054906101000a900473ffffffffffffffffffffffffffffffffffffffff1673ffffffffffffffffffffffffffffffffffffffff163373ffffffffffffffffffffffffffffffffffffffff1614612c3e576040517f08c379a00000000000000000000000000000000000000000000000000000000081526004018080602001828103825260158152602001807f476f7665726e61626c653a20666f7262696464656e000000000000000000000081525060200191505060405180910390fd5b612c67818373ffffffffffffffffffffffffffffffffffffffff1661713390919063ffffffff16565b5050565b60165481565b600060026000541415612cec576040517f08c379a000000000000000000000000000000000000000000000000000000000815260040180806020018281038252601f8152602001807f5265656e7472616e637947756172643a207265656e7472616e742063616c6c0081525060200191505060405180910390fd5b6002600081905550612cfc619802565b60196000858152602001908152602001600020604051806101a00160405290816000820160009054906101000a900473ffffffffffffffffffffffffffffffffffffffff1673ffffffffffffffffffffffffffffffffffffffff1673ffffffffffffffffffffffffffffffffffffffff16815260200160018201805480602002602001604051908101604052809291908181526020018280548015612df657602002820191906000526020600020905b8160009054906101000a900473ffffffffffffffffffffffffffffffffffffffff1673ffffffffffffffffffffffffffffffffffffffff1681526020019060010190808311612dac575b505050505081526020016002820160009054906101000a900473ffffffffffffffffffffffffffffffffffffffff1673ffffffffffffffffffffffffffffffffffffffff1673ffffffffffffffffffffffffffffffffffffffff1681526020016003820154815260200160048201548152602001600582015481526020016006820160009054906101000a900460ff16151515158152602001600782015481526020016008820154815260200160098201548152602001600a8201548152602001600b820160009054906101000a900460ff16151515158152602001600b820160019054906101000a900473ffffffffffffffffffffffffffffffffffffffff1673ffffffffffffffffffffffffffffffffffffffff1673ffffffffffffffffffffffffffffffffffffffff16815250509050600073ffffffffffffffffffffffffffffffffffffffff16816000015173ffffffffffffffffffffffffffffffffffffffff161415612f6c576001915050613377565b6000612f8782610120015183610140015184600001516161ee565b905080612f9957600092505050613377565b60196000868152602001908152602001600020600080820160006101000a81549073ffffffffffffffffffffffffffffffffffffffff0219169055600182016000612fe491906197e1565b6002820160006101000a81549073ffffffffffffffffffffffffffffffffffffffff02191690556003820160009055600482016000905560058201600090556006820160006101000a81549060ff0219169055600782016000905560088201600090556009820160009055600a820160009055600b820160006101000a81549060ff0219169055600b820160016101000a81549073ffffffffffffffffffffffffffffffffffffffff021916905550506000826060015111156131cc576000826060015190506001836020015151111561313757613121600360009054906101000a900473ffffffffffffffffffffffffffffffffffffffff16846060015185602001516000815181106130f457fe5b602002602001015173ffffffffffffffffffffffffffffffffffffffff16616b0b9092919063ffffffff16565b6131348360200151846080015130616bad565b90505b600061315b846000015185602001518487604001518860c001518960a0015161726d565b90506131c9600360009054906101000a900473ffffffffffffffffffffffffffffffffffffffff168286602001516001886020015151038151811061319c57fe5b602002602001015173ffffffffffffffffffffffffffffffffffffffff16616b0b9092919063ffffffff16565b50505b61320d82600001518360200151600185602001515103815181106131ec57fe5b602002602001015184604001518560a001518660c001518760e001516173aa565b61321c82610100015185616c4c565b816000015173ffffffffffffffffffffffffffffffffffffffff167f1be316b94d38c07bd41cdb4913772d0a0a82802786a2f8b657b6e85dbcdfc64183602001518460400151856060015186608001518760a001518860c001518960e001518a61010001516132998c610120015143616d1390919063ffffffff16565b6132b18d610140015142616d1390919063ffffffff16565b60405180806020018b73ffffffffffffffffffffffffffffffffffffffff1681526020018a8152602001898152602001888152602001871515815260200186815260200185815260200184815260200183815260200182810382528c818151815260200191508051906020019060200280838360005b83811015613342578082015181840152602081019050613327565b505050509050019b50505050505050505050505060405180910390a261337082610180015186600180616d5d565b6001925050505b600160008190555092915050565b600260009054906101000a900473ffffffffffffffffffffffffffffffffffffffff1673ffffffffffffffffffffffffffffffffffffffff163373ffffffffffffffffffffffffffffffffffffffff1614613448576040517f08c379a000000000000000000000000000000000000000000000000000000000815260040180806020018281038252601e8152602001807f42617365506f736974696f6e4d616e616765723a20666f7262696464656e000081525060200191505060405180910390fd5b81601481905550806015819055507febb0f666150f4be5b60c45df8f3e49992510b0128027fe58eea6110f296493bc8282604051808381526020018281526020019250505060405180910390a15050565b600260009054906101000a900473ffffffffffffffffffffffffffffffffffffffff1673ffffffffffffffffffffffffffffffffffffffff163373ffffffffffffffffffffffffffffffffffffffff161461355c576040517f08c379a000000000000000000000000000000000000000000000000000000000815260040180806020018281038252601e8152602001807f42617365506f736974696f6e4d616e616765723a20666f7262696464656e000081525060200191505060405180910390fd5b80601760008473ffffffffffffffffffffffffffffffffffffffff1673ffffffffffffffffffffffffffffffffffffffff16815260200190815260200160002060006101000a81548160ff0219169083151502179055508173ffffffffffffffffffffffffffffffffffffffff167ffbabc02389290a451c6e600d05bf9887b99bfad39d8e1237e4e3df042e4941fe8260405180821515815260200191505060405180910390a25050565b60176020528060005260406000206000915054906101000a900460ff1681565b600f5481565b601160009054906101000a900460ff1681565b600660009054906101000a900473ffffffffffffffffffffffffffffffffffffffff1681565b600260009054906101000a900473ffffffffffffffffffffffffffffffffffffffff1673ffffffffffffffffffffffffffffffffffffffff163373ffffffffffffffffffffffffffffffffffffffff1614613729576040517f08c379a000000000000000000000000000000000000000000000000000000000815260040180806020018281038252601e8152602001807f42617365506f736974696f6e4d616e616765723a20666f7262696464656e000081525060200191505060405180910390fd5b82600e8190555081600f81905550806010819055507fb98e759701eaca2e60c25e91109003c1c7442ef731b5d569037063005da8254d83838360405180848152602001838152602001828152602001935050505060405180910390a1505050565b6013818154811061379757fe5b906000526020600020016000915090505481565b600260009054906101000a900473ffffffffffffffffffffffffffffffffffffffff1673ffffffffffffffffffffffffffffffffffffffff163373ffffffffffffffffffffffffffffffffffffffff161461386e576040517f08c379a000000000000000000000000000000000000000000000000000000000815260040180806020018281038252601e8152602001807f42617365506f736974696f6e4d616e616765723a20666f7262696464656e000081525060200191505060405180910390fd5b806007819055507f974fd3c1fcb4653dfc4fb740c4c692cd212d55c28f163f310128cb64d8300675816040518082815260200191505060405180910390a150565b600e5481565b600060026000541415613930576040517f08c379a000000000000000000000000000000000000000000000000000000000815260040180806020018281038252601f8152602001807f5265656e7472616e637947756172643a207265656e7472616e742063616c6c0081525060200191505060405180910390fd5b6002600081905550600d548410156139b0576040517f08c379a00000000000000000000000000000000000000000000000000000000081526004018080602001828103825260038152602001807f666565000000000000000000000000000000000000000000000000000000000081525060200191505060405180910390fd5b83341015613a26576040517f08c379a00000000000000000000000000000000000000000000000000000000081526004018080602001828103825260038152602001807f76616c000000000000000000000000000000000000000000000000000000000081525060200191505060405180910390fd5b60018a511480613a37575060028a51145b613aa9576040517f08c379a00000000000000000000000000000000000000000000000000000000081526004018080602001828103825260038152602001807f6c656e000000000000000000000000000000000000000000000000000000000081525060200191505060405180910390fd5b600660009054906101000a900473ffffffffffffffffffffffffffffffffffffffff1673ffffffffffffffffffffffffffffffffffffffff168a600081518110613aef57fe5b602002602001015173ffffffffffffffffffffffffffffffffffffffff1614613b80576040517f08c379a00000000000000000000000000000000000000000000000000000000081526004018080602001828103825260048152602001807f706174680000000000000000000000000000000000000000000000000000000081525060200191505060405180910390fd5b613b8861797e565b613b9183617a0c565b6000613ba68534616d1390919063ffffffff16565b9050613bbc338c8c848d8d8d8d8d60018d617b22565b91505060016000819055509998505050505050505050565b6060613bde619716565b601b6000848152602001908152602001600020604051806101c00160405290816000820160009054906101000a900473ffffffffffffffffffffffffffffffffffffffff1673ffffffffffffffffffffffffffffffffffffffff1673ffffffffffffffffffffffffffffffffffffffff16815260200160018201805480602002602001604051908101604052809291908181526020018280548015613cd857602002820191906000526020600020905b8160009054906101000a900473ffffffffffffffffffffffffffffffffffffffff1673ffffffffffffffffffffffffffffffffffffffff1681526020019060010190808311613c8e575b505050505081526020016002820160009054906101000a900473ffffffffffffffffffffffffffffffffffffffff1673ffffffffffffffffffffffffffffffffffffffff1673ffffffffffffffffffffffffffffffffffffffff16815260200160038201548152602001600482015481526020016005820160009054906101000a900460ff161515151581526020016005820160019054906101000a900473ffffffffffffffffffffffffffffffffffffffff1673ffffffffffffffffffffffffffffffffffffffff1673ffffffffffffffffffffffffffffffffffffffff16815260200160068201548152602001600782015481526020016008820154815260200160098201548152602001600a8201548152602001600b820160009054906101000a900460ff16151515158152602001600b820160019054906101000a900473ffffffffffffffffffffffffffffffffffffffff1673ffffffffffffffffffffffffffffffffffffffff1673ffffffffffffffffffffffffffffffffffffffff168152505090508060200151915050919050565b600060026000541415613ee9576040517f08c379a000000000000000000000000000000000000000000000000000000000815260040180806020018281038252601f8152602001807f5265656e7472616e637947756172643a207265656e7472616e742063616c6c0081525060200191505060405180910390fd5b6002600081905550613ef9619716565b601b6000858152602001908152602001600020604051806101c00160405290816000820160009054906101000a900473ffffffffffffffffffffffffffffffffffffffff1673ffffffffffffffffffffffffffffffffffffffff1673ffffffffffffffffffffffffffffffffffffffff16815260200160018201805480602002602001604051908101604052809291908181526020018280548015613ff357602002820191906000526020600020905b8160009054906101000a900473ffffffffffffffffffffffffffffffffffffffff1673ffffffffffffffffffffffffffffffffffffffff1681526020019060010190808311613fa9575b505050505081526020016002820160009054906101000a900473ffffffffffffffffffffffffffffffffffffffff1673ffffffffffffffffffffffffffffffffffffffff1673ffffffffffffffffffffffffffffffffffffffff16815260200160038201548152602001600482015481526020016005820160009054906101000a900460ff161515151581526020016005820160019054906101000a900473ffffffffffffffffffffffffffffffffffffffff1673ffffffffffffffffffffffffffffffffffffffff1673ffffffffffffffffffffffffffffffffffffffff16815260200160068201548152602001600782015481526020016008820154815260200160098201548152602001600a8201548152602001600b820160009054906101000a900460ff16151515158152602001600b820160019054906101000a900473ffffffffffffffffffffffffffffffffffffffff1673ffffffffffffffffffffffffffffffffffffffff1673ffffffffffffffffffffffffffffffffffffffff16815250509050600073ffffffffffffffffffffffffffffffffffffffff16816000015173ffffffffffffffffffffffffffffffffffffffff1614156141bf57600191505061449b565b60006141da8261014001518361016001518460000151616ebf565b9050806141ec5760009250505061449b565b601b6000868152602001908152602001600020600080820160006101000a81549073ffffffffffffffffffffffffffffffffffffffff021916905560018201600061423791906197e1565b6002820160006101000a81549073ffffffffffffffffffffffffffffffffffffffff0219169055600382016000905560048201600090556005820160006101000a81549060ff02191690556005820160016101000a81549073ffffffffffffffffffffffffffffffffffffffff02191690556006820160009055600782016000905560088201600090556009820160009055600a820160009055600b820160006101000a81549060ff0219169055600b820160016101000a81549073ffffffffffffffffffffffffffffffffffffffff0219169055505061431d82610120015185616c4c565b816000015173ffffffffffffffffffffffffffffffffffffffff167f87abfd78e844f28318363bdf3da99eab2f4a2da9ff7ae365484507f7b6c3f80583602001518460400151856060015186608001518760a001518860c001518960e001518a61010001518b61012001516143a08d610140015143616d1390919063ffffffff16565b6143b88e610160015142616d1390919063ffffffff16565b60405180806020018c73ffffffffffffffffffffffffffffffffffffffff1681526020018b81526020018a815260200189151581526020018873ffffffffffffffffffffffffffffffffffffffff16815260200187815260200186815260200185815260200184815260200183815260200182810382528d818151815260200191508051906020019060200280838360005b8381101561446557808201518184015260208101905061444a565b505050509050019c5050505050505050505050505060405180910390a2614494826101a0015186600080616d5d565b6001925050505b600160008190555092915050565b60008282604051602001808373ffffffffffffffffffffffffffffffffffffffff1660601b81526014018281526020019250505060405160208183030381529060405280519060200120905092915050565b60186020528060005260406000206000915090505481565b600d5481565b600460009054906101000a900473ffffffffffffffffffffffffffffffffffffffff1681565b60075481565b600160009054906101000a900473ffffffffffffffffffffffffffffffffffffffff1673ffffffffffffffffffffffffffffffffffffffff163373ffffffffffffffffffffffffffffffffffffffff1614614608576040517f08c379a00000000000000000000000000000000000000000000000000000000081526004018080602001828103825260158152602001807f476f7665726e61626c653a20666f7262696464656e000000000000000000000081525060200191505060405180910390fd5b80600260006101000a81548173ffffffffffffffffffffffffffffffffffffffff021916908373ffffffffffffffffffffffffffffffffffffffff1602179055507f5a272403b402d892977df56625f4164ccaf70ca3863991c43ecfe76a6905b0a181604051808273ffffffffffffffffffffffffffffffffffffffff16815260200191505060405180910390a150565b600060026000541415614714576040517f08c379a000000000000000000000000000000000000000000000000000000000815260040180806020018281038252601f8152602001807f5265656e7472616e637947756172643a207265656e7472616e742063616c6c0081525060200191505060405180910390fd5b6002600081905550600d54841015614794576040517f08c379a00000000000000000000000000000000000000000000000000000000081526004018080602001828103825260038152602001807f666565000000000000000000000000000000000000000000000000000000000081525060200191505060405180910390fd5b833414614809576040517f08c379a00000000000000000000000000000000000000000000000000000000081526004018080602001828103825260038152602001807f76616c000000000000000000000000000000000000000000000000000000000081525060200191505060405180910390fd5b60018c51148061481a575060028c51145b61488c576040517f08c379a00000000000000000000000000000000000000000000000000000000081526004018080602001828103825260038152602001807f6c656e000000000000000000000000000000000000000000000000000000000081525060200191505060405180910390fd5b821561496d57600660009054906101000a900473ffffffffffffffffffffffffffffffffffffffff1673ffffffffffffffffffffffffffffffffffffffff168c60018e5103815181106148db57fe5b602002602001015173ffffffffffffffffffffffffffffffffffffffff161461496c576040517f08c379a00000000000000000000000000000000000000000000000000000000081526004018080602001828103825260048152602001807f706174680000000000000000000000000000000000000000000000000000000081525060200191505060405180910390fd5b5b61497561797e565b614989338d8d8d8d8d8d8d8d8d8d8d617d00565b905060016000819055509b9a5050505050505050505050565b600260009054906101000a900473ffffffffffffffffffffffffffffffffffffffff1673ffffffffffffffffffffffffffffffffffffffff163373ffffffffffffffffffffffffffffffffffffffff1614614a65576040517f08c379a000000000000000000000000000000000000000000000000000000000815260040180806020018281038252601e8152602001807f42617365506f736974696f6e4d616e616765723a20666f7262696464656e000081525060200191505060405180910390fd5b80601160006101000a81548160ff0219169083151502179055507f4eb87a5935d402aa24c01b45bfb30adefcd2328b480f2d967864de4b64ea929f8160405180821515815260200191505060405180910390a150565b600260009054906101000a900473ffffffffffffffffffffffffffffffffffffffff1673ffffffffffffffffffffffffffffffffffffffff163373ffffffffffffffffffffffffffffffffffffffff1614614b7e576040517f08c379a000000000000000000000000000000000000000000000000000000000815260040180806020018281038252601e8152602001807f42617365506f736974696f6e4d616e616765723a20666f7262696464656e000081525060200191505060405180910390fd5b806016819055507f22bd2c9f980325d046be74aaef5fc76df4a2bc3fbc7c5a1200fcc79fe80dab6c816040518082815260200191505060405180910390a150565b6060614bc9619802565b60196000848152602001908152602001600020604051806101a00160405290816000820160009054906101000a900473ffffffffffffffffffffffffffffffffffffffff1673ffffffffffffffffffffffffffffffffffffffff1673ffffffffffffffffffffffffffffffffffffffff16815260200160018201805480602002602001604051908101604052809291908181526020018280548015614cc357602002820191906000526020600020905b8160009054906101000a900473ffffffffffffffffffffffffffffffffffffffff1673ffffffffffffffffffffffffffffffffffffffff1681526020019060010190808311614c79575b505050505081526020016002820160009054906101000a900473ffffffffffffffffffffffffffffffffffffffff1673ffffffffffffffffffffffffffffffffffffffff1673ffffffffffffffffffffffffffffffffffffffff1681526020016003820154815260200160048201548152602001600582015481526020016006820160009054906101000a900460ff16151515158152602001600782015481526020016008820154815260200160098201548152602001600a8201548152602001600b820160009054906101000a900460ff16151515158152602001600b820160019054906101000a900473ffffffffffffffffffffffffffffffffffffffff1673ffffffffffffffffffffffffffffffffffffffff1673ffffffffffffffffffffffffffffffffffffffff168152505090508060200151915050919050565b600c6020528060005260406000206000915090505481565b60085481565b601760003373ffffffffffffffffffffffffffffffffffffffff1673ffffffffffffffffffffffffffffffffffffffff16815260200190815260200160002060009054906101000a900460ff16614ee0576040517f08c379a00000000000000000000000000000000000000000000000000000000081526004018080602001828103825260038152602001807f343033000000000000000000000000000000000000000000000000000000000081525060200191505060405180910390fd5b6000601454905060006012805490509050808210614eff5750506150db565b80841115614f0b578093505b5b838210156150d157600060128381548110614f2357fe5b906000526020600020015490503073ffffffffffffffffffffffffffffffffffffffff166327b42c0f82866040518363ffffffff1660e01b8152600401808381526020018273ffffffffffffffffffffffffffffffffffffffff16815260200192505050602060405180830381600087803b158015614fa157600080fd5b505af1925050508015614fd557506040513d6020811015614fc157600080fd5b810190808051906020019092919050505060015b61509a573073ffffffffffffffffffffffffffffffffffffffff1663225fc9fd82866040518363ffffffff1660e01b8152600401808381526020018273ffffffffffffffffffffffffffffffffffffffff16815260200192505050602060405180830381600087803b15801561504a57600080fd5b505af192505050801561507e57506040513d602081101561506a57600080fd5b810190808051906020019092919050505060015b61508757615095565b806150935750506150d1565b505b6150a8565b806150a65750506150d1565b505b601283815481106150b557fe5b9060005260206000200160009055828060010193505050614f0c565b8160148190555050505b5050565b60145481565b600260009054906101000a900473ffffffffffffffffffffffffffffffffffffffff1673ffffffffffffffffffffffffffffffffffffffff163373ffffffffffffffffffffffffffffffffffffffff16146151a8576040517f08c379a000000000000000000000000000000000000000000000000000000000815260040180806020018281038252601e8152602001807f42617365506f736974696f6e4d616e616765723a20666f7262696464656e000081525060200191505060405180910390fd5b80600960006101000a81548173ffffffffffffffffffffffffffffffffffffffff021916908373ffffffffffffffffffffffffffffffffffffffff1602179055507f828abcccea18192c21d645e575652c49e20b986dab777906fc473d056b01b6a881604051808273ffffffffffffffffffffffffffffffffffffffff16815260200191505060405180910390a150565b60105481565b600160009054906101000a900473ffffffffffffffffffffffffffffffffffffffff1673ffffffffffffffffffffffffffffffffffffffff163373ffffffffffffffffffffffffffffffffffffffff1614615302576040517f08c379a00000000000000000000000000000000000000000000000000000000081526004018080602001828103825260158152602001807f476f7665726e61626c653a20666f7262696464656e000000000000000000000081525060200191505060405180910390fd5b80600160006101000a81548173ffffffffffffffffffffffffffffffffffffffff021916908373ffffffffffffffffffffffffffffffffffffffff16021790555050565b600160009054906101000a900473ffffffffffffffffffffffffffffffffffffffff1673ffffffffffffffffffffffffffffffffffffffff163373ffffffffffffffffffffffffffffffffffffffff1614615409576040517f08c379a00000000000000000000000000000000000000000000000000000000081526004018080602001828103825260158152602001807f476f7665726e61626c653a20666f7262696464656e000000000000000000000081525060200191505060405180910390fd5b8273ffffffffffffffffffffffffffffffffffffffff1663095ea7b383836040518363ffffffff1660e01b8152600401808373ffffffffffffffffffffffffffffffffffffffff16815260200182815260200192505050602060405180830381600087803b15801561547a57600080fd5b505af115801561548e573d6000803e3d6000fd5b505050506040513d60208110156154a457600080fd5b810190808051906020019092919050505050505050565b600260009054906101000a900473ffffffffffffffffffffffffffffffffffffffff1673ffffffffffffffffffffffffffffffffffffffff163373ffffffffffffffffffffffffffffffffffffffff161461557e576040517f08c379a000000000000000000000000000000000000000000000000000000000815260040180806020018281038252601e8152602001807f42617365506f736974696f6e4d616e616765723a20666f7262696464656e000081525060200191505060405180910390fd5b60005b835181101561565e57600084828151811061559857fe5b602002602001015190508382815181106155ae57fe5b6020026020010151600b60008373ffffffffffffffffffffffffffffffffffffffff1673ffffffffffffffffffffffffffffffffffffffff1681526020019081526020016000208190555082828151811061560557fe5b6020026020010151600c60008373ffffffffffffffffffffffffffffffffffffffff1673ffffffffffffffffffffffffffffffffffffffff16815260200190815260200160002081905550508080600101915050615581565b507fae32d569b058895b9620d6552b09aaffedc9a6f396be4d595a224ad09f8b213983838360405180806020018060200180602001848103845287818151815260200191508051906020019060200280838360005b838110156156ce5780820151818401526020810190506156b3565b50505050905001848103835286818151815260200191508051906020019060200280838360005b838110156157105780820151818401526020810190506156f5565b50505050905001848103825285818151815260200191508051906020019060200280838360005b83811015615752578082015181840152602081019050615737565b50505050905001965050505050505060405180910390a1505050565b600260009054906101000a900473ffffffffffffffffffffffffffffffffffffffff1673ffffffffffffffffffffffffffffffffffffffff163373ffffffffffffffffffffffffffffffffffffffff1614615831576040517f08c379a000000000000000000000000000000000000000000000000000000000815260040180806020018281038252601e8152602001807f42617365506f736974696f6e4d616e616765723a20666f7262696464656e000081525060200191505060405180910390fd5b6000600a60008473ffffffffffffffffffffffffffffffffffffffff1673ffffffffffffffffffffffffffffffffffffffff16815260200190815260200160002054905060008114156158845750615969565b6000600a60008573ffffffffffffffffffffffffffffffffffffffff1673ffffffffffffffffffffffffffffffffffffffff168152602001908152602001600020819055506158f482828573ffffffffffffffffffffffffffffffffffffffff16616b0b9092919063ffffffff16565b7f4f1b51dd7a2fcb861aa2670f668be66835c4ee12b4bbbf037e4d0018f39819e4838383604051808473ffffffffffffffffffffffffffffffffffffffff1681526020018373ffffffffffffffffffffffffffffffffffffffff168152602001828152602001935050505060405180910390a1505b5050565b6000600260005414156159e8576040517f08c379a000000000000000000000000000000000000000000000000000000000815260040180806020018281038252601f8152602001807f5265656e7472616e637947756172643a207265656e7472616e742063616c6c0081525060200191505060405180910390fd5b6002600081905550600d54841015615a68576040517f08c379a00000000000000000000000000000000000000000000000000000000081526004018080602001828103825260038152602001807f666565000000000000000000000000000000000000000000000000000000000081525060200191505060405180910390fd5b833414615add576040517f08c379a00000000000000000000000000000000000000000000000000000000081526004018080602001828103825260038152602001807f76616c000000000000000000000000000000000000000000000000000000000081525060200191505060405180910390fd5b60018b511480615aee575060028b51145b615b60576040517f08c379a00000000000000000000000000000000000000000000000000000000081526004018080602001828103825260038152602001807f6c656e000000000000000000000000000000000000000000000000000000000081525060200191505060405180910390fd5b615b6861797e565b615b7183617a0c565b6000891115615c7657600560009054906101000a900473ffffffffffffffffffffffffffffffffffffffff1673ffffffffffffffffffffffffffffffffffffffff16631b8278788c600081518110615bc557fe5b602002602001015133308d6040518563ffffffff1660e01b8152600401808573ffffffffffffffffffffffffffffffffffffffff1681526020018473ffffffffffffffffffffffffffffffffffffffff1681526020018373ffffffffffffffffffffffffffffffffffffffff168152602001828152602001945050505050600060405180830381600087803b158015615c5d57600080fd5b505af1158015615c71573d6000803e3d6000fd5b505050505b615c8a338c8c8c8c8c8c8c8c60008c617b22565b905060016000819055509a9950505050505050505050565b600080600080601454601280549050601554601380549050935093509350935090919293565b601760003373ffffffffffffffffffffffffffffffffffffffff1673ffffffffffffffffffffffffffffffffffffffff16815260200190815260200160002060009054906101000a900460ff16615d87576040517f08c379a00000000000000000000000000000000000000000000000000000000081526004018080602001828103825260038152602001807f343033000000000000000000000000000000000000000000000000000000000081525060200191505060405180910390fd5b6000601554905060006013805490509050808210615da6575050615f82565b80841115615db2578093505b5b83821015615f7857600060138381548110615dca57fe5b906000526020600020015490503073ffffffffffffffffffffffffffffffffffffffff16630d4d003d82866040518363ffffffff1660e01b8152600401808381526020018273ffffffffffffffffffffffffffffffffffffffff16815260200192505050602060405180830381600087803b158015615e4857600080fd5b505af1925050508015615e7c57506040513d6020811015615e6857600080fd5b810190808051906020019092919050505060015b615f41573073ffffffffffffffffffffffffffffffffffffffff166360a362e282866040518363ffffffff1660e01b8152600401808381526020018273ffffffffffffffffffffffffffffffffffffffff16815260200192505050602060405180830381600087803b158015615ef157600080fd5b505af1925050508015615f2557506040513d6020811015615f1157600080fd5b810190808051906020019092919050505060015b615f2e57615f3c565b80615f3a575050615f78565b505b615f4f565b80615f4d575050615f78565b505b60138381548110615f5c57fe5b9060005260206000200160009055828060010193505050615db3565b8160158190555050505b5050565b600260009054906101000a900473ffffffffffffffffffffffffffffffffffffffff1681565b600560009054906101000a900473ffffffffffffffffffffffffffffffffffffffff1681565b601a6020528060005260406000206000915090505481565b60196020528060005260406000206000915090508060000160009054906101000a900473ffffffffffffffffffffffffffffffffffffffff16908060020160009054906101000a900473ffffffffffffffffffffffffffffffffffffffff16908060030154908060040154908060050154908060060160009054906101000a900460ff169080600701549080600801549080600901549080600a01549080600b0160009054906101000a900460ff169080600b0160019054906101000a900473ffffffffffffffffffffffffffffffffffffffff1690508c565b600360009054906101000a900473ffffffffffffffffffffffffffffffffffffffff1681565b600260009054906101000a900473ffffffffffffffffffffffffffffffffffffffff1673ffffffffffffffffffffffffffffffffffffffff163373ffffffffffffffffffffffffffffffffffffffff16146161ad576040517f08c379a000000000000000000000000000000000000000000000000000000000815260040180806020018281038252601e8152602001807f42617365506f736974696f6e4d616e616765723a20666f7262696464656e000081525060200191505060405180910390fd5b80600d819055507f52a8358457e20bbb36e4086b83fb0749599f1893fe4c35a876c46dc4886d12db816040518082815260200191505060405180910390a150565b60004261620660105485617f3b90919063ffffffff16565b11616279576040517f08c379a00000000000000000000000000000000000000000000000000000000081526004018080602001828103825260078152602001807f657870697265640000000000000000000000000000000000000000000000000081525060200191505060405180910390fd5b60003073ffffffffffffffffffffffffffffffffffffffff163373ffffffffffffffffffffffffffffffffffffffff1614806162fe5750601760003373ffffffffffffffffffffffffffffffffffffffff1673ffffffffffffffffffffffffffffffffffffffff16815260200190815260200160002060009054906101000a900460ff165b9050601160009054906101000a900460ff1615801561631b575080155b1561638e576040517f08c379a00000000000000000000000000000000000000000000000000000000081526004018080602001828103825260038152602001807f343033000000000000000000000000000000000000000000000000000000000081525060200191505060405180910390fd5b80156163b457436163aa600e5487617f3b90919063ffffffff16565b11159150506164e5565b8273ffffffffffffffffffffffffffffffffffffffff163373ffffffffffffffffffffffffffffffffffffffff1614616455576040517f08c379a00000000000000000000000000000000000000000000000000000000081526004018080602001828103825260038152602001807f343033000000000000000000000000000000000000000000000000000000000081525060200191505060405180910390fd5b4261646b600f5486617f3b90919063ffffffff16565b11156164df576040517f08c379a00000000000000000000000000000000000000000000000000000000081526004018080602001828103825260058152602001807f64656c617900000000000000000000000000000000000000000000000000000081525060200191505060405180910390fd5b60019150505b9392505050565b600080600360009054906101000a900473ffffffffffffffffffffffffffffffffffffffff1690506000856165c2578173ffffffffffffffffffffffffffffffffffffffff1663e124e6d28a6040518263ffffffff1660e01b8152600401808273ffffffffffffffffffffffffffffffffffffffff16815260200191505060206040518083038186803b15801561658257600080fd5b505afa158015616596573d6000803e3d6000fd5b505050506040513d60208110156165ac57600080fd5b8101908080519060200190929190505050616665565b8173ffffffffffffffffffffffffffffffffffffffff166381a612d68a6040518263ffffffff1660e01b8152600401808273ffffffffffffffffffffffffffffffffffffffff16815260200191505060206040518083038186803b15801561662957600080fd5b505afa15801561663d573d6000803e3d6000fd5b505050506040513d602081101561665357600080fd5b81019080805190602001909291905050505b905085156166cb57838110156166c6576040517f08c379a0000000000000000000000000000000000000000000000000000000008152600401808060200182810382526030815260200180619a4c6030913960400191505060405180910390fd5b616725565b83811115616724576040517f08c379a0000000000000000000000000000000000000000000000000000000008152600401808060200182810382526031815260200180619acc6031913960400191505060405180910390fd5b5b60008273ffffffffffffffffffffffffffffffffffffffff166312d43a516040518163ffffffff1660e01b815260040160206040518083038186803b15801561676d57600080fd5b505afa158015616781573d6000803e3d6000fd5b505050506040513d602081101561679757600080fd5b81019080805190602001909291905050509050600460009054906101000a900473ffffffffffffffffffffffffffffffffffffffff1673ffffffffffffffffffffffffffffffffffffffff1663f3238cec8d8d8d8b8d8860006040518863ffffffff1660e01b8152600401808873ffffffffffffffffffffffffffffffffffffffff1681526020018773ffffffffffffffffffffffffffffffffffffffff1681526020018673ffffffffffffffffffffffffffffffffffffffff16815260200185151581526020018481526020018381526020018215158152602001975050505050505050600060405180830381600087803b15801561689657600080fd5b505af11580156168aa573d6000803e3d6000fd5b505050508073ffffffffffffffffffffffffffffffffffffffff16636d63c1d0846040518263ffffffff1660e01b8152600401808273ffffffffffffffffffffffffffffffffffffffff168152602001915050600060405180830381600087803b15801561691757600080fd5b505af115801561692b573d6000803e3d6000fd5b505050506000600560009054906101000a900473ffffffffffffffffffffffffffffffffffffffff1673ffffffffffffffffffffffffffffffffffffffff16632662166b8e8e8e8e8e8e8e6040518863ffffffff1660e01b8152600401808873ffffffffffffffffffffffffffffffffffffffff1681526020018773ffffffffffffffffffffffffffffffffffffffff1681526020018673ffffffffffffffffffffffffffffffffffffffff16815260200185815260200184815260200183151581526020018273ffffffffffffffffffffffffffffffffffffffff168152602001975050505050505050602060405180830381600087803b158015616a3057600080fd5b505af1158015616a44573d6000803e3d6000fd5b505050506040513d6020811015616a5a57600080fd5b810190808051906020019092919050505090508173ffffffffffffffffffffffffffffffffffffffff1663d3c87bbb856040518263ffffffff1660e01b8152600401808273ffffffffffffffffffffffffffffffffffffffff168152602001915050600060405180830381600087803b158015616ad657600080fd5b505af1158015616aea573d6000803e3d6000fd5b50505050616af88d8a617fc3565b8094505050505098975050505050505050565b616ba88363a9059cbb60e01b8484604051602401808373ffffffffffffffffffffffffffffffffffffffff16815260200182815260200192505050604051602081830303815290604052907bffffffffffffffffffffffffffffffffffffffffffffffffffffffff19166020820180517bffffffffffffffffffffffffffffffffffffffffffffffffffffffff8381831617835250505050618217565b505050565b6000600284511415616bf457616bed84600081518110616bc957fe5b602002602001015185600181518110616bde57fe5b60200260200101518585618306565b9050616c45565b6040517f08c379a0000000000000000000000000000000000000000000000000000000008152600401808060200182810382526029815260200180619afd6029913960400191505060405180910390fd5b9392505050565b600660009054906101000a900473ffffffffffffffffffffffffffffffffffffffff1673ffffffffffffffffffffffffffffffffffffffff16632e1a7d4d836040518263ffffffff1660e01b815260040180828152602001915050600060405180830381600087803b158015616cc157600080fd5b505af1158015616cd5573d6000803e3d6000fd5b505050508073ffffffffffffffffffffffffffffffffffffffff166108fc839081150290604051600060405180830381858888f19350505050505050565b6000616d5583836040518060400160405280601e81526020017f536166654d6174683a207375627472616374696f6e206f766572666c6f770000815250618472565b905092915050565b600073ffffffffffffffffffffffffffffffffffffffff168473ffffffffffffffffffffffffffffffffffffffff161415616d9757616eb9565b616db68473ffffffffffffffffffffffffffffffffffffffff16618532565b616dbf57616eb9565b600060165490506000811415616dd55750616eb9565b60008573ffffffffffffffffffffffffffffffffffffffff1663edf3daec838787876040518563ffffffff1660e01b815260040180848152602001831515815260200182151581526020019350505050600060405180830381600088803b158015616e3f57600080fd5b5087f193505050508015616e51575060015b616e5a57616e5f565b600190505b7f46ddbd62fc1a7626fe9c43026cb0694aec0b031fe81ac66fb4cfe9381dc6fe728682604051808373ffffffffffffffffffffffffffffffffffffffff16815260200182151581526020019250505060405180910390a150505b50505050565b6000803073ffffffffffffffffffffffffffffffffffffffff163373ffffffffffffffffffffffffffffffffffffffff161480616f455750601760003373ffffffffffffffffffffffffffffffffffffffff1673ffffffffffffffffffffffffffffffffffffffff16815260200190815260200160002060009054906101000a900460ff165b9050601160009054906101000a900460ff16158015616f62575080155b15616fd5576040517f08c379a00000000000000000000000000000000000000000000000000000000081526004018080602001828103825260038152602001807f343033000000000000000000000000000000000000000000000000000000000081525060200191505060405180910390fd5b8015616ffb5743616ff1600e5487617f3b90919063ffffffff16565b111591505061712c565b8273ffffffffffffffffffffffffffffffffffffffff163373ffffffffffffffffffffffffffffffffffffffff161461709c576040517f08c379a00000000000000000000000000000000000000000000000000000000081526004018080602001828103825260038152602001807f343033000000000000000000000000000000000000000000000000000000000081525060200191505060405180910390fd5b426170b2600f5486617f3b90919063ffffffff16565b1115617126576040517f08c379a00000000000000000000000000000000000000000000000000000000081526004018080602001828103825260058152602001807f64656c617900000000000000000000000000000000000000000000000000000081525060200191505060405180910390fd5b60019150505b9392505050565b804710156171a9576040517f08c379a000000000000000000000000000000000000000000000000000000000815260040180806020018281038252601d8152602001807f416464726573733a20696e73756666696369656e742062616c616e636500000081525060200191505060405180910390fd5b60008273ffffffffffffffffffffffffffffffffffffffff168260405180600001905060006040518083038185875af1925050503d8060008114617209576040519150601f19603f3d011682016040523d82523d6000602084013e61720e565b606091505b5050905080617268576040517f08c379a000000000000000000000000000000000000000000000000000000000815260040180806020018281038252603a8152602001806199ec603a913960400191505060405180910390fd5b505050565b60008061727e888888888888618545565b9050801561739b5760006172c56127106172b76172a8600754612710616d1390919063ffffffff16565b8a61884c90919063ffffffff16565b6188d290919063ffffffff16565b905060006172dc8289616d1390919063ffffffff16565b905060008960018b5103815181106172f057fe5b6020026020010151905061734c82600a60008473ffffffffffffffffffffffffffffffffffffffff1673ffffffffffffffffffffffffffffffffffffffff16815260200190815260200160002054617f3b90919063ffffffff16565b600a60008373ffffffffffffffffffffffffffffffffffffffff1673ffffffffffffffffffffffffffffffffffffffff16815260200190815260200160002081905550829450505050506173a0565b859150505b9695505050505050565b6000600360009054906101000a900473ffffffffffffffffffffffffffffffffffffffff16905060008361747f578173ffffffffffffffffffffffffffffffffffffffff166381a612d6876040518263ffffffff1660e01b8152600401808273ffffffffffffffffffffffffffffffffffffffff16815260200191505060206040518083038186803b15801561743f57600080fd5b505afa158015617453573d6000803e3d6000fd5b505050506040513d602081101561746957600080fd5b8101908080519060200190929190505050617522565b8173ffffffffffffffffffffffffffffffffffffffff1663e124e6d2876040518263ffffffff1660e01b8152600401808273ffffffffffffffffffffffffffffffffffffffff16815260200191505060206040518083038186803b1580156174e657600080fd5b505afa1580156174fa573d6000803e3d6000fd5b505050506040513d602081101561751057600080fd5b81019080805190602001909291905050505b905083156175885782811115617583576040517f08c379a0000000000000000000000000000000000000000000000000000000008152600401808060200182810382526031815260200180619acc6031913960400191505060405180910390fd5b6175e2565b828110156175e1576040517f08c379a0000000000000000000000000000000000000000000000000000000008152600401808060200182810382526030815260200180619a4c6030913960400191505060405180910390fd5b5b6175ed86858761891c565b60008273ffffffffffffffffffffffffffffffffffffffff166312d43a516040518163ffffffff1660e01b815260040160206040518083038186803b15801561763557600080fd5b505afa158015617649573d6000803e3d6000fd5b505050506040513d602081101561765f57600080fd5b81019080805190602001909291905050509050600460009054906101000a900473ffffffffffffffffffffffffffffffffffffffff1673ffffffffffffffffffffffffffffffffffffffff1663f3238cec8a8a8a898b8860016040518863ffffffff1660e01b8152600401808873ffffffffffffffffffffffffffffffffffffffff1681526020018773ffffffffffffffffffffffffffffffffffffffff1681526020018673ffffffffffffffffffffffffffffffffffffffff16815260200185151581526020018481526020018381526020018215158152602001975050505050505050600060405180830381600087803b15801561775e57600080fd5b505af1158015617772573d6000803e3d6000fd5b505050508073ffffffffffffffffffffffffffffffffffffffff16636d63c1d0846040518263ffffffff1660e01b8152600401808273ffffffffffffffffffffffffffffffffffffffff168152602001915050600060405180830381600087803b1580156177df57600080fd5b505af11580156177f3573d6000803e3d6000fd5b50505050600560009054906101000a900473ffffffffffffffffffffffffffffffffffffffff1673ffffffffffffffffffffffffffffffffffffffff16631f1dd1768a8a8a8a8a6040518663ffffffff1660e01b8152600401808673ffffffffffffffffffffffffffffffffffffffff1681526020018573ffffffffffffffffffffffffffffffffffffffff1681526020018473ffffffffffffffffffffffffffffffffffffffff168152602001838152602001821515815260200195505050505050600060405180830381600087803b1580156178d057600080fd5b505af11580156178e4573d6000803e3d6000fd5b505050508073ffffffffffffffffffffffffffffffffffffffff1663d3c87bbb846040518263ffffffff1660e01b8152600401808273ffffffffffffffffffffffffffffffffffffffff168152602001915050600060405180830381600087803b15801561795157600080fd5b505af1158015617965573d6000803e3d6000fd5b505050506179738987618c3a565b505050505050505050565b60003414617a0a57600660009054906101000a900473ffffffffffffffffffffffffffffffffffffffff1673ffffffffffffffffffffffffffffffffffffffff1663d0e30db0346040518263ffffffff1660e01b81526004016000604051808303818588803b1580156179f057600080fd5b505af1158015617a04573d6000803e3d6000fd5b50505050505b565b6000801b8114158015617a6e5750600073ffffffffffffffffffffffffffffffffffffffff16600960009054906101000a900473ffffffffffffffffffffffffffffffffffffffff1673ffffffffffffffffffffffffffffffffffffffff1614155b15617b1f57600960009054906101000a900473ffffffffffffffffffffffffffffffffffffffff1673ffffffffffffffffffffffffffffffffffffffff166356b4b2ad33836040518363ffffffff1660e01b8152600401808373ffffffffffffffffffffffffffffffffffffffff16815260200182815260200192505050600060405180830381600087803b158015617b0657600080fd5b505af1158015617b1a573d6000803e3d6000fd5b505050505b50565b6000617b2c619802565b604051806101a001604052808e73ffffffffffffffffffffffffffffffffffffffff1681526020018d81526020018c73ffffffffffffffffffffffffffffffffffffffff1681526020018b81526020018a8152602001898152602001881515815260200187815260200186815260200143815260200142815260200185151581526020018473ffffffffffffffffffffffffffffffffffffffff168152509050600080617bd883618e7b565b915091508e73ffffffffffffffffffffffffffffffffffffffff167f5265bc4952da402633b3fc35f67ab4245493a0ab94dd8ab123667c8d45a4485c8f8f8f8f8f8f8f8f8b60016012805490500343423a60405180806020018e73ffffffffffffffffffffffffffffffffffffffff1681526020018d81526020018c81526020018b81526020018a1515815260200189815260200188815260200187815260200186815260200185815260200184815260200183815260200182810382528f818151815260200191508051906020019060200280838360005b83811015617ccc578082015181840152602081019050617cb1565b505050509050019e50505050505050505050505050505060405180910390a28093505050509b9a5050505050505050505050565b6000617d0a619716565b604051806101c001604052808f73ffffffffffffffffffffffffffffffffffffffff1681526020018e81526020018d73ffffffffffffffffffffffffffffffffffffffff1681526020018c81526020018b81526020018a151581526020018973ffffffffffffffffffffffffffffffffffffffff16815260200188815260200187815260200186815260200143815260200142815260200185151581526020018473ffffffffffffffffffffffffffffffffffffffff168152509050600080617dd2836190fb565b91509150826000015173ffffffffffffffffffffffffffffffffffffffff167f81ed0476a7e785a9e4728fffd679ea97176ca1ac85e1003462558bb5677da57b84602001518560400151866060015187608001518860a001518960c001518a60e001518b61010001518c61012001518c600160138054905003434260405180806020018e73ffffffffffffffffffffffffffffffffffffffff1681526020018d81526020018c81526020018b151581526020018a73ffffffffffffffffffffffffffffffffffffffff16815260200189815260200188815260200187815260200186815260200185815260200184815260200183815260200182810382528f818151815260200191508051906020019060200280838360005b83811015617f06578082015181840152602081019050617eeb565b505050509050019e50505050505050505050505050505060405180910390a28093505050509c9b505050505050505050505050565b600080828401905083811015617fb9576040517f08c379a000000000000000000000000000000000000000000000000000000000815260040180806020018281038252601b8152602001807f536166654d6174683a206164646974696f6e206f766572666c6f77000000000081525060200191505060405180910390fd5b8091505092915050565b6000600960009054906101000a900473ffffffffffffffffffffffffffffffffffffffff169050600073ffffffffffffffffffffffffffffffffffffffff168173ffffffffffffffffffffffffffffffffffffffff1614156180255750618213565b6000808273ffffffffffffffffffffffffffffffffffffffff1663534ef883866040518263ffffffff1660e01b8152600401808273ffffffffffffffffffffffffffffffffffffffff168152602001915050604080518083038186803b15801561808e57600080fd5b505afa1580156180a2573d6000803e3d6000fd5b505050506040513d60408110156180b857600080fd5b810190808051906020019092919080519060200190929190505050915091506000801b8214156180ea57505050618213565b7f474c763ff84bf2c2039a6d9fea955ecd0f724030e3c365b91169c6a16fe751b78585600360009054906101000a900473ffffffffffffffffffffffffffffffffffffffff1673ffffffffffffffffffffffffffffffffffffffff1663318bc6896040518163ffffffff1660e01b815260040160206040518083038186803b15801561817557600080fd5b505afa158015618189573d6000803e3d6000fd5b505050506040513d602081101561819f57600080fd5b81019080805190602001909291905050508585604051808673ffffffffffffffffffffffffffffffffffffffff1681526020018581526020018481526020018381526020018273ffffffffffffffffffffffffffffffffffffffff1681526020019550505050505060405180910390a15050505b5050565b6060618279826040518060400160405280602081526020017f5361666545524332303a206c6f772d6c6576656c2063616c6c206661696c65648152508573ffffffffffffffffffffffffffffffffffffffff166193c39092919063ffffffff16565b90506000815111156183015780806020019051602081101561829a57600080fd5b8101908080519060200190929190505050618300576040517f08c379a000000000000000000000000000000000000000000000000000000000815260040180806020018281038252602a815260200180619b49602a913960400191505060405180910390fd5b5b505050565b600080600360009054906101000a900473ffffffffffffffffffffffffffffffffffffffff1673ffffffffffffffffffffffffffffffffffffffff1663933162128787866040518463ffffffff1660e01b8152600401808473ffffffffffffffffffffffffffffffffffffffff1681526020018373ffffffffffffffffffffffffffffffffffffffff1681526020018273ffffffffffffffffffffffffffffffffffffffff1681526020019350505050602060405180830381600087803b1580156183d057600080fd5b505af11580156183e4573d6000803e3d6000fd5b505050506040513d60208110156183fa57600080fd5b8101908080519060200190929190505050905083811015618466576040517f08c379a000000000000000000000000000000000000000000000000000000000815260040180806020018281038252602b8152602001806199c1602b913960400191505060405180910390fd5b80915050949350505050565b600083831115829061851f576040517f08c379a00000000000000000000000000000000000000000000000000000000081526004018080602001828103825283818151815260200191508051906020019080838360005b838110156184e45780820151818401526020810190506184c9565b50505050905090810190601f1680156185115780820380516001836020036101000a031916815260200191505b509250505060405180910390fd5b5060008385039050809150509392505050565b600080823b905060008111915050919050565b6000826185555760009050618842565b60008214156185675760019050618842565b60008660018851038151811061857957fe5b602002602001015190506000600360009054906101000a900473ffffffffffffffffffffffffffffffffffffffff1690506000808273ffffffffffffffffffffffffffffffffffffffff16634a3f088d8c868b8b6040518563ffffffff1660e01b8152600401808573ffffffffffffffffffffffffffffffffffffffff1681526020018473ffffffffffffffffffffffffffffffffffffffff1681526020018373ffffffffffffffffffffffffffffffffffffffff16815260200182151581526020019450505050506101006040518083038186803b15801561865b57600080fd5b505afa15801561866f573d6000803e3d6000fd5b505050506040513d61010081101561868657600080fd5b8101908080519060200190929190805190602001909291908051906020019092919080519060200190929190805190602001909291908051906020019092919080519060200190929190805190602001909291905050505050505050509150915060008214156186fd576000945050505050618842565b60006187128784617f3b90919063ffffffff16565b905060008473ffffffffffffffffffffffffffffffffffffffff16630a48d5a9878d6040518363ffffffff1660e01b8152600401808373ffffffffffffffffffffffffffffffffffffffff1681526020018281526020019250505060206040518083038186803b15801561878557600080fd5b505afa158015618799573d6000803e3d6000fd5b505050506040513d60208110156187af57600080fd5b8101908080519060200190929190505050905060006187d78285617f3b90919063ffffffff16565b90506000618802856187f46127108961884c90919063ffffffff16565b6188d290919063ffffffff16565b9050600061883183618823600854612710018861884c90919063ffffffff16565b6188d290919063ffffffff16565b905081811099505050505050505050505b9695505050505050565b60008083141561885f57600090506188cc565b600082840290508284828161887057fe5b04146188c7576040517f08c379a0000000000000000000000000000000000000000000000000000000008152600401808060200182810382526021815260200180619aab6021913960400191505060405180910390fd5b809150505b92915050565b600061891483836040518060400160405280601a81526020017f536166654d6174683a206469766973696f6e206279207a65726f0000000000008152506193db565b905092915050565b600081141561892a57618c35565b8115618ab4576000600b60008573ffffffffffffffffffffffffffffffffffffffff1673ffffffffffffffffffffffffffffffffffffffff168152602001908152602001600020549050600081118015618a58575080618a5683600360009054906101000a900473ffffffffffffffffffffffffffffffffffffffff1673ffffffffffffffffffffffffffffffffffffffff1663f07456ce886040518263ffffffff1660e01b8152600401808273ffffffffffffffffffffffffffffffffffffffff16815260200191505060206040518083038186803b158015618a0d57600080fd5b505afa158015618a21573d6000803e3d6000fd5b505050506040513d6020811015618a3757600080fd5b8101908080519060200190929190505050617f3b90919063ffffffff16565b115b15618aae576040517f08c379a000000000000000000000000000000000000000000000000000000000815260040180806020018281038252602e815260200180619993602e913960400191505060405180910390fd5b50618c34565b6000600c60008573ffffffffffffffffffffffffffffffffffffffff1673ffffffffffffffffffffffffffffffffffffffff168152602001908152602001600020549050600081118015618bdc575080618bda83600360009054906101000a900473ffffffffffffffffffffffffffffffffffffffff1673ffffffffffffffffffffffffffffffffffffffff16638a78daa8886040518263ffffffff1660e01b8152600401808273ffffffffffffffffffffffffffffffffffffffff16815260200191505060206040518083038186803b158015618b9157600080fd5b505afa158015618ba5573d6000803e3d6000fd5b505050506040513d6020811015618bbb57600080fd5b8101908080519060200190929190505050617f3b90919063ffffffff16565b115b15618c32576040517f08c379a000000000000000000000000000000000000000000000000000000000815260040180806020018281038252602f815260200180619a7c602f913960400191505060405180910390fd5b505b5b505050565b6000600960009054906101000a900473ffffffffffffffffffffffffffffffffffffffff169050600073ffffffffffffffffffffffffffffffffffffffff168173ffffffffffffffffffffffffffffffffffffffff161415618c9c5750618e77565b6000808273ffffffffffffffffffffffffffffffffffffffff1663534ef883866040518263ffffffff1660e01b8152600401808273ffffffffffffffffffffffffffffffffffffffff168152602001915050604080518083038186803b158015618d0557600080fd5b505afa158015618d19573d6000803e3d6000fd5b505050506040513d6040811015618d2f57600080fd5b810190808051906020019092919080519060200190929190505050915091507fc2414023ce7002ee98557d1e7be21e5559073336f2217ee5f9b2e50fd85f71ee8585600360009054906101000a900473ffffffffffffffffffffffffffffffffffffffff1673ffffffffffffffffffffffffffffffffffffffff1663318bc6896040518163ffffffff1660e01b815260040160206040518083038186803b158015618dd957600080fd5b505afa158015618ded573d6000803e3d6000fd5b505050506040513d6020811015618e0357600080fd5b81019080805190602001909291905050508585604051808673ffffffffffffffffffffffffffffffffffffffff1681526020018581526020018481526020018381526020018273ffffffffffffffffffffffffffffffffffffffff1681526020019550505050505060405180910390a15050505b5050565b6000806000836000015190506000618edc6001601860008573ffffffffffffffffffffffffffffffffffffffff1673ffffffffffffffffffffffffffffffffffffffff16815260200190815260200160002054617f3b90919063ffffffff16565b905080601860008473ffffffffffffffffffffffffffffffffffffffff1673ffffffffffffffffffffffffffffffffffffffff168152602001908152602001600020819055506000618f2e83836144a9565b9050856019600083815260200190815260200160002060008201518160000160006101000a81548173ffffffffffffffffffffffffffffffffffffffff021916908373ffffffffffffffffffffffffffffffffffffffff1602179055506020820151816001019080519060200190618fa79291906198b0565b5060408201518160020160006101000a81548173ffffffffffffffffffffffffffffffffffffffff021916908373ffffffffffffffffffffffffffffffffffffffff160217905550606082015181600301556080820151816004015560a0820151816005015560c08201518160060160006101000a81548160ff02191690831515021790555060e082015181600701556101008201518160080155610120820151816009015561014082015181600a015561016082015181600b0160006101000a81548160ff02191690831515021790555061018082015181600b0160016101000a81548173ffffffffffffffffffffffffffffffffffffffff021916908373ffffffffffffffffffffffffffffffffffffffff1602179055509050506012819080600181540180825580915050600190039060005260206000200160009091909190915055818194509450505050915091565b600080600083600001519050600061915c6001601a60008573ffffffffffffffffffffffffffffffffffffffff1673ffffffffffffffffffffffffffffffffffffffff16815260200190815260200160002054617f3b90919063ffffffff16565b905080601a60008473ffffffffffffffffffffffffffffffffffffffff1673ffffffffffffffffffffffffffffffffffffffff1681526020019081526020016000208190555060006191ae83836144a9565b905085601b600083815260200190815260200160002060008201518160000160006101000a81548173ffffffffffffffffffffffffffffffffffffffff021916908373ffffffffffffffffffffffffffffffffffffffff16021790555060208201518160010190805190602001906192279291906198b0565b5060408201518160020160006101000a81548173ffffffffffffffffffffffffffffffffffffffff021916908373ffffffffffffffffffffffffffffffffffffffff160217905550606082015181600301556080820151816004015560a08201518160050160006101000a81548160ff02191690831515021790555060c08201518160050160016101000a81548173ffffffffffffffffffffffffffffffffffffffff021916908373ffffffffffffffffffffffffffffffffffffffff16021790555060e0820151816006015561010082015181600701556101208201518160080155610140820151816009015561016082015181600a015561018082015181600b0160006101000a81548160ff0219169083151502179055506101a082015181600b0160016101000a81548173ffffffffffffffffffffffffffffffffffffffff021916908373ffffffffffffffffffffffffffffffffffffffff1602179055509050506013819080600181540180825580915050600190039060005260206000200160009091909190915055818194509450505050915091565b60606193d284846000856194a1565b90509392505050565b60008083118290619487576040517f08c379a00000000000000000000000000000000000000000000000000000000081526004018080602001828103825283818151815260200191508051906020019080838360005b8381101561944c578082015181840152602081019050619431565b50505050905090810190601f1680156194795780820380516001836020036101000a031916815260200191505b509250505060405180910390fd5b50600083858161949357fe5b049050809150509392505050565b6060824710156194fc576040517f08c379a0000000000000000000000000000000000000000000000000000000008152600401808060200182810382526026815260200180619a266026913960400191505060405180910390fd5b61950585618532565b619577576040517f08c379a000000000000000000000000000000000000000000000000000000000815260040180806020018281038252601d8152602001807f416464726573733a2063616c6c20746f206e6f6e2d636f6e747261637400000081525060200191505060405180910390fd5b600060608673ffffffffffffffffffffffffffffffffffffffff1685876040518082805190602001908083835b602083106195c757805182526020820191506020810190506020830392506195a4565b6001836020036101000a03801982511681845116808217855250505050505090500191505060006040518083038185875af1925050503d8060008114619629576040519150601f19603f3d011682016040523d82523d6000602084013e61962e565b606091505b509150915061963e82828661964a565b92505050949350505050565b6060831561965a5782905061970f565b60008351111561966d5782518084602001fd5b816040517f08c379a00000000000000000000000000000000000000000000000000000000081526004018080602001828103825283818151815260200191508051906020019080838360005b838110156196d45780820151818401526020810190506196b9565b50505050905090810190601f1680156197015780820380516001836020036101000a031916815260200191505b509250505060405180910390fd5b9392505050565b604051806101c00160405280600073ffffffffffffffffffffffffffffffffffffffff16815260200160608152602001600073ffffffffffffffffffffffffffffffffffffffff1681526020016000815260200160008152602001600015158152602001600073ffffffffffffffffffffffffffffffffffffffff1681526020016000815260200160008152602001600081526020016000815260200160008152602001600015158152602001600073ffffffffffffffffffffffffffffffffffffffff1681525090565b50805460008255906000526020600020908101906197ff919061993a565b50565b604051806101a00160405280600073ffffffffffffffffffffffffffffffffffffffff16815260200160608152602001600073ffffffffffffffffffffffffffffffffffffffff16815260200160008152602001600081526020016000815260200160001515815260200160008152602001600081526020016000815260200160008152602001600015158152602001600073ffffffffffffffffffffffffffffffffffffffff1681525090565b828054828255906000526020600020908101928215619929579160200282015b828111156199285782518260006101000a81548173ffffffffffffffffffffffffffffffffffffffff021916908373ffffffffffffffffffffffffffffffffffffffff160217905550916020019190600101906198d0565b5b5090506199369190619957565b5090565b5b8082111561995357600081600090555060010161993b565b5090565b5b8082111561998e57600081816101000a81549073ffffffffffffffffffffffffffffffffffffffff021916905550600101619958565b509056fe42617365506f736974696f6e4d616e616765723a206d617820676c6f62616c206c6f6e677320657863656564656442617365506f736974696f6e4d616e616765723a20696e73756666696369656e7420616d6f756e744f7574416464726573733a20756e61626c6520746f2073656e642076616c75652c20726563697069656e74206d61792068617665207265766572746564416464726573733a20696e73756666696369656e742062616c616e636520666f722063616c6c42617365506f736974696f6e4d616e616765723a206d61726b207072696365206c6f776572207468616e206c696d697442617365506f736974696f6e4d616e616765723a206d617820676c6f62616c2073686f727473206578636565646564536166654d6174683a206d756c7469706c69636174696f6e206f766572666c6f7742617365506f736974696f6e4d616e616765723a206d61726b20707269636520686967686572207468616e206c696d697442617365506f736974696f6e4d616e616765723a20696e76616c6964205f706174682e6c656e67746842617365506f736974696f6e4d616e616765723a20696e76616c69642073656e6465725361666545524332303a204552433230206f7065726174696f6e20646964206e6f742073756363656564a26469706673582212208a2cea9ea00a9e9e772841f7bfb68b5f897a0ff951ec16556e525c5f6d0ebb7264736f6c634300060c0033",
  "linkReferences": {},
  "deployedLinkReferences": {}
}