{
  "contractName": "AbstractPosition",
  "abi": [
    {
      "inputs": [
        {
          "internalType": "address",
          "name": "_gov",
          "type": "address"
        },
        {
          "internalType": "address",
          "name": "_wethAddress",
          "type": "address"
        },
        {
          "internalType": "address",
          "name": "_lendingContractAddress",
          "type": "address"
        },
        {
          "internalType": "address",
          "name": "_ownerAddress",
          "type": "address"
        },
        {
          "internalType": "address",
          "name": "_orderManagerAddress",
          "type": "address"
        },
        {
          "internalType": "address",
          "name": "_poolAddress",
          "type": "address"
        },
        {
          "internalType": "address",
          "name": "_levelOracleAddress",
          "type": "address"
        }
      ],
      "stateMutability": "nonpayable",
      "type": "constructor"
    },
    {
      "inputs": [],
      "name": "BASIS_POINTS_DIVISOR",
      "outputs": [
        {
          "internalType": "uint256",
          "name": "",
          "type": "uint256"
        }
      ],
      "stateMutability": "view",
      "type": "function"
    },
    {
      "inputs": [],
      "name": "L1",
      "outputs": [
        {
          "internalType": "uint256",
          "name": "",
          "type": "uint256"
        }
      ],
      "stateMutability": "view",
      "type": "function"
    },
    {
      "inputs": [],
      "name": "L2",
      "outputs": [
        {
          "internalType": "uint256",
          "name": "",
          "type": "uint256"
        }
      ],
      "stateMutability": "view",
      "type": "function"
    },
    {
      "inputs": [],
      "name": "MIN_DECREASE_HEALTH_FACTOR",
      "outputs": [
        {
          "internalType": "uint256",
          "name": "",
          "type": "uint256"
        }
      ],
      "stateMutability": "view",
      "type": "function"
    },
    {
      "inputs": [],
      "name": "MIN_HEALTH_FACTOR",
      "outputs": [
        {
          "internalType": "uint256",
          "name": "",
          "type": "uint256"
        }
      ],
      "stateMutability": "view",
      "type": "function"
    },
    {
      "inputs": [],
      "name": "PRECISION",
      "outputs": [
        {
          "internalType": "uint256",
          "name": "",
          "type": "uint256"
        }
      ],
      "stateMutability": "view",
      "type": "function"
    },
    {
      "inputs": [
        {
          "internalType": "uint256",
          "name": "",
          "type": "uint256"
        }
      ],
      "name": "existingPositionsData",
      "outputs": [
        {
          "internalType": "address",
          "name": "indexToken",
          "type": "address"
        },
        {
          "internalType": "address",
          "name": "collateralToken",
          "type": "address"
        },
        {
          "internalType": "enum Side",
          "name": "side",
          "type": "uint8"
        }
      ],
      "stateMutability": "view",
      "type": "function"
    },
    {
      "inputs": [],
      "name": "gov",
      "outputs": [
        {
          "internalType": "address",
          "name": "",
          "type": "address"
        }
      ],
      "stateMutability": "view",
      "type": "function"
    },
    {
      "inputs": [],
      "name": "lendingContractAddress",
      "outputs": [
        {
          "internalType": "address",
          "name": "",
          "type": "address"
        }
      ],
      "stateMutability": "view",
      "type": "function"
    },
    {
      "inputs": [],
      "name": "levelOracleAddress",
      "outputs": [
        {
          "internalType": "address",
          "name": "",
          "type": "address"
        }
      ],
      "stateMutability": "view",
      "type": "function"
    },
    {
      "inputs": [],
      "name": "minExecutionFee",
      "outputs": [
        {
          "internalType": "uint256",
          "name": "",
          "type": "uint256"
        }
      ],
      "stateMutability": "view",
      "type": "function"
    },
    {
      "inputs": [],
      "name": "orderManagerAddress",
      "outputs": [
        {
          "internalType": "address",
          "name": "",
          "type": "address"
        }
      ],
      "stateMutability": "view",
      "type": "function"
    },
    {
      "inputs": [],
      "name": "ownerAddress",
      "outputs": [
        {
          "internalType": "address",
          "name": "",
          "type": "address"
        }
      ],
      "stateMutability": "view",
      "type": "function"
    },
    {
      "inputs": [],
      "name": "poolAddress",
      "outputs": [
        {
          "internalType": "address",
          "name": "",
          "type": "address"
        }
      ],
      "stateMutability": "view",
      "type": "function"
    },
    {
      "inputs": [],
      "name": "wethAddress",
      "outputs": [
        {
          "internalType": "address",
          "name": "",
          "type": "address"
        }
      ],
      "stateMutability": "view",
      "type": "function"
    },
    {
      "inputs": [
        {
          "internalType": "address",
          "name": "_lendingContractAddress",
          "type": "address"
        }
      ],
      "name": "setLendingContractAddress",
      "outputs": [],
      "stateMutability": "nonpayable",
      "type": "function"
    },
    {
      "inputs": [
        {
          "internalType": "address",
          "name": "_orderManagerAddress",
          "type": "address"
        }
      ],
      "name": "setOrderManagerAddress",
      "outputs": [],
      "stateMutability": "nonpayable",
      "type": "function"
    },
    {
      "inputs": [
        {
          "internalType": "address",
          "name": "_poolAddress",
          "type": "address"
        }
      ],
      "name": "setLevelPoolAddress",
      "outputs": [],
      "stateMutability": "nonpayable",
      "type": "function"
    },
    {
      "inputs": [
        {
          "internalType": "address",
          "name": "_levelOracleAddress",
          "type": "address"
        }
      ],
      "name": "setLevelOracleAddress",
      "outputs": [],
      "stateMutability": "nonpayable",
      "type": "function"
    },
    {
      "inputs": [
        {
          "internalType": "address",
          "name": "_indexToken",
          "type": "address"
        },
        {
          "internalType": "address",
          "name": "_collateralToken",
          "type": "address"
        },
        {
          "internalType": "bool",
          "name": "_isLong",
          "type": "bool"
        }
      ],
      "name": "getPositionKey",
      "outputs": [
        {
          "internalType": "bytes32",
          "name": "",
          "type": "bytes32"
        }
      ],
      "stateMutability": "pure",
      "type": "function"
    },
    {
      "inputs": [],
      "name": "liquidatePortfolio",
      "outputs": [],
      "stateMutability": "nonpayable",
      "type": "function"
    },
    {
      "inputs": [
        {
          "internalType": "enum Side",
          "name": "_side",
          "type": "uint8"
        },
        {
          "internalType": "address",
          "name": "_indexToken",
          "type": "address"
        },
        {
          "internalType": "address",
          "name": "_collateralToken",
          "type": "address"
        },
        {
          "internalType": "uint256",
          "name": "price",
          "type": "uint256"
        },
        {
          "internalType": "address",
          "name": "payToken",
          "type": "address"
        },
        {
          "internalType": "uint256",
          "name": "purchaseAmount",
          "type": "uint256"
        },
        {
          "internalType": "uint256",
          "name": "sizeChange",
          "type": "uint256"
        },
        {
          "internalType": "uint256",
          "name": "_collateral",
          "type": "uint256"
        }
      ],
      "name": "callIncreasePlaceOrder",
      "outputs": [],
      "stateMutability": "payable",
      "type": "function"
    },
    {
      "inputs": [
        {
          "internalType": "enum Side",
          "name": "_side",
          "type": "uint8"
        },
        {
          "internalType": "address",
          "name": "_indexToken",
          "type": "address"
        },
        {
          "internalType": "address",
          "name": "_collateralToken",
          "type": "address"
        },
        {
          "internalType": "uint256",
          "name": "price",
          "type": "uint256"
        },
        {
          "internalType": "address",
          "name": "payToken",
          "type": "address"
        },
        {
          "internalType": "uint256",
          "name": "sizeChange",
          "type": "uint256"
        },
        {
          "internalType": "uint256",
          "name": "_collateral",
          "type": "uint256"
        }
      ],
      "name": "callDecreasePlaceOrder",
      "outputs": [],
      "stateMutability": "payable",
      "type": "function"
    },
    {
      "inputs": [
        {
          "internalType": "address",
          "name": "_indexToken",
          "type": "address"
        },
        {
          "internalType": "address",
          "name": "_collateralToken",
          "type": "address"
        },
        {
          "internalType": "enum Side",
          "name": "_side",
          "type": "uint8"
        }
      ],
      "name": "validateDecreasePosition",
      "outputs": [
        {
          "internalType": "bool",
          "name": "",
          "type": "bool"
        }
      ],
      "stateMutability": "view",
      "type": "function"
    },
    {
      "inputs": [
        {
          "internalType": "address",
          "name": "_indexToken",
          "type": "address"
        },
        {
          "internalType": "address",
          "name": "_collateralToken",
          "type": "address"
        },
        {
          "internalType": "enum Side",
          "name": "_side",
          "type": "uint8"
        }
      ],
      "name": "getPosition",
      "outputs": [
        {
          "components": [
            {
              "internalType": "uint256",
              "name": "size",
              "type": "uint256"
            },
            {
              "internalType": "uint256",
              "name": "collateralValue",
              "type": "uint256"
            },
            {
              "internalType": "uint256",
              "name": "reserveAmount",
              "type": "uint256"
            },
            {
              "internalType": "uint256",
              "name": "entryPrice",
              "type": "uint256"
            },
            {
              "internalType": "uint256",
              "name": "borrowIndex",
              "type": "uint256"
            }
          ],
          "internalType": "struct BnbPosition",
          "name": "",
          "type": "tuple"
        }
      ],
      "stateMutability": "view",
      "type": "function"
    },
    {
      "inputs": [
        {
          "internalType": "address",
          "name": "_indexToken",
          "type": "address"
        },
        {
          "internalType": "address",
          "name": "_collateralToken",
          "type": "address"
        },
        {
          "internalType": "enum Side",
          "name": "_side",
          "type": "uint8"
        }
      ],
      "name": "getPositionValue",
      "outputs": [
        {
          "internalType": "uint256",
          "name": "_positionValue",
          "type": "uint256"
        }
      ],
      "stateMutability": "view",
      "type": "function"
    },
    {
      "inputs": [
        {
          "internalType": "address",
          "name": "_indexToken",
          "type": "address"
        },
        {
          "internalType": "address",
          "name": "_collateralToken",
          "type": "address"
        },
        {
          "internalType": "enum Side",
          "name": "_side",
          "type": "uint8"
        }
      ],
      "name": "getPositionValueWithMargin",
      "outputs": [
        {
          "internalType": "uint256",
          "name": "_positionValue",
          "type": "uint256"
        }
      ],
      "stateMutability": "view",
      "type": "function"
    },
    {
      "inputs": [],
      "name": "getPortfolioValue",
      "outputs": [
        {
          "internalType": "uint256",
          "name": "",
          "type": "uint256"
        }
      ],
      "stateMutability": "view",
      "type": "function"
    },
    {
      "inputs": [],
      "name": "getPortfolioValueWithMargin",
      "outputs": [
        {
          "internalType": "uint256",
          "name": "",
          "type": "uint256"
        }
      ],
      "stateMutability": "view",
      "type": "function"
    },
    {
      "inputs": [],
      "name": "portfolioHealthFactor",
      "outputs": [
        {
          "internalType": "uint256",
          "name": "",
          "type": "uint256"
        }
      ],
      "stateMutability": "view",
      "type": "function"
    },
    {
      "inputs": [
        {
          "internalType": "address",
          "name": "_indexToken",
          "type": "address"
        },
        {
          "internalType": "enum Side",
          "name": "_side",
          "type": "uint8"
        },
        {
          "internalType": "uint256",
          "name": "_size",
          "type": "uint256"
        },
        {
          "internalType": "uint256",
          "name": "_averagePrice",
          "type": "uint256"
        }
      ],
      "name": "getDeltaWithMargin",
      "outputs": [
        {
          "internalType": "uint256",
          "name": "delta",
          "type": "uint256"
        },
        {
          "internalType": "bool",
          "name": "hasProfit",
          "type": "bool"
        }
      ],
      "stateMutability": "view",
      "type": "function"
    },
    {
      "inputs": [
        {
          "components": [
            {
              "internalType": "uint256",
              "name": "size",
              "type": "uint256"
            },
            {
              "internalType": "uint256",
              "name": "collateralValue",
              "type": "uint256"
            },
            {
              "internalType": "uint256",
              "name": "reserveAmount",
              "type": "uint256"
            },
            {
              "internalType": "uint256",
              "name": "entryPrice",
              "type": "uint256"
            },
            {
              "internalType": "uint256",
              "name": "borrowIndex",
              "type": "uint256"
            }
          ],
          "internalType": "struct BnbPosition",
          "name": "_position",
          "type": "tuple"
        },
        {
          "internalType": "address",
          "name": "_indexToken",
          "type": "address"
        },
        {
          "internalType": "uint256",
          "name": "_sizeChanged",
          "type": "uint256"
        }
      ],
      "name": "_getPositionFee",
      "outputs": [
        {
          "internalType": "uint256",
          "name": "_feeValue",
          "type": "uint256"
        }
      ],
      "stateMutability": "view",
      "type": "function"
    },
    {
      "inputs": [],
      "name": "getPositions",
      "outputs": [
        {
          "components": [
            {
              "internalType": "address",
              "name": "indexToken",
              "type": "address"
            },
            {
              "internalType": "address",
              "name": "collateralToken",
              "type": "address"
            },
            {
              "internalType": "enum Side",
              "name": "side",
              "type": "uint8"
            }
          ],
          "internalType": "struct BnbPositionData[]",
          "name": "",
          "type": "tuple[]"
        }
      ],
      "stateMutability": "view",
      "type": "function"
    },
    {
      "inputs": [
        {
          "internalType": "address",
          "name": "_owner",
          "type": "address"
        },
        {
          "internalType": "address",
          "name": "_indexToken",
          "type": "address"
        },
        {
          "internalType": "address",
          "name": "_collateralToken",
          "type": "address"
        },
        {
          "internalType": "enum Side",
          "name": "_side",
          "type": "uint8"
        }
      ],
      "name": "_getPositionKey",
      "outputs": [
        {
          "internalType": "bytes32",
          "name": "",
          "type": "bytes32"
        }
      ],
      "stateMutability": "pure",
      "type": "function"
    },
    {
      "inputs": [],
      "name": "deposit",
      "outputs": [],
      "stateMutability": "payable",
      "type": "function"
    }
  ],
  "bytecode": "0x60806040523480156200001157600080fd5b506040516200494a3803806200494a833981810160405281019062000037919062000221565b866000806101000a81548173ffffffffffffffffffffffffffffffffffffffff021916908373ffffffffffffffffffffffffffffffffffffffff16021790555083600660006101000a81548173ffffffffffffffffffffffffffffffffffffffff021916908373ffffffffffffffffffffffffffffffffffffffff16021790555085600160006101000a81548173ffffffffffffffffffffffffffffffffffffffff021916908373ffffffffffffffffffffffffffffffffffffffff16021790555084600260006101000a81548173ffffffffffffffffffffffffffffffffffffffff021916908373ffffffffffffffffffffffffffffffffffffffff16021790555082600360006101000a81548173ffffffffffffffffffffffffffffffffffffffff021916908373ffffffffffffffffffffffffffffffffffffffff16021790555081600460006101000a81548173ffffffffffffffffffffffffffffffffffffffff021916908373ffffffffffffffffffffffffffffffffffffffff16021790555080600560006101000a81548173ffffffffffffffffffffffffffffffffffffffff021916908373ffffffffffffffffffffffffffffffffffffffff160217905550505050505050506200031c565b6000815190506200021b8162000302565b92915050565b600080600080600080600060e0888a0312156200023d57600080fd5b60006200024d8a828b016200020a565b9750506020620002608a828b016200020a565b9650506040620002738a828b016200020a565b9550506060620002868a828b016200020a565b9450506080620002998a828b016200020a565b93505060a0620002ac8a828b016200020a565b92505060c0620002bf8a828b016200020a565b91505092959891949750929550565b6000620002db82620002e2565b9050919050565b600073ffffffffffffffffffffffffffffffffffffffff82169050919050565b6200030d81620002ce565b81146200031957600080fd5b50565b61461e806200032c6000396000f3fe6080604052600436106102045760003560e01c80636d76bca411610118578063bb0498de116100a0578063d0e30db01161006f578063d0e30db01461075a578063e6876f6e14610764578063e9f4454d1461078d578063fd5e2ef5146107cc578063ffb991b01461080957610204565b8063bb0498de1461068c578063bdaf8824146106b7578063cbe71500146106e0578063cd466db91461071d57610204565b806380275860116100e757806380275860146105a25780638a088740146105cd5780638f84aa091461060b578063aaf5eb6814610636578063b5627e421461066157610204565b80636d76bca4146104f6578063725ba052146105215780637379dbe61461054c5780637809baaf1461057757610204565b8063238e270a1161019b5780633fae6af61161016a5780633fae6af6146104215780634f0e0ef31461045e578063584edf10146104895780635da13df7146104a057806363ae2103146104cb57610204565b8063238e270a1461033f5780632cec198e1461037c57806339cf8916146103b95780633ba32df4146103f657610204565b806313f2d128116101d757806313f2d128146102a6578063157103f4146102cf5780631755ff21146102eb578063212f5f631461031657610204565b8063081752bb146102095780631154dbc214610234578063126082cf1461025057806312d43a511461027b575b600080fd5b34801561021557600080fd5b5061021e610834565b60405161022b9190613dda565b60405180910390f35b61024e600480360381019061024991906134b3565b610839565b005b34801561025c57600080fd5b50610265610bbd565b6040516102729190613dda565b60405180910390f35b34801561028757600080fd5b50610290610bc3565b60405161029d9190613a9d565b60405180910390f35b3480156102b257600080fd5b506102cd60048036038101906102c8919061325f565b610be7565b005b6102e960048036038101906102e49190613415565b610c33565b005b3480156102f757600080fd5b50610300610d5e565b60405161030d9190613a9d565b60405180910390f35b34801561032257600080fd5b5061033d6004803603810190610338919061325f565b610d84565b005b34801561034b57600080fd5b50610366600480360381019061036191906132eb565b610dd0565b6040516103739190613bfa565b60405180910390f35b34801561038857600080fd5b506103a3600480360381019061039e919061333a565b610e06565b6040516103b09190613dda565b60405180910390f35b3480156103c557600080fd5b506103e060048036038101906103db919061358e565b610ee4565b6040516103ed9190613dda565b60405180910390f35b34801561040257600080fd5b5061040b6110cf565b6040516104189190613dda565b60405180910390f35b34801561042d57600080fd5b506104486004803603810190610443919061333a565b6114cd565b6040516104559190613bdf565b60405180910390f35b34801561046a57600080fd5b50610473611631565b6040516104809190613a9d565b60405180910390f35b34801561049557600080fd5b5061049e611657565b005b3480156104ac57600080fd5b506104b5611c10565b6040516104c29190613a9d565b60405180910390f35b3480156104d757600080fd5b506104e0611c36565b6040516104ed9190613dda565b60405180910390f35b34801561050257600080fd5b5061050b611c3c565b6040516105189190613a9d565b60405180910390f35b34801561052d57600080fd5b50610536611c62565b6040516105439190613dda565b60405180910390f35b34801561055857600080fd5b50610561611c68565b60405161056e9190613a9d565b60405180910390f35b34801561058357600080fd5b5061058c611c8e565b6040516105999190613dda565b60405180910390f35b3480156105ae57600080fd5b506105b7611c93565b6040516105c49190613bbd565b60405180910390f35b3480156105d957600080fd5b506105f460048036038101906105ef9190613389565b611e25565b604051610602929190613eb7565b60405180910390f35b34801561061757600080fd5b506106206121ad565b60405161062d9190613a9d565b60405180910390f35b34801561064257600080fd5b5061064b6121d3565b6040516106589190613dda565b60405180910390f35b34801561066d57600080fd5b506106766121dc565b6040516106839190613dda565b60405180910390f35b34801561069857600080fd5b506106a16121e2565b6040516106ae9190613dda565b60405180910390f35b3480156106c357600080fd5b506106de60048036038101906106d9919061325f565b612367565b005b3480156106ec57600080fd5b506107076004803603810190610702919061333a565b6123b3565b6040516107149190613dda565b60405180910390f35b34801561072957600080fd5b50610744600480360381019061073f9190613288565b61244b565b6040516107519190613bfa565b60405180910390f35b610762612484565b005b34801561077057600080fd5b5061078b6004803603810190610786919061325f565b612486565b005b34801561079957600080fd5b506107b460048036038101906107af9190613606565b6124d2565b6040516107c393929190613afd565b60405180910390f35b3480156107d857600080fd5b506107f360048036038101906107ee919061333a565b612559565b6040516108009190613dbf565b60405180910390f35b34801561081557600080fd5b5061081e612657565b60405161082b9190613dda565b60405180910390f35b606481565b600660009054906101000a900473ffffffffffffffffffffffffffffffffffffffff1673ffffffffffffffffffffffffffffffffffffffff163373ffffffffffffffffffffffffffffffffffffffff16146108c9576040517f08c379a00000000000000000000000000000000000000000000000000000000081526004016108c090613d5f565b60405180910390fd5b6000806108d7888a8c612777565b73eeeeeeeeeeeeeeeeeeeeeeeeeeeeeeeeeeeeeeee73ffffffffffffffffffffffffffffffffffffffff168673ffffffffffffffffffffffffffffffffffffffff1614610adb578573ffffffffffffffffffffffffffffffffffffffff166323b872dd3330886040518463ffffffff1660e01b815260040161095b93929190613b34565b602060405180830381600087803b15801561097557600080fd5b505af1158015610989573d6000803e3d6000fd5b505050506040513d601f19601f820116820180604052508101906109ad91906133ec565b6109ec576040517f08c379a00000000000000000000000000000000000000000000000000000000081526004016109e390613cff565b60405180910390fd5b8573ffffffffffffffffffffffffffffffffffffffff1663095ea7b3600360009054906101000a900473ffffffffffffffffffffffffffffffffffffffff16876040518363ffffffff1660e01b8152600401610a49929190613b94565b602060405180830381600087803b158015610a6357600080fd5b505af1158015610a77573d6000803e3d6000fd5b505050506040513d601f19601f82011682018060405250810190610a9b91906133ec565b610ada576040517f08c379a0000000000000000000000000000000000000000000000000000000008152600401610ad190613d7f565b60405180910390fd5b5b6000878787878760405180602001604052806000815250604051602001610b0796959493929190613e4f565b6040516020818303038152906040529050600360009054906101000a900473ffffffffffffffffffffffffffffffffffffffff1673ffffffffffffffffffffffffffffffffffffffff16632f25f18334858e8e8e88886040518863ffffffff1660e01b8152600401610b7e96959493929190613c15565b6000604051808303818588803b158015610b9757600080fd5b505af1158015610bab573d6000803e3d6000fd5b50505050505050505050505050505050565b61271081565b60008054906101000a900473ffffffffffffffffffffffffffffffffffffffff1681565b610bef612a58565b80600260006101000a81548173ffffffffffffffffffffffffffffffffffffffff021916908373ffffffffffffffffffffffffffffffffffffffff16021790555050565b600660009054906101000a900473ffffffffffffffffffffffffffffffffffffffff1673ffffffffffffffffffffffffffffffffffffffff163373ffffffffffffffffffffffffffffffffffffffff1614610cc3576040517f08c379a0000000000000000000000000000000000000000000000000000000008152600401610cba90613d5f565b60405180910390fd5b610cce8686896114cd565b610d0d576040517f08c379a0000000000000000000000000000000000000000000000000000000008152600401610d0490613cdf565b60405180910390fd5b60008484848460405180602001604052806000815250604051602001610d37959493929190613df5565b6040516020818303038152906040529050610d5488888884612ae8565b5050505050505050565b600460009054906101000a900473ffffffffffffffffffffffffffffffffffffffff1681565b610d8c612a58565b80600460006101000a81548173ffffffffffffffffffffffffffffffffffffffff021916908373ffffffffffffffffffffffffffffffffffffffff16021790555050565b6000838383604051602001610de793929190613a60565b6040516020818303038152906040528051906020012090509392505050565b600080610e14858585612559565b90506000610e2782878460000151610ee4565b9050600080610e40888786600001518760600151611e25565b9150915080158015610e6757508360200151610e658484612b8790919063ffffffff16565b115b15610e79576000945050505050610edd565b80610eac57610ea783610e99848760200151612be590919063ffffffff16565b612be590919063ffffffff16565b610ed6565b610ed583610ec7848760200151612b8790919063ffffffff16565b612be590919063ffffffff16565b5b9450505050505b9392505050565b600080600460009054906101000a900473ffffffffffffffffffffffffffffffffffffffff1673ffffffffffffffffffffffffffffffffffffffff1663ddca3f436040518163ffffffff1660e01b815260040160e06040518083038186803b158015610f4f57600080fd5b505afa158015610f63573d6000803e3d6000fd5b505050506040513d601f19601f82011682018060405250810190610f8791906135dd565b90506000600460009054906101000a900473ffffffffffffffffffffffffffffffffffffffff1673ffffffffffffffffffffffffffffffffffffffff1663a9126169866040518263ffffffff1660e01b8152600401610fe69190613a9d565b60a06040518083038186803b158015610ffe57600080fd5b505afa158015611012573d6000803e3d6000fd5b505050506040513d601f19601f820116820180604052508101906110369190613565565b60600151905060006110826402540be40061107489600001516110668b6080015187612be590919063ffffffff16565b612c2f90919063ffffffff16565b612caa90919063ffffffff16565b905060006110b46402540be4006110a6866000015189612c2f90919063ffffffff16565b612caa90919063ffffffff16565b905080826110c29190613f76565b9450505050509392505050565b600080600090506000805b6009805490508110156113a457600061122260098381548110611126577f4e487b7100000000000000000000000000000000000000000000000000000000600052603260045260246000fd5b906000526020600020906002020160000160009054906101000a900473ffffffffffffffffffffffffffffffffffffffff1660098481548110611192577f4e487b7100000000000000000000000000000000000000000000000000000000600052603260045260246000fd5b906000526020600020906002020160010160009054906101000a900473ffffffffffffffffffffffffffffffffffffffff16600985815481106111fe577f4e487b7100000000000000000000000000000000000000000000000000000000600052603260045260246000fd5b906000526020600020906002020160010160149054906101000a900460ff166123b3565b90506112378185612b8790919063ffffffff16565b9350600061137460098481548110611278577f4e487b7100000000000000000000000000000000000000000000000000000000600052603260045260246000fd5b906000526020600020906002020160000160009054906101000a900473ffffffffffffffffffffffffffffffffffffffff16600985815481106112e4577f4e487b7100000000000000000000000000000000000000000000000000000000600052603260045260246000fd5b906000526020600020906002020160010160009054906101000a900473ffffffffffffffffffffffffffffffffffffffff1660098681548110611350577f4e487b7100000000000000000000000000000000000000000000000000000000600052603260045260246000fd5b906000526020600020906002020160010160149054906101000a900460ff16612559565b905061138d816000015185612b8790919063ffffffff16565b93505050808061139c906141b0565b9150506110da565b506000600260009054906101000a900473ffffffffffffffffffffffffffffffffffffffff1673ffffffffffffffffffffffffffffffffffffffff1663db1e4ff8600660009054906101000a900473ffffffffffffffffffffffffffffffffffffffff166040518263ffffffff1660e01b81526004016114249190613a9d565b60206040518083038186803b15801561143c57600080fd5b505afa158015611450573d6000803e3d6000fd5b505050506040513d601f19601f82011682018060405250810190611474919061362f565b90506114c2816114b46114a5612710611497606488612c2f90919063ffffffff16565b612caa90919063ffffffff16565b86612be590919063ffffffff16565b612be590919063ffffffff16565b925082935050505090565b600080600260009054906101000a900473ffffffffffffffffffffffffffffffffffffffff1673ffffffffffffffffffffffffffffffffffffffff1663d04f246b600660009054906101000a900473ffffffffffffffffffffffffffffffffffffffff166040518263ffffffff1660e01b815260040161154d9190613a9d565b60206040518083038186803b15801561156557600080fd5b505afa158015611579573d6000803e3d6000fd5b505050506040513d601f19601f8201168201806040525081019061159d919061362f565b905060008114156115b257600191505061162a565b60006115bc6110cf565b905060006115cb8787876123b3565b9050808210156115e1576000935050505061162a565b600061161c8461160e6127106116008688612be590919063ffffffff16565b612c2f90919063ffffffff16565b612caa90919063ffffffff16565b9050612af881119450505050505b9392505050565b600160009054906101000a900473ffffffffffffffffffffffffffffffffffffffff1681565b6000611661612657565b905061271081108015611675575060008114155b6116b4576040517f08c379a00000000000000000000000000000000000000000000000000000000081526004016116ab90613c9f565b60405180910390fd5b60005b600980549050811015611c0c5760006117ff60098381548110611703577f4e487b7100000000000000000000000000000000000000000000000000000000600052603260045260246000fd5b906000526020600020906002020160000160009054906101000a900473ffffffffffffffffffffffffffffffffffffffff166009848154811061176f577f4e487b7100000000000000000000000000000000000000000000000000000000600052603260045260246000fd5b906000526020600020906002020160010160009054906101000a900473ffffffffffffffffffffffffffffffffffffffff16600985815481106117db577f4e487b7100000000000000000000000000000000000000000000000000000000600052603260045260246000fd5b906000526020600020906002020160010160149054906101000a900460ff16612559565b90506000600560009054906101000a900473ffffffffffffffffffffffffffffffffffffffff1673ffffffffffffffffffffffffffffffffffffffff166376d697606009858154811061187b577f4e487b7100000000000000000000000000000000000000000000000000000000600052603260045260246000fd5b906000526020600020906002020160000160009054906101000a900473ffffffffffffffffffffffffffffffffffffffff1660016040518363ffffffff1660e01b81526004016118cc929190613b6b565b60206040518083038186803b1580156118e457600080fd5b505afa1580156118f8573d6000803e3d6000fd5b505050506040513d601f19601f8201168201806040525081019061191c919061362f565b90506000806001811115611959577f4e487b7100000000000000000000000000000000000000000000000000000000600052602160045260246000fd5b60098581548110611993577f4e487b7100000000000000000000000000000000000000000000000000000000600052603260045260246000fd5b906000526020600020906002020160010160149054906101000a900460ff1660018111156119ea577f4e487b7100000000000000000000000000000000000000000000000000000000600052602160045260246000fd5b14611a0857611a03600283612c2f90919063ffffffff16565b611a0b565b60005b905060008160098681548110611a4a577f4e487b7100000000000000000000000000000000000000000000000000000000600052603260045260246000fd5b906000526020600020906002020160010160009054906101000a900473ffffffffffffffffffffffffffffffffffffffff168560000151866020015160405180602001604052806000815250604051602001611aaa959493929190613df5565b6040516020818303038152906040529050611bf560098681548110611af8577f4e487b7100000000000000000000000000000000000000000000000000000000600052603260045260246000fd5b906000526020600020906002020160010160149054906101000a900460ff1660098781548110611b51577f4e487b7100000000000000000000000000000000000000000000000000000000600052603260045260246000fd5b906000526020600020906002020160000160009054906101000a900473ffffffffffffffffffffffffffffffffffffffff1660098881548110611bbd577f4e487b7100000000000000000000000000000000000000000000000000000000600052603260045260246000fd5b906000526020600020906002020160010160009054906101000a900473ffffffffffffffffffffffffffffffffffffffff1684612ae8565b505050508080611c04906141b0565b9150506116b7565b5050565b600360009054906101000a900473ffffffffffffffffffffffffffffffffffffffff1681565b60075481565b600560009054906101000a900473ffffffffffffffffffffffffffffffffffffffff1681565b612af881565b600260009054906101000a900473ffffffffffffffffffffffffffffffffffffffff1681565b606481565b60606009805480602002602001604051908101604052809291908181526020016000905b82821015611e1c57838290600052602060002090600202016040518060600160405290816000820160009054906101000a900473ffffffffffffffffffffffffffffffffffffffff1673ffffffffffffffffffffffffffffffffffffffff1673ffffffffffffffffffffffffffffffffffffffff1681526020016001820160009054906101000a900473ffffffffffffffffffffffffffffffffffffffff1673ffffffffffffffffffffffffffffffffffffffff1673ffffffffffffffffffffffffffffffffffffffff1681526020016001820160149054906101000a900460ff166001811115611dd1577f4e487b7100000000000000000000000000000000000000000000000000000000600052602160045260246000fd5b6001811115611e09577f4e487b7100000000000000000000000000000000000000000000000000000000600052602160045260246000fd5b8152505081526020019060010190611cb7565b50505050905090565b60008060008311611e6b576040517f08c379a0000000000000000000000000000000000000000000000000000000008152600401611e6290613d9f565b60405180910390fd5b6000806001811115611ea6577f4e487b7100000000000000000000000000000000000000000000000000000000600052602160045260246000fd5b866001811115611edf577f4e487b7100000000000000000000000000000000000000000000000000000000600052602160045260246000fd5b14611fd257611fcd612710611fbf611f036064612710612b8790919063ffffffff16565b600560009054906101000a900473ffffffffffffffffffffffffffffffffffffffff1673ffffffffffffffffffffffffffffffffffffffff166376d697608c60016040518363ffffffff1660e01b8152600401611f61929190613b6b565b60206040518083038186803b158015611f7957600080fd5b505afa158015611f8d573d6000803e3d6000fd5b505050506040513d601f19601f82011682018060405250810190611fb1919061362f565b612c2f90919063ffffffff16565b612caa90919063ffffffff16565b6120bc565b6120bb6127106120ad611ff16064612710612be590919063ffffffff16565b600560009054906101000a900473ffffffffffffffffffffffffffffffffffffffff1673ffffffffffffffffffffffffffffffffffffffff166376d697608c60006040518363ffffffff1660e01b815260040161204f929190613b6b565b60206040518083038186803b15801561206757600080fd5b505afa15801561207b573d6000803e3d6000fd5b505050506040513d601f19601f8201168201806040525081019061209f919061362f565b612c2f90919063ffffffff16565b612caa90919063ffffffff16565b5b905060008185116120df576120da8583612be590919063ffffffff16565b6120f3565b6120f28286612be590919063ffffffff16565b5b905061211a8561210c8389612c2f90919063ffffffff16565b612caa90919063ffffffff16565b935060006001811115612156577f4e487b7100000000000000000000000000000000000000000000000000000000600052602160045260246000fd5b87600181111561218f577f4e487b7100000000000000000000000000000000000000000000000000000000600052602160045260246000fd5b1461219c578185116121a0565b8482115b9250505094509492505050565b600660009054906101000a900473ffffffffffffffffffffffffffffffffffffffff1681565b6402540be40081565b61271081565b6000806000905060005b60098054905081101561235f57600061233460098381548110612238577f4e487b7100000000000000000000000000000000000000000000000000000000600052603260045260246000fd5b906000526020600020906002020160000160009054906101000a900473ffffffffffffffffffffffffffffffffffffffff16600984815481106122a4577f4e487b7100000000000000000000000000000000000000000000000000000000600052603260045260246000fd5b906000526020600020906002020160010160009054906101000a900473ffffffffffffffffffffffffffffffffffffffff1660098581548110612310577f4e487b7100000000000000000000000000000000000000000000000000000000600052603260045260246000fd5b906000526020600020906002020160010160149054906101000a900460ff16610e06565b90506123498184612b8790919063ffffffff16565b9250508080612357906141b0565b9150506121ec565b508091505090565b61236f612a58565b80600560006101000a81548173ffffffffffffffffffffffffffffffffffffffff021916908373ffffffffffffffffffffffffffffffffffffffff16021790555050565b6000806123c1858585612559565b90506000806123da878685600001518660600151612cf4565b91509150801580156123ef5750826020015182115b156124005760009350505050612444565b806124245761241c828460200151612be590919063ffffffff16565b93508361243f565b61243b828460200151612b8790919063ffffffff16565b9350835b505050505b9392505050565b6000848484846040516020016124649493929190613ab8565b604051602081830303815290604052805190602001209050949350505050565b565b61248e612a58565b80600360006101000a81548173ffffffffffffffffffffffffffffffffffffffff021916908373ffffffffffffffffffffffffffffffffffffffff16021790555050565b600981815481106124e257600080fd5b90600052602060002090600202016000915090508060000160009054906101000a900473ffffffffffffffffffffffffffffffffffffffff16908060010160009054906101000a900473ffffffffffffffffffffffffffffffffffffffff16908060010160149054906101000a900460ff16905083565b612561612ff2565b612569612ff2565b600460009054906101000a900473ffffffffffffffffffffffffffffffffffffffff1673ffffffffffffffffffffffffffffffffffffffff1663514ea4bf6125b33088888861244b565b6040518263ffffffff1660e01b81526004016125cf9190613bfa565b60a06040518083038186803b1580156125e757600080fd5b505afa1580156125fb573d6000803e3d6000fd5b505050506040513d601f19601f8201168201806040525081019061261f9190613658565b856000018660200187604001886060018960800185815250858152508581525085815250858152505050505050809150509392505050565b600080600260009054906101000a900473ffffffffffffffffffffffffffffffffffffffff1673ffffffffffffffffffffffffffffffffffffffff1663d04f246b600660009054906101000a900473ffffffffffffffffffffffffffffffffffffffff166040518263ffffffff1660e01b81526004016126d79190613a9d565b60206040518083038186803b1580156126ef57600080fd5b505afa158015612703573d6000803e3d6000fd5b505050506040513d601f19601f82011682018060405250810190612727919061362f565b9050600081141561273c576000915050612774565b60006127466110cf565b905061276f8261276161271084612c2f90919063ffffffff16565b612caa90919063ffffffff16565b925050505b90565b600860006127f98486600060018111156127ba577f4e487b7100000000000000000000000000000000000000000000000000000000600052602160045260246000fd5b8660018111156127f3577f4e487b7100000000000000000000000000000000000000000000000000000000600052602160045260246000fd5b14610dd0565b815260200190815260200160002060009054906101000a900460ff16612a5357600960405180606001604052808473ffffffffffffffffffffffffffffffffffffffff1681526020018573ffffffffffffffffffffffffffffffffffffffff168152602001836001811115612897577f4e487b7100000000000000000000000000000000000000000000000000000000600052602160045260246000fd5b815250908060018154018082558091505060019003906000526020600020906002020160009091909190915060008201518160000160006101000a81548173ffffffffffffffffffffffffffffffffffffffff021916908373ffffffffffffffffffffffffffffffffffffffff16021790555060208201518160010160006101000a81548173ffffffffffffffffffffffffffffffffffffffff021916908373ffffffffffffffffffffffffffffffffffffffff16021790555060408201518160010160146101000a81548160ff021916908360018111156129a2577f4e487b7100000000000000000000000000000000000000000000000000000000600052602160045260246000fd5b02179055505050600160086000612a2d8587600060018111156129ee577f4e487b7100000000000000000000000000000000000000000000000000000000600052602160045260246000fd5b876001811115612a27577f4e487b7100000000000000000000000000000000000000000000000000000000600052602160045260246000fd5b14610dd0565b815260200190815260200160002060006101000a81548160ff0219169083151502179055505b505050565b60008054906101000a900473ffffffffffffffffffffffffffffffffffffffff1673ffffffffffffffffffffffffffffffffffffffff163373ffffffffffffffffffffffffffffffffffffffff1614612ae6576040517f08c379a0000000000000000000000000000000000000000000000000000000008152600401612add90613d3f565b60405180910390fd5b565b600360009054906101000a900473ffffffffffffffffffffffffffffffffffffffff1673ffffffffffffffffffffffffffffffffffffffff16632f25f18360018686866000876040518763ffffffff1660e01b8152600401612b4f96959493929190613c15565b600060405180830381600087803b158015612b6957600080fd5b505af1158015612b7d573d6000803e3d6000fd5b5050505050505050565b6000808284612b969190613f76565b905083811015612bdb576040517f08c379a0000000000000000000000000000000000000000000000000000000008152600401612bd290613cbf565b60405180910390fd5b8091505092915050565b6000612c2783836040518060400160405280601e81526020017f536166654d6174683a207375627472616374696f6e206f766572666c6f770000815250612f2b565b905092915050565b600080831415612c425760009050612ca4565b60008284612c509190613ffd565b9050828482612c5f9190613fcc565b14612c9f576040517f08c379a0000000000000000000000000000000000000000000000000000000008152600401612c9690613d1f565b60405180910390fd5b809150505b92915050565b6000612cec83836040518060400160405280601a81526020017f536166654d6174683a206469766973696f6e206279207a65726f000000000000815250612f8f565b905092915050565b6000806000841480612d065750600083145b15612d175760008091509150612f22565b6000600560009054906101000a900473ffffffffffffffffffffffffffffffffffffffff1673ffffffffffffffffffffffffffffffffffffffff166376d697608860006001811115612d92577f4e487b7100000000000000000000000000000000000000000000000000000000600052602160045260246000fd5b896001811115612dcb577f4e487b7100000000000000000000000000000000000000000000000000000000600052602160045260246000fd5b146040518363ffffffff1660e01b8152600401612de9929190613b6b565b60206040518083038186803b158015612e0157600080fd5b505afa158015612e15573d6000803e3d6000fd5b505050506040513d601f19601f82011682018060405250810190612e39919061362f565b90506000818511612e5c57612e578583612be590919063ffffffff16565b612e70565b612e6f8286612be590919063ffffffff16565b5b9050612e9785612e898389612c2f90919063ffffffff16565b612caa90919063ffffffff16565b935060006001811115612ed3577f4e487b7100000000000000000000000000000000000000000000000000000000600052602160045260246000fd5b876001811115612f0c577f4e487b7100000000000000000000000000000000000000000000000000000000600052602160045260246000fd5b14612f1957818511612f1d565b8482115b925050505b94509492505050565b6000838311158290612f73576040517f08c379a0000000000000000000000000000000000000000000000000000000008152600401612f6a9190613c7d565b60405180910390fd5b5060008385612f829190614057565b9050809150509392505050565b60008083118290612fd6576040517f08c379a0000000000000000000000000000000000000000000000000000000008152600401612fcd9190613c7d565b60405180910390fd5b5060008385612fe59190613fcc565b9050809150509392505050565b6040518060a0016040528060008152602001600081526020016000815260200160008152602001600081525090565b60008135905061303081614593565b92915050565b600081359050613045816145aa565b92915050565b60008151905061305a816145aa565b92915050565b60008135905061306f816145c1565b92915050565b600060a0828403121561308757600080fd5b61309160a0613ee0565b905060006130a18482850161324a565b60008301525060206130b58482850161324a565b60208301525060406130c98482850161324a565b60408301525060606130dd8482850161324a565b60608301525060806130f18482850161324a565b60808301525092915050565b600060a0828403121561310f57600080fd5b61311960a0613ee0565b9050600061312984828501613235565b600083015250602061313d84828501613235565b602083015250604061315184828501613235565b604083015250606061316584828501613235565b606083015250608061317984828501613235565b60808301525092915050565b600060e0828403121561319757600080fd5b6131a160e0613ee0565b905060006131b18482850161324a565b60008301525060206131c58482850161324a565b60208301525060406131d98482850161324a565b60408301525060606131ed8482850161324a565b60608301525060806132018482850161324a565b60808301525060a06132158482850161324a565b60a08301525060c06132298482850161324a565b60c08301525092915050565b600081359050613244816145d1565b92915050565b600081519050613259816145d1565b92915050565b60006020828403121561327157600080fd5b600061327f84828501613021565b91505092915050565b6000806000806080858703121561329e57600080fd5b60006132ac87828801613021565b94505060206132bd87828801613021565b93505060406132ce87828801613021565b92505060606132df87828801613060565b91505092959194509250565b60008060006060848603121561330057600080fd5b600061330e86828701613021565b935050602061331f86828701613021565b925050604061333086828701613036565b9150509250925092565b60008060006060848603121561334f57600080fd5b600061335d86828701613021565b935050602061336e86828701613021565b925050604061337f86828701613060565b9150509250925092565b6000806000806080858703121561339f57600080fd5b60006133ad87828801613021565b94505060206133be87828801613060565b93505060406133cf87828801613235565b92505060606133e087828801613235565b91505092959194509250565b6000602082840312156133fe57600080fd5b600061340c8482850161304b565b91505092915050565b600080600080600080600060e0888a03121561343057600080fd5b600061343e8a828b01613060565b975050602061344f8a828b01613021565b96505060406134608a828b01613021565b95505060606134718a828b01613235565b94505060806134828a828b01613021565b93505060a06134938a828b01613235565b92505060c06134a48a828b01613235565b91505092959891949750929550565b600080600080600080600080610100898b0312156134d057600080fd5b60006134de8b828c01613060565b98505060206134ef8b828c01613021565b97505060406135008b828c01613021565b96505060606135118b828c01613235565b95505060806135228b828c01613021565b94505060a06135338b828c01613235565b93505060c06135448b828c01613235565b92505060e06135558b828c01613235565b9150509295985092959890939650565b600060a0828403121561357757600080fd5b600061358584828501613075565b91505092915050565b600080600060e084860312156135a357600080fd5b60006135b1868287016130fd565b93505060a06135c286828701613021565b92505060c06135d386828701613235565b9150509250925092565b600060e082840312156135ef57600080fd5b60006135fd84828501613185565b91505092915050565b60006020828403121561361857600080fd5b600061362684828501613235565b91505092915050565b60006020828403121561364157600080fd5b600061364f8482850161324a565b91505092915050565b600080600080600060a0868803121561367057600080fd5b600061367e8882890161324a565b955050602061368f8882890161324a565b94505060406136a08882890161324a565b93505060606136b18882890161324a565b92505060806136c28882890161324a565b9150509295509295909350565b60006136db8383613998565b60608301905092915050565b6136f08161408b565b82525050565b6136ff8161408b565b82525050565b6137166137118261408b565b6141f9565b82525050565b600061372782613f15565b6137318185613f43565b935061373c83613f05565b8060005b8381101561376d57815161375488826136cf565b975061375f83613f36565b925050600181019050613740565b5085935050505092915050565b6137838161409d565b82525050565b61379a6137958261409d565b61420b565b82525050565b6137a9816140a9565b82525050565b60006137ba82613f20565b6137c48185613f54565b93506137d481856020860161414c565b6137dd816142fd565b840191505092915050565b6137f181614116565b82525050565b61380081614128565b82525050565b61380f81614128565b82525050565b61381e8161413a565b82525050565b600061382f82613f2b565b6138398185613f65565b935061384981856020860161414c565b613852816142fd565b840191505092915050565b600061386a600d83613f65565b915061387582614328565b602082019050919050565b600061388d601b83613f65565b915061389882614351565b602082019050919050565b60006138b0602783613f65565b91506138bb8261437a565b604082019050919050565b60006138d3602083613f65565b91506138de826143c9565b602082019050919050565b60006138f6602183613f65565b9150613901826143f2565b604082019050919050565b6000613919601f83613f65565b915061392482614441565b602082019050919050565b600061393c602583613f65565b91506139478261446a565b604082019050919050565b600061395f602583613f65565b915061396a826144b9565b604082019050919050565b6000613982603183613f65565b915061398d82614508565b604082019050919050565b6060820160008201516139ae60008501826136e7565b5060208201516139c160208501826136e7565b5060408201516139d460408501826137f7565b50505050565b60a0820160008201516139f06000850182613a42565b506020820151613a036020850182613a42565b506040820151613a166040850182613a42565b506060820151613a296060850182613a42565b506080820151613a3c6080850182613a42565b50505050565b613a4b8161410c565b82525050565b613a5a8161410c565b82525050565b6000613a6c8286613705565b601482019150613a7c8285613705565b601482019150613a8c8284613789565b600182019150819050949350505050565b6000602082019050613ab260008301846136f6565b92915050565b6000608082019050613acd60008301876136f6565b613ada60208301866136f6565b613ae760408301856136f6565b613af46060830184613806565b95945050505050565b6000606082019050613b1260008301866136f6565b613b1f60208301856136f6565b613b2c6040830184613806565b949350505050565b6000606082019050613b4960008301866136f6565b613b5660208301856136f6565b613b636040830184613a51565b949350505050565b6000604082019050613b8060008301856136f6565b613b8d602083018461377a565b9392505050565b6000604082019050613ba960008301856136f6565b613bb66020830184613a51565b9392505050565b60006020820190508181036000830152613bd7818461371c565b905092915050565b6000602082019050613bf4600083018461377a565b92915050565b6000602082019050613c0f60008301846137a0565b92915050565b600060c082019050613c2a6000830189613815565b613c376020830188613806565b613c4460408301876136f6565b613c5160608301866136f6565b613c5e60808301856137e8565b81810360a0830152613c7081846137af565b9050979650505050505050565b60006020820190508181036000830152613c978184613824565b905092915050565b60006020820190508181036000830152613cb88161385d565b9050919050565b60006020820190508181036000830152613cd881613880565b9050919050565b60006020820190508181036000830152613cf8816138a3565b9050919050565b60006020820190508181036000830152613d18816138c6565b9050919050565b60006020820190508181036000830152613d38816138e9565b9050919050565b60006020820190508181036000830152613d588161390c565b9050919050565b60006020820190508181036000830152613d788161392f565b9050919050565b60006020820190508181036000830152613d9881613952565b9050919050565b60006020820190508181036000830152613db881613975565b9050919050565b600060a082019050613dd460008301846139da565b92915050565b6000602082019050613def6000830184613a51565b92915050565b600060a082019050613e0a6000830188613a51565b613e1760208301876136f6565b613e246040830186613a51565b613e316060830185613a51565b8181036080830152613e4381846137af565b90509695505050505050565b600060c082019050613e646000830189613a51565b613e7160208301886136f6565b613e7e6040830187613a51565b613e8b6060830186613a51565b613e986080830185613a51565b81810360a0830152613eaa81846137af565b9050979650505050505050565b6000604082019050613ecc6000830185613a51565b613ed9602083018461377a565b9392505050565b6000613eea613efb565b9050613ef6828261417f565b919050565b6000604051905090565b6000819050602082019050919050565b600081519050919050565b600081519050919050565b600081519050919050565b6000602082019050919050565b600082825260208201905092915050565b600082825260208201905092915050565b600082825260208201905092915050565b6000613f818261410c565b9150613f8c8361410c565b9250827fffffffffffffffffffffffffffffffffffffffffffffffffffffffffffffffff03821115613fc157613fc0614241565b5b828201905092915050565b6000613fd78261410c565b9150613fe28361410c565b925082613ff257613ff1614270565b5b828204905092915050565b60006140088261410c565b91506140138361410c565b9250817fffffffffffffffffffffffffffffffffffffffffffffffffffffffffffffffff048311821515161561404c5761404b614241565b5b828202905092915050565b60006140628261410c565b915061406d8361410c565b9250828210156140805761407f614241565b5b828203905092915050565b6000614096826140ec565b9050919050565b60008115159050919050565b6000819050919050565b60008190506140c182614557565b919050565b60008190506140d48261456b565b919050565b60008190506140e78261457f565b919050565b600073ffffffffffffffffffffffffffffffffffffffff82169050919050565b6000819050919050565b6000614121826140b3565b9050919050565b6000614133826140c6565b9050919050565b6000614145826140d9565b9050919050565b60005b8381101561416a57808201518184015260208101905061414f565b83811115614179576000848401525b50505050565b614188826142fd565b810181811067ffffffffffffffff821117156141a7576141a66142ce565b5b80604052505050565b60006141bb8261410c565b91507fffffffffffffffffffffffffffffffffffffffffffffffffffffffffffffffff8214156141ee576141ed614241565b5b600182019050919050565b60006142048261421d565b9050919050565b60006142168261422f565b9050919050565b60006142288261431b565b9050919050565b600061423a8261430e565b9050919050565b7f4e487b7100000000000000000000000000000000000000000000000000000000600052601160045260246000fd5b7f4e487b7100000000000000000000000000000000000000000000000000000000600052601260045260246000fd5b7f4e487b7100000000000000000000000000000000000000000000000000000000600052602160045260246000fd5b7f4e487b7100000000000000000000000000000000000000000000000000000000600052604160045260246000fd5b6000601f19601f8301169050919050565b60008160f81b9050919050565b60008160601b9050919050565b7f6865616c746820666163746f7200000000000000000000000000000000000000600082015250565b7f536166654d6174683a206164646974696f6e206f766572666c6f770000000000600082015250565b7f6c6f616e20616d6f756e7420646f6573206e6f74207065726d6974206c69717560008201527f69646174696f6e00000000000000000000000000000000000000000000000000602082015250565b7f6661696c656420746f207472616e7366657220696e20636f6c6c61746572616c600082015250565b7f536166654d6174683a206d756c7469706c69636174696f6e206f766572666c6f60008201527f7700000000000000000000000000000000000000000000000000000000000000602082015250565b7f6f6e6c7920676f762063616e2063616c6c20746869732066756e6374696f6e00600082015250565b7f6f6e6c7920746865206f776e65722063616e2063616c6c20746869732066756e60008201527f6374696f6e000000000000000000000000000000000000000000000000000000602082015250565b7f6661696c656420746f20617070726f766520636f6c6c61746572616c2074726160008201527f6e73666572000000000000000000000000000000000000000000000000000000602082015250565b7f617665726765207072696365206f6620706f736974696f6e2068617320746f2060008201527f62652067726561746572207468616e2030000000000000000000000000000000602082015250565b600281106145685761456761429f565b5b50565b6002811061457c5761457b61429f565b5b50565b600281106145905761458f61429f565b5b50565b61459c8161408b565b81146145a757600080fd5b50565b6145b38161409d565b81146145be57600080fd5b50565b600281106145ce57600080fd5b50565b6145da8161410c565b81146145e557600080fd5b5056fea264697066735822122068c4ff55a7e82311acbf2900392ea8857f7c3f547293313bc37845f53d8751d164736f6c63430008040033",
  "immutableReferences": {},
  "source": "// SPDX-License-Identifier: MIT\n\npragma solidity >=0.6.12;\n\nimport \"./interfaces/IAbstractPosition.sol\";\nimport \"./interfaces/ILendingContract.sol\";\n\n// GMX interfaces\nimport \"./interfaces/IRouter.sol\";\nimport \"./interfaces/IPositionRouter.sol\";\nimport \"./interfaces/IVault.sol\";\n\n// Level interfaces\nimport \"./interfaces/ILevelOracle.sol\";\nimport \"./interfaces/IPool.sol\";\nimport \"./interfaces/IOrderManager.sol\";\n\nimport \"./libraries/SafeMath.sol\";\nimport \"./libraries/IERC20.sol\";\nimport \"./libraries/Types.sol\";\n\n/**\n * @title AbstractPosition\n * @dev This contract implements the basic functionality of managing long and short positions for an index token, using a lending contract to borrow funds.\n * It relies on external smart contracts to create a position.\n * This contract holds the collateral and index tokens for all existing positions, and calculates the margin, the health factor, and the unrealized and realized profits and losses of each position.\n * This contract is owned by an external account, which is responsible for calling its functions in order to open, increase, or close positions.\n */\ncontract AbstractPosition {\n    using SafeMath for uint256;\n\n    /**\n     * @dev This struct represents a long or short position for an index token, along with some basic information about the position.\n     * It contains the size, or the number of index tokens borrowed, the collateral, or the amount of collateral tokens held, the average entry price, the entry funding rate, the reserve amount, the realized P&L, the last time the position was increased, and the maximum loan amount.\n     */\n    struct Position {\n        uint256 size;\n        uint256 collateral;\n        uint256 averagePrice;\n        uint256 entryFundingRate;\n        uint256 reserveAmount;\n        uint256 realisedPnl;\n        uint256 lastIncreasedTime;\n        uint256 maxLoanAmount;\n    }\n\n    /**\n     * @dev This struct represents the data of a long or short position for an index token, such as the index token, the collateral token, and whether it is a long or short position.\n     */\n    struct PositionData {\n        address indexToken;\n        address collateralToken;\n        bool isLong;\n    }\n\n    uint256 public constant MIN_HEALTH_FACTOR = 10000;\n    uint256 public constant MIN_DECREASE_HEALTH_FACTOR = 11000;\n    uint256 public constant BASIS_POINTS_DIVISOR = 10000;\n    uint256 public constant L1 = 100;\n    uint256 public constant L2 = 100;\n    uint256 public constant PRECISION = 10**10;\n    address private constant BNB = 0xEeeeeEeeeEeEeeEeEeEeeEEEeeeeEeeeeeeeEEeE;\n\n    // addresses\n    address public gov;\n    address public wethAddress;\n    address public lendingContractAddress;\n\n    // bnb contracts\n    address public orderManagerAddress;\n    address public poolAddress;\n    address public levelOracleAddress;\n\n    address public ownerAddress;\n\n    uint256 public minExecutionFee;\n\n    mapping (bytes32 => bool) positionExists;\n    BnbPositionData[] public existingPositionsData;\n\n    constructor(\n        address _gov,\n        address _wethAddress,\n        address _lendingContractAddress,\n        address _ownerAddress,\n        address _orderManagerAddress,\n        address _poolAddress,\n        address _levelOracleAddress\n    ) {\n        // init state variables\n        gov = _gov;\n        ownerAddress = _ownerAddress;\n        wethAddress = _wethAddress;\n        lendingContractAddress = _lendingContractAddress;\n\n        // initial level fi variables\n        orderManagerAddress = _orderManagerAddress;\n        poolAddress = _poolAddress;\n        levelOracleAddress = _levelOracleAddress;\n    }\n\n    /**\n     * @dev Updates the leding contract address.\n     * @param _lendingContractAddress The new lending contract address.\n     */\n    function setLendingContractAddress(address _lendingContractAddress) public {\n        _onlyGov();\n        lendingContractAddress = _lendingContractAddress;\n    }\n\n    /**\n     * @dev Updates the order manager address.\n     * @param _orderManagerAddress The new order manager address.\n     */\n    function setOrderManagerAddress(address _orderManagerAddress) public {\n        _onlyGov();\n        orderManagerAddress = _orderManagerAddress;\n    }\n\n    /**\n     * @dev Updates the level pool address.\n     * @param _poolAddress The new level pool address.\n     */\n    function setLevelPoolAddress(address _poolAddress) public {\n        _onlyGov();\n        poolAddress = _poolAddress;\n    }\n\n    /**\n     * @dev Updates the level oracle address.\n     * @param _levelOracleAddress The new level oracle address.\n     */\n    function setLevelOracleAddress(address _levelOracleAddress) public {\n        _onlyGov();\n        levelOracleAddress = _levelOracleAddress;\n    }\n\n    /**\n     * @dev Computes the unique key for a given position.\n     * @param _indexToken The address of the index token in the position.\n     * @param _collateralToken The address of the collateral token in the position.\n     * @param _isLong Indicates whether the position is long or short.\n     * @return The key of the position.\n     */\n    function getPositionKey(address _indexToken, address _collateralToken, bool _isLong) public pure returns (bytes32) {\n        return keccak256(abi.encodePacked(_indexToken, _collateralToken, _isLong));\n    }\n\n    /**\n     * @dev Updates the list of all positions.\n     * @param _collateralToken The path of tokens for the position.\n     * @param _indexToken The index token for the position.\n     * @param _side The position direction, long or short.\n     */\n    function updateExistingPositions(address _collateralToken, address _indexToken, Side _side) internal {\n        if (!positionExists[getPositionKey(_indexToken, _collateralToken, _side == Side.LONG)]) {\n            existingPositionsData.push(BnbPositionData(_indexToken, _collateralToken, _side));\n            positionExists[getPositionKey(_indexToken, _collateralToken, _side == Side.LONG)] = true;\n        }\n    }\n\n    /**\n     * @dev Function used by liquidator nodes to liquidate the portfolio when the health factor goes below 1.\n     */\n    function liquidatePortfolio() public {\n        uint256 _healthFactor = portfolioHealthFactor();\n        require(_healthFactor < MIN_HEALTH_FACTOR && _healthFactor != 0, \"health factor\");\n\n        for (uint256 i = 0; i < existingPositionsData.length; i++) {\n            BnbPosition memory _position = getPosition(\n                existingPositionsData[i].indexToken,\n                existingPositionsData[i].collateralToken,\n                existingPositionsData[i].side\n            );\n\n            uint256 _oraclePrice = ILevelOracle(levelOracleAddress).getPrice(existingPositionsData[i].indexToken, true);\n\n            uint256 _price = existingPositionsData[i].side == Side.LONG ? 0 : _oraclePrice.mul(2);\n            bytes memory _data = abi.encode(\n                _price,\n                existingPositionsData[i].collateralToken,\n                _position.size,\n                _position.collateralValue,\n                bytes(\"\")\n            );\n\n            _callDecreasePlaceOrder(\n                existingPositionsData[i].side,\n                existingPositionsData[i].indexToken,\n                existingPositionsData[i].collateralToken,\n                _data\n            );\n            \n        }\n    }\n\n    /**\n     * @dev Function to open or increase a long or short position with the specified parameters.\n     *\n     * @param _side The side of the order, either LONG or SHORT.\n     * @param _indexToken The token that the position is in.\n     * @param _collateralToken The token used as collateral for the position.\n     * @param price The acceptable price for token.\n     * @param payToken The token used to pay for the order.\n     * @param purchaseAmount The amount of the payToken used to purchase the position.\n     * @param sizeChange The amount by which to increase the position size.\n     * @param _collateral The amount of collateral to use for the order.\n     */\n    function callIncreasePlaceOrder(\n        Side _side,\n        address _indexToken,\n        address _collateralToken,\n        uint256 price,\n        address payToken,\n        uint256 purchaseAmount,\n        uint256 sizeChange,\n        uint256 _collateral\n    ) public payable {\n        require(msg.sender == ownerAddress, \"only the owner can call this function\");\n\n        UpdatePositionType _updateType = UpdatePositionType.INCREASE;\n        // todo: support limit orders\n        OrderType _orderType = OrderType.MARKET;\n\n        updateExistingPositions(_collateralToken, _indexToken, _side);\n\n        if (payToken != BNB) {\n            require(IERC20(payToken).transferFrom(msg.sender, address(this), purchaseAmount), \"failed to transfer in collateral\");\n            require(IERC20(payToken).approve(orderManagerAddress, purchaseAmount), \"failed to approve collateral transfer\");\n        }\n\n        bytes memory _data = abi.encode(price, payToken, purchaseAmount, sizeChange, _collateral, bytes(\"\"));\n\n        IOrderManager(orderManagerAddress).placeOrder{value: msg.value}(\n            _updateType,\n            _side,\n            _indexToken,\n            _collateralToken,\n            _orderType,\n            _data\n        );\n    }\n\n    /**\n     * @dev Function to close or decrease a long or short position with the specified parameters.\n     * @param _side The side of the order, either LONG or SHORT.\n     * @param _indexToken The token that the position is in.\n     * @param _collateralToken The token used as collateral for the position.\n     * @param price The acceptable price for token.\n     * @param payToken The token used to pay for the order.\n     * @param sizeChange The amount by which to decrease the position size.\n     * @param _collateral The amount of collateral to use for the order.\n     */\n    function callDecreasePlaceOrder(\n        Side _side,\n        address _indexToken,\n        address _collateralToken,\n        uint256 price,\n        address payToken,\n        uint256 sizeChange,\n        uint256 _collateral\n    ) public payable {\n        require(msg.sender == ownerAddress, \"only the owner can call this function\");\n\n        require(validateDecreasePosition(_indexToken, _collateralToken, _side), \"loan amount does not permit liquidation\");\n\n        bytes memory _data = abi.encode(price, payToken, sizeChange, _collateral, bytes(\"\"));\n\n        _callDecreasePlaceOrder(_side, _indexToken, _collateralToken, _data);\n    }\n\n    /**\n     * @dev Function to close or decrease a long or short position with the specified parameters.\n     * @param _side The side of the order, either LONG or SHORT.\n     * @param _indexToken The token that the position is in.\n     * @param _collateralToken The token used as collateral for the position.\n     * @param _data encoded data for placing the order.\n     */\n    function _callDecreasePlaceOrder(\n        Side _side,\n        address _indexToken,\n        address _collateralToken,\n        bytes memory _data\n    ) internal {\n        // todo: support limit orders\n        IOrderManager(orderManagerAddress).placeOrder(\n            UpdatePositionType.DECREASE, _side, _indexToken, _collateralToken, OrderType.MARKET, _data\n        );\n    }\n\n    /**\n    * @dev Validates whether a decrease in position can be made without breaching the minimum health factor requirement.\n    * @param _indexToken The address of the index token in the position to be decreased.\n    * @param _collateralToken The address of the collateral token in the position to be decreased.\n    * @param _side The side of the order, either LONG or SHORT.\n    * @return A boolean value indicating whether a decrease in position can be made without breaching the minimum health factor requirement.\n    */\n    function validateDecreasePosition(\n        address _indexToken,\n        address _collateralToken,\n        Side _side\n    ) public view returns (bool) {\n        uint256 _existingLoan = ILendingContract(lendingContractAddress).existingLoanOnPortfolio(ownerAddress);\n\n        if (_existingLoan == 0) {\n            return true;\n        }\n\n        uint256 _portfolioValue = getPortfolioValueWithMargin();\n\n        uint256 _positionValue = getPositionValue(_indexToken, _collateralToken, _side);\n\n        if (_portfolioValue < _positionValue) {\n            return false;\n        }\n\n        uint256 _healthFactor = (_portfolioValue.sub(_positionValue)).mul(MIN_HEALTH_FACTOR).div(_existingLoan);\n\n        return _healthFactor > MIN_DECREASE_HEALTH_FACTOR;\n    }\n\n    /**\n     * @dev Gets position for index token and side.\n     * @param _indexToken The address of the index token.\n     * @param _collateralToken The address of the collateral token.\n     * @param _side The side of the order, either LONG or SHORT.\n     * @return The size, collateral, average price, entry funding rate, and last increased time of the position.\n     */\n    function getPosition(\n        address _indexToken,\n        address _collateralToken,\n        Side _side\n    ) public view returns (BnbPosition memory) {\n        BnbPosition memory _position;\n        (\n            _position.size,\n            _position.collateralValue,\n            _position.reserveAmount,\n            _position.entryPrice,\n            _position.borrowIndex\n        ) = IPool(poolAddress).positions(\n            _getPositionKey(address(this), _indexToken, _collateralToken, _side)\n        );\n\n        return _position;\n    }\n\n    /**\n     * @dev Gets the absolute value of a position.\n     * @param _indexToken The address of the index token.\n     * @param _collateralToken The address of the collateral token.\n     * @param _side The side of the order, either LONG or SHORT.\n     * @return _positionValue A uint256 value representing the absolute value of the position.\n     */\n    function getPositionValue(\n        address _indexToken,\n        address _collateralToken,\n        Side _side\n    ) public view returns (uint256 _positionValue) {\n        BnbPosition memory _position = getPosition(_indexToken, _collateralToken, _side);\n\n        (uint256 delta, bool hasProfit) = getDelta(_indexToken, _side, _position.size, _position.entryPrice);\n\n        if (!hasProfit && delta > _position.collateralValue) {\n            return 0;\n        }\n\n        hasProfit ? _positionValue = _position.collateralValue.add(delta) : _positionValue = _position.collateralValue.sub(delta);\n    }\n\n    /**\n     * @dev Gets position value and factors in L1 percent price drop.\n     * @param _indexToken The address of the index token.\n     * @param _collateralToken The address of the collateral token.\n     * @param _side The side of the order, either LONG or SHORT.\n     * @return _positionValue The position value with margin.\n     */\n    function getPositionValueWithMargin(\n        address _indexToken,\n        address _collateralToken,\n        Side _side\n    ) public view returns (uint256 _positionValue) {\n        BnbPosition memory _position = getPosition(_indexToken, _collateralToken, _side);\n\n        uint256 _positionFee = _getPositionFee(_position, _indexToken, _position.size);\n\n        (uint256 delta, bool hasProfit) = getDeltaWithMargin(_indexToken, _side, _position.size, _position.entryPrice);\n\n        if (!hasProfit && delta.add(_positionFee) > _position.collateralValue) {\n            return 0;\n        }\n\n        _positionValue = hasProfit ? _position.collateralValue.add(delta).sub(_positionFee) : _position.collateralValue.sub(delta).sub(_positionFee);\n    }\n\n    /**\n     * @dev Returns the value of the overall portfolio.\n     * @return A uint256 value representing the value of the overall portfolio.\n     */\n    function getPortfolioValue() public view returns (uint256) {\n        uint256 _portfolioValue = 0;\n\n        // iterate over all existing position\n        for (uint256 i = 0; i < existingPositionsData.length; i++) {\n            // get value of the position\n            uint256 _positionValue = getPositionValueWithMargin(\n                existingPositionsData[i].indexToken,\n                existingPositionsData[i].collateralToken,\n                existingPositionsData[i].side\n            );\n            \n            // add the value to the overall portfolio value\n            _portfolioValue = _portfolioValue.add(_positionValue);\n        }\n\n        return _portfolioValue;\n    }\n\n    /**\n     * @dev Returns the value of the overall portfolio with L1 percent margin.\n     * @return A uint256 value representing the value of the overall portfolio with L1 percent margin.\n     */\n    function getPortfolioValueWithMargin() public view returns (uint256) {\n        uint256 _portfolioValue = 0;\n        uint256 _portfolioSize = 0;\n        for (uint256 i = 0; i < existingPositionsData.length; i++) {\n            uint256 _positionValue = getPositionValue(\n                existingPositionsData[i].indexToken,\n                existingPositionsData[i].collateralToken,\n                existingPositionsData[i].side\n            );\n\n            // add the value to the overall portfolio value\n            _portfolioValue = _portfolioValue.add(_positionValue);\n\n            BnbPosition memory _position = getPosition(\n                existingPositionsData[i].indexToken,\n                existingPositionsData[i].collateralToken,\n                existingPositionsData[i].side\n            );\n\n            // add the position size to portfolio size\n            _portfolioSize = _portfolioSize.add(_position.size);\n        }\n\n        uint256 _interestToCollect = ILendingContract(lendingContractAddress).interestToCollect(ownerAddress);\n\n        _portfolioValue = _portfolioValue.sub(_portfolioSize.mul(L2).div(BASIS_POINTS_DIVISOR)).sub(_interestToCollect);\n\n        return _portfolioValue;\n    }\n\n    /**\n     * @dev Calculates the portfolio health factor which is used to validate liquidation.\n     * @return The portfolio health factor.\n     */\n    function portfolioHealthFactor() public view returns (uint256) {\n        uint256 _existingLoan = ILendingContract(lendingContractAddress).existingLoanOnPortfolio(ownerAddress);\n        if (_existingLoan == 0) {\n            return 0;\n        }\n\n        uint256 _portfolioValue = getPortfolioValueWithMargin();\n\n        return _portfolioValue.mul(MIN_HEALTH_FACTOR).div(_existingLoan);\n    }\n\n    /**\n     * @dev Gets pnl for position.\n     * @param _indexToken The address of the index token.\n     * @param _side The side of the order, either LONG or SHORT.\n     * @param _size The overall size of the position.\n     * @param _averagePrice The average price of the position.\n     * @return delta The absolute value of profit/loss.\n     * @return hasProfit Bool representing the position has a profit.\n     */\n    function getDelta(\n        address _indexToken,\n        Side _side,\n        uint256 _size,\n        uint256 _averagePrice\n    ) internal view returns (uint256 delta, bool hasProfit) {\n        if (_size == 0 || _averagePrice == 0) {\n            return (0, false);\n        }\n\n        uint256 _price = ILevelOracle(levelOracleAddress).getPrice(_indexToken, _side == Side.LONG);\n\n        uint256 priceDelta = _averagePrice > _price ? _averagePrice.sub(_price) : _price.sub(_averagePrice);\n        delta = _size.mul(priceDelta).div(_averagePrice);\n\n        hasProfit;\n\n       hasProfit = _side == Side.LONG ?  _price > _averagePrice : _averagePrice > _price;\n    }\n\n    /**\n     * @dev Gets pnl for position with L1 percent drop margin.\n     * @param _indexToken The address of the index token.\n     * @param _side The side of the order, either LONG or SHORT.\n     * @param _size The overall size of the position.\n     * @param _averagePrice The average price of the position.\n     * @return delta The absolute value of profit/loss.\n     * @return hasProfit Bool representing the position has a profit.\n     */\n    function getDeltaWithMargin(\n        address _indexToken,\n        Side _side,\n        uint256 _size,\n        uint256 _averagePrice\n    ) public view returns (uint256 delta, bool hasProfit) {\n        require(_averagePrice > 0, \"averge price of position has to be greater than 0\");\n\n        uint256 _price = _side == Side.LONG\n            ? ILevelOracle(levelOracleAddress)\n                .getPrice(_indexToken, false)\n                .mul(BASIS_POINTS_DIVISOR.sub(L1))\n                .div(BASIS_POINTS_DIVISOR)\n            : ILevelOracle(levelOracleAddress)\n                .getPrice(_indexToken, true)\n                .mul(BASIS_POINTS_DIVISOR.add(L1))\n                .div(BASIS_POINTS_DIVISOR);\n        uint256 priceDelta = _averagePrice > _price ? _averagePrice.sub(_price) : _price.sub(_averagePrice);\n\n        delta = _size.mul(priceDelta).div(_averagePrice);\n\n        hasProfit = _side == Side.LONG ?  _price > _averagePrice : _averagePrice > _price;\n    }\n\n    /**\n     * @dev Calculates the fee value for updating a BNB position with a changed size, denominated in the specified index token.\n     * The fee value consists of two components: a borrow fee and a position fee. The borrow fee is based on the change in the borrow index\n     * of the index token and the size of the position being updated. The position fee is based on the percentage change in size of the\n     * position being updated and the position fee percentage defined in the pool's fee configuration.\n     * @param _position The BNB position being updated.\n     * @param _indexToken The address of the index token denominated in which the fee is calculated.\n     * @param _sizeChanged The change in size of the position being updated.\n     *\n     * @return _feeValue The total fee value, in the specified index token.\n     */\n    function _getPositionFee(\n        BnbPosition memory _position,\n        address _indexToken,\n        uint256 _sizeChanged\n    ) public view returns (uint256 _feeValue) {\n        // fetch fee data from level poool\n        Fee memory _fee = IPool(poolAddress).fee();\n\n        // fetch borrow index for index token from level pool\n        uint256 _borrowIndex = IPool(poolAddress).poolTokens(_indexToken).borrowIndex;\n\n        // calculate the borrow fee\n        uint256 borrowFee = ((_borrowIndex.sub(_position.borrowIndex)).mul(_position.size)).div(PRECISION);\n\n        // calculate the one time fee for updating possition\n        uint256 positionFee = (_sizeChanged.mul(_fee.positionFee)).div(PRECISION);\n\n        _feeValue = borrowFee + positionFee;\n    }\n\n    /**\n     * @dev Retrieves an array of all the existing positions.\n     * @return An array of `PositionData` structs.\n     */\n    function getPositions() public view returns (BnbPositionData[] memory) {\n        return existingPositionsData;\n    }\n\n    function _getPositionKey(\n        address _owner,\n        address _indexToken,\n        address _collateralToken,\n        Side _side\n    ) public pure returns (bytes32) {\n        return keccak256(abi.encode(_owner, _indexToken, _collateralToken, _side));\n    }\n\n     /**\n     * @dev Restricts function access to the governing body.\n     */\n    function _onlyGov() private view {\n        require(msg.sender == gov, \"only gov can call this function\");\n    }\n\n    /**\n     * @dev Deposits Ether into the contract.\n     */\n    function deposit() payable external {}\n}\n",
  "sourcePath": "/Users/rohanshrothrium/Documents/kuru-contracts/contracts/AbstractPosition.sol",
  "compiler": {
    "name": "solc",
    "version": "0.8.4+commit.c7e474f2.Emscripten.clang"
  },
  "schemaVersion": "3.4.13",
  "updatedAt": "2023-05-04T09:18:47.314Z",
  "devdoc": {
    "details": "This contract implements the basic functionality of managing long and short positions for an index token, using a lending contract to borrow funds. It relies on external smart contracts to create a position. This contract holds the collateral and index tokens for all existing positions, and calculates the margin, the health factor, and the unrealized and realized profits and losses of each position. This contract is owned by an external account, which is responsible for calling its functions in order to open, increase, or close positions.",
    "kind": "dev",
    "methods": {
      "_getPositionFee((uint256,uint256,uint256,uint256,uint256),address,uint256)": {
        "details": "Calculates the fee value for updating a BNB position with a changed size, denominated in the specified index token. The fee value consists of two components: a borrow fee and a position fee. The borrow fee is based on the change in the borrow index of the index token and the size of the position being updated. The position fee is based on the percentage change in size of the position being updated and the position fee percentage defined in the pool's fee configuration.",
        "params": {
          "_indexToken": "The address of the index token denominated in which the fee is calculated.",
          "_position": "The BNB position being updated.",
          "_sizeChanged": "The change in size of the position being updated."
        },
        "returns": {
          "_feeValue": "The total fee value, in the specified index token."
        }
      },
      "callDecreasePlaceOrder(uint8,address,address,uint256,address,uint256,uint256)": {
        "details": "Function to close or decrease a long or short position with the specified parameters.",
        "params": {
          "_collateral": "The amount of collateral to use for the order.",
          "_collateralToken": "The token used as collateral for the position.",
          "_indexToken": "The token that the position is in.",
          "_side": "The side of the order, either LONG or SHORT.",
          "payToken": "The token used to pay for the order.",
          "price": "The acceptable price for token.",
          "sizeChange": "The amount by which to decrease the position size."
        }
      },
      "callIncreasePlaceOrder(uint8,address,address,uint256,address,uint256,uint256,uint256)": {
        "details": "Function to open or increase a long or short position with the specified parameters.",
        "params": {
          "_collateral": "The amount of collateral to use for the order.",
          "_collateralToken": "The token used as collateral for the position.",
          "_indexToken": "The token that the position is in.",
          "_side": "The side of the order, either LONG or SHORT.",
          "payToken": "The token used to pay for the order.",
          "price": "The acceptable price for token.",
          "purchaseAmount": "The amount of the payToken used to purchase the position.",
          "sizeChange": "The amount by which to increase the position size."
        }
      },
      "deposit()": {
        "details": "Deposits Ether into the contract."
      },
      "getDeltaWithMargin(address,uint8,uint256,uint256)": {
        "details": "Gets pnl for position with L1 percent drop margin.",
        "params": {
          "_averagePrice": "The average price of the position.",
          "_indexToken": "The address of the index token.",
          "_side": "The side of the order, either LONG or SHORT.",
          "_size": "The overall size of the position."
        },
        "returns": {
          "delta": "The absolute value of profit/loss.",
          "hasProfit": "Bool representing the position has a profit."
        }
      },
      "getPortfolioValue()": {
        "details": "Returns the value of the overall portfolio.",
        "returns": {
          "_0": "A uint256 value representing the value of the overall portfolio."
        }
      },
      "getPortfolioValueWithMargin()": {
        "details": "Returns the value of the overall portfolio with L1 percent margin.",
        "returns": {
          "_0": "A uint256 value representing the value of the overall portfolio with L1 percent margin."
        }
      },
      "getPosition(address,address,uint8)": {
        "details": "Gets position for index token and side.",
        "params": {
          "_collateralToken": "The address of the collateral token.",
          "_indexToken": "The address of the index token.",
          "_side": "The side of the order, either LONG or SHORT."
        },
        "returns": {
          "_0": "The size, collateral, average price, entry funding rate, and last increased time of the position."
        }
      },
      "getPositionKey(address,address,bool)": {
        "details": "Computes the unique key for a given position.",
        "params": {
          "_collateralToken": "The address of the collateral token in the position.",
          "_indexToken": "The address of the index token in the position.",
          "_isLong": "Indicates whether the position is long or short."
        },
        "returns": {
          "_0": "The key of the position."
        }
      },
      "getPositionValue(address,address,uint8)": {
        "details": "Gets the absolute value of a position.",
        "params": {
          "_collateralToken": "The address of the collateral token.",
          "_indexToken": "The address of the index token.",
          "_side": "The side of the order, either LONG or SHORT."
        },
        "returns": {
          "_positionValue": "A uint256 value representing the absolute value of the position."
        }
      },
      "getPositionValueWithMargin(address,address,uint8)": {
        "details": "Gets position value and factors in L1 percent price drop.",
        "params": {
          "_collateralToken": "The address of the collateral token.",
          "_indexToken": "The address of the index token.",
          "_side": "The side of the order, either LONG or SHORT."
        },
        "returns": {
          "_positionValue": "The position value with margin."
        }
      },
      "getPositions()": {
        "details": "Retrieves an array of all the existing positions.",
        "returns": {
          "_0": "An array of `PositionData` structs."
        }
      },
      "liquidatePortfolio()": {
        "details": "Function used by liquidator nodes to liquidate the portfolio when the health factor goes below 1."
      },
      "portfolioHealthFactor()": {
        "details": "Calculates the portfolio health factor which is used to validate liquidation.",
        "returns": {
          "_0": "The portfolio health factor."
        }
      },
      "setLendingContractAddress(address)": {
        "details": "Updates the leding contract address.",
        "params": {
          "_lendingContractAddress": "The new lending contract address."
        }
      },
      "setLevelOracleAddress(address)": {
        "details": "Updates the level oracle address.",
        "params": {
          "_levelOracleAddress": "The new level oracle address."
        }
      },
      "setLevelPoolAddress(address)": {
        "details": "Updates the level pool address.",
        "params": {
          "_poolAddress": "The new level pool address."
        }
      },
      "setOrderManagerAddress(address)": {
        "details": "Updates the order manager address.",
        "params": {
          "_orderManagerAddress": "The new order manager address."
        }
      },
      "validateDecreasePosition(address,address,uint8)": {
        "details": "Validates whether a decrease in position can be made without breaching the minimum health factor requirement.",
        "params": {
          "_collateralToken": "The address of the collateral token in the position to be decreased.",
          "_indexToken": "The address of the index token in the position to be decreased.",
          "_side": "The side of the order, either LONG or SHORT."
        },
        "returns": {
          "_0": "A boolean value indicating whether a decrease in position can be made without breaching the minimum health factor requirement."
        }
      }
    },
    "title": "AbstractPosition",
    "version": 1
  },
  "userdoc": {
    "kind": "user",
    "methods": {},
    "version": 1
  }
}