{
  "contractName": "BaseToken",
  "abi": [
    {
      "inputs": [
        {
          "internalType": "string",
          "name": "_name",
          "type": "string"
        },
        {
          "internalType": "string",
          "name": "_symbol",
          "type": "string"
        },
        {
          "internalType": "uint256",
          "name": "_initialSupply",
          "type": "uint256"
        }
      ],
      "stateMutability": "nonpayable",
      "type": "constructor"
    },
    {
      "anonymous": false,
      "inputs": [
        {
          "indexed": true,
          "internalType": "address",
          "name": "owner",
          "type": "address"
        },
        {
          "indexed": true,
          "internalType": "address",
          "name": "spender",
          "type": "address"
        },
        {
          "indexed": false,
          "internalType": "uint256",
          "name": "value",
          "type": "uint256"
        }
      ],
      "name": "Approval",
      "type": "event"
    },
    {
      "anonymous": false,
      "inputs": [
        {
          "indexed": true,
          "internalType": "address",
          "name": "from",
          "type": "address"
        },
        {
          "indexed": true,
          "internalType": "address",
          "name": "to",
          "type": "address"
        },
        {
          "indexed": false,
          "internalType": "uint256",
          "name": "value",
          "type": "uint256"
        }
      ],
      "name": "Transfer",
      "type": "event"
    },
    {
      "inputs": [
        {
          "internalType": "address",
          "name": "",
          "type": "address"
        }
      ],
      "name": "admins",
      "outputs": [
        {
          "internalType": "bool",
          "name": "",
          "type": "bool"
        }
      ],
      "stateMutability": "view",
      "type": "function"
    },
    {
      "inputs": [
        {
          "internalType": "address",
          "name": "",
          "type": "address"
        },
        {
          "internalType": "address",
          "name": "",
          "type": "address"
        }
      ],
      "name": "allowances",
      "outputs": [
        {
          "internalType": "uint256",
          "name": "",
          "type": "uint256"
        }
      ],
      "stateMutability": "view",
      "type": "function"
    },
    {
      "inputs": [
        {
          "internalType": "address",
          "name": "",
          "type": "address"
        }
      ],
      "name": "balances",
      "outputs": [
        {
          "internalType": "uint256",
          "name": "",
          "type": "uint256"
        }
      ],
      "stateMutability": "view",
      "type": "function"
    },
    {
      "inputs": [],
      "name": "decimals",
      "outputs": [
        {
          "internalType": "uint8",
          "name": "",
          "type": "uint8"
        }
      ],
      "stateMutability": "view",
      "type": "function"
    },
    {
      "inputs": [],
      "name": "gov",
      "outputs": [
        {
          "internalType": "address",
          "name": "",
          "type": "address"
        }
      ],
      "stateMutability": "view",
      "type": "function"
    },
    {
      "inputs": [],
      "name": "inPrivateTransferMode",
      "outputs": [
        {
          "internalType": "bool",
          "name": "",
          "type": "bool"
        }
      ],
      "stateMutability": "view",
      "type": "function"
    },
    {
      "inputs": [
        {
          "internalType": "address",
          "name": "",
          "type": "address"
        }
      ],
      "name": "isHandler",
      "outputs": [
        {
          "internalType": "bool",
          "name": "",
          "type": "bool"
        }
      ],
      "stateMutability": "view",
      "type": "function"
    },
    {
      "inputs": [],
      "name": "name",
      "outputs": [
        {
          "internalType": "string",
          "name": "",
          "type": "string"
        }
      ],
      "stateMutability": "view",
      "type": "function"
    },
    {
      "inputs": [],
      "name": "symbol",
      "outputs": [
        {
          "internalType": "string",
          "name": "",
          "type": "string"
        }
      ],
      "stateMutability": "view",
      "type": "function"
    },
    {
      "inputs": [],
      "name": "totalSupply",
      "outputs": [
        {
          "internalType": "uint256",
          "name": "",
          "type": "uint256"
        }
      ],
      "stateMutability": "view",
      "type": "function"
    },
    {
      "inputs": [
        {
          "internalType": "address",
          "name": "_gov",
          "type": "address"
        }
      ],
      "name": "setGov",
      "outputs": [],
      "stateMutability": "nonpayable",
      "type": "function"
    },
    {
      "inputs": [
        {
          "internalType": "string",
          "name": "_name",
          "type": "string"
        },
        {
          "internalType": "string",
          "name": "_symbol",
          "type": "string"
        }
      ],
      "name": "setInfo",
      "outputs": [],
      "stateMutability": "nonpayable",
      "type": "function"
    },
    {
      "inputs": [
        {
          "internalType": "address",
          "name": "_account",
          "type": "address"
        }
      ],
      "name": "addAdmin",
      "outputs": [],
      "stateMutability": "nonpayable",
      "type": "function"
    },
    {
      "inputs": [
        {
          "internalType": "address",
          "name": "_account",
          "type": "address"
        }
      ],
      "name": "removeAdmin",
      "outputs": [],
      "stateMutability": "nonpayable",
      "type": "function"
    },
    {
      "inputs": [
        {
          "internalType": "address",
          "name": "_token",
          "type": "address"
        },
        {
          "internalType": "address",
          "name": "_account",
          "type": "address"
        },
        {
          "internalType": "uint256",
          "name": "_amount",
          "type": "uint256"
        }
      ],
      "name": "withdrawToken",
      "outputs": [],
      "stateMutability": "nonpayable",
      "type": "function"
    },
    {
      "inputs": [
        {
          "internalType": "bool",
          "name": "_inPrivateTransferMode",
          "type": "bool"
        }
      ],
      "name": "setInPrivateTransferMode",
      "outputs": [],
      "stateMutability": "nonpayable",
      "type": "function"
    },
    {
      "inputs": [
        {
          "internalType": "address",
          "name": "_handler",
          "type": "address"
        },
        {
          "internalType": "bool",
          "name": "_isActive",
          "type": "bool"
        }
      ],
      "name": "setHandler",
      "outputs": [],
      "stateMutability": "nonpayable",
      "type": "function"
    },
    {
      "inputs": [
        {
          "internalType": "address",
          "name": "_account",
          "type": "address"
        }
      ],
      "name": "balanceOf",
      "outputs": [
        {
          "internalType": "uint256",
          "name": "",
          "type": "uint256"
        }
      ],
      "stateMutability": "view",
      "type": "function"
    },
    {
      "inputs": [
        {
          "internalType": "address",
          "name": "_recipient",
          "type": "address"
        },
        {
          "internalType": "uint256",
          "name": "_amount",
          "type": "uint256"
        }
      ],
      "name": "transfer",
      "outputs": [
        {
          "internalType": "bool",
          "name": "",
          "type": "bool"
        }
      ],
      "stateMutability": "nonpayable",
      "type": "function"
    },
    {
      "inputs": [
        {
          "internalType": "address",
          "name": "_owner",
          "type": "address"
        },
        {
          "internalType": "address",
          "name": "_spender",
          "type": "address"
        }
      ],
      "name": "allowance",
      "outputs": [
        {
          "internalType": "uint256",
          "name": "",
          "type": "uint256"
        }
      ],
      "stateMutability": "view",
      "type": "function"
    },
    {
      "inputs": [
        {
          "internalType": "address",
          "name": "_spender",
          "type": "address"
        },
        {
          "internalType": "uint256",
          "name": "_amount",
          "type": "uint256"
        }
      ],
      "name": "approve",
      "outputs": [
        {
          "internalType": "bool",
          "name": "",
          "type": "bool"
        }
      ],
      "stateMutability": "nonpayable",
      "type": "function"
    },
    {
      "inputs": [
        {
          "internalType": "address",
          "name": "_sender",
          "type": "address"
        },
        {
          "internalType": "address",
          "name": "_recipient",
          "type": "address"
        },
        {
          "internalType": "uint256",
          "name": "_amount",
          "type": "uint256"
        }
      ],
      "name": "transferFrom",
      "outputs": [
        {
          "internalType": "bool",
          "name": "",
          "type": "bool"
        }
      ],
      "stateMutability": "nonpayable",
      "type": "function"
    }
  ],
  "bytecode": "0x60806040523480156200001157600080fd5b5060405162002c6f38038062002c6f8339818101604052810190620000379190620003fe565b82600090805190602001906200004f929190620002c5565b50816001908051906020019062000068929190620002c5565b5033600360006101000a81548173ffffffffffffffffffffffffffffffffffffffff021916908373ffffffffffffffffffffffffffffffffffffffff160217905550620000bc3382620000c560201b60201c565b505050620007ef565b600073ffffffffffffffffffffffffffffffffffffffff168273ffffffffffffffffffffffffffffffffffffffff16141562000138576040517f08c379a00000000000000000000000000000000000000000000000000000000081526004016200012f90620004e5565b60405180910390fd5b62000154816002546200026260201b62000e461790919060201c565b600281905550620001b381600460008573ffffffffffffffffffffffffffffffffffffffff1673ffffffffffffffffffffffffffffffffffffffff168152602001908152602001600020546200026260201b62000e461790919060201c565b600460008473ffffffffffffffffffffffffffffffffffffffff1673ffffffffffffffffffffffffffffffffffffffff168152602001908152602001600020819055508173ffffffffffffffffffffffffffffffffffffffff16600073ffffffffffffffffffffffffffffffffffffffff167fddf252ad1be2c89b69c2b068fc378daa952ba7f163c4a11628f55a4df523b3ef8360405162000256919062000529565b60405180910390a35050565b6000808284620002739190620005b6565b905083811015620002bb576040517f08c379a0000000000000000000000000000000000000000000000000000000008152600401620002b29062000507565b60405180910390fd5b8091505092915050565b828054620002d39062000653565b90600052602060002090601f016020900481019282620002f7576000855562000343565b82601f106200031257805160ff191683800117855562000343565b8280016001018555821562000343579182015b828111156200034257825182559160200191906001019062000325565b5b50905062000352919062000356565b5090565b5b808211156200037157600081600090555060010162000357565b5090565b60006200038c62000386846200056f565b62000546565b905082815260208101848484011115620003a557600080fd5b620003b28482856200061d565b509392505050565b600082601f830112620003cc57600080fd5b8151620003de84826020860162000375565b91505092915050565b600081519050620003f881620007d5565b92915050565b6000806000606084860312156200041457600080fd5b600084015167ffffffffffffffff8111156200042f57600080fd5b6200043d86828701620003ba565b935050602084015167ffffffffffffffff8111156200045b57600080fd5b6200046986828701620003ba565b92505060406200047c86828701620003e7565b9150509250925092565b600062000495602383620005a5565b9150620004a2826200075d565b604082019050919050565b6000620004bc601b83620005a5565b9150620004c982620007ac565b602082019050919050565b620004df8162000613565b82525050565b60006020820190508181036000830152620005008162000486565b9050919050565b600060208201905081810360008301526200052281620004ad565b9050919050565b6000602082019050620005406000830184620004d4565b92915050565b60006200055262000565565b905062000560828262000689565b919050565b6000604051905090565b600067ffffffffffffffff8211156200058d576200058c6200071d565b5b62000598826200074c565b9050602081019050919050565b600082825260208201905092915050565b6000620005c38262000613565b9150620005d08362000613565b9250827fffffffffffffffffffffffffffffffffffffffffffffffffffffffffffffffff03821115620006085762000607620006bf565b5b828201905092915050565b6000819050919050565b60005b838110156200063d57808201518184015260208101905062000620565b838111156200064d576000848401525b50505050565b600060028204905060018216806200066c57607f821691505b60208210811415620006835762000682620006ee565b5b50919050565b62000694826200074c565b810181811067ffffffffffffffff82111715620006b657620006b56200071d565b5b80604052505050565b7f4e487b7100000000000000000000000000000000000000000000000000000000600052601160045260246000fd5b7f4e487b7100000000000000000000000000000000000000000000000000000000600052602260045260246000fd5b7f4e487b7100000000000000000000000000000000000000000000000000000000600052604160045260246000fd5b6000601f19601f8301169050919050565b7f42617365546f6b656e3a206d696e7420746f20746865207a65726f206164647260008201527f6573730000000000000000000000000000000000000000000000000000000000602082015250565b7f536166654d6174683a206164646974696f6e206f766572666c6f770000000000600082015250565b620007e08162000613565b8114620007ec57600080fd5b50565b61247080620007ff6000396000f3fe608060405234801561001057600080fd5b50600436106101425760003560e01c806355b6ed5c116100b85780639cb7de4b1161007c5780639cb7de4b1461039d578063a9059cbb146103b9578063a923fc40146103e9578063cfad57a214610405578063dd62ed3e14610421578063dfbaefb11461045157610142565b806355b6ed5c146102e75780635a47a1a714610317578063704802751461033357806370a082311461034f57806395d89b411461037f57610142565b806318160ddd1161010a57806318160ddd146101eb57806323b872dd1461020957806327e235e314610239578063313ce56714610269578063429b62e51461028757806346ea87af146102b757610142565b806301e336671461014757806306fdde0314610163578063095ea7b31461018157806312d43a51146101b15780631785f53c146101cf575b600080fd5b610161600480360381019061015c91906118ba565b61046f565b005b61016b61052f565b6040516101789190611cb9565b60405180910390f35b61019b60048036038101906101969190611945565b6105bd565b6040516101a89190611c9e565b60405180910390f35b6101b96105d4565b6040516101c69190611c5a565b60405180910390f35b6101e960048036038101906101e49190611855565b6105fa565b005b6101f36106e5565b6040516102009190611e1b565b60405180910390f35b610223600480360381019061021e91906118ba565b6106eb565b6040516102309190611c9e565b60405180910390f35b610253600480360381019061024e9190611855565b610823565b6040516102609190611e1b565b60405180910390f35b61027161083b565b60405161027e9190611e36565b60405180910390f35b6102a1600480360381019061029c9190611855565b610840565b6040516102ae9190611c9e565b60405180910390f35b6102d160048036038101906102cc9190611855565b610860565b6040516102de9190611c9e565b60405180910390f35b61030160048036038101906102fc919061187e565b610880565b60405161030e9190611e1b565b60405180910390f35b610331600480360381019061032c9190611981565b6108a5565b005b61034d60048036038101906103489190611855565b610952565b005b61036960048036038101906103649190611855565b610a3d565b6040516103769190611e1b565b60405180910390f35b610387610a86565b6040516103949190611cb9565b60405180910390f35b6103b760048036038101906103b29190611909565b610b14565b005b6103d360048036038101906103ce9190611945565b610bff565b6040516103e09190611c9e565b60405180910390f35b61040360048036038101906103fe91906119d3565b610c16565b005b61041f600480360381019061041a9190611855565b610cd8565b005b61043b6004803603810190610436919061187e565b610dac565b6040516104489190611e1b565b60405180910390f35b610459610e33565b6040516104669190611c9e565b60405180910390f35b600360009054906101000a900473ffffffffffffffffffffffffffffffffffffffff1673ffffffffffffffffffffffffffffffffffffffff163373ffffffffffffffffffffffffffffffffffffffff16146104ff576040517f08c379a00000000000000000000000000000000000000000000000000000000081526004016104f690611d7b565b60405180910390fd5b61052a82828573ffffffffffffffffffffffffffffffffffffffff16610ea49092919063ffffffff16565b505050565b6000805461053c90611ffa565b80601f016020809104026020016040519081016040528092919081815260200182805461056890611ffa565b80156105b55780601f1061058a576101008083540402835291602001916105b5565b820191906000526020600020905b81548152906001019060200180831161059857829003601f168201915b505050505081565b60006105ca338484610f2a565b6001905092915050565b600360009054906101000a900473ffffffffffffffffffffffffffffffffffffffff1681565b600360009054906101000a900473ffffffffffffffffffffffffffffffffffffffff1673ffffffffffffffffffffffffffffffffffffffff163373ffffffffffffffffffffffffffffffffffffffff161461068a576040517f08c379a000000000000000000000000000000000000000000000000000000000815260040161068190611d7b565b60405180910390fd5b6000600660008373ffffffffffffffffffffffffffffffffffffffff1673ffffffffffffffffffffffffffffffffffffffff16815260200190815260200160002060006101000a81548160ff02191690831515021790555050565b60025481565b6000600860003373ffffffffffffffffffffffffffffffffffffffff1673ffffffffffffffffffffffffffffffffffffffff16815260200190815260200160002060009054906101000a900460ff16156107535761074a8484846110f5565b6001905061081c565b60006107fe836040518060600160405280602c81526020016123e5602c9139600560008973ffffffffffffffffffffffffffffffffffffffff1673ffffffffffffffffffffffffffffffffffffffff16815260200190815260200160002060003373ffffffffffffffffffffffffffffffffffffffff1673ffffffffffffffffffffffffffffffffffffffff168152602001908152602001600020546114259092919063ffffffff16565b905061080b853383610f2a565b6108168585856110f5565b60019150505b9392505050565b60046020528060005260406000206000915090505481565b601281565b60066020528060005260406000206000915054906101000a900460ff1681565b60086020528060005260406000206000915054906101000a900460ff1681565b6005602052816000526040600020602052806000526040600020600091509150505481565b600360009054906101000a900473ffffffffffffffffffffffffffffffffffffffff1673ffffffffffffffffffffffffffffffffffffffff163373ffffffffffffffffffffffffffffffffffffffff1614610935576040517f08c379a000000000000000000000000000000000000000000000000000000000815260040161092c90611d7b565b60405180910390fd5b80600760006101000a81548160ff02191690831515021790555050565b600360009054906101000a900473ffffffffffffffffffffffffffffffffffffffff1673ffffffffffffffffffffffffffffffffffffffff163373ffffffffffffffffffffffffffffffffffffffff16146109e2576040517f08c379a00000000000000000000000000000000000000000000000000000000081526004016109d990611d7b565b60405180910390fd5b6001600660008373ffffffffffffffffffffffffffffffffffffffff1673ffffffffffffffffffffffffffffffffffffffff16815260200190815260200160002060006101000a81548160ff02191690831515021790555050565b6000600460008373ffffffffffffffffffffffffffffffffffffffff1673ffffffffffffffffffffffffffffffffffffffff168152602001908152602001600020549050919050565b60018054610a9390611ffa565b80601f0160208091040260200160405190810160405280929190818152602001828054610abf90611ffa565b8015610b0c5780601f10610ae157610100808354040283529160200191610b0c565b820191906000526020600020905b815481529060010190602001808311610aef57829003601f168201915b505050505081565b600360009054906101000a900473ffffffffffffffffffffffffffffffffffffffff1673ffffffffffffffffffffffffffffffffffffffff163373ffffffffffffffffffffffffffffffffffffffff1614610ba4576040517f08c379a0000000000000000000000000000000000000000000000000000000008152600401610b9b90611d7b565b60405180910390fd5b80600860008473ffffffffffffffffffffffffffffffffffffffff1673ffffffffffffffffffffffffffffffffffffffff16815260200190815260200160002060006101000a81548160ff0219169083151502179055505050565b6000610c0c3384846110f5565b6001905092915050565b600360009054906101000a900473ffffffffffffffffffffffffffffffffffffffff1673ffffffffffffffffffffffffffffffffffffffff163373ffffffffffffffffffffffffffffffffffffffff1614610ca6576040517f08c379a0000000000000000000000000000000000000000000000000000000008152600401610c9d90611d7b565b60405180910390fd5b8160009080519060200190610cbc9291906116f6565b508060019080519060200190610cd39291906116f6565b505050565b600360009054906101000a900473ffffffffffffffffffffffffffffffffffffffff1673ffffffffffffffffffffffffffffffffffffffff163373ffffffffffffffffffffffffffffffffffffffff1614610d68576040517f08c379a0000000000000000000000000000000000000000000000000000000008152600401610d5f90611d7b565b60405180910390fd5b80600360006101000a81548173ffffffffffffffffffffffffffffffffffffffff021916908373ffffffffffffffffffffffffffffffffffffffff16021790555050565b6000600560008473ffffffffffffffffffffffffffffffffffffffff1673ffffffffffffffffffffffffffffffffffffffff16815260200190815260200160002060008373ffffffffffffffffffffffffffffffffffffffff1673ffffffffffffffffffffffffffffffffffffffff16815260200190815260200160002054905092915050565b600760009054906101000a900460ff1681565b6000808284610e559190611ed9565b905083811015610e9a576040517f08c379a0000000000000000000000000000000000000000000000000000000008152600401610e9190611d3b565b60405180910390fd5b8091505092915050565b610f258363a9059cbb60e01b8484604051602401610ec3929190611c75565b604051602081830303815290604052907bffffffffffffffffffffffffffffffffffffffffffffffffffffffff19166020820180517bffffffffffffffffffffffffffffffffffffffffffffffffffffffff8381831617835250505050611489565b505050565b600073ffffffffffffffffffffffffffffffffffffffff168373ffffffffffffffffffffffffffffffffffffffff161415610f9a576040517f08c379a0000000000000000000000000000000000000000000000000000000008152600401610f9190611d9b565b60405180910390fd5b600073ffffffffffffffffffffffffffffffffffffffff168273ffffffffffffffffffffffffffffffffffffffff16141561100a576040517f08c379a000000000000000000000000000000000000000000000000000000000815260040161100190611d1b565b60405180910390fd5b80600560008573ffffffffffffffffffffffffffffffffffffffff1673ffffffffffffffffffffffffffffffffffffffff16815260200190815260200160002060008473ffffffffffffffffffffffffffffffffffffffff1673ffffffffffffffffffffffffffffffffffffffff168152602001908152602001600020819055508173ffffffffffffffffffffffffffffffffffffffff168373ffffffffffffffffffffffffffffffffffffffff167f8c5be1e5ebec7d5bd14f71427d1e84f3dd0314c0f7b2291e5b200ac8c7c3b925836040516110e89190611e1b565b60405180910390a3505050565b600073ffffffffffffffffffffffffffffffffffffffff168373ffffffffffffffffffffffffffffffffffffffff161415611165576040517f08c379a000000000000000000000000000000000000000000000000000000000815260040161115c90611dfb565b60405180910390fd5b600073ffffffffffffffffffffffffffffffffffffffff168273ffffffffffffffffffffffffffffffffffffffff1614156111d5576040517f08c379a00000000000000000000000000000000000000000000000000000000081526004016111cc90611cfb565b60405180910390fd5b600760009054906101000a900460ff161561127757600860003373ffffffffffffffffffffffffffffffffffffffff1673ffffffffffffffffffffffffffffffffffffffff16815260200190815260200160002060009054906101000a900460ff16611276576040517f08c379a000000000000000000000000000000000000000000000000000000000815260040161126d90611cdb565b60405180910390fd5b5b6112e3816040518060600160405280602a8152602001612411602a9139600460008773ffffffffffffffffffffffffffffffffffffffff1673ffffffffffffffffffffffffffffffffffffffff168152602001908152602001600020546114259092919063ffffffff16565b600460008573ffffffffffffffffffffffffffffffffffffffff1673ffffffffffffffffffffffffffffffffffffffff1681526020019081526020016000208190555061137881600460008573ffffffffffffffffffffffffffffffffffffffff1673ffffffffffffffffffffffffffffffffffffffff16815260200190815260200160002054610e4690919063ffffffff16565b600460008473ffffffffffffffffffffffffffffffffffffffff1673ffffffffffffffffffffffffffffffffffffffff168152602001908152602001600020819055508173ffffffffffffffffffffffffffffffffffffffff168373ffffffffffffffffffffffffffffffffffffffff167fddf252ad1be2c89b69c2b068fc378daa952ba7f163c4a11628f55a4df523b3ef836040516114189190611e1b565b60405180910390a3505050565b600083831115829061146d576040517f08c379a00000000000000000000000000000000000000000000000000000000081526004016114649190611cb9565b60405180910390fd5b506000838561147c9190611f2f565b9050809150509392505050565b60006114eb826040518060400160405280602081526020017f5361666545524332303a206c6f772d6c6576656c2063616c6c206661696c65648152508573ffffffffffffffffffffffffffffffffffffffff166115509092919063ffffffff16565b905060008151111561154b578080602001905181019061150b91906119aa565b61154a576040517f08c379a000000000000000000000000000000000000000000000000000000000815260040161154190611ddb565b60405180910390fd5b5b505050565b606061155f8484600085611568565b90509392505050565b6060824710156115ad576040517f08c379a00000000000000000000000000000000000000000000000000000000081526004016115a490611d5b565b60405180910390fd5b6115b68561167c565b6115f5576040517f08c379a00000000000000000000000000000000000000000000000000000000081526004016115ec90611dbb565b60405180910390fd5b6000808673ffffffffffffffffffffffffffffffffffffffff16858760405161161e9190611c43565b60006040518083038185875af1925050503d806000811461165b576040519150601f19603f3d011682016040523d82523d6000602084013e611660565b606091505b509150915061167082828661168f565b92505050949350505050565b600080823b905060008111915050919050565b6060831561169f578290506116ef565b6000835111156116b25782518084602001fd5b816040517f08c379a00000000000000000000000000000000000000000000000000000000081526004016116e69190611cb9565b60405180910390fd5b9392505050565b82805461170290611ffa565b90600052602060002090601f016020900481019282611724576000855561176b565b82601f1061173d57805160ff191683800117855561176b565b8280016001018555821561176b579182015b8281111561176a57825182559160200191906001019061174f565b5b509050611778919061177c565b5090565b5b8082111561179557600081600090555060010161177d565b5090565b60006117ac6117a784611e76565b611e51565b9050828152602081018484840111156117c457600080fd5b6117cf848285611fb8565b509392505050565b6000813590506117e68161239f565b92915050565b6000813590506117fb816123b6565b92915050565b600081519050611810816123b6565b92915050565b600082601f83011261182757600080fd5b8135611837848260208601611799565b91505092915050565b60008135905061184f816123cd565b92915050565b60006020828403121561186757600080fd5b6000611875848285016117d7565b91505092915050565b6000806040838503121561189157600080fd5b600061189f858286016117d7565b92505060206118b0858286016117d7565b9150509250929050565b6000806000606084860312156118cf57600080fd5b60006118dd868287016117d7565b93505060206118ee868287016117d7565b92505060406118ff86828701611840565b9150509250925092565b6000806040838503121561191c57600080fd5b600061192a858286016117d7565b925050602061193b858286016117ec565b9150509250929050565b6000806040838503121561195857600080fd5b6000611966858286016117d7565b925050602061197785828601611840565b9150509250929050565b60006020828403121561199357600080fd5b60006119a1848285016117ec565b91505092915050565b6000602082840312156119bc57600080fd5b60006119ca84828501611801565b91505092915050565b600080604083850312156119e657600080fd5b600083013567ffffffffffffffff811115611a0057600080fd5b611a0c85828601611816565b925050602083013567ffffffffffffffff811115611a2957600080fd5b611a3585828601611816565b9150509250929050565b611a4881611f63565b82525050565b611a5781611f75565b82525050565b6000611a6882611ea7565b611a728185611ebd565b9350611a82818560208601611fc7565b80840191505092915050565b6000611a9982611eb2565b611aa38185611ec8565b9350611ab3818560208601611fc7565b611abc816120ea565b840191505092915050565b6000611ad4602583611ec8565b9150611adf826120fb565b604082019050919050565b6000611af7602783611ec8565b9150611b028261214a565b604082019050919050565b6000611b1a602683611ec8565b9150611b2582612199565b604082019050919050565b6000611b3d601b83611ec8565b9150611b48826121e8565b602082019050919050565b6000611b60602683611ec8565b9150611b6b82612211565b604082019050919050565b6000611b83601483611ec8565b9150611b8e82612260565b602082019050919050565b6000611ba6602883611ec8565b9150611bb182612289565b604082019050919050565b6000611bc9601d83611ec8565b9150611bd4826122d8565b602082019050919050565b6000611bec602a83611ec8565b9150611bf782612301565b604082019050919050565b6000611c0f602983611ec8565b9150611c1a82612350565b604082019050919050565b611c2e81611fa1565b82525050565b611c3d81611fab565b82525050565b6000611c4f8284611a5d565b915081905092915050565b6000602082019050611c6f6000830184611a3f565b92915050565b6000604082019050611c8a6000830185611a3f565b611c976020830184611c25565b9392505050565b6000602082019050611cb36000830184611a4e565b92915050565b60006020820190508181036000830152611cd38184611a8e565b905092915050565b60006020820190508181036000830152611cf481611ac7565b9050919050565b60006020820190508181036000830152611d1481611aea565b9050919050565b60006020820190508181036000830152611d3481611b0d565b9050919050565b60006020820190508181036000830152611d5481611b30565b9050919050565b60006020820190508181036000830152611d7481611b53565b9050919050565b60006020820190508181036000830152611d9481611b76565b9050919050565b60006020820190508181036000830152611db481611b99565b9050919050565b60006020820190508181036000830152611dd481611bbc565b9050919050565b60006020820190508181036000830152611df481611bdf565b9050919050565b60006020820190508181036000830152611e1481611c02565b9050919050565b6000602082019050611e306000830184611c25565b92915050565b6000602082019050611e4b6000830184611c34565b92915050565b6000611e5b611e6c565b9050611e67828261202c565b919050565b6000604051905090565b600067ffffffffffffffff821115611e9157611e906120bb565b5b611e9a826120ea565b9050602081019050919050565b600081519050919050565b600081519050919050565b600081905092915050565b600082825260208201905092915050565b6000611ee482611fa1565b9150611eef83611fa1565b9250827fffffffffffffffffffffffffffffffffffffffffffffffffffffffffffffffff03821115611f2457611f2361205d565b5b828201905092915050565b6000611f3a82611fa1565b9150611f4583611fa1565b925082821015611f5857611f5761205d565b5b828203905092915050565b6000611f6e82611f81565b9050919050565b60008115159050919050565b600073ffffffffffffffffffffffffffffffffffffffff82169050919050565b6000819050919050565b600060ff82169050919050565b82818337600083830152505050565b60005b83811015611fe5578082015181840152602081019050611fca565b83811115611ff4576000848401525b50505050565b6000600282049050600182168061201257607f821691505b602082108114156120265761202561208c565b5b50919050565b612035826120ea565b810181811067ffffffffffffffff82111715612054576120536120bb565b5b80604052505050565b7f4e487b7100000000000000000000000000000000000000000000000000000000600052601160045260246000fd5b7f4e487b7100000000000000000000000000000000000000000000000000000000600052602260045260246000fd5b7f4e487b7100000000000000000000000000000000000000000000000000000000600052604160045260246000fd5b6000601f19601f8301169050919050565b7f42617365546f6b656e3a206d73672e73656e646572206e6f742077686974656c60008201527f6973746564000000000000000000000000000000000000000000000000000000602082015250565b7f42617365546f6b656e3a207472616e7366657220746f20746865207a65726f2060008201527f6164647265737300000000000000000000000000000000000000000000000000602082015250565b7f42617365546f6b656e3a20617070726f766520746f20746865207a65726f206160008201527f6464726573730000000000000000000000000000000000000000000000000000602082015250565b7f536166654d6174683a206164646974696f6e206f766572666c6f770000000000600082015250565b7f416464726573733a20696e73756666696369656e742062616c616e636520666f60008201527f722063616c6c0000000000000000000000000000000000000000000000000000602082015250565b7f42617365546f6b656e3a20666f7262696464656e000000000000000000000000600082015250565b7f42617365546f6b656e3a20617070726f76652066726f6d20746865207a65726f60008201527f2061646472657373000000000000000000000000000000000000000000000000602082015250565b7f416464726573733a2063616c6c20746f206e6f6e2d636f6e7472616374000000600082015250565b7f5361666545524332303a204552433230206f7065726174696f6e20646964206e60008201527f6f74207375636365656400000000000000000000000000000000000000000000602082015250565b7f42617365546f6b656e3a207472616e736665722066726f6d20746865207a657260008201527f6f20616464726573730000000000000000000000000000000000000000000000602082015250565b6123a881611f63565b81146123b357600080fd5b50565b6123bf81611f75565b81146123ca57600080fd5b50565b6123d681611fa1565b81146123e157600080fd5b5056fe42617365546f6b656e3a207472616e7366657220616d6f756e74206578636565647320616c6c6f77616e636542617365546f6b656e3a207472616e7366657220616d6f756e7420657863656564732062616c616e6365a26469706673582212205e826606d2d8481b5da6419f46969addf6bc0cda5974e6af38cdac9ae79f280164736f6c63430008040033",
  "immutableReferences": {},
  "source": "// SPDX-License-Identifier: MIT\n\npragma solidity >=0.6.12;\n\nimport \"../libraries/SafeMath.sol\";\nimport \"../libraries/IERC20.sol\";\nimport \"../libraries/SafeERC20.sol\";\n\ncontract BaseToken is IERC20 {\n    using SafeMath for uint256;\n    using SafeERC20 for IERC20;\n\n    string public name;\n    string public symbol;\n    uint8 public constant decimals = 18;\n\n    uint256 public override totalSupply;\n\n    address public gov;\n\n    mapping (address => uint256) public balances;\n    mapping (address => mapping (address => uint256)) public allowances;\n\n    mapping (address => bool) public admins;\n\n    bool public inPrivateTransferMode;\n    mapping (address => bool) public isHandler;\n\n    modifier onlyGov() {\n        require(msg.sender == gov, \"BaseToken: forbidden\");\n        _;\n    }\n\n    modifier onlyAdmin() {\n        require(admins[msg.sender], \"BaseToken: forbidden\");\n        _;\n    }\n\n    constructor(string memory _name, string memory _symbol, uint256 _initialSupply) {\n        name = _name;\n        symbol = _symbol;\n        gov = msg.sender;\n        _mint(msg.sender, _initialSupply);\n    }\n\n    function setGov(address _gov) external onlyGov {\n        gov = _gov;\n    }\n\n    function setInfo(string memory _name, string memory _symbol) external onlyGov {\n        name = _name;\n        symbol = _symbol;\n    }\n\n    function addAdmin(address _account) external onlyGov {\n        admins[_account] = true;\n    }\n\n    function removeAdmin(address _account) external onlyGov {\n        admins[_account] = false;\n    }\n\n    // to help users who accidentally send their tokens to this contract\n    function withdrawToken(address _token, address _account, uint256 _amount) external onlyGov {\n        IERC20(_token).safeTransfer(_account, _amount);\n    }\n\n    function setInPrivateTransferMode(bool _inPrivateTransferMode) external onlyGov {\n        inPrivateTransferMode = _inPrivateTransferMode;\n    }\n\n    function setHandler(address _handler, bool _isActive) external onlyGov {\n        isHandler[_handler] = _isActive;\n    }\n\n    function balanceOf(address _account) external view override returns (uint256) {\n        return balances[_account];\n    }\n\n    function transfer(address _recipient, uint256 _amount) external override returns (bool) {\n        _transfer(msg.sender, _recipient, _amount);\n        return true;\n    }\n\n    function allowance(address _owner, address _spender) external view override returns (uint256) {\n        return allowances[_owner][_spender];\n    }\n\n    function approve(address _spender, uint256 _amount) external override returns (bool) {\n        _approve(msg.sender, _spender, _amount);\n        return true;\n    }\n\n    function transferFrom(address _sender, address _recipient, uint256 _amount) external override returns (bool) {\n        if (isHandler[msg.sender]) {\n            _transfer(_sender, _recipient, _amount);\n            return true;\n        }\n        uint256 nextAllowance = allowances[_sender][msg.sender].sub(_amount, \"BaseToken: transfer amount exceeds allowance\");\n        _approve(_sender, msg.sender, nextAllowance);\n        _transfer(_sender, _recipient, _amount);\n        return true;\n    }\n\n    function _mint(address _account, uint256 _amount) internal {\n        require(_account != address(0), \"BaseToken: mint to the zero address\");\n\n        totalSupply = totalSupply.add(_amount);\n        balances[_account] = balances[_account].add(_amount);\n\n        emit Transfer(address(0), _account, _amount);\n    }\n\n    function _burn(address _account, uint256 _amount) internal {\n        require(_account != address(0), \"BaseToken: burn from the zero address\");\n\n        balances[_account] = balances[_account].sub(_amount, \"BaseToken: burn amount exceeds balance\");\n        totalSupply = totalSupply.sub(_amount);\n\n        emit Transfer(_account, address(0), _amount);\n    }\n\n    function _transfer(address _sender, address _recipient, uint256 _amount) private {\n        require(_sender != address(0), \"BaseToken: transfer from the zero address\");\n        require(_recipient != address(0), \"BaseToken: transfer to the zero address\");\n\n        if (inPrivateTransferMode) {\n            require(isHandler[msg.sender], \"BaseToken: msg.sender not whitelisted\");\n        }\n\n        balances[_sender] = balances[_sender].sub(_amount, \"BaseToken: transfer amount exceeds balance\");\n        balances[_recipient] = balances[_recipient].add(_amount);\n\n        emit Transfer(_sender, _recipient,_amount);\n    }\n\n    function _approve(address _owner, address _spender, uint256 _amount) private {\n        require(_owner != address(0), \"BaseToken: approve from the zero address\");\n        require(_spender != address(0), \"BaseToken: approve to the zero address\");\n\n        allowances[_owner][_spender] = _amount;\n\n        emit Approval(_owner, _spender, _amount);\n    }\n}\n",
  "sourcePath": "/Users/rohanshrothrium/Documents/kuru-contracts/contracts/tokens/BaseToken.sol",
  "compiler": {
    "name": "solc",
    "version": "0.8.4+commit.c7e474f2.Emscripten.clang"
  },
  "schemaVersion": "3.4.13",
  "updatedAt": "2023-05-04T09:09:53.965Z",
  "devdoc": {
    "kind": "dev",
    "methods": {},
    "stateVariables": {
      "totalSupply": {
        "details": "Returns the amount of tokens in existence."
      }
    },
    "version": 1
  },
  "userdoc": {
    "kind": "user",
    "methods": {},
    "version": 1
  }
}