{
  "contractName": "KLP",
  "abi": [
    {
      "inputs": [],
      "stateMutability": "nonpayable",
      "type": "constructor"
    },
    {
      "anonymous": false,
      "inputs": [
        {
          "indexed": true,
          "internalType": "address",
          "name": "owner",
          "type": "address"
        },
        {
          "indexed": true,
          "internalType": "address",
          "name": "spender",
          "type": "address"
        },
        {
          "indexed": false,
          "internalType": "uint256",
          "name": "value",
          "type": "uint256"
        }
      ],
      "name": "Approval",
      "type": "event"
    },
    {
      "anonymous": false,
      "inputs": [
        {
          "indexed": true,
          "internalType": "address",
          "name": "from",
          "type": "address"
        },
        {
          "indexed": true,
          "internalType": "address",
          "name": "to",
          "type": "address"
        },
        {
          "indexed": false,
          "internalType": "uint256",
          "name": "value",
          "type": "uint256"
        }
      ],
      "name": "Transfer",
      "type": "event"
    },
    {
      "inputs": [
        {
          "internalType": "address",
          "name": "_account",
          "type": "address"
        }
      ],
      "name": "addAdmin",
      "outputs": [],
      "stateMutability": "nonpayable",
      "type": "function"
    },
    {
      "inputs": [
        {
          "internalType": "address",
          "name": "",
          "type": "address"
        }
      ],
      "name": "admins",
      "outputs": [
        {
          "internalType": "bool",
          "name": "",
          "type": "bool"
        }
      ],
      "stateMutability": "view",
      "type": "function",
      "constant": true
    },
    {
      "inputs": [
        {
          "internalType": "address",
          "name": "_owner",
          "type": "address"
        },
        {
          "internalType": "address",
          "name": "_spender",
          "type": "address"
        }
      ],
      "name": "allowance",
      "outputs": [
        {
          "internalType": "uint256",
          "name": "",
          "type": "uint256"
        }
      ],
      "stateMutability": "view",
      "type": "function",
      "constant": true
    },
    {
      "inputs": [
        {
          "internalType": "address",
          "name": "",
          "type": "address"
        },
        {
          "internalType": "address",
          "name": "",
          "type": "address"
        }
      ],
      "name": "allowances",
      "outputs": [
        {
          "internalType": "uint256",
          "name": "",
          "type": "uint256"
        }
      ],
      "stateMutability": "view",
      "type": "function",
      "constant": true
    },
    {
      "inputs": [
        {
          "internalType": "address",
          "name": "_spender",
          "type": "address"
        },
        {
          "internalType": "uint256",
          "name": "_amount",
          "type": "uint256"
        }
      ],
      "name": "approve",
      "outputs": [
        {
          "internalType": "bool",
          "name": "",
          "type": "bool"
        }
      ],
      "stateMutability": "nonpayable",
      "type": "function"
    },
    {
      "inputs": [
        {
          "internalType": "address",
          "name": "_account",
          "type": "address"
        }
      ],
      "name": "balanceOf",
      "outputs": [
        {
          "internalType": "uint256",
          "name": "",
          "type": "uint256"
        }
      ],
      "stateMutability": "view",
      "type": "function",
      "constant": true
    },
    {
      "inputs": [
        {
          "internalType": "address",
          "name": "",
          "type": "address"
        }
      ],
      "name": "balances",
      "outputs": [
        {
          "internalType": "uint256",
          "name": "",
          "type": "uint256"
        }
      ],
      "stateMutability": "view",
      "type": "function",
      "constant": true
    },
    {
      "inputs": [
        {
          "internalType": "address",
          "name": "_account",
          "type": "address"
        },
        {
          "internalType": "uint256",
          "name": "_amount",
          "type": "uint256"
        }
      ],
      "name": "burn",
      "outputs": [],
      "stateMutability": "nonpayable",
      "type": "function"
    },
    {
      "inputs": [],
      "name": "decimals",
      "outputs": [
        {
          "internalType": "uint8",
          "name": "",
          "type": "uint8"
        }
      ],
      "stateMutability": "view",
      "type": "function",
      "constant": true
    },
    {
      "inputs": [],
      "name": "gov",
      "outputs": [
        {
          "internalType": "address",
          "name": "",
          "type": "address"
        }
      ],
      "stateMutability": "view",
      "type": "function",
      "constant": true
    },
    {
      "inputs": [],
      "name": "inPrivateTransferMode",
      "outputs": [
        {
          "internalType": "bool",
          "name": "",
          "type": "bool"
        }
      ],
      "stateMutability": "view",
      "type": "function",
      "constant": true
    },
    {
      "inputs": [
        {
          "internalType": "address",
          "name": "",
          "type": "address"
        }
      ],
      "name": "isHandler",
      "outputs": [
        {
          "internalType": "bool",
          "name": "",
          "type": "bool"
        }
      ],
      "stateMutability": "view",
      "type": "function",
      "constant": true
    },
    {
      "inputs": [
        {
          "internalType": "address",
          "name": "",
          "type": "address"
        }
      ],
      "name": "isMinter",
      "outputs": [
        {
          "internalType": "bool",
          "name": "",
          "type": "bool"
        }
      ],
      "stateMutability": "view",
      "type": "function",
      "constant": true
    },
    {
      "inputs": [
        {
          "internalType": "address",
          "name": "_account",
          "type": "address"
        },
        {
          "internalType": "uint256",
          "name": "_amount",
          "type": "uint256"
        }
      ],
      "name": "mint",
      "outputs": [],
      "stateMutability": "nonpayable",
      "type": "function"
    },
    {
      "inputs": [],
      "name": "name",
      "outputs": [
        {
          "internalType": "string",
          "name": "",
          "type": "string"
        }
      ],
      "stateMutability": "view",
      "type": "function",
      "constant": true
    },
    {
      "inputs": [
        {
          "internalType": "address",
          "name": "_account",
          "type": "address"
        }
      ],
      "name": "removeAdmin",
      "outputs": [],
      "stateMutability": "nonpayable",
      "type": "function"
    },
    {
      "inputs": [
        {
          "internalType": "address",
          "name": "_gov",
          "type": "address"
        }
      ],
      "name": "setGov",
      "outputs": [],
      "stateMutability": "nonpayable",
      "type": "function"
    },
    {
      "inputs": [
        {
          "internalType": "address",
          "name": "_handler",
          "type": "address"
        },
        {
          "internalType": "bool",
          "name": "_isActive",
          "type": "bool"
        }
      ],
      "name": "setHandler",
      "outputs": [],
      "stateMutability": "nonpayable",
      "type": "function"
    },
    {
      "inputs": [
        {
          "internalType": "bool",
          "name": "_inPrivateTransferMode",
          "type": "bool"
        }
      ],
      "name": "setInPrivateTransferMode",
      "outputs": [],
      "stateMutability": "nonpayable",
      "type": "function"
    },
    {
      "inputs": [
        {
          "internalType": "string",
          "name": "_name",
          "type": "string"
        },
        {
          "internalType": "string",
          "name": "_symbol",
          "type": "string"
        }
      ],
      "name": "setInfo",
      "outputs": [],
      "stateMutability": "nonpayable",
      "type": "function"
    },
    {
      "inputs": [
        {
          "internalType": "address",
          "name": "_minter",
          "type": "address"
        },
        {
          "internalType": "bool",
          "name": "_isActive",
          "type": "bool"
        }
      ],
      "name": "setMinter",
      "outputs": [],
      "stateMutability": "nonpayable",
      "type": "function"
    },
    {
      "inputs": [],
      "name": "symbol",
      "outputs": [
        {
          "internalType": "string",
          "name": "",
          "type": "string"
        }
      ],
      "stateMutability": "view",
      "type": "function",
      "constant": true
    },
    {
      "inputs": [],
      "name": "totalSupply",
      "outputs": [
        {
          "internalType": "uint256",
          "name": "",
          "type": "uint256"
        }
      ],
      "stateMutability": "view",
      "type": "function",
      "constant": true
    },
    {
      "inputs": [
        {
          "internalType": "address",
          "name": "_recipient",
          "type": "address"
        },
        {
          "internalType": "uint256",
          "name": "_amount",
          "type": "uint256"
        }
      ],
      "name": "transfer",
      "outputs": [
        {
          "internalType": "bool",
          "name": "",
          "type": "bool"
        }
      ],
      "stateMutability": "nonpayable",
      "type": "function"
    },
    {
      "inputs": [
        {
          "internalType": "address",
          "name": "_sender",
          "type": "address"
        },
        {
          "internalType": "address",
          "name": "_recipient",
          "type": "address"
        },
        {
          "internalType": "uint256",
          "name": "_amount",
          "type": "uint256"
        }
      ],
      "name": "transferFrom",
      "outputs": [
        {
          "internalType": "bool",
          "name": "",
          "type": "bool"
        }
      ],
      "stateMutability": "nonpayable",
      "type": "function"
    },
    {
      "inputs": [
        {
          "internalType": "address",
          "name": "_token",
          "type": "address"
        },
        {
          "internalType": "address",
          "name": "_account",
          "type": "address"
        },
        {
          "internalType": "uint256",
          "name": "_amount",
          "type": "uint256"
        }
      ],
      "name": "withdrawToken",
      "outputs": [],
      "stateMutability": "nonpayable",
      "type": "function"
    },
    {
      "inputs": [],
      "name": "id",
      "outputs": [
        {
          "internalType": "string",
          "name": "_name",
          "type": "string"
        }
      ],
      "stateMutability": "pure",
      "type": "function",
      "constant": true
    }
  ],
  "bytecode": "0x60806040523480156200001157600080fd5b506040518060400160405280600781526020017f4b757275204c50000000000000000000000000000000000000000000000000008152506040518060400160405280600381526020017f4b4c500000000000000000000000000000000000000000000000000000000000815250600082828282600090805190602001906200009b92919062000314565b508160019080519060200190620000b492919062000314565b5033600360006101000a81548173ffffffffffffffffffffffffffffffffffffffff021916908373ffffffffffffffffffffffffffffffffffffffff1602179055506200010833826200011460201b60201c565b50505050505062000608565b600073ffffffffffffffffffffffffffffffffffffffff168273ffffffffffffffffffffffffffffffffffffffff16141562000187576040517f08c379a00000000000000000000000000000000000000000000000000000000081526004016200017e9062000423565b60405180910390fd5b620001a381600254620002b160201b620011cb1790919060201c565b6002819055506200020281600460008573ffffffffffffffffffffffffffffffffffffffff1673ffffffffffffffffffffffffffffffffffffffff16815260200190815260200160002054620002b160201b620011cb1790919060201c565b600460008473ffffffffffffffffffffffffffffffffffffffff1673ffffffffffffffffffffffffffffffffffffffff168152602001908152602001600020819055508173ffffffffffffffffffffffffffffffffffffffff16600073ffffffffffffffffffffffffffffffffffffffff167fddf252ad1be2c89b69c2b068fc378daa952ba7f163c4a11628f55a4df523b3ef83604051620002a5919062000467565b60405180910390a35050565b6000808284620002c2919062000495565b9050838110156200030a576040517f08c379a0000000000000000000000000000000000000000000000000000000008152600401620003019062000445565b60405180910390fd5b8091505092915050565b8280546200032290620004fc565b90600052602060002090601f01602090048101928262000346576000855562000392565b82601f106200036157805160ff191683800117855562000392565b8280016001018555821562000392579182015b828111156200039157825182559160200191906001019062000374565b5b509050620003a19190620003a5565b5090565b5b80821115620003c0576000816000905550600101620003a6565b5090565b6000620003d360238362000484565b9150620003e08262000590565b604082019050919050565b6000620003fa601b8362000484565b91506200040782620005df565b602082019050919050565b6200041d81620004f2565b82525050565b600060208201905081810360008301526200043e81620003c4565b9050919050565b600060208201905081810360008301526200046081620003eb565b9050919050565b60006020820190506200047e600083018462000412565b92915050565b600082825260208201905092915050565b6000620004a282620004f2565b9150620004af83620004f2565b9250827fffffffffffffffffffffffffffffffffffffffffffffffffffffffffffffffff03821115620004e757620004e662000532565b5b828201905092915050565b6000819050919050565b600060028204905060018216806200051557607f821691505b602082108114156200052c576200052b62000561565b5b50919050565b7f4e487b7100000000000000000000000000000000000000000000000000000000600052601160045260246000fd5b7f4e487b7100000000000000000000000000000000000000000000000000000000600052602260045260246000fd5b7f42617365546f6b656e3a206d696e7420746f20746865207a65726f206164647260008201527f6573730000000000000000000000000000000000000000000000000000000000602082015250565b7f536166654d6174683a206164646974696f6e206f766572666c6f770000000000600082015250565b612d2380620006186000396000f3fe608060405234801561001057600080fd5b50600436106101a95760003560e01c80635a47a1a7116100f9578063a923fc4011610097578063cf456ae711610071578063cf456ae7146104f2578063cfad57a21461050e578063dd62ed3e1461052a578063dfbaefb11461055a576101a9565b8063a923fc4014610488578063aa271e1a146104a4578063af640d0f146104d4576101a9565b806395d89b41116100d357806395d89b41146104025780639cb7de4b146104205780639dc29fac1461043c578063a9059cbb14610458576101a9565b80635a47a1a71461039a57806370480275146103b657806370a08231146103d2576101a9565b806323b872dd1161016657806340c10f191161014057806340c10f19146102ee578063429b62e51461030a57806346ea87af1461033a57806355b6ed5c1461036a576101a9565b806323b872dd1461027057806327e235e3146102a0578063313ce567146102d0576101a9565b806301e33667146101ae57806306fdde03146101ca578063095ea7b3146101e857806312d43a51146102185780631785f53c1461023657806318160ddd14610252575b600080fd5b6101c860048036038101906101c39190611fb7565b610578565b005b6101d2610638565b6040516101df919061241f565b60405180910390f35b61020260048036038101906101fd9190612042565b6106c6565b60405161020f9190612404565b60405180910390f35b6102206106dd565b60405161022d91906123c0565b60405180910390f35b610250600480360381019061024b9190611f52565b610703565b005b61025a6107ee565b60405161026791906125e1565b60405180910390f35b61028a60048036038101906102859190611fb7565b6107f4565b6040516102979190612404565b60405180910390f35b6102ba60048036038101906102b59190611f52565b61092c565b6040516102c791906125e1565b60405180910390f35b6102d8610944565b6040516102e591906125fc565b60405180910390f35b61030860048036038101906103039190612042565b610949565b005b610324600480360381019061031f9190611f52565b6109e3565b6040516103319190612404565b60405180910390f35b610354600480360381019061034f9190611f52565b610a03565b6040516103619190612404565b60405180910390f35b610384600480360381019061037f9190611f7b565b610a23565b60405161039191906125e1565b60405180910390f35b6103b460048036038101906103af919061207e565b610a48565b005b6103d060048036038101906103cb9190611f52565b610af5565b005b6103ec60048036038101906103e79190611f52565b610be0565b6040516103f991906125e1565b60405180910390f35b61040a610c29565b604051610417919061241f565b60405180910390f35b61043a60048036038101906104359190612006565b610cb7565b005b61045660048036038101906104519190612042565b610da2565b005b610472600480360381019061046d9190612042565b610e3c565b60405161047f9190612404565b60405180910390f35b6104a2600480360381019061049d91906120d0565b610e53565b005b6104be60048036038101906104b99190611f52565b610f15565b6040516104cb9190612404565b60405180910390f35b6104dc610f35565b6040516104e9919061241f565b60405180910390f35b61050c60048036038101906105079190612006565b610f72565b005b61052860048036038101906105239190611f52565b61105d565b005b610544600480360381019061053f9190611f7b565b611131565b60405161055191906125e1565b60405180910390f35b6105626111b8565b60405161056f9190612404565b60405180910390f35b600360009054906101000a900473ffffffffffffffffffffffffffffffffffffffff1673ffffffffffffffffffffffffffffffffffffffff163373ffffffffffffffffffffffffffffffffffffffff1614610608576040517f08c379a00000000000000000000000000000000000000000000000000000000081526004016105ff90612501565b60405180910390fd5b61063382828573ffffffffffffffffffffffffffffffffffffffff166112299092919063ffffffff16565b505050565b60008054610645906127c0565b80601f0160208091040260200160405190810160405280929190818152602001828054610671906127c0565b80156106be5780601f10610693576101008083540402835291602001916106be565b820191906000526020600020905b8154815290600101906020018083116106a157829003601f168201915b505050505081565b60006106d33384846112af565b6001905092915050565b600360009054906101000a900473ffffffffffffffffffffffffffffffffffffffff1681565b600360009054906101000a900473ffffffffffffffffffffffffffffffffffffffff1673ffffffffffffffffffffffffffffffffffffffff163373ffffffffffffffffffffffffffffffffffffffff1614610793576040517f08c379a000000000000000000000000000000000000000000000000000000000815260040161078a90612501565b60405180910390fd5b6000600660008373ffffffffffffffffffffffffffffffffffffffff1673ffffffffffffffffffffffffffffffffffffffff16815260200190815260200160002060006101000a81548160ff02191690831515021790555050565b60025481565b6000600860003373ffffffffffffffffffffffffffffffffffffffff1673ffffffffffffffffffffffffffffffffffffffff16815260200190815260200160002060009054906101000a900460ff161561085c5761085384848461147a565b60019050610925565b6000610907836040518060600160405280602c8152602001612c72602c9139600560008973ffffffffffffffffffffffffffffffffffffffff1673ffffffffffffffffffffffffffffffffffffffff16815260200190815260200160002060003373ffffffffffffffffffffffffffffffffffffffff1673ffffffffffffffffffffffffffffffffffffffff168152602001908152602001600020546117aa9092919063ffffffff16565b90506109148533836112af565b61091f85858561147a565b60019150505b9392505050565b60046020528060005260406000206000915090505481565b601281565b600960003373ffffffffffffffffffffffffffffffffffffffff1673ffffffffffffffffffffffffffffffffffffffff16815260200190815260200160002060009054906101000a900460ff166109d5576040517f08c379a00000000000000000000000000000000000000000000000000000000081526004016109cc90612541565b60405180910390fd5b6109df828261180e565b5050565b60066020528060005260406000206000915054906101000a900460ff1681565b60086020528060005260406000206000915054906101000a900460ff1681565b6005602052816000526040600020602052806000526040600020600091509150505481565b600360009054906101000a900473ffffffffffffffffffffffffffffffffffffffff1673ffffffffffffffffffffffffffffffffffffffff163373ffffffffffffffffffffffffffffffffffffffff1614610ad8576040517f08c379a0000000000000000000000000000000000000000000000000000000008152600401610acf90612501565b60405180910390fd5b80600760006101000a81548160ff02191690831515021790555050565b600360009054906101000a900473ffffffffffffffffffffffffffffffffffffffff1673ffffffffffffffffffffffffffffffffffffffff163373ffffffffffffffffffffffffffffffffffffffff1614610b85576040517f08c379a0000000000000000000000000000000000000000000000000000000008152600401610b7c90612501565b60405180910390fd5b6001600660008373ffffffffffffffffffffffffffffffffffffffff1673ffffffffffffffffffffffffffffffffffffffff16815260200190815260200160002060006101000a81548160ff02191690831515021790555050565b6000600460008373ffffffffffffffffffffffffffffffffffffffff1673ffffffffffffffffffffffffffffffffffffffff168152602001908152602001600020549050919050565b60018054610c36906127c0565b80601f0160208091040260200160405190810160405280929190818152602001828054610c62906127c0565b8015610caf5780601f10610c8457610100808354040283529160200191610caf565b820191906000526020600020905b815481529060010190602001808311610c9257829003601f168201915b505050505081565b600360009054906101000a900473ffffffffffffffffffffffffffffffffffffffff1673ffffffffffffffffffffffffffffffffffffffff163373ffffffffffffffffffffffffffffffffffffffff1614610d47576040517f08c379a0000000000000000000000000000000000000000000000000000000008152600401610d3e90612501565b60405180910390fd5b80600860008473ffffffffffffffffffffffffffffffffffffffff1673ffffffffffffffffffffffffffffffffffffffff16815260200190815260200160002060006101000a81548160ff0219169083151502179055505050565b600960003373ffffffffffffffffffffffffffffffffffffffff1673ffffffffffffffffffffffffffffffffffffffff16815260200190815260200160002060009054906101000a900460ff16610e2e576040517f08c379a0000000000000000000000000000000000000000000000000000000008152600401610e2590612541565b60405180910390fd5b610e388282611998565b5050565b6000610e4933848461147a565b6001905092915050565b600360009054906101000a900473ffffffffffffffffffffffffffffffffffffffff1673ffffffffffffffffffffffffffffffffffffffff163373ffffffffffffffffffffffffffffffffffffffff1614610ee3576040517f08c379a0000000000000000000000000000000000000000000000000000000008152600401610eda90612501565b60405180910390fd5b8160009080519060200190610ef9929190611df3565b508060019080519060200190610f10929190611df3565b505050565b60096020528060005260406000206000915054906101000a900460ff1681565b60606040518060400160405280600381526020017f4b4c500000000000000000000000000000000000000000000000000000000000815250905090565b600360009054906101000a900473ffffffffffffffffffffffffffffffffffffffff1673ffffffffffffffffffffffffffffffffffffffff163373ffffffffffffffffffffffffffffffffffffffff1614611002576040517f08c379a0000000000000000000000000000000000000000000000000000000008152600401610ff990612501565b60405180910390fd5b80600960008473ffffffffffffffffffffffffffffffffffffffff1673ffffffffffffffffffffffffffffffffffffffff16815260200190815260200160002060006101000a81548160ff0219169083151502179055505050565b600360009054906101000a900473ffffffffffffffffffffffffffffffffffffffff1673ffffffffffffffffffffffffffffffffffffffff163373ffffffffffffffffffffffffffffffffffffffff16146110ed576040517f08c379a00000000000000000000000000000000000000000000000000000000081526004016110e490612501565b60405180910390fd5b80600360006101000a81548173ffffffffffffffffffffffffffffffffffffffff021916908373ffffffffffffffffffffffffffffffffffffffff16021790555050565b6000600560008473ffffffffffffffffffffffffffffffffffffffff1673ffffffffffffffffffffffffffffffffffffffff16815260200190815260200160002060008373ffffffffffffffffffffffffffffffffffffffff1673ffffffffffffffffffffffffffffffffffffffff16815260200190815260200160002054905092915050565b600760009054906101000a900460ff1681565b60008082846111da919061269f565b90508381101561121f576040517f08c379a0000000000000000000000000000000000000000000000000000000008152600401611216906124c1565b60405180910390fd5b8091505092915050565b6112aa8363a9059cbb60e01b84846040516024016112489291906123db565b604051602081830303815290604052907bffffffffffffffffffffffffffffffffffffffffffffffffffffffff19166020820180517bffffffffffffffffffffffffffffffffffffffffffffffffffffffff8381831617835250505050611b3c565b505050565b600073ffffffffffffffffffffffffffffffffffffffff168373ffffffffffffffffffffffffffffffffffffffff16141561131f576040517f08c379a000000000000000000000000000000000000000000000000000000000815260040161131690612521565b60405180910390fd5b600073ffffffffffffffffffffffffffffffffffffffff168273ffffffffffffffffffffffffffffffffffffffff16141561138f576040517f08c379a0000000000000000000000000000000000000000000000000000000008152600401611386906124a1565b60405180910390fd5b80600560008573ffffffffffffffffffffffffffffffffffffffff1673ffffffffffffffffffffffffffffffffffffffff16815260200190815260200160002060008473ffffffffffffffffffffffffffffffffffffffff1673ffffffffffffffffffffffffffffffffffffffff168152602001908152602001600020819055508173ffffffffffffffffffffffffffffffffffffffff168373ffffffffffffffffffffffffffffffffffffffff167f8c5be1e5ebec7d5bd14f71427d1e84f3dd0314c0f7b2291e5b200ac8c7c3b9258360405161146d91906125e1565b60405180910390a3505050565b600073ffffffffffffffffffffffffffffffffffffffff168373ffffffffffffffffffffffffffffffffffffffff1614156114ea576040517f08c379a00000000000000000000000000000000000000000000000000000000081526004016114e1906125c1565b60405180910390fd5b600073ffffffffffffffffffffffffffffffffffffffff168273ffffffffffffffffffffffffffffffffffffffff16141561155a576040517f08c379a000000000000000000000000000000000000000000000000000000000815260040161155190612461565b60405180910390fd5b600760009054906101000a900460ff16156115fc57600860003373ffffffffffffffffffffffffffffffffffffffff1673ffffffffffffffffffffffffffffffffffffffff16815260200190815260200160002060009054906101000a900460ff166115fb576040517f08c379a00000000000000000000000000000000000000000000000000000000081526004016115f290612441565b60405180910390fd5b5b611668816040518060600160405280602a8152602001612c9e602a9139600460008773ffffffffffffffffffffffffffffffffffffffff1673ffffffffffffffffffffffffffffffffffffffff168152602001908152602001600020546117aa9092919063ffffffff16565b600460008573ffffffffffffffffffffffffffffffffffffffff1673ffffffffffffffffffffffffffffffffffffffff168152602001908152602001600020819055506116fd81600460008573ffffffffffffffffffffffffffffffffffffffff1673ffffffffffffffffffffffffffffffffffffffff168152602001908152602001600020546111cb90919063ffffffff16565b600460008473ffffffffffffffffffffffffffffffffffffffff1673ffffffffffffffffffffffffffffffffffffffff168152602001908152602001600020819055508173ffffffffffffffffffffffffffffffffffffffff168373ffffffffffffffffffffffffffffffffffffffff167fddf252ad1be2c89b69c2b068fc378daa952ba7f163c4a11628f55a4df523b3ef8360405161179d91906125e1565b60405180910390a3505050565b60008383111582906117f2576040517f08c379a00000000000000000000000000000000000000000000000000000000081526004016117e9919061241f565b60405180910390fd5b506000838561180191906126f5565b9050809150509392505050565b600073ffffffffffffffffffffffffffffffffffffffff168273ffffffffffffffffffffffffffffffffffffffff16141561187e576040517f08c379a000000000000000000000000000000000000000000000000000000000815260040161187590612481565b60405180910390fd5b611893816002546111cb90919063ffffffff16565b6002819055506118eb81600460008573ffffffffffffffffffffffffffffffffffffffff1673ffffffffffffffffffffffffffffffffffffffff168152602001908152602001600020546111cb90919063ffffffff16565b600460008473ffffffffffffffffffffffffffffffffffffffff1673ffffffffffffffffffffffffffffffffffffffff168152602001908152602001600020819055508173ffffffffffffffffffffffffffffffffffffffff16600073ffffffffffffffffffffffffffffffffffffffff167fddf252ad1be2c89b69c2b068fc378daa952ba7f163c4a11628f55a4df523b3ef8360405161198c91906125e1565b60405180910390a35050565b600073ffffffffffffffffffffffffffffffffffffffff168273ffffffffffffffffffffffffffffffffffffffff161415611a08576040517f08c379a00000000000000000000000000000000000000000000000000000000081526004016119ff906125a1565b60405180910390fd5b611a7481604051806060016040528060268152602001612cc860269139600460008673ffffffffffffffffffffffffffffffffffffffff1673ffffffffffffffffffffffffffffffffffffffff168152602001908152602001600020546117aa9092919063ffffffff16565b600460008473ffffffffffffffffffffffffffffffffffffffff1673ffffffffffffffffffffffffffffffffffffffff16815260200190815260200160002081905550611acc81600254611c0390919063ffffffff16565b600281905550600073ffffffffffffffffffffffffffffffffffffffff168273ffffffffffffffffffffffffffffffffffffffff167fddf252ad1be2c89b69c2b068fc378daa952ba7f163c4a11628f55a4df523b3ef83604051611b3091906125e1565b60405180910390a35050565b6000611b9e826040518060400160405280602081526020017f5361666545524332303a206c6f772d6c6576656c2063616c6c206661696c65648152508573ffffffffffffffffffffffffffffffffffffffff16611c4d9092919063ffffffff16565b9050600081511115611bfe5780806020019051810190611bbe91906120a7565b611bfd576040517f08c379a0000000000000000000000000000000000000000000000000000000008152600401611bf490612581565b60405180910390fd5b5b505050565b6000611c4583836040518060400160405280601e81526020017f536166654d6174683a207375627472616374696f6e206f766572666c6f7700008152506117aa565b905092915050565b6060611c5c8484600085611c65565b90509392505050565b606082471015611caa576040517f08c379a0000000000000000000000000000000000000000000000000000000008152600401611ca1906124e1565b60405180910390fd5b611cb385611d79565b611cf2576040517f08c379a0000000000000000000000000000000000000000000000000000000008152600401611ce990612561565b60405180910390fd5b6000808673ffffffffffffffffffffffffffffffffffffffff168587604051611d1b91906123a9565b60006040518083038185875af1925050503d8060008114611d58576040519150601f19603f3d011682016040523d82523d6000602084013e611d5d565b606091505b5091509150611d6d828286611d8c565b92505050949350505050565b600080823b905060008111915050919050565b60608315611d9c57829050611dec565b600083511115611daf5782518084602001fd5b816040517f08c379a0000000000000000000000000000000000000000000000000000000008152600401611de3919061241f565b60405180910390fd5b9392505050565b828054611dff906127c0565b90600052602060002090601f016020900481019282611e215760008555611e68565b82601f10611e3a57805160ff1916838001178555611e68565b82800160010185558215611e68579182015b82811115611e67578251825591602001919060010190611e4c565b5b509050611e759190611e79565b5090565b5b80821115611e92576000816000905550600101611e7a565b5090565b6000611ea9611ea48461263c565b612617565b905082815260208101848484011115611ec157600080fd5b611ecc84828561277e565b509392505050565b600081359050611ee381612c2c565b92915050565b600081359050611ef881612c43565b92915050565b600081519050611f0d81612c43565b92915050565b600082601f830112611f2457600080fd5b8135611f34848260208601611e96565b91505092915050565b600081359050611f4c81612c5a565b92915050565b600060208284031215611f6457600080fd5b6000611f7284828501611ed4565b91505092915050565b60008060408385031215611f8e57600080fd5b6000611f9c85828601611ed4565b9250506020611fad85828601611ed4565b9150509250929050565b600080600060608486031215611fcc57600080fd5b6000611fda86828701611ed4565b9350506020611feb86828701611ed4565b9250506040611ffc86828701611f3d565b9150509250925092565b6000806040838503121561201957600080fd5b600061202785828601611ed4565b925050602061203885828601611ee9565b9150509250929050565b6000806040838503121561205557600080fd5b600061206385828601611ed4565b925050602061207485828601611f3d565b9150509250929050565b60006020828403121561209057600080fd5b600061209e84828501611ee9565b91505092915050565b6000602082840312156120b957600080fd5b60006120c784828501611efe565b91505092915050565b600080604083850312156120e357600080fd5b600083013567ffffffffffffffff8111156120fd57600080fd5b61210985828601611f13565b925050602083013567ffffffffffffffff81111561212657600080fd5b61213285828601611f13565b9150509250929050565b61214581612729565b82525050565b6121548161273b565b82525050565b60006121658261266d565b61216f8185612683565b935061217f81856020860161278d565b80840191505092915050565b600061219682612678565b6121a0818561268e565b93506121b081856020860161278d565b6121b9816128b0565b840191505092915050565b60006121d160258361268e565b91506121dc826128c1565b604082019050919050565b60006121f460278361268e565b91506121ff82612910565b604082019050919050565b600061221760238361268e565b91506122228261295f565b604082019050919050565b600061223a60268361268e565b9150612245826129ae565b604082019050919050565b600061225d601b8361268e565b9150612268826129fd565b602082019050919050565b600061228060268361268e565b915061228b82612a26565b604082019050919050565b60006122a360148361268e565b91506122ae82612a75565b602082019050919050565b60006122c660288361268e565b91506122d182612a9e565b604082019050919050565b60006122e9601c8361268e565b91506122f482612aed565b602082019050919050565b600061230c601d8361268e565b915061231782612b16565b602082019050919050565b600061232f602a8361268e565b915061233a82612b3f565b604082019050919050565b600061235260258361268e565b915061235d82612b8e565b604082019050919050565b600061237560298361268e565b915061238082612bdd565b604082019050919050565b61239481612767565b82525050565b6123a381612771565b82525050565b60006123b5828461215a565b915081905092915050565b60006020820190506123d5600083018461213c565b92915050565b60006040820190506123f0600083018561213c565b6123fd602083018461238b565b9392505050565b6000602082019050612419600083018461214b565b92915050565b60006020820190508181036000830152612439818461218b565b905092915050565b6000602082019050818103600083015261245a816121c4565b9050919050565b6000602082019050818103600083015261247a816121e7565b9050919050565b6000602082019050818103600083015261249a8161220a565b9050919050565b600060208201905081810360008301526124ba8161222d565b9050919050565b600060208201905081810360008301526124da81612250565b9050919050565b600060208201905081810360008301526124fa81612273565b9050919050565b6000602082019050818103600083015261251a81612296565b9050919050565b6000602082019050818103600083015261253a816122b9565b9050919050565b6000602082019050818103600083015261255a816122dc565b9050919050565b6000602082019050818103600083015261257a816122ff565b9050919050565b6000602082019050818103600083015261259a81612322565b9050919050565b600060208201905081810360008301526125ba81612345565b9050919050565b600060208201905081810360008301526125da81612368565b9050919050565b60006020820190506125f6600083018461238b565b92915050565b6000602082019050612611600083018461239a565b92915050565b6000612621612632565b905061262d82826127f2565b919050565b6000604051905090565b600067ffffffffffffffff82111561265757612656612881565b5b612660826128b0565b9050602081019050919050565b600081519050919050565b600081519050919050565b600081905092915050565b600082825260208201905092915050565b60006126aa82612767565b91506126b583612767565b9250827fffffffffffffffffffffffffffffffffffffffffffffffffffffffffffffffff038211156126ea576126e9612823565b5b828201905092915050565b600061270082612767565b915061270b83612767565b92508282101561271e5761271d612823565b5b828203905092915050565b600061273482612747565b9050919050565b60008115159050919050565b600073ffffffffffffffffffffffffffffffffffffffff82169050919050565b6000819050919050565b600060ff82169050919050565b82818337600083830152505050565b60005b838110156127ab578082015181840152602081019050612790565b838111156127ba576000848401525b50505050565b600060028204905060018216806127d857607f821691505b602082108114156127ec576127eb612852565b5b50919050565b6127fb826128b0565b810181811067ffffffffffffffff8211171561281a57612819612881565b5b80604052505050565b7f4e487b7100000000000000000000000000000000000000000000000000000000600052601160045260246000fd5b7f4e487b7100000000000000000000000000000000000000000000000000000000600052602260045260246000fd5b7f4e487b7100000000000000000000000000000000000000000000000000000000600052604160045260246000fd5b6000601f19601f8301169050919050565b7f42617365546f6b656e3a206d73672e73656e646572206e6f742077686974656c60008201527f6973746564000000000000000000000000000000000000000000000000000000602082015250565b7f42617365546f6b656e3a207472616e7366657220746f20746865207a65726f2060008201527f6164647265737300000000000000000000000000000000000000000000000000602082015250565b7f42617365546f6b656e3a206d696e7420746f20746865207a65726f206164647260008201527f6573730000000000000000000000000000000000000000000000000000000000602082015250565b7f42617365546f6b656e3a20617070726f766520746f20746865207a65726f206160008201527f6464726573730000000000000000000000000000000000000000000000000000602082015250565b7f536166654d6174683a206164646974696f6e206f766572666c6f770000000000600082015250565b7f416464726573733a20696e73756666696369656e742062616c616e636520666f60008201527f722063616c6c0000000000000000000000000000000000000000000000000000602082015250565b7f42617365546f6b656e3a20666f7262696464656e000000000000000000000000600082015250565b7f42617365546f6b656e3a20617070726f76652066726f6d20746865207a65726f60008201527f2061646472657373000000000000000000000000000000000000000000000000602082015250565b7f4d696e7461626c6542617365546f6b656e3a20666f7262696464656e00000000600082015250565b7f416464726573733a2063616c6c20746f206e6f6e2d636f6e7472616374000000600082015250565b7f5361666545524332303a204552433230206f7065726174696f6e20646964206e60008201527f6f74207375636365656400000000000000000000000000000000000000000000602082015250565b7f42617365546f6b656e3a206275726e2066726f6d20746865207a65726f20616460008201527f6472657373000000000000000000000000000000000000000000000000000000602082015250565b7f42617365546f6b656e3a207472616e736665722066726f6d20746865207a657260008201527f6f20616464726573730000000000000000000000000000000000000000000000602082015250565b612c3581612729565b8114612c4057600080fd5b50565b612c4c8161273b565b8114612c5757600080fd5b50565b612c6381612767565b8114612c6e57600080fd5b5056fe42617365546f6b656e3a207472616e7366657220616d6f756e74206578636565647320616c6c6f77616e636542617365546f6b656e3a207472616e7366657220616d6f756e7420657863656564732062616c616e636542617365546f6b656e3a206275726e20616d6f756e7420657863656564732062616c616e6365a264697066735822122058a452c234397b4e0b43e2450746bdedbb3e0c67b4171c47ac481243bfbf60b064736f6c63430008040033",
  "immutableReferences": {},
  "source": "// SPDX-License-Identifier: MIT\n\npragma solidity >=0.6.12;\n\nimport \"../tokens/MintableBaseToken.sol\";\n\ncontract KLP is MintableBaseToken {\n    constructor() MintableBaseToken(\"Kuru LP\", \"KLP\", 0) {}\n\n    function id() external pure returns (string memory _name) {\n        return \"KLP\";\n    }\n}\n",
  "sourcePath": "/Users/rohanshrothrium/Documents/kuru-contracts/contracts/tokens/KLP.sol",
  "compiler": {
    "name": "solc",
    "version": "0.8.4+commit.c7e474f2.Emscripten.clang"
  },
  "schemaVersion": "3.4.13",
  "updatedAt": "2023-05-05T17:00:10.953Z",
  "networkType": "ethereum",
  "devdoc": {
    "kind": "dev",
    "methods": {},
    "version": 1
  },
  "userdoc": {
    "kind": "user",
    "methods": {},
    "version": 1
  }
}