{
  "contractName": "KlpManager",
  "abi": [
    {
      "inputs": [
        {
          "internalType": "address",
          "name": "_klp",
          "type": "address"
        },
        {
          "internalType": "address",
          "name": "_lendingContractAddress",
          "type": "address"
        },
        {
          "internalType": "address",
          "name": "_usdcAddress",
          "type": "address"
        }
      ],
      "stateMutability": "nonpayable",
      "type": "constructor"
    },
    {
      "inputs": [],
      "name": "ERC_DECIMALS_DIVISOR",
      "outputs": [
        {
          "internalType": "uint256",
          "name": "",
          "type": "uint256"
        }
      ],
      "stateMutability": "view",
      "type": "function"
    },
    {
      "inputs": [],
      "name": "KLP_PRECISION",
      "outputs": [
        {
          "internalType": "uint256",
          "name": "",
          "type": "uint256"
        }
      ],
      "stateMutability": "view",
      "type": "function"
    },
    {
      "inputs": [],
      "name": "PRICE_PRECISION",
      "outputs": [
        {
          "internalType": "uint256",
          "name": "",
          "type": "uint256"
        }
      ],
      "stateMutability": "view",
      "type": "function"
    },
    {
      "inputs": [],
      "name": "USDC_DECIMALS_DIVISOR",
      "outputs": [
        {
          "internalType": "uint256",
          "name": "",
          "type": "uint256"
        }
      ],
      "stateMutability": "view",
      "type": "function"
    },
    {
      "inputs": [],
      "name": "USDC_PRECISION",
      "outputs": [
        {
          "internalType": "uint256",
          "name": "",
          "type": "uint256"
        }
      ],
      "stateMutability": "view",
      "type": "function"
    },
    {
      "inputs": [
        {
          "internalType": "address",
          "name": "_klp",
          "type": "address"
        }
      ],
      "name": "setKlp",
      "outputs": [],
      "stateMutability": "nonpayable",
      "type": "function"
    },
    {
      "inputs": [
        {
          "internalType": "address",
          "name": "_gov",
          "type": "address"
        }
      ],
      "name": "setGov",
      "outputs": [],
      "stateMutability": "nonpayable",
      "type": "function"
    },
    {
      "inputs": [
        {
          "internalType": "address",
          "name": "_lendingContractAddress",
          "type": "address"
        }
      ],
      "name": "setLendingContractAddress",
      "outputs": [],
      "stateMutability": "nonpayable",
      "type": "function"
    },
    {
      "inputs": [
        {
          "internalType": "address",
          "name": "_usdcAddress",
          "type": "address"
        }
      ],
      "name": "setUsdcAddress",
      "outputs": [],
      "stateMutability": "nonpayable",
      "type": "function"
    },
    {
      "inputs": [
        {
          "internalType": "address",
          "name": "_token",
          "type": "address"
        },
        {
          "internalType": "uint256",
          "name": "_amount",
          "type": "uint256"
        }
      ],
      "name": "addLiquidity",
      "outputs": [
        {
          "internalType": "uint256",
          "name": "",
          "type": "uint256"
        }
      ],
      "stateMutability": "nonpayable",
      "type": "function"
    },
    {
      "inputs": [
        {
          "internalType": "address",
          "name": "_tokenOut",
          "type": "address"
        },
        {
          "internalType": "uint256",
          "name": "_klpAmount",
          "type": "uint256"
        }
      ],
      "name": "removeLiquidity",
      "outputs": [
        {
          "internalType": "uint256",
          "name": "",
          "type": "uint256"
        }
      ],
      "stateMutability": "nonpayable",
      "type": "function"
    }
  ],
  "bytecode": "0x60806040523480156200001157600080fd5b506040516200154b3803806200154b83398181016040528101906200003791906200015a565b33600160006101000a81548173ffffffffffffffffffffffffffffffffffffffff021916908373ffffffffffffffffffffffffffffffffffffffff160217905550826000806101000a81548173ffffffffffffffffffffffffffffffffffffffff021916908373ffffffffffffffffffffffffffffffffffffffff16021790555081600260006101000a81548173ffffffffffffffffffffffffffffffffffffffff021916908373ffffffffffffffffffffffffffffffffffffffff16021790555080600360006101000a81548173ffffffffffffffffffffffffffffffffffffffff021916908373ffffffffffffffffffffffffffffffffffffffff160217905550505050620001fe565b6000815190506200015481620001e4565b92915050565b6000806000606084860312156200017057600080fd5b6000620001808682870162000143565b9350506020620001938682870162000143565b9250506040620001a68682870162000143565b9150509250925092565b6000620001bd82620001c4565b9050919050565b600073ffffffffffffffffffffffffffffffffffffffff82169050919050565b620001ef81620001b0565b8114620001fb57600080fd5b50565b61133d806200020e6000396000f3fe608060405234801561001057600080fd5b50600436106100a95760003560e01c806395082d251161007157806395082d2514610152578063a201ccf614610170578063c249e15f146101a0578063cfad57a2146101be578063d38bcdee146101da578063d621fca7146101f6576100a9565b806313f2d128146100ae57806336bda883146100ca57806356688700146100e857806364ba5da31461011857806371ddd5a714610134575b600080fd5b6100c860048036038101906100c39190610e1c565b610214565b005b6100d26102e8565b6040516100df9190611075565b60405180910390f35b61010260048036038101906100fd9190610e45565b6102f6565b60405161010f9190611075565b60405180910390f35b610132600480360381019061012d9190610e1c565b610684565b005b61013c610757565b6040516101499190611075565b60405180910390f35b61015a610760565b6040516101679190611075565b60405180910390f35b61018a60048036038101906101859190610e45565b610771565b6040516101979190611075565b60405180910390f35b6101a8610ae5565b6040516101b59190611075565b60405180910390f35b6101d860048036038101906101d39190610e1c565b610af1565b005b6101f460048036038101906101ef9190610e1c565b610bc5565b005b6101fe610c99565b60405161020b9190611075565b60405180910390f35b600160009054906101000a900473ffffffffffffffffffffffffffffffffffffffff1673ffffffffffffffffffffffffffffffffffffffff163373ffffffffffffffffffffffffffffffffffffffff16146102a4576040517f08c379a000000000000000000000000000000000000000000000000000000000815260040161029b90611035565b60405180910390fd5b80600260006101000a81548173ffffffffffffffffffffffffffffffffffffffff021916908373ffffffffffffffffffffffffffffffffffffffff16021790555050565b69d3c21bcecceda100000081565b6000600360009054906101000a900473ffffffffffffffffffffffffffffffffffffffff1673ffffffffffffffffffffffffffffffffffffffff168373ffffffffffffffffffffffffffffffffffffffff1614610388576040517f08c379a000000000000000000000000000000000000000000000000000000000815260040161037f90611015565b60405180910390fd5b6000600260009054906101000a900473ffffffffffffffffffffffffffffffffffffffff1673ffffffffffffffffffffffffffffffffffffffff1663dfed13486040518163ffffffff1660e01b815260040160206040518083038186803b1580156103f257600080fd5b505afa158015610406573d6000803e3d6000fd5b505050506040513d601f19601f8201168201806040525081019061042a9190610eaa565b90508373ffffffffffffffffffffffffffffffffffffffff166323b872dd33600260009054906101000a900473ffffffffffffffffffffffffffffffffffffffff1661048969d3c21bcecceda100000088610ca090919063ffffffff16565b6040518463ffffffff1660e01b81526004016104a793929190610f93565b602060405180830381600087803b1580156104c157600080fd5b505af11580156104d5573d6000803e3d6000fd5b505050506040513d601f19601f820116820180604052508101906104f99190610e81565b5060008060009054906101000a900473ffffffffffffffffffffffffffffffffffffffff1673ffffffffffffffffffffffffffffffffffffffff166318160ddd6040518163ffffffff1660e01b815260040160206040518083038186803b15801561056357600080fd5b505afa158015610577573d6000803e3d6000fd5b505050506040513d601f19601f8201168201806040525081019061059b9190610eaa565b905060008082146105d0576105cb836105bd8785610cea90919063ffffffff16565b610ca090919063ffffffff16565b6105e9565b6105e864e8d4a5100086610ca090919063ffffffff16565b5b905060008054906101000a900473ffffffffffffffffffffffffffffffffffffffff1673ffffffffffffffffffffffffffffffffffffffff166340c10f1933836040518363ffffffff1660e01b8152600401610646929190610fca565b600060405180830381600087803b15801561066057600080fd5b505af1158015610674573d6000803e3d6000fd5b5050505080935050505092915050565b600160009054906101000a900473ffffffffffffffffffffffffffffffffffffffff1673ffffffffffffffffffffffffffffffffffffffff163373ffffffffffffffffffffffffffffffffffffffff1614610714576040517f08c379a000000000000000000000000000000000000000000000000000000000815260040161070b90611035565b60405180910390fd5b806000806101000a81548173ffffffffffffffffffffffffffffffffffffffff021916908373ffffffffffffffffffffffffffffffffffffffff16021790555050565b64e8d4a5100081565b6c0c9f2c9cd04674edea4000000081565b6000600360009054906101000a900473ffffffffffffffffffffffffffffffffffffffff1673ffffffffffffffffffffffffffffffffffffffff168373ffffffffffffffffffffffffffffffffffffffff1614610803576040517f08c379a00000000000000000000000000000000000000000000000000000000081526004016107fa90611015565b60405180910390fd5b60008060009054906101000a900473ffffffffffffffffffffffffffffffffffffffff1673ffffffffffffffffffffffffffffffffffffffff166318160ddd6040518163ffffffff1660e01b815260040160206040518083038186803b15801561086c57600080fd5b505afa158015610880573d6000803e3d6000fd5b505050506040513d601f19601f820116820180604052508101906108a49190610eaa565b90506000600260009054906101000a900473ffffffffffffffffffffffffffffffffffffffff1673ffffffffffffffffffffffffffffffffffffffff1663dfed13486040518163ffffffff1660e01b815260040160206040518083038186803b15801561091057600080fd5b505afa158015610924573d6000803e3d6000fd5b505050506040513d601f19601f820116820180604052508101906109489190610eaa565b905060006109a469d3c21bcecceda1000000610996856109888661097a64e8d4a510008c610ca090919063ffffffff16565b610cea90919063ffffffff16565b610ca090919063ffffffff16565b610ca090919063ffffffff16565b905060008054906101000a900473ffffffffffffffffffffffffffffffffffffffff1673ffffffffffffffffffffffffffffffffffffffff16639dc29fac336109fb64e8d4a5100089610ca090919063ffffffff16565b6040518363ffffffff1660e01b8152600401610a18929190610fca565b600060405180830381600087803b158015610a3257600080fd5b505af1158015610a46573d6000803e3d6000fd5b50505050600260009054906101000a900473ffffffffffffffffffffffffffffffffffffffff1673ffffffffffffffffffffffffffffffffffffffff16637c2bfdfb33836040518363ffffffff1660e01b8152600401610aa7929190610fca565b600060405180830381600087803b158015610ac157600080fd5b505af1158015610ad5573d6000803e3d6000fd5b5050505080935050505092915050565b670de0b6b3a764000081565b600160009054906101000a900473ffffffffffffffffffffffffffffffffffffffff1673ffffffffffffffffffffffffffffffffffffffff163373ffffffffffffffffffffffffffffffffffffffff1614610b81576040517f08c379a0000000000000000000000000000000000000000000000000000000008152600401610b7890611035565b60405180910390fd5b80600160006101000a81548173ffffffffffffffffffffffffffffffffffffffff021916908373ffffffffffffffffffffffffffffffffffffffff16021790555050565b600160009054906101000a900473ffffffffffffffffffffffffffffffffffffffff1673ffffffffffffffffffffffffffffffffffffffff163373ffffffffffffffffffffffffffffffffffffffff1614610c55576040517f08c379a0000000000000000000000000000000000000000000000000000000008152600401610c4c90611035565b60405180910390fd5b80600360006101000a81548173ffffffffffffffffffffffffffffffffffffffff021916908373ffffffffffffffffffffffffffffffffffffffff16021790555050565b620f424081565b6000610ce283836040518060400160405280601a81526020017f536166654d6174683a206469766973696f6e206279207a65726f000000000000815250610d65565b905092915050565b600080831415610cfd5760009050610d5f565b60008284610d0b91906110dd565b9050828482610d1a91906110ac565b14610d5a576040517f08c379a0000000000000000000000000000000000000000000000000000000008152600401610d5190611055565b60405180910390fd5b809150505b92915050565b60008083118290610dac576040517f08c379a0000000000000000000000000000000000000000000000000000000008152600401610da39190610ff3565b60405180910390fd5b5060008385610dbb91906110ac565b9050809150509392505050565b600081359050610dd7816112c2565b92915050565b600081519050610dec816112d9565b92915050565b600081359050610e01816112f0565b92915050565b600081519050610e16816112f0565b92915050565b600060208284031215610e2e57600080fd5b6000610e3c84828501610dc8565b91505092915050565b60008060408385031215610e5857600080fd5b6000610e6685828601610dc8565b9250506020610e7785828601610df2565b9150509250929050565b600060208284031215610e9357600080fd5b6000610ea184828501610ddd565b91505092915050565b600060208284031215610ebc57600080fd5b6000610eca84828501610e07565b91505092915050565b610edc81611137565b82525050565b6000610eed82611090565b610ef7818561109b565b9350610f0781856020860161117f565b610f1081611210565b840191505092915050565b6000610f2860118361109b565b9150610f3382611221565b602082019050919050565b6000610f4b60148361109b565b9150610f568261124a565b602082019050919050565b6000610f6e60218361109b565b9150610f7982611273565b604082019050919050565b610f8d81611175565b82525050565b6000606082019050610fa86000830186610ed3565b610fb56020830185610ed3565b610fc26040830184610f84565b949350505050565b6000604082019050610fdf6000830185610ed3565b610fec6020830184610f84565b9392505050565b6000602082019050818103600083015261100d8184610ee2565b905092915050565b6000602082019050818103600083015261102e81610f1b565b9050919050565b6000602082019050818103600083015261104e81610f3e565b9050919050565b6000602082019050818103600083015261106e81610f61565b9050919050565b600060208201905061108a6000830184610f84565b92915050565b600081519050919050565b600082825260208201905092915050565b60006110b782611175565b91506110c283611175565b9250826110d2576110d16111e1565b5b828204905092915050565b60006110e882611175565b91506110f383611175565b9250817fffffffffffffffffffffffffffffffffffffffffffffffffffffffffffffffff048311821515161561112c5761112b6111b2565b5b828202905092915050565b600061114282611155565b9050919050565b60008115159050919050565b600073ffffffffffffffffffffffffffffffffffffffff82169050919050565b6000819050919050565b60005b8381101561119d578082015181840152602081019050611182565b838111156111ac576000848401525b50505050565b7f4e487b7100000000000000000000000000000000000000000000000000000000600052601160045260246000fd5b7f4e487b7100000000000000000000000000000000000000000000000000000000600052601260045260246000fd5b6000601f19601f8301169050919050565b7f756e737570706f7274656420746f6b656e000000000000000000000000000000600082015250565b7f42617365546f6b656e3a20666f7262696464656e000000000000000000000000600082015250565b7f536166654d6174683a206d756c7469706c69636174696f6e206f766572666c6f60008201527f7700000000000000000000000000000000000000000000000000000000000000602082015250565b6112cb81611137565b81146112d657600080fd5b50565b6112e281611149565b81146112ed57600080fd5b50565b6112f981611175565b811461130457600080fd5b5056fea2646970667358221220b9b9f8c9391daf83e376d1efca41576d03d49531705eb9c1b2d0f2a0de3f64e164736f6c63430008040033",
  "immutableReferences": {},
  "source": "// SPDX-License-Identifier: MIT\n\npragma solidity >=0.6.12;\n\nimport \"../libraries/SafeMath.sol\";\nimport \"../libraries/SafeERC20.sol\";\n\nimport \"../tokens/MintableBaseToken.sol\";\nimport \"../interfaces/ILendingContract.sol\";\nimport \"../tokens/interfaces/IMintable.sol\";\n\n/**\n * @title KlpManager\n * @dev Manages the liquidity for the Kuru liquidity pool.\n */\ncontract KlpManager {\n    using SafeMath for uint256;\n    using SafeERC20 for IERC20;\n\n    uint256 public constant PRICE_PRECISION = 10 ** 30;\n    uint256 public constant USDC_PRECISION = 10 ** 6;\n    uint256 public constant USDC_DECIMALS_DIVISOR = 10**24;\n    uint256 public constant ERC_DECIMALS_DIVISOR = 10**12;\n    uint public constant KLP_PRECISION = 10**18;\n\n    // liquidity provider token contract address\n    address klp;\n    address gov;\n\n    // kuru app addresses\n    address lendingContractAddress;\n\n    // external tokens addresses\n    address usdcAddress;\n\n    // Modifiers\n    /**\n     * @dev Throws if called by any account other than the governance address.\n     */\n    modifier onlyGov() {\n        require(msg.sender == gov, \"BaseToken: forbidden\");\n        _;\n    }\n\n    // Constructor\n    /**\n     * @dev Initializes the contract with the given parameters.\n     * @param _klp The liquidity provider token contract address.\n     * @param _lendingContractAddress The kuru app lending contract address.\n     * @param _usdcAddress The external USDC token contract address.\n     */\n    constructor(address _klp, address _lendingContractAddress, address _usdcAddress) {\n        gov = msg.sender;\n        klp = _klp;\n        lendingContractAddress = _lendingContractAddress;\n        usdcAddress = _usdcAddress;\n    }\n\n    // Setter functions\n    /**\n     * @dev Allows the governance address to set the liquidity provider token contract address.\n     * @param _klp The new liquidity provider token contract address.\n     */\n    function setKlp(address _klp) external onlyGov {\n        klp = _klp;\n    }\n\n    /**\n     * @dev Allows the governance address to set the governance address.\n     * @param _gov The new governance address.\n     */\n    function setGov(address _gov) external onlyGov {\n        gov = _gov;\n    }\n\n    /**\n     * @dev Allows the governance address to set the kuru app lending contract address.\n     * @param _lendingContractAddress The new kuru app lending contract address.\n     */\n    function setLendingContractAddress(address _lendingContractAddress) external onlyGov {\n        lendingContractAddress = _lendingContractAddress;\n    }\n\n    /**\n     * @dev Allows the governance address to set the external USDC token contract address.\n     * @param _usdcAddress The new external USDC token contract address.\n     */\n    function setUsdcAddress(address _usdcAddress) external onlyGov {\n        usdcAddress = _usdcAddress;\n    }\n\n    // External functions\n    /**\n     * @dev Allows a user to add liquidity to the Kuru liquidity pool.\n     * @param _token The token address of the asset being added.\n     * @param _amount The amount of the asset being added.\n     * @return The amount of liquidity provider tokens minted.\n     */\n    function addLiquidity(address _token, uint256 _amount) external returns (uint256) {\n        // todo allow swap with _minOut feature?\n        require(_token == usdcAddress, \"unsupported token\");\n\n        uint256 _existingLiquidity = ILendingContract(lendingContractAddress).totalLiquidityProvided();\n\n        IERC20(_token).transferFrom(msg.sender, lendingContractAddress, _amount.div(USDC_DECIMALS_DIVISOR));\n\n        uint256 _klpSupply = IERC20(klp).totalSupply();\n\n        uint256 _mintAmount = _klpSupply == 0 ? _amount.div(ERC_DECIMALS_DIVISOR) : _klpSupply.mul(_amount).div(_existingLiquidity);\n\n        IMintable(klp).mint(msg.sender, _mintAmount);\n\n        return _mintAmount;\n    }\n\n    /**\n     * @dev Removes liquidity from the pool and returns USDC to the caller.\n     * @param _tokenOut The address of the token being withdrawn. Only USDC is supported.\n     * @param _klpAmount The amount of liquidity tokens to withdraw.\n     * @return The amount of USDC returned to the caller.\n     */\n    function removeLiquidity(address _tokenOut, uint256 _klpAmount) external returns (uint256) {\n        // todo allow swap with at the end with _minOut feature\n        require(_tokenOut == usdcAddress, \"unsupported token\");\n\n        uint256 _klpSupply = IERC20(klp).totalSupply();\n        uint256 _existingLiquidity = ILendingContract(lendingContractAddress).totalLiquidityProvided();\n\n        uint256 usdcAmount = _klpAmount.div(ERC_DECIMALS_DIVISOR).mul(_existingLiquidity).div(_klpSupply).div(USDC_DECIMALS_DIVISOR);\n        \n        IMintable(klp).burn(msg.sender, _klpAmount.div(ERC_DECIMALS_DIVISOR));\n\n        ILendingContract(lendingContractAddress).sendUsdcToLp(msg.sender, usdcAmount);\n\n        return usdcAmount;\n    }\n}\n",
  "sourcePath": "/Users/rohanshrothrium/Documents/kuru-contracts/contracts/tokens/KlpManager.sol",
  "compiler": {
    "name": "solc",
    "version": "0.8.4+commit.c7e474f2.Emscripten.clang"
  },
  "schemaVersion": "3.4.13",
  "updatedAt": "2023-05-05T17:00:10.958Z",
  "networkType": "ethereum",
  "devdoc": {
    "details": "Manages the liquidity for the Kuru liquidity pool.",
    "kind": "dev",
    "methods": {
      "addLiquidity(address,uint256)": {
        "details": "Allows a user to add liquidity to the Kuru liquidity pool.",
        "params": {
          "_amount": "The amount of the asset being added.",
          "_token": "The token address of the asset being added."
        },
        "returns": {
          "_0": "The amount of liquidity provider tokens minted."
        }
      },
      "constructor": {
        "details": "Initializes the contract with the given parameters.",
        "params": {
          "_klp": "The liquidity provider token contract address.",
          "_lendingContractAddress": "The kuru app lending contract address.",
          "_usdcAddress": "The external USDC token contract address."
        }
      },
      "removeLiquidity(address,uint256)": {
        "details": "Removes liquidity from the pool and returns USDC to the caller.",
        "params": {
          "_klpAmount": "The amount of liquidity tokens to withdraw.",
          "_tokenOut": "The address of the token being withdrawn. Only USDC is supported."
        },
        "returns": {
          "_0": "The amount of USDC returned to the caller."
        }
      },
      "setGov(address)": {
        "details": "Allows the governance address to set the governance address.",
        "params": {
          "_gov": "The new governance address."
        }
      },
      "setKlp(address)": {
        "details": "Allows the governance address to set the liquidity provider token contract address.",
        "params": {
          "_klp": "The new liquidity provider token contract address."
        }
      },
      "setLendingContractAddress(address)": {
        "details": "Allows the governance address to set the kuru app lending contract address.",
        "params": {
          "_lendingContractAddress": "The new kuru app lending contract address."
        }
      },
      "setUsdcAddress(address)": {
        "details": "Allows the governance address to set the external USDC token contract address.",
        "params": {
          "_usdcAddress": "The new external USDC token contract address."
        }
      }
    },
    "title": "KlpManager",
    "version": 1
  },
  "userdoc": {
    "kind": "user",
    "methods": {},
    "version": 1
  }
}