{
  "contractName": "TradeLens",
  "abi": [
    {
      "inputs": [
        {
          "internalType": "contract IOrderManagerForTradeLens",
          "name": "_orderbook",
          "type": "address"
        },
        {
          "internalType": "address",
          "name": "_owner",
          "type": "address"
        }
      ],
      "name": "getLeverageOrderIds",
      "outputs": [
        {
          "internalType": "uint256[]",
          "name": "",
          "type": "uint256[]"
        },
        {
          "internalType": "uint256",
          "name": "",
          "type": "uint256"
        }
      ],
      "stateMutability": "view",
      "type": "function",
      "constant": true
    },
    {
      "inputs": [
        {
          "internalType": "contract IOrderManagerForTradeLens",
          "name": "_orderbook",
          "type": "address"
        },
        {
          "internalType": "address",
          "name": "_owner",
          "type": "address"
        },
        {
          "internalType": "uint256",
          "name": "_skip",
          "type": "uint256"
        },
        {
          "internalType": "uint256",
          "name": "_take",
          "type": "uint256"
        }
      ],
      "name": "getLeverageOrders",
      "outputs": [
        {
          "components": [
            {
              "internalType": "uint256",
              "name": "id",
              "type": "uint256"
            },
            {
              "internalType": "address",
              "name": "indexToken",
              "type": "address"
            },
            {
              "internalType": "address",
              "name": "collateralToken",
              "type": "address"
            },
            {
              "internalType": "address",
              "name": "payToken",
              "type": "address"
            },
            {
              "internalType": "uint8",
              "name": "side",
              "type": "uint8"
            },
            {
              "internalType": "uint8",
              "name": "updateType",
              "type": "uint8"
            },
            {
              "internalType": "uint256",
              "name": "triggerPrice",
              "type": "uint256"
            },
            {
              "internalType": "uint256",
              "name": "size",
              "type": "uint256"
            },
            {
              "internalType": "uint256",
              "name": "payAmount",
              "type": "uint256"
            },
            {
              "internalType": "bool",
              "name": "triggerAboveThreshold",
              "type": "bool"
            },
            {
              "internalType": "bool",
              "name": "expired",
              "type": "bool"
            },
            {
              "internalType": "bool",
              "name": "isMarket",
              "type": "bool"
            }
          ],
          "internalType": "struct LeverageOrderForLens[]",
          "name": "",
          "type": "tuple[]"
        },
        {
          "internalType": "uint256",
          "name": "",
          "type": "uint256"
        }
      ],
      "stateMutability": "view",
      "type": "function",
      "constant": true
    },
    {
      "inputs": [
        {
          "internalType": "contract IOrderManagerForTradeLens",
          "name": "_orderbook",
          "type": "address"
        },
        {
          "internalType": "address",
          "name": "_owner",
          "type": "address"
        }
      ],
      "name": "getAllLeverageOrders",
      "outputs": [
        {
          "components": [
            {
              "internalType": "uint256",
              "name": "id",
              "type": "uint256"
            },
            {
              "internalType": "address",
              "name": "indexToken",
              "type": "address"
            },
            {
              "internalType": "address",
              "name": "collateralToken",
              "type": "address"
            },
            {
              "internalType": "address",
              "name": "payToken",
              "type": "address"
            },
            {
              "internalType": "uint8",
              "name": "side",
              "type": "uint8"
            },
            {
              "internalType": "uint8",
              "name": "updateType",
              "type": "uint8"
            },
            {
              "internalType": "uint256",
              "name": "triggerPrice",
              "type": "uint256"
            },
            {
              "internalType": "uint256",
              "name": "size",
              "type": "uint256"
            },
            {
              "internalType": "uint256",
              "name": "payAmount",
              "type": "uint256"
            },
            {
              "internalType": "bool",
              "name": "triggerAboveThreshold",
              "type": "bool"
            },
            {
              "internalType": "bool",
              "name": "expired",
              "type": "bool"
            },
            {
              "internalType": "bool",
              "name": "isMarket",
              "type": "bool"
            }
          ],
          "internalType": "struct LeverageOrderForLens[]",
          "name": "",
          "type": "tuple[]"
        },
        {
          "internalType": "uint256",
          "name": "",
          "type": "uint256"
        }
      ],
      "stateMutability": "view",
      "type": "function",
      "constant": true
    },
    {
      "inputs": [
        {
          "internalType": "contract IOrderManagerForTradeLens",
          "name": "_orderbook",
          "type": "address"
        },
        {
          "internalType": "address",
          "name": "_owner",
          "type": "address"
        }
      ],
      "name": "getSwapOrderIds",
      "outputs": [
        {
          "internalType": "uint256[]",
          "name": "",
          "type": "uint256[]"
        },
        {
          "internalType": "uint256",
          "name": "",
          "type": "uint256"
        }
      ],
      "stateMutability": "view",
      "type": "function",
      "constant": true
    },
    {
      "inputs": [
        {
          "internalType": "contract IOrderManagerForTradeLens",
          "name": "_orderbook",
          "type": "address"
        },
        {
          "internalType": "address",
          "name": "_owner",
          "type": "address"
        },
        {
          "internalType": "uint256",
          "name": "_skip",
          "type": "uint256"
        },
        {
          "internalType": "uint256",
          "name": "_take",
          "type": "uint256"
        }
      ],
      "name": "getSwapOrders",
      "outputs": [
        {
          "components": [
            {
              "internalType": "uint256",
              "name": "id",
              "type": "uint256"
            },
            {
              "internalType": "address",
              "name": "tokenIn",
              "type": "address"
            },
            {
              "internalType": "address",
              "name": "tokenOut",
              "type": "address"
            },
            {
              "internalType": "uint256",
              "name": "amountIn",
              "type": "uint256"
            },
            {
              "internalType": "uint256",
              "name": "minAmountOut",
              "type": "uint256"
            },
            {
              "internalType": "uint256",
              "name": "price",
              "type": "uint256"
            }
          ],
          "internalType": "struct SwapOrderForLens[]",
          "name": "",
          "type": "tuple[]"
        },
        {
          "internalType": "uint256",
          "name": "",
          "type": "uint256"
        }
      ],
      "stateMutability": "view",
      "type": "function",
      "constant": true
    },
    {
      "inputs": [
        {
          "internalType": "contract IOrderManagerForTradeLens",
          "name": "_orderbook",
          "type": "address"
        },
        {
          "internalType": "address",
          "name": "_owner",
          "type": "address"
        }
      ],
      "name": "getAllSwapOrders",
      "outputs": [
        {
          "components": [
            {
              "internalType": "uint256",
              "name": "id",
              "type": "uint256"
            },
            {
              "internalType": "address",
              "name": "tokenIn",
              "type": "address"
            },
            {
              "internalType": "address",
              "name": "tokenOut",
              "type": "address"
            },
            {
              "internalType": "uint256",
              "name": "amountIn",
              "type": "uint256"
            },
            {
              "internalType": "uint256",
              "name": "minAmountOut",
              "type": "uint256"
            },
            {
              "internalType": "uint256",
              "name": "price",
              "type": "uint256"
            }
          ],
          "internalType": "struct SwapOrderForLens[]",
          "name": "",
          "type": "tuple[]"
        },
        {
          "internalType": "uint256",
          "name": "",
          "type": "uint256"
        }
      ],
      "stateMutability": "view",
      "type": "function",
      "constant": true
    },
    {
      "inputs": [
        {
          "internalType": "contract IPoolForTradeLens",
          "name": "_pool",
          "type": "address"
        },
        {
          "internalType": "address",
          "name": "_owner",
          "type": "address"
        },
        {
          "internalType": "address[]",
          "name": "_indexTokens",
          "type": "address[]"
        },
        {
          "internalType": "address[]",
          "name": "_stableCoins",
          "type": "address[]"
        }
      ],
      "name": "getPositions",
      "outputs": [
        {
          "components": [
            {
              "internalType": "bytes32",
              "name": "key",
              "type": "bytes32"
            },
            {
              "internalType": "address",
              "name": "owner",
              "type": "address"
            },
            {
              "internalType": "address",
              "name": "collateralToken",
              "type": "address"
            },
            {
              "internalType": "address",
              "name": "indexToken",
              "type": "address"
            },
            {
              "internalType": "uint8",
              "name": "side",
              "type": "uint8"
            },
            {
              "internalType": "uint256",
              "name": "size",
              "type": "uint256"
            },
            {
              "internalType": "uint256",
              "name": "collateralValue",
              "type": "uint256"
            },
            {
              "internalType": "uint256",
              "name": "reserveAmount",
              "type": "uint256"
            },
            {
              "internalType": "uint256",
              "name": "entryPrice",
              "type": "uint256"
            },
            {
              "internalType": "uint256",
              "name": "entryInterestRate",
              "type": "uint256"
            }
          ],
          "internalType": "struct PositionForLens[]",
          "name": "",
          "type": "tuple[]"
        }
      ],
      "stateMutability": "view",
      "type": "function",
      "constant": true
    }
  ],
  "bytecode": "0x608060405234801561001057600080fd5b50612a04806100206000396000f3fe608060405234801561001057600080fd5b506004361061007d5760003560e01c80635ac3ad541161005b5780635ac3ad5414610115578063a77c9d5914610146578063adbf418b14610177578063e37f8cf2146101a75761007d565b80630ebfee1a14610082578063443f20b2146100b357806345603bd9146100e4575b600080fd5b61009c60048036038101906100979190611d1c565b6101d8565b6040516100aa9291906124f1565b60405180910390f35b6100cd60048036038101906100c89190611d58565b6104d8565b6040516100db9291906124c1565b60405180910390f35b6100fe60048036038101906100f99190611d1c565b61066d565b60405161010c92919061246f565b60405180910390f35b61012f600480360381019061012a9190611d58565b6107bd565b60405161013d92919061246f565b60405180910390f35b610160600480360381019061015b9190611d1c565b610952565b60405161016e9291906124f1565b60405180910390f35b610191600480360381019061018c9190611dbb565b610c52565b60405161019e919061249f565b60405180910390f35b6101c160048036038101906101bc9190611d1c565b610f0a565b6040516101cf9291906124c1565b60405180910390f35b60606000808473ffffffffffffffffffffffffffffffffffffffff166327b62ad9856000806040518463ffffffff1660e01b815260040161021b9392919061240f565b60006040518083038186803b15801561023357600080fd5b505afa158015610247573d6000803e3d6000fd5b505050506040513d6000823e3d601f19601f820116820180604052508101906102709190611cc8565b91505060008167ffffffffffffffff8111156102b5577f4e487b7100000000000000000000000000000000000000000000000000000000600052604160045260246000fd5b6040519080825280602002602001820160405280156102e35781602001602082028036833780820191505090505b5090506000808390505b60008111156104c75760008873ffffffffffffffffffffffffffffffffffffffff1663856652e9896001856103229190612768565b6040518363ffffffff1660e01b815260040161033f929190612446565b60206040518083038186803b15801561035757600080fd5b505afa15801561036b573d6000803e3d6000fd5b505050506040513d601f19601f8201168201806040525081019061038f9190611ef4565b905060008973ffffffffffffffffffffffffffffffffffffffff1663a85c38ef836040518263ffffffff1660e01b81526004016103cc919061253c565b6101406040518083038186803b1580156103e557600080fd5b505afa1580156103f9573d6000803e3d6000fd5b505050506040513d601f19601f8201168201806040525081019061041d9190611e4e565b9050600073ffffffffffffffffffffffffffffffffffffffff16816020015173ffffffffffffffffffffffffffffffffffffffff16141561045f5750506104b4565b8185858061046c9061288c565b9650815181106104a5577f4e487b7100000000000000000000000000000000000000000000000000000000600052603260045260246000fd5b60200260200101818152505050505b80806104bf90612831565b9150506102ed565b508181945094505050509250929050565b606060008060006104e98888610952565b915091508086106104fa57806104fc565b855b955080858761050b91906126b8565b116105165784610523565b85816105229190612768565b5b945060008567ffffffffffffffff811115610567577f4e487b7100000000000000000000000000000000000000000000000000000000600052604160045260246000fd5b6040519080825280602002602001820160405280156105a057816020015b61058d611694565b8152602001906001900390816105855790505b50905060005b8681101561065a576106038a85838b6105bf91906126b8565b815181106105f6577f4e487b7100000000000000000000000000000000000000000000000000000000600052603260045260246000fd5b602002602001015161105a565b82828151811061063c577f4e487b7100000000000000000000000000000000000000000000000000000000600052603260045260246000fd5b602002602001018190525080806106529061288c565b9150506105a6565b5080829450945050505094509492505050565b6060600080600061067e86866101d8565b9150915060008167ffffffffffffffff8111156106c4577f4e487b7100000000000000000000000000000000000000000000000000000000600052604160045260246000fd5b6040519080825280602002602001820160405280156106fd57816020015b6106ea6116f6565b8152602001906001900390816106e25790505b50905060005b828110156107ac5761075588858381518110610748577f4e487b7100000000000000000000000000000000000000000000000000000000600052603260045260246000fd5b60200260200101516111af565b82828151811061078e577f4e487b7100000000000000000000000000000000000000000000000000000000600052603260045260246000fd5b602002602001018190525080806107a49061288c565b915050610703565b508082945094505050509250929050565b606060008060006107ce88886101d8565b915091508086106107df57806107e1565b855b95508085876107f091906126b8565b116107fb5784610808565b85816108079190612768565b5b945060008567ffffffffffffffff81111561084c577f4e487b7100000000000000000000000000000000000000000000000000000000600052604160045260246000fd5b60405190808252806020026020018201604052801561088557816020015b6108726116f6565b81526020019060019003908161086a5790505b50905060005b8681101561093f576108e88a85838b6108a491906126b8565b815181106108db577f4e487b7100000000000000000000000000000000000000000000000000000000600052603260045260246000fd5b60200260200101516111af565b828281518110610921577f4e487b7100000000000000000000000000000000000000000000000000000000600052603260045260246000fd5b602002602001018190525080806109379061288c565b91505061088b565b5080829450945050505094509492505050565b60606000808473ffffffffffffffffffffffffffffffffffffffff166318073771856000806040518463ffffffff1660e01b81526004016109959392919061240f565b60006040518083038186803b1580156109ad57600080fd5b505afa1580156109c1573d6000803e3d6000fd5b505050506040513d6000823e3d601f19601f820116820180604052508101906109ea9190611cc8565b91505060008167ffffffffffffffff811115610a2f577f4e487b7100000000000000000000000000000000000000000000000000000000600052604160045260246000fd5b604051908082528060200260200182016040528015610a5d5781602001602082028036833780820191505090505b5090506000808390505b6000811115610c415760008873ffffffffffffffffffffffffffffffffffffffff16639aa2aa5989600185610a9c9190612768565b6040518363ffffffff1660e01b8152600401610ab9929190612446565b60206040518083038186803b158015610ad157600080fd5b505afa158015610ae5573d6000803e3d6000fd5b505050506040513d601f19601f82011682018060405250810190610b099190611ef4565b905060008973ffffffffffffffffffffffffffffffffffffffff1663b15db81f836040518263ffffffff1660e01b8152600401610b46919061253c565b6101006040518083038186803b158015610b5f57600080fd5b505afa158015610b73573d6000803e3d6000fd5b505050506040513d601f19601f82011682018060405250810190610b979190611eca565b9050600073ffffffffffffffffffffffffffffffffffffffff16816020015173ffffffffffffffffffffffffffffffffffffffff161415610bd9575050610c2e565b81858580610be69061288c565b965081518110610c1f577f4e487b7100000000000000000000000000000000000000000000000000000000600052603260045260246000fd5b60200260200101818152505050505b8080610c3990612831565b915050610a67565b508181945094505050509250929050565b6060600082518451610c64919061270e565b8451610c7091906126b8565b905060008167ffffffffffffffff811115610cb4577f4e487b7100000000000000000000000000000000000000000000000000000000600052604160045260246000fd5b604051908082528060200260200182016040528015610ced57816020015b610cda6117a5565b815260200190600190039081610cd25790505b50905060005b8551811015610efc57610d8a8888888481518110610d3a577f4e487b7100000000000000000000000000000000000000000000000000000000600052603260045260246000fd5b6020026020010151898581518110610d7b577f4e487b7100000000000000000000000000000000000000000000000000000000600052603260045260246000fd5b60200260200101516000611493565b828281518110610dc3577f4e487b7100000000000000000000000000000000000000000000000000000000600052603260045260246000fd5b602002602001018190525060005b8551811015610ee857600081875184610dea919061270e565b8951610df691906126b8565b610e0091906126b8565b9050610e908a8a8a8681518110610e40577f4e487b7100000000000000000000000000000000000000000000000000000000600052603260045260246000fd5b60200260200101518a8681518110610e81577f4e487b7100000000000000000000000000000000000000000000000000000000600052603260045260246000fd5b60200260200101516001611493565b848281518110610ec9577f4e487b7100000000000000000000000000000000000000000000000000000000600052603260045260246000fd5b6020026020010181905250508080610ee09061288c565b915050610dd1565b508080610ef49061288c565b915050610cf3565b508092505050949350505050565b60606000806000610f1b8686610952565b9150915060008167ffffffffffffffff811115610f61577f4e487b7100000000000000000000000000000000000000000000000000000000600052604160045260246000fd5b604051908082528060200260200182016040528015610f9a57816020015b610f87611694565b815260200190600190039081610f7f5790505b50905060005b8281101561104957610ff288858381518110610fe5577f4e487b7100000000000000000000000000000000000000000000000000000000600052603260045260246000fd5b602002602001015161105a565b82828151811061102b577f4e487b7100000000000000000000000000000000000000000000000000000000600052603260045260246000fd5b602002602001018190525080806110419061288c565b915050610fa0565b508082945094505050509250929050565b611062611694565b60008373ffffffffffffffffffffffffffffffffffffffff1663b15db81f846040518263ffffffff1660e01b815260040161109d919061253c565b6101006040518083038186803b1580156110b657600080fd5b505afa1580156110ca573d6000803e3d6000fd5b505050506040513d601f19601f820116820180604052508101906110ee9190611eca565b90506110f8611694565b838160000181815250508160400151816020019073ffffffffffffffffffffffffffffffffffffffff16908173ffffffffffffffffffffffffffffffffffffffff16815250508160600151816040019073ffffffffffffffffffffffffffffffffffffffff16908173ffffffffffffffffffffffffffffffffffffffff168152505081608001518160600181815250508160a001518160800181815250508160c001518160a0018181525050809250505092915050565b6111b76116f6565b60008373ffffffffffffffffffffffffffffffffffffffff1663a85c38ef846040518263ffffffff1660e01b81526004016111f2919061253c565b6101406040518083038186803b15801561120b57600080fd5b505afa15801561121f573d6000803e3d6000fd5b505050506040513d601f19601f820116820180604052508101906112439190611e4e565b905060008473ffffffffffffffffffffffffffffffffffffffff166381d12c58856040518263ffffffff1660e01b8152600401611280919061253c565b60806040518083038186803b15801561129857600080fd5b505afa1580156112ac573d6000803e3d6000fd5b505050506040513d601f19601f820116820180604052508101906112d09190611ea1565b90506112da6116f6565b848160000181815250508260400151816020019073ffffffffffffffffffffffffffffffffffffffff16908173ffffffffffffffffffffffffffffffffffffffff16815250508260600151816040019073ffffffffffffffffffffffffffffffffffffffff16908173ffffffffffffffffffffffffffffffffffffffff1681525050600073ffffffffffffffffffffffffffffffffffffffff16836080015173ffffffffffffffffffffffffffffffffffffffff16141561139f5782606001516113a5565b82608001515b816060019073ffffffffffffffffffffffffffffffffffffffff16908173ffffffffffffffffffffffffffffffffffffffff16815250508260e001518160c00181815250508261012001518161012001901515908115158152505060008360a00151141581610160019015159081151581525050806101600151801561142e5750428360a00151105b816101400190151590811515815250508160000151816080019060ff16908160ff168152505081606001518160a0019060ff16908160ff168152505081602001518160e001818152505081604001518161010001818152505080935050505092915050565b61149b6117a5565b60006114a98686868661165b565b905060008773ffffffffffffffffffffffffffffffffffffffff1663514ea4bf836040518263ffffffff1660e01b81526004016114e69190612521565b60a06040518083038186803b1580156114fe57600080fd5b505afa158015611512573d6000803e3d6000fd5b505050506040513d601f19601f820116820180604052508101906115369190611e78565b90506115406117a5565b8281600001818152505087816020019073ffffffffffffffffffffffffffffffffffffffff16908173ffffffffffffffffffffffffffffffffffffffff168152505085816040019073ffffffffffffffffffffffffffffffffffffffff16908173ffffffffffffffffffffffffffffffffffffffff168152505086816060019073ffffffffffffffffffffffffffffffffffffffff16908173ffffffffffffffffffffffffffffffffffffffff168152505084816080019060ff16908160ff168152505081600001518160a001818152505081602001518160c001818152505081604001518160e001818152505081606001518161010001818152505081608001518161012001818152505080935050505095945050505050565b60008484848460405160200161167494939291906123ca565b604051602081830303815290604052805190602001209050949350505050565b6040518060c0016040528060008152602001600073ffffffffffffffffffffffffffffffffffffffff168152602001600073ffffffffffffffffffffffffffffffffffffffff1681526020016000815260200160008152602001600081525090565b60405180610180016040528060008152602001600073ffffffffffffffffffffffffffffffffffffffff168152602001600073ffffffffffffffffffffffffffffffffffffffff168152602001600073ffffffffffffffffffffffffffffffffffffffff168152602001600060ff168152602001600060ff1681526020016000815260200160008152602001600081526020016000151581526020016000151581526020016000151581525090565b60405180610140016040528060008019168152602001600073ffffffffffffffffffffffffffffffffffffffff168152602001600073ffffffffffffffffffffffffffffffffffffffff168152602001600073ffffffffffffffffffffffffffffffffffffffff168152602001600060ff16815260200160008152602001600081526020016000815260200160008152602001600081525090565b600061185361184e8461257c565b612557565b9050808382526020820190508285602086028201111561187257600080fd5b60005b858110156118a257816118888882611918565b845260208401935060208301925050600181019050611875565b5050509392505050565b60006118bf6118ba846125a8565b612557565b905080838252602082019050828560208602820111156118de57600080fd5b60005b8581101561190e57816118f48882611c9e565b8452602084019350602083019250506001810190506118e1565b5050509392505050565b60008135905061192781612944565b92915050565b60008151905061193c81612944565b92915050565b600082601f83011261195357600080fd5b8135611963848260208601611840565b91505092915050565b600082601f83011261197d57600080fd5b815161198d8482602086016118ac565b91505092915050565b6000815190506119a58161295b565b92915050565b6000813590506119ba81612972565b92915050565b6000813590506119cf81612989565b92915050565b600061014082840312156119e857600080fd5b6119f3610140612557565b90506000611a038482850161192d565b6000830152506020611a178482850161192d565b6020830152506040611a2b8482850161192d565b6040830152506060611a3f8482850161192d565b6060830152506080611a538482850161192d565b60808301525060a0611a6784828501611c9e565b60a08301525060c0611a7b84828501611c9e565b60c08301525060e0611a8f84828501611c9e565b60e083015250610100611aa484828501611c9e565b61010083015250610120611aba84828501611996565b6101208301525092915050565b600060a08284031215611ad957600080fd5b611ae360a0612557565b90506000611af384828501611c9e565b6000830152506020611b0784828501611c9e565b6020830152506040611b1b84828501611c9e565b6040830152506060611b2f84828501611c9e565b6060830152506080611b4384828501611c9e565b60808301525092915050565b600060808284031215611b6157600080fd5b611b6b6080612557565b90506000611b7b84828501611cb3565b6000830152506020611b8f84828501611c9e565b6020830152506040611ba384828501611c9e565b6040830152506060611bb784828501611cb3565b60608301525092915050565b60006101008284031215611bd657600080fd5b611be1610100612557565b90506000611bf18482850161192d565b6000830152506020611c058482850161192d565b6020830152506040611c198482850161192d565b6040830152506060611c2d8482850161192d565b6060830152506080611c4184828501611c9e565b60808301525060a0611c5584828501611c9e565b60a08301525060c0611c6984828501611c9e565b60c08301525060e0611c7d84828501611c9e565b60e08301525092915050565b600081359050611c98816129a0565b92915050565b600081519050611cad816129a0565b92915050565b600081519050611cc2816129b7565b92915050565b60008060408385031215611cdb57600080fd5b600083015167ffffffffffffffff811115611cf557600080fd5b611d018582860161196c565b9250506020611d1285828601611c9e565b9150509250929050565b60008060408385031215611d2f57600080fd5b6000611d3d858286016119ab565b9250506020611d4e85828601611918565b9150509250929050565b60008060008060808587031215611d6e57600080fd5b6000611d7c878288016119ab565b9450506020611d8d87828801611918565b9350506040611d9e87828801611c89565b9250506060611daf87828801611c89565b91505092959194509250565b60008060008060808587031215611dd157600080fd5b6000611ddf878288016119c0565b9450506020611df087828801611918565b935050604085013567ffffffffffffffff811115611e0d57600080fd5b611e1987828801611942565b925050606085013567ffffffffffffffff811115611e3657600080fd5b611e4287828801611942565b91505092959194509250565b60006101408284031215611e6157600080fd5b6000611e6f848285016119d5565b91505092915050565b600060a08284031215611e8a57600080fd5b6000611e9884828501611ac7565b91505092915050565b600060808284031215611eb357600080fd5b6000611ec184828501611b4f565b91505092915050565b60006101008284031215611edd57600080fd5b6000611eeb84828501611bc3565b91505092915050565b600060208284031215611f0657600080fd5b6000611f1484828501611c9e565b91505092915050565b6000611f298383612151565b6101808301905092915050565b6000611f428383612247565b6101408301905092915050565b6000611f5b8383612313565b60c08301905092915050565b6000611f73838361238e565b60208301905092915050565b611f888161279c565b82525050565b611f978161279c565b82525050565b6000611fa882612614565b611fb28185612674565b9350611fbd836125d4565b8060005b83811015611fee578151611fd58882611f1d565b9750611fe083612640565b925050600181019050611fc1565b5085935050505092915050565b60006120068261261f565b6120108185612685565b935061201b836125e4565b8060005b8381101561204c5781516120338882611f36565b975061203e8361264d565b92505060018101905061201f565b5085935050505092915050565b60006120648261262a565b61206e8185612696565b9350612079836125f4565b8060005b838110156120aa5781516120918882611f4f565b975061209c8361265a565b92505060018101905061207d565b5085935050505092915050565b60006120c282612635565b6120cc81856126a7565b93506120d783612604565b8060005b838110156121085781516120ef8882611f67565b97506120fa83612667565b9250506001810190506120db565b5085935050505092915050565b61211e816127ae565b82525050565b61212d816127ba565b82525050565b61213c816127ba565b82525050565b61214b8161281f565b82525050565b61018082016000820151612168600085018261238e565b50602082015161217b6020850182611f7f565b50604082015161218e6040850182611f7f565b5060608201516121a16060850182611f7f565b5060808201516121b460808501826123ac565b5060a08201516121c760a08501826123ac565b5060c08201516121da60c085018261238e565b5060e08201516121ed60e085018261238e565b5061010082015161220261010085018261238e565b50610120820151612217610120850182612115565b5061014082015161222c610140850182612115565b50610160820151612241610160850182612115565b50505050565b6101408201600082015161225e6000850182612124565b5060208201516122716020850182611f7f565b5060408201516122846040850182611f7f565b5060608201516122976060850182611f7f565b5060808201516122aa60808501826123ac565b5060a08201516122bd60a085018261238e565b5060c08201516122d060c085018261238e565b5060e08201516122e360e085018261238e565b506101008201516122f861010085018261238e565b5061012082015161230d61012085018261238e565b50505050565b60c082016000820151612329600085018261238e565b50602082015161233c6020850182611f7f565b50604082015161234f6040850182611f7f565b506060820151612362606085018261238e565b506080820151612375608085018261238e565b5060a082015161238860a085018261238e565b50505050565b61239781612808565b82525050565b6123a681612808565b82525050565b6123b581612812565b82525050565b6123c481612812565b82525050565b60006080820190506123df6000830187611f8e565b6123ec6020830186611f8e565b6123f96040830185611f8e565b61240660608301846123bb565b95945050505050565b60006060820190506124246000830186611f8e565b6124316020830185612142565b61243e6040830184612142565b949350505050565b600060408201905061245b6000830185611f8e565b612468602083018461239d565b9392505050565b600060408201905081810360008301526124898185611f9d565b9050612498602083018461239d565b9392505050565b600060208201905081810360008301526124b98184611ffb565b905092915050565b600060408201905081810360008301526124db8185612059565b90506124ea602083018461239d565b9392505050565b6000604082019050818103600083015261250b81856120b7565b905061251a602083018461239d565b9392505050565b60006020820190506125366000830184612133565b92915050565b6000602082019050612551600083018461239d565b92915050565b6000612561612572565b905061256d828261285b565b919050565b6000604051905090565b600067ffffffffffffffff82111561259757612596612904565b5b602082029050602081019050919050565b600067ffffffffffffffff8211156125c3576125c2612904565b5b602082029050602081019050919050565b6000819050602082019050919050565b6000819050602082019050919050565b6000819050602082019050919050565b6000819050602082019050919050565b600081519050919050565b600081519050919050565b600081519050919050565b600081519050919050565b6000602082019050919050565b6000602082019050919050565b6000602082019050919050565b6000602082019050919050565b600082825260208201905092915050565b600082825260208201905092915050565b600082825260208201905092915050565b600082825260208201905092915050565b60006126c382612808565b91506126ce83612808565b9250827fffffffffffffffffffffffffffffffffffffffffffffffffffffffffffffffff03821115612703576127026128d5565b5b828201905092915050565b600061271982612808565b915061272483612808565b9250817fffffffffffffffffffffffffffffffffffffffffffffffffffffffffffffffff048311821515161561275d5761275c6128d5565b5b828202905092915050565b600061277382612808565b915061277e83612808565b925082821015612791576127906128d5565b5b828203905092915050565b60006127a7826127e8565b9050919050565b60008115159050919050565b6000819050919050565b60006127cf8261279c565b9050919050565b60006127e18261279c565b9050919050565b600073ffffffffffffffffffffffffffffffffffffffff82169050919050565b6000819050919050565b600060ff82169050919050565b600061282a82612808565b9050919050565b600061283c82612808565b915060008214156128505761284f6128d5565b5b600182039050919050565b61286482612933565b810181811067ffffffffffffffff8211171561288357612882612904565b5b80604052505050565b600061289782612808565b91507fffffffffffffffffffffffffffffffffffffffffffffffffffffffffffffffff8214156128ca576128c96128d5565b5b600182019050919050565b7f4e487b7100000000000000000000000000000000000000000000000000000000600052601160045260246000fd5b7f4e487b7100000000000000000000000000000000000000000000000000000000600052604160045260246000fd5b6000601f19601f8301169050919050565b61294d8161279c565b811461295857600080fd5b50565b612964816127ae565b811461296f57600080fd5b50565b61297b816127c4565b811461298657600080fd5b50565b612992816127d6565b811461299d57600080fd5b50565b6129a981612808565b81146129b457600080fd5b50565b6129c081612812565b81146129cb57600080fd5b5056fea26469706673582212205be35df3669fa0ca9de5042bc1301e64f2f05bdf812ace6ae33c6b46b7243dff64736f6c63430008040033",
  "immutableReferences": {},
  "source": "// SPDX-License-Identifier: MIT\npragma solidity 0.8.4;\n\nstruct LeverageOrderForLens {\n    uint256 id;\n    address indexToken;\n    address collateralToken;\n    address payToken;\n    uint8 side;\n    uint8 updateType;\n    uint256 triggerPrice;\n    uint256 size;\n    uint256 payAmount;\n    bool triggerAboveThreshold;\n    bool expired;\n    bool isMarket;\n}\n\nstruct SwapOrderForLens {\n    uint256 id;\n    address tokenIn;\n    address tokenOut;\n    uint256 amountIn;\n    uint256 minAmountOut;\n    uint256 price;\n}\n\nstruct PositionForLens {\n    bytes32 key;\n    address owner;\n    address collateralToken;\n    address indexToken;\n    uint8 side;\n    uint256 size;\n    uint256 collateralValue;\n    uint256 reserveAmount;\n    uint256 entryPrice;\n    uint256 entryInterestRate;\n}\n\ninterface IOrderManagerForTradeLens {\n    struct Order {\n        address pool;\n        address owner;\n        address indexToken;\n        address collateralToken;\n        address payToken;\n        uint256 expiresAt;\n        uint256 submissionBlock;\n        uint256 price;\n        uint256 executionFee;\n        bool triggerAboveThreshold;\n    }\n\n    struct Request {\n        uint8 side;\n        uint256 sizeChange;\n        uint256 collateral;\n        uint8 updateType;\n    }\n\n    struct SwapOrder {\n        address pool;\n        address owner;\n        address tokenIn;\n        address tokenOut;\n        uint256 amountIn;\n        uint256 minAmountOut;\n        uint256 price;\n        uint256 executionFee;\n    }\n\n    function getOrders(address user, uint256 skip, uint256 take)\n        external\n        view\n        returns (uint256[] memory orderIds, uint256 total);\n    function getSwapOrders(address user, uint256 skip, uint256 take)\n        external\n        view\n        returns (uint256[] memory orderIds, uint256 total);\n    function userOrders(address, uint256) external view returns (uint256);\n    function userSwapOrders(address, uint256) external view returns (uint256);\n    function orders(uint256) external view returns (Order memory);\n    function requests(uint256) external view returns (Request memory);\n    function swapOrders(uint256) external view returns (SwapOrder memory);\n}\n\ninterface IPoolForTradeLens {\n    struct Position {\n        uint256 size;\n        uint256 collateralValue;\n        uint256 reserveAmount;\n        uint256 entryPrice;\n        uint256 borrowIndex;\n    }\n\n    function positions(bytes32) external view returns (Position memory);\n}\n\ncontract TradeLens {\n    function getLeverageOrderIds(IOrderManagerForTradeLens _orderbook, address _owner)\n        public\n        view\n        returns (uint256[] memory, uint256)\n    {\n        (, uint256 totalOrder) = _orderbook.getOrders(_owner, 0, 0);\n        uint256[] memory orderIds = new uint256[](totalOrder);\n        uint256 totalPending = 0;\n        for (uint256 i = totalOrder; i > 0; i--) {\n            uint256 orderId = _orderbook.userOrders(_owner, i - 1);\n            IOrderManagerForTradeLens.Order memory order = _orderbook.orders(orderId);\n            if (order.owner == address(0)) {\n                continue;\n            }\n            orderIds[totalPending++] = orderId;\n        }\n        return (orderIds, totalPending);\n    }\n\n    function getLeverageOrders(IOrderManagerForTradeLens _orderbook, address _owner, uint256 _skip, uint256 _take)\n        external\n        view\n        returns (LeverageOrderForLens[] memory, uint256)\n    {\n        (uint256[] memory orderIds, uint256 totalOrder) = getLeverageOrderIds(_orderbook, _owner);\n        _skip = _skip < totalOrder ? _skip : totalOrder;\n        _take = _skip + _take > totalOrder ? totalOrder - _skip : _take;\n        LeverageOrderForLens[] memory pendingOrders = new LeverageOrderForLens[](_take);\n        for (uint256 i = 0; i < _take; i++) {\n            pendingOrders[i] = _parseLeverageOrder(_orderbook, orderIds[_skip + i]);\n        }\n        return (pendingOrders, totalOrder);\n    }\n\n    function getAllLeverageOrders(IOrderManagerForTradeLens _orderbook, address _owner)\n        external\n        view\n        returns (LeverageOrderForLens[] memory, uint256)\n    {\n        (uint256[] memory orderIds, uint256 totalOrder) = getLeverageOrderIds(_orderbook, _owner);\n        LeverageOrderForLens[] memory pendingOrders = new LeverageOrderForLens[](totalOrder);\n        for (uint256 i = 0; i < totalOrder; i++) {\n            pendingOrders[i] = _parseLeverageOrder(_orderbook, orderIds[i]);\n        }\n        return (pendingOrders, totalOrder);\n    }\n\n    function getSwapOrderIds(IOrderManagerForTradeLens _orderbook, address _owner)\n        public\n        view\n        returns (uint256[] memory, uint256)\n    {\n        (, uint256 totalOrder) = _orderbook.getSwapOrders(_owner, 0, 0);\n\n        uint256[] memory orderIds = new uint256[](totalOrder);\n        uint256 totalPending = 0;\n        for (uint256 i = totalOrder; i > 0; i--) {\n            uint256 orderId = _orderbook.userSwapOrders(_owner, i - 1);\n            IOrderManagerForTradeLens.SwapOrder memory order = _orderbook.swapOrders(orderId);\n            if (order.owner == address(0)) {\n                continue;\n            }\n            orderIds[totalPending++] = orderId;\n        }\n        return (orderIds, totalPending);\n    }\n\n    function getSwapOrders(IOrderManagerForTradeLens _orderbook, address _owner, uint256 _skip, uint256 _take)\n        external\n        view\n        returns (SwapOrderForLens[] memory, uint256)\n    {\n        (uint256[] memory orderIds, uint256 totalOrder) = getSwapOrderIds(_orderbook, _owner);\n        _skip = _skip < totalOrder ? _skip : totalOrder;\n        _take = _skip + _take > totalOrder ? totalOrder - _skip : _take;\n        SwapOrderForLens[] memory pendingOrders = new SwapOrderForLens[](_take);\n        for (uint256 i = 0; i < _take; i++) {\n            pendingOrders[i] = _parseSwapOrder(_orderbook, orderIds[_skip + i]);\n        }\n        return (pendingOrders, totalOrder);\n    }\n\n    function getAllSwapOrders(IOrderManagerForTradeLens _orderbook, address _owner)\n        external\n        view\n        returns (SwapOrderForLens[] memory, uint256)\n    {\n        (uint256[] memory orderIds, uint256 totalOrder) = getSwapOrderIds(_orderbook, _owner);\n        SwapOrderForLens[] memory pendingOrders = new SwapOrderForLens[](totalOrder);\n        for (uint256 i = 0; i < totalOrder; i++) {\n            pendingOrders[i] = _parseSwapOrder(_orderbook, orderIds[i]);\n        }\n        return (pendingOrders, totalOrder);\n    }\n\n    function getPositions(\n        IPoolForTradeLens _pool,\n        address _owner,\n        address[] memory _indexTokens,\n        address[] memory _stableCoins\n    ) public view returns (PositionForLens[] memory) {\n        uint256 totalPosition = _indexTokens.length + _indexTokens.length * _stableCoins.length;\n        PositionForLens[] memory positions = new PositionForLens[](totalPosition);\n        for (uint256 i = 0; i < _indexTokens.length; i++) {\n            // long positions\n            positions[i] = _parsePosition(_pool, _owner, _indexTokens[i], _indexTokens[i], 0);\n            // short positions\n            for (uint256 j = 0; j < _stableCoins.length; j++) {\n                uint256 index = _indexTokens.length + i * _stableCoins.length + j;\n                positions[index] = _parsePosition(_pool, _owner, _indexTokens[i], _stableCoins[j], 1);\n            }\n        }\n        return positions;\n    }\n\n    function _parseLeverageOrder(IOrderManagerForTradeLens _orderbook, uint256 _id)\n        private\n        view\n        returns (LeverageOrderForLens memory)\n    {\n        IOrderManagerForTradeLens.Order memory order = _orderbook.orders(_id);\n        IOrderManagerForTradeLens.Request memory request = _orderbook.requests(_id);\n\n        LeverageOrderForLens memory leverageOrder;\n        leverageOrder.id = _id;\n        leverageOrder.indexToken = order.indexToken;\n        leverageOrder.collateralToken = order.collateralToken;\n        leverageOrder.payToken = order.payToken != address(0) ? order.payToken : order.collateralToken;\n        leverageOrder.triggerPrice = order.price;\n        leverageOrder.triggerAboveThreshold = order.triggerAboveThreshold;\n        leverageOrder.isMarket = order.expiresAt != 0;\n        leverageOrder.expired = leverageOrder.isMarket && order.expiresAt < block.timestamp;\n\n        leverageOrder.side = request.side;\n        leverageOrder.updateType = request.updateType;\n        leverageOrder.size = request.sizeChange;\n        leverageOrder.payAmount = request.collateral;\n\n        return leverageOrder;\n    }\n\n    function _parseSwapOrder(IOrderManagerForTradeLens _orderbook, uint256 _id)\n        private\n        view\n        returns (SwapOrderForLens memory)\n    {\n        IOrderManagerForTradeLens.SwapOrder memory order = _orderbook.swapOrders(_id);\n\n        SwapOrderForLens memory swapOrder;\n        swapOrder.id = _id;\n        swapOrder.tokenIn = order.tokenIn;\n        swapOrder.tokenOut = order.tokenOut;\n        swapOrder.amountIn = order.amountIn;\n        swapOrder.minAmountOut = order.minAmountOut;\n        swapOrder.price = order.price;\n\n        return swapOrder;\n    }\n\n    function _parsePosition(\n        IPoolForTradeLens _pool,\n        address _owner,\n        address _indexToken,\n        address _collateralToken,\n        uint8 _side\n    ) private view returns (PositionForLens memory) {\n        bytes32 key = _getPositionKey(_owner, _indexToken, _collateralToken, _side);\n        IPoolForTradeLens.Position memory rawPosition = _pool.positions(key);\n\n        PositionForLens memory position;\n        position.key = key;\n        position.owner = _owner;\n        position.collateralToken = _collateralToken;\n        position.indexToken = _indexToken;\n        position.side = _side;\n        position.size = rawPosition.size;\n        position.collateralValue = rawPosition.collateralValue;\n        position.reserveAmount = rawPosition.reserveAmount;\n        position.entryPrice = rawPosition.entryPrice;\n        position.entryInterestRate = rawPosition.borrowIndex;\n\n        return position;\n    }\n\n    function _getPositionKey(address _owner, address _indexToken, address _collateralToken, uint8 _side)\n        internal\n        pure\n        returns (bytes32)\n    {\n        return keccak256(abi.encode(_owner, _indexToken, _collateralToken, _side));\n    }\n}",
  "sourcePath": "/Users/rohanshrothrium/Documents/kuru-contracts/contracts/TradeLens.sol",
  "compiler": {
    "name": "solc",
    "version": "0.8.4+commit.c7e474f2.Emscripten.clang"
  },
  "schemaVersion": "3.4.13",
  "updatedAt": "2023-05-05T17:00:10.965Z",
  "networkType": "ethereum",
  "devdoc": {
    "kind": "dev",
    "methods": {},
    "version": 1
  },
  "userdoc": {
    "kind": "user",
    "methods": {},
    "version": 1
  }
}