{
  "_format": "hh-sol-artifact-1",
  "contractName": "FaucetToken",
  "sourceName": "contracts/gmx/tokens/FaucetToken.sol",
  "abi": [
    {
      "inputs": [
        {
          "internalType": "string",
          "name": "name",
          "type": "string"
        },
        {
          "internalType": "string",
          "name": "symbol",
          "type": "string"
        },
        {
          "internalType": "uint8",
          "name": "decimals",
          "type": "uint8"
        },
        {
          "internalType": "uint256",
          "name": "dropletAmount",
          "type": "uint256"
        }
      ],
      "stateMutability": "nonpayable",
      "type": "constructor"
    },
    {
      "anonymous": false,
      "inputs": [
        {
          "indexed": true,
          "internalType": "address",
          "name": "owner",
          "type": "address"
        },
        {
          "indexed": true,
          "internalType": "address",
          "name": "spender",
          "type": "address"
        },
        {
          "indexed": false,
          "internalType": "uint256",
          "name": "value",
          "type": "uint256"
        }
      ],
      "name": "Approval",
      "type": "event"
    },
    {
      "anonymous": false,
      "inputs": [
        {
          "indexed": true,
          "internalType": "address",
          "name": "from",
          "type": "address"
        },
        {
          "indexed": true,
          "internalType": "address",
          "name": "to",
          "type": "address"
        },
        {
          "indexed": false,
          "internalType": "uint256",
          "name": "value",
          "type": "uint256"
        }
      ],
      "name": "Transfer",
      "type": "event"
    },
    {
      "inputs": [],
      "name": "DROPLET_INTERVAL",
      "outputs": [
        {
          "internalType": "uint256",
          "name": "",
          "type": "uint256"
        }
      ],
      "stateMutability": "view",
      "type": "function"
    },
    {
      "inputs": [
        {
          "internalType": "address",
          "name": "",
          "type": "address"
        }
      ],
      "name": "_claimedAt",
      "outputs": [
        {
          "internalType": "uint256",
          "name": "",
          "type": "uint256"
        }
      ],
      "stateMutability": "view",
      "type": "function"
    },
    {
      "inputs": [],
      "name": "_dropletAmount",
      "outputs": [
        {
          "internalType": "uint256",
          "name": "",
          "type": "uint256"
        }
      ],
      "stateMutability": "view",
      "type": "function"
    },
    {
      "inputs": [],
      "name": "_gov",
      "outputs": [
        {
          "internalType": "address",
          "name": "",
          "type": "address"
        }
      ],
      "stateMutability": "view",
      "type": "function"
    },
    {
      "inputs": [],
      "name": "_isFaucetEnabled",
      "outputs": [
        {
          "internalType": "bool",
          "name": "",
          "type": "bool"
        }
      ],
      "stateMutability": "view",
      "type": "function"
    },
    {
      "inputs": [
        {
          "internalType": "address",
          "name": "owner",
          "type": "address"
        },
        {
          "internalType": "address",
          "name": "spender",
          "type": "address"
        }
      ],
      "name": "allowance",
      "outputs": [
        {
          "internalType": "uint256",
          "name": "",
          "type": "uint256"
        }
      ],
      "stateMutability": "view",
      "type": "function"
    },
    {
      "inputs": [
        {
          "internalType": "address",
          "name": "spender",
          "type": "address"
        },
        {
          "internalType": "uint256",
          "name": "amount",
          "type": "uint256"
        }
      ],
      "name": "approve",
      "outputs": [
        {
          "internalType": "bool",
          "name": "",
          "type": "bool"
        }
      ],
      "stateMutability": "nonpayable",
      "type": "function"
    },
    {
      "inputs": [
        {
          "internalType": "address",
          "name": "account",
          "type": "address"
        }
      ],
      "name": "balanceOf",
      "outputs": [
        {
          "internalType": "uint256",
          "name": "",
          "type": "uint256"
        }
      ],
      "stateMutability": "view",
      "type": "function"
    },
    {
      "inputs": [],
      "name": "claimDroplet",
      "outputs": [],
      "stateMutability": "nonpayable",
      "type": "function"
    },
    {
      "inputs": [],
      "name": "decimals",
      "outputs": [
        {
          "internalType": "uint8",
          "name": "",
          "type": "uint8"
        }
      ],
      "stateMutability": "view",
      "type": "function"
    },
    {
      "inputs": [
        {
          "internalType": "address",
          "name": "spender",
          "type": "address"
        },
        {
          "internalType": "uint256",
          "name": "subtractedValue",
          "type": "uint256"
        }
      ],
      "name": "decreaseAllowance",
      "outputs": [
        {
          "internalType": "bool",
          "name": "",
          "type": "bool"
        }
      ],
      "stateMutability": "nonpayable",
      "type": "function"
    },
    {
      "inputs": [],
      "name": "disableFaucet",
      "outputs": [],
      "stateMutability": "nonpayable",
      "type": "function"
    },
    {
      "inputs": [],
      "name": "enableFaucet",
      "outputs": [],
      "stateMutability": "nonpayable",
      "type": "function"
    },
    {
      "inputs": [
        {
          "internalType": "address",
          "name": "spender",
          "type": "address"
        },
        {
          "internalType": "uint256",
          "name": "addedValue",
          "type": "uint256"
        }
      ],
      "name": "increaseAllowance",
      "outputs": [
        {
          "internalType": "bool",
          "name": "",
          "type": "bool"
        }
      ],
      "stateMutability": "nonpayable",
      "type": "function"
    },
    {
      "inputs": [
        {
          "internalType": "address",
          "name": "account",
          "type": "address"
        },
        {
          "internalType": "uint256",
          "name": "amount",
          "type": "uint256"
        }
      ],
      "name": "mint",
      "outputs": [],
      "stateMutability": "nonpayable",
      "type": "function"
    },
    {
      "inputs": [],
      "name": "name",
      "outputs": [
        {
          "internalType": "string",
          "name": "",
          "type": "string"
        }
      ],
      "stateMutability": "view",
      "type": "function"
    },
    {
      "inputs": [
        {
          "internalType": "uint256",
          "name": "dropletAmount",
          "type": "uint256"
        }
      ],
      "name": "setDropletAmount",
      "outputs": [],
      "stateMutability": "nonpayable",
      "type": "function"
    },
    {
      "inputs": [],
      "name": "symbol",
      "outputs": [
        {
          "internalType": "string",
          "name": "",
          "type": "string"
        }
      ],
      "stateMutability": "view",
      "type": "function"
    },
    {
      "inputs": [],
      "name": "totalSupply",
      "outputs": [
        {
          "internalType": "uint256",
          "name": "",
          "type": "uint256"
        }
      ],
      "stateMutability": "view",
      "type": "function"
    },
    {
      "inputs": [
        {
          "internalType": "address",
          "name": "recipient",
          "type": "address"
        },
        {
          "internalType": "uint256",
          "name": "amount",
          "type": "uint256"
        }
      ],
      "name": "transfer",
      "outputs": [
        {
          "internalType": "bool",
          "name": "",
          "type": "bool"
        }
      ],
      "stateMutability": "nonpayable",
      "type": "function"
    },
    {
      "inputs": [
        {
          "internalType": "address",
          "name": "sender",
          "type": "address"
        },
        {
          "internalType": "address",
          "name": "recipient",
          "type": "address"
        },
        {
          "internalType": "uint256",
          "name": "amount",
          "type": "uint256"
        }
      ],
      "name": "transferFrom",
      "outputs": [
        {
          "internalType": "bool",
          "name": "",
          "type": "bool"
        }
      ],
      "stateMutability": "nonpayable",
      "type": "function"
    }
  ],
  "bytecode": "0x60806040526170806000553480156200001757600080fd5b5060405162001d4a38038062001d4a833981810160405260808110156200003d57600080fd5b81019080805160405193929190846401000000008211156200005e57600080fd5b838201915060208201858111156200007557600080fd5b82518660018202830111640100000000821117156200009357600080fd5b8083526020830192505050908051906020019080838360005b83811015620000c9578082015181840152602081019050620000ac565b50505050905090810190601f168015620000f75780820380516001836020036101000a031916815260200191505b50604052602001805160405193929190846401000000008211156200011b57600080fd5b838201915060208201858111156200013257600080fd5b82518660018202830111640100000000821117156200015057600080fd5b8083526020830192505050908051906020019080838360005b838110156200018657808201518184015260208101905062000169565b50505050905090810190601f168015620001b45780820380516001836020036101000a031916815260200191505b5060405260200180519060200190929190805190602001909291905050508360069080519060200190620001ea92919062000271565b5082600790805190602001906200020392919062000271565b5081600860006101000a81548160ff021916908360ff16021790555033600160006101000a81548173ffffffffffffffffffffffffffffffffffffffff021916908373ffffffffffffffffffffffffffffffffffffffff160217905550806002819055505050505062000317565b828054600181600116156101000203166002900490600052602060002090601f016020900481019282601f10620002b457805160ff1916838001178555620002e5565b82800160010185558215620002e5579182015b82811115620002e4578251825591602001919060010190620002c7565b5b509050620002f49190620002f8565b5090565b5b8082111562000313576000816000905550600101620002f9565b5090565b611a2380620003276000396000f3fe608060405234801561001057600080fd5b50600436106101375760003560e01c806370a08231116100b8578063a9059cbb1161007c578063a9059cbb146105ab578063bd1364481461060f578063c7c7dee51461062d578063d08f8b3f14610637578063dd62ed3e14610665578063e6511743146106dd57610137565b806370a0823114610442578063944d3c2a1461049a57806395d89b41146104a4578063a1c2fb0c14610527578063a457c2d71461054757610137565b8063313ce567116100ff578063313ce5671461031d578063395093511461033e57806340c10f19146103a2578063458a7c36146103f057806363878f161461040e57610137565b806306fdde031461013c578063095ea7b3146101bf57806318160ddd1461022357806323b872dd14610241578063309ef252146102c5575b600080fd5b6101446106e7565b6040518080602001828103825283818151815260200191508051906020019080838360005b83811015610184578082015181840152602081019050610169565b50505050905090810190601f1680156101b15780820380516001836020036101000a031916815260200191505b509250505060405180910390f35b61020b600480360360408110156101d557600080fd5b81019080803573ffffffffffffffffffffffffffffffffffffffff16906020019092919080359060200190929190505050610789565b60405180821515815260200191505060405180910390f35b61022b6107a7565b6040518082815260200191505060405180910390f35b6102ad6004803603606081101561025757600080fd5b81019080803573ffffffffffffffffffffffffffffffffffffffff169060200190929190803573ffffffffffffffffffffffffffffffffffffffff169060200190929190803590602001909291905050506107b1565b60405180821515815260200191505060405180910390f35b610307600480360360208110156102db57600080fd5b81019080803573ffffffffffffffffffffffffffffffffffffffff16906020019092919050505061088a565b6040518082815260200191505060405180910390f35b6103256108a2565b604051808260ff16815260200191505060405180910390f35b61038a6004803603604081101561035457600080fd5b81019080803573ffffffffffffffffffffffffffffffffffffffff169060200190929190803590602001909291905050506108b9565b60405180821515815260200191505060405180910390f35b6103ee600480360360408110156103b857600080fd5b81019080803573ffffffffffffffffffffffffffffffffffffffff1690602001909291908035906020019092919050505061096c565b005b6103f8610a3d565b6040518082815260200191505060405180910390f35b610416610a43565b604051808273ffffffffffffffffffffffffffffffffffffffff16815260200191505060405180910390f35b6104846004803603602081101561045857600080fd5b81019080803573ffffffffffffffffffffffffffffffffffffffff169060200190929190505050610a69565b6040518082815260200191505060405180910390f35b6104a2610ab2565b005b6104ac610b92565b6040518080602001828103825283818151815260200191508051906020019080838360005b838110156104ec5780820151818401526020810190506104d1565b50505050905090810190601f1680156105195780820380516001836020036101000a031916815260200191505b509250505060405180910390f35b61052f610c34565b60405180821515815260200191505060405180910390f35b6105936004803603604081101561055d57600080fd5b81019080803573ffffffffffffffffffffffffffffffffffffffff16906020019092919080359060200190929190505050610c47565b60405180821515815260200191505060405180910390f35b6105f7600480360360408110156105c157600080fd5b81019080803573ffffffffffffffffffffffffffffffffffffffff16906020019092919080359060200190929190505050610d14565b60405180821515815260200191505060405180910390f35b610617610d32565b6040518082815260200191505060405180910390f35b610635610d38565b005b6106636004803603602081101561064d57600080fd5b8101908080359060200190929190505050610e18565b005b6106c76004803603604081101561067b57600080fd5b81019080803573ffffffffffffffffffffffffffffffffffffffff169060200190929190803573ffffffffffffffffffffffffffffffffffffffff169060200190929190505050610ee5565b6040518082815260200191505060405180910390f35b6106e5610f6c565b005b606060068054600181600116156101000203166002900480601f01602080910402602001604051908101604052809291908181526020018280546001816001161561010002031660029004801561077f5780601f106107545761010080835404028352916020019161077f565b820191906000526020600020905b81548152906001019060200180831161076257829003601f168201915b5050505050905090565b600061079d6107966110ec565b84846110f4565b6001905092915050565b6000600554905090565b60006107be8484846112eb565b61087f846107ca6110ec565b61087a8560405180606001604052806028815260200161195860289139600a60008b73ffffffffffffffffffffffffffffffffffffffff1673ffffffffffffffffffffffffffffffffffffffff16815260200190815260200160002060006108306110ec565b73ffffffffffffffffffffffffffffffffffffffff1673ffffffffffffffffffffffffffffffffffffffff168152602001908152602001600020546115b09092919063ffffffff16565b6110f4565b600190509392505050565b60046020528060005260406000206000915090505481565b6000600860009054906101000a900460ff16905090565b60006109626108c66110ec565b8461095d85600a60006108d76110ec565b73ffffffffffffffffffffffffffffffffffffffff1673ffffffffffffffffffffffffffffffffffffffff16815260200190815260200160002060008973ffffffffffffffffffffffffffffffffffffffff1673ffffffffffffffffffffffffffffffffffffffff1681526020019081526020016000205461167090919063ffffffff16565b6110f4565b6001905092915050565b600160009054906101000a900473ffffffffffffffffffffffffffffffffffffffff1673ffffffffffffffffffffffffffffffffffffffff163373ffffffffffffffffffffffffffffffffffffffff1614610a2f576040517f08c379a00000000000000000000000000000000000000000000000000000000081526004018080602001828103825260168152602001807f466175636574546f6b656e3a20666f7262696464656e0000000000000000000081525060200191505060405180910390fd5b610a3982826116f8565b5050565b60025481565b600160009054906101000a900473ffffffffffffffffffffffffffffffffffffffff1681565b6000600960008373ffffffffffffffffffffffffffffffffffffffff1673ffffffffffffffffffffffffffffffffffffffff168152602001908152602001600020549050919050565b600160009054906101000a900473ffffffffffffffffffffffffffffffffffffffff1673ffffffffffffffffffffffffffffffffffffffff163373ffffffffffffffffffffffffffffffffffffffff1614610b75576040517f08c379a00000000000000000000000000000000000000000000000000000000081526004018080602001828103825260168152602001807f466175636574546f6b656e3a20666f7262696464656e0000000000000000000081525060200191505060405180910390fd5b6000600360006101000a81548160ff021916908315150217905550565b606060078054600181600116156101000203166002900480601f016020809104026020016040519081016040528092919081815260200182805460018160011615610100020316600290048015610c2a5780601f10610bff57610100808354040283529160200191610c2a565b820191906000526020600020905b815481529060010190602001808311610c0d57829003601f168201915b5050505050905090565b600360009054906101000a900460ff1681565b6000610d0a610c546110ec565b84610d05856040518060600160405280602581526020016119c960259139600a6000610c7e6110ec565b73ffffffffffffffffffffffffffffffffffffffff1673ffffffffffffffffffffffffffffffffffffffff16815260200190815260200160002060008a73ffffffffffffffffffffffffffffffffffffffff1673ffffffffffffffffffffffffffffffffffffffff168152602001908152602001600020546115b09092919063ffffffff16565b6110f4565b6001905092915050565b6000610d28610d216110ec565b84846112eb565b6001905092915050565b60005481565b600160009054906101000a900473ffffffffffffffffffffffffffffffffffffffff1673ffffffffffffffffffffffffffffffffffffffff163373ffffffffffffffffffffffffffffffffffffffff1614610dfb576040517f08c379a00000000000000000000000000000000000000000000000000000000081526004018080602001828103825260168152602001807f466175636574546f6b656e3a20666f7262696464656e0000000000000000000081525060200191505060405180910390fd5b6001600360006101000a81548160ff021916908315150217905550565b600160009054906101000a900473ffffffffffffffffffffffffffffffffffffffff1673ffffffffffffffffffffffffffffffffffffffff163373ffffffffffffffffffffffffffffffffffffffff1614610edb576040517f08c379a00000000000000000000000000000000000000000000000000000000081526004018080602001828103825260168152602001807f466175636574546f6b656e3a20666f7262696464656e0000000000000000000081525060200191505060405180910390fd5b8060028190555050565b6000600a60008473ffffffffffffffffffffffffffffffffffffffff1673ffffffffffffffffffffffffffffffffffffffff16815260200190815260200160002060008373ffffffffffffffffffffffffffffffffffffffff1673ffffffffffffffffffffffffffffffffffffffff16815260200190815260200160002054905092915050565b600360009054906101000a900460ff16610fee576040517f08c379a000000000000000000000000000000000000000000000000000000000815260040180806020018281038252601f8152602001807f466175636574546f6b656e3a20666175636574206e6f7420656e61626c65640081525060200191505060405180910390fd5b42611043600054600460003373ffffffffffffffffffffffffffffffffffffffff1673ffffffffffffffffffffffffffffffffffffffff1681526020019081526020016000205461167090919063ffffffff16565b111561109a576040517f08c379a000000000000000000000000000000000000000000000000000000000815260040180806020018281038252602681526020018061190c6026913960400191505060405180910390fd5b42600460003373ffffffffffffffffffffffffffffffffffffffff1673ffffffffffffffffffffffffffffffffffffffff168152602001908152602001600020819055506110ea336002546116f8565b565b600033905090565b600073ffffffffffffffffffffffffffffffffffffffff168373ffffffffffffffffffffffffffffffffffffffff16141561117a576040517f08c379a00000000000000000000000000000000000000000000000000000000081526004018080602001828103825260248152602001806119a56024913960400191505060405180910390fd5b600073ffffffffffffffffffffffffffffffffffffffff168273ffffffffffffffffffffffffffffffffffffffff161415611200576040517f08c379a00000000000000000000000000000000000000000000000000000000081526004018080602001828103825260228152602001806118ea6022913960400191505060405180910390fd5b80600a60008573ffffffffffffffffffffffffffffffffffffffff1673ffffffffffffffffffffffffffffffffffffffff16815260200190815260200160002060008473ffffffffffffffffffffffffffffffffffffffff1673ffffffffffffffffffffffffffffffffffffffff168152602001908152602001600020819055508173ffffffffffffffffffffffffffffffffffffffff168373ffffffffffffffffffffffffffffffffffffffff167f8c5be1e5ebec7d5bd14f71427d1e84f3dd0314c0f7b2291e5b200ac8c7c3b925836040518082815260200191505060405180910390a3505050565b600073ffffffffffffffffffffffffffffffffffffffff168373ffffffffffffffffffffffffffffffffffffffff161415611371576040517f08c379a00000000000000000000000000000000000000000000000000000000081526004018080602001828103825260258152602001806119806025913960400191505060405180910390fd5b600073ffffffffffffffffffffffffffffffffffffffff168273ffffffffffffffffffffffffffffffffffffffff1614156113f7576040517f08c379a00000000000000000000000000000000000000000000000000000000081526004018080602001828103825260238152602001806118c76023913960400191505060405180910390fd5b6114028383836118c1565b61146e8160405180606001604052806026815260200161193260269139600960008773ffffffffffffffffffffffffffffffffffffffff1673ffffffffffffffffffffffffffffffffffffffff168152602001908152602001600020546115b09092919063ffffffff16565b600960008573ffffffffffffffffffffffffffffffffffffffff1673ffffffffffffffffffffffffffffffffffffffff1681526020019081526020016000208190555061150381600960008573ffffffffffffffffffffffffffffffffffffffff1673ffffffffffffffffffffffffffffffffffffffff1681526020019081526020016000205461167090919063ffffffff16565b600960008473ffffffffffffffffffffffffffffffffffffffff1673ffffffffffffffffffffffffffffffffffffffff168152602001908152602001600020819055508173ffffffffffffffffffffffffffffffffffffffff168373ffffffffffffffffffffffffffffffffffffffff167fddf252ad1be2c89b69c2b068fc378daa952ba7f163c4a11628f55a4df523b3ef836040518082815260200191505060405180910390a3505050565b600083831115829061165d576040517f08c379a00000000000000000000000000000000000000000000000000000000081526004018080602001828103825283818151815260200191508051906020019080838360005b83811015611622578082015181840152602081019050611607565b50505050905090810190601f16801561164f5780820380516001836020036101000a031916815260200191505b509250505060405180910390fd5b5060008385039050809150509392505050565b6000808284019050838110156116ee576040517f08c379a000000000000000000000000000000000000000000000000000000000815260040180806020018281038252601b8152602001807f536166654d6174683a206164646974696f6e206f766572666c6f77000000000081525060200191505060405180910390fd5b8091505092915050565b600073ffffffffffffffffffffffffffffffffffffffff168273ffffffffffffffffffffffffffffffffffffffff16141561179b576040517f08c379a000000000000000000000000000000000000000000000000000000000815260040180806020018281038252601f8152602001807f45524332303a206d696e7420746f20746865207a65726f20616464726573730081525060200191505060405180910390fd5b6117a7600083836118c1565b6117bc8160055461167090919063ffffffff16565b60058190555061181481600960008573ffffffffffffffffffffffffffffffffffffffff1673ffffffffffffffffffffffffffffffffffffffff1681526020019081526020016000205461167090919063ffffffff16565b600960008473ffffffffffffffffffffffffffffffffffffffff1673ffffffffffffffffffffffffffffffffffffffff168152602001908152602001600020819055508173ffffffffffffffffffffffffffffffffffffffff16600073ffffffffffffffffffffffffffffffffffffffff167fddf252ad1be2c89b69c2b068fc378daa952ba7f163c4a11628f55a4df523b3ef836040518082815260200191505060405180910390a35050565b50505056fe45524332303a207472616e7366657220746f20746865207a65726f206164647265737345524332303a20617070726f766520746f20746865207a65726f2061646472657373466175636574546f6b656e3a2064726f706c6574206e6f7420617661696c61626c652079657445524332303a207472616e7366657220616d6f756e7420657863656564732062616c616e636545524332303a207472616e7366657220616d6f756e74206578636565647320616c6c6f77616e636545524332303a207472616e736665722066726f6d20746865207a65726f206164647265737345524332303a20617070726f76652066726f6d20746865207a65726f206164647265737345524332303a2064656372656173656420616c6c6f77616e63652062656c6f77207a65726fa2646970667358221220e76d303487c24eabfc51ee8a3863c55225972973436a064017ca826c1639c85964736f6c634300060c0033",
  "linkReferences": {},
  "deployedLinkReferences": {}
}